{
  "_format": "hh-sol-artifact-1",
  "contractName": "Polls",
  "sourceName": "contracts/Polls.sol",
  "abi": [
    {
      "inputs": [],
      "stateMutability": "nonpayable",
      "type": "constructor"
    },
    {
      "inputs": [
        {
          "internalType": "address",
          "name": "owner",
          "type": "address"
        }
      ],
      "name": "OwnableInvalidOwner",
      "type": "error"
    },
    {
      "inputs": [
        {
          "internalType": "address",
          "name": "account",
          "type": "address"
        }
      ],
      "name": "OwnableUnauthorizedAccount",
      "type": "error"
    },
    {
      "inputs": [],
      "name": "ReentrancyGuardReentrantCall",
      "type": "error"
    },
    {
      "anonymous": false,
      "inputs": [
        {
          "indexed": true,
          "internalType": "address",
          "name": "caller",
          "type": "address"
        },
        {
          "indexed": false,
          "internalType": "bool",
          "name": "authorized",
          "type": "bool"
        }
      ],
      "name": "AuthorizedCallerUpdated",
      "type": "event"
    },
    {
      "anonymous": false,
      "inputs": [
        {
          "indexed": true,
          "internalType": "address",
          "name": "previousOwner",
          "type": "address"
        },
        {
          "indexed": true,
          "internalType": "address",
          "name": "newOwner",
          "type": "address"
        }
      ],
      "name": "OwnershipTransferred",
      "type": "event"
    },
    {
      "anonymous": false,
      "inputs": [
        {
          "indexed": true,
          "internalType": "uint256",
          "name": "pollId",
          "type": "uint256"
        },
        {
          "indexed": false,
          "internalType": "bool",
          "name": "isActive",
          "type": "bool"
        },
        {
          "indexed": true,
          "internalType": "address",
          "name": "admin",
          "type": "address"
        }
      ],
      "name": "PollActiveChanged",
      "type": "event"
    },
    {
      "anonymous": false,
      "inputs": [
        {
          "indexed": true,
          "internalType": "uint256",
          "name": "pollId",
          "type": "uint256"
        },
        {
          "indexed": false,
          "internalType": "string",
          "name": "title",
          "type": "string"
        },
        {
          "indexed": false,
          "internalType": "enum Polls.PollCategory",
          "name": "category",
          "type": "uint8"
        },
        {
          "indexed": true,
          "internalType": "address",
          "name": "creator",
          "type": "address"
        },
        {
          "indexed": false,
          "internalType": "uint256",
          "name": "startDate",
          "type": "uint256"
        },
        {
          "indexed": false,
          "internalType": "uint256",
          "name": "endDate",
          "type": "uint256"
        }
      ],
      "name": "PollCreated",
      "type": "event"
    },
    {
      "anonymous": false,
      "inputs": [
        {
          "indexed": true,
          "internalType": "uint256",
          "name": "participationId",
          "type": "uint256"
        },
        {
          "indexed": true,
          "internalType": "uint256",
          "name": "pollId",
          "type": "uint256"
        },
        {
          "indexed": true,
          "internalType": "address",
          "name": "participant",
          "type": "address"
        },
        {
          "indexed": false,
          "internalType": "string",
          "name": "optionId",
          "type": "string"
        },
        {
          "indexed": false,
          "internalType": "bool",
          "name": "isBetting",
          "type": "bool"
        },
        {
          "indexed": false,
          "internalType": "string",
          "name": "bettingAssetId",
          "type": "string"
        },
        {
          "indexed": false,
          "internalType": "uint256",
          "name": "bettingAmount",
          "type": "uint256"
        },
        {
          "indexed": false,
          "internalType": "uint256",
          "name": "timestamp",
          "type": "uint256"
        }
      ],
      "name": "PollParticipated",
      "type": "event"
    },
    {
      "inputs": [
        {
          "internalType": "address",
          "name": "",
          "type": "address"
        }
      ],
      "name": "authorizedCallers",
      "outputs": [
        {
          "internalType": "bool",
          "name": "",
          "type": "bool"
        }
      ],
      "stateMutability": "view",
      "type": "function"
    },
    {
      "inputs": [
        {
          "components": [
            {
              "components": [
                {
                  "internalType": "string",
                  "name": "title",
                  "type": "string"
                },
                {
                  "internalType": "string",
                  "name": "titleShorten",
                  "type": "string"
                },
                {
                  "internalType": "string",
                  "name": "description",
                  "type": "string"
                },
                {
                  "internalType": "enum Polls.PollCategory",
                  "name": "category",
                  "type": "uint8"
                },
                {
                  "internalType": "string",
                  "name": "imgUrl",
                  "type": "string"
                },
                {
                  "internalType": "string",
                  "name": "youtubeUrl",
                  "type": "string"
                },
                {
                  "internalType": "string",
                  "name": "artistId",
                  "type": "string"
                }
              ],
              "internalType": "struct Polls.BasicInfo",
              "name": "basic",
              "type": "tuple"
            },
            {
              "components": [
                {
                  "internalType": "uint256",
                  "name": "startDate",
                  "type": "uint256"
                },
                {
                  "internalType": "uint256",
                  "name": "endDate",
                  "type": "uint256"
                },
                {
                  "internalType": "uint256",
                  "name": "answerAnnouncementDate",
                  "type": "uint256"
                }
              ],
              "internalType": "struct Polls.TimeInfo",
              "name": "time",
              "type": "tuple"
            },
            {
              "components": [
                {
                  "internalType": "bool",
                  "name": "exposeInScheduleTab",
                  "type": "bool"
                },
                {
                  "internalType": "bool",
                  "name": "showOnPollPage",
                  "type": "bool"
                },
                {
                  "internalType": "bool",
                  "name": "showOnStarPage",
                  "type": "bool"
                }
              ],
              "internalType": "struct Polls.VisibilityInfo",
              "name": "visibility",
              "type": "tuple"
            },
            {
              "components": [
                {
                  "internalType": "bool",
                  "name": "needToken",
                  "type": "bool"
                },
                {
                  "internalType": "string",
                  "name": "needTokenAddress",
                  "type": "string"
                }
              ],
              "internalType": "struct Polls.TokenGatingInfo",
              "name": "tokenGating",
              "type": "tuple"
            },
            {
              "components": [
                {
                  "internalType": "bool",
                  "name": "bettingMode",
                  "type": "bool"
                },
                {
                  "internalType": "string",
                  "name": "bettingAssetId",
                  "type": "string"
                },
                {
                  "internalType": "uint256",
                  "name": "minimumBet",
                  "type": "uint256"
                },
                {
                  "internalType": "uint256",
                  "name": "maximumBet",
                  "type": "uint256"
                },
                {
                  "internalType": "uint256",
                  "name": "houseCommissionRate",
                  "type": "uint256"
                },
                {
                  "internalType": "uint256",
                  "name": "totalCommissionAmount",
                  "type": "uint256"
                },
                {
                  "internalType": "uint256",
                  "name": "totalBettingAmount",
                  "type": "uint256"
                }
              ],
              "internalType": "struct Polls.BettingInfo",
              "name": "betting",
              "type": "tuple"
            },
            {
              "components": [
                {
                  "internalType": "bool",
                  "name": "allowMultipleVote",
                  "type": "bool"
                },
                {
                  "internalType": "string",
                  "name": "participationRewardAssetId",
                  "type": "string"
                },
                {
                  "internalType": "uint256",
                  "name": "participationRewardAmount",
                  "type": "uint256"
                },
                {
                  "internalType": "string",
                  "name": "participationConsumeAssetId",
                  "type": "string"
                },
                {
                  "internalType": "uint256",
                  "name": "participationConsumeAmount",
                  "type": "uint256"
                }
              ],
              "internalType": "struct Polls.ParticipationInfo",
              "name": "participation",
              "type": "tuple"
            },
            {
              "components": [
                {
                  "internalType": "bool",
                  "name": "hasAnswer",
                  "type": "bool"
                },
                {
                  "internalType": "bool",
                  "name": "hasAnswerAnnouncement",
                  "type": "bool"
                }
              ],
              "internalType": "struct Polls.AnswerInfo",
              "name": "answer",
              "type": "tuple"
            },
            {
              "components": [
                {
                  "internalType": "string",
                  "name": "optionId",
                  "type": "string"
                },
                {
                  "internalType": "string",
                  "name": "name",
                  "type": "string"
                },
                {
                  "internalType": "string",
                  "name": "shorten",
                  "type": "string"
                },
                {
                  "internalType": "string",
                  "name": "description",
                  "type": "string"
                },
                {
                  "internalType": "string",
                  "name": "imgUrl",
                  "type": "string"
                },
                {
                  "internalType": "string",
                  "name": "youtubeUrl",
                  "type": "string"
                }
              ],
              "internalType": "struct Polls.PollOption[]",
              "name": "options",
              "type": "tuple[]"
            },
            {
              "internalType": "string[]",
              "name": "requiredQuests",
              "type": "string[]"
            },
            {
              "internalType": "string[]",
              "name": "answerOptionIds",
              "type": "string[]"
            },
            {
              "internalType": "bool",
              "name": "test",
              "type": "bool"
            }
          ],
          "internalType": "struct Polls.CreatePollParams",
          "name": "params",
          "type": "tuple"
        }
      ],
      "name": "createPoll",
      "outputs": [
        {
          "internalType": "uint256",
          "name": "",
          "type": "uint256"
        }
      ],
      "stateMutability": "nonpayable",
      "type": "function"
    },
    {
      "inputs": [],
      "name": "getCurrentPollId",
      "outputs": [
        {
          "internalType": "uint256",
          "name": "",
          "type": "uint256"
        }
      ],
      "stateMutability": "view",
      "type": "function"
    },
    {
      "inputs": [
        {
          "internalType": "uint256",
          "name": "participationId",
          "type": "uint256"
        }
      ],
      "name": "getParticipationById",
      "outputs": [
        {
          "components": [
            {
              "internalType": "uint256",
              "name": "pollId",
              "type": "uint256"
            },
            {
              "internalType": "address",
              "name": "participant",
              "type": "address"
            },
            {
              "internalType": "string",
              "name": "optionId",
              "type": "string"
            },
            {
              "internalType": "uint256",
              "name": "participatedAt",
              "type": "uint256"
            },
            {
              "internalType": "bool",
              "name": "isBetting",
              "type": "bool"
            },
            {
              "internalType": "string",
              "name": "bettingAssetId",
              "type": "string"
            },
            {
              "internalType": "uint256",
              "name": "bettingAmount",
              "type": "uint256"
            }
          ],
          "internalType": "struct Polls.PollParticipation",
          "name": "",
          "type": "tuple"
        }
      ],
      "stateMutability": "view",
      "type": "function"
    },
    {
      "inputs": [
        {
          "internalType": "uint256",
          "name": "pollId",
          "type": "uint256"
        }
      ],
      "name": "getPoll",
      "outputs": [
        {
          "components": [
            {
              "internalType": "uint256",
              "name": "pollId",
              "type": "uint256"
            },
            {
              "components": [
                {
                  "internalType": "string",
                  "name": "title",
                  "type": "string"
                },
                {
                  "internalType": "string",
                  "name": "titleShorten",
                  "type": "string"
                },
                {
                  "internalType": "string",
                  "name": "description",
                  "type": "string"
                },
                {
                  "internalType": "enum Polls.PollCategory",
                  "name": "category",
                  "type": "uint8"
                },
                {
                  "internalType": "string",
                  "name": "imgUrl",
                  "type": "string"
                },
                {
                  "internalType": "string",
                  "name": "youtubeUrl",
                  "type": "string"
                },
                {
                  "internalType": "string",
                  "name": "artistId",
                  "type": "string"
                }
              ],
              "internalType": "struct Polls.BasicInfo",
              "name": "basic",
              "type": "tuple"
            },
            {
              "components": [
                {
                  "internalType": "uint256",
                  "name": "startDate",
                  "type": "uint256"
                },
                {
                  "internalType": "uint256",
                  "name": "endDate",
                  "type": "uint256"
                },
                {
                  "internalType": "uint256",
                  "name": "answerAnnouncementDate",
                  "type": "uint256"
                }
              ],
              "internalType": "struct Polls.TimeInfo",
              "name": "time",
              "type": "tuple"
            },
            {
              "components": [
                {
                  "internalType": "bool",
                  "name": "exposeInScheduleTab",
                  "type": "bool"
                },
                {
                  "internalType": "bool",
                  "name": "showOnPollPage",
                  "type": "bool"
                },
                {
                  "internalType": "bool",
                  "name": "showOnStarPage",
                  "type": "bool"
                }
              ],
              "internalType": "struct Polls.VisibilityInfo",
              "name": "visibility",
              "type": "tuple"
            },
            {
              "components": [
                {
                  "internalType": "bool",
                  "name": "needToken",
                  "type": "bool"
                },
                {
                  "internalType": "string",
                  "name": "needTokenAddress",
                  "type": "string"
                }
              ],
              "internalType": "struct Polls.TokenGatingInfo",
              "name": "tokenGating",
              "type": "tuple"
            },
            {
              "components": [
                {
                  "internalType": "bool",
                  "name": "bettingMode",
                  "type": "bool"
                },
                {
                  "internalType": "string",
                  "name": "bettingAssetId",
                  "type": "string"
                },
                {
                  "internalType": "uint256",
                  "name": "minimumBet",
                  "type": "uint256"
                },
                {
                  "internalType": "uint256",
                  "name": "maximumBet",
                  "type": "uint256"
                },
                {
                  "internalType": "uint256",
                  "name": "houseCommissionRate",
                  "type": "uint256"
                },
                {
                  "internalType": "uint256",
                  "name": "totalCommissionAmount",
                  "type": "uint256"
                },
                {
                  "internalType": "uint256",
                  "name": "totalBettingAmount",
                  "type": "uint256"
                }
              ],
              "internalType": "struct Polls.BettingInfo",
              "name": "betting",
              "type": "tuple"
            },
            {
              "components": [
                {
                  "internalType": "bool",
                  "name": "allowMultipleVote",
                  "type": "bool"
                },
                {
                  "internalType": "string",
                  "name": "participationRewardAssetId",
                  "type": "string"
                },
                {
                  "internalType": "uint256",
                  "name": "participationRewardAmount",
                  "type": "uint256"
                },
                {
                  "internalType": "string",
                  "name": "participationConsumeAssetId",
                  "type": "string"
                },
                {
                  "internalType": "uint256",
                  "name": "participationConsumeAmount",
                  "type": "uint256"
                }
              ],
              "internalType": "struct Polls.ParticipationInfo",
              "name": "participation",
              "type": "tuple"
            },
            {
              "components": [
                {
                  "internalType": "bool",
                  "name": "hasAnswer",
                  "type": "bool"
                },
                {
                  "internalType": "bool",
                  "name": "hasAnswerAnnouncement",
                  "type": "bool"
                }
              ],
              "internalType": "struct Polls.AnswerInfo",
              "name": "answer",
              "type": "tuple"
            },
            {
              "components": [
                {
                  "internalType": "bool",
                  "name": "isActive",
                  "type": "bool"
                },
                {
                  "internalType": "bool",
                  "name": "test",
                  "type": "bool"
                },
                {
                  "internalType": "address",
                  "name": "creator",
                  "type": "address"
                },
                {
                  "internalType": "uint256",
                  "name": "createdAt",
                  "type": "uint256"
                },
                {
                  "internalType": "uint256",
                  "name": "uniqueVoters",
                  "type": "uint256"
                },
                {
                  "internalType": "uint256",
                  "name": "totalVotes",
                  "type": "uint256"
                }
              ],
              "internalType": "struct Polls.StatusInfo",
              "name": "status",
              "type": "tuple"
            }
          ],
          "internalType": "struct Polls.Poll",
          "name": "poll",
          "type": "tuple"
        },
        {
          "components": [
            {
              "internalType": "string",
              "name": "optionId",
              "type": "string"
            },
            {
              "internalType": "string",
              "name": "name",
              "type": "string"
            },
            {
              "internalType": "string",
              "name": "shorten",
              "type": "string"
            },
            {
              "internalType": "string",
              "name": "description",
              "type": "string"
            },
            {
              "internalType": "string",
              "name": "imgUrl",
              "type": "string"
            },
            {
              "internalType": "string",
              "name": "youtubeUrl",
              "type": "string"
            }
          ],
          "internalType": "struct Polls.PollOption[]",
          "name": "options",
          "type": "tuple[]"
        },
        {
          "internalType": "string[]",
          "name": "requiredQuests",
          "type": "string[]"
        },
        {
          "internalType": "string[]",
          "name": "answerOptionIds",
          "type": "string[]"
        }
      ],
      "stateMutability": "view",
      "type": "function"
    },
    {
      "inputs": [
        {
          "internalType": "uint256",
          "name": "pollId",
          "type": "uint256"
        }
      ],
      "name": "getPollDetailResult",
      "outputs": [
        {
          "components": [
            {
              "internalType": "uint256",
              "name": "pollId",
              "type": "uint256"
            },
            {
              "internalType": "uint256",
              "name": "totalVotes",
              "type": "uint256"
            },
            {
              "internalType": "uint256",
              "name": "uniqueVoters",
              "type": "uint256"
            },
            {
              "internalType": "uint256",
              "name": "totalBettingAmount",
              "type": "uint256"
            },
            {
              "components": [
                {
                  "internalType": "string",
                  "name": "optionId",
                  "type": "string"
                },
                {
                  "internalType": "string",
                  "name": "name",
                  "type": "string"
                },
                {
                  "internalType": "string",
                  "name": "shorten",
                  "type": "string"
                },
                {
                  "internalType": "string",
                  "name": "description",
                  "type": "string"
                },
                {
                  "internalType": "string",
                  "name": "imgUrl",
                  "type": "string"
                },
                {
                  "internalType": "string",
                  "name": "youtubeUrl",
                  "type": "string"
                },
                {
                  "internalType": "uint256",
                  "name": "voteCount",
                  "type": "uint256"
                },
                {
                  "internalType": "uint256",
                  "name": "voteRate",
                  "type": "uint256"
                },
                {
                  "internalType": "uint256",
                  "name": "actualVoteCount",
                  "type": "uint256"
                },
                {
                  "internalType": "uint256",
                  "name": "bettingAmount",
                  "type": "uint256"
                },
                {
                  "internalType": "uint256",
                  "name": "bettingRate",
                  "type": "uint256"
                }
              ],
              "internalType": "struct Polls.PollOptionDetailResult[]",
              "name": "results",
              "type": "tuple[]"
            }
          ],
          "internalType": "struct Polls.PollDetailResult",
          "name": "",
          "type": "tuple"
        }
      ],
      "stateMutability": "view",
      "type": "function"
    },
    {
      "inputs": [
        {
          "internalType": "uint256",
          "name": "pollId",
          "type": "uint256"
        }
      ],
      "name": "getPollOptions",
      "outputs": [
        {
          "components": [
            {
              "internalType": "string",
              "name": "optionId",
              "type": "string"
            },
            {
              "internalType": "string",
              "name": "name",
              "type": "string"
            },
            {
              "internalType": "string",
              "name": "shorten",
              "type": "string"
            },
            {
              "internalType": "string",
              "name": "description",
              "type": "string"
            },
            {
              "internalType": "string",
              "name": "imgUrl",
              "type": "string"
            },
            {
              "internalType": "string",
              "name": "youtubeUrl",
              "type": "string"
            }
          ],
          "internalType": "struct Polls.PollOption[]",
          "name": "",
          "type": "tuple[]"
        }
      ],
      "stateMutability": "view",
      "type": "function"
    },
    {
      "inputs": [
        {
          "internalType": "uint256",
          "name": "pollId",
          "type": "uint256"
        }
      ],
      "name": "getPollResult",
      "outputs": [
        {
          "components": [
            {
              "internalType": "uint256",
              "name": "pollId",
              "type": "uint256"
            },
            {
              "internalType": "uint256",
              "name": "totalVotes",
              "type": "uint256"
            },
            {
              "internalType": "uint256",
              "name": "uniqueVoters",
              "type": "uint256"
            },
            {
              "internalType": "uint256",
              "name": "totalBettingAmount",
              "type": "uint256"
            },
            {
              "components": [
                {
                  "internalType": "string",
                  "name": "optionId",
                  "type": "string"
                },
                {
                  "internalType": "string",
                  "name": "name",
                  "type": "string"
                },
                {
                  "internalType": "uint256",
                  "name": "voteCount",
                  "type": "uint256"
                },
                {
                  "internalType": "uint256",
                  "name": "voteRate",
                  "type": "uint256"
                },
                {
                  "internalType": "uint256",
                  "name": "actualVoteCount",
                  "type": "uint256"
                },
                {
                  "internalType": "uint256",
                  "name": "bettingAmount",
                  "type": "uint256"
                },
                {
                  "internalType": "uint256",
                  "name": "bettingRate",
                  "type": "uint256"
                }
              ],
              "internalType": "struct Polls.PollOptionResult[]",
              "name": "results",
              "type": "tuple[]"
            }
          ],
          "internalType": "struct Polls.PollResult",
          "name": "",
          "type": "tuple"
        }
      ],
      "stateMutability": "view",
      "type": "function"
    },
    {
      "inputs": [
        {
          "internalType": "uint256",
          "name": "pollId",
          "type": "uint256"
        },
        {
          "internalType": "address",
          "name": "user",
          "type": "address"
        }
      ],
      "name": "getUserParticipationIds",
      "outputs": [
        {
          "internalType": "uint256[]",
          "name": "",
          "type": "uint256[]"
        }
      ],
      "stateMutability": "view",
      "type": "function"
    },
    {
      "inputs": [
        {
          "internalType": "uint256",
          "name": "pollId",
          "type": "uint256"
        },
        {
          "internalType": "address",
          "name": "user",
          "type": "address"
        }
      ],
      "name": "getUserParticipations",
      "outputs": [
        {
          "components": [
            {
              "internalType": "uint256",
              "name": "pollId",
              "type": "uint256"
            },
            {
              "internalType": "address",
              "name": "participant",
              "type": "address"
            },
            {
              "internalType": "string",
              "name": "optionId",
              "type": "string"
            },
            {
              "internalType": "uint256",
              "name": "participatedAt",
              "type": "uint256"
            },
            {
              "internalType": "bool",
              "name": "isBetting",
              "type": "bool"
            },
            {
              "internalType": "string",
              "name": "bettingAssetId",
              "type": "string"
            },
            {
              "internalType": "uint256",
              "name": "bettingAmount",
              "type": "uint256"
            }
          ],
          "internalType": "struct Polls.PollParticipation[]",
          "name": "",
          "type": "tuple[]"
        }
      ],
      "stateMutability": "view",
      "type": "function"
    },
    {
      "inputs": [
        {
          "internalType": "uint256",
          "name": "pollId",
          "type": "uint256"
        }
      ],
      "name": "isPollActive",
      "outputs": [
        {
          "internalType": "bool",
          "name": "",
          "type": "bool"
        }
      ],
      "stateMutability": "view",
      "type": "function"
    },
    {
      "inputs": [
        {
          "internalType": "uint256",
          "name": "",
          "type": "uint256"
        },
        {
          "internalType": "string",
          "name": "",
          "type": "string"
        }
      ],
      "name": "optionActualVoteCounts",
      "outputs": [
        {
          "internalType": "uint256",
          "name": "",
          "type": "uint256"
        }
      ],
      "stateMutability": "view",
      "type": "function"
    },
    {
      "inputs": [
        {
          "internalType": "uint256",
          "name": "",
          "type": "uint256"
        },
        {
          "internalType": "string",
          "name": "",
          "type": "string"
        }
      ],
      "name": "optionBetAmounts",
      "outputs": [
        {
          "internalType": "uint256",
          "name": "",
          "type": "uint256"
        }
      ],
      "stateMutability": "view",
      "type": "function"
    },
    {
      "inputs": [
        {
          "internalType": "uint256",
          "name": "",
          "type": "uint256"
        },
        {
          "internalType": "string",
          "name": "",
          "type": "string"
        }
      ],
      "name": "optionVoteCounts",
      "outputs": [
        {
          "internalType": "uint256",
          "name": "",
          "type": "uint256"
        }
      ],
      "stateMutability": "view",
      "type": "function"
    },
    {
      "inputs": [],
      "name": "owner",
      "outputs": [
        {
          "internalType": "address",
          "name": "",
          "type": "address"
        }
      ],
      "stateMutability": "view",
      "type": "function"
    },
    {
      "inputs": [
        {
          "internalType": "uint256",
          "name": "pollId",
          "type": "uint256"
        },
        {
          "internalType": "string",
          "name": "optionId",
          "type": "string"
        },
        {
          "internalType": "address",
          "name": "participant",
          "type": "address"
        },
        {
          "internalType": "bool",
          "name": "isBetting",
          "type": "bool"
        },
        {
          "internalType": "string",
          "name": "bettingAssetId",
          "type": "string"
        },
        {
          "internalType": "uint256",
          "name": "bettingAmount",
          "type": "uint256"
        }
      ],
      "name": "participatePoll",
      "outputs": [
        {
          "internalType": "uint256",
          "name": "",
          "type": "uint256"
        }
      ],
      "stateMutability": "nonpayable",
      "type": "function"
    },
    {
      "inputs": [
        {
          "internalType": "uint256",
          "name": "",
          "type": "uint256"
        },
        {
          "internalType": "uint256",
          "name": "",
          "type": "uint256"
        }
      ],
      "name": "pollAnswerOptionIds",
      "outputs": [
        {
          "internalType": "string",
          "name": "",
          "type": "string"
        }
      ],
      "stateMutability": "view",
      "type": "function"
    },
    {
      "inputs": [
        {
          "internalType": "uint256",
          "name": "",
          "type": "uint256"
        },
        {
          "internalType": "uint256",
          "name": "",
          "type": "uint256"
        }
      ],
      "name": "pollOptions",
      "outputs": [
        {
          "internalType": "string",
          "name": "optionId",
          "type": "string"
        },
        {
          "internalType": "string",
          "name": "name",
          "type": "string"
        },
        {
          "internalType": "string",
          "name": "shorten",
          "type": "string"
        },
        {
          "internalType": "string",
          "name": "description",
          "type": "string"
        },
        {
          "internalType": "string",
          "name": "imgUrl",
          "type": "string"
        },
        {
          "internalType": "string",
          "name": "youtubeUrl",
          "type": "string"
        }
      ],
      "stateMutability": "view",
      "type": "function"
    },
    {
      "inputs": [
        {
          "internalType": "uint256",
          "name": "",
          "type": "uint256"
        }
      ],
      "name": "pollParticipations",
      "outputs": [
        {
          "internalType": "uint256",
          "name": "pollId",
          "type": "uint256"
        },
        {
          "internalType": "address",
          "name": "participant",
          "type": "address"
        },
        {
          "internalType": "string",
          "name": "optionId",
          "type": "string"
        },
        {
          "internalType": "uint256",
          "name": "participatedAt",
          "type": "uint256"
        },
        {
          "internalType": "bool",
          "name": "isBetting",
          "type": "bool"
        },
        {
          "internalType": "string",
          "name": "bettingAssetId",
          "type": "string"
        },
        {
          "internalType": "uint256",
          "name": "bettingAmount",
          "type": "uint256"
        }
      ],
      "stateMutability": "view",
      "type": "function"
    },
    {
      "inputs": [
        {
          "internalType": "uint256",
          "name": "",
          "type": "uint256"
        },
        {
          "internalType": "uint256",
          "name": "",
          "type": "uint256"
        }
      ],
      "name": "pollRequiredQuests",
      "outputs": [
        {
          "internalType": "string",
          "name": "",
          "type": "string"
        }
      ],
      "stateMutability": "view",
      "type": "function"
    },
    {
      "inputs": [
        {
          "internalType": "uint256",
          "name": "",
          "type": "uint256"
        },
        {
          "internalType": "string",
          "name": "",
          "type": "string"
        }
      ],
      "name": "pollValidOptions",
      "outputs": [
        {
          "internalType": "bool",
          "name": "",
          "type": "bool"
        }
      ],
      "stateMutability": "view",
      "type": "function"
    },
    {
      "inputs": [
        {
          "internalType": "uint256",
          "name": "",
          "type": "uint256"
        }
      ],
      "name": "polls",
      "outputs": [
        {
          "internalType": "uint256",
          "name": "pollId",
          "type": "uint256"
        },
        {
          "components": [
            {
              "internalType": "string",
              "name": "title",
              "type": "string"
            },
            {
              "internalType": "string",
              "name": "titleShorten",
              "type": "string"
            },
            {
              "internalType": "string",
              "name": "description",
              "type": "string"
            },
            {
              "internalType": "enum Polls.PollCategory",
              "name": "category",
              "type": "uint8"
            },
            {
              "internalType": "string",
              "name": "imgUrl",
              "type": "string"
            },
            {
              "internalType": "string",
              "name": "youtubeUrl",
              "type": "string"
            },
            {
              "internalType": "string",
              "name": "artistId",
              "type": "string"
            }
          ],
          "internalType": "struct Polls.BasicInfo",
          "name": "basic",
          "type": "tuple"
        },
        {
          "components": [
            {
              "internalType": "uint256",
              "name": "startDate",
              "type": "uint256"
            },
            {
              "internalType": "uint256",
              "name": "endDate",
              "type": "uint256"
            },
            {
              "internalType": "uint256",
              "name": "answerAnnouncementDate",
              "type": "uint256"
            }
          ],
          "internalType": "struct Polls.TimeInfo",
          "name": "time",
          "type": "tuple"
        },
        {
          "components": [
            {
              "internalType": "bool",
              "name": "exposeInScheduleTab",
              "type": "bool"
            },
            {
              "internalType": "bool",
              "name": "showOnPollPage",
              "type": "bool"
            },
            {
              "internalType": "bool",
              "name": "showOnStarPage",
              "type": "bool"
            }
          ],
          "internalType": "struct Polls.VisibilityInfo",
          "name": "visibility",
          "type": "tuple"
        },
        {
          "components": [
            {
              "internalType": "bool",
              "name": "needToken",
              "type": "bool"
            },
            {
              "internalType": "string",
              "name": "needTokenAddress",
              "type": "string"
            }
          ],
          "internalType": "struct Polls.TokenGatingInfo",
          "name": "tokenGating",
          "type": "tuple"
        },
        {
          "components": [
            {
              "internalType": "bool",
              "name": "bettingMode",
              "type": "bool"
            },
            {
              "internalType": "string",
              "name": "bettingAssetId",
              "type": "string"
            },
            {
              "internalType": "uint256",
              "name": "minimumBet",
              "type": "uint256"
            },
            {
              "internalType": "uint256",
              "name": "maximumBet",
              "type": "uint256"
            },
            {
              "internalType": "uint256",
              "name": "houseCommissionRate",
              "type": "uint256"
            },
            {
              "internalType": "uint256",
              "name": "totalCommissionAmount",
              "type": "uint256"
            },
            {
              "internalType": "uint256",
              "name": "totalBettingAmount",
              "type": "uint256"
            }
          ],
          "internalType": "struct Polls.BettingInfo",
          "name": "betting",
          "type": "tuple"
        },
        {
          "components": [
            {
              "internalType": "bool",
              "name": "allowMultipleVote",
              "type": "bool"
            },
            {
              "internalType": "string",
              "name": "participationRewardAssetId",
              "type": "string"
            },
            {
              "internalType": "uint256",
              "name": "participationRewardAmount",
              "type": "uint256"
            },
            {
              "internalType": "string",
              "name": "participationConsumeAssetId",
              "type": "string"
            },
            {
              "internalType": "uint256",
              "name": "participationConsumeAmount",
              "type": "uint256"
            }
          ],
          "internalType": "struct Polls.ParticipationInfo",
          "name": "participation",
          "type": "tuple"
        },
        {
          "components": [
            {
              "internalType": "bool",
              "name": "hasAnswer",
              "type": "bool"
            },
            {
              "internalType": "bool",
              "name": "hasAnswerAnnouncement",
              "type": "bool"
            }
          ],
          "internalType": "struct Polls.AnswerInfo",
          "name": "answer",
          "type": "tuple"
        },
        {
          "components": [
            {
              "internalType": "bool",
              "name": "isActive",
              "type": "bool"
            },
            {
              "internalType": "bool",
              "name": "test",
              "type": "bool"
            },
            {
              "internalType": "address",
              "name": "creator",
              "type": "address"
            },
            {
              "internalType": "uint256",
              "name": "createdAt",
              "type": "uint256"
            },
            {
              "internalType": "uint256",
              "name": "uniqueVoters",
              "type": "uint256"
            },
            {
              "internalType": "uint256",
              "name": "totalVotes",
              "type": "uint256"
            }
          ],
          "internalType": "struct Polls.StatusInfo",
          "name": "status",
          "type": "tuple"
        }
      ],
      "stateMutability": "view",
      "type": "function"
    },
    {
      "inputs": [],
      "name": "renounceOwnership",
      "outputs": [],
      "stateMutability": "nonpayable",
      "type": "function"
    },
    {
      "inputs": [
        {
          "internalType": "address",
          "name": "caller",
          "type": "address"
        },
        {
          "internalType": "bool",
          "name": "authorized",
          "type": "bool"
        }
      ],
      "name": "setAuthorizedCaller",
      "outputs": [],
      "stateMutability": "nonpayable",
      "type": "function"
    },
    {
      "inputs": [
        {
          "internalType": "uint256",
          "name": "pollId",
          "type": "uint256"
        },
        {
          "internalType": "bool",
          "name": "_isActive",
          "type": "bool"
        }
      ],
      "name": "setPollActive",
      "outputs": [],
      "stateMutability": "nonpayable",
      "type": "function"
    },
    {
      "inputs": [
        {
          "internalType": "address",
          "name": "newOwner",
          "type": "address"
        }
      ],
      "name": "transferOwnership",
      "outputs": [],
      "stateMutability": "nonpayable",
      "type": "function"
    },
    {
      "inputs": [
        {
          "internalType": "uint256",
          "name": "",
          "type": "uint256"
        },
        {
          "internalType": "address",
          "name": "",
          "type": "address"
        },
        {
          "internalType": "uint256",
          "name": "",
          "type": "uint256"
        }
      ],
      "name": "userParticipations",
      "outputs": [
        {
          "internalType": "uint256",
          "name": "",
          "type": "uint256"
        }
      ],
      "stateMutability": "view",
      "type": "function"
    }
  ],
  "bytecode": "0x60806040523461002257610011610027565b60405161473d6101d2823961473d90f35b600080fd5b61003033610077565b565b61003f61003f61003f9290565b90565b61003f6001610032565b90600019905b9181191691161790565b9061006c61003f61007392610032565b825461004c565b9055565b610080906100d1565b61003061008b610042565b600161005c565b61009f61003f61003f9290565b6001600160a01b031690565b61003f90610092565b6100bd9061009f565b9052565b60208101929161003091906100b4565b60006100dc816100ab565b6100e58161009f565b6100ee8461009f565b146100fe5750506100309061017a565b631e4fbdf760e01b8252819061011790600483016100c1565b0390fd5b61003f9061009f565b61003f905461011b565b906001600160a01b0390610052565b61003f9061009f906001600160a01b031682565b61003f9061013d565b61003f90610151565b9061017361003f6100739261015a565b825461012e565b6101a061019a61018a6000610124565b610195846000610163565b61015a565b9161015a565b907f8be0079c531659141344cd1fd0a4f28419497f9722a3daafe3b4186f6b6457e06101cb60405190565b600090a356fe6080604052600436101561001257600080fd5b60003560e01c806304d596ad146101c25780631a8cbcaa146101bd57806320e25fcc146101b85780632ccaf15b146101b35780632ec15480146101ae57806344d1cede146101a9578063454bbd29146101a4578063536fff6c1461019f5780635fa3cf861461019a578063675f91941461019557806371064b6f14610190578063715018a61461018b5780638a979993146101865780638da5cb5b14610181578063ac2f00741461017c578063ae12e00614610177578063b48e2c6214610172578063c034c0f11461016d578063c730110b14610168578063c888fcc314610163578063cace2c631461015e578063d292ce0e14610159578063e1b1edd614610154578063e7c2216b1461014f578063f0114ad11461014a578063f2fde38b146101455763f7562765036101c757612141565b612118565b6120e3565b611fcc565b611f57565b611f31565b611f0a565b611ed2565b611dd0565b6116f9565b6116c1565b611685565b61157d565b6110fe565b6110d6565b610ff9565b610fc7565b610e0f565b610d69565b610d3a565b610cc6565b610c6f565b610a69565b610a44565b610935565b6108d5565b6103c0565b600080fd5b805b036101c757565b905035906101e2826101cc565b565b634e487b7160e01b600052604160045260246000fd5b90601f01601f191681019081106001600160401b0382111761021b57604052565b6101e4565b906101e261022d60405190565b92836101fa565b6001600160401b03811161021b57602090601f01601f19160190565b0190565b90826000939282370152565b9092919261027561027082610234565b610220565b93818552818301116101c7576101e2916020850190610254565b9080601f830112156101c7578160206102aa93359101610260565b90565b9190916040818403126101c7576102c483826101d5565b9260208201356001600160401b0381116101c7576102aa920161028f565b6102aa6102aa6102aa9290565b906102f9906102e2565b600052602052604060002090565b60005b83811061031a5750506000910152565b818101518382015260200161030a565b6102506103429260209261033c815190565b94859290565b93849101610307565b9052565b61035f610250916020949361032a565b918252565b61037961037060405190565b9283928361034f565b03902090565b6102aa91610364565b6102aa916008021c5b60ff1690565b906102aa9154610388565b6103bb6102aa926103b660009360086102ef565b61037f565b610397565b346101c7576103ef6103dc6103d63660046102ad565b906103a2565b6040515b91829182901515815260200190565b0390f35b906020828203126101c7576102aa916101d5565b6104286104316020936102509361041c815190565b80835293849260200190565b95869101610307565b601f01601f191690565b634e487b7160e01b600052602160045260246000fd5b6002111561045b57565b61043b565b906101e282610451565b6102aa90610460565b61034b9061046a565b6102aa9160c06105016104ef6104cb6104b96104a760e08701600089015188820360008a0152610407565b60208801518782036020890152610407565b60408701518682036040880152610407565b6104dd60608701516060870190610473565b60808601518582036080870152610407565b60a085015184820360a0860152610407565b9201519060c0818403910152610407565b805182526101e29190604090819061052f60208201516020860152565b0151910152565b8051151582526101e2919060409081906020818101511515908501525b01511515910152565b8051151582526102aa91604081019160200151906020818403910152610407565b805115158252906102aa9060c0806105a560e084015b60208701518582036020870152610407565b946105b560408201516040860152565b6105c460608201516060860152565b6105d360808201516080860152565b61052f60a082015160a0860152565b805115158252906102aa9060808061062d61060c60a0850160208801518682036020880152610407565b61061b60408801516040870152565b60608701518582036060870152610407565b940151910152565b8051151582526101e291906020908190610553565b6001600160a01b031690565b8051151582526020808201511515908301526040808201516001600160a01b0316908301526101e2919060a090819061069460608201516060860152565b61052f60808201516080860152565b80518252906102aa906101a061010061073061071d61070a6106d5610260870160208a015188820360208a015261047c565b6106e760408a01516040890190610512565b6106f960608a015160a0890190610536565b60808901518782038689015261055c565b60a088015186820361012088015261057d565b60c08701518582036101408701526105e2565b9461074460e0820151610160860190610635565b0151910190610656565b6102aa9160a061079d61078b6107796104b96104a760c08701600089015188820360008a0152610407565b60608601518582036060870152610407565b60808501518482036080860152610407565b9201519060a0818403910152610407565b906102aa9161074e565b906107ce6107c4835190565b8083529160200190565b90816107e06020830284019460200190565b926000915b8383106107f457505050505090565b90919293946020610817610810838560019503875289516107ae565b9760200190565b93019301919392906107e5565b906102aa91610407565b9061083a6107c4835190565b908161084c6020830284019460200190565b926000915b83831061086057505050505090565b9091929394602061087c61081083856001950387528951610824565b9301930191939290610851565b926108b96102aa95936108ab6108c794608088019088820360008a01526106a3565b9086820360208801526107b8565b90848203604086015261082e565b91606081840391015261082e565b346101c7576103ef6108f06108eb3660046103f3565b61260d565b906108fd94929460405190565b94859485610889565b6102aa916008021c81565b906102aa9154610906565b6109306102aa926103b660009360076102ef565b610911565b346101c7576103ef61095161094b3660046102ad565b9061091c565b6040519182918290815260200190565b909182601f830112156101c7578135916001600160401b0383116101c75760200192600183028401116101c757565b6001600160a01b0381166101ce565b905035906101e282610990565b8015156101ce565b905035906101e2826109ac565b909160c0828403126101c7576109d783836101d5565b9260208301356001600160401b0381116101c757816109f7918501610961565b929093610a07836040830161099f565b92610a1581606084016109b4565b9260808301356001600160401b0381116101c75782610a3b60a0946102aa938701610961565b949095016101d5565b346101c7576103ef610951610a5a3660046109c1565b96959095949194939293612ea7565b346101c7576103ef6103dc610a7f3660046103f3565b612f21565b6102aa9081565b6102aa9054610a84565b634e487b7160e01b600052602260045260246000fd5b9060016002830492168015610acb575b6020831014610ac657565b610a95565b91607f1691610abb565b80546000939291610af2610ae883610aab565b8085529360200190565b9160018116908115610b445750600114610b0b57505050565b610b1e9192939450600052602060002090565b916000925b818410610b305750500190565b805484840152602090930192600101610b23565b92949550505060ff1916825215156020020190565b906102aa91610ad5565b906101e2610b7d92610b7460405190565b93848092610b59565b03836101fa565b6102aa90610391565b6102aa9054610b84565b610ba290600c6102ef565b610bab81610a8b565b91610bc060018301546001600160a01b031690565b91610bcd60028201610b63565b91610bda60038301610a8b565b91610be760048201610b8d565b916102aa6006610bf960058501610b63565b9301610a8b565b979694610c5d90610c54610c4c6101e29994610c6a97610c3f60c09a988f602090610c3060e08201966000830152565b01906001600160a01b03169052565b8d820360408f0152610407565b9460608c0152565b151560808a0152565b87820360a0890152610407565b940152565b346101c7576103ef610c8a610c853660046103f3565b610b97565b93610c9a97959793919360405190565b97889788610c00565b91906040838203126101c7576102aa906020610cbf828661099f565b94016109b4565b346101c757610cdf610cd9366004610ca3565b90612f89565b604051005b906020828203126101c7576102aa9161099f565b61064a6102aa6102aa926001600160a01b031690565b6102aa90610cf8565b6102aa90610d0e565b906102f990610d17565b60006103bb6102aa92600f610d20565b346101c7576103ef6103dc610d50366004610ce4565b610d2a565b6109306102aa926103b6600093600a6102ef565b346101c7576103ef610951610d7f3660046102ad565b90610d55565b91906040838203126101c7576102aa906020610da182866101d5565b940161099f565b90610dc8610dc1610db7845190565b8084529260200190565b9260200190565b9060005b818110610dd95750505090565b909192610df6610def6001928651815260200190565b9460200190565b929101610dcc565b60208082526102aa92910190610da8565b346101c7576103ef610e2b610e25366004610d85565b90613051565b60405191829182610dfe565b906102aa9061014080610ec3610eb1610e9f610e8d610e7b610e69610160890160008c01518a820360008c0152610407565b60208b015189820360208b0152610407565b60408a015188820360408a0152610407565b60608901518782036060890152610407565b60808801518682036080880152610407565b60a087015185820360a0870152610407565b94610ed360c082015160c0860152565b610ee260e082015160e0860152565b610ef3610100820151610100860152565b61052f610120820151610120860152565b906102aa91610e37565b90610f1a6107c4835190565b9081610f2c6020830284019460200190565b926000915b838310610f4057505050505090565b90919293946020610f5c61081083856001950387528951610f04565b9301930191939290610f31565b805182526102aa9160a0810191608090610f8860208201516020850152565b610f9760408201516040850152565b610fa660608201516060850152565b0151906080818403910152610f0e565b60208082526102aa92910190610f69565b346101c7576103ef610fe2610fdd3660046103f3565b6133d0565b60405191829182610fb6565b60009103126101c757565b346101c757611009366004610fee565b610cdf6133fe565b91906040838203126101c7576102aa90602061102d82866101d5565b94016101d5565b634e487b7160e01b600052603260045260246000fd5b805482101561106d57611064600191600052602060002090565b91020190600090565b611034565b634e487b7160e01b600052600060045260246000fd5b90600010611099576102aa90610b63565b611072565b6110a99060066102ef565b80548210156101c7576102aa916110bf9161104a565b90611088565b60208082526102aa92910190610407565b346101c7576103ef6110f26110ec366004611011565b9061109e565b604051918291826110c5565b346101c75761110e366004610fee565b6103ef6111236000546001600160a01b031690565b604051918291826001600160a01b03909116815260200190565b9061034b90610460565b6102aa60e0610220565b906101e26111e96006611162611147565b9461117361116f82610b63565b8752565b61118961118260018301610b63565b6020880152565b61119f61119860028301610b63565b6040880152565b6111b76111ae60038301610b8d565b6060880161113d565b6111cd6111c660048301610b63565b6080880152565b6111e36111dc60058301610b63565b60a0880152565b01610b63565b60c0840152565b6102aa6060610220565b906101e261122d600261120b6111f0565b9461121861116f82610a8b565b61122761118260018301610a8b565b01610a8b565b6040840152565b6102aa9060081c610391565b6102aa9054611234565b6102aa9060101c610391565b6102aa905461124a565b906101e26112a560006112716111f0565b94611288611280838301610b8d565b151587840152565b61129f611296838301611240565b15156020880152565b01611256565b15156040840152565b6102aa6040610220565b906101e26112dc60016112c96112ae565b946111e36112d682610b8d565b15158752565b6020840152565b906101e26111e960066112f4611147565b946113016112d682610b8d565b61131061118260018301610b63565b61131f61119860028301610a8b565b61133561132e60038301610a8b565b6060880152565b6113446111c660048301610a8b565b6112276111dc60058301610a8b565b6102aa60a0610220565b906101e26113a8600461136e611353565b9461137b6112d682610b8d565b61138a61118260018301610b63565b61139961119860028301610a8b565b61122761132e60038301610b63565b6080840152565b906101e26113d560006113c06112ae565b946113cf611280838301610b8d565b01611240565b15156020840152565b6102aa9060101c61064a565b6102aa90546113de565b6102aa60c0610220565b906101e2611462600361140f6113f4565b9461141c6112d682610b8d565b61142861129682611240565b611444611434826113ea565b6001600160a01b03166040880152565b61145361132e60018301610a8b565b6112276111c660028301610a8b565b60a0840152565b6114749060036102ef565b61147d81610a8b565b9161148a60018301611151565b91611497600882016111fa565b916114a4600b8301611260565b916114b1600c82016112b8565b916114be600e83016112e3565b916114cb6015820161135d565b916102aa601b6114dd601a85016113af565b93016113fe565b949561154c61156a946101a09861153e611576986101e29d9f9e9c9761152961155b98611534928e61151c6102608201936000830152565b602081840391015261047c565b9460408d0190610512565b60a08b0190610536565b8882036101008a015261055c565b9086820361012088015261057d565b908482036101408601526105e2565b96610160830190610635565b0190610656565b346101c7576103ef6115986115933660046103f3565b611469565b956115ab99979995919594929460405190565b998a998a6114e4565b805182526020808201516001600160a01b031690830152906102aa9060c08061062d6115ef60e0850160408801518682036040880152610407565b6115fe60608801516060870152565b608087810151151590860152610eb1565b906102aa916115b4565b906116256107c4835190565b90816116376020830284019460200190565b926000915b83831061164b57505050505090565b909192939460206116676108108385600195038752895161160f565b930193019193929061163c565b60208082526102aa92910190611619565b346101c7576103ef6116a161169b366004610d85565b906135b5565b60405191829182611674565b6109306102aa926103b660009360096102ef565b346101c7576103ef6109516116d73660046102ad565b906116ad565b91906040838203126101c7576102aa906020610cbf82866101d5565b346101c757610cdf61170c3660046116dd565b906136c4565b600211156101c757565b905035906101e282611712565b91909160e0818403126101c75761174060e0610220565b9281356001600160401b0381116101c7578161175d91840161028f565b845260208201356001600160401b0381116101c7578161177e91840161028f565b602085015260408201356001600160401b0381116101c757816117a291840161028f565b60408501526117b4816060840161171c565b606085015260808201356001600160401b0381116101c757816117d891840161028f565b608085015260a08201356001600160401b0381116101c757816117fc91840161028f565b60a085015260c08201356001600160401b0381116101c75761181e920161028f565b60c0830152565b91906060838203126101c7576118669060406118416060610220565b9461184c83826101d5565b865261185b83602083016101d5565b6020870152016101d5565b6040830152565b91906060838203126101c7576118669060406118896060610220565b9461189483826109b4565b86526118a383602083016109b4565b6020870152016109b4565b9190916040818403126101c7576118c56040610220565b926118d081836109b4565b845260208201356001600160401b0381116101c7576118ef920161028f565b6020830152565b91909160e0818403126101c75761190d60e0610220565b9261191881836109b4565b845260208201356001600160401b0381116101c7578261193f8360c09361181e960161028f565b602087015261195183604083016101d5565b604087015261196383606083016101d5565b606087015261197583608083016101d5565b60808701526119878360a083016101d5565b60a0870152016101d5565b91909160a0818403126101c7576119a960a0610220565b926119b481836109b4565b845260208201356001600160401b0381116101c757816119d591840161028f565b60208501526119e781604084016101d5565b604085015260608201356001600160401b0381116101c75782611a1183608093611a1c960161028f565b6060870152016101d5565b6080830152565b91906040838203126101c7576118ef906020611a3f6040610220565b94611a4a83826109b4565b8652016109b4565b6001600160401b03811161021b5760208091020190565b91909160c0818403126101c757611a8060c0610220565b9281356001600160401b0381116101c75781611a9d91840161028f565b845260208201356001600160401b0381116101c75781611abe91840161028f565b602085015260408201356001600160401b0381116101c75781611ae291840161028f565b604085015260608201356001600160401b0381116101c75781611b0691840161028f565b606085015260808201356001600160401b0381116101c75781611b2a91840161028f565b608085015260a08201356001600160401b0381116101c757611b4c920161028f565b60a0830152565b929190611b6261027082611a52565b93818552602080860192028101918383116101c75781905b838210611b88575050505050565b81356001600160401b0381116101c757602091611ba88784938701611a69565b815201910190611b7a565b9080601f830112156101c7578160206102aa93359101611b53565b929190611bdd61027082611a52565b93818552602080860192028101918383116101c75781905b838210611c03575050505050565b81356001600160401b0381116101c757602091611c23878493870161028f565b815201910190611bf5565b9080601f830112156101c7578160206102aa93359101611bce565b9190610200838203126101c757611c61610160610220565b9280356001600160401b0381116101c75782611c7e918301611729565b8452611c8d8260208301611825565b6020850152611c9f826080830161186d565b604085015260e08101356001600160401b0381116101c75782611cc39183016118ae565b60608501526101008101356001600160401b0381116101c75782611ce89183016118f6565b60808501526101208101356001600160401b0381116101c75782611d0d918301611992565b60a085015261014091611d2281848401611a23565b60c08601526101808201356001600160401b0381116101c75781611d47918401611bb3565b60e08601526101a08201356001600160401b0381116101c75781611d6c918401611c2e565b6101008601526101c08201356001600160401b0381116101c75782611d99836101e093611da59601611c2e565b610120880152016109b4565b90830152565b906020828203126101c75781356001600160401b0381116101c7576102aa9201611c49565b346101c7576103ef610951611de6366004611dab565b6141b3565b906102aa9060c0806105a561059360e0850160008801518682036000880152610407565b906102aa91611deb565b90611e256107c4835190565b9081611e376020830284019460200190565b926000915b838310611e4b57505050505090565b90919293946020611e6761081083856001950387528951611e0f565b9301930191939290611e3c565b805182526102aa9160a0810191608090611e9360208201516020850152565b611ea260408201516040850152565b611eb160608201516060850152565b0151906080818403910152611e19565b60208082526102aa92910190611e74565b346101c7576103ef611eed611ee83660046103f3565b614450565b60405191829182611ec1565b60208082526102aa929101906115b4565b346101c7576103ef611f25611f203660046103f3565b614461565b60405191829182611ef9565b346101c757611f41366004610fee565b6103ef610951614478565b6110a99060056102ef565b346101c7576103ef6110f2611f6d366004611011565b90611f4c565b90916060828403126101c7576102aa611f8c84846101d5565b93604061102d826020870161099f565b90611fab611fb092600d6102ef565b610d20565b80548210156101c7576102aa91611fc69161104a565b90610911565b346101c7576103ef610951611fe2366004611f73565b91611f9c565b805482101561106d57611064600691600052602060002090565b61200d9060046102ef565b90612016825490565b8110156101c75761202691611fe8565b509061203182610b63565b9161203e60018201610b63565b9161204b60028301610b63565b9161205860038201610b63565b916102aa600561206a60048501610b63565b9301610b63565b9491936120b96120d5946120ab6102aa999761209d6120c79660c08c01908c6000818403910152610407565b908a820360208c0152610407565b9088820360408a0152610407565b908682036060880152610407565b908482036080860152610407565b9160a0818403910152610407565b346101c7576103ef6120ff6120f9366004611011565b90612002565b9261210f96949692919260405190565b96879687612071565b346101c757610cdf61212b366004610ce4565b6144da565b60208082526102aa929101906107b8565b346101c7576103ef61215c6121573660046103f3565b61450d565b60405191829182612130565b6102aa610120610220565b61217b611147565b906060825260208080808080808801606081520160608152016000815201606081520160605b8152016060905250565b905250565b6102aa612173565b6121c06111f0565b906000825260208080840160005b8152016000905250565b6102aa6121b8565b6121e86112ae565b906000825260606020830152565b6102aa6121e0565b612206611147565b9060005b82526020808080808080880160605b81520160005b8152016000815201600081520160006121ce565b6102aa6121fe565b612243611353565b9060008252602080808080860160605b815201600081520160606121ce565b6102aa61223b565b6122726112ae565b906000825260006020830152565b6102aa61226a565b6122906113f4565b9060008252602080808080808701600061221f565b6102aa612288565b6122b5612168565b9060008252602080808080808080808a016122ce6121b0565b8152016122d96121d8565b8152016122e46121d8565b8152016122ef6121f6565b8152016122fa612233565b815201612305612262565b815201612310612280565b8152016121ab6122a5565b6102aa6122ad565b61064a6102aa6102aa9290565b6102aa90612323565b1561234057565b60405162461bcd60e51b815260206004820152601360248201527f506f6c6c20646f6573206e6f74206578697374000000000000000000000000006044820152606490fd5b906123d2949392916123cd6123a96000601b6123a28960036102ef565b01016113ea565b6123c66123b961064a6000612330565b916001600160a01b031690565b1415612339565b6125b8565b90919293565b906101e2612473601b6123e9612168565b946123f661116f82610a8b565b61240561118260018301611151565b612414611198600883016111fa565b61242361132e600b8301611260565b6124326111c6600c83016112b8565b6124416111dc600e83016112e3565b6124576124506015830161135d565b60c0880152565b61246d612466601a83016113af565b60e0880152565b016113fe565b610100840152565b6102aa906123d8565b9061035f61027083611a52565b906101e261146260056124a26113f4565b946124af61116f82610b63565b6124be61118260018301610b63565b6124cd61119860028301610b63565b6124dc61132e60038301610b63565b6111e36111c660048301610b63565b6102aa90612491565b906124fd825490565b61250681612484565b9261251a6020850191600052602060002090565b6000915b83831061252b5750505050565b6006602060019261253b856124eb565b81520192019201919061251e565b6102aa906124f4565b6102aa90610b63565b90612564825490565b61256d81612484565b926125816020850191600052602060002090565b6000915b8383106125925750505050565b6001602081926125a185612552565b815201920192019190612585565b6102aa9061255b565b505050506125c78160036102ef565b6125d28260046102ef565b926102aa6126076126016125fb6125f56125ed8860066102ef565b9760056102ef565b9561247b565b96612549565b946125af565b926125af565b6123d29061261961231b565b6060808092612385565b9061263c9897969594939291612637614522565b612b84565b906101e2614562565b1561264c57565b60405162461bcd60e51b81526020600482015260096024820152681393d517d1561254d560ba1b6044820152606490fd5b1561268457565b60405162461bcd60e51b815260206004820152600a6024820152694e4f545f41435449564560b01b6044820152606490fd5b156126bd57565b60405162461bcd60e51b815260206004820152600b60248201526a1393d517d4d5105495115160aa1b6044820152606490fd5b156126f757565b60405162461bcd60e51b8152602060048201526005602482015264115391115160da1b6044820152606490fd5b90916102509083908093610254565b61035f906020949361025093612724565b90916103799061275360405190565b93849384612733565b90916102aa92612744565b1561276e57565b60405162461bcd60e51b815260206004820152600e60248201527f494e56414c49445f4f5054494f4e0000000000000000000000000000000000006044820152606490fd5b156127ba57565b60405162461bcd60e51b815260206004820152601460248201527f414c52454144595f5041525449434950415445440000000000000000000000006044820152606490fd5b634e487b7160e01b600052601160045260246000fd5b60001981146128245760010190565b6127ff565b90600019905b9181191691161790565b906128496102aa612850926102e2565b8254612829565b9055565b6102aa913691610260565b5190565b906001600160a01b039061282f565b906128826102aa61285092610d17565b8254612863565b9160001960089290920291821b911b61282f565b91906128ae6102aa612850936102e2565b908354612889565b6101e29160009161289d565b8181106128cd575050565b806128db60006001936128b6565b016128c2565b9190601f81116128f057505050565b6129026101e293600052602060002090565b906020601f840181900483019310612924575b6020601f9091010401906128c2565b9091508190612915565b90612937815190565b906001600160401b03821161021b5761295a826129548554610aab565b856128e1565b602090601f83116001146129955761285092916000918361298a575b5050600019600883021c1916906002021790565b015190503880612976565b601f198316916129aa85600052602060002090565b9260005b8181106129e8575091600293918560019694106129cf575b50505002019055565b01516000196008601f8516021c191690553880806129c6565b919360206001819287870151815501950192016129ae565b906101e29161292e565b9060ff9061282f565b90612a236102aa61285092151590565b8254612a0a565b6006612acc60c06101e294612a49612a43600083015190565b86612839565b612a69612a6060208301516001600160a01b031690565b60018701612872565b612a80612a77604083015190565b60028701612a00565b612a97612a8e606083015190565b60038701612839565b612ab0612aa76080830151151590565b60048701612a13565b612ac7612abe60a083015190565b60058701612a00565b015190565b9101612839565b906101e291612a2a565b908154916801000000000000000083101561021b5782612b059160016101e29501815561104a565b9061289d565b9190820180921161282457565b919061043181612b2f816102509560209181520190565b8095610254565b926101e296989795608095612b6b612b61612b7895612b809760a08a01918a830360008c0152612b18565b9315156020880152565b8583036040870152612b18565b966060830152565b0152565b91849697988296949350612b998360036102ef565b99601b8b01612ba7816113ea565b60009c8d91612bb583612330565b6001600160a01b0316906001600160a01b03161415612bd390612645565b612bde838301610b8d565b612be79061267d565b60088101828101612bf790610a8b565b421015612c03906126b6565b600101612c0f90610a8b565b421115612c1b906126f0565b8588612c288960086102ef565b91612c329261275c565b612c3b90610b8d565b612c4490612767565b60150101612c5190610b8d565b15612e76575b612c61600e610a8b565b612c6a90612815565b612c7590600e612839565b612c7f600e610a8b565b9b85612c89611147565b918201526001600160a01b0389166020820152612ca68786612854565b6040820152612cb6426060830152565b8715156080820152612cc8838d612854565b60a0820152612cd88460c0830152565b612ce38d600c6102ef565b90612ced91612ad3565b8b88612cfa87600d6102ef565b90612d0491610d20565b90612d0e91612add565b612d1860016102e2565b8487612d258860096102ef565b91612d2f9261275c565b81612d3982610a8b565b90612d4391612b0b565b612d4c91612839565b86888682612d5b8a600a6102ef565b91612d659261275c565b83612d6f82610a8b565b90612d7991612b0b565b612d8291612839565b612de27faa3435579412516a140cb2bd81efe3afad1cefc49a646e891b5fd1c6d371ef7e9b611fab612e1d9a612de6956102aa95612e41575b50612ddb60038901612dd589612dd083610a8b565b612b0b565b90612839565b600d6102ef565b5490565b14612e23575b50612e08612e02612dfc8d6102e2565b996102e2565b99610d17565b99612e1260405190565b968796429588612b36565b0390a490565b6002612e3b9101612dd5612e3682610a8b565b612815565b38612dec565b612e59612e66918d612e548560076102ef565b61275c565b612dd58c612dd083610a8b565b612e708a82614574565b8c612dbb565b612ea28c612e9c612e98612e92612de28d611fab8c600d6102ef565b926102e2565b9190565b146127b3565b612c57565b6102aa97969594939291906000612623565b906102aa91612ed36123a96000601b6123a28660036102ef565b612ee891612ee3915060036102ef565b61247b565b6101008101515115159081612f11575b81612f01575090565b6040015160200151905042111590565b6040810151514210159150612ef8565b6102aa906000612eb9565b906101e291612f396145ab565b612f84612f7a7fad857fa38c9319cb80848f1ef2f924383b90297eb5d71755738ff037d100faa192612f7585612f7083600f610d20565b612a13565b610d17565b926103e060405190565b0390a2565b906101e291612f2c565b906102aa9291612fae6123a96000601b6123a28660036102ef565b613038565b90612fce612fc2610db7845490565b92600052602060002090565b9060005b818110612fdf5750505090565b909192613003612ffc600192612ff487610a8b565b815260200190565b9460010190565b929101612fd2565b906102aa91612fb3565b906101e2610b7d9261302660405190565b9384809261300b565b6102aa90613015565b91611fab61304c926102aa9450600d6102ef565b61302f565b6102aa91906060612f93565b613065611353565b906000825260208080808086016000815201600081520160006121a1565b6102aa61305d565b906102aa916130a56123a96000601b6123a28660036102ef565b61318c565b6102aa610160610220565b6130bd6130aa565b90606082526020808080808080808080808c0160608152016060815201606081520160608152016060612219565b6102aa6130b5565b60005b82811061310257505050565b60209061310d6130eb565b81840152016130f6565b906101e261312d61312784612484565b93611a52565b601f1901602084016130f3565b90613143825190565b81101561106d576020809102010190565b8181029291811591840414171561282457565b634e487b7160e01b600052601260045260246000fd5b8115613187570490565b613167565b5061319b612ee38260036102ef565b906131af6131aa8260046102ef565b612549565b916101006131bc83614603565b9101926131cb60a08551015190565b6131db6131d6835190565b613117565b936000936131e8856102e2565b6131f36102aa865190565b811015613389578561322561322061320c8660096102ef565b83613217868b61313a565b5101519061037f565b610a8b565b61324161322061323687600a6102ef565b84613217878c61313a565b61325d6132206132528860076102ef565b85613217888d61313a565b90613267846102e2565b88111561337b5761328b886132866132806127106102e2565b86613154565b61317d565b613294856102e2565b87111561336c576132ad876132866132806127106102e2565b935b856132ba888d61313a565b510151878c6132c9828261313a565b51602001516132d8838361313a565b5160400151906132e8848461313a565b5160600151926132f8858261313a565b5160800151946133079161313a565b5160a00151946133156130aa565b9b8c015260208b015260408a01526060890152608088015260a087015260c086015260e0850152610100840152610120830152610140820152613358828961313a565b52613363818861313a565b506001016131e8565b613375856102e2565b936132af565b613384846102e2565b61328b565b5091611a1c9350906133c26133c9926133bb6133ac60806102aa9a999b51015190565b936133b5611353565b9a8b0152565b6020890152565b6040870152565b6060850152565b6102aa906133dc613083565b61308b565b6133e96145ab565b6101e26101e26133f96000612330565b6146ac565b6101e26133e1565b906102aa92916134216123a96000601b6123a28660036102ef565b61352a565b61342e611147565b906000825260208080808080808801600081520160608152016000612253565b6102aa613426565b60005b82811061346557505050565b60209061347061344e565b8184015201613459565b906101e261348a61312784612484565b601f190160208401613456565b906101e26111e960066134a8611147565b946134b561116f82610a8b565b6134dc6134cc60018301546001600160a01b031690565b6001600160a01b03166020880152565b6134eb61119860028301610b63565b6134fa61132e60038301610a8b565b61351261350960048301610b8d565b15156080880152565b6112276111dc60058301610b63565b6102aa90613497565b91611fab61304c9261353e9450600d6102ef565b61354e613549825190565b61347a565b9061355960006102e2565b6135646102aa835190565b8110156135b0576135ab9061358f61358a600c61358461285f858861313a565b906102ef565b613521565b613599828661313a565b526135a4818561313a565b5060010190565b613559565b505090565b6102aa91906060613406565b906101e2916135ce6145ab565b61361f565b156135da57565b60405162461bcd60e51b815260206004820152601a60248201527f416c72656164792073657420746f2074686973207374617475730000000000006044820152606490fd5b61368890613683836000601b61367c85600361365261364386866123a286866102ef565b6123c66123b961064a89612330565b61367761366b868661366486866102ef565b0101610b8d565b151587151514156135d3565b6102ef565b0101612a13565b6102e2565b7f808eec1e87b4f6ad5caa96449ecbfc6a0cccfa9c343730af222195930c9c29f86136bf6136b533610d17565b936103e060405190565b0390a3565b906101e2916135c1565b906102aa916136db6145ab565b613d8e565b156136e757565b60405162461bcd60e51b815260206004820152601560248201527f5469746c652063616e6e6f7420626520656d70747900000000000000000000006044820152606490fd5b1561373357565b60405162461bcd60e51b815260206004820152601c60248201527f4174206c65617374206f6e65206f7074696f6e207265717569726564000000006044820152606490fd5b1561377f57565b60405162461bcd60e51b815260206004820152602260248201527f53746172742064617465206d757374206265206265666f726520656e64206461604482015261746560f01b6064820152608490fd5b156137d657565b60405162461bcd60e51b815260206004820152601e60248201527f456e642064617465206d75737420626520696e207468652066757475726500006044820152606490fd5b1561382257565b60405162461bcd60e51b815260206004820152602760248201527f42657474696e6720617373657420726571756972656420666f722062657474696044820152666e67206d6f646560c81b6064820152608490fd5b1561387e57565b60405162461bcd60e51b815260206004820152602260248201527f4d696e696d756d20626574206d7573742062652067726561746572207468616e604482015261020360f41b6064820152608490fd5b156138d557565b60405162461bcd60e51b815260206004820152602260248201527f4d6178696d756d20626574206d757374206265203e3d206d696e696d756d2062604482015261195d60f21b6064820152608490fd5b6102aa9051610460565b90612a236102aa6128509261046a565b60066139b260c06101e29461395e613958600083015190565b86612a00565b61397561396c602083015190565b60018701612a00565b613983612a77604083015190565b61399b61399260608301613925565b6003870161392f565b612ab06139a9608083015190565b60048701612a00565b9101612a00565b906101e29161393f565b6002612acc60406101e2946139dc612a43600083015190565b612ac76139ea602083015190565b60018701612839565b906101e2916139c3565b9061ff009060081b61282f565b90613a1a6102aa61285092151590565b82546139fd565b9062ff00009060101b61282f565b90613a3f6102aa61285092151590565b8254613a21565b6101e291613a8190604090613a64613a5e8251151590565b85612a13565b613a7a613a746020830151151590565b85613a0a565b0151151590565b90613a2f565b906101e291613a46565b60016139b260206101e294612ac7613aac6000830151151590565b86612a13565b906101e291613a91565b6006612acc60c06101e294613ad7613aac6000830151151590565b613ae561396c602083015190565b613afc613af3604083015190565b60028701612839565b613b0a612a8e606083015190565b613b21613b18608083015190565b60048701612839565b612ac7613b2f60a083015190565b60058701612839565b906101e291613abc565b6004612acc60806101e294613b5d613aac6000830151151590565b613b6b61396c602083015190565b613b79613af3604083015190565b612ac7613b87606083015190565b60038701612a00565b906101e291613b42565b6101e291613bb290602090613a7a613a5e8251151590565b90613a0a565b906101e291613b9a565b9075ffffffffffffffffffffffffffffffffffffffff00009060101b61282f565b90613bf36102aa61285092610d17565b8254613bc2565b15613c0157565b60405162461bcd60e51b815260206004820152601960248201527f4f7074696f6e2049442063616e6e6f7420626520656d707479000000000000006044820152606490fd5b15613c4d57565b60405162461bcd60e51b815260206004820152601b60248201527f4f7074696f6e206e616d652063616e6e6f7420626520656d70747900000000006044820152606490fd5b60056139b260a06101e294613cab613958600083015190565b613cb961396c602083015190565b613cc7612a77604083015190565b613cd5613b87606083015190565b612ac76139a9608083015190565b9190611099576101e291613c92565b908154916801000000000000000083101561021b5782613d1a9160016101e295018155611fe8565b90613ce3565b9190611099576101e29161292e565b908154916801000000000000000083101561021b5782613d579160016101e29501815561104a565b90613d20565b612b806101e294611866613d836060959998969960808601908682036000880152610407565b986020850190610473565b5080515151613dab600091613da5612e98846102e2565b116136e0565b60e0820191613dce613dbc84515190565b613dc8612e98856102e2565b1161372c565b6020810191613df9613de1828551015190565b613df3612e986102aa60208851015190565b10613778565b613e0f613e0860208551015190565b42106137cf565b6006601b6080840193613e258486510151151590565b614141575b613e41613e3a612e366002610a8b565b6002612839565b613e4b6002610a8b565b96613e5a6102aa8960036102ef565b90613e6789878401612839565b613eda86840197613e7c8951600186016139b9565b613e8a8a51600886016139f3565b613e9b6040860151600b8601613a87565b613eac6060860151600c8601613ab2565b51613ebb600e85019182613b38565b613ec4886102e2565b9681613ed4896005819501612839565b01612839565b613eeb60a084015160158401613b90565b613efc60c0840151601a8401613bb8565b613f4f856003600196879501613f368a8201613f188882612a13565b613f2f613f296101408b0151151590565b82613a0a565b3390613be3565b613f4242878301612839565b613ed48360028301612839565b8585835b614093575b5050508084905b614053575b5083905b613fff575b50505090613fa67fffec07b2a88595de82dc6477f46e34a5e7fa613aaf308b5a6e6a2c7cc6c43c6c92613fa187600b6102ef565b612839565b613fcf6020613fc8613fc060608588510151975101613925565b938751015190565b9551015190565b92613ff9613fdc876102e2565b94613fe633610d17565b96613ff060405190565b94859485613d5d565b0390a390565b6101208201886140116102aa83515190565b83101561404c578291614039614046946140326102aa6140409560056102ef565b925161313a565b5190613d2f565b60010190565b82613f68565b5050613f6d565b610100830190896140666102aa84515190565b82101561408c5761408692614039836140326102aa6140409560066102ef565b81613f5f565b5050613f64565b868b6140a16102aa86515190565b83101561413a57612f7061412687926140fc856140f66102aa61285f60206140e48c8f6141329f6140409e6140ea6102aa61285f6140f0946140e488885161313a565b51015190565b11613bfa565b5161313a565b11613c46565b61411f61410d6102aa8360046102ef565b614118888b5161313a565b5190613cf2565b60086102ef565b8b61321786895161313a565b869083613f53565b5050613f58565b61416561415361285f60208851015190565b61415f612e98876102e2565b1161381b565b61418661417460408751015190565b614180612e98876102e2565b11613877565b6141ae61419560608751015190565b6141a7612e986102aa60408a51015190565b10156138ce565b613e2a565b6102aa9060006136ce565b906102aa916141d86123a96000601b6123a28660036102ef565b614236565b6141e5611147565b90606061220a565b6102aa6141dd565b60005b82811061420457505050565b60209061420f6141ed565b81840152016141f8565b906101e261422961312784612484565b601f1901602084016141f5565b5090614246612ee38360036102ef565b916142556131aa8260046102ef565b9061010061426282614603565b94019261427160a08551015190565b9161428261427d855190565b614219565b9260009261428f846102e2565b61429a6102aa885190565b81101561442e576142ac8460096102ef565b856142b7838a61313a565b5101516142c39161037f565b6142cc90610a8b565b90858881838d6142dd8a600a6102ef565b836142e8848761313a565b5101516142f49161037f565b6142fd90610a8b565b906143098b60076102ef565b84614314858861313a565b5101516143209161037f565b61432990610a8b565b918291858c614337826102e2565b81116000149b6143d66143f29a6143cf6144079f6143bd61181e9c6143eb9b6143e49a6143dd9960209561441e5761437d906132866143776127106102e2565b8c613154565b9a5b614388816102e2565b82111561440c57506132866143a8926143a26127106102e2565b90613154565b9e5b6143b4828761313a565b5101519461313a565b510151916143c9611147565b9e8f0152565b60208d0152565b60408b0152565b6060890152565b6080870152565b60a0850152565b6143fc828961313a565b526135a4818861313a565b61428f565b905061441891506102e2565b9e6143aa565b506144288b6102e2565b9a61437f565b5096916102aa95506133c26133c9926133bb6133ac6080611a1c989b51015190565b6102aa9061445c613083565b6141be565b61358a6102aa9161447061344e565b50600c6102ef565b6102aa6002610a8b565b6101e29061448e6145ab565b600061449981612330565b6001600160a01b0381166001600160a01b038416146144bd5750506101e2906146ac565b631e4fbdf760e01b82526001600160a01b03166004820152602490fd5b6101e290614482565b906102aa916144fd6123a96000601b6123a28660036102ef565b6102aa916131aa915060046102ef565b6102aa9060606144e3565b6102aa60026102e2565b61452c6001610a8b565b614534614518565b908114614546576101e2906001612839565b633ee5aeb560e01b6000908152600490fd5b6102aa60016102e2565b6101e261456d614558565b6001612839565b6145a49061459d6101e293612dd56006600e6145918660036102ef565b010191612dd083610a8b565b600b6102ef565b4290612839565b6000546001600160a01b031633906145c2826123b9565b036145ca5750565b63118cdaa760e01b60009081526001600160a01b039091166004526024036000fd5b9190820391821161282457565b6102aa601e6102e2565b61461a61461461322083600b6102ef565b426145ec565b614628612e986102aa6145f9565b106146935761463b6131aa8260046102ef565b600061464760006102e2565b92835b6146556102aa855190565b85101561468b57612ffc6146859161467f6132206146748660076102ef565b876132178b8b61313a565b90612b0b565b9361464a565b935050505090565b6006600e6146a56102aa9360036102ef565b0101610a8b565b6146d56146cf6146c46000546001600160a01b031690565b612f75846000612872565b91610d17565b907f8be0079c531659141344cd1fd0a4f28419497f9722a3daafe3b4186f6b6457e061470060405190565b80806136bf56fea2646970667358221220190017effa2bf18d154d0e238a347d46ef63e5f86078e0283b6bdc6aada03ec164736f6c634300081c0033",
  "linkReferences": {},
  "deployedLinkReferences": {}
}