{
  "_format": "hh-sol-artifact-1",
  "contractName": "RafflesV2",
  "sourceName": "contracts/Raffles_v2.sol",
  "abi": [
    {
      "inputs": [],
      "stateMutability": "nonpayable",
      "type": "constructor"
    },
    {
      "inputs": [],
      "name": "AccessControlBadConfirmation",
      "type": "error"
    },
    {
      "inputs": [
        {
          "internalType": "address",
          "name": "account",
          "type": "address"
        },
        {
          "internalType": "bytes32",
          "name": "neededRole",
          "type": "bytes32"
        }
      ],
      "name": "AccessControlUnauthorizedAccount",
      "type": "error"
    },
    {
      "inputs": [],
      "name": "AdminRoleRequired",
      "type": "error"
    },
    {
      "inputs": [],
      "name": "AlreadyDrawn",
      "type": "error"
    },
    {
      "inputs": [],
      "name": "DrawBeforeEnd",
      "type": "error"
    },
    {
      "inputs": [],
      "name": "DrawDateNotReached",
      "type": "error"
    },
    {
      "inputs": [],
      "name": "EmptyRaffleIds",
      "type": "error"
    },
    {
      "inputs": [],
      "name": "EnforcedPause",
      "type": "error"
    },
    {
      "inputs": [],
      "name": "ExpectedPause",
      "type": "error"
    },
    {
      "inputs": [],
      "name": "InstantDrawNotSupported",
      "type": "error"
    },
    {
      "inputs": [],
      "name": "InvalidDate",
      "type": "error"
    },
    {
      "inputs": [],
      "name": "InvalidParticipant",
      "type": "error"
    },
    {
      "inputs": [],
      "name": "InvalidPrizeIndex",
      "type": "error"
    },
    {
      "inputs": [],
      "name": "InvalidStartIndex",
      "type": "error"
    },
    {
      "inputs": [],
      "name": "MaxEntriesPerPlayerReached",
      "type": "error"
    },
    {
      "inputs": [],
      "name": "MaxParticipantsReached",
      "type": "error"
    },
    {
      "inputs": [],
      "name": "NoPrizes",
      "type": "error"
    },
    {
      "inputs": [],
      "name": "NoTicketsAvailable",
      "type": "error"
    },
    {
      "inputs": [],
      "name": "NotReadyToActive",
      "type": "error"
    },
    {
      "inputs": [],
      "name": "ParticipantRaffleMismatch",
      "type": "error"
    },
    {
      "inputs": [],
      "name": "PrizeAlreadyAllocated",
      "type": "error"
    },
    {
      "inputs": [],
      "name": "PrizeNotAllocated",
      "type": "error"
    },
    {
      "inputs": [],
      "name": "PrizeZeroQuantity",
      "type": "error"
    },
    {
      "inputs": [],
      "name": "RaffleAlreadyActive",
      "type": "error"
    },
    {
      "inputs": [],
      "name": "RaffleAlreadyDrawn",
      "type": "error"
    },
    {
      "inputs": [],
      "name": "RaffleEnded",
      "type": "error"
    },
    {
      "inputs": [],
      "name": "RaffleNotActive",
      "type": "error"
    },
    {
      "inputs": [],
      "name": "RaffleNotEnded",
      "type": "error"
    },
    {
      "inputs": [],
      "name": "RaffleNotExists",
      "type": "error"
    },
    {
      "inputs": [],
      "name": "RaffleNotStarted",
      "type": "error"
    },
    {
      "inputs": [],
      "name": "ReentrancyGuardReentrantCall",
      "type": "error"
    },
    {
      "inputs": [],
      "name": "TitleRequired",
      "type": "error"
    },
    {
      "inputs": [],
      "name": "TooManyRaffles",
      "type": "error"
    },
    {
      "inputs": [],
      "name": "TooManyTickets",
      "type": "error"
    },
    {
      "inputs": [],
      "name": "TotalTicketsZero",
      "type": "error"
    },
    {
      "anonymous": false,
      "inputs": [
        {
          "indexed": true,
          "internalType": "uint256",
          "name": "raffleId",
          "type": "uint256"
        },
        {
          "indexed": false,
          "internalType": "uint256",
          "name": "startIndex",
          "type": "uint256"
        },
        {
          "indexed": false,
          "internalType": "uint256",
          "name": "count",
          "type": "uint256"
        },
        {
          "indexed": false,
          "internalType": "uint256",
          "name": "drawnCount",
          "type": "uint256"
        }
      ],
      "name": "BatchDrawCompleted",
      "type": "event"
    },
    {
      "anonymous": false,
      "inputs": [
        {
          "indexed": true,
          "internalType": "uint256",
          "name": "raffleId",
          "type": "uint256"
        },
        {
          "indexed": true,
          "internalType": "address",
          "name": "player",
          "type": "address"
        },
        {
          "indexed": false,
          "internalType": "uint256",
          "name": "participantId",
          "type": "uint256"
        },
        {
          "indexed": false,
          "internalType": "uint256",
          "name": "prizeIndex",
          "type": "uint256"
        }
      ],
      "name": "LotteryDrawn",
      "type": "event"
    },
    {
      "anonymous": false,
      "inputs": [
        {
          "indexed": true,
          "internalType": "uint256",
          "name": "raffleId",
          "type": "uint256"
        },
        {
          "indexed": true,
          "internalType": "address",
          "name": "player",
          "type": "address"
        },
        {
          "indexed": false,
          "internalType": "uint256",
          "name": "participantId",
          "type": "uint256"
        },
        {
          "indexed": false,
          "internalType": "uint256",
          "name": "ticketNumber",
          "type": "uint256"
        }
      ],
      "name": "Participated",
      "type": "event"
    },
    {
      "anonymous": false,
      "inputs": [
        {
          "indexed": false,
          "internalType": "address",
          "name": "account",
          "type": "address"
        }
      ],
      "name": "Paused",
      "type": "event"
    },
    {
      "anonymous": false,
      "inputs": [
        {
          "indexed": true,
          "internalType": "uint256",
          "name": "raffleId",
          "type": "uint256"
        },
        {
          "indexed": true,
          "internalType": "uint256",
          "name": "prizeIndex",
          "type": "uint256"
        },
        {
          "indexed": false,
          "internalType": "uint256",
          "name": "startTicket",
          "type": "uint256"
        },
        {
          "indexed": false,
          "internalType": "uint256",
          "name": "endTicket",
          "type": "uint256"
        }
      ],
      "name": "PrizeAllocated",
      "type": "event"
    },
    {
      "anonymous": false,
      "inputs": [
        {
          "indexed": true,
          "internalType": "uint256",
          "name": "raffleId",
          "type": "uint256"
        },
        {
          "indexed": true,
          "internalType": "uint256",
          "name": "prizeIndex",
          "type": "uint256"
        },
        {
          "indexed": false,
          "internalType": "uint256",
          "name": "startTicket",
          "type": "uint256"
        },
        {
          "indexed": false,
          "internalType": "uint256",
          "name": "endTicket",
          "type": "uint256"
        }
      ],
      "name": "PrizeDeallocated",
      "type": "event"
    },
    {
      "anonymous": false,
      "inputs": [
        {
          "indexed": true,
          "internalType": "uint256",
          "name": "raffleId",
          "type": "uint256"
        }
      ],
      "name": "RaffleActivated",
      "type": "event"
    },
    {
      "anonymous": false,
      "inputs": [
        {
          "indexed": true,
          "internalType": "uint256",
          "name": "raffleId",
          "type": "uint256"
        }
      ],
      "name": "RaffleCompleted",
      "type": "event"
    },
    {
      "anonymous": false,
      "inputs": [
        {
          "indexed": true,
          "internalType": "uint256",
          "name": "raffleId",
          "type": "uint256"
        },
        {
          "indexed": false,
          "internalType": "uint256",
          "name": "totalTickets",
          "type": "uint256"
        }
      ],
      "name": "RaffleCreated",
      "type": "event"
    },
    {
      "anonymous": false,
      "inputs": [
        {
          "indexed": true,
          "internalType": "uint256",
          "name": "raffleId",
          "type": "uint256"
        }
      ],
      "name": "RaffleReadyToActive",
      "type": "event"
    },
    {
      "anonymous": false,
      "inputs": [
        {
          "indexed": true,
          "internalType": "bytes32",
          "name": "role",
          "type": "bytes32"
        },
        {
          "indexed": true,
          "internalType": "bytes32",
          "name": "previousAdminRole",
          "type": "bytes32"
        },
        {
          "indexed": true,
          "internalType": "bytes32",
          "name": "newAdminRole",
          "type": "bytes32"
        }
      ],
      "name": "RoleAdminChanged",
      "type": "event"
    },
    {
      "anonymous": false,
      "inputs": [
        {
          "indexed": true,
          "internalType": "bytes32",
          "name": "role",
          "type": "bytes32"
        },
        {
          "indexed": true,
          "internalType": "address",
          "name": "account",
          "type": "address"
        },
        {
          "indexed": true,
          "internalType": "address",
          "name": "sender",
          "type": "address"
        }
      ],
      "name": "RoleGranted",
      "type": "event"
    },
    {
      "anonymous": false,
      "inputs": [
        {
          "indexed": true,
          "internalType": "bytes32",
          "name": "role",
          "type": "bytes32"
        },
        {
          "indexed": true,
          "internalType": "address",
          "name": "account",
          "type": "address"
        },
        {
          "indexed": true,
          "internalType": "address",
          "name": "sender",
          "type": "address"
        }
      ],
      "name": "RoleRevoked",
      "type": "event"
    },
    {
      "anonymous": false,
      "inputs": [
        {
          "indexed": false,
          "internalType": "address",
          "name": "account",
          "type": "address"
        }
      ],
      "name": "Unpaused",
      "type": "event"
    },
    {
      "inputs": [],
      "name": "ADMIN_ROLE",
      "outputs": [
        {
          "internalType": "bytes32",
          "name": "",
          "type": "bytes32"
        }
      ],
      "stateMutability": "view",
      "type": "function"
    },
    {
      "inputs": [],
      "name": "DEFAULT_ADMIN_ROLE",
      "outputs": [
        {
          "internalType": "bytes32",
          "name": "",
          "type": "bytes32"
        }
      ],
      "stateMutability": "view",
      "type": "function"
    },
    {
      "inputs": [
        {
          "internalType": "uint256",
          "name": "raffleId",
          "type": "uint256"
        }
      ],
      "name": "activateRaffle",
      "outputs": [],
      "stateMutability": "nonpayable",
      "type": "function"
    },
    {
      "inputs": [
        {
          "internalType": "uint256",
          "name": "raffleId",
          "type": "uint256"
        },
        {
          "internalType": "uint256",
          "name": "prizeIndex",
          "type": "uint256"
        }
      ],
      "name": "allocatePrize",
      "outputs": [],
      "stateMutability": "nonpayable",
      "type": "function"
    },
    {
      "inputs": [
        {
          "internalType": "uint256",
          "name": "",
          "type": "uint256"
        }
      ],
      "name": "allocatedPrizesCount",
      "outputs": [
        {
          "internalType": "uint256",
          "name": "",
          "type": "uint256"
        }
      ],
      "stateMutability": "view",
      "type": "function"
    },
    {
      "inputs": [
        {
          "internalType": "uint256",
          "name": "raffleId",
          "type": "uint256"
        },
        {
          "internalType": "uint256",
          "name": "startIndex",
          "type": "uint256"
        },
        {
          "internalType": "uint256",
          "name": "maxCount",
          "type": "uint256"
        }
      ],
      "name": "batchDraw",
      "outputs": [
        {
          "components": [
            {
              "internalType": "uint256",
              "name": "totalProcessed",
              "type": "uint256"
            },
            {
              "internalType": "uint256",
              "name": "totalDrawn",
              "type": "uint256"
            },
            {
              "internalType": "bool",
              "name": "completed",
              "type": "bool"
            },
            {
              "internalType": "string",
              "name": "reason",
              "type": "string"
            }
          ],
          "internalType": "struct RafflesV2.BatchDrawResult",
          "name": "",
          "type": "tuple"
        }
      ],
      "stateMutability": "nonpayable",
      "type": "function"
    },
    {
      "inputs": [
        {
          "internalType": "uint256",
          "name": "raffleId",
          "type": "uint256"
        }
      ],
      "name": "completeRaffle",
      "outputs": [],
      "stateMutability": "nonpayable",
      "type": "function"
    },
    {
      "inputs": [
        {
          "components": [
            {
              "components": [
                {
                  "internalType": "string",
                  "name": "title",
                  "type": "string"
                },
                {
                  "internalType": "string",
                  "name": "description",
                  "type": "string"
                },
                {
                  "internalType": "string",
                  "name": "imageUrl",
                  "type": "string"
                },
                {
                  "internalType": "string",
                  "name": "iconUrl",
                  "type": "string"
                }
              ],
              "internalType": "struct RafflesV2.RaffleBasicInfo",
              "name": "basicInfo",
              "type": "tuple"
            },
            {
              "components": [
                {
                  "internalType": "uint256",
                  "name": "startDate",
                  "type": "uint256"
                },
                {
                  "internalType": "uint256",
                  "name": "endDate",
                  "type": "uint256"
                },
                {
                  "internalType": "uint256",
                  "name": "drawDate",
                  "type": "uint256"
                },
                {
                  "internalType": "bool",
                  "name": "instantDraw",
                  "type": "bool"
                }
              ],
              "internalType": "struct RafflesV2.RaffleTiming",
              "name": "timing",
              "type": "tuple"
            },
            {
              "components": [
                {
                  "internalType": "uint256",
                  "name": "maxParticipants",
                  "type": "uint256"
                },
                {
                  "internalType": "uint256",
                  "name": "maxEntriesPerPlayer",
                  "type": "uint256"
                },
                {
                  "internalType": "bool",
                  "name": "allowMultipleWins",
                  "type": "bool"
                },
                {
                  "internalType": "bool",
                  "name": "dynamicWeight",
                  "type": "bool"
                }
              ],
              "internalType": "struct RafflesV2.RaffleSettings",
              "name": "settings",
              "type": "tuple"
            },
            {
              "components": [
                {
                  "internalType": "int256",
                  "name": "participationFeeAmount",
                  "type": "int256"
                },
                {
                  "internalType": "string",
                  "name": "participationFeeAsset",
                  "type": "string"
                },
                {
                  "internalType": "string",
                  "name": "participationFeeAssetId",
                  "type": "string"
                }
              ],
              "internalType": "struct RafflesV2.RaffleFee",
              "name": "fee",
              "type": "tuple"
            },
            {
              "components": [
                {
                  "internalType": "uint256",
                  "name": "quantity",
                  "type": "uint256"
                },
                {
                  "internalType": "uint256",
                  "name": "prizeQuantity",
                  "type": "uint256"
                },
                {
                  "internalType": "uint256",
                  "name": "rarity",
                  "type": "uint256"
                },
                {
                  "internalType": "uint256",
                  "name": "order",
                  "type": "uint256"
                },
                {
                  "internalType": "uint256[]",
                  "name": "tokenIds",
                  "type": "uint256[]"
                },
                {
                  "internalType": "address",
                  "name": "collectionAddress",
                  "type": "address"
                },
                {
                  "internalType": "enum RafflesV2.PrizeType",
                  "name": "prizeType",
                  "type": "uint8"
                },
                {
                  "internalType": "bool",
                  "name": "allocated",
                  "type": "bool"
                },
                {
                  "internalType": "string",
                  "name": "title",
                  "type": "string"
                },
                {
                  "internalType": "string",
                  "name": "description",
                  "type": "string"
                },
                {
                  "internalType": "string",
                  "name": "imageUrl",
                  "type": "string"
                },
                {
                  "internalType": "string",
                  "name": "iconUrl",
                  "type": "string"
                },
                {
                  "internalType": "string",
                  "name": "assetId",
                  "type": "string"
                }
              ],
              "internalType": "struct RafflesV2.Prize[]",
              "name": "prizes",
              "type": "tuple[]"
            }
          ],
          "internalType": "struct RafflesV2.RaffleCreateParams",
          "name": "params",
          "type": "tuple"
        }
      ],
      "name": "createRaffle",
      "outputs": [
        {
          "internalType": "uint256",
          "name": "",
          "type": "uint256"
        }
      ],
      "stateMutability": "nonpayable",
      "type": "function"
    },
    {
      "inputs": [
        {
          "internalType": "uint256",
          "name": "raffleId",
          "type": "uint256"
        },
        {
          "internalType": "uint256",
          "name": "prizeIndex",
          "type": "uint256"
        }
      ],
      "name": "deallocatePrize",
      "outputs": [],
      "stateMutability": "nonpayable",
      "type": "function"
    },
    {
      "inputs": [],
      "name": "getActiveRaffleCount",
      "outputs": [
        {
          "internalType": "uint256",
          "name": "",
          "type": "uint256"
        }
      ],
      "stateMutability": "view",
      "type": "function"
    },
    {
      "inputs": [],
      "name": "getActiveRaffleIds",
      "outputs": [
        {
          "internalType": "uint256[]",
          "name": "",
          "type": "uint256[]"
        }
      ],
      "stateMutability": "view",
      "type": "function"
    },
    {
      "inputs": [
        {
          "internalType": "uint256",
          "name": "raffleId",
          "type": "uint256"
        }
      ],
      "name": "getBatchDrawProgress",
      "outputs": [
        {
          "internalType": "uint256",
          "name": "total",
          "type": "uint256"
        },
        {
          "internalType": "uint256",
          "name": "drawn",
          "type": "uint256"
        },
        {
          "internalType": "uint256",
          "name": "remaining",
          "type": "uint256"
        }
      ],
      "stateMutability": "view",
      "type": "function"
    },
    {
      "inputs": [],
      "name": "getCompletedRaffleIds",
      "outputs": [
        {
          "internalType": "uint256[]",
          "name": "",
          "type": "uint256[]"
        }
      ],
      "stateMutability": "view",
      "type": "function"
    },
    {
      "inputs": [
        {
          "internalType": "uint256",
          "name": "raffleId",
          "type": "uint256"
        }
      ],
      "name": "getRaffle",
      "outputs": [
        {
          "components": [
            {
              "components": [
                {
                  "internalType": "string",
                  "name": "title",
                  "type": "string"
                },
                {
                  "internalType": "string",
                  "name": "description",
                  "type": "string"
                },
                {
                  "internalType": "string",
                  "name": "imageUrl",
                  "type": "string"
                },
                {
                  "internalType": "string",
                  "name": "iconUrl",
                  "type": "string"
                }
              ],
              "internalType": "struct RafflesV2.RaffleBasicInfo",
              "name": "basicInfo",
              "type": "tuple"
            },
            {
              "components": [
                {
                  "internalType": "uint256",
                  "name": "startDate",
                  "type": "uint256"
                },
                {
                  "internalType": "uint256",
                  "name": "endDate",
                  "type": "uint256"
                },
                {
                  "internalType": "uint256",
                  "name": "drawDate",
                  "type": "uint256"
                },
                {
                  "internalType": "bool",
                  "name": "instantDraw",
                  "type": "bool"
                }
              ],
              "internalType": "struct RafflesV2.RaffleTiming",
              "name": "timing",
              "type": "tuple"
            },
            {
              "components": [
                {
                  "internalType": "uint256",
                  "name": "maxParticipants",
                  "type": "uint256"
                },
                {
                  "internalType": "uint256",
                  "name": "maxEntriesPerPlayer",
                  "type": "uint256"
                },
                {
                  "internalType": "bool",
                  "name": "allowMultipleWins",
                  "type": "bool"
                },
                {
                  "internalType": "bool",
                  "name": "dynamicWeight",
                  "type": "bool"
                }
              ],
              "internalType": "struct RafflesV2.RaffleSettings",
              "name": "settings",
              "type": "tuple"
            },
            {
              "components": [
                {
                  "internalType": "int256",
                  "name": "participationFeeAmount",
                  "type": "int256"
                },
                {
                  "internalType": "string",
                  "name": "participationFeeAsset",
                  "type": "string"
                },
                {
                  "internalType": "string",
                  "name": "participationFeeAssetId",
                  "type": "string"
                }
              ],
              "internalType": "struct RafflesV2.RaffleFee",
              "name": "fee",
              "type": "tuple"
            },
            {
              "components": [
                {
                  "internalType": "uint256",
                  "name": "totalTickets",
                  "type": "uint256"
                },
                {
                  "internalType": "uint256",
                  "name": "pickedTickets",
                  "type": "uint256"
                },
                {
                  "internalType": "uint256",
                  "name": "drawnCount",
                  "type": "uint256"
                },
                {
                  "internalType": "bool",
                  "name": "isActive",
                  "type": "bool"
                },
                {
                  "internalType": "bool",
                  "name": "isDrawn",
                  "type": "bool"
                },
                {
                  "internalType": "bool",
                  "name": "readyToActive",
                  "type": "bool"
                }
              ],
              "internalType": "struct RafflesV2.RaffleStatus",
              "name": "status",
              "type": "tuple"
            },
            {
              "components": [
                {
                  "internalType": "uint256",
                  "name": "quantity",
                  "type": "uint256"
                },
                {
                  "internalType": "uint256",
                  "name": "prizeQuantity",
                  "type": "uint256"
                },
                {
                  "internalType": "uint256",
                  "name": "rarity",
                  "type": "uint256"
                },
                {
                  "internalType": "uint256",
                  "name": "order",
                  "type": "uint256"
                },
                {
                  "internalType": "uint256[]",
                  "name": "tokenIds",
                  "type": "uint256[]"
                },
                {
                  "internalType": "address",
                  "name": "collectionAddress",
                  "type": "address"
                },
                {
                  "internalType": "enum RafflesV2.PrizeType",
                  "name": "prizeType",
                  "type": "uint8"
                },
                {
                  "internalType": "bool",
                  "name": "allocated",
                  "type": "bool"
                },
                {
                  "internalType": "string",
                  "name": "title",
                  "type": "string"
                },
                {
                  "internalType": "string",
                  "name": "description",
                  "type": "string"
                },
                {
                  "internalType": "string",
                  "name": "imageUrl",
                  "type": "string"
                },
                {
                  "internalType": "string",
                  "name": "iconUrl",
                  "type": "string"
                },
                {
                  "internalType": "string",
                  "name": "assetId",
                  "type": "string"
                }
              ],
              "internalType": "struct RafflesV2.Prize[]",
              "name": "prizes",
              "type": "tuple[]"
            }
          ],
          "internalType": "struct RafflesV2.Raffle",
          "name": "",
          "type": "tuple"
        },
        {
          "internalType": "uint256",
          "name": "remainingTickets",
          "type": "uint256"
        }
      ],
      "stateMutability": "view",
      "type": "function"
    },
    {
      "inputs": [
        {
          "internalType": "uint256",
          "name": "raffleId",
          "type": "uint256"
        }
      ],
      "name": "getRaffleAllocationSummary",
      "outputs": [
        {
          "components": [
            {
              "internalType": "uint256",
              "name": "raffleId",
              "type": "uint256"
            },
            {
              "internalType": "uint256",
              "name": "totalTickets",
              "type": "uint256"
            },
            {
              "internalType": "uint256",
              "name": "allocatedTickets",
              "type": "uint256"
            },
            {
              "internalType": "uint256",
              "name": "totalPrizes",
              "type": "uint256"
            },
            {
              "internalType": "uint256",
              "name": "allocatedPrizes",
              "type": "uint256"
            },
            {
              "internalType": "bool",
              "name": "allPrizesAllocated",
              "type": "bool"
            },
            {
              "components": [
                {
                  "internalType": "uint256",
                  "name": "prizeIndex",
                  "type": "uint256"
                },
                {
                  "internalType": "uint256",
                  "name": "startTicket",
                  "type": "uint256"
                },
                {
                  "internalType": "uint256",
                  "name": "endTicket",
                  "type": "uint256"
                },
                {
                  "internalType": "uint256",
                  "name": "ticketCount",
                  "type": "uint256"
                },
                {
                  "internalType": "bool",
                  "name": "allocated",
                  "type": "bool"
                },
                {
                  "internalType": "string",
                  "name": "prizeTitle",
                  "type": "string"
                }
              ],
              "internalType": "struct RafflesV2.TicketAllocationInfo[]",
              "name": "allocations",
              "type": "tuple[]"
            }
          ],
          "internalType": "struct RafflesV2.RaffleAllocationSummary",
          "name": "",
          "type": "tuple"
        }
      ],
      "stateMutability": "view",
      "type": "function"
    },
    {
      "inputs": [
        {
          "internalType": "uint256",
          "name": "raffleId",
          "type": "uint256"
        }
      ],
      "name": "getRaffleListCardInfo",
      "outputs": [
        {
          "components": [
            {
              "internalType": "string",
              "name": "title",
              "type": "string"
            },
            {
              "internalType": "string",
              "name": "imageUrl",
              "type": "string"
            },
            {
              "internalType": "string",
              "name": "iconUrl",
              "type": "string"
            },
            {
              "internalType": "uint256",
              "name": "startDate",
              "type": "uint256"
            },
            {
              "internalType": "uint256",
              "name": "endDate",
              "type": "uint256"
            },
            {
              "internalType": "uint256",
              "name": "drawDate",
              "type": "uint256"
            },
            {
              "internalType": "bool",
              "name": "instantDraw",
              "type": "bool"
            },
            {
              "internalType": "uint256",
              "name": "participationLimit",
              "type": "uint256"
            },
            {
              "internalType": "uint256",
              "name": "uniqueParticipants",
              "type": "uint256"
            },
            {
              "internalType": "uint256",
              "name": "totalParticipations",
              "type": "uint256"
            },
            {
              "internalType": "int256",
              "name": "participationFeeAmount",
              "type": "int256"
            },
            {
              "internalType": "string",
              "name": "participationFeeAssetId",
              "type": "string"
            },
            {
              "internalType": "bool",
              "name": "isActive",
              "type": "bool"
            },
            {
              "internalType": "bool",
              "name": "isDrawn",
              "type": "bool"
            },
            {
              "internalType": "bool",
              "name": "readyToActive",
              "type": "bool"
            },
            {
              "internalType": "uint256",
              "name": "totalTickets",
              "type": "uint256"
            },
            {
              "internalType": "uint256",
              "name": "remainingTickets",
              "type": "uint256"
            },
            {
              "internalType": "uint256",
              "name": "raffleId",
              "type": "uint256"
            }
          ],
          "internalType": "struct RafflesV2.RaffleListCardInfo",
          "name": "",
          "type": "tuple"
        }
      ],
      "stateMutability": "view",
      "type": "function"
    },
    {
      "inputs": [
        {
          "internalType": "uint256",
          "name": "raffleId",
          "type": "uint256"
        }
      ],
      "name": "getRaffleParticipantCount",
      "outputs": [
        {
          "internalType": "uint256",
          "name": "",
          "type": "uint256"
        }
      ],
      "stateMutability": "view",
      "type": "function"
    },
    {
      "inputs": [
        {
          "internalType": "uint256",
          "name": "raffleId",
          "type": "uint256"
        }
      ],
      "name": "getRaffleParticipantIds",
      "outputs": [
        {
          "internalType": "uint256[]",
          "name": "",
          "type": "uint256[]"
        }
      ],
      "stateMutability": "view",
      "type": "function"
    },
    {
      "inputs": [
        {
          "internalType": "uint256",
          "name": "raffleId",
          "type": "uint256"
        }
      ],
      "name": "getRaffleParticipants",
      "outputs": [
        {
          "internalType": "address[]",
          "name": "",
          "type": "address[]"
        }
      ],
      "stateMutability": "view",
      "type": "function"
    },
    {
      "inputs": [
        {
          "internalType": "bytes32",
          "name": "role",
          "type": "bytes32"
        }
      ],
      "name": "getRoleAdmin",
      "outputs": [
        {
          "internalType": "bytes32",
          "name": "",
          "type": "bytes32"
        }
      ],
      "stateMutability": "view",
      "type": "function"
    },
    {
      "inputs": [
        {
          "internalType": "uint256",
          "name": "raffleId",
          "type": "uint256"
        },
        {
          "internalType": "uint256",
          "name": "prizeIndex",
          "type": "uint256"
        }
      ],
      "name": "getTicketAllocationRange",
      "outputs": [
        {
          "internalType": "uint256",
          "name": "startTicket",
          "type": "uint256"
        },
        {
          "internalType": "uint256",
          "name": "endTicket",
          "type": "uint256"
        },
        {
          "internalType": "bool",
          "name": "allocated",
          "type": "bool"
        }
      ],
      "stateMutability": "view",
      "type": "function"
    },
    {
      "inputs": [
        {
          "internalType": "uint256",
          "name": "raffleId",
          "type": "uint256"
        }
      ],
      "name": "getTotalParticipationCount",
      "outputs": [
        {
          "internalType": "uint256",
          "name": "",
          "type": "uint256"
        }
      ],
      "stateMutability": "view",
      "type": "function"
    },
    {
      "inputs": [
        {
          "internalType": "uint256",
          "name": "raffleId",
          "type": "uint256"
        }
      ],
      "name": "getUniqueParticipantCount",
      "outputs": [
        {
          "internalType": "uint256",
          "name": "",
          "type": "uint256"
        }
      ],
      "stateMutability": "view",
      "type": "function"
    },
    {
      "inputs": [
        {
          "internalType": "uint256",
          "name": "raffleId",
          "type": "uint256"
        },
        {
          "internalType": "address",
          "name": "player",
          "type": "address"
        }
      ],
      "name": "getUserParticipantIds",
      "outputs": [
        {
          "internalType": "uint256[]",
          "name": "",
          "type": "uint256[]"
        }
      ],
      "stateMutability": "view",
      "type": "function"
    },
    {
      "inputs": [
        {
          "internalType": "uint256",
          "name": "raffleId",
          "type": "uint256"
        },
        {
          "internalType": "address",
          "name": "player",
          "type": "address"
        }
      ],
      "name": "getUserParticipationCount",
      "outputs": [
        {
          "internalType": "uint256",
          "name": "",
          "type": "uint256"
        }
      ],
      "stateMutability": "view",
      "type": "function"
    },
    {
      "inputs": [
        {
          "internalType": "uint256",
          "name": "raffleId",
          "type": "uint256"
        },
        {
          "internalType": "address",
          "name": "player",
          "type": "address"
        }
      ],
      "name": "getUserParticipationDetails",
      "outputs": [
        {
          "components": [
            {
              "internalType": "uint256",
              "name": "participationCount",
              "type": "uint256"
            },
            {
              "components": [
                {
                  "internalType": "uint256",
                  "name": "participantId",
                  "type": "uint256"
                },
                {
                  "internalType": "uint256",
                  "name": "ticketNumber",
                  "type": "uint256"
                },
                {
                  "internalType": "uint256",
                  "name": "participatedAt",
                  "type": "uint256"
                },
                {
                  "internalType": "bool",
                  "name": "hasLotteryResult",
                  "type": "bool"
                },
                {
                  "internalType": "uint256",
                  "name": "prizeIndex",
                  "type": "uint256"
                },
                {
                  "internalType": "bool",
                  "name": "claimed",
                  "type": "bool"
                },
                {
                  "internalType": "uint256",
                  "name": "drawnAt",
                  "type": "uint256"
                },
                {
                  "internalType": "uint256",
                  "name": "claimedAt",
                  "type": "uint256"
                }
              ],
              "internalType": "struct RafflesV2.UserParticipationDetail[]",
              "name": "participations",
              "type": "tuple[]"
            },
            {
              "internalType": "uint256",
              "name": "totalWins",
              "type": "uint256"
            },
            {
              "internalType": "uint256",
              "name": "revealedCount",
              "type": "uint256"
            },
            {
              "internalType": "uint256",
              "name": "unrevealedCount",
              "type": "uint256"
            }
          ],
          "internalType": "struct RafflesV2.UserParticipationInfo",
          "name": "",
          "type": "tuple"
        }
      ],
      "stateMutability": "view",
      "type": "function"
    },
    {
      "inputs": [
        {
          "internalType": "address",
          "name": "account",
          "type": "address"
        }
      ],
      "name": "grantAdminRole",
      "outputs": [],
      "stateMutability": "nonpayable",
      "type": "function"
    },
    {
      "inputs": [
        {
          "internalType": "bytes32",
          "name": "role",
          "type": "bytes32"
        },
        {
          "internalType": "address",
          "name": "account",
          "type": "address"
        }
      ],
      "name": "grantRole",
      "outputs": [],
      "stateMutability": "nonpayable",
      "type": "function"
    },
    {
      "inputs": [
        {
          "internalType": "uint256",
          "name": "raffleId",
          "type": "uint256"
        },
        {
          "internalType": "address",
          "name": "player",
          "type": "address"
        }
      ],
      "name": "hasParticipated",
      "outputs": [
        {
          "internalType": "bool",
          "name": "",
          "type": "bool"
        }
      ],
      "stateMutability": "view",
      "type": "function"
    },
    {
      "inputs": [
        {
          "internalType": "bytes32",
          "name": "role",
          "type": "bytes32"
        },
        {
          "internalType": "address",
          "name": "account",
          "type": "address"
        }
      ],
      "name": "hasRole",
      "outputs": [
        {
          "internalType": "bool",
          "name": "",
          "type": "bool"
        }
      ],
      "stateMutability": "view",
      "type": "function"
    },
    {
      "inputs": [
        {
          "internalType": "address",
          "name": "account",
          "type": "address"
        }
      ],
      "name": "isAdmin",
      "outputs": [
        {
          "internalType": "bool",
          "name": "",
          "type": "bool"
        }
      ],
      "stateMutability": "view",
      "type": "function"
    },
    {
      "inputs": [
        {
          "internalType": "uint256",
          "name": "raffleId",
          "type": "uint256"
        }
      ],
      "name": "isRaffleActive",
      "outputs": [
        {
          "internalType": "bool",
          "name": "",
          "type": "bool"
        }
      ],
      "stateMutability": "view",
      "type": "function"
    },
    {
      "inputs": [
        {
          "internalType": "uint256",
          "name": "",
          "type": "uint256"
        }
      ],
      "name": "participants",
      "outputs": [
        {
          "internalType": "uint256",
          "name": "raffleId",
          "type": "uint256"
        },
        {
          "internalType": "uint256",
          "name": "ticketNumber",
          "type": "uint256"
        },
        {
          "internalType": "uint256",
          "name": "participatedAt",
          "type": "uint256"
        },
        {
          "internalType": "uint256",
          "name": "drawnAt",
          "type": "uint256"
        },
        {
          "internalType": "uint256",
          "name": "claimedAt",
          "type": "uint256"
        },
        {
          "internalType": "address",
          "name": "player",
          "type": "address"
        },
        {
          "internalType": "bool",
          "name": "hasResult",
          "type": "bool"
        },
        {
          "internalType": "bool",
          "name": "claimed",
          "type": "bool"
        }
      ],
      "stateMutability": "view",
      "type": "function"
    },
    {
      "inputs": [
        {
          "internalType": "uint256",
          "name": "raffleId",
          "type": "uint256"
        },
        {
          "internalType": "address",
          "name": "player",
          "type": "address"
        }
      ],
      "name": "participate",
      "outputs": [
        {
          "components": [
            {
              "internalType": "uint256",
              "name": "participantId",
              "type": "uint256"
            },
            {
              "internalType": "bool",
              "name": "hasResult",
              "type": "bool"
            },
            {
              "internalType": "uint256",
              "name": "prizeIndex",
              "type": "uint256"
            }
          ],
          "internalType": "struct RafflesV2.ParticipationResult",
          "name": "",
          "type": "tuple"
        }
      ],
      "stateMutability": "nonpayable",
      "type": "function"
    },
    {
      "inputs": [],
      "name": "pause",
      "outputs": [],
      "stateMutability": "nonpayable",
      "type": "function"
    },
    {
      "inputs": [],
      "name": "paused",
      "outputs": [
        {
          "internalType": "bool",
          "name": "",
          "type": "bool"
        }
      ],
      "stateMutability": "view",
      "type": "function"
    },
    {
      "inputs": [
        {
          "internalType": "uint256",
          "name": "",
          "type": "uint256"
        },
        {
          "internalType": "address",
          "name": "",
          "type": "address"
        },
        {
          "internalType": "uint256",
          "name": "",
          "type": "uint256"
        }
      ],
      "name": "playerParticipantIds",
      "outputs": [
        {
          "internalType": "uint256",
          "name": "",
          "type": "uint256"
        }
      ],
      "stateMutability": "view",
      "type": "function"
    },
    {
      "inputs": [
        {
          "internalType": "uint256",
          "name": "",
          "type": "uint256"
        },
        {
          "internalType": "address",
          "name": "",
          "type": "address"
        }
      ],
      "name": "playerParticipationCount",
      "outputs": [
        {
          "internalType": "uint256",
          "name": "",
          "type": "uint256"
        }
      ],
      "stateMutability": "view",
      "type": "function"
    },
    {
      "inputs": [
        {
          "internalType": "uint256",
          "name": "",
          "type": "uint256"
        },
        {
          "internalType": "uint256",
          "name": "",
          "type": "uint256"
        }
      ],
      "name": "prizeRanges",
      "outputs": [
        {
          "internalType": "uint256",
          "name": "startTicket",
          "type": "uint256"
        },
        {
          "internalType": "uint256",
          "name": "endTicket",
          "type": "uint256"
        },
        {
          "internalType": "bool",
          "name": "allocated",
          "type": "bool"
        }
      ],
      "stateMutability": "view",
      "type": "function"
    },
    {
      "inputs": [
        {
          "internalType": "uint256",
          "name": "",
          "type": "uint256"
        },
        {
          "internalType": "uint256",
          "name": "",
          "type": "uint256"
        }
      ],
      "name": "prizeStartTickets",
      "outputs": [
        {
          "internalType": "uint256",
          "name": "",
          "type": "uint256"
        }
      ],
      "stateMutability": "view",
      "type": "function"
    },
    {
      "inputs": [
        {
          "internalType": "uint256",
          "name": "",
          "type": "uint256"
        },
        {
          "internalType": "uint256",
          "name": "",
          "type": "uint256"
        }
      ],
      "name": "raffleParticipantIds",
      "outputs": [
        {
          "internalType": "uint256",
          "name": "",
          "type": "uint256"
        }
      ],
      "stateMutability": "view",
      "type": "function"
    },
    {
      "inputs": [
        {
          "internalType": "uint256",
          "name": "",
          "type": "uint256"
        }
      ],
      "name": "raffles",
      "outputs": [
        {
          "components": [
            {
              "internalType": "string",
              "name": "title",
              "type": "string"
            },
            {
              "internalType": "string",
              "name": "description",
              "type": "string"
            },
            {
              "internalType": "string",
              "name": "imageUrl",
              "type": "string"
            },
            {
              "internalType": "string",
              "name": "iconUrl",
              "type": "string"
            }
          ],
          "internalType": "struct RafflesV2.RaffleBasicInfo",
          "name": "basicInfo",
          "type": "tuple"
        },
        {
          "components": [
            {
              "internalType": "uint256",
              "name": "startDate",
              "type": "uint256"
            },
            {
              "internalType": "uint256",
              "name": "endDate",
              "type": "uint256"
            },
            {
              "internalType": "uint256",
              "name": "drawDate",
              "type": "uint256"
            },
            {
              "internalType": "bool",
              "name": "instantDraw",
              "type": "bool"
            }
          ],
          "internalType": "struct RafflesV2.RaffleTiming",
          "name": "timing",
          "type": "tuple"
        },
        {
          "components": [
            {
              "internalType": "uint256",
              "name": "maxParticipants",
              "type": "uint256"
            },
            {
              "internalType": "uint256",
              "name": "maxEntriesPerPlayer",
              "type": "uint256"
            },
            {
              "internalType": "bool",
              "name": "allowMultipleWins",
              "type": "bool"
            },
            {
              "internalType": "bool",
              "name": "dynamicWeight",
              "type": "bool"
            }
          ],
          "internalType": "struct RafflesV2.RaffleSettings",
          "name": "settings",
          "type": "tuple"
        },
        {
          "components": [
            {
              "internalType": "int256",
              "name": "participationFeeAmount",
              "type": "int256"
            },
            {
              "internalType": "string",
              "name": "participationFeeAsset",
              "type": "string"
            },
            {
              "internalType": "string",
              "name": "participationFeeAssetId",
              "type": "string"
            }
          ],
          "internalType": "struct RafflesV2.RaffleFee",
          "name": "fee",
          "type": "tuple"
        },
        {
          "components": [
            {
              "internalType": "uint256",
              "name": "totalTickets",
              "type": "uint256"
            },
            {
              "internalType": "uint256",
              "name": "pickedTickets",
              "type": "uint256"
            },
            {
              "internalType": "uint256",
              "name": "drawnCount",
              "type": "uint256"
            },
            {
              "internalType": "bool",
              "name": "isActive",
              "type": "bool"
            },
            {
              "internalType": "bool",
              "name": "isDrawn",
              "type": "bool"
            },
            {
              "internalType": "bool",
              "name": "readyToActive",
              "type": "bool"
            }
          ],
          "internalType": "struct RafflesV2.RaffleStatus",
          "name": "status",
          "type": "tuple"
        }
      ],
      "stateMutability": "view",
      "type": "function"
    },
    {
      "inputs": [
        {
          "internalType": "bytes32",
          "name": "role",
          "type": "bytes32"
        },
        {
          "internalType": "address",
          "name": "callerConfirmation",
          "type": "address"
        }
      ],
      "name": "renounceRole",
      "outputs": [],
      "stateMutability": "nonpayable",
      "type": "function"
    },
    {
      "inputs": [
        {
          "internalType": "address",
          "name": "account",
          "type": "address"
        }
      ],
      "name": "revokeAdminRole",
      "outputs": [],
      "stateMutability": "nonpayable",
      "type": "function"
    },
    {
      "inputs": [
        {
          "internalType": "bytes32",
          "name": "role",
          "type": "bytes32"
        },
        {
          "internalType": "address",
          "name": "account",
          "type": "address"
        }
      ],
      "name": "revokeRole",
      "outputs": [],
      "stateMutability": "nonpayable",
      "type": "function"
    },
    {
      "inputs": [
        {
          "internalType": "bytes4",
          "name": "interfaceId",
          "type": "bytes4"
        }
      ],
      "name": "supportsInterface",
      "outputs": [
        {
          "internalType": "bool",
          "name": "",
          "type": "bool"
        }
      ],
      "stateMutability": "view",
      "type": "function"
    },
    {
      "inputs": [],
      "name": "unpause",
      "outputs": [],
      "stateMutability": "nonpayable",
      "type": "function"
    },
    {
      "inputs": [
        {
          "internalType": "uint256",
          "name": "",
          "type": "uint256"
        },
        {
          "internalType": "uint256",
          "name": "",
          "type": "uint256"
        }
      ],
      "name": "usedTickets",
      "outputs": [
        {
          "internalType": "bool",
          "name": "",
          "type": "bool"
        }
      ],
      "stateMutability": "view",
      "type": "function"
    },
    {
      "inputs": [
        {
          "internalType": "uint256",
          "name": "raffleId",
          "type": "uint256"
        }
      ],
      "name": "verifyTicketAllocation",
      "outputs": [
        {
          "internalType": "bool",
          "name": "isValid",
          "type": "bool"
        },
        {
          "internalType": "string",
          "name": "errorMessage",
          "type": "string"
        }
      ],
      "stateMutability": "view",
      "type": "function"
    }
  ],
  "bytecode": "0x6080604052346100225761001161006c565b60405161584a610215823961584a90f35b600080fd5b90600019905b9181191691161790565b6100446100446100449290565b90565b9061005761004461005e92610037565b8254610027565b9055565b6100446000610037565b6100746100a1565b61008060016004610047565b61008c60016010610047565b61009e610097610062565b3390610154565b50565b6100a96100ab565b565b6100a96100a96100a96100a96100a96100c9565b6100446001610037565b6100a96100d46100bf565b6000610047565b906100e590610044565b600052602052604060002090565b61004490610107906001600160a01b031682565b6001600160a01b031690565b610044906100f3565b61004490610113565b906100e59061011c565b9060ff9061002d565b151590565b9061014d61004461005e92610138565b825461012f565b9061016661016282846101f2565b1590565b156101db5760019161018d8361018884600061018286856100db565b01610125565b61013d565b6101a96101a361019d3393610044565b9361011c565b9161011c565b917f2f8788117e7eff1d82e926ec794901d17c78024a50270940304540a733656f0d6101d460405190565b600090a490565b5050600090565b60ff1690565b61004490546101e2565b61004491600061018261020f93610207600090565b5060016100db565b6101e856fe60e0604052600436101561001257600080fd5b60003560e01c806301ffc9a71461031d578063021aa4e11461031857806310dd7470146102d757806313b1864014610313578063247a16e51461030e578063248a9ca31461030957806324d7806c14610304578063265d4958146102ff5780632cce381a146102fa5780632f2ff15d146102f55780633077a863146102f057806335c1d349146102eb57806336568abe146102e65780633cd6c7ee146102e15780633f4ba83a146102dc57806341a0f38c146102d757806347a5717a146102d25780634b352bc9146102cd57806352de3a29146102c857806354fc59f1146102c357806357bbf553146102be5780635b016d70146102b95780635c975abb146102b45780635d4bc0ce146102af5780637472bd2f146102aa57806375b238fc146102a55780638456cb59146102a057806387488aaa1461029b5780638d5a8e701461029657806390409bd51461029157806391d148541461028c578063945382a4146102875780639a19c7b0146102825780639b90eb0e1461027d5780639eb9482414610278578063a217fddf14610273578063a34398a21461026e578063a4459c6e14610269578063a6e3295b14610264578063a8a1dc271461025f578063be8b92d41461025a578063c568a95614610255578063c634b78e14610250578063d547741f1461024b578063dad7177414610246578063e354c35814610241578063e4dafec91461023c578063ea668216146102375763fbb7c22d0361032257611f7d565b611f4d565b611f14565b611c7a565b611bea565b611bd1565b611bb9565b611b9e565b611b86565b611b5b565b611b15565b611aa4565b611a88565b611a6d565b611a40565b611a19565b6118c7565b6118ab565b61188f565b611867565b61174b565b6116c1565b611694565b61166d565b611651565b6115ef565b611112565b6110f7565b610ae6565b610ab1565b610a95565b6109fe565b6109d3565b610586565b610995565b61096f565b610956565b61091f565b610802565b6107e9565b6107cb565b6107a4565b610722565b6106f3565b6106d7565b61062f565b61055f565b610364565b600080fd5b6001600160e01b031981165b0361032257565b9050359061034782610327565b565b906020828203126103225761035d9161033a565b90565b9052565b346103225761039161037f61037a366004610349565b611f99565b60405191829182901515815260200190565b0390f35b80610333565b9050359061034782610395565b906020828203126103225761035d9161039b565b60005b8381106103cf5750506000910152565b81810151838201526020016103bf565b610400610409602093610413936103f4815190565b80835293849260200190565b958691016103bc565b601f01601f191690565b0190565b8051825261035d9160c081019160a09061043660208201516020850152565b61044560408201516040850152565b61045460608201516060850152565b60808181015115159084015201519060a08184039101526103df565b9061035d91610417565b90610490610486835190565b8083529160200190565b90816104a26020830284019460200190565b926000915b8383106104b657505050505090565b909192939460206104d96104d283856001950387528951610470565b9760200190565b93019301919392906104a7565b8051825261035d9160e081019160c09061050560208201516020850152565b61051460408201516040850152565b61052360608201516060850152565b61053260808201516080850152565b60a08181015115159084015201519060c081840391015261047a565b602080825261035d929101906104e6565b346103225761039161057a6105753660046103a8565b6120f6565b6040519182918261054e565b34610322576103916105a161059c3660046103a8565b612349565b6040515b9182918290815260200190565b6001600160a01b031690565b6001600160a01b038116610333565b90503590610347826105be565b91906040838203126103225761035d9060206105f6828661039b565b94016105cd565b80518252610347919060409081906020818101511515908501525b0151910152565b60608101929161034791906105fd565b346103225761039161064b6106453660046105da565b90612937565b6040519182918261061f565b91906040838203126103225761035d906020610673828661039b565b940161039b565b61035d61035d61035d9290565b906106919061067a565b600052602052604060002090565b61035d916008021c5b60ff1690565b9061035d915461069f565b6106d261035d926106cd600093600e610687565b610687565b6106ae565b346103225761039161037f6106ed366004610657565b906106b9565b34610322576103916105a16107093660046103a8565b61294f565b906020828203126103225761035d916105cd565b346103225761039161037f61073836600461070e565b61296d565b9061075d61075661074c845190565b8084529260200190565b9260200190565b9060005b81811061076e5750505090565b90919261078b6107846001928651815260200190565b9460200190565b929101610761565b602080825261035d9291019061073d565b34610322576103916107bf6107ba3660046103a8565b612a0a565b60405191829182610793565b34610322576107e46107de366004610657565b90612c98565b604051005b34610322576107e46107fc3660046105da565b90612cc5565b34610322576107e46108153660046103a8565b612de7565b61035d9081565b61035d905461081a565b61035d9060a01c6106a8565b61035d905461082b565b61035d9060a81c6106a8565b61035d9054610841565b61086290600f610687565b9061086c82610821565b9161087960018201610821565b9161088660028301610821565b9161089360038201610821565b916108a060048301610821565b916108b560058201546001600160a01b031690565b9161035d60056108c6818501610837565b930161084d565b908152610100810198979690959094909390929091602087015260408601526060850152608084015260a0830161090b916001600160a01b03169052565b151560c082015260e0016103479115159052565b346103225761039161093a6109353660046103a8565b610857565b9461094d98969894919493929360405190565b988998896108cd565b34610322576107e46109693660046105da565b90612df0565b346103225761039161037f6109853660046103a8565b612e24565b600091031261032257565b34610322576109a536600461098a565b6107e4612e58565b9081526060810193926103479290916040916109cb905b6020830152565b019015159052565b34610322576103916109ef6109e9366004610657565b90612e60565b604051919391938493846109ad565b34610322576103916105a1610a143660046105da565b90612ef6565b634e487b7160e01b600052603260045260246000fd5b8054821015610a5357610a4a600191600052602060002090565b91020190600090565b610a1a565b61035d916008021c81565b9061035d9154610a58565b610a7990600a610687565b80548210156103225761035d91610a8f91610a30565b90610a63565b34610322576103916105a1610aab366004610657565b90610a6e565b34610322576103916105a1610ac73660046103a8565b612f11565b901515815260406020820181905261035d929101906103df565b3461032257610afe610af93660046103a8565b613082565b90610391610b0b60405190565b92839283610acc565b634e487b7160e01b600052604160045260246000fd5b90601f01601f1916810190811067ffffffffffffffff821117610b4c57604052565b610b14565b90610347610b5e60405190565b9283610b2a565b67ffffffffffffffff8111610b4c57602090601f01601f19160190565b90826000939282370152565b90929192610ba3610b9e82610b65565b610b51565b938185528183011161032257610347916020850190610b82565b9080601f830112156103225781602061035d93359101610b8e565b91909160808184031261032257610bef6080610b51565b92813567ffffffffffffffff81116103225781610c0d918401610bbd565b8452602082013567ffffffffffffffff81116103225781610c2f918401610bbd565b6020850152604082013567ffffffffffffffff81116103225781610c54918401610bbd565b6040850152606082013567ffffffffffffffff811161032257610c779201610bbd565b6060830152565b801515610333565b9050359061034782610c7e565b919060808382031261032257610c77906060610caf6080610b51565b94610cba838261039b565b8652610cc9836020830161039b565b6020870152610cdb836040830161039b565b604087015201610c86565b919060808382031261032257610c77906060610d026080610b51565b94610d0d838261039b565b8652610d1c836020830161039b565b6020870152610cdb8360408301610c86565b91909160608184031261032257610d456060610b51565b92610d50818361039b565b8452602082013567ffffffffffffffff81116103225781610d72918401610bbd565b6020850152604082013567ffffffffffffffff811161032257610d959201610bbd565b6040830152565b67ffffffffffffffff8111610b4c5760208091020190565b90929192610dc4610b9e82610d9c565b938185526020808601920283019281841161032257915b838310610de85750505050565b60208091610df6848661039b565b815201920191610ddb565b9080601f830112156103225781602061035d93359101610db4565b6004111561032257565b9050359061034782610e1c565b9190916101a08184031261032257610e4c6101a0610b51565b92610e57818361039b565b8452610e66816020840161039b565b6020850152610e78816040840161039b565b6040850152610e8a816060840161039b565b6060850152608082013567ffffffffffffffff81116103225781610eaf918401610e01565b6080850152610ec18160a084016105cd565b60a0850152610ed38160c08401610e26565b60c0850152610ee58160e08401610c86565b60e085015261010082013567ffffffffffffffff81116103225781610f0b918401610bbd565b61010085015261012082013567ffffffffffffffff81116103225781610f32918401610bbd565b61012085015261014082013567ffffffffffffffff81116103225781610f59918401610bbd565b61014085015261016082013567ffffffffffffffff81116103225781610f80918401610bbd565b61016085015261018082013567ffffffffffffffff811161032257610fa59201610bbd565b610180830152565b929190610fbc610b9e82610d9c565b93818552602080860192028101918383116103225781905b838210610fe2575050505050565b813567ffffffffffffffff8111610322576020916110038784938701610e33565b815201910190610fd4565b9080601f830112156103225781602061035d93359101610fad565b919091610160818403126103225761104160a0610b51565b92813567ffffffffffffffff8111610322578161105f918401610bd8565b845261106e8160208401610c93565b60208501526110808160a08401610ce6565b604085015261012082013567ffffffffffffffff811161032257816110a6918401610d2e565b606085015261014082013567ffffffffffffffff8111610322576110ca920161100e565b6080830152565b9060208282031261032257813567ffffffffffffffff81116103225761035d9201611029565b34610322576103916105a161110d3660046110d1565b6139f0565b346103225761112236600461098a565b61039161037f6139fb565b634e487b7160e01b600052602260045260246000fd5b9060016002830492168015611163575b602083101461115e57565b61112d565b91607f1691611153565b8054600093929161118a61118083611143565b8085529360200190565b91600181169081156111dc57506001146111a357505050565b6111b69192939450600052602060002090565b916000925b8184106111c85750500190565b8054848401526020909301926001016111bb565b92949550505060ff1916825215156020020190565b9061035d9161116d565b906103476112159261120c60405190565b938480926111f1565b0383610b2a565b61035d6080610b51565b9061034761127a600361123761121c565b94611248611244826111fb565b8752565b61125e611257600183016111fb565b6020880152565b61127461126d600283016111fb565b6040880152565b016111fb565b6060840152565b61035d906106a8565b61035d9054611281565b906103476112d660036112a561121c565b946112b261124482610821565b6112c161125760018301610821565b6112d061126d60028301610821565b0161128a565b15156060840152565b61035d9060081c6106a8565b61035d90546112df565b906103476112d6600261130661121c565b9461131361124482610821565b61132261125760018301610821565b61133961133083830161128a565b15156040880152565b016112eb565b61035d6060610b51565b90610347611376600261135a61133f565b9461136761124482610821565b611274611257600183016111fb565b6040840152565b61035d9060101c6106a8565b61035d905461137d565b61035d60c0610b51565b9061034761140d60036113ae611393565b946113bb61124482610821565b6113ca61125760018301610821565b6113d961126d60028301610821565b6113f06113e783830161128a565b15156060880152565b6114076113fe8383016112eb565b15156080880152565b01611389565b151560a0840152565b611421906003610687565b61142a81611226565b9161143760048301611294565b91611444600882016112f5565b9161035d600e611456600b8501611349565b930161139d565b61035d9160606114a661149461148260808501600087015186820360008801526103df565b602086015185820360208701526103df565b604085015184820360408601526103df565b9201519060608184039101526103df565b80518252610347919060609081906114d460208201516020860152565b6114e360408201516040860152565b01511515910152565b805182526103479190606090819061150960208201516020860152565b6040818101511515908501526114e3565b8051825261035d91604061153d60608301602085015184820360208601526103df565b9201519060408184039101526103df565b80518252610347919060a090819061156b60208201516020860152565b61157a60408201516040860152565b6060818101511515908501526080818101511515908501526114e3565b95949291610347946115d9610140946115cf6115c46115e7966102008d01908d600081840391015261145d565b9460208c01906114b7565b60a08a01906114ec565b87820361012089015261151a565b94019061154e565b346103225761039161160a6116053660046103a8565b611416565b9161161795939560405190565b95869586611597565b906106cd61162f92600b610687565b61163881610821565b9161035d600261164a60018501610821565b930161128a565b34610322576103916109ef611667366004610657565b90611620565b346103225761167d36600461098a565b6103916000805160206157f58339815191526105a1565b34610322576116a436600461098a565b6107e4613a2e565b60006116bc61035d92600c610687565b610a63565b34610322576103916105a16116d73660046103a8565b6116ac565b90916060828403126103225761035d6116f5848461039b565b93604061067382602087016105cd565b6105b261035d61035d926001600160a01b031690565b61035d90611705565b61035d9061171b565b9061069190611724565b90611746610a79926012610687565b61172d565b34610322576103916105a16117613660046116dc565b91611737565b80518252610347919060e090819061178460208201516020860152565b61179360408201516040860152565b6060818101511515908501526117ae60808201516080860152565b60a08181015115159085015261061860c082015160c0860152565b906104138161010093611767565b906117e661075661074c845190565b9060005b8181106117f75750505090565b90919261180a61078460019286516117c9565b9291016117ea565b805182529061035d9060808061183760a08401602087015185820360208701526117d7565b9461184760408201516040860152565b61061860608201516060860152565b602080825261035d92910190611812565b346103225761039161188361187d3660046105da565b90613ae8565b60405191829182611856565b346103225761039161037f6118a53660046105da565b90613de8565b34610322576103916107bf6118c13660046105da565b90613e10565b34610322576107e46118da36600461070e565b613e52565b9061035d90610220806119be61192f61191d61190b610240870160008a015188820360008a01526103df565b602089015187820360208901526103df565b604088015186820360408801526103df565b61193e60608801516060870152565b61194d60808801516080870152565b61195c60a088015160a0870152565b60c08781015115159086015261197760e088015160e0870152565b611988610100880151610100870152565b611999610120880151610120870152565b6119aa610140880151610140870152565b6101608701518582036101608701526103df565b61018080870151151590850152946101a0818101511515908501526101c0818101511515908501526119f76101e08201516101e0860152565b610618610200820151610200860152565b602080825261035d929101906118df565b3461032257610391611a34611a2f3660046103a8565b613ef5565b60405191829182611a08565b3461032257611a5036600461098a565b6103916107bf6140e9565b61035d600061067a565b61035d611a5b565b3461032257611a7d36600461098a565b6103916105a1611a65565b346103225761039161037f611a9e3660046105da565b906140f8565b34610322576107e4611ab7366004610657565b90614336565b90611acc61075661074c845190565b9060005b818110611add5750505090565b909192611afc61078460019286516001600160a01b0316815260200190565b929101611ad0565b602080825261035d92910190611abd565b3461032257610391611b30611b2b3660046103a8565b614340565b60405191829182611b04565b908152606081019392610347929091604091611b57906109c4565b0152565b3461032257610391611b76611b713660046103a8565b614352565b6040519193915b93849384611b3c565b34610322576107e4611b993660046103a8565b614459565b3461032257611bae36600461098a565b6103916107bf614462565b34610322576107e4611bcc36600461070e565b614493565b34610322576107e4611be43660046105da565b906144b7565b3461032257611bfa36600461098a565b6103916105a16144c1565b90916060828403126103225761035d611c1e848461039b565b936040610673826020870161039b565b8051825261035d916080810191606090611c4d60208201516020850152565b60408181015115159084015201519060608184039101526103df565b602080825261035d92910190611c2e565b3461032257610391611c96611c90366004611c05565b91614850565b60405191829182611c69565b90611cb161075661074c845190565b9060005b818110611cc25750505090565b909192611cd86107846001928651815260200190565b929101611cb5565b634e487b7160e01b600052602160045260246000fd5b60041115611d0057565b611ce0565b9061034782611cf6565b61035d90611d05565b61036090611d0f565b8051825261035d91610180611e00611dec611dd8611dc4611d7f6101a08701611d4f60208a015160208a0152565b611d5e60408a015160408a0152565b611d6d60608a015160608a0152565b608089015188820360808a0152611ca2565b60a0888101516001600160a01b031690880152611da460c089015160c0890190611d18565b60e0888101511515908801526101008801518782036101008901526103df565b6101208701518682036101208801526103df565b6101408601518582036101408701526103df565b6101608501518482036101608601526103df565b920151906101808184039101526103df565b9061035d91611d21565b90611e28610486835190565b9081611e3a6020830284019460200190565b926000915b838310611e4e57505050505090565b90919293946020611e6a6104d283856001950387528951611e12565b9301930191939290611e3f565b805161022080845261035d939160a091611ecd91611e979185019061145d565b611ea9602086015160208601906114b7565b611eba6040860151848601906114ec565b606085015184820361012086015261151a565b92611ee1608082015161014085019061154e565b015190610200818403910152611e1c565b92916020611f0f6103479360408701908782036000890152611e77565b940152565b3461032257611f2c611f273660046103a8565b614b41565b90610391611f3960405190565b92839283611ef2565b610a7990600d610687565b34610322576103916105a1611f63366004610657565b90611f42565b6116bc61035d926117466000936011610687565b34610322576103916105a1611f933660046105da565b90611f69565b61035d90614bab565b61035d60e0610b51565b611fb4611fa2565b906000825260208080808080808801600081520160005b815201600081520160005b81520160005b8152016060905250565b61035d611fac565b90611ffb610b9e83610d9c565b918252565b612008611393565b90600082526020808080808087016000611fcb565b61035d612000565b60005b82811061203457505050565b60209061203f61201d565b8184015201612028565b9061034761205f61205984611fee565b93610d9c565b601f190160208401612025565b8054821015610a5357610a4a600b91600052602060002090565b634e487b7160e01b600052601160045260246000fd5b91906120a7565b9290565b82018092116120b257565b612086565b919082039182116120b257565b61035d906111fb565b906120d6825190565b811015610a53576020809102010190565b60001981146120b25760010190565b6120fe611fe6565b5061210d61035d826003610687565b9061211a60048301610821565b9260009361212e61212a8661067a565b9190565b1461233a576012830193612140855490565b9361214a8261067a565b95869361215687612049565b92885b888110156122c75761217261216e828661206c565b5090565b868261217d8261067a565b928b600d61219561035d6121918484610687565b5490565b841061228e575b5050916122386122316121fd9361222c866122238661225399019961221c8b6122156121ec6121e66121d66121d085610821565b8761209c565b6121e0600161067a565b906120b7565b92610821565b9361220e6006600589019e8f61084d565b980199612208611393565b9d8e0152565b60208c0152565b60408a0152565b6060880152565b15156080860152565b6120c4565b60a0830152565b612242858a6120cd565b5261224d84896120cd565b5061084d565b612266575b50600101612159565b612159565b99612261919761228161227b612287936120e7565b9c610821565b9061209c565b9690612258565b612253949295508361222c6122b8610a8f6121fd976122b36122389761223197610687565b610a30565b979496505093508d915061219c565b50929461232a9250849761231c6123239261231561035d9a61230e6122ff979e976123339b600e6122f785614be5565b9c0101610821565b91612308611fa2565b9e8f0152565b60208d0152565b60408b0152565b6060890152565b6080870152565b151560a0850152565b60c0830152565b63c57b876d60e01b8452600484fd5b61219161035d91612358600090565b50600a610687565b61236861133f565b906000825260208080840160005b8152016000905250565b61035d612360565b9061239b9291612396614c52565b6123a4565b90610347614c92565b9061035d92916123b2614ca4565b6125a6565b90600019905b9181191691161790565b906123d761035d6123de9261067a565b82546123b7565b9055565b61035d610100610b51565b634e487b7160e01b600052600060045260246000fd5b906001600160a01b03906123bd565b9061242261035d6123de92611724565b8254612403565b9060ff60a01b9060a01b6123bd565b9061244861035d6123de92151590565b8254612429565b9060ff60a81b9060a81b6123bd565b9061246e61035d6123de92151590565b825461244f565b9061252d60e060056103479461249561248f600087015190565b826123c7565b6124ac6124a3602087015190565b600183016123c7565b6124c36124ba604087015190565b600283016123c7565b6124da6124d1606087015190565b600383016123c7565b6124f16124e8608087015190565b600483016123c7565b019261251061250a60a08301516001600160a01b031690565b85612412565b61252661252060c0830151151590565b85612438565b0151151590565b9061245e565b9061034791612475565b9160001960089290920291821b911b6123bd565b919061256261035d6123de9361067a565b90835461253d565b90815491600160401b831015610b4c578261258d91600161034795018155610a30565b90612551565b9081526040810192916103479160200152565b50906125b661035d836003610687565b90600e820191600383016125d06125cc8261128a565b1590565b612925576125dd906112eb565b6129015760048101936125f261035d86610821565b42106129135761260761035d60018701610821565b42116129015761261684610821565b9161262561219183600a610687565b8311156128ec576008019461263986610821565b956000966126468861067a565b81116128b5575b50600161265a9101610821565b6126638761067a565b8111612882575b506126756010610821565b94612689612682876120e7565b60106123c7565b61269b612697878786614d45565b9490565b841015612873576127fe916126c66001600393016126c06126bb82610821565b6120e7565b906123c7565b6126ce6123e2565b956126d9858a890152565b6126e4866020890152565b6126ef426040890152565b6127406126fb8a61067a565b97612707896060830152565b612712896080830152565b6001600160a01b03831660a08201528a151560c0820181905260e082015261273b8a600f610687565b612533565b8661275b61035d612756846117468a6011610687565b610821565b14612856575b6127788861277361035d88600a610687565b61256a565b61279661278a82611746886011610687565b6126c06126bb82610821565b6127ac8861277361035d846117468a6012610687565b6127be6127b88661067a565b91611724565b907f20fe128b25ee6824800a2ffce0bbace6ba602f124f276eeaaacd7a3967ab223f6127e960405190565b806127f58a8d83612593565b0390a30161128a565b612827575050610d9561035d929361281e61281761133f565b9582870152565b15156020850152565b83925061284a9161035d9461283b92614eb3565b9161284461133f565b94850152565b60016020840152610d95565b61286d8161286861035d886009610687565b614e70565b50612761565b632e12ccb760e11b8752600487fd5b61289a61212a6120a361275688611746886011610687565b10156128a6573861266a565b6359973d5f60e01b8652600486fd5b6128d161212a6120a36128cc61035d886009610687565b614cc4565b10156128dd573861264d565b636c8c8d2160e01b8752600487fd5b632e12ccb760e11b600090815260045b036000fd5b63502fd88d60e01b6000908152600490fd5b6319affd7360e11b6000908152600490fd5b632ae47f7360e01b6000908152600490fd5b9061035d91612944612380565b612388565b90610691565b600161296761035d92612960600090565b5082612949565b01610821565b61035d906000805160206157f5833981519152613de8565b906129a061299461074c845490565b92600052602060002090565b9060005b8181106129b15750505090565b9091926129d56129ce6001926129c687610821565b815260200190565b9460010190565b9291016129a4565b9061035d91612985565b90610347611215926129f860405190565b938480926129dd565b61035d906129e7565b612a1961035d91612358606090565b612a01565b90612a3c6125cc6000805160206157f58339815191525b3390613de8565b612a495761034791612a5b565b6364487c2560e11b6000908152600490fd5b9061034791612a68614ca4565b612ae2565b61034791600091612551565b600090600290612a898382612a6d565b612a968360018301612a6d565b0155565b90600003612aab5761034790612a79565b6123ed565b80156120b2576000190190565b9062ff00009060101b6123bd565b90612adb61035d6123de92151590565b8254612abd565b90612af161035d836003610687565b601181019290612b008461128a565b612c8657612b0d846112eb565b612c7457601201612b1f61035d825490565b831015612c6257612b3f6125cc6005612b38868561206c565b500161084d565b612c5057612b4d8383615035565b93612b58848361206c565b50612b6290610821565b612b6c908661209c565b612b76600161067a565b612b7f916120b7565b918480612b8d86600b610687565b90612b9791610687565b6000612ba291612a9a565b612bab9161206c565b506005016000612bba9161245e565b612bc583600c610687565b612bce81610821565b612bd790612ab0565b612be0916123c7565b612be981611389565b7fa0df413cba512f5ef83aa1e5466bc1450271e52322d1d177a242c176ef5adf6693612c2492612c1e92612c3f575b5061067a565b9361067a565b93612c3a612c3160405190565b92839283612593565b0390a3565b6000612c4a91612acb565b38612c18565b638718fadb60e01b6000908152600490fd5b631dc7d25360e21b6000908152600490fd5b63411112f960e11b6000908152600490fd5b631023c58560e11b6000908152600490fd5b9061034791612a1e565b9061034791612cb8612cb38261294f565b61505f565b90612cc29161506a565b50565b9061034791612ca2565b612ce96125cc6000805160206157f5833981519152612a35565b612a495761034790612d3a565b9060ff906123bd565b90612d0f61035d6123de92151590565b8254612cf6565b9061ff009060081b6123bd565b90612d3361035d6123de92151590565b8254612d16565b612d4861035d826003610687565b601181019190612d5a6125cc8461128a565b61292557612d6e9061035d90600501610821565b421115612dd557612d8e600183612d896000612da596612cff565b612d23565b612d998160056150db565b50612c188160076150fd565b7f1e15dbf45ae533c182513b50c5b94530ab41942881a0bb1dc4206313d8b41159612dcf60405190565b600090a2565b633a53ae3b60e21b6000908152600490fd5b61034790612ccf565b90612dfa336105b2565b6001600160a01b03821603612e1257612cc291615112565b63334bd91960e11b6000908152600490fd5b61035d906005615178565b612e496125cc6000805160206157f5833981519152612a35565b612a49576103476103476151ee565b610347612e2f565b91612e6f61035d846003610687565b91612e7c60048401610821565b92600093612e8c61212a8661067a565b1461233a5760120193612ea061035d865490565b821015612ee757612b3882612edb6121d6612ed5612ec3612ee197600597615035565b98612ece858c61206c565b5001610821565b8861209c565b9661206c565b91929190565b631dc7d25360e21b8452600484fd5b61035d9161174661275692612f09600090565b506011610687565b6128cc61035d61035d92612f23600090565b506009610687565b90611ffb610b9e83610b65565b612f426011612f2b565b7f524146464c455f4e4f545f455849535453000000000000000000000000000000602082015290565b61035d612f38565b612f7d6013612f2b565b7f5052495a455f5a45524f5f5155414e5449545900000000000000000000000000602082015290565b61035d612f73565b612fb86010612f2b565b7f5449434b45545f52414e47455f47415000000000000000000000000000000000602082015290565b61035d612fae565b612ff36019612f2b565b7f414c4c4f434154494f4e5f52414e47455f4d49534d4154434800000000000000602082015290565b61035d612fe9565b61302e6016612f2b565b7f544f54414c5f5449434b4554535f4d49534d4154434800000000000000000000602082015290565b61035d613024565b6130696005612f2b565b64159053125160da1b602082015290565b61035d61305f565b61309061035d826003610687565b9061309d60048301610821565b906000916130ad61212a8461067a565b14613279576130bb8261067a565b8091815b601286016130ce61035d825490565b8210156132445761216e826130e29261206c565b92858401946130f086610821565b6130fc61212a8961067a565b146132335761310b8385615035565b9161311e61311888610821565b8461209c565b9661312e6001986121e08a61067a565b926131388a61067a565b86119081613218575b50613205579061228161315392610821565b95613161600583970161084d565b61317b575b5050506131739060010190565b9291926130bf565b61318d61035d856106cd88600b610687565b61319c6125cc6002830161128a565b9384156131e8575b5083156131ca575b5050506131bb57388080613166565b5050505090509061035d61301c565b6131de92935061212a916120a39101610821565b14153880806131ac565b9093506131fc61212a6120a38b8701610821565b141592386131a4565b505050505050505090509061035d612fe1565b61322a915061035d906122818b61067a565b84141538613141565b50505050505090509061035d612fa6565b505050919261325f915061035d84600e61212a930101610821565b03613270575060019061035d61307a565b9061035d613057565b5090509061035d612f6b565b906132a06125cc6000805160206157f5833981519152612a35565b612a495761035d919061035d916132b5614ca4565b613767565b8181106132c5575050565b806132d36000600193612a6d565b016132ba565b9190601f81116132e857505050565b6132fa61034793600052602060002090565b906020601f84018190048301931061331c575b6020601f9091010401906132ba565b909150819061330d565b9061332f815190565b9067ffffffffffffffff8211610b4c576133538261334d8554611143565b856132d9565b602090601f831160011461338e576123de929160009183613383575b5050600019600883021c1916906002021790565b01519050388061336f565b601f198316916133a385600052602060002090565b9260005b8181106133e1575091600293918560019694106133c8575b50505002019055565b01516000196008601f8516021c191690553880806133bf565b919360206001819287870151815501950192016133a7565b9061034791613326565b600361345560606103479461342261341c600083015190565b866133f9565b613439613430602083015190565b600187016133f9565b613450613447604083015190565b600287016133f9565b015190565b91016133f9565b9061034791613403565b60036134b360606103479461348561347f600083015190565b866123c7565b61349c613493602083015190565b600187016123c7565b6125266134aa604083015190565b600287016123c7565b9101612cff565b9061034791613466565b9061350460606002610347946134de61248f600087015190565b6134ec6124a3602087015190565b01926125266134fe6040830151151590565b85612cff565b90612d23565b90610347916134c4565b600261345560406103479461352d61347f600083015190565b613450613430602083015190565b9061034791613514565b818102929181159184041417156120b257565b91909182821061356757505050565b610347929161357c9091600052602060002090565b91820191016132ba565b90600160401b8111610b4c578161359e610347935490565b90828155613558565b81519167ffffffffffffffff8311610b4c576135d26129946001926135cc8686613586565b60200190565b92049160005b8381106135e55750505050565b60019060206135f561035d865190565b94019381840155016135d8565b90610347916135a7565b61035d9051611d05565b9061244861035d6123de92611d0f565b600a6134556101806103479461364061347f600083015190565b61364e613493602083015190565b61365c6134aa604083015190565b61367361366a606083015190565b600387016123c7565b61368a613681608083015190565b60048701613602565b6136cf600586016136ae6136a860a08501516001600160a01b031690565b82612412565b6136c36136bd60c0850161360c565b82613616565b60e0830151151561252d565b6136e76136de61010083015190565b600687016133f9565b6136ff6136f661012083015190565b600787016133f9565b61371761370e61014083015190565b600887016133f9565b61345061372661016083015190565b600987016133f9565b9190612aab5761034791613626565b90815491600160401b831015610b4c57826137619160016103479501815561206c565b9061372f565b508051515190919060009061377e61212a8361067a565b146139e1576020830161379360208251015190565b6137a461212a61035d858551015190565b11156139d1576137bb6125cc606083510151151590565b806139b2575b6139a25760808401906137d382515190565b6137df61212a8561067a565b14613993576137ee6004610821565b916138026137fb846120e7565b60046123c7565b61380c81516151f6565b946138168561067a565b861461398457613828620f424061067a565b86116139755761387d606060029861386161384761035d896003610687565b966138578a8401518b8a0161345c565b51600488016134ba565b61387260408201516008880161350a565b0151600b850161353b565b6138d0600e84016138a587600383016138968282612cff565b6138a08282612d23565b612acb565b6138b1888883016123c7565b6138ba8761067a565b98816138ca8b60018195016123c7565b016123c7565b865b6138de61035d84515190565b8810156139305761392361392a91612281886138fb8c88516120cd565b5181151560e08201526139118160128b0161373e565b6134508461277361035d8d600d610687565b9760010190565b966138d2565b50955050509190507ff6f5afeb49bc62176d1efaa06a1753999cc29bf378f1004ea916f37f41d7638a61396f6139658461067a565b926105a560405190565b0390a290565b631fa5624360e11b8552600485fd5b63a7abaef560e01b8552600485fd5b63120fa4b560e01b8352600483fd5b5063f535618b60e01b8152600490fd5b508051604001516139cb61212a61035d60208551015190565b106137c1565b506381bf7f6760e01b8152600490fd5b6319d546f160e31b8152600490fd5b61035d906000613285565b61035d600261128a565b613a1f6125cc6000805160206157f5833981519152612a35565b612a49576103476103476152b5565b610347613a05565b61035d60a0610b51565b613a48613a36565b9060008252602080808080860160605b81520160005b8152016000612376565b61035d613a40565b613a786123e2565b906000825260208080808080808089016000815201600081520160005b8152016000613a58565b61035d613a70565b60005b828110613ab657505050565b602090613ac1613a9f565b8184015201613aaa565b90610347613adb61205984611fee565b601f190160208401613aa7565b90613af1613a68565b50613b0461275682611746856011610687565b90600093613b118561067a565b8314613d9a57600394613b2861035d866003610687565b9260048401613b38838201610821565b613b4461212a8561067a565b14613d8b57613b556003820161128a565b948515613d49575b5050612a19613b7191611746886012610687565b95613b7b85613acb565b92613b858361067a565b9687928892895b613b9761035d8d5190565b811015613d0b5786613ba9828e6120cd565b51613bb581600f610687565b9060018201613bc381610821565b91613bd060028501610821565b936005810194613bdf86610837565b90613be98761084d565b95613bf5848d01610821565b93600401613c0290610821565b94613c0b6123e2565b998a01526020890152604088015215156060870152613c298d61067a565b93613c35856080890152565b151560a087015260c086015260e08501528c80613cfc575b613c7b575b50505090613c7691613c64828b6120cd565b52613c6f818a6120cd565b5060010190565b613b8c565b61035d613c96613c90613ca6939c969c610821565b8a6152bd565b613ca260808d01918252565b5190565b11613ce7575b613cb59061084d565b15613cd25790613cc7613c76926120e7565b965b90913880613c52565b959490613ce1613c76926120e7565b95613cc9565b9b613cf4613cb5916120e7565b9c9050613cac565b50613d0683610837565b613c4d565b509950505093509094613d4290613d3b6110ca94613d3461035d98613d2e613a36565b9a8b0152565b6020890152565b6040870152565b6060850152565b613b7192955090613d626003600e612a199401016112eb565b9081613d71575b509491613b5d565b613d829150600261035d9101610821565b42101538613d69565b63c57b876d60e01b8352600483fd5b9380935061035d9250613dad915061067a565b613dd2613db982613acb565b613dcb83613dc5613a36565b96870152565b6020850152565b613ddd816040850152565b6110ca816060850152565b61035d916000613e05613e0b93613dfd600090565b506001612949565b0161172d565b61128a565b61035d91611746612a1992613e23606090565b506012610687565b61034790613e3a612cb3611a5b565b610347906000805160206157f58339815191526144b7565b61034790613e2b565b61035d610240610b51565b613e6e613e5b565b9060608252602082016060815260200160608152602001600081526020016000815260200160008152602001600081526020016000815260200160008152602001600081526020016000815260200160608152602001600081526020016000815260200160008152602001600081526020016000815260200160009052565b61035d613e66565b608052613f00613eed565b50613f1161035d6080516003610687565b6004810190613f1f82610821565b613f2c61212a600061067a565b146140d757608051613f3e9082615383565b60c0829052916002820191613f5282610821565b613f5e60018401610821565b91613f6b60028501610821565b93600301613f789061128a565b90613f8560088201610821565b608051613f93906009610687565b613f9c90614cc4565b608051613faa90600a610687565b54600b840194909290613fbc86610821565b94600e019860038a0198613fcf8a61128a565b98613fd98b6112eb565b9a613fe390611389565b9b613fed90610821565b9c613ff6613e5b565b60a05260c051614005906120c4565b60a05152614012906120c4565b60a0516020015260c051600301614028906120c4565b60a0516040015260a0516060019061403d9152565b60a0516080015260a08051015260a05190151560c09091015260a05160e0015260a051610100015260a051610120015260a0516101400152600201614081906120c4565b60a051610160015260a051610180019061409c919015159052565b60a0519015156101a09091015260a0519015156101c09091015260a0516101e0015260a051610200015260805160a051610220015260a05190565b63c57b876d60e01b6000908152600490fd5b61035d60056154a0565b6154a0565b9061410b61035d61035d93612f23600090565b6154ac565b9061412b6125cc6000805160206157f5833981519152612a35565b612a4957610347919061034791614140614ca4565b614176565b60026134b360406103479461415e61347f600083015190565b612526613493602083015190565b9061034791614145565b9061418561035d836003610687565b6011810191906141948361128a565b612c86576141a1836112eb565b612c7457601201926141b461035d855490565b821015612c62576141ca6005612b38848761206c565b614324576141d88282615035565b936141e3838261206c565b506141ed90610821565b6141f7908661209c565b92600180946142058261067a565b61420e916120b7565b928261421861133f565b6142208a8252565b61422b866020830152565b83151560408201528161423f88600b610687565b9061424991610687565b906142539161416c565b61425c9161206c565b506005019061426a9161245e565b61427583600c610687565b61427e81610821565b614287906120e7565b614290916123c7565b6142998361067a565b956142a4879261067a565b926142ae60405190565b9182916142bb9183612593565b037ffa4960ab68eb00981e3abd639b39b0c087e5ec89e29e0d89dec806066bcde23e91a36142e890614be5565b6142f157505050565b6142fa91612acb565b7fb196ad53d31c2105801015a768684d87c4e71b89672d938eaf572950e48f52d0612dcf60405190565b63e364bd1960e01b6000908152600490fd5b9061034791614110565b6140f361035d61035d92612f23606090565b6143796002600e61437261436a61219186600a610687565b946003610687565b0101610821565b9160008383111561438f5750612ee183836120b7565b612ee19061067a565b6143b26125cc6000805160206157f5833981519152612a35565b612a495761034790610347906143c6614ca4565b6003600e6143d761035d8484610687565b0101906143e38261128a565b612c86576143f0826112eb565b612c74576144006125cc83611389565b61444757614412600161441d93612cff565b612c188160056150fd565b7f77bf0057da56a88711471b4d9ea5908998b5feb85f7e0e2b869c8f8caad2e273612dcf60405190565b6345f9c3c360e01b6000908152600490fd5b61034790614398565b61035d60076154a0565b6103479061447b612cb3611a5b565b610347906000805160206157f5833981519152612cc5565b6103479061446c565b90610347916144ad612cb38261294f565b90612cc291615112565b906103479161449c565b61035d6005614cc4565b6144d361121c565b9060008252602080808085016000611fd6565b61035d6144cb565b92919061450b6125cc6000805160206157f5833981519152612a35565b612a495761035d939061035d939291614522614ca4565b614589565b6145316011612f2b565b7f5041525449414c5f434f4d504c45544544000000000000000000000000000000602082015290565b61035d614527565b61456c6009612f2b565b6810d3d354131155115160ba1b602082015290565b61035d614562565b50909161459a61035d836003610687565b90600482016145ab6003820161128a565b61483e576145be6125cc6011850161128a565b6129255761035d60026145d19201610821565b421061482c576103e86145e38161067a565b821115614825576145f4915061067a565b915b614604612a1982600a610687565b9361460d855190565b938482101561481357614620908261209c565b9484861161480a575b614633600061067a565b9061464460026008849701016112eb565b9083925b888410156147d25761465d613ca285846120cd565b61466b61035d82600f610687565b90600582019161467d6125cc84610837565b61474d575b50505061468e906120e7565b925a61469e61212a61c35061067a565b106146ac5760010192614648565b505050945090610c77917f99e614856d352de0c772c457366bbbf0767b79abc58d1c4ec34fdd8c864fbaeb866146f861035d975b6146f061212a6120a3858861209c565b10159461067a565b9261470687611b7d60405190565b0390a2801561473c5761473361471a614581565b935b61472c61472761121c565b978852565b6020870152565b15156040850152565b61473361474761455a565b9361471c565b987f053824fea93a5bfa4a0f7c297cb968fb010bb82e0647e66e624216ab6c46d5e46147a7614799614793898d61468e99989f61478d60018a9201610821565b916154c7565b936120e7565b9b546001600160a01b031690565b916147ba6147b48c61067a565b93611724565b936147c7612c3160405190565b0390a3903880614682565b975050505090610c77917f99e614856d352de0c772c457366bbbf0767b79abc58d1c4ec34fdd8c864fbaeb866146f861035d976146e0565b94508394614629565b6392c4425960e01b6000908152600490fd5b50916145f6565b6305b8aded60e41b6000908152600490fd5b63677482b960e11b6000908152600490fd5b9061035d929161485e6144e6565b6144ee565b61486b61121c565b90606082526020808080850160608152016060611fdc565b61035d614863565b61489361121c565b9060008252602080808085016000613a5e565b61035d61488b565b6148b661133f565b90600082526020808084016060611fdc565b61035d6148ae565b6148d8611393565b90600082526020808080808087016000613a95565b61035d6148d0565b6148fd611393565b90614906614883565b82526020808080808087016149196148a6565b8152016149246148a6565b81520161492f6148c8565b815201611fdc6148ed565b61035d6148f5565b9061036090611d05565b61035d6101a0610b51565b90610347614a6b600a61496861494c565b9461497561124482610821565b61498461125760018301610821565b61499361126d60028301610821565b6149a261221c60038301610821565b6149b86149b1600483016129e7565b6080880152565b6149df6149cf60058301546001600160a01b031690565b6001600160a01b031660a0880152565b6149f76149ee60058301610837565b60c08801614942565b614a0f614a066005830161084d565b151560e0880152565b614a26614a1e600683016111fb565b610100880152565b614a3d614a35600783016111fb565b610120880152565b614a54614a4c600883016111fb565b610140880152565b611274614a63600983016111fb565b610160880152565b610180840152565b61035d90614957565b90614a85825490565b614a8e81611fee565b92614aa26020850191600052602060002090565b6000915b838310614ab35750505050565b600b6020600192614ac385614a73565b815201920192019190614aa6565b90610347614b316012614ae2611393565b94614aef61124482611226565b614afe61125760048301611294565b614b0d61126d600883016112f5565b614b1c61221c600b8301611349565b614b2b6149b1600e830161139d565b01614a7c565b60a0840152565b61035d90614ad1565b90614b4a61493a565b50600391614b5f600060046143728487610687565b600090614b6e61212a8361067a565b14614b9c5750614b9781614b9181614b8c61035d61212a9689610687565b615383565b94610687565b614b38565b63c57b876d60e01b8152600490fd5b637965db0b60e01b6001600160e01b0319821614908115614bca575090565b61035d91506001600160e01b0319166301ffc9a760e01b1490565b6012610413614bfe92614bf6600090565b506003610687565b6000614c0a600061067a565b614c1561035d845490565b811015614c4057614c2e6125cc6005612b38848761206c565b614c3a57600101614c0a565b50905090565b505050600190565b61035d600261067a565b614c5c6000610821565b614c64614c48565b908114614c76576103479060006123c7565b633ee5aeb560e01b6000908152600490fd5b61035d600161067a565b610347614c9d614c88565b60006123c7565b614cac6139fb565b614cb257565b63d93c066560e01b6000908152600490fd5b614cda600061035d92614cd5600090565b500190565b615551565b91946110ca611b5792989795613d4260a096613d3b6103479a613d3460c08a019e60008b01906001600160a01b03169052565b61035d9061067a565b61067a565b634e487b7160e01b600052601260045260246000fd5b8115614d40570690565b614d20565b909190614d5661035d826003610687565b92614dd4614d7560026008614d6d600e8901610821565b9701016112eb565b91614dbc600195614d8f614d89600161067a565b436120b7565b614db0614d9b60405190565b9485936020850193409144918b429287614cdf565b90810382520382610b2a565b614dce614dc7825190565b9160200190565b20911590565b614e4a5783614de5614dea92614d12565b614d36565b82614df5600061067a565b905b614e03575b5050505090565b84811015614e4557614e1985614de5838561209c565b614e2e6125cc613e0b836106cd88600e610687565b614e3c575060010183614df7565b94505050505090565b614dfc565b61035d939250614de59150614d12565b61035d61035d61035d926001600160a01b031690565b90614e9861212a614d1b614e93600061035d96614e8b600090565b50019461171b565b614e5a565b61559d565b6105b261035d61035d9290565b61035d90614e9d565b614ec161035d83600f610687565b926005840190614ed882546001600160a01b031690565b94600095614ef8614eeb6105b289614eaa565b916001600160a01b031690565b1461502657614f08868201610821565b84900361501757614f1883610837565b6150085790839291614f2a82856152bd565b968793600393614f3a8786610687565b614f4690600a016112eb565b600e614fb67f053824fea93a5bfa4a0f7c297cb968fb010bb82e0647e66e624216ab6c46d5e499614fd7986106cd6147b4996004614faf614fd19b614fc49a60029a614fea575b50614f9960018d612438565b614fa3818d61245e565b614d1b428786016123c7565b91016123c7565b01016126c06126bb82610821565b546001600160a01b031690565b9461067a565b93614fe4612c3160405190565b0390a390565b6001614ffd615002926106cd8b8e610687565b612cff565b38614f8d565b63097e1d9b60e01b8652600486fd5b630579906d60e41b8652600486fd5b6350a2e21f60e11b8652600486fd5b61504661035d61219183600d610687565b821015612c625761035d916122b3610a8f92600d610687565b6103479033906155f5565b906150786125cc8284613de8565b156150d45760019161509483614ffd846000613e058685612949565b6150a26127b86147b4339390565b917f2f8788117e7eff1d82e926ec794901d17c78024a50270940304540a733656f0d6150cd60405190565b600090a490565b5050600090565b906150f861212a600061035d946150f0600090565b50019261067a565b61566e565b90614e9861212a600061035d946150f0600090565b61511c8282613de8565b156150d4576151366000614ffd8482613e05866001612949565b6151446127b86147b4339390565b917ff6391f5c32d9c69d2a47ea670b442974b53935d1edc7fd64eb21e047a839171b61516f60405190565b600090a4600190565b9061518d61212a600061035d946150f0600090565b615727565b61519a615752565b6103476151a960006002612cff565b7f5db9ee0a495bf2e6ff9c91a7834c1ba4fdd244a5e8aa4e537bd38aeae4b073aa6151e9335b604051918291826001600160a01b03909116815260200190565b0390a1565b610347615192565b906000916152038361067a565b90815b61521161035d835190565b83101561526e5761522c8561522685856120cd565b51015190565b61523861212a8761067a565b1461525f57615252615259916122818761522687876120cd565b9260010190565b91615206565b639755a80360e01b8552600485fd5b93505050565b61527c614ca4565b61034761528b60016002612cff565b7f62e78cea01bee320cd4e420270b5ea74000d11b0c9f74754ebdbfc544b05a2586151e9336151cf565b610347615274565b6152cb61035d826003610687565b916000916152d9600061067a565b6152e761035d601287015490565b8110156153745761530061035d826106cd85600b610687565b61530c6002820161128a565b908161535b575b81615341575b506153395761035d60126153306152e79360010190565b925050506152d9565b935050505090565b6153529150600161035d9101610821565b83111538615319565b905061536b61035d868301610821565b84101590615313565b505050505061035d600061067a565b600090600e810160086153a1600161539a84610821565b9301610821565b9201916153ad83610821565b916153c660026153bf60018701610821565b95016112eb565b1561548e57818111156154745761035d6153e66153ef936128cc936120b7565b965b6009610687565b600093506153fc8461067a565b821115615469578082111561545957615414916120b7565b905b6000198214615453576154288361067a565b81111561544c5761543891613545565b905b5080821015615447575090565b905090565b509061543a565b50505090565b50506154648261067a565b615414565b505060001990615416565b50506153ef6128cc61035d615489600061067a565b6153e6565b6153ef915061035d6128cc91966153e8565b606090615447906157df565b9061518d61212a614d1b614e93600061035d96614e8b600090565b614fb6600e9161553161035d956154ed61035d6002976154e5600090565b50600f610687565b906154f881856152bd565b98615538575b50615518600060058301615513600182612438565b61245e565b61552542600383016123c7565b6004614faf600061067a565b6003610687565b6001614ffd61554b926106cd878a610687565b386154fe565b600061035d9161555f600090565b50015490565b919061256261035d6123de9390565b90815491600160401b831015610b4c578261559791600161034795018155610a30565b90615565565b6155aa6125cc8383615727565b156150d4576155d3916155ce9060016155c7846121918482615574565b9301612949565b6123c7565b600190565b6001600160a01b0390911681526040810192916103479160200152565b906156036125cc8284613de8565b61560b575050565b63e2517d3f60e01b6000908152916128fc9160046155d8565b634e487b7160e01b600052603160045260246000fd5b61034791600091615565565b805480156156695760001901906156666156608383610a30565b9061563a565b55565b615624565b9061567f6127568260018501612949565b615689600061067a565b811461571f576156e761035d926000926156dc956156e160019788936156b76156b18661067a565b826120b7565b888501916156cf6156c6845490565b6121e08961067a565b8083036156ec5750505090565b615646565b01612949565b612a6d565b61559761570f61571794615706610a8f6155ce9589610a30565b92839188610a30565b888801612949565b388080615453565b505050600090565b61574091600161275692615739600090565b5001612949565b61574d61212a600061067a565b141590565b61575d6125cc6139fb565b61576357565b638dfc202b60e01b6000908152600490fd5b9061578461299461074c845490565b9060005b8181106157955750505090565b9091926157aa6129ce6001926129c687610821565b929101615788565b9061035d91615775565b90610347611215926157cd60405190565b938480926157b2565b61035d906157bc565b600061035d916157ed606090565b50016157d656fea49807205ce4d355092ef5a8a18f56e8913cf4a201fbe287825b095693c21775a264697066735822122027848712654689c206d7ccf43ad6aba3652556ce4cb33afb9e5ea3d5c9f10e7d64736f6c634300081c0033",
  "linkReferences": {},
  "deployedLinkReferences": {}
}