{
  "_format": "hh-sol-artifact-1",
  "contractName": "StakingManager",
  "sourceName": "contracts/Staking-deprecated.sol",
  "abi": [
    {
      "inputs": [],
      "name": "EnforcedPause",
      "type": "error"
    },
    {
      "inputs": [],
      "name": "ExpectedPause",
      "type": "error"
    },
    {
      "inputs": [],
      "name": "InvalidInitialization",
      "type": "error"
    },
    {
      "inputs": [],
      "name": "NotInitializing",
      "type": "error"
    },
    {
      "inputs": [
        {
          "internalType": "address",
          "name": "owner",
          "type": "address"
        }
      ],
      "name": "OwnableInvalidOwner",
      "type": "error"
    },
    {
      "inputs": [
        {
          "internalType": "address",
          "name": "account",
          "type": "address"
        }
      ],
      "name": "OwnableUnauthorizedAccount",
      "type": "error"
    },
    {
      "inputs": [],
      "name": "ReentrancyGuardReentrantCall",
      "type": "error"
    },
    {
      "anonymous": false,
      "inputs": [
        {
          "indexed": false,
          "internalType": "uint64",
          "name": "version",
          "type": "uint64"
        }
      ],
      "name": "Initialized",
      "type": "event"
    },
    {
      "anonymous": false,
      "inputs": [
        {
          "indexed": true,
          "internalType": "address",
          "name": "previousOwner",
          "type": "address"
        },
        {
          "indexed": true,
          "internalType": "address",
          "name": "newOwner",
          "type": "address"
        }
      ],
      "name": "OwnershipTransferred",
      "type": "event"
    },
    {
      "anonymous": false,
      "inputs": [
        {
          "indexed": false,
          "internalType": "address",
          "name": "account",
          "type": "address"
        }
      ],
      "name": "Paused",
      "type": "event"
    },
    {
      "anonymous": false,
      "inputs": [
        {
          "indexed": true,
          "internalType": "address",
          "name": "collection",
          "type": "address"
        },
        {
          "indexed": true,
          "internalType": "uint256",
          "name": "tokenId",
          "type": "uint256"
        },
        {
          "indexed": true,
          "internalType": "address",
          "name": "owner",
          "type": "address"
        },
        {
          "indexed": false,
          "internalType": "address",
          "name": "asset",
          "type": "address"
        },
        {
          "indexed": false,
          "internalType": "uint256",
          "name": "amount",
          "type": "uint256"
        },
        {
          "indexed": false,
          "internalType": "uint256",
          "name": "timestamp",
          "type": "uint256"
        }
      ],
      "name": "RewardClaimed",
      "type": "event"
    },
    {
      "anonymous": false,
      "inputs": [
        {
          "indexed": true,
          "internalType": "address",
          "name": "collection",
          "type": "address"
        },
        {
          "indexed": true,
          "internalType": "uint256",
          "name": "tokenId",
          "type": "uint256"
        },
        {
          "indexed": true,
          "internalType": "address",
          "name": "owner",
          "type": "address"
        },
        {
          "indexed": false,
          "internalType": "address",
          "name": "asset",
          "type": "address"
        },
        {
          "indexed": false,
          "internalType": "uint256",
          "name": "amount",
          "type": "uint256"
        },
        {
          "indexed": false,
          "internalType": "uint256",
          "name": "timestamp",
          "type": "uint256"
        }
      ],
      "name": "RewardDistributed",
      "type": "event"
    },
    {
      "anonymous": false,
      "inputs": [
        {
          "indexed": true,
          "internalType": "address",
          "name": "collection",
          "type": "address"
        },
        {
          "indexed": true,
          "internalType": "uint256",
          "name": "tokenId",
          "type": "uint256"
        },
        {
          "indexed": true,
          "internalType": "address",
          "name": "owner",
          "type": "address"
        },
        {
          "indexed": false,
          "internalType": "uint256",
          "name": "stakedAt",
          "type": "uint256"
        },
        {
          "indexed": false,
          "internalType": "uint256",
          "name": "unstakeScheduledAt",
          "type": "uint256"
        }
      ],
      "name": "TokenStaked",
      "type": "event"
    },
    {
      "anonymous": false,
      "inputs": [
        {
          "indexed": true,
          "internalType": "address",
          "name": "collection",
          "type": "address"
        },
        {
          "indexed": true,
          "internalType": "uint256",
          "name": "tokenId",
          "type": "uint256"
        },
        {
          "indexed": true,
          "internalType": "address",
          "name": "owner",
          "type": "address"
        },
        {
          "indexed": false,
          "internalType": "uint256",
          "name": "unstakedAt",
          "type": "uint256"
        }
      ],
      "name": "TokenUnstaked",
      "type": "event"
    },
    {
      "anonymous": false,
      "inputs": [
        {
          "indexed": false,
          "internalType": "address",
          "name": "account",
          "type": "address"
        }
      ],
      "name": "Unpaused",
      "type": "event"
    },
    {
      "inputs": [],
      "name": "assets",
      "outputs": [
        {
          "internalType": "contract Assets",
          "name": "",
          "type": "address"
        }
      ],
      "stateMutability": "view",
      "type": "function"
    },
    {
      "inputs": [
        {
          "internalType": "address",
          "name": "collection",
          "type": "address"
        },
        {
          "internalType": "uint256",
          "name": "tokenId",
          "type": "uint256"
        },
        {
          "internalType": "address",
          "name": "asset",
          "type": "address"
        },
        {
          "internalType": "uint256",
          "name": "amount",
          "type": "uint256"
        }
      ],
      "name": "distributeReward",
      "outputs": [],
      "stateMutability": "nonpayable",
      "type": "function"
    },
    {
      "inputs": [
        {
          "internalType": "address",
          "name": "initialOwner",
          "type": "address"
        }
      ],
      "name": "initialize",
      "outputs": [],
      "stateMutability": "nonpayable",
      "type": "function"
    },
    {
      "inputs": [],
      "name": "owner",
      "outputs": [
        {
          "internalType": "address",
          "name": "",
          "type": "address"
        }
      ],
      "stateMutability": "view",
      "type": "function"
    },
    {
      "inputs": [],
      "name": "paused",
      "outputs": [
        {
          "internalType": "bool",
          "name": "",
          "type": "bool"
        }
      ],
      "stateMutability": "view",
      "type": "function"
    },
    {
      "inputs": [],
      "name": "renounceOwnership",
      "outputs": [],
      "stateMutability": "nonpayable",
      "type": "function"
    },
    {
      "inputs": [
        {
          "internalType": "address",
          "name": "collection",
          "type": "address"
        },
        {
          "internalType": "uint256[]",
          "name": "tokenIds",
          "type": "uint256[]"
        },
        {
          "internalType": "uint256",
          "name": "unstakeScheduledAt",
          "type": "uint256"
        }
      ],
      "name": "stakeToken",
      "outputs": [],
      "stateMutability": "nonpayable",
      "type": "function"
    },
    {
      "inputs": [
        {
          "internalType": "address",
          "name": "",
          "type": "address"
        },
        {
          "internalType": "uint256",
          "name": "",
          "type": "uint256"
        }
      ],
      "name": "stakes",
      "outputs": [
        {
          "internalType": "address",
          "name": "collectionAddress",
          "type": "address"
        },
        {
          "internalType": "uint256",
          "name": "tokenId",
          "type": "uint256"
        },
        {
          "internalType": "uint256",
          "name": "stakedAt",
          "type": "uint256"
        },
        {
          "internalType": "uint256",
          "name": "unstakeScheduledAt",
          "type": "uint256"
        },
        {
          "internalType": "bool",
          "name": "isStaked",
          "type": "bool"
        },
        {
          "internalType": "address",
          "name": "owner",
          "type": "address"
        }
      ],
      "stateMutability": "view",
      "type": "function"
    },
    {
      "inputs": [
        {
          "internalType": "address",
          "name": "newOwner",
          "type": "address"
        }
      ],
      "name": "transferOwnership",
      "outputs": [],
      "stateMutability": "nonpayable",
      "type": "function"
    },
    {
      "inputs": [
        {
          "internalType": "address",
          "name": "collection",
          "type": "address"
        },
        {
          "internalType": "uint256[]",
          "name": "tokenIds",
          "type": "uint256[]"
        },
        {
          "internalType": "bool",
          "name": "forceUnstake",
          "type": "bool"
        }
      ],
      "name": "unstakeToken",
      "outputs": [],
      "stateMutability": "nonpayable",
      "type": "function"
    },
    {
      "inputs": [
        {
          "internalType": "address",
          "name": "",
          "type": "address"
        },
        {
          "internalType": "address",
          "name": "",
          "type": "address"
        },
        {
          "internalType": "uint256",
          "name": "",
          "type": "uint256"
        }
      ],
      "name": "userStakedTokens",
      "outputs": [
        {
          "internalType": "bool",
          "name": "",
          "type": "bool"
        }
      ],
      "stateMutability": "view",
      "type": "function"
    }
  ],
  "bytecode": "0x608060405234601957604051611dc461001f8239611dc490f35b600080fdfe60a0604052600436101561001257600080fd5b60003560e01c80630ed9d33a146100c257806318a4a248146100bd5780632a74ec01146100b8578063584b62a1146100b35780635c975abb146100ae5780637043a9f5146100a9578063715018a6146100a457806371a973051461009f5780638da5cb5b1461009a578063c4d66de8146100955763f2fde38b036100c7576105c2565b6105aa565b610561565b61053a565b6104e6565b6104ca565b610455565b610415565b6102d8565b610282565b6101db565b600080fd5b6001600160a01b031690565b90565b6001600160a01b0381165b036100c757565b905035906100fa826100db565b565b806100e6565b905035906100fa826100fc565b90916060828403126100c7576100d861012884846100ed565b93604061013882602087016100ed565b9401610102565b6100cc6100d86100d8926001600160a01b031690565b6100d89061013f565b6100d890610155565b906101719061015e565b600052602052604060002090565b6100d86100d86100d89290565b906101719061017f565b6100d8916008021c5b60ff1690565b906100d89154610196565b6100d8926101cd6000936101c86101d2946002610167565b610167565b61018c565b6101a5565b9052565b346100c7576102096101f76101f136600461010f565b916101b0565b60405191829182901515815260200190565b0390f35b909182601f830112156100c75781359167ffffffffffffffff83116100c75760200192602083028401116100c757565b906060828203126100c75761025281836100ed565b92602083013567ffffffffffffffff81116100c757826102796040946100d893870161020d565b94909501610102565b346100c75761029e61029536600461023d565b92919091611281565b604051005b6080818303126100c7576102b782826100ed565b926100d86102c88460208501610102565b93606061013882604087016100ed565b346100c75761029e6102eb3660046102a3565b92919091611449565b91906040838203126100c7576100d890602061013882866100ed565b6100d8906100cc565b6100d89054610310565b6100d89081565b6100d89054610323565b6100d89061019f565b6100d89054610334565b6100d89060081c6100cc565b6100d89054610347565b906101cd61036c926001610167565b9061037682610319565b916103836001820161032a565b916103906002830161032a565b9161039d6003820161032a565b916100d860046103ae81850161033d565b9301610353565b91946103fd610406929897956103f660a0966103ef6100fa9a6103e860c08a019e60008b01906001600160a01b03169052565b6020890152565b6040870152565b6060850152565b15156080830152565b01906001600160a01b03169052565b346100c75761020961043161042b3660046102f4565b9061035d565b9261044196949692919260405190565b968796876103b5565b60009103126100c757565b346100c75761046536600461044a565b6102096101f7611455565b8015156100e6565b905035906100fa82610470565b906060828203126100c75761049a81836100ed565b92602083013567ffffffffffffffff81116100c757826104c16040946100d893870161020d565b94909501610478565b346100c75761029e6104dd366004610485565b929190916118a8565b346100c7576104f636600461044a565b61029e6118ec565b6100d8916008021c6100cc565b906100d891546104fe565b6100d860008061050b565b6101d79061015e565b6020810192916100fa9190610521565b346100c75761054a36600461044a565b610209610555610516565b6040519182918261052a565b346100c75761057136600461044a565b61020961057c6118f4565b604051918291826001600160a01b03909116815260200190565b906020828203126100c7576100d8916100ed565b346100c75761029e6105bd366004610596565b611b1e565b346100c75761029e6105d5366004610596565b611b7f565b906100fa9392916105e9611b88565b906105fd9392916105f8611bb2565b610e76565b6100fa611c10565b0190565b1561061057565b60405162461bcd60e51b81526020600482015260096024820152684e4f5f544f4b454e5360b81b6044820152606490fd5b1561064857565b60405162461bcd60e51b815260206004820152601460248201527f494e56414c49445f554e5354414b455f54494d450000000000000000000000006044820152606490fd5b634e487b7160e01b600052604160045260246000fd5b90601f01601f1916810190811067ffffffffffffffff8211176106c557604052565b61068d565b9037565b8183529091602001917f07ffffffffffffffffffffffffffffffffffffffffffffffffffffffffffffff81116100c7578291602061060592029384916106ca565b93929061072e6020916100fa94604088019188830360008a01526106ce565b940152565b6040513d6000823e3d90fd5b634e487b7160e01b600052603260045260246000fd5b9190811015610765576020020190565b61073f565b356100d8816100fc565b905051906100fa826100db565b906020828203126100c7576100d891610774565b905051906100fa82610470565b906020828203126100c7576100d891610795565b6001600160a01b0390911681526040810192916100fa91602090610406565b156107dc57565b60405162461bcd60e51b815260206004820152600e60248201527f4e4f545f415554484f52495a45440000000000000000000000000000000000006044820152606490fd5b1561082857565b60405162461bcd60e51b815260206004820152600e60248201527f414c52454144595f5354414b45440000000000000000000000000000000000006044820152606490fd5b906100fa61087a60405190565b92836106a3565b67ffffffffffffffff81116106c55760208091020190565b906108ab6108a683610881565b61086d565b918252565b6100d8608061086d565b6108c26108b0565b906000825260208080808501600081520160005b8152016000905250565b6100d86108ba565b60005b8281106108f757505050565b6020906109026108e0565b81840152016108eb565b906100fa61092261091c84610899565b93610881565b601f1901602084016108e8565b6100d8606061086d565b61094161092f565b906000825260208080840160006108d6565b6100d8610939565b60005b82811061096a57505050565b602090610975610953565b818401520161095e565b906100fa61098f61091c84610899565b601f19016020840161095b565b6100d861010061086d565b634e487b7160e01b600052600060045260246000fd5b906001600160a01b03905b9181191691161790565b906109e26100d86109e99261015e565b82546109bd565b9055565b90600019906109c8565b90610a076100d86109e99261017f565b82546109ed565b9060ff906109c8565b90610a276100d86109e992151590565b8254610a0e565b9074ffffffffffffffffffffffffffffffffffffffff009060081b6109c8565b90610a5e6100d86109e99261015e565b8254610a2e565b634e487b7160e01b600052601160045260246000fd5b81810292918115918404141715610a8e57565b610a65565b6100d8906004610a7b565b9160001960089290920291821b911b6109c8565b9190610ac36100d86109e99361017f565b908354610a9e565b6100fa91600091610ab2565b600080825590600390610aed8360018301610acb565b610afa8360028301610acb565b0155565b90600003610b0f576100fa90610ad7565b6109a7565b818110610b1f575050565b80610b2d6000600493610afe565b01610b14565b919091828210610b4257505050565b610b66610b5a610b546100fa95610a93565b93610a93565b91600052602060002090565b9182019101610b14565b906801000000000000000081116106c55781610b8d6100fa935490565b90828155610b33565b6003610bf360606100fa94610bbe610bb860008301516001600160a01b031690565b866109d2565b610bd5610bcc602083015190565b600187016109f7565b610bec610be3604083015190565b600287016109f7565b0151151590565b9101610a17565b906100fa91610b96565b610c23610b5a610c12845190565b93610c1d8585610b70565b60200190565b6000915b838310610c345750505050565b6004602082610c4c610c466001955190565b86610bfa565b01920192019190610c27565b906100fa91610c04565b6100d8906003610a7b565b60008082556100fa91600290610c868360018301610acb565b01610acb565b90600003610b0f576100fa90610c6d565b818110610ca8575050565b80610cb66000600393610c8c565b01610c9d565b919091828210610ccb57505050565b610ce3610b5a610cdd6100fa95610c62565b93610c62565b9182019101610c9d565b906801000000000000000081116106c55781610d0a6100fa935490565b90828155610cbc565b6002610d4860406100fa94610d35610bb860008301516001600160a01b031690565b610d43610bcc602083015190565b015190565b91016109f7565b906100fa91610d13565b610d72610b5a610d67845190565b93610c1d8585610ced565b6000915b838310610d835750505050565b6003602082610d9b610d956001955190565b86610d4f565b01920192019190610d76565b906100fa91610d59565b6006610e4e60e06100fa94610dd3610bb860008301516001600160a01b031690565b610de1610bcc602083015190565b610def610be3604083015190565b610e06610dfd606083015190565b600387016109f7565b610e3760048601610e23610e1d6080850151151590565b82610a17565b60a08301516001600160a01b031690610a4e565b610d43610e4560c083015190565b60058701610c58565b9101610da7565b906100fa91610db1565b9081526040810192916100fa9160200152565b0152565b919391600085610e90610e888361017f565b885b11610609565b610e9b428711610641565b610eac610ea78461015e565b61015e565b93843b156100c75760405195634d761d2560e01b8752838780610ed48b87876004850161070f565b0381838a5af196871561115b57610f2897611255575b506020610f08610f03610efc8761017f565b8686610755565b61076a565b6040519889918291906331a9108f60e11b5b835260048301526024820190565b0381895afa96871561115b578497611234575b50610f458461017f565b8981101561122857610f5b610f03828686610755565b6001600160a01b038916331480156111b7575b8015611160575b80156110fc575b80156110d6575b610f8c906107d5565b600181610f998983610167565b90610fa39161018c565b600401610faf9061033d565b15610fb990610821565b610fc28761017f565b610fcb8161090c565b90610fd59061097f565b610fdd61099c565b6001600160a01b038b168a82015291610ff7856020850152565b611002426040850152565b61100d8e6060850152565b83151560808401526001600160a01b038d1660a084015260c083015260e0820152826110398a84610167565b906110439161018c565b9061104d91610e55565b818861105a8c6002610167565b9061106491610167565b9061106e9161018c565b9061107891610a17565b6110818761015e565b9061108b9061017f565b6110948a61015e565b9161109e60405190565b806110aa8e4283610e5f565b037fc1abeafddddbaf4967386eb7c626c3a6ba1769ece1752ddd8969263fda19c80d91a4600101610f45565b50610f8c6110e26118f4565b6110f4335b916001600160a01b031690565b149050610f83565b5060405163afc0381d60e01b81523360048201526020816024818c5afa90811561115b57879161112d575b50610f7c565b61114e915060203d8111611154575b61114681836106a3565b8101906107a2565b38611127565b503d61113c565b610733565b5060405163e985e9c560e01b815260208180611180338e600484016107b6565b03818c5afa90811561115b578791611199575b50610f75565b6111b1915060203d81116111545761114681836106a3565b38611193565b5060405163020604bf60e21b8152600481018290526020816024818c5afa801561115b576111f39188916111fa575b506001600160a01b031690565b3314610f6e565b61121b915060203d8111611221575b61121381836106a3565b810190610781565b386111e6565b503d611209565b50975050505050505050565b61124e91975060203d6020116112215761121381836106a3565b9538610f3b565b61127490853d871161127a575b61126c81836106a3565b81019061044a565b38610eea565b503d611262565b906100fa9392916105da565b906100fa93929161129c611c3e565b906100fa9392916112ab611b88565b906105fd9392916112ba611bb2565b61137f565b156112c657565b60405162461bcd60e51b815260206004820152600a6024820152691393d517d4d51052d15160b21b6044820152606490fd5b805482101561076557611312600491600052602060002090565b91020190600090565b9190610b0f576100fa91610b96565b90815491680100000000000000008310156106c557826113529160016100fa950181556112f8565b9061131b565b6001600160a01b0390911681526060810193926100fa929091604091610e72906020830152565b917f6687bdf4af88532ff981b1e42838397132771c3870233c7d43bf7cbadf813eac9061142c61142661142061141a6113c06100d8886101cd8b6001610167565b6114156113de600560048401936106056113d98661033d565b6112bf565b6113e66108b0565b6001600160a01b0389168152906113fe8d6020840152565b611409426040840152565b6000606083015261132a565b610353565b9661015e565b9461017f565b9461015e565b9461144461143960405190565b928392429184611358565b0390a4565b906100fa93929161128d565b6100d87fcd5ed15c6e187e77e9aee88184c21f4f2182ab5827cb3b7e07fbedcd63f0330061033d565b906100fa93929161148d611b88565b906105fd93929161149c611bb2565b6115a5565b369037565b906100fa6114b661091c84610899565b601f1901602084016114a1565b156114ca57565b60405162461bcd60e51b815260206004820152601560248201527f554e5354414b455f4e4f545f5343484544554c454400000000000000000000006044820152606490fd5b90611518825190565b811015610765576020809102010190565b90611549611542611538845190565b8084529260200190565b9260200190565b9060005b81811061155a5750505090565b9091926115776115706001928651815260200190565b9460200190565b92910161154d565b9291602061159c6100fa9360408701908782036000890152611529565b94019015159052565b6116049193926115b28190565b946115c66115c0600061017f565b87610e8a565b6115d2610ea78461015e565b60805260206115ee610f036115e7600061017f565b8585610755565b6040519586918291906331a9108f60e11b610f1a565b03816080515afa93841561115b57600094611887575b50611624866114a6565b9661162f600061017f565b875b81101561182857611646610f03828686610755565b906116596100d8836101cd896001610167565b916116696113d96004850161033d565b86888c8b61167c6100cc60048901610353565b3314801561177d575b946101cd81956101c86116e7966116db600060046116319e6116d561173a9f9e8f6116d290869e6116c96116e29f8f958015611760575b6116c5906107d5565b1590565b6117415761150f565b52565b01610a17565b6002610167565b610a17565b6116f96116f38961015e565b9161017f565b6117028a61015e565b917fb97b943e423d8306719662c954384fc5c30b1251db3ce17f9de60d60e4a2e2bc61172d60405190565b428152602090a460010190565b905061162f565b61175b6117536100d86003890161032a565b4210156114c3565b61150f565b506116c561176c6118f4565b611775336110e7565b1490506116bc565b50505050509061178c60405190565b63afc0381d60e01b815233600482015291602083806024810103816080515afa801561115b5760006116e2838f8c8f8f6116db8760046116319e6116d561173a9f8f6116d2906116e79f9b6116c96101c89b8f959e6101cd9f8b9161180a575b509f509f50509e50505050509e505050509650509596975050611685565b611822915060203d81116111545761114681836106a3565b386117ec565b5096949550505050506080513b156100c7576118629160009161184a60405190565b938492839263bdf9ad3b60e01b84526004840161157f565b0381836080515af1801561115b576118775750565b6100fa90600061126c81836106a3565b6118a191945060203d6020116112215761121381836106a3565b923861161a565b906100fa93929161147e565b6118bc611c3e565b6100fa6118da565b6100cc6100d86100d89290565b6100d8906118c4565b6100fa6118e760006118d1565b611c7b565b6100fa6118b4565b6100d87f9016d09d72d40fdae2fd8ceac6b6234c7706214fd39c1cd1e609a0528c199300610319565b6100d89060401c61019f565b6100d8905461191d565b6100d8905b67ffffffffffffffff1690565b6100d89054611933565b6119386100d86100d89290565b9067ffffffffffffffff906109c8565b6119386100d86100d89267ffffffffffffffff1690565b906119936100d86109e99261196c565b825461195c565b9068ff00000000000000009060401b6109c8565b906119be6100d86109e992151590565b825461199a565b6101d79061194f565b6020810192916100fa91906119c5565b6119e6611cec565b90816119fd6119f76116c583611929565b91611945565b90600092611a0a8461194f565b67ffffffffffffffff84161480611b0a575b600193611a39611a2b8661194f565b9167ffffffffffffffff1690565b149081611ae2575b155b9081611ad9575b50611aca57611a739082611a6a86611a618761194f565b98019788611983565b611abb57611b11565b611a7c57505050565b611aaa611ab6927fc7f505b2f371ae2175ee4913f4499e1f2633a7b5936321eed1cdaeb6115181d2946119ae565b604051918291826119ce565b0390a1565b611ac584876119ae565b611b11565b63f92ee8a960e01b8452600484fd5b15905038611a4a565b9050611a43611af03061015e565b3b611b01611afd8861017f565b9190565b14919050611a41565b5081611a1c565b6100fa906118e781611d09565b6100fa906119de565b6100fa90611b33611c3e565b6000611b3e816118d1565b6001600160a01b0381166001600160a01b03841614611b625750506100fa90611c7b565b631e4fbdf760e01b82526001600160a01b03166004820152602490fd5b6100fa90611b27565b611b90611455565b611b9657565b63d93c066560e01b6000908152600490fd5b6100d8600261017f565b7f9b779b17422d0df92223018b32b4d1fa46e071723d6817e2486d003becc55f00611bdc8161032a565b611be4611ba8565b908114611bf4576100fa916109f7565b633ee5aeb560e01b6000908152600490fd5b6100d8600161017f565b6100fa7f9b779b17422d0df92223018b32b4d1fa46e071723d6817e2486d003becc55f006000610d48611c06565b611c466118f4565b3390611c51826110e7565b03611c595750565b63118cdaa760e01b60009081526001600160a01b039091166004526024036000fd5b611cbb611cb57f9016d09d72d40fdae2fd8ceac6b6234c7706214fd39c1cd1e609a0528c199300610ea784611caf83610319565b926109d2565b9161015e565b907f8be0079c531659141344cd1fd0a4f28419497f9722a3daafe3b4186f6b6457e0611ce660405190565b600090a3565b6100d8611d3b565b6100fa90611d00611d43565b6100fa90611d72565b6100fa90611cf4565b6100d87ff0c57e16840df040f15088dc2f81fe391c3923bec73e23a9662efc9c229c6a0061017f565b6100d8611d12565b611d4e6116c5611d7b565b611d5457565b631afcd79f60e31b6000908152600490fd5b6100fa90611b33611d43565b6100fa90611d66565b6100d86000611d88611cec565b0161192956fea264697066735822122040add5a0c8a223442f97f34090efce3f0cbc94946a1b5021358fe4ad767faa2464736f6c634300081c0033",
  "linkReferences": {},
  "deployedLinkReferences": {}
}