{
  "_format": "hh-sol-artifact-1",
  "contractName": "SPGNFTFactory",
  "sourceName": "contracts/SPGNFTFactory.sol",
  "abi": [
    {
      "anonymous": false,
      "inputs": [
        {
          "indexed": true,
          "internalType": "address",
          "name": "collection",
          "type": "address"
        },
        {
          "indexed": true,
          "internalType": "address",
          "name": "owner",
          "type": "address"
        },
        {
          "indexed": true,
          "internalType": "address",
          "name": "deployer",
          "type": "address"
        },
        {
          "indexed": false,
          "internalType": "string",
          "name": "name",
          "type": "string"
        },
        {
          "indexed": false,
          "internalType": "string",
          "name": "symbol",
          "type": "string"
        }
      ],
      "name": "CollectionDeployed",
      "type": "event"
    },
    {
      "inputs": [
        {
          "internalType": "uint256",
          "name": "",
          "type": "uint256"
        }
      ],
      "name": "allCollections",
      "outputs": [
        {
          "internalType": "address",
          "name": "",
          "type": "address"
        }
      ],
      "stateMutability": "view",
      "type": "function"
    },
    {
      "inputs": [
        {
          "components": [
            {
              "internalType": "string",
              "name": "name",
              "type": "string"
            },
            {
              "internalType": "string",
              "name": "symbol",
              "type": "string"
            },
            {
              "internalType": "string",
              "name": "baseURI",
              "type": "string"
            },
            {
              "internalType": "string",
              "name": "contractURI",
              "type": "string"
            },
            {
              "internalType": "uint256",
              "name": "maxSupply",
              "type": "uint256"
            },
            {
              "internalType": "uint256",
              "name": "mintFee",
              "type": "uint256"
            },
            {
              "internalType": "address",
              "name": "mintFeeToken",
              "type": "address"
            },
            {
              "internalType": "address",
              "name": "mintFeeRecipient",
              "type": "address"
            },
            {
              "internalType": "address",
              "name": "owner",
              "type": "address"
            },
            {
              "internalType": "bool",
              "name": "mintOpen",
              "type": "bool"
            },
            {
              "internalType": "bool",
              "name": "isPublicMinting",
              "type": "bool"
            }
          ],
          "internalType": "struct ISPGNFT.InitParams",
          "name": "params",
          "type": "tuple"
        },
        {
          "internalType": "address",
          "name": "tbaRegistry",
          "type": "address"
        },
        {
          "internalType": "address",
          "name": "tbaImplementation",
          "type": "address"
        }
      ],
      "name": "deployCollection",
      "outputs": [
        {
          "internalType": "address",
          "name": "collection",
          "type": "address"
        }
      ],
      "stateMutability": "nonpayable",
      "type": "function"
    },
    {
      "inputs": [
        {
          "internalType": "string",
          "name": "name",
          "type": "string"
        },
        {
          "internalType": "string",
          "name": "symbol",
          "type": "string"
        },
        {
          "internalType": "string",
          "name": "baseURI",
          "type": "string"
        },
        {
          "internalType": "string",
          "name": "contractURI",
          "type": "string"
        },
        {
          "internalType": "address",
          "name": "owner",
          "type": "address"
        },
        {
          "internalType": "address",
          "name": "tbaRegistry",
          "type": "address"
        },
        {
          "internalType": "address",
          "name": "tbaImplementation",
          "type": "address"
        }
      ],
      "name": "deployStoryCollection",
      "outputs": [
        {
          "internalType": "address",
          "name": "collection",
          "type": "address"
        }
      ],
      "stateMutability": "nonpayable",
      "type": "function"
    },
    {
      "inputs": [
        {
          "internalType": "address",
          "name": "",
          "type": "address"
        },
        {
          "internalType": "uint256",
          "name": "",
          "type": "uint256"
        }
      ],
      "name": "deployedCollections",
      "outputs": [
        {
          "internalType": "address",
          "name": "",
          "type": "address"
        }
      ],
      "stateMutability": "view",
      "type": "function"
    },
    {
      "inputs": [],
      "name": "getAllCollectionsCount",
      "outputs": [
        {
          "internalType": "uint256",
          "name": "",
          "type": "uint256"
        }
      ],
      "stateMutability": "view",
      "type": "function"
    },
    {
      "inputs": [
        {
          "internalType": "uint256",
          "name": "index",
          "type": "uint256"
        }
      ],
      "name": "getCollectionAt",
      "outputs": [
        {
          "internalType": "address",
          "name": "",
          "type": "address"
        }
      ],
      "stateMutability": "view",
      "type": "function"
    },
    {
      "inputs": [
        {
          "internalType": "address",
          "name": "owner",
          "type": "address"
        }
      ],
      "name": "getDeployedCollections",
      "outputs": [
        {
          "internalType": "address[]",
          "name": "",
          "type": "address[]"
        }
      ],
      "stateMutability": "view",
      "type": "function"
    }
  ],
  "bytecode": "0x608060405234601957604051615fdb61001f8239615fdb90f35b600080fdfe6080604052600436101561001257600080fd5b60003560e01c8063167ef495146100825780632470ea1b1461007d5780633b68867214610078578063637c445814610073578063a4f0a9b91461006e578063ad8e8253146100695763ebf595f8036100875761064b565b6105ac565b610580565b610559565b6103b6565b61030f565b610154565b600080fd5b805b0361008757565b905035906100a28261008c565b565b90602082820312610087576100b891610095565b90565b634e487b7160e01b600052603260045260246000fd5b80548210156100f4576100eb600191600052602060002090565b91020190600090565b6100bb565b6100b8916008021c5b6001600160a01b031690565b906100b891546100f9565b600154811015610087576101316100b89160016100d1565b9061010e565b61014090610102565b9052565b6020810192916100a29190610137565b346100875761017b61016f61016a3660046100a4565b610119565b60405191829182610144565b0390f35b634e487b7160e01b600052604160045260246000fd5b90601f01601f1916810190811067ffffffffffffffff8211176101b757604052565b61017f565b906100a26101c960405190565b9283610195565b67ffffffffffffffff81116101b757602090601f01601f19160190565b0190565b90826000939282370152565b9092919261021261020d826101d0565b6101bc565b9381855281830111610087576100a29160208501906101f1565b9080601f83011215610087578160206100b8933591016101fd565b61008e81610102565b905035906100a282610247565b60e08183031261008757803567ffffffffffffffff8111610087578261028491830161022c565b92602082013567ffffffffffffffff811161008757836102a591840161022c565b92604083013567ffffffffffffffff811161008757816102c691850161022c565b92606081013567ffffffffffffffff811161008757826102e791830161022c565b926100b86102f88460808501610250565b9360c06103088260a08701610250565b9401610250565b346100875761017b61016f61032536600461025d565b9594909493919361069f565b90602082820312610087576100b891610250565b906101ed81602093610137565b9061037261036b610361845190565b8084529260200190565b9260200190565b9060005b8181106103835750505090565b90919261039d6103966001928651610345565b9460200190565b929101610376565b60208082526100b892910190610352565b346100875761017b6103d16103cc366004610331565b6107f3565b604051918291826103a5565b80151561008e565b905035906100a2826103dd565b919091610160818403126100875761040b6101606101bc565b92813567ffffffffffffffff8111610087578161042991840161022c565b8452602082013567ffffffffffffffff8111610087578161044b91840161022c565b6020850152604082013567ffffffffffffffff8111610087578161047091840161022c565b604085015260608201359067ffffffffffffffff8211610087576104998161051793850161022c565b60608601526104ab8160808501610095565b60808601526104bd8160a08501610095565b60a08601526104cf8160c08501610250565b60c08601526104e18160e08501610250565b60e08601526101006104f582828601610250565b90860152610120610508828286016103e5565b908601526101408093016103e5565b90830152565b909160608284031261008757813567ffffffffffffffff811161008757610549846100b89285016103f2565b9360406103088260208701610250565b346100875761017b61016f61056f36600461051d565b91610a23565b600091031261008757565b3461008757610590366004610575565b61017b61059c60015490565b6040519182918290815260200190565b346100875761017b61016f6105c23660046100a4565b610bf1565b9190604083820312610087576100b89060206105e38286610250565b9401610095565b6101026100b86100b8926001600160a01b031690565b6100b8906105ea565b6100b890610600565b9061061c90610609565b600052602052604060002090565b610635906000610612565b8054821015610087576100b891610131916100d1565b346100875761017b61016f6106613660046105c7565b9061062a565b6101026100b86100b89290565b6100b890610667565b6100b86101606101bc565b6100b86100b86100b89290565b9061014090610102565b6100b8969594610729610740926106f86106ea976106f1610752986106c2600090565b5060009a8b996106e36106d48c610674565b976106dd61067d565b9e8f0152565b60208d0152565b60408b0152565b6060890152565b61070d610706612710610688565b6080890152565b61072061071986610688565b60a0890152565b60c08701610695565b6107368160e08701610695565b6101008501610695565b60016101208401521515610140830152565b610a23565b6100b890610102565b6100b89054610757565b90610785610779610361845490565b92600052602060002090565b9060005b8181106107965750505090565b9091926107b76107b06001926107ab87610760565b610345565b9460010190565b929101610789565b906100b89161076a565b906100a26107e3926107da60405190565b938480926107bf565b0383610195565b6100b8906107c9565b61080a6100b891610802606090565b506000610612565b6107ea565b1561008757565b6100b89051610102565b5190565b60005b8381106108375750506000910152565b8181015183820152602001610827565b6108686108716020936101ed9361085c815190565b80835293849260200190565b95869101610824565b601f01601f191690565b906100b890610140806108dd6108cb6108b96108a7610160870160008a015188820360008a0152610847565b60208901518782036020890152610847565b60408801518682036040880152610847565b60608701518582036060870152610847565b946108ed60808201516080860152565b6108fc60a082015160a0860152565b61090e60c082015160c0860190610137565b61092060e082015160e0860190610137565b610934610100820151610100860190610137565b6101208181015115159085015201511515910152565b60409061097761096c6100a2959796946060840190848203600086015261087b565b966020830190610137565b0190610137565b6040513d6000823e3d90fd5b919060086109a99102916109a46001600160a01b03841b90565b921b90565b9181191691161790565b91906109c46100b86109cc93610609565b90835461098a565b9055565b90815491680100000000000000008310156101b757826109f89160016100a2950181556100d1565b906109b3565b60408082526100b8939192610a1591840190610847565b916020818403910152610847565b909190805151610a45600091610a3f610a3b84610688565b9190565b1161080f565b6020820192610a64610a58610820865190565b610a3f610a3b85610688565b610100830194610a7386610816565b610a99610a7f85610674565b91610a92610a8c84610102565b91610102565b141561080f565b610ab3610aa7608087015190565b610a3f610a3b87610688565b610ac8610abf82610102565b610a9284610102565b610add610ad482610102565b610a9285610102565b60a0850151610aee610a3b86610688565b11610bcf575b506040519161538783019083821067ffffffffffffffff8311176101b757839286610b2693615387610c1f873961094a565b039082f08015610bca57610b3c610b6b91610609565b94610b5b86610b566100b8610b5085610816565b87610612565b6109d0565b610b668660016109d0565b610816565b9101519151907f1309157dd19792bdfd72678ba7958d9d18ec4b35f3c362c6203332bb2c771e66610ba4610b9e86610609565b92610609565b92610bae33610609565b94610bc4610bbb60405190565b928392836109fe565b0390a490565b61097e565b610beb90610a92610a8c610be560e08901610816565b92610102565b38610af4565b6101316100b891610c00600090565b50610c17610c106100b860015490565b821061080f565b60016100d156fe6101a0604052346100905761001b610015610334565b9161067f565b60405161481a610b6d823960805181614200015260a0518161422d015260c051816141cd015260e05181614716015261010051816146f501526101205181613f4c01526101405181613f7901526101605181818161129a01526113e5015261018051818181610f96015261140b015261481a90f35b600080fd5b634e487b7160e01b600052604160045260246000fd5b90601f01601f191681019081106001600160401b038211176100cc57604052565b610095565b906100e56100de60405190565b92836100ab565b565b6001600160401b0381116100cc57602090601f01601f19160190565b0190565b60005b83811061011a5750506000910152565b818101518382015260200161010a565b9092919261013f61013a826100e7565b6100d1565b9381855281830111610090576100e5916020850190610107565b9080601f830112156100905781516101739260200161012a565b90565b805b0361009057565b905051906100e582610176565b6001600160a01b031690565b6001600160a01b038116610178565b905051906100e582610198565b801515610178565b905051906100e5826101b4565b91909161016081840312610090576101e26101606100d1565b81519093906001600160401b0381116100905781610201918401610159565b845260208201516001600160401b0381116100905781610222918401610159565b602085015260408201516001600160401b0381116100905781610246918401610159565b60408501526060820151906001600160401b0382116100905761026e816102ec938501610159565b6060860152610280816080850161017f565b60808601526102928160a0850161017f565b60a08601526102a48160c085016101a7565b60c08601526102b68160e085016101a7565b60e08601526101006102ca828286016101a7565b908601526101206102dd828286016101bc565b908601526101408093016101bc565b90830152565b90916060828403126100905781516001600160401b0381116100905761031d846101739285016101c9565b93604061032d82602087016101a7565b94016101a7565b61035261538780380380610347816100d1565b9283398101906102f2565b909192565b9061036461013a836100e7565b918252565b6103736010610357565b6f29a823a7232a21b7b63632b1ba34b7b760811b602082015290565b610173610369565b6103a16001610357565b603160f81b602082015290565b610173610397565b634e487b7160e01b600052602260045260246000fd5b90600160028304921680156103ec575b60208310146103e757565b6103b6565b91607f16916103dc565b9160001960089290920291821b911b5b9181191691161790565b6101736101736101739290565b919061042e61017361043693610410565b9083546103f6565b9055565b6100e59160009161041d565b818110610451575050565b8061045f600060019361043a565b01610446565b9190601f811161047457505050565b6104866100e593600052602060002090565b906020601f8401819004830193106104a8575b6020601f909101040190610446565b9091508190610499565b906104bb815190565b906001600160401b0382116100cc576104de826104d885546103cc565b85610465565b602090601f83116001146105195761043692916000918361050e575b5050600019600883021c1916906002021790565b0151905038806104fa565b601f1983169161052e85600052602060002090565b9260005b81811061056c57509160029391856001969410610553575b50505002019055565b01516000196008601f8516021c1916905538808061054a565b91936020600181928787015181550195019201610532565b906100e5916104b2565b9060001990610406565b906105a861017361043692610410565b825461058e565b906001600160a01b0390610406565b6101739061018c906001600160a01b031682565b610173906105be565b610173906105d2565b906105f4610173610436926105db565b82546105af565b9060ff60a01b9060a01b610406565b9061061a61017361043692151590565b82546105fb565b9060ff60a81b9060a81b610406565b9061064061017361043692151590565b8254610621565b90610651906105db565b600052602052604060002090565b9060ff90610406565b9061067861017361043692151590565b825461065f565b9061076a610763610140610784946106c061069861038f565b6106a06103ae565b6101008401516001600160a01b031660008501519160208601519361078e565b6106cf6040820151600d610584565b6106de6060820151600e610584565b6106f36106ec608083015190565b600f610598565b61070861070160a083015190565b6010610598565b61072661071f60c08301516001600160a01b031690565b60116105e4565b61074461073d60e08301516001600160a01b031690565b60126105e4565b61075c610755610120830151151590565b601261060a565b0151151590565b6012610630565b61077f600161077a336015610647565b610668565b6105db565b6101605261018052565b90926107db946107a1916107c294610808565b6107ac600b82610915565b610120526107bb600c84610915565b6101405290565b6107d46107cd825190565b9160200190565b2060e05290565b6107e66107cd825190565b20610100524660a0526107f7610999565b608052610803306105db565b60c052565b906100e5929161081d565b6101736001610410565b90610828929161083a565b6100e5610833610813565b600a610598565b906100e5929161085b565b61018c6101736101739290565b61017390610845565b91610865916108b6565b600061087081610852565b6001600160a01b0381166001600160a01b038416146108945750506100e590610a18565b631e4fbdf760e01b82526001600160a01b0316600482015280602481015b0390fd5b6100e59182916108d391906108cc906002610584565b6003610584565b6108db610a6a565b6108e6816000610598565b6108f76108f36000199290565b9190565b106108fe57565b63fed8210f60e01b610a74565b61017360ff610410565b80516109246108f36020610410565b1015610934576101739150610b07565b60006109406109469390565b01610584565b61017361017361090b565b909594926100e59461098361098a9261097c60809661097560a088019c6000890152565b6020870152565b6040850152565b6060830152565b01906001600160a01b03169052565b7f8b73c3c69bb8fe3d512ecc4cf759cc79239f7b179b0ffacaa9a75d522b39400f6109f66109c660e05190565b61010051906109ea6109d7306105db565b6040519586946020860194469286610951565b908103825203826100ab565b610a016107cd825190565b2090565b6101739061018c565b6101739054610a05565b610a39610a33610a286009610a0e565b61077f8460096105e4565b916105db565b907f8be0079c531659141344cd1fd0a4f28419497f9722a3daafe3b4186f6b6457e0610a6460405190565b600090a3565b6101736000610410565b60005260046000fd5b610a9e610aa760209361010393610a92815190565b80835293849260200190565b95869101610107565b601f01601f191690565b602080825261017392910190610a7d565b610adb610ad7610ad0835190565b9260200190565b5190565b9060208110610ae8575090565b610afa90600019906020036008021b90565b1690565b61017390610410565b80610b10825190565b610b1d6108f3601f610410565b11610b49575061017381610b43610b3e610b3961017395610ac2565b610afe565b915190565b17610410565b6108b290610b5660405190565b63305a27a960e01b815291829160048301610ab156fe6080604052600436101561001257600080fd5b60003560e01c806301ffc9a71461039257806306fdde031461038d578063081812fc14610388578063095ea7b31461038357806313966db51461037e57806315d9756e14610379578063162094c41461037457806318160ddd1461036f5780631d027aad1461036a57806322df11d81461036557806323b872dd1461036057806324bbd0491461035b578063254a473714610356578063280007bb146103515780632c6739151461034c5780632d0335ab146103475780633092afd5146103425780633f4ba83a1461033d57806340c10f191461033857806342842e0e146103335780634c06baba1461032e57806352b9122614610329578063559e775b1461032457806355f804b31461031f5780635c975abb1461031a5780636352211e146103155780636a6278421461031057806370a082311461030b578063715018a614610306578063765b0c36146103015780637ecc2b56146102fc5780637ecebe00146102f75780638456cb59146102f257806384b0196e146102ed5780638da5cb5b146102e8578063916f9ab4146102e3578063938e3d7b146102de57806395d89b41146102d9578063983b2d56146102d4578063a22cb465146102cf578063afc0381d146102ca578063b88d4fde146102c5578063c2ba4744146102c0578063c3324b27146102bb578063c4c69033146102b6578063c87b56dd146102b1578063d5abeb01146102ac578063e31c6732146102a7578063e59ba924146102a2578063e8a3d4851461029d578063e985e9c514610298578063eddd0d9c14610293578063f2fde38b1461028e578063f46eccc414610289578063f8004d31146102845763fa5c33750361039757611281565b611250565b611235565b61120d565b6111f5565b6111d9565b61119b565b61103b565b611023565b611008565b610fe1565b610fc6565b610f81565b610f66565b610f4f565b610e20565b610df2565b610db7565b610d9c565b610d83565b610d64565b610cd7565b610ca3565b610ba1565b610b86565b610b16565b610afb565b610ab8565b610a9d565b610a87565b610a6c565b610a51565b610a38565b6109f7565b6109d5565b61090f565b6108fb565b6108e4565b6108cc565b6108b4565b610899565b61087e565b61085a565b61082e565b6107ea565b6107b0565b61076d565b6106dc565b610655565b61063c565b6105b7565b61058b565b610550565b6104dc565b610482565b6103d9565b600080fd5b6001600160e01b031981165b0361039757565b905035906103bc8261039c565b565b90602082820312610397576103d2916103af565b90565b9052565b34610397576104076103f46103ef3660046103be565b6112bf565b6040515b91829182901515815260200190565b0390f35b600091031261039757565b60005b8381106104295750506000910152565b8181015183820152602001610419565b61045a61046360209361046d9361044e815190565b80835293849260200190565b95869101610416565b601f01601f191690565b0190565b60208082526103d292910190610439565b346103975761049236600461040b565b61040761049d6112d1565b60405191829182610471565b806103a8565b905035906103bc826104a9565b90602082820312610397576103d2916104af565b6001600160a01b031690565b34610397576104076104f76104f23660046104bc565b611305565b604051918291826001600160a01b03909116815260200190565b6001600160a01b0381166103a8565b905035906103bc82610511565b9190604083820312610397576103d29060206105498286610520565b94016104af565b61056461055e36600461052d565b9061133c565b604051005b6103d2916008021c81565b906103d29154610569565b6103d260006010610574565b346103975761059b36600461040b565b6104076105a661057f565b6040515b9182918290815260200190565b34610397576104076104f76105cd3660046104bc565b6113d2565b909182601f830112156103975781359167ffffffffffffffff831161039757602001926001830284011161039757565b9190916040818403126103975761061983826104af565b92602082013567ffffffffffffffff81116103975761063892016105d2565b9091565b346103975761056461064f366004610602565b916116b0565b346103975761066536600461040b565b6104076105a66116cc565b9160c083830312610397576106858284610520565b926106938360208301610520565b926106a181604084016104af565b926106af82606085016104af565b926106bd83608083016104af565b9260a082013567ffffffffffffffff81116103975761063892016105d2565b34610397576105646106ef366004610670565b95949094939193611c97565b909182601f830112156103975781359167ffffffffffffffff831161039757602001926020830284011161039757565b91606083830312610397576107408284610520565b9261074e83602083016104af565b92604082013567ffffffffffffffff81116103975761063892016106fb565b6104076105a661077e36600461072b565b929190916120bc565b9091606082840312610397576103d26107a08484610520565b9360406105498260208701610520565b6105646107be366004610787565b916120fd565b6103d2916008021c5b60ff1690565b906103d291546107c4565b6103d2601460126107d3565b34610397576107fa36600461040b565b6104076103f46107de565b8015156103a8565b905035906103bc82610805565b90602082820312610397576103d29161080d565b346103975761056461084136600461081a565b612372565b90602082820312610397576103d291610520565b346103975761056461086d366004610846565b6123f5565b6103d2601560126107d3565b346103975761088e36600461040b565b6104076103f4610872565b34610397576104076105a66108af366004610846565b6123fe565b34610397576105646108c7366004610846565b61245f565b34610397576108dc36600461040b565b61056461247b565b6104076105a66108f536600461052d565b906124ed565b610564610909366004610787565b9161251f565b346103975761091f36600461040b565b6104077fe3803e7e8e11a1bd61bc6a735c21ee04ce89f8a17fe09be53356f1ef9542ca096105a6565b60ff81166103a8565b905035906103bc82610948565b91909160e081840312610397576109758382610520565b926109838160208401610520565b92604083013567ffffffffffffffff811161039757826109a49185016106fb565b9290936109b482606083016104af565b926103d26109c58460808501610951565b9360c06105498260a087016104af565b34610397576105646109e836600461095e565b96959095949194939293612a32565b34610397576104076105a6610a0d3660046104bc565b612a55565b9060208282031261039757813567ffffffffffffffff81116103975761063892016105d2565b3461039757610564610a4b366004610a12565b90612a81565b3461039757610a6136600461040b565b6104076103f4612a8b565b34610397576104076104f7610a823660046104bc565b612a95565b6104076105a6610a98366004610846565b612ab2565b34610397576104076105a6610ab3366004610846565b612ada565b3461039757610ac836600461040b565b610564612b3a565b6103d2916008021c6001600160a01b031690565b906103d29154610ad0565b6103d260006012610ae4565b3461039757610b0b36600461040b565b6104076104f7610aef565b3461039757610b2636600461040b565b6104076105a6612b4f565b6104d06103d26103d2926001600160a01b031690565b6103d290610b31565b6103d290610b47565b90610b6390610b50565b600052602052604060002090565b6000610b816103d2926016610b59565b610574565b34610397576104076105a6610b9c366004610846565b610b71565b3461039757610bb136600461040b565b610564612b7d565b90610bd9610bd2610bc8845190565b8084529260200190565b9260200190565b9060005b818110610bea5750505090565b909192610c07610c006001928651815260200190565b9460200190565b929101610bdd565b93959194610c7f610c77610c9695610c69610c8f956103d29c9a610c5c60e08c019260008d01907fff00000000000000000000000000000000000000000000000000000000000000169052565b8a820360208c0152610439565b9088820360408a0152610439565b976060870152565b6001600160a01b03166080850152565b60a0830152565b60c0818403910152610bb9565b3461039757610cb336600461040b565b610407610cbe612ba7565b93610cce97959793919360405190565b97889788610c0f565b3461039757610ce736600461040b565b6104076104f7612bed565b60a08183031261039757610d068282610520565b92610d148360208401610520565b92604083013567ffffffffffffffff81116103975781610d359185016106fb565b929093610d4583606083016104af565b92608082013567ffffffffffffffff81116103975761063892016105d2565b3461039757610564610d77366004610cf2565b95949094939193612dbd565b3461039757610564610d96366004610a12565b90612de5565b3461039757610dac36600461040b565b61040761049d612def565b3461039757610564610dca366004610846565b612e43565b9190604083820312610397576103d2906020610deb8286610520565b940161080d565b3461039757610564610e05366004610dcf565b90612e4c565b6000610e1b6103d2926015610b59565b6107d3565b34610397576104076103f4610e36366004610846565b610e0b565b634e487b7160e01b600052604160045260246000fd5b90601f01601f1916810190811067ffffffffffffffff821117610e7357604052565b610e3b565b906103bc610e8560405190565b9283610e51565b67ffffffffffffffff8111610e7357602090601f01601f19160190565b90826000939282370152565b90929192610eca610ec582610e8c565b610e78565b9381855281830111610397576103bc916020850190610ea9565b9080601f83011215610397578160206103d293359101610eb5565b9060808282031261039757610f148183610520565b92610f228260208501610520565b92610f3083604083016104af565b92606082013567ffffffffffffffff8111610397576103d29201610ee4565b610564610f5d366004610eff565b92919091612ea4565b34610397576104076103f4610f7c366004610846565b612ef5565b3461039757610f9136600461040b565b6104077f00000000000000000000000000000000000000000000000000000000000000006104f7565b6103d260006011610ae4565b3461039757610fd636600461040b565b6104076104f7610fba565b346103975761040761049d610ff73660046104bc565b612f82565b6103d26000600f610574565b346103975761101836600461040b565b6104076105a6610ffc565b3461039757610564611036366004610846565b61308b565b346103975761104b36600461040b565b6104077f24b3fc13ce2556394493767a6603fb6eb349a51fec76048f203a379615fa34c16105a6565b634e487b7160e01b600052600060045260246000fd5b634e487b7160e01b600052602260045260246000fd5b90600160028304921680156110c0575b60208310146110bb57565b61108a565b91607f16916110b0565b805460009392916110e76110dd836110a0565b8085529360200190565b9160018116908115611139575060011461110057505050565b6111139192939450600052602060002090565b916000925b8184106111255750500190565b805484840152602090930192600101611118565b92949550505060ff1916825215156020020190565b906103d2916110ca565b906103bc6111729261116960405190565b9384809261114e565b0383610e51565b9060001061118a576103d290611158565b611074565b6103d26000600e611179565b34610397576111ab36600461040b565b61040761049d61118f565b9190604083820312610397576103d29060206111d28286610520565b9401610520565b34610397576104076103f46111ef3660046111b6565b90613094565b34610397576105646112083660046104bc565b6130eb565b3461039757610564611220366004610846565b61314c565b6000610e1b6103d2926014610b59565b34610397576104076103f461124b366004610846565b611225565b346103975761056461126336600461081a565b6131bc565b6103d590610b50565b6020810192916103bc9190611268565b346103975761129136600461040b565b604051806104077f000000000000000000000000000000000000000000000000000000000000000082611271565b6103d2906131e5565b6103d290611158565b6103d260026112c8565b6103d26103d26103d29290565b90610b63906112db565b6103d2906104d0565b6103d290546112f2565b6113156113118261326b565b1590565b61132f5760006113296103d29260066112e8565b016112fb565b6333d1c03960e21b6132eb565b6103bc9160019161331a565b905051906103bc82610511565b90602082820312610397576103d291611348565b6103d5906112db565b909594926103bc946113b86113bf926113a86080966113a160a088019c60008901906001600160a01b03169052565b6020870152565b6001600160a01b03166040850152565b6060830152565b0190611369565b6040513d6000823e3d90fd5b60206000916113df600090565b506114097f0000000000000000000000000000000000000000000000000000000000000000610b50565b7f000000000000000000000000000000000000000000000000000000000000000061143330610b50565b9061145c61144060405190565b96879586948594632f4de29b60e11b8652469060048701611372565b03915afa90811561149b57600091611472575090565b6103d2915060203d602011611494575b61148c8183610e51565b810190611355565b503d611482565b6113c6565b906103bc92916114ae6133c3565b61168a565b156114ba57565b60405162461bcd60e51b815260206004820152601460248201527f546f6b656e20646f6573206e6f74206578697374000000000000000000000000604482015280606481015b0390fd5b9160001960089290920291821b911b5b9181191691161790565b919061152f6103d2611537936112db565b908354611504565b9055565b6103bc9160009161151e565b818110611552575050565b80611560600060019361153b565b01611547565b9190601f811161157557505050565b6115876103bc93600052602060002090565b906020601f8401819004830193106115a9575b6020601f909101040190611547565b909150819061159a565b919067ffffffffffffffff8211610e73576115d8826115d285546110a0565b85611566565b600090601f831160011461161357611537929160009183611608575b5050600019600883021c1916906002021790565b0135905038806115f4565b90601f1983169161162985600052602060002090565b92825b8181106116675750916002939185600196941061164d575b50505002019055565b0135600019601f84166008021c19165b9055388080611644565b9293602060018192878601358155019501930161162c565b906103bc92916115b3565b906116ab6103bc93926116a461169f8261326b565b6114b3565b60136112e8565b61167f565b906103bc92916114a0565b6103d29081565b6103d290546116bb565b6116f36116eb6116dc60006116c2565b6116e660016116c2565b900390565b6116e6613400565b908160001980611702565b9190565b0361170a5750565b6103d291925061046d60086116c2565b9061173196959493929161172c613414565b611739565b6103bc613454565b906103bc96959493929161174b613466565b6119a6565b6103d2906107cd565b6103d29054611750565b1561176a57565b60405162461bcd60e51b815260206004820152601c60248201527f4e6f7420617574686f72697a656420657363726f772077616c6c6574000000006044820152606490fd5b6104d06103d26103d29290565b6103d2906117af565b156117cc57565b60405162461bcd60e51b815260206004820152601f60248201527f43616e6e6f74207472616e7366657220746f207a65726f2061646472657373006044820152606490fd5b1561181857565b60405162461bcd60e51b815260206004820152601560248201527f496e76616c6964206f776e6572206164647265737300000000000000000000006044820152606490fd5b1561186457565b60405162461bcd60e51b815260206004820152601160248201527f5369676e617475726520657870697265640000000000000000000000000000006044820152606490fd5b6103d260646112db565b6103d260326112db565b156118c457565b60405162461bcd60e51b815260206004820152601060248201527f496e76616c6964207175616e74697479000000000000000000000000000000006044820152606490fd5b6103d260c0610e78565b5190565b6103d2913691610eb5565b1561192957565b60405162461bcd60e51b815260206004820152601160248201527f496e76616c6964207369676e61747572650000000000000000000000000000006044820152606490fd5b9060001990611514565b906119886103d2611537926112db565b825461196e565b9081526040810192916103bc9160200152565b0152565b611c1a611bf98597611bf3869a611bed611ae3611bd589611aff611c519b9e611af87f670fe7cb14f68cf31d6e2012cadd6f5325904b6d23d2cadeb3607c96d8b1fec89f611c579f8e91611aea611af192611a12611a0d611a08336015610b59565b611759565b611763565b60009a8b99611a57611a45611a268d6117bc565b6104d06001600160a01b0382166001600160a01b0386165b14156117c5565b6001600160a01b0389165b1415611811565b611a64895b42111561185d565b611a6e60146112db565b851115611c8757611a98611a806118b3565b611a898d6112db565b87119081611c7c575b506118bd565b611aa38584896134d2565b611ad3611ab9611ab4896016610b59565b6116c2565b97611ac2611909565b9e8f01906001600160a01b03169052565b6001600160a01b031660208d0152565b60408b0152565b6060890152565b6080870152565b60a0850152565b8201517fe3803e7e8e11a1bd61bc6a735c21ee04ce89f8a17fe09be53356f1ef9542ca09906001600160a01b031690611bc9611b4560208601516001600160a01b031690565b94611b51604082015190565b90611b5d606082015190565b611b7360a0611b6d608085015190565b93015190565b92611b7d60405190565b9889976020890197889081526001600160a01b03909116602082015260e081019695949093909290916001600160a01b031660408501526060840152608083015260a082015260c00152565b90810382520382610e51565b611be7611be0825190565b9160200190565b2061352d565b92611917565b90613556565b611c146001600160a01b0384165b916001600160a01b031690565b14611922565b611c40611c28826016610b59565b611c3a611c34826116c2565b60010190565b90611978565b611c4c8688878461356c565b610b50565b92610b50565b92611c6133610b50565b94611c77611c6e60405190565b9283928361198f565b0390a4565b905086111538611a92565b611a98611c926118a9565b611a80565b906103bc96959493929161171a565b90611cbb94939291611cb6613414565b611cc4565b906103bc613454565b906103d294939291611cd4613466565b611f10565b6103d29060a01c6107cd565b6103d29054611cd9565b15611cf657565b60405162461bcd60e51b815260206004820152601160248201527f4d696e74696e6720697320636c6f7365640000000000000000000000000000006044820152606490fd5b634e487b7160e01b600052601160045260246000fd5b91908201809211611d5e57565b611d3b565b15611d6a57565b60405162461bcd60e51b815260206004820152601360248201527f4d617820737570706c79206578636565646564000000000000000000000000006044820152606490fd5b15611db657565b60405162461bcd60e51b815260206004820152601760248201527f546f6b656e55524920636f756e74206d69736d617463680000000000000000006044820152606490fd5b15611e0257565b60405162461bcd60e51b815260206004820152600f60248201527f426174636820746f6f206c6172676500000000000000000000000000000000006044820152606490fd5b6103d29060a81c6107cd565b6103d29054611e47565b15611e6457565b60405162461bcd60e51b815260206004820152601660248201527f4e6f7420617574686f72697a656420746f206d696e74000000000000000000006044820152606490fd5b634e487b7160e01b600052603260045260246000fd5b903590601e193682900301821215610397570180359067ffffffffffffffff8211610397576020019136829003831361039757565b90821015611f0b5760206106389202810190611ebf565b611ea9565b509293909190611f28611f236012611ce5565b611cef565b611f53611f3c84611f376116cc565b611d51565b611f4c6116fe6103d2600f6116c2565b1115611d63565b611f5e838614611daf565b611f74611f6c6103d26118a9565b841115611dfb565b611f816113116012611e53565b61207c575b611f9060106116c2565b90600091611fa16116fe60006112db565b1161206e575b611faf6137fd565b93611fba8187613827565b611fc460006112db565b818110156120205780611fe6611fe1610638611ffd948c8a611ef4565b905090565b611ff26116fe876112db565b116120025760010190565b611fc4565b611c34612010828b89611ef4565b906116ab60138b86015b906112e8565b509394915094506120319150610b50565b7f59f9fb6d992d2aee0ed338bb4c504a17fd3f67ae91a3135bc2ef947e308c41b261206861205e856112db565b936105aa60405190565b0390a390565b6120778461369f565b611fa7565b61208a611a08336014610b59565b801561209f575b61209a90611e5d565b611f86565b5061209a6120ab612bed565b6120b433611c07565b149050612091565b6103d2939291906000611ca6565b6103d26103d26103d2926001600160a01b031690565b6103d26001600160a01b036112db565b6103d2600160e11b6112db565b61211761211261210c8561398c565b92610b47565b6120ca565b9261213361212e6121266120e0565b8096166117af565b610b47565b9361214061212e846117af565b6121526001600160a01b038716611c07565b036122fa5761216082613a56565b949033612171611311828a8a613a73565b6122cc575b506121126116fe959493926122239261224f986122c2575b506121b061219d8a6005610b59565b611c3a6121a9826116c2565b6000190190565b6121be611c28826005610b59565b6121c66120f0565b956121eb6121d582848d613adb565b8817836001600160a01b0316904260a01b171790565b906122016004926121fc89856112e8565b611978565b6000976122166122108a6112db565b91831690565b14612263575b5050610b47565b1680957fddf252ad1be2c89b69c2b068fc378daa952ba7f163c4a11628f55a4df523b3ef8480a46112db565b1461225657565b633a954ecd60e21b6132eb565b61227561227060016112db565b880190565b91612283611ab484836112e8565b61228f6116fe8b6112db565b1461229b575b5061221c565b6122a76103d28a6116c2565b8314612295576122ba926121fc916112e8565b388080612295565b600090553861218e565b6113116122de91899796959497613094565b6122ed57389491929394612176565b632ce44b5f60e11b6132eb565b62a1148160e81b6132eb565b6103bc906123126133c3565b61233d565b9060ff60a81b9060a81b611514565b906123366103d261153792151590565b8254612317565b61236d7f545ecf6fbcc235df5fdfb676e1992025683c8097a8bd6e5a7c57b31f1c1b29d4916103f4816012612326565b0390a1565b6103bc90612306565b6103bc906123876133c3565b6123ac565b9060ff90611514565b906123a56103d261153792151590565b825461238c565b6123c590611c4c60006123c0836015610b59565b612395565b7f566163b435df210872aafff6e352033418c951e1538d138dfbccd622c4b022d06123ef60405190565b600090a2565b6103bc9061237b565b611ab46103d29161240d600090565b506016610b59565b6103bc906124216133c3565b61243590611c4c60006123c0836014610b59565b7fe94479a9f7e1952cc78f2d6baab678adc1b772d936c6583def489e524cb666926123ef60405190565b6103bc90612415565b6124706133c3565b6103bc6103bc613b5b565b6103bc612468565b67ffffffffffffffff8111610e735760208091020190565b906124a8610ec583612483565b918252565b60005b8281106124bc57505050565b6060828201526020016124b0565b906103bc6124e06124da8461249b565b93612483565b601f1901602084016124ad565b6103d2916124fa816124ca565b91613e86565b906124a8610ec583610e8c565b6103d26000612500565b6103d261250d565b90916103bc9261252d612517565b92612ea4565b9061173197969594939291612546613414565b906103bc97969594939291612559613466565b61276a565b1561256557565b60405162461bcd60e51b815260206004820152601260248201527f496e76616c69642062617463682073697a6500000000000000000000000000006044820152606490fd5b9190811015611f0b576020020190565b356103d2816104a9565b156125cb57565b60405162461bcd60e51b815260206004820152600f60248201527f4e6f7420746f6b656e206f776e657200000000000000000000000000000000006044820152606490fd5b6103d260a0610e78565b9092919261262a610ec582612483565b938185526020808601920283019281841161039757915b83831061264e5750505050565b6020809161265c84866104af565b815201920191612641565b6103d291369161261a565b90612685610bd2612681845190565b9290565b9060005b8181106126965750505090565b9091926126ac610c006001928651815260200190565b929101612689565b6103d291612672565b919461270c6119a29298979561270560a0966126f56103bc9a6126e560c08a019e60008b0152565b6001600160a01b03166020890152565b6001600160a01b03166040870152565b6060850152565b6080830152565b9037565b81835290916020015b917f07ffffffffffffffffffffffffffffffffffffffffffffffffffffffffffffff8111610397578291602061046d9202938491612713565b60208082526103d293910191612717565b959092949396979197612784611a0d611a08336015610b59565b6000916127c16127b2612796856117bc565b6104d06001600160a01b0382166001600160a01b038a16611a3e565b6001600160a01b038a16611a50565b6127ca89611a5c565b86956127d5846112db565b871180612a19575b6127e69061255e565b6127ef846112db565b8b8882101561284f5790611c348b612844611c07612837610a828f87818a61283261169f61282d61282861284a9f6128289888916125aa565b6125ba565b61326b565b6125aa565b926001600160a01b031690565b146125c4565b6127ef565b6129739391509161296e866128c28c9b9e61270c8f8d9f6128bb6129989e9f916129859d9b6128b6612705946128a661288c611ab4896016610b59565b97612895612610565b9c8d01906001600160a01b03169052565b6001600160a01b031660208b0152565b612667565b6040870152565b611bd57f24b3fc13ce2556394493767a6603fb6eb349a51fec76048f203a379615fa34c16128f98a8401516001600160a01b031690565b90611bc961291160208601516001600160a01b031690565b94604081015161293361292360405190565b8092611bc96020830191826126b4565b61293e611be0825190565b20906129566080612950606084015190565b92015190565b9161296060405190565b9788966020880196876126bd565b613e93565b611c146001600160a01b038916611c07565b612993611c28876016610b59565b6112db565b855b8110156129c7576129c081611c346129b961282861299a95888d6125aa565b878961251f565b9050612998565b50949350916129f9611c517fb29502ff9b08df34ae7101bcaedae6124591b6f81d9ab5a4ba2bf20641fd2de292610b50565b92612a0333610b50565b94611c77612a1060405190565b92839283612759565b506127e6612a286103d26118b3565b88111590506127dd565b906103bc97969594939291612533565b81810292918115918404141715611d5e57565b6103d290612a6360106116c2565b612a42565b906103bc91612a756133c3565b906103bc91600d61167f565b906103bc91612a68565b6103d26009611ce5565b61212e612aad6103d292612aa7600090565b5061398c565b6117af565b6103d290612ac060016112db565b6124fa816124ca565b6103d267ffffffffffffffff6112db565b612ae76104d060006117bc565b6001600160a01b03821614612b1057611ab4612b04916005610b59565b612b0c612ac9565b1690565b6323d3ad8160e21b6132eb565b612b256133c3565b6103bc6103bc612b3560006117bc565b613eab565b6103bc612b1d565b91908203918211611d5e57565b6103d2612b5c600f6116c2565b612b646116cc565b90612b42565b612b726133c3565b6103bc6103bc613f3f565b6103bc612b6a565b369037565b906103bc612b9a6124da8461249b565b601f190160208401612b85565b612baf613f47565b90612bb8613f74565b90612bc230610b50565b612bcc60006112db565b612bde612bd960006112db565b612b8a565b600f60f81b9594934693929190565b6103d260096112fb565b90611731969594939291612c09613414565b906103bc969594939291612c1b613466565b612c32565b9091612720565b90916103d292612c20565b9496909193959296612c4b611a0d611a08336015610b59565b600090612c79611a45612c5d846117bc565b6104d06001600160a01b0382166001600160a01b038916611a3e565b612c8288611a5c565b8894612c8d836112db565b861180612da4575b612c9e9061255e565b612ca7836112db565b86811015612cee5780611c34612cd7610a826128288f95868e61283261169f61282d61282886612ce99d866125aa565b6128446001600160a01b038d16611c07565b612ca7565b5061298591611bf361297392611bed88611bd58c9f9b9e612d7c9a9b9d8f91611bc9908f612d58611bc991612d407f24b3fc13ce2556394493767a6603fb6eb349a51fec76048f203a379615fa34c190565b95612d4a60405190565b938492602084019283612c27565b612d63611be0825190565b20612d72611ab4866016610b59565b9061296060405190565b855b8110156129c757612d9d81611c346129b9612828612d7e95888d6125aa565b9050612d7c565b50612c9e612db36103d26118b3565b8711159050612c95565b906103bc969594939291612bf7565b906103bc91612dd96133c3565b906103bc91600e61167f565b906103bc91612dcc565b6103d260036112c8565b6103bc90612e056133c3565b612e1990611c4c60016123c0836014610b59565b7f6ae172837ea30b801fbfcdd4108aa1d5bf8ff775444fd70256b44e6bf3dfc3f66123ef60405190565b6103bc90612df9565b7f17307eab39ab6107e8899845ad3d59bd9653f200f220920489ca2b5937696c31612e9f612e95612e8f33611c4c876123c088612e8a856007610b59565b610b59565b93610b50565b936103f860405190565b0390a3565b91929092612eb38185856120fd565b833b612ec26116fe60006112db565b03612ece575b50505050565b612edb936113119361400c565b612ee85738808080612ec8565b6368d2bf6b60e11b6132eb565b612eff6012611e53565b612f3057612f11611a08826014610b59565b908115612f1c575090565b9050612f2c611c07612837612bed565b1490565b50600190565b15612f3d57565b60405162461bcd60e51b815260206004820152601f60248201527f55524920717565727920666f72206e6f6e6578697374656e7420746f6b656e006044820152606490fd5b612f93612f8e8261326b565b612f36565b612fa6612fa18260136112e8565b6112c8565b90612faf825190565b612fbc6116fe60006112db565b11612fcb576103d29150614100565b5090565b6103bc90612fdb6133c3565b61302c565b15612fe757565b60405162461bcd60e51b815260206004820152600f60248201527f496e76616c6964206164647265737300000000000000000000000000000000006044820152606490fd5b613061906130516130406104d060006117bc565b6001600160a01b0383161415612fe0565b611c4c60016123c0836015610b59565b7ff37f0cb2b2cc8066b1fa4738122412661ce5405cd9278f327d6905bb6d0e973f6123ef60405190565b6103bc90612fcf565b6103d291612e8a611a08926130a7600090565b506007610b59565b6103bc906130bb6133c3565b61236d7fe427e272b122e738fd867ac5defcedb2bc9362341166a49d793d8b230f75670c916105a6816010611978565b6103bc906130af565b6103bc906131006133c3565b600061310b816117bc565b6001600160a01b0381166001600160a01b0384161461312f5750506103bc90613eab565b631e4fbdf760e01b82526001600160a01b03166004820152602490fd5b6103bc906130f4565b6103bc906131616133c3565b61318c565b9060ff60a01b9060a01b611514565b906131856103d261153792151590565b8254613166565b61236d7fb304fe5dd2d3c45e8ec87c1dd1bd2b3a773b3135e84a7b9151f5fb4bf1a06d0e916103f4816012613175565b6103bc90613155565b6131d86131d26103d29290565b60e01b90565b6001600160e01b03191690565b6131f26301ffc9a76131c5565b6001600160e01b0319821614908115613230575b8115613210575090565b9050612f2c613222635b5e139f6131c5565b916001600160e01b03191690565b905061323f6380ac58cd6131c5565b6001600160e01b031982161490613206565b8015611d5e576000190190565b6103d2600160e01b6112db565b9060009182613278613400565b821015613283575050565b6132906103d260006116c2565b821061329a575050565b509091505b6132ad611ab48260046112e8565b90816132bc6116fe60006112db565b036132d0576132cb9150613251565b61329f565b50612f2c6132dc61325e565b6132e660006112db565b921690565b60005260046000fd5b906001600160a01b0390611514565b906133136103d261153792610b50565b82546132f4565b9161332482612a95565b90806133a8575b613389575b613351612e8f61335792611c4c86600061334b8860066112e8565b01613303565b916112db565b917f8c5be1e5ebec7d5bd14f71427d1e84f3dd0314c0f7b2291e5b200ac8c7c3b92561338260405190565b8080611c77565b6133966113113383613094565b15613330576367d9dca160e11b6132eb565b50336133bc6001600160a01b038316611c07565b141561332b565b6133cb612bed565b33906133d682611c07565b036133de5750565b63118cdaa760e01b60009081526001600160a01b039091166004526024036000fd5b6103d260006112db565b6103d260026112db565b61341e600a6116c2565b61342661340a565b908114613438576103bc90600a611978565b633ee5aeb560e01b6000908152600490fd5b6103d260016112db565b6103bc61345f61344a565b600a611978565b61346e612a8b565b61347457565b63d93c066560e01b6000908152600490fd5b1561348d57565b60405162461bcd60e51b815260206004820152601560248201527f4e6f7420636f6e7365637574697665206f776e657200000000000000000000006044820152606490fd5b9290918201915b825b8110156135275761352081611c3461350860006134fa6134db966141a3565b01516001600160a01b031690565b61351a6001600160a01b038916611c07565b14613486565b90506134d9565b50915050565b6103d2906135396141b7565b6042916040519161190160f01b8352600283015260228201522090565b6103d29161356391614253565b909291926142ee565b9391909161357a60006112db565b845b8110156135a45761359d81611c3461359661357c94870190565b878a61251f565b905061357a565b509350505050565b156135b357565b60405162461bcd60e51b815260206004820152601460248201527f496e73756666696369656e74207061796d656e740000000000000000000000006044820152606490fd5b3d15613612576136073d612500565b903d6000602084013e565b606090565b1561361e57565b60405162461bcd60e51b815260206004820152601360248201527f4665652068616e646c696e67206661696c6564000000000000000000000000006044820152606490fd5b1561366a57565b60405162461bcd60e51b815260206004820152600d60248201526c1499599d5b990819985a5b1959609a1b6044820152606490fd5b6136b1906136ad60106116c2565b0290565b6136bb60116112fb565b6000916136c7836117bc565b916136da6001600160a01b038416611c07565b036137b857613711916136ef823410156135ac565b6136ff611c0761283760126112fb565b1415806137a7575b613747575b340390565b9061371b816112db565b8211613725575050565b806103bc9261373360405190565b600091335af16137416135f8565b50613663565b61377f838061375660126112fb565b6137616175306112db565b908561376c60405190565b9182800393f161377a6135f8565b501590565b1561370c5761370c838061379260405190565b60009085335af16137a16135f8565b50613617565b506137b1836112db565b8111613707565b60405162461bcd60e51b815260206004820152601d60248201527f4552433230207061796d656e74206e6f7420696d706c656d656e7465640000006044820152606490fd5b6103d260006116c2565b6103d260406112db565b6103d2906138226116fe6103d29490565b901b90565b61383160006116c2565b9160009161383e836112db565b821461397f57808261389961388e61385c6138c39660011460e11b90565b613879613868896117bc565b6138718a6112db565b978891613adb565b17846001600160a01b0316904260a01b171790565b6121fc8860046112e8565b6138e161211260019361212e6138c96138b0613807565b6138ba60016112db565b998a9182613811565b17860290565b611c3a6138d7846005610b59565b9161046d836116c2565b6138e96120e0565b16928314613973578501949285036139026000196116fe565b11613966576001815b61391e575b50505050906103bc91611978565b15613954575b83908383867fddf252ad1be2c89b69c2b068fc378daa952ba7f163c4a11628f55a4df523b3ef8180a4908161390b565b91600101918483036139245780613910565b6340b23f1d60e11b6132eb565b622e076360e81b6132eb565b63b562e8dd60e01b6132eb565b613994613400565b8110156139a9575b636f96cda160e11b6132eb565b6004906139ba611ab48260046112e8565b916000916139c7836112db565b84146139eb5750506139e36122106139dd61325e565b926112db565b0361399c5790565b909192506139fb6103d2846116c2565b81101561399c57909190600019015b91613a18611ab484836112e8565b92613a22836112db565b8414613a4a575050613a386122106139dd61325e565b146103d257636f96cda160e11b6132eb565b90925060001901613a0a565b6103d2613a6d91613a65600090565b5060066112e8565b90815490565b91906001600160a01b038091613a87600090565b5016911691821491141790565b6103d260e86112db565b6103d290613aaf6116fe6103d29490565b901c90565b613ac16103d26103d29290565b62ffffff1690565b6103d26103d26103d29262ffffff1690565b613b10613b15916103d29493613aef600090565b50613b0a613b05613afe613a94565b8097613a9e565b613ab4565b916143a1565b613ac9565b613811565b613b226143ac565b6103bc613b3160006009613175565b7f5db9ee0a495bf2e6ff9c91a7834c1ba4fdd244a5e8aa4e537bd38aeae4b073aa61236d336104f7565b6103bc613b1a565b90611cbb939291613b72613414565b906103d2939291613b81613466565b613cbc565b15613b8d57565b60405162461bcd60e51b815260206004820152601b60248201527f43616e6e6f74206d696e7420746f207a65726f206164647265737300000000006044820152606490fd5b90613bdb825190565b811015611f0b576020809102010190565b90613bf5815190565b9067ffffffffffffffff8211610e7357613c13826115d285546110a0565b602090601f8311600114613c4d57611537929160009183613c42575050600019600883021c1916906002021790565b0151905038806115f4565b601f19831691613c6285600052602060002090565b9260005b818110613c9a57509160029391856001969410613c865750505002019055565b01516000196008601f8516021c191661165d565b91936020600181928787015181550195019201613c66565b906103bc91613bec565b506000613cdf613cce6104d0836117bc565b6001600160a01b0384161415613b86565b613cec611f236012611ce5565b613cfb611f3c84611f376116cc565b8351613d096116fe836112db565b148015613e71575b613d1a90611daf565b613d23816112db565b831180613e58575b613d34906118bd565b613d416113116012611e53565b613e18575b613d5060106116c2565b613d5c6116fe836112db565b11613e0a575b613d6a6137fd565b93613d758484613827565b8051613d836116fe846112db565b11613d94575b505061203190610b50565b92613da38296929593956112db565b81811015613dfb5780613dbf611913611913613dd69489613bd2565b613dcb6116fe8a6112db565b11613ddb5760010190565b613da3565b611c34613de88288613bd2565b51613df6601388850161201a565b613cb2565b50925093509161203138613d89565b613e138361369f565b613d62565b613e26611a08336014610b59565b8015613e3b575b613e3690611e5d565b613d46565b50613e36613e47612bed565b613e5033611c07565b149050613e2d565b50613d34613e676103d26118a9565b8411159050613d2b565b50613d1a613e7d855190565b84149050613d11565b6103d29291906000613b63565b916103d2939161356393613ea5600090565b506143f8565b613ecc613ec6613ebb60096112fb565b611c4c846009613303565b91610b50565b907f8be0079c531659141344cd1fd0a4f28419497f9722a3daafe3b4186f6b6457e0613ef760405190565b8080612e9f565b613f06613466565b6103bc613f1560016009613175565b7f62e78cea01bee320cd4e420270b5ea74000d11b0c9f74754ebdbfc544b05a25861236d336104f7565b6103bc613efe565b6103d27f0000000000000000000000000000000000000000000000000000000000000000600b5b9061455b565b6103d27f0000000000000000000000000000000000000000000000000000000000000000600c613f6e565b905051906103bc8261039c565b90602082820312610397576103d291613f9f565b6001600160a01b039182168152911660208201526103d2926080820192909190613fec905b6040830152565b6060818403910152610439565b6131d86131d26103d29263ffffffff1690565b91614024611c4c60209361401e600090565b50610b50565b63150b7a029360003361405561403960405190565b9889968795869461404a8c60e01b90565b865260048601613fc0565b03925af16000928161409a575b5061408b5761406f6135f8565b805161407e6116fe60006112db565b14612ee857805190602001fd5b6132226131d8612f2c92613ff9565b6140bd91935060203d6020116140c4575b6140b58183610e51565b810190613fac565b9138614062565b503d6140ab565b61046d6140e3926020926140dd815190565b94859290565b93849101610416565b6140fa906103d293926140cb565b906140cb565b61410c6113118261326b565b61416157614118614584565b80516141276116fe60006112db565b14614157576103d2611bc99161413f6103d29461458e565b9061414960405190565b9384926020840192836140ec565b50506103d2612517565b630a14c4b560e41b6132eb565b6103d26080610e78565b61418061416e565b60008082526020820181905260408201819052606082015290565b6103d2614178565b6141b26103d291612aa761419b565b6145f7565b6141c030610b50565b6141f26001600160a01b037f000000000000000000000000000000000000000000000000000000000000000016611c07565b148061422a575b15614222577f000000000000000000000000000000000000000000000000000000000000000090565b6103d26146cf565b507f000000000000000000000000000000000000000000000000000000000000000046146141f9565b9060009161425f825190565b61426c6116fe60416112db565b036142965761428f92506020820151906060604084015193015160001a906143f8565b9192909190565b5090506142ae6129936142a960006117bc565b925190565b909160029190565b634e487b7160e01b600052602160045260246000fd5b600411156142d657565b6142b6565b906103bc826142cc565b6103d2906112db565b906000916142fb836142db565b614304826142db565b0361430e57505050565b61431860016142db565b614321826142db565b036143355763f645eedf60e01b8352600483fd5b61433f60026142db565b614348826142db565b03614371575061150061435b83926142e5565b63fce698f760e01b835260048301526024820190565b61438461437e60036142db565b916142db565b1461438d575050565b6335e2f38360e21b82526004820152602490fd5b5050506103d2600090565b6143b7611311612a8b565b6143bd57565b638dfc202b60e01b6000908152600490fd5b6119a26103bc94613fe56060949897956143ee608086019a6000870152565b60ff166020850152565b9091614403846142e5565b61442f6116fe7f7fffffffffffffffffffffffffffffff5d576e7357a4501ddfe92f46681b20a06112db565b116144ab57906144516020946000949361444860405190565b948594856143cf565b838052039060015afa1561149b5760005160009161446e836117bc565b6001600160a01b0381166001600160a01b038416146144975750614491836112db565b91929190565b9150916144a3906112db565b909160019190565b5050506144b860006117bc565b9160039190565b6103d260ff6112db565b805460009392916144dc6110dd836110a0565b916001811690811561113957506001146144f557505050565b6145089192939450600052602060002090565b916000925b81841061451a5750500190565b80548484015260209093019260010161450d565b906103d2916144c9565b906103bc6111729261454960405190565b9384809261452e565b6103d290614538565b908161456b6116fe6103d26144bf565b1461457a57506103d290614779565b6103d29150614552565b6103d2600d6112c8565b90602060a06040510180604052039160008352600a60018492945b03938181066030018553049283156145c5576001600a916145a9565b809350602091039203918252565b6103d260a06112db565b6145ea6103d26103d29290565b67ffffffffffffffff1690565b906103bc61460361419b565b606061468b613b05839661462961461c61212e836117af565b6001600160a01b03168652565b61465661464561464061463a6145d3565b84613a9e565b6145dd565b67ffffffffffffffff166020870152565b61467d61466161325e565b61467461466e60006112db565b91841690565b14156040870152565b614685613a94565b90613a9e565b62ffffff16910152565b909594926103bc946113b86146c0926146b96080966113a160a088019c6000890152565b6040850152565b01906001600160a01b03169052565b7f8b73c3c69bb8fe3d512ecc4cf759cc79239f7b179b0ffacaa9a75d522b39400f6147547f00000000000000000000000000000000000000000000000000000000000000007f0000000000000000000000000000000000000000000000000000000000000000611bc961474130610b50565b6040519586946020860194469286614695565b61475f611be0825190565b2090565b906103bc612b9a61477384612500565b93610e8c565b614782816147a0565b9061479561479060206112db565b614763565b918252602082015290565b6147af6147b491612fcb600090565b6142e5565b6147be60ff6112db565b166147c9601f6112db565b81116147d25790565b632cd44ac360e21b6000908152600490fdfea26469706673582212200fa5426ad3e7a6342dd43281a96f77133bef595aab11878c2420c6cae816383964736f6c634300081c0033a26469706673582212200e04b400aacf1321340e9eb87dfa40d8a0b663738ca04292253508857dfeb7b264736f6c634300081c0033",
  "linkReferences": {},
  "deployedLinkReferences": {}
}