{
  "_format": "hh-sol-artifact-1",
  "contractName": "Raffles",
  "sourceName": "contracts/Raffles.sol",
  "abi": [
    {
      "inputs": [],
      "stateMutability": "nonpayable",
      "type": "constructor"
    },
    {
      "inputs": [
        {
          "internalType": "address",
          "name": "owner",
          "type": "address"
        }
      ],
      "name": "OwnableInvalidOwner",
      "type": "error"
    },
    {
      "inputs": [
        {
          "internalType": "address",
          "name": "account",
          "type": "address"
        }
      ],
      "name": "OwnableUnauthorizedAccount",
      "type": "error"
    },
    {
      "inputs": [],
      "name": "ReentrancyGuardReentrantCall",
      "type": "error"
    },
    {
      "anonymous": false,
      "inputs": [
        {
          "indexed": true,
          "internalType": "address",
          "name": "admin",
          "type": "address"
        }
      ],
      "name": "AdminAdded",
      "type": "event"
    },
    {
      "anonymous": false,
      "inputs": [
        {
          "indexed": true,
          "internalType": "address",
          "name": "admin",
          "type": "address"
        }
      ],
      "name": "AdminRemoved",
      "type": "event"
    },
    {
      "anonymous": false,
      "inputs": [],
      "name": "ContractPaused",
      "type": "event"
    },
    {
      "anonymous": false,
      "inputs": [],
      "name": "ContractUnpaused",
      "type": "event"
    },
    {
      "anonymous": false,
      "inputs": [
        {
          "indexed": true,
          "internalType": "uint256",
          "name": "resultId",
          "type": "uint256"
        },
        {
          "indexed": true,
          "internalType": "uint256",
          "name": "raffleId",
          "type": "uint256"
        },
        {
          "indexed": true,
          "internalType": "address",
          "name": "player",
          "type": "address"
        },
        {
          "indexed": false,
          "internalType": "uint256",
          "name": "participantId",
          "type": "uint256"
        },
        {
          "indexed": false,
          "internalType": "uint256",
          "name": "prizeIndex",
          "type": "uint256"
        },
        {
          "indexed": false,
          "internalType": "bytes32",
          "name": "ticketNumber",
          "type": "bytes32"
        },
        {
          "indexed": false,
          "internalType": "uint256",
          "name": "randomValue",
          "type": "uint256"
        },
        {
          "indexed": false,
          "internalType": "uint256",
          "name": "timestamp",
          "type": "uint256"
        }
      ],
      "name": "LotteryDrawn",
      "type": "event"
    },
    {
      "anonymous": false,
      "inputs": [
        {
          "indexed": true,
          "internalType": "address",
          "name": "previousOwner",
          "type": "address"
        },
        {
          "indexed": true,
          "internalType": "address",
          "name": "newOwner",
          "type": "address"
        }
      ],
      "name": "OwnershipTransferred",
      "type": "event"
    },
    {
      "anonymous": false,
      "inputs": [
        {
          "indexed": true,
          "internalType": "uint256",
          "name": "raffleId",
          "type": "uint256"
        },
        {
          "indexed": true,
          "internalType": "address",
          "name": "player",
          "type": "address"
        },
        {
          "indexed": false,
          "internalType": "uint256",
          "name": "participantId",
          "type": "uint256"
        },
        {
          "indexed": false,
          "internalType": "bytes32",
          "name": "ticketNumber",
          "type": "bytes32"
        },
        {
          "indexed": false,
          "internalType": "uint256",
          "name": "timestamp",
          "type": "uint256"
        }
      ],
      "name": "Participated",
      "type": "event"
    },
    {
      "anonymous": false,
      "inputs": [
        {
          "indexed": true,
          "internalType": "uint256",
          "name": "raffleId",
          "type": "uint256"
        },
        {
          "indexed": true,
          "internalType": "address",
          "name": "player",
          "type": "address"
        },
        {
          "indexed": false,
          "internalType": "uint256",
          "name": "participantId",
          "type": "uint256"
        },
        {
          "indexed": false,
          "internalType": "uint256",
          "name": "prizeIndex",
          "type": "uint256"
        },
        {
          "indexed": false,
          "internalType": "uint256",
          "name": "resultId",
          "type": "uint256"
        },
        {
          "indexed": false,
          "internalType": "uint256",
          "name": "timestamp",
          "type": "uint256"
        }
      ],
      "name": "ParticipatedAndDrawn",
      "type": "event"
    },
    {
      "anonymous": false,
      "inputs": [
        {
          "indexed": true,
          "internalType": "uint256",
          "name": "raffleId",
          "type": "uint256"
        }
      ],
      "name": "RaffleCreated",
      "type": "event"
    },
    {
      "anonymous": false,
      "inputs": [
        {
          "indexed": true,
          "internalType": "uint256",
          "name": "raffleId",
          "type": "uint256"
        },
        {
          "indexed": false,
          "internalType": "bool",
          "name": "isActive",
          "type": "bool"
        },
        {
          "indexed": true,
          "internalType": "address",
          "name": "admin",
          "type": "address"
        }
      ],
      "name": "RaffleStatusChanged",
      "type": "event"
    },
    {
      "anonymous": false,
      "inputs": [
        {
          "indexed": true,
          "internalType": "uint256",
          "name": "raffleId",
          "type": "uint256"
        },
        {
          "indexed": true,
          "internalType": "address",
          "name": "player",
          "type": "address"
        },
        {
          "indexed": true,
          "internalType": "address",
          "name": "processedBy",
          "type": "address"
        },
        {
          "indexed": false,
          "internalType": "string",
          "name": "method",
          "type": "string"
        },
        {
          "indexed": false,
          "internalType": "uint256",
          "name": "timestamp",
          "type": "uint256"
        }
      ],
      "name": "RefundProcessed",
      "type": "event"
    },
    {
      "inputs": [
        {
          "internalType": "address",
          "name": "admin",
          "type": "address"
        }
      ],
      "name": "addAdmin",
      "outputs": [],
      "stateMutability": "nonpayable",
      "type": "function"
    },
    {
      "inputs": [
        {
          "internalType": "address",
          "name": "",
          "type": "address"
        }
      ],
      "name": "admins",
      "outputs": [
        {
          "internalType": "bool",
          "name": "",
          "type": "bool"
        }
      ],
      "stateMutability": "view",
      "type": "function"
    },
    {
      "inputs": [
        {
          "internalType": "uint256",
          "name": "raffleId",
          "type": "uint256"
        },
        {
          "internalType": "uint256",
          "name": "startIndex",
          "type": "uint256"
        },
        {
          "internalType": "uint256",
          "name": "maxCount",
          "type": "uint256"
        }
      ],
      "name": "batchDraw",
      "outputs": [
        {
          "internalType": "uint256[]",
          "name": "",
          "type": "uint256[]"
        }
      ],
      "stateMutability": "nonpayable",
      "type": "function"
    },
    {
      "inputs": [
        {
          "components": [
            {
              "components": [
                {
                  "internalType": "string",
                  "name": "title",
                  "type": "string"
                },
                {
                  "internalType": "string",
                  "name": "description",
                  "type": "string"
                },
                {
                  "internalType": "string",
                  "name": "imageUrl",
                  "type": "string"
                },
                {
                  "internalType": "string",
                  "name": "iconUrl",
                  "type": "string"
                },
                {
                  "components": [
                    {
                      "internalType": "enum Raffles.PrizeType",
                      "name": "prizeType",
                      "type": "uint8"
                    },
                    {
                      "internalType": "address",
                      "name": "collectionAddress",
                      "type": "address"
                    },
                    {
                      "internalType": "uint256",
                      "name": "registeredTicketQuantity",
                      "type": "uint256"
                    },
                    {
                      "internalType": "uint256",
                      "name": "pickedTicketQuantity",
                      "type": "uint256"
                    },
                    {
                      "internalType": "uint256",
                      "name": "order",
                      "type": "uint256"
                    },
                    {
                      "internalType": "uint256",
                      "name": "rarity",
                      "type": "uint256"
                    },
                    {
                      "internalType": "uint256",
                      "name": "prizeQuantity",
                      "type": "uint256"
                    },
                    {
                      "internalType": "uint256",
                      "name": "startTicketNumber",
                      "type": "uint256"
                    },
                    {
                      "internalType": "string",
                      "name": "title",
                      "type": "string"
                    },
                    {
                      "internalType": "string",
                      "name": "description",
                      "type": "string"
                    },
                    {
                      "internalType": "string",
                      "name": "imageUrl",
                      "type": "string"
                    },
                    {
                      "internalType": "string",
                      "name": "iconUrl",
                      "type": "string"
                    },
                    {
                      "internalType": "string",
                      "name": "assetId",
                      "type": "string"
                    },
                    {
                      "internalType": "uint256[]",
                      "name": "tokenIds",
                      "type": "uint256[]"
                    }
                  ],
                  "internalType": "struct Raffles.Prize",
                  "name": "bestPrize",
                  "type": "tuple"
                }
              ],
              "internalType": "struct Raffles.RaffleBasicInfo",
              "name": "basicInfo",
              "type": "tuple"
            },
            {
              "components": [
                {
                  "internalType": "uint256",
                  "name": "startDate",
                  "type": "uint256"
                },
                {
                  "internalType": "uint256",
                  "name": "endDate",
                  "type": "uint256"
                },
                {
                  "internalType": "bool",
                  "name": "instantDraw",
                  "type": "bool"
                },
                {
                  "internalType": "uint256",
                  "name": "drawDate",
                  "type": "uint256"
                }
              ],
              "internalType": "struct Raffles.RaffleTiming",
              "name": "timing",
              "type": "tuple"
            },
            {
              "components": [
                {
                  "internalType": "bool",
                  "name": "dynamicWeight",
                  "type": "bool"
                },
                {
                  "internalType": "uint256",
                  "name": "participationLimit",
                  "type": "uint256"
                },
                {
                  "internalType": "uint256",
                  "name": "participationLimitPerPlayer",
                  "type": "uint256"
                }
              ],
              "internalType": "struct Raffles.RaffleSettings",
              "name": "settings",
              "type": "tuple"
            },
            {
              "components": [
                {
                  "internalType": "string",
                  "name": "participationFeeAsset",
                  "type": "string"
                },
                {
                  "internalType": "string",
                  "name": "participationFeeAssetId",
                  "type": "string"
                },
                {
                  "internalType": "int256",
                  "name": "participationFeeAmount",
                  "type": "int256"
                }
              ],
              "internalType": "struct Raffles.RaffleFee",
              "name": "fee",
              "type": "tuple"
            },
            {
              "components": [
                {
                  "internalType": "enum Raffles.PrizeType",
                  "name": "prizeType",
                  "type": "uint8"
                },
                {
                  "internalType": "address",
                  "name": "collectionAddress",
                  "type": "address"
                },
                {
                  "internalType": "uint256",
                  "name": "registeredTicketQuantity",
                  "type": "uint256"
                },
                {
                  "internalType": "uint256",
                  "name": "pickedTicketQuantity",
                  "type": "uint256"
                },
                {
                  "internalType": "uint256",
                  "name": "order",
                  "type": "uint256"
                },
                {
                  "internalType": "uint256",
                  "name": "rarity",
                  "type": "uint256"
                },
                {
                  "internalType": "uint256",
                  "name": "prizeQuantity",
                  "type": "uint256"
                },
                {
                  "internalType": "uint256",
                  "name": "startTicketNumber",
                  "type": "uint256"
                },
                {
                  "internalType": "string",
                  "name": "title",
                  "type": "string"
                },
                {
                  "internalType": "string",
                  "name": "description",
                  "type": "string"
                },
                {
                  "internalType": "string",
                  "name": "imageUrl",
                  "type": "string"
                },
                {
                  "internalType": "string",
                  "name": "iconUrl",
                  "type": "string"
                },
                {
                  "internalType": "string",
                  "name": "assetId",
                  "type": "string"
                },
                {
                  "internalType": "uint256[]",
                  "name": "tokenIds",
                  "type": "uint256[]"
                }
              ],
              "internalType": "struct Raffles.Prize[]",
              "name": "prizes",
              "type": "tuple[]"
            }
          ],
          "internalType": "struct Raffles.RaffleCreateParams",
          "name": "params",
          "type": "tuple"
        }
      ],
      "name": "createRaffle",
      "outputs": [
        {
          "internalType": "uint256",
          "name": "",
          "type": "uint256"
        }
      ],
      "stateMutability": "nonpayable",
      "type": "function"
    },
    {
      "inputs": [
        {
          "internalType": "uint256",
          "name": "raffleId",
          "type": "uint256"
        },
        {
          "internalType": "uint256",
          "name": "participantId",
          "type": "uint256"
        }
      ],
      "name": "draw",
      "outputs": [
        {
          "internalType": "uint256",
          "name": "",
          "type": "uint256"
        }
      ],
      "stateMutability": "nonpayable",
      "type": "function"
    },
    {
      "inputs": [
        {
          "internalType": "uint256",
          "name": "resultId",
          "type": "uint256"
        }
      ],
      "name": "getLotteryResult",
      "outputs": [
        {
          "components": [
            {
              "internalType": "address",
              "name": "player",
              "type": "address"
            },
            {
              "internalType": "bool",
              "name": "claimed",
              "type": "bool"
            },
            {
              "internalType": "bytes32",
              "name": "lotteryTicketNumber",
              "type": "bytes32"
            },
            {
              "internalType": "uint256",
              "name": "raffleId",
              "type": "uint256"
            },
            {
              "internalType": "uint256",
              "name": "prizeIndex",
              "type": "uint256"
            },
            {
              "internalType": "uint256",
              "name": "drawnAt",
              "type": "uint256"
            },
            {
              "internalType": "uint256",
              "name": "claimedAt",
              "type": "uint256"
            }
          ],
          "internalType": "struct Raffles.LotteryResult",
          "name": "",
          "type": "tuple"
        }
      ],
      "stateMutability": "view",
      "type": "function"
    },
    {
      "inputs": [
        {
          "internalType": "uint256",
          "name": "raffleId",
          "type": "uint256"
        }
      ],
      "name": "getRaffle",
      "outputs": [
        {
          "components": [
            {
              "components": [
                {
                  "internalType": "string",
                  "name": "title",
                  "type": "string"
                },
                {
                  "internalType": "string",
                  "name": "description",
                  "type": "string"
                },
                {
                  "internalType": "string",
                  "name": "imageUrl",
                  "type": "string"
                },
                {
                  "internalType": "string",
                  "name": "iconUrl",
                  "type": "string"
                },
                {
                  "components": [
                    {
                      "internalType": "enum Raffles.PrizeType",
                      "name": "prizeType",
                      "type": "uint8"
                    },
                    {
                      "internalType": "address",
                      "name": "collectionAddress",
                      "type": "address"
                    },
                    {
                      "internalType": "uint256",
                      "name": "registeredTicketQuantity",
                      "type": "uint256"
                    },
                    {
                      "internalType": "uint256",
                      "name": "pickedTicketQuantity",
                      "type": "uint256"
                    },
                    {
                      "internalType": "uint256",
                      "name": "order",
                      "type": "uint256"
                    },
                    {
                      "internalType": "uint256",
                      "name": "rarity",
                      "type": "uint256"
                    },
                    {
                      "internalType": "uint256",
                      "name": "prizeQuantity",
                      "type": "uint256"
                    },
                    {
                      "internalType": "uint256",
                      "name": "startTicketNumber",
                      "type": "uint256"
                    },
                    {
                      "internalType": "string",
                      "name": "title",
                      "type": "string"
                    },
                    {
                      "internalType": "string",
                      "name": "description",
                      "type": "string"
                    },
                    {
                      "internalType": "string",
                      "name": "imageUrl",
                      "type": "string"
                    },
                    {
                      "internalType": "string",
                      "name": "iconUrl",
                      "type": "string"
                    },
                    {
                      "internalType": "string",
                      "name": "assetId",
                      "type": "string"
                    },
                    {
                      "internalType": "uint256[]",
                      "name": "tokenIds",
                      "type": "uint256[]"
                    }
                  ],
                  "internalType": "struct Raffles.Prize",
                  "name": "bestPrize",
                  "type": "tuple"
                }
              ],
              "internalType": "struct Raffles.RaffleBasicInfo",
              "name": "basicInfo",
              "type": "tuple"
            },
            {
              "components": [
                {
                  "internalType": "uint256",
                  "name": "startDate",
                  "type": "uint256"
                },
                {
                  "internalType": "uint256",
                  "name": "endDate",
                  "type": "uint256"
                },
                {
                  "internalType": "bool",
                  "name": "instantDraw",
                  "type": "bool"
                },
                {
                  "internalType": "uint256",
                  "name": "drawDate",
                  "type": "uint256"
                }
              ],
              "internalType": "struct Raffles.RaffleTiming",
              "name": "timing",
              "type": "tuple"
            },
            {
              "components": [
                {
                  "internalType": "bool",
                  "name": "dynamicWeight",
                  "type": "bool"
                },
                {
                  "internalType": "uint256",
                  "name": "participationLimit",
                  "type": "uint256"
                },
                {
                  "internalType": "uint256",
                  "name": "participationLimitPerPlayer",
                  "type": "uint256"
                }
              ],
              "internalType": "struct Raffles.RaffleSettings",
              "name": "settings",
              "type": "tuple"
            },
            {
              "components": [
                {
                  "internalType": "string",
                  "name": "participationFeeAsset",
                  "type": "string"
                },
                {
                  "internalType": "string",
                  "name": "participationFeeAssetId",
                  "type": "string"
                },
                {
                  "internalType": "int256",
                  "name": "participationFeeAmount",
                  "type": "int256"
                }
              ],
              "internalType": "struct Raffles.RaffleFee",
              "name": "fee",
              "type": "tuple"
            },
            {
              "components": [
                {
                  "internalType": "bool",
                  "name": "isActive",
                  "type": "bool"
                },
                {
                  "internalType": "bool",
                  "name": "isDrawn",
                  "type": "bool"
                },
                {
                  "internalType": "uint256",
                  "name": "totalQuantity",
                  "type": "uint256"
                },
                {
                  "internalType": "uint256",
                  "name": "drawnParticipantCount",
                  "type": "uint256"
                }
              ],
              "internalType": "struct Raffles.RaffleStatus",
              "name": "status",
              "type": "tuple"
            },
            {
              "components": [
                {
                  "internalType": "enum Raffles.PrizeType",
                  "name": "prizeType",
                  "type": "uint8"
                },
                {
                  "internalType": "address",
                  "name": "collectionAddress",
                  "type": "address"
                },
                {
                  "internalType": "uint256",
                  "name": "registeredTicketQuantity",
                  "type": "uint256"
                },
                {
                  "internalType": "uint256",
                  "name": "pickedTicketQuantity",
                  "type": "uint256"
                },
                {
                  "internalType": "uint256",
                  "name": "order",
                  "type": "uint256"
                },
                {
                  "internalType": "uint256",
                  "name": "rarity",
                  "type": "uint256"
                },
                {
                  "internalType": "uint256",
                  "name": "prizeQuantity",
                  "type": "uint256"
                },
                {
                  "internalType": "uint256",
                  "name": "startTicketNumber",
                  "type": "uint256"
                },
                {
                  "internalType": "string",
                  "name": "title",
                  "type": "string"
                },
                {
                  "internalType": "string",
                  "name": "description",
                  "type": "string"
                },
                {
                  "internalType": "string",
                  "name": "imageUrl",
                  "type": "string"
                },
                {
                  "internalType": "string",
                  "name": "iconUrl",
                  "type": "string"
                },
                {
                  "internalType": "string",
                  "name": "assetId",
                  "type": "string"
                },
                {
                  "internalType": "uint256[]",
                  "name": "tokenIds",
                  "type": "uint256[]"
                }
              ],
              "internalType": "struct Raffles.Prize[]",
              "name": "prizes",
              "type": "tuple[]"
            }
          ],
          "internalType": "struct Raffles.Raffle",
          "name": "",
          "type": "tuple"
        }
      ],
      "stateMutability": "view",
      "type": "function"
    },
    {
      "inputs": [
        {
          "internalType": "uint256",
          "name": "raffleId",
          "type": "uint256"
        }
      ],
      "name": "getRaffleCoreInfo",
      "outputs": [
        {
          "components": [
            {
              "internalType": "string",
              "name": "title",
              "type": "string"
            },
            {
              "internalType": "string",
              "name": "imageUrl",
              "type": "string"
            },
            {
              "internalType": "string",
              "name": "iconUrl",
              "type": "string"
            },
            {
              "internalType": "uint256",
              "name": "startDate",
              "type": "uint256"
            },
            {
              "internalType": "uint256",
              "name": "endDate",
              "type": "uint256"
            },
            {
              "internalType": "uint256",
              "name": "drawDate",
              "type": "uint256"
            },
            {
              "internalType": "bool",
              "name": "instantDraw",
              "type": "bool"
            },
            {
              "internalType": "uint256",
              "name": "participationLimit",
              "type": "uint256"
            },
            {
              "internalType": "uint256",
              "name": "participationLimitPerPlayer",
              "type": "uint256"
            },
            {
              "internalType": "string",
              "name": "participationFeeAssetId",
              "type": "string"
            },
            {
              "internalType": "int256",
              "name": "participationFeeAmount",
              "type": "int256"
            },
            {
              "internalType": "uint256",
              "name": "raffleId",
              "type": "uint256"
            },
            {
              "internalType": "bool",
              "name": "isActive",
              "type": "bool"
            },
            {
              "internalType": "bool",
              "name": "isDrawn",
              "type": "bool"
            },
            {
              "internalType": "uint256",
              "name": "totalQuantity",
              "type": "uint256"
            },
            {
              "internalType": "uint256",
              "name": "participationCount",
              "type": "uint256"
            },
            {
              "components": [
                {
                  "internalType": "enum Raffles.PrizeType",
                  "name": "prizeType",
                  "type": "uint8"
                },
                {
                  "internalType": "address",
                  "name": "collectionAddress",
                  "type": "address"
                },
                {
                  "internalType": "uint256",
                  "name": "registeredTicketQuantity",
                  "type": "uint256"
                },
                {
                  "internalType": "uint256",
                  "name": "pickedTicketQuantity",
                  "type": "uint256"
                },
                {
                  "internalType": "uint256",
                  "name": "order",
                  "type": "uint256"
                },
                {
                  "internalType": "uint256",
                  "name": "rarity",
                  "type": "uint256"
                },
                {
                  "internalType": "uint256",
                  "name": "prizeQuantity",
                  "type": "uint256"
                },
                {
                  "internalType": "uint256",
                  "name": "startTicketNumber",
                  "type": "uint256"
                },
                {
                  "internalType": "string",
                  "name": "title",
                  "type": "string"
                },
                {
                  "internalType": "string",
                  "name": "description",
                  "type": "string"
                },
                {
                  "internalType": "string",
                  "name": "imageUrl",
                  "type": "string"
                },
                {
                  "internalType": "string",
                  "name": "iconUrl",
                  "type": "string"
                },
                {
                  "internalType": "string",
                  "name": "assetId",
                  "type": "string"
                },
                {
                  "internalType": "uint256[]",
                  "name": "tokenIds",
                  "type": "uint256[]"
                }
              ],
              "internalType": "struct Raffles.Prize",
              "name": "defaultBestPrize",
              "type": "tuple"
            },
            {
              "components": [
                {
                  "internalType": "enum Raffles.PrizeType",
                  "name": "prizeType",
                  "type": "uint8"
                },
                {
                  "internalType": "address",
                  "name": "collectionAddress",
                  "type": "address"
                },
                {
                  "internalType": "uint256",
                  "name": "registeredTicketQuantity",
                  "type": "uint256"
                },
                {
                  "internalType": "uint256",
                  "name": "pickedTicketQuantity",
                  "type": "uint256"
                },
                {
                  "internalType": "uint256",
                  "name": "order",
                  "type": "uint256"
                },
                {
                  "internalType": "uint256",
                  "name": "rarity",
                  "type": "uint256"
                },
                {
                  "internalType": "uint256",
                  "name": "prizeQuantity",
                  "type": "uint256"
                },
                {
                  "internalType": "uint256",
                  "name": "startTicketNumber",
                  "type": "uint256"
                },
                {
                  "internalType": "string",
                  "name": "title",
                  "type": "string"
                },
                {
                  "internalType": "string",
                  "name": "description",
                  "type": "string"
                },
                {
                  "internalType": "string",
                  "name": "imageUrl",
                  "type": "string"
                },
                {
                  "internalType": "string",
                  "name": "iconUrl",
                  "type": "string"
                },
                {
                  "internalType": "string",
                  "name": "assetId",
                  "type": "string"
                },
                {
                  "internalType": "uint256[]",
                  "name": "tokenIds",
                  "type": "uint256[]"
                }
              ],
              "internalType": "struct Raffles.Prize",
              "name": "currentBestPrize",
              "type": "tuple"
            }
          ],
          "internalType": "struct Raffles.RaffleCoreInfo",
          "name": "",
          "type": "tuple"
        }
      ],
      "stateMutability": "view",
      "type": "function"
    },
    {
      "inputs": [
        {
          "internalType": "uint256",
          "name": "raffleId",
          "type": "uint256"
        }
      ],
      "name": "getRaffleParticipants",
      "outputs": [
        {
          "internalType": "uint256[]",
          "name": "",
          "type": "uint256[]"
        }
      ],
      "stateMutability": "view",
      "type": "function"
    },
    {
      "inputs": [
        {
          "internalType": "uint256",
          "name": "raffleId",
          "type": "uint256"
        },
        {
          "internalType": "address",
          "name": "player",
          "type": "address"
        }
      ],
      "name": "getUserParticipationDetails",
      "outputs": [
        {
          "components": [
            {
              "internalType": "uint256",
              "name": "participationCount",
              "type": "uint256"
            },
            {
              "components": [
                {
                  "internalType": "uint256",
                  "name": "participantId",
                  "type": "uint256"
                },
                {
                  "internalType": "bytes32",
                  "name": "ticketNumber",
                  "type": "bytes32"
                },
                {
                  "internalType": "uint256",
                  "name": "participatedAt",
                  "type": "uint256"
                },
                {
                  "internalType": "bool",
                  "name": "hasLotteryResult",
                  "type": "bool"
                },
                {
                  "internalType": "uint256",
                  "name": "resultId",
                  "type": "uint256"
                },
                {
                  "internalType": "uint256",
                  "name": "prizeIndex",
                  "type": "uint256"
                },
                {
                  "internalType": "bool",
                  "name": "claimed",
                  "type": "bool"
                },
                {
                  "internalType": "uint256",
                  "name": "drawnAt",
                  "type": "uint256"
                },
                {
                  "internalType": "uint256",
                  "name": "claimedAt",
                  "type": "uint256"
                }
              ],
              "internalType": "struct Raffles.UserParticipationDetail[]",
              "name": "participations",
              "type": "tuple[]"
            }
          ],
          "internalType": "struct Raffles.UserParticipationInfo",
          "name": "",
          "type": "tuple"
        }
      ],
      "stateMutability": "view",
      "type": "function"
    },
    {
      "inputs": [
        {
          "internalType": "address",
          "name": "account",
          "type": "address"
        }
      ],
      "name": "isAdmin",
      "outputs": [
        {
          "internalType": "bool",
          "name": "",
          "type": "bool"
        }
      ],
      "stateMutability": "view",
      "type": "function"
    },
    {
      "inputs": [
        {
          "internalType": "uint256",
          "name": "",
          "type": "uint256"
        }
      ],
      "name": "lotteryResults",
      "outputs": [
        {
          "internalType": "address",
          "name": "player",
          "type": "address"
        },
        {
          "internalType": "bool",
          "name": "claimed",
          "type": "bool"
        },
        {
          "internalType": "bytes32",
          "name": "lotteryTicketNumber",
          "type": "bytes32"
        },
        {
          "internalType": "uint256",
          "name": "raffleId",
          "type": "uint256"
        },
        {
          "internalType": "uint256",
          "name": "prizeIndex",
          "type": "uint256"
        },
        {
          "internalType": "uint256",
          "name": "drawnAt",
          "type": "uint256"
        },
        {
          "internalType": "uint256",
          "name": "claimedAt",
          "type": "uint256"
        }
      ],
      "stateMutability": "view",
      "type": "function"
    },
    {
      "inputs": [],
      "name": "owner",
      "outputs": [
        {
          "internalType": "address",
          "name": "",
          "type": "address"
        }
      ],
      "stateMutability": "view",
      "type": "function"
    },
    {
      "inputs": [
        {
          "internalType": "uint256",
          "name": "",
          "type": "uint256"
        }
      ],
      "name": "participants",
      "outputs": [
        {
          "internalType": "address",
          "name": "player",
          "type": "address"
        },
        {
          "internalType": "uint256",
          "name": "raffleId",
          "type": "uint256"
        },
        {
          "internalType": "bytes32",
          "name": "lotteryTicketNumber",
          "type": "bytes32"
        },
        {
          "internalType": "uint256",
          "name": "participatedAt",
          "type": "uint256"
        }
      ],
      "stateMutability": "view",
      "type": "function"
    },
    {
      "inputs": [
        {
          "internalType": "uint256",
          "name": "raffleId",
          "type": "uint256"
        },
        {
          "internalType": "address",
          "name": "player",
          "type": "address"
        }
      ],
      "name": "participate",
      "outputs": [
        {
          "internalType": "uint256",
          "name": "",
          "type": "uint256"
        }
      ],
      "stateMutability": "nonpayable",
      "type": "function"
    },
    {
      "inputs": [
        {
          "internalType": "uint256",
          "name": "raffleId",
          "type": "uint256"
        },
        {
          "internalType": "address",
          "name": "player",
          "type": "address"
        }
      ],
      "name": "participateAndDraw",
      "outputs": [
        {
          "internalType": "uint256",
          "name": "participantId",
          "type": "uint256"
        },
        {
          "internalType": "uint256",
          "name": "prizeIndex",
          "type": "uint256"
        },
        {
          "internalType": "uint256",
          "name": "resultId",
          "type": "uint256"
        }
      ],
      "stateMutability": "nonpayable",
      "type": "function"
    },
    {
      "inputs": [],
      "name": "paused",
      "outputs": [
        {
          "internalType": "bool",
          "name": "",
          "type": "bool"
        }
      ],
      "stateMutability": "view",
      "type": "function"
    },
    {
      "inputs": [
        {
          "internalType": "uint256",
          "name": "",
          "type": "uint256"
        },
        {
          "internalType": "address",
          "name": "",
          "type": "address"
        },
        {
          "internalType": "uint256",
          "name": "",
          "type": "uint256"
        }
      ],
      "name": "playerParticipantIds",
      "outputs": [
        {
          "internalType": "uint256",
          "name": "",
          "type": "uint256"
        }
      ],
      "stateMutability": "view",
      "type": "function"
    },
    {
      "inputs": [
        {
          "internalType": "uint256",
          "name": "",
          "type": "uint256"
        },
        {
          "internalType": "address",
          "name": "",
          "type": "address"
        }
      ],
      "name": "playerParticipationCount",
      "outputs": [
        {
          "internalType": "uint256",
          "name": "",
          "type": "uint256"
        }
      ],
      "stateMutability": "view",
      "type": "function"
    },
    {
      "inputs": [
        {
          "internalType": "uint256",
          "name": "raffleId",
          "type": "uint256"
        },
        {
          "internalType": "address",
          "name": "player",
          "type": "address"
        },
        {
          "internalType": "string",
          "name": "method",
          "type": "string"
        }
      ],
      "name": "processRefund",
      "outputs": [],
      "stateMutability": "nonpayable",
      "type": "function"
    },
    {
      "inputs": [
        {
          "internalType": "uint256",
          "name": "",
          "type": "uint256"
        },
        {
          "internalType": "uint256",
          "name": "",
          "type": "uint256"
        }
      ],
      "name": "raffleParticipants",
      "outputs": [
        {
          "internalType": "uint256",
          "name": "",
          "type": "uint256"
        }
      ],
      "stateMutability": "view",
      "type": "function"
    },
    {
      "inputs": [
        {
          "internalType": "uint256",
          "name": "",
          "type": "uint256"
        }
      ],
      "name": "raffles",
      "outputs": [
        {
          "components": [
            {
              "internalType": "string",
              "name": "title",
              "type": "string"
            },
            {
              "internalType": "string",
              "name": "description",
              "type": "string"
            },
            {
              "internalType": "string",
              "name": "imageUrl",
              "type": "string"
            },
            {
              "internalType": "string",
              "name": "iconUrl",
              "type": "string"
            },
            {
              "components": [
                {
                  "internalType": "enum Raffles.PrizeType",
                  "name": "prizeType",
                  "type": "uint8"
                },
                {
                  "internalType": "address",
                  "name": "collectionAddress",
                  "type": "address"
                },
                {
                  "internalType": "uint256",
                  "name": "registeredTicketQuantity",
                  "type": "uint256"
                },
                {
                  "internalType": "uint256",
                  "name": "pickedTicketQuantity",
                  "type": "uint256"
                },
                {
                  "internalType": "uint256",
                  "name": "order",
                  "type": "uint256"
                },
                {
                  "internalType": "uint256",
                  "name": "rarity",
                  "type": "uint256"
                },
                {
                  "internalType": "uint256",
                  "name": "prizeQuantity",
                  "type": "uint256"
                },
                {
                  "internalType": "uint256",
                  "name": "startTicketNumber",
                  "type": "uint256"
                },
                {
                  "internalType": "string",
                  "name": "title",
                  "type": "string"
                },
                {
                  "internalType": "string",
                  "name": "description",
                  "type": "string"
                },
                {
                  "internalType": "string",
                  "name": "imageUrl",
                  "type": "string"
                },
                {
                  "internalType": "string",
                  "name": "iconUrl",
                  "type": "string"
                },
                {
                  "internalType": "string",
                  "name": "assetId",
                  "type": "string"
                },
                {
                  "internalType": "uint256[]",
                  "name": "tokenIds",
                  "type": "uint256[]"
                }
              ],
              "internalType": "struct Raffles.Prize",
              "name": "bestPrize",
              "type": "tuple"
            }
          ],
          "internalType": "struct Raffles.RaffleBasicInfo",
          "name": "basicInfo",
          "type": "tuple"
        },
        {
          "components": [
            {
              "internalType": "uint256",
              "name": "startDate",
              "type": "uint256"
            },
            {
              "internalType": "uint256",
              "name": "endDate",
              "type": "uint256"
            },
            {
              "internalType": "bool",
              "name": "instantDraw",
              "type": "bool"
            },
            {
              "internalType": "uint256",
              "name": "drawDate",
              "type": "uint256"
            }
          ],
          "internalType": "struct Raffles.RaffleTiming",
          "name": "timing",
          "type": "tuple"
        },
        {
          "components": [
            {
              "internalType": "bool",
              "name": "dynamicWeight",
              "type": "bool"
            },
            {
              "internalType": "uint256",
              "name": "participationLimit",
              "type": "uint256"
            },
            {
              "internalType": "uint256",
              "name": "participationLimitPerPlayer",
              "type": "uint256"
            }
          ],
          "internalType": "struct Raffles.RaffleSettings",
          "name": "settings",
          "type": "tuple"
        },
        {
          "components": [
            {
              "internalType": "string",
              "name": "participationFeeAsset",
              "type": "string"
            },
            {
              "internalType": "string",
              "name": "participationFeeAssetId",
              "type": "string"
            },
            {
              "internalType": "int256",
              "name": "participationFeeAmount",
              "type": "int256"
            }
          ],
          "internalType": "struct Raffles.RaffleFee",
          "name": "fee",
          "type": "tuple"
        },
        {
          "components": [
            {
              "internalType": "bool",
              "name": "isActive",
              "type": "bool"
            },
            {
              "internalType": "bool",
              "name": "isDrawn",
              "type": "bool"
            },
            {
              "internalType": "uint256",
              "name": "totalQuantity",
              "type": "uint256"
            },
            {
              "internalType": "uint256",
              "name": "drawnParticipantCount",
              "type": "uint256"
            }
          ],
          "internalType": "struct Raffles.RaffleStatus",
          "name": "status",
          "type": "tuple"
        }
      ],
      "stateMutability": "view",
      "type": "function"
    },
    {
      "inputs": [
        {
          "internalType": "address",
          "name": "admin",
          "type": "address"
        }
      ],
      "name": "removeAdmin",
      "outputs": [],
      "stateMutability": "nonpayable",
      "type": "function"
    },
    {
      "inputs": [],
      "name": "renounceOwnership",
      "outputs": [],
      "stateMutability": "nonpayable",
      "type": "function"
    },
    {
      "inputs": [
        {
          "internalType": "bool",
          "name": "_paused",
          "type": "bool"
        }
      ],
      "name": "setPaused",
      "outputs": [],
      "stateMutability": "nonpayable",
      "type": "function"
    },
    {
      "inputs": [
        {
          "internalType": "uint256",
          "name": "raffleId",
          "type": "uint256"
        },
        {
          "internalType": "bool",
          "name": "_isActive",
          "type": "bool"
        }
      ],
      "name": "setRaffleActive",
      "outputs": [],
      "stateMutability": "nonpayable",
      "type": "function"
    },
    {
      "inputs": [
        {
          "internalType": "bytes32",
          "name": "",
          "type": "bytes32"
        }
      ],
      "name": "ticketToResultId",
      "outputs": [
        {
          "internalType": "uint256",
          "name": "",
          "type": "uint256"
        }
      ],
      "stateMutability": "view",
      "type": "function"
    },
    {
      "inputs": [
        {
          "internalType": "address",
          "name": "newOwner",
          "type": "address"
        }
      ],
      "name": "transferOwnership",
      "outputs": [],
      "stateMutability": "nonpayable",
      "type": "function"
    }
  ],
  "bytecode": "0x608060405234610022576100116100d1565b60405161542761024c823961542790f35b600080fd5b90600019905b9181191691161790565b6100446100446100449290565b90565b9061005761004461005e92610037565b8254610027565b9055565b61004490610076906001600160a01b031682565b6001600160a01b031690565b61004490610062565b61004490610082565b9061009e9061008b565b600052602052604060002090565b9060ff9061002d565b151590565b906100ca61004461005e926100b5565b82546100ac565b6100da33610145565b61011060016100ea816003610047565b6100f5816005610047565b61010081600b610047565b61010b33600d610094565b6100ba565b565b6100766100446100449290565b61004490610112565b61013190610076565b9052565b6020810192916101109190610128565b61014d610197565b60006101588161011f565b61016181610076565b61016a84610076565b1461017a575050610110906101f4565b631e4fbdf760e01b825281906101939060048301610135565b0390fd5b6101106101a9565b6100446001610037565b6101106101b461019f565b6000610047565b61004490610076565b61004490546101bb565b906001600160a01b039061002d565b906101ed61004461005e9261008b565b82546101ce565b61021a61021461020460016101c4565b61020f8460016101dd565b61008b565b9161008b565b907f8be0079c531659141344cd1fd0a4f28419497f9722a3daafe3b4186f6b6457e061024560405190565b600090a356fe610100604052600436101561001357600080fd5b60003560e01c806309b50a07146101d357806313b18640146101ce57806316c38b3c146101c95780631785f53c146101c45780631b43d038146101bf57806324d7806c146101ba57806335c1d349146101b55780633f35c93b146101b0578063429b62e5146101ab5780635c975abb146101a65780635d4bc0ce146101a1578063704802751461019c578063715018a6146101975780637cafa47a146101925780638772d2dd1461018d5780638d5a8e70146101885780638da5cb5b1461018357806390409bd51461017e5780639d06f11214610179578063a6e3295b14610174578063b08b3a511461016f578063b1ddd82a1461016a578063cc7a2a0414610165578063d2b8035a14610160578063e354c3581461015b578063e4dafec914610156578063f2fde38b146101515763fbb7c22d036101d857611c0c565b611be0565b611bb9565b611a9b565b611a56565b611a2f565b6118c0565b611865565b61178c565b611724565b6116ba565b611590565b611574565b6114af565b611415565b6113df565b6113c7565b611396565b610b36565b610b04565b610a8a565b610a36565b610968565b61094d565b61033b565b61030a565b6102c5565b61024b565b600080fd5b805b036101d857565b905035906101f3826101dd565b565b906020828203126101d857610209916101e6565b90565b905b600052602052604060002090565b610209916008021c81565b90610209915461021c565b600061024261020992600961020c565b610227565b9052565b346101d8576102766102666102613660046101f5565b610232565b6040519182918290815260200190565b0390f35b6001600160a01b031690565b6001600160a01b0381166101df565b905035906101f382610286565b91906040838203126101d8576102099060206102be82866101e6565b9401610295565b346101d8576102766102666102db3660046102a2565b90611f4a565b8015156101df565b905035906101f3826102e1565b906020828203126101d857610209916102e9565b346101d85761032261031d3660046102f6565b611ff1565b604051005b906020828203126101d85761020991610295565b346101d85761032261034e366004610327565b6121a4565b634e487b7160e01b600052604160045260246000fd5b90601f01601f1916810190811067ffffffffffffffff82111761038b57604052565b610353565b906101f361039d60405190565b9283610369565b67ffffffffffffffff811161038b57602090601f01601f19160190565b0190565b90826000939282370152565b909291926103e66103e1826103a4565b610390565b93818552818301116101d8576101f39160208501906103c5565b9080601f830112156101d857816020610209933591016103d1565b600411156101d857565b905035906101f38261041b565b67ffffffffffffffff811161038b5760208091020190565b9092919261045a6103e182610432565b93818552602080860192028301928184116101d857915b83831061047e5750505050565b6020809161048c84866101e6565b815201920191610471565b9080601f830112156101d8578160206102099335910161044a565b9190916101c0818403126101d8576104cb6101c0610390565b926104d68183610425565b84526104e58160208401610295565b60208501526104f781604084016101e6565b604085015261050981606084016101e6565b606085015261051b81608084016101e6565b608085015261052d8160a084016101e6565b60a085015261053f8160c084016101e6565b60c08501526105518160e084016101e6565b60e085015261010082013567ffffffffffffffff81116101d85781610577918401610400565b61010085015261012082013567ffffffffffffffff81116101d8578161059e918401610400565b61012085015261014082013567ffffffffffffffff81116101d857816105c5918401610400565b61014085015261016082013567ffffffffffffffff81116101d857816105ec918401610400565b61016085015261018082013567ffffffffffffffff81116101d85781610613918401610400565b6101808501526101a082013567ffffffffffffffff81116101d8576106389201610497565b6101a0830152565b91909160a0818403126101d85761065760a0610390565b92813567ffffffffffffffff81116101d85781610675918401610400565b8452602082013567ffffffffffffffff81116101d85781610697918401610400565b6020850152604082013567ffffffffffffffff81116101d857816106bc918401610400565b6040850152606082013567ffffffffffffffff81116101d857816106e1918401610400565b6060850152608082013567ffffffffffffffff81116101d85761070492016104b2565b6080830152565b91906080838203126101d85761075e9060606107276080610390565b9461073283826101e6565b865261074183602083016101e6565b602087015261075383604083016102e9565b6040870152016101e6565b6060830152565b91906060838203126101d8576107a69060406107816060610390565b9461078c83826102e9565b865261079b83602083016101e6565b6020870152016101e6565b6040830152565b9190916060818403126101d8576107c46060610390565b92813567ffffffffffffffff81116101d857816107e2918401610400565b8452602082013567ffffffffffffffff81116101d8578261079b836040936107a69601610400565b9291906108196103e182610432565b93818552602080860192028101918383116101d85781905b83821061083f575050505050565b813567ffffffffffffffff81116101d85760209161086087849387016104b2565b815201910190610831565b9080601f830112156101d8578160206102099335910161080a565b919091610140818403126101d85761089e60a0610390565b92813567ffffffffffffffff81116101d857816108bc918401610640565b84526108cb816020840161070b565b60208501526108dd8160a08401610765565b604085015261010082013567ffffffffffffffff81116101d857816109039184016107ad565b606085015261012082013567ffffffffffffffff81116101d857610704920161086b565b906020828203126101d857813567ffffffffffffffff81116101d8576102099201610886565b346101d857610276610266610963366004610927565b612a3d565b346101d85761027661098361097e366004610327565b612a48565b6040515b91829182901515815260200190565b6102096102096102099290565b9061020e90610996565b6102099081565b61020990546109ad565b6109c99060046109a3565b906109db82546001600160a01b031690565b916109e8600182016109b4565b9161020960036109fa600285016109b4565b93016109b4565b610a326101f3946107a6606094989795610a2b608086019a60008701906001600160a01b03169052565b6020850152565b0152565b346101d857610276610a51610a4c3660046101f5565b6109be565b90610a5e94929460405190565b94859485610a01565b91906040838203126101d857610209906020610a8382866101e6565b94016102e9565b346101d857610322610a9d366004610a67565b90612c08565b61027a610209610209926001600160a01b031690565b61020990610aa3565b61020990610ab9565b9061020e90610ac2565b610209916008021c5b60ff1690565b906102099154610ad5565b6000610aff61020992600d610acb565b610ae4565b346101d857610276610983610b1a366004610327565b610aef565b60009103126101d857565b6102096000600c610ae4565b346101d857610b46366004610b1f565b610276610983610b2a565b634e487b7160e01b600052602260045260246000fd5b9060016002830492168015610b87575b6020831014610b8257565b610b51565b91607f1691610b77565b80546000939291610bae610ba483610b67565b8085529360200190565b9160018116908115610c005750600114610bc757505050565b610bda9192939450600052602060002090565b916000925b818410610bec5750500190565b805484840152602090930192600101610bdf565b92949550505060ff1916825215156020020190565b9061020991610b91565b906101f3610c3992610c3060405190565b93848092610c15565b0383610369565b61020990610ade565b6102099054610c40565b634e487b7160e01b600052602160045260246000fd5b60041115610c7357565b610c53565b906101f382610c69565b9061024790610c78565b6102099060081c61027a565b6102099054610c8c565b90610cc7610cbb610cb1845490565b8084529260200190565b92600052602060002090565b9060005b818110610cd85750505090565b909192610cfc610cf5600192610ced876109b4565b815260200190565b9460010190565b929101610ccb565b9061020991610ca2565b906101f3610c3992610d1f60405190565b93848092610d04565b6102096101c0610390565b906101f3610e70600c610d44610d28565b94610d57610d5182610c49565b87610c82565b610d73610d6382610c98565b6001600160a01b03166020880152565b610d89610d82600183016109b4565b6040880152565b610d9f610d98600283016109b4565b6060880152565b610db5610dae600383016109b4565b6080880152565b610dcb610dc4600483016109b4565b60a0880152565b610de1610dda600583016109b4565b60c0880152565b610df7610df0600683016109b4565b60e0880152565b610e0e610e0660078301610c1f565b610100880152565b610e25610e1d60088301610c1f565b610120880152565b610e3c610e3460098301610c1f565b610140880152565b610e53610e4b600a8301610c1f565b610160880152565b610e6a610e62600b8301610c1f565b610180880152565b01610d0e565b6101a0840152565b61020960a0610390565b906101f3610ede6004610e93610e78565b94610ea4610ea082610c1f565b8752565b610eba610eb360018301610c1f565b6020880152565b610ec9610d8260028301610c1f565b610ed8610d9860038301610c1f565b01610d33565b6080840152565b6102096080610390565b906101f3610f3a6003610f00610ee5565b94610f0d610ea0826109b4565b610f1c610eb3600183016109b4565b610f34610f2b60028301610c49565b15156040880152565b016109b4565b6060840152565b6102096060610390565b906101f3610f7e6002610f5c610f41565b94610f6f610f6982610c49565b15158752565b610f34610eb3600183016109b4565b6040840152565b906101f3610f7e6002610f96610f41565b94610fa3610ea082610c1f565b610f34610eb360018301610c1f565b6102099060081c610ade565b6102099054610fb2565b906101f3610f3a6002610fd9610ee5565b94610fe6610f6982610c49565b610ffb610ff282610fbe565b15156020880152565b610f34610d82600183016109b4565b6110159060026109a3565b61101e81610e82565b9161102b60118301610eef565b9161103860158201610f4b565b91610209601b61104a60188501610f85565b9301610fc8565b60005b8381106110645750506000910152565b8181015183820152602001611054565b61109561109e6020936103c193611089815190565b80835293849260200190565b95869101611051565b601f01601f191690565b61020990610c78565b610247906110a8565b906110d06110c9610cb1845190565b9260200190565b9060005b8181106110e15750505090565b9091926110fe6110f76001928651815260200190565b9460200190565b9291016110d4565b610209916101a06112046111f06111dc6111c86111b46101c0870161113360008a015160008a01906110b1565b6020898101516001600160a01b03169089015261115560408a015160408a0152565b61116460608a015160608a0152565b61117360808a015160808a0152565b61118260a08a015160a08a0152565b61119160c08a015160c08a0152565b6111a060e08a015160e08a0152565b6101008901518882036101008a0152611074565b610120880151878203610120890152611074565b610140870151868203610140880152611074565b610160860151858203610160870152611074565b610180850151848203610180860152611074565b920151906101a08184039101526110ba565b61020991608061127461126261125061123e60a0860160008801518782036000890152611074565b60208701518682036020880152611074565b60408601518582036040870152611074565b60608501518482036060860152611074565b920151906080818403910152611106565b805182526101f3919060609081906112a260208201516020860152565b6040818101511515908501525b0151910152565b8051151582526101f3919060409081906112af60208201516020860152565b906102099060408061130b6112f96060850160008801518682036000880152611074565b60208701518582036020870152611074565b940151910152565b8051151582526101f3919060609081906020818101511515908501526112af60408201516040860152565b959492916101f3946113806101209461137661136b61138e966101a08d01908d6000818403910152611216565b9460208c0190611285565b60a08a01906112b6565b8782036101008901526112d5565b940190611313565b346101d8576102766113b16113ac3660046101f5565b61100a565b916113be95939560405190565b9586958661133e565b346101d8576103226113da366004610327565b612cc6565b346101d8576113ef366004610b1f565b610322612cec565b9081526060810193926101f3929091604091610a32905b6020830152565b346101d85761027661143161142b3660046102a2565b9061321e565b604051919391938493846113f7565b80516001600160a01b031682526101f3919060c090819060208181015115159085015261147260408201516040860152565b61148160608201516060860152565b61149060808201516080860152565b6112af60a082015160a0860152565b60e0810192916101f39190611440565b346101d8576102766114ca6114c53660046101f5565b6132f1565b6040519182918261149f565b90916060828403126101d8576102096114ef84846101e6565b9360406114ff8260208701610295565b94016101e6565b634e487b7160e01b600052603260045260246000fd5b805482101561153f57611536600191600052602060002090565b91020190600090565b611506565b906115536115589260086109a3565b610acb565b80548210156101d8576102099161156e9161151c565b90610227565b346101d85761027661026661158a3660046114d6565b91611544565b346101d8576115a0366004610b1f565b6102766115b56001546001600160a01b031690565b604051918291826001600160a01b03909116815260200190565b805182526101f391906101009081906115ed60208201516020860152565b6115fc60408201516040860152565b60608181015115159085015261161760808201516080860152565b61162660a082015160a0860152565b60c0818101511515908501526112af60e082015160e0860152565b906103c181610120936115cf565b9061165e6110c9610cb1845190565b9060005b81811061166f5750505090565b9091926116826110f76001928651611641565b929101611662565b805182526102099160408101916020015190602081840391015261164f565b60208082526102099291019061168a565b346101d8576102766116d66116d03660046102a2565b906133ee565b604051918291826116a9565b916060838303126101d8576116f782846101e6565b926117058360208301610295565b92604082013567ffffffffffffffff81116101d8576102099201610400565b346101d8576103226117373660046116e2565b91613825565b9061174c6110c9610cb1845190565b9060005b81811061175d5750505090565b9091926117736110f76001928651815260200190565b929101611750565b60208082526102099291019061173d565b346101d8576102766117a76117a23660046101f5565b613830565b6040519182918261177b565b6102099060a01c610ade565b61020990546117b3565b6117d490600a6109a3565b80546001600160a01b0316916117e9826117bf565b916117f6600182016109b4565b91611803600283016109b4565b91611810600382016109b4565b9161020960056109fa600485016109b4565b949290979695939160e086019860008701611844916001600160a01b03169052565b1515602086015260408501526060840152608083015260a082015260c00152565b346101d85761027661188061187b3660046101f5565b6117c9565b9361189097959793919360405190565b97889788611822565b91906040838203126101d8576102099060206114ff82866101e6565b6115589060066109a3565b346101d8576102766102666118d6366004611899565b906118b5565b61020991610220611a0c61199a61192d61191b6119096102408701600089015188820360008a0152611074565b60208801518782036020890152611074565b60408701518682036040880152611074565b61193c60608701516060870152565b61194b60808701516080870152565b61195a60a087015160a0870152565b60c08681015115159086015261197560e087015160e0870152565b611986610100870151610100870152565b610120860151858203610120870152611074565b6119ab610140860151610140860152565b6119bc610160860151610160860152565b610180858101511515908501526101a0858101511515908501526119e76101c08601516101c0860152565b6119f86101e08601516101e0860152565b610200850151848203610200860152611106565b92015190610220818403910152611106565b6020808252610209929101906118dc565b346101d857610276611a4a611a453660046101f5565b613966565b60405191829182611a1e565b346101d857610276610266611a6c366004611899565b90613ca7565b90916060828403126101d857610209611a8b84846101e6565b9360406114ff82602087016101e6565b346101d8576102766117a7611ab1366004611a72565b91613fd6565b9061020991611106565b90611ad7611acd835190565b8083529160200190565b9081611ae96020830284019460200190565b926000915b838310611afd57505050505090565b90919293946020611b20611b1983856001950387528951611ab7565b9760200190565b9301930191939290611aee565b80516101c0808452610209939160a091611b8391611b4d91850190611216565b611b5f60208601516020860190611285565b611b706040860151848601906112b6565b60608501518482036101008601526112d5565b92611b976080820151610120850190611313565b0151906101a0818403910152611ac1565b602080825261020992910190611b2d565b346101d857610276611bd4611bcf3660046101f5565b61419a565b60405191829182611ba8565b346101d857610322611bf3366004610327565b614237565b6102426102099261155360009360076109a3565b346101d857610276610266611c223660046102a2565b90611bf8565b90611c3b9291611c3661424a565b611c90565b906101f361428a565b15611c4b57565b60405162461bcd60e51b815260206004820152601260248201527f436f6e74726163742069732070617573656400000000000000000000000000006044820152606490fd5b906102099291611caf611caa611ca6600c610c49565b1590565b611c44565b611e1a565b634e487b7160e01b600052601160045260246000fd5b6000198114611cd95760010190565b611cb4565b90600019905b9181191691161790565b90611cfe610209611d0592610996565b8254611cde565b9055565b634e487b7160e01b600052600060045260246000fd5b906001600160a01b0390611ce4565b90611d3e610209611d0592610ac2565b8254611d1f565b90611cfe610209611d059290565b6003611dae60606101f394611d7b611d7560008301516001600160a01b031690565b86611d2e565b611d92611d89602083015190565b60018701611cee565b611da9611da0604083015190565b60028701611d45565b015190565b9101611cee565b906101f391611d53565b9160001960089290920291821b911b611ce4565b9190611de4610209611d0593610996565b908354611dbf565b908154916801000000000000000083101561038b5782611e149160016101f39501815561151c565b90611dd3565b5090611e28600082846143cc565b611e3c611e3560056109b4565b8383614552565b907fc3013841eb45dbf48e54bccdbdfca27c812fe5016e531d0ff451032d38369c6f611f44611f2e611f28611e7160056109b4565b96611e85611e7e89611cca565b6005611cee565b611ecd611e90610ee5565b6001600160a01b0388168152611ea7836020830152565b611eb2896040830152565b611ebd426060830152565b611ec88a60046109a3565b611db5565b611ee488611edf6102098460066109a3565b611dec565b611f0d611ef6876115538460076109a3565b611f07611f02826109b4565b611cca565b90611cee565b611f2388611edf610209896115538660086109a3565b610996565b93610ac2565b93611f3860405190565b918291429088846113f7565b0390a390565b61020991906000611c28565b6101f390611f626145b6565b611f87565b9060ff90611ce4565b90611f80610209611d0592151590565b8254611f67565b611f9281600c611f70565b15611fc7577fab35696f06e428ebc5ceba8cd17f8fed287baf43440206d1943af1ee53e6d267611fc160405190565b600090a1565b7f0e5e3b3fb504c22cf5c42fa07d521225937514c654007e1f12646f89768d6f94611fc160405190565b6101f390611f56565b6101f3906120066145b6565b6120f1565b61027a6102096102099290565b6102099061200b565b1561202857565b60405162461bcd60e51b815260206004820152600f60248201527f494e56414c49445f4144445245535300000000000000000000000000000000006044820152606490fd5b1561207457565b60405162461bcd60e51b81526020600482015260096024820152682727aa2fa0a226a4a760b91b6044820152606490fd5b156120ac57565b60405162461bcd60e51b815260206004820152601360248201527f43414e4e4f545f52454d4f56455f4f574e4552000000000000000000000000006044820152606490fd5b6121749061211661210561027a6000612018565b6001600160a01b0383161415612021565b61213161212c61212783600d610acb565b610c49565b61206d565b61215a61214961027a6001546001600160a01b031690565b6001600160a01b03831614156120a5565b61216f600061216a83600d610acb565b611f70565b610ac2565b7fa3b62bc36326052d97ea62d63c3d60308ed4c3ea8ac079dd8499f1e9c4f80c0f61219e60405190565b600090a2565b6101f390611ffa565b156121b457565b60405162461bcd60e51b815260206004820152600e60248201527f4e6f7420417574686f72697a65640000000000000000000000000000000000006044820152606490fd5b906102099161221461220f61212733600d610acb565b6121ad565b9061020991612229611caa611ca6600c610c49565b6128a0565b1561223557565b60405162461bcd60e51b815260206004820152600e60248201527f5449544c455f52455155495245440000000000000000000000000000000000006044820152606490fd5b1561228157565b60405162461bcd60e51b815260206004820152600c60248201526b494e56414c49445f4441544560a01b6044820152606490fd5b156122bc57565b60405162461bcd60e51b815260206004820152600f60248201527f445241575f4245464f52455f454e4400000000000000000000000000000000006044820152606490fd5b919061230c565b9290565b8203918211611cd957565b1561231e57565b60405162461bcd60e51b815260206004820152600e60248201527f445241575f544f4f5f4541524c590000000000000000000000000000000000006044820152606490fd5b91908201809211611cd957565b1561237757565b60405162461bcd60e51b815260206004820152600c60248201526b222920abafaa27a7afa320a960a11b6044820152606490fd5b6101f391600091611dd3565b8181106123c2575050565b806123d060006001936123ab565b016123b7565b9190601f81116123e557505050565b6123f76101f393600052602060002090565b906020601f840181900483019310612419575b6020601f9091010401906123b7565b909150819061240a565b9061242c815190565b9067ffffffffffffffff821161038b576124508261244a8554610b67565b856123d6565b602090601f831160011461248b57611d05929160009183612480575b5050600019600883021c1916906002021790565b01519050388061246c565b601f198316916124a085600052602060002090565b9260005b8181106124de575091600293918560019694106124c5575b50505002019055565b01516000196008601f8516021c191690553880806124bc565b919360206001819287870151815501950192016124a4565b906101f391612423565b6102099051610c78565b90611f80610209611d05926110a8565b9074ffffffffffffffffffffffffffffffffffffffff009060081b611ce4565b9061254a610209611d0592610ac2565b825461251a565b91909182821061256057505050565b6101f392916125759091600052602060002090565b91820191016123b7565b9068010000000000000000811161038b578161259c6101f3935490565b90828155612551565b81519167ffffffffffffffff831161038b576125d0610cbb6001926125ca868661257f565b60200190565b92049160005b8381106125e35750505050565b60019060206125f3610209865190565b94019381840155016125d6565b906101f3916125a5565b6101f391600c9061273c906101a0906126438561262f61262984612500565b8261250a565b60208301516001600160a01b03169061253a565b612651611d89604083015190565b61266861265f606083015190565b60028701611cee565b61267f612676608083015190565b60038701611cee565b61269661268d60a083015190565b60048701611cee565b6126ad6126a460c083015190565b60058701611cee565b6126c46126bb60e083015190565b60068701611cee565b6126dc6126d361010083015190565b600787016124f6565b6126f46126eb61012083015190565b600887016124f6565b61270c61270361014083015190565b600987016124f6565b61272461271b61016083015190565b600a87016124f6565b611da961273361018083015190565b600b87016124f6565b9101612600565b906101f39161260a565b60046127b160806101f39461276c612766600083015190565b866124f6565b61278361277a602083015190565b600187016124f6565b61279a612791604083015190565b600287016124f6565b611da96127a8606083015190565b600387016124f6565b9101612743565b906101f39161274d565b6003611dae60606101f3946127e16127db600083015190565b86611cee565b6127ef611d89602083015190565b611da96127ff6040830151151590565b60028701611f70565b906101f3916127c2565b6002611dae60406101f39461283361282d6000830151151590565b86611f70565b611da9611d89602083015190565b906101f391612812565b6002611dae60406101f394612864612766600083015190565b611da961277a602083015190565b906101f39161284b565b9061ff009060081b611ce4565b90612899610209611d0592151590565b825461287c565b508051515161020991906128c66000916128c06128bc84610996565b9190565b1161222e565b602082016128f06128d960208351015190565b6128ea6128bc610209868651015190565b1161227a565b6129176128ff60608351015190565b6129116128bc61020960208651015190565b116122b5565b61294b61293661292960608451015190565b8351602001515b90612301565b6129446128bc610708610996565b1015612317565b61297d61295a60608351015190565b6129766128bc6102096129706301e13380610996565b42612363565b1115612370565b612a36608061298c60036109b4565b946129a061299987611cca565b6003611cee565b612a286129b16102098860026109a3565b956129d181840151966129c7838a0198896127b8565b5160118901612808565b6129e2604084015160158901612841565b6129f3606084015160188901612872565b6002612a14601b890192611f2381808601612a0f600182611f70565b612889565b91612a228360018301611cee565b01611cee565b019160046127b18451614638565b51916148a4565b6102099060006121f9565b61212761020991612a57600090565b50600d610acb565b906101f391612a7561220f61212733600d610acb565b906101f391612a8a611caa611ca6600c610c49565b612b61565b15612a9657565b60405162461bcd60e51b815260206004820152601160248201527f524146464c455f4e4f545f4558495354530000000000000000000000000000006044820152606490fd5b15612ae257565b60405162461bcd60e51b815260206004820152601460248201527f524146464c455f414c52454144595f445241574e0000000000000000000000006044820152606490fd5b15612b2e57565b60405162461bcd60e51b815260206004820152600b60248201526a1053149150511657d4d15560aa1b6044820152606490fd5b612bcc90611f23836000601b612b7b6102098660026109a3565b612b9e612b8c8460118401016109b4565b612b986128bc86610996565b11612a8f565b0101612bb4612baf611ca683610fbe565b612adb565b61216a612bc082610c49565b15158315151415612b27565b7f749ebdef365d5cfb45277b1b6f7fde8faa320b22253fcef31c7bdf8136164ec5612c03612bf933610ac2565b9361098760405190565b0390a3565b906101f391612a5f565b6101f390612c1e6145b6565b612c5f565b15612c2a57565b60405162461bcd60e51b815260206004820152600d60248201526c20a62922a0a22cafa0a226a4a760991b6044820152606490fd5b612c9c90612c7361210561027a6000612018565b612c8c612c87611ca661212784600d610acb565b612c23565b61216f600161216a83600d610acb565b7f44d6d25963f097ad14f29f06854a01f575648a1ef82f30e562ccd3889717e33961219e60405190565b6101f390612c12565b612cd76145b6565b6101f36101f3612ce76000612018565b6149f2565b6101f3612ccf565b90612d0994939291612d0461424a565b612d14565b9091926101f361428a565b90612d3194939291612d2c611caa611ca6600c610c49565b612f9c565b909192565b15612d3d57565b60405162461bcd60e51b815260206004820152601460248201527f4e4f5f5449434b4554535f52454d41494e494e470000000000000000000000006044820152606490fd5b15612d8957565b60405162461bcd60e51b815260206004820152601860248201527f524146464c455f5449434b4554535f45584841555354454400000000000000006044820152606490fd5b906101f3610f3a6003612ddf610ee5565b94612e01612df482546001600160a01b031690565b6001600160a01b03168752565b612e10610eb3600183016109b4565b610f34610d82600283016109b4565b61020990612dce565b61020990610996565b634e487b7160e01b600052601260045260246000fd5b8115612e51570690565b612e31565b805482101561153f57611536600d91600052602060002090565b15612e7757565b60405162461bcd60e51b815260206004820152601d60248201527f43414e4e4f545f44454352454153455f5a45524f5f5155414e544954590000006044820152606490fd5b8015611cd9576000190190565b61020960e0610390565b9060ff60a01b9060a01b611ce4565b90612ef2610209611d0592151590565b8254612ed3565b6101f391600590611dae9060c090612f3285612f25612f1f84516001600160a01b031690565b82611d2e565b6020830151151590612ee2565b612f49612f40604083015190565b60018701611d45565b612f5761265f606083015190565b612f65612676608083015190565b611da961268d60a083015190565b906101f391612ef9565b610a326101f3946107a6606094989795610a2b608086019a6000870152565b94929394505050600191612fb18385836143cc565b612fbf6102098260026109a3565b93601b85019184830190612fd2826109b4565b90612feb600092612fe56128bc85610996565b11612d36565b612ff58482614a47565b94612fff846109b4565b9761301361300c85610996565b8a11612d82565b61304b61304561302c6130278a60046109a3565b612e1f565b9a61304061303b8b888c614552565b612e28565b612e47565b8b614af3565b99846015820101908b61305d83610c49565b6131bf575b505060028301613071816109b4565b61307a90611cca565b61308391611cee565b61308d600b6109b4565b809a61309882611cca565b6130a390600b611cee565b60400180516130b0612ec9565b6001600160a01b038b168982015290851515602083015260408201526130d7876060830152565b6130e28e6080830152565b6130ed4260a0830152565b6130f84260c0830152565b61310383600a6109a3565b9061310d91612f73565b5161311990600961020c565b9061312391611cee565b61312c90610c49565b938461314f96613149966131a2575b50613190575b505050610996565b91610ac2565b907f5b6db09229f804e15657628b57342d213a730173bd981b36dbc89bc94199b8f961317a60405190565b8061318842898b8985612f7d565b0390a3929190565b61319a9201612889565b388080613141565b6131ac91506109b4565b6131b86128bc83610996565b143861313b565b6131d1600291601e6131df9401612e56565b5001611f07611f02826109b4565b6131fd6131eb876109b4565b6131f76128bc88610996565b11612e70565b61321761321161320c886109b4565b612ebc565b87611cee565b388b613062565b612d31919060008080612cf4565b613234612ec9565b90600082526020808080808080880160005b8152016000815201600081520160005b81520160005b8152016000905250565b905250565b61020961322c565b906101f36132e16005613284612ec9565b94613299612df482546001600160a01b031690565b6132a5610ff2826117bf565b6132b4610d82600183016109b4565b6132c3610d98600283016109b4565b6132d2610dae600383016109b4565b610f34610dc4600483016109b4565b60c0840152565b61020990613273565b6133086102099161330061326b565b50600a6109a3565b6132e8565b6102096040610390565b61331f61330d565b906000825260606020830152565b610209613317565b906133426103e183610432565b918252565b610209610120610390565b61335a613347565b9060008252602080808080808080808a01600081520160008152016000613246565b610209613352565b60005b82811061339357505050565b60209061339e61337c565b8184015201613387565b906101f36133be6133b884613335565b93610432565b601f190160208401613384565b61020990610d0e565b906133dd825190565b81101561153f576020809102010190565b906133f761332d565b5061340f61340a826115538560076109a3565b6109b4565b9160009161341c83610996565b841461367f576002906134336102098460026109a3565b92601184016134526134468783016109b4565b612b986128bc89610996565b8561345f60028301610c49565b958615613634575b5050506134819161155361347c9260086109a3565b6133cb565b61348a856133a8565b9561349485610996565b61349f610209845190565b8110156136185780866134bc6134b861357294876133d4565b5190565b60046135046134ce61020984846109a3565b926134fd8a8501946134f66134e760036109fa896109b4565b936134f0613347565b98890152565b6020870152565b6040850152565b89151560608401528961351681610996565b92613522846080870152565b61352d8460a0870152565b81151560c08601526135408460e0870152565b8a61354d85610100880152565b613577575b50505050613560828b6133d4565b5261356b818a6133d4565b5060010190565b613494565b61340a61358f916135896009916109b4565b9061020c565b92831161359d575b81613552565b82610f34613601613608946135fa6135f16005966135d46135c56102096136109c600a6109a3565b600160608e01529760808d0152565b6135ea6135e3600389016109b4565b60a08d0152565b86016117bf565b151560c08a0152565b83016109b4565b60e0870152565b610100830152565b388089613597565b50959250505061140e610209929361362e61330d565b94850152565b61347c9396509161365061155392601b61348197950101610fbe565b9081613665575b509592829450879150613467565b6136769150600361020991016109b4565b42101538613657565b5050905061020961368f82610996565b61140e61369b826133a8565b9161362e61330d565b906101f392916136bb61220f61212733600d610acb565b906101f392916136d1611caa611ca6600c610c49565b613790565b156136dd57565b60405162461bcd60e51b815260206004820152601760248201527f504c415945525f4e4f545f5041525449434950415445440000000000000000006044820152606490fd5b1561372957565b60405162461bcd60e51b815260206004820152600f60248201527f4d4554484f445f524551554952454400000000000000000000000000000000006044820152606490fd5b9291602061378b6101f39360408701908782036000890152611074565b940152565b6131496137dd916137bf6137ac61340a866115538560076109a3565b6137b96128bc6000610996565b116136d6565b611f236137ca865190565b6137d76128bc6000610996565b11613722565b907f259b46e60d1e2edd3ff15970de1b6023efe23ee42e5d8eb42cad548a7e19570461382061380b33610ac2565b9461381560405190565b91829142908361376e565b0390a4565b906101f392916136a4565b61347c6102099161383f606090565b5060066109a3565b610209610240610390565b6020908180808080808080808080808061386a610d28565b9e8f60008152016000815201600081520160008152016000815201600081520160008152016000815201606081520160608152016060815201606081520160605b8152016060905250565b610209613852565b6138c5613847565b90606082526020820160608152602001606081526020016000815260200160008152602001600081526020016000815260200160008152602001600081526020016060815260200160008152602001600081526020016000815260200160008152602001600081526020016000815260200161393f6138b5565b81526020016102476138b5565b6102096138bd565b61020990610c1f565b61020990610d33565b61396e61394c565b50600261397b82826109a3565b90601182019061398a826109b4565b6139946000610996565b1061399e90612a8f565b6139aa601e8401614b49565b60c052608083905280830160e05260038301936139c6836109b4565b936139d3600185016109b4565b92806139e1600387016109b4565b95016139ec90610c49565b60158301826139fd601686016109b4565b9101613a08906109b4565b9160188501938401613a19906109b4565b601b909501978897613a2a89610c49565b98613a3490610fbe565b99600101613a41906109b4565b9a613a4d8960066109a3565b549c613a57613847565b60a052608051613a6690613954565b60a0515260e051613a7690613954565b60a05160200152613a8690613954565b60a0516040015260a05160600190613a9b9152565b60a0516080015260a08051015260a05190151560c09091015260a05160e0015260a0516101000152600101613acf90613954565b60a051610120015260a0516101400190613ae69152565b60a051610160015260a0519015156101809091015260a0519015156101a09091015260a0516101c0015260a0516101e00152608051600401613b279061395d565b60a051610200015260c05160a051610220015260a05190565b90611c3b9291613b4e61424a565b906102099291613b64611caa611ca6600c610c49565b613c18565b15613b7057565b60405162461bcd60e51b815260206004820152600d60248201526c20a62922a0a22cafa22920aba760991b6044820152606490fd5b15613bac57565b60405162461bcd60e51b8152602060048201526009602482015268544f4f5f4541524c5960b81b6044820152606490fd5b15613be457565b60405162461bcd60e51b815260206004820152600c60248201526b14905191931157d15391115160a21b6044820152606490fd5b5061020991613c29838360026109a3565b613c7d613c6a6001601b8401613c49613c44611ca683610fbe565b613b69565b610f3460118601613c5c60028201610c49565b908115613c8d575b50613ba5565b613c776128bc6000610996565b11613bdd565b613c876000610996565b91614dde565b613c9e9150600361020991016109b4565b42101538613c64565b61020991906000613b40565b90610209939291613ccb61220f61212733600d610acb565b90611c3b939291613cda61424a565b90610209939291613cf1611caa611ca6600c610c49565b613e94565b15613cfd57565b60405162461bcd60e51b815260206004820152600f60248201527f4e4f5f5041525449434950414e545300000000000000000000000000000000006044820152606490fd5b15613d4957565b60405162461bcd60e51b815260206004820152601960248201527f53544152545f494e4445585f4f55545f4f465f424f554e4453000000000000006044820152606490fd5b15613d9557565b60405162461bcd60e51b815260206004820152601160248201527f494e56414c49445f4d41585f434f554e540000000000000000000000000000006044820152606490fd5b15613de157565b60405162461bcd60e51b815260206004820152601460248201527f42415443485f53495a455f544f4f5f4c415247450000000000000000000000006044820152606490fd5b15613e2d57565b60405162461bcd60e51b815260206004820152601260248201527f4e4f5448494e475f544f5f50524f4345535300000000000000000000000000006044820152606490fd5b369037565b906101f3613e876133b884613335565b601f190160208401613e72565b5090613ea46102098360026109a3565b613eb6613c44611ca6601b8401610fbe565b613ed0613ec8610209601484016109b4565b421015613ba5565b613ede61347c8460066109a3565b613f4c83613eea835190565b613f3d600098613f03613efc8b610996565b8411613cf6565b613f0e838510613d42565b613f21613f1a8b610996565b8211613d8e565b613f37613f2f6103e8610996565b821115613dda565b83612363565b90808211613fce575b50612301565b95613f60613f5987610996565b8811613e26565b613f72613f6c88613e77565b96610996565b875b811015613fc457613fbd81613fb7613faa89613f9f6134b8613f99613f74988d612363565b8a6133d4565b89613c87868d612363565b613fb4838c6133d4565b52565b60010190565b9050613f72565b5095505050505090565b905038613f46565b6102099291906060613cb3565b61020960c0610390565b613ff5610e78565b906060825260208080808086016060815201606081520160608152016132666138b5565b610209613fed565b614029610ee5565b9060008252602080808085016000613256565b610209614021565b61404c610f41565b9060008252602080808401600061325c565b610209614044565b61406e610f41565b9060608252602080808401606061325c565b610209614066565b614090613fe3565b90614099614019565b82526020808080808087016140ac61403c565b8152016140b761405e565b8152016140c2614080565b8152016138ab61403c565b610209614088565b906140de825490565b6140e781613335565b926140fb6020850191600052602060002090565b6000915b83831061410c5750505050565b600d602060019261411c8561395d565b8152019201920191906140ff565b906101f361418a601e61413b613fe3565b94614148610ea082610e82565b614157610eb360118301610eef565b614166610d8260158301610f4b565b614175610d9860188301610f85565b614184610dae601b8301610fc8565b016140d5565b60a0840152565b6102099061412a565b6141da610209916141a96140cd565b506141d36141c6600060116141bf8560026109a3565b01016109b4565b612b986128bc6000610996565b60026109a3565b614191565b6101f3906141eb6145b6565b60006141f681612018565b6001600160a01b0381166001600160a01b0384161461421a5750506101f3906149f2565b631e4fbdf760e01b82526001600160a01b03166004820152602490fd5b6101f3906141df565b6102096002610996565b61425460006109b4565b61425c614240565b90811461426e576101f3906000611cee565b633ee5aeb560e01b6000908152600490fd5b6102096001610996565b6101f3614295614280565b6000611cee565b156142a357565b60405162461bcd60e51b815260206004820152601160248201527f494e5354414e545f445241575f4f4e4c590000000000000000000000000000006044820152606490fd5b156142ef57565b60405162461bcd60e51b815260206004820152601160248201527f524146464c455f4e4f545f4143544956450000000000000000000000000000006044820152606490fd5b1561433b57565b60405162461bcd60e51b815260206004820152601260248201527f524146464c455f4e4f545f5354415254454400000000000000000000000000006044820152606490fd5b1561438757565b60405162461bcd60e51b815260206004820152601b60248201527f50415254494349504154494f4e5f4c494d49545f5245414348454400000000006044820152606490fd5b91906143d98360026109a3565b601181016143e6816109b4565b60009485916143f483610996565b106143fe90612a8f565b6144a49361447a614472610209600161449e97610f3461446a61020960029a60159a6144f2575b61446361445787601b8d01610f34614452611ca687840161444d61444882610c49565b6142e8565b610fbe565b613bdd565b613c776128bc84610996565b84016109b4565b421015614334565b421115613bdd565b01614487600182016109b4565b61449087610996565b81116144d0575b50016109b4565b92610996565b82116144af57505050565b6128bc61230861340a6144ca936115536101f39760076109a3565b10614380565b6144ec906144ca6128bc6123086144e88c60066109a3565b5490565b38614497565b6145056145008d8701610c49565b61429c565b614425565b9194610704610a329298979561454b60a0966145446101f39a61453d60c08a019e60008b01906001600160a01b03169052565b6020890152565b6040870152565b6060850152565b6145a0919261455f600090565b506145946145766145706001610996565b43612301565b9161458060405190565b95869460208601944092449242928761450a565b90810382520382610369565b6145b26145ab825190565b9160200190565b2090565b6001546001600160a01b031633906145d6825b916001600160a01b031690565b036145de5750565b63118cdaa760e01b60009081526001600160a01b039091166004526024036000fd5b1561460757565b60405162461bcd60e51b81526020600482015260096024820152684e4f5f5052495a455360b81b6044820152606490fd5b6146406138b5565b5061465f61464c825190565b6146596128bc6000610996565b11614600565b61467261466c6000610996565b826133d4565b51906001806146816001610996565b905b61468e575b50505090565b614699610209845190565b81101561472d576146aa81846133d4565b5160a08101805160a08701906146c46128bc610209845190565b119182156146e9575b50506146df575b506001015b81614683565b93506146d96146d4565b6147029192506102096146fd6128bc925190565b935190565b1480614710575b38806146cd565b5060808101516147276128bc610209608089015190565b11614709565b614688565b1561473957565b60405162461bcd60e51b815260206004820152601260248201527f4e4f5f5052495a45535f50524f564944454400000000000000000000000000006044820152606490fd5b1561478557565b60405162461bcd60e51b815260206004820152601260248201527f5052495a455f5a45524f5f5449434b45545300000000000000000000000000006044820152606490fd5b91906147d9576101f39161260a565b611d09565b908154916801000000000000000083101561038b57826148069160016101f395018155612e56565b906147ca565b1561481357565b60405162461bcd60e51b815260206004820152601260248201527f544f54414c5f5449434b4554535f5a45524f00000000000000000000000000006044820152606490fd5b1561485f57565b60405162461bcd60e51b815260206004820152601160248201527f5155414e544954595f4d49534d415443480000000000000000000000000000006044820152606490fd5b9192918351916148c26000936148bc6128bc86610996565b11614732565b6148cb83610996565b946148d4815190565b948693875b87891015614976576148eb89856133d4565b519560408701966148fa885190565b6149038a610996565b1061490d9061477e565b61491689610996565b60608201526149268360e0830152565b61493390601e88016147de565b8651601c870190614943826109b4565b9061494d91612363565b61495691611cee565b865161496191612363565b955161496c91612363565b97600101976148d9565b509550955050611dae6149b893611f23601b60029461499e61499785610996565b881161480c565b01946149b26128bc612308600189016109b4565b14614858565b6149c181610996565b7f0b5745354685a046e72f24602bcf00fa0ee07f0bf511afb5f2d3ab636241e41b6149eb60405190565b600090a290565b614a15613149614a0a6001546001600160a01b031690565b61216f846001611d2e565b907f8be0079c531659141344cd1fd0a4f28419497f9722a3daafe3b4186f6b6457e0614a4060405190565b8080612c03565b61020990611edf610209614ac894614a5d600090565b50611553614a75614a6e60056109b4565b8684614552565b94614a8060056109b4565b978896614a8f611e7e89611cca565b614ab2614a9a610ee5565b6001600160a01b0387168152916107a6856020850152565b614abd426060830152565b611ec88860046109a3565b614ada86611edf6102098460066109a3565b614aec611ef6846115538460076109a3565b60086109a3565b61020991906150b5565b15614b0457565b60405162461bcd60e51b815260206004820152601360248201527f4e4f5f415641494c41424c455f5052495a4553000000000000000000000000006044820152606490fd5b90614b526138b5565b508154614b676000916146596128bc84610996565b614b6f6138b5565b81614b7983610996565b614b84610209875490565b811015614cc757614b9c614b988288612e56565b5090565b614ba585610996565b60018201614bb2816109b4565b906002840191614bc76128bc610209856109b4565b11614ca9575b5050614bdb6128bc87610996565b11614bef575b50600101614b79565b614b79565b909180614c105750614c0291925061395d565b90614bea6001915b90614be1565b919060048101614c1f816109b4565b60a0860190614c326128bc610209845190565b11918215614c62575b5050614c4c575b50614bea90614c0a565b614bea919350614c5b9061395d565b9290614c42565b614c779192506102096146fd6128bc926109b4565b1480614c85575b3880614c3b565b50614c92600382016109b4565b614ca36128bc610209608088015190565b11614c7e565b614cc09250614cba612930916109b4565b916109b4565b3880614bcd565b50909293506102099150614afd565b15614cdd57565b60405162461bcd60e51b815260206004820152601360248201527f494e56414c49445f5041525449434950414e54000000000000000000000000006044820152606490fd5b15614d2957565b60405162461bcd60e51b815260206004820152601460248201527f4e4f5f5449434b4554535f415641494c41424c450000000000000000000000006044820152606490fd5b15614d7557565b60405162461bcd60e51b815260206004820152601360248201527f494e56414c49445f5052495a455f494e444558000000000000000000000000006044820152606490fd5b909594926101f39461075e610a32926134fd6080966134f660a088019c6000890152565b916102099193614dec600090565b50614dfb6130278560046109a3565b90614e0d82516001600160a01b031690565b614e29600091614e226145c961027a85612018565b1415614cd6565b601c870190601b8801614e50614e3e846109b4565b614e4a6128bc85610996565b11614d22565b614e8e614e7f61303b8a87614e79878b019b614e738d516001600160a01b031690565b93612363565b91614552565b614e88856109b4565b90612e47565b93826015614e9c878d614af3565b9b614eb78d614eb16128bc601e85019e8f5490565b10614d6e565b0101978a614ec48a610c49565b615072575b5050614ed5600b6109b4565b93614edf85611cca565b614eea90600b611cee565b6040870198614ef78a5190565b92614f098a516001600160a01b031690565b93614f12612ec9565b6001600160a01b0390951687860152861515602086015260408501526060840152614f3e8c6080850152565b614f494260a0850152565b614f5285610996565b92614f5e8460c0830152565b614f6987600a6109a3565b90614f7391612f73565b85614f7c8b5190565b614f8790600961020c565b90614f9191611cee565b60028401614f9e816109b4565b614fa790611cca565b614fb091611cee565b614fb990610c49565b8061500c60207f2120864ccf2c79a4cad1014109df7e170cf9e4c2664ab542e5493b272ab685909a6150419861502b9861501a9561502599613f6c9961501f9961505b575b5050615047575b5050015190565b99516001600160a01b031690565b995190565b94610996565b96610ac2565b9661503560405190565b9384938a429386614dba565b0390a490565b6150549160019101612889565b3880615005565b61506a919250610209906109b4565b143880614ffe565b6131d160029161508193612e56565b61509961508d856109b4565b6131f76128bc86610996565b6150ae6150a861320c866109b4565b85611cee565b388a614ec9565b906150c260158301610c49565b156150d05761020991615254565b61020991615125565b156150e057565b60405162461bcd60e51b815260206004820152601360248201527f4e4f5f5052495a45535f415641494c41424c45000000000000000000000000006044820152606490fd5b601e0180549161514360009361513d6128bc86610996565b116150d9565b61514c83610996565b91615155815490565b835b818510156151a0576151776128bc613f376001610f34614b988a89612e56565b84101580615197575b61518e579360010193615157565b50505050905090565b50808410615180565b50939150506151af9150610996565b81116151fa5760405162461bcd60e51b815260206004820152601460248201527f4e4f5f56414c49445f5052495a455f464f554e440000000000000000000000006044820152606490fd5b610209906129306001610996565b1561520f57565b60405162461bcd60e51b815260206004820152601460248201527f4e4f5f52454d41494e494e475f5449434b4554530000000000000000000000006044820152606490fd5b90919061527c615266601c83016109b4565b60009461304061527587610996565b8311615208565b91601e61528885610996565b920192615293845490565b93835b85811015615358576152ab614b988284612e56565b6152b488610996565b906001810160026152c4826109b4565b9201916152d66128bc610209856109b4565b11615340575b50506152e788610996565b81116152fc575b50600101615296565b615296565b9094808410158061532b575b615320576152f79161531991612363565b94906152ee565b505050509250905090565b506153396102098383612363565b8410615308565b6153519250614cba612930916109b4565b38806152dc565b509250509261536690610996565b828110156153ac5761537b614b988284612e56565b6153996128bc6102096002615392600186016109b4565b94016109b4565b116153a657600101615366565b91505090565b60405162461bcd60e51b815260206004820152601b60248201527f4e4f5f415641494c41424c455f5052495a45535f44594e414d494300000000006044820152606490fdfea2646970667358221220c33a15124597c3e7c99206958669348f00d381021c95fb25cd0aada332a7515364736f6c634300081c0033",
  "linkReferences": {},
  "deployedLinkReferences": {}
}