{
  "_format": "hh-sol-artifact-1",
  "contractName": "StarglowTBA",
  "sourceName": "contracts/StarglowTBA.sol",
  "abi": [
    {
      "anonymous": false,
      "inputs": [
        {
          "indexed": true,
          "internalType": "address",
          "name": "to",
          "type": "address"
        },
        {
          "indexed": false,
          "internalType": "uint256",
          "name": "value",
          "type": "uint256"
        },
        {
          "indexed": false,
          "internalType": "bytes",
          "name": "data",
          "type": "bytes"
        },
        {
          "indexed": true,
          "internalType": "address",
          "name": "executor",
          "type": "address"
        }
      ],
      "name": "Executed",
      "type": "event"
    },
    {
      "anonymous": false,
      "inputs": [
        {
          "indexed": true,
          "internalType": "address",
          "name": "signer",
          "type": "address"
        }
      ],
      "name": "PermittedSignerAdded",
      "type": "event"
    },
    {
      "anonymous": false,
      "inputs": [
        {
          "indexed": true,
          "internalType": "address",
          "name": "signer",
          "type": "address"
        }
      ],
      "name": "PermittedSignerRemoved",
      "type": "event"
    },
    {
      "inputs": [],
      "name": "DOMAIN_SEPARATOR",
      "outputs": [
        {
          "internalType": "bytes32",
          "name": "",
          "type": "bytes32"
        }
      ],
      "stateMutability": "view",
      "type": "function"
    },
    {
      "inputs": [],
      "name": "EXECUTE_TYPEHASH",
      "outputs": [
        {
          "internalType": "bytes32",
          "name": "",
          "type": "bytes32"
        }
      ],
      "stateMutability": "view",
      "type": "function"
    },
    {
      "inputs": [],
      "name": "NAME",
      "outputs": [
        {
          "internalType": "string",
          "name": "",
          "type": "string"
        }
      ],
      "stateMutability": "view",
      "type": "function"
    },
    {
      "inputs": [],
      "name": "VERSION",
      "outputs": [
        {
          "internalType": "string",
          "name": "",
          "type": "string"
        }
      ],
      "stateMutability": "view",
      "type": "function"
    },
    {
      "inputs": [
        {
          "internalType": "address",
          "name": "signer",
          "type": "address"
        }
      ],
      "name": "addPermittedSigner",
      "outputs": [],
      "stateMutability": "nonpayable",
      "type": "function"
    },
    {
      "inputs": [
        {
          "internalType": "address",
          "name": "to",
          "type": "address"
        },
        {
          "internalType": "uint256",
          "name": "value",
          "type": "uint256"
        },
        {
          "internalType": "bytes",
          "name": "data",
          "type": "bytes"
        }
      ],
      "name": "execute",
      "outputs": [
        {
          "internalType": "bytes",
          "name": "result",
          "type": "bytes"
        }
      ],
      "stateMutability": "payable",
      "type": "function"
    },
    {
      "inputs": [
        {
          "internalType": "address",
          "name": "to",
          "type": "address"
        },
        {
          "internalType": "uint256",
          "name": "value",
          "type": "uint256"
        },
        {
          "internalType": "bytes",
          "name": "data",
          "type": "bytes"
        },
        {
          "internalType": "address",
          "name": "signer",
          "type": "address"
        },
        {
          "internalType": "uint256",
          "name": "deadline",
          "type": "uint256"
        },
        {
          "internalType": "bytes",
          "name": "signature",
          "type": "bytes"
        }
      ],
      "name": "executeWithSignature",
      "outputs": [
        {
          "internalType": "bytes",
          "name": "result",
          "type": "bytes"
        }
      ],
      "stateMutability": "payable",
      "type": "function"
    },
    {
      "inputs": [
        {
          "internalType": "address",
          "name": "_nftContract",
          "type": "address"
        },
        {
          "internalType": "uint256",
          "name": "_tokenId",
          "type": "uint256"
        },
        {
          "internalType": "uint256",
          "name": "_salt",
          "type": "uint256"
        },
        {
          "internalType": "bytes",
          "name": "initData",
          "type": "bytes"
        }
      ],
      "name": "initialize",
      "outputs": [],
      "stateMutability": "nonpayable",
      "type": "function"
    },
    {
      "inputs": [],
      "name": "nftContract",
      "outputs": [
        {
          "internalType": "address",
          "name": "",
          "type": "address"
        }
      ],
      "stateMutability": "view",
      "type": "function"
    },
    {
      "inputs": [],
      "name": "owner",
      "outputs": [
        {
          "internalType": "address",
          "name": "",
          "type": "address"
        }
      ],
      "stateMutability": "view",
      "type": "function"
    },
    {
      "inputs": [
        {
          "internalType": "address",
          "name": "",
          "type": "address"
        }
      ],
      "name": "permittedSigners",
      "outputs": [
        {
          "internalType": "bool",
          "name": "",
          "type": "bool"
        }
      ],
      "stateMutability": "view",
      "type": "function"
    },
    {
      "inputs": [
        {
          "internalType": "bytes32",
          "name": "digest",
          "type": "bytes32"
        },
        {
          "internalType": "bytes",
          "name": "signature",
          "type": "bytes"
        }
      ],
      "name": "recoverSigner",
      "outputs": [
        {
          "internalType": "address",
          "name": "",
          "type": "address"
        }
      ],
      "stateMutability": "pure",
      "type": "function"
    },
    {
      "inputs": [
        {
          "internalType": "address",
          "name": "signer",
          "type": "address"
        }
      ],
      "name": "removePermittedSigner",
      "outputs": [],
      "stateMutability": "nonpayable",
      "type": "function"
    },
    {
      "inputs": [],
      "name": "salt",
      "outputs": [
        {
          "internalType": "uint256",
          "name": "",
          "type": "uint256"
        }
      ],
      "stateMutability": "view",
      "type": "function"
    },
    {
      "inputs": [
        {
          "internalType": "bytes4",
          "name": "interfaceId",
          "type": "bytes4"
        }
      ],
      "name": "supportsInterface",
      "outputs": [
        {
          "internalType": "bool",
          "name": "",
          "type": "bool"
        }
      ],
      "stateMutability": "pure",
      "type": "function"
    },
    {
      "inputs": [],
      "name": "tokenId",
      "outputs": [
        {
          "internalType": "uint256",
          "name": "",
          "type": "uint256"
        }
      ],
      "stateMutability": "view",
      "type": "function"
    },
    {
      "stateMutability": "payable",
      "type": "receive"
    }
  ],
  "bytecode": "0x60806040523460195760405161166d61001f823961166d90f35b600080fdfe6080604052600436101561001b575b361561001957600080fd5b005b60003560e01c806301ffc9a71461011b57806317d70f7c146101165780633644e515146101115780635d7e3fbf1461010c57806360d2f33d146101075780638da5cb5b1461010257806397aba7f9146100fd578063a3f4df7e146100f8578063b61d27f6146100f3578063bb64a7bb146100ee578063bfa0b133146100e9578063c53822de146100e4578063c8c70760146100df578063d56d229d146100da578063ea30f6d9146100d55763ffa1ad740361000e576107b0565b610765565b6106fa565b6106be565b61069e565b610601565b6105da565b610551565b6104b4565b6103e5565b61029f565b610266565b610249565b6101f2565b6101bc565b61015e565b6001600160e01b031981165b0361013357565b600080fd5b9050359061014582610120565b565b906020828203126101335761015b91610138565b90565b346101335761018b610179610174366004610147565b6107eb565b60405191829182901515815260200190565b0390f35b600091031261013357565b61015b916008021c81565b9061015b915461019a565b61015b600060026101a5565b34610133576101cc36600461018f565b61018b6101d76101b0565b6040519182918290815260200190565b61015b6000806101a5565b346101335761020236600461018f565b61018b6101d76101e7565b6001600160a01b031690565b6001600160a01b03811661012c565b9050359061014582610219565b906020828203126101335761015b91610228565b346101335761026161025c366004610235565b61090f565b604051005b346101335761027636600461018f565b61018b7f4f872536e1c5ce57c6ece6e282476cbe4b41d190b60136f6485314c5008900d86101d7565b34610133576102af36600461018f565b61018b6102ba610acb565b604051918291826001600160a01b03909116815260200190565b8061012c565b90503590610145826102d4565b634e487b7160e01b600052604160045260246000fd5b90601f01601f1916810190811067ffffffffffffffff82111761031f57604052565b6102e7565b9061014561033160405190565b92836102fd565b67ffffffffffffffff811161031f57602090601f01601f19160190565b0190565b90826000939282370152565b9092919261037a61037582610338565b610324565b938185528183011161013357610145916020850190610359565b9080601f830112156101335781602061015b93359101610365565b919091604081840312610133576103c683826102da565b92602082013567ffffffffffffffff81116101335761015b9201610394565b346101335761018b6102ba6103fb3660046103af565b90610c98565b9061040e61037583610338565b918252565b61041d600b610401565b6a53746172676c6f7754424160a81b602082015290565b61015b610413565b61015b610434565b61015b61043c565b60005b83811061045f5750506000910152565b818101518382015260200161044f565b61049061049960209361035593610484815190565b80835293849260200190565b9586910161044c565b601f01601f191690565b602080825261015b9291019061046f565b34610133576104c436600461018f565b61018b6104cf610444565b604051918291826104a3565b909182601f830112156101335781359167ffffffffffffffff831161013357602001926001830284011161013357565b91606083830312610133576105208284610228565b9261052e83602083016102da565b92604082013567ffffffffffffffff81116101335761054d92016104db565b9091565b61018b6104cf61056236600461050b565b92919091610e11565b61020d61015b61015b926001600160a01b031690565b61015b9061056b565b61015b90610581565b9061059d9061058a565b600052602052604060002090565b61015b916008021c5b60ff1690565b9061015b91546105ab565b60006105d561015b926005610593565b6105ba565b346101335761018b6101796105f0366004610235565b6105c5565b61015b600060036101a5565b346101335761061136600461018f565b61018b6101d76105f5565b909160c082840312610133576106328383610228565b9261064081602085016102da565b92604081013567ffffffffffffffff811161013357826106619183016104db565b9290936106718260608501610228565b9261067f83608083016102da565b9260a082013567ffffffffffffffff81116101335761054d92016104db565b61018b6104cf6106af36600461061c565b96959095949194939293611084565b34610133576102616106d1366004610235565b611254565b61015b916008021c61020d565b9061015b91546106d6565b61015b600060016106e3565b346101335761070a36600461018f565b61018b6102ba6106ee565b906080828203126101335761072a8183610228565b9261073882602085016102da565b9261074683604083016102da565b92606082013567ffffffffffffffff81116101335761054d92016104db565b3461013357610261610778366004610715565b9392909261140e565b61078b6001610401565b603160f81b602082015290565b61015b610781565b61015b610798565b61015b6107a0565b34610133576107c036600461018f565b61018b6104cf6107a8565b6107de6107d861015b9290565b60e01b90565b6001600160e01b03191690565b7fff7f07d4000000000000000000000000000000000000000000000000000000006001600160e01b0319821614908115610823575090565b90506108436108356301ffc9a76107cb565b916001600160e01b03191690565b1490565b61020d61015b61015b9290565b61015b90610847565b1561086457565b60405162461bcd60e51b815260206004820152600e60248201527f496e76616c6964207369676e65720000000000000000000000000000000000006044820152606490fd5b156108b057565b60405162461bcd60e51b815260206004820152600d60248201526c2737ba1027232a1037bbb732b960991b6044820152606490fd5b9060ff905b9181191691161790565b9061090461015b61090b92151590565b82546108e5565b9055565b6109639061093461092361020d6000610854565b6001600160a01b038316141561085d565b61094961094261020d610acb565b33146108a9565b61095e6001610959836005610593565b6108f4565b61058a565b7f425d2e6ca7b4c27e06a0b6c781a7a0d8a5661dba370a420150c9010a01b34fb361098d60405190565b600090a2565b61015b9061020d565b61015b9054610993565b156109ad57565b60405162461bcd60e51b815260206004820152600f60248201527f4e6f7420696e697469616c697a656400000000000000000000000000000000006044820152606490fd5b61015b9081565b61015b90546109f2565b3d15610a1d57610a123d610401565b903d6000602084013e565b606090565b15610a2957565b60405162461bcd60e51b815260206004820152600e60248201527f6f776e65724f66206661696c65640000000000000000000000000000000000006044820152606490fd5b9050519061014582610219565b906020828203126101335761015b91610a6e565b15610a9657565b60405162461bcd60e51b815260206004820152600d60248201526c24b73b30b634b21037bbb732b960991b6044820152606490fd5b610ad5600161099c565b610b05610ae26000610854565b91610afe6001600160a01b0384165b916001600160a01b031690565b14156109a6565b61015b610b99610b8c61095e600080610b4e610b21600161099c565b610b5d610b2e60026109f9565b6040516331a9108f60e11b60208201529384916024830190815260200190565b602082018103825203836102fd565b602082519201905afa610b77610b71610a03565b91610a22565b6020610b81825190565b818301019101610a7b565b926001600160a01b031690565b6001600160a01b0383161415610a8f565b61015b61015b61015b9290565b15610bbe57565b60405162461bcd60e51b815260206004820152601860248201527f496e76616c6964207369676e6174757265206c656e67746800000000000000006044820152606490fd5b61015b90610baa565b15610c1357565b60405162461bcd60e51b815260206004820152601b60248201527f496e76616c6964207369676e6174757265202773272076616c756500000000006044820152606490fd5b610c8861014594610c81606094989795610c77608086019a6000870152565b60ff166020850152565b6040830152565b0152565b6040513d6000823e3d90fd5b60209160009182610cc1610caa845190565b610cbb610cb76041610baa565b9190565b14610bb7565b50610d22848301519260606040820151910151851a93610d16610ce383610c03565b610d0f610cb77f7fffffffffffffffffffffffffffffff5d576e7357a4501ddfe92f46681b20a0610baa565b1115610c0c565b60405194859485610c58565b838052039060015afa15610d365760005190565b610c8c565b15610d4257565b60405162461bcd60e51b815260206004820152600e60248201527f496e76616c6964207461726765740000000000000000000000000000000000006044820152606490fd5b90916103559083908093610359565b909161015b92610d87565b15610da857565b60405162461bcd60e51b815260206004820152600b60248201526a10d85b1b0819985a5b195960aa1b6044820152606490fd5b919061049981610df2816103559560209181520190565b8095610359565b90815260406020820181905261015b93910191610ddb565b92917f12b246851a13a3216a99e5d8fb3b321e6ec2d3cea1eff08a997dd93151fc0ff990610e56610e4561020d6000610854565b6001600160a01b0387161415610d3b565b610e6461094261020d610acb565b610e97600080610e7360405190565b80610e7f898783610d96565b0390878a5af19561095e610e91610a03565b97610da1565b92610eb7610ea43361058a565b95610eae60405190565b93849384610df9565b0390a390565b15610ec457565b60405162461bcd60e51b815260206004820152601160248201527f5369676e617475726520657870697265640000000000000000000000000000006044820152606490fd5b61015b906105b4565b61015b9054610f09565b15610f2357565b60405162461bcd60e51b815260206004820152601460248201527f4e6f74207065726d6974746564207369676e65720000000000000000000000006044820152606490fd5b61015b913691610365565b9194610fb9610c8892989795610fb260a096610fab6101459a610f9b60c08a019e60008b0152565b6001600160a01b03166020890152565b6040870152565b6060850152565b6001600160a01b03166080830152565b6020809392610fe661040e6103559461190160f01b815260020190565b01918252565b15610ff357565b60405162461bcd60e51b815260206004820152601160248201527f496e76616c6964207369676e61747572650000000000000000000000000000006044820152606490fd5b1561103f57565b60405162461bcd60e51b815260206004820152601260248201527f5369676e6174757265206d69736d6174636800000000000000000000000000006044820152606490fd5b9682859683968a94959699611097606090565b508a6110a36000610854565b956001600160a01b0387166001600160a01b03891614156110c390610d3b565b844211156110d090610ebd565b6110db846005610593565b6110e490610f12565b80157f12b246851a13a3216a99e5d8fb3b321e6ec2d3cea1eff08a997dd93151fc0ff99c6111926111f49b6111dc9a6111866111cb9b610b8c9b6111626103fb9b6111869a6111b99a611233575b61113b90610f1c565b7f4f872536e1c5ce57c6ece6e282476cbe4b41d190b60136f6485314c5008900d895610f68565b61117461116d825190565b9160200190565b20604051978896602088019687610f73565b908103825203826102fd565b61119d61116d825190565b206111a860006109f9565b604051938492602084019283610fc9565b6111c461116d825190565b2092610f68565b6001600160a01b0383161415610fec565b6111ee6001600160a01b038716610af1565b14611038565b610eb7610ea461122d60008061120960405190565b806112158c8a83610d96565b0390878d5af19861095e611227610a03565b9a610da1565b9561058a565b5061113b61124261020d610acb565b6001600160a01b038516149050611132565b6112769061126661094261020d610acb565b61095e6000610959836005610593565b7f831aee9761aeb962fe7b0989140a3193e8e5e2354f5e10530616334a8255cdc361098d60405190565b156112a757565b60405162461bcd60e51b815260206004820152601360248201527f416c726561647920696e697469616c697a6564000000000000000000000000006044820152606490fd5b906001600160a01b03906108ea565b9061130b61015b61090b9261058a565b82546112ec565b90600019906108ea565b9061132c61015b61090b92610baa565b8254611312565b67ffffffffffffffff811161031f5760208091020190565b9092919261135b61037582611333565b938185526020808601920283019281841161013357915b83831061137f5750505050565b6020809161138d8486610228565b815201920191611372565b9080601f830112156101335781602061015b9335910161134b565b9060208282031261013357813567ffffffffffffffff81116101335761015b9201611398565b634e487b7160e01b600052603260045260246000fd5b906113f8825190565b811015611409576020809102010190565b6113d9565b92916114506114579261143061142b6114276004610f12565b1590565b6112a0565b611449600196611442600160046108f4565b60016112fb565b600261131c565b600361131c565b61145f6115a8565b82600093611470610cb76000610baa565b1161147c575b50505050565b8161148a91849301906113b3565b926114956000610baa565b915b15611476576114a761015b855190565b82101561154d576114e7826114cd6114c08695886113ef565b516001600160a01b031690565b6114dc610af161020d86610854565b036114ed5760010190565b91611497565b6115098461095960056115036114c0868c6113ef565b90610593565b61151961095e6114c083896113ef565b7f425d2e6ca7b4c27e06a0b6c781a7a0d8a5661dba370a420150c9010a01b34fb361154360405190565b600090a260010190565b611476565b909594926101459461158461158b9261157d60809661157660a088019c6000890152565b6020870152565b6040850152565b6060830152565b01906001600160a01b03169052565b9061132c61015b61090b9290565b6101456115b661015b61043c565b6115c161116d825190565b206116246115d061015b6107a0565b6115db61116d825190565b20916115e63061058a565b926111866115f360405190565b948593602085019346917f8b73c3c69bb8fe3d512ecc4cf759cc79239f7b179b0ffacaa9a75d522b39400f86611552565b61162f61116d825190565b20600061159a56fea2646970667358221220ca391962c8aa8f42722ef3e1fdeee747ecaf008d8e2c760af867e5f1f221da0864736f6c634300081c0033",
  "linkReferences": {},
  "deployedLinkReferences": {}
}