{"contracts/Raffles.sol":{"Raffles":{"abi":[{"inputs":[],"stateMutability":"nonpayable","type":"constructor"},{"inputs":[{"internalType":"address","name":"owner","type":"address"}],"name":"OwnableInvalidOwner","type":"error"},{"inputs":[{"internalType":"address","name":"account","type":"address"}],"name":"OwnableUnauthorizedAccount","type":"error"},{"inputs":[],"name":"ReentrancyGuardReentrantCall","type":"error"},{"anonymous":false,"inputs":[{"indexed":true,"internalType":"address","name":"admin","type":"address"}],"name":"AdminAdded","type":"event"},{"anonymous":false,"inputs":[{"indexed":true,"internalType":"address","name":"admin","type":"address"}],"name":"AdminRemoved","type":"event"},{"anonymous":false,"inputs":[{"indexed":true,"internalType":"uint256","name":"raffleId","type":"uint256"},{"indexed":true,"internalType":"address","name":"player","type":"address"},{"indexed":false,"internalType":"uint256","name":"participantId","type":"uint256"},{"indexed":false,"internalType":"uint256","name":"prizeIndex","type":"uint256"},{"indexed":false,"internalType":"uint256","name":"resultId","type":"uint256"}],"name":"BatchProcessed","type":"event"},{"anonymous":false,"inputs":[],"name":"ContractPaused","type":"event"},{"anonymous":false,"inputs":[],"name":"ContractUnpaused","type":"event"},{"anonymous":false,"inputs":[{"indexed":true,"internalType":"uint256","name":"resultId","type":"uint256"},{"indexed":true,"internalType":"uint256","name":"raffleId","type":"uint256"},{"indexed":true,"internalType":"address","name":"player","type":"address"},{"indexed":false,"internalType":"uint256","name":"participantId","type":"uint256"},{"indexed":false,"internalType":"uint256","name":"prizeIndex","type":"uint256"},{"indexed":false,"internalType":"bytes32","name":"ticketNumber","type":"bytes32"},{"indexed":false,"internalType":"uint256","name":"randomValue","type":"uint256"},{"indexed":false,"internalType":"uint256","name":"timestamp","type":"uint256"}],"name":"LotteryDrawn","type":"event"},{"anonymous":false,"inputs":[{"indexed":true,"internalType":"address","name":"previousOwner","type":"address"},{"indexed":true,"internalType":"address","name":"newOwner","type":"address"}],"name":"OwnershipTransferred","type":"event"},{"anonymous":false,"inputs":[{"indexed":true,"internalType":"uint256","name":"raffleId","type":"uint256"},{"indexed":true,"internalType":"address","name":"player","type":"address"},{"indexed":false,"internalType":"uint256","name":"participantId","type":"uint256"},{"indexed":false,"internalType":"bytes32","name":"ticketNumber","type":"bytes32"},{"indexed":false,"internalType":"uint256","name":"timestamp","type":"uint256"}],"name":"Participated","type":"event"},{"anonymous":false,"inputs":[{"indexed":true,"internalType":"uint256","name":"raffleId","type":"uint256"},{"indexed":true,"internalType":"address","name":"player","type":"address"},{"indexed":false,"internalType":"uint256","name":"participantId","type":"uint256"},{"indexed":false,"internalType":"uint256","name":"prizeIndex","type":"uint256"},{"indexed":false,"internalType":"uint256","name":"resultId","type":"uint256"},{"indexed":false,"internalType":"uint256","name":"timestamp","type":"uint256"}],"name":"ParticipatedAndDrawn","type":"event"},{"anonymous":false,"inputs":[{"indexed":true,"internalType":"uint256","name":"resultId","type":"uint256"},{"indexed":true,"internalType":"uint256","name":"raffleId","type":"uint256"},{"indexed":true,"internalType":"address","name":"player","type":"address"},{"indexed":false,"internalType":"uint256","name":"prizeIndex","type":"uint256"},{"indexed":false,"internalType":"string","name":"prizeTitle","type":"string"},{"indexed":false,"internalType":"address","name":"admin","type":"address"},{"indexed":false,"internalType":"string","name":"deliveryMethod","type":"string"},{"indexed":false,"internalType":"string","name":"trackingInfo","type":"string"},{"indexed":false,"internalType":"uint256","name":"timestamp","type":"uint256"}],"name":"PrizeDistributed","type":"event"},{"anonymous":false,"inputs":[{"indexed":true,"internalType":"uint256","name":"raffleId","type":"uint256"},{"indexed":false,"internalType":"string","name":"reason","type":"string"}],"name":"RaffleCancelled","type":"event"},{"anonymous":false,"inputs":[{"indexed":true,"internalType":"uint256","name":"raffleId","type":"uint256"}],"name":"RaffleCreated","type":"event"},{"anonymous":false,"inputs":[{"indexed":true,"internalType":"uint256","name":"raffleId","type":"uint256"},{"indexed":false,"internalType":"bool","name":"isActive","type":"bool"},{"indexed":true,"internalType":"address","name":"admin","type":"address"}],"name":"RaffleStatusChanged","type":"event"},{"anonymous":false,"inputs":[{"indexed":true,"internalType":"uint256","name":"raffleId","type":"uint256"},{"indexed":true,"internalType":"address","name":"player","type":"address"},{"indexed":true,"internalType":"address","name":"processedBy","type":"address"},{"indexed":false,"internalType":"string","name":"method","type":"string"},{"indexed":false,"internalType":"uint256","name":"timestamp","type":"uint256"}],"name":"RefundProcessed","type":"event"},{"anonymous":false,"inputs":[{"indexed":true,"internalType":"uint256","name":"raffleId","type":"uint256"},{"indexed":true,"internalType":"address","name":"player","type":"address"},{"indexed":false,"internalType":"string","name":"reason","type":"string"},{"indexed":false,"internalType":"uint256","name":"timestamp","type":"uint256"}],"name":"RefundRequested","type":"event"},{"inputs":[],"name":"MIN_DRAW_DELAY","outputs":[{"internalType":"uint256","name":"","type":"uint256"}],"stateMutability":"view","type":"function"},{"inputs":[],"name":"MIN_RAFFLE_DURATION","outputs":[{"internalType":"uint256","name":"","type":"uint256"}],"stateMutability":"view","type":"function"},{"inputs":[{"internalType":"address","name":"admin","type":"address"}],"name":"addAdmin","outputs":[],"stateMutability":"nonpayable","type":"function"},{"inputs":[{"internalType":"address","name":"","type":"address"}],"name":"admins","outputs":[{"internalType":"bool","name":"","type":"bool"}],"stateMutability":"view","type":"function"},{"inputs":[{"internalType":"uint256","name":"raffleId","type":"uint256"},{"internalType":"uint256","name":"startIndex","type":"uint256"},{"internalType":"uint256","name":"maxCount","type":"uint256"}],"name":"batchDraw","outputs":[{"internalType":"uint256[]","name":"","type":"uint256[]"}],"stateMutability":"nonpayable","type":"function"},{"inputs":[{"internalType":"uint256","name":"raffleId","type":"uint256"},{"internalType":"address[]","name":"players","type":"address[]"},{"internalType":"uint256[]","name":"prizeIndices","type":"uint256[]"}],"name":"batchParticipateDrawAndDistribute","outputs":[{"internalType":"uint256[]","name":"","type":"uint256[]"}],"stateMutability":"nonpayable","type":"function"},{"inputs":[{"internalType":"uint256","name":"raffleId","type":"uint256"},{"internalType":"string","name":"reason","type":"string"}],"name":"cancelRaffle","outputs":[],"stateMutability":"nonpayable","type":"function"},{"inputs":[{"internalType":"uint256[]","name":"resultIds","type":"uint256[]"},{"internalType":"bool[]","name":"distributionSuccess","type":"bool[]"},{"internalType":"string[]","name":"deliveryMethods","type":"string[]"}],"name":"confirmBatchDistribution","outputs":[],"stateMutability":"nonpayable","type":"function"},{"inputs":[{"components":[{"components":[{"internalType":"string","name":"title","type":"string"},{"internalType":"string","name":"description","type":"string"},{"internalType":"string","name":"imageUrl","type":"string"},{"internalType":"string","name":"iconUrl","type":"string"}],"internalType":"struct Raffles.RaffleBasicInfo","name":"basicInfo","type":"tuple"},{"components":[{"internalType":"uint256","name":"startDate","type":"uint256"},{"internalType":"uint256","name":"endDate","type":"uint256"},{"internalType":"bool","name":"instantDraw","type":"bool"},{"internalType":"uint256","name":"drawDate","type":"uint256"}],"internalType":"struct Raffles.RaffleTiming","name":"timing","type":"tuple"},{"components":[{"internalType":"bool","name":"dynamicWeight","type":"bool"},{"internalType":"uint256","name":"participationLimit","type":"uint256"},{"internalType":"uint256","name":"participationLimitPerPlayer","type":"uint256"}],"internalType":"struct Raffles.RaffleSettings","name":"settings","type":"tuple"},{"components":[{"internalType":"string","name":"participationFeeAsset","type":"string"},{"internalType":"string","name":"participationFeeAssetId","type":"string"},{"internalType":"int256","name":"participationFeeAmount","type":"int256"}],"internalType":"struct Raffles.RaffleFee","name":"fee","type":"tuple"},{"components":[{"internalType":"enum Raffles.PrizeType","name":"prizeType","type":"uint8"},{"internalType":"address","name":"collectionAddress","type":"address"},{"internalType":"uint256","name":"registeredTicketQuantity","type":"uint256"},{"internalType":"uint256","name":"pickedTicketQuantity","type":"uint256"},{"internalType":"uint256","name":"order","type":"uint256"},{"internalType":"uint256","name":"rarity","type":"uint256"},{"internalType":"uint256","name":"prizeQuantity","type":"uint256"},{"internalType":"uint256","name":"startTicketNumber","type":"uint256"},{"internalType":"string","name":"title","type":"string"},{"internalType":"string","name":"description","type":"string"},{"internalType":"string","name":"imageUrl","type":"string"},{"internalType":"string","name":"iconUrl","type":"string"},{"internalType":"string","name":"assetId","type":"string"},{"internalType":"uint256[]","name":"tokenIds","type":"uint256[]"}],"internalType":"struct Raffles.Prize[]","name":"prizes","type":"tuple[]"}],"internalType":"struct Raffles.RaffleCreateParams","name":"params","type":"tuple"}],"name":"createRaffle","outputs":[{"internalType":"uint256","name":"","type":"uint256"}],"stateMutability":"nonpayable","type":"function"},{"inputs":[{"internalType":"uint256","name":"raffleId","type":"uint256"},{"internalType":"uint256","name":"participantId","type":"uint256"}],"name":"draw","outputs":[{"internalType":"uint256","name":"","type":"uint256"}],"stateMutability":"nonpayable","type":"function"},{"inputs":[{"internalType":"uint256","name":"","type":"uint256"},{"internalType":"uint256","name":"","type":"uint256"}],"name":"excludedTickets","outputs":[{"internalType":"bool","name":"","type":"bool"}],"stateMutability":"view","type":"function"},{"inputs":[{"internalType":"uint256","name":"resultId","type":"uint256"}],"name":"getLotteryResult","outputs":[{"components":[{"internalType":"address","name":"player","type":"address"},{"internalType":"bool","name":"claimed","type":"bool"},{"internalType":"bytes32","name":"lotteryTicketNumber","type":"bytes32"},{"internalType":"uint256","name":"raffleId","type":"uint256"},{"internalType":"uint256","name":"prizeIndex","type":"uint256"},{"internalType":"uint256","name":"drawnAt","type":"uint256"},{"internalType":"uint256","name":"claimedAt","type":"uint256"}],"internalType":"struct Raffles.LotteryResult","name":"","type":"tuple"}],"stateMutability":"view","type":"function"},{"inputs":[{"internalType":"uint256","name":"raffleId","type":"uint256"}],"name":"getRaffle","outputs":[{"components":[{"components":[{"internalType":"string","name":"title","type":"string"},{"internalType":"string","name":"description","type":"string"},{"internalType":"string","name":"imageUrl","type":"string"},{"internalType":"string","name":"iconUrl","type":"string"}],"internalType":"struct Raffles.RaffleBasicInfo","name":"basicInfo","type":"tuple"},{"components":[{"internalType":"uint256","name":"startDate","type":"uint256"},{"internalType":"uint256","name":"endDate","type":"uint256"},{"internalType":"bool","name":"instantDraw","type":"bool"},{"internalType":"uint256","name":"drawDate","type":"uint256"}],"internalType":"struct Raffles.RaffleTiming","name":"timing","type":"tuple"},{"components":[{"internalType":"bool","name":"dynamicWeight","type":"bool"},{"internalType":"uint256","name":"participationLimit","type":"uint256"},{"internalType":"uint256","name":"participationLimitPerPlayer","type":"uint256"}],"internalType":"struct Raffles.RaffleSettings","name":"settings","type":"tuple"},{"components":[{"internalType":"string","name":"participationFeeAsset","type":"string"},{"internalType":"string","name":"participationFeeAssetId","type":"string"},{"internalType":"int256","name":"participationFeeAmount","type":"int256"}],"internalType":"struct Raffles.RaffleFee","name":"fee","type":"tuple"},{"components":[{"internalType":"bool","name":"isActive","type":"bool"},{"internalType":"bool","name":"isDrawn","type":"bool"},{"internalType":"uint256","name":"totalQuantity","type":"uint256"},{"internalType":"uint256","name":"remainingQuantity","type":"uint256"}],"internalType":"struct Raffles.RaffleStatus","name":"status","type":"tuple"},{"components":[{"internalType":"enum Raffles.PrizeType","name":"prizeType","type":"uint8"},{"internalType":"address","name":"collectionAddress","type":"address"},{"internalType":"uint256","name":"registeredTicketQuantity","type":"uint256"},{"internalType":"uint256","name":"pickedTicketQuantity","type":"uint256"},{"internalType":"uint256","name":"order","type":"uint256"},{"internalType":"uint256","name":"rarity","type":"uint256"},{"internalType":"uint256","name":"prizeQuantity","type":"uint256"},{"internalType":"uint256","name":"startTicketNumber","type":"uint256"},{"internalType":"string","name":"title","type":"string"},{"internalType":"string","name":"description","type":"string"},{"internalType":"string","name":"imageUrl","type":"string"},{"internalType":"string","name":"iconUrl","type":"string"},{"internalType":"string","name":"assetId","type":"string"},{"internalType":"uint256[]","name":"tokenIds","type":"uint256[]"}],"internalType":"struct Raffles.Prize[]","name":"prizes","type":"tuple[]"}],"internalType":"struct Raffles.Raffle","name":"","type":"tuple"}],"stateMutability":"view","type":"function"},{"inputs":[{"internalType":"uint256","name":"raffleId","type":"uint256"}],"name":"getRaffleParticipants","outputs":[{"internalType":"uint256[]","name":"","type":"uint256[]"}],"stateMutability":"view","type":"function"},{"inputs":[{"internalType":"uint256","name":"raffleId","type":"uint256"}],"name":"getRaffleStatus","outputs":[{"internalType":"bool","name":"isActive","type":"bool"},{"internalType":"bool","name":"isDrawn","type":"bool"},{"internalType":"uint256","name":"remainingQuantity","type":"uint256"}],"stateMutability":"view","type":"function"},{"inputs":[{"internalType":"uint256","name":"raffleId","type":"uint256"},{"internalType":"address","name":"player","type":"address"}],"name":"getUserParticipation","outputs":[{"internalType":"uint256","name":"","type":"uint256"}],"stateMutability":"view","type":"function"},{"inputs":[{"internalType":"uint256","name":"raffleId","type":"uint256"},{"internalType":"address","name":"player","type":"address"}],"name":"getUserParticipationDetails","outputs":[{"components":[{"internalType":"uint256","name":"participationCount","type":"uint256"},{"components":[{"internalType":"uint256","name":"participantId","type":"uint256"},{"internalType":"bytes32","name":"ticketNumber","type":"bytes32"},{"internalType":"uint256","name":"participatedAt","type":"uint256"},{"internalType":"bool","name":"hasLotteryResult","type":"bool"},{"internalType":"uint256","name":"resultId","type":"uint256"},{"internalType":"uint256","name":"prizeIndex","type":"uint256"},{"internalType":"bool","name":"claimed","type":"bool"},{"internalType":"uint256","name":"drawnAt","type":"uint256"},{"internalType":"uint256","name":"claimedAt","type":"uint256"}],"internalType":"struct Raffles.UserParticipationDetail[]","name":"participations","type":"tuple[]"}],"internalType":"struct Raffles.UserParticipationInfo","name":"","type":"tuple"}],"stateMutability":"view","type":"function"},{"inputs":[{"internalType":"address","name":"account","type":"address"}],"name":"isAdmin","outputs":[{"internalType":"bool","name":"","type":"bool"}],"stateMutability":"view","type":"function"},{"inputs":[{"internalType":"uint256","name":"","type":"uint256"}],"name":"lotteryResults","outputs":[{"internalType":"address","name":"player","type":"address"},{"internalType":"bool","name":"claimed","type":"bool"},{"internalType":"bytes32","name":"lotteryTicketNumber","type":"bytes32"},{"internalType":"uint256","name":"raffleId","type":"uint256"},{"internalType":"uint256","name":"prizeIndex","type":"uint256"},{"internalType":"uint256","name":"drawnAt","type":"uint256"},{"internalType":"uint256","name":"claimedAt","type":"uint256"}],"stateMutability":"view","type":"function"},{"inputs":[{"internalType":"uint256","name":"resultId","type":"uint256"},{"internalType":"string","name":"deliveryMethod","type":"string"},{"internalType":"string","name":"trackingInfo","type":"string"}],"name":"markPrizeDelivered","outputs":[],"stateMutability":"nonpayable","type":"function"},{"inputs":[],"name":"owner","outputs":[{"internalType":"address","name":"","type":"address"}],"stateMutability":"view","type":"function"},{"inputs":[{"internalType":"uint256","name":"","type":"uint256"}],"name":"participants","outputs":[{"internalType":"address","name":"player","type":"address"},{"internalType":"uint256","name":"raffleId","type":"uint256"},{"internalType":"bytes32","name":"lotteryTicketNumber","type":"bytes32"},{"internalType":"uint256","name":"participatedAt","type":"uint256"}],"stateMutability":"view","type":"function"},{"inputs":[{"internalType":"uint256","name":"raffleId","type":"uint256"},{"internalType":"address","name":"player","type":"address"}],"name":"participate","outputs":[{"internalType":"uint256","name":"","type":"uint256"}],"stateMutability":"nonpayable","type":"function"},{"inputs":[{"internalType":"uint256","name":"raffleId","type":"uint256"},{"internalType":"address","name":"player","type":"address"}],"name":"participateAndDraw","outputs":[{"internalType":"uint256","name":"participantId","type":"uint256"},{"internalType":"uint256","name":"prizeIndex","type":"uint256"},{"internalType":"uint256","name":"resultId","type":"uint256"}],"stateMutability":"nonpayable","type":"function"},{"inputs":[],"name":"paused","outputs":[{"internalType":"bool","name":"","type":"bool"}],"stateMutability":"view","type":"function"},{"inputs":[{"internalType":"uint256","name":"","type":"uint256"},{"internalType":"address","name":"","type":"address"},{"internalType":"uint256","name":"","type":"uint256"}],"name":"playerParticipantIds","outputs":[{"internalType":"uint256","name":"","type":"uint256"}],"stateMutability":"view","type":"function"},{"inputs":[{"internalType":"uint256","name":"","type":"uint256"},{"internalType":"address","name":"","type":"address"}],"name":"playerParticipationCount","outputs":[{"internalType":"uint256","name":"","type":"uint256"}],"stateMutability":"view","type":"function"},{"inputs":[{"internalType":"uint256","name":"raffleId","type":"uint256"},{"internalType":"address","name":"player","type":"address"},{"internalType":"string","name":"method","type":"string"}],"name":"processRefund","outputs":[],"stateMutability":"nonpayable","type":"function"},{"inputs":[{"internalType":"uint256","name":"","type":"uint256"},{"internalType":"uint256","name":"","type":"uint256"}],"name":"raffleParticipants","outputs":[{"internalType":"uint256","name":"","type":"uint256"}],"stateMutability":"view","type":"function"},{"inputs":[{"internalType":"uint256","name":"","type":"uint256"},{"internalType":"uint256","name":"","type":"uint256"}],"name":"raffleTicketBlocks","outputs":[{"internalType":"uint256","name":"","type":"uint256"}],"stateMutability":"view","type":"function"},{"inputs":[{"internalType":"uint256","name":"","type":"uint256"}],"name":"raffles","outputs":[{"components":[{"internalType":"string","name":"title","type":"string"},{"internalType":"string","name":"description","type":"string"},{"internalType":"string","name":"imageUrl","type":"string"},{"internalType":"string","name":"iconUrl","type":"string"}],"internalType":"struct Raffles.RaffleBasicInfo","name":"basicInfo","type":"tuple"},{"components":[{"internalType":"uint256","name":"startDate","type":"uint256"},{"internalType":"uint256","name":"endDate","type":"uint256"},{"internalType":"bool","name":"instantDraw","type":"bool"},{"internalType":"uint256","name":"drawDate","type":"uint256"}],"internalType":"struct Raffles.RaffleTiming","name":"timing","type":"tuple"},{"components":[{"internalType":"bool","name":"dynamicWeight","type":"bool"},{"internalType":"uint256","name":"participationLimit","type":"uint256"},{"internalType":"uint256","name":"participationLimitPerPlayer","type":"uint256"}],"internalType":"struct Raffles.RaffleSettings","name":"settings","type":"tuple"},{"components":[{"internalType":"string","name":"participationFeeAsset","type":"string"},{"internalType":"string","name":"participationFeeAssetId","type":"string"},{"internalType":"int256","name":"participationFeeAmount","type":"int256"}],"internalType":"struct Raffles.RaffleFee","name":"fee","type":"tuple"},{"components":[{"internalType":"bool","name":"isActive","type":"bool"},{"internalType":"bool","name":"isDrawn","type":"bool"},{"internalType":"uint256","name":"totalQuantity","type":"uint256"},{"internalType":"uint256","name":"remainingQuantity","type":"uint256"}],"internalType":"struct Raffles.RaffleStatus","name":"status","type":"tuple"}],"stateMutability":"view","type":"function"},{"inputs":[{"internalType":"address","name":"admin","type":"address"}],"name":"removeAdmin","outputs":[],"stateMutability":"nonpayable","type":"function"},{"inputs":[],"name":"renounceOwnership","outputs":[],"stateMutability":"nonpayable","type":"function"},{"inputs":[{"internalType":"uint256","name":"raffleId","type":"uint256"},{"internalType":"string","name":"reason","type":"string"}],"name":"requestRefund","outputs":[],"stateMutability":"nonpayable","type":"function"},{"inputs":[{"internalType":"bool","name":"_paused","type":"bool"}],"name":"setPaused","outputs":[],"stateMutability":"nonpayable","type":"function"},{"inputs":[{"internalType":"uint256","name":"raffleId","type":"uint256"},{"internalType":"bool","name":"_isActive","type":"bool"}],"name":"setRaffleActive","outputs":[],"stateMutability":"nonpayable","type":"function"},{"inputs":[{"internalType":"bytes32","name":"","type":"bytes32"}],"name":"ticketToResultId","outputs":[{"internalType":"uint256","name":"","type":"uint256"}],"stateMutability":"view","type":"function"},{"inputs":[{"internalType":"address","name":"newOwner","type":"address"}],"name":"transferOwnership","outputs":[],"stateMutability":"nonpayable","type":"function"}],"evm":{"bytecode":{"linkReferences":{},"object":"608060405234610022576100116100d1565b6040516155c761024c82396155c790f35b600080fd5b90600019905b9181191691161790565b6100446100446100449290565b90565b9061005761004461005e92610037565b8254610027565b9055565b61004490610076906001600160a01b031682565b6001600160a01b031690565b61004490610062565b61004490610082565b9061009e9061008b565b600052602052604060002090565b9060ff9061002d565b151590565b906100ca61004461005e926100b5565b82546100ac565b6100da33610145565b61011060016100ea816003610047565b6100f5816005610047565b61010081600b610047565b61010b33600f610094565b6100ba565b565b6100766100446100449290565b61004490610112565b61013190610076565b9052565b6020810192916101109190610128565b61014d610197565b60006101588161011f565b61016181610076565b61016a84610076565b1461017a575050610110906101f4565b631e4fbdf760e01b825281906101939060048301610135565b0390fd5b6101106101a9565b6100446001610037565b6101106101b461019f565b6000610047565b61004490610076565b61004490546101bb565b906001600160a01b039061002d565b906101ed61004461005e9261008b565b82546101ce565b61021a61021461020460016101c4565b61020f8460016101dd565b61008b565b9161008b565b907f8be0079c531659141344cd1fd0a4f28419497f9722a3daafe3b4186f6b6457e061024560405190565b600090a356fe610100604052600436101561001357600080fd5b60003560e01c806309b50a071461027357806313b186401461026e57806316c38b3c14610269578063176a8555146102645780631785f53c1461025f57806324d7806c1461025a57806335c1d349146102555780633f35c93b14610250578063429b62e51461024b57806357415423146102465780635c975abb146102415780635d4bc0ce1461023c5780636bf611bf146102375780637048027514610232578063715018a61461022d57806373178c0d146102285780637bb60ac0146102235780637cafa47a1461021e57806381eff790146102195780638772d2dd146102145780638d5a8e701461020f5780638da5cb5b1461020a57806390409bd5146102055780639d06f11214610200578063a6e3295b146101fb578063b08b3a51146101f6578063b094e365146101f1578063b1ddd82a146101ec578063b8342793146101e7578063c5ac3d4b146101e2578063d1ce754e146101dd578063d2b8035a146101d8578063d47fd2c9146101d3578063d8a35cc2146101ce578063e354c358146101c9578063e4dafec9146101c4578063f2fde38b146101bf5763fbb7c22d0361027857611bc5565b611b99565b611b72565b6118c5565b611881565b611371565b611341565b611317565b6112e1565b6112c2565b611272565b611248565b611178565b61109f565b611037565b610fec565b610eaa565b610e8e565b610dd0565b610d46565b610d08565b610cd1565b610c62565b610c0e565b610bf6565b610bdb565b610b97565b6106f8565b6106c8565b6105b2565b610538565b6104e4565b61040f565b6103f7565b6103c7565b6103aa565b610365565b6102eb565b600080fd5b805b0361027857565b905035906102938261027d565b565b90602082820312610278576102a991610286565b90565b905b600052602052604060002090565b6102a9916008021c81565b906102a991546102bc565b60006102e26102a99260096102ac565b6102c7565b9052565b3461027857610316610306610301366004610295565b6102d2565b6040519182918290815260200190565b0390f35b6001600160a01b031690565b6001600160a01b03811661027f565b9050359061029382610326565b9190604083820312610278576102a990602061035e8286610286565b9401610335565b346102785761031661030661037b366004610342565b90611f03565b80151561027f565b9050359061029382610381565b90602082820312610278576102a991610389565b34610278576103c26103bd366004610396565b611faa565b604051005b34610278576103166103066103dd366004610342565b90611fb3565b90602082820312610278576102a991610335565b34610278576103c261040a3660046103e3565b61217f565b346102785761031661042a6104253660046103e3565b612188565b6040515b91829182901515815260200190565b6102a96102a96102a99290565b906102ae9061043d565b6102a99081565b6102a99054610454565b61047090600461044a565b9061048282546001600160a01b031690565b9161048f6001820161045b565b916102a960036104a16002850161045b565b930161045b565b6104e0610293946104d96060949897956104d2608086019a60008701906001600160a01b03169052565b6020850152565b6040830152565b0152565b34610278576103166104ff6104fa366004610295565b610465565b9061050c94929460405190565b948594856104a8565b9190604083820312610278576102a99060206105318286610286565b9401610389565b34610278576103c261054b366004610515565b9061239d565b61031a6102a96102a9926001600160a01b031690565b6102a990610551565b6102a990610567565b906102ae90610570565b6102a9916008021c5b60ff1690565b906102a99154610583565b60006105ad6102a992600f610579565b610592565b346102785761031661042a6105c83660046103e3565b61059d565b634e487b7160e01b600052604160045260246000fd5b90601f01601f191681019081106001600160401b0382111761060457604052565b6105cd565b9061029361061660405190565b92836105e3565b6001600160401b03811161060457602090601f01601f19160190565b0190565b90826000939282370152565b9092919261065e6106598261061d565b610609565b93818552818301116102785761029391602085019061063d565b9080601f83011215610278578160206102a993359101610649565b919091604081840312610278576106aa8382610286565b9260208201356001600160401b038111610278576102a99201610678565b34610278576103c26106db366004610693565b90612588565b600091031261027857565b6102a96000600e610592565b34610278576107083660046106e1565b61031661042a6106ec565b634e487b7160e01b600052602260045260246000fd5b9060016002830492168015610749575b602083101461074457565b610713565b91607f1691610739565b8054600093929161077061076683610729565b8085529360200190565b91600181169081156107c2575060011461078957505050565b61079c9192939450600052602060002090565b916000925b8184106107ae5750500190565b8054848401526020909301926001016107a1565b92949550505060ff1916825215156020020190565b906102a991610753565b906102936107fb926107f260405190565b938480926107d7565b03836105e3565b6102a96080610609565b90610293610860600361081d610802565b9461082e61082a826107e1565b8752565b61084461083d600183016107e1565b6020880152565b61085a610853600283016107e1565b6040880152565b016107e1565b6060840152565b6102a99061058c565b6102a99054610867565b90610293610860600361088b610802565b9461089861082a8261045b565b6108a761083d6001830161045b565b6108bf6108b660028301610870565b15156040880152565b0161045b565b6102a96060610609565b9061029361090260026108e06108c5565b946108f36108ed82610870565b15158752565b6108bf61083d6001830161045b565b6040840152565b90610293610902600261091a6108c5565b9461092761082a826107e1565b6108bf61083d600183016107e1565b6102a99060081c61058c565b6102a99054610936565b90610293610860600261095d610802565b9461096a6108ed82610870565b61097f61097682610942565b15156020880152565b6108bf6108536001830161045b565b61099990600261044a565b6109a28161080c565b916109af6004830161087a565b916109bc600882016108cf565b916102a9600e6109ce600b8501610909565b930161094c565b60005b8381106109e85750506000910152565b81810151838201526020016109d8565b610a19610a2260209361063993610a0d815190565b80835293849260200190565b958691016109d5565b601f01601f191690565b6102a9916060610a75610a63610a5160808501600087015186820360008801526109f8565b602086015185820360208701526109f8565b604085015184820360408601526109f8565b9201519060608184039101526109f8565b8051825261029391906060908190610aa360208201516020860152565b6040818101511515908501525b0151910152565b80511515825261029391906040908190610ab060208201516020860152565b906102a990604080610b0c610afa60608501600088015186820360008801526109f8565b602087015185820360208701526109f8565b940151910152565b80511515825261029391906060908190602081810151151590850152610ab060408201516040860152565b9594929161029394610b8161012094610b77610b6c610b8f966101a08d01908d6000818403910152610a2c565b9460208c0190610a86565b60a08a0190610ab7565b878203610100890152610ad6565b940190610b14565b3461027857610316610bb2610bad366004610295565b61098e565b91610bbf95939560405190565b95869586610b3f565b6102a961070861043d565b6102a9610bc8565b3461027857610beb3660046106e1565b610316610306610bd3565b34610278576103c2610c093660046103e3565b612646565b3461027857610c1e3660046106e1565b6103c261266c565b9190604083820312610278576102a9906020610c428286610286565b9401610286565b6102e26102a992610c5d600093600c61044a565b61044a565b3461027857610316610306610c78366004610c26565b90610c49565b9160608383031261027857610c938284610286565b9260208101356001600160401b0381116102785783610cb3918301610678565b9260408201356001600160401b038111610278576102a99201610678565b34610278576103c2610ce4366004610c7e565b91612a24565b9081526060810193926102939290916040916104e0905b6020830152565b3461027857610316610d24610d1e366004610342565b90612dda565b60405191939193849384610cea565b6102a9610e1061043d565b6102a9610d33565b3461027857610d563660046106e1565b610316610306610d3e565b80516001600160a01b03168252610293919060c0908190602081810151151590850152610d9360408201516040860152565b610da260608201516060860152565b610db160808201516080860152565b610ab060a082015160a0860152565b60e0810192916102939190610d61565b3461027857610316610deb610de6366004610295565b612ebd565b60405191829182610dc0565b9091606082840312610278576102a9610e108484610286565b936040610c428260208701610335565b634e487b7160e01b600052603260045260246000fd5b8054821015610e5957610e50600191600052602060002090565b91020190600090565b610e20565b90610e6d610e7292600861044a565b610579565b8054821015610278576102a991610e8891610e36565b906102c7565b3461027857610316610306610ea4366004610df7565b91610e5e565b3461027857610eba3660046106e1565b610316610ecf6001546001600160a01b031690565b604051918291826001600160a01b03909116815260200190565b805182526102939190610100908190610f0760208201516020860152565b610f1660408201516040860152565b606081810151151590850152610f3160808201516080860152565b610f4060a082015160a0860152565b60c081810151151590850152610ab060e082015160e0860152565b906106398161012093610ee9565b90610f89610f82610f78845190565b8084529260200190565b9260200190565b9060005b818110610f9a5750505090565b909192610fb4610fad6001928651610f5b565b9460200190565b929101610f8d565b805182526102a991604081019160200151906020818403910152610f69565b60208082526102a992910190610fbc565b3461027857610316611008611002366004610342565b90613036565b60405191829182610fdb565b91606083830312610278576110298284610286565b92610cb38360208301610335565b34610278576103c261104a366004611014565b91613463565b9061105f610f82610f78845190565b9060005b8181106110705750505090565b909192611086610fad6001928651815260200190565b929101611063565b60208082526102a992910190611050565b34610278576103166110ba6110b5366004610295565b61346e565b6040519182918261108e565b6102a99060a01c61058c565b6102a990546110c6565b6110e790600a61044a565b80546001600160a01b0316916110fc826110d2565b916111096001820161045b565b916111166002830161045b565b916111236003820161045b565b916102a960056104a16004850161045b565b949290979695939160e086019860008701611157916001600160a01b03169052565b1515602086015260408501526060840152608083015260a082015260c00152565b346102785761031661119361118e366004610295565b6110dc565b936111a397959793919360405190565b97889788611135565b909182601f83011215610278578135916001600160401b03831161027857602001926020830284011161027857565b906060828203126102785781356001600160401b03811161027857816112029184016111ac565b92909360208201356001600160401b03811161027857836112249184016111ac565b92909360408201356001600160401b0381116102785761124492016111ac565b9091565b34610278576103c261125b3660046111db565b949390939291926137a2565b610e7290600661044a565b3461027857610316610306611288366004610c26565b90611267565b606081830312610278576112a28282610286565b9260208201356001600160401b03811161027857836112249184016111ac565b34610278576103166110ba6112d836600461128e565b93929092613aa9565b34610278576103c26112f4366004610693565b90613b9f565b901515815290151560208201526060810192916102939160400152565b346102785761031661133261132d366004610295565b613ba9565b604051919391938493846112fa565b3461027857610316610306611357366004610c26565b90613d2b565b6105ad6102a992610c5d600093600d61044a565b346102785761031661042a611387366004610c26565b9061135d565b919091608081840312610278576113a46080610609565b9281356001600160401b03811161027857816113c1918401610678565b845260208201356001600160401b03811161027857816113e2918401610678565b602085015260408201356001600160401b0381116102785781611406918401610678565b604085015260608201356001600160401b038111610278576114289201610678565b6060830152565b91906080838203126102785761142890606061144b6080610609565b946114568382610286565b86526114658360208301610286565b60208701526114778360408301610389565b604087015201610286565b9190606083820312610278576104d990604061149e6060610609565b946114a98382610389565b86526114b88360208301610286565b602087015201610286565b919091606081840312610278576114da6060610609565b9281356001600160401b03811161027857816114f7918401610678565b845260208201356001600160401b03811161027857826114b8836040936104d99601610678565b6001600160401b0381116106045760208091020190565b6004111561027857565b9050359061029382611535565b9092919261155c6106598261151e565b938185526020808601920283019281841161027857915b8383106115805750505050565b6020809161158e8486610286565b815201920191611573565b9080601f83011215610278578160206102a99335910161154c565b9190916101c081840312610278576115cd6101c0610609565b926115d8818361153f565b84526115e78160208401610335565b60208501526115f98160408401610286565b604085015261160b8160608401610286565b606085015261161d8160808401610286565b608085015261162f8160a08401610286565b60a08501526116418160c08401610286565b60c08501526116538160e08401610286565b60e08501526101008201356001600160401b0381116102785781611678918401610678565b6101008501526101208201356001600160401b038111610278578161169e918401610678565b6101208501526101408201356001600160401b03811161027857816116c4918401610678565b6101408501526101608201356001600160401b03811161027857816116ea918401610678565b6101608501526101808201356001600160401b0381116102785781611710918401610678565b6101808501526101a08201356001600160401b038111610278576117349201611599565b6101a0830152565b92919061174b6106598261151e565b93818552602080860192028101918383116102785781905b838210611771575050505050565b81356001600160401b0381116102785760209161179187849387016115b4565b815201910190611763565b9080601f83011215610278578160206102a99335910161173c565b91909161014081840312610278576117cf60a0610609565b9281356001600160401b03811161027857816117ec91840161138d565b84526117fb816020840161142f565b602085015261180d8160a08401611482565b60408501526101008201356001600160401b03811161027857816118329184016114c3565b60608501526101208201356001600160401b03811161027857611855920161179c565b6080830152565b906020828203126102785781356001600160401b038111610278576102a992016117b7565b346102785761031661030661189736600461185c565b61424a565b9091606082840312610278576102a96118b58484610286565b936040610c428260208701610286565b34610278576103166110ba6118db36600461189c565b916143fb565b634e487b7160e01b600052602160045260246000fd5b6004111561190157565b6118e1565b90610293826118f7565b6102a990611906565b6102e790611910565b90611931610f82610f78845190565b9060005b8181106119425750505090565b909192611958610fad6001928651815260200190565b929101611935565b6102a9916101a0611a5e611a4a611a36611a22611a0e6101c0870161198d60008a015160008a0190611919565b6020898101516001600160a01b0316908901526119af60408a015160408a0152565b6119be60608a015160608a0152565b6119cd60808a015160808a0152565b6119dc60a08a015160a08a0152565b6119eb60c08a015160c08a0152565b6119fa60e08a015160e08a0152565b6101008901518882036101008a01526109f8565b6101208801518782036101208901526109f8565b6101408701518682036101408801526109f8565b6101608601518582036101608701526109f8565b6101808501518482036101808601526109f8565b920151906101a0818403910152611922565b906102a991611960565b90611a90611a86835190565b8083529160200190565b9081611aa26020830284019460200190565b926000915b838310611ab657505050505090565b90919293946020611ad9611ad283856001950387528951611a70565b9760200190565b9301930191939290611aa7565b80516101c08084526102a9939160a091611b3c91611b0691850190610a2c565b611b1860208601516020860190610a86565b611b29604086015184860190610ab7565b6060850151848203610100860152610ad6565b92611b506080820151610120850190610b14565b0151906101a0818403910152611a7a565b60208082526102a992910190611ae6565b3461027857610316611b8d611b88366004610295565b614716565b60405191829182611b61565b34610278576103c2611bac3660046103e3565b6147a6565b6102e26102a992610e6d600093600761044a565b3461027857610316610306611bdb366004610342565b90611bb1565b90611bf49291611bef6147b9565b611c49565b906102936147f9565b15611c0457565b60405162461bcd60e51b815260206004820152601260248201527f436f6e74726163742069732070617573656400000000000000000000000000006044820152606490fd5b906102a99291611c68611c63611c5f600e610870565b1590565b611bfd565b611dd3565b634e487b7160e01b600052601160045260246000fd5b6000198114611c925760010190565b611c6d565b90600019905b9181191691161790565b90611cb76102a9611cbe9261043d565b8254611c97565b9055565b634e487b7160e01b600052600060045260246000fd5b906001600160a01b0390611c9d565b90611cf76102a9611cbe92610570565b8254611cd8565b90611cb76102a9611cbe9290565b6003611d67606061029394611d34611d2e60008301516001600160a01b031690565b86611ce7565b611d4b611d42602083015190565b60018701611ca7565b611d62611d59604083015190565b60028701611cfe565b015190565b9101611ca7565b9061029391611d0c565b9160001960089290920291821b911b611c9d565b9190611d9d6102a9611cbe9361043d565b908354611d78565b90815491680100000000000000008310156106045782611dcd91600161029395018155610e36565b90611d8c565b5090611de1600082846148ef565b611df5611dee600561045b565b8383614a8c565b907fc3013841eb45dbf48e54bccdbdfca27c812fe5016e531d0ff451032d38369c6f611efd611ee7611ee1611e2a600561045b565b96611e3e611e3789611c83565b6005611ca7565b611e86611e49610802565b6001600160a01b0388168152611e60836020830152565b611e6b896040830152565b611e76426060830152565b611e818a600461044a565b611d6e565b611e9d88611e986102a984600661044a565b611da5565b611ec6611eaf87610e6d84600761044a565b611ec0611ebb8261045b565b611c83565b90611ca7565b611edc88611e986102a989610e6d86600861044a565b61043d565b93610570565b93611ef160405190565b91829142908884610cea565b0390a390565b6102a991906000611be1565b61029390611f1b614afd565b611f40565b9060ff90611c9d565b90611f396102a9611cbe92151590565b8254611f20565b611f4b81600e611f29565b15611f80577fab35696f06e428ebc5ceba8cd17f8fed287baf43440206d1943af1ee53e6d267611f7a60405190565b600090a1565b7f0e5e3b3fb504c22cf5c42fa07d521225937514c654007e1f12646f89768d6f94611f7a60405190565b61029390611f0f565b6102a991610e6d611fce92611fc6600090565b50600761044a565b61045b565b61029390611fdf614afd565b6120ca565b61031a6102a96102a99290565b6102a990611fe4565b1561200157565b60405162461bcd60e51b815260206004820152600f60248201527f494e56414c49445f4144445245535300000000000000000000000000000000006044820152606490fd5b1561204d57565b60405162461bcd60e51b81526020600482015260096024820152682727aa2fa0a226a4a760b91b6044820152606490fd5b1561208557565b60405162461bcd60e51b815260206004820152601360248201527f43414e4e4f545f52454d4f56455f4f574e4552000000000000000000000000006044820152606490fd5b61214d906120ef6120de61031a6000611ff1565b6001600160a01b0383161415611ffa565b61210a61210561210083600f610579565b610870565b612046565b61213361212261031a6001546001600160a01b031690565b6001600160a01b038316141561207e565b612148600061214383600f610579565b611f29565b610570565b7fa3b62bc36326052d97ea62d63c3d60308ed4c3ea8ac079dd8499f1e9c4f80c0f61217760405190565b80805b0390a2565b61029390611fd3565b6121006102a991612197600090565b50600f610579565b156121a657565b60405162461bcd60e51b815260206004820152600e60248201527f4e6f7420417574686f72697a65640000000000000000000000000000000000006044820152606490fd5b906102939161220661220161210033600f610579565b61219f565b906102939161221b611c63611c5f600e610870565b6122f2565b1561222757565b60405162461bcd60e51b815260206004820152601160248201527f524146464c455f4e4f545f4558495354530000000000000000000000000000006044820152606490fd5b1561227357565b60405162461bcd60e51b815260206004820152601460248201527f524146464c455f414c52454144595f445241574e0000000000000000000000006044820152606490fd5b156122bf57565b60405162461bcd60e51b815260206004820152600b60248201526a1053149150511657d4d15560aa1b6044820152606490fd5b61236190611edc836000600e61230c6102a986600261044a565b61233361231d84600484010161045b565b61232d6123298661043d565b9190565b11612220565b0101612349612344611c5f83610942565b61226c565b61214361235582610870565b151583151514156122b8565b7f749ebdef365d5cfb45277b1b6f7fde8faa320b22253fcef31c7bdf8136164ec561239861238e33610570565b9361042e60405190565b0390a3565b90610293916121eb565b90610293916123bd61220161210033600f610579565b90610293916123d2611c63611c5f600e610870565b6124e0565b156123de57565b60405162461bcd60e51b815260206004820152601160248201527f524146464c455f4e4f545f4143544956450000000000000000000000000000006044820152606490fd5b1561242a57565b60405162461bcd60e51b815260206004820152600d60248201526c20a62922a0a22cafa22920aba760991b6044820152606490fd5b1561246657565b60405162461bcd60e51b815260206004820152600f60248201527f524541534f4e5f524551554952454400000000000000000000000000000000006044820152606490fd5b9061ff009060081b611c9d565b906124c86102a9611cbe92151590565b82546124ab565b60208082526102a9929101906109f8565b61217a6125757f4b065d94bb5f805836b9aefd08a7b4388cfdd8d346a56ef0a4a547dbca8b8f1f92611edc60016000600e61251f6102a986600261044a565b01612547612542611c5f84840161253d61253882610870565b6123d7565b610942565b612423565b6125646125528a5190565b61255e6123298561043d565b1161245f565b01612570600082611f29565b6124b8565b9261257f60405190565b918291826124cf565b90610293916123a7565b6102939061259e614afd565b6125df565b156125aa57565b60405162461bcd60e51b815260206004820152600d60248201526c20a62922a0a22cafa0a226a4a760991b6044820152606490fd5b61261c906125f36120de61031a6000611ff1565b61260c612607611c5f61210084600f610579565b6125a3565b612148600161214383600f610579565b7f44d6d25963f097ad14f29f06854a01f575648a1ef82f30e562ccd3889717e33961217760405190565b61029390612592565b612657614afd565b6102936102936126676000611ff1565b614b47565b61029361264f565b90610293929161268b61220161210033600f610579565b9061029392916126a1611c63611c5f600e610870565b6128e2565b156126ad57565b60405162461bcd60e51b815260206004820152600f60248201527f5052495a455f4e4f545f445241574e00000000000000000000000000000000006044820152606490fd5b156126f957565b60405162461bcd60e51b815260206004820152601160248201527f414c52454144595f44454c4956455245440000000000000000000000000000006044820152606490fd5b1561274557565b60405162461bcd60e51b815260206004820152601860248201527f44454c49564552595f4d4554484f445f524551554952454400000000000000006044820152606490fd5b9060ff60a01b9060a01b611c9d565b906127a96102a9611cbe92151590565b825461278a565b156127b757565b60405162461bcd60e51b815260206004820152601360248201527f494e56414c49445f5052495a455f494e444558000000000000000000000000006044820152606490fd5b8054821015610e5957610e50600d91600052602060002090565b8054600093929161282961076683610729565b91600181169081156107c2575060011461284257505050565b6128559192939450600052602060002090565b916000925b8184106128675750500190565b80548484015260209093019260010161285a565b96959360a0936128cf916128c26128b08b6128dd976128a36102939c98600060c08501940152565b8d820360208f0152612816565b6001600160a01b0390931660408c0152565b89820360608b01526109f8565b9087820360808901526109f8565b940152565b91906128ef83600a61044a565b916128fc6004840161045b565b612906600061043d565b10612910906126a6565b829161291b836110d2565b15612925906126f2565b8051612931600061043d565b1061293b9061273e565b612946600184612799565b6129534260058601611ca7565b600284016129608161045b565b61296b90600261044a565b94600301906129798261045b565b9560110195612986875490565b11612990906127b0565b6129999061045b565b93546001600160a01b0316946129ae8261045b565b916129b89061045b565b6129c1916127fc565b50600701956129cf9061043d565b936129d99061043d565b946129e390610570565b956129ed60405190565b938493429233906129fe958761287b565b037fcef6d1b833317d0bb1325916e3e8991ff3af40c4da83e3cedbc19b4a64d1bdf591a4565b906102939291612674565b90612a4494939291612a3f6147b9565b612a4f565b9091926102936147f9565b90612a6c94939291612a67611c63611c5f600e610870565b612bce565b909192565b906102936108606003612a82610802565b94612aa4612a9782546001600160a01b031690565b6001600160a01b03168752565b612ab361083d6001830161045b565b6108bf6108536002830161045b565b6102a990612a71565b6102a99061043d565b634e487b7160e01b600052601260045260246000fd5b8115612af4570690565b612ad4565b8015611c92576000190190565b6102a960e0610609565b61029391600590611d679060c090612b4985612b3c612b3684516001600160a01b031690565b82611ce7565b6020830151151590612799565b612b60612b57604083015190565b60018701611cfe565b612b77612b6e606083015190565b60028701611ca7565b612b8e612b85608083015190565b60038701611ca7565b611d62612b9c60a083015190565b60048701611ca7565b9061029391612b10565b6104e0610293946104d96060949897956104d2608086019a6000870152565b949294505050600191612be28382866148ef565b612bf06102a985600261044a565b90612bfb8186614b9c565b91612c0f612c0a84600461044a565b612ac2565b94612c23612c1e858986614a8c565b612acb565b96600e830192612c4982612c438587019b612c3d8d61045b565b90612aea565b83614c48565b988991612c5860088201610870565b612d9e575b50505060028301612c6d8161045b565b612c7690612af9565b612c809082611ca7565b612c8a600b61045b565b8098612c9582611c83565b612ca090600b611ca7565b6040018051612cad612b06565b6001600160a01b03891681529086151560208301526040820152612cd2856060830152565b612cdd8c6080830152565b612ce84260a0830152565b612cf34260c0830152565b612cfe83600a61044a565b90612d0891612ba5565b51612d149060096102ac565b90612d1e91611ca7565b612d279061045b565b612d31600061043d565b1492612d4792612d4d94612d8e575b505061043d565b91610570565b907f5b6db09229f804e15657628b57342d213a730173bd981b36dbc89bc94199b8f9612d7860405190565b80612d8642898b8985612baf565b0390a3929190565b612d97916124b8565b3880612d40565b6002612db3612dd2946011612dc194016127fc565b5001611ec0611ebb8261045b565b611ec0612dcd8261045b565b612af9565b873880612c5d565b612a6c919060008080612a2f565b612df0612b06565b90600082526020808080808080880160005b8152016000815201600081520160005b81520160005b8152016000905250565b6102a9612de8565b90610293612ead6005612e3b612b06565b94612e50612a9782546001600160a01b031690565b612e5c610976826110d2565b612e6b6108536001830161045b565b612e81612e7a6002830161045b565b6060880152565b612e97612e906003830161045b565b6080880152565b6108bf612ea66004830161045b565b60a0880152565b60c0840152565b6102a990612e2a565b612ed46102a991612ecc612e22565b50600a61044a565b612eb4565b6102a96040610609565b612eeb612ed9565b906000825260606020830152565b6102a9612ee3565b90612f0e6106598361151e565b918252565b6102a9610120610609565b612f26612f13565b9060008252602080808080808080808a01600081520160008152016000612e02565b6102a9612f1e565b60005b828110612f5f57505050565b602090612f6a612f48565b8184015201612f53565b90610293612f8a612f8484612f01565b9361151e565b601f190160208401612f50565b90612fb2612fa6610f78845490565b92600052602060002090565b9060005b818110612fc35750505090565b909192612fe7612fe0600192612fd88761045b565b815260200190565b9460010190565b929101612fb6565b906102a991612f97565b906102936107fb9261300a60405190565b93848092612fef565b6102a990612ff9565b90613025825190565b811015610e59576020809102010190565b9061303f612ef9565b50613052611fce82610e6d85600761044a565b9160009161305f8361043d565b84146132c2576002906130766102a984600261044a565b926004840161309561308987830161045b565b61232d6123298961043d565b856130a260028301610870565b958615613277575b5050506130c491610e6d6130bf92600861044a565b613013565b6130cd85612f74565b956130d78561043d565b6130e26102a9845190565b81101561325b5780866130ff6130fb6131b5948761301c565b5190565b60046131476131116102a9848461044a565b926131408a85019461313961312a60036104a18961045b565b93613133612f13565b98890152565b6020870152565b6040850152565b8915156060840152896131598161043d565b92613165846080870152565b6131708460a0870152565b81151560c08601526131838460e0870152565b8a61319085610100880152565b6131ba575b505050506131a3828b61301c565b526131ae818a61301c565b5060010190565b6130d7565b611fce6131d2916131cc60099161045b565b906102ac565b9283116131e0575b81613195565b826108bf61324461324b9461323d6132346005966132176132086102a96132539c600a61044a565b600160608e01529760808d0152565b61322d6132266003890161045b565b60a08d0152565b86016110d2565b151560c08a0152565b830161045b565b60e0870152565b610100830152565b3880896131da565b509592505050610d016102a99293613271612ed9565b94850152565b6130bf93965091613293610e6d92600e6130c497950101610942565b90816132a8575b5095928294508791506130aa565b6132b9915060036102a9910161045b565b4210153861329a565b505090506102a96132d28261043d565b610d016132de82612f74565b91613271612ed9565b9061029392916132fe61220161210033600f610579565b906102939291613314611c63611c5f600e610870565b6133ce565b1561332057565b60405162461bcd60e51b815260206004820152601760248201527f504c415945525f4e4f545f5041525449434950415445440000000000000000006044820152606490fd5b1561336c57565b60405162461bcd60e51b815260206004820152600f60248201527f4d4554484f445f524551554952454400000000000000000000000000000000006044820152606490fd5b929160206128dd61029393604087019087820360008901526109f8565b612d4761341b916133fd6133ea611fce86610e6d85600761044a565b6133f7612329600061043d565b11613319565b611edc613408865190565b613415612329600061043d565b11613365565b907f259b46e60d1e2edd3ff15970de1b6023efe23ee42e5d8eb42cad548a7e19570461345e61344933610570565b9461345360405190565b9182914290836133b1565b0390a4565b9061029392916132e7565b6130bf6102a99161347d606090565b50600661044a565b90610293959493929161349f61220161210033600f610579565b9061029395949392916134b8611c63611c5f600e610870565b613615565b156134c457565b60405162461bcd60e51b815260206004820152601560248201527f41525241595f4c454e4754485f4d49534d4154434800000000000000000000006044820152606490fd5b9190811015610e59576020020190565b356102a98161027d565b356102a981610381565b903590601e19368290030182121561027857018035906001600160401b038211610278576020019136829003831361027857565b90821015610e59576020611244920281019061352d565b9190610a228161358f816106399560209181520190565b809561063d565b969593926102939560a0946135d06135be8b6128dd976128a36135dd98600060c08501940152565b6001600160a01b0390941660408c0152565b89830360608b0152613578565b8681036080880152600f81527f426174636820636f6e6669726d65640000000000000000000000000000000000602082015260400190565b90919392956136218390565b9661362f815b895b146134bd565b61363887613627565b600091613645600061043d565b895b81101561379657886136706102a9600a61366a613665868c8c613509565b613519565b9061044a565b61368361367e84878d613509565b613523565b61369e575b50506136976136479160010190565b9050613645565b8581016136ac600182612799565b6136b94260058401611ca7565b8860028b868b81848801946136cd8661045b565b6136d69161044a565b956136e092613509565b6136e990613519565b926136f39061045b565b94546001600160a01b03169560030161370b8161045b565b94601101906137199061045b565b613722916127fc565b506007019661373092613561565b92909161373c9061043d565b936137469061043d565b9461375090610570565b9561375a60405190565b9384934292339061376b9587613596565b037fcef6d1b833317d0bb1325916e3e8991ff3af40c4da83e3cedbc19b4a64d1bdf591a48838613688565b50975050505050505050565b906102939594939291613485565b906102a995949392916137ca61220161210033600f610579565b90611bf495949392916137db6147b9565b906102a995949392916137f4611c63611c5f600e610870565b613825565b369037565b9061029361380e612f8484612f01565b601f1901602084016137f9565b356102a981610326565b5060c05260e092909252809361383b8486613629565b61384b6102a960c051600261044a565b9061385b612538600e8401610870565b613864866137fe565b9561386f600061043d565b6080525b805b6080511015613a7057613875906138a261389a613895608051888a613509565b61381b565b60c051614b9c565b60a0528561395e886139388861392b6139046136656138f76138956138c7600b61045b565b996138db6138d48c611c83565b600b611ca7565b6138ed60026108bf60a051600461044a565b9660805191613509565b956080519060e051613509565b9161391f613910612b06565b6001600160a01b039096168652565b60016020860152613140565b61185560c0516060850152565b6139434260a0830152565b61394e4260c0830152565b61395983600a61044a565b612ba5565b61397e8161397960096131cc60026108bf60a051600461044a565b611ca7565b6139918161398e6080518c61301c565b52565b61399d60088601610870565b613a33575b6139b560108601611ec0612dcd8261045b565b6139c5613895608051888a613509565b7f0bc9c356ec1019c975634201349badd0ee43e7206fa3154f3ee03e47b7d866db6139f86136656080518c60e051613509565b92613a07611ee160c05161043d565b93613a20613a1460405190565b92839260a05184610cea565b0390a36080516001016080529050613873565b613a586002612db360118801613a526136658d6080519060e051613509565b906127fc565b613a6b600f8601611ec0612dcd8261045b565b6139a2565b509493509150613a8490506010820161045b565b613a91612329600061043d565b14613a9a575090565b6102a990600190600e016124b8565b6102a9949392919060606137b0565b9061029391613acd611c63611c5f600e610870565b613b1e565b15613ad957565b60405162461bcd60e51b815260206004820152601060248201527f4e4f545f504152544943495041544544000000000000000000000000000000006044820152606490fd5b613b6890613b50613b3d611fce613b3684600761044a565b3390610579565b613b4a612329600061043d565b11613ad2565b611edc613b5b845190565b61255e612329600061043d565b7f76c33f5e956b8abcdb078dbce97bc0918b4d6166de75b38f6260813e17ad9f03612398613b9533610570565b9361345360405190565b9061029391613ab8565b613bc26102a9600e92613bba600090565b50600261044a565b613bde613bd16004830161045b565b61232d612329600061043d565b01908190613c006002613bf9613bf385610870565b94610942565b940161045b565b91929190565b90611bf49291613c146147b9565b906102a99291613c2a611c63611c5f600e610870565b613ca2565b15613c3657565b60405162461bcd60e51b8152602060048201526009602482015268544f4f5f4541524c5960b81b6044820152606490fd5b15613c6e57565b60405162461bcd60e51b815260206004820152600c60248201526b14905191931157d15391115160a21b6044820152606490fd5b506102a991613cb38383600261044a565b613d01613cee6002600e8401613cce612542611c5f83610942565b6108bf60048601613ce0848201610870565b908115613d11575b50613c2f565b613cfb612329600061043d565b11613c67565b613d0b600061043d565b91614cdf565b613d22915060036102a9910161045b565b42101538613ce8565b6102a991906000613c06565b906102a991613d4d61220161210033600f610579565b906102a991613d62611c63611c5f600e610870565b6140f2565b15613d6e57565b60405162461bcd60e51b815260206004820152600e60248201527f5449544c455f52455155495245440000000000000000000000000000000000006044820152606490fd5b15613dba57565b60405162461bcd60e51b815260206004820152600c60248201526b494e56414c49445f4441544560a01b6044820152606490fd5b15613df557565b60405162461bcd60e51b815260206004820152601060248201527f524146464c455f544f4f5f53484f5254000000000000000000000000000000006044820152606490fd5b15613e4157565b60405162461bcd60e51b815260206004820152600e60248201527f445241575f544f4f5f4541524c590000000000000000000000000000000000006044820152606490fd5b61029391600091611d8c565b818110613e9d575050565b80613eab6000600193613e86565b01613e92565b9190601f8111613ec057505050565b613ed261029393600052602060002090565b906020601f840181900483019310613ef4575b6020601f909101040190613e92565b9091508190613ee5565b90613f07815190565b906001600160401b03821161060457613f2a82613f248554610729565b85613eb1565b602090601f8311600114613f6557611cbe929160009183613f5a575b5050600019600883021c1916906002021790565b015190503880613f46565b601f19831691613f7a85600052602060002090565b9260005b818110613fb857509160029391856001969410613f9f575b50505002019055565b01516000196008601f8516021c19169055388080613f96565b91936020600181928787015181550195019201613f7e565b9061029391613efe565b6003614027606061029394613ff9613ff3600083015190565b86613fd0565b614010614007602083015190565b60018701613fd0565b611d6261401e604083015190565b60028701613fd0565b9101613fd0565b9061029391613fda565b6003611d67606061029394614057614051600083015190565b86611ca7565b614065611d42602083015190565b611d626140756040830151151590565b60028701611f29565b9061029391614038565b6002611d676040610293946140a96140a36000830151151590565b86611f29565b611d62611d42602083015190565b9061029391614088565b6002611d676040610293946140da613ff3600083015190565b611d62614007602083015190565b90610293916140c1565b50805151516102a99161411360009261410d6123298561043d565b11613d67565b6080602082019161414061412960208551015190565b61413a6123296102a9888851015190565b11613db3565b61417161415c61415260208651015190565b8551870151900390565b61416a6123296102a9610d33565b1015613dee565b6141a461418060608551015190565b61419d6123296102a961419560208951015190565b610639610bc8565b1015613e3a565b6142426141b1600361045b565b946141c56141be87611c83565b6003611ca7565b6141f06141d66102a988600261044a565b956141e68386015184890161402e565b516004870161407e565b6142016040840151600887016140b7565b6142126060840151600b87016140e8565b600261422e600e870192611edc81808601612570600182611f29565b9161423c8360018301611ca7565b01611ca7565b015191615194565b6102a9906000613d37565b906102a993929161426d61220161210033600f610579565b90611bf493929161427c6147b9565b906102a9939291614293611c63611c5f600e610870565b614307565b1561429f57565b60405162461bcd60e51b815260206004820152601960248201527f53544152545f494e4445585f4f55545f4f465f424f554e4453000000000000006044820152606490fd5b91906142ef565b9290565b8201809211611c9257565b91908203918211611c9257565b509192919061431a6102a983600261044a565b61432c612542611c5f600e8401610942565b61434661433e6102a96007840161045b565b421015613c2f565b614385826143586130bf86600661044a565b96614376614364895190565b91614370838510614298565b836142e4565b908082116143f3575b506142fa565b9461438f866137fe565b9461439a600061043d565b875b8110156143e9576143e2816143dc6143d2896143c76130fb6143c161439c988d6142e4565b8a61301c565b89613d0b868d6142e4565b61398e838c61301c565b60010190565b905061439a565b5095505050505090565b90503861437f565b6102a99291906060614255565b6102a960c0610609565b61441a610802565b906060825260208080808501606081520160605b8152016060905250565b6102a9614412565b614448610802565b9060008252602080808085016000612e12565b6102a9614440565b61446b6108c5565b90600082526020808084016000612e18565b6102a9614463565b61448d6108c5565b90606082526020808084016060612e18565b6102a9614485565b6144af614408565b906144b8614438565b82526020808080808087016144cb61445b565b8152016144d661447d565b8152016144e161449f565b81520161442e61445b565b6102a96144a7565b906102e790611906565b6102a99060081c61031a565b6102a990546144fe565b6102a96101c0610609565b90610293614640600c614530614514565b9461454361453d82610870565b876144f4565b61455f61454f8261450a565b6001600160a01b03166020880152565b61456e6108536001830161045b565b61457d612e7a6002830161045b565b61458c612e906003830161045b565b61459b612ea66004830161045b565b6145b16145aa6005830161045b565b60c0880152565b6145c76145c06006830161045b565b60e0880152565b6145de6145d6600783016107e1565b610100880152565b6145f56145ed600883016107e1565b610120880152565b61460c614604600983016107e1565b610140880152565b61462361461b600a83016107e1565b610160880152565b61463a614632600b83016107e1565b610180880152565b01612ff9565b6101a0840152565b6102a99061451f565b9061465a825490565b61466381612f01565b926146776020850191600052602060002090565b6000915b8383106146885750505050565b600d602060019261469885614648565b81520192019201919061467b565b9061029361470660116146b7614408565b946146c461082a8261080c565b6146d361083d6004830161087a565b6146e2610853600883016108cf565b6146f1612e7a600b8301610909565b614700612e90600e830161094c565b01614651565b60a0840152565b6102a9906146a6565b6147496102a9916147256144ec565b50614742613bd16000600461473b85600261044a565b010161045b565b600261044a565b61470d565b6102939061475a614afd565b600061476581611ff1565b6001600160a01b0381166001600160a01b0384161461478957505061029390614b47565b631e4fbdf760e01b82526001600160a01b03166004820152602490fd5b6102939061474e565b6102a9600261043d565b6147c3600061045b565b6147cb6147af565b9081146147dd57610293906000611ca7565b633ee5aeb560e01b6000908152600490fd5b6102a9600161043d565b6102936148046147ef565b6000611ca7565b1561481257565b60405162461bcd60e51b815260206004820152601160248201527f494e5354414e545f445241575f4f4e4c590000000000000000000000000000006044820152606490fd5b1561485e57565b60405162461bcd60e51b815260206004820152601260248201527f524146464c455f4e4f545f5354415254454400000000000000000000000000006044820152606490fd5b156148aa57565b60405162461bcd60e51b815260206004820152601b60248201527f50415254494349504154494f4e5f4c494d49545f5245414348454400000000006044820152606490fd5b91906148fc83600261044a565b600481016149098161045b565b60009485916149178361043d565b1061492190612220565b6149bd9361499361498b6102a960016149b7976108bf6149836102a960029a60089a614a0b575b61497c6149708d600e8d016108bf61496b611c5f87840161253d61253882610870565b613c67565b613cfb6123298461043d565b840161045b565b421015614857565b421115613c67565b016149a06001820161045b565b6149a98761043d565b81116149e9575b500161045b565b9261043d565b82116149c857505050565b6123296142eb611fce6149e393610e6d61029397600761044a565b106148a3565b614a05906149e36123296142eb614a018c600661044a565b5490565b386149b0565b614a1e614a198d8701610870565b61480b565b614948565b979593919a9998969492909a61014089019b60008a01614a4a916001600160a01b03169052565b602089015260408801526060870152608086015260a085015260c08401526001600160a01b031660e08301526001600160a01b03166101008201526101200152565b91614ae791614adb614aa7614aa1600161043d565b436142fa565b94614ab5614aa1600261043d565b905a91614ac160405190565b97889660208801963294419440934092449242928b614a23565b908103825203826105e3565b614af9614af2825190565b9160200190565b2090565b6001546001600160a01b03163390614b1d825b916001600160a01b031690565b03614b255750565b63118cdaa760e01b60009081526001600160a01b039091166004526024036000fd5b614b6a612d47614b5f6001546001600160a01b031690565b612148846001611ce7565b907f8be0079c531659141344cd1fd0a4f28419497f9722a3daafe3b4186f6b6457e0614b9560405190565b8080612398565b6102a990611e986102a9614c1d94614bb2600090565b50610e6d614bca614bc3600561045b565b8684614a8c565b94614bd5600561045b565b978896614be4611e3789611c83565b614c07614bef610802565b6001600160a01b0387168152916104d9856020850152565b614c12426060830152565b611e8188600461044a565b614c2f86611e986102a984600661044a565b614c41611eaf84610e6d84600761044a565b600861044a565b9190614c5660088401610870565b15614c64576102a992615391565b906102a992506152b2565b15614c7657565b60405162461bcd60e51b815260206004820152601360248201527f494e56414c49445f5041525449434950414e54000000000000000000000000006044820152606490fd5b90959492610293946114286104e09261314060809661313960a088019c6000890152565b90929091614cf1612c0a84600461044a565b80516001600160a01b031694614d19600096614d12614b1061031a8a611ff1565b1415614c6f565b614d45612c1e8784019486614d3f614d3888516001600160a01b031690565b928a6142e4565b91614a8c565b95600e820190614d5c6001830198612c3d8a61045b565b92614d68878583614c48565b9881614d798460088d950101610870565b614f0e575b505050614d8b600b61045b565b91614d9583611c83565b614da090600b611ca7565b6040850196614dad885190565b90614dbf88516001600160a01b031690565b91614dc8612b06565b6001600160a01b0390931685840152841515602084015260408301526060820152614df48a6080830152565b614dff4260a0830152565b614e088361043d565b90614e148260c0830152565b614e1f85600a61044a565b90614e2991612ba5565b83614e32895190565b614e3d9060096102ac565b90614e4791611ca7565b60028201614e548161045b565b614e5d90612af9565b614e679082611ca7565b614e709061045b565b14614ed2614ecc614ec7614eb960207f2120864ccf2c79a4cad1014109df7e170cf9e4c2664ab542e5493b272ab685909a614ef498614ede98614ed898614efa575b5050015190565b99516001600160a01b031690565b995190565b9461043d565b9661043d565b96610570565b96614ee860405190565b9384938a429386614cbb565b0390a490565b614f0791600191016124b8565b3880614eb2565b6002612db3614f23946011612dc194016127fc565b873880614d7e565b6102a99051611906565b90611f396102a9611cbe92611910565b9074ffffffffffffffffffffffffffffffffffffffff009060081b611c9d565b90614f756102a9611cbe92610570565b8254614f45565b919091828210614f8b57505050565b6102939291614fa09091600052602060002090565b9182019101613e92565b906801000000000000000081116106045781614fc7610293935490565b90828155614f7c565b8151916001600160401b03831161060457614ffa612fa6600192614ff48686614faa565b60200190565b92049160005b83811061500d5750505050565b600190602061501d6102a9865190565b9401938184015501615000565b9061029391614fd0565b61029391600c9061514b906101a09061506d8561505961505384614f2b565b82614f35565b60208301516001600160a01b031690614f65565b61507b611d42604083015190565b615089612b6e606083015190565b615097612b85608083015190565b6150a5612b9c60a083015190565b6150bc6150b360c083015190565b60058701611ca7565b6150d36150ca60e083015190565b60068701611ca7565b6150eb6150e261010083015190565b60078701613fd0565b6151036150fa61012083015190565b60088701613fd0565b61511b61511261014083015190565b60098701613fd0565b61513361512a61016083015190565b600a8701613fd0565b611d6261514261018083015190565b600b8701613fd0565b910161502a565b91906151615761029391615034565b611cc2565b9081549168010000000000000000831015610604578261518e916001610293950181556127fc565b90615152565b9192919060006151a4600061043d565b946151ad815190565b94865b865b8810156152475761523f6152386151b2926152328b61520d6151d4828a61301c565b516151e16114288c61043d565b6151ec8560e0830152565b6152048d8660408401956151fe875190565b9261548a565b60118c01615166565b6130fb8a611ec06001600e615220865190565b9301019161522d8361045b565b6142e4565b906142e4565b9860010190565b9790506151b0565b5095505050615263919250600e016002611d676001830161045b565b61526c8161043d565b7f0b5745354685a046e72f24602bcf00fa0ee07f0bf511afb5f2d3ab636241e41b61529660405190565b600090a290565b6102a961271061043d565b8115612af4570490565b906152c16102a983600261044a565b90600060116152cf8261043d565b9301906152da825490565b90845b8286101561532b5761530161232961437060016108bf6152fd8b8a6127fc565b5090565b85101580615322575b6153185794600101946152dd565b5050505050905090565b5080851061530a565b50935093611fce9150610c5d61534c6153549461534661529d565b906152a8565b91600c61044a565b82811061538b57506153658161043d565b82111561538157506102a99061537b600161043d565b906142fa565b6102a9915061043d565b91505090565b909161539d600a61043d565b926000916153ab600061043d565b855b81101561547b576153da611fce6153cf6153c784876142e4565b61534661529d565b610c5d85600c61044a565b601186016153e96102a9825490565b8210615406575b50506153ff6153ad9160010190565b90506153ab565b6152fd82615413926127fc565b61542e6154226001830161045b565b61537b6002840161045b565b906154388761043d565b8211615445575b506153f0565b6123296142eb6154659261537b600661545e898c6142e4565b920161045b565b1061547157808061543f565b9550505050505090565b50509190506102a992506154f0565b9293909361549a620186a061043d565b8110156154e9576154ab90836142e4565b915b825b8110156154e9576154e26154af916154c561529d565b90610639886139796154d785856152a8565b610c5d8b600c61044a565b90506154ad565b5092505050565b90919060116154ff600061043d565b91019161550a835490565b92825b8484101561557e576155366155256152fd86856127fc565b61537b600261545e6001840161045b565b908087101580615569575b61555f5761555991615552916142e4565b9360010190565b9261550d565b5050509250905090565b506155776102a983836142e4565b8710615541565b50509250506102a99061537b600161043d56fea264697066735822122062d87bc2194d50dae2ff6218668a0798e3468378311bc03f5fb9a14f8f16465764736f6c634300081c0033","opcodes":"PUSH1 0x80 PUSH1 0x40 MSTORE CALLVALUE PUSH2 0x22 JUMPI PUSH2 0x11 PUSH2 0xD1 JUMP JUMPDEST PUSH1 0x40 MLOAD PUSH2 0x55C7 PUSH2 0x24C DUP3 CODECOPY PUSH2 0x55C7 SWAP1 RETURN JUMPDEST PUSH1 0x0 DUP1 REVERT JUMPDEST SWAP1 PUSH1 0x0 NOT SWAP1 JUMPDEST SWAP2 DUP2 NOT AND SWAP2 AND OR SWAP1 JUMP JUMPDEST PUSH2 0x44 PUSH2 0x44 PUSH2 0x44 SWAP3 SWAP1 JUMP JUMPDEST SWAP1 JUMP JUMPDEST SWAP1 PUSH2 0x57 PUSH2 0x44 PUSH2 0x5E SWAP3 PUSH2 0x37 JUMP JUMPDEST DUP3 SLOAD PUSH2 0x27 JUMP JUMPDEST SWAP1 SSTORE JUMP JUMPDEST PUSH2 0x44 SWAP1 PUSH2 0x76 SWAP1 PUSH1 0x1 PUSH1 0x1 PUSH1 0xA0 SHL SUB AND DUP3 JUMP JUMPDEST PUSH1 0x1 PUSH1 0x1 PUSH1 0xA0 SHL SUB AND SWAP1 JUMP JUMPDEST PUSH2 0x44 SWAP1 PUSH2 0x62 JUMP JUMPDEST PUSH2 0x44 SWAP1 PUSH2 0x82 JUMP JUMPDEST SWAP1 PUSH2 0x9E SWAP1 PUSH2 0x8B JUMP JUMPDEST PUSH1 0x0 MSTORE PUSH1 0x20 MSTORE PUSH1 0x40 PUSH1 0x0 KECCAK256 SWAP1 JUMP JUMPDEST SWAP1 PUSH1 0xFF SWAP1 PUSH2 0x2D JUMP JUMPDEST ISZERO ISZERO SWAP1 JUMP JUMPDEST SWAP1 PUSH2 0xCA PUSH2 0x44 PUSH2 0x5E SWAP3 PUSH2 0xB5 JUMP JUMPDEST DUP3 SLOAD PUSH2 0xAC JUMP JUMPDEST PUSH2 0xDA CALLER PUSH2 0x145 JUMP JUMPDEST PUSH2 0x110 PUSH1 0x1 PUSH2 0xEA DUP2 PUSH1 0x3 PUSH2 0x47 JUMP JUMPDEST PUSH2 0xF5 DUP2 PUSH1 0x5 PUSH2 0x47 JUMP JUMPDEST PUSH2 0x100 DUP2 PUSH1 0xB PUSH2 0x47 JUMP JUMPDEST PUSH2 0x10B CALLER PUSH1 0xF PUSH2 0x94 JUMP JUMPDEST PUSH2 0xBA JUMP JUMPDEST JUMP JUMPDEST PUSH2 0x76 PUSH2 0x44 PUSH2 0x44 SWAP3 SWAP1 JUMP JUMPDEST PUSH2 0x44 SWAP1 PUSH2 0x112 JUMP JUMPDEST PUSH2 0x131 SWAP1 PUSH2 0x76 JUMP JUMPDEST SWAP1 MSTORE JUMP JUMPDEST PUSH1 0x20 DUP2 ADD SWAP3 SWAP2 PUSH2 0x110 SWAP2 SWAP1 PUSH2 0x128 JUMP JUMPDEST PUSH2 0x14D PUSH2 0x197 JUMP JUMPDEST PUSH1 0x0 PUSH2 0x158 DUP2 PUSH2 0x11F JUMP JUMPDEST PUSH2 0x161 DUP2 PUSH2 0x76 JUMP JUMPDEST PUSH2 0x16A DUP5 PUSH2 0x76 JUMP JUMPDEST EQ PUSH2 0x17A JUMPI POP POP PUSH2 0x110 SWAP1 PUSH2 0x1F4 JUMP JUMPDEST PUSH4 0x1E4FBDF7 PUSH1 0xE0 SHL DUP3 MSTORE DUP2 SWAP1 PUSH2 0x193 SWAP1 PUSH1 0x4 DUP4 ADD PUSH2 0x135 JUMP JUMPDEST SUB SWAP1 REVERT JUMPDEST PUSH2 0x110 PUSH2 0x1A9 JUMP JUMPDEST PUSH2 0x44 PUSH1 0x1 PUSH2 0x37 JUMP JUMPDEST PUSH2 0x110 PUSH2 0x1B4 PUSH2 0x19F JUMP JUMPDEST PUSH1 0x0 PUSH2 0x47 JUMP JUMPDEST PUSH2 0x44 SWAP1 PUSH2 0x76 JUMP JUMPDEST PUSH2 0x44 SWAP1 SLOAD PUSH2 0x1BB JUMP JUMPDEST SWAP1 PUSH1 0x1 PUSH1 0x1 PUSH1 0xA0 SHL SUB SWAP1 PUSH2 0x2D JUMP JUMPDEST SWAP1 PUSH2 0x1ED PUSH2 0x44 PUSH2 0x5E SWAP3 PUSH2 0x8B JUMP JUMPDEST DUP3 SLOAD PUSH2 0x1CE JUMP JUMPDEST PUSH2 0x21A PUSH2 0x214 PUSH2 0x204 PUSH1 0x1 PUSH2 0x1C4 JUMP JUMPDEST PUSH2 0x20F DUP5 PUSH1 0x1 PUSH2 0x1DD JUMP JUMPDEST PUSH2 0x8B JUMP JUMPDEST SWAP2 PUSH2 0x8B JUMP JUMPDEST SWAP1 PUSH32 0x8BE0079C531659141344CD1FD0A4F28419497F9722A3DAAFE3B4186F6B6457E0 PUSH2 0x245 PUSH1 0x40 MLOAD SWAP1 JUMP JUMPDEST PUSH1 0x0 SWAP1 LOG3 JUMP INVALID PUSH2 0x100 PUSH1 0x40 MSTORE PUSH1 0x4 CALLDATASIZE LT ISZERO PUSH2 0x13 JUMPI PUSH1 0x0 DUP1 REVERT JUMPDEST PUSH1 0x0 CALLDATALOAD PUSH1 0xE0 SHR DUP1 PUSH4 0x9B50A07 EQ PUSH2 0x273 JUMPI DUP1 PUSH4 0x13B18640 EQ PUSH2 0x26E JUMPI DUP1 PUSH4 0x16C38B3C EQ PUSH2 0x269 JUMPI DUP1 PUSH4 0x176A8555 EQ PUSH2 0x264 JUMPI DUP1 PUSH4 0x1785F53C EQ PUSH2 0x25F JUMPI DUP1 PUSH4 0x24D7806C EQ PUSH2 0x25A JUMPI DUP1 PUSH4 0x35C1D349 EQ PUSH2 0x255 JUMPI DUP1 PUSH4 0x3F35C93B EQ PUSH2 0x250 JUMPI DUP1 PUSH4 0x429B62E5 EQ PUSH2 0x24B JUMPI DUP1 PUSH4 0x57415423 EQ PUSH2 0x246 JUMPI DUP1 PUSH4 0x5C975ABB EQ PUSH2 0x241 JUMPI DUP1 PUSH4 0x5D4BC0CE EQ PUSH2 0x23C JUMPI DUP1 PUSH4 0x6BF611BF EQ PUSH2 0x237 JUMPI DUP1 PUSH4 0x70480275 EQ PUSH2 0x232 JUMPI DUP1 PUSH4 0x715018A6 EQ PUSH2 0x22D JUMPI DUP1 PUSH4 0x73178C0D EQ PUSH2 0x228 JUMPI DUP1 PUSH4 0x7BB60AC0 EQ PUSH2 0x223 JUMPI DUP1 PUSH4 0x7CAFA47A EQ PUSH2 0x21E JUMPI DUP1 PUSH4 0x81EFF790 EQ PUSH2 0x219 JUMPI DUP1 PUSH4 0x8772D2DD EQ PUSH2 0x214 JUMPI DUP1 PUSH4 0x8D5A8E70 EQ PUSH2 0x20F JUMPI DUP1 PUSH4 0x8DA5CB5B EQ PUSH2 0x20A JUMPI DUP1 PUSH4 0x90409BD5 EQ PUSH2 0x205 JUMPI DUP1 PUSH4 0x9D06F112 EQ PUSH2 0x200 JUMPI DUP1 PUSH4 0xA6E3295B EQ PUSH2 0x1FB JUMPI DUP1 PUSH4 0xB08B3A51 EQ PUSH2 0x1F6 JUMPI DUP1 PUSH4 0xB094E365 EQ PUSH2 0x1F1 JUMPI DUP1 PUSH4 0xB1DDD82A EQ PUSH2 0x1EC JUMPI DUP1 PUSH4 0xB8342793 EQ PUSH2 0x1E7 JUMPI DUP1 PUSH4 0xC5AC3D4B EQ PUSH2 0x1E2 JUMPI DUP1 PUSH4 0xD1CE754E EQ PUSH2 0x1DD JUMPI DUP1 PUSH4 0xD2B8035A EQ PUSH2 0x1D8 JUMPI DUP1 PUSH4 0xD47FD2C9 EQ PUSH2 0x1D3 JUMPI DUP1 PUSH4 0xD8A35CC2 EQ PUSH2 0x1CE JUMPI DUP1 PUSH4 0xE354C358 EQ PUSH2 0x1C9 JUMPI DUP1 PUSH4 0xE4DAFEC9 EQ PUSH2 0x1C4 JUMPI DUP1 PUSH4 0xF2FDE38B EQ PUSH2 0x1BF JUMPI PUSH4 0xFBB7C22D SUB PUSH2 0x278 JUMPI PUSH2 0x1BC5 JUMP JUMPDEST PUSH2 0x1B99 JUMP JUMPDEST PUSH2 0x1B72 JUMP JUMPDEST PUSH2 0x18C5 JUMP JUMPDEST PUSH2 0x1881 JUMP JUMPDEST PUSH2 0x1371 JUMP JUMPDEST PUSH2 0x1341 JUMP JUMPDEST PUSH2 0x1317 JUMP JUMPDEST PUSH2 0x12E1 JUMP JUMPDEST PUSH2 0x12C2 JUMP JUMPDEST PUSH2 0x1272 JUMP JUMPDEST PUSH2 0x1248 JUMP JUMPDEST PUSH2 0x1178 JUMP JUMPDEST PUSH2 0x109F JUMP JUMPDEST PUSH2 0x1037 JUMP JUMPDEST PUSH2 0xFEC JUMP JUMPDEST PUSH2 0xEAA JUMP JUMPDEST PUSH2 0xE8E JUMP JUMPDEST PUSH2 0xDD0 JUMP JUMPDEST PUSH2 0xD46 JUMP JUMPDEST PUSH2 0xD08 JUMP JUMPDEST PUSH2 0xCD1 JUMP JUMPDEST PUSH2 0xC62 JUMP JUMPDEST PUSH2 0xC0E JUMP JUMPDEST PUSH2 0xBF6 JUMP JUMPDEST PUSH2 0xBDB JUMP JUMPDEST PUSH2 0xB97 JUMP JUMPDEST PUSH2 0x6F8 JUMP JUMPDEST PUSH2 0x6C8 JUMP JUMPDEST PUSH2 0x5B2 JUMP JUMPDEST PUSH2 0x538 JUMP JUMPDEST PUSH2 0x4E4 JUMP JUMPDEST PUSH2 0x40F JUMP JUMPDEST PUSH2 0x3F7 JUMP JUMPDEST PUSH2 0x3C7 JUMP JUMPDEST PUSH2 0x3AA JUMP JUMPDEST PUSH2 0x365 JUMP JUMPDEST PUSH2 0x2EB JUMP JUMPDEST PUSH1 0x0 DUP1 REVERT JUMPDEST DUP1 JUMPDEST SUB PUSH2 0x278 JUMPI JUMP JUMPDEST SWAP1 POP CALLDATALOAD SWAP1 PUSH2 0x293 DUP3 PUSH2 0x27D JUMP JUMPDEST JUMP JUMPDEST SWAP1 PUSH1 0x20 DUP3 DUP3 SUB SLT PUSH2 0x278 JUMPI PUSH2 0x2A9 SWAP2 PUSH2 0x286 JUMP JUMPDEST SWAP1 JUMP JUMPDEST SWAP1 JUMPDEST PUSH1 0x0 MSTORE PUSH1 0x20 MSTORE PUSH1 0x40 PUSH1 0x0 KECCAK256 SWAP1 JUMP JUMPDEST PUSH2 0x2A9 SWAP2 PUSH1 0x8 MUL SHR DUP2 JUMP JUMPDEST SWAP1 PUSH2 0x2A9 SWAP2 SLOAD PUSH2 0x2BC JUMP JUMPDEST PUSH1 0x0 PUSH2 0x2E2 PUSH2 0x2A9 SWAP3 PUSH1 0x9 PUSH2 0x2AC JUMP JUMPDEST PUSH2 0x2C7 JUMP JUMPDEST SWAP1 MSTORE JUMP JUMPDEST CALLVALUE PUSH2 0x278 JUMPI PUSH2 0x316 PUSH2 0x306 PUSH2 0x301 CALLDATASIZE PUSH1 0x4 PUSH2 0x295 JUMP JUMPDEST PUSH2 0x2D2 JUMP JUMPDEST PUSH1 0x40 MLOAD SWAP2 DUP3 SWAP2 DUP3 SWAP1 DUP2 MSTORE PUSH1 0x20 ADD SWAP1 JUMP JUMPDEST SUB SWAP1 RETURN JUMPDEST PUSH1 0x1 PUSH1 0x1 PUSH1 0xA0 SHL SUB AND SWAP1 JUMP JUMPDEST PUSH1 0x1 PUSH1 0x1 PUSH1 0xA0 SHL SUB DUP2 AND PUSH2 0x27F JUMP JUMPDEST SWAP1 POP CALLDATALOAD SWAP1 PUSH2 0x293 DUP3 PUSH2 0x326 JUMP JUMPDEST SWAP2 SWAP1 PUSH1 0x40 DUP4 DUP3 SUB SLT PUSH2 0x278 JUMPI PUSH2 0x2A9 SWAP1 PUSH1 0x20 PUSH2 0x35E DUP3 DUP7 PUSH2 0x286 JUMP JUMPDEST SWAP5 ADD PUSH2 0x335 JUMP JUMPDEST CALLVALUE PUSH2 0x278 JUMPI PUSH2 0x316 PUSH2 0x306 PUSH2 0x37B CALLDATASIZE PUSH1 0x4 PUSH2 0x342 JUMP JUMPDEST SWAP1 PUSH2 0x1F03 JUMP JUMPDEST DUP1 ISZERO ISZERO PUSH2 0x27F JUMP JUMPDEST SWAP1 POP CALLDATALOAD SWAP1 PUSH2 0x293 DUP3 PUSH2 0x381 JUMP JUMPDEST SWAP1 PUSH1 0x20 DUP3 DUP3 SUB SLT PUSH2 0x278 JUMPI PUSH2 0x2A9 SWAP2 PUSH2 0x389 JUMP JUMPDEST CALLVALUE PUSH2 0x278 JUMPI PUSH2 0x3C2 PUSH2 0x3BD CALLDATASIZE PUSH1 0x4 PUSH2 0x396 JUMP JUMPDEST PUSH2 0x1FAA JUMP JUMPDEST PUSH1 0x40 MLOAD STOP JUMPDEST CALLVALUE PUSH2 0x278 JUMPI PUSH2 0x316 PUSH2 0x306 PUSH2 0x3DD CALLDATASIZE PUSH1 0x4 PUSH2 0x342 JUMP JUMPDEST SWAP1 PUSH2 0x1FB3 JUMP JUMPDEST SWAP1 PUSH1 0x20 DUP3 DUP3 SUB SLT PUSH2 0x278 JUMPI PUSH2 0x2A9 SWAP2 PUSH2 0x335 JUMP JUMPDEST CALLVALUE PUSH2 0x278 JUMPI PUSH2 0x3C2 PUSH2 0x40A CALLDATASIZE PUSH1 0x4 PUSH2 0x3E3 JUMP JUMPDEST PUSH2 0x217F JUMP JUMPDEST CALLVALUE PUSH2 0x278 JUMPI PUSH2 0x316 PUSH2 0x42A PUSH2 0x425 CALLDATASIZE PUSH1 0x4 PUSH2 0x3E3 JUMP JUMPDEST PUSH2 0x2188 JUMP JUMPDEST PUSH1 0x40 MLOAD JUMPDEST SWAP2 DUP3 SWAP2 DUP3 SWAP1 ISZERO ISZERO DUP2 MSTORE PUSH1 0x20 ADD SWAP1 JUMP JUMPDEST PUSH2 0x2A9 PUSH2 0x2A9 PUSH2 0x2A9 SWAP3 SWAP1 JUMP JUMPDEST SWAP1 PUSH2 0x2AE SWAP1 PUSH2 0x43D JUMP JUMPDEST PUSH2 0x2A9 SWAP1 DUP2 JUMP JUMPDEST PUSH2 0x2A9 SWAP1 SLOAD PUSH2 0x454 JUMP JUMPDEST PUSH2 0x470 SWAP1 PUSH1 0x4 PUSH2 0x44A JUMP JUMPDEST SWAP1 PUSH2 0x482 DUP3 SLOAD PUSH1 0x1 PUSH1 0x1 PUSH1 0xA0 SHL SUB AND SWAP1 JUMP JUMPDEST SWAP2 PUSH2 0x48F PUSH1 0x1 DUP3 ADD PUSH2 0x45B JUMP JUMPDEST SWAP2 PUSH2 0x2A9 PUSH1 0x3 PUSH2 0x4A1 PUSH1 0x2 DUP6 ADD PUSH2 0x45B JUMP JUMPDEST SWAP4 ADD PUSH2 0x45B JUMP JUMPDEST PUSH2 0x4E0 PUSH2 0x293 SWAP5 PUSH2 0x4D9 PUSH1 0x60 SWAP5 SWAP9 SWAP8 SWAP6 PUSH2 0x4D2 PUSH1 0x80 DUP7 ADD SWAP11 PUSH1 0x0 DUP8 ADD SWAP1 PUSH1 0x1 PUSH1 0x1 PUSH1 0xA0 SHL SUB AND SWAP1 MSTORE JUMP JUMPDEST PUSH1 0x20 DUP6 ADD MSTORE JUMP JUMPDEST PUSH1 0x40 DUP4 ADD MSTORE JUMP JUMPDEST ADD MSTORE JUMP JUMPDEST CALLVALUE PUSH2 0x278 JUMPI PUSH2 0x316 PUSH2 0x4FF PUSH2 0x4FA CALLDATASIZE PUSH1 0x4 PUSH2 0x295 JUMP JUMPDEST PUSH2 0x465 JUMP JUMPDEST SWAP1 PUSH2 0x50C SWAP5 SWAP3 SWAP5 PUSH1 0x40 MLOAD SWAP1 JUMP JUMPDEST SWAP5 DUP6 SWAP5 DUP6 PUSH2 0x4A8 JUMP JUMPDEST SWAP2 SWAP1 PUSH1 0x40 DUP4 DUP3 SUB SLT PUSH2 0x278 JUMPI PUSH2 0x2A9 SWAP1 PUSH1 0x20 PUSH2 0x531 DUP3 DUP7 PUSH2 0x286 JUMP JUMPDEST SWAP5 ADD PUSH2 0x389 JUMP JUMPDEST CALLVALUE PUSH2 0x278 JUMPI PUSH2 0x3C2 PUSH2 0x54B CALLDATASIZE PUSH1 0x4 PUSH2 0x515 JUMP JUMPDEST SWAP1 PUSH2 0x239D JUMP JUMPDEST PUSH2 0x31A PUSH2 0x2A9 PUSH2 0x2A9 SWAP3 PUSH1 0x1 PUSH1 0x1 PUSH1 0xA0 SHL SUB AND SWAP1 JUMP JUMPDEST PUSH2 0x2A9 SWAP1 PUSH2 0x551 JUMP JUMPDEST PUSH2 0x2A9 SWAP1 PUSH2 0x567 JUMP JUMPDEST SWAP1 PUSH2 0x2AE SWAP1 PUSH2 0x570 JUMP JUMPDEST PUSH2 0x2A9 SWAP2 PUSH1 0x8 MUL SHR JUMPDEST PUSH1 0xFF AND SWAP1 JUMP JUMPDEST SWAP1 PUSH2 0x2A9 SWAP2 SLOAD PUSH2 0x583 JUMP JUMPDEST PUSH1 0x0 PUSH2 0x5AD PUSH2 0x2A9 SWAP3 PUSH1 0xF PUSH2 0x579 JUMP JUMPDEST PUSH2 0x592 JUMP JUMPDEST CALLVALUE PUSH2 0x278 JUMPI PUSH2 0x316 PUSH2 0x42A PUSH2 0x5C8 CALLDATASIZE PUSH1 0x4 PUSH2 0x3E3 JUMP JUMPDEST PUSH2 0x59D JUMP JUMPDEST PUSH4 0x4E487B71 PUSH1 0xE0 SHL PUSH1 0x0 MSTORE PUSH1 0x41 PUSH1 0x4 MSTORE PUSH1 0x24 PUSH1 0x0 REVERT JUMPDEST SWAP1 PUSH1 0x1F ADD PUSH1 0x1F NOT AND DUP2 ADD SWAP1 DUP2 LT PUSH1 0x1 PUSH1 0x1 PUSH1 0x40 SHL SUB DUP3 GT OR PUSH2 0x604 JUMPI PUSH1 0x40 MSTORE JUMP JUMPDEST PUSH2 0x5CD JUMP JUMPDEST SWAP1 PUSH2 0x293 PUSH2 0x616 PUSH1 0x40 MLOAD SWAP1 JUMP JUMPDEST SWAP3 DUP4 PUSH2 0x5E3 JUMP JUMPDEST PUSH1 0x1 PUSH1 0x1 PUSH1 0x40 SHL SUB DUP2 GT PUSH2 0x604 JUMPI PUSH1 0x20 SWAP1 PUSH1 0x1F ADD PUSH1 0x1F NOT AND ADD SWAP1 JUMP JUMPDEST ADD SWAP1 JUMP JUMPDEST SWAP1 DUP3 PUSH1 0x0 SWAP4 SWAP3 DUP3 CALLDATACOPY ADD MSTORE JUMP JUMPDEST SWAP1 SWAP3 SWAP2 SWAP3 PUSH2 0x65E PUSH2 0x659 DUP3 PUSH2 0x61D JUMP JUMPDEST PUSH2 0x609 JUMP JUMPDEST SWAP4 DUP2 DUP6 MSTORE DUP2 DUP4 ADD GT PUSH2 0x278 JUMPI PUSH2 0x293 SWAP2 PUSH1 0x20 DUP6 ADD SWAP1 PUSH2 0x63D JUMP JUMPDEST SWAP1 DUP1 PUSH1 0x1F DUP4 ADD SLT ISZERO PUSH2 0x278 JUMPI DUP2 PUSH1 0x20 PUSH2 0x2A9 SWAP4 CALLDATALOAD SWAP2 ADD PUSH2 0x649 JUMP JUMPDEST SWAP2 SWAP1 SWAP2 PUSH1 0x40 DUP2 DUP5 SUB SLT PUSH2 0x278 JUMPI PUSH2 0x6AA DUP4 DUP3 PUSH2 0x286 JUMP JUMPDEST SWAP3 PUSH1 0x20 DUP3 ADD CALLDATALOAD PUSH1 0x1 PUSH1 0x1 PUSH1 0x40 SHL SUB DUP2 GT PUSH2 0x278 JUMPI PUSH2 0x2A9 SWAP3 ADD PUSH2 0x678 JUMP JUMPDEST CALLVALUE PUSH2 0x278 JUMPI PUSH2 0x3C2 PUSH2 0x6DB CALLDATASIZE PUSH1 0x4 PUSH2 0x693 JUMP JUMPDEST SWAP1 PUSH2 0x2588 JUMP JUMPDEST PUSH1 0x0 SWAP2 SUB SLT PUSH2 0x278 JUMPI JUMP JUMPDEST PUSH2 0x2A9 PUSH1 0x0 PUSH1 0xE PUSH2 0x592 JUMP JUMPDEST CALLVALUE PUSH2 0x278 JUMPI PUSH2 0x708 CALLDATASIZE PUSH1 0x4 PUSH2 0x6E1 JUMP JUMPDEST PUSH2 0x316 PUSH2 0x42A PUSH2 0x6EC JUMP JUMPDEST PUSH4 0x4E487B71 PUSH1 0xE0 SHL PUSH1 0x0 MSTORE PUSH1 0x22 PUSH1 0x4 MSTORE PUSH1 0x24 PUSH1 0x0 REVERT JUMPDEST SWAP1 PUSH1 0x1 PUSH1 0x2 DUP4 DIV SWAP3 AND DUP1 ISZERO PUSH2 0x749 JUMPI JUMPDEST PUSH1 0x20 DUP4 LT EQ PUSH2 0x744 JUMPI JUMP JUMPDEST PUSH2 0x713 JUMP JUMPDEST SWAP2 PUSH1 0x7F AND SWAP2 PUSH2 0x739 JUMP JUMPDEST DUP1 SLOAD PUSH1 0x0 SWAP4 SWAP3 SWAP2 PUSH2 0x770 PUSH2 0x766 DUP4 PUSH2 0x729 JUMP JUMPDEST DUP1 DUP6 MSTORE SWAP4 PUSH1 0x20 ADD SWAP1 JUMP JUMPDEST SWAP2 PUSH1 0x1 DUP2 AND SWAP1 DUP2 ISZERO PUSH2 0x7C2 JUMPI POP PUSH1 0x1 EQ PUSH2 0x789 JUMPI POP POP POP JUMP JUMPDEST PUSH2 0x79C SWAP2 SWAP3 SWAP4 SWAP5 POP PUSH1 0x0 MSTORE PUSH1 0x20 PUSH1 0x0 KECCAK256 SWAP1 JUMP JUMPDEST SWAP2 PUSH1 0x0 SWAP3 JUMPDEST DUP2 DUP5 LT PUSH2 0x7AE JUMPI POP POP ADD SWAP1 JUMP JUMPDEST DUP1 SLOAD DUP5 DUP5 ADD MSTORE PUSH1 0x20 SWAP1 SWAP4 ADD SWAP3 PUSH1 0x1 ADD PUSH2 0x7A1 JUMP JUMPDEST SWAP3 SWAP5 SWAP6 POP POP POP PUSH1 0xFF NOT AND DUP3 MSTORE ISZERO ISZERO PUSH1 0x20 MUL ADD SWAP1 JUMP JUMPDEST SWAP1 PUSH2 0x2A9 SWAP2 PUSH2 0x753 JUMP JUMPDEST SWAP1 PUSH2 0x293 PUSH2 0x7FB SWAP3 PUSH2 0x7F2 PUSH1 0x40 MLOAD SWAP1 JUMP JUMPDEST SWAP4 DUP5 DUP1 SWAP3 PUSH2 0x7D7 JUMP JUMPDEST SUB DUP4 PUSH2 0x5E3 JUMP JUMPDEST PUSH2 0x2A9 PUSH1 0x80 PUSH2 0x609 JUMP JUMPDEST SWAP1 PUSH2 0x293 PUSH2 0x860 PUSH1 0x3 PUSH2 0x81D PUSH2 0x802 JUMP JUMPDEST SWAP5 PUSH2 0x82E PUSH2 0x82A DUP3 PUSH2 0x7E1 JUMP JUMPDEST DUP8 MSTORE JUMP JUMPDEST PUSH2 0x844 PUSH2 0x83D PUSH1 0x1 DUP4 ADD PUSH2 0x7E1 JUMP JUMPDEST PUSH1 0x20 DUP9 ADD MSTORE JUMP JUMPDEST PUSH2 0x85A PUSH2 0x853 PUSH1 0x2 DUP4 ADD PUSH2 0x7E1 JUMP JUMPDEST PUSH1 0x40 DUP9 ADD MSTORE JUMP JUMPDEST ADD PUSH2 0x7E1 JUMP JUMPDEST PUSH1 0x60 DUP5 ADD MSTORE JUMP JUMPDEST PUSH2 0x2A9 SWAP1 PUSH2 0x58C JUMP JUMPDEST PUSH2 0x2A9 SWAP1 SLOAD PUSH2 0x867 JUMP JUMPDEST SWAP1 PUSH2 0x293 PUSH2 0x860 PUSH1 0x3 PUSH2 0x88B PUSH2 0x802 JUMP JUMPDEST SWAP5 PUSH2 0x898 PUSH2 0x82A DUP3 PUSH2 0x45B JUMP JUMPDEST PUSH2 0x8A7 PUSH2 0x83D PUSH1 0x1 DUP4 ADD PUSH2 0x45B JUMP JUMPDEST PUSH2 0x8BF PUSH2 0x8B6 PUSH1 0x2 DUP4 ADD PUSH2 0x870 JUMP JUMPDEST ISZERO ISZERO PUSH1 0x40 DUP9 ADD MSTORE JUMP JUMPDEST ADD PUSH2 0x45B JUMP JUMPDEST PUSH2 0x2A9 PUSH1 0x60 PUSH2 0x609 JUMP JUMPDEST SWAP1 PUSH2 0x293 PUSH2 0x902 PUSH1 0x2 PUSH2 0x8E0 PUSH2 0x8C5 JUMP JUMPDEST SWAP5 PUSH2 0x8F3 PUSH2 0x8ED DUP3 PUSH2 0x870 JUMP JUMPDEST ISZERO ISZERO DUP8 MSTORE JUMP JUMPDEST PUSH2 0x8BF PUSH2 0x83D PUSH1 0x1 DUP4 ADD PUSH2 0x45B JUMP JUMPDEST PUSH1 0x40 DUP5 ADD MSTORE JUMP JUMPDEST SWAP1 PUSH2 0x293 PUSH2 0x902 PUSH1 0x2 PUSH2 0x91A PUSH2 0x8C5 JUMP JUMPDEST SWAP5 PUSH2 0x927 PUSH2 0x82A DUP3 PUSH2 0x7E1 JUMP JUMPDEST PUSH2 0x8BF PUSH2 0x83D PUSH1 0x1 DUP4 ADD PUSH2 0x7E1 JUMP JUMPDEST PUSH2 0x2A9 SWAP1 PUSH1 0x8 SHR PUSH2 0x58C JUMP JUMPDEST PUSH2 0x2A9 SWAP1 SLOAD PUSH2 0x936 JUMP JUMPDEST SWAP1 PUSH2 0x293 PUSH2 0x860 PUSH1 0x2 PUSH2 0x95D PUSH2 0x802 JUMP JUMPDEST SWAP5 PUSH2 0x96A PUSH2 0x8ED DUP3 PUSH2 0x870 JUMP JUMPDEST PUSH2 0x97F PUSH2 0x976 DUP3 PUSH2 0x942 JUMP JUMPDEST ISZERO ISZERO PUSH1 0x20 DUP9 ADD MSTORE JUMP JUMPDEST PUSH2 0x8BF PUSH2 0x853 PUSH1 0x1 DUP4 ADD PUSH2 0x45B JUMP JUMPDEST PUSH2 0x999 SWAP1 PUSH1 0x2 PUSH2 0x44A JUMP JUMPDEST PUSH2 0x9A2 DUP2 PUSH2 0x80C JUMP JUMPDEST SWAP2 PUSH2 0x9AF PUSH1 0x4 DUP4 ADD PUSH2 0x87A JUMP JUMPDEST SWAP2 PUSH2 0x9BC PUSH1 0x8 DUP3 ADD PUSH2 0x8CF JUMP JUMPDEST SWAP2 PUSH2 0x2A9 PUSH1 0xE PUSH2 0x9CE PUSH1 0xB DUP6 ADD PUSH2 0x909 JUMP JUMPDEST SWAP4 ADD PUSH2 0x94C JUMP JUMPDEST PUSH1 0x0 JUMPDEST DUP4 DUP2 LT PUSH2 0x9E8 JUMPI POP POP PUSH1 0x0 SWAP2 ADD MSTORE JUMP JUMPDEST DUP2 DUP2 ADD MLOAD DUP4 DUP3 ADD MSTORE PUSH1 0x20 ADD PUSH2 0x9D8 JUMP JUMPDEST PUSH2 0xA19 PUSH2 0xA22 PUSH1 0x20 SWAP4 PUSH2 0x639 SWAP4 PUSH2 0xA0D DUP2 MLOAD SWAP1 JUMP JUMPDEST DUP1 DUP4 MSTORE SWAP4 DUP5 SWAP3 PUSH1 0x20 ADD SWAP1 JUMP JUMPDEST SWAP6 DUP7 SWAP2 ADD PUSH2 0x9D5 JUMP JUMPDEST PUSH1 0x1F ADD PUSH1 0x1F NOT AND SWAP1 JUMP JUMPDEST PUSH2 0x2A9 SWAP2 PUSH1 0x60 PUSH2 0xA75 PUSH2 0xA63 PUSH2 0xA51 PUSH1 0x80 DUP6 ADD PUSH1 0x0 DUP8 ADD MLOAD DUP7 DUP3 SUB PUSH1 0x0 DUP9 ADD MSTORE PUSH2 0x9F8 JUMP JUMPDEST PUSH1 0x20 DUP7 ADD MLOAD DUP6 DUP3 SUB PUSH1 0x20 DUP8 ADD MSTORE PUSH2 0x9F8 JUMP JUMPDEST PUSH1 0x40 DUP6 ADD MLOAD DUP5 DUP3 SUB PUSH1 0x40 DUP7 ADD MSTORE PUSH2 0x9F8 JUMP JUMPDEST SWAP3 ADD MLOAD SWAP1 PUSH1 0x60 DUP2 DUP5 SUB SWAP2 ADD MSTORE PUSH2 0x9F8 JUMP JUMPDEST DUP1 MLOAD DUP3 MSTORE PUSH2 0x293 SWAP2 SWAP1 PUSH1 0x60 SWAP1 DUP2 SWAP1 PUSH2 0xAA3 PUSH1 0x20 DUP3 ADD MLOAD PUSH1 0x20 DUP7 ADD MSTORE JUMP JUMPDEST PUSH1 0x40 DUP2 DUP2 ADD MLOAD ISZERO ISZERO SWAP1 DUP6 ADD MSTORE JUMPDEST ADD MLOAD SWAP2 ADD MSTORE JUMP JUMPDEST DUP1 MLOAD ISZERO ISZERO DUP3 MSTORE PUSH2 0x293 SWAP2 SWAP1 PUSH1 0x40 SWAP1 DUP2 SWAP1 PUSH2 0xAB0 PUSH1 0x20 DUP3 ADD MLOAD PUSH1 0x20 DUP7 ADD MSTORE JUMP JUMPDEST SWAP1 PUSH2 0x2A9 SWAP1 PUSH1 0x40 DUP1 PUSH2 0xB0C PUSH2 0xAFA PUSH1 0x60 DUP6 ADD PUSH1 0x0 DUP9 ADD MLOAD DUP7 DUP3 SUB PUSH1 0x0 DUP9 ADD MSTORE PUSH2 0x9F8 JUMP JUMPDEST PUSH1 0x20 DUP8 ADD MLOAD DUP6 DUP3 SUB PUSH1 0x20 DUP8 ADD MSTORE PUSH2 0x9F8 JUMP JUMPDEST SWAP5 ADD MLOAD SWAP2 ADD MSTORE JUMP JUMPDEST DUP1 MLOAD ISZERO ISZERO DUP3 MSTORE PUSH2 0x293 SWAP2 SWAP1 PUSH1 0x60 SWAP1 DUP2 SWAP1 PUSH1 0x20 DUP2 DUP2 ADD MLOAD ISZERO ISZERO SWAP1 DUP6 ADD MSTORE PUSH2 0xAB0 PUSH1 0x40 DUP3 ADD MLOAD PUSH1 0x40 DUP7 ADD MSTORE JUMP JUMPDEST SWAP6 SWAP5 SWAP3 SWAP2 PUSH2 0x293 SWAP5 PUSH2 0xB81 PUSH2 0x120 SWAP5 PUSH2 0xB77 PUSH2 0xB6C PUSH2 0xB8F SWAP7 PUSH2 0x1A0 DUP14 ADD SWAP1 DUP14 PUSH1 0x0 DUP2 DUP5 SUB SWAP2 ADD MSTORE PUSH2 0xA2C JUMP JUMPDEST SWAP5 PUSH1 0x20 DUP13 ADD SWAP1 PUSH2 0xA86 JUMP JUMPDEST PUSH1 0xA0 DUP11 ADD SWAP1 PUSH2 0xAB7 JUMP JUMPDEST DUP8 DUP3 SUB PUSH2 0x100 DUP10 ADD MSTORE PUSH2 0xAD6 JUMP JUMPDEST SWAP5 ADD SWAP1 PUSH2 0xB14 JUMP JUMPDEST CALLVALUE PUSH2 0x278 JUMPI PUSH2 0x316 PUSH2 0xBB2 PUSH2 0xBAD CALLDATASIZE PUSH1 0x4 PUSH2 0x295 JUMP JUMPDEST PUSH2 0x98E JUMP JUMPDEST SWAP2 PUSH2 0xBBF SWAP6 SWAP4 SWAP6 PUSH1 0x40 MLOAD SWAP1 JUMP JUMPDEST SWAP6 DUP7 SWAP6 DUP7 PUSH2 0xB3F JUMP JUMPDEST PUSH2 0x2A9 PUSH2 0x708 PUSH2 0x43D JUMP JUMPDEST PUSH2 0x2A9 PUSH2 0xBC8 JUMP JUMPDEST CALLVALUE PUSH2 0x278 JUMPI PUSH2 0xBEB CALLDATASIZE PUSH1 0x4 PUSH2 0x6E1 JUMP JUMPDEST PUSH2 0x316 PUSH2 0x306 PUSH2 0xBD3 JUMP JUMPDEST CALLVALUE PUSH2 0x278 JUMPI PUSH2 0x3C2 PUSH2 0xC09 CALLDATASIZE PUSH1 0x4 PUSH2 0x3E3 JUMP JUMPDEST PUSH2 0x2646 JUMP JUMPDEST CALLVALUE PUSH2 0x278 JUMPI PUSH2 0xC1E CALLDATASIZE PUSH1 0x4 PUSH2 0x6E1 JUMP JUMPDEST PUSH2 0x3C2 PUSH2 0x266C JUMP JUMPDEST SWAP2 SWAP1 PUSH1 0x40 DUP4 DUP3 SUB SLT PUSH2 0x278 JUMPI PUSH2 0x2A9 SWAP1 PUSH1 0x20 PUSH2 0xC42 DUP3 DUP7 PUSH2 0x286 JUMP JUMPDEST SWAP5 ADD PUSH2 0x286 JUMP JUMPDEST PUSH2 0x2E2 PUSH2 0x2A9 SWAP3 PUSH2 0xC5D PUSH1 0x0 SWAP4 PUSH1 0xC PUSH2 0x44A JUMP JUMPDEST PUSH2 0x44A JUMP JUMPDEST CALLVALUE PUSH2 0x278 JUMPI PUSH2 0x316 PUSH2 0x306 PUSH2 0xC78 CALLDATASIZE PUSH1 0x4 PUSH2 0xC26 JUMP JUMPDEST SWAP1 PUSH2 0xC49 JUMP JUMPDEST SWAP2 PUSH1 0x60 DUP4 DUP4 SUB SLT PUSH2 0x278 JUMPI PUSH2 0xC93 DUP3 DUP5 PUSH2 0x286 JUMP JUMPDEST SWAP3 PUSH1 0x20 DUP2 ADD CALLDATALOAD PUSH1 0x1 PUSH1 0x1 PUSH1 0x40 SHL SUB DUP2 GT PUSH2 0x278 JUMPI DUP4 PUSH2 0xCB3 SWAP2 DUP4 ADD PUSH2 0x678 JUMP JUMPDEST SWAP3 PUSH1 0x40 DUP3 ADD CALLDATALOAD PUSH1 0x1 PUSH1 0x1 PUSH1 0x40 SHL SUB DUP2 GT PUSH2 0x278 JUMPI PUSH2 0x2A9 SWAP3 ADD PUSH2 0x678 JUMP JUMPDEST CALLVALUE PUSH2 0x278 JUMPI PUSH2 0x3C2 PUSH2 0xCE4 CALLDATASIZE PUSH1 0x4 PUSH2 0xC7E JUMP JUMPDEST SWAP2 PUSH2 0x2A24 JUMP JUMPDEST SWAP1 DUP2 MSTORE PUSH1 0x60 DUP2 ADD SWAP4 SWAP3 PUSH2 0x293 SWAP3 SWAP1 SWAP2 PUSH1 0x40 SWAP2 PUSH2 0x4E0 SWAP1 JUMPDEST PUSH1 0x20 DUP4 ADD MSTORE JUMP JUMPDEST CALLVALUE PUSH2 0x278 JUMPI PUSH2 0x316 PUSH2 0xD24 PUSH2 0xD1E CALLDATASIZE PUSH1 0x4 PUSH2 0x342 JUMP JUMPDEST SWAP1 PUSH2 0x2DDA JUMP JUMPDEST PUSH1 0x40 MLOAD SWAP2 SWAP4 SWAP2 SWAP4 DUP5 SWAP4 DUP5 PUSH2 0xCEA JUMP JUMPDEST PUSH2 0x2A9 PUSH2 0xE10 PUSH2 0x43D JUMP JUMPDEST PUSH2 0x2A9 PUSH2 0xD33 JUMP JUMPDEST CALLVALUE PUSH2 0x278 JUMPI PUSH2 0xD56 CALLDATASIZE PUSH1 0x4 PUSH2 0x6E1 JUMP JUMPDEST PUSH2 0x316 PUSH2 0x306 PUSH2 0xD3E JUMP JUMPDEST DUP1 MLOAD PUSH1 0x1 PUSH1 0x1 PUSH1 0xA0 SHL SUB AND DUP3 MSTORE PUSH2 0x293 SWAP2 SWAP1 PUSH1 0xC0 SWAP1 DUP2 SWAP1 PUSH1 0x20 DUP2 DUP2 ADD MLOAD ISZERO ISZERO SWAP1 DUP6 ADD MSTORE PUSH2 0xD93 PUSH1 0x40 DUP3 ADD MLOAD PUSH1 0x40 DUP7 ADD MSTORE JUMP JUMPDEST PUSH2 0xDA2 PUSH1 0x60 DUP3 ADD MLOAD PUSH1 0x60 DUP7 ADD MSTORE JUMP JUMPDEST PUSH2 0xDB1 PUSH1 0x80 DUP3 ADD MLOAD PUSH1 0x80 DUP7 ADD MSTORE JUMP JUMPDEST PUSH2 0xAB0 PUSH1 0xA0 DUP3 ADD MLOAD PUSH1 0xA0 DUP7 ADD MSTORE JUMP JUMPDEST PUSH1 0xE0 DUP2 ADD SWAP3 SWAP2 PUSH2 0x293 SWAP2 SWAP1 PUSH2 0xD61 JUMP JUMPDEST CALLVALUE PUSH2 0x278 JUMPI PUSH2 0x316 PUSH2 0xDEB PUSH2 0xDE6 CALLDATASIZE PUSH1 0x4 PUSH2 0x295 JUMP JUMPDEST PUSH2 0x2EBD JUMP JUMPDEST PUSH1 0x40 MLOAD SWAP2 DUP3 SWAP2 DUP3 PUSH2 0xDC0 JUMP JUMPDEST SWAP1 SWAP2 PUSH1 0x60 DUP3 DUP5 SUB SLT PUSH2 0x278 JUMPI PUSH2 0x2A9 PUSH2 0xE10 DUP5 DUP5 PUSH2 0x286 JUMP JUMPDEST SWAP4 PUSH1 0x40 PUSH2 0xC42 DUP3 PUSH1 0x20 DUP8 ADD PUSH2 0x335 JUMP JUMPDEST PUSH4 0x4E487B71 PUSH1 0xE0 SHL PUSH1 0x0 MSTORE PUSH1 0x32 PUSH1 0x4 MSTORE PUSH1 0x24 PUSH1 0x0 REVERT JUMPDEST DUP1 SLOAD DUP3 LT ISZERO PUSH2 0xE59 JUMPI PUSH2 0xE50 PUSH1 0x1 SWAP2 PUSH1 0x0 MSTORE PUSH1 0x20 PUSH1 0x0 KECCAK256 SWAP1 JUMP JUMPDEST SWAP2 MUL ADD SWAP1 PUSH1 0x0 SWAP1 JUMP JUMPDEST PUSH2 0xE20 JUMP JUMPDEST SWAP1 PUSH2 0xE6D PUSH2 0xE72 SWAP3 PUSH1 0x8 PUSH2 0x44A JUMP JUMPDEST PUSH2 0x579 JUMP JUMPDEST DUP1 SLOAD DUP3 LT ISZERO PUSH2 0x278 JUMPI PUSH2 0x2A9 SWAP2 PUSH2 0xE88 SWAP2 PUSH2 0xE36 JUMP JUMPDEST SWAP1 PUSH2 0x2C7 JUMP JUMPDEST CALLVALUE PUSH2 0x278 JUMPI PUSH2 0x316 PUSH2 0x306 PUSH2 0xEA4 CALLDATASIZE PUSH1 0x4 PUSH2 0xDF7 JUMP JUMPDEST SWAP2 PUSH2 0xE5E JUMP JUMPDEST CALLVALUE PUSH2 0x278 JUMPI PUSH2 0xEBA CALLDATASIZE PUSH1 0x4 PUSH2 0x6E1 JUMP JUMPDEST PUSH2 0x316 PUSH2 0xECF PUSH1 0x1 SLOAD PUSH1 0x1 PUSH1 0x1 PUSH1 0xA0 SHL SUB AND SWAP1 JUMP JUMPDEST PUSH1 0x40 MLOAD SWAP2 DUP3 SWAP2 DUP3 PUSH1 0x1 PUSH1 0x1 PUSH1 0xA0 SHL SUB SWAP1 SWAP2 AND DUP2 MSTORE PUSH1 0x20 ADD SWAP1 JUMP JUMPDEST DUP1 MLOAD DUP3 MSTORE PUSH2 0x293 SWAP2 SWAP1 PUSH2 0x100 SWAP1 DUP2 SWAP1 PUSH2 0xF07 PUSH1 0x20 DUP3 ADD MLOAD PUSH1 0x20 DUP7 ADD MSTORE JUMP JUMPDEST PUSH2 0xF16 PUSH1 0x40 DUP3 ADD MLOAD PUSH1 0x40 DUP7 ADD MSTORE JUMP JUMPDEST PUSH1 0x60 DUP2 DUP2 ADD MLOAD ISZERO ISZERO SWAP1 DUP6 ADD MSTORE PUSH2 0xF31 PUSH1 0x80 DUP3 ADD MLOAD PUSH1 0x80 DUP7 ADD MSTORE JUMP JUMPDEST PUSH2 0xF40 PUSH1 0xA0 DUP3 ADD MLOAD PUSH1 0xA0 DUP7 ADD MSTORE JUMP JUMPDEST PUSH1 0xC0 DUP2 DUP2 ADD MLOAD ISZERO ISZERO SWAP1 DUP6 ADD MSTORE PUSH2 0xAB0 PUSH1 0xE0 DUP3 ADD MLOAD PUSH1 0xE0 DUP7 ADD MSTORE JUMP JUMPDEST SWAP1 PUSH2 0x639 DUP2 PUSH2 0x120 SWAP4 PUSH2 0xEE9 JUMP JUMPDEST SWAP1 PUSH2 0xF89 PUSH2 0xF82 PUSH2 0xF78 DUP5 MLOAD SWAP1 JUMP JUMPDEST DUP1 DUP5 MSTORE SWAP3 PUSH1 0x20 ADD SWAP1 JUMP JUMPDEST SWAP3 PUSH1 0x20 ADD SWAP1 JUMP JUMPDEST SWAP1 PUSH1 0x0 JUMPDEST DUP2 DUP2 LT PUSH2 0xF9A JUMPI POP POP POP SWAP1 JUMP JUMPDEST SWAP1 SWAP2 SWAP3 PUSH2 0xFB4 PUSH2 0xFAD PUSH1 0x1 SWAP3 DUP7 MLOAD PUSH2 0xF5B JUMP JUMPDEST SWAP5 PUSH1 0x20 ADD SWAP1 JUMP JUMPDEST SWAP3 SWAP2 ADD PUSH2 0xF8D JUMP JUMPDEST DUP1 MLOAD DUP3 MSTORE PUSH2 0x2A9 SWAP2 PUSH1 0x40 DUP2 ADD SWAP2 PUSH1 0x20 ADD MLOAD SWAP1 PUSH1 0x20 DUP2 DUP5 SUB SWAP2 ADD MSTORE PUSH2 0xF69 JUMP JUMPDEST PUSH1 0x20 DUP1 DUP3 MSTORE PUSH2 0x2A9 SWAP3 SWAP2 ADD SWAP1 PUSH2 0xFBC JUMP JUMPDEST CALLVALUE PUSH2 0x278 JUMPI PUSH2 0x316 PUSH2 0x1008 PUSH2 0x1002 CALLDATASIZE PUSH1 0x4 PUSH2 0x342 JUMP JUMPDEST SWAP1 PUSH2 0x3036 JUMP JUMPDEST PUSH1 0x40 MLOAD SWAP2 DUP3 SWAP2 DUP3 PUSH2 0xFDB JUMP JUMPDEST SWAP2 PUSH1 0x60 DUP4 DUP4 SUB SLT PUSH2 0x278 JUMPI PUSH2 0x1029 DUP3 DUP5 PUSH2 0x286 JUMP JUMPDEST SWAP3 PUSH2 0xCB3 DUP4 PUSH1 0x20 DUP4 ADD PUSH2 0x335 JUMP JUMPDEST CALLVALUE PUSH2 0x278 JUMPI PUSH2 0x3C2 PUSH2 0x104A CALLDATASIZE PUSH1 0x4 PUSH2 0x1014 JUMP JUMPDEST SWAP2 PUSH2 0x3463 JUMP JUMPDEST SWAP1 PUSH2 0x105F PUSH2 0xF82 PUSH2 0xF78 DUP5 MLOAD SWAP1 JUMP JUMPDEST SWAP1 PUSH1 0x0 JUMPDEST DUP2 DUP2 LT PUSH2 0x1070 JUMPI POP POP POP SWAP1 JUMP JUMPDEST SWAP1 SWAP2 SWAP3 PUSH2 0x1086 PUSH2 0xFAD PUSH1 0x1 SWAP3 DUP7 MLOAD DUP2 MSTORE PUSH1 0x20 ADD SWAP1 JUMP JUMPDEST SWAP3 SWAP2 ADD PUSH2 0x1063 JUMP JUMPDEST PUSH1 0x20 DUP1 DUP3 MSTORE PUSH2 0x2A9 SWAP3 SWAP2 ADD SWAP1 PUSH2 0x1050 JUMP JUMPDEST CALLVALUE PUSH2 0x278 JUMPI PUSH2 0x316 PUSH2 0x10BA PUSH2 0x10B5 CALLDATASIZE PUSH1 0x4 PUSH2 0x295 JUMP JUMPDEST PUSH2 0x346E JUMP JUMPDEST PUSH1 0x40 MLOAD SWAP2 DUP3 SWAP2 DUP3 PUSH2 0x108E JUMP JUMPDEST PUSH2 0x2A9 SWAP1 PUSH1 0xA0 SHR PUSH2 0x58C JUMP JUMPDEST PUSH2 0x2A9 SWAP1 SLOAD PUSH2 0x10C6 JUMP JUMPDEST PUSH2 0x10E7 SWAP1 PUSH1 0xA PUSH2 0x44A JUMP JUMPDEST DUP1 SLOAD PUSH1 0x1 PUSH1 0x1 PUSH1 0xA0 SHL SUB AND SWAP2 PUSH2 0x10FC DUP3 PUSH2 0x10D2 JUMP JUMPDEST SWAP2 PUSH2 0x1109 PUSH1 0x1 DUP3 ADD PUSH2 0x45B JUMP JUMPDEST SWAP2 PUSH2 0x1116 PUSH1 0x2 DUP4 ADD PUSH2 0x45B JUMP JUMPDEST SWAP2 PUSH2 0x1123 PUSH1 0x3 DUP3 ADD PUSH2 0x45B JUMP JUMPDEST SWAP2 PUSH2 0x2A9 PUSH1 0x5 PUSH2 0x4A1 PUSH1 0x4 DUP6 ADD PUSH2 0x45B JUMP JUMPDEST SWAP5 SWAP3 SWAP1 SWAP8 SWAP7 SWAP6 SWAP4 SWAP2 PUSH1 0xE0 DUP7 ADD SWAP9 PUSH1 0x0 DUP8 ADD PUSH2 0x1157 SWAP2 PUSH1 0x1 PUSH1 0x1 PUSH1 0xA0 SHL SUB AND SWAP1 MSTORE JUMP JUMPDEST ISZERO ISZERO PUSH1 0x20 DUP7 ADD MSTORE PUSH1 0x40 DUP6 ADD MSTORE PUSH1 0x60 DUP5 ADD MSTORE PUSH1 0x80 DUP4 ADD MSTORE PUSH1 0xA0 DUP3 ADD MSTORE PUSH1 0xC0 ADD MSTORE JUMP JUMPDEST CALLVALUE PUSH2 0x278 JUMPI PUSH2 0x316 PUSH2 0x1193 PUSH2 0x118E CALLDATASIZE PUSH1 0x4 PUSH2 0x295 JUMP JUMPDEST PUSH2 0x10DC JUMP JUMPDEST SWAP4 PUSH2 0x11A3 SWAP8 SWAP6 SWAP8 SWAP4 SWAP2 SWAP4 PUSH1 0x40 MLOAD SWAP1 JUMP JUMPDEST SWAP8 DUP9 SWAP8 DUP9 PUSH2 0x1135 JUMP JUMPDEST SWAP1 SWAP2 DUP3 PUSH1 0x1F DUP4 ADD SLT ISZERO PUSH2 0x278 JUMPI DUP2 CALLDATALOAD SWAP2 PUSH1 0x1 PUSH1 0x1 PUSH1 0x40 SHL SUB DUP4 GT PUSH2 0x278 JUMPI PUSH1 0x20 ADD SWAP3 PUSH1 0x20 DUP4 MUL DUP5 ADD GT PUSH2 0x278 JUMPI JUMP JUMPDEST SWAP1 PUSH1 0x60 DUP3 DUP3 SUB SLT PUSH2 0x278 JUMPI DUP2 CALLDATALOAD PUSH1 0x1 PUSH1 0x1 PUSH1 0x40 SHL SUB DUP2 GT PUSH2 0x278 JUMPI DUP2 PUSH2 0x1202 SWAP2 DUP5 ADD PUSH2 0x11AC JUMP JUMPDEST SWAP3 SWAP1 SWAP4 PUSH1 0x20 DUP3 ADD CALLDATALOAD PUSH1 0x1 PUSH1 0x1 PUSH1 0x40 SHL SUB DUP2 GT PUSH2 0x278 JUMPI DUP4 PUSH2 0x1224 SWAP2 DUP5 ADD PUSH2 0x11AC JUMP JUMPDEST SWAP3 SWAP1 SWAP4 PUSH1 0x40 DUP3 ADD CALLDATALOAD PUSH1 0x1 PUSH1 0x1 PUSH1 0x40 SHL SUB DUP2 GT PUSH2 0x278 JUMPI PUSH2 0x1244 SWAP3 ADD PUSH2 0x11AC JUMP JUMPDEST SWAP1 SWAP2 JUMP JUMPDEST CALLVALUE PUSH2 0x278 JUMPI PUSH2 0x3C2 PUSH2 0x125B CALLDATASIZE PUSH1 0x4 PUSH2 0x11DB JUMP JUMPDEST SWAP5 SWAP4 SWAP1 SWAP4 SWAP3 SWAP2 SWAP3 PUSH2 0x37A2 JUMP JUMPDEST PUSH2 0xE72 SWAP1 PUSH1 0x6 PUSH2 0x44A JUMP JUMPDEST CALLVALUE PUSH2 0x278 JUMPI PUSH2 0x316 PUSH2 0x306 PUSH2 0x1288 CALLDATASIZE PUSH1 0x4 PUSH2 0xC26 JUMP JUMPDEST SWAP1 PUSH2 0x1267 JUMP JUMPDEST PUSH1 0x60 DUP2 DUP4 SUB SLT PUSH2 0x278 JUMPI PUSH2 0x12A2 DUP3 DUP3 PUSH2 0x286 JUMP JUMPDEST SWAP3 PUSH1 0x20 DUP3 ADD CALLDATALOAD PUSH1 0x1 PUSH1 0x1 PUSH1 0x40 SHL SUB DUP2 GT PUSH2 0x278 JUMPI DUP4 PUSH2 0x1224 SWAP2 DUP5 ADD PUSH2 0x11AC JUMP JUMPDEST CALLVALUE PUSH2 0x278 JUMPI PUSH2 0x316 PUSH2 0x10BA PUSH2 0x12D8 CALLDATASIZE PUSH1 0x4 PUSH2 0x128E JUMP JUMPDEST SWAP4 SWAP3 SWAP1 SWAP3 PUSH2 0x3AA9 JUMP JUMPDEST CALLVALUE PUSH2 0x278 JUMPI PUSH2 0x3C2 PUSH2 0x12F4 CALLDATASIZE PUSH1 0x4 PUSH2 0x693 JUMP JUMPDEST SWAP1 PUSH2 0x3B9F JUMP JUMPDEST SWAP1 ISZERO ISZERO DUP2 MSTORE SWAP1 ISZERO ISZERO PUSH1 0x20 DUP3 ADD MSTORE PUSH1 0x60 DUP2 ADD SWAP3 SWAP2 PUSH2 0x293 SWAP2 PUSH1 0x40 ADD MSTORE JUMP JUMPDEST CALLVALUE PUSH2 0x278 JUMPI PUSH2 0x316 PUSH2 0x1332 PUSH2 0x132D CALLDATASIZE PUSH1 0x4 PUSH2 0x295 JUMP JUMPDEST PUSH2 0x3BA9 JUMP JUMPDEST PUSH1 0x40 MLOAD SWAP2 SWAP4 SWAP2 SWAP4 DUP5 SWAP4 DUP5 PUSH2 0x12FA JUMP JUMPDEST CALLVALUE PUSH2 0x278 JUMPI PUSH2 0x316 PUSH2 0x306 PUSH2 0x1357 CALLDATASIZE PUSH1 0x4 PUSH2 0xC26 JUMP JUMPDEST SWAP1 PUSH2 0x3D2B JUMP JUMPDEST PUSH2 0x5AD PUSH2 0x2A9 SWAP3 PUSH2 0xC5D PUSH1 0x0 SWAP4 PUSH1 0xD PUSH2 0x44A JUMP JUMPDEST CALLVALUE PUSH2 0x278 JUMPI PUSH2 0x316 PUSH2 0x42A PUSH2 0x1387 CALLDATASIZE PUSH1 0x4 PUSH2 0xC26 JUMP JUMPDEST SWAP1 PUSH2 0x135D JUMP JUMPDEST SWAP2 SWAP1 SWAP2 PUSH1 0x80 DUP2 DUP5 SUB SLT PUSH2 0x278 JUMPI PUSH2 0x13A4 PUSH1 0x80 PUSH2 0x609 JUMP JUMPDEST SWAP3 DUP2 CALLDATALOAD PUSH1 0x1 PUSH1 0x1 PUSH1 0x40 SHL SUB DUP2 GT PUSH2 0x278 JUMPI DUP2 PUSH2 0x13C1 SWAP2 DUP5 ADD PUSH2 0x678 JUMP JUMPDEST DUP5 MSTORE PUSH1 0x20 DUP3 ADD CALLDATALOAD PUSH1 0x1 PUSH1 0x1 PUSH1 0x40 SHL SUB DUP2 GT PUSH2 0x278 JUMPI DUP2 PUSH2 0x13E2 SWAP2 DUP5 ADD PUSH2 0x678 JUMP JUMPDEST PUSH1 0x20 DUP6 ADD MSTORE PUSH1 0x40 DUP3 ADD CALLDATALOAD PUSH1 0x1 PUSH1 0x1 PUSH1 0x40 SHL SUB DUP2 GT PUSH2 0x278 JUMPI DUP2 PUSH2 0x1406 SWAP2 DUP5 ADD PUSH2 0x678 JUMP JUMPDEST PUSH1 0x40 DUP6 ADD MSTORE PUSH1 0x60 DUP3 ADD CALLDATALOAD PUSH1 0x1 PUSH1 0x1 PUSH1 0x40 SHL SUB DUP2 GT PUSH2 0x278 JUMPI PUSH2 0x1428 SWAP3 ADD PUSH2 0x678 JUMP JUMPDEST PUSH1 0x60 DUP4 ADD MSTORE JUMP JUMPDEST SWAP2 SWAP1 PUSH1 0x80 DUP4 DUP3 SUB SLT PUSH2 0x278 JUMPI PUSH2 0x1428 SWAP1 PUSH1 0x60 PUSH2 0x144B PUSH1 0x80 PUSH2 0x609 JUMP JUMPDEST SWAP5 PUSH2 0x1456 DUP4 DUP3 PUSH2 0x286 JUMP JUMPDEST DUP7 MSTORE PUSH2 0x1465 DUP4 PUSH1 0x20 DUP4 ADD PUSH2 0x286 JUMP JUMPDEST PUSH1 0x20 DUP8 ADD MSTORE PUSH2 0x1477 DUP4 PUSH1 0x40 DUP4 ADD PUSH2 0x389 JUMP JUMPDEST PUSH1 0x40 DUP8 ADD MSTORE ADD PUSH2 0x286 JUMP JUMPDEST SWAP2 SWAP1 PUSH1 0x60 DUP4 DUP3 SUB SLT PUSH2 0x278 JUMPI PUSH2 0x4D9 SWAP1 PUSH1 0x40 PUSH2 0x149E PUSH1 0x60 PUSH2 0x609 JUMP JUMPDEST SWAP5 PUSH2 0x14A9 DUP4 DUP3 PUSH2 0x389 JUMP JUMPDEST DUP7 MSTORE PUSH2 0x14B8 DUP4 PUSH1 0x20 DUP4 ADD PUSH2 0x286 JUMP JUMPDEST PUSH1 0x20 DUP8 ADD MSTORE ADD PUSH2 0x286 JUMP JUMPDEST SWAP2 SWAP1 SWAP2 PUSH1 0x60 DUP2 DUP5 SUB SLT PUSH2 0x278 JUMPI PUSH2 0x14DA PUSH1 0x60 PUSH2 0x609 JUMP JUMPDEST SWAP3 DUP2 CALLDATALOAD PUSH1 0x1 PUSH1 0x1 PUSH1 0x40 SHL SUB DUP2 GT PUSH2 0x278 JUMPI DUP2 PUSH2 0x14F7 SWAP2 DUP5 ADD PUSH2 0x678 JUMP JUMPDEST DUP5 MSTORE PUSH1 0x20 DUP3 ADD CALLDATALOAD PUSH1 0x1 PUSH1 0x1 PUSH1 0x40 SHL SUB DUP2 GT PUSH2 0x278 JUMPI DUP3 PUSH2 0x14B8 DUP4 PUSH1 0x40 SWAP4 PUSH2 0x4D9 SWAP7 ADD PUSH2 0x678 JUMP JUMPDEST PUSH1 0x1 PUSH1 0x1 PUSH1 0x40 SHL SUB DUP2 GT PUSH2 0x604 JUMPI PUSH1 0x20 DUP1 SWAP2 MUL ADD SWAP1 JUMP JUMPDEST PUSH1 0x4 GT ISZERO PUSH2 0x278 JUMPI JUMP JUMPDEST SWAP1 POP CALLDATALOAD SWAP1 PUSH2 0x293 DUP3 PUSH2 0x1535 JUMP JUMPDEST SWAP1 SWAP3 SWAP2 SWAP3 PUSH2 0x155C PUSH2 0x659 DUP3 PUSH2 0x151E JUMP JUMPDEST SWAP4 DUP2 DUP6 MSTORE PUSH1 0x20 DUP1 DUP7 ADD SWAP3 MUL DUP4 ADD SWAP3 DUP2 DUP5 GT PUSH2 0x278 JUMPI SWAP2 JUMPDEST DUP4 DUP4 LT PUSH2 0x1580 JUMPI POP POP POP POP JUMP JUMPDEST PUSH1 0x20 DUP1 SWAP2 PUSH2 0x158E DUP5 DUP7 PUSH2 0x286 JUMP JUMPDEST DUP2 MSTORE ADD SWAP3 ADD SWAP2 PUSH2 0x1573 JUMP JUMPDEST SWAP1 DUP1 PUSH1 0x1F DUP4 ADD SLT ISZERO PUSH2 0x278 JUMPI DUP2 PUSH1 0x20 PUSH2 0x2A9 SWAP4 CALLDATALOAD SWAP2 ADD PUSH2 0x154C JUMP JUMPDEST SWAP2 SWAP1 SWAP2 PUSH2 0x1C0 DUP2 DUP5 SUB SLT PUSH2 0x278 JUMPI PUSH2 0x15CD PUSH2 0x1C0 PUSH2 0x609 JUMP JUMPDEST SWAP3 PUSH2 0x15D8 DUP2 DUP4 PUSH2 0x153F JUMP JUMPDEST DUP5 MSTORE PUSH2 0x15E7 DUP2 PUSH1 0x20 DUP5 ADD PUSH2 0x335 JUMP JUMPDEST PUSH1 0x20 DUP6 ADD MSTORE PUSH2 0x15F9 DUP2 PUSH1 0x40 DUP5 ADD PUSH2 0x286 JUMP JUMPDEST PUSH1 0x40 DUP6 ADD MSTORE PUSH2 0x160B DUP2 PUSH1 0x60 DUP5 ADD PUSH2 0x286 JUMP JUMPDEST PUSH1 0x60 DUP6 ADD MSTORE PUSH2 0x161D DUP2 PUSH1 0x80 DUP5 ADD PUSH2 0x286 JUMP JUMPDEST PUSH1 0x80 DUP6 ADD MSTORE PUSH2 0x162F DUP2 PUSH1 0xA0 DUP5 ADD PUSH2 0x286 JUMP JUMPDEST PUSH1 0xA0 DUP6 ADD MSTORE PUSH2 0x1641 DUP2 PUSH1 0xC0 DUP5 ADD PUSH2 0x286 JUMP JUMPDEST PUSH1 0xC0 DUP6 ADD MSTORE PUSH2 0x1653 DUP2 PUSH1 0xE0 DUP5 ADD PUSH2 0x286 JUMP JUMPDEST PUSH1 0xE0 DUP6 ADD MSTORE PUSH2 0x100 DUP3 ADD CALLDATALOAD PUSH1 0x1 PUSH1 0x1 PUSH1 0x40 SHL SUB DUP2 GT PUSH2 0x278 JUMPI DUP2 PUSH2 0x1678 SWAP2 DUP5 ADD PUSH2 0x678 JUMP JUMPDEST PUSH2 0x100 DUP6 ADD MSTORE PUSH2 0x120 DUP3 ADD CALLDATALOAD PUSH1 0x1 PUSH1 0x1 PUSH1 0x40 SHL SUB DUP2 GT PUSH2 0x278 JUMPI DUP2 PUSH2 0x169E SWAP2 DUP5 ADD PUSH2 0x678 JUMP JUMPDEST PUSH2 0x120 DUP6 ADD MSTORE PUSH2 0x140 DUP3 ADD CALLDATALOAD PUSH1 0x1 PUSH1 0x1 PUSH1 0x40 SHL SUB DUP2 GT PUSH2 0x278 JUMPI DUP2 PUSH2 0x16C4 SWAP2 DUP5 ADD PUSH2 0x678 JUMP JUMPDEST PUSH2 0x140 DUP6 ADD MSTORE PUSH2 0x160 DUP3 ADD CALLDATALOAD PUSH1 0x1 PUSH1 0x1 PUSH1 0x40 SHL SUB DUP2 GT PUSH2 0x278 JUMPI DUP2 PUSH2 0x16EA SWAP2 DUP5 ADD PUSH2 0x678 JUMP JUMPDEST PUSH2 0x160 DUP6 ADD MSTORE PUSH2 0x180 DUP3 ADD CALLDATALOAD PUSH1 0x1 PUSH1 0x1 PUSH1 0x40 SHL SUB DUP2 GT PUSH2 0x278 JUMPI DUP2 PUSH2 0x1710 SWAP2 DUP5 ADD PUSH2 0x678 JUMP JUMPDEST PUSH2 0x180 DUP6 ADD MSTORE PUSH2 0x1A0 DUP3 ADD CALLDATALOAD PUSH1 0x1 PUSH1 0x1 PUSH1 0x40 SHL SUB DUP2 GT PUSH2 0x278 JUMPI PUSH2 0x1734 SWAP3 ADD PUSH2 0x1599 JUMP JUMPDEST PUSH2 0x1A0 DUP4 ADD MSTORE JUMP JUMPDEST SWAP3 SWAP2 SWAP1 PUSH2 0x174B PUSH2 0x659 DUP3 PUSH2 0x151E JUMP JUMPDEST SWAP4 DUP2 DUP6 MSTORE PUSH1 0x20 DUP1 DUP7 ADD SWAP3 MUL DUP2 ADD SWAP2 DUP4 DUP4 GT PUSH2 0x278 JUMPI DUP2 SWAP1 JUMPDEST DUP4 DUP3 LT PUSH2 0x1771 JUMPI POP POP POP POP POP JUMP JUMPDEST DUP2 CALLDATALOAD PUSH1 0x1 PUSH1 0x1 PUSH1 0x40 SHL SUB DUP2 GT PUSH2 0x278 JUMPI PUSH1 0x20 SWAP2 PUSH2 0x1791 DUP8 DUP5 SWAP4 DUP8 ADD PUSH2 0x15B4 JUMP JUMPDEST DUP2 MSTORE ADD SWAP2 ADD SWAP1 PUSH2 0x1763 JUMP JUMPDEST SWAP1 DUP1 PUSH1 0x1F DUP4 ADD SLT ISZERO PUSH2 0x278 JUMPI DUP2 PUSH1 0x20 PUSH2 0x2A9 SWAP4 CALLDATALOAD SWAP2 ADD PUSH2 0x173C JUMP JUMPDEST SWAP2 SWAP1 SWAP2 PUSH2 0x140 DUP2 DUP5 SUB SLT PUSH2 0x278 JUMPI PUSH2 0x17CF PUSH1 0xA0 PUSH2 0x609 JUMP JUMPDEST SWAP3 DUP2 CALLDATALOAD PUSH1 0x1 PUSH1 0x1 PUSH1 0x40 SHL SUB DUP2 GT PUSH2 0x278 JUMPI DUP2 PUSH2 0x17EC SWAP2 DUP5 ADD PUSH2 0x138D JUMP JUMPDEST DUP5 MSTORE PUSH2 0x17FB DUP2 PUSH1 0x20 DUP5 ADD PUSH2 0x142F JUMP JUMPDEST PUSH1 0x20 DUP6 ADD MSTORE PUSH2 0x180D DUP2 PUSH1 0xA0 DUP5 ADD PUSH2 0x1482 JUMP JUMPDEST PUSH1 0x40 DUP6 ADD MSTORE PUSH2 0x100 DUP3 ADD CALLDATALOAD PUSH1 0x1 PUSH1 0x1 PUSH1 0x40 SHL SUB DUP2 GT PUSH2 0x278 JUMPI DUP2 PUSH2 0x1832 SWAP2 DUP5 ADD PUSH2 0x14C3 JUMP JUMPDEST PUSH1 0x60 DUP6 ADD MSTORE PUSH2 0x120 DUP3 ADD CALLDATALOAD PUSH1 0x1 PUSH1 0x1 PUSH1 0x40 SHL SUB DUP2 GT PUSH2 0x278 JUMPI PUSH2 0x1855 SWAP3 ADD PUSH2 0x179C JUMP JUMPDEST PUSH1 0x80 DUP4 ADD MSTORE JUMP JUMPDEST SWAP1 PUSH1 0x20 DUP3 DUP3 SUB SLT PUSH2 0x278 JUMPI DUP2 CALLDATALOAD PUSH1 0x1 PUSH1 0x1 PUSH1 0x40 SHL SUB DUP2 GT PUSH2 0x278 JUMPI PUSH2 0x2A9 SWAP3 ADD PUSH2 0x17B7 JUMP JUMPDEST CALLVALUE PUSH2 0x278 JUMPI PUSH2 0x316 PUSH2 0x306 PUSH2 0x1897 CALLDATASIZE PUSH1 0x4 PUSH2 0x185C JUMP JUMPDEST PUSH2 0x424A JUMP JUMPDEST SWAP1 SWAP2 PUSH1 0x60 DUP3 DUP5 SUB SLT PUSH2 0x278 JUMPI PUSH2 0x2A9 PUSH2 0x18B5 DUP5 DUP5 PUSH2 0x286 JUMP JUMPDEST SWAP4 PUSH1 0x40 PUSH2 0xC42 DUP3 PUSH1 0x20 DUP8 ADD PUSH2 0x286 JUMP JUMPDEST CALLVALUE PUSH2 0x278 JUMPI PUSH2 0x316 PUSH2 0x10BA PUSH2 0x18DB CALLDATASIZE PUSH1 0x4 PUSH2 0x189C JUMP JUMPDEST SWAP2 PUSH2 0x43FB JUMP JUMPDEST PUSH4 0x4E487B71 PUSH1 0xE0 SHL PUSH1 0x0 MSTORE PUSH1 0x21 PUSH1 0x4 MSTORE PUSH1 0x24 PUSH1 0x0 REVERT JUMPDEST PUSH1 0x4 GT ISZERO PUSH2 0x1901 JUMPI JUMP JUMPDEST PUSH2 0x18E1 JUMP JUMPDEST SWAP1 PUSH2 0x293 DUP3 PUSH2 0x18F7 JUMP JUMPDEST PUSH2 0x2A9 SWAP1 PUSH2 0x1906 JUMP JUMPDEST PUSH2 0x2E7 SWAP1 PUSH2 0x1910 JUMP JUMPDEST SWAP1 PUSH2 0x1931 PUSH2 0xF82 PUSH2 0xF78 DUP5 MLOAD SWAP1 JUMP JUMPDEST SWAP1 PUSH1 0x0 JUMPDEST DUP2 DUP2 LT PUSH2 0x1942 JUMPI POP POP POP SWAP1 JUMP JUMPDEST SWAP1 SWAP2 SWAP3 PUSH2 0x1958 PUSH2 0xFAD PUSH1 0x1 SWAP3 DUP7 MLOAD DUP2 MSTORE PUSH1 0x20 ADD SWAP1 JUMP JUMPDEST SWAP3 SWAP2 ADD PUSH2 0x1935 JUMP JUMPDEST PUSH2 0x2A9 SWAP2 PUSH2 0x1A0 PUSH2 0x1A5E PUSH2 0x1A4A PUSH2 0x1A36 PUSH2 0x1A22 PUSH2 0x1A0E PUSH2 0x1C0 DUP8 ADD PUSH2 0x198D PUSH1 0x0 DUP11 ADD MLOAD PUSH1 0x0 DUP11 ADD SWAP1 PUSH2 0x1919 JUMP JUMPDEST PUSH1 0x20 DUP10 DUP2 ADD MLOAD PUSH1 0x1 PUSH1 0x1 PUSH1 0xA0 SHL SUB AND SWAP1 DUP10 ADD MSTORE PUSH2 0x19AF PUSH1 0x40 DUP11 ADD MLOAD PUSH1 0x40 DUP11 ADD MSTORE JUMP JUMPDEST PUSH2 0x19BE PUSH1 0x60 DUP11 ADD MLOAD PUSH1 0x60 DUP11 ADD MSTORE JUMP JUMPDEST PUSH2 0x19CD PUSH1 0x80 DUP11 ADD MLOAD PUSH1 0x80 DUP11 ADD MSTORE JUMP JUMPDEST PUSH2 0x19DC PUSH1 0xA0 DUP11 ADD MLOAD PUSH1 0xA0 DUP11 ADD MSTORE JUMP JUMPDEST PUSH2 0x19EB PUSH1 0xC0 DUP11 ADD MLOAD PUSH1 0xC0 DUP11 ADD MSTORE JUMP JUMPDEST PUSH2 0x19FA PUSH1 0xE0 DUP11 ADD MLOAD PUSH1 0xE0 DUP11 ADD MSTORE JUMP JUMPDEST PUSH2 0x100 DUP10 ADD MLOAD DUP9 DUP3 SUB PUSH2 0x100 DUP11 ADD MSTORE PUSH2 0x9F8 JUMP JUMPDEST PUSH2 0x120 DUP9 ADD MLOAD DUP8 DUP3 SUB PUSH2 0x120 DUP10 ADD MSTORE PUSH2 0x9F8 JUMP JUMPDEST PUSH2 0x140 DUP8 ADD MLOAD DUP7 DUP3 SUB PUSH2 0x140 DUP9 ADD MSTORE PUSH2 0x9F8 JUMP JUMPDEST PUSH2 0x160 DUP7 ADD MLOAD DUP6 DUP3 SUB PUSH2 0x160 DUP8 ADD MSTORE PUSH2 0x9F8 JUMP JUMPDEST PUSH2 0x180 DUP6 ADD MLOAD DUP5 DUP3 SUB PUSH2 0x180 DUP7 ADD MSTORE PUSH2 0x9F8 JUMP JUMPDEST SWAP3 ADD MLOAD SWAP1 PUSH2 0x1A0 DUP2 DUP5 SUB SWAP2 ADD MSTORE PUSH2 0x1922 JUMP JUMPDEST SWAP1 PUSH2 0x2A9 SWAP2 PUSH2 0x1960 JUMP JUMPDEST SWAP1 PUSH2 0x1A90 PUSH2 0x1A86 DUP4 MLOAD SWAP1 JUMP JUMPDEST DUP1 DUP4 MSTORE SWAP2 PUSH1 0x20 ADD SWAP1 JUMP JUMPDEST SWAP1 DUP2 PUSH2 0x1AA2 PUSH1 0x20 DUP4 MUL DUP5 ADD SWAP5 PUSH1 0x20 ADD SWAP1 JUMP JUMPDEST SWAP3 PUSH1 0x0 SWAP2 JUMPDEST DUP4 DUP4 LT PUSH2 0x1AB6 JUMPI POP POP POP POP POP SWAP1 JUMP JUMPDEST SWAP1 SWAP2 SWAP3 SWAP4 SWAP5 PUSH1 0x20 PUSH2 0x1AD9 PUSH2 0x1AD2 DUP4 DUP6 PUSH1 0x1 SWAP6 SUB DUP8 MSTORE DUP10 MLOAD PUSH2 0x1A70 JUMP JUMPDEST SWAP8 PUSH1 0x20 ADD SWAP1 JUMP JUMPDEST SWAP4 ADD SWAP4 ADD SWAP2 SWAP4 SWAP3 SWAP1 PUSH2 0x1AA7 JUMP JUMPDEST DUP1 MLOAD PUSH2 0x1C0 DUP1 DUP5 MSTORE PUSH2 0x2A9 SWAP4 SWAP2 PUSH1 0xA0 SWAP2 PUSH2 0x1B3C SWAP2 PUSH2 0x1B06 SWAP2 DUP6 ADD SWAP1 PUSH2 0xA2C JUMP JUMPDEST PUSH2 0x1B18 PUSH1 0x20 DUP7 ADD MLOAD PUSH1 0x20 DUP7 ADD SWAP1 PUSH2 0xA86 JUMP JUMPDEST PUSH2 0x1B29 PUSH1 0x40 DUP7 ADD MLOAD DUP5 DUP7 ADD SWAP1 PUSH2 0xAB7 JUMP JUMPDEST PUSH1 0x60 DUP6 ADD MLOAD DUP5 DUP3 SUB PUSH2 0x100 DUP7 ADD MSTORE PUSH2 0xAD6 JUMP JUMPDEST SWAP3 PUSH2 0x1B50 PUSH1 0x80 DUP3 ADD MLOAD PUSH2 0x120 DUP6 ADD SWAP1 PUSH2 0xB14 JUMP JUMPDEST ADD MLOAD SWAP1 PUSH2 0x1A0 DUP2 DUP5 SUB SWAP2 ADD MSTORE PUSH2 0x1A7A JUMP JUMPDEST PUSH1 0x20 DUP1 DUP3 MSTORE PUSH2 0x2A9 SWAP3 SWAP2 ADD SWAP1 PUSH2 0x1AE6 JUMP JUMPDEST CALLVALUE PUSH2 0x278 JUMPI PUSH2 0x316 PUSH2 0x1B8D PUSH2 0x1B88 CALLDATASIZE PUSH1 0x4 PUSH2 0x295 JUMP JUMPDEST PUSH2 0x4716 JUMP JUMPDEST PUSH1 0x40 MLOAD SWAP2 DUP3 SWAP2 DUP3 PUSH2 0x1B61 JUMP JUMPDEST CALLVALUE PUSH2 0x278 JUMPI PUSH2 0x3C2 PUSH2 0x1BAC CALLDATASIZE PUSH1 0x4 PUSH2 0x3E3 JUMP JUMPDEST PUSH2 0x47A6 JUMP JUMPDEST PUSH2 0x2E2 PUSH2 0x2A9 SWAP3 PUSH2 0xE6D PUSH1 0x0 SWAP4 PUSH1 0x7 PUSH2 0x44A JUMP JUMPDEST CALLVALUE PUSH2 0x278 JUMPI PUSH2 0x316 PUSH2 0x306 PUSH2 0x1BDB CALLDATASIZE PUSH1 0x4 PUSH2 0x342 JUMP JUMPDEST SWAP1 PUSH2 0x1BB1 JUMP JUMPDEST SWAP1 PUSH2 0x1BF4 SWAP3 SWAP2 PUSH2 0x1BEF PUSH2 0x47B9 JUMP JUMPDEST PUSH2 0x1C49 JUMP JUMPDEST SWAP1 PUSH2 0x293 PUSH2 0x47F9 JUMP JUMPDEST ISZERO PUSH2 0x1C04 JUMPI JUMP JUMPDEST PUSH1 0x40 MLOAD PUSH3 0x461BCD PUSH1 0xE5 SHL DUP2 MSTORE PUSH1 0x20 PUSH1 0x4 DUP3 ADD MSTORE PUSH1 0x12 PUSH1 0x24 DUP3 ADD MSTORE PUSH32 0x436F6E7472616374206973207061757365640000000000000000000000000000 PUSH1 0x44 DUP3 ADD MSTORE PUSH1 0x64 SWAP1 REVERT JUMPDEST SWAP1 PUSH2 0x2A9 SWAP3 SWAP2 PUSH2 0x1C68 PUSH2 0x1C63 PUSH2 0x1C5F PUSH1 0xE PUSH2 0x870 JUMP JUMPDEST ISZERO SWAP1 JUMP JUMPDEST PUSH2 0x1BFD JUMP JUMPDEST PUSH2 0x1DD3 JUMP JUMPDEST PUSH4 0x4E487B71 PUSH1 0xE0 SHL PUSH1 0x0 MSTORE PUSH1 0x11 PUSH1 0x4 MSTORE PUSH1 0x24 PUSH1 0x0 REVERT JUMPDEST PUSH1 0x0 NOT DUP2 EQ PUSH2 0x1C92 JUMPI PUSH1 0x1 ADD SWAP1 JUMP JUMPDEST PUSH2 0x1C6D JUMP JUMPDEST SWAP1 PUSH1 0x0 NOT SWAP1 JUMPDEST SWAP2 DUP2 NOT AND SWAP2 AND OR SWAP1 JUMP JUMPDEST SWAP1 PUSH2 0x1CB7 PUSH2 0x2A9 PUSH2 0x1CBE SWAP3 PUSH2 0x43D JUMP JUMPDEST DUP3 SLOAD PUSH2 0x1C97 JUMP JUMPDEST SWAP1 SSTORE JUMP JUMPDEST PUSH4 0x4E487B71 PUSH1 0xE0 SHL PUSH1 0x0 MSTORE PUSH1 0x0 PUSH1 0x4 MSTORE PUSH1 0x24 PUSH1 0x0 REVERT JUMPDEST SWAP1 PUSH1 0x1 PUSH1 0x1 PUSH1 0xA0 SHL SUB SWAP1 PUSH2 0x1C9D JUMP JUMPDEST SWAP1 PUSH2 0x1CF7 PUSH2 0x2A9 PUSH2 0x1CBE SWAP3 PUSH2 0x570 JUMP JUMPDEST DUP3 SLOAD PUSH2 0x1CD8 JUMP JUMPDEST SWAP1 PUSH2 0x1CB7 PUSH2 0x2A9 PUSH2 0x1CBE SWAP3 SWAP1 JUMP JUMPDEST PUSH1 0x3 PUSH2 0x1D67 PUSH1 0x60 PUSH2 0x293 SWAP5 PUSH2 0x1D34 PUSH2 0x1D2E PUSH1 0x0 DUP4 ADD MLOAD PUSH1 0x1 PUSH1 0x1 PUSH1 0xA0 SHL SUB AND SWAP1 JUMP JUMPDEST DUP7 PUSH2 0x1CE7 JUMP JUMPDEST PUSH2 0x1D4B PUSH2 0x1D42 PUSH1 0x20 DUP4 ADD MLOAD SWAP1 JUMP JUMPDEST PUSH1 0x1 DUP8 ADD PUSH2 0x1CA7 JUMP JUMPDEST PUSH2 0x1D62 PUSH2 0x1D59 PUSH1 0x40 DUP4 ADD MLOAD SWAP1 JUMP JUMPDEST PUSH1 0x2 DUP8 ADD PUSH2 0x1CFE JUMP JUMPDEST ADD MLOAD SWAP1 JUMP JUMPDEST SWAP2 ADD PUSH2 0x1CA7 JUMP JUMPDEST SWAP1 PUSH2 0x293 SWAP2 PUSH2 0x1D0C JUMP JUMPDEST SWAP2 PUSH1 0x0 NOT PUSH1 0x8 SWAP3 SWAP1 SWAP3 MUL SWAP2 DUP3 SHL SWAP2 SHL PUSH2 0x1C9D JUMP JUMPDEST SWAP2 SWAP1 PUSH2 0x1D9D PUSH2 0x2A9 PUSH2 0x1CBE SWAP4 PUSH2 0x43D JUMP JUMPDEST SWAP1 DUP4 SLOAD PUSH2 0x1D78 JUMP JUMPDEST SWAP1 DUP2 SLOAD SWAP2 PUSH9 0x10000000000000000 DUP4 LT ISZERO PUSH2 0x604 JUMPI DUP3 PUSH2 0x1DCD SWAP2 PUSH1 0x1 PUSH2 0x293 SWAP6 ADD DUP2 SSTORE PUSH2 0xE36 JUMP JUMPDEST SWAP1 PUSH2 0x1D8C JUMP JUMPDEST POP SWAP1 PUSH2 0x1DE1 PUSH1 0x0 DUP3 DUP5 PUSH2 0x48EF JUMP JUMPDEST PUSH2 0x1DF5 PUSH2 0x1DEE PUSH1 0x5 PUSH2 0x45B JUMP JUMPDEST DUP4 DUP4 PUSH2 0x4A8C JUMP JUMPDEST SWAP1 PUSH32 0xC3013841EB45DBF48E54BCCDBDFCA27C812FE5016E531D0FF451032D38369C6F PUSH2 0x1EFD PUSH2 0x1EE7 PUSH2 0x1EE1 PUSH2 0x1E2A PUSH1 0x5 PUSH2 0x45B JUMP JUMPDEST SWAP7 PUSH2 0x1E3E PUSH2 0x1E37 DUP10 PUSH2 0x1C83 JUMP JUMPDEST PUSH1 0x5 PUSH2 0x1CA7 JUMP JUMPDEST PUSH2 0x1E86 PUSH2 0x1E49 PUSH2 0x802 JUMP JUMPDEST PUSH1 0x1 PUSH1 0x1 PUSH1 0xA0 SHL SUB DUP9 AND DUP2 MSTORE PUSH2 0x1E60 DUP4 PUSH1 0x20 DUP4 ADD MSTORE JUMP JUMPDEST PUSH2 0x1E6B DUP10 PUSH1 0x40 DUP4 ADD MSTORE JUMP JUMPDEST PUSH2 0x1E76 TIMESTAMP PUSH1 0x60 DUP4 ADD MSTORE JUMP JUMPDEST PUSH2 0x1E81 DUP11 PUSH1 0x4 PUSH2 0x44A JUMP JUMPDEST PUSH2 0x1D6E JUMP JUMPDEST PUSH2 0x1E9D DUP9 PUSH2 0x1E98 PUSH2 0x2A9 DUP5 PUSH1 0x6 PUSH2 0x44A JUMP JUMPDEST PUSH2 0x1DA5 JUMP JUMPDEST PUSH2 0x1EC6 PUSH2 0x1EAF DUP8 PUSH2 0xE6D DUP5 PUSH1 0x7 PUSH2 0x44A JUMP JUMPDEST PUSH2 0x1EC0 PUSH2 0x1EBB DUP3 PUSH2 0x45B JUMP JUMPDEST PUSH2 0x1C83 JUMP JUMPDEST SWAP1 PUSH2 0x1CA7 JUMP JUMPDEST PUSH2 0x1EDC DUP9 PUSH2 0x1E98 PUSH2 0x2A9 DUP10 PUSH2 0xE6D DUP7 PUSH1 0x8 PUSH2 0x44A JUMP JUMPDEST PUSH2 0x43D JUMP JUMPDEST SWAP4 PUSH2 0x570 JUMP JUMPDEST SWAP4 PUSH2 0x1EF1 PUSH1 0x40 MLOAD SWAP1 JUMP JUMPDEST SWAP2 DUP3 SWAP2 TIMESTAMP SWAP1 DUP9 DUP5 PUSH2 0xCEA JUMP JUMPDEST SUB SWAP1 LOG3 SWAP1 JUMP JUMPDEST PUSH2 0x2A9 SWAP2 SWAP1 PUSH1 0x0 PUSH2 0x1BE1 JUMP JUMPDEST PUSH2 0x293 SWAP1 PUSH2 0x1F1B PUSH2 0x4AFD JUMP JUMPDEST PUSH2 0x1F40 JUMP JUMPDEST SWAP1 PUSH1 0xFF SWAP1 PUSH2 0x1C9D JUMP JUMPDEST SWAP1 PUSH2 0x1F39 PUSH2 0x2A9 PUSH2 0x1CBE SWAP3 ISZERO ISZERO SWAP1 JUMP JUMPDEST DUP3 SLOAD PUSH2 0x1F20 JUMP JUMPDEST PUSH2 0x1F4B DUP2 PUSH1 0xE PUSH2 0x1F29 JUMP JUMPDEST ISZERO PUSH2 0x1F80 JUMPI PUSH32 0xAB35696F06E428EBC5CEBA8CD17F8FED287BAF43440206D1943AF1EE53E6D267 PUSH2 0x1F7A PUSH1 0x40 MLOAD SWAP1 JUMP JUMPDEST PUSH1 0x0 SWAP1 LOG1 JUMP JUMPDEST PUSH32 0xE5E3B3FB504C22CF5C42FA07D521225937514C654007E1F12646F89768D6F94 PUSH2 0x1F7A PUSH1 0x40 MLOAD SWAP1 JUMP JUMPDEST PUSH2 0x293 SWAP1 PUSH2 0x1F0F JUMP JUMPDEST PUSH2 0x2A9 SWAP2 PUSH2 0xE6D PUSH2 0x1FCE SWAP3 PUSH2 0x1FC6 PUSH1 0x0 SWAP1 JUMP JUMPDEST POP PUSH1 0x7 PUSH2 0x44A JUMP JUMPDEST PUSH2 0x45B JUMP JUMPDEST PUSH2 0x293 SWAP1 PUSH2 0x1FDF PUSH2 0x4AFD JUMP JUMPDEST PUSH2 0x20CA JUMP JUMPDEST PUSH2 0x31A PUSH2 0x2A9 PUSH2 0x2A9 SWAP3 SWAP1 JUMP JUMPDEST PUSH2 0x2A9 SWAP1 PUSH2 0x1FE4 JUMP JUMPDEST ISZERO PUSH2 0x2001 JUMPI JUMP JUMPDEST PUSH1 0x40 MLOAD PUSH3 0x461BCD PUSH1 0xE5 SHL DUP2 MSTORE PUSH1 0x20 PUSH1 0x4 DUP3 ADD MSTORE PUSH1 0xF PUSH1 0x24 DUP3 ADD MSTORE PUSH32 0x494E56414C49445F414444524553530000000000000000000000000000000000 PUSH1 0x44 DUP3 ADD MSTORE PUSH1 0x64 SWAP1 REVERT JUMPDEST ISZERO PUSH2 0x204D JUMPI JUMP JUMPDEST PUSH1 0x40 MLOAD PUSH3 0x461BCD PUSH1 0xE5 SHL DUP2 MSTORE PUSH1 0x20 PUSH1 0x4 DUP3 ADD MSTORE PUSH1 0x9 PUSH1 0x24 DUP3 ADD MSTORE PUSH9 0x2727AA2FA0A226A4A7 PUSH1 0xB9 SHL PUSH1 0x44 DUP3 ADD MSTORE PUSH1 0x64 SWAP1 REVERT JUMPDEST ISZERO PUSH2 0x2085 JUMPI JUMP JUMPDEST PUSH1 0x40 MLOAD PUSH3 0x461BCD PUSH1 0xE5 SHL DUP2 MSTORE PUSH1 0x20 PUSH1 0x4 DUP3 ADD MSTORE PUSH1 0x13 PUSH1 0x24 DUP3 ADD MSTORE PUSH32 0x43414E4E4F545F52454D4F56455F4F574E455200000000000000000000000000 PUSH1 0x44 DUP3 ADD MSTORE PUSH1 0x64 SWAP1 REVERT JUMPDEST PUSH2 0x214D SWAP1 PUSH2 0x20EF PUSH2 0x20DE PUSH2 0x31A PUSH1 0x0 PUSH2 0x1FF1 JUMP JUMPDEST PUSH1 0x1 PUSH1 0x1 PUSH1 0xA0 SHL SUB DUP4 AND EQ ISZERO PUSH2 0x1FFA JUMP JUMPDEST PUSH2 0x210A PUSH2 0x2105 PUSH2 0x2100 DUP4 PUSH1 0xF PUSH2 0x579 JUMP JUMPDEST PUSH2 0x870 JUMP JUMPDEST PUSH2 0x2046 JUMP JUMPDEST PUSH2 0x2133 PUSH2 0x2122 PUSH2 0x31A PUSH1 0x1 SLOAD PUSH1 0x1 PUSH1 0x1 PUSH1 0xA0 SHL SUB AND SWAP1 JUMP JUMPDEST PUSH1 0x1 PUSH1 0x1 PUSH1 0xA0 SHL SUB DUP4 AND EQ ISZERO PUSH2 0x207E JUMP JUMPDEST PUSH2 0x2148 PUSH1 0x0 PUSH2 0x2143 DUP4 PUSH1 0xF PUSH2 0x579 JUMP JUMPDEST PUSH2 0x1F29 JUMP JUMPDEST PUSH2 0x570 JUMP JUMPDEST PUSH32 0xA3B62BC36326052D97EA62D63C3D60308ED4C3EA8AC079DD8499F1E9C4F80C0F PUSH2 0x2177 PUSH1 0x40 MLOAD SWAP1 JUMP JUMPDEST DUP1 DUP1 JUMPDEST SUB SWAP1 LOG2 JUMP JUMPDEST PUSH2 0x293 SWAP1 PUSH2 0x1FD3 JUMP JUMPDEST PUSH2 0x2100 PUSH2 0x2A9 SWAP2 PUSH2 0x2197 PUSH1 0x0 SWAP1 JUMP JUMPDEST POP PUSH1 0xF PUSH2 0x579 JUMP JUMPDEST ISZERO PUSH2 0x21A6 JUMPI JUMP JUMPDEST PUSH1 0x40 MLOAD PUSH3 0x461BCD PUSH1 0xE5 SHL DUP2 MSTORE PUSH1 0x20 PUSH1 0x4 DUP3 ADD MSTORE PUSH1 0xE PUSH1 0x24 DUP3 ADD MSTORE PUSH32 0x4E6F7420417574686F72697A6564000000000000000000000000000000000000 PUSH1 0x44 DUP3 ADD MSTORE PUSH1 0x64 SWAP1 REVERT JUMPDEST SWAP1 PUSH2 0x293 SWAP2 PUSH2 0x2206 PUSH2 0x2201 PUSH2 0x2100 CALLER PUSH1 0xF PUSH2 0x579 JUMP JUMPDEST PUSH2 0x219F JUMP JUMPDEST SWAP1 PUSH2 0x293 SWAP2 PUSH2 0x221B PUSH2 0x1C63 PUSH2 0x1C5F PUSH1 0xE PUSH2 0x870 JUMP JUMPDEST PUSH2 0x22F2 JUMP JUMPDEST ISZERO PUSH2 0x2227 JUMPI JUMP JUMPDEST PUSH1 0x40 MLOAD PUSH3 0x461BCD PUSH1 0xE5 SHL DUP2 MSTORE PUSH1 0x20 PUSH1 0x4 DUP3 ADD MSTORE PUSH1 0x11 PUSH1 0x24 DUP3 ADD MSTORE PUSH32 0x524146464C455F4E4F545F455849535453000000000000000000000000000000 PUSH1 0x44 DUP3 ADD MSTORE PUSH1 0x64 SWAP1 REVERT JUMPDEST ISZERO PUSH2 0x2273 JUMPI JUMP JUMPDEST PUSH1 0x40 MLOAD PUSH3 0x461BCD PUSH1 0xE5 SHL DUP2 MSTORE PUSH1 0x20 PUSH1 0x4 DUP3 ADD MSTORE PUSH1 0x14 PUSH1 0x24 DUP3 ADD MSTORE PUSH32 0x524146464C455F414C52454144595F445241574E000000000000000000000000 PUSH1 0x44 DUP3 ADD MSTORE PUSH1 0x64 SWAP1 REVERT JUMPDEST ISZERO PUSH2 0x22BF JUMPI JUMP JUMPDEST PUSH1 0x40 MLOAD PUSH3 0x461BCD PUSH1 0xE5 SHL DUP2 MSTORE PUSH1 0x20 PUSH1 0x4 DUP3 ADD MSTORE PUSH1 0xB PUSH1 0x24 DUP3 ADD MSTORE PUSH11 0x1053149150511657D4D155 PUSH1 0xAA SHL PUSH1 0x44 DUP3 ADD MSTORE PUSH1 0x64 SWAP1 REVERT JUMPDEST PUSH2 0x2361 SWAP1 PUSH2 0x1EDC DUP4 PUSH1 0x0 PUSH1 0xE PUSH2 0x230C PUSH2 0x2A9 DUP7 PUSH1 0x2 PUSH2 0x44A JUMP JUMPDEST PUSH2 0x2333 PUSH2 0x231D DUP5 PUSH1 0x4 DUP5 ADD ADD PUSH2 0x45B JUMP JUMPDEST PUSH2 0x232D PUSH2 0x2329 DUP7 PUSH2 0x43D JUMP JUMPDEST SWAP2 SWAP1 JUMP JUMPDEST GT PUSH2 0x2220 JUMP JUMPDEST ADD ADD PUSH2 0x2349 PUSH2 0x2344 PUSH2 0x1C5F DUP4 PUSH2 0x942 JUMP JUMPDEST PUSH2 0x226C JUMP JUMPDEST PUSH2 0x2143 PUSH2 0x2355 DUP3 PUSH2 0x870 JUMP JUMPDEST ISZERO ISZERO DUP4 ISZERO ISZERO EQ ISZERO PUSH2 0x22B8 JUMP JUMPDEST PUSH32 0x749EBDEF365D5CFB45277B1B6F7FDE8FAA320B22253FCEF31C7BDF8136164EC5 PUSH2 0x2398 PUSH2 0x238E CALLER PUSH2 0x570 JUMP JUMPDEST SWAP4 PUSH2 0x42E PUSH1 0x40 MLOAD SWAP1 JUMP JUMPDEST SUB SWAP1 LOG3 JUMP JUMPDEST SWAP1 PUSH2 0x293 SWAP2 PUSH2 0x21EB JUMP JUMPDEST SWAP1 PUSH2 0x293 SWAP2 PUSH2 0x23BD PUSH2 0x2201 PUSH2 0x2100 CALLER PUSH1 0xF PUSH2 0x579 JUMP JUMPDEST SWAP1 PUSH2 0x293 SWAP2 PUSH2 0x23D2 PUSH2 0x1C63 PUSH2 0x1C5F PUSH1 0xE PUSH2 0x870 JUMP JUMPDEST PUSH2 0x24E0 JUMP JUMPDEST ISZERO PUSH2 0x23DE JUMPI JUMP JUMPDEST PUSH1 0x40 MLOAD PUSH3 0x461BCD PUSH1 0xE5 SHL DUP2 MSTORE PUSH1 0x20 PUSH1 0x4 DUP3 ADD MSTORE PUSH1 0x11 PUSH1 0x24 DUP3 ADD MSTORE PUSH32 0x524146464C455F4E4F545F414354495645000000000000000000000000000000 PUSH1 0x44 DUP3 ADD MSTORE PUSH1 0x64 SWAP1 REVERT JUMPDEST ISZERO PUSH2 0x242A JUMPI JUMP JUMPDEST PUSH1 0x40 MLOAD PUSH3 0x461BCD PUSH1 0xE5 SHL DUP2 MSTORE PUSH1 0x20 PUSH1 0x4 DUP3 ADD MSTORE PUSH1 0xD PUSH1 0x24 DUP3 ADD MSTORE PUSH13 0x20A62922A0A22CAFA22920ABA7 PUSH1 0x99 SHL PUSH1 0x44 DUP3 ADD MSTORE PUSH1 0x64 SWAP1 REVERT JUMPDEST ISZERO PUSH2 0x2466 JUMPI JUMP JUMPDEST PUSH1 0x40 MLOAD PUSH3 0x461BCD PUSH1 0xE5 SHL DUP2 MSTORE PUSH1 0x20 PUSH1 0x4 DUP3 ADD MSTORE PUSH1 0xF PUSH1 0x24 DUP3 ADD MSTORE PUSH32 0x524541534F4E5F52455155495245440000000000000000000000000000000000 PUSH1 0x44 DUP3 ADD MSTORE PUSH1 0x64 SWAP1 REVERT JUMPDEST SWAP1 PUSH2 0xFF00 SWAP1 PUSH1 0x8 SHL PUSH2 0x1C9D JUMP JUMPDEST SWAP1 PUSH2 0x24C8 PUSH2 0x2A9 PUSH2 0x1CBE SWAP3 ISZERO ISZERO SWAP1 JUMP JUMPDEST DUP3 SLOAD PUSH2 0x24AB JUMP JUMPDEST PUSH1 0x20 DUP1 DUP3 MSTORE PUSH2 0x2A9 SWAP3 SWAP2 ADD SWAP1 PUSH2 0x9F8 JUMP JUMPDEST PUSH2 0x217A PUSH2 0x2575 PUSH32 0x4B065D94BB5F805836B9AEFD08A7B4388CFDD8D346A56EF0A4A547DBCA8B8F1F SWAP3 PUSH2 0x1EDC PUSH1 0x1 PUSH1 0x0 PUSH1 0xE PUSH2 0x251F PUSH2 0x2A9 DUP7 PUSH1 0x2 PUSH2 0x44A JUMP JUMPDEST ADD PUSH2 0x2547 PUSH2 0x2542 PUSH2 0x1C5F DUP5 DUP5 ADD PUSH2 0x253D PUSH2 0x2538 DUP3 PUSH2 0x870 JUMP JUMPDEST PUSH2 0x23D7 JUMP JUMPDEST PUSH2 0x942 JUMP JUMPDEST PUSH2 0x2423 JUMP JUMPDEST PUSH2 0x2564 PUSH2 0x2552 DUP11 MLOAD SWAP1 JUMP JUMPDEST PUSH2 0x255E PUSH2 0x2329 DUP6 PUSH2 0x43D JUMP JUMPDEST GT PUSH2 0x245F JUMP JUMPDEST ADD PUSH2 0x2570 PUSH1 0x0 DUP3 PUSH2 0x1F29 JUMP JUMPDEST PUSH2 0x24B8 JUMP JUMPDEST SWAP3 PUSH2 0x257F PUSH1 0x40 MLOAD SWAP1 JUMP JUMPDEST SWAP2 DUP3 SWAP2 DUP3 PUSH2 0x24CF JUMP JUMPDEST SWAP1 PUSH2 0x293 SWAP2 PUSH2 0x23A7 JUMP JUMPDEST PUSH2 0x293 SWAP1 PUSH2 0x259E PUSH2 0x4AFD JUMP JUMPDEST PUSH2 0x25DF JUMP JUMPDEST ISZERO PUSH2 0x25AA JUMPI JUMP JUMPDEST PUSH1 0x40 MLOAD PUSH3 0x461BCD PUSH1 0xE5 SHL DUP2 MSTORE PUSH1 0x20 PUSH1 0x4 DUP3 ADD MSTORE PUSH1 0xD PUSH1 0x24 DUP3 ADD MSTORE PUSH13 0x20A62922A0A22CAFA0A226A4A7 PUSH1 0x99 SHL PUSH1 0x44 DUP3 ADD MSTORE PUSH1 0x64 SWAP1 REVERT JUMPDEST PUSH2 0x261C SWAP1 PUSH2 0x25F3 PUSH2 0x20DE PUSH2 0x31A PUSH1 0x0 PUSH2 0x1FF1 JUMP JUMPDEST PUSH2 0x260C PUSH2 0x2607 PUSH2 0x1C5F PUSH2 0x2100 DUP5 PUSH1 0xF PUSH2 0x579 JUMP JUMPDEST PUSH2 0x25A3 JUMP JUMPDEST PUSH2 0x2148 PUSH1 0x1 PUSH2 0x2143 DUP4 PUSH1 0xF PUSH2 0x579 JUMP JUMPDEST PUSH32 0x44D6D25963F097AD14F29F06854A01F575648A1EF82F30E562CCD3889717E339 PUSH2 0x2177 PUSH1 0x40 MLOAD SWAP1 JUMP JUMPDEST PUSH2 0x293 SWAP1 PUSH2 0x2592 JUMP JUMPDEST PUSH2 0x2657 PUSH2 0x4AFD JUMP JUMPDEST PUSH2 0x293 PUSH2 0x293 PUSH2 0x2667 PUSH1 0x0 PUSH2 0x1FF1 JUMP JUMPDEST PUSH2 0x4B47 JUMP JUMPDEST PUSH2 0x293 PUSH2 0x264F JUMP JUMPDEST SWAP1 PUSH2 0x293 SWAP3 SWAP2 PUSH2 0x268B PUSH2 0x2201 PUSH2 0x2100 CALLER PUSH1 0xF PUSH2 0x579 JUMP JUMPDEST SWAP1 PUSH2 0x293 SWAP3 SWAP2 PUSH2 0x26A1 PUSH2 0x1C63 PUSH2 0x1C5F PUSH1 0xE PUSH2 0x870 JUMP JUMPDEST PUSH2 0x28E2 JUMP JUMPDEST ISZERO PUSH2 0x26AD JUMPI JUMP JUMPDEST PUSH1 0x40 MLOAD PUSH3 0x461BCD PUSH1 0xE5 SHL DUP2 MSTORE PUSH1 0x20 PUSH1 0x4 DUP3 ADD MSTORE PUSH1 0xF PUSH1 0x24 DUP3 ADD MSTORE PUSH32 0x5052495A455F4E4F545F445241574E0000000000000000000000000000000000 PUSH1 0x44 DUP3 ADD MSTORE PUSH1 0x64 SWAP1 REVERT JUMPDEST ISZERO PUSH2 0x26F9 JUMPI JUMP JUMPDEST PUSH1 0x40 MLOAD PUSH3 0x461BCD PUSH1 0xE5 SHL DUP2 MSTORE PUSH1 0x20 PUSH1 0x4 DUP3 ADD MSTORE PUSH1 0x11 PUSH1 0x24 DUP3 ADD MSTORE PUSH32 0x414C52454144595F44454C495645524544000000000000000000000000000000 PUSH1 0x44 DUP3 ADD MSTORE PUSH1 0x64 SWAP1 REVERT JUMPDEST ISZERO PUSH2 0x2745 JUMPI JUMP JUMPDEST PUSH1 0x40 MLOAD PUSH3 0x461BCD PUSH1 0xE5 SHL DUP2 MSTORE PUSH1 0x20 PUSH1 0x4 DUP3 ADD MSTORE PUSH1 0x18 PUSH1 0x24 DUP3 ADD MSTORE PUSH32 0x44454C49564552595F4D4554484F445F52455155495245440000000000000000 PUSH1 0x44 DUP3 ADD MSTORE PUSH1 0x64 SWAP1 REVERT JUMPDEST SWAP1 PUSH1 0xFF PUSH1 0xA0 SHL SWAP1 PUSH1 0xA0 SHL PUSH2 0x1C9D JUMP JUMPDEST SWAP1 PUSH2 0x27A9 PUSH2 0x2A9 PUSH2 0x1CBE SWAP3 ISZERO ISZERO SWAP1 JUMP JUMPDEST DUP3 SLOAD PUSH2 0x278A JUMP JUMPDEST ISZERO PUSH2 0x27B7 JUMPI JUMP JUMPDEST PUSH1 0x40 MLOAD PUSH3 0x461BCD PUSH1 0xE5 SHL DUP2 MSTORE PUSH1 0x20 PUSH1 0x4 DUP3 ADD MSTORE PUSH1 0x13 PUSH1 0x24 DUP3 ADD MSTORE PUSH32 0x494E56414C49445F5052495A455F494E44455800000000000000000000000000 PUSH1 0x44 DUP3 ADD MSTORE PUSH1 0x64 SWAP1 REVERT JUMPDEST DUP1 SLOAD DUP3 LT ISZERO PUSH2 0xE59 JUMPI PUSH2 0xE50 PUSH1 0xD SWAP2 PUSH1 0x0 MSTORE PUSH1 0x20 PUSH1 0x0 KECCAK256 SWAP1 JUMP JUMPDEST DUP1 SLOAD PUSH1 0x0 SWAP4 SWAP3 SWAP2 PUSH2 0x2829 PUSH2 0x766 DUP4 PUSH2 0x729 JUMP JUMPDEST SWAP2 PUSH1 0x1 DUP2 AND SWAP1 DUP2 ISZERO PUSH2 0x7C2 JUMPI POP PUSH1 0x1 EQ PUSH2 0x2842 JUMPI POP POP POP JUMP JUMPDEST PUSH2 0x2855 SWAP2 SWAP3 SWAP4 SWAP5 POP PUSH1 0x0 MSTORE PUSH1 0x20 PUSH1 0x0 KECCAK256 SWAP1 JUMP JUMPDEST SWAP2 PUSH1 0x0 SWAP3 JUMPDEST DUP2 DUP5 LT PUSH2 0x2867 JUMPI POP POP ADD SWAP1 JUMP JUMPDEST DUP1 SLOAD DUP5 DUP5 ADD MSTORE PUSH1 0x20 SWAP1 SWAP4 ADD SWAP3 PUSH1 0x1 ADD PUSH2 0x285A JUMP JUMPDEST SWAP7 SWAP6 SWAP4 PUSH1 0xA0 SWAP4 PUSH2 0x28CF SWAP2 PUSH2 0x28C2 PUSH2 0x28B0 DUP12 PUSH2 0x28DD SWAP8 PUSH2 0x28A3 PUSH2 0x293 SWAP13 SWAP9 PUSH1 0x0 PUSH1 0xC0 DUP6 ADD SWAP5 ADD MSTORE JUMP JUMPDEST DUP14 DUP3 SUB PUSH1 0x20 DUP16 ADD MSTORE PUSH2 0x2816 JUMP JUMPDEST PUSH1 0x1 PUSH1 0x1 PUSH1 0xA0 SHL SUB SWAP1 SWAP4 AND PUSH1 0x40 DUP13 ADD MSTORE JUMP JUMPDEST DUP10 DUP3 SUB PUSH1 0x60 DUP12 ADD MSTORE PUSH2 0x9F8 JUMP JUMPDEST SWAP1 DUP8 DUP3 SUB PUSH1 0x80 DUP10 ADD MSTORE PUSH2 0x9F8 JUMP JUMPDEST SWAP5 ADD MSTORE JUMP JUMPDEST SWAP2 SWAP1 PUSH2 0x28EF DUP4 PUSH1 0xA PUSH2 0x44A JUMP JUMPDEST SWAP2 PUSH2 0x28FC PUSH1 0x4 DUP5 ADD PUSH2 0x45B JUMP JUMPDEST PUSH2 0x2906 PUSH1 0x0 PUSH2 0x43D JUMP JUMPDEST LT PUSH2 0x2910 SWAP1 PUSH2 0x26A6 JUMP JUMPDEST DUP3 SWAP2 PUSH2 0x291B DUP4 PUSH2 0x10D2 JUMP JUMPDEST ISZERO PUSH2 0x2925 SWAP1 PUSH2 0x26F2 JUMP JUMPDEST DUP1 MLOAD PUSH2 0x2931 PUSH1 0x0 PUSH2 0x43D JUMP JUMPDEST LT PUSH2 0x293B SWAP1 PUSH2 0x273E JUMP JUMPDEST PUSH2 0x2946 PUSH1 0x1 DUP5 PUSH2 0x2799 JUMP JUMPDEST PUSH2 0x2953 TIMESTAMP PUSH1 0x5 DUP7 ADD PUSH2 0x1CA7 JUMP JUMPDEST PUSH1 0x2 DUP5 ADD PUSH2 0x2960 DUP2 PUSH2 0x45B JUMP JUMPDEST PUSH2 0x296B SWAP1 PUSH1 0x2 PUSH2 0x44A JUMP JUMPDEST SWAP5 PUSH1 0x3 ADD SWAP1 PUSH2 0x2979 DUP3 PUSH2 0x45B JUMP JUMPDEST SWAP6 PUSH1 0x11 ADD SWAP6 PUSH2 0x2986 DUP8 SLOAD SWAP1 JUMP JUMPDEST GT PUSH2 0x2990 SWAP1 PUSH2 0x27B0 JUMP JUMPDEST PUSH2 0x2999 SWAP1 PUSH2 0x45B JUMP JUMPDEST SWAP4 SLOAD PUSH1 0x1 PUSH1 0x1 PUSH1 0xA0 SHL SUB AND SWAP5 PUSH2 0x29AE DUP3 PUSH2 0x45B JUMP JUMPDEST SWAP2 PUSH2 0x29B8 SWAP1 PUSH2 0x45B JUMP JUMPDEST PUSH2 0x29C1 SWAP2 PUSH2 0x27FC JUMP JUMPDEST POP PUSH1 0x7 ADD SWAP6 PUSH2 0x29CF SWAP1 PUSH2 0x43D JUMP JUMPDEST SWAP4 PUSH2 0x29D9 SWAP1 PUSH2 0x43D JUMP JUMPDEST SWAP5 PUSH2 0x29E3 SWAP1 PUSH2 0x570 JUMP JUMPDEST SWAP6 PUSH2 0x29ED PUSH1 0x40 MLOAD SWAP1 JUMP JUMPDEST SWAP4 DUP5 SWAP4 TIMESTAMP SWAP3 CALLER SWAP1 PUSH2 0x29FE SWAP6 DUP8 PUSH2 0x287B JUMP JUMPDEST SUB PUSH32 0xCEF6D1B833317D0BB1325916E3E8991FF3AF40C4DA83E3CEDBC19B4A64D1BDF5 SWAP2 LOG4 JUMP JUMPDEST SWAP1 PUSH2 0x293 SWAP3 SWAP2 PUSH2 0x2674 JUMP JUMPDEST SWAP1 PUSH2 0x2A44 SWAP5 SWAP4 SWAP3 SWAP2 PUSH2 0x2A3F PUSH2 0x47B9 JUMP JUMPDEST PUSH2 0x2A4F JUMP JUMPDEST SWAP1 SWAP2 SWAP3 PUSH2 0x293 PUSH2 0x47F9 JUMP JUMPDEST SWAP1 PUSH2 0x2A6C SWAP5 SWAP4 SWAP3 SWAP2 PUSH2 0x2A67 PUSH2 0x1C63 PUSH2 0x1C5F PUSH1 0xE PUSH2 0x870 JUMP JUMPDEST PUSH2 0x2BCE JUMP JUMPDEST SWAP1 SWAP2 SWAP3 JUMP JUMPDEST SWAP1 PUSH2 0x293 PUSH2 0x860 PUSH1 0x3 PUSH2 0x2A82 PUSH2 0x802 JUMP JUMPDEST SWAP5 PUSH2 0x2AA4 PUSH2 0x2A97 DUP3 SLOAD PUSH1 0x1 PUSH1 0x1 PUSH1 0xA0 SHL SUB AND SWAP1 JUMP JUMPDEST PUSH1 0x1 PUSH1 0x1 PUSH1 0xA0 SHL SUB AND DUP8 MSTORE JUMP JUMPDEST PUSH2 0x2AB3 PUSH2 0x83D PUSH1 0x1 DUP4 ADD PUSH2 0x45B JUMP JUMPDEST PUSH2 0x8BF PUSH2 0x853 PUSH1 0x2 DUP4 ADD PUSH2 0x45B JUMP JUMPDEST PUSH2 0x2A9 SWAP1 PUSH2 0x2A71 JUMP JUMPDEST PUSH2 0x2A9 SWAP1 PUSH2 0x43D JUMP JUMPDEST PUSH4 0x4E487B71 PUSH1 0xE0 SHL PUSH1 0x0 MSTORE PUSH1 0x12 PUSH1 0x4 MSTORE PUSH1 0x24 PUSH1 0x0 REVERT JUMPDEST DUP2 ISZERO PUSH2 0x2AF4 JUMPI MOD SWAP1 JUMP JUMPDEST PUSH2 0x2AD4 JUMP JUMPDEST DUP1 ISZERO PUSH2 0x1C92 JUMPI PUSH1 0x0 NOT ADD SWAP1 JUMP JUMPDEST PUSH2 0x2A9 PUSH1 0xE0 PUSH2 0x609 JUMP JUMPDEST PUSH2 0x293 SWAP2 PUSH1 0x5 SWAP1 PUSH2 0x1D67 SWAP1 PUSH1 0xC0 SWAP1 PUSH2 0x2B49 DUP6 PUSH2 0x2B3C PUSH2 0x2B36 DUP5 MLOAD PUSH1 0x1 PUSH1 0x1 PUSH1 0xA0 SHL SUB AND SWAP1 JUMP JUMPDEST DUP3 PUSH2 0x1CE7 JUMP JUMPDEST PUSH1 0x20 DUP4 ADD MLOAD ISZERO ISZERO SWAP1 PUSH2 0x2799 JUMP JUMPDEST PUSH2 0x2B60 PUSH2 0x2B57 PUSH1 0x40 DUP4 ADD MLOAD SWAP1 JUMP JUMPDEST PUSH1 0x1 DUP8 ADD PUSH2 0x1CFE JUMP JUMPDEST PUSH2 0x2B77 PUSH2 0x2B6E PUSH1 0x60 DUP4 ADD MLOAD SWAP1 JUMP JUMPDEST PUSH1 0x2 DUP8 ADD PUSH2 0x1CA7 JUMP JUMPDEST PUSH2 0x2B8E PUSH2 0x2B85 PUSH1 0x80 DUP4 ADD MLOAD SWAP1 JUMP JUMPDEST PUSH1 0x3 DUP8 ADD PUSH2 0x1CA7 JUMP JUMPDEST PUSH2 0x1D62 PUSH2 0x2B9C PUSH1 0xA0 DUP4 ADD MLOAD SWAP1 JUMP JUMPDEST PUSH1 0x4 DUP8 ADD PUSH2 0x1CA7 JUMP JUMPDEST SWAP1 PUSH2 0x293 SWAP2 PUSH2 0x2B10 JUMP JUMPDEST PUSH2 0x4E0 PUSH2 0x293 SWAP5 PUSH2 0x4D9 PUSH1 0x60 SWAP5 SWAP9 SWAP8 SWAP6 PUSH2 0x4D2 PUSH1 0x80 DUP7 ADD SWAP11 PUSH1 0x0 DUP8 ADD MSTORE JUMP JUMPDEST SWAP5 SWAP3 SWAP5 POP POP POP PUSH1 0x1 SWAP2 PUSH2 0x2BE2 DUP4 DUP3 DUP7 PUSH2 0x48EF JUMP JUMPDEST PUSH2 0x2BF0 PUSH2 0x2A9 DUP6 PUSH1 0x2 PUSH2 0x44A JUMP JUMPDEST SWAP1 PUSH2 0x2BFB DUP2 DUP7 PUSH2 0x4B9C JUMP JUMPDEST SWAP2 PUSH2 0x2C0F PUSH2 0x2C0A DUP5 PUSH1 0x4 PUSH2 0x44A JUMP JUMPDEST PUSH2 0x2AC2 JUMP JUMPDEST SWAP5 PUSH2 0x2C23 PUSH2 0x2C1E DUP6 DUP10 DUP7 PUSH2 0x4A8C JUMP JUMPDEST PUSH2 0x2ACB JUMP JUMPDEST SWAP7 PUSH1 0xE DUP4 ADD SWAP3 PUSH2 0x2C49 DUP3 PUSH2 0x2C43 DUP6 DUP8 ADD SWAP12 PUSH2 0x2C3D DUP14 PUSH2 0x45B JUMP JUMPDEST SWAP1 PUSH2 0x2AEA JUMP JUMPDEST DUP4 PUSH2 0x4C48 JUMP JUMPDEST SWAP9 DUP10 SWAP2 PUSH2 0x2C58 PUSH1 0x8 DUP3 ADD PUSH2 0x870 JUMP JUMPDEST PUSH2 0x2D9E JUMPI JUMPDEST POP POP POP PUSH1 0x2 DUP4 ADD PUSH2 0x2C6D DUP2 PUSH2 0x45B JUMP JUMPDEST PUSH2 0x2C76 SWAP1 PUSH2 0x2AF9 JUMP JUMPDEST PUSH2 0x2C80 SWAP1 DUP3 PUSH2 0x1CA7 JUMP JUMPDEST PUSH2 0x2C8A PUSH1 0xB PUSH2 0x45B JUMP JUMPDEST DUP1 SWAP9 PUSH2 0x2C95 DUP3 PUSH2 0x1C83 JUMP JUMPDEST PUSH2 0x2CA0 SWAP1 PUSH1 0xB PUSH2 0x1CA7 JUMP JUMPDEST PUSH1 0x40 ADD DUP1 MLOAD PUSH2 0x2CAD PUSH2 0x2B06 JUMP JUMPDEST PUSH1 0x1 PUSH1 0x1 PUSH1 0xA0 SHL SUB DUP10 AND DUP2 MSTORE SWAP1 DUP7 ISZERO ISZERO PUSH1 0x20 DUP4 ADD MSTORE PUSH1 0x40 DUP3 ADD MSTORE PUSH2 0x2CD2 DUP6 PUSH1 0x60 DUP4 ADD MSTORE JUMP JUMPDEST PUSH2 0x2CDD DUP13 PUSH1 0x80 DUP4 ADD MSTORE JUMP JUMPDEST PUSH2 0x2CE8 TIMESTAMP PUSH1 0xA0 DUP4 ADD MSTORE JUMP JUMPDEST PUSH2 0x2CF3 TIMESTAMP PUSH1 0xC0 DUP4 ADD MSTORE JUMP JUMPDEST PUSH2 0x2CFE DUP4 PUSH1 0xA PUSH2 0x44A JUMP JUMPDEST SWAP1 PUSH2 0x2D08 SWAP2 PUSH2 0x2BA5 JUMP JUMPDEST MLOAD PUSH2 0x2D14 SWAP1 PUSH1 0x9 PUSH2 0x2AC JUMP JUMPDEST SWAP1 PUSH2 0x2D1E SWAP2 PUSH2 0x1CA7 JUMP JUMPDEST PUSH2 0x2D27 SWAP1 PUSH2 0x45B JUMP JUMPDEST PUSH2 0x2D31 PUSH1 0x0 PUSH2 0x43D JUMP JUMPDEST EQ SWAP3 PUSH2 0x2D47 SWAP3 PUSH2 0x2D4D SWAP5 PUSH2 0x2D8E JUMPI JUMPDEST POP POP PUSH2 0x43D JUMP JUMPDEST SWAP2 PUSH2 0x570 JUMP JUMPDEST SWAP1 PUSH32 0x5B6DB09229F804E15657628B57342D213A730173BD981B36DBC89BC94199B8F9 PUSH2 0x2D78 PUSH1 0x40 MLOAD SWAP1 JUMP JUMPDEST DUP1 PUSH2 0x2D86 TIMESTAMP DUP10 DUP12 DUP10 DUP6 PUSH2 0x2BAF JUMP JUMPDEST SUB SWAP1 LOG3 SWAP3 SWAP2 SWAP1 JUMP JUMPDEST PUSH2 0x2D97 SWAP2 PUSH2 0x24B8 JUMP JUMPDEST CODESIZE DUP1 PUSH2 0x2D40 JUMP JUMPDEST PUSH1 0x2 PUSH2 0x2DB3 PUSH2 0x2DD2 SWAP5 PUSH1 0x11 PUSH2 0x2DC1 SWAP5 ADD PUSH2 0x27FC JUMP JUMPDEST POP ADD PUSH2 0x1EC0 PUSH2 0x1EBB DUP3 PUSH2 0x45B JUMP JUMPDEST PUSH2 0x1EC0 PUSH2 0x2DCD DUP3 PUSH2 0x45B JUMP JUMPDEST PUSH2 0x2AF9 JUMP JUMPDEST DUP8 CODESIZE DUP1 PUSH2 0x2C5D JUMP JUMPDEST PUSH2 0x2A6C SWAP2 SWAP1 PUSH1 0x0 DUP1 DUP1 PUSH2 0x2A2F JUMP JUMPDEST PUSH2 0x2DF0 PUSH2 0x2B06 JUMP JUMPDEST SWAP1 PUSH1 0x0 DUP3 MSTORE PUSH1 0x20 DUP1 DUP1 DUP1 DUP1 DUP1 DUP1 DUP9 ADD PUSH1 0x0 JUMPDEST DUP2 MSTORE ADD PUSH1 0x0 DUP2 MSTORE ADD PUSH1 0x0 DUP2 MSTORE ADD PUSH1 0x0 JUMPDEST DUP2 MSTORE ADD PUSH1 0x0 JUMPDEST DUP2 MSTORE ADD PUSH1 0x0 SWAP1 MSTORE POP JUMP JUMPDEST PUSH2 0x2A9 PUSH2 0x2DE8 JUMP JUMPDEST SWAP1 PUSH2 0x293 PUSH2 0x2EAD PUSH1 0x5 PUSH2 0x2E3B PUSH2 0x2B06 JUMP JUMPDEST SWAP5 PUSH2 0x2E50 PUSH2 0x2A97 DUP3 SLOAD PUSH1 0x1 PUSH1 0x1 PUSH1 0xA0 SHL SUB AND SWAP1 JUMP JUMPDEST PUSH2 0x2E5C PUSH2 0x976 DUP3 PUSH2 0x10D2 JUMP JUMPDEST PUSH2 0x2E6B PUSH2 0x853 PUSH1 0x1 DUP4 ADD PUSH2 0x45B JUMP JUMPDEST PUSH2 0x2E81 PUSH2 0x2E7A PUSH1 0x2 DUP4 ADD PUSH2 0x45B JUMP JUMPDEST PUSH1 0x60 DUP9 ADD MSTORE JUMP JUMPDEST PUSH2 0x2E97 PUSH2 0x2E90 PUSH1 0x3 DUP4 ADD PUSH2 0x45B JUMP JUMPDEST PUSH1 0x80 DUP9 ADD MSTORE JUMP JUMPDEST PUSH2 0x8BF PUSH2 0x2EA6 PUSH1 0x4 DUP4 ADD PUSH2 0x45B JUMP JUMPDEST PUSH1 0xA0 DUP9 ADD MSTORE JUMP JUMPDEST PUSH1 0xC0 DUP5 ADD MSTORE JUMP JUMPDEST PUSH2 0x2A9 SWAP1 PUSH2 0x2E2A JUMP JUMPDEST PUSH2 0x2ED4 PUSH2 0x2A9 SWAP2 PUSH2 0x2ECC PUSH2 0x2E22 JUMP JUMPDEST POP PUSH1 0xA PUSH2 0x44A JUMP JUMPDEST PUSH2 0x2EB4 JUMP JUMPDEST PUSH2 0x2A9 PUSH1 0x40 PUSH2 0x609 JUMP JUMPDEST PUSH2 0x2EEB PUSH2 0x2ED9 JUMP JUMPDEST SWAP1 PUSH1 0x0 DUP3 MSTORE PUSH1 0x60 PUSH1 0x20 DUP4 ADD MSTORE JUMP JUMPDEST PUSH2 0x2A9 PUSH2 0x2EE3 JUMP JUMPDEST SWAP1 PUSH2 0x2F0E PUSH2 0x659 DUP4 PUSH2 0x151E JUMP JUMPDEST SWAP2 DUP3 MSTORE JUMP JUMPDEST PUSH2 0x2A9 PUSH2 0x120 PUSH2 0x609 JUMP JUMPDEST PUSH2 0x2F26 PUSH2 0x2F13 JUMP JUMPDEST SWAP1 PUSH1 0x0 DUP3 MSTORE PUSH1 0x20 DUP1 DUP1 DUP1 DUP1 DUP1 DUP1 DUP1 DUP1 DUP11 ADD PUSH1 0x0 DUP2 MSTORE ADD PUSH1 0x0 DUP2 MSTORE ADD PUSH1 0x0 PUSH2 0x2E02 JUMP JUMPDEST PUSH2 0x2A9 PUSH2 0x2F1E JUMP JUMPDEST PUSH1 0x0 JUMPDEST DUP3 DUP2 LT PUSH2 0x2F5F JUMPI POP POP POP JUMP JUMPDEST PUSH1 0x20 SWAP1 PUSH2 0x2F6A PUSH2 0x2F48 JUMP JUMPDEST DUP2 DUP5 ADD MSTORE ADD PUSH2 0x2F53 JUMP JUMPDEST SWAP1 PUSH2 0x293 PUSH2 0x2F8A PUSH2 0x2F84 DUP5 PUSH2 0x2F01 JUMP JUMPDEST SWAP4 PUSH2 0x151E JUMP JUMPDEST PUSH1 0x1F NOT ADD PUSH1 0x20 DUP5 ADD PUSH2 0x2F50 JUMP JUMPDEST SWAP1 PUSH2 0x2FB2 PUSH2 0x2FA6 PUSH2 0xF78 DUP5 SLOAD SWAP1 JUMP JUMPDEST SWAP3 PUSH1 0x0 MSTORE PUSH1 0x20 PUSH1 0x0 KECCAK256 SWAP1 JUMP JUMPDEST SWAP1 PUSH1 0x0 JUMPDEST DUP2 DUP2 LT PUSH2 0x2FC3 JUMPI POP POP POP SWAP1 JUMP JUMPDEST SWAP1 SWAP2 SWAP3 PUSH2 0x2FE7 PUSH2 0x2FE0 PUSH1 0x1 SWAP3 PUSH2 0x2FD8 DUP8 PUSH2 0x45B JUMP JUMPDEST DUP2 MSTORE PUSH1 0x20 ADD SWAP1 JUMP JUMPDEST SWAP5 PUSH1 0x1 ADD SWAP1 JUMP JUMPDEST SWAP3 SWAP2 ADD PUSH2 0x2FB6 JUMP JUMPDEST SWAP1 PUSH2 0x2A9 SWAP2 PUSH2 0x2F97 JUMP JUMPDEST SWAP1 PUSH2 0x293 PUSH2 0x7FB SWAP3 PUSH2 0x300A PUSH1 0x40 MLOAD SWAP1 JUMP JUMPDEST SWAP4 DUP5 DUP1 SWAP3 PUSH2 0x2FEF JUMP JUMPDEST PUSH2 0x2A9 SWAP1 PUSH2 0x2FF9 JUMP JUMPDEST SWAP1 PUSH2 0x3025 DUP3 MLOAD SWAP1 JUMP JUMPDEST DUP2 LT ISZERO PUSH2 0xE59 JUMPI PUSH1 0x20 DUP1 SWAP2 MUL ADD ADD SWAP1 JUMP JUMPDEST SWAP1 PUSH2 0x303F PUSH2 0x2EF9 JUMP JUMPDEST POP PUSH2 0x3052 PUSH2 0x1FCE DUP3 PUSH2 0xE6D DUP6 PUSH1 0x7 PUSH2 0x44A JUMP JUMPDEST SWAP2 PUSH1 0x0 SWAP2 PUSH2 0x305F DUP4 PUSH2 0x43D JUMP JUMPDEST DUP5 EQ PUSH2 0x32C2 JUMPI PUSH1 0x2 SWAP1 PUSH2 0x3076 PUSH2 0x2A9 DUP5 PUSH1 0x2 PUSH2 0x44A JUMP JUMPDEST SWAP3 PUSH1 0x4 DUP5 ADD PUSH2 0x3095 PUSH2 0x3089 DUP8 DUP4 ADD PUSH2 0x45B JUMP JUMPDEST PUSH2 0x232D PUSH2 0x2329 DUP10 PUSH2 0x43D JUMP JUMPDEST DUP6 PUSH2 0x30A2 PUSH1 0x2 DUP4 ADD PUSH2 0x870 JUMP JUMPDEST SWAP6 DUP7 ISZERO PUSH2 0x3277 JUMPI JUMPDEST POP POP POP PUSH2 0x30C4 SWAP2 PUSH2 0xE6D PUSH2 0x30BF SWAP3 PUSH1 0x8 PUSH2 0x44A JUMP JUMPDEST PUSH2 0x3013 JUMP JUMPDEST PUSH2 0x30CD DUP6 PUSH2 0x2F74 JUMP JUMPDEST SWAP6 PUSH2 0x30D7 DUP6 PUSH2 0x43D JUMP JUMPDEST PUSH2 0x30E2 PUSH2 0x2A9 DUP5 MLOAD SWAP1 JUMP JUMPDEST DUP2 LT ISZERO PUSH2 0x325B JUMPI DUP1 DUP7 PUSH2 0x30FF PUSH2 0x30FB PUSH2 0x31B5 SWAP5 DUP8 PUSH2 0x301C JUMP JUMPDEST MLOAD SWAP1 JUMP JUMPDEST PUSH1 0x4 PUSH2 0x3147 PUSH2 0x3111 PUSH2 0x2A9 DUP5 DUP5 PUSH2 0x44A JUMP JUMPDEST SWAP3 PUSH2 0x3140 DUP11 DUP6 ADD SWAP5 PUSH2 0x3139 PUSH2 0x312A PUSH1 0x3 PUSH2 0x4A1 DUP10 PUSH2 0x45B JUMP JUMPDEST SWAP4 PUSH2 0x3133 PUSH2 0x2F13 JUMP JUMPDEST SWAP9 DUP10 ADD MSTORE JUMP JUMPDEST PUSH1 0x20 DUP8 ADD MSTORE JUMP JUMPDEST PUSH1 0x40 DUP6 ADD MSTORE JUMP JUMPDEST DUP10 ISZERO ISZERO PUSH1 0x60 DUP5 ADD MSTORE DUP10 PUSH2 0x3159 DUP2 PUSH2 0x43D JUMP JUMPDEST SWAP3 PUSH2 0x3165 DUP5 PUSH1 0x80 DUP8 ADD MSTORE JUMP JUMPDEST PUSH2 0x3170 DUP5 PUSH1 0xA0 DUP8 ADD MSTORE JUMP JUMPDEST DUP2 ISZERO ISZERO PUSH1 0xC0 DUP7 ADD MSTORE PUSH2 0x3183 DUP5 PUSH1 0xE0 DUP8 ADD MSTORE JUMP JUMPDEST DUP11 PUSH2 0x3190 DUP6 PUSH2 0x100 DUP9 ADD MSTORE JUMP JUMPDEST PUSH2 0x31BA JUMPI JUMPDEST POP POP POP POP PUSH2 0x31A3 DUP3 DUP12 PUSH2 0x301C JUMP JUMPDEST MSTORE PUSH2 0x31AE DUP2 DUP11 PUSH2 0x301C JUMP JUMPDEST POP PUSH1 0x1 ADD SWAP1 JUMP JUMPDEST PUSH2 0x30D7 JUMP JUMPDEST PUSH2 0x1FCE PUSH2 0x31D2 SWAP2 PUSH2 0x31CC PUSH1 0x9 SWAP2 PUSH2 0x45B JUMP JUMPDEST SWAP1 PUSH2 0x2AC JUMP JUMPDEST SWAP3 DUP4 GT PUSH2 0x31E0 JUMPI JUMPDEST DUP2 PUSH2 0x3195 JUMP JUMPDEST DUP3 PUSH2 0x8BF PUSH2 0x3244 PUSH2 0x324B SWAP5 PUSH2 0x323D PUSH2 0x3234 PUSH1 0x5 SWAP7 PUSH2 0x3217 PUSH2 0x3208 PUSH2 0x2A9 PUSH2 0x3253 SWAP13 PUSH1 0xA PUSH2 0x44A JUMP JUMPDEST PUSH1 0x1 PUSH1 0x60 DUP15 ADD MSTORE SWAP8 PUSH1 0x80 DUP14 ADD MSTORE JUMP JUMPDEST PUSH2 0x322D PUSH2 0x3226 PUSH1 0x3 DUP10 ADD PUSH2 0x45B JUMP JUMPDEST PUSH1 0xA0 DUP14 ADD MSTORE JUMP JUMPDEST DUP7 ADD PUSH2 0x10D2 JUMP JUMPDEST ISZERO ISZERO PUSH1 0xC0 DUP11 ADD MSTORE JUMP JUMPDEST DUP4 ADD PUSH2 0x45B JUMP JUMPDEST PUSH1 0xE0 DUP8 ADD MSTORE JUMP JUMPDEST PUSH2 0x100 DUP4 ADD MSTORE JUMP JUMPDEST CODESIZE DUP1 DUP10 PUSH2 0x31DA JUMP JUMPDEST POP SWAP6 SWAP3 POP POP POP PUSH2 0xD01 PUSH2 0x2A9 SWAP3 SWAP4 PUSH2 0x3271 PUSH2 0x2ED9 JUMP JUMPDEST SWAP5 DUP6 ADD MSTORE JUMP JUMPDEST PUSH2 0x30BF SWAP4 SWAP7 POP SWAP2 PUSH2 0x3293 PUSH2 0xE6D SWAP3 PUSH1 0xE PUSH2 0x30C4 SWAP8 SWAP6 ADD ADD PUSH2 0x942 JUMP JUMPDEST SWAP1 DUP2 PUSH2 0x32A8 JUMPI JUMPDEST POP SWAP6 SWAP3 DUP3 SWAP5 POP DUP8 SWAP2 POP PUSH2 0x30AA JUMP JUMPDEST PUSH2 0x32B9 SWAP2 POP PUSH1 0x3 PUSH2 0x2A9 SWAP2 ADD PUSH2 0x45B JUMP JUMPDEST TIMESTAMP LT ISZERO CODESIZE PUSH2 0x329A JUMP JUMPDEST POP POP SWAP1 POP PUSH2 0x2A9 PUSH2 0x32D2 DUP3 PUSH2 0x43D JUMP JUMPDEST PUSH2 0xD01 PUSH2 0x32DE DUP3 PUSH2 0x2F74 JUMP JUMPDEST SWAP2 PUSH2 0x3271 PUSH2 0x2ED9 JUMP JUMPDEST SWAP1 PUSH2 0x293 SWAP3 SWAP2 PUSH2 0x32FE PUSH2 0x2201 PUSH2 0x2100 CALLER PUSH1 0xF PUSH2 0x579 JUMP JUMPDEST SWAP1 PUSH2 0x293 SWAP3 SWAP2 PUSH2 0x3314 PUSH2 0x1C63 PUSH2 0x1C5F PUSH1 0xE PUSH2 0x870 JUMP JUMPDEST PUSH2 0x33CE JUMP JUMPDEST ISZERO PUSH2 0x3320 JUMPI JUMP JUMPDEST PUSH1 0x40 MLOAD PUSH3 0x461BCD PUSH1 0xE5 SHL DUP2 MSTORE PUSH1 0x20 PUSH1 0x4 DUP3 ADD MSTORE PUSH1 0x17 PUSH1 0x24 DUP3 ADD MSTORE PUSH32 0x504C415945525F4E4F545F504152544943495041544544000000000000000000 PUSH1 0x44 DUP3 ADD MSTORE PUSH1 0x64 SWAP1 REVERT JUMPDEST ISZERO PUSH2 0x336C JUMPI JUMP JUMPDEST PUSH1 0x40 MLOAD PUSH3 0x461BCD PUSH1 0xE5 SHL DUP2 MSTORE PUSH1 0x20 PUSH1 0x4 DUP3 ADD MSTORE PUSH1 0xF PUSH1 0x24 DUP3 ADD MSTORE PUSH32 0x4D4554484F445F52455155495245440000000000000000000000000000000000 PUSH1 0x44 DUP3 ADD MSTORE PUSH1 0x64 SWAP1 REVERT JUMPDEST SWAP3 SWAP2 PUSH1 0x20 PUSH2 0x28DD PUSH2 0x293 SWAP4 PUSH1 0x40 DUP8 ADD SWAP1 DUP8 DUP3 SUB PUSH1 0x0 DUP10 ADD MSTORE PUSH2 0x9F8 JUMP JUMPDEST PUSH2 0x2D47 PUSH2 0x341B SWAP2 PUSH2 0x33FD PUSH2 0x33EA PUSH2 0x1FCE DUP7 PUSH2 0xE6D DUP6 PUSH1 0x7 PUSH2 0x44A JUMP JUMPDEST PUSH2 0x33F7 PUSH2 0x2329 PUSH1 0x0 PUSH2 0x43D JUMP JUMPDEST GT PUSH2 0x3319 JUMP JUMPDEST PUSH2 0x1EDC PUSH2 0x3408 DUP7 MLOAD SWAP1 JUMP JUMPDEST PUSH2 0x3415 PUSH2 0x2329 PUSH1 0x0 PUSH2 0x43D JUMP JUMPDEST GT PUSH2 0x3365 JUMP JUMPDEST SWAP1 PUSH32 0x259B46E60D1E2EDD3FF15970DE1B6023EFE23EE42E5D8EB42CAD548A7E195704 PUSH2 0x345E PUSH2 0x3449 CALLER PUSH2 0x570 JUMP JUMPDEST SWAP5 PUSH2 0x3453 PUSH1 0x40 MLOAD SWAP1 JUMP JUMPDEST SWAP2 DUP3 SWAP2 TIMESTAMP SWAP1 DUP4 PUSH2 0x33B1 JUMP JUMPDEST SUB SWAP1 LOG4 JUMP JUMPDEST SWAP1 PUSH2 0x293 SWAP3 SWAP2 PUSH2 0x32E7 JUMP JUMPDEST PUSH2 0x30BF PUSH2 0x2A9 SWAP2 PUSH2 0x347D PUSH1 0x60 SWAP1 JUMP JUMPDEST POP PUSH1 0x6 PUSH2 0x44A JUMP JUMPDEST SWAP1 PUSH2 0x293 SWAP6 SWAP5 SWAP4 SWAP3 SWAP2 PUSH2 0x349F PUSH2 0x2201 PUSH2 0x2100 CALLER PUSH1 0xF PUSH2 0x579 JUMP JUMPDEST SWAP1 PUSH2 0x293 SWAP6 SWAP5 SWAP4 SWAP3 SWAP2 PUSH2 0x34B8 PUSH2 0x1C63 PUSH2 0x1C5F PUSH1 0xE PUSH2 0x870 JUMP JUMPDEST PUSH2 0x3615 JUMP JUMPDEST ISZERO PUSH2 0x34C4 JUMPI JUMP JUMPDEST PUSH1 0x40 MLOAD PUSH3 0x461BCD PUSH1 0xE5 SHL DUP2 MSTORE PUSH1 0x20 PUSH1 0x4 DUP3 ADD MSTORE PUSH1 0x15 PUSH1 0x24 DUP3 ADD MSTORE PUSH32 0x41525241595F4C454E4754485F4D49534D415443480000000000000000000000 PUSH1 0x44 DUP3 ADD MSTORE PUSH1 0x64 SWAP1 REVERT JUMPDEST SWAP2 SWAP1 DUP2 LT ISZERO PUSH2 0xE59 JUMPI PUSH1 0x20 MUL ADD SWAP1 JUMP JUMPDEST CALLDATALOAD PUSH2 0x2A9 DUP2 PUSH2 0x27D JUMP JUMPDEST CALLDATALOAD PUSH2 0x2A9 DUP2 PUSH2 0x381 JUMP JUMPDEST SWAP1 CALLDATALOAD SWAP1 PUSH1 0x1E NOT CALLDATASIZE DUP3 SWAP1 SUB ADD DUP3 SLT ISZERO PUSH2 0x278 JUMPI ADD DUP1 CALLDATALOAD SWAP1 PUSH1 0x1 PUSH1 0x1 PUSH1 0x40 SHL SUB DUP3 GT PUSH2 0x278 JUMPI PUSH1 0x20 ADD SWAP2 CALLDATASIZE DUP3 SWAP1 SUB DUP4 SGT PUSH2 0x278 JUMPI JUMP JUMPDEST SWAP1 DUP3 LT ISZERO PUSH2 0xE59 JUMPI PUSH1 0x20 PUSH2 0x1244 SWAP3 MUL DUP2 ADD SWAP1 PUSH2 0x352D JUMP JUMPDEST SWAP2 SWAP1 PUSH2 0xA22 DUP2 PUSH2 0x358F DUP2 PUSH2 0x639 SWAP6 PUSH1 0x20 SWAP2 DUP2 MSTORE ADD SWAP1 JUMP JUMPDEST DUP1 SWAP6 PUSH2 0x63D JUMP JUMPDEST SWAP7 SWAP6 SWAP4 SWAP3 PUSH2 0x293 SWAP6 PUSH1 0xA0 SWAP5 PUSH2 0x35D0 PUSH2 0x35BE DUP12 PUSH2 0x28DD SWAP8 PUSH2 0x28A3 PUSH2 0x35DD SWAP9 PUSH1 0x0 PUSH1 0xC0 DUP6 ADD SWAP5 ADD MSTORE JUMP JUMPDEST PUSH1 0x1 PUSH1 0x1 PUSH1 0xA0 SHL SUB SWAP1 SWAP5 AND PUSH1 0x40 DUP13 ADD MSTORE JUMP JUMPDEST DUP10 DUP4 SUB PUSH1 0x60 DUP12 ADD MSTORE PUSH2 0x3578 JUMP JUMPDEST DUP7 DUP2 SUB PUSH1 0x80 DUP9 ADD MSTORE PUSH1 0xF DUP2 MSTORE PUSH32 0x426174636820636F6E6669726D65640000000000000000000000000000000000 PUSH1 0x20 DUP3 ADD MSTORE PUSH1 0x40 ADD SWAP1 JUMP JUMPDEST SWAP1 SWAP2 SWAP4 SWAP3 SWAP6 PUSH2 0x3621 DUP4 SWAP1 JUMP JUMPDEST SWAP7 PUSH2 0x362F DUP2 JUMPDEST DUP10 JUMPDEST EQ PUSH2 0x34BD JUMP JUMPDEST PUSH2 0x3638 DUP8 PUSH2 0x3627 JUMP JUMPDEST PUSH1 0x0 SWAP2 PUSH2 0x3645 PUSH1 0x0 PUSH2 0x43D JUMP JUMPDEST DUP10 JUMPDEST DUP2 LT ISZERO PUSH2 0x3796 JUMPI DUP9 PUSH2 0x3670 PUSH2 0x2A9 PUSH1 0xA PUSH2 0x366A PUSH2 0x3665 DUP7 DUP13 DUP13 PUSH2 0x3509 JUMP JUMPDEST PUSH2 0x3519 JUMP JUMPDEST SWAP1 PUSH2 0x44A JUMP JUMPDEST PUSH2 0x3683 PUSH2 0x367E DUP5 DUP8 DUP14 PUSH2 0x3509 JUMP JUMPDEST PUSH2 0x3523 JUMP JUMPDEST PUSH2 0x369E JUMPI JUMPDEST POP POP PUSH2 0x3697 PUSH2 0x3647 SWAP2 PUSH1 0x1 ADD SWAP1 JUMP JUMPDEST SWAP1 POP PUSH2 0x3645 JUMP JUMPDEST DUP6 DUP2 ADD PUSH2 0x36AC PUSH1 0x1 DUP3 PUSH2 0x2799 JUMP JUMPDEST PUSH2 0x36B9 TIMESTAMP PUSH1 0x5 DUP5 ADD PUSH2 0x1CA7 JUMP JUMPDEST DUP9 PUSH1 0x2 DUP12 DUP7 DUP12 DUP2 DUP5 DUP9 ADD SWAP5 PUSH2 0x36CD DUP7 PUSH2 0x45B JUMP JUMPDEST PUSH2 0x36D6 SWAP2 PUSH2 0x44A JUMP JUMPDEST SWAP6 PUSH2 0x36E0 SWAP3 PUSH2 0x3509 JUMP JUMPDEST PUSH2 0x36E9 SWAP1 PUSH2 0x3519 JUMP JUMPDEST SWAP3 PUSH2 0x36F3 SWAP1 PUSH2 0x45B JUMP JUMPDEST SWAP5 SLOAD PUSH1 0x1 PUSH1 0x1 PUSH1 0xA0 SHL SUB AND SWAP6 PUSH1 0x3 ADD PUSH2 0x370B DUP2 PUSH2 0x45B JUMP JUMPDEST SWAP5 PUSH1 0x11 ADD SWAP1 PUSH2 0x3719 SWAP1 PUSH2 0x45B JUMP JUMPDEST PUSH2 0x3722 SWAP2 PUSH2 0x27FC JUMP JUMPDEST POP PUSH1 0x7 ADD SWAP7 PUSH2 0x3730 SWAP3 PUSH2 0x3561 JUMP JUMPDEST SWAP3 SWAP1 SWAP2 PUSH2 0x373C SWAP1 PUSH2 0x43D JUMP JUMPDEST SWAP4 PUSH2 0x3746 SWAP1 PUSH2 0x43D JUMP JUMPDEST SWAP5 PUSH2 0x3750 SWAP1 PUSH2 0x570 JUMP JUMPDEST SWAP6 PUSH2 0x375A PUSH1 0x40 MLOAD SWAP1 JUMP JUMPDEST SWAP4 DUP5 SWAP4 TIMESTAMP SWAP3 CALLER SWAP1 PUSH2 0x376B SWAP6 DUP8 PUSH2 0x3596 JUMP JUMPDEST SUB PUSH32 0xCEF6D1B833317D0BB1325916E3E8991FF3AF40C4DA83E3CEDBC19B4A64D1BDF5 SWAP2 LOG4 DUP9 CODESIZE PUSH2 0x3688 JUMP JUMPDEST POP SWAP8 POP POP POP POP POP POP POP POP JUMP JUMPDEST SWAP1 PUSH2 0x293 SWAP6 SWAP5 SWAP4 SWAP3 SWAP2 PUSH2 0x3485 JUMP JUMPDEST SWAP1 PUSH2 0x2A9 SWAP6 SWAP5 SWAP4 SWAP3 SWAP2 PUSH2 0x37CA PUSH2 0x2201 PUSH2 0x2100 CALLER PUSH1 0xF PUSH2 0x579 JUMP JUMPDEST SWAP1 PUSH2 0x1BF4 SWAP6 SWAP5 SWAP4 SWAP3 SWAP2 PUSH2 0x37DB PUSH2 0x47B9 JUMP JUMPDEST SWAP1 PUSH2 0x2A9 SWAP6 SWAP5 SWAP4 SWAP3 SWAP2 PUSH2 0x37F4 PUSH2 0x1C63 PUSH2 0x1C5F PUSH1 0xE PUSH2 0x870 JUMP JUMPDEST PUSH2 0x3825 JUMP JUMPDEST CALLDATASIZE SWAP1 CALLDATACOPY JUMP JUMPDEST SWAP1 PUSH2 0x293 PUSH2 0x380E PUSH2 0x2F84 DUP5 PUSH2 0x2F01 JUMP JUMPDEST PUSH1 0x1F NOT ADD PUSH1 0x20 DUP5 ADD PUSH2 0x37F9 JUMP JUMPDEST CALLDATALOAD PUSH2 0x2A9 DUP2 PUSH2 0x326 JUMP JUMPDEST POP PUSH1 0xC0 MSTORE PUSH1 0xE0 SWAP3 SWAP1 SWAP3 MSTORE DUP1 SWAP4 PUSH2 0x383B DUP5 DUP7 PUSH2 0x3629 JUMP JUMPDEST PUSH2 0x384B PUSH2 0x2A9 PUSH1 0xC0 MLOAD PUSH1 0x2 PUSH2 0x44A JUMP JUMPDEST SWAP1 PUSH2 0x385B PUSH2 0x2538 PUSH1 0xE DUP5 ADD PUSH2 0x870 JUMP JUMPDEST PUSH2 0x3864 DUP7 PUSH2 0x37FE JUMP JUMPDEST SWAP6 PUSH2 0x386F PUSH1 0x0 PUSH2 0x43D JUMP JUMPDEST PUSH1 0x80 MSTORE JUMPDEST DUP1 JUMPDEST PUSH1 0x80 MLOAD LT ISZERO PUSH2 0x3A70 JUMPI PUSH2 0x3875 SWAP1 PUSH2 0x38A2 PUSH2 0x389A PUSH2 0x3895 PUSH1 0x80 MLOAD DUP9 DUP11 PUSH2 0x3509 JUMP JUMPDEST PUSH2 0x381B JUMP JUMPDEST PUSH1 0xC0 MLOAD PUSH2 0x4B9C JUMP JUMPDEST PUSH1 0xA0 MSTORE DUP6 PUSH2 0x395E DUP9 PUSH2 0x3938 DUP9 PUSH2 0x392B PUSH2 0x3904 PUSH2 0x3665 PUSH2 0x38F7 PUSH2 0x3895 PUSH2 0x38C7 PUSH1 0xB PUSH2 0x45B JUMP JUMPDEST SWAP10 PUSH2 0x38DB PUSH2 0x38D4 DUP13 PUSH2 0x1C83 JUMP JUMPDEST PUSH1 0xB PUSH2 0x1CA7 JUMP JUMPDEST PUSH2 0x38ED PUSH1 0x2 PUSH2 0x8BF PUSH1 0xA0 MLOAD PUSH1 0x4 PUSH2 0x44A JUMP JUMPDEST SWAP7 PUSH1 0x80 MLOAD SWAP2 PUSH2 0x3509 JUMP JUMPDEST SWAP6 PUSH1 0x80 MLOAD SWAP1 PUSH1 0xE0 MLOAD PUSH2 0x3509 JUMP JUMPDEST SWAP2 PUSH2 0x391F PUSH2 0x3910 PUSH2 0x2B06 JUMP JUMPDEST PUSH1 0x1 PUSH1 0x1 PUSH1 0xA0 SHL SUB SWAP1 SWAP7 AND DUP7 MSTORE JUMP JUMPDEST PUSH1 0x1 PUSH1 0x20 DUP7 ADD MSTORE PUSH2 0x3140 JUMP JUMPDEST PUSH2 0x1855 PUSH1 0xC0 MLOAD PUSH1 0x60 DUP6 ADD MSTORE JUMP JUMPDEST PUSH2 0x3943 TIMESTAMP PUSH1 0xA0 DUP4 ADD MSTORE JUMP JUMPDEST PUSH2 0x394E TIMESTAMP PUSH1 0xC0 DUP4 ADD MSTORE JUMP JUMPDEST PUSH2 0x3959 DUP4 PUSH1 0xA PUSH2 0x44A JUMP JUMPDEST PUSH2 0x2BA5 JUMP JUMPDEST PUSH2 0x397E DUP2 PUSH2 0x3979 PUSH1 0x9 PUSH2 0x31CC PUSH1 0x2 PUSH2 0x8BF PUSH1 0xA0 MLOAD PUSH1 0x4 PUSH2 0x44A JUMP JUMPDEST PUSH2 0x1CA7 JUMP JUMPDEST PUSH2 0x3991 DUP2 PUSH2 0x398E PUSH1 0x80 MLOAD DUP13 PUSH2 0x301C JUMP JUMPDEST MSTORE JUMP JUMPDEST PUSH2 0x399D PUSH1 0x8 DUP7 ADD PUSH2 0x870 JUMP JUMPDEST PUSH2 0x3A33 JUMPI JUMPDEST PUSH2 0x39B5 PUSH1 0x10 DUP7 ADD PUSH2 0x1EC0 PUSH2 0x2DCD DUP3 PUSH2 0x45B JUMP JUMPDEST PUSH2 0x39C5 PUSH2 0x3895 PUSH1 0x80 MLOAD DUP9 DUP11 PUSH2 0x3509 JUMP JUMPDEST PUSH32 0xBC9C356EC1019C975634201349BADD0EE43E7206FA3154F3EE03E47B7D866DB PUSH2 0x39F8 PUSH2 0x3665 PUSH1 0x80 MLOAD DUP13 PUSH1 0xE0 MLOAD PUSH2 0x3509 JUMP JUMPDEST SWAP3 PUSH2 0x3A07 PUSH2 0x1EE1 PUSH1 0xC0 MLOAD PUSH2 0x43D JUMP JUMPDEST SWAP4 PUSH2 0x3A20 PUSH2 0x3A14 PUSH1 0x40 MLOAD SWAP1 JUMP JUMPDEST SWAP3 DUP4 SWAP3 PUSH1 0xA0 MLOAD DUP5 PUSH2 0xCEA JUMP JUMPDEST SUB SWAP1 LOG3 PUSH1 0x80 MLOAD PUSH1 0x1 ADD PUSH1 0x80 MSTORE SWAP1 POP PUSH2 0x3873 JUMP JUMPDEST PUSH2 0x3A58 PUSH1 0x2 PUSH2 0x2DB3 PUSH1 0x11 DUP9 ADD PUSH2 0x3A52 PUSH2 0x3665 DUP14 PUSH1 0x80 MLOAD SWAP1 PUSH1 0xE0 MLOAD PUSH2 0x3509 JUMP JUMPDEST SWAP1 PUSH2 0x27FC JUMP JUMPDEST PUSH2 0x3A6B PUSH1 0xF DUP7 ADD PUSH2 0x1EC0 PUSH2 0x2DCD DUP3 PUSH2 0x45B JUMP JUMPDEST PUSH2 0x39A2 JUMP JUMPDEST POP SWAP5 SWAP4 POP SWAP2 POP PUSH2 0x3A84 SWAP1 POP PUSH1 0x10 DUP3 ADD PUSH2 0x45B JUMP JUMPDEST PUSH2 0x3A91 PUSH2 0x2329 PUSH1 0x0 PUSH2 0x43D JUMP JUMPDEST EQ PUSH2 0x3A9A JUMPI POP SWAP1 JUMP JUMPDEST PUSH2 0x2A9 SWAP1 PUSH1 0x1 SWAP1 PUSH1 0xE ADD PUSH2 0x24B8 JUMP JUMPDEST PUSH2 0x2A9 SWAP5 SWAP4 SWAP3 SWAP2 SWAP1 PUSH1 0x60 PUSH2 0x37B0 JUMP JUMPDEST SWAP1 PUSH2 0x293 SWAP2 PUSH2 0x3ACD PUSH2 0x1C63 PUSH2 0x1C5F PUSH1 0xE PUSH2 0x870 JUMP JUMPDEST PUSH2 0x3B1E JUMP JUMPDEST ISZERO PUSH2 0x3AD9 JUMPI JUMP JUMPDEST PUSH1 0x40 MLOAD PUSH3 0x461BCD PUSH1 0xE5 SHL DUP2 MSTORE PUSH1 0x20 PUSH1 0x4 DUP3 ADD MSTORE PUSH1 0x10 PUSH1 0x24 DUP3 ADD MSTORE PUSH32 0x4E4F545F50415254494349504154454400000000000000000000000000000000 PUSH1 0x44 DUP3 ADD MSTORE PUSH1 0x64 SWAP1 REVERT JUMPDEST PUSH2 0x3B68 SWAP1 PUSH2 0x3B50 PUSH2 0x3B3D PUSH2 0x1FCE PUSH2 0x3B36 DUP5 PUSH1 0x7 PUSH2 0x44A JUMP JUMPDEST CALLER SWAP1 PUSH2 0x579 JUMP JUMPDEST PUSH2 0x3B4A PUSH2 0x2329 PUSH1 0x0 PUSH2 0x43D JUMP JUMPDEST GT PUSH2 0x3AD2 JUMP JUMPDEST PUSH2 0x1EDC PUSH2 0x3B5B DUP5 MLOAD SWAP1 JUMP JUMPDEST PUSH2 0x255E PUSH2 0x2329 PUSH1 0x0 PUSH2 0x43D JUMP JUMPDEST PUSH32 0x76C33F5E956B8ABCDB078DBCE97BC0918B4D6166DE75B38F6260813E17AD9F03 PUSH2 0x2398 PUSH2 0x3B95 CALLER PUSH2 0x570 JUMP JUMPDEST SWAP4 PUSH2 0x3453 PUSH1 0x40 MLOAD SWAP1 JUMP JUMPDEST SWAP1 PUSH2 0x293 SWAP2 PUSH2 0x3AB8 JUMP JUMPDEST PUSH2 0x3BC2 PUSH2 0x2A9 PUSH1 0xE SWAP3 PUSH2 0x3BBA PUSH1 0x0 SWAP1 JUMP JUMPDEST POP PUSH1 0x2 PUSH2 0x44A JUMP JUMPDEST PUSH2 0x3BDE PUSH2 0x3BD1 PUSH1 0x4 DUP4 ADD PUSH2 0x45B JUMP JUMPDEST PUSH2 0x232D PUSH2 0x2329 PUSH1 0x0 PUSH2 0x43D JUMP JUMPDEST ADD SWAP1 DUP2 SWAP1 PUSH2 0x3C00 PUSH1 0x2 PUSH2 0x3BF9 PUSH2 0x3BF3 DUP6 PUSH2 0x870 JUMP JUMPDEST SWAP5 PUSH2 0x942 JUMP JUMPDEST SWAP5 ADD PUSH2 0x45B JUMP JUMPDEST SWAP2 SWAP3 SWAP2 SWAP1 JUMP JUMPDEST SWAP1 PUSH2 0x1BF4 SWAP3 SWAP2 PUSH2 0x3C14 PUSH2 0x47B9 JUMP JUMPDEST SWAP1 PUSH2 0x2A9 SWAP3 SWAP2 PUSH2 0x3C2A PUSH2 0x1C63 PUSH2 0x1C5F PUSH1 0xE PUSH2 0x870 JUMP JUMPDEST PUSH2 0x3CA2 JUMP JUMPDEST ISZERO PUSH2 0x3C36 JUMPI JUMP JUMPDEST PUSH1 0x40 MLOAD PUSH3 0x461BCD PUSH1 0xE5 SHL DUP2 MSTORE PUSH1 0x20 PUSH1 0x4 DUP3 ADD MSTORE PUSH1 0x9 PUSH1 0x24 DUP3 ADD MSTORE PUSH9 0x544F4F5F4541524C59 PUSH1 0xB8 SHL PUSH1 0x44 DUP3 ADD MSTORE PUSH1 0x64 SWAP1 REVERT JUMPDEST ISZERO PUSH2 0x3C6E JUMPI JUMP JUMPDEST PUSH1 0x40 MLOAD PUSH3 0x461BCD PUSH1 0xE5 SHL DUP2 MSTORE PUSH1 0x20 PUSH1 0x4 DUP3 ADD MSTORE PUSH1 0xC PUSH1 0x24 DUP3 ADD MSTORE PUSH12 0x14905191931157D153911151 PUSH1 0xA2 SHL PUSH1 0x44 DUP3 ADD MSTORE PUSH1 0x64 SWAP1 REVERT JUMPDEST POP PUSH2 0x2A9 SWAP2 PUSH2 0x3CB3 DUP4 DUP4 PUSH1 0x2 PUSH2 0x44A JUMP JUMPDEST PUSH2 0x3D01 PUSH2 0x3CEE PUSH1 0x2 PUSH1 0xE DUP5 ADD PUSH2 0x3CCE PUSH2 0x2542 PUSH2 0x1C5F DUP4 PUSH2 0x942 JUMP JUMPDEST PUSH2 0x8BF PUSH1 0x4 DUP7 ADD PUSH2 0x3CE0 DUP5 DUP3 ADD PUSH2 0x870 JUMP JUMPDEST SWAP1 DUP2 ISZERO PUSH2 0x3D11 JUMPI JUMPDEST POP PUSH2 0x3C2F JUMP JUMPDEST PUSH2 0x3CFB PUSH2 0x2329 PUSH1 0x0 PUSH2 0x43D JUMP JUMPDEST GT PUSH2 0x3C67 JUMP JUMPDEST PUSH2 0x3D0B PUSH1 0x0 PUSH2 0x43D JUMP JUMPDEST SWAP2 PUSH2 0x4CDF JUMP JUMPDEST PUSH2 0x3D22 SWAP2 POP PUSH1 0x3 PUSH2 0x2A9 SWAP2 ADD PUSH2 0x45B JUMP JUMPDEST TIMESTAMP LT ISZERO CODESIZE PUSH2 0x3CE8 JUMP JUMPDEST PUSH2 0x2A9 SWAP2 SWAP1 PUSH1 0x0 PUSH2 0x3C06 JUMP JUMPDEST SWAP1 PUSH2 0x2A9 SWAP2 PUSH2 0x3D4D PUSH2 0x2201 PUSH2 0x2100 CALLER PUSH1 0xF PUSH2 0x579 JUMP JUMPDEST SWAP1 PUSH2 0x2A9 SWAP2 PUSH2 0x3D62 PUSH2 0x1C63 PUSH2 0x1C5F PUSH1 0xE PUSH2 0x870 JUMP JUMPDEST PUSH2 0x40F2 JUMP JUMPDEST ISZERO PUSH2 0x3D6E JUMPI JUMP JUMPDEST PUSH1 0x40 MLOAD PUSH3 0x461BCD PUSH1 0xE5 SHL DUP2 MSTORE PUSH1 0x20 PUSH1 0x4 DUP3 ADD MSTORE PUSH1 0xE PUSH1 0x24 DUP3 ADD MSTORE PUSH32 0x5449544C455F5245515549524544000000000000000000000000000000000000 PUSH1 0x44 DUP3 ADD MSTORE PUSH1 0x64 SWAP1 REVERT JUMPDEST ISZERO PUSH2 0x3DBA JUMPI JUMP JUMPDEST PUSH1 0x40 MLOAD PUSH3 0x461BCD PUSH1 0xE5 SHL DUP2 MSTORE PUSH1 0x20 PUSH1 0x4 DUP3 ADD MSTORE PUSH1 0xC PUSH1 0x24 DUP3 ADD MSTORE PUSH12 0x494E56414C49445F44415445 PUSH1 0xA0 SHL PUSH1 0x44 DUP3 ADD MSTORE PUSH1 0x64 SWAP1 REVERT JUMPDEST ISZERO PUSH2 0x3DF5 JUMPI JUMP JUMPDEST PUSH1 0x40 MLOAD PUSH3 0x461BCD PUSH1 0xE5 SHL DUP2 MSTORE PUSH1 0x20 PUSH1 0x4 DUP3 ADD MSTORE PUSH1 0x10 PUSH1 0x24 DUP3 ADD MSTORE PUSH32 0x524146464C455F544F4F5F53484F525400000000000000000000000000000000 PUSH1 0x44 DUP3 ADD MSTORE PUSH1 0x64 SWAP1 REVERT JUMPDEST ISZERO PUSH2 0x3E41 JUMPI JUMP JUMPDEST PUSH1 0x40 MLOAD PUSH3 0x461BCD PUSH1 0xE5 SHL DUP2 MSTORE PUSH1 0x20 PUSH1 0x4 DUP3 ADD MSTORE PUSH1 0xE PUSH1 0x24 DUP3 ADD MSTORE PUSH32 0x445241575F544F4F5F4541524C59000000000000000000000000000000000000 PUSH1 0x44 DUP3 ADD MSTORE PUSH1 0x64 SWAP1 REVERT JUMPDEST PUSH2 0x293 SWAP2 PUSH1 0x0 SWAP2 PUSH2 0x1D8C JUMP JUMPDEST DUP2 DUP2 LT PUSH2 0x3E9D JUMPI POP POP JUMP JUMPDEST DUP1 PUSH2 0x3EAB PUSH1 0x0 PUSH1 0x1 SWAP4 PUSH2 0x3E86 JUMP JUMPDEST ADD PUSH2 0x3E92 JUMP JUMPDEST SWAP2 SWAP1 PUSH1 0x1F DUP2 GT PUSH2 0x3EC0 JUMPI POP POP POP JUMP JUMPDEST PUSH2 0x3ED2 PUSH2 0x293 SWAP4 PUSH1 0x0 MSTORE PUSH1 0x20 PUSH1 0x0 KECCAK256 SWAP1 JUMP JUMPDEST SWAP1 PUSH1 0x20 PUSH1 0x1F DUP5 ADD DUP2 SWAP1 DIV DUP4 ADD SWAP4 LT PUSH2 0x3EF4 JUMPI JUMPDEST PUSH1 0x20 PUSH1 0x1F SWAP1 SWAP2 ADD DIV ADD SWAP1 PUSH2 0x3E92 JUMP JUMPDEST SWAP1 SWAP2 POP DUP2 SWAP1 PUSH2 0x3EE5 JUMP JUMPDEST SWAP1 PUSH2 0x3F07 DUP2 MLOAD SWAP1 JUMP JUMPDEST SWAP1 PUSH1 0x1 PUSH1 0x1 PUSH1 0x40 SHL SUB DUP3 GT PUSH2 0x604 JUMPI PUSH2 0x3F2A DUP3 PUSH2 0x3F24 DUP6 SLOAD PUSH2 0x729 JUMP JUMPDEST DUP6 PUSH2 0x3EB1 JUMP JUMPDEST PUSH1 0x20 SWAP1 PUSH1 0x1F DUP4 GT PUSH1 0x1 EQ PUSH2 0x3F65 JUMPI PUSH2 0x1CBE SWAP3 SWAP2 PUSH1 0x0 SWAP2 DUP4 PUSH2 0x3F5A JUMPI JUMPDEST POP POP PUSH1 0x0 NOT PUSH1 0x8 DUP4 MUL SHR NOT AND SWAP1 PUSH1 0x2 MUL OR SWAP1 JUMP JUMPDEST ADD MLOAD SWAP1 POP CODESIZE DUP1 PUSH2 0x3F46 JUMP JUMPDEST PUSH1 0x1F NOT DUP4 AND SWAP2 PUSH2 0x3F7A DUP6 PUSH1 0x0 MSTORE PUSH1 0x20 PUSH1 0x0 KECCAK256 SWAP1 JUMP JUMPDEST SWAP3 PUSH1 0x0 JUMPDEST DUP2 DUP2 LT PUSH2 0x3FB8 JUMPI POP SWAP2 PUSH1 0x2 SWAP4 SWAP2 DUP6 PUSH1 0x1 SWAP7 SWAP5 LT PUSH2 0x3F9F JUMPI JUMPDEST POP POP POP MUL ADD SWAP1 SSTORE JUMP JUMPDEST ADD MLOAD PUSH1 0x0 NOT PUSH1 0x8 PUSH1 0x1F DUP6 AND MUL SHR NOT AND SWAP1 SSTORE CODESIZE DUP1 DUP1 PUSH2 0x3F96 JUMP JUMPDEST SWAP2 SWAP4 PUSH1 0x20 PUSH1 0x1 DUP2 SWAP3 DUP8 DUP8 ADD MLOAD DUP2 SSTORE ADD SWAP6 ADD SWAP3 ADD PUSH2 0x3F7E JUMP JUMPDEST SWAP1 PUSH2 0x293 SWAP2 PUSH2 0x3EFE JUMP JUMPDEST PUSH1 0x3 PUSH2 0x4027 PUSH1 0x60 PUSH2 0x293 SWAP5 PUSH2 0x3FF9 PUSH2 0x3FF3 PUSH1 0x0 DUP4 ADD MLOAD SWAP1 JUMP JUMPDEST DUP7 PUSH2 0x3FD0 JUMP JUMPDEST PUSH2 0x4010 PUSH2 0x4007 PUSH1 0x20 DUP4 ADD MLOAD SWAP1 JUMP JUMPDEST PUSH1 0x1 DUP8 ADD PUSH2 0x3FD0 JUMP JUMPDEST PUSH2 0x1D62 PUSH2 0x401E PUSH1 0x40 DUP4 ADD MLOAD SWAP1 JUMP JUMPDEST PUSH1 0x2 DUP8 ADD PUSH2 0x3FD0 JUMP JUMPDEST SWAP2 ADD PUSH2 0x3FD0 JUMP JUMPDEST SWAP1 PUSH2 0x293 SWAP2 PUSH2 0x3FDA JUMP JUMPDEST PUSH1 0x3 PUSH2 0x1D67 PUSH1 0x60 PUSH2 0x293 SWAP5 PUSH2 0x4057 PUSH2 0x4051 PUSH1 0x0 DUP4 ADD MLOAD SWAP1 JUMP JUMPDEST DUP7 PUSH2 0x1CA7 JUMP JUMPDEST PUSH2 0x4065 PUSH2 0x1D42 PUSH1 0x20 DUP4 ADD MLOAD SWAP1 JUMP JUMPDEST PUSH2 0x1D62 PUSH2 0x4075 PUSH1 0x40 DUP4 ADD MLOAD ISZERO ISZERO SWAP1 JUMP JUMPDEST PUSH1 0x2 DUP8 ADD PUSH2 0x1F29 JUMP JUMPDEST SWAP1 PUSH2 0x293 SWAP2 PUSH2 0x4038 JUMP JUMPDEST PUSH1 0x2 PUSH2 0x1D67 PUSH1 0x40 PUSH2 0x293 SWAP5 PUSH2 0x40A9 PUSH2 0x40A3 PUSH1 0x0 DUP4 ADD MLOAD ISZERO ISZERO SWAP1 JUMP JUMPDEST DUP7 PUSH2 0x1F29 JUMP JUMPDEST PUSH2 0x1D62 PUSH2 0x1D42 PUSH1 0x20 DUP4 ADD MLOAD SWAP1 JUMP JUMPDEST SWAP1 PUSH2 0x293 SWAP2 PUSH2 0x4088 JUMP JUMPDEST PUSH1 0x2 PUSH2 0x1D67 PUSH1 0x40 PUSH2 0x293 SWAP5 PUSH2 0x40DA PUSH2 0x3FF3 PUSH1 0x0 DUP4 ADD MLOAD SWAP1 JUMP JUMPDEST PUSH2 0x1D62 PUSH2 0x4007 PUSH1 0x20 DUP4 ADD MLOAD SWAP1 JUMP JUMPDEST SWAP1 PUSH2 0x293 SWAP2 PUSH2 0x40C1 JUMP JUMPDEST POP DUP1 MLOAD MLOAD MLOAD PUSH2 0x2A9 SWAP2 PUSH2 0x4113 PUSH1 0x0 SWAP3 PUSH2 0x410D PUSH2 0x2329 DUP6 PUSH2 0x43D JUMP JUMPDEST GT PUSH2 0x3D67 JUMP JUMPDEST PUSH1 0x80 PUSH1 0x20 DUP3 ADD SWAP2 PUSH2 0x4140 PUSH2 0x4129 PUSH1 0x20 DUP6 MLOAD ADD MLOAD SWAP1 JUMP JUMPDEST PUSH2 0x413A PUSH2 0x2329 PUSH2 0x2A9 DUP9 DUP9 MLOAD ADD MLOAD SWAP1 JUMP JUMPDEST GT PUSH2 0x3DB3 JUMP JUMPDEST PUSH2 0x4171 PUSH2 0x415C PUSH2 0x4152 PUSH1 0x20 DUP7 MLOAD ADD MLOAD SWAP1 JUMP JUMPDEST DUP6 MLOAD DUP8 ADD MLOAD SWAP1 SUB SWAP1 JUMP JUMPDEST PUSH2 0x416A PUSH2 0x2329 PUSH2 0x2A9 PUSH2 0xD33 JUMP JUMPDEST LT ISZERO PUSH2 0x3DEE JUMP JUMPDEST PUSH2 0x41A4 PUSH2 0x4180 PUSH1 0x60 DUP6 MLOAD ADD MLOAD SWAP1 JUMP JUMPDEST PUSH2 0x419D PUSH2 0x2329 PUSH2 0x2A9 PUSH2 0x4195 PUSH1 0x20 DUP10 MLOAD ADD MLOAD SWAP1 JUMP JUMPDEST PUSH2 0x639 PUSH2 0xBC8 JUMP JUMPDEST LT ISZERO PUSH2 0x3E3A JUMP JUMPDEST PUSH2 0x4242 PUSH2 0x41B1 PUSH1 0x3 PUSH2 0x45B JUMP JUMPDEST SWAP5 PUSH2 0x41C5 PUSH2 0x41BE DUP8 PUSH2 0x1C83 JUMP JUMPDEST PUSH1 0x3 PUSH2 0x1CA7 JUMP JUMPDEST PUSH2 0x41F0 PUSH2 0x41D6 PUSH2 0x2A9 DUP9 PUSH1 0x2 PUSH2 0x44A JUMP JUMPDEST SWAP6 PUSH2 0x41E6 DUP4 DUP7 ADD MLOAD DUP5 DUP10 ADD PUSH2 0x402E JUMP JUMPDEST MLOAD PUSH1 0x4 DUP8 ADD PUSH2 0x407E JUMP JUMPDEST PUSH2 0x4201 PUSH1 0x40 DUP5 ADD MLOAD PUSH1 0x8 DUP8 ADD PUSH2 0x40B7 JUMP JUMPDEST PUSH2 0x4212 PUSH1 0x60 DUP5 ADD MLOAD PUSH1 0xB DUP8 ADD PUSH2 0x40E8 JUMP JUMPDEST PUSH1 0x2 PUSH2 0x422E PUSH1 0xE DUP8 ADD SWAP3 PUSH2 0x1EDC DUP2 DUP1 DUP7 ADD PUSH2 0x2570 PUSH1 0x1 DUP3 PUSH2 0x1F29 JUMP JUMPDEST SWAP2 PUSH2 0x423C DUP4 PUSH1 0x1 DUP4 ADD PUSH2 0x1CA7 JUMP JUMPDEST ADD PUSH2 0x1CA7 JUMP JUMPDEST ADD MLOAD SWAP2 PUSH2 0x5194 JUMP JUMPDEST PUSH2 0x2A9 SWAP1 PUSH1 0x0 PUSH2 0x3D37 JUMP JUMPDEST SWAP1 PUSH2 0x2A9 SWAP4 SWAP3 SWAP2 PUSH2 0x426D PUSH2 0x2201 PUSH2 0x2100 CALLER PUSH1 0xF PUSH2 0x579 JUMP JUMPDEST SWAP1 PUSH2 0x1BF4 SWAP4 SWAP3 SWAP2 PUSH2 0x427C PUSH2 0x47B9 JUMP JUMPDEST SWAP1 PUSH2 0x2A9 SWAP4 SWAP3 SWAP2 PUSH2 0x4293 PUSH2 0x1C63 PUSH2 0x1C5F PUSH1 0xE PUSH2 0x870 JUMP JUMPDEST PUSH2 0x4307 JUMP JUMPDEST ISZERO PUSH2 0x429F JUMPI JUMP JUMPDEST PUSH1 0x40 MLOAD PUSH3 0x461BCD PUSH1 0xE5 SHL DUP2 MSTORE PUSH1 0x20 PUSH1 0x4 DUP3 ADD MSTORE PUSH1 0x19 PUSH1 0x24 DUP3 ADD MSTORE PUSH32 0x53544152545F494E4445585F4F55545F4F465F424F554E445300000000000000 PUSH1 0x44 DUP3 ADD MSTORE PUSH1 0x64 SWAP1 REVERT JUMPDEST SWAP2 SWAP1 PUSH2 0x42EF JUMP JUMPDEST SWAP3 SWAP1 JUMP JUMPDEST DUP3 ADD DUP1 SWAP3 GT PUSH2 0x1C92 JUMPI JUMP JUMPDEST SWAP2 SWAP1 DUP3 SUB SWAP2 DUP3 GT PUSH2 0x1C92 JUMPI JUMP JUMPDEST POP SWAP2 SWAP3 SWAP2 SWAP1 PUSH2 0x431A PUSH2 0x2A9 DUP4 PUSH1 0x2 PUSH2 0x44A JUMP JUMPDEST PUSH2 0x432C PUSH2 0x2542 PUSH2 0x1C5F PUSH1 0xE DUP5 ADD PUSH2 0x942 JUMP JUMPDEST PUSH2 0x4346 PUSH2 0x433E PUSH2 0x2A9 PUSH1 0x7 DUP5 ADD PUSH2 0x45B JUMP JUMPDEST TIMESTAMP LT ISZERO PUSH2 0x3C2F JUMP JUMPDEST PUSH2 0x4385 DUP3 PUSH2 0x4358 PUSH2 0x30BF DUP7 PUSH1 0x6 PUSH2 0x44A JUMP JUMPDEST SWAP7 PUSH2 0x4376 PUSH2 0x4364 DUP10 MLOAD SWAP1 JUMP JUMPDEST SWAP2 PUSH2 0x4370 DUP4 DUP6 LT PUSH2 0x4298 JUMP JUMPDEST DUP4 PUSH2 0x42E4 JUMP JUMPDEST SWAP1 DUP1 DUP3 GT PUSH2 0x43F3 JUMPI JUMPDEST POP PUSH2 0x42FA JUMP JUMPDEST SWAP5 PUSH2 0x438F DUP7 PUSH2 0x37FE JUMP JUMPDEST SWAP5 PUSH2 0x439A PUSH1 0x0 PUSH2 0x43D JUMP JUMPDEST DUP8 JUMPDEST DUP2 LT ISZERO PUSH2 0x43E9 JUMPI PUSH2 0x43E2 DUP2 PUSH2 0x43DC PUSH2 0x43D2 DUP10 PUSH2 0x43C7 PUSH2 0x30FB PUSH2 0x43C1 PUSH2 0x439C SWAP9 DUP14 PUSH2 0x42E4 JUMP JUMPDEST DUP11 PUSH2 0x301C JUMP JUMPDEST DUP10 PUSH2 0x3D0B DUP7 DUP14 PUSH2 0x42E4 JUMP JUMPDEST PUSH2 0x398E DUP4 DUP13 PUSH2 0x301C JUMP JUMPDEST PUSH1 0x1 ADD SWAP1 JUMP JUMPDEST SWAP1 POP PUSH2 0x439A JUMP JUMPDEST POP SWAP6 POP POP POP POP POP SWAP1 JUMP JUMPDEST SWAP1 POP CODESIZE PUSH2 0x437F JUMP JUMPDEST PUSH2 0x2A9 SWAP3 SWAP2 SWAP1 PUSH1 0x60 PUSH2 0x4255 JUMP JUMPDEST PUSH2 0x2A9 PUSH1 0xC0 PUSH2 0x609 JUMP JUMPDEST PUSH2 0x441A PUSH2 0x802 JUMP JUMPDEST SWAP1 PUSH1 0x60 DUP3 MSTORE PUSH1 0x20 DUP1 DUP1 DUP1 DUP6 ADD PUSH1 0x60 DUP2 MSTORE ADD PUSH1 0x60 JUMPDEST DUP2 MSTORE ADD PUSH1 0x60 SWAP1 MSTORE POP JUMP JUMPDEST PUSH2 0x2A9 PUSH2 0x4412 JUMP JUMPDEST PUSH2 0x4448 PUSH2 0x802 JUMP JUMPDEST SWAP1 PUSH1 0x0 DUP3 MSTORE PUSH1 0x20 DUP1 DUP1 DUP1 DUP6 ADD PUSH1 0x0 PUSH2 0x2E12 JUMP JUMPDEST PUSH2 0x2A9 PUSH2 0x4440 JUMP JUMPDEST PUSH2 0x446B PUSH2 0x8C5 JUMP JUMPDEST SWAP1 PUSH1 0x0 DUP3 MSTORE PUSH1 0x20 DUP1 DUP1 DUP5 ADD PUSH1 0x0 PUSH2 0x2E18 JUMP JUMPDEST PUSH2 0x2A9 PUSH2 0x4463 JUMP JUMPDEST PUSH2 0x448D PUSH2 0x8C5 JUMP JUMPDEST SWAP1 PUSH1 0x60 DUP3 MSTORE PUSH1 0x20 DUP1 DUP1 DUP5 ADD PUSH1 0x60 PUSH2 0x2E18 JUMP JUMPDEST PUSH2 0x2A9 PUSH2 0x4485 JUMP JUMPDEST PUSH2 0x44AF PUSH2 0x4408 JUMP JUMPDEST SWAP1 PUSH2 0x44B8 PUSH2 0x4438 JUMP JUMPDEST DUP3 MSTORE PUSH1 0x20 DUP1 DUP1 DUP1 DUP1 DUP1 DUP8 ADD PUSH2 0x44CB PUSH2 0x445B JUMP JUMPDEST DUP2 MSTORE ADD PUSH2 0x44D6 PUSH2 0x447D JUMP JUMPDEST DUP2 MSTORE ADD PUSH2 0x44E1 PUSH2 0x449F JUMP JUMPDEST DUP2 MSTORE ADD PUSH2 0x442E PUSH2 0x445B JUMP JUMPDEST PUSH2 0x2A9 PUSH2 0x44A7 JUMP JUMPDEST SWAP1 PUSH2 0x2E7 SWAP1 PUSH2 0x1906 JUMP JUMPDEST PUSH2 0x2A9 SWAP1 PUSH1 0x8 SHR PUSH2 0x31A JUMP JUMPDEST PUSH2 0x2A9 SWAP1 SLOAD PUSH2 0x44FE JUMP JUMPDEST PUSH2 0x2A9 PUSH2 0x1C0 PUSH2 0x609 JUMP JUMPDEST SWAP1 PUSH2 0x293 PUSH2 0x4640 PUSH1 0xC PUSH2 0x4530 PUSH2 0x4514 JUMP JUMPDEST SWAP5 PUSH2 0x4543 PUSH2 0x453D DUP3 PUSH2 0x870 JUMP JUMPDEST DUP8 PUSH2 0x44F4 JUMP JUMPDEST PUSH2 0x455F PUSH2 0x454F DUP3 PUSH2 0x450A JUMP JUMPDEST PUSH1 0x1 PUSH1 0x1 PUSH1 0xA0 SHL SUB AND PUSH1 0x20 DUP9 ADD MSTORE JUMP JUMPDEST PUSH2 0x456E PUSH2 0x853 PUSH1 0x1 DUP4 ADD PUSH2 0x45B JUMP JUMPDEST PUSH2 0x457D PUSH2 0x2E7A PUSH1 0x2 DUP4 ADD PUSH2 0x45B JUMP JUMPDEST PUSH2 0x458C PUSH2 0x2E90 PUSH1 0x3 DUP4 ADD PUSH2 0x45B JUMP JUMPDEST PUSH2 0x459B PUSH2 0x2EA6 PUSH1 0x4 DUP4 ADD PUSH2 0x45B JUMP JUMPDEST PUSH2 0x45B1 PUSH2 0x45AA PUSH1 0x5 DUP4 ADD PUSH2 0x45B JUMP JUMPDEST PUSH1 0xC0 DUP9 ADD MSTORE JUMP JUMPDEST PUSH2 0x45C7 PUSH2 0x45C0 PUSH1 0x6 DUP4 ADD PUSH2 0x45B JUMP JUMPDEST PUSH1 0xE0 DUP9 ADD MSTORE JUMP JUMPDEST PUSH2 0x45DE PUSH2 0x45D6 PUSH1 0x7 DUP4 ADD PUSH2 0x7E1 JUMP JUMPDEST PUSH2 0x100 DUP9 ADD MSTORE JUMP JUMPDEST PUSH2 0x45F5 PUSH2 0x45ED PUSH1 0x8 DUP4 ADD PUSH2 0x7E1 JUMP JUMPDEST PUSH2 0x120 DUP9 ADD MSTORE JUMP JUMPDEST PUSH2 0x460C PUSH2 0x4604 PUSH1 0x9 DUP4 ADD PUSH2 0x7E1 JUMP JUMPDEST PUSH2 0x140 DUP9 ADD MSTORE JUMP JUMPDEST PUSH2 0x4623 PUSH2 0x461B PUSH1 0xA DUP4 ADD PUSH2 0x7E1 JUMP JUMPDEST PUSH2 0x160 DUP9 ADD MSTORE JUMP JUMPDEST PUSH2 0x463A PUSH2 0x4632 PUSH1 0xB DUP4 ADD PUSH2 0x7E1 JUMP JUMPDEST PUSH2 0x180 DUP9 ADD MSTORE JUMP JUMPDEST ADD PUSH2 0x2FF9 JUMP JUMPDEST PUSH2 0x1A0 DUP5 ADD MSTORE JUMP JUMPDEST PUSH2 0x2A9 SWAP1 PUSH2 0x451F JUMP JUMPDEST SWAP1 PUSH2 0x465A DUP3 SLOAD SWAP1 JUMP JUMPDEST PUSH2 0x4663 DUP2 PUSH2 0x2F01 JUMP JUMPDEST SWAP3 PUSH2 0x4677 PUSH1 0x20 DUP6 ADD SWAP2 PUSH1 0x0 MSTORE PUSH1 0x20 PUSH1 0x0 KECCAK256 SWAP1 JUMP JUMPDEST PUSH1 0x0 SWAP2 JUMPDEST DUP4 DUP4 LT PUSH2 0x4688 JUMPI POP POP POP POP JUMP JUMPDEST PUSH1 0xD PUSH1 0x20 PUSH1 0x1 SWAP3 PUSH2 0x4698 DUP6 PUSH2 0x4648 JUMP JUMPDEST DUP2 MSTORE ADD SWAP3 ADD SWAP3 ADD SWAP2 SWAP1 PUSH2 0x467B JUMP JUMPDEST SWAP1 PUSH2 0x293 PUSH2 0x4706 PUSH1 0x11 PUSH2 0x46B7 PUSH2 0x4408 JUMP JUMPDEST SWAP5 PUSH2 0x46C4 PUSH2 0x82A DUP3 PUSH2 0x80C JUMP JUMPDEST PUSH2 0x46D3 PUSH2 0x83D PUSH1 0x4 DUP4 ADD PUSH2 0x87A JUMP JUMPDEST PUSH2 0x46E2 PUSH2 0x853 PUSH1 0x8 DUP4 ADD PUSH2 0x8CF JUMP JUMPDEST PUSH2 0x46F1 PUSH2 0x2E7A PUSH1 0xB DUP4 ADD PUSH2 0x909 JUMP JUMPDEST PUSH2 0x4700 PUSH2 0x2E90 PUSH1 0xE DUP4 ADD PUSH2 0x94C JUMP JUMPDEST ADD PUSH2 0x4651 JUMP JUMPDEST PUSH1 0xA0 DUP5 ADD MSTORE JUMP JUMPDEST PUSH2 0x2A9 SWAP1 PUSH2 0x46A6 JUMP JUMPDEST PUSH2 0x4749 PUSH2 0x2A9 SWAP2 PUSH2 0x4725 PUSH2 0x44EC JUMP JUMPDEST POP PUSH2 0x4742 PUSH2 0x3BD1 PUSH1 0x0 PUSH1 0x4 PUSH2 0x473B DUP6 PUSH1 0x2 PUSH2 0x44A JUMP JUMPDEST ADD ADD PUSH2 0x45B JUMP JUMPDEST PUSH1 0x2 PUSH2 0x44A JUMP JUMPDEST PUSH2 0x470D JUMP JUMPDEST PUSH2 0x293 SWAP1 PUSH2 0x475A PUSH2 0x4AFD JUMP JUMPDEST PUSH1 0x0 PUSH2 0x4765 DUP2 PUSH2 0x1FF1 JUMP JUMPDEST PUSH1 0x1 PUSH1 0x1 PUSH1 0xA0 SHL SUB DUP2 AND PUSH1 0x1 PUSH1 0x1 PUSH1 0xA0 SHL SUB DUP5 AND EQ PUSH2 0x4789 JUMPI POP POP PUSH2 0x293 SWAP1 PUSH2 0x4B47 JUMP JUMPDEST PUSH4 0x1E4FBDF7 PUSH1 0xE0 SHL DUP3 MSTORE PUSH1 0x1 PUSH1 0x1 PUSH1 0xA0 SHL SUB AND PUSH1 0x4 DUP3 ADD MSTORE PUSH1 0x24 SWAP1 REVERT JUMPDEST PUSH2 0x293 SWAP1 PUSH2 0x474E JUMP JUMPDEST PUSH2 0x2A9 PUSH1 0x2 PUSH2 0x43D JUMP JUMPDEST PUSH2 0x47C3 PUSH1 0x0 PUSH2 0x45B JUMP JUMPDEST PUSH2 0x47CB PUSH2 0x47AF JUMP JUMPDEST SWAP1 DUP2 EQ PUSH2 0x47DD JUMPI PUSH2 0x293 SWAP1 PUSH1 0x0 PUSH2 0x1CA7 JUMP JUMPDEST PUSH4 0x3EE5AEB5 PUSH1 0xE0 SHL PUSH1 0x0 SWAP1 DUP2 MSTORE PUSH1 0x4 SWAP1 REVERT JUMPDEST PUSH2 0x2A9 PUSH1 0x1 PUSH2 0x43D JUMP JUMPDEST PUSH2 0x293 PUSH2 0x4804 PUSH2 0x47EF JUMP JUMPDEST PUSH1 0x0 PUSH2 0x1CA7 JUMP JUMPDEST ISZERO PUSH2 0x4812 JUMPI JUMP JUMPDEST PUSH1 0x40 MLOAD PUSH3 0x461BCD PUSH1 0xE5 SHL DUP2 MSTORE PUSH1 0x20 PUSH1 0x4 DUP3 ADD MSTORE PUSH1 0x11 PUSH1 0x24 DUP3 ADD MSTORE PUSH32 0x494E5354414E545F445241575F4F4E4C59000000000000000000000000000000 PUSH1 0x44 DUP3 ADD MSTORE PUSH1 0x64 SWAP1 REVERT JUMPDEST ISZERO PUSH2 0x485E JUMPI JUMP JUMPDEST PUSH1 0x40 MLOAD PUSH3 0x461BCD PUSH1 0xE5 SHL DUP2 MSTORE PUSH1 0x20 PUSH1 0x4 DUP3 ADD MSTORE PUSH1 0x12 PUSH1 0x24 DUP3 ADD MSTORE PUSH32 0x524146464C455F4E4F545F535441525445440000000000000000000000000000 PUSH1 0x44 DUP3 ADD MSTORE PUSH1 0x64 SWAP1 REVERT JUMPDEST ISZERO PUSH2 0x48AA JUMPI JUMP JUMPDEST PUSH1 0x40 MLOAD PUSH3 0x461BCD PUSH1 0xE5 SHL DUP2 MSTORE PUSH1 0x20 PUSH1 0x4 DUP3 ADD MSTORE PUSH1 0x1B PUSH1 0x24 DUP3 ADD MSTORE PUSH32 0x50415254494349504154494F4E5F4C494D49545F524541434845440000000000 PUSH1 0x44 DUP3 ADD MSTORE PUSH1 0x64 SWAP1 REVERT JUMPDEST SWAP2 SWAP1 PUSH2 0x48FC DUP4 PUSH1 0x2 PUSH2 0x44A JUMP JUMPDEST PUSH1 0x4 DUP2 ADD PUSH2 0x4909 DUP2 PUSH2 0x45B JUMP JUMPDEST PUSH1 0x0 SWAP5 DUP6 SWAP2 PUSH2 0x4917 DUP4 PUSH2 0x43D JUMP JUMPDEST LT PUSH2 0x4921 SWAP1 PUSH2 0x2220 JUMP JUMPDEST PUSH2 0x49BD SWAP4 PUSH2 0x4993 PUSH2 0x498B PUSH2 0x2A9 PUSH1 0x1 PUSH2 0x49B7 SWAP8 PUSH2 0x8BF PUSH2 0x4983 PUSH2 0x2A9 PUSH1 0x2 SWAP11 PUSH1 0x8 SWAP11 PUSH2 0x4A0B JUMPI JUMPDEST PUSH2 0x497C PUSH2 0x4970 DUP14 PUSH1 0xE DUP14 ADD PUSH2 0x8BF PUSH2 0x496B PUSH2 0x1C5F DUP8 DUP5 ADD PUSH2 0x253D PUSH2 0x2538 DUP3 PUSH2 0x870 JUMP JUMPDEST PUSH2 0x3C67 JUMP JUMPDEST PUSH2 0x3CFB PUSH2 0x2329 DUP5 PUSH2 0x43D JUMP JUMPDEST DUP5 ADD PUSH2 0x45B JUMP JUMPDEST TIMESTAMP LT ISZERO PUSH2 0x4857 JUMP JUMPDEST TIMESTAMP GT ISZERO PUSH2 0x3C67 JUMP JUMPDEST ADD PUSH2 0x49A0 PUSH1 0x1 DUP3 ADD PUSH2 0x45B JUMP JUMPDEST PUSH2 0x49A9 DUP8 PUSH2 0x43D JUMP JUMPDEST DUP2 GT PUSH2 0x49E9 JUMPI JUMPDEST POP ADD PUSH2 0x45B JUMP JUMPDEST SWAP3 PUSH2 0x43D JUMP JUMPDEST DUP3 GT PUSH2 0x49C8 JUMPI POP POP POP JUMP JUMPDEST PUSH2 0x2329 PUSH2 0x42EB PUSH2 0x1FCE PUSH2 0x49E3 SWAP4 PUSH2 0xE6D PUSH2 0x293 SWAP8 PUSH1 0x7 PUSH2 0x44A JUMP JUMPDEST LT PUSH2 0x48A3 JUMP JUMPDEST PUSH2 0x4A05 SWAP1 PUSH2 0x49E3 PUSH2 0x2329 PUSH2 0x42EB PUSH2 0x4A01 DUP13 PUSH1 0x6 PUSH2 0x44A JUMP JUMPDEST SLOAD SWAP1 JUMP JUMPDEST CODESIZE PUSH2 0x49B0 JUMP JUMPDEST PUSH2 0x4A1E PUSH2 0x4A19 DUP14 DUP8 ADD PUSH2 0x870 JUMP JUMPDEST PUSH2 0x480B JUMP JUMPDEST PUSH2 0x4948 JUMP JUMPDEST SWAP8 SWAP6 SWAP4 SWAP2 SWAP11 SWAP10 SWAP9 SWAP7 SWAP5 SWAP3 SWAP1 SWAP11 PUSH2 0x140 DUP10 ADD SWAP12 PUSH1 0x0 DUP11 ADD PUSH2 0x4A4A SWAP2 PUSH1 0x1 PUSH1 0x1 PUSH1 0xA0 SHL SUB AND SWAP1 MSTORE JUMP JUMPDEST PUSH1 0x20 DUP10 ADD MSTORE PUSH1 0x40 DUP9 ADD MSTORE PUSH1 0x60 DUP8 ADD MSTORE PUSH1 0x80 DUP7 ADD MSTORE PUSH1 0xA0 DUP6 ADD MSTORE PUSH1 0xC0 DUP5 ADD MSTORE PUSH1 0x1 PUSH1 0x1 PUSH1 0xA0 SHL SUB AND PUSH1 0xE0 DUP4 ADD MSTORE PUSH1 0x1 PUSH1 0x1 PUSH1 0xA0 SHL SUB AND PUSH2 0x100 DUP3 ADD MSTORE PUSH2 0x120 ADD MSTORE JUMP JUMPDEST SWAP2 PUSH2 0x4AE7 SWAP2 PUSH2 0x4ADB PUSH2 0x4AA7 PUSH2 0x4AA1 PUSH1 0x1 PUSH2 0x43D JUMP JUMPDEST NUMBER PUSH2 0x42FA JUMP JUMPDEST SWAP5 PUSH2 0x4AB5 PUSH2 0x4AA1 PUSH1 0x2 PUSH2 0x43D JUMP JUMPDEST SWAP1 GAS SWAP2 PUSH2 0x4AC1 PUSH1 0x40 MLOAD SWAP1 JUMP JUMPDEST SWAP8 DUP9 SWAP7 PUSH1 0x20 DUP9 ADD SWAP7 ORIGIN SWAP5 COINBASE SWAP5 BLOCKHASH SWAP4 BLOCKHASH SWAP3 PREVRANDAO SWAP3 TIMESTAMP SWAP3 DUP12 PUSH2 0x4A23 JUMP JUMPDEST SWAP1 DUP2 SUB DUP3 MSTORE SUB DUP3 PUSH2 0x5E3 JUMP JUMPDEST PUSH2 0x4AF9 PUSH2 0x4AF2 DUP3 MLOAD SWAP1 JUMP JUMPDEST SWAP2 PUSH1 0x20 ADD SWAP1 JUMP JUMPDEST KECCAK256 SWAP1 JUMP JUMPDEST PUSH1 0x1 SLOAD PUSH1 0x1 PUSH1 0x1 PUSH1 0xA0 SHL SUB AND CALLER SWAP1 PUSH2 0x4B1D DUP3 JUMPDEST SWAP2 PUSH1 0x1 PUSH1 0x1 PUSH1 0xA0 SHL SUB AND SWAP1 JUMP JUMPDEST SUB PUSH2 0x4B25 JUMPI POP JUMP JUMPDEST PUSH4 0x118CDAA7 PUSH1 0xE0 SHL PUSH1 0x0 SWAP1 DUP2 MSTORE PUSH1 0x1 PUSH1 0x1 PUSH1 0xA0 SHL SUB SWAP1 SWAP2 AND PUSH1 0x4 MSTORE PUSH1 0x24 SUB PUSH1 0x0 REVERT JUMPDEST PUSH2 0x4B6A PUSH2 0x2D47 PUSH2 0x4B5F PUSH1 0x1 SLOAD PUSH1 0x1 PUSH1 0x1 PUSH1 0xA0 SHL SUB AND SWAP1 JUMP JUMPDEST PUSH2 0x2148 DUP5 PUSH1 0x1 PUSH2 0x1CE7 JUMP JUMPDEST SWAP1 PUSH32 0x8BE0079C531659141344CD1FD0A4F28419497F9722A3DAAFE3B4186F6B6457E0 PUSH2 0x4B95 PUSH1 0x40 MLOAD SWAP1 JUMP JUMPDEST DUP1 DUP1 PUSH2 0x2398 JUMP JUMPDEST PUSH2 0x2A9 SWAP1 PUSH2 0x1E98 PUSH2 0x2A9 PUSH2 0x4C1D SWAP5 PUSH2 0x4BB2 PUSH1 0x0 SWAP1 JUMP JUMPDEST POP PUSH2 0xE6D PUSH2 0x4BCA PUSH2 0x4BC3 PUSH1 0x5 PUSH2 0x45B JUMP JUMPDEST DUP7 DUP5 PUSH2 0x4A8C JUMP JUMPDEST SWAP5 PUSH2 0x4BD5 PUSH1 0x5 PUSH2 0x45B JUMP JUMPDEST SWAP8 DUP9 SWAP7 PUSH2 0x4BE4 PUSH2 0x1E37 DUP10 PUSH2 0x1C83 JUMP JUMPDEST PUSH2 0x4C07 PUSH2 0x4BEF PUSH2 0x802 JUMP JUMPDEST PUSH1 0x1 PUSH1 0x1 PUSH1 0xA0 SHL SUB DUP8 AND DUP2 MSTORE SWAP2 PUSH2 0x4D9 DUP6 PUSH1 0x20 DUP6 ADD MSTORE JUMP JUMPDEST PUSH2 0x4C12 TIMESTAMP PUSH1 0x60 DUP4 ADD MSTORE JUMP JUMPDEST PUSH2 0x1E81 DUP9 PUSH1 0x4 PUSH2 0x44A JUMP JUMPDEST PUSH2 0x4C2F DUP7 PUSH2 0x1E98 PUSH2 0x2A9 DUP5 PUSH1 0x6 PUSH2 0x44A JUMP JUMPDEST PUSH2 0x4C41 PUSH2 0x1EAF DUP5 PUSH2 0xE6D DUP5 PUSH1 0x7 PUSH2 0x44A JUMP JUMPDEST PUSH1 0x8 PUSH2 0x44A JUMP JUMPDEST SWAP2 SWAP1 PUSH2 0x4C56 PUSH1 0x8 DUP5 ADD PUSH2 0x870 JUMP JUMPDEST ISZERO PUSH2 0x4C64 JUMPI PUSH2 0x2A9 SWAP3 PUSH2 0x5391 JUMP JUMPDEST SWAP1 PUSH2 0x2A9 SWAP3 POP PUSH2 0x52B2 JUMP JUMPDEST ISZERO PUSH2 0x4C76 JUMPI JUMP JUMPDEST PUSH1 0x40 MLOAD PUSH3 0x461BCD PUSH1 0xE5 SHL DUP2 MSTORE PUSH1 0x20 PUSH1 0x4 DUP3 ADD MSTORE PUSH1 0x13 PUSH1 0x24 DUP3 ADD MSTORE PUSH32 0x494E56414C49445F5041525449434950414E5400000000000000000000000000 PUSH1 0x44 DUP3 ADD MSTORE PUSH1 0x64 SWAP1 REVERT JUMPDEST SWAP1 SWAP6 SWAP5 SWAP3 PUSH2 0x293 SWAP5 PUSH2 0x1428 PUSH2 0x4E0 SWAP3 PUSH2 0x3140 PUSH1 0x80 SWAP7 PUSH2 0x3139 PUSH1 0xA0 DUP9 ADD SWAP13 PUSH1 0x0 DUP10 ADD MSTORE JUMP JUMPDEST SWAP1 SWAP3 SWAP1 SWAP2 PUSH2 0x4CF1 PUSH2 0x2C0A DUP5 PUSH1 0x4 PUSH2 0x44A JUMP JUMPDEST DUP1 MLOAD PUSH1 0x1 PUSH1 0x1 PUSH1 0xA0 SHL SUB AND SWAP5 PUSH2 0x4D19 PUSH1 0x0 SWAP7 PUSH2 0x4D12 PUSH2 0x4B10 PUSH2 0x31A DUP11 PUSH2 0x1FF1 JUMP JUMPDEST EQ ISZERO PUSH2 0x4C6F JUMP JUMPDEST PUSH2 0x4D45 PUSH2 0x2C1E DUP8 DUP5 ADD SWAP5 DUP7 PUSH2 0x4D3F PUSH2 0x4D38 DUP9 MLOAD PUSH1 0x1 PUSH1 0x1 PUSH1 0xA0 SHL SUB AND SWAP1 JUMP JUMPDEST SWAP3 DUP11 PUSH2 0x42E4 JUMP JUMPDEST SWAP2 PUSH2 0x4A8C JUMP JUMPDEST SWAP6 PUSH1 0xE DUP3 ADD SWAP1 PUSH2 0x4D5C PUSH1 0x1 DUP4 ADD SWAP9 PUSH2 0x2C3D DUP11 PUSH2 0x45B JUMP JUMPDEST SWAP3 PUSH2 0x4D68 DUP8 DUP6 DUP4 PUSH2 0x4C48 JUMP JUMPDEST SWAP9 DUP2 PUSH2 0x4D79 DUP5 PUSH1 0x8 DUP14 SWAP6 ADD ADD PUSH2 0x870 JUMP JUMPDEST PUSH2 0x4F0E JUMPI JUMPDEST POP POP POP PUSH2 0x4D8B PUSH1 0xB PUSH2 0x45B JUMP JUMPDEST SWAP2 PUSH2 0x4D95 DUP4 PUSH2 0x1C83 JUMP JUMPDEST PUSH2 0x4DA0 SWAP1 PUSH1 0xB PUSH2 0x1CA7 JUMP JUMPDEST PUSH1 0x40 DUP6 ADD SWAP7 PUSH2 0x4DAD DUP9 MLOAD SWAP1 JUMP JUMPDEST SWAP1 PUSH2 0x4DBF DUP9 MLOAD PUSH1 0x1 PUSH1 0x1 PUSH1 0xA0 SHL SUB AND SWAP1 JUMP JUMPDEST SWAP2 PUSH2 0x4DC8 PUSH2 0x2B06 JUMP JUMPDEST PUSH1 0x1 PUSH1 0x1 PUSH1 0xA0 SHL SUB SWAP1 SWAP4 AND DUP6 DUP5 ADD MSTORE DUP5 ISZERO ISZERO PUSH1 0x20 DUP5 ADD MSTORE PUSH1 0x40 DUP4 ADD MSTORE PUSH1 0x60 DUP3 ADD MSTORE PUSH2 0x4DF4 DUP11 PUSH1 0x80 DUP4 ADD MSTORE JUMP JUMPDEST PUSH2 0x4DFF TIMESTAMP PUSH1 0xA0 DUP4 ADD MSTORE JUMP JUMPDEST PUSH2 0x4E08 DUP4 PUSH2 0x43D JUMP JUMPDEST SWAP1 PUSH2 0x4E14 DUP3 PUSH1 0xC0 DUP4 ADD MSTORE JUMP JUMPDEST PUSH2 0x4E1F DUP6 PUSH1 0xA PUSH2 0x44A JUMP JUMPDEST SWAP1 PUSH2 0x4E29 SWAP2 PUSH2 0x2BA5 JUMP JUMPDEST DUP4 PUSH2 0x4E32 DUP10 MLOAD SWAP1 JUMP JUMPDEST PUSH2 0x4E3D SWAP1 PUSH1 0x9 PUSH2 0x2AC JUMP JUMPDEST SWAP1 PUSH2 0x4E47 SWAP2 PUSH2 0x1CA7 JUMP JUMPDEST PUSH1 0x2 DUP3 ADD PUSH2 0x4E54 DUP2 PUSH2 0x45B JUMP JUMPDEST PUSH2 0x4E5D SWAP1 PUSH2 0x2AF9 JUMP JUMPDEST PUSH2 0x4E67 SWAP1 DUP3 PUSH2 0x1CA7 JUMP JUMPDEST PUSH2 0x4E70 SWAP1 PUSH2 0x45B JUMP JUMPDEST EQ PUSH2 0x4ED2 PUSH2 0x4ECC PUSH2 0x4EC7 PUSH2 0x4EB9 PUSH1 0x20 PUSH32 0x2120864CCF2C79A4CAD1014109DF7E170CF9E4C2664AB542E5493B272AB68590 SWAP11 PUSH2 0x4EF4 SWAP9 PUSH2 0x4EDE SWAP9 PUSH2 0x4ED8 SWAP9 PUSH2 0x4EFA JUMPI JUMPDEST POP POP ADD MLOAD SWAP1 JUMP JUMPDEST SWAP10 MLOAD PUSH1 0x1 PUSH1 0x1 PUSH1 0xA0 SHL SUB AND SWAP1 JUMP JUMPDEST SWAP10 MLOAD SWAP1 JUMP JUMPDEST SWAP5 PUSH2 0x43D JUMP JUMPDEST SWAP7 PUSH2 0x43D JUMP JUMPDEST SWAP7 PUSH2 0x570 JUMP JUMPDEST SWAP7 PUSH2 0x4EE8 PUSH1 0x40 MLOAD SWAP1 JUMP JUMPDEST SWAP4 DUP5 SWAP4 DUP11 TIMESTAMP SWAP4 DUP7 PUSH2 0x4CBB JUMP JUMPDEST SUB SWAP1 LOG4 SWAP1 JUMP JUMPDEST PUSH2 0x4F07 SWAP2 PUSH1 0x1 SWAP2 ADD PUSH2 0x24B8 JUMP JUMPDEST CODESIZE DUP1 PUSH2 0x4EB2 JUMP JUMPDEST PUSH1 0x2 PUSH2 0x2DB3 PUSH2 0x4F23 SWAP5 PUSH1 0x11 PUSH2 0x2DC1 SWAP5 ADD PUSH2 0x27FC JUMP JUMPDEST DUP8 CODESIZE DUP1 PUSH2 0x4D7E JUMP JUMPDEST PUSH2 0x2A9 SWAP1 MLOAD PUSH2 0x1906 JUMP JUMPDEST SWAP1 PUSH2 0x1F39 PUSH2 0x2A9 PUSH2 0x1CBE SWAP3 PUSH2 0x1910 JUMP JUMPDEST SWAP1 PUSH21 0xFFFFFFFFFFFFFFFFFFFFFFFFFFFFFFFFFFFFFFFF00 SWAP1 PUSH1 0x8 SHL PUSH2 0x1C9D JUMP JUMPDEST SWAP1 PUSH2 0x4F75 PUSH2 0x2A9 PUSH2 0x1CBE SWAP3 PUSH2 0x570 JUMP JUMPDEST DUP3 SLOAD PUSH2 0x4F45 JUMP JUMPDEST SWAP2 SWAP1 SWAP2 DUP3 DUP3 LT PUSH2 0x4F8B JUMPI POP POP POP JUMP JUMPDEST PUSH2 0x293 SWAP3 SWAP2 PUSH2 0x4FA0 SWAP1 SWAP2 PUSH1 0x0 MSTORE PUSH1 0x20 PUSH1 0x0 KECCAK256 SWAP1 JUMP JUMPDEST SWAP2 DUP3 ADD SWAP2 ADD PUSH2 0x3E92 JUMP JUMPDEST SWAP1 PUSH9 0x10000000000000000 DUP2 GT PUSH2 0x604 JUMPI DUP2 PUSH2 0x4FC7 PUSH2 0x293 SWAP4 SLOAD SWAP1 JUMP JUMPDEST SWAP1 DUP3 DUP2 SSTORE PUSH2 0x4F7C JUMP JUMPDEST DUP2 MLOAD SWAP2 PUSH1 0x1 PUSH1 0x1 PUSH1 0x40 SHL SUB DUP4 GT PUSH2 0x604 JUMPI PUSH2 0x4FFA PUSH2 0x2FA6 PUSH1 0x1 SWAP3 PUSH2 0x4FF4 DUP7 DUP7 PUSH2 0x4FAA JUMP JUMPDEST PUSH1 0x20 ADD SWAP1 JUMP JUMPDEST SWAP3 DIV SWAP2 PUSH1 0x0 JUMPDEST DUP4 DUP2 LT PUSH2 0x500D JUMPI POP POP POP POP JUMP JUMPDEST PUSH1 0x1 SWAP1 PUSH1 0x20 PUSH2 0x501D PUSH2 0x2A9 DUP7 MLOAD SWAP1 JUMP JUMPDEST SWAP5 ADD SWAP4 DUP2 DUP5 ADD SSTORE ADD PUSH2 0x5000 JUMP JUMPDEST SWAP1 PUSH2 0x293 SWAP2 PUSH2 0x4FD0 JUMP JUMPDEST PUSH2 0x293 SWAP2 PUSH1 0xC SWAP1 PUSH2 0x514B SWAP1 PUSH2 0x1A0 SWAP1 PUSH2 0x506D DUP6 PUSH2 0x5059 PUSH2 0x5053 DUP5 PUSH2 0x4F2B JUMP JUMPDEST DUP3 PUSH2 0x4F35 JUMP JUMPDEST PUSH1 0x20 DUP4 ADD MLOAD PUSH1 0x1 PUSH1 0x1 PUSH1 0xA0 SHL SUB AND SWAP1 PUSH2 0x4F65 JUMP JUMPDEST PUSH2 0x507B PUSH2 0x1D42 PUSH1 0x40 DUP4 ADD MLOAD SWAP1 JUMP JUMPDEST PUSH2 0x5089 PUSH2 0x2B6E PUSH1 0x60 DUP4 ADD MLOAD SWAP1 JUMP JUMPDEST PUSH2 0x5097 PUSH2 0x2B85 PUSH1 0x80 DUP4 ADD MLOAD SWAP1 JUMP JUMPDEST PUSH2 0x50A5 PUSH2 0x2B9C PUSH1 0xA0 DUP4 ADD MLOAD SWAP1 JUMP JUMPDEST PUSH2 0x50BC PUSH2 0x50B3 PUSH1 0xC0 DUP4 ADD MLOAD SWAP1 JUMP JUMPDEST PUSH1 0x5 DUP8 ADD PUSH2 0x1CA7 JUMP JUMPDEST PUSH2 0x50D3 PUSH2 0x50CA PUSH1 0xE0 DUP4 ADD MLOAD SWAP1 JUMP JUMPDEST PUSH1 0x6 DUP8 ADD PUSH2 0x1CA7 JUMP JUMPDEST PUSH2 0x50EB PUSH2 0x50E2 PUSH2 0x100 DUP4 ADD MLOAD SWAP1 JUMP JUMPDEST PUSH1 0x7 DUP8 ADD PUSH2 0x3FD0 JUMP JUMPDEST PUSH2 0x5103 PUSH2 0x50FA PUSH2 0x120 DUP4 ADD MLOAD SWAP1 JUMP JUMPDEST PUSH1 0x8 DUP8 ADD PUSH2 0x3FD0 JUMP JUMPDEST PUSH2 0x511B PUSH2 0x5112 PUSH2 0x140 DUP4 ADD MLOAD SWAP1 JUMP JUMPDEST PUSH1 0x9 DUP8 ADD PUSH2 0x3FD0 JUMP JUMPDEST PUSH2 0x5133 PUSH2 0x512A PUSH2 0x160 DUP4 ADD MLOAD SWAP1 JUMP JUMPDEST PUSH1 0xA DUP8 ADD PUSH2 0x3FD0 JUMP JUMPDEST PUSH2 0x1D62 PUSH2 0x5142 PUSH2 0x180 DUP4 ADD MLOAD SWAP1 JUMP JUMPDEST PUSH1 0xB DUP8 ADD PUSH2 0x3FD0 JUMP JUMPDEST SWAP2 ADD PUSH2 0x502A JUMP JUMPDEST SWAP2 SWAP1 PUSH2 0x5161 JUMPI PUSH2 0x293 SWAP2 PUSH2 0x5034 JUMP JUMPDEST PUSH2 0x1CC2 JUMP JUMPDEST SWAP1 DUP2 SLOAD SWAP2 PUSH9 0x10000000000000000 DUP4 LT ISZERO PUSH2 0x604 JUMPI DUP3 PUSH2 0x518E SWAP2 PUSH1 0x1 PUSH2 0x293 SWAP6 ADD DUP2 SSTORE PUSH2 0x27FC JUMP JUMPDEST SWAP1 PUSH2 0x5152 JUMP JUMPDEST SWAP2 SWAP3 SWAP2 SWAP1 PUSH1 0x0 PUSH2 0x51A4 PUSH1 0x0 PUSH2 0x43D JUMP JUMPDEST SWAP5 PUSH2 0x51AD DUP2 MLOAD SWAP1 JUMP JUMPDEST SWAP5 DUP7 JUMPDEST DUP7 JUMPDEST DUP9 LT ISZERO PUSH2 0x5247 JUMPI PUSH2 0x523F PUSH2 0x5238 PUSH2 0x51B2 SWAP3 PUSH2 0x5232 DUP12 PUSH2 0x520D PUSH2 0x51D4 DUP3 DUP11 PUSH2 0x301C JUMP JUMPDEST MLOAD PUSH2 0x51E1 PUSH2 0x1428 DUP13 PUSH2 0x43D JUMP JUMPDEST PUSH2 0x51EC DUP6 PUSH1 0xE0 DUP4 ADD MSTORE JUMP JUMPDEST PUSH2 0x5204 DUP14 DUP7 PUSH1 0x40 DUP5 ADD SWAP6 PUSH2 0x51FE DUP8 MLOAD SWAP1 JUMP JUMPDEST SWAP3 PUSH2 0x548A JUMP JUMPDEST PUSH1 0x11 DUP13 ADD PUSH2 0x5166 JUMP JUMPDEST PUSH2 0x30FB DUP11 PUSH2 0x1EC0 PUSH1 0x1 PUSH1 0xE PUSH2 0x5220 DUP7 MLOAD SWAP1 JUMP JUMPDEST SWAP4 ADD ADD SWAP2 PUSH2 0x522D DUP4 PUSH2 0x45B JUMP JUMPDEST PUSH2 0x42E4 JUMP JUMPDEST SWAP1 PUSH2 0x42E4 JUMP JUMPDEST SWAP9 PUSH1 0x1 ADD SWAP1 JUMP JUMPDEST SWAP8 SWAP1 POP PUSH2 0x51B0 JUMP JUMPDEST POP SWAP6 POP POP POP PUSH2 0x5263 SWAP2 SWAP3 POP PUSH1 0xE ADD PUSH1 0x2 PUSH2 0x1D67 PUSH1 0x1 DUP4 ADD PUSH2 0x45B JUMP JUMPDEST PUSH2 0x526C DUP2 PUSH2 0x43D JUMP JUMPDEST PUSH32 0xB5745354685A046E72F24602BCF00FA0EE07F0BF511AFB5F2D3AB636241E41B PUSH2 0x5296 PUSH1 0x40 MLOAD SWAP1 JUMP JUMPDEST PUSH1 0x0 SWAP1 LOG2 SWAP1 JUMP JUMPDEST PUSH2 0x2A9 PUSH2 0x2710 PUSH2 0x43D JUMP JUMPDEST DUP2 ISZERO PUSH2 0x2AF4 JUMPI DIV SWAP1 JUMP JUMPDEST SWAP1 PUSH2 0x52C1 PUSH2 0x2A9 DUP4 PUSH1 0x2 PUSH2 0x44A JUMP JUMPDEST SWAP1 PUSH1 0x0 PUSH1 0x11 PUSH2 0x52CF DUP3 PUSH2 0x43D JUMP JUMPDEST SWAP4 ADD SWAP1 PUSH2 0x52DA DUP3 SLOAD SWAP1 JUMP JUMPDEST SWAP1 DUP5 JUMPDEST DUP3 DUP7 LT ISZERO PUSH2 0x532B JUMPI PUSH2 0x5301 PUSH2 0x2329 PUSH2 0x4370 PUSH1 0x1 PUSH2 0x8BF PUSH2 0x52FD DUP12 DUP11 PUSH2 0x27FC JUMP JUMPDEST POP SWAP1 JUMP JUMPDEST DUP6 LT ISZERO DUP1 PUSH2 0x5322 JUMPI JUMPDEST PUSH2 0x5318 JUMPI SWAP5 PUSH1 0x1 ADD SWAP5 PUSH2 0x52DD JUMP JUMPDEST POP POP POP POP POP SWAP1 POP SWAP1 JUMP JUMPDEST POP DUP1 DUP6 LT PUSH2 0x530A JUMP JUMPDEST POP SWAP4 POP SWAP4 PUSH2 0x1FCE SWAP2 POP PUSH2 0xC5D PUSH2 0x534C PUSH2 0x5354 SWAP5 PUSH2 0x5346 PUSH2 0x529D JUMP JUMPDEST SWAP1 PUSH2 0x52A8 JUMP JUMPDEST SWAP2 PUSH1 0xC PUSH2 0x44A JUMP JUMPDEST DUP3 DUP2 LT PUSH2 0x538B JUMPI POP PUSH2 0x5365 DUP2 PUSH2 0x43D JUMP JUMPDEST DUP3 GT ISZERO PUSH2 0x5381 JUMPI POP PUSH2 0x2A9 SWAP1 PUSH2 0x537B PUSH1 0x1 PUSH2 0x43D JUMP JUMPDEST SWAP1 PUSH2 0x42FA JUMP JUMPDEST PUSH2 0x2A9 SWAP2 POP PUSH2 0x43D JUMP JUMPDEST SWAP2 POP POP SWAP1 JUMP JUMPDEST SWAP1 SWAP2 PUSH2 0x539D PUSH1 0xA PUSH2 0x43D JUMP JUMPDEST SWAP3 PUSH1 0x0 SWAP2 PUSH2 0x53AB PUSH1 0x0 PUSH2 0x43D JUMP JUMPDEST DUP6 JUMPDEST DUP2 LT ISZERO PUSH2 0x547B JUMPI PUSH2 0x53DA PUSH2 0x1FCE PUSH2 0x53CF PUSH2 0x53C7 DUP5 DUP8 PUSH2 0x42E4 JUMP JUMPDEST PUSH2 0x5346 PUSH2 0x529D JUMP JUMPDEST PUSH2 0xC5D DUP6 PUSH1 0xC PUSH2 0x44A JUMP JUMPDEST PUSH1 0x11 DUP7 ADD PUSH2 0x53E9 PUSH2 0x2A9 DUP3 SLOAD SWAP1 JUMP JUMPDEST DUP3 LT PUSH2 0x5406 JUMPI JUMPDEST POP POP PUSH2 0x53FF PUSH2 0x53AD SWAP2 PUSH1 0x1 ADD SWAP1 JUMP JUMPDEST SWAP1 POP PUSH2 0x53AB JUMP JUMPDEST PUSH2 0x52FD DUP3 PUSH2 0x5413 SWAP3 PUSH2 0x27FC JUMP JUMPDEST PUSH2 0x542E PUSH2 0x5422 PUSH1 0x1 DUP4 ADD PUSH2 0x45B JUMP JUMPDEST PUSH2 0x537B PUSH1 0x2 DUP5 ADD PUSH2 0x45B JUMP JUMPDEST SWAP1 PUSH2 0x5438 DUP8 PUSH2 0x43D JUMP JUMPDEST DUP3 GT PUSH2 0x5445 JUMPI JUMPDEST POP PUSH2 0x53F0 JUMP JUMPDEST PUSH2 0x2329 PUSH2 0x42EB PUSH2 0x5465 SWAP3 PUSH2 0x537B PUSH1 0x6 PUSH2 0x545E DUP10 DUP13 PUSH2 0x42E4 JUMP JUMPDEST SWAP3 ADD PUSH2 0x45B JUMP JUMPDEST LT PUSH2 0x5471 JUMPI DUP1 DUP1 PUSH2 0x543F JUMP JUMPDEST SWAP6 POP POP POP POP POP POP SWAP1 JUMP JUMPDEST POP POP SWAP2 SWAP1 POP PUSH2 0x2A9 SWAP3 POP PUSH2 0x54F0 JUMP JUMPDEST SWAP3 SWAP4 SWAP1 SWAP4 PUSH2 0x549A PUSH3 0x186A0 PUSH2 0x43D JUMP JUMPDEST DUP2 LT ISZERO PUSH2 0x54E9 JUMPI PUSH2 0x54AB SWAP1 DUP4 PUSH2 0x42E4 JUMP JUMPDEST SWAP2 JUMPDEST DUP3 JUMPDEST DUP2 LT ISZERO PUSH2 0x54E9 JUMPI PUSH2 0x54E2 PUSH2 0x54AF SWAP2 PUSH2 0x54C5 PUSH2 0x529D JUMP JUMPDEST SWAP1 PUSH2 0x639 DUP9 PUSH2 0x3979 PUSH2 0x54D7 DUP6 DUP6 PUSH2 0x52A8 JUMP JUMPDEST PUSH2 0xC5D DUP12 PUSH1 0xC PUSH2 0x44A JUMP JUMPDEST SWAP1 POP PUSH2 0x54AD JUMP JUMPDEST POP SWAP3 POP POP POP JUMP JUMPDEST SWAP1 SWAP2 SWAP1 PUSH1 0x11 PUSH2 0x54FF PUSH1 0x0 PUSH2 0x43D JUMP JUMPDEST SWAP2 ADD SWAP2 PUSH2 0x550A DUP4 SLOAD SWAP1 JUMP JUMPDEST SWAP3 DUP3 JUMPDEST DUP5 DUP5 LT ISZERO PUSH2 0x557E JUMPI PUSH2 0x5536 PUSH2 0x5525 PUSH2 0x52FD DUP7 DUP6 PUSH2 0x27FC JUMP JUMPDEST PUSH2 0x537B PUSH1 0x2 PUSH2 0x545E PUSH1 0x1 DUP5 ADD PUSH2 0x45B JUMP JUMPDEST SWAP1 DUP1 DUP8 LT ISZERO DUP1 PUSH2 0x5569 JUMPI JUMPDEST PUSH2 0x555F JUMPI PUSH2 0x5559 SWAP2 PUSH2 0x5552 SWAP2 PUSH2 0x42E4 JUMP JUMPDEST SWAP4 PUSH1 0x1 ADD SWAP1 JUMP JUMPDEST SWAP3 PUSH2 0x550D JUMP JUMPDEST POP POP POP SWAP3 POP SWAP1 POP SWAP1 JUMP JUMPDEST POP PUSH2 0x5577 PUSH2 0x2A9 DUP4 DUP4 PUSH2 0x42E4 JUMP JUMPDEST DUP8 LT PUSH2 0x5541 JUMP JUMPDEST POP POP SWAP3 POP POP PUSH2 0x2A9 SWAP1 PUSH2 0x537B PUSH1 0x1 PUSH2 0x43D JUMP INVALID LOG2 PUSH5 0x6970667358 0x22 SLT KECCAK256 PUSH3 0xD87BC2 NOT 0x4D POP 0xDA 0xE2 SELFDESTRUCT PUSH3 0x18668A SMOD SWAP9 0xE3 CHAINID DUP4 PUSH25 0x311BC03F5FB9A14F8F16465764736F6C634300081C00330000 "},"methodIdentifiers":{"MIN_DRAW_DELAY()":"6bf611bf","MIN_RAFFLE_DURATION()":"81eff790","addAdmin(address)":"70480275","admins(address)":"429b62e5","batchDraw(uint256,uint256,uint256)":"e354c358","batchParticipateDrawAndDistribute(uint256,address[],uint256[])":"b8342793","cancelRaffle(uint256,string)":"57415423","confirmBatchDistribution(uint256[],bool[],string[])":"b094e365","createRaffle(((string,string,string,string),(uint256,uint256,bool,uint256),(bool,uint256,uint256),(string,string,int256),(uint8,address,uint256,uint256,uint256,uint256,uint256,uint256,string,string,string,string,string,uint256[])[]))":"d8a35cc2","draw(uint256,uint256)":"d2b8035a","excludedTickets(uint256,uint256)":"d47fd2c9","getLotteryResult(uint256)":"8772d2dd","getRaffle(uint256)":"e4dafec9","getRaffleParticipants(uint256)":"a6e3295b","getRaffleStatus(uint256)":"d1ce754e","getUserParticipation(uint256,address)":"176a8555","getUserParticipationDetails(uint256,address)":"90409bd5","isAdmin(address)":"24d7806c","lotteryResults(uint256)":"b08b3a51","markPrizeDelivered(uint256,string,string)":"7bb60ac0","owner()":"8da5cb5b","participants(uint256)":"35c1d349","participate(uint256,address)":"13b18640","participateAndDraw(uint256,address)":"7cafa47a","paused()":"5c975abb","playerParticipantIds(uint256,address,uint256)":"8d5a8e70","playerParticipationCount(uint256,address)":"fbb7c22d","processRefund(uint256,address,string)":"9d06f112","raffleParticipants(uint256,uint256)":"b1ddd82a","raffleTicketBlocks(uint256,uint256)":"73178c0d","raffles(uint256)":"5d4bc0ce","removeAdmin(address)":"1785f53c","renounceOwnership()":"715018a6","requestRefund(uint256,string)":"c5ac3d4b","setPaused(bool)":"16c38b3c","setRaffleActive(uint256,bool)":"3f35c93b","ticketToResultId(bytes32)":"09b50a07","transferOwnership(address)":"f2fde38b"}},"storageLayout":{"storage":[{"astId":188,"contract":"contracts/Raffles.sol:Raffles","label":"_status","offset":0,"slot":"0","type":"t_uint256"},{"astId":8,"contract":"contracts/Raffles.sol:Raffles","label":"_owner","offset":0,"slot":"1","type":"t_address"},{"astId":397,"contract":"contracts/Raffles.sol:Raffles","label":"raffles","offset":0,"slot":"2","type":"t_mapping(t_uint256,t_struct(Raffle)332_storage)"},{"astId":400,"contract":"contracts/Raffles.sol:Raffles","label":"_raffleIdCounter","offset":0,"slot":"3","type":"t_uint256"},{"astId":405,"contract":"contracts/Raffles.sol:Raffles","label":"participants","offset":0,"slot":"4","type":"t_mapping(t_uint256,t_struct(Participant)377_storage)"},{"astId":408,"contract":"contracts/Raffles.sol:Raffles","label":"_participantIdCounter","offset":0,"slot":"5","type":"t_uint256"},{"astId":413,"contract":"contracts/Raffles.sol:Raffles","label":"raffleParticipants","offset":0,"slot":"6","type":"t_mapping(t_uint256,t_array(t_uint256)dyn_storage)"},{"astId":419,"contract":"contracts/Raffles.sol:Raffles","label":"playerParticipationCount","offset":0,"slot":"7","type":"t_mapping(t_uint256,t_mapping(t_address,t_uint256))"},{"astId":426,"contract":"contracts/Raffles.sol:Raffles","label":"playerParticipantIds","offset":0,"slot":"8","type":"t_mapping(t_uint256,t_mapping(t_address,t_array(t_uint256)dyn_storage))"},{"astId":430,"contract":"contracts/Raffles.sol:Raffles","label":"ticketToResultId","offset":0,"slot":"9","type":"t_mapping(t_bytes32,t_uint256)"},{"astId":435,"contract":"contracts/Raffles.sol:Raffles","label":"lotteryResults","offset":0,"slot":"10","type":"t_mapping(t_uint256,t_struct(LotteryResult)392_storage)"},{"astId":438,"contract":"contracts/Raffles.sol:Raffles","label":"_lotteryResultIdCounter","offset":0,"slot":"11","type":"t_uint256"},{"astId":447,"contract":"contracts/Raffles.sol:Raffles","label":"raffleTicketBlocks","offset":0,"slot":"12","type":"t_mapping(t_uint256,t_mapping(t_uint256,t_uint256))"},{"astId":453,"contract":"contracts/Raffles.sol:Raffles","label":"excludedTickets","offset":0,"slot":"13","type":"t_mapping(t_uint256,t_mapping(t_uint256,t_bool))"},{"astId":455,"contract":"contracts/Raffles.sol:Raffles","label":"paused","offset":0,"slot":"14","type":"t_bool"},{"astId":459,"contract":"contracts/Raffles.sol:Raffles","label":"admins","offset":0,"slot":"15","type":"t_mapping(t_address,t_bool)"}],"types":{"t_address":{"encoding":"inplace","label":"address","numberOfBytes":"20"},"t_array(t_struct(Prize)368_storage)dyn_storage":{"base":"t_struct(Prize)368_storage","encoding":"dynamic_array","label":"struct Raffles.Prize[]","numberOfBytes":"32"},"t_array(t_uint256)dyn_storage":{"base":"t_uint256","encoding":"dynamic_array","label":"uint256[]","numberOfBytes":"32"},"t_bool":{"encoding":"inplace","label":"bool","numberOfBytes":"1"},"t_bytes32":{"encoding":"inplace","label":"bytes32","numberOfBytes":"32"},"t_enum(PrizeType)337":{"encoding":"inplace","label":"enum Raffles.PrizeType","numberOfBytes":"1"},"t_int256":{"encoding":"inplace","label":"int256","numberOfBytes":"32"},"t_mapping(t_address,t_array(t_uint256)dyn_storage)":{"encoding":"mapping","key":"t_address","label":"mapping(address => uint256[])","numberOfBytes":"32","value":"t_array(t_uint256)dyn_storage"},"t_mapping(t_address,t_bool)":{"encoding":"mapping","key":"t_address","label":"mapping(address => bool)","numberOfBytes":"32","value":"t_bool"},"t_mapping(t_address,t_uint256)":{"encoding":"mapping","key":"t_address","label":"mapping(address => uint256)","numberOfBytes":"32","value":"t_uint256"},"t_mapping(t_bytes32,t_uint256)":{"encoding":"mapping","key":"t_bytes32","label":"mapping(bytes32 => uint256)","numberOfBytes":"32","value":"t_uint256"},"t_mapping(t_uint256,t_array(t_uint256)dyn_storage)":{"encoding":"mapping","key":"t_uint256","label":"mapping(uint256 => uint256[])","numberOfBytes":"32","value":"t_array(t_uint256)dyn_storage"},"t_mapping(t_uint256,t_bool)":{"encoding":"mapping","key":"t_uint256","label":"mapping(uint256 => bool)","numberOfBytes":"32","value":"t_bool"},"t_mapping(t_uint256,t_mapping(t_address,t_array(t_uint256)dyn_storage))":{"encoding":"mapping","key":"t_uint256","label":"mapping(uint256 => mapping(address => uint256[]))","numberOfBytes":"32","value":"t_mapping(t_address,t_array(t_uint256)dyn_storage)"},"t_mapping(t_uint256,t_mapping(t_address,t_uint256))":{"encoding":"mapping","key":"t_uint256","label":"mapping(uint256 => mapping(address => uint256))","numberOfBytes":"32","value":"t_mapping(t_address,t_uint256)"},"t_mapping(t_uint256,t_mapping(t_uint256,t_bool))":{"encoding":"mapping","key":"t_uint256","label":"mapping(uint256 => mapping(uint256 => bool))","numberOfBytes":"32","value":"t_mapping(t_uint256,t_bool)"},"t_mapping(t_uint256,t_mapping(t_uint256,t_uint256))":{"encoding":"mapping","key":"t_uint256","label":"mapping(uint256 => mapping(uint256 => uint256))","numberOfBytes":"32","value":"t_mapping(t_uint256,t_uint256)"},"t_mapping(t_uint256,t_struct(LotteryResult)392_storage)":{"encoding":"mapping","key":"t_uint256","label":"mapping(uint256 => struct Raffles.LotteryResult)","numberOfBytes":"32","value":"t_struct(LotteryResult)392_storage"},"t_mapping(t_uint256,t_struct(Participant)377_storage)":{"encoding":"mapping","key":"t_uint256","label":"mapping(uint256 => struct Raffles.Participant)","numberOfBytes":"32","value":"t_struct(Participant)377_storage"},"t_mapping(t_uint256,t_struct(Raffle)332_storage)":{"encoding":"mapping","key":"t_uint256","label":"mapping(uint256 => struct Raffles.Raffle)","numberOfBytes":"32","value":"t_struct(Raffle)332_storage"},"t_mapping(t_uint256,t_uint256)":{"encoding":"mapping","key":"t_uint256","label":"mapping(uint256 => uint256)","numberOfBytes":"32","value":"t_uint256"},"t_string_storage":{"encoding":"bytes","label":"string","numberOfBytes":"32"},"t_struct(LotteryResult)392_storage":{"encoding":"inplace","label":"struct Raffles.LotteryResult","members":[{"astId":379,"contract":"contracts/Raffles.sol:Raffles","label":"player","offset":0,"slot":"0","type":"t_address"},{"astId":381,"contract":"contracts/Raffles.sol:Raffles","label":"claimed","offset":20,"slot":"0","type":"t_bool"},{"astId":383,"contract":"contracts/Raffles.sol:Raffles","label":"lotteryTicketNumber","offset":0,"slot":"1","type":"t_bytes32"},{"astId":385,"contract":"contracts/Raffles.sol:Raffles","label":"raffleId","offset":0,"slot":"2","type":"t_uint256"},{"astId":387,"contract":"contracts/Raffles.sol:Raffles","label":"prizeIndex","offset":0,"slot":"3","type":"t_uint256"},{"astId":389,"contract":"contracts/Raffles.sol:Raffles","label":"drawnAt","offset":0,"slot":"4","type":"t_uint256"},{"astId":391,"contract":"contracts/Raffles.sol:Raffles","label":"claimedAt","offset":0,"slot":"5","type":"t_uint256"}],"numberOfBytes":"192"},"t_struct(Participant)377_storage":{"encoding":"inplace","label":"struct Raffles.Participant","members":[{"astId":370,"contract":"contracts/Raffles.sol:Raffles","label":"player","offset":0,"slot":"0","type":"t_address"},{"astId":372,"contract":"contracts/Raffles.sol:Raffles","label":"raffleId","offset":0,"slot":"1","type":"t_uint256"},{"astId":374,"contract":"contracts/Raffles.sol:Raffles","label":"lotteryTicketNumber","offset":0,"slot":"2","type":"t_bytes32"},{"astId":376,"contract":"contracts/Raffles.sol:Raffles","label":"participatedAt","offset":0,"slot":"3","type":"t_uint256"}],"numberOfBytes":"128"},"t_struct(Prize)368_storage":{"encoding":"inplace","label":"struct Raffles.Prize","members":[{"astId":340,"contract":"contracts/Raffles.sol:Raffles","label":"prizeType","offset":0,"slot":"0","type":"t_enum(PrizeType)337"},{"astId":342,"contract":"contracts/Raffles.sol:Raffles","label":"collectionAddress","offset":1,"slot":"0","type":"t_address"},{"astId":344,"contract":"contracts/Raffles.sol:Raffles","label":"registeredTicketQuantity","offset":0,"slot":"1","type":"t_uint256"},{"astId":346,"contract":"contracts/Raffles.sol:Raffles","label":"pickedTicketQuantity","offset":0,"slot":"2","type":"t_uint256"},{"astId":348,"contract":"contracts/Raffles.sol:Raffles","label":"order","offset":0,"slot":"3","type":"t_uint256"},{"astId":350,"contract":"contracts/Raffles.sol:Raffles","label":"rarity","offset":0,"slot":"4","type":"t_uint256"},{"astId":352,"contract":"contracts/Raffles.sol:Raffles","label":"prizeQuantity","offset":0,"slot":"5","type":"t_uint256"},{"astId":354,"contract":"contracts/Raffles.sol:Raffles","label":"startTicketNumber","offset":0,"slot":"6","type":"t_uint256"},{"astId":356,"contract":"contracts/Raffles.sol:Raffles","label":"title","offset":0,"slot":"7","type":"t_string_storage"},{"astId":358,"contract":"contracts/Raffles.sol:Raffles","label":"description","offset":0,"slot":"8","type":"t_string_storage"},{"astId":360,"contract":"contracts/Raffles.sol:Raffles","label":"imageUrl","offset":0,"slot":"9","type":"t_string_storage"},{"astId":362,"contract":"contracts/Raffles.sol:Raffles","label":"iconUrl","offset":0,"slot":"10","type":"t_string_storage"},{"astId":364,"contract":"contracts/Raffles.sol:Raffles","label":"assetId","offset":0,"slot":"11","type":"t_string_storage"},{"astId":367,"contract":"contracts/Raffles.sol:Raffles","label":"tokenIds","offset":0,"slot":"12","type":"t_array(t_uint256)dyn_storage"}],"numberOfBytes":"416"},"t_struct(Raffle)332_storage":{"encoding":"inplace","label":"struct Raffles.Raffle","members":[{"astId":315,"contract":"contracts/Raffles.sol:Raffles","label":"basicInfo","offset":0,"slot":"0","type":"t_struct(RaffleBasicInfo)263_storage"},{"astId":318,"contract":"contracts/Raffles.sol:Raffles","label":"timing","offset":0,"slot":"4","type":"t_struct(RaffleTiming)272_storage"},{"astId":321,"contract":"contracts/Raffles.sol:Raffles","label":"settings","offset":0,"slot":"8","type":"t_struct(RaffleSettings)279_storage"},{"astId":324,"contract":"contracts/Raffles.sol:Raffles","label":"fee","offset":0,"slot":"11","type":"t_struct(RaffleFee)286_storage"},{"astId":327,"contract":"contracts/Raffles.sol:Raffles","label":"status","offset":0,"slot":"14","type":"t_struct(RaffleStatus)312_storage"},{"astId":331,"contract":"contracts/Raffles.sol:Raffles","label":"prizes","offset":0,"slot":"17","type":"t_array(t_struct(Prize)368_storage)dyn_storage"}],"numberOfBytes":"576"},"t_struct(RaffleBasicInfo)263_storage":{"encoding":"inplace","label":"struct Raffles.RaffleBasicInfo","members":[{"astId":256,"contract":"contracts/Raffles.sol:Raffles","label":"title","offset":0,"slot":"0","type":"t_string_storage"},{"astId":258,"contract":"contracts/Raffles.sol:Raffles","label":"description","offset":0,"slot":"1","type":"t_string_storage"},{"astId":260,"contract":"contracts/Raffles.sol:Raffles","label":"imageUrl","offset":0,"slot":"2","type":"t_string_storage"},{"astId":262,"contract":"contracts/Raffles.sol:Raffles","label":"iconUrl","offset":0,"slot":"3","type":"t_string_storage"}],"numberOfBytes":"128"},"t_struct(RaffleFee)286_storage":{"encoding":"inplace","label":"struct Raffles.RaffleFee","members":[{"astId":281,"contract":"contracts/Raffles.sol:Raffles","label":"participationFeeAsset","offset":0,"slot":"0","type":"t_string_storage"},{"astId":283,"contract":"contracts/Raffles.sol:Raffles","label":"participationFeeAssetId","offset":0,"slot":"1","type":"t_string_storage"},{"astId":285,"contract":"contracts/Raffles.sol:Raffles","label":"participationFeeAmount","offset":0,"slot":"2","type":"t_int256"}],"numberOfBytes":"96"},"t_struct(RaffleSettings)279_storage":{"encoding":"inplace","label":"struct Raffles.RaffleSettings","members":[{"astId":274,"contract":"contracts/Raffles.sol:Raffles","label":"dynamicWeight","offset":0,"slot":"0","type":"t_bool"},{"astId":276,"contract":"contracts/Raffles.sol:Raffles","label":"participationLimit","offset":0,"slot":"1","type":"t_uint256"},{"astId":278,"contract":"contracts/Raffles.sol:Raffles","label":"participationLimitPerPlayer","offset":0,"slot":"2","type":"t_uint256"}],"numberOfBytes":"96"},"t_struct(RaffleStatus)312_storage":{"encoding":"inplace","label":"struct Raffles.RaffleStatus","members":[{"astId":305,"contract":"contracts/Raffles.sol:Raffles","label":"isActive","offset":0,"slot":"0","type":"t_bool"},{"astId":307,"contract":"contracts/Raffles.sol:Raffles","label":"isDrawn","offset":1,"slot":"0","type":"t_bool"},{"astId":309,"contract":"contracts/Raffles.sol:Raffles","label":"totalQuantity","offset":0,"slot":"1","type":"t_uint256"},{"astId":311,"contract":"contracts/Raffles.sol:Raffles","label":"remainingQuantity","offset":0,"slot":"2","type":"t_uint256"}],"numberOfBytes":"96"},"t_struct(RaffleTiming)272_storage":{"encoding":"inplace","label":"struct Raffles.RaffleTiming","members":[{"astId":265,"contract":"contracts/Raffles.sol:Raffles","label":"startDate","offset":0,"slot":"0","type":"t_uint256"},{"astId":267,"contract":"contracts/Raffles.sol:Raffles","label":"endDate","offset":0,"slot":"1","type":"t_uint256"},{"astId":269,"contract":"contracts/Raffles.sol:Raffles","label":"instantDraw","offset":0,"slot":"2","type":"t_bool"},{"astId":271,"contract":"contracts/Raffles.sol:Raffles","label":"drawDate","offset":0,"slot":"3","type":"t_uint256"}],"numberOfBytes":"128"},"t_uint256":{"encoding":"inplace","label":"uint256","numberOfBytes":"32"}}}}}}