{"contracts/Raffles.sol":{"Raffles":{"abi":[{"inputs":[],"stateMutability":"nonpayable","type":"constructor"},{"inputs":[{"internalType":"address","name":"owner","type":"address"}],"name":"OwnableInvalidOwner","type":"error"},{"inputs":[{"internalType":"address","name":"account","type":"address"}],"name":"OwnableUnauthorizedAccount","type":"error"},{"inputs":[],"name":"ReentrancyGuardReentrantCall","type":"error"},{"anonymous":false,"inputs":[{"indexed":true,"internalType":"address","name":"admin","type":"address"}],"name":"AdminAdded","type":"event"},{"anonymous":false,"inputs":[{"indexed":true,"internalType":"address","name":"admin","type":"address"}],"name":"AdminRemoved","type":"event"},{"anonymous":false,"inputs":[{"indexed":true,"internalType":"uint256","name":"raffleId","type":"uint256"},{"indexed":true,"internalType":"address","name":"player","type":"address"},{"indexed":false,"internalType":"uint256","name":"participantId","type":"uint256"},{"indexed":false,"internalType":"uint256","name":"prizeIndex","type":"uint256"},{"indexed":false,"internalType":"uint256","name":"resultId","type":"uint256"}],"name":"BatchProcessed","type":"event"},{"anonymous":false,"inputs":[],"name":"ContractPaused","type":"event"},{"anonymous":false,"inputs":[],"name":"ContractUnpaused","type":"event"},{"anonymous":false,"inputs":[{"indexed":true,"internalType":"uint256","name":"resultId","type":"uint256"},{"indexed":true,"internalType":"uint256","name":"raffleId","type":"uint256"},{"indexed":true,"internalType":"address","name":"player","type":"address"},{"indexed":false,"internalType":"uint256","name":"participantId","type":"uint256"},{"indexed":false,"internalType":"uint256","name":"prizeIndex","type":"uint256"},{"indexed":false,"internalType":"bytes32","name":"ticketNumber","type":"bytes32"},{"indexed":false,"internalType":"uint256","name":"randomValue","type":"uint256"},{"indexed":false,"internalType":"uint256","name":"timestamp","type":"uint256"}],"name":"LotteryDrawn","type":"event"},{"anonymous":false,"inputs":[{"indexed":true,"internalType":"address","name":"previousOwner","type":"address"},{"indexed":true,"internalType":"address","name":"newOwner","type":"address"}],"name":"OwnershipTransferred","type":"event"},{"anonymous":false,"inputs":[{"indexed":true,"internalType":"uint256","name":"raffleId","type":"uint256"},{"indexed":true,"internalType":"address","name":"player","type":"address"},{"indexed":false,"internalType":"uint256","name":"participantId","type":"uint256"},{"indexed":false,"internalType":"bytes32","name":"ticketNumber","type":"bytes32"},{"indexed":false,"internalType":"uint256","name":"timestamp","type":"uint256"}],"name":"Participated","type":"event"},{"anonymous":false,"inputs":[{"indexed":true,"internalType":"uint256","name":"raffleId","type":"uint256"},{"indexed":true,"internalType":"address","name":"player","type":"address"},{"indexed":false,"internalType":"uint256","name":"participantId","type":"uint256"},{"indexed":false,"internalType":"uint256","name":"prizeIndex","type":"uint256"},{"indexed":false,"internalType":"uint256","name":"resultId","type":"uint256"},{"indexed":false,"internalType":"uint256","name":"timestamp","type":"uint256"}],"name":"ParticipatedAndDrawn","type":"event"},{"anonymous":false,"inputs":[{"indexed":true,"internalType":"uint256","name":"resultId","type":"uint256"},{"indexed":true,"internalType":"uint256","name":"raffleId","type":"uint256"},{"indexed":true,"internalType":"address","name":"player","type":"address"},{"indexed":false,"internalType":"uint256","name":"prizeIndex","type":"uint256"},{"indexed":false,"internalType":"string","name":"prizeTitle","type":"string"},{"indexed":false,"internalType":"address","name":"admin","type":"address"},{"indexed":false,"internalType":"string","name":"deliveryMethod","type":"string"},{"indexed":false,"internalType":"string","name":"trackingInfo","type":"string"},{"indexed":false,"internalType":"uint256","name":"timestamp","type":"uint256"}],"name":"PrizeDistributed","type":"event"},{"anonymous":false,"inputs":[{"indexed":true,"internalType":"uint256","name":"raffleId","type":"uint256"},{"indexed":false,"internalType":"string","name":"reason","type":"string"}],"name":"RaffleCancelled","type":"event"},{"anonymous":false,"inputs":[{"indexed":true,"internalType":"uint256","name":"raffleId","type":"uint256"}],"name":"RaffleCreated","type":"event"},{"anonymous":false,"inputs":[{"indexed":true,"internalType":"uint256","name":"raffleId","type":"uint256"},{"indexed":false,"internalType":"bool","name":"isActive","type":"bool"},{"indexed":true,"internalType":"address","name":"admin","type":"address"}],"name":"RaffleStatusChanged","type":"event"},{"anonymous":false,"inputs":[{"indexed":true,"internalType":"uint256","name":"raffleId","type":"uint256"},{"indexed":true,"internalType":"address","name":"player","type":"address"},{"indexed":true,"internalType":"address","name":"processedBy","type":"address"},{"indexed":false,"internalType":"string","name":"method","type":"string"},{"indexed":false,"internalType":"uint256","name":"timestamp","type":"uint256"}],"name":"RefundProcessed","type":"event"},{"anonymous":false,"inputs":[{"indexed":true,"internalType":"uint256","name":"raffleId","type":"uint256"},{"indexed":true,"internalType":"address","name":"player","type":"address"},{"indexed":false,"internalType":"string","name":"reason","type":"string"},{"indexed":false,"internalType":"uint256","name":"timestamp","type":"uint256"}],"name":"RefundRequested","type":"event"},{"inputs":[],"name":"MIN_DRAW_DELAY","outputs":[{"internalType":"uint256","name":"","type":"uint256"}],"stateMutability":"view","type":"function"},{"inputs":[],"name":"MIN_RAFFLE_DURATION","outputs":[{"internalType":"uint256","name":"","type":"uint256"}],"stateMutability":"view","type":"function"},{"inputs":[{"internalType":"address","name":"admin","type":"address"}],"name":"addAdmin","outputs":[],"stateMutability":"nonpayable","type":"function"},{"inputs":[{"internalType":"address","name":"","type":"address"}],"name":"admins","outputs":[{"internalType":"bool","name":"","type":"bool"}],"stateMutability":"view","type":"function"},{"inputs":[{"internalType":"uint256","name":"raffleId","type":"uint256"},{"internalType":"uint256","name":"startIndex","type":"uint256"},{"internalType":"uint256","name":"maxCount","type":"uint256"}],"name":"batchDraw","outputs":[{"internalType":"uint256[]","name":"","type":"uint256[]"}],"stateMutability":"nonpayable","type":"function"},{"inputs":[{"internalType":"uint256","name":"raffleId","type":"uint256"},{"internalType":"address[]","name":"players","type":"address[]"},{"internalType":"uint256[]","name":"prizeIndices","type":"uint256[]"}],"name":"batchParticipateDrawAndDistribute","outputs":[{"internalType":"uint256[]","name":"","type":"uint256[]"}],"stateMutability":"nonpayable","type":"function"},{"inputs":[{"internalType":"uint256","name":"raffleId","type":"uint256"},{"internalType":"string","name":"reason","type":"string"}],"name":"cancelRaffle","outputs":[],"stateMutability":"nonpayable","type":"function"},{"inputs":[{"internalType":"uint256[]","name":"resultIds","type":"uint256[]"},{"internalType":"bool[]","name":"distributionSuccess","type":"bool[]"},{"internalType":"string[]","name":"deliveryMethods","type":"string[]"}],"name":"confirmBatchDistribution","outputs":[],"stateMutability":"nonpayable","type":"function"},{"inputs":[{"components":[{"components":[{"internalType":"string","name":"title","type":"string"},{"internalType":"string","name":"description","type":"string"},{"internalType":"string","name":"imageUrl","type":"string"},{"internalType":"string","name":"iconUrl","type":"string"}],"internalType":"struct Raffles.RaffleBasicInfo","name":"basicInfo","type":"tuple"},{"components":[{"internalType":"uint256","name":"startDate","type":"uint256"},{"internalType":"uint256","name":"endDate","type":"uint256"},{"internalType":"bool","name":"instantDraw","type":"bool"},{"internalType":"uint256","name":"drawDate","type":"uint256"}],"internalType":"struct Raffles.RaffleTiming","name":"timing","type":"tuple"},{"components":[{"internalType":"bool","name":"dynamicWeight","type":"bool"},{"internalType":"uint256","name":"participationLimit","type":"uint256"},{"internalType":"uint256","name":"participationLimitPerPlayer","type":"uint256"}],"internalType":"struct Raffles.RaffleSettings","name":"settings","type":"tuple"},{"components":[{"internalType":"string","name":"participationFeeAsset","type":"string"},{"internalType":"string","name":"participationFeeAssetId","type":"string"},{"internalType":"int256","name":"participationFeeAmount","type":"int256"}],"internalType":"struct Raffles.RaffleFee","name":"fee","type":"tuple"},{"components":[{"internalType":"enum Raffles.PrizeType","name":"prizeType","type":"uint8"},{"internalType":"address","name":"collectionAddress","type":"address"},{"internalType":"uint256","name":"registeredTicketQuantity","type":"uint256"},{"internalType":"uint256","name":"pickedTicketQuantity","type":"uint256"},{"internalType":"uint256","name":"order","type":"uint256"},{"internalType":"uint256","name":"rarity","type":"uint256"},{"internalType":"uint256","name":"prizeQuantity","type":"uint256"},{"internalType":"uint256","name":"startTicketNumber","type":"uint256"},{"internalType":"string","name":"title","type":"string"},{"internalType":"string","name":"description","type":"string"},{"internalType":"string","name":"imageUrl","type":"string"},{"internalType":"string","name":"iconUrl","type":"string"},{"internalType":"string","name":"assetId","type":"string"},{"internalType":"uint256[]","name":"tokenIds","type":"uint256[]"}],"internalType":"struct Raffles.Prize[]","name":"prizes","type":"tuple[]"}],"internalType":"struct Raffles.RaffleCreateParams","name":"params","type":"tuple"}],"name":"createRaffle","outputs":[{"internalType":"uint256","name":"","type":"uint256"}],"stateMutability":"nonpayable","type":"function"},{"inputs":[{"internalType":"uint256","name":"raffleId","type":"uint256"},{"internalType":"uint256","name":"participantId","type":"uint256"}],"name":"draw","outputs":[{"internalType":"uint256","name":"","type":"uint256"}],"stateMutability":"nonpayable","type":"function"},{"inputs":[{"internalType":"uint256","name":"","type":"uint256"},{"internalType":"uint256","name":"","type":"uint256"}],"name":"excludedTickets","outputs":[{"internalType":"bool","name":"","type":"bool"}],"stateMutability":"view","type":"function"},{"inputs":[{"internalType":"uint256","name":"resultId","type":"uint256"}],"name":"getLotteryResult","outputs":[{"components":[{"internalType":"address","name":"player","type":"address"},{"internalType":"bool","name":"claimed","type":"bool"},{"internalType":"bytes32","name":"lotteryTicketNumber","type":"bytes32"},{"internalType":"uint256","name":"raffleId","type":"uint256"},{"internalType":"uint256","name":"prizeIndex","type":"uint256"},{"internalType":"uint256","name":"drawnAt","type":"uint256"},{"internalType":"uint256","name":"claimedAt","type":"uint256"}],"internalType":"struct Raffles.LotteryResult","name":"","type":"tuple"}],"stateMutability":"view","type":"function"},{"inputs":[{"internalType":"uint256","name":"raffleId","type":"uint256"}],"name":"getRaffle","outputs":[{"components":[{"components":[{"internalType":"string","name":"title","type":"string"},{"internalType":"string","name":"description","type":"string"},{"internalType":"string","name":"imageUrl","type":"string"},{"internalType":"string","name":"iconUrl","type":"string"}],"internalType":"struct Raffles.RaffleBasicInfo","name":"basicInfo","type":"tuple"},{"components":[{"internalType":"uint256","name":"startDate","type":"uint256"},{"internalType":"uint256","name":"endDate","type":"uint256"},{"internalType":"bool","name":"instantDraw","type":"bool"},{"internalType":"uint256","name":"drawDate","type":"uint256"}],"internalType":"struct Raffles.RaffleTiming","name":"timing","type":"tuple"},{"components":[{"internalType":"bool","name":"dynamicWeight","type":"bool"},{"internalType":"uint256","name":"participationLimit","type":"uint256"},{"internalType":"uint256","name":"participationLimitPerPlayer","type":"uint256"}],"internalType":"struct Raffles.RaffleSettings","name":"settings","type":"tuple"},{"components":[{"internalType":"string","name":"participationFeeAsset","type":"string"},{"internalType":"string","name":"participationFeeAssetId","type":"string"},{"internalType":"int256","name":"participationFeeAmount","type":"int256"}],"internalType":"struct Raffles.RaffleFee","name":"fee","type":"tuple"},{"components":[{"internalType":"bool","name":"isActive","type":"bool"},{"internalType":"bool","name":"isDrawn","type":"bool"},{"internalType":"uint256","name":"totalQuantity","type":"uint256"},{"internalType":"uint256","name":"remainingQuantity","type":"uint256"}],"internalType":"struct Raffles.RaffleStatus","name":"status","type":"tuple"},{"components":[{"internalType":"enum Raffles.PrizeType","name":"prizeType","type":"uint8"},{"internalType":"address","name":"collectionAddress","type":"address"},{"internalType":"uint256","name":"registeredTicketQuantity","type":"uint256"},{"internalType":"uint256","name":"pickedTicketQuantity","type":"uint256"},{"internalType":"uint256","name":"order","type":"uint256"},{"internalType":"uint256","name":"rarity","type":"uint256"},{"internalType":"uint256","name":"prizeQuantity","type":"uint256"},{"internalType":"uint256","name":"startTicketNumber","type":"uint256"},{"internalType":"string","name":"title","type":"string"},{"internalType":"string","name":"description","type":"string"},{"internalType":"string","name":"imageUrl","type":"string"},{"internalType":"string","name":"iconUrl","type":"string"},{"internalType":"string","name":"assetId","type":"string"},{"internalType":"uint256[]","name":"tokenIds","type":"uint256[]"}],"internalType":"struct Raffles.Prize[]","name":"prizes","type":"tuple[]"}],"internalType":"struct Raffles.Raffle","name":"","type":"tuple"}],"stateMutability":"view","type":"function"},{"inputs":[{"internalType":"uint256","name":"raffleId","type":"uint256"}],"name":"getRaffleParticipants","outputs":[{"internalType":"uint256[]","name":"","type":"uint256[]"}],"stateMutability":"view","type":"function"},{"inputs":[{"internalType":"uint256","name":"raffleId","type":"uint256"}],"name":"getRaffleStatus","outputs":[{"internalType":"bool","name":"isActive","type":"bool"},{"internalType":"bool","name":"isDrawn","type":"bool"},{"internalType":"uint256","name":"remainingQuantity","type":"uint256"}],"stateMutability":"view","type":"function"},{"inputs":[{"internalType":"uint256","name":"raffleId","type":"uint256"},{"internalType":"address","name":"player","type":"address"}],"name":"getUserParticipation","outputs":[{"internalType":"uint256","name":"","type":"uint256"}],"stateMutability":"view","type":"function"},{"inputs":[{"internalType":"address","name":"account","type":"address"}],"name":"isAdmin","outputs":[{"internalType":"bool","name":"","type":"bool"}],"stateMutability":"view","type":"function"},{"inputs":[{"internalType":"uint256","name":"","type":"uint256"}],"name":"lotteryResults","outputs":[{"internalType":"address","name":"player","type":"address"},{"internalType":"bool","name":"claimed","type":"bool"},{"internalType":"bytes32","name":"lotteryTicketNumber","type":"bytes32"},{"internalType":"uint256","name":"raffleId","type":"uint256"},{"internalType":"uint256","name":"prizeIndex","type":"uint256"},{"internalType":"uint256","name":"drawnAt","type":"uint256"},{"internalType":"uint256","name":"claimedAt","type":"uint256"}],"stateMutability":"view","type":"function"},{"inputs":[{"internalType":"uint256","name":"resultId","type":"uint256"},{"internalType":"string","name":"deliveryMethod","type":"string"},{"internalType":"string","name":"trackingInfo","type":"string"}],"name":"markPrizeDelivered","outputs":[],"stateMutability":"nonpayable","type":"function"},{"inputs":[],"name":"owner","outputs":[{"internalType":"address","name":"","type":"address"}],"stateMutability":"view","type":"function"},{"inputs":[{"internalType":"uint256","name":"","type":"uint256"}],"name":"participants","outputs":[{"internalType":"address","name":"player","type":"address"},{"internalType":"uint256","name":"raffleId","type":"uint256"},{"internalType":"bytes32","name":"lotteryTicketNumber","type":"bytes32"},{"internalType":"uint256","name":"participatedAt","type":"uint256"}],"stateMutability":"view","type":"function"},{"inputs":[{"internalType":"uint256","name":"raffleId","type":"uint256"},{"internalType":"address","name":"player","type":"address"}],"name":"participate","outputs":[{"internalType":"uint256","name":"","type":"uint256"}],"stateMutability":"nonpayable","type":"function"},{"inputs":[{"internalType":"uint256","name":"raffleId","type":"uint256"},{"internalType":"address","name":"player","type":"address"}],"name":"participateAndDraw","outputs":[{"internalType":"uint256","name":"participantId","type":"uint256"},{"internalType":"uint256","name":"prizeIndex","type":"uint256"},{"internalType":"uint256","name":"resultId","type":"uint256"}],"stateMutability":"nonpayable","type":"function"},{"inputs":[],"name":"paused","outputs":[{"internalType":"bool","name":"","type":"bool"}],"stateMutability":"view","type":"function"},{"inputs":[{"internalType":"uint256","name":"","type":"uint256"},{"internalType":"address","name":"","type":"address"}],"name":"playerParticipationCount","outputs":[{"internalType":"uint256","name":"","type":"uint256"}],"stateMutability":"view","type":"function"},{"inputs":[{"internalType":"uint256","name":"raffleId","type":"uint256"},{"internalType":"address","name":"player","type":"address"},{"internalType":"string","name":"method","type":"string"}],"name":"processRefund","outputs":[],"stateMutability":"nonpayable","type":"function"},{"inputs":[{"internalType":"uint256","name":"","type":"uint256"},{"internalType":"uint256","name":"","type":"uint256"}],"name":"raffleParticipants","outputs":[{"internalType":"uint256","name":"","type":"uint256"}],"stateMutability":"view","type":"function"},{"inputs":[{"internalType":"uint256","name":"","type":"uint256"},{"internalType":"uint256","name":"","type":"uint256"}],"name":"raffleTicketBlocks","outputs":[{"internalType":"uint256","name":"","type":"uint256"}],"stateMutability":"view","type":"function"},{"inputs":[{"internalType":"uint256","name":"","type":"uint256"}],"name":"raffles","outputs":[{"components":[{"internalType":"string","name":"title","type":"string"},{"internalType":"string","name":"description","type":"string"},{"internalType":"string","name":"imageUrl","type":"string"},{"internalType":"string","name":"iconUrl","type":"string"}],"internalType":"struct Raffles.RaffleBasicInfo","name":"basicInfo","type":"tuple"},{"components":[{"internalType":"uint256","name":"startDate","type":"uint256"},{"internalType":"uint256","name":"endDate","type":"uint256"},{"internalType":"bool","name":"instantDraw","type":"bool"},{"internalType":"uint256","name":"drawDate","type":"uint256"}],"internalType":"struct Raffles.RaffleTiming","name":"timing","type":"tuple"},{"components":[{"internalType":"bool","name":"dynamicWeight","type":"bool"},{"internalType":"uint256","name":"participationLimit","type":"uint256"},{"internalType":"uint256","name":"participationLimitPerPlayer","type":"uint256"}],"internalType":"struct Raffles.RaffleSettings","name":"settings","type":"tuple"},{"components":[{"internalType":"string","name":"participationFeeAsset","type":"string"},{"internalType":"string","name":"participationFeeAssetId","type":"string"},{"internalType":"int256","name":"participationFeeAmount","type":"int256"}],"internalType":"struct Raffles.RaffleFee","name":"fee","type":"tuple"},{"components":[{"internalType":"bool","name":"isActive","type":"bool"},{"internalType":"bool","name":"isDrawn","type":"bool"},{"internalType":"uint256","name":"totalQuantity","type":"uint256"},{"internalType":"uint256","name":"remainingQuantity","type":"uint256"}],"internalType":"struct Raffles.RaffleStatus","name":"status","type":"tuple"}],"stateMutability":"view","type":"function"},{"inputs":[{"internalType":"address","name":"admin","type":"address"}],"name":"removeAdmin","outputs":[],"stateMutability":"nonpayable","type":"function"},{"inputs":[],"name":"renounceOwnership","outputs":[],"stateMutability":"nonpayable","type":"function"},{"inputs":[{"internalType":"uint256","name":"raffleId","type":"uint256"},{"internalType":"string","name":"reason","type":"string"}],"name":"requestRefund","outputs":[],"stateMutability":"nonpayable","type":"function"},{"inputs":[{"internalType":"bool","name":"_paused","type":"bool"}],"name":"setPaused","outputs":[],"stateMutability":"nonpayable","type":"function"},{"inputs":[{"internalType":"uint256","name":"raffleId","type":"uint256"},{"internalType":"bool","name":"_isActive","type":"bool"}],"name":"setRaffleActive","outputs":[],"stateMutability":"nonpayable","type":"function"},{"inputs":[{"internalType":"address","name":"newOwner","type":"address"}],"name":"transferOwnership","outputs":[],"stateMutability":"nonpayable","type":"function"}],"evm":{"bytecode":{"linkReferences":{},"object":"608060405234610022576100116100d1565b60405161509561024c823961509590f35b600080fd5b90600019905b9181191691161790565b6100446100446100449290565b90565b9061005761004461005e92610037565b8254610027565b9055565b61004490610076906001600160a01b031682565b6001600160a01b031690565b61004490610062565b61004490610082565b9061009e9061008b565b600052602052604060002090565b9060ff9061002d565b151590565b906100ca61004461005e926100b5565b82546100ac565b6100da33610145565b61011060016100ea816003610047565b6100f5816005610047565b610100816009610047565b61010b33600d610094565b6100ba565b565b6100766100446100449290565b61004490610112565b61013190610076565b9052565b6020810192916101109190610128565b61014d610197565b60006101588161011f565b61016181610076565b61016a84610076565b1461017a575050610110906101f4565b631e4fbdf760e01b825281906101939060048301610135565b0390fd5b6101106101a9565b6100446001610037565b6101106101b461019f565b6000610047565b61004490610076565b61004490546101bb565b906001600160a01b039061002d565b906101ed61004461005e9261008b565b82546101ce565b61021a61021461020460016101c4565b61020f8460016101dd565b61008b565b9161008b565b907f8be0079c531659141344cd1fd0a4f28419497f9722a3daafe3b4186f6b6457e061024560405190565b600090a356fe610100604052600436101561001357600080fd5b60003560e01c806313b186401461024357806316c38b3c1461023e578063176a8555146102395780631785f53c1461023457806324d7806c1461022f57806335c1d3491461022a5780633f35c93b14610225578063429b62e514610220578063574154231461021b5780635c975abb146102165780635d4bc0ce146102115780636bf611bf1461020c5780637048027514610207578063715018a61461020257806373178c0d146101fd5780637bb60ac0146101f85780637cafa47a146101f357806381eff790146101ee5780638772d2dd146101e95780638da5cb5b146101e45780639d06f112146101df578063a6e3295b146101da578063b08b3a51146101d5578063b094e365146101d0578063b1ddd82a146101cb578063b8342793146101c6578063c5ac3d4b146101c1578063d1ce754e146101bc578063d2b8035a146101b7578063d47fd2c9146101b2578063d8a35cc2146101ad578063e354c358146101a8578063e4dafec9146101a3578063f2fde38b1461019e5763fbb7c22d0361024857611a00565b6119cf565b6119a8565b6116fb565b6116b7565b6111a7565b611177565b61114d565b611117565b6110f8565b6110a8565b611024565b610f54565b610e7b565b610dfb565b610d99565b610d72565b610ce8565b610caa565b610c74565b610c05565b610b96565b610b7e565b610b63565b610b1f565b610680565b610650565b61053a565b6104c0565b61046c565b610375565b61035d565b61032d565b610310565b6102b7565b600080fd5b805b0361024857565b905035906102638261024d565b565b6001600160a01b031690565b90565b6001600160a01b03811661024f565b9050359061026382610274565b9190604083820312610248576102719060206102ac8286610256565b9401610283565b9052565b34610248576102e36102d36102cd366004610290565b90611d28565b6040519182918290815260200190565b0390f35b80151561024f565b90503590610263826102e7565b9060208282031261024857610271916102ef565b34610248576103286103233660046102fc565b611dcf565b604051005b34610248576102e36102d3610343366004610290565b90611dd8565b906020828203126102485761027191610283565b3461024857610328610370366004610349565b611fa4565b34610248576102e361039061038b366004610349565b611fad565b6040515b91829182901515815260200190565b906020828203126102485761027191610256565b6102716102716102719290565b906103ce906103b7565b600052602052604060002090565b6102719081565b61027190546103dc565b6103f89060046103c4565b9061040a82546001600160a01b031690565b91610417600182016103e3565b916102716003610429600285016103e3565b93016103e3565b6104686102639461046160609498979561045a608086019a60008701906001600160a01b03169052565b6020850152565b6040830152565b0152565b34610248576102e36104876104823660046103a3565b6103ed565b9061049494929460405190565b94859485610430565b9190604083820312610248576102719060206104b98286610256565b94016102ef565b34610248576103286104d336600461049d565b906121c2565b610265610271610271926001600160a01b031690565b610271906104d9565b610271906104ef565b906103ce906104f8565b610271916008021c5b60ff1690565b90610271915461050b565b600061053561027192600d610501565b61051a565b34610248576102e3610390610550366004610349565b610525565b634e487b7160e01b600052604160045260246000fd5b90601f01601f191681019081106001600160401b0382111761058c57604052565b610555565b9061026361059e60405190565b928361056b565b6001600160401b03811161058c57602090601f01601f19160190565b0190565b90826000939282370152565b909291926105e66105e1826105a5565b610591565b9381855281830111610248576102639160208501906105c5565b9080601f8301121561024857816020610271933591016105d1565b919091604081840312610248576106328382610256565b9260208201356001600160401b038111610248576102719201610600565b346102485761032861066336600461061b565b906123ad565b600091031261024857565b6102716000600c61051a565b3461024857610690366004610669565b6102e3610390610674565b634e487b7160e01b600052602260045260246000fd5b90600160028304921680156106d1575b60208310146106cc57565b61069b565b91607f16916106c1565b805460009392916106f86106ee836106b1565b8085529360200190565b916001811690811561074a575060011461071157505050565b6107249192939450600052602060002090565b916000925b8184106107365750500190565b805484840152602090930192600101610729565b92949550505060ff1916825215156020020190565b90610271916106db565b906102636107839261077a60405190565b9384809261075f565b038361056b565b6102716080610591565b906102636107e860036107a561078a565b946107b66107b282610769565b8752565b6107cc6107c560018301610769565b6020880152565b6107e26107db60028301610769565b6040880152565b01610769565b6060840152565b61027190610514565b61027190546107ef565b906102636107e8600361081361078a565b946108206107b2826103e3565b61082f6107c5600183016103e3565b61084761083e600283016107f8565b15156040880152565b016103e3565b6102716060610591565b9061026361088a600261086861084d565b9461087b610875826107f8565b15158752565b6108476107c5600183016103e3565b6040840152565b9061026361088a60026108a261084d565b946108af6107b282610769565b6108476107c560018301610769565b6102719060081c610514565b61027190546108be565b906102636107e860026108e561078a565b946108f2610875826107f8565b6109076108fe826108ca565b15156020880152565b6108476107db600183016103e3565b6109219060026103c4565b61092a81610794565b9161093760048301610802565b9161094460088201610857565b91610271600e610956600b8501610891565b93016108d4565b60005b8381106109705750506000910152565b8181015183820152602001610960565b6109a16109aa6020936105c193610995815190565b80835293849260200190565b9586910161095d565b601f01601f191690565b6102719160606109fd6109eb6109d96080850160008701518682036000880152610980565b60208601518582036020870152610980565b60408501518482036040860152610980565b920151906060818403910152610980565b8051825261026391906060908190610a2b60208201516020860152565b6040818101511515908501525b0151910152565b80511515825261026391906040908190610a3860208201516020860152565b9061027190604080610a94610a826060850160008801518682036000880152610980565b60208701518582036020870152610980565b940151910152565b80511515825261026391906060908190602081810151151590850152610a3860408201516040860152565b9594929161026394610b0961012094610aff610af4610b17966101a08d01908d60008184039101526109b4565b9460208c0190610a0e565b60a08a0190610a3f565b878203610100890152610a5e565b940190610a9c565b34610248576102e3610b3a610b353660046103a3565b610916565b91610b4795939560405190565b95869586610ac7565b6102716107086103b7565b610271610b50565b3461024857610b73366004610669565b6102e36102d3610b5b565b3461024857610328610b91366004610349565b61246b565b3461024857610ba6366004610669565b610328612491565b919060408382031261024857610271906020610bca8286610256565b9401610256565b610271916008021c81565b906102719154610bd1565b610c0061027192610bfb600093600a6103c4565b6103c4565b610bdc565b34610248576102e36102d3610c1b366004610bae565b90610be7565b9160608383031261024857610c368284610256565b9260208101356001600160401b0381116102485783610c56918301610600565b9260408201356001600160401b038111610248576102719201610600565b3461024857610328610c87366004610c21565b91612849565b908152606081019392610263929091604091610468906020830152565b34610248576102e3610cc6610cc0366004610290565b90612be7565b60405191939193849384610c8d565b610271610e106103b7565b610271610cd5565b3461024857610cf8366004610669565b6102e36102d3610ce0565b80516001600160a01b03168252610263919060c0908190602081810151151590850152610d3560408201516040860152565b610d4460608201516060860152565b610d5360808201516080860152565b610a3860a082015160a0860152565b60e0810192916102639190610d03565b34610248576102e3610d8d610d883660046103a3565b612cc9565b60405191829182610d62565b3461024857610da9366004610669565b6102e3610dbe6001546001600160a01b031690565b604051918291826001600160a01b03909116815260200190565b9160608383031261024857610ded8284610256565b92610c568360208301610283565b3461024857610328610e0e366004610dd8565b91612e61565b90610e34610e2d610e23845190565b8084529260200190565b9260200190565b9060005b818110610e455750505090565b909192610e62610e5b6001928651815260200190565b9460200190565b929101610e38565b602080825261027192910190610e14565b34610248576102e3610e96610e913660046103a3565b612ef1565b60405191829182610e6a565b6102719060a01c610514565b6102719054610ea2565b610ec39060086103c4565b80546001600160a01b031691610ed882610eae565b91610ee5600182016103e3565b91610ef2600283016103e3565b91610eff600382016103e3565b916102716005610429600485016103e3565b949290979695939160e086019860008701610f33916001600160a01b03169052565b1515602086015260408501526060840152608083015260a082015260c00152565b34610248576102e3610f6f610f6a3660046103a3565b610eb8565b93610f7f97959793919360405190565b97889788610f11565b909182601f83011215610248578135916001600160401b03831161024857602001926020830284011161024857565b906060828203126102485781356001600160401b0381116102485781610fde918401610f88565b92909360208201356001600160401b0381116102485783611000918401610f88565b92909360408201356001600160401b038111610248576110209201610f88565b9091565b3461024857610328611037366004610fb7565b9493909392919261322a565b634e487b7160e01b600052603260045260246000fd5b805482101561107c57611073600191600052602060002090565b91020190600090565b611043565b61108c9060066103c4565b805482101561024857610271916110a291611059565b90610bdc565b34610248576102e36102d36110be366004610bae565b90611081565b606081830312610248576110d88282610256565b9260208201356001600160401b0381116102485783611000918401610f88565b34610248576102e3610e9661110e3660046110c4565b9392909261355c565b346102485761032861112a36600461061b565b90613652565b901515815290151560208201526060810192916102639160400152565b34610248576102e36111686111633660046103a3565b61365c565b60405191939193849384611130565b34610248576102e36102d361118d366004610bae565b906137de565b61053561027192610bfb600093600b6103c4565b34610248576102e36103906111bd366004610bae565b90611193565b919091608081840312610248576111da6080610591565b9281356001600160401b03811161024857816111f7918401610600565b845260208201356001600160401b0381116102485781611218918401610600565b602085015260408201356001600160401b038111610248578161123c918401610600565b604085015260608201356001600160401b0381116102485761125e9201610600565b6060830152565b91906080838203126102485761125e9060606112816080610591565b9461128c8382610256565b865261129b8360208301610256565b60208701526112ad83604083016102ef565b604087015201610256565b9190606083820312610248576104619060406112d46060610591565b946112df83826102ef565b86526112ee8360208301610256565b602087015201610256565b919091606081840312610248576113106060610591565b9281356001600160401b038111610248578161132d918401610600565b845260208201356001600160401b03811161024857826112ee836040936104619601610600565b6001600160401b03811161058c5760208091020190565b6004111561024857565b905035906102638261136b565b909291926113926105e182611354565b938185526020808601920283019281841161024857915b8383106113b65750505050565b602080916113c48486610256565b8152019201916113a9565b9080601f830112156102485781602061027193359101611382565b9190916101c081840312610248576114036101c0610591565b9261140e8183611375565b845261141d8160208401610283565b602085015261142f8160408401610256565b60408501526114418160608401610256565b60608501526114538160808401610256565b60808501526114658160a08401610256565b60a08501526114778160c08401610256565b60c08501526114898160e08401610256565b60e08501526101008201356001600160401b03811161024857816114ae918401610600565b6101008501526101208201356001600160401b03811161024857816114d4918401610600565b6101208501526101408201356001600160401b03811161024857816114fa918401610600565b6101408501526101608201356001600160401b0381116102485781611520918401610600565b6101608501526101808201356001600160401b0381116102485781611546918401610600565b6101808501526101a08201356001600160401b0381116102485761156a92016113cf565b6101a0830152565b9291906115816105e182611354565b93818552602080860192028101918383116102485781905b8382106115a7575050505050565b81356001600160401b038111610248576020916115c787849387016113ea565b815201910190611599565b9080601f830112156102485781602061027193359101611572565b919091610140818403126102485761160560a0610591565b9281356001600160401b03811161024857816116229184016111c3565b84526116318160208401611265565b60208501526116438160a084016112b8565b60408501526101008201356001600160401b03811161024857816116689184016112f9565b60608501526101208201356001600160401b0381116102485761168b92016115d2565b6080830152565b906020828203126102485781356001600160401b0381116102485761027192016115ed565b34610248576102e36102d36116cd366004611692565b613cfd565b9091606082840312610248576102716116eb8484610256565b936040610bca8260208701610256565b34610248576102e3610e966117113660046116d2565b91613eb2565b634e487b7160e01b600052602160045260246000fd5b6004111561173757565b611717565b906102638261172d565b6102719061173c565b6102b390611746565b90611767610e2d610e23845190565b9060005b8181106117785750505090565b90919261178e610e5b6001928651815260200190565b92910161176b565b610271916101a061189461188061186c6118586118446101c087016117c360008a015160008a019061174f565b6020898101516001600160a01b0316908901526117e560408a015160408a0152565b6117f460608a015160608a0152565b61180360808a015160808a0152565b61181260a08a015160a08a0152565b61182160c08a015160c08a0152565b61183060e08a015160e08a0152565b6101008901518882036101008a0152610980565b610120880151878203610120890152610980565b610140870151868203610140880152610980565b610160860151858203610160870152610980565b610180850151848203610180860152610980565b920151906101a0818403910152611758565b9061027191611796565b906118c66118bc835190565b8083529160200190565b90816118d86020830284019460200190565b926000915b8383106118ec57505050505090565b9091929394602061190f611908838560019503875289516118a6565b9760200190565b93019301919392906118dd565b80516101c0808452610271939160a0916119729161193c918501906109b4565b61194e60208601516020860190610a0e565b61195f604086015184860190610a3f565b6060850151848203610100860152610a5e565b926119866080820151610120850190610a9c565b0151906101a08184039101526118b0565b60208082526102719291019061191c565b34610248576102e36119c36119be3660046103a3565b6141cd565b60405191829182611997565b34610248576103286119e2366004610349565b61425d565b610c00610271926119fb60009360076103c4565b610501565b34610248576102e36102d3611a16366004610290565b906119e7565b90611a2f9291611a2a614270565b611a84565b906102636142b0565b15611a3f57565b60405162461bcd60e51b815260206004820152601260248201527f436f6e74726163742069732070617573656400000000000000000000000000006044820152606490fd5b906102719291611aa3611a9e611a9a600c6107f8565b1590565b611a38565b611c0e565b634e487b7160e01b600052601160045260246000fd5b6000198114611acd5760010190565b611aa8565b90600019905b9181191691161790565b90611af2610271611af9926103b7565b8254611ad2565b9055565b634e487b7160e01b600052600060045260246000fd5b906001600160a01b0390611ad8565b90611b32610271611af9926104f8565b8254611b13565b90611af2610271611af99290565b6003611ba2606061026394611b6f611b6960008301516001600160a01b031690565b86611b22565b611b86611b7d602083015190565b60018701611ae2565b611b9d611b94604083015190565b60028701611b39565b015190565b9101611ae2565b9061026391611b47565b9160001960089290920291821b911b611ad8565b9190611bd8610271611af9936103b7565b908354611bb3565b908154916801000000000000000083101561058c5782611c0891600161026395018155611059565b90611bc7565b5090611c1c600082846143a6565b611c30611c2960056103e3565b8383614543565b907fc3013841eb45dbf48e54bccdbdfca27c812fe5016e531d0ff451032d38369c6f611d22611d0c611d06611c6560056103e3565b96611c79611c7289611abe565b6005611ae2565b611cc1611c8461078a565b6001600160a01b0388168152611c9b836020830152565b611ca6896040830152565b611cb1426060830152565b611cbc8a60046103c4565b611ba9565b611cd888611cd36102718460066103c4565b611be0565b611d01611cea876119fb8460076103c4565b611cfb611cf6826103e3565b611abe565b90611ae2565b6103b7565b936104f8565b93611d1660405190565b91829142908884610c8d565b0390a390565b61027191906000611a1c565b61026390611d406145b4565b611d65565b9060ff90611ad8565b90611d5e610271611af992151590565b8254611d45565b611d7081600c611d4e565b15611da5577fab35696f06e428ebc5ceba8cd17f8fed287baf43440206d1943af1ee53e6d267611d9f60405190565b600090a1565b7f0e5e3b3fb504c22cf5c42fa07d521225937514c654007e1f12646f89768d6f94611d9f60405190565b61026390611d34565b610271916119fb611df392611deb600090565b5060076103c4565b6103e3565b61026390611e046145b4565b611eef565b6102656102716102719290565b61027190611e09565b15611e2657565b60405162461bcd60e51b815260206004820152600f60248201527f494e56414c49445f4144445245535300000000000000000000000000000000006044820152606490fd5b15611e7257565b60405162461bcd60e51b81526020600482015260096024820152682727aa2fa0a226a4a760b91b6044820152606490fd5b15611eaa57565b60405162461bcd60e51b815260206004820152601360248201527f43414e4e4f545f52454d4f56455f4f574e4552000000000000000000000000006044820152606490fd5b611f7290611f14611f036102656000611e16565b6001600160a01b0383161415611e1f565b611f2f611f2a611f2583600d610501565b6107f8565b611e6b565b611f58611f476102656001546001600160a01b031690565b6001600160a01b0383161415611ea3565b611f6d6000611f6883600d610501565b611d4e565b6104f8565b7fa3b62bc36326052d97ea62d63c3d60308ed4c3ea8ac079dd8499f1e9c4f80c0f611f9c60405190565b80805b0390a2565b61026390611df8565b611f2561027191611fbc600090565b50600d610501565b15611fcb57565b60405162461bcd60e51b815260206004820152600e60248201527f4e6f7420417574686f72697a65640000000000000000000000000000000000006044820152606490fd5b906102639161202b612026611f2533600d610501565b611fc4565b9061026391612040611a9e611a9a600c6107f8565b612117565b1561204c57565b60405162461bcd60e51b815260206004820152601160248201527f524146464c455f4e4f545f4558495354530000000000000000000000000000006044820152606490fd5b1561209857565b60405162461bcd60e51b815260206004820152601460248201527f524146464c455f414c52454144595f445241574e0000000000000000000000006044820152606490fd5b156120e457565b60405162461bcd60e51b815260206004820152600b60248201526a1053149150511657d4d15560aa1b6044820152606490fd5b61218690611d01836000600e6121316102718660026103c4565b6121586121428460048401016103e3565b61215261214e866103b7565b9190565b11612045565b010161216e612169611a9a836108ca565b612091565b611f6861217a826107f8565b151583151514156120dd565b7f749ebdef365d5cfb45277b1b6f7fde8faa320b22253fcef31c7bdf8136164ec56121bd6121b3336104f8565b9361039460405190565b0390a3565b9061026391612010565b90610263916121e2612026611f2533600d610501565b90610263916121f7611a9e611a9a600c6107f8565b612305565b1561220357565b60405162461bcd60e51b815260206004820152601160248201527f524146464c455f4e4f545f4143544956450000000000000000000000000000006044820152606490fd5b1561224f57565b60405162461bcd60e51b815260206004820152600d60248201526c20a62922a0a22cafa22920aba760991b6044820152606490fd5b1561228b57565b60405162461bcd60e51b815260206004820152600f60248201527f524541534f4e5f524551554952454400000000000000000000000000000000006044820152606490fd5b9061ff009060081b611ad8565b906122ed610271611af992151590565b82546122d0565b602080825261027192910190610980565b611f9f61239a7f4b065d94bb5f805836b9aefd08a7b4388cfdd8d346a56ef0a4a547dbca8b8f1f92611d0160016000600e6123446102718660026103c4565b0161236c612367611a9a84840161236261235d826107f8565b6121fc565b6108ca565b612248565b6123896123778a5190565b61238361214e856103b7565b11612284565b01612395600082611d4e565b6122dd565b926123a460405190565b918291826122f4565b90610263916121cc565b610263906123c36145b4565b612404565b156123cf57565b60405162461bcd60e51b815260206004820152600d60248201526c20a62922a0a22cafa0a226a4a760991b6044820152606490fd5b61244190612418611f036102656000611e16565b61243161242c611a9a611f2584600d610501565b6123c8565b611f6d6001611f6883600d610501565b7f44d6d25963f097ad14f29f06854a01f575648a1ef82f30e562ccd3889717e339611f9c60405190565b610263906123b7565b61247c6145b4565b61026361026361248c6000611e16565b6145fe565b610263612474565b9061026392916124b0612026611f2533600d610501565b9061026392916124c6611a9e611a9a600c6107f8565b612707565b156124d257565b60405162461bcd60e51b815260206004820152600f60248201527f5052495a455f4e4f545f445241574e00000000000000000000000000000000006044820152606490fd5b1561251e57565b60405162461bcd60e51b815260206004820152601160248201527f414c52454144595f44454c4956455245440000000000000000000000000000006044820152606490fd5b1561256a57565b60405162461bcd60e51b815260206004820152601860248201527f44454c49564552595f4d4554484f445f524551554952454400000000000000006044820152606490fd5b9060ff60a01b9060a01b611ad8565b906125ce610271611af992151590565b82546125af565b156125dc57565b60405162461bcd60e51b815260206004820152601360248201527f494e56414c49445f5052495a455f494e444558000000000000000000000000006044820152606490fd5b805482101561107c57611073600d91600052602060002090565b8054600093929161264e6106ee836106b1565b916001811690811561074a575060011461266757505050565b61267a9192939450600052602060002090565b916000925b81841061268c5750500190565b80548484015260209093019260010161267f565b96959360a0936126f4916126e76126d58b612702976126c86102639c98600060c08501940152565b8d820360208f015261263b565b6001600160a01b0390931660408c0152565b89820360608b0152610980565b908782036080890152610980565b940152565b91906127148360086103c4565b91612721600484016103e3565b61272b60006103b7565b10612735906124cb565b829161274083610eae565b1561274a90612517565b805161275660006103b7565b1061276090612563565b61276b6001846125be565b6127784260058601611ae2565b60028401612785816103e3565b6127909060026103c4565b946003019061279e826103e3565b95601101956127ab875490565b116127b5906125d5565b6127be906103e3565b93546001600160a01b0316946127d3826103e3565b916127dd906103e3565b6127e691612621565b50600701956127f4906103b7565b936127fe906103b7565b94612808906104f8565b9561281260405190565b9384934292339061282395876126a0565b037fcef6d1b833317d0bb1325916e3e8991ff3af40c4da83e3cedbc19b4a64d1bdf591a4565b906102639291612499565b9061286994939291612864614270565b612874565b9091926102636142b0565b906128919493929161288c611a9e611a9a600c6107f8565b6129f3565b909192565b906102636107e860036128a761078a565b946128c96128bc82546001600160a01b031690565b6001600160a01b03168752565b6128d86107c5600183016103e3565b6108476107db600283016103e3565b61027190612896565b610271906103b7565b634e487b7160e01b600052601260045260246000fd5b8115612919570690565b6128f9565b8015611acd576000190190565b61027160e0610591565b61026391600590611ba29060c09061296e8561296161295b84516001600160a01b031690565b82611b22565b60208301511515906125be565b61298561297c604083015190565b60018701611b39565b61299c612993606083015190565b60028701611ae2565b6129b36129aa608083015190565b60038701611ae2565b611b9d6129c160a083015190565b60048701611ae2565b9061026391612935565b6104686102639461046160609498979561045a608086019a6000870152565b949294505050600191612a078382866143a6565b612a156102718560026103c4565b90612a208186614653565b91612a34612a2f8460046103c4565b6128e7565b94612a48612a43858986614543565b6128f0565b96600e830192612a6e82612a688587019b612a628d6103e3565b9061290f565b836146e8565b988991612a7d600882016107f8565b612bab575b50505060028301612a92816103e3565b612a9b9061291e565b612aa59082611ae2565b612aaf60096103e3565b97612ab989611abe565b612ac4906009611ae2565b60400151612ad061292b565b6001600160a01b03871681529084151560208301526040820152612af5836060830152565b612b008a6080830152565b612b0b4260a0830152565b612b164260c0830152565b612b218960086103c4565b90612b2b916129ca565b612b34906103e3565b612b3e60006103b7565b1492612b5492612b5a94612b9b575b50506103b7565b916104f8565b907f5b6db09229f804e15657628b57342d213a730173bd981b36dbc89bc94199b8f9612b8560405190565b80612b9342898b89856129d4565b0390a3929190565b612ba4916122dd565b3880612b4d565b6002612bc0612bdf946011612bce9401612621565b5001611cfb611cf6826103e3565b611cfb612bda826103e3565b61291e565b873880612a82565b612891919060008080612854565b612bfd61292b565b90600082526020808080808080880160008152016000815201600081520160005b81520160005b8152016000905250565b610271612bf5565b90610263612cb96005612c4761292b565b94612c5c6128bc82546001600160a01b031690565b612c686108fe82610eae565b612c776107db600183016103e3565b612c8d612c86600283016103e3565b6060880152565b612ca3612c9c600383016103e3565b6080880152565b610847612cb2600483016103e3565b60a0880152565b60c0840152565b61027190612c36565b612ce061027191612cd8612c2e565b5060086103c4565b612cc0565b906102639291612cfc612026611f2533600d610501565b906102639291612d12611a9e611a9a600c6107f8565b612dcc565b15612d1e57565b60405162461bcd60e51b815260206004820152601760248201527f504c415945525f4e4f545f5041525449434950415445440000000000000000006044820152606490fd5b15612d6a57565b60405162461bcd60e51b815260206004820152600f60248201527f4d4554484f445f524551554952454400000000000000000000000000000000006044820152606490fd5b929160206127026102639360408701908782036000890152610980565b612b54612e1991612dfb612de8611df3866119fb8560076103c4565b612df561214e60006103b7565b11612d17565b611d01612e06865190565b612e1361214e60006103b7565b11612d63565b907f259b46e60d1e2edd3ff15970de1b6023efe23ee42e5d8eb42cad548a7e195704612e5c612e47336104f8565b94612e5160405190565b918291429083612daf565b0390a4565b906102639291612ce5565b90612e87612e7b610e23845490565b92600052602060002090565b9060005b818110612e985750505090565b909192612ebc612eb5600192612ead876103e3565b815260200190565b9460010190565b929101612e8b565b9061027191612e6c565b9061026361078392612edf60405190565b93848092612ec4565b61027190612ece565b612f0861027191612f00606090565b5060066103c4565b612ee8565b906102639594939291612f27612026611f2533600d610501565b906102639594939291612f40611a9e611a9a600c6107f8565b61309d565b15612f4c57565b60405162461bcd60e51b815260206004820152601560248201527f41525241595f4c454e4754485f4d49534d4154434800000000000000000000006044820152606490fd5b919081101561107c576020020190565b356102718161024d565b35610271816102e7565b903590601e19368290030182121561024857018035906001600160401b038211610248576020019136829003831361024857565b9082101561107c5760206110209202810190612fb5565b91906109aa81613017816105c19560209181520190565b80956105c5565b969593926102639560a0946130586130468b612702976126c861306598600060c08501940152565b6001600160a01b0390941660408c0152565b89830360608b0152613000565b8681036080880152600f81527f426174636820636f6e6669726d65640000000000000000000000000000000000602082015260400190565b90919392956130a98390565b966130b7815b895b14612f45565b6130c0876130af565b6000916130cd60006103b7565b895b81101561321e57886130f861027160086130f26130ed868c8c612f91565b612fa1565b906103c4565b61310b61310684878d612f91565b612fab565b613126575b505061311f6130cf9160010190565b90506130cd565b8581016131346001826125be565b6131414260058401611ae2565b8860028b868b8184880194613155866103e3565b61315e916103c4565b9561316892612f91565b61317190612fa1565b9261317b906103e3565b94546001600160a01b031695600301613193816103e3565b94601101906131a1906103e3565b6131aa91612621565b50600701966131b892612fe9565b9290916131c4906103b7565b936131ce906103b7565b946131d8906104f8565b956131e260405190565b938493429233906131f3958761301e565b037fcef6d1b833317d0bb1325916e3e8991ff3af40c4da83e3cedbc19b4a64d1bdf591a48838613110565b50975050505050505050565b906102639594939291612f0d565b906102719594939291613252612026611f2533600d610501565b90611a2f9594939291613263614270565b90610271959493929161327c611a9e611a9a600c6107f8565b6132df565b9061328e6105e183611354565b918252565b369037565b906102636132ae6132a884613281565b93611354565b601f190160208401613293565b3561027181610274565b906132ce825190565b81101561107c576020809102010190565b5060c05260e09290925280936132f584866130b1565b61330561027160c05160026103c4565b9061331561235d600e84016107f8565b61331e86613298565b9561332960006103b7565b6080525b805b60805110156135235761332f906133618561344b60008a6134438b6134408f61336e6133666133616080518b87612f91565b6132bb565b60c051614653565b60a05261340c6133c76130ed6133ba61338760096103e3565b9c8d9761339d6133968a611abe565b6009611ae2565b6133b06002610847600460a051906103c4565b9d60805191612f91565b976080519060e051612f91565b6133f860019a6133e96133d861292b565b6001600160a01b03909a168b8b0152565b8b151560208a01526040890152565b61340560c0516060890152565b6080870152565b6134174260a0870152565b6134224260c0870152565b61343760089561343285886103c4565b6129ca565b608051906132c5565b52565b8801016107f8565b6134e2575b5061346460108601611cfb612bda826103e3565b613474613361608051888a612f91565b7f0bc9c356ec1019c975634201349badd0ee43e7206fa3154f3ee03e47b7d866db6134a76130ed6080518c60e051612f91565b926134b6611d0660c0516103b7565b936134cf6134c360405190565b92839260a05184610c8d565b0390a3608051600101608052905061332d565b61351d9061350c6002612bc08c6135066130ed60118d01926080519060e051612f91565b90612621565b600e870101611cfb612bda826103e3565b38613450565b5094935091506135379050601082016103e3565b61354461214e60006103b7565b1461354d575090565b61027190600190600e016122dd565b61027194939291906060613238565b9061026391613580611a9e611a9a600c6107f8565b6135d1565b1561358c57565b60405162461bcd60e51b815260206004820152601060248201527f4e4f545f504152544943495041544544000000000000000000000000000000006044820152606490fd5b61361b906136036135f0611df36135e98460076103c4565b3390610501565b6135fd61214e60006103b7565b11613585565b611d0161360e845190565b61238361214e60006103b7565b7f76c33f5e956b8abcdb078dbce97bc0918b4d6166de75b38f6260813e17ad9f036121bd613648336104f8565b93612e5160405190565b906102639161356b565b613675610271600e9261366d600090565b5060026103c4565b613691613684600483016103e3565b61215261214e60006103b7565b019081906136b360026136ac6136a6856107f8565b946108ca565b94016103e3565b91929190565b90611a2f92916136c7614270565b9061027192916136dd611a9e611a9a600c6107f8565b613755565b156136e957565b60405162461bcd60e51b8152602060048201526009602482015268544f4f5f4541524c5960b81b6044820152606490fd5b1561372157565b60405162461bcd60e51b815260206004820152600c60248201526b14905191931157d15391115160a21b6044820152606490fd5b5061027191613766838360026103c4565b6137b46137a16002600e8401613781612367611a9a836108ca565b610847600486016137938482016107f8565b9081156137c4575b506136e2565b6137ae61214e60006103b7565b1161371a565b6137be60006103b7565b9161478d565b6137d59150600361027191016103e3565b4210153861379b565b610271919060006136b9565b9061027191613800612026611f2533600d610501565b9061027191613815611a9e611a9a600c6107f8565b613ba5565b1561382157565b60405162461bcd60e51b815260206004820152600e60248201527f5449544c455f52455155495245440000000000000000000000000000000000006044820152606490fd5b1561386d57565b60405162461bcd60e51b815260206004820152600c60248201526b494e56414c49445f4441544560a01b6044820152606490fd5b156138a857565b60405162461bcd60e51b815260206004820152601060248201527f524146464c455f544f4f5f53484f5254000000000000000000000000000000006044820152606490fd5b156138f457565b60405162461bcd60e51b815260206004820152600e60248201527f445241575f544f4f5f4541524c590000000000000000000000000000000000006044820152606490fd5b61026391600091611bc7565b818110613950575050565b8061395e6000600193613939565b01613945565b9190601f811161397357505050565b61398561026393600052602060002090565b906020601f8401819004830193106139a7575b6020601f909101040190613945565b9091508190613998565b906139ba815190565b906001600160401b03821161058c576139dd826139d785546106b1565b85613964565b602090601f8311600114613a1857611af9929160009183613a0d575b5050600019600883021c1916906002021790565b0151905038806139f9565b601f19831691613a2d85600052602060002090565b9260005b818110613a6b57509160029391856001969410613a52575b50505002019055565b01516000196008601f8516021c19169055388080613a49565b91936020600181928787015181550195019201613a31565b90610263916139b1565b6003613ada606061026394613aac613aa6600083015190565b86613a83565b613ac3613aba602083015190565b60018701613a83565b611b9d613ad1604083015190565b60028701613a83565b9101613a83565b9061026391613a8d565b6003611ba2606061026394613b0a613b04600083015190565b86611ae2565b613b18611b7d602083015190565b611b9d613b286040830151151590565b60028701611d4e565b9061026391613aeb565b6002611ba2604061026394613b5c613b566000830151151590565b86611d4e565b611b9d611b7d602083015190565b9061026391613b3b565b6002611ba2604061026394613b8d613aa6600083015190565b611b9d613aba602083015190565b9061026391613b74565b508051515161027191613bc6600092613bc061214e856103b7565b1161381a565b60806020820191613bf3613bdc60208551015190565b613bed61214e610271888851015190565b11613866565b613c24613c0f613c0560208651015190565b8551870151900390565b613c1d61214e610271610cd5565b10156138a1565b613c57613c3360608551015190565b613c5061214e610271613c4860208951015190565b6105c1610b50565b10156138ed565b613cf5613c6460036103e3565b94613c78613c7187611abe565b6003611ae2565b613ca3613c896102718860026103c4565b95613c9983860151848901613ae1565b5160048701613b31565b613cb4604084015160088701613b6a565b613cc56060840151600b8701613b9b565b6002613ce1600e870192611d0181808601612395600182611d4e565b91613cef8360018301611ae2565b01611ae2565b015191614c24565b6102719060006137ea565b90610271939291613d20612026611f2533600d610501565b90611a2f939291613d2f614270565b90610271939291613d46611a9e611a9a600c6107f8565b613dba565b15613d5257565b60405162461bcd60e51b815260206004820152601960248201527f53544152545f494e4445585f4f55545f4f465f424f554e4453000000000000006044820152606490fd5b9190613da2565b9290565b8201809211611acd57565b91908203918211611acd57565b5091929190613dcd6102718360026103c4565b613ddf612367611a9a600e84016108ca565b613df9613df1610271600784016103e3565b4210156136e2565b613e3882613e0b612f088660066103c4565b96613e29613e17895190565b91613e23838510613d4b565b83613d97565b90808211613eaa575b50613dad565b94613e4286613298565b94613e4d60006103b7565b875b811015613ea057613e9981613e93613e8989613e7e613e7a613e74613e4f988d613d97565b8a6132c5565b5190565b896137be868d613d97565b613440838c6132c5565b60010190565b9050613e4d565b5095505050505090565b905038613e32565b6102719291906060613d08565b61027160c0610591565b613ed161078a565b906060825260208080808501606081520160605b8152016060905250565b610271613ec9565b613eff61078a565b9060008252602080808085016000612c1e565b610271613ef7565b613f2261084d565b90600082526020808084016000612c24565b610271613f1a565b613f4461084d565b90606082526020808084016060612c24565b610271613f3c565b613f66613ebf565b90613f6f613eef565b8252602080808080808701613f82613f12565b815201613f8d613f34565b815201613f98613f56565b815201613ee5613f12565b610271613f5e565b906102b39061173c565b6102719060081c610265565b6102719054613fb5565b6102716101c0610591565b906102636140f7600c613fe7613fcb565b94613ffa613ff4826107f8565b87613fab565b61401661400682613fc1565b6001600160a01b03166020880152565b6140256107db600183016103e3565b614034612c86600283016103e3565b614043612c9c600383016103e3565b614052612cb2600483016103e3565b614068614061600583016103e3565b60c0880152565b61407e614077600683016103e3565b60e0880152565b61409561408d60078301610769565b610100880152565b6140ac6140a460088301610769565b610120880152565b6140c36140bb60098301610769565b610140880152565b6140da6140d2600a8301610769565b610160880152565b6140f16140e9600b8301610769565b610180880152565b01612ece565b6101a0840152565b61027190613fd6565b90614111825490565b61411a81613281565b9261412e6020850191600052602060002090565b6000915b83831061413f5750505050565b600d602060019261414f856140ff565b815201920192019190614132565b906102636141bd601161416e613ebf565b9461417b6107b282610794565b61418a6107c560048301610802565b6141996107db60088301610857565b6141a8612c86600b8301610891565b6141b7612c9c600e83016108d4565b01614108565b60a0840152565b6102719061415d565b614200610271916141dc613fa3565b506141f9613684600060046141f28560026103c4565b01016103e3565b60026103c4565b6141c4565b610263906142116145b4565b600061421c81611e16565b6001600160a01b0381166001600160a01b03841614614240575050610263906145fe565b631e4fbdf760e01b82526001600160a01b03166004820152602490fd5b61026390614205565b61027160026103b7565b61427a60006103e3565b614282614266565b90811461429457610263906000611ae2565b633ee5aeb560e01b6000908152600490fd5b61027160016103b7565b6102636142bb6142a6565b6000611ae2565b156142c957565b60405162461bcd60e51b815260206004820152601160248201527f494e5354414e545f445241575f4f4e4c590000000000000000000000000000006044820152606490fd5b1561431557565b60405162461bcd60e51b815260206004820152601260248201527f524146464c455f4e4f545f5354415254454400000000000000000000000000006044820152606490fd5b1561436157565b60405162461bcd60e51b815260206004820152601b60248201527f50415254494349504154494f4e5f4c494d49545f5245414348454400000000006044820152606490fd5b91906143b38360026103c4565b600481016143c0816103e3565b60009485916143ce836103b7565b106143d890612045565b6144749361444a614442610271600161446e9761084761443a61027160029a60089a6144c2575b6144336144278d600e8d01610847614422611a9a87840161236261235d826107f8565b61371a565b6137ae61214e846103b7565b84016103e3565b42101561430e565b42111561371a565b01614457600182016103e3565b614460876103b7565b81116144a0575b50016103e3565b926103b7565b821161447f57505050565b61214e613d9e611df361449a936119fb6102639760076103c4565b1061435a565b6144bc9061449a61214e613d9e6144b88c60066103c4565b5490565b38614467565b6144d56144d08d87016107f8565b6142c2565b6143ff565b979593919a9998969492909a61014089019b60008a01614501916001600160a01b03169052565b602089015260408801526060870152608086015260a085015260c08401526001600160a01b031660e08301526001600160a01b03166101008201526101200152565b9161459e9161459261455e61455860016103b7565b43613dad565b9461456c61455860026103b7565b905a9161457860405190565b97889660208801963294419440934092449242928b6144da565b9081038252038261056b565b6145b06145a9825190565b9160200190565b2090565b6001546001600160a01b031633906145d4825b916001600160a01b031690565b036145dc5750565b63118cdaa760e01b60009081526001600160a01b039091166004526024036000fd5b614621612b546146166001546001600160a01b031690565b611f6d846001611b22565b907f8be0079c531659141344cd1fd0a4f28419497f9722a3daafe3b4186f6b6457e061464c60405190565b80806121bd565b90611cea61027191614663600090565b506119fb61467b61467460056103e3565b8684614543565b946146cf61468960056103e3565b96614696611c7289611abe565b6146b96146a161078a565b6001600160a01b038716815291610461856020850152565b6146c4426060830152565b611cbc8860046103c4565b6146e186611cd36102718460066103c4565b60076103c4565b91906146f6600884016107f8565b156147045761027192614e56565b906102719250614d77565b1561471657565b60405162461bcd60e51b815260206004820152601360248201527f494e56414c49445f5041525449434950414e54000000000000000000000000006044820152606490fd5b909594926102639461125e6104689261478660809661477f60a088019c6000890152565b6020870152565b6040850152565b9092909161479f612a2f8460046103c4565b80516001600160a01b0316946147c76000966147c06145c76102658a611e16565b141561470f565b6147f3612a4387840194866147ed6147e688516001600160a01b031690565b928a613d97565b91614543565b95600e82019061480a6001830198612a628a6103e3565b926148168785836146e8565b98816148278460088d9501016107f8565b61499e575b50505061483960096103e3565b9161484383611abe565b61484e906009611ae2565b604085019661485b885190565b9061486d88516001600160a01b031690565b9161487661292b565b6001600160a01b03909316858401528415156020840152604083015260608201526148a28a6080830152565b6148ad4260a0830152565b6148b6836103b7565b906148c28260c0830152565b6148cd8560086103c4565b906148d7916129ca565b600282016148e4816103e3565b6148ed9061291e565b6148f79082611ae2565b614900906103e3565b1461496261495c61495761494960207f2120864ccf2c79a4cad1014109df7e170cf9e4c2664ab542e5493b272ab685909a6149849861496e986149689861498a575b5050015190565b99516001600160a01b031690565b995190565b946103b7565b966103b7565b966104f8565b9661497860405190565b9384938a42938661475b565b0390a490565b61499791600191016122dd565b3880614942565b6002612bc06149b3946011612bce9401612621565b87388061482c565b610271905161173c565b90611d5e610271611af992611746565b9074ffffffffffffffffffffffffffffffffffffffff009060081b611ad8565b90614a05610271611af9926104f8565b82546149d5565b919091828210614a1b57505050565b6102639291614a309091600052602060002090565b9182019101613945565b9068010000000000000000811161058c5781614a57610263935490565b90828155614a0c565b8151916001600160401b03831161058c57614a8a612e7b600192614a848686614a3a565b60200190565b92049160005b838110614a9d5750505050565b6001906020614aad610271865190565b9401938184015501614a90565b9061026391614a60565b61026391600c90614bdb906101a090614afd85614ae9614ae3846149bb565b826149c5565b60208301516001600160a01b0316906149f5565b614b0b611b7d604083015190565b614b19612993606083015190565b614b276129aa608083015190565b614b356129c160a083015190565b614b4c614b4360c083015190565b60058701611ae2565b614b63614b5a60e083015190565b60068701611ae2565b614b7b614b7261010083015190565b60078701613a83565b614b93614b8a61012083015190565b60088701613a83565b614bab614ba261014083015190565b60098701613a83565b614bc3614bba61016083015190565b600a8701613a83565b611b9d614bd261018083015190565b600b8701613a83565b9101614aba565b9190614bf15761026391614ac4565b611afd565b908154916801000000000000000083101561058c5782614c1e91600161026395018155612621565b90614be2565b929190600093614c3460006103b7565b94614c3d845190565b94865b865b881015614d0c57614d04614cfd82614ce8614cd16040614cb28e614ccb8e614cc48f8f8f8692614c429f614cbe936105c191614c93614c826011966103b7565b6060614c8e8a8d6132c5565b510152565b614ca38160e0614c8e8a8d6132c5565b86614cb88e614cb2838d6132c5565b51015190565b92614f53565b926132c5565b5190614bf6565b8d6132c5565b600f8a0190611cfb90614ce3836103e3565b613d97565b614cf76040614cb28d8c6132c5565b90613d97565b9860010190565b979050614c40565b509550509250614d289150600e016002611ba2600183016103e3565b614d31816103b7565b7f0b5745354685a046e72f24602bcf00fa0ee07f0bf511afb5f2d3ab636241e41b614d5b60405190565b600090a290565b6102716127106103b7565b8115612919570490565b90614d866102718360026103c4565b9060006011614d94826103b7565b930190614d9f825490565b90845b82861015614df057614dc661214e613e236001610847614dc28b8a612621565b5090565b85101580614de7575b614ddd579460010194614da2565b5050505050905090565b50808510614dcf565b50935093611df39150610bfb614e11614e1994614e0b614d62565b90614d6d565b91600a6103c4565b828110614e505750614e2a816103b7565b821115614e46575061027190614e4060016103b7565b90613dad565b61027191506103b7565b91505090565b9091600a92614e65600a6103b7565b93600092614e7360006103b7565b865b811015614f4357614ea1611df3614e97614e8f8488613d97565b614e0b614d62565b610bfb85876103c4565b60118701614eb0610271825490565b8210614ecd575b5050614ec6614e759160010190565b9050614e73565b614dc282614eda92612621565b614ef5614ee9600183016103e3565b614e40600284016103e3565b90614eff886103b7565b8211614f0c575b50614eb7565b61214e613d9e614f2c92614e406006614f25898d613d97565b92016103e3565b10614f38578080614f06565b965050505050505090565b5050509190506102719250614fbe565b92939093614f63620186a06103b7565b811015614fb757614f749083613d97565b915b825b811015614fb757614fb0614f7891614f8e614d62565b906105c188614fab614fa08585614d6d565b610bfb8b600a6103c4565b611ae2565b9050614f76565b5092505050565b9091906011614fcd60006103b7565b910191614fd8835490565b92825b8484101561504c57615004614ff3614dc28685612621565b614e406002614f25600184016103e3565b908087101580615037575b61502d576150279161502091613d97565b9360010190565b92614fdb565b5050509250905090565b506150456102718383613d97565b871061500f565b505092505061027190614e4060016103b756fea26469706673582212201326cc2f8b02961e7747ba958291e61080df58239dd1449c282539243e03132c64736f6c634300081c0033","opcodes":"PUSH1 0x80 PUSH1 0x40 MSTORE CALLVALUE PUSH2 0x22 JUMPI PUSH2 0x11 PUSH2 0xD1 JUMP JUMPDEST PUSH1 0x40 MLOAD PUSH2 0x5095 PUSH2 0x24C DUP3 CODECOPY PUSH2 0x5095 SWAP1 RETURN JUMPDEST PUSH1 0x0 DUP1 REVERT JUMPDEST SWAP1 PUSH1 0x0 NOT SWAP1 JUMPDEST SWAP2 DUP2 NOT AND SWAP2 AND OR SWAP1 JUMP JUMPDEST PUSH2 0x44 PUSH2 0x44 PUSH2 0x44 SWAP3 SWAP1 JUMP JUMPDEST SWAP1 JUMP JUMPDEST SWAP1 PUSH2 0x57 PUSH2 0x44 PUSH2 0x5E SWAP3 PUSH2 0x37 JUMP JUMPDEST DUP3 SLOAD PUSH2 0x27 JUMP JUMPDEST SWAP1 SSTORE JUMP JUMPDEST PUSH2 0x44 SWAP1 PUSH2 0x76 SWAP1 PUSH1 0x1 PUSH1 0x1 PUSH1 0xA0 SHL SUB AND DUP3 JUMP JUMPDEST PUSH1 0x1 PUSH1 0x1 PUSH1 0xA0 SHL SUB AND SWAP1 JUMP JUMPDEST PUSH2 0x44 SWAP1 PUSH2 0x62 JUMP JUMPDEST PUSH2 0x44 SWAP1 PUSH2 0x82 JUMP JUMPDEST SWAP1 PUSH2 0x9E SWAP1 PUSH2 0x8B JUMP JUMPDEST PUSH1 0x0 MSTORE PUSH1 0x20 MSTORE PUSH1 0x40 PUSH1 0x0 KECCAK256 SWAP1 JUMP JUMPDEST SWAP1 PUSH1 0xFF SWAP1 PUSH2 0x2D JUMP JUMPDEST ISZERO ISZERO SWAP1 JUMP JUMPDEST SWAP1 PUSH2 0xCA PUSH2 0x44 PUSH2 0x5E SWAP3 PUSH2 0xB5 JUMP JUMPDEST DUP3 SLOAD PUSH2 0xAC JUMP JUMPDEST PUSH2 0xDA CALLER PUSH2 0x145 JUMP JUMPDEST PUSH2 0x110 PUSH1 0x1 PUSH2 0xEA DUP2 PUSH1 0x3 PUSH2 0x47 JUMP JUMPDEST PUSH2 0xF5 DUP2 PUSH1 0x5 PUSH2 0x47 JUMP JUMPDEST PUSH2 0x100 DUP2 PUSH1 0x9 PUSH2 0x47 JUMP JUMPDEST PUSH2 0x10B CALLER PUSH1 0xD PUSH2 0x94 JUMP JUMPDEST PUSH2 0xBA JUMP JUMPDEST JUMP JUMPDEST PUSH2 0x76 PUSH2 0x44 PUSH2 0x44 SWAP3 SWAP1 JUMP JUMPDEST PUSH2 0x44 SWAP1 PUSH2 0x112 JUMP JUMPDEST PUSH2 0x131 SWAP1 PUSH2 0x76 JUMP JUMPDEST SWAP1 MSTORE JUMP JUMPDEST PUSH1 0x20 DUP2 ADD SWAP3 SWAP2 PUSH2 0x110 SWAP2 SWAP1 PUSH2 0x128 JUMP JUMPDEST PUSH2 0x14D PUSH2 0x197 JUMP JUMPDEST PUSH1 0x0 PUSH2 0x158 DUP2 PUSH2 0x11F JUMP JUMPDEST PUSH2 0x161 DUP2 PUSH2 0x76 JUMP JUMPDEST PUSH2 0x16A DUP5 PUSH2 0x76 JUMP JUMPDEST EQ PUSH2 0x17A JUMPI POP POP PUSH2 0x110 SWAP1 PUSH2 0x1F4 JUMP JUMPDEST PUSH4 0x1E4FBDF7 PUSH1 0xE0 SHL DUP3 MSTORE DUP2 SWAP1 PUSH2 0x193 SWAP1 PUSH1 0x4 DUP4 ADD PUSH2 0x135 JUMP JUMPDEST SUB SWAP1 REVERT JUMPDEST PUSH2 0x110 PUSH2 0x1A9 JUMP JUMPDEST PUSH2 0x44 PUSH1 0x1 PUSH2 0x37 JUMP JUMPDEST PUSH2 0x110 PUSH2 0x1B4 PUSH2 0x19F JUMP JUMPDEST PUSH1 0x0 PUSH2 0x47 JUMP JUMPDEST PUSH2 0x44 SWAP1 PUSH2 0x76 JUMP JUMPDEST PUSH2 0x44 SWAP1 SLOAD PUSH2 0x1BB JUMP JUMPDEST SWAP1 PUSH1 0x1 PUSH1 0x1 PUSH1 0xA0 SHL SUB SWAP1 PUSH2 0x2D JUMP JUMPDEST SWAP1 PUSH2 0x1ED PUSH2 0x44 PUSH2 0x5E SWAP3 PUSH2 0x8B JUMP JUMPDEST DUP3 SLOAD PUSH2 0x1CE JUMP JUMPDEST PUSH2 0x21A PUSH2 0x214 PUSH2 0x204 PUSH1 0x1 PUSH2 0x1C4 JUMP JUMPDEST PUSH2 0x20F DUP5 PUSH1 0x1 PUSH2 0x1DD JUMP JUMPDEST PUSH2 0x8B JUMP JUMPDEST SWAP2 PUSH2 0x8B JUMP JUMPDEST SWAP1 PUSH32 0x8BE0079C531659141344CD1FD0A4F28419497F9722A3DAAFE3B4186F6B6457E0 PUSH2 0x245 PUSH1 0x40 MLOAD SWAP1 JUMP JUMPDEST PUSH1 0x0 SWAP1 LOG3 JUMP INVALID PUSH2 0x100 PUSH1 0x40 MSTORE PUSH1 0x4 CALLDATASIZE LT ISZERO PUSH2 0x13 JUMPI PUSH1 0x0 DUP1 REVERT JUMPDEST PUSH1 0x0 CALLDATALOAD PUSH1 0xE0 SHR DUP1 PUSH4 0x13B18640 EQ PUSH2 0x243 JUMPI DUP1 PUSH4 0x16C38B3C EQ PUSH2 0x23E JUMPI DUP1 PUSH4 0x176A8555 EQ PUSH2 0x239 JUMPI DUP1 PUSH4 0x1785F53C EQ PUSH2 0x234 JUMPI DUP1 PUSH4 0x24D7806C EQ PUSH2 0x22F JUMPI DUP1 PUSH4 0x35C1D349 EQ PUSH2 0x22A JUMPI DUP1 PUSH4 0x3F35C93B EQ PUSH2 0x225 JUMPI DUP1 PUSH4 0x429B62E5 EQ PUSH2 0x220 JUMPI DUP1 PUSH4 0x57415423 EQ PUSH2 0x21B JUMPI DUP1 PUSH4 0x5C975ABB EQ PUSH2 0x216 JUMPI DUP1 PUSH4 0x5D4BC0CE EQ PUSH2 0x211 JUMPI DUP1 PUSH4 0x6BF611BF EQ PUSH2 0x20C JUMPI DUP1 PUSH4 0x70480275 EQ PUSH2 0x207 JUMPI DUP1 PUSH4 0x715018A6 EQ PUSH2 0x202 JUMPI DUP1 PUSH4 0x73178C0D EQ PUSH2 0x1FD JUMPI DUP1 PUSH4 0x7BB60AC0 EQ PUSH2 0x1F8 JUMPI DUP1 PUSH4 0x7CAFA47A EQ PUSH2 0x1F3 JUMPI DUP1 PUSH4 0x81EFF790 EQ PUSH2 0x1EE JUMPI DUP1 PUSH4 0x8772D2DD EQ PUSH2 0x1E9 JUMPI DUP1 PUSH4 0x8DA5CB5B EQ PUSH2 0x1E4 JUMPI DUP1 PUSH4 0x9D06F112 EQ PUSH2 0x1DF JUMPI DUP1 PUSH4 0xA6E3295B EQ PUSH2 0x1DA JUMPI DUP1 PUSH4 0xB08B3A51 EQ PUSH2 0x1D5 JUMPI DUP1 PUSH4 0xB094E365 EQ PUSH2 0x1D0 JUMPI DUP1 PUSH4 0xB1DDD82A EQ PUSH2 0x1CB JUMPI DUP1 PUSH4 0xB8342793 EQ PUSH2 0x1C6 JUMPI DUP1 PUSH4 0xC5AC3D4B EQ PUSH2 0x1C1 JUMPI DUP1 PUSH4 0xD1CE754E EQ PUSH2 0x1BC JUMPI DUP1 PUSH4 0xD2B8035A EQ PUSH2 0x1B7 JUMPI DUP1 PUSH4 0xD47FD2C9 EQ PUSH2 0x1B2 JUMPI DUP1 PUSH4 0xD8A35CC2 EQ PUSH2 0x1AD JUMPI DUP1 PUSH4 0xE354C358 EQ PUSH2 0x1A8 JUMPI DUP1 PUSH4 0xE4DAFEC9 EQ PUSH2 0x1A3 JUMPI DUP1 PUSH4 0xF2FDE38B EQ PUSH2 0x19E JUMPI PUSH4 0xFBB7C22D SUB PUSH2 0x248 JUMPI PUSH2 0x1A00 JUMP JUMPDEST PUSH2 0x19CF JUMP JUMPDEST PUSH2 0x19A8 JUMP JUMPDEST PUSH2 0x16FB JUMP JUMPDEST PUSH2 0x16B7 JUMP JUMPDEST PUSH2 0x11A7 JUMP JUMPDEST PUSH2 0x1177 JUMP JUMPDEST PUSH2 0x114D JUMP JUMPDEST PUSH2 0x1117 JUMP JUMPDEST PUSH2 0x10F8 JUMP JUMPDEST PUSH2 0x10A8 JUMP JUMPDEST PUSH2 0x1024 JUMP JUMPDEST PUSH2 0xF54 JUMP JUMPDEST PUSH2 0xE7B JUMP JUMPDEST PUSH2 0xDFB JUMP JUMPDEST PUSH2 0xD99 JUMP JUMPDEST PUSH2 0xD72 JUMP JUMPDEST PUSH2 0xCE8 JUMP JUMPDEST PUSH2 0xCAA JUMP JUMPDEST PUSH2 0xC74 JUMP JUMPDEST PUSH2 0xC05 JUMP JUMPDEST PUSH2 0xB96 JUMP JUMPDEST PUSH2 0xB7E JUMP JUMPDEST PUSH2 0xB63 JUMP JUMPDEST PUSH2 0xB1F JUMP JUMPDEST PUSH2 0x680 JUMP JUMPDEST PUSH2 0x650 JUMP JUMPDEST PUSH2 0x53A JUMP JUMPDEST PUSH2 0x4C0 JUMP JUMPDEST PUSH2 0x46C JUMP JUMPDEST PUSH2 0x375 JUMP JUMPDEST PUSH2 0x35D JUMP JUMPDEST PUSH2 0x32D JUMP JUMPDEST PUSH2 0x310 JUMP JUMPDEST PUSH2 0x2B7 JUMP JUMPDEST PUSH1 0x0 DUP1 REVERT JUMPDEST DUP1 JUMPDEST SUB PUSH2 0x248 JUMPI JUMP JUMPDEST SWAP1 POP CALLDATALOAD SWAP1 PUSH2 0x263 DUP3 PUSH2 0x24D JUMP JUMPDEST JUMP JUMPDEST PUSH1 0x1 PUSH1 0x1 PUSH1 0xA0 SHL SUB AND SWAP1 JUMP JUMPDEST SWAP1 JUMP JUMPDEST PUSH1 0x1 PUSH1 0x1 PUSH1 0xA0 SHL SUB DUP2 AND PUSH2 0x24F JUMP JUMPDEST SWAP1 POP CALLDATALOAD SWAP1 PUSH2 0x263 DUP3 PUSH2 0x274 JUMP JUMPDEST SWAP2 SWAP1 PUSH1 0x40 DUP4 DUP3 SUB SLT PUSH2 0x248 JUMPI PUSH2 0x271 SWAP1 PUSH1 0x20 PUSH2 0x2AC DUP3 DUP7 PUSH2 0x256 JUMP JUMPDEST SWAP5 ADD PUSH2 0x283 JUMP JUMPDEST SWAP1 MSTORE JUMP JUMPDEST CALLVALUE PUSH2 0x248 JUMPI PUSH2 0x2E3 PUSH2 0x2D3 PUSH2 0x2CD CALLDATASIZE PUSH1 0x4 PUSH2 0x290 JUMP JUMPDEST SWAP1 PUSH2 0x1D28 JUMP JUMPDEST PUSH1 0x40 MLOAD SWAP2 DUP3 SWAP2 DUP3 SWAP1 DUP2 MSTORE PUSH1 0x20 ADD SWAP1 JUMP JUMPDEST SUB SWAP1 RETURN JUMPDEST DUP1 ISZERO ISZERO PUSH2 0x24F JUMP JUMPDEST SWAP1 POP CALLDATALOAD SWAP1 PUSH2 0x263 DUP3 PUSH2 0x2E7 JUMP JUMPDEST SWAP1 PUSH1 0x20 DUP3 DUP3 SUB SLT PUSH2 0x248 JUMPI PUSH2 0x271 SWAP2 PUSH2 0x2EF JUMP JUMPDEST CALLVALUE PUSH2 0x248 JUMPI PUSH2 0x328 PUSH2 0x323 CALLDATASIZE PUSH1 0x4 PUSH2 0x2FC JUMP JUMPDEST PUSH2 0x1DCF JUMP JUMPDEST PUSH1 0x40 MLOAD STOP JUMPDEST CALLVALUE PUSH2 0x248 JUMPI PUSH2 0x2E3 PUSH2 0x2D3 PUSH2 0x343 CALLDATASIZE PUSH1 0x4 PUSH2 0x290 JUMP JUMPDEST SWAP1 PUSH2 0x1DD8 JUMP JUMPDEST SWAP1 PUSH1 0x20 DUP3 DUP3 SUB SLT PUSH2 0x248 JUMPI PUSH2 0x271 SWAP2 PUSH2 0x283 JUMP JUMPDEST CALLVALUE PUSH2 0x248 JUMPI PUSH2 0x328 PUSH2 0x370 CALLDATASIZE PUSH1 0x4 PUSH2 0x349 JUMP JUMPDEST PUSH2 0x1FA4 JUMP JUMPDEST CALLVALUE PUSH2 0x248 JUMPI PUSH2 0x2E3 PUSH2 0x390 PUSH2 0x38B CALLDATASIZE PUSH1 0x4 PUSH2 0x349 JUMP JUMPDEST PUSH2 0x1FAD JUMP JUMPDEST PUSH1 0x40 MLOAD JUMPDEST SWAP2 DUP3 SWAP2 DUP3 SWAP1 ISZERO ISZERO DUP2 MSTORE PUSH1 0x20 ADD SWAP1 JUMP JUMPDEST SWAP1 PUSH1 0x20 DUP3 DUP3 SUB SLT PUSH2 0x248 JUMPI PUSH2 0x271 SWAP2 PUSH2 0x256 JUMP JUMPDEST PUSH2 0x271 PUSH2 0x271 PUSH2 0x271 SWAP3 SWAP1 JUMP JUMPDEST SWAP1 PUSH2 0x3CE SWAP1 PUSH2 0x3B7 JUMP JUMPDEST PUSH1 0x0 MSTORE PUSH1 0x20 MSTORE PUSH1 0x40 PUSH1 0x0 KECCAK256 SWAP1 JUMP JUMPDEST PUSH2 0x271 SWAP1 DUP2 JUMP JUMPDEST PUSH2 0x271 SWAP1 SLOAD PUSH2 0x3DC JUMP JUMPDEST PUSH2 0x3F8 SWAP1 PUSH1 0x4 PUSH2 0x3C4 JUMP JUMPDEST SWAP1 PUSH2 0x40A DUP3 SLOAD PUSH1 0x1 PUSH1 0x1 PUSH1 0xA0 SHL SUB AND SWAP1 JUMP JUMPDEST SWAP2 PUSH2 0x417 PUSH1 0x1 DUP3 ADD PUSH2 0x3E3 JUMP JUMPDEST SWAP2 PUSH2 0x271 PUSH1 0x3 PUSH2 0x429 PUSH1 0x2 DUP6 ADD PUSH2 0x3E3 JUMP JUMPDEST SWAP4 ADD PUSH2 0x3E3 JUMP JUMPDEST PUSH2 0x468 PUSH2 0x263 SWAP5 PUSH2 0x461 PUSH1 0x60 SWAP5 SWAP9 SWAP8 SWAP6 PUSH2 0x45A PUSH1 0x80 DUP7 ADD SWAP11 PUSH1 0x0 DUP8 ADD SWAP1 PUSH1 0x1 PUSH1 0x1 PUSH1 0xA0 SHL SUB AND SWAP1 MSTORE JUMP JUMPDEST PUSH1 0x20 DUP6 ADD MSTORE JUMP JUMPDEST PUSH1 0x40 DUP4 ADD MSTORE JUMP JUMPDEST ADD MSTORE JUMP JUMPDEST CALLVALUE PUSH2 0x248 JUMPI PUSH2 0x2E3 PUSH2 0x487 PUSH2 0x482 CALLDATASIZE PUSH1 0x4 PUSH2 0x3A3 JUMP JUMPDEST PUSH2 0x3ED JUMP JUMPDEST SWAP1 PUSH2 0x494 SWAP5 SWAP3 SWAP5 PUSH1 0x40 MLOAD SWAP1 JUMP JUMPDEST SWAP5 DUP6 SWAP5 DUP6 PUSH2 0x430 JUMP JUMPDEST SWAP2 SWAP1 PUSH1 0x40 DUP4 DUP3 SUB SLT PUSH2 0x248 JUMPI PUSH2 0x271 SWAP1 PUSH1 0x20 PUSH2 0x4B9 DUP3 DUP7 PUSH2 0x256 JUMP JUMPDEST SWAP5 ADD PUSH2 0x2EF JUMP JUMPDEST CALLVALUE PUSH2 0x248 JUMPI PUSH2 0x328 PUSH2 0x4D3 CALLDATASIZE PUSH1 0x4 PUSH2 0x49D JUMP JUMPDEST SWAP1 PUSH2 0x21C2 JUMP JUMPDEST PUSH2 0x265 PUSH2 0x271 PUSH2 0x271 SWAP3 PUSH1 0x1 PUSH1 0x1 PUSH1 0xA0 SHL SUB AND SWAP1 JUMP JUMPDEST PUSH2 0x271 SWAP1 PUSH2 0x4D9 JUMP JUMPDEST PUSH2 0x271 SWAP1 PUSH2 0x4EF JUMP JUMPDEST SWAP1 PUSH2 0x3CE SWAP1 PUSH2 0x4F8 JUMP JUMPDEST PUSH2 0x271 SWAP2 PUSH1 0x8 MUL SHR JUMPDEST PUSH1 0xFF AND SWAP1 JUMP JUMPDEST SWAP1 PUSH2 0x271 SWAP2 SLOAD PUSH2 0x50B JUMP JUMPDEST PUSH1 0x0 PUSH2 0x535 PUSH2 0x271 SWAP3 PUSH1 0xD PUSH2 0x501 JUMP JUMPDEST PUSH2 0x51A JUMP JUMPDEST CALLVALUE PUSH2 0x248 JUMPI PUSH2 0x2E3 PUSH2 0x390 PUSH2 0x550 CALLDATASIZE PUSH1 0x4 PUSH2 0x349 JUMP JUMPDEST PUSH2 0x525 JUMP JUMPDEST PUSH4 0x4E487B71 PUSH1 0xE0 SHL PUSH1 0x0 MSTORE PUSH1 0x41 PUSH1 0x4 MSTORE PUSH1 0x24 PUSH1 0x0 REVERT JUMPDEST SWAP1 PUSH1 0x1F ADD PUSH1 0x1F NOT AND DUP2 ADD SWAP1 DUP2 LT PUSH1 0x1 PUSH1 0x1 PUSH1 0x40 SHL SUB DUP3 GT OR PUSH2 0x58C JUMPI PUSH1 0x40 MSTORE JUMP JUMPDEST PUSH2 0x555 JUMP JUMPDEST SWAP1 PUSH2 0x263 PUSH2 0x59E PUSH1 0x40 MLOAD SWAP1 JUMP JUMPDEST SWAP3 DUP4 PUSH2 0x56B JUMP JUMPDEST PUSH1 0x1 PUSH1 0x1 PUSH1 0x40 SHL SUB DUP2 GT PUSH2 0x58C JUMPI PUSH1 0x20 SWAP1 PUSH1 0x1F ADD PUSH1 0x1F NOT AND ADD SWAP1 JUMP JUMPDEST ADD SWAP1 JUMP JUMPDEST SWAP1 DUP3 PUSH1 0x0 SWAP4 SWAP3 DUP3 CALLDATACOPY ADD MSTORE JUMP JUMPDEST SWAP1 SWAP3 SWAP2 SWAP3 PUSH2 0x5E6 PUSH2 0x5E1 DUP3 PUSH2 0x5A5 JUMP JUMPDEST PUSH2 0x591 JUMP JUMPDEST SWAP4 DUP2 DUP6 MSTORE DUP2 DUP4 ADD GT PUSH2 0x248 JUMPI PUSH2 0x263 SWAP2 PUSH1 0x20 DUP6 ADD SWAP1 PUSH2 0x5C5 JUMP JUMPDEST SWAP1 DUP1 PUSH1 0x1F DUP4 ADD SLT ISZERO PUSH2 0x248 JUMPI DUP2 PUSH1 0x20 PUSH2 0x271 SWAP4 CALLDATALOAD SWAP2 ADD PUSH2 0x5D1 JUMP JUMPDEST SWAP2 SWAP1 SWAP2 PUSH1 0x40 DUP2 DUP5 SUB SLT PUSH2 0x248 JUMPI PUSH2 0x632 DUP4 DUP3 PUSH2 0x256 JUMP JUMPDEST SWAP3 PUSH1 0x20 DUP3 ADD CALLDATALOAD PUSH1 0x1 PUSH1 0x1 PUSH1 0x40 SHL SUB DUP2 GT PUSH2 0x248 JUMPI PUSH2 0x271 SWAP3 ADD PUSH2 0x600 JUMP JUMPDEST CALLVALUE PUSH2 0x248 JUMPI PUSH2 0x328 PUSH2 0x663 CALLDATASIZE PUSH1 0x4 PUSH2 0x61B JUMP JUMPDEST SWAP1 PUSH2 0x23AD JUMP JUMPDEST PUSH1 0x0 SWAP2 SUB SLT PUSH2 0x248 JUMPI JUMP JUMPDEST PUSH2 0x271 PUSH1 0x0 PUSH1 0xC PUSH2 0x51A JUMP JUMPDEST CALLVALUE PUSH2 0x248 JUMPI PUSH2 0x690 CALLDATASIZE PUSH1 0x4 PUSH2 0x669 JUMP JUMPDEST PUSH2 0x2E3 PUSH2 0x390 PUSH2 0x674 JUMP JUMPDEST PUSH4 0x4E487B71 PUSH1 0xE0 SHL PUSH1 0x0 MSTORE PUSH1 0x22 PUSH1 0x4 MSTORE PUSH1 0x24 PUSH1 0x0 REVERT JUMPDEST SWAP1 PUSH1 0x1 PUSH1 0x2 DUP4 DIV SWAP3 AND DUP1 ISZERO PUSH2 0x6D1 JUMPI JUMPDEST PUSH1 0x20 DUP4 LT EQ PUSH2 0x6CC JUMPI JUMP JUMPDEST PUSH2 0x69B JUMP JUMPDEST SWAP2 PUSH1 0x7F AND SWAP2 PUSH2 0x6C1 JUMP JUMPDEST DUP1 SLOAD PUSH1 0x0 SWAP4 SWAP3 SWAP2 PUSH2 0x6F8 PUSH2 0x6EE DUP4 PUSH2 0x6B1 JUMP JUMPDEST DUP1 DUP6 MSTORE SWAP4 PUSH1 0x20 ADD SWAP1 JUMP JUMPDEST SWAP2 PUSH1 0x1 DUP2 AND SWAP1 DUP2 ISZERO PUSH2 0x74A JUMPI POP PUSH1 0x1 EQ PUSH2 0x711 JUMPI POP POP POP JUMP JUMPDEST PUSH2 0x724 SWAP2 SWAP3 SWAP4 SWAP5 POP PUSH1 0x0 MSTORE PUSH1 0x20 PUSH1 0x0 KECCAK256 SWAP1 JUMP JUMPDEST SWAP2 PUSH1 0x0 SWAP3 JUMPDEST DUP2 DUP5 LT PUSH2 0x736 JUMPI POP POP ADD SWAP1 JUMP JUMPDEST DUP1 SLOAD DUP5 DUP5 ADD MSTORE PUSH1 0x20 SWAP1 SWAP4 ADD SWAP3 PUSH1 0x1 ADD PUSH2 0x729 JUMP JUMPDEST SWAP3 SWAP5 SWAP6 POP POP POP PUSH1 0xFF NOT AND DUP3 MSTORE ISZERO ISZERO PUSH1 0x20 MUL ADD SWAP1 JUMP JUMPDEST SWAP1 PUSH2 0x271 SWAP2 PUSH2 0x6DB JUMP JUMPDEST SWAP1 PUSH2 0x263 PUSH2 0x783 SWAP3 PUSH2 0x77A PUSH1 0x40 MLOAD SWAP1 JUMP JUMPDEST SWAP4 DUP5 DUP1 SWAP3 PUSH2 0x75F JUMP JUMPDEST SUB DUP4 PUSH2 0x56B JUMP JUMPDEST PUSH2 0x271 PUSH1 0x80 PUSH2 0x591 JUMP JUMPDEST SWAP1 PUSH2 0x263 PUSH2 0x7E8 PUSH1 0x3 PUSH2 0x7A5 PUSH2 0x78A JUMP JUMPDEST SWAP5 PUSH2 0x7B6 PUSH2 0x7B2 DUP3 PUSH2 0x769 JUMP JUMPDEST DUP8 MSTORE JUMP JUMPDEST PUSH2 0x7CC PUSH2 0x7C5 PUSH1 0x1 DUP4 ADD PUSH2 0x769 JUMP JUMPDEST PUSH1 0x20 DUP9 ADD MSTORE JUMP JUMPDEST PUSH2 0x7E2 PUSH2 0x7DB PUSH1 0x2 DUP4 ADD PUSH2 0x769 JUMP JUMPDEST PUSH1 0x40 DUP9 ADD MSTORE JUMP JUMPDEST ADD PUSH2 0x769 JUMP JUMPDEST PUSH1 0x60 DUP5 ADD MSTORE JUMP JUMPDEST PUSH2 0x271 SWAP1 PUSH2 0x514 JUMP JUMPDEST PUSH2 0x271 SWAP1 SLOAD PUSH2 0x7EF JUMP JUMPDEST SWAP1 PUSH2 0x263 PUSH2 0x7E8 PUSH1 0x3 PUSH2 0x813 PUSH2 0x78A JUMP JUMPDEST SWAP5 PUSH2 0x820 PUSH2 0x7B2 DUP3 PUSH2 0x3E3 JUMP JUMPDEST PUSH2 0x82F PUSH2 0x7C5 PUSH1 0x1 DUP4 ADD PUSH2 0x3E3 JUMP JUMPDEST PUSH2 0x847 PUSH2 0x83E PUSH1 0x2 DUP4 ADD PUSH2 0x7F8 JUMP JUMPDEST ISZERO ISZERO PUSH1 0x40 DUP9 ADD MSTORE JUMP JUMPDEST ADD PUSH2 0x3E3 JUMP JUMPDEST PUSH2 0x271 PUSH1 0x60 PUSH2 0x591 JUMP JUMPDEST SWAP1 PUSH2 0x263 PUSH2 0x88A PUSH1 0x2 PUSH2 0x868 PUSH2 0x84D JUMP JUMPDEST SWAP5 PUSH2 0x87B PUSH2 0x875 DUP3 PUSH2 0x7F8 JUMP JUMPDEST ISZERO ISZERO DUP8 MSTORE JUMP JUMPDEST PUSH2 0x847 PUSH2 0x7C5 PUSH1 0x1 DUP4 ADD PUSH2 0x3E3 JUMP JUMPDEST PUSH1 0x40 DUP5 ADD MSTORE JUMP JUMPDEST SWAP1 PUSH2 0x263 PUSH2 0x88A PUSH1 0x2 PUSH2 0x8A2 PUSH2 0x84D JUMP JUMPDEST SWAP5 PUSH2 0x8AF PUSH2 0x7B2 DUP3 PUSH2 0x769 JUMP JUMPDEST PUSH2 0x847 PUSH2 0x7C5 PUSH1 0x1 DUP4 ADD PUSH2 0x769 JUMP JUMPDEST PUSH2 0x271 SWAP1 PUSH1 0x8 SHR PUSH2 0x514 JUMP JUMPDEST PUSH2 0x271 SWAP1 SLOAD PUSH2 0x8BE JUMP JUMPDEST SWAP1 PUSH2 0x263 PUSH2 0x7E8 PUSH1 0x2 PUSH2 0x8E5 PUSH2 0x78A JUMP JUMPDEST SWAP5 PUSH2 0x8F2 PUSH2 0x875 DUP3 PUSH2 0x7F8 JUMP JUMPDEST PUSH2 0x907 PUSH2 0x8FE DUP3 PUSH2 0x8CA JUMP JUMPDEST ISZERO ISZERO PUSH1 0x20 DUP9 ADD MSTORE JUMP JUMPDEST PUSH2 0x847 PUSH2 0x7DB PUSH1 0x1 DUP4 ADD PUSH2 0x3E3 JUMP JUMPDEST PUSH2 0x921 SWAP1 PUSH1 0x2 PUSH2 0x3C4 JUMP JUMPDEST PUSH2 0x92A DUP2 PUSH2 0x794 JUMP JUMPDEST SWAP2 PUSH2 0x937 PUSH1 0x4 DUP4 ADD PUSH2 0x802 JUMP JUMPDEST SWAP2 PUSH2 0x944 PUSH1 0x8 DUP3 ADD PUSH2 0x857 JUMP JUMPDEST SWAP2 PUSH2 0x271 PUSH1 0xE PUSH2 0x956 PUSH1 0xB DUP6 ADD PUSH2 0x891 JUMP JUMPDEST SWAP4 ADD PUSH2 0x8D4 JUMP JUMPDEST PUSH1 0x0 JUMPDEST DUP4 DUP2 LT PUSH2 0x970 JUMPI POP POP PUSH1 0x0 SWAP2 ADD MSTORE JUMP JUMPDEST DUP2 DUP2 ADD MLOAD DUP4 DUP3 ADD MSTORE PUSH1 0x20 ADD PUSH2 0x960 JUMP JUMPDEST PUSH2 0x9A1 PUSH2 0x9AA PUSH1 0x20 SWAP4 PUSH2 0x5C1 SWAP4 PUSH2 0x995 DUP2 MLOAD SWAP1 JUMP JUMPDEST DUP1 DUP4 MSTORE SWAP4 DUP5 SWAP3 PUSH1 0x20 ADD SWAP1 JUMP JUMPDEST SWAP6 DUP7 SWAP2 ADD PUSH2 0x95D JUMP JUMPDEST PUSH1 0x1F ADD PUSH1 0x1F NOT AND SWAP1 JUMP JUMPDEST PUSH2 0x271 SWAP2 PUSH1 0x60 PUSH2 0x9FD PUSH2 0x9EB PUSH2 0x9D9 PUSH1 0x80 DUP6 ADD PUSH1 0x0 DUP8 ADD MLOAD DUP7 DUP3 SUB PUSH1 0x0 DUP9 ADD MSTORE PUSH2 0x980 JUMP JUMPDEST PUSH1 0x20 DUP7 ADD MLOAD DUP6 DUP3 SUB PUSH1 0x20 DUP8 ADD MSTORE PUSH2 0x980 JUMP JUMPDEST PUSH1 0x40 DUP6 ADD MLOAD DUP5 DUP3 SUB PUSH1 0x40 DUP7 ADD MSTORE PUSH2 0x980 JUMP JUMPDEST SWAP3 ADD MLOAD SWAP1 PUSH1 0x60 DUP2 DUP5 SUB SWAP2 ADD MSTORE PUSH2 0x980 JUMP JUMPDEST DUP1 MLOAD DUP3 MSTORE PUSH2 0x263 SWAP2 SWAP1 PUSH1 0x60 SWAP1 DUP2 SWAP1 PUSH2 0xA2B PUSH1 0x20 DUP3 ADD MLOAD PUSH1 0x20 DUP7 ADD MSTORE JUMP JUMPDEST PUSH1 0x40 DUP2 DUP2 ADD MLOAD ISZERO ISZERO SWAP1 DUP6 ADD MSTORE JUMPDEST ADD MLOAD SWAP2 ADD MSTORE JUMP JUMPDEST DUP1 MLOAD ISZERO ISZERO DUP3 MSTORE PUSH2 0x263 SWAP2 SWAP1 PUSH1 0x40 SWAP1 DUP2 SWAP1 PUSH2 0xA38 PUSH1 0x20 DUP3 ADD MLOAD PUSH1 0x20 DUP7 ADD MSTORE JUMP JUMPDEST SWAP1 PUSH2 0x271 SWAP1 PUSH1 0x40 DUP1 PUSH2 0xA94 PUSH2 0xA82 PUSH1 0x60 DUP6 ADD PUSH1 0x0 DUP9 ADD MLOAD DUP7 DUP3 SUB PUSH1 0x0 DUP9 ADD MSTORE PUSH2 0x980 JUMP JUMPDEST PUSH1 0x20 DUP8 ADD MLOAD DUP6 DUP3 SUB PUSH1 0x20 DUP8 ADD MSTORE PUSH2 0x980 JUMP JUMPDEST SWAP5 ADD MLOAD SWAP2 ADD MSTORE JUMP JUMPDEST DUP1 MLOAD ISZERO ISZERO DUP3 MSTORE PUSH2 0x263 SWAP2 SWAP1 PUSH1 0x60 SWAP1 DUP2 SWAP1 PUSH1 0x20 DUP2 DUP2 ADD MLOAD ISZERO ISZERO SWAP1 DUP6 ADD MSTORE PUSH2 0xA38 PUSH1 0x40 DUP3 ADD MLOAD PUSH1 0x40 DUP7 ADD MSTORE JUMP JUMPDEST SWAP6 SWAP5 SWAP3 SWAP2 PUSH2 0x263 SWAP5 PUSH2 0xB09 PUSH2 0x120 SWAP5 PUSH2 0xAFF PUSH2 0xAF4 PUSH2 0xB17 SWAP7 PUSH2 0x1A0 DUP14 ADD SWAP1 DUP14 PUSH1 0x0 DUP2 DUP5 SUB SWAP2 ADD MSTORE PUSH2 0x9B4 JUMP JUMPDEST SWAP5 PUSH1 0x20 DUP13 ADD SWAP1 PUSH2 0xA0E JUMP JUMPDEST PUSH1 0xA0 DUP11 ADD SWAP1 PUSH2 0xA3F JUMP JUMPDEST DUP8 DUP3 SUB PUSH2 0x100 DUP10 ADD MSTORE PUSH2 0xA5E JUMP JUMPDEST SWAP5 ADD SWAP1 PUSH2 0xA9C JUMP JUMPDEST CALLVALUE PUSH2 0x248 JUMPI PUSH2 0x2E3 PUSH2 0xB3A PUSH2 0xB35 CALLDATASIZE PUSH1 0x4 PUSH2 0x3A3 JUMP JUMPDEST PUSH2 0x916 JUMP JUMPDEST SWAP2 PUSH2 0xB47 SWAP6 SWAP4 SWAP6 PUSH1 0x40 MLOAD SWAP1 JUMP JUMPDEST SWAP6 DUP7 SWAP6 DUP7 PUSH2 0xAC7 JUMP JUMPDEST PUSH2 0x271 PUSH2 0x708 PUSH2 0x3B7 JUMP JUMPDEST PUSH2 0x271 PUSH2 0xB50 JUMP JUMPDEST CALLVALUE PUSH2 0x248 JUMPI PUSH2 0xB73 CALLDATASIZE PUSH1 0x4 PUSH2 0x669 JUMP JUMPDEST PUSH2 0x2E3 PUSH2 0x2D3 PUSH2 0xB5B JUMP JUMPDEST CALLVALUE PUSH2 0x248 JUMPI PUSH2 0x328 PUSH2 0xB91 CALLDATASIZE PUSH1 0x4 PUSH2 0x349 JUMP JUMPDEST PUSH2 0x246B JUMP JUMPDEST CALLVALUE PUSH2 0x248 JUMPI PUSH2 0xBA6 CALLDATASIZE PUSH1 0x4 PUSH2 0x669 JUMP JUMPDEST PUSH2 0x328 PUSH2 0x2491 JUMP JUMPDEST SWAP2 SWAP1 PUSH1 0x40 DUP4 DUP3 SUB SLT PUSH2 0x248 JUMPI PUSH2 0x271 SWAP1 PUSH1 0x20 PUSH2 0xBCA DUP3 DUP7 PUSH2 0x256 JUMP JUMPDEST SWAP5 ADD PUSH2 0x256 JUMP JUMPDEST PUSH2 0x271 SWAP2 PUSH1 0x8 MUL SHR DUP2 JUMP JUMPDEST SWAP1 PUSH2 0x271 SWAP2 SLOAD PUSH2 0xBD1 JUMP JUMPDEST PUSH2 0xC00 PUSH2 0x271 SWAP3 PUSH2 0xBFB PUSH1 0x0 SWAP4 PUSH1 0xA PUSH2 0x3C4 JUMP JUMPDEST PUSH2 0x3C4 JUMP JUMPDEST PUSH2 0xBDC JUMP JUMPDEST CALLVALUE PUSH2 0x248 JUMPI PUSH2 0x2E3 PUSH2 0x2D3 PUSH2 0xC1B CALLDATASIZE PUSH1 0x4 PUSH2 0xBAE JUMP JUMPDEST SWAP1 PUSH2 0xBE7 JUMP JUMPDEST SWAP2 PUSH1 0x60 DUP4 DUP4 SUB SLT PUSH2 0x248 JUMPI PUSH2 0xC36 DUP3 DUP5 PUSH2 0x256 JUMP JUMPDEST SWAP3 PUSH1 0x20 DUP2 ADD CALLDATALOAD PUSH1 0x1 PUSH1 0x1 PUSH1 0x40 SHL SUB DUP2 GT PUSH2 0x248 JUMPI DUP4 PUSH2 0xC56 SWAP2 DUP4 ADD PUSH2 0x600 JUMP JUMPDEST SWAP3 PUSH1 0x40 DUP3 ADD CALLDATALOAD PUSH1 0x1 PUSH1 0x1 PUSH1 0x40 SHL SUB DUP2 GT PUSH2 0x248 JUMPI PUSH2 0x271 SWAP3 ADD PUSH2 0x600 JUMP JUMPDEST CALLVALUE PUSH2 0x248 JUMPI PUSH2 0x328 PUSH2 0xC87 CALLDATASIZE PUSH1 0x4 PUSH2 0xC21 JUMP JUMPDEST SWAP2 PUSH2 0x2849 JUMP JUMPDEST SWAP1 DUP2 MSTORE PUSH1 0x60 DUP2 ADD SWAP4 SWAP3 PUSH2 0x263 SWAP3 SWAP1 SWAP2 PUSH1 0x40 SWAP2 PUSH2 0x468 SWAP1 PUSH1 0x20 DUP4 ADD MSTORE JUMP JUMPDEST CALLVALUE PUSH2 0x248 JUMPI PUSH2 0x2E3 PUSH2 0xCC6 PUSH2 0xCC0 CALLDATASIZE PUSH1 0x4 PUSH2 0x290 JUMP JUMPDEST SWAP1 PUSH2 0x2BE7 JUMP JUMPDEST PUSH1 0x40 MLOAD SWAP2 SWAP4 SWAP2 SWAP4 DUP5 SWAP4 DUP5 PUSH2 0xC8D JUMP JUMPDEST PUSH2 0x271 PUSH2 0xE10 PUSH2 0x3B7 JUMP JUMPDEST PUSH2 0x271 PUSH2 0xCD5 JUMP JUMPDEST CALLVALUE PUSH2 0x248 JUMPI PUSH2 0xCF8 CALLDATASIZE PUSH1 0x4 PUSH2 0x669 JUMP JUMPDEST PUSH2 0x2E3 PUSH2 0x2D3 PUSH2 0xCE0 JUMP JUMPDEST DUP1 MLOAD PUSH1 0x1 PUSH1 0x1 PUSH1 0xA0 SHL SUB AND DUP3 MSTORE PUSH2 0x263 SWAP2 SWAP1 PUSH1 0xC0 SWAP1 DUP2 SWAP1 PUSH1 0x20 DUP2 DUP2 ADD MLOAD ISZERO ISZERO SWAP1 DUP6 ADD MSTORE PUSH2 0xD35 PUSH1 0x40 DUP3 ADD MLOAD PUSH1 0x40 DUP7 ADD MSTORE JUMP JUMPDEST PUSH2 0xD44 PUSH1 0x60 DUP3 ADD MLOAD PUSH1 0x60 DUP7 ADD MSTORE JUMP JUMPDEST PUSH2 0xD53 PUSH1 0x80 DUP3 ADD MLOAD PUSH1 0x80 DUP7 ADD MSTORE JUMP JUMPDEST PUSH2 0xA38 PUSH1 0xA0 DUP3 ADD MLOAD PUSH1 0xA0 DUP7 ADD MSTORE JUMP JUMPDEST PUSH1 0xE0 DUP2 ADD SWAP3 SWAP2 PUSH2 0x263 SWAP2 SWAP1 PUSH2 0xD03 JUMP JUMPDEST CALLVALUE PUSH2 0x248 JUMPI PUSH2 0x2E3 PUSH2 0xD8D PUSH2 0xD88 CALLDATASIZE PUSH1 0x4 PUSH2 0x3A3 JUMP JUMPDEST PUSH2 0x2CC9 JUMP JUMPDEST PUSH1 0x40 MLOAD SWAP2 DUP3 SWAP2 DUP3 PUSH2 0xD62 JUMP JUMPDEST CALLVALUE PUSH2 0x248 JUMPI PUSH2 0xDA9 CALLDATASIZE PUSH1 0x4 PUSH2 0x669 JUMP JUMPDEST PUSH2 0x2E3 PUSH2 0xDBE PUSH1 0x1 SLOAD PUSH1 0x1 PUSH1 0x1 PUSH1 0xA0 SHL SUB AND SWAP1 JUMP JUMPDEST PUSH1 0x40 MLOAD SWAP2 DUP3 SWAP2 DUP3 PUSH1 0x1 PUSH1 0x1 PUSH1 0xA0 SHL SUB SWAP1 SWAP2 AND DUP2 MSTORE PUSH1 0x20 ADD SWAP1 JUMP JUMPDEST SWAP2 PUSH1 0x60 DUP4 DUP4 SUB SLT PUSH2 0x248 JUMPI PUSH2 0xDED DUP3 DUP5 PUSH2 0x256 JUMP JUMPDEST SWAP3 PUSH2 0xC56 DUP4 PUSH1 0x20 DUP4 ADD PUSH2 0x283 JUMP JUMPDEST CALLVALUE PUSH2 0x248 JUMPI PUSH2 0x328 PUSH2 0xE0E CALLDATASIZE PUSH1 0x4 PUSH2 0xDD8 JUMP JUMPDEST SWAP2 PUSH2 0x2E61 JUMP JUMPDEST SWAP1 PUSH2 0xE34 PUSH2 0xE2D PUSH2 0xE23 DUP5 MLOAD SWAP1 JUMP JUMPDEST DUP1 DUP5 MSTORE SWAP3 PUSH1 0x20 ADD SWAP1 JUMP JUMPDEST SWAP3 PUSH1 0x20 ADD SWAP1 JUMP JUMPDEST SWAP1 PUSH1 0x0 JUMPDEST DUP2 DUP2 LT PUSH2 0xE45 JUMPI POP POP POP SWAP1 JUMP JUMPDEST SWAP1 SWAP2 SWAP3 PUSH2 0xE62 PUSH2 0xE5B PUSH1 0x1 SWAP3 DUP7 MLOAD DUP2 MSTORE PUSH1 0x20 ADD SWAP1 JUMP JUMPDEST SWAP5 PUSH1 0x20 ADD SWAP1 JUMP JUMPDEST SWAP3 SWAP2 ADD PUSH2 0xE38 JUMP JUMPDEST PUSH1 0x20 DUP1 DUP3 MSTORE PUSH2 0x271 SWAP3 SWAP2 ADD SWAP1 PUSH2 0xE14 JUMP JUMPDEST CALLVALUE PUSH2 0x248 JUMPI PUSH2 0x2E3 PUSH2 0xE96 PUSH2 0xE91 CALLDATASIZE PUSH1 0x4 PUSH2 0x3A3 JUMP JUMPDEST PUSH2 0x2EF1 JUMP JUMPDEST PUSH1 0x40 MLOAD SWAP2 DUP3 SWAP2 DUP3 PUSH2 0xE6A JUMP JUMPDEST PUSH2 0x271 SWAP1 PUSH1 0xA0 SHR PUSH2 0x514 JUMP JUMPDEST PUSH2 0x271 SWAP1 SLOAD PUSH2 0xEA2 JUMP JUMPDEST PUSH2 0xEC3 SWAP1 PUSH1 0x8 PUSH2 0x3C4 JUMP JUMPDEST DUP1 SLOAD PUSH1 0x1 PUSH1 0x1 PUSH1 0xA0 SHL SUB AND SWAP2 PUSH2 0xED8 DUP3 PUSH2 0xEAE JUMP JUMPDEST SWAP2 PUSH2 0xEE5 PUSH1 0x1 DUP3 ADD PUSH2 0x3E3 JUMP JUMPDEST SWAP2 PUSH2 0xEF2 PUSH1 0x2 DUP4 ADD PUSH2 0x3E3 JUMP JUMPDEST SWAP2 PUSH2 0xEFF PUSH1 0x3 DUP3 ADD PUSH2 0x3E3 JUMP JUMPDEST SWAP2 PUSH2 0x271 PUSH1 0x5 PUSH2 0x429 PUSH1 0x4 DUP6 ADD PUSH2 0x3E3 JUMP JUMPDEST SWAP5 SWAP3 SWAP1 SWAP8 SWAP7 SWAP6 SWAP4 SWAP2 PUSH1 0xE0 DUP7 ADD SWAP9 PUSH1 0x0 DUP8 ADD PUSH2 0xF33 SWAP2 PUSH1 0x1 PUSH1 0x1 PUSH1 0xA0 SHL SUB AND SWAP1 MSTORE JUMP JUMPDEST ISZERO ISZERO PUSH1 0x20 DUP7 ADD MSTORE PUSH1 0x40 DUP6 ADD MSTORE PUSH1 0x60 DUP5 ADD MSTORE PUSH1 0x80 DUP4 ADD MSTORE PUSH1 0xA0 DUP3 ADD MSTORE PUSH1 0xC0 ADD MSTORE JUMP JUMPDEST CALLVALUE PUSH2 0x248 JUMPI PUSH2 0x2E3 PUSH2 0xF6F PUSH2 0xF6A CALLDATASIZE PUSH1 0x4 PUSH2 0x3A3 JUMP JUMPDEST PUSH2 0xEB8 JUMP JUMPDEST SWAP4 PUSH2 0xF7F SWAP8 SWAP6 SWAP8 SWAP4 SWAP2 SWAP4 PUSH1 0x40 MLOAD SWAP1 JUMP JUMPDEST SWAP8 DUP9 SWAP8 DUP9 PUSH2 0xF11 JUMP JUMPDEST SWAP1 SWAP2 DUP3 PUSH1 0x1F DUP4 ADD SLT ISZERO PUSH2 0x248 JUMPI DUP2 CALLDATALOAD SWAP2 PUSH1 0x1 PUSH1 0x1 PUSH1 0x40 SHL SUB DUP4 GT PUSH2 0x248 JUMPI PUSH1 0x20 ADD SWAP3 PUSH1 0x20 DUP4 MUL DUP5 ADD GT PUSH2 0x248 JUMPI JUMP JUMPDEST SWAP1 PUSH1 0x60 DUP3 DUP3 SUB SLT PUSH2 0x248 JUMPI DUP2 CALLDATALOAD PUSH1 0x1 PUSH1 0x1 PUSH1 0x40 SHL SUB DUP2 GT PUSH2 0x248 JUMPI DUP2 PUSH2 0xFDE SWAP2 DUP5 ADD PUSH2 0xF88 JUMP JUMPDEST SWAP3 SWAP1 SWAP4 PUSH1 0x20 DUP3 ADD CALLDATALOAD PUSH1 0x1 PUSH1 0x1 PUSH1 0x40 SHL SUB DUP2 GT PUSH2 0x248 JUMPI DUP4 PUSH2 0x1000 SWAP2 DUP5 ADD PUSH2 0xF88 JUMP JUMPDEST SWAP3 SWAP1 SWAP4 PUSH1 0x40 DUP3 ADD CALLDATALOAD PUSH1 0x1 PUSH1 0x1 PUSH1 0x40 SHL SUB DUP2 GT PUSH2 0x248 JUMPI PUSH2 0x1020 SWAP3 ADD PUSH2 0xF88 JUMP JUMPDEST SWAP1 SWAP2 JUMP JUMPDEST CALLVALUE PUSH2 0x248 JUMPI PUSH2 0x328 PUSH2 0x1037 CALLDATASIZE PUSH1 0x4 PUSH2 0xFB7 JUMP JUMPDEST SWAP5 SWAP4 SWAP1 SWAP4 SWAP3 SWAP2 SWAP3 PUSH2 0x322A JUMP JUMPDEST PUSH4 0x4E487B71 PUSH1 0xE0 SHL PUSH1 0x0 MSTORE PUSH1 0x32 PUSH1 0x4 MSTORE PUSH1 0x24 PUSH1 0x0 REVERT JUMPDEST DUP1 SLOAD DUP3 LT ISZERO PUSH2 0x107C JUMPI PUSH2 0x1073 PUSH1 0x1 SWAP2 PUSH1 0x0 MSTORE PUSH1 0x20 PUSH1 0x0 KECCAK256 SWAP1 JUMP JUMPDEST SWAP2 MUL ADD SWAP1 PUSH1 0x0 SWAP1 JUMP JUMPDEST PUSH2 0x1043 JUMP JUMPDEST PUSH2 0x108C SWAP1 PUSH1 0x6 PUSH2 0x3C4 JUMP JUMPDEST DUP1 SLOAD DUP3 LT ISZERO PUSH2 0x248 JUMPI PUSH2 0x271 SWAP2 PUSH2 0x10A2 SWAP2 PUSH2 0x1059 JUMP JUMPDEST SWAP1 PUSH2 0xBDC JUMP JUMPDEST CALLVALUE PUSH2 0x248 JUMPI PUSH2 0x2E3 PUSH2 0x2D3 PUSH2 0x10BE CALLDATASIZE PUSH1 0x4 PUSH2 0xBAE JUMP JUMPDEST SWAP1 PUSH2 0x1081 JUMP JUMPDEST PUSH1 0x60 DUP2 DUP4 SUB SLT PUSH2 0x248 JUMPI PUSH2 0x10D8 DUP3 DUP3 PUSH2 0x256 JUMP JUMPDEST SWAP3 PUSH1 0x20 DUP3 ADD CALLDATALOAD PUSH1 0x1 PUSH1 0x1 PUSH1 0x40 SHL SUB DUP2 GT PUSH2 0x248 JUMPI DUP4 PUSH2 0x1000 SWAP2 DUP5 ADD PUSH2 0xF88 JUMP JUMPDEST CALLVALUE PUSH2 0x248 JUMPI PUSH2 0x2E3 PUSH2 0xE96 PUSH2 0x110E CALLDATASIZE PUSH1 0x4 PUSH2 0x10C4 JUMP JUMPDEST SWAP4 SWAP3 SWAP1 SWAP3 PUSH2 0x355C JUMP JUMPDEST CALLVALUE PUSH2 0x248 JUMPI PUSH2 0x328 PUSH2 0x112A CALLDATASIZE PUSH1 0x4 PUSH2 0x61B JUMP JUMPDEST SWAP1 PUSH2 0x3652 JUMP JUMPDEST SWAP1 ISZERO ISZERO DUP2 MSTORE SWAP1 ISZERO ISZERO PUSH1 0x20 DUP3 ADD MSTORE PUSH1 0x60 DUP2 ADD SWAP3 SWAP2 PUSH2 0x263 SWAP2 PUSH1 0x40 ADD MSTORE JUMP JUMPDEST CALLVALUE PUSH2 0x248 JUMPI PUSH2 0x2E3 PUSH2 0x1168 PUSH2 0x1163 CALLDATASIZE PUSH1 0x4 PUSH2 0x3A3 JUMP JUMPDEST PUSH2 0x365C JUMP JUMPDEST PUSH1 0x40 MLOAD SWAP2 SWAP4 SWAP2 SWAP4 DUP5 SWAP4 DUP5 PUSH2 0x1130 JUMP JUMPDEST CALLVALUE PUSH2 0x248 JUMPI PUSH2 0x2E3 PUSH2 0x2D3 PUSH2 0x118D CALLDATASIZE PUSH1 0x4 PUSH2 0xBAE JUMP JUMPDEST SWAP1 PUSH2 0x37DE JUMP JUMPDEST PUSH2 0x535 PUSH2 0x271 SWAP3 PUSH2 0xBFB PUSH1 0x0 SWAP4 PUSH1 0xB PUSH2 0x3C4 JUMP JUMPDEST CALLVALUE PUSH2 0x248 JUMPI PUSH2 0x2E3 PUSH2 0x390 PUSH2 0x11BD CALLDATASIZE PUSH1 0x4 PUSH2 0xBAE JUMP JUMPDEST SWAP1 PUSH2 0x1193 JUMP JUMPDEST SWAP2 SWAP1 SWAP2 PUSH1 0x80 DUP2 DUP5 SUB SLT PUSH2 0x248 JUMPI PUSH2 0x11DA PUSH1 0x80 PUSH2 0x591 JUMP JUMPDEST SWAP3 DUP2 CALLDATALOAD PUSH1 0x1 PUSH1 0x1 PUSH1 0x40 SHL SUB DUP2 GT PUSH2 0x248 JUMPI DUP2 PUSH2 0x11F7 SWAP2 DUP5 ADD PUSH2 0x600 JUMP JUMPDEST DUP5 MSTORE PUSH1 0x20 DUP3 ADD CALLDATALOAD PUSH1 0x1 PUSH1 0x1 PUSH1 0x40 SHL SUB DUP2 GT PUSH2 0x248 JUMPI DUP2 PUSH2 0x1218 SWAP2 DUP5 ADD PUSH2 0x600 JUMP JUMPDEST PUSH1 0x20 DUP6 ADD MSTORE PUSH1 0x40 DUP3 ADD CALLDATALOAD PUSH1 0x1 PUSH1 0x1 PUSH1 0x40 SHL SUB DUP2 GT PUSH2 0x248 JUMPI DUP2 PUSH2 0x123C SWAP2 DUP5 ADD PUSH2 0x600 JUMP JUMPDEST PUSH1 0x40 DUP6 ADD MSTORE PUSH1 0x60 DUP3 ADD CALLDATALOAD PUSH1 0x1 PUSH1 0x1 PUSH1 0x40 SHL SUB DUP2 GT PUSH2 0x248 JUMPI PUSH2 0x125E SWAP3 ADD PUSH2 0x600 JUMP JUMPDEST PUSH1 0x60 DUP4 ADD MSTORE JUMP JUMPDEST SWAP2 SWAP1 PUSH1 0x80 DUP4 DUP3 SUB SLT PUSH2 0x248 JUMPI PUSH2 0x125E SWAP1 PUSH1 0x60 PUSH2 0x1281 PUSH1 0x80 PUSH2 0x591 JUMP JUMPDEST SWAP5 PUSH2 0x128C DUP4 DUP3 PUSH2 0x256 JUMP JUMPDEST DUP7 MSTORE PUSH2 0x129B DUP4 PUSH1 0x20 DUP4 ADD PUSH2 0x256 JUMP JUMPDEST PUSH1 0x20 DUP8 ADD MSTORE PUSH2 0x12AD DUP4 PUSH1 0x40 DUP4 ADD PUSH2 0x2EF JUMP JUMPDEST PUSH1 0x40 DUP8 ADD MSTORE ADD PUSH2 0x256 JUMP JUMPDEST SWAP2 SWAP1 PUSH1 0x60 DUP4 DUP3 SUB SLT PUSH2 0x248 JUMPI PUSH2 0x461 SWAP1 PUSH1 0x40 PUSH2 0x12D4 PUSH1 0x60 PUSH2 0x591 JUMP JUMPDEST SWAP5 PUSH2 0x12DF DUP4 DUP3 PUSH2 0x2EF JUMP JUMPDEST DUP7 MSTORE PUSH2 0x12EE DUP4 PUSH1 0x20 DUP4 ADD PUSH2 0x256 JUMP JUMPDEST PUSH1 0x20 DUP8 ADD MSTORE ADD PUSH2 0x256 JUMP JUMPDEST SWAP2 SWAP1 SWAP2 PUSH1 0x60 DUP2 DUP5 SUB SLT PUSH2 0x248 JUMPI PUSH2 0x1310 PUSH1 0x60 PUSH2 0x591 JUMP JUMPDEST SWAP3 DUP2 CALLDATALOAD PUSH1 0x1 PUSH1 0x1 PUSH1 0x40 SHL SUB DUP2 GT PUSH2 0x248 JUMPI DUP2 PUSH2 0x132D SWAP2 DUP5 ADD PUSH2 0x600 JUMP JUMPDEST DUP5 MSTORE PUSH1 0x20 DUP3 ADD CALLDATALOAD PUSH1 0x1 PUSH1 0x1 PUSH1 0x40 SHL SUB DUP2 GT PUSH2 0x248 JUMPI DUP3 PUSH2 0x12EE DUP4 PUSH1 0x40 SWAP4 PUSH2 0x461 SWAP7 ADD PUSH2 0x600 JUMP JUMPDEST PUSH1 0x1 PUSH1 0x1 PUSH1 0x40 SHL SUB DUP2 GT PUSH2 0x58C JUMPI PUSH1 0x20 DUP1 SWAP2 MUL ADD SWAP1 JUMP JUMPDEST PUSH1 0x4 GT ISZERO PUSH2 0x248 JUMPI JUMP JUMPDEST SWAP1 POP CALLDATALOAD SWAP1 PUSH2 0x263 DUP3 PUSH2 0x136B JUMP JUMPDEST SWAP1 SWAP3 SWAP2 SWAP3 PUSH2 0x1392 PUSH2 0x5E1 DUP3 PUSH2 0x1354 JUMP JUMPDEST SWAP4 DUP2 DUP6 MSTORE PUSH1 0x20 DUP1 DUP7 ADD SWAP3 MUL DUP4 ADD SWAP3 DUP2 DUP5 GT PUSH2 0x248 JUMPI SWAP2 JUMPDEST DUP4 DUP4 LT PUSH2 0x13B6 JUMPI POP POP POP POP JUMP JUMPDEST PUSH1 0x20 DUP1 SWAP2 PUSH2 0x13C4 DUP5 DUP7 PUSH2 0x256 JUMP JUMPDEST DUP2 MSTORE ADD SWAP3 ADD SWAP2 PUSH2 0x13A9 JUMP JUMPDEST SWAP1 DUP1 PUSH1 0x1F DUP4 ADD SLT ISZERO PUSH2 0x248 JUMPI DUP2 PUSH1 0x20 PUSH2 0x271 SWAP4 CALLDATALOAD SWAP2 ADD PUSH2 0x1382 JUMP JUMPDEST SWAP2 SWAP1 SWAP2 PUSH2 0x1C0 DUP2 DUP5 SUB SLT PUSH2 0x248 JUMPI PUSH2 0x1403 PUSH2 0x1C0 PUSH2 0x591 JUMP JUMPDEST SWAP3 PUSH2 0x140E DUP2 DUP4 PUSH2 0x1375 JUMP JUMPDEST DUP5 MSTORE PUSH2 0x141D DUP2 PUSH1 0x20 DUP5 ADD PUSH2 0x283 JUMP JUMPDEST PUSH1 0x20 DUP6 ADD MSTORE PUSH2 0x142F DUP2 PUSH1 0x40 DUP5 ADD PUSH2 0x256 JUMP JUMPDEST PUSH1 0x40 DUP6 ADD MSTORE PUSH2 0x1441 DUP2 PUSH1 0x60 DUP5 ADD PUSH2 0x256 JUMP JUMPDEST PUSH1 0x60 DUP6 ADD MSTORE PUSH2 0x1453 DUP2 PUSH1 0x80 DUP5 ADD PUSH2 0x256 JUMP JUMPDEST PUSH1 0x80 DUP6 ADD MSTORE PUSH2 0x1465 DUP2 PUSH1 0xA0 DUP5 ADD PUSH2 0x256 JUMP JUMPDEST PUSH1 0xA0 DUP6 ADD MSTORE PUSH2 0x1477 DUP2 PUSH1 0xC0 DUP5 ADD PUSH2 0x256 JUMP JUMPDEST PUSH1 0xC0 DUP6 ADD MSTORE PUSH2 0x1489 DUP2 PUSH1 0xE0 DUP5 ADD PUSH2 0x256 JUMP JUMPDEST PUSH1 0xE0 DUP6 ADD MSTORE PUSH2 0x100 DUP3 ADD CALLDATALOAD PUSH1 0x1 PUSH1 0x1 PUSH1 0x40 SHL SUB DUP2 GT PUSH2 0x248 JUMPI DUP2 PUSH2 0x14AE SWAP2 DUP5 ADD PUSH2 0x600 JUMP JUMPDEST PUSH2 0x100 DUP6 ADD MSTORE PUSH2 0x120 DUP3 ADD CALLDATALOAD PUSH1 0x1 PUSH1 0x1 PUSH1 0x40 SHL SUB DUP2 GT PUSH2 0x248 JUMPI DUP2 PUSH2 0x14D4 SWAP2 DUP5 ADD PUSH2 0x600 JUMP JUMPDEST PUSH2 0x120 DUP6 ADD MSTORE PUSH2 0x140 DUP3 ADD CALLDATALOAD PUSH1 0x1 PUSH1 0x1 PUSH1 0x40 SHL SUB DUP2 GT PUSH2 0x248 JUMPI DUP2 PUSH2 0x14FA SWAP2 DUP5 ADD PUSH2 0x600 JUMP JUMPDEST PUSH2 0x140 DUP6 ADD MSTORE PUSH2 0x160 DUP3 ADD CALLDATALOAD PUSH1 0x1 PUSH1 0x1 PUSH1 0x40 SHL SUB DUP2 GT PUSH2 0x248 JUMPI DUP2 PUSH2 0x1520 SWAP2 DUP5 ADD PUSH2 0x600 JUMP JUMPDEST PUSH2 0x160 DUP6 ADD MSTORE PUSH2 0x180 DUP3 ADD CALLDATALOAD PUSH1 0x1 PUSH1 0x1 PUSH1 0x40 SHL SUB DUP2 GT PUSH2 0x248 JUMPI DUP2 PUSH2 0x1546 SWAP2 DUP5 ADD PUSH2 0x600 JUMP JUMPDEST PUSH2 0x180 DUP6 ADD MSTORE PUSH2 0x1A0 DUP3 ADD CALLDATALOAD PUSH1 0x1 PUSH1 0x1 PUSH1 0x40 SHL SUB DUP2 GT PUSH2 0x248 JUMPI PUSH2 0x156A SWAP3 ADD PUSH2 0x13CF JUMP JUMPDEST PUSH2 0x1A0 DUP4 ADD MSTORE JUMP JUMPDEST SWAP3 SWAP2 SWAP1 PUSH2 0x1581 PUSH2 0x5E1 DUP3 PUSH2 0x1354 JUMP JUMPDEST SWAP4 DUP2 DUP6 MSTORE PUSH1 0x20 DUP1 DUP7 ADD SWAP3 MUL DUP2 ADD SWAP2 DUP4 DUP4 GT PUSH2 0x248 JUMPI DUP2 SWAP1 JUMPDEST DUP4 DUP3 LT PUSH2 0x15A7 JUMPI POP POP POP POP POP JUMP JUMPDEST DUP2 CALLDATALOAD PUSH1 0x1 PUSH1 0x1 PUSH1 0x40 SHL SUB DUP2 GT PUSH2 0x248 JUMPI PUSH1 0x20 SWAP2 PUSH2 0x15C7 DUP8 DUP5 SWAP4 DUP8 ADD PUSH2 0x13EA JUMP JUMPDEST DUP2 MSTORE ADD SWAP2 ADD SWAP1 PUSH2 0x1599 JUMP JUMPDEST SWAP1 DUP1 PUSH1 0x1F DUP4 ADD SLT ISZERO PUSH2 0x248 JUMPI DUP2 PUSH1 0x20 PUSH2 0x271 SWAP4 CALLDATALOAD SWAP2 ADD PUSH2 0x1572 JUMP JUMPDEST SWAP2 SWAP1 SWAP2 PUSH2 0x140 DUP2 DUP5 SUB SLT PUSH2 0x248 JUMPI PUSH2 0x1605 PUSH1 0xA0 PUSH2 0x591 JUMP JUMPDEST SWAP3 DUP2 CALLDATALOAD PUSH1 0x1 PUSH1 0x1 PUSH1 0x40 SHL SUB DUP2 GT PUSH2 0x248 JUMPI DUP2 PUSH2 0x1622 SWAP2 DUP5 ADD PUSH2 0x11C3 JUMP JUMPDEST DUP5 MSTORE PUSH2 0x1631 DUP2 PUSH1 0x20 DUP5 ADD PUSH2 0x1265 JUMP JUMPDEST PUSH1 0x20 DUP6 ADD MSTORE PUSH2 0x1643 DUP2 PUSH1 0xA0 DUP5 ADD PUSH2 0x12B8 JUMP JUMPDEST PUSH1 0x40 DUP6 ADD MSTORE PUSH2 0x100 DUP3 ADD CALLDATALOAD PUSH1 0x1 PUSH1 0x1 PUSH1 0x40 SHL SUB DUP2 GT PUSH2 0x248 JUMPI DUP2 PUSH2 0x1668 SWAP2 DUP5 ADD PUSH2 0x12F9 JUMP JUMPDEST PUSH1 0x60 DUP6 ADD MSTORE PUSH2 0x120 DUP3 ADD CALLDATALOAD PUSH1 0x1 PUSH1 0x1 PUSH1 0x40 SHL SUB DUP2 GT PUSH2 0x248 JUMPI PUSH2 0x168B SWAP3 ADD PUSH2 0x15D2 JUMP JUMPDEST PUSH1 0x80 DUP4 ADD MSTORE JUMP JUMPDEST SWAP1 PUSH1 0x20 DUP3 DUP3 SUB SLT PUSH2 0x248 JUMPI DUP2 CALLDATALOAD PUSH1 0x1 PUSH1 0x1 PUSH1 0x40 SHL SUB DUP2 GT PUSH2 0x248 JUMPI PUSH2 0x271 SWAP3 ADD PUSH2 0x15ED JUMP JUMPDEST CALLVALUE PUSH2 0x248 JUMPI PUSH2 0x2E3 PUSH2 0x2D3 PUSH2 0x16CD CALLDATASIZE PUSH1 0x4 PUSH2 0x1692 JUMP JUMPDEST PUSH2 0x3CFD JUMP JUMPDEST SWAP1 SWAP2 PUSH1 0x60 DUP3 DUP5 SUB SLT PUSH2 0x248 JUMPI PUSH2 0x271 PUSH2 0x16EB DUP5 DUP5 PUSH2 0x256 JUMP JUMPDEST SWAP4 PUSH1 0x40 PUSH2 0xBCA DUP3 PUSH1 0x20 DUP8 ADD PUSH2 0x256 JUMP JUMPDEST CALLVALUE PUSH2 0x248 JUMPI PUSH2 0x2E3 PUSH2 0xE96 PUSH2 0x1711 CALLDATASIZE PUSH1 0x4 PUSH2 0x16D2 JUMP JUMPDEST SWAP2 PUSH2 0x3EB2 JUMP JUMPDEST PUSH4 0x4E487B71 PUSH1 0xE0 SHL PUSH1 0x0 MSTORE PUSH1 0x21 PUSH1 0x4 MSTORE PUSH1 0x24 PUSH1 0x0 REVERT JUMPDEST PUSH1 0x4 GT ISZERO PUSH2 0x1737 JUMPI JUMP JUMPDEST PUSH2 0x1717 JUMP JUMPDEST SWAP1 PUSH2 0x263 DUP3 PUSH2 0x172D JUMP JUMPDEST PUSH2 0x271 SWAP1 PUSH2 0x173C JUMP JUMPDEST PUSH2 0x2B3 SWAP1 PUSH2 0x1746 JUMP JUMPDEST SWAP1 PUSH2 0x1767 PUSH2 0xE2D PUSH2 0xE23 DUP5 MLOAD SWAP1 JUMP JUMPDEST SWAP1 PUSH1 0x0 JUMPDEST DUP2 DUP2 LT PUSH2 0x1778 JUMPI POP POP POP SWAP1 JUMP JUMPDEST SWAP1 SWAP2 SWAP3 PUSH2 0x178E PUSH2 0xE5B PUSH1 0x1 SWAP3 DUP7 MLOAD DUP2 MSTORE PUSH1 0x20 ADD SWAP1 JUMP JUMPDEST SWAP3 SWAP2 ADD PUSH2 0x176B JUMP JUMPDEST PUSH2 0x271 SWAP2 PUSH2 0x1A0 PUSH2 0x1894 PUSH2 0x1880 PUSH2 0x186C PUSH2 0x1858 PUSH2 0x1844 PUSH2 0x1C0 DUP8 ADD PUSH2 0x17C3 PUSH1 0x0 DUP11 ADD MLOAD PUSH1 0x0 DUP11 ADD SWAP1 PUSH2 0x174F JUMP JUMPDEST PUSH1 0x20 DUP10 DUP2 ADD MLOAD PUSH1 0x1 PUSH1 0x1 PUSH1 0xA0 SHL SUB AND SWAP1 DUP10 ADD MSTORE PUSH2 0x17E5 PUSH1 0x40 DUP11 ADD MLOAD PUSH1 0x40 DUP11 ADD MSTORE JUMP JUMPDEST PUSH2 0x17F4 PUSH1 0x60 DUP11 ADD MLOAD PUSH1 0x60 DUP11 ADD MSTORE JUMP JUMPDEST PUSH2 0x1803 PUSH1 0x80 DUP11 ADD MLOAD PUSH1 0x80 DUP11 ADD MSTORE JUMP JUMPDEST PUSH2 0x1812 PUSH1 0xA0 DUP11 ADD MLOAD PUSH1 0xA0 DUP11 ADD MSTORE JUMP JUMPDEST PUSH2 0x1821 PUSH1 0xC0 DUP11 ADD MLOAD PUSH1 0xC0 DUP11 ADD MSTORE JUMP JUMPDEST PUSH2 0x1830 PUSH1 0xE0 DUP11 ADD MLOAD PUSH1 0xE0 DUP11 ADD MSTORE JUMP JUMPDEST PUSH2 0x100 DUP10 ADD MLOAD DUP9 DUP3 SUB PUSH2 0x100 DUP11 ADD MSTORE PUSH2 0x980 JUMP JUMPDEST PUSH2 0x120 DUP9 ADD MLOAD DUP8 DUP3 SUB PUSH2 0x120 DUP10 ADD MSTORE PUSH2 0x980 JUMP JUMPDEST PUSH2 0x140 DUP8 ADD MLOAD DUP7 DUP3 SUB PUSH2 0x140 DUP9 ADD MSTORE PUSH2 0x980 JUMP JUMPDEST PUSH2 0x160 DUP7 ADD MLOAD DUP6 DUP3 SUB PUSH2 0x160 DUP8 ADD MSTORE PUSH2 0x980 JUMP JUMPDEST PUSH2 0x180 DUP6 ADD MLOAD DUP5 DUP3 SUB PUSH2 0x180 DUP7 ADD MSTORE PUSH2 0x980 JUMP JUMPDEST SWAP3 ADD MLOAD SWAP1 PUSH2 0x1A0 DUP2 DUP5 SUB SWAP2 ADD MSTORE PUSH2 0x1758 JUMP JUMPDEST SWAP1 PUSH2 0x271 SWAP2 PUSH2 0x1796 JUMP JUMPDEST SWAP1 PUSH2 0x18C6 PUSH2 0x18BC DUP4 MLOAD SWAP1 JUMP JUMPDEST DUP1 DUP4 MSTORE SWAP2 PUSH1 0x20 ADD SWAP1 JUMP JUMPDEST SWAP1 DUP2 PUSH2 0x18D8 PUSH1 0x20 DUP4 MUL DUP5 ADD SWAP5 PUSH1 0x20 ADD SWAP1 JUMP JUMPDEST SWAP3 PUSH1 0x0 SWAP2 JUMPDEST DUP4 DUP4 LT PUSH2 0x18EC JUMPI POP POP POP POP POP SWAP1 JUMP JUMPDEST SWAP1 SWAP2 SWAP3 SWAP4 SWAP5 PUSH1 0x20 PUSH2 0x190F PUSH2 0x1908 DUP4 DUP6 PUSH1 0x1 SWAP6 SUB DUP8 MSTORE DUP10 MLOAD PUSH2 0x18A6 JUMP JUMPDEST SWAP8 PUSH1 0x20 ADD SWAP1 JUMP JUMPDEST SWAP4 ADD SWAP4 ADD SWAP2 SWAP4 SWAP3 SWAP1 PUSH2 0x18DD JUMP JUMPDEST DUP1 MLOAD PUSH2 0x1C0 DUP1 DUP5 MSTORE PUSH2 0x271 SWAP4 SWAP2 PUSH1 0xA0 SWAP2 PUSH2 0x1972 SWAP2 PUSH2 0x193C SWAP2 DUP6 ADD SWAP1 PUSH2 0x9B4 JUMP JUMPDEST PUSH2 0x194E PUSH1 0x20 DUP7 ADD MLOAD PUSH1 0x20 DUP7 ADD SWAP1 PUSH2 0xA0E JUMP JUMPDEST PUSH2 0x195F PUSH1 0x40 DUP7 ADD MLOAD DUP5 DUP7 ADD SWAP1 PUSH2 0xA3F JUMP JUMPDEST PUSH1 0x60 DUP6 ADD MLOAD DUP5 DUP3 SUB PUSH2 0x100 DUP7 ADD MSTORE PUSH2 0xA5E JUMP JUMPDEST SWAP3 PUSH2 0x1986 PUSH1 0x80 DUP3 ADD MLOAD PUSH2 0x120 DUP6 ADD SWAP1 PUSH2 0xA9C JUMP JUMPDEST ADD MLOAD SWAP1 PUSH2 0x1A0 DUP2 DUP5 SUB SWAP2 ADD MSTORE PUSH2 0x18B0 JUMP JUMPDEST PUSH1 0x20 DUP1 DUP3 MSTORE PUSH2 0x271 SWAP3 SWAP2 ADD SWAP1 PUSH2 0x191C JUMP JUMPDEST CALLVALUE PUSH2 0x248 JUMPI PUSH2 0x2E3 PUSH2 0x19C3 PUSH2 0x19BE CALLDATASIZE PUSH1 0x4 PUSH2 0x3A3 JUMP JUMPDEST PUSH2 0x41CD JUMP JUMPDEST PUSH1 0x40 MLOAD SWAP2 DUP3 SWAP2 DUP3 PUSH2 0x1997 JUMP JUMPDEST CALLVALUE PUSH2 0x248 JUMPI PUSH2 0x328 PUSH2 0x19E2 CALLDATASIZE PUSH1 0x4 PUSH2 0x349 JUMP JUMPDEST PUSH2 0x425D JUMP JUMPDEST PUSH2 0xC00 PUSH2 0x271 SWAP3 PUSH2 0x19FB PUSH1 0x0 SWAP4 PUSH1 0x7 PUSH2 0x3C4 JUMP JUMPDEST PUSH2 0x501 JUMP JUMPDEST CALLVALUE PUSH2 0x248 JUMPI PUSH2 0x2E3 PUSH2 0x2D3 PUSH2 0x1A16 CALLDATASIZE PUSH1 0x4 PUSH2 0x290 JUMP JUMPDEST SWAP1 PUSH2 0x19E7 JUMP JUMPDEST SWAP1 PUSH2 0x1A2F SWAP3 SWAP2 PUSH2 0x1A2A PUSH2 0x4270 JUMP JUMPDEST PUSH2 0x1A84 JUMP JUMPDEST SWAP1 PUSH2 0x263 PUSH2 0x42B0 JUMP JUMPDEST ISZERO PUSH2 0x1A3F JUMPI JUMP JUMPDEST PUSH1 0x40 MLOAD PUSH3 0x461BCD PUSH1 0xE5 SHL DUP2 MSTORE PUSH1 0x20 PUSH1 0x4 DUP3 ADD MSTORE PUSH1 0x12 PUSH1 0x24 DUP3 ADD MSTORE PUSH32 0x436F6E7472616374206973207061757365640000000000000000000000000000 PUSH1 0x44 DUP3 ADD MSTORE PUSH1 0x64 SWAP1 REVERT JUMPDEST SWAP1 PUSH2 0x271 SWAP3 SWAP2 PUSH2 0x1AA3 PUSH2 0x1A9E PUSH2 0x1A9A PUSH1 0xC PUSH2 0x7F8 JUMP JUMPDEST ISZERO SWAP1 JUMP JUMPDEST PUSH2 0x1A38 JUMP JUMPDEST PUSH2 0x1C0E JUMP JUMPDEST PUSH4 0x4E487B71 PUSH1 0xE0 SHL PUSH1 0x0 MSTORE PUSH1 0x11 PUSH1 0x4 MSTORE PUSH1 0x24 PUSH1 0x0 REVERT JUMPDEST PUSH1 0x0 NOT DUP2 EQ PUSH2 0x1ACD JUMPI PUSH1 0x1 ADD SWAP1 JUMP JUMPDEST PUSH2 0x1AA8 JUMP JUMPDEST SWAP1 PUSH1 0x0 NOT SWAP1 JUMPDEST SWAP2 DUP2 NOT AND SWAP2 AND OR SWAP1 JUMP JUMPDEST SWAP1 PUSH2 0x1AF2 PUSH2 0x271 PUSH2 0x1AF9 SWAP3 PUSH2 0x3B7 JUMP JUMPDEST DUP3 SLOAD PUSH2 0x1AD2 JUMP JUMPDEST SWAP1 SSTORE JUMP JUMPDEST PUSH4 0x4E487B71 PUSH1 0xE0 SHL PUSH1 0x0 MSTORE PUSH1 0x0 PUSH1 0x4 MSTORE PUSH1 0x24 PUSH1 0x0 REVERT JUMPDEST SWAP1 PUSH1 0x1 PUSH1 0x1 PUSH1 0xA0 SHL SUB SWAP1 PUSH2 0x1AD8 JUMP JUMPDEST SWAP1 PUSH2 0x1B32 PUSH2 0x271 PUSH2 0x1AF9 SWAP3 PUSH2 0x4F8 JUMP JUMPDEST DUP3 SLOAD PUSH2 0x1B13 JUMP JUMPDEST SWAP1 PUSH2 0x1AF2 PUSH2 0x271 PUSH2 0x1AF9 SWAP3 SWAP1 JUMP JUMPDEST PUSH1 0x3 PUSH2 0x1BA2 PUSH1 0x60 PUSH2 0x263 SWAP5 PUSH2 0x1B6F PUSH2 0x1B69 PUSH1 0x0 DUP4 ADD MLOAD PUSH1 0x1 PUSH1 0x1 PUSH1 0xA0 SHL SUB AND SWAP1 JUMP JUMPDEST DUP7 PUSH2 0x1B22 JUMP JUMPDEST PUSH2 0x1B86 PUSH2 0x1B7D PUSH1 0x20 DUP4 ADD MLOAD SWAP1 JUMP JUMPDEST PUSH1 0x1 DUP8 ADD PUSH2 0x1AE2 JUMP JUMPDEST PUSH2 0x1B9D PUSH2 0x1B94 PUSH1 0x40 DUP4 ADD MLOAD SWAP1 JUMP JUMPDEST PUSH1 0x2 DUP8 ADD PUSH2 0x1B39 JUMP JUMPDEST ADD MLOAD SWAP1 JUMP JUMPDEST SWAP2 ADD PUSH2 0x1AE2 JUMP JUMPDEST SWAP1 PUSH2 0x263 SWAP2 PUSH2 0x1B47 JUMP JUMPDEST SWAP2 PUSH1 0x0 NOT PUSH1 0x8 SWAP3 SWAP1 SWAP3 MUL SWAP2 DUP3 SHL SWAP2 SHL PUSH2 0x1AD8 JUMP JUMPDEST SWAP2 SWAP1 PUSH2 0x1BD8 PUSH2 0x271 PUSH2 0x1AF9 SWAP4 PUSH2 0x3B7 JUMP JUMPDEST SWAP1 DUP4 SLOAD PUSH2 0x1BB3 JUMP JUMPDEST SWAP1 DUP2 SLOAD SWAP2 PUSH9 0x10000000000000000 DUP4 LT ISZERO PUSH2 0x58C JUMPI DUP3 PUSH2 0x1C08 SWAP2 PUSH1 0x1 PUSH2 0x263 SWAP6 ADD DUP2 SSTORE PUSH2 0x1059 JUMP JUMPDEST SWAP1 PUSH2 0x1BC7 JUMP JUMPDEST POP SWAP1 PUSH2 0x1C1C PUSH1 0x0 DUP3 DUP5 PUSH2 0x43A6 JUMP JUMPDEST PUSH2 0x1C30 PUSH2 0x1C29 PUSH1 0x5 PUSH2 0x3E3 JUMP JUMPDEST DUP4 DUP4 PUSH2 0x4543 JUMP JUMPDEST SWAP1 PUSH32 0xC3013841EB45DBF48E54BCCDBDFCA27C812FE5016E531D0FF451032D38369C6F PUSH2 0x1D22 PUSH2 0x1D0C PUSH2 0x1D06 PUSH2 0x1C65 PUSH1 0x5 PUSH2 0x3E3 JUMP JUMPDEST SWAP7 PUSH2 0x1C79 PUSH2 0x1C72 DUP10 PUSH2 0x1ABE JUMP JUMPDEST PUSH1 0x5 PUSH2 0x1AE2 JUMP JUMPDEST PUSH2 0x1CC1 PUSH2 0x1C84 PUSH2 0x78A JUMP JUMPDEST PUSH1 0x1 PUSH1 0x1 PUSH1 0xA0 SHL SUB DUP9 AND DUP2 MSTORE PUSH2 0x1C9B DUP4 PUSH1 0x20 DUP4 ADD MSTORE JUMP JUMPDEST PUSH2 0x1CA6 DUP10 PUSH1 0x40 DUP4 ADD MSTORE JUMP JUMPDEST PUSH2 0x1CB1 TIMESTAMP PUSH1 0x60 DUP4 ADD MSTORE JUMP JUMPDEST PUSH2 0x1CBC DUP11 PUSH1 0x4 PUSH2 0x3C4 JUMP JUMPDEST PUSH2 0x1BA9 JUMP JUMPDEST PUSH2 0x1CD8 DUP9 PUSH2 0x1CD3 PUSH2 0x271 DUP5 PUSH1 0x6 PUSH2 0x3C4 JUMP JUMPDEST PUSH2 0x1BE0 JUMP JUMPDEST PUSH2 0x1D01 PUSH2 0x1CEA DUP8 PUSH2 0x19FB DUP5 PUSH1 0x7 PUSH2 0x3C4 JUMP JUMPDEST PUSH2 0x1CFB PUSH2 0x1CF6 DUP3 PUSH2 0x3E3 JUMP JUMPDEST PUSH2 0x1ABE JUMP JUMPDEST SWAP1 PUSH2 0x1AE2 JUMP JUMPDEST PUSH2 0x3B7 JUMP JUMPDEST SWAP4 PUSH2 0x4F8 JUMP JUMPDEST SWAP4 PUSH2 0x1D16 PUSH1 0x40 MLOAD SWAP1 JUMP JUMPDEST SWAP2 DUP3 SWAP2 TIMESTAMP SWAP1 DUP9 DUP5 PUSH2 0xC8D JUMP JUMPDEST SUB SWAP1 LOG3 SWAP1 JUMP JUMPDEST PUSH2 0x271 SWAP2 SWAP1 PUSH1 0x0 PUSH2 0x1A1C JUMP JUMPDEST PUSH2 0x263 SWAP1 PUSH2 0x1D40 PUSH2 0x45B4 JUMP JUMPDEST PUSH2 0x1D65 JUMP JUMPDEST SWAP1 PUSH1 0xFF SWAP1 PUSH2 0x1AD8 JUMP JUMPDEST SWAP1 PUSH2 0x1D5E PUSH2 0x271 PUSH2 0x1AF9 SWAP3 ISZERO ISZERO SWAP1 JUMP JUMPDEST DUP3 SLOAD PUSH2 0x1D45 JUMP JUMPDEST PUSH2 0x1D70 DUP2 PUSH1 0xC PUSH2 0x1D4E JUMP JUMPDEST ISZERO PUSH2 0x1DA5 JUMPI PUSH32 0xAB35696F06E428EBC5CEBA8CD17F8FED287BAF43440206D1943AF1EE53E6D267 PUSH2 0x1D9F PUSH1 0x40 MLOAD SWAP1 JUMP JUMPDEST PUSH1 0x0 SWAP1 LOG1 JUMP JUMPDEST PUSH32 0xE5E3B3FB504C22CF5C42FA07D521225937514C654007E1F12646F89768D6F94 PUSH2 0x1D9F PUSH1 0x40 MLOAD SWAP1 JUMP JUMPDEST PUSH2 0x263 SWAP1 PUSH2 0x1D34 JUMP JUMPDEST PUSH2 0x271 SWAP2 PUSH2 0x19FB PUSH2 0x1DF3 SWAP3 PUSH2 0x1DEB PUSH1 0x0 SWAP1 JUMP JUMPDEST POP PUSH1 0x7 PUSH2 0x3C4 JUMP JUMPDEST PUSH2 0x3E3 JUMP JUMPDEST PUSH2 0x263 SWAP1 PUSH2 0x1E04 PUSH2 0x45B4 JUMP JUMPDEST PUSH2 0x1EEF JUMP JUMPDEST PUSH2 0x265 PUSH2 0x271 PUSH2 0x271 SWAP3 SWAP1 JUMP JUMPDEST PUSH2 0x271 SWAP1 PUSH2 0x1E09 JUMP JUMPDEST ISZERO PUSH2 0x1E26 JUMPI JUMP JUMPDEST PUSH1 0x40 MLOAD PUSH3 0x461BCD PUSH1 0xE5 SHL DUP2 MSTORE PUSH1 0x20 PUSH1 0x4 DUP3 ADD MSTORE PUSH1 0xF PUSH1 0x24 DUP3 ADD MSTORE PUSH32 0x494E56414C49445F414444524553530000000000000000000000000000000000 PUSH1 0x44 DUP3 ADD MSTORE PUSH1 0x64 SWAP1 REVERT JUMPDEST ISZERO PUSH2 0x1E72 JUMPI JUMP JUMPDEST PUSH1 0x40 MLOAD PUSH3 0x461BCD PUSH1 0xE5 SHL DUP2 MSTORE PUSH1 0x20 PUSH1 0x4 DUP3 ADD MSTORE PUSH1 0x9 PUSH1 0x24 DUP3 ADD MSTORE PUSH9 0x2727AA2FA0A226A4A7 PUSH1 0xB9 SHL PUSH1 0x44 DUP3 ADD MSTORE PUSH1 0x64 SWAP1 REVERT JUMPDEST ISZERO PUSH2 0x1EAA JUMPI JUMP JUMPDEST PUSH1 0x40 MLOAD PUSH3 0x461BCD PUSH1 0xE5 SHL DUP2 MSTORE PUSH1 0x20 PUSH1 0x4 DUP3 ADD MSTORE PUSH1 0x13 PUSH1 0x24 DUP3 ADD MSTORE PUSH32 0x43414E4E4F545F52454D4F56455F4F574E455200000000000000000000000000 PUSH1 0x44 DUP3 ADD MSTORE PUSH1 0x64 SWAP1 REVERT JUMPDEST PUSH2 0x1F72 SWAP1 PUSH2 0x1F14 PUSH2 0x1F03 PUSH2 0x265 PUSH1 0x0 PUSH2 0x1E16 JUMP JUMPDEST PUSH1 0x1 PUSH1 0x1 PUSH1 0xA0 SHL SUB DUP4 AND EQ ISZERO PUSH2 0x1E1F JUMP JUMPDEST PUSH2 0x1F2F PUSH2 0x1F2A PUSH2 0x1F25 DUP4 PUSH1 0xD PUSH2 0x501 JUMP JUMPDEST PUSH2 0x7F8 JUMP JUMPDEST PUSH2 0x1E6B JUMP JUMPDEST PUSH2 0x1F58 PUSH2 0x1F47 PUSH2 0x265 PUSH1 0x1 SLOAD PUSH1 0x1 PUSH1 0x1 PUSH1 0xA0 SHL SUB AND SWAP1 JUMP JUMPDEST PUSH1 0x1 PUSH1 0x1 PUSH1 0xA0 SHL SUB DUP4 AND EQ ISZERO PUSH2 0x1EA3 JUMP JUMPDEST PUSH2 0x1F6D PUSH1 0x0 PUSH2 0x1F68 DUP4 PUSH1 0xD PUSH2 0x501 JUMP JUMPDEST PUSH2 0x1D4E JUMP JUMPDEST PUSH2 0x4F8 JUMP JUMPDEST PUSH32 0xA3B62BC36326052D97EA62D63C3D60308ED4C3EA8AC079DD8499F1E9C4F80C0F PUSH2 0x1F9C PUSH1 0x40 MLOAD SWAP1 JUMP JUMPDEST DUP1 DUP1 JUMPDEST SUB SWAP1 LOG2 JUMP JUMPDEST PUSH2 0x263 SWAP1 PUSH2 0x1DF8 JUMP JUMPDEST PUSH2 0x1F25 PUSH2 0x271 SWAP2 PUSH2 0x1FBC PUSH1 0x0 SWAP1 JUMP JUMPDEST POP PUSH1 0xD PUSH2 0x501 JUMP JUMPDEST ISZERO PUSH2 0x1FCB JUMPI JUMP JUMPDEST PUSH1 0x40 MLOAD PUSH3 0x461BCD PUSH1 0xE5 SHL DUP2 MSTORE PUSH1 0x20 PUSH1 0x4 DUP3 ADD MSTORE PUSH1 0xE PUSH1 0x24 DUP3 ADD MSTORE PUSH32 0x4E6F7420417574686F72697A6564000000000000000000000000000000000000 PUSH1 0x44 DUP3 ADD MSTORE PUSH1 0x64 SWAP1 REVERT JUMPDEST SWAP1 PUSH2 0x263 SWAP2 PUSH2 0x202B PUSH2 0x2026 PUSH2 0x1F25 CALLER PUSH1 0xD PUSH2 0x501 JUMP JUMPDEST PUSH2 0x1FC4 JUMP JUMPDEST SWAP1 PUSH2 0x263 SWAP2 PUSH2 0x2040 PUSH2 0x1A9E PUSH2 0x1A9A PUSH1 0xC PUSH2 0x7F8 JUMP JUMPDEST PUSH2 0x2117 JUMP JUMPDEST ISZERO PUSH2 0x204C JUMPI JUMP JUMPDEST PUSH1 0x40 MLOAD PUSH3 0x461BCD PUSH1 0xE5 SHL DUP2 MSTORE PUSH1 0x20 PUSH1 0x4 DUP3 ADD MSTORE PUSH1 0x11 PUSH1 0x24 DUP3 ADD MSTORE PUSH32 0x524146464C455F4E4F545F455849535453000000000000000000000000000000 PUSH1 0x44 DUP3 ADD MSTORE PUSH1 0x64 SWAP1 REVERT JUMPDEST ISZERO PUSH2 0x2098 JUMPI JUMP JUMPDEST PUSH1 0x40 MLOAD PUSH3 0x461BCD PUSH1 0xE5 SHL DUP2 MSTORE PUSH1 0x20 PUSH1 0x4 DUP3 ADD MSTORE PUSH1 0x14 PUSH1 0x24 DUP3 ADD MSTORE PUSH32 0x524146464C455F414C52454144595F445241574E000000000000000000000000 PUSH1 0x44 DUP3 ADD MSTORE PUSH1 0x64 SWAP1 REVERT JUMPDEST ISZERO PUSH2 0x20E4 JUMPI JUMP JUMPDEST PUSH1 0x40 MLOAD PUSH3 0x461BCD PUSH1 0xE5 SHL DUP2 MSTORE PUSH1 0x20 PUSH1 0x4 DUP3 ADD MSTORE PUSH1 0xB PUSH1 0x24 DUP3 ADD MSTORE PUSH11 0x1053149150511657D4D155 PUSH1 0xAA SHL PUSH1 0x44 DUP3 ADD MSTORE PUSH1 0x64 SWAP1 REVERT JUMPDEST PUSH2 0x2186 SWAP1 PUSH2 0x1D01 DUP4 PUSH1 0x0 PUSH1 0xE PUSH2 0x2131 PUSH2 0x271 DUP7 PUSH1 0x2 PUSH2 0x3C4 JUMP JUMPDEST PUSH2 0x2158 PUSH2 0x2142 DUP5 PUSH1 0x4 DUP5 ADD ADD PUSH2 0x3E3 JUMP JUMPDEST PUSH2 0x2152 PUSH2 0x214E DUP7 PUSH2 0x3B7 JUMP JUMPDEST SWAP2 SWAP1 JUMP JUMPDEST GT PUSH2 0x2045 JUMP JUMPDEST ADD ADD PUSH2 0x216E PUSH2 0x2169 PUSH2 0x1A9A DUP4 PUSH2 0x8CA JUMP JUMPDEST PUSH2 0x2091 JUMP JUMPDEST PUSH2 0x1F68 PUSH2 0x217A DUP3 PUSH2 0x7F8 JUMP JUMPDEST ISZERO ISZERO DUP4 ISZERO ISZERO EQ ISZERO PUSH2 0x20DD JUMP JUMPDEST PUSH32 0x749EBDEF365D5CFB45277B1B6F7FDE8FAA320B22253FCEF31C7BDF8136164EC5 PUSH2 0x21BD PUSH2 0x21B3 CALLER PUSH2 0x4F8 JUMP JUMPDEST SWAP4 PUSH2 0x394 PUSH1 0x40 MLOAD SWAP1 JUMP JUMPDEST SUB SWAP1 LOG3 JUMP JUMPDEST SWAP1 PUSH2 0x263 SWAP2 PUSH2 0x2010 JUMP JUMPDEST SWAP1 PUSH2 0x263 SWAP2 PUSH2 0x21E2 PUSH2 0x2026 PUSH2 0x1F25 CALLER PUSH1 0xD PUSH2 0x501 JUMP JUMPDEST SWAP1 PUSH2 0x263 SWAP2 PUSH2 0x21F7 PUSH2 0x1A9E PUSH2 0x1A9A PUSH1 0xC PUSH2 0x7F8 JUMP JUMPDEST PUSH2 0x2305 JUMP JUMPDEST ISZERO PUSH2 0x2203 JUMPI JUMP JUMPDEST PUSH1 0x40 MLOAD PUSH3 0x461BCD PUSH1 0xE5 SHL DUP2 MSTORE PUSH1 0x20 PUSH1 0x4 DUP3 ADD MSTORE PUSH1 0x11 PUSH1 0x24 DUP3 ADD MSTORE PUSH32 0x524146464C455F4E4F545F414354495645000000000000000000000000000000 PUSH1 0x44 DUP3 ADD MSTORE PUSH1 0x64 SWAP1 REVERT JUMPDEST ISZERO PUSH2 0x224F JUMPI JUMP JUMPDEST PUSH1 0x40 MLOAD PUSH3 0x461BCD PUSH1 0xE5 SHL DUP2 MSTORE PUSH1 0x20 PUSH1 0x4 DUP3 ADD MSTORE PUSH1 0xD PUSH1 0x24 DUP3 ADD MSTORE PUSH13 0x20A62922A0A22CAFA22920ABA7 PUSH1 0x99 SHL PUSH1 0x44 DUP3 ADD MSTORE PUSH1 0x64 SWAP1 REVERT JUMPDEST ISZERO PUSH2 0x228B JUMPI JUMP JUMPDEST PUSH1 0x40 MLOAD PUSH3 0x461BCD PUSH1 0xE5 SHL DUP2 MSTORE PUSH1 0x20 PUSH1 0x4 DUP3 ADD MSTORE PUSH1 0xF PUSH1 0x24 DUP3 ADD MSTORE PUSH32 0x524541534F4E5F52455155495245440000000000000000000000000000000000 PUSH1 0x44 DUP3 ADD MSTORE PUSH1 0x64 SWAP1 REVERT JUMPDEST SWAP1 PUSH2 0xFF00 SWAP1 PUSH1 0x8 SHL PUSH2 0x1AD8 JUMP JUMPDEST SWAP1 PUSH2 0x22ED PUSH2 0x271 PUSH2 0x1AF9 SWAP3 ISZERO ISZERO SWAP1 JUMP JUMPDEST DUP3 SLOAD PUSH2 0x22D0 JUMP JUMPDEST PUSH1 0x20 DUP1 DUP3 MSTORE PUSH2 0x271 SWAP3 SWAP2 ADD SWAP1 PUSH2 0x980 JUMP JUMPDEST PUSH2 0x1F9F PUSH2 0x239A PUSH32 0x4B065D94BB5F805836B9AEFD08A7B4388CFDD8D346A56EF0A4A547DBCA8B8F1F SWAP3 PUSH2 0x1D01 PUSH1 0x1 PUSH1 0x0 PUSH1 0xE PUSH2 0x2344 PUSH2 0x271 DUP7 PUSH1 0x2 PUSH2 0x3C4 JUMP JUMPDEST ADD PUSH2 0x236C PUSH2 0x2367 PUSH2 0x1A9A DUP5 DUP5 ADD PUSH2 0x2362 PUSH2 0x235D DUP3 PUSH2 0x7F8 JUMP JUMPDEST PUSH2 0x21FC JUMP JUMPDEST PUSH2 0x8CA JUMP JUMPDEST PUSH2 0x2248 JUMP JUMPDEST PUSH2 0x2389 PUSH2 0x2377 DUP11 MLOAD SWAP1 JUMP JUMPDEST PUSH2 0x2383 PUSH2 0x214E DUP6 PUSH2 0x3B7 JUMP JUMPDEST GT PUSH2 0x2284 JUMP JUMPDEST ADD PUSH2 0x2395 PUSH1 0x0 DUP3 PUSH2 0x1D4E JUMP JUMPDEST PUSH2 0x22DD JUMP JUMPDEST SWAP3 PUSH2 0x23A4 PUSH1 0x40 MLOAD SWAP1 JUMP JUMPDEST SWAP2 DUP3 SWAP2 DUP3 PUSH2 0x22F4 JUMP JUMPDEST SWAP1 PUSH2 0x263 SWAP2 PUSH2 0x21CC JUMP JUMPDEST PUSH2 0x263 SWAP1 PUSH2 0x23C3 PUSH2 0x45B4 JUMP JUMPDEST PUSH2 0x2404 JUMP JUMPDEST ISZERO PUSH2 0x23CF JUMPI JUMP JUMPDEST PUSH1 0x40 MLOAD PUSH3 0x461BCD PUSH1 0xE5 SHL DUP2 MSTORE PUSH1 0x20 PUSH1 0x4 DUP3 ADD MSTORE PUSH1 0xD PUSH1 0x24 DUP3 ADD MSTORE PUSH13 0x20A62922A0A22CAFA0A226A4A7 PUSH1 0x99 SHL PUSH1 0x44 DUP3 ADD MSTORE PUSH1 0x64 SWAP1 REVERT JUMPDEST PUSH2 0x2441 SWAP1 PUSH2 0x2418 PUSH2 0x1F03 PUSH2 0x265 PUSH1 0x0 PUSH2 0x1E16 JUMP JUMPDEST PUSH2 0x2431 PUSH2 0x242C PUSH2 0x1A9A PUSH2 0x1F25 DUP5 PUSH1 0xD PUSH2 0x501 JUMP JUMPDEST PUSH2 0x23C8 JUMP JUMPDEST PUSH2 0x1F6D PUSH1 0x1 PUSH2 0x1F68 DUP4 PUSH1 0xD PUSH2 0x501 JUMP JUMPDEST PUSH32 0x44D6D25963F097AD14F29F06854A01F575648A1EF82F30E562CCD3889717E339 PUSH2 0x1F9C PUSH1 0x40 MLOAD SWAP1 JUMP JUMPDEST PUSH2 0x263 SWAP1 PUSH2 0x23B7 JUMP JUMPDEST PUSH2 0x247C PUSH2 0x45B4 JUMP JUMPDEST PUSH2 0x263 PUSH2 0x263 PUSH2 0x248C PUSH1 0x0 PUSH2 0x1E16 JUMP JUMPDEST PUSH2 0x45FE JUMP JUMPDEST PUSH2 0x263 PUSH2 0x2474 JUMP JUMPDEST SWAP1 PUSH2 0x263 SWAP3 SWAP2 PUSH2 0x24B0 PUSH2 0x2026 PUSH2 0x1F25 CALLER PUSH1 0xD PUSH2 0x501 JUMP JUMPDEST SWAP1 PUSH2 0x263 SWAP3 SWAP2 PUSH2 0x24C6 PUSH2 0x1A9E PUSH2 0x1A9A PUSH1 0xC PUSH2 0x7F8 JUMP JUMPDEST PUSH2 0x2707 JUMP JUMPDEST ISZERO PUSH2 0x24D2 JUMPI JUMP JUMPDEST PUSH1 0x40 MLOAD PUSH3 0x461BCD PUSH1 0xE5 SHL DUP2 MSTORE PUSH1 0x20 PUSH1 0x4 DUP3 ADD MSTORE PUSH1 0xF PUSH1 0x24 DUP3 ADD MSTORE PUSH32 0x5052495A455F4E4F545F445241574E0000000000000000000000000000000000 PUSH1 0x44 DUP3 ADD MSTORE PUSH1 0x64 SWAP1 REVERT JUMPDEST ISZERO PUSH2 0x251E JUMPI JUMP JUMPDEST PUSH1 0x40 MLOAD PUSH3 0x461BCD PUSH1 0xE5 SHL DUP2 MSTORE PUSH1 0x20 PUSH1 0x4 DUP3 ADD MSTORE PUSH1 0x11 PUSH1 0x24 DUP3 ADD MSTORE PUSH32 0x414C52454144595F44454C495645524544000000000000000000000000000000 PUSH1 0x44 DUP3 ADD MSTORE PUSH1 0x64 SWAP1 REVERT JUMPDEST ISZERO PUSH2 0x256A JUMPI JUMP JUMPDEST PUSH1 0x40 MLOAD PUSH3 0x461BCD PUSH1 0xE5 SHL DUP2 MSTORE PUSH1 0x20 PUSH1 0x4 DUP3 ADD MSTORE PUSH1 0x18 PUSH1 0x24 DUP3 ADD MSTORE PUSH32 0x44454C49564552595F4D4554484F445F52455155495245440000000000000000 PUSH1 0x44 DUP3 ADD MSTORE PUSH1 0x64 SWAP1 REVERT JUMPDEST SWAP1 PUSH1 0xFF PUSH1 0xA0 SHL SWAP1 PUSH1 0xA0 SHL PUSH2 0x1AD8 JUMP JUMPDEST SWAP1 PUSH2 0x25CE PUSH2 0x271 PUSH2 0x1AF9 SWAP3 ISZERO ISZERO SWAP1 JUMP JUMPDEST DUP3 SLOAD PUSH2 0x25AF JUMP JUMPDEST ISZERO PUSH2 0x25DC JUMPI JUMP JUMPDEST PUSH1 0x40 MLOAD PUSH3 0x461BCD PUSH1 0xE5 SHL DUP2 MSTORE PUSH1 0x20 PUSH1 0x4 DUP3 ADD MSTORE PUSH1 0x13 PUSH1 0x24 DUP3 ADD MSTORE PUSH32 0x494E56414C49445F5052495A455F494E44455800000000000000000000000000 PUSH1 0x44 DUP3 ADD MSTORE PUSH1 0x64 SWAP1 REVERT JUMPDEST DUP1 SLOAD DUP3 LT ISZERO PUSH2 0x107C JUMPI PUSH2 0x1073 PUSH1 0xD SWAP2 PUSH1 0x0 MSTORE PUSH1 0x20 PUSH1 0x0 KECCAK256 SWAP1 JUMP JUMPDEST DUP1 SLOAD PUSH1 0x0 SWAP4 SWAP3 SWAP2 PUSH2 0x264E PUSH2 0x6EE DUP4 PUSH2 0x6B1 JUMP JUMPDEST SWAP2 PUSH1 0x1 DUP2 AND SWAP1 DUP2 ISZERO PUSH2 0x74A JUMPI POP PUSH1 0x1 EQ PUSH2 0x2667 JUMPI POP POP POP JUMP JUMPDEST PUSH2 0x267A SWAP2 SWAP3 SWAP4 SWAP5 POP PUSH1 0x0 MSTORE PUSH1 0x20 PUSH1 0x0 KECCAK256 SWAP1 JUMP JUMPDEST SWAP2 PUSH1 0x0 SWAP3 JUMPDEST DUP2 DUP5 LT PUSH2 0x268C JUMPI POP POP ADD SWAP1 JUMP JUMPDEST DUP1 SLOAD DUP5 DUP5 ADD MSTORE PUSH1 0x20 SWAP1 SWAP4 ADD SWAP3 PUSH1 0x1 ADD PUSH2 0x267F JUMP JUMPDEST SWAP7 SWAP6 SWAP4 PUSH1 0xA0 SWAP4 PUSH2 0x26F4 SWAP2 PUSH2 0x26E7 PUSH2 0x26D5 DUP12 PUSH2 0x2702 SWAP8 PUSH2 0x26C8 PUSH2 0x263 SWAP13 SWAP9 PUSH1 0x0 PUSH1 0xC0 DUP6 ADD SWAP5 ADD MSTORE JUMP JUMPDEST DUP14 DUP3 SUB PUSH1 0x20 DUP16 ADD MSTORE PUSH2 0x263B JUMP JUMPDEST PUSH1 0x1 PUSH1 0x1 PUSH1 0xA0 SHL SUB SWAP1 SWAP4 AND PUSH1 0x40 DUP13 ADD MSTORE JUMP JUMPDEST DUP10 DUP3 SUB PUSH1 0x60 DUP12 ADD MSTORE PUSH2 0x980 JUMP JUMPDEST SWAP1 DUP8 DUP3 SUB PUSH1 0x80 DUP10 ADD MSTORE PUSH2 0x980 JUMP JUMPDEST SWAP5 ADD MSTORE JUMP JUMPDEST SWAP2 SWAP1 PUSH2 0x2714 DUP4 PUSH1 0x8 PUSH2 0x3C4 JUMP JUMPDEST SWAP2 PUSH2 0x2721 PUSH1 0x4 DUP5 ADD PUSH2 0x3E3 JUMP JUMPDEST PUSH2 0x272B PUSH1 0x0 PUSH2 0x3B7 JUMP JUMPDEST LT PUSH2 0x2735 SWAP1 PUSH2 0x24CB JUMP JUMPDEST DUP3 SWAP2 PUSH2 0x2740 DUP4 PUSH2 0xEAE JUMP JUMPDEST ISZERO PUSH2 0x274A SWAP1 PUSH2 0x2517 JUMP JUMPDEST DUP1 MLOAD PUSH2 0x2756 PUSH1 0x0 PUSH2 0x3B7 JUMP JUMPDEST LT PUSH2 0x2760 SWAP1 PUSH2 0x2563 JUMP JUMPDEST PUSH2 0x276B PUSH1 0x1 DUP5 PUSH2 0x25BE JUMP JUMPDEST PUSH2 0x2778 TIMESTAMP PUSH1 0x5 DUP7 ADD PUSH2 0x1AE2 JUMP JUMPDEST PUSH1 0x2 DUP5 ADD PUSH2 0x2785 DUP2 PUSH2 0x3E3 JUMP JUMPDEST PUSH2 0x2790 SWAP1 PUSH1 0x2 PUSH2 0x3C4 JUMP JUMPDEST SWAP5 PUSH1 0x3 ADD SWAP1 PUSH2 0x279E DUP3 PUSH2 0x3E3 JUMP JUMPDEST SWAP6 PUSH1 0x11 ADD SWAP6 PUSH2 0x27AB DUP8 SLOAD SWAP1 JUMP JUMPDEST GT PUSH2 0x27B5 SWAP1 PUSH2 0x25D5 JUMP JUMPDEST PUSH2 0x27BE SWAP1 PUSH2 0x3E3 JUMP JUMPDEST SWAP4 SLOAD PUSH1 0x1 PUSH1 0x1 PUSH1 0xA0 SHL SUB AND SWAP5 PUSH2 0x27D3 DUP3 PUSH2 0x3E3 JUMP JUMPDEST SWAP2 PUSH2 0x27DD SWAP1 PUSH2 0x3E3 JUMP JUMPDEST PUSH2 0x27E6 SWAP2 PUSH2 0x2621 JUMP JUMPDEST POP PUSH1 0x7 ADD SWAP6 PUSH2 0x27F4 SWAP1 PUSH2 0x3B7 JUMP JUMPDEST SWAP4 PUSH2 0x27FE SWAP1 PUSH2 0x3B7 JUMP JUMPDEST SWAP5 PUSH2 0x2808 SWAP1 PUSH2 0x4F8 JUMP JUMPDEST SWAP6 PUSH2 0x2812 PUSH1 0x40 MLOAD SWAP1 JUMP JUMPDEST SWAP4 DUP5 SWAP4 TIMESTAMP SWAP3 CALLER SWAP1 PUSH2 0x2823 SWAP6 DUP8 PUSH2 0x26A0 JUMP JUMPDEST SUB PUSH32 0xCEF6D1B833317D0BB1325916E3E8991FF3AF40C4DA83E3CEDBC19B4A64D1BDF5 SWAP2 LOG4 JUMP JUMPDEST SWAP1 PUSH2 0x263 SWAP3 SWAP2 PUSH2 0x2499 JUMP JUMPDEST SWAP1 PUSH2 0x2869 SWAP5 SWAP4 SWAP3 SWAP2 PUSH2 0x2864 PUSH2 0x4270 JUMP JUMPDEST PUSH2 0x2874 JUMP JUMPDEST SWAP1 SWAP2 SWAP3 PUSH2 0x263 PUSH2 0x42B0 JUMP JUMPDEST SWAP1 PUSH2 0x2891 SWAP5 SWAP4 SWAP3 SWAP2 PUSH2 0x288C PUSH2 0x1A9E PUSH2 0x1A9A PUSH1 0xC PUSH2 0x7F8 JUMP JUMPDEST PUSH2 0x29F3 JUMP JUMPDEST SWAP1 SWAP2 SWAP3 JUMP JUMPDEST SWAP1 PUSH2 0x263 PUSH2 0x7E8 PUSH1 0x3 PUSH2 0x28A7 PUSH2 0x78A JUMP JUMPDEST SWAP5 PUSH2 0x28C9 PUSH2 0x28BC DUP3 SLOAD PUSH1 0x1 PUSH1 0x1 PUSH1 0xA0 SHL SUB AND SWAP1 JUMP JUMPDEST PUSH1 0x1 PUSH1 0x1 PUSH1 0xA0 SHL SUB AND DUP8 MSTORE JUMP JUMPDEST PUSH2 0x28D8 PUSH2 0x7C5 PUSH1 0x1 DUP4 ADD PUSH2 0x3E3 JUMP JUMPDEST PUSH2 0x847 PUSH2 0x7DB PUSH1 0x2 DUP4 ADD PUSH2 0x3E3 JUMP JUMPDEST PUSH2 0x271 SWAP1 PUSH2 0x2896 JUMP JUMPDEST PUSH2 0x271 SWAP1 PUSH2 0x3B7 JUMP JUMPDEST PUSH4 0x4E487B71 PUSH1 0xE0 SHL PUSH1 0x0 MSTORE PUSH1 0x12 PUSH1 0x4 MSTORE PUSH1 0x24 PUSH1 0x0 REVERT JUMPDEST DUP2 ISZERO PUSH2 0x2919 JUMPI MOD SWAP1 JUMP JUMPDEST PUSH2 0x28F9 JUMP JUMPDEST DUP1 ISZERO PUSH2 0x1ACD JUMPI PUSH1 0x0 NOT ADD SWAP1 JUMP JUMPDEST PUSH2 0x271 PUSH1 0xE0 PUSH2 0x591 JUMP JUMPDEST PUSH2 0x263 SWAP2 PUSH1 0x5 SWAP1 PUSH2 0x1BA2 SWAP1 PUSH1 0xC0 SWAP1 PUSH2 0x296E DUP6 PUSH2 0x2961 PUSH2 0x295B DUP5 MLOAD PUSH1 0x1 PUSH1 0x1 PUSH1 0xA0 SHL SUB AND SWAP1 JUMP JUMPDEST DUP3 PUSH2 0x1B22 JUMP JUMPDEST PUSH1 0x20 DUP4 ADD MLOAD ISZERO ISZERO SWAP1 PUSH2 0x25BE JUMP JUMPDEST PUSH2 0x2985 PUSH2 0x297C PUSH1 0x40 DUP4 ADD MLOAD SWAP1 JUMP JUMPDEST PUSH1 0x1 DUP8 ADD PUSH2 0x1B39 JUMP JUMPDEST PUSH2 0x299C PUSH2 0x2993 PUSH1 0x60 DUP4 ADD MLOAD SWAP1 JUMP JUMPDEST PUSH1 0x2 DUP8 ADD PUSH2 0x1AE2 JUMP JUMPDEST PUSH2 0x29B3 PUSH2 0x29AA PUSH1 0x80 DUP4 ADD MLOAD SWAP1 JUMP JUMPDEST PUSH1 0x3 DUP8 ADD PUSH2 0x1AE2 JUMP JUMPDEST PUSH2 0x1B9D PUSH2 0x29C1 PUSH1 0xA0 DUP4 ADD MLOAD SWAP1 JUMP JUMPDEST PUSH1 0x4 DUP8 ADD PUSH2 0x1AE2 JUMP JUMPDEST SWAP1 PUSH2 0x263 SWAP2 PUSH2 0x2935 JUMP JUMPDEST PUSH2 0x468 PUSH2 0x263 SWAP5 PUSH2 0x461 PUSH1 0x60 SWAP5 SWAP9 SWAP8 SWAP6 PUSH2 0x45A PUSH1 0x80 DUP7 ADD SWAP11 PUSH1 0x0 DUP8 ADD MSTORE JUMP JUMPDEST SWAP5 SWAP3 SWAP5 POP POP POP PUSH1 0x1 SWAP2 PUSH2 0x2A07 DUP4 DUP3 DUP7 PUSH2 0x43A6 JUMP JUMPDEST PUSH2 0x2A15 PUSH2 0x271 DUP6 PUSH1 0x2 PUSH2 0x3C4 JUMP JUMPDEST SWAP1 PUSH2 0x2A20 DUP2 DUP7 PUSH2 0x4653 JUMP JUMPDEST SWAP2 PUSH2 0x2A34 PUSH2 0x2A2F DUP5 PUSH1 0x4 PUSH2 0x3C4 JUMP JUMPDEST PUSH2 0x28E7 JUMP JUMPDEST SWAP5 PUSH2 0x2A48 PUSH2 0x2A43 DUP6 DUP10 DUP7 PUSH2 0x4543 JUMP JUMPDEST PUSH2 0x28F0 JUMP JUMPDEST SWAP7 PUSH1 0xE DUP4 ADD SWAP3 PUSH2 0x2A6E DUP3 PUSH2 0x2A68 DUP6 DUP8 ADD SWAP12 PUSH2 0x2A62 DUP14 PUSH2 0x3E3 JUMP JUMPDEST SWAP1 PUSH2 0x290F JUMP JUMPDEST DUP4 PUSH2 0x46E8 JUMP JUMPDEST SWAP9 DUP10 SWAP2 PUSH2 0x2A7D PUSH1 0x8 DUP3 ADD PUSH2 0x7F8 JUMP JUMPDEST PUSH2 0x2BAB JUMPI JUMPDEST POP POP POP PUSH1 0x2 DUP4 ADD PUSH2 0x2A92 DUP2 PUSH2 0x3E3 JUMP JUMPDEST PUSH2 0x2A9B SWAP1 PUSH2 0x291E JUMP JUMPDEST PUSH2 0x2AA5 SWAP1 DUP3 PUSH2 0x1AE2 JUMP JUMPDEST PUSH2 0x2AAF PUSH1 0x9 PUSH2 0x3E3 JUMP JUMPDEST SWAP8 PUSH2 0x2AB9 DUP10 PUSH2 0x1ABE JUMP JUMPDEST PUSH2 0x2AC4 SWAP1 PUSH1 0x9 PUSH2 0x1AE2 JUMP JUMPDEST PUSH1 0x40 ADD MLOAD PUSH2 0x2AD0 PUSH2 0x292B JUMP JUMPDEST PUSH1 0x1 PUSH1 0x1 PUSH1 0xA0 SHL SUB DUP8 AND DUP2 MSTORE SWAP1 DUP5 ISZERO ISZERO PUSH1 0x20 DUP4 ADD MSTORE PUSH1 0x40 DUP3 ADD MSTORE PUSH2 0x2AF5 DUP4 PUSH1 0x60 DUP4 ADD MSTORE JUMP JUMPDEST PUSH2 0x2B00 DUP11 PUSH1 0x80 DUP4 ADD MSTORE JUMP JUMPDEST PUSH2 0x2B0B TIMESTAMP PUSH1 0xA0 DUP4 ADD MSTORE JUMP JUMPDEST PUSH2 0x2B16 TIMESTAMP PUSH1 0xC0 DUP4 ADD MSTORE JUMP JUMPDEST PUSH2 0x2B21 DUP10 PUSH1 0x8 PUSH2 0x3C4 JUMP JUMPDEST SWAP1 PUSH2 0x2B2B SWAP2 PUSH2 0x29CA JUMP JUMPDEST PUSH2 0x2B34 SWAP1 PUSH2 0x3E3 JUMP JUMPDEST PUSH2 0x2B3E PUSH1 0x0 PUSH2 0x3B7 JUMP JUMPDEST EQ SWAP3 PUSH2 0x2B54 SWAP3 PUSH2 0x2B5A SWAP5 PUSH2 0x2B9B JUMPI JUMPDEST POP POP PUSH2 0x3B7 JUMP JUMPDEST SWAP2 PUSH2 0x4F8 JUMP JUMPDEST SWAP1 PUSH32 0x5B6DB09229F804E15657628B57342D213A730173BD981B36DBC89BC94199B8F9 PUSH2 0x2B85 PUSH1 0x40 MLOAD SWAP1 JUMP JUMPDEST DUP1 PUSH2 0x2B93 TIMESTAMP DUP10 DUP12 DUP10 DUP6 PUSH2 0x29D4 JUMP JUMPDEST SUB SWAP1 LOG3 SWAP3 SWAP2 SWAP1 JUMP JUMPDEST PUSH2 0x2BA4 SWAP2 PUSH2 0x22DD JUMP JUMPDEST CODESIZE DUP1 PUSH2 0x2B4D JUMP JUMPDEST PUSH1 0x2 PUSH2 0x2BC0 PUSH2 0x2BDF SWAP5 PUSH1 0x11 PUSH2 0x2BCE SWAP5 ADD PUSH2 0x2621 JUMP JUMPDEST POP ADD PUSH2 0x1CFB PUSH2 0x1CF6 DUP3 PUSH2 0x3E3 JUMP JUMPDEST PUSH2 0x1CFB PUSH2 0x2BDA DUP3 PUSH2 0x3E3 JUMP JUMPDEST PUSH2 0x291E JUMP JUMPDEST DUP8 CODESIZE DUP1 PUSH2 0x2A82 JUMP JUMPDEST PUSH2 0x2891 SWAP2 SWAP1 PUSH1 0x0 DUP1 DUP1 PUSH2 0x2854 JUMP JUMPDEST PUSH2 0x2BFD PUSH2 0x292B JUMP JUMPDEST SWAP1 PUSH1 0x0 DUP3 MSTORE PUSH1 0x20 DUP1 DUP1 DUP1 DUP1 DUP1 DUP1 DUP9 ADD PUSH1 0x0 DUP2 MSTORE ADD PUSH1 0x0 DUP2 MSTORE ADD PUSH1 0x0 DUP2 MSTORE ADD PUSH1 0x0 JUMPDEST DUP2 MSTORE ADD PUSH1 0x0 JUMPDEST DUP2 MSTORE ADD PUSH1 0x0 SWAP1 MSTORE POP JUMP JUMPDEST PUSH2 0x271 PUSH2 0x2BF5 JUMP JUMPDEST SWAP1 PUSH2 0x263 PUSH2 0x2CB9 PUSH1 0x5 PUSH2 0x2C47 PUSH2 0x292B JUMP JUMPDEST SWAP5 PUSH2 0x2C5C PUSH2 0x28BC DUP3 SLOAD PUSH1 0x1 PUSH1 0x1 PUSH1 0xA0 SHL SUB AND SWAP1 JUMP JUMPDEST PUSH2 0x2C68 PUSH2 0x8FE DUP3 PUSH2 0xEAE JUMP JUMPDEST PUSH2 0x2C77 PUSH2 0x7DB PUSH1 0x1 DUP4 ADD PUSH2 0x3E3 JUMP JUMPDEST PUSH2 0x2C8D PUSH2 0x2C86 PUSH1 0x2 DUP4 ADD PUSH2 0x3E3 JUMP JUMPDEST PUSH1 0x60 DUP9 ADD MSTORE JUMP JUMPDEST PUSH2 0x2CA3 PUSH2 0x2C9C PUSH1 0x3 DUP4 ADD PUSH2 0x3E3 JUMP JUMPDEST PUSH1 0x80 DUP9 ADD MSTORE JUMP JUMPDEST PUSH2 0x847 PUSH2 0x2CB2 PUSH1 0x4 DUP4 ADD PUSH2 0x3E3 JUMP JUMPDEST PUSH1 0xA0 DUP9 ADD MSTORE JUMP JUMPDEST PUSH1 0xC0 DUP5 ADD MSTORE JUMP JUMPDEST PUSH2 0x271 SWAP1 PUSH2 0x2C36 JUMP JUMPDEST PUSH2 0x2CE0 PUSH2 0x271 SWAP2 PUSH2 0x2CD8 PUSH2 0x2C2E JUMP JUMPDEST POP PUSH1 0x8 PUSH2 0x3C4 JUMP JUMPDEST PUSH2 0x2CC0 JUMP JUMPDEST SWAP1 PUSH2 0x263 SWAP3 SWAP2 PUSH2 0x2CFC PUSH2 0x2026 PUSH2 0x1F25 CALLER PUSH1 0xD PUSH2 0x501 JUMP JUMPDEST SWAP1 PUSH2 0x263 SWAP3 SWAP2 PUSH2 0x2D12 PUSH2 0x1A9E PUSH2 0x1A9A PUSH1 0xC PUSH2 0x7F8 JUMP JUMPDEST PUSH2 0x2DCC JUMP JUMPDEST ISZERO PUSH2 0x2D1E JUMPI JUMP JUMPDEST PUSH1 0x40 MLOAD PUSH3 0x461BCD PUSH1 0xE5 SHL DUP2 MSTORE PUSH1 0x20 PUSH1 0x4 DUP3 ADD MSTORE PUSH1 0x17 PUSH1 0x24 DUP3 ADD MSTORE PUSH32 0x504C415945525F4E4F545F504152544943495041544544000000000000000000 PUSH1 0x44 DUP3 ADD MSTORE PUSH1 0x64 SWAP1 REVERT JUMPDEST ISZERO PUSH2 0x2D6A JUMPI JUMP JUMPDEST PUSH1 0x40 MLOAD PUSH3 0x461BCD PUSH1 0xE5 SHL DUP2 MSTORE PUSH1 0x20 PUSH1 0x4 DUP3 ADD MSTORE PUSH1 0xF PUSH1 0x24 DUP3 ADD MSTORE PUSH32 0x4D4554484F445F52455155495245440000000000000000000000000000000000 PUSH1 0x44 DUP3 ADD MSTORE PUSH1 0x64 SWAP1 REVERT JUMPDEST SWAP3 SWAP2 PUSH1 0x20 PUSH2 0x2702 PUSH2 0x263 SWAP4 PUSH1 0x40 DUP8 ADD SWAP1 DUP8 DUP3 SUB PUSH1 0x0 DUP10 ADD MSTORE PUSH2 0x980 JUMP JUMPDEST PUSH2 0x2B54 PUSH2 0x2E19 SWAP2 PUSH2 0x2DFB PUSH2 0x2DE8 PUSH2 0x1DF3 DUP7 PUSH2 0x19FB DUP6 PUSH1 0x7 PUSH2 0x3C4 JUMP JUMPDEST PUSH2 0x2DF5 PUSH2 0x214E PUSH1 0x0 PUSH2 0x3B7 JUMP JUMPDEST GT PUSH2 0x2D17 JUMP JUMPDEST PUSH2 0x1D01 PUSH2 0x2E06 DUP7 MLOAD SWAP1 JUMP JUMPDEST PUSH2 0x2E13 PUSH2 0x214E PUSH1 0x0 PUSH2 0x3B7 JUMP JUMPDEST GT PUSH2 0x2D63 JUMP JUMPDEST SWAP1 PUSH32 0x259B46E60D1E2EDD3FF15970DE1B6023EFE23EE42E5D8EB42CAD548A7E195704 PUSH2 0x2E5C PUSH2 0x2E47 CALLER PUSH2 0x4F8 JUMP JUMPDEST SWAP5 PUSH2 0x2E51 PUSH1 0x40 MLOAD SWAP1 JUMP JUMPDEST SWAP2 DUP3 SWAP2 TIMESTAMP SWAP1 DUP4 PUSH2 0x2DAF JUMP JUMPDEST SUB SWAP1 LOG4 JUMP JUMPDEST SWAP1 PUSH2 0x263 SWAP3 SWAP2 PUSH2 0x2CE5 JUMP JUMPDEST SWAP1 PUSH2 0x2E87 PUSH2 0x2E7B PUSH2 0xE23 DUP5 SLOAD SWAP1 JUMP JUMPDEST SWAP3 PUSH1 0x0 MSTORE PUSH1 0x20 PUSH1 0x0 KECCAK256 SWAP1 JUMP JUMPDEST SWAP1 PUSH1 0x0 JUMPDEST DUP2 DUP2 LT PUSH2 0x2E98 JUMPI POP POP POP SWAP1 JUMP JUMPDEST SWAP1 SWAP2 SWAP3 PUSH2 0x2EBC PUSH2 0x2EB5 PUSH1 0x1 SWAP3 PUSH2 0x2EAD DUP8 PUSH2 0x3E3 JUMP JUMPDEST DUP2 MSTORE PUSH1 0x20 ADD SWAP1 JUMP JUMPDEST SWAP5 PUSH1 0x1 ADD SWAP1 JUMP JUMPDEST SWAP3 SWAP2 ADD PUSH2 0x2E8B JUMP JUMPDEST SWAP1 PUSH2 0x271 SWAP2 PUSH2 0x2E6C JUMP JUMPDEST SWAP1 PUSH2 0x263 PUSH2 0x783 SWAP3 PUSH2 0x2EDF PUSH1 0x40 MLOAD SWAP1 JUMP JUMPDEST SWAP4 DUP5 DUP1 SWAP3 PUSH2 0x2EC4 JUMP JUMPDEST PUSH2 0x271 SWAP1 PUSH2 0x2ECE JUMP JUMPDEST PUSH2 0x2F08 PUSH2 0x271 SWAP2 PUSH2 0x2F00 PUSH1 0x60 SWAP1 JUMP JUMPDEST POP PUSH1 0x6 PUSH2 0x3C4 JUMP JUMPDEST PUSH2 0x2EE8 JUMP JUMPDEST SWAP1 PUSH2 0x263 SWAP6 SWAP5 SWAP4 SWAP3 SWAP2 PUSH2 0x2F27 PUSH2 0x2026 PUSH2 0x1F25 CALLER PUSH1 0xD PUSH2 0x501 JUMP JUMPDEST SWAP1 PUSH2 0x263 SWAP6 SWAP5 SWAP4 SWAP3 SWAP2 PUSH2 0x2F40 PUSH2 0x1A9E PUSH2 0x1A9A PUSH1 0xC PUSH2 0x7F8 JUMP JUMPDEST PUSH2 0x309D JUMP JUMPDEST ISZERO PUSH2 0x2F4C JUMPI JUMP JUMPDEST PUSH1 0x40 MLOAD PUSH3 0x461BCD PUSH1 0xE5 SHL DUP2 MSTORE PUSH1 0x20 PUSH1 0x4 DUP3 ADD MSTORE PUSH1 0x15 PUSH1 0x24 DUP3 ADD MSTORE PUSH32 0x41525241595F4C454E4754485F4D49534D415443480000000000000000000000 PUSH1 0x44 DUP3 ADD MSTORE PUSH1 0x64 SWAP1 REVERT JUMPDEST SWAP2 SWAP1 DUP2 LT ISZERO PUSH2 0x107C JUMPI PUSH1 0x20 MUL ADD SWAP1 JUMP JUMPDEST CALLDATALOAD PUSH2 0x271 DUP2 PUSH2 0x24D JUMP JUMPDEST CALLDATALOAD PUSH2 0x271 DUP2 PUSH2 0x2E7 JUMP JUMPDEST SWAP1 CALLDATALOAD SWAP1 PUSH1 0x1E NOT CALLDATASIZE DUP3 SWAP1 SUB ADD DUP3 SLT ISZERO PUSH2 0x248 JUMPI ADD DUP1 CALLDATALOAD SWAP1 PUSH1 0x1 PUSH1 0x1 PUSH1 0x40 SHL SUB DUP3 GT PUSH2 0x248 JUMPI PUSH1 0x20 ADD SWAP2 CALLDATASIZE DUP3 SWAP1 SUB DUP4 SGT PUSH2 0x248 JUMPI JUMP JUMPDEST SWAP1 DUP3 LT ISZERO PUSH2 0x107C JUMPI PUSH1 0x20 PUSH2 0x1020 SWAP3 MUL DUP2 ADD SWAP1 PUSH2 0x2FB5 JUMP JUMPDEST SWAP2 SWAP1 PUSH2 0x9AA DUP2 PUSH2 0x3017 DUP2 PUSH2 0x5C1 SWAP6 PUSH1 0x20 SWAP2 DUP2 MSTORE ADD SWAP1 JUMP JUMPDEST DUP1 SWAP6 PUSH2 0x5C5 JUMP JUMPDEST SWAP7 SWAP6 SWAP4 SWAP3 PUSH2 0x263 SWAP6 PUSH1 0xA0 SWAP5 PUSH2 0x3058 PUSH2 0x3046 DUP12 PUSH2 0x2702 SWAP8 PUSH2 0x26C8 PUSH2 0x3065 SWAP9 PUSH1 0x0 PUSH1 0xC0 DUP6 ADD SWAP5 ADD MSTORE JUMP JUMPDEST PUSH1 0x1 PUSH1 0x1 PUSH1 0xA0 SHL SUB SWAP1 SWAP5 AND PUSH1 0x40 DUP13 ADD MSTORE JUMP JUMPDEST DUP10 DUP4 SUB PUSH1 0x60 DUP12 ADD MSTORE PUSH2 0x3000 JUMP JUMPDEST DUP7 DUP2 SUB PUSH1 0x80 DUP9 ADD MSTORE PUSH1 0xF DUP2 MSTORE PUSH32 0x426174636820636F6E6669726D65640000000000000000000000000000000000 PUSH1 0x20 DUP3 ADD MSTORE PUSH1 0x40 ADD SWAP1 JUMP JUMPDEST SWAP1 SWAP2 SWAP4 SWAP3 SWAP6 PUSH2 0x30A9 DUP4 SWAP1 JUMP JUMPDEST SWAP7 PUSH2 0x30B7 DUP2 JUMPDEST DUP10 JUMPDEST EQ PUSH2 0x2F45 JUMP JUMPDEST PUSH2 0x30C0 DUP8 PUSH2 0x30AF JUMP JUMPDEST PUSH1 0x0 SWAP2 PUSH2 0x30CD PUSH1 0x0 PUSH2 0x3B7 JUMP JUMPDEST DUP10 JUMPDEST DUP2 LT ISZERO PUSH2 0x321E JUMPI DUP9 PUSH2 0x30F8 PUSH2 0x271 PUSH1 0x8 PUSH2 0x30F2 PUSH2 0x30ED DUP7 DUP13 DUP13 PUSH2 0x2F91 JUMP JUMPDEST PUSH2 0x2FA1 JUMP JUMPDEST SWAP1 PUSH2 0x3C4 JUMP JUMPDEST PUSH2 0x310B PUSH2 0x3106 DUP5 DUP8 DUP14 PUSH2 0x2F91 JUMP JUMPDEST PUSH2 0x2FAB JUMP JUMPDEST PUSH2 0x3126 JUMPI JUMPDEST POP POP PUSH2 0x311F PUSH2 0x30CF SWAP2 PUSH1 0x1 ADD SWAP1 JUMP JUMPDEST SWAP1 POP PUSH2 0x30CD JUMP JUMPDEST DUP6 DUP2 ADD PUSH2 0x3134 PUSH1 0x1 DUP3 PUSH2 0x25BE JUMP JUMPDEST PUSH2 0x3141 TIMESTAMP PUSH1 0x5 DUP5 ADD PUSH2 0x1AE2 JUMP JUMPDEST DUP9 PUSH1 0x2 DUP12 DUP7 DUP12 DUP2 DUP5 DUP9 ADD SWAP5 PUSH2 0x3155 DUP7 PUSH2 0x3E3 JUMP JUMPDEST PUSH2 0x315E SWAP2 PUSH2 0x3C4 JUMP JUMPDEST SWAP6 PUSH2 0x3168 SWAP3 PUSH2 0x2F91 JUMP JUMPDEST PUSH2 0x3171 SWAP1 PUSH2 0x2FA1 JUMP JUMPDEST SWAP3 PUSH2 0x317B SWAP1 PUSH2 0x3E3 JUMP JUMPDEST SWAP5 SLOAD PUSH1 0x1 PUSH1 0x1 PUSH1 0xA0 SHL SUB AND SWAP6 PUSH1 0x3 ADD PUSH2 0x3193 DUP2 PUSH2 0x3E3 JUMP JUMPDEST SWAP5 PUSH1 0x11 ADD SWAP1 PUSH2 0x31A1 SWAP1 PUSH2 0x3E3 JUMP JUMPDEST PUSH2 0x31AA SWAP2 PUSH2 0x2621 JUMP JUMPDEST POP PUSH1 0x7 ADD SWAP7 PUSH2 0x31B8 SWAP3 PUSH2 0x2FE9 JUMP JUMPDEST SWAP3 SWAP1 SWAP2 PUSH2 0x31C4 SWAP1 PUSH2 0x3B7 JUMP JUMPDEST SWAP4 PUSH2 0x31CE SWAP1 PUSH2 0x3B7 JUMP JUMPDEST SWAP5 PUSH2 0x31D8 SWAP1 PUSH2 0x4F8 JUMP JUMPDEST SWAP6 PUSH2 0x31E2 PUSH1 0x40 MLOAD SWAP1 JUMP JUMPDEST SWAP4 DUP5 SWAP4 TIMESTAMP SWAP3 CALLER SWAP1 PUSH2 0x31F3 SWAP6 DUP8 PUSH2 0x301E JUMP JUMPDEST SUB PUSH32 0xCEF6D1B833317D0BB1325916E3E8991FF3AF40C4DA83E3CEDBC19B4A64D1BDF5 SWAP2 LOG4 DUP9 CODESIZE PUSH2 0x3110 JUMP JUMPDEST POP SWAP8 POP POP POP POP POP POP POP POP JUMP JUMPDEST SWAP1 PUSH2 0x263 SWAP6 SWAP5 SWAP4 SWAP3 SWAP2 PUSH2 0x2F0D JUMP JUMPDEST SWAP1 PUSH2 0x271 SWAP6 SWAP5 SWAP4 SWAP3 SWAP2 PUSH2 0x3252 PUSH2 0x2026 PUSH2 0x1F25 CALLER PUSH1 0xD PUSH2 0x501 JUMP JUMPDEST SWAP1 PUSH2 0x1A2F SWAP6 SWAP5 SWAP4 SWAP3 SWAP2 PUSH2 0x3263 PUSH2 0x4270 JUMP JUMPDEST SWAP1 PUSH2 0x271 SWAP6 SWAP5 SWAP4 SWAP3 SWAP2 PUSH2 0x327C PUSH2 0x1A9E PUSH2 0x1A9A PUSH1 0xC PUSH2 0x7F8 JUMP JUMPDEST PUSH2 0x32DF JUMP JUMPDEST SWAP1 PUSH2 0x328E PUSH2 0x5E1 DUP4 PUSH2 0x1354 JUMP JUMPDEST SWAP2 DUP3 MSTORE JUMP JUMPDEST CALLDATASIZE SWAP1 CALLDATACOPY JUMP JUMPDEST SWAP1 PUSH2 0x263 PUSH2 0x32AE PUSH2 0x32A8 DUP5 PUSH2 0x3281 JUMP JUMPDEST SWAP4 PUSH2 0x1354 JUMP JUMPDEST PUSH1 0x1F NOT ADD PUSH1 0x20 DUP5 ADD PUSH2 0x3293 JUMP JUMPDEST CALLDATALOAD PUSH2 0x271 DUP2 PUSH2 0x274 JUMP JUMPDEST SWAP1 PUSH2 0x32CE DUP3 MLOAD SWAP1 JUMP JUMPDEST DUP2 LT ISZERO PUSH2 0x107C JUMPI PUSH1 0x20 DUP1 SWAP2 MUL ADD ADD SWAP1 JUMP JUMPDEST POP PUSH1 0xC0 MSTORE PUSH1 0xE0 SWAP3 SWAP1 SWAP3 MSTORE DUP1 SWAP4 PUSH2 0x32F5 DUP5 DUP7 PUSH2 0x30B1 JUMP JUMPDEST PUSH2 0x3305 PUSH2 0x271 PUSH1 0xC0 MLOAD PUSH1 0x2 PUSH2 0x3C4 JUMP JUMPDEST SWAP1 PUSH2 0x3315 PUSH2 0x235D PUSH1 0xE DUP5 ADD PUSH2 0x7F8 JUMP JUMPDEST PUSH2 0x331E DUP7 PUSH2 0x3298 JUMP JUMPDEST SWAP6 PUSH2 0x3329 PUSH1 0x0 PUSH2 0x3B7 JUMP JUMPDEST PUSH1 0x80 MSTORE JUMPDEST DUP1 JUMPDEST PUSH1 0x80 MLOAD LT ISZERO PUSH2 0x3523 JUMPI PUSH2 0x332F SWAP1 PUSH2 0x3361 DUP6 PUSH2 0x344B PUSH1 0x0 DUP11 PUSH2 0x3443 DUP12 PUSH2 0x3440 DUP16 PUSH2 0x336E PUSH2 0x3366 PUSH2 0x3361 PUSH1 0x80 MLOAD DUP12 DUP8 PUSH2 0x2F91 JUMP JUMPDEST PUSH2 0x32BB JUMP JUMPDEST PUSH1 0xC0 MLOAD PUSH2 0x4653 JUMP JUMPDEST PUSH1 0xA0 MSTORE PUSH2 0x340C PUSH2 0x33C7 PUSH2 0x30ED PUSH2 0x33BA PUSH2 0x3387 PUSH1 0x9 PUSH2 0x3E3 JUMP JUMPDEST SWAP13 DUP14 SWAP8 PUSH2 0x339D PUSH2 0x3396 DUP11 PUSH2 0x1ABE JUMP JUMPDEST PUSH1 0x9 PUSH2 0x1AE2 JUMP JUMPDEST PUSH2 0x33B0 PUSH1 0x2 PUSH2 0x847 PUSH1 0x4 PUSH1 0xA0 MLOAD SWAP1 PUSH2 0x3C4 JUMP JUMPDEST SWAP14 PUSH1 0x80 MLOAD SWAP2 PUSH2 0x2F91 JUMP JUMPDEST SWAP8 PUSH1 0x80 MLOAD SWAP1 PUSH1 0xE0 MLOAD PUSH2 0x2F91 JUMP JUMPDEST PUSH2 0x33F8 PUSH1 0x1 SWAP11 PUSH2 0x33E9 PUSH2 0x33D8 PUSH2 0x292B JUMP JUMPDEST PUSH1 0x1 PUSH1 0x1 PUSH1 0xA0 SHL SUB SWAP1 SWAP11 AND DUP12 DUP12 ADD MSTORE JUMP JUMPDEST DUP12 ISZERO ISZERO PUSH1 0x20 DUP11 ADD MSTORE PUSH1 0x40 DUP10 ADD MSTORE JUMP JUMPDEST PUSH2 0x3405 PUSH1 0xC0 MLOAD PUSH1 0x60 DUP10 ADD MSTORE JUMP JUMPDEST PUSH1 0x80 DUP8 ADD MSTORE JUMP JUMPDEST PUSH2 0x3417 TIMESTAMP PUSH1 0xA0 DUP8 ADD MSTORE JUMP JUMPDEST PUSH2 0x3422 TIMESTAMP PUSH1 0xC0 DUP8 ADD MSTORE JUMP JUMPDEST PUSH2 0x3437 PUSH1 0x8 SWAP6 PUSH2 0x3432 DUP6 DUP9 PUSH2 0x3C4 JUMP JUMPDEST PUSH2 0x29CA JUMP JUMPDEST PUSH1 0x80 MLOAD SWAP1 PUSH2 0x32C5 JUMP JUMPDEST MSTORE JUMP JUMPDEST DUP9 ADD ADD PUSH2 0x7F8 JUMP JUMPDEST PUSH2 0x34E2 JUMPI JUMPDEST POP PUSH2 0x3464 PUSH1 0x10 DUP7 ADD PUSH2 0x1CFB PUSH2 0x2BDA DUP3 PUSH2 0x3E3 JUMP JUMPDEST PUSH2 0x3474 PUSH2 0x3361 PUSH1 0x80 MLOAD DUP9 DUP11 PUSH2 0x2F91 JUMP JUMPDEST PUSH32 0xBC9C356EC1019C975634201349BADD0EE43E7206FA3154F3EE03E47B7D866DB PUSH2 0x34A7 PUSH2 0x30ED PUSH1 0x80 MLOAD DUP13 PUSH1 0xE0 MLOAD PUSH2 0x2F91 JUMP JUMPDEST SWAP3 PUSH2 0x34B6 PUSH2 0x1D06 PUSH1 0xC0 MLOAD PUSH2 0x3B7 JUMP JUMPDEST SWAP4 PUSH2 0x34CF PUSH2 0x34C3 PUSH1 0x40 MLOAD SWAP1 JUMP JUMPDEST SWAP3 DUP4 SWAP3 PUSH1 0xA0 MLOAD DUP5 PUSH2 0xC8D JUMP JUMPDEST SUB SWAP1 LOG3 PUSH1 0x80 MLOAD PUSH1 0x1 ADD PUSH1 0x80 MSTORE SWAP1 POP PUSH2 0x332D JUMP JUMPDEST PUSH2 0x351D SWAP1 PUSH2 0x350C PUSH1 0x2 PUSH2 0x2BC0 DUP13 PUSH2 0x3506 PUSH2 0x30ED PUSH1 0x11 DUP14 ADD SWAP3 PUSH1 0x80 MLOAD SWAP1 PUSH1 0xE0 MLOAD PUSH2 0x2F91 JUMP JUMPDEST SWAP1 PUSH2 0x2621 JUMP JUMPDEST PUSH1 0xE DUP8 ADD ADD PUSH2 0x1CFB PUSH2 0x2BDA DUP3 PUSH2 0x3E3 JUMP JUMPDEST CODESIZE PUSH2 0x3450 JUMP JUMPDEST POP SWAP5 SWAP4 POP SWAP2 POP PUSH2 0x3537 SWAP1 POP PUSH1 0x10 DUP3 ADD PUSH2 0x3E3 JUMP JUMPDEST PUSH2 0x3544 PUSH2 0x214E PUSH1 0x0 PUSH2 0x3B7 JUMP JUMPDEST EQ PUSH2 0x354D JUMPI POP SWAP1 JUMP JUMPDEST PUSH2 0x271 SWAP1 PUSH1 0x1 SWAP1 PUSH1 0xE ADD PUSH2 0x22DD JUMP JUMPDEST PUSH2 0x271 SWAP5 SWAP4 SWAP3 SWAP2 SWAP1 PUSH1 0x60 PUSH2 0x3238 JUMP JUMPDEST SWAP1 PUSH2 0x263 SWAP2 PUSH2 0x3580 PUSH2 0x1A9E PUSH2 0x1A9A PUSH1 0xC PUSH2 0x7F8 JUMP JUMPDEST PUSH2 0x35D1 JUMP JUMPDEST ISZERO PUSH2 0x358C JUMPI JUMP JUMPDEST PUSH1 0x40 MLOAD PUSH3 0x461BCD PUSH1 0xE5 SHL DUP2 MSTORE PUSH1 0x20 PUSH1 0x4 DUP3 ADD MSTORE PUSH1 0x10 PUSH1 0x24 DUP3 ADD MSTORE PUSH32 0x4E4F545F50415254494349504154454400000000000000000000000000000000 PUSH1 0x44 DUP3 ADD MSTORE PUSH1 0x64 SWAP1 REVERT JUMPDEST PUSH2 0x361B SWAP1 PUSH2 0x3603 PUSH2 0x35F0 PUSH2 0x1DF3 PUSH2 0x35E9 DUP5 PUSH1 0x7 PUSH2 0x3C4 JUMP JUMPDEST CALLER SWAP1 PUSH2 0x501 JUMP JUMPDEST PUSH2 0x35FD PUSH2 0x214E PUSH1 0x0 PUSH2 0x3B7 JUMP JUMPDEST GT PUSH2 0x3585 JUMP JUMPDEST PUSH2 0x1D01 PUSH2 0x360E DUP5 MLOAD SWAP1 JUMP JUMPDEST PUSH2 0x2383 PUSH2 0x214E PUSH1 0x0 PUSH2 0x3B7 JUMP JUMPDEST PUSH32 0x76C33F5E956B8ABCDB078DBCE97BC0918B4D6166DE75B38F6260813E17AD9F03 PUSH2 0x21BD PUSH2 0x3648 CALLER PUSH2 0x4F8 JUMP JUMPDEST SWAP4 PUSH2 0x2E51 PUSH1 0x40 MLOAD SWAP1 JUMP JUMPDEST SWAP1 PUSH2 0x263 SWAP2 PUSH2 0x356B JUMP JUMPDEST PUSH2 0x3675 PUSH2 0x271 PUSH1 0xE SWAP3 PUSH2 0x366D PUSH1 0x0 SWAP1 JUMP JUMPDEST POP PUSH1 0x2 PUSH2 0x3C4 JUMP JUMPDEST PUSH2 0x3691 PUSH2 0x3684 PUSH1 0x4 DUP4 ADD PUSH2 0x3E3 JUMP JUMPDEST PUSH2 0x2152 PUSH2 0x214E PUSH1 0x0 PUSH2 0x3B7 JUMP JUMPDEST ADD SWAP1 DUP2 SWAP1 PUSH2 0x36B3 PUSH1 0x2 PUSH2 0x36AC PUSH2 0x36A6 DUP6 PUSH2 0x7F8 JUMP JUMPDEST SWAP5 PUSH2 0x8CA JUMP JUMPDEST SWAP5 ADD PUSH2 0x3E3 JUMP JUMPDEST SWAP2 SWAP3 SWAP2 SWAP1 JUMP JUMPDEST SWAP1 PUSH2 0x1A2F SWAP3 SWAP2 PUSH2 0x36C7 PUSH2 0x4270 JUMP JUMPDEST SWAP1 PUSH2 0x271 SWAP3 SWAP2 PUSH2 0x36DD PUSH2 0x1A9E PUSH2 0x1A9A PUSH1 0xC PUSH2 0x7F8 JUMP JUMPDEST PUSH2 0x3755 JUMP JUMPDEST ISZERO PUSH2 0x36E9 JUMPI JUMP JUMPDEST PUSH1 0x40 MLOAD PUSH3 0x461BCD PUSH1 0xE5 SHL DUP2 MSTORE PUSH1 0x20 PUSH1 0x4 DUP3 ADD MSTORE PUSH1 0x9 PUSH1 0x24 DUP3 ADD MSTORE PUSH9 0x544F4F5F4541524C59 PUSH1 0xB8 SHL PUSH1 0x44 DUP3 ADD MSTORE PUSH1 0x64 SWAP1 REVERT JUMPDEST ISZERO PUSH2 0x3721 JUMPI JUMP JUMPDEST PUSH1 0x40 MLOAD PUSH3 0x461BCD PUSH1 0xE5 SHL DUP2 MSTORE PUSH1 0x20 PUSH1 0x4 DUP3 ADD MSTORE PUSH1 0xC PUSH1 0x24 DUP3 ADD MSTORE PUSH12 0x14905191931157D153911151 PUSH1 0xA2 SHL PUSH1 0x44 DUP3 ADD MSTORE PUSH1 0x64 SWAP1 REVERT JUMPDEST POP PUSH2 0x271 SWAP2 PUSH2 0x3766 DUP4 DUP4 PUSH1 0x2 PUSH2 0x3C4 JUMP JUMPDEST PUSH2 0x37B4 PUSH2 0x37A1 PUSH1 0x2 PUSH1 0xE DUP5 ADD PUSH2 0x3781 PUSH2 0x2367 PUSH2 0x1A9A DUP4 PUSH2 0x8CA JUMP JUMPDEST PUSH2 0x847 PUSH1 0x4 DUP7 ADD PUSH2 0x3793 DUP5 DUP3 ADD PUSH2 0x7F8 JUMP JUMPDEST SWAP1 DUP2 ISZERO PUSH2 0x37C4 JUMPI JUMPDEST POP PUSH2 0x36E2 JUMP JUMPDEST PUSH2 0x37AE PUSH2 0x214E PUSH1 0x0 PUSH2 0x3B7 JUMP JUMPDEST GT PUSH2 0x371A JUMP JUMPDEST PUSH2 0x37BE PUSH1 0x0 PUSH2 0x3B7 JUMP JUMPDEST SWAP2 PUSH2 0x478D JUMP JUMPDEST PUSH2 0x37D5 SWAP2 POP PUSH1 0x3 PUSH2 0x271 SWAP2 ADD PUSH2 0x3E3 JUMP JUMPDEST TIMESTAMP LT ISZERO CODESIZE PUSH2 0x379B JUMP JUMPDEST PUSH2 0x271 SWAP2 SWAP1 PUSH1 0x0 PUSH2 0x36B9 JUMP JUMPDEST SWAP1 PUSH2 0x271 SWAP2 PUSH2 0x3800 PUSH2 0x2026 PUSH2 0x1F25 CALLER PUSH1 0xD PUSH2 0x501 JUMP JUMPDEST SWAP1 PUSH2 0x271 SWAP2 PUSH2 0x3815 PUSH2 0x1A9E PUSH2 0x1A9A PUSH1 0xC PUSH2 0x7F8 JUMP JUMPDEST PUSH2 0x3BA5 JUMP JUMPDEST ISZERO PUSH2 0x3821 JUMPI JUMP JUMPDEST PUSH1 0x40 MLOAD PUSH3 0x461BCD PUSH1 0xE5 SHL DUP2 MSTORE PUSH1 0x20 PUSH1 0x4 DUP3 ADD MSTORE PUSH1 0xE PUSH1 0x24 DUP3 ADD MSTORE PUSH32 0x5449544C455F5245515549524544000000000000000000000000000000000000 PUSH1 0x44 DUP3 ADD MSTORE PUSH1 0x64 SWAP1 REVERT JUMPDEST ISZERO PUSH2 0x386D JUMPI JUMP JUMPDEST PUSH1 0x40 MLOAD PUSH3 0x461BCD PUSH1 0xE5 SHL DUP2 MSTORE PUSH1 0x20 PUSH1 0x4 DUP3 ADD MSTORE PUSH1 0xC PUSH1 0x24 DUP3 ADD MSTORE PUSH12 0x494E56414C49445F44415445 PUSH1 0xA0 SHL PUSH1 0x44 DUP3 ADD MSTORE PUSH1 0x64 SWAP1 REVERT JUMPDEST ISZERO PUSH2 0x38A8 JUMPI JUMP JUMPDEST PUSH1 0x40 MLOAD PUSH3 0x461BCD PUSH1 0xE5 SHL DUP2 MSTORE PUSH1 0x20 PUSH1 0x4 DUP3 ADD MSTORE PUSH1 0x10 PUSH1 0x24 DUP3 ADD MSTORE PUSH32 0x524146464C455F544F4F5F53484F525400000000000000000000000000000000 PUSH1 0x44 DUP3 ADD MSTORE PUSH1 0x64 SWAP1 REVERT JUMPDEST ISZERO PUSH2 0x38F4 JUMPI JUMP JUMPDEST PUSH1 0x40 MLOAD PUSH3 0x461BCD PUSH1 0xE5 SHL DUP2 MSTORE PUSH1 0x20 PUSH1 0x4 DUP3 ADD MSTORE PUSH1 0xE PUSH1 0x24 DUP3 ADD MSTORE PUSH32 0x445241575F544F4F5F4541524C59000000000000000000000000000000000000 PUSH1 0x44 DUP3 ADD MSTORE PUSH1 0x64 SWAP1 REVERT JUMPDEST PUSH2 0x263 SWAP2 PUSH1 0x0 SWAP2 PUSH2 0x1BC7 JUMP JUMPDEST DUP2 DUP2 LT PUSH2 0x3950 JUMPI POP POP JUMP JUMPDEST DUP1 PUSH2 0x395E PUSH1 0x0 PUSH1 0x1 SWAP4 PUSH2 0x3939 JUMP JUMPDEST ADD PUSH2 0x3945 JUMP JUMPDEST SWAP2 SWAP1 PUSH1 0x1F DUP2 GT PUSH2 0x3973 JUMPI POP POP POP JUMP JUMPDEST PUSH2 0x3985 PUSH2 0x263 SWAP4 PUSH1 0x0 MSTORE PUSH1 0x20 PUSH1 0x0 KECCAK256 SWAP1 JUMP JUMPDEST SWAP1 PUSH1 0x20 PUSH1 0x1F DUP5 ADD DUP2 SWAP1 DIV DUP4 ADD SWAP4 LT PUSH2 0x39A7 JUMPI JUMPDEST PUSH1 0x20 PUSH1 0x1F SWAP1 SWAP2 ADD DIV ADD SWAP1 PUSH2 0x3945 JUMP JUMPDEST SWAP1 SWAP2 POP DUP2 SWAP1 PUSH2 0x3998 JUMP JUMPDEST SWAP1 PUSH2 0x39BA DUP2 MLOAD SWAP1 JUMP JUMPDEST SWAP1 PUSH1 0x1 PUSH1 0x1 PUSH1 0x40 SHL SUB DUP3 GT PUSH2 0x58C JUMPI PUSH2 0x39DD DUP3 PUSH2 0x39D7 DUP6 SLOAD PUSH2 0x6B1 JUMP JUMPDEST DUP6 PUSH2 0x3964 JUMP JUMPDEST PUSH1 0x20 SWAP1 PUSH1 0x1F DUP4 GT PUSH1 0x1 EQ PUSH2 0x3A18 JUMPI PUSH2 0x1AF9 SWAP3 SWAP2 PUSH1 0x0 SWAP2 DUP4 PUSH2 0x3A0D JUMPI JUMPDEST POP POP PUSH1 0x0 NOT PUSH1 0x8 DUP4 MUL SHR NOT AND SWAP1 PUSH1 0x2 MUL OR SWAP1 JUMP JUMPDEST ADD MLOAD SWAP1 POP CODESIZE DUP1 PUSH2 0x39F9 JUMP JUMPDEST PUSH1 0x1F NOT DUP4 AND SWAP2 PUSH2 0x3A2D DUP6 PUSH1 0x0 MSTORE PUSH1 0x20 PUSH1 0x0 KECCAK256 SWAP1 JUMP JUMPDEST SWAP3 PUSH1 0x0 JUMPDEST DUP2 DUP2 LT PUSH2 0x3A6B JUMPI POP SWAP2 PUSH1 0x2 SWAP4 SWAP2 DUP6 PUSH1 0x1 SWAP7 SWAP5 LT PUSH2 0x3A52 JUMPI JUMPDEST POP POP POP MUL ADD SWAP1 SSTORE JUMP JUMPDEST ADD MLOAD PUSH1 0x0 NOT PUSH1 0x8 PUSH1 0x1F DUP6 AND MUL SHR NOT AND SWAP1 SSTORE CODESIZE DUP1 DUP1 PUSH2 0x3A49 JUMP JUMPDEST SWAP2 SWAP4 PUSH1 0x20 PUSH1 0x1 DUP2 SWAP3 DUP8 DUP8 ADD MLOAD DUP2 SSTORE ADD SWAP6 ADD SWAP3 ADD PUSH2 0x3A31 JUMP JUMPDEST SWAP1 PUSH2 0x263 SWAP2 PUSH2 0x39B1 JUMP JUMPDEST PUSH1 0x3 PUSH2 0x3ADA PUSH1 0x60 PUSH2 0x263 SWAP5 PUSH2 0x3AAC PUSH2 0x3AA6 PUSH1 0x0 DUP4 ADD MLOAD SWAP1 JUMP JUMPDEST DUP7 PUSH2 0x3A83 JUMP JUMPDEST PUSH2 0x3AC3 PUSH2 0x3ABA PUSH1 0x20 DUP4 ADD MLOAD SWAP1 JUMP JUMPDEST PUSH1 0x1 DUP8 ADD PUSH2 0x3A83 JUMP JUMPDEST PUSH2 0x1B9D PUSH2 0x3AD1 PUSH1 0x40 DUP4 ADD MLOAD SWAP1 JUMP JUMPDEST PUSH1 0x2 DUP8 ADD PUSH2 0x3A83 JUMP JUMPDEST SWAP2 ADD PUSH2 0x3A83 JUMP JUMPDEST SWAP1 PUSH2 0x263 SWAP2 PUSH2 0x3A8D JUMP JUMPDEST PUSH1 0x3 PUSH2 0x1BA2 PUSH1 0x60 PUSH2 0x263 SWAP5 PUSH2 0x3B0A PUSH2 0x3B04 PUSH1 0x0 DUP4 ADD MLOAD SWAP1 JUMP JUMPDEST DUP7 PUSH2 0x1AE2 JUMP JUMPDEST PUSH2 0x3B18 PUSH2 0x1B7D PUSH1 0x20 DUP4 ADD MLOAD SWAP1 JUMP JUMPDEST PUSH2 0x1B9D PUSH2 0x3B28 PUSH1 0x40 DUP4 ADD MLOAD ISZERO ISZERO SWAP1 JUMP JUMPDEST PUSH1 0x2 DUP8 ADD PUSH2 0x1D4E JUMP JUMPDEST SWAP1 PUSH2 0x263 SWAP2 PUSH2 0x3AEB JUMP JUMPDEST PUSH1 0x2 PUSH2 0x1BA2 PUSH1 0x40 PUSH2 0x263 SWAP5 PUSH2 0x3B5C PUSH2 0x3B56 PUSH1 0x0 DUP4 ADD MLOAD ISZERO ISZERO SWAP1 JUMP JUMPDEST DUP7 PUSH2 0x1D4E JUMP JUMPDEST PUSH2 0x1B9D PUSH2 0x1B7D PUSH1 0x20 DUP4 ADD MLOAD SWAP1 JUMP JUMPDEST SWAP1 PUSH2 0x263 SWAP2 PUSH2 0x3B3B JUMP JUMPDEST PUSH1 0x2 PUSH2 0x1BA2 PUSH1 0x40 PUSH2 0x263 SWAP5 PUSH2 0x3B8D PUSH2 0x3AA6 PUSH1 0x0 DUP4 ADD MLOAD SWAP1 JUMP JUMPDEST PUSH2 0x1B9D PUSH2 0x3ABA PUSH1 0x20 DUP4 ADD MLOAD SWAP1 JUMP JUMPDEST SWAP1 PUSH2 0x263 SWAP2 PUSH2 0x3B74 JUMP JUMPDEST POP DUP1 MLOAD MLOAD MLOAD PUSH2 0x271 SWAP2 PUSH2 0x3BC6 PUSH1 0x0 SWAP3 PUSH2 0x3BC0 PUSH2 0x214E DUP6 PUSH2 0x3B7 JUMP JUMPDEST GT PUSH2 0x381A JUMP JUMPDEST PUSH1 0x80 PUSH1 0x20 DUP3 ADD SWAP2 PUSH2 0x3BF3 PUSH2 0x3BDC PUSH1 0x20 DUP6 MLOAD ADD MLOAD SWAP1 JUMP JUMPDEST PUSH2 0x3BED PUSH2 0x214E PUSH2 0x271 DUP9 DUP9 MLOAD ADD MLOAD SWAP1 JUMP JUMPDEST GT PUSH2 0x3866 JUMP JUMPDEST PUSH2 0x3C24 PUSH2 0x3C0F PUSH2 0x3C05 PUSH1 0x20 DUP7 MLOAD ADD MLOAD SWAP1 JUMP JUMPDEST DUP6 MLOAD DUP8 ADD MLOAD SWAP1 SUB SWAP1 JUMP JUMPDEST PUSH2 0x3C1D PUSH2 0x214E PUSH2 0x271 PUSH2 0xCD5 JUMP JUMPDEST LT ISZERO PUSH2 0x38A1 JUMP JUMPDEST PUSH2 0x3C57 PUSH2 0x3C33 PUSH1 0x60 DUP6 MLOAD ADD MLOAD SWAP1 JUMP JUMPDEST PUSH2 0x3C50 PUSH2 0x214E PUSH2 0x271 PUSH2 0x3C48 PUSH1 0x20 DUP10 MLOAD ADD MLOAD SWAP1 JUMP JUMPDEST PUSH2 0x5C1 PUSH2 0xB50 JUMP JUMPDEST LT ISZERO PUSH2 0x38ED JUMP JUMPDEST PUSH2 0x3CF5 PUSH2 0x3C64 PUSH1 0x3 PUSH2 0x3E3 JUMP JUMPDEST SWAP5 PUSH2 0x3C78 PUSH2 0x3C71 DUP8 PUSH2 0x1ABE JUMP JUMPDEST PUSH1 0x3 PUSH2 0x1AE2 JUMP JUMPDEST PUSH2 0x3CA3 PUSH2 0x3C89 PUSH2 0x271 DUP9 PUSH1 0x2 PUSH2 0x3C4 JUMP JUMPDEST SWAP6 PUSH2 0x3C99 DUP4 DUP7 ADD MLOAD DUP5 DUP10 ADD PUSH2 0x3AE1 JUMP JUMPDEST MLOAD PUSH1 0x4 DUP8 ADD PUSH2 0x3B31 JUMP JUMPDEST PUSH2 0x3CB4 PUSH1 0x40 DUP5 ADD MLOAD PUSH1 0x8 DUP8 ADD PUSH2 0x3B6A JUMP JUMPDEST PUSH2 0x3CC5 PUSH1 0x60 DUP5 ADD MLOAD PUSH1 0xB DUP8 ADD PUSH2 0x3B9B JUMP JUMPDEST PUSH1 0x2 PUSH2 0x3CE1 PUSH1 0xE DUP8 ADD SWAP3 PUSH2 0x1D01 DUP2 DUP1 DUP7 ADD PUSH2 0x2395 PUSH1 0x1 DUP3 PUSH2 0x1D4E JUMP JUMPDEST SWAP2 PUSH2 0x3CEF DUP4 PUSH1 0x1 DUP4 ADD PUSH2 0x1AE2 JUMP JUMPDEST ADD PUSH2 0x1AE2 JUMP JUMPDEST ADD MLOAD SWAP2 PUSH2 0x4C24 JUMP JUMPDEST PUSH2 0x271 SWAP1 PUSH1 0x0 PUSH2 0x37EA JUMP JUMPDEST SWAP1 PUSH2 0x271 SWAP4 SWAP3 SWAP2 PUSH2 0x3D20 PUSH2 0x2026 PUSH2 0x1F25 CALLER PUSH1 0xD PUSH2 0x501 JUMP JUMPDEST SWAP1 PUSH2 0x1A2F SWAP4 SWAP3 SWAP2 PUSH2 0x3D2F PUSH2 0x4270 JUMP JUMPDEST SWAP1 PUSH2 0x271 SWAP4 SWAP3 SWAP2 PUSH2 0x3D46 PUSH2 0x1A9E PUSH2 0x1A9A PUSH1 0xC PUSH2 0x7F8 JUMP JUMPDEST PUSH2 0x3DBA JUMP JUMPDEST ISZERO PUSH2 0x3D52 JUMPI JUMP JUMPDEST PUSH1 0x40 MLOAD PUSH3 0x461BCD PUSH1 0xE5 SHL DUP2 MSTORE PUSH1 0x20 PUSH1 0x4 DUP3 ADD MSTORE PUSH1 0x19 PUSH1 0x24 DUP3 ADD MSTORE PUSH32 0x53544152545F494E4445585F4F55545F4F465F424F554E445300000000000000 PUSH1 0x44 DUP3 ADD MSTORE PUSH1 0x64 SWAP1 REVERT JUMPDEST SWAP2 SWAP1 PUSH2 0x3DA2 JUMP JUMPDEST SWAP3 SWAP1 JUMP JUMPDEST DUP3 ADD DUP1 SWAP3 GT PUSH2 0x1ACD JUMPI JUMP JUMPDEST SWAP2 SWAP1 DUP3 SUB SWAP2 DUP3 GT PUSH2 0x1ACD JUMPI JUMP JUMPDEST POP SWAP2 SWAP3 SWAP2 SWAP1 PUSH2 0x3DCD PUSH2 0x271 DUP4 PUSH1 0x2 PUSH2 0x3C4 JUMP JUMPDEST PUSH2 0x3DDF PUSH2 0x2367 PUSH2 0x1A9A PUSH1 0xE DUP5 ADD PUSH2 0x8CA JUMP JUMPDEST PUSH2 0x3DF9 PUSH2 0x3DF1 PUSH2 0x271 PUSH1 0x7 DUP5 ADD PUSH2 0x3E3 JUMP JUMPDEST TIMESTAMP LT ISZERO PUSH2 0x36E2 JUMP JUMPDEST PUSH2 0x3E38 DUP3 PUSH2 0x3E0B PUSH2 0x2F08 DUP7 PUSH1 0x6 PUSH2 0x3C4 JUMP JUMPDEST SWAP7 PUSH2 0x3E29 PUSH2 0x3E17 DUP10 MLOAD SWAP1 JUMP JUMPDEST SWAP2 PUSH2 0x3E23 DUP4 DUP6 LT PUSH2 0x3D4B JUMP JUMPDEST DUP4 PUSH2 0x3D97 JUMP JUMPDEST SWAP1 DUP1 DUP3 GT PUSH2 0x3EAA JUMPI JUMPDEST POP PUSH2 0x3DAD JUMP JUMPDEST SWAP5 PUSH2 0x3E42 DUP7 PUSH2 0x3298 JUMP JUMPDEST SWAP5 PUSH2 0x3E4D PUSH1 0x0 PUSH2 0x3B7 JUMP JUMPDEST DUP8 JUMPDEST DUP2 LT ISZERO PUSH2 0x3EA0 JUMPI PUSH2 0x3E99 DUP2 PUSH2 0x3E93 PUSH2 0x3E89 DUP10 PUSH2 0x3E7E PUSH2 0x3E7A PUSH2 0x3E74 PUSH2 0x3E4F SWAP9 DUP14 PUSH2 0x3D97 JUMP JUMPDEST DUP11 PUSH2 0x32C5 JUMP JUMPDEST MLOAD SWAP1 JUMP JUMPDEST DUP10 PUSH2 0x37BE DUP7 DUP14 PUSH2 0x3D97 JUMP JUMPDEST PUSH2 0x3440 DUP4 DUP13 PUSH2 0x32C5 JUMP JUMPDEST PUSH1 0x1 ADD SWAP1 JUMP JUMPDEST SWAP1 POP PUSH2 0x3E4D JUMP JUMPDEST POP SWAP6 POP POP POP POP POP SWAP1 JUMP JUMPDEST SWAP1 POP CODESIZE PUSH2 0x3E32 JUMP JUMPDEST PUSH2 0x271 SWAP3 SWAP2 SWAP1 PUSH1 0x60 PUSH2 0x3D08 JUMP JUMPDEST PUSH2 0x271 PUSH1 0xC0 PUSH2 0x591 JUMP JUMPDEST PUSH2 0x3ED1 PUSH2 0x78A JUMP JUMPDEST SWAP1 PUSH1 0x60 DUP3 MSTORE PUSH1 0x20 DUP1 DUP1 DUP1 DUP6 ADD PUSH1 0x60 DUP2 MSTORE ADD PUSH1 0x60 JUMPDEST DUP2 MSTORE ADD PUSH1 0x60 SWAP1 MSTORE POP JUMP JUMPDEST PUSH2 0x271 PUSH2 0x3EC9 JUMP JUMPDEST PUSH2 0x3EFF PUSH2 0x78A JUMP JUMPDEST SWAP1 PUSH1 0x0 DUP3 MSTORE PUSH1 0x20 DUP1 DUP1 DUP1 DUP6 ADD PUSH1 0x0 PUSH2 0x2C1E JUMP JUMPDEST PUSH2 0x271 PUSH2 0x3EF7 JUMP JUMPDEST PUSH2 0x3F22 PUSH2 0x84D JUMP JUMPDEST SWAP1 PUSH1 0x0 DUP3 MSTORE PUSH1 0x20 DUP1 DUP1 DUP5 ADD PUSH1 0x0 PUSH2 0x2C24 JUMP JUMPDEST PUSH2 0x271 PUSH2 0x3F1A JUMP JUMPDEST PUSH2 0x3F44 PUSH2 0x84D JUMP JUMPDEST SWAP1 PUSH1 0x60 DUP3 MSTORE PUSH1 0x20 DUP1 DUP1 DUP5 ADD PUSH1 0x60 PUSH2 0x2C24 JUMP JUMPDEST PUSH2 0x271 PUSH2 0x3F3C JUMP JUMPDEST PUSH2 0x3F66 PUSH2 0x3EBF JUMP JUMPDEST SWAP1 PUSH2 0x3F6F PUSH2 0x3EEF JUMP JUMPDEST DUP3 MSTORE PUSH1 0x20 DUP1 DUP1 DUP1 DUP1 DUP1 DUP8 ADD PUSH2 0x3F82 PUSH2 0x3F12 JUMP JUMPDEST DUP2 MSTORE ADD PUSH2 0x3F8D PUSH2 0x3F34 JUMP JUMPDEST DUP2 MSTORE ADD PUSH2 0x3F98 PUSH2 0x3F56 JUMP JUMPDEST DUP2 MSTORE ADD PUSH2 0x3EE5 PUSH2 0x3F12 JUMP JUMPDEST PUSH2 0x271 PUSH2 0x3F5E JUMP JUMPDEST SWAP1 PUSH2 0x2B3 SWAP1 PUSH2 0x173C JUMP JUMPDEST PUSH2 0x271 SWAP1 PUSH1 0x8 SHR PUSH2 0x265 JUMP JUMPDEST PUSH2 0x271 SWAP1 SLOAD PUSH2 0x3FB5 JUMP JUMPDEST PUSH2 0x271 PUSH2 0x1C0 PUSH2 0x591 JUMP JUMPDEST SWAP1 PUSH2 0x263 PUSH2 0x40F7 PUSH1 0xC PUSH2 0x3FE7 PUSH2 0x3FCB JUMP JUMPDEST SWAP5 PUSH2 0x3FFA PUSH2 0x3FF4 DUP3 PUSH2 0x7F8 JUMP JUMPDEST DUP8 PUSH2 0x3FAB JUMP JUMPDEST PUSH2 0x4016 PUSH2 0x4006 DUP3 PUSH2 0x3FC1 JUMP JUMPDEST PUSH1 0x1 PUSH1 0x1 PUSH1 0xA0 SHL SUB AND PUSH1 0x20 DUP9 ADD MSTORE JUMP JUMPDEST PUSH2 0x4025 PUSH2 0x7DB PUSH1 0x1 DUP4 ADD PUSH2 0x3E3 JUMP JUMPDEST PUSH2 0x4034 PUSH2 0x2C86 PUSH1 0x2 DUP4 ADD PUSH2 0x3E3 JUMP JUMPDEST PUSH2 0x4043 PUSH2 0x2C9C PUSH1 0x3 DUP4 ADD PUSH2 0x3E3 JUMP JUMPDEST PUSH2 0x4052 PUSH2 0x2CB2 PUSH1 0x4 DUP4 ADD PUSH2 0x3E3 JUMP JUMPDEST PUSH2 0x4068 PUSH2 0x4061 PUSH1 0x5 DUP4 ADD PUSH2 0x3E3 JUMP JUMPDEST PUSH1 0xC0 DUP9 ADD MSTORE JUMP JUMPDEST PUSH2 0x407E PUSH2 0x4077 PUSH1 0x6 DUP4 ADD PUSH2 0x3E3 JUMP JUMPDEST PUSH1 0xE0 DUP9 ADD MSTORE JUMP JUMPDEST PUSH2 0x4095 PUSH2 0x408D PUSH1 0x7 DUP4 ADD PUSH2 0x769 JUMP JUMPDEST PUSH2 0x100 DUP9 ADD MSTORE JUMP JUMPDEST PUSH2 0x40AC PUSH2 0x40A4 PUSH1 0x8 DUP4 ADD PUSH2 0x769 JUMP JUMPDEST PUSH2 0x120 DUP9 ADD MSTORE JUMP JUMPDEST PUSH2 0x40C3 PUSH2 0x40BB PUSH1 0x9 DUP4 ADD PUSH2 0x769 JUMP JUMPDEST PUSH2 0x140 DUP9 ADD MSTORE JUMP JUMPDEST PUSH2 0x40DA PUSH2 0x40D2 PUSH1 0xA DUP4 ADD PUSH2 0x769 JUMP JUMPDEST PUSH2 0x160 DUP9 ADD MSTORE JUMP JUMPDEST PUSH2 0x40F1 PUSH2 0x40E9 PUSH1 0xB DUP4 ADD PUSH2 0x769 JUMP JUMPDEST PUSH2 0x180 DUP9 ADD MSTORE JUMP JUMPDEST ADD PUSH2 0x2ECE JUMP JUMPDEST PUSH2 0x1A0 DUP5 ADD MSTORE JUMP JUMPDEST PUSH2 0x271 SWAP1 PUSH2 0x3FD6 JUMP JUMPDEST SWAP1 PUSH2 0x4111 DUP3 SLOAD SWAP1 JUMP JUMPDEST PUSH2 0x411A DUP2 PUSH2 0x3281 JUMP JUMPDEST SWAP3 PUSH2 0x412E PUSH1 0x20 DUP6 ADD SWAP2 PUSH1 0x0 MSTORE PUSH1 0x20 PUSH1 0x0 KECCAK256 SWAP1 JUMP JUMPDEST PUSH1 0x0 SWAP2 JUMPDEST DUP4 DUP4 LT PUSH2 0x413F JUMPI POP POP POP POP JUMP JUMPDEST PUSH1 0xD PUSH1 0x20 PUSH1 0x1 SWAP3 PUSH2 0x414F DUP6 PUSH2 0x40FF JUMP JUMPDEST DUP2 MSTORE ADD SWAP3 ADD SWAP3 ADD SWAP2 SWAP1 PUSH2 0x4132 JUMP JUMPDEST SWAP1 PUSH2 0x263 PUSH2 0x41BD PUSH1 0x11 PUSH2 0x416E PUSH2 0x3EBF JUMP JUMPDEST SWAP5 PUSH2 0x417B PUSH2 0x7B2 DUP3 PUSH2 0x794 JUMP JUMPDEST PUSH2 0x418A PUSH2 0x7C5 PUSH1 0x4 DUP4 ADD PUSH2 0x802 JUMP JUMPDEST PUSH2 0x4199 PUSH2 0x7DB PUSH1 0x8 DUP4 ADD PUSH2 0x857 JUMP JUMPDEST PUSH2 0x41A8 PUSH2 0x2C86 PUSH1 0xB DUP4 ADD PUSH2 0x891 JUMP JUMPDEST PUSH2 0x41B7 PUSH2 0x2C9C PUSH1 0xE DUP4 ADD PUSH2 0x8D4 JUMP JUMPDEST ADD PUSH2 0x4108 JUMP JUMPDEST PUSH1 0xA0 DUP5 ADD MSTORE JUMP JUMPDEST PUSH2 0x271 SWAP1 PUSH2 0x415D JUMP JUMPDEST PUSH2 0x4200 PUSH2 0x271 SWAP2 PUSH2 0x41DC PUSH2 0x3FA3 JUMP JUMPDEST POP PUSH2 0x41F9 PUSH2 0x3684 PUSH1 0x0 PUSH1 0x4 PUSH2 0x41F2 DUP6 PUSH1 0x2 PUSH2 0x3C4 JUMP JUMPDEST ADD ADD PUSH2 0x3E3 JUMP JUMPDEST PUSH1 0x2 PUSH2 0x3C4 JUMP JUMPDEST PUSH2 0x41C4 JUMP JUMPDEST PUSH2 0x263 SWAP1 PUSH2 0x4211 PUSH2 0x45B4 JUMP JUMPDEST PUSH1 0x0 PUSH2 0x421C DUP2 PUSH2 0x1E16 JUMP JUMPDEST PUSH1 0x1 PUSH1 0x1 PUSH1 0xA0 SHL SUB DUP2 AND PUSH1 0x1 PUSH1 0x1 PUSH1 0xA0 SHL SUB DUP5 AND EQ PUSH2 0x4240 JUMPI POP POP PUSH2 0x263 SWAP1 PUSH2 0x45FE JUMP JUMPDEST PUSH4 0x1E4FBDF7 PUSH1 0xE0 SHL DUP3 MSTORE PUSH1 0x1 PUSH1 0x1 PUSH1 0xA0 SHL SUB AND PUSH1 0x4 DUP3 ADD MSTORE PUSH1 0x24 SWAP1 REVERT JUMPDEST PUSH2 0x263 SWAP1 PUSH2 0x4205 JUMP JUMPDEST PUSH2 0x271 PUSH1 0x2 PUSH2 0x3B7 JUMP JUMPDEST PUSH2 0x427A PUSH1 0x0 PUSH2 0x3E3 JUMP JUMPDEST PUSH2 0x4282 PUSH2 0x4266 JUMP JUMPDEST SWAP1 DUP2 EQ PUSH2 0x4294 JUMPI PUSH2 0x263 SWAP1 PUSH1 0x0 PUSH2 0x1AE2 JUMP JUMPDEST PUSH4 0x3EE5AEB5 PUSH1 0xE0 SHL PUSH1 0x0 SWAP1 DUP2 MSTORE PUSH1 0x4 SWAP1 REVERT JUMPDEST PUSH2 0x271 PUSH1 0x1 PUSH2 0x3B7 JUMP JUMPDEST PUSH2 0x263 PUSH2 0x42BB PUSH2 0x42A6 JUMP JUMPDEST PUSH1 0x0 PUSH2 0x1AE2 JUMP JUMPDEST ISZERO PUSH2 0x42C9 JUMPI JUMP JUMPDEST PUSH1 0x40 MLOAD PUSH3 0x461BCD PUSH1 0xE5 SHL DUP2 MSTORE PUSH1 0x20 PUSH1 0x4 DUP3 ADD MSTORE PUSH1 0x11 PUSH1 0x24 DUP3 ADD MSTORE PUSH32 0x494E5354414E545F445241575F4F4E4C59000000000000000000000000000000 PUSH1 0x44 DUP3 ADD MSTORE PUSH1 0x64 SWAP1 REVERT JUMPDEST ISZERO PUSH2 0x4315 JUMPI JUMP JUMPDEST PUSH1 0x40 MLOAD PUSH3 0x461BCD PUSH1 0xE5 SHL DUP2 MSTORE PUSH1 0x20 PUSH1 0x4 DUP3 ADD MSTORE PUSH1 0x12 PUSH1 0x24 DUP3 ADD MSTORE PUSH32 0x524146464C455F4E4F545F535441525445440000000000000000000000000000 PUSH1 0x44 DUP3 ADD MSTORE PUSH1 0x64 SWAP1 REVERT JUMPDEST ISZERO PUSH2 0x4361 JUMPI JUMP JUMPDEST PUSH1 0x40 MLOAD PUSH3 0x461BCD PUSH1 0xE5 SHL DUP2 MSTORE PUSH1 0x20 PUSH1 0x4 DUP3 ADD MSTORE PUSH1 0x1B PUSH1 0x24 DUP3 ADD MSTORE PUSH32 0x50415254494349504154494F4E5F4C494D49545F524541434845440000000000 PUSH1 0x44 DUP3 ADD MSTORE PUSH1 0x64 SWAP1 REVERT JUMPDEST SWAP2 SWAP1 PUSH2 0x43B3 DUP4 PUSH1 0x2 PUSH2 0x3C4 JUMP JUMPDEST PUSH1 0x4 DUP2 ADD PUSH2 0x43C0 DUP2 PUSH2 0x3E3 JUMP JUMPDEST PUSH1 0x0 SWAP5 DUP6 SWAP2 PUSH2 0x43CE DUP4 PUSH2 0x3B7 JUMP JUMPDEST LT PUSH2 0x43D8 SWAP1 PUSH2 0x2045 JUMP JUMPDEST PUSH2 0x4474 SWAP4 PUSH2 0x444A PUSH2 0x4442 PUSH2 0x271 PUSH1 0x1 PUSH2 0x446E SWAP8 PUSH2 0x847 PUSH2 0x443A PUSH2 0x271 PUSH1 0x2 SWAP11 PUSH1 0x8 SWAP11 PUSH2 0x44C2 JUMPI JUMPDEST PUSH2 0x4433 PUSH2 0x4427 DUP14 PUSH1 0xE DUP14 ADD PUSH2 0x847 PUSH2 0x4422 PUSH2 0x1A9A DUP8 DUP5 ADD PUSH2 0x2362 PUSH2 0x235D DUP3 PUSH2 0x7F8 JUMP JUMPDEST PUSH2 0x371A JUMP JUMPDEST PUSH2 0x37AE PUSH2 0x214E DUP5 PUSH2 0x3B7 JUMP JUMPDEST DUP5 ADD PUSH2 0x3E3 JUMP JUMPDEST TIMESTAMP LT ISZERO PUSH2 0x430E JUMP JUMPDEST TIMESTAMP GT ISZERO PUSH2 0x371A JUMP JUMPDEST ADD PUSH2 0x4457 PUSH1 0x1 DUP3 ADD PUSH2 0x3E3 JUMP JUMPDEST PUSH2 0x4460 DUP8 PUSH2 0x3B7 JUMP JUMPDEST DUP2 GT PUSH2 0x44A0 JUMPI JUMPDEST POP ADD PUSH2 0x3E3 JUMP JUMPDEST SWAP3 PUSH2 0x3B7 JUMP JUMPDEST DUP3 GT PUSH2 0x447F JUMPI POP POP POP JUMP JUMPDEST PUSH2 0x214E PUSH2 0x3D9E PUSH2 0x1DF3 PUSH2 0x449A SWAP4 PUSH2 0x19FB PUSH2 0x263 SWAP8 PUSH1 0x7 PUSH2 0x3C4 JUMP JUMPDEST LT PUSH2 0x435A JUMP JUMPDEST PUSH2 0x44BC SWAP1 PUSH2 0x449A PUSH2 0x214E PUSH2 0x3D9E PUSH2 0x44B8 DUP13 PUSH1 0x6 PUSH2 0x3C4 JUMP JUMPDEST SLOAD SWAP1 JUMP JUMPDEST CODESIZE PUSH2 0x4467 JUMP JUMPDEST PUSH2 0x44D5 PUSH2 0x44D0 DUP14 DUP8 ADD PUSH2 0x7F8 JUMP JUMPDEST PUSH2 0x42C2 JUMP JUMPDEST PUSH2 0x43FF JUMP JUMPDEST SWAP8 SWAP6 SWAP4 SWAP2 SWAP11 SWAP10 SWAP9 SWAP7 SWAP5 SWAP3 SWAP1 SWAP11 PUSH2 0x140 DUP10 ADD SWAP12 PUSH1 0x0 DUP11 ADD PUSH2 0x4501 SWAP2 PUSH1 0x1 PUSH1 0x1 PUSH1 0xA0 SHL SUB AND SWAP1 MSTORE JUMP JUMPDEST PUSH1 0x20 DUP10 ADD MSTORE PUSH1 0x40 DUP9 ADD MSTORE PUSH1 0x60 DUP8 ADD MSTORE PUSH1 0x80 DUP7 ADD MSTORE PUSH1 0xA0 DUP6 ADD MSTORE PUSH1 0xC0 DUP5 ADD MSTORE PUSH1 0x1 PUSH1 0x1 PUSH1 0xA0 SHL SUB AND PUSH1 0xE0 DUP4 ADD MSTORE PUSH1 0x1 PUSH1 0x1 PUSH1 0xA0 SHL SUB AND PUSH2 0x100 DUP3 ADD MSTORE PUSH2 0x120 ADD MSTORE JUMP JUMPDEST SWAP2 PUSH2 0x459E SWAP2 PUSH2 0x4592 PUSH2 0x455E PUSH2 0x4558 PUSH1 0x1 PUSH2 0x3B7 JUMP JUMPDEST NUMBER PUSH2 0x3DAD JUMP JUMPDEST SWAP5 PUSH2 0x456C PUSH2 0x4558 PUSH1 0x2 PUSH2 0x3B7 JUMP JUMPDEST SWAP1 GAS SWAP2 PUSH2 0x4578 PUSH1 0x40 MLOAD SWAP1 JUMP JUMPDEST SWAP8 DUP9 SWAP7 PUSH1 0x20 DUP9 ADD SWAP7 ORIGIN SWAP5 COINBASE SWAP5 BLOCKHASH SWAP4 BLOCKHASH SWAP3 PREVRANDAO SWAP3 TIMESTAMP SWAP3 DUP12 PUSH2 0x44DA JUMP JUMPDEST SWAP1 DUP2 SUB DUP3 MSTORE SUB DUP3 PUSH2 0x56B JUMP JUMPDEST PUSH2 0x45B0 PUSH2 0x45A9 DUP3 MLOAD SWAP1 JUMP JUMPDEST SWAP2 PUSH1 0x20 ADD SWAP1 JUMP JUMPDEST KECCAK256 SWAP1 JUMP JUMPDEST PUSH1 0x1 SLOAD PUSH1 0x1 PUSH1 0x1 PUSH1 0xA0 SHL SUB AND CALLER SWAP1 PUSH2 0x45D4 DUP3 JUMPDEST SWAP2 PUSH1 0x1 PUSH1 0x1 PUSH1 0xA0 SHL SUB AND SWAP1 JUMP JUMPDEST SUB PUSH2 0x45DC JUMPI POP JUMP JUMPDEST PUSH4 0x118CDAA7 PUSH1 0xE0 SHL PUSH1 0x0 SWAP1 DUP2 MSTORE PUSH1 0x1 PUSH1 0x1 PUSH1 0xA0 SHL SUB SWAP1 SWAP2 AND PUSH1 0x4 MSTORE PUSH1 0x24 SUB PUSH1 0x0 REVERT JUMPDEST PUSH2 0x4621 PUSH2 0x2B54 PUSH2 0x4616 PUSH1 0x1 SLOAD PUSH1 0x1 PUSH1 0x1 PUSH1 0xA0 SHL SUB AND SWAP1 JUMP JUMPDEST PUSH2 0x1F6D DUP5 PUSH1 0x1 PUSH2 0x1B22 JUMP JUMPDEST SWAP1 PUSH32 0x8BE0079C531659141344CD1FD0A4F28419497F9722A3DAAFE3B4186F6B6457E0 PUSH2 0x464C PUSH1 0x40 MLOAD SWAP1 JUMP JUMPDEST DUP1 DUP1 PUSH2 0x21BD JUMP JUMPDEST SWAP1 PUSH2 0x1CEA PUSH2 0x271 SWAP2 PUSH2 0x4663 PUSH1 0x0 SWAP1 JUMP JUMPDEST POP PUSH2 0x19FB PUSH2 0x467B PUSH2 0x4674 PUSH1 0x5 PUSH2 0x3E3 JUMP JUMPDEST DUP7 DUP5 PUSH2 0x4543 JUMP JUMPDEST SWAP5 PUSH2 0x46CF PUSH2 0x4689 PUSH1 0x5 PUSH2 0x3E3 JUMP JUMPDEST SWAP7 PUSH2 0x4696 PUSH2 0x1C72 DUP10 PUSH2 0x1ABE JUMP JUMPDEST PUSH2 0x46B9 PUSH2 0x46A1 PUSH2 0x78A JUMP JUMPDEST PUSH1 0x1 PUSH1 0x1 PUSH1 0xA0 SHL SUB DUP8 AND DUP2 MSTORE SWAP2 PUSH2 0x461 DUP6 PUSH1 0x20 DUP6 ADD MSTORE JUMP JUMPDEST PUSH2 0x46C4 TIMESTAMP PUSH1 0x60 DUP4 ADD MSTORE JUMP JUMPDEST PUSH2 0x1CBC DUP9 PUSH1 0x4 PUSH2 0x3C4 JUMP JUMPDEST PUSH2 0x46E1 DUP7 PUSH2 0x1CD3 PUSH2 0x271 DUP5 PUSH1 0x6 PUSH2 0x3C4 JUMP JUMPDEST PUSH1 0x7 PUSH2 0x3C4 JUMP JUMPDEST SWAP2 SWAP1 PUSH2 0x46F6 PUSH1 0x8 DUP5 ADD PUSH2 0x7F8 JUMP JUMPDEST ISZERO PUSH2 0x4704 JUMPI PUSH2 0x271 SWAP3 PUSH2 0x4E56 JUMP JUMPDEST SWAP1 PUSH2 0x271 SWAP3 POP PUSH2 0x4D77 JUMP JUMPDEST ISZERO PUSH2 0x4716 JUMPI JUMP JUMPDEST PUSH1 0x40 MLOAD PUSH3 0x461BCD PUSH1 0xE5 SHL DUP2 MSTORE PUSH1 0x20 PUSH1 0x4 DUP3 ADD MSTORE PUSH1 0x13 PUSH1 0x24 DUP3 ADD MSTORE PUSH32 0x494E56414C49445F5041525449434950414E5400000000000000000000000000 PUSH1 0x44 DUP3 ADD MSTORE PUSH1 0x64 SWAP1 REVERT JUMPDEST SWAP1 SWAP6 SWAP5 SWAP3 PUSH2 0x263 SWAP5 PUSH2 0x125E PUSH2 0x468 SWAP3 PUSH2 0x4786 PUSH1 0x80 SWAP7 PUSH2 0x477F PUSH1 0xA0 DUP9 ADD SWAP13 PUSH1 0x0 DUP10 ADD MSTORE JUMP JUMPDEST PUSH1 0x20 DUP8 ADD MSTORE JUMP JUMPDEST PUSH1 0x40 DUP6 ADD MSTORE JUMP JUMPDEST SWAP1 SWAP3 SWAP1 SWAP2 PUSH2 0x479F PUSH2 0x2A2F DUP5 PUSH1 0x4 PUSH2 0x3C4 JUMP JUMPDEST DUP1 MLOAD PUSH1 0x1 PUSH1 0x1 PUSH1 0xA0 SHL SUB AND SWAP5 PUSH2 0x47C7 PUSH1 0x0 SWAP7 PUSH2 0x47C0 PUSH2 0x45C7 PUSH2 0x265 DUP11 PUSH2 0x1E16 JUMP JUMPDEST EQ ISZERO PUSH2 0x470F JUMP JUMPDEST PUSH2 0x47F3 PUSH2 0x2A43 DUP8 DUP5 ADD SWAP5 DUP7 PUSH2 0x47ED PUSH2 0x47E6 DUP9 MLOAD PUSH1 0x1 PUSH1 0x1 PUSH1 0xA0 SHL SUB AND SWAP1 JUMP JUMPDEST SWAP3 DUP11 PUSH2 0x3D97 JUMP JUMPDEST SWAP2 PUSH2 0x4543 JUMP JUMPDEST SWAP6 PUSH1 0xE DUP3 ADD SWAP1 PUSH2 0x480A PUSH1 0x1 DUP4 ADD SWAP9 PUSH2 0x2A62 DUP11 PUSH2 0x3E3 JUMP JUMPDEST SWAP3 PUSH2 0x4816 DUP8 DUP6 DUP4 PUSH2 0x46E8 JUMP JUMPDEST SWAP9 DUP2 PUSH2 0x4827 DUP5 PUSH1 0x8 DUP14 SWAP6 ADD ADD PUSH2 0x7F8 JUMP JUMPDEST PUSH2 0x499E JUMPI JUMPDEST POP POP POP PUSH2 0x4839 PUSH1 0x9 PUSH2 0x3E3 JUMP JUMPDEST SWAP2 PUSH2 0x4843 DUP4 PUSH2 0x1ABE JUMP JUMPDEST PUSH2 0x484E SWAP1 PUSH1 0x9 PUSH2 0x1AE2 JUMP JUMPDEST PUSH1 0x40 DUP6 ADD SWAP7 PUSH2 0x485B DUP9 MLOAD SWAP1 JUMP JUMPDEST SWAP1 PUSH2 0x486D DUP9 MLOAD PUSH1 0x1 PUSH1 0x1 PUSH1 0xA0 SHL SUB AND SWAP1 JUMP JUMPDEST SWAP2 PUSH2 0x4876 PUSH2 0x292B JUMP JUMPDEST PUSH1 0x1 PUSH1 0x1 PUSH1 0xA0 SHL SUB SWAP1 SWAP4 AND DUP6 DUP5 ADD MSTORE DUP5 ISZERO ISZERO PUSH1 0x20 DUP5 ADD MSTORE PUSH1 0x40 DUP4 ADD MSTORE PUSH1 0x60 DUP3 ADD MSTORE PUSH2 0x48A2 DUP11 PUSH1 0x80 DUP4 ADD MSTORE JUMP JUMPDEST PUSH2 0x48AD TIMESTAMP PUSH1 0xA0 DUP4 ADD MSTORE JUMP JUMPDEST PUSH2 0x48B6 DUP4 PUSH2 0x3B7 JUMP JUMPDEST SWAP1 PUSH2 0x48C2 DUP3 PUSH1 0xC0 DUP4 ADD MSTORE JUMP JUMPDEST PUSH2 0x48CD DUP6 PUSH1 0x8 PUSH2 0x3C4 JUMP JUMPDEST SWAP1 PUSH2 0x48D7 SWAP2 PUSH2 0x29CA JUMP JUMPDEST PUSH1 0x2 DUP3 ADD PUSH2 0x48E4 DUP2 PUSH2 0x3E3 JUMP JUMPDEST PUSH2 0x48ED SWAP1 PUSH2 0x291E JUMP JUMPDEST PUSH2 0x48F7 SWAP1 DUP3 PUSH2 0x1AE2 JUMP JUMPDEST PUSH2 0x4900 SWAP1 PUSH2 0x3E3 JUMP JUMPDEST EQ PUSH2 0x4962 PUSH2 0x495C PUSH2 0x4957 PUSH2 0x4949 PUSH1 0x20 PUSH32 0x2120864CCF2C79A4CAD1014109DF7E170CF9E4C2664AB542E5493B272AB68590 SWAP11 PUSH2 0x4984 SWAP9 PUSH2 0x496E SWAP9 PUSH2 0x4968 SWAP9 PUSH2 0x498A JUMPI JUMPDEST POP POP ADD MLOAD SWAP1 JUMP JUMPDEST SWAP10 MLOAD PUSH1 0x1 PUSH1 0x1 PUSH1 0xA0 SHL SUB AND SWAP1 JUMP JUMPDEST SWAP10 MLOAD SWAP1 JUMP JUMPDEST SWAP5 PUSH2 0x3B7 JUMP JUMPDEST SWAP7 PUSH2 0x3B7 JUMP JUMPDEST SWAP7 PUSH2 0x4F8 JUMP JUMPDEST SWAP7 PUSH2 0x4978 PUSH1 0x40 MLOAD SWAP1 JUMP JUMPDEST SWAP4 DUP5 SWAP4 DUP11 TIMESTAMP SWAP4 DUP7 PUSH2 0x475B JUMP JUMPDEST SUB SWAP1 LOG4 SWAP1 JUMP JUMPDEST PUSH2 0x4997 SWAP2 PUSH1 0x1 SWAP2 ADD PUSH2 0x22DD JUMP JUMPDEST CODESIZE DUP1 PUSH2 0x4942 JUMP JUMPDEST PUSH1 0x2 PUSH2 0x2BC0 PUSH2 0x49B3 SWAP5 PUSH1 0x11 PUSH2 0x2BCE SWAP5 ADD PUSH2 0x2621 JUMP JUMPDEST DUP8 CODESIZE DUP1 PUSH2 0x482C JUMP JUMPDEST PUSH2 0x271 SWAP1 MLOAD PUSH2 0x173C JUMP JUMPDEST SWAP1 PUSH2 0x1D5E PUSH2 0x271 PUSH2 0x1AF9 SWAP3 PUSH2 0x1746 JUMP JUMPDEST SWAP1 PUSH21 0xFFFFFFFFFFFFFFFFFFFFFFFFFFFFFFFFFFFFFFFF00 SWAP1 PUSH1 0x8 SHL PUSH2 0x1AD8 JUMP JUMPDEST SWAP1 PUSH2 0x4A05 PUSH2 0x271 PUSH2 0x1AF9 SWAP3 PUSH2 0x4F8 JUMP JUMPDEST DUP3 SLOAD PUSH2 0x49D5 JUMP JUMPDEST SWAP2 SWAP1 SWAP2 DUP3 DUP3 LT PUSH2 0x4A1B JUMPI POP POP POP JUMP JUMPDEST PUSH2 0x263 SWAP3 SWAP2 PUSH2 0x4A30 SWAP1 SWAP2 PUSH1 0x0 MSTORE PUSH1 0x20 PUSH1 0x0 KECCAK256 SWAP1 JUMP JUMPDEST SWAP2 DUP3 ADD SWAP2 ADD PUSH2 0x3945 JUMP JUMPDEST SWAP1 PUSH9 0x10000000000000000 DUP2 GT PUSH2 0x58C JUMPI DUP2 PUSH2 0x4A57 PUSH2 0x263 SWAP4 SLOAD SWAP1 JUMP JUMPDEST SWAP1 DUP3 DUP2 SSTORE PUSH2 0x4A0C JUMP JUMPDEST DUP2 MLOAD SWAP2 PUSH1 0x1 PUSH1 0x1 PUSH1 0x40 SHL SUB DUP4 GT PUSH2 0x58C JUMPI PUSH2 0x4A8A PUSH2 0x2E7B PUSH1 0x1 SWAP3 PUSH2 0x4A84 DUP7 DUP7 PUSH2 0x4A3A JUMP JUMPDEST PUSH1 0x20 ADD SWAP1 JUMP JUMPDEST SWAP3 DIV SWAP2 PUSH1 0x0 JUMPDEST DUP4 DUP2 LT PUSH2 0x4A9D JUMPI POP POP POP POP JUMP JUMPDEST PUSH1 0x1 SWAP1 PUSH1 0x20 PUSH2 0x4AAD PUSH2 0x271 DUP7 MLOAD SWAP1 JUMP JUMPDEST SWAP5 ADD SWAP4 DUP2 DUP5 ADD SSTORE ADD PUSH2 0x4A90 JUMP JUMPDEST SWAP1 PUSH2 0x263 SWAP2 PUSH2 0x4A60 JUMP JUMPDEST PUSH2 0x263 SWAP2 PUSH1 0xC SWAP1 PUSH2 0x4BDB SWAP1 PUSH2 0x1A0 SWAP1 PUSH2 0x4AFD DUP6 PUSH2 0x4AE9 PUSH2 0x4AE3 DUP5 PUSH2 0x49BB JUMP JUMPDEST DUP3 PUSH2 0x49C5 JUMP JUMPDEST PUSH1 0x20 DUP4 ADD MLOAD PUSH1 0x1 PUSH1 0x1 PUSH1 0xA0 SHL SUB AND SWAP1 PUSH2 0x49F5 JUMP JUMPDEST PUSH2 0x4B0B PUSH2 0x1B7D PUSH1 0x40 DUP4 ADD MLOAD SWAP1 JUMP JUMPDEST PUSH2 0x4B19 PUSH2 0x2993 PUSH1 0x60 DUP4 ADD MLOAD SWAP1 JUMP JUMPDEST PUSH2 0x4B27 PUSH2 0x29AA PUSH1 0x80 DUP4 ADD MLOAD SWAP1 JUMP JUMPDEST PUSH2 0x4B35 PUSH2 0x29C1 PUSH1 0xA0 DUP4 ADD MLOAD SWAP1 JUMP JUMPDEST PUSH2 0x4B4C PUSH2 0x4B43 PUSH1 0xC0 DUP4 ADD MLOAD SWAP1 JUMP JUMPDEST PUSH1 0x5 DUP8 ADD PUSH2 0x1AE2 JUMP JUMPDEST PUSH2 0x4B63 PUSH2 0x4B5A PUSH1 0xE0 DUP4 ADD MLOAD SWAP1 JUMP JUMPDEST PUSH1 0x6 DUP8 ADD PUSH2 0x1AE2 JUMP JUMPDEST PUSH2 0x4B7B PUSH2 0x4B72 PUSH2 0x100 DUP4 ADD MLOAD SWAP1 JUMP JUMPDEST PUSH1 0x7 DUP8 ADD PUSH2 0x3A83 JUMP JUMPDEST PUSH2 0x4B93 PUSH2 0x4B8A PUSH2 0x120 DUP4 ADD MLOAD SWAP1 JUMP JUMPDEST PUSH1 0x8 DUP8 ADD PUSH2 0x3A83 JUMP JUMPDEST PUSH2 0x4BAB PUSH2 0x4BA2 PUSH2 0x140 DUP4 ADD MLOAD SWAP1 JUMP JUMPDEST PUSH1 0x9 DUP8 ADD PUSH2 0x3A83 JUMP JUMPDEST PUSH2 0x4BC3 PUSH2 0x4BBA PUSH2 0x160 DUP4 ADD MLOAD SWAP1 JUMP JUMPDEST PUSH1 0xA DUP8 ADD PUSH2 0x3A83 JUMP JUMPDEST PUSH2 0x1B9D PUSH2 0x4BD2 PUSH2 0x180 DUP4 ADD MLOAD SWAP1 JUMP JUMPDEST PUSH1 0xB DUP8 ADD PUSH2 0x3A83 JUMP JUMPDEST SWAP2 ADD PUSH2 0x4ABA JUMP JUMPDEST SWAP2 SWAP1 PUSH2 0x4BF1 JUMPI PUSH2 0x263 SWAP2 PUSH2 0x4AC4 JUMP JUMPDEST PUSH2 0x1AFD JUMP JUMPDEST SWAP1 DUP2 SLOAD SWAP2 PUSH9 0x10000000000000000 DUP4 LT ISZERO PUSH2 0x58C JUMPI DUP3 PUSH2 0x4C1E SWAP2 PUSH1 0x1 PUSH2 0x263 SWAP6 ADD DUP2 SSTORE PUSH2 0x2621 JUMP JUMPDEST SWAP1 PUSH2 0x4BE2 JUMP JUMPDEST SWAP3 SWAP2 SWAP1 PUSH1 0x0 SWAP4 PUSH2 0x4C34 PUSH1 0x0 PUSH2 0x3B7 JUMP JUMPDEST SWAP5 PUSH2 0x4C3D DUP5 MLOAD SWAP1 JUMP JUMPDEST SWAP5 DUP7 JUMPDEST DUP7 JUMPDEST DUP9 LT ISZERO PUSH2 0x4D0C JUMPI PUSH2 0x4D04 PUSH2 0x4CFD DUP3 PUSH2 0x4CE8 PUSH2 0x4CD1 PUSH1 0x40 PUSH2 0x4CB2 DUP15 PUSH2 0x4CCB DUP15 PUSH2 0x4CC4 DUP16 DUP16 DUP16 DUP7 SWAP3 PUSH2 0x4C42 SWAP16 PUSH2 0x4CBE SWAP4 PUSH2 0x5C1 SWAP2 PUSH2 0x4C93 PUSH2 0x4C82 PUSH1 0x11 SWAP7 PUSH2 0x3B7 JUMP JUMPDEST PUSH1 0x60 PUSH2 0x4C8E DUP11 DUP14 PUSH2 0x32C5 JUMP JUMPDEST MLOAD ADD MSTORE JUMP JUMPDEST PUSH2 0x4CA3 DUP2 PUSH1 0xE0 PUSH2 0x4C8E DUP11 DUP14 PUSH2 0x32C5 JUMP JUMPDEST DUP7 PUSH2 0x4CB8 DUP15 PUSH2 0x4CB2 DUP4 DUP14 PUSH2 0x32C5 JUMP JUMPDEST MLOAD ADD MLOAD SWAP1 JUMP JUMPDEST SWAP3 PUSH2 0x4F53 JUMP JUMPDEST SWAP3 PUSH2 0x32C5 JUMP JUMPDEST MLOAD SWAP1 PUSH2 0x4BF6 JUMP JUMPDEST DUP14 PUSH2 0x32C5 JUMP JUMPDEST PUSH1 0xF DUP11 ADD SWAP1 PUSH2 0x1CFB SWAP1 PUSH2 0x4CE3 DUP4 PUSH2 0x3E3 JUMP JUMPDEST PUSH2 0x3D97 JUMP JUMPDEST PUSH2 0x4CF7 PUSH1 0x40 PUSH2 0x4CB2 DUP14 DUP13 PUSH2 0x32C5 JUMP JUMPDEST SWAP1 PUSH2 0x3D97 JUMP JUMPDEST SWAP9 PUSH1 0x1 ADD SWAP1 JUMP JUMPDEST SWAP8 SWAP1 POP PUSH2 0x4C40 JUMP JUMPDEST POP SWAP6 POP POP SWAP3 POP PUSH2 0x4D28 SWAP2 POP PUSH1 0xE ADD PUSH1 0x2 PUSH2 0x1BA2 PUSH1 0x1 DUP4 ADD PUSH2 0x3E3 JUMP JUMPDEST PUSH2 0x4D31 DUP2 PUSH2 0x3B7 JUMP JUMPDEST PUSH32 0xB5745354685A046E72F24602BCF00FA0EE07F0BF511AFB5F2D3AB636241E41B PUSH2 0x4D5B PUSH1 0x40 MLOAD SWAP1 JUMP JUMPDEST PUSH1 0x0 SWAP1 LOG2 SWAP1 JUMP JUMPDEST PUSH2 0x271 PUSH2 0x2710 PUSH2 0x3B7 JUMP JUMPDEST DUP2 ISZERO PUSH2 0x2919 JUMPI DIV SWAP1 JUMP JUMPDEST SWAP1 PUSH2 0x4D86 PUSH2 0x271 DUP4 PUSH1 0x2 PUSH2 0x3C4 JUMP JUMPDEST SWAP1 PUSH1 0x0 PUSH1 0x11 PUSH2 0x4D94 DUP3 PUSH2 0x3B7 JUMP JUMPDEST SWAP4 ADD SWAP1 PUSH2 0x4D9F DUP3 SLOAD SWAP1 JUMP JUMPDEST SWAP1 DUP5 JUMPDEST DUP3 DUP7 LT ISZERO PUSH2 0x4DF0 JUMPI PUSH2 0x4DC6 PUSH2 0x214E PUSH2 0x3E23 PUSH1 0x1 PUSH2 0x847 PUSH2 0x4DC2 DUP12 DUP11 PUSH2 0x2621 JUMP JUMPDEST POP SWAP1 JUMP JUMPDEST DUP6 LT ISZERO DUP1 PUSH2 0x4DE7 JUMPI JUMPDEST PUSH2 0x4DDD JUMPI SWAP5 PUSH1 0x1 ADD SWAP5 PUSH2 0x4DA2 JUMP JUMPDEST POP POP POP POP POP SWAP1 POP SWAP1 JUMP JUMPDEST POP DUP1 DUP6 LT PUSH2 0x4DCF JUMP JUMPDEST POP SWAP4 POP SWAP4 PUSH2 0x1DF3 SWAP2 POP PUSH2 0xBFB PUSH2 0x4E11 PUSH2 0x4E19 SWAP5 PUSH2 0x4E0B PUSH2 0x4D62 JUMP JUMPDEST SWAP1 PUSH2 0x4D6D JUMP JUMPDEST SWAP2 PUSH1 0xA PUSH2 0x3C4 JUMP JUMPDEST DUP3 DUP2 LT PUSH2 0x4E50 JUMPI POP PUSH2 0x4E2A DUP2 PUSH2 0x3B7 JUMP JUMPDEST DUP3 GT ISZERO PUSH2 0x4E46 JUMPI POP PUSH2 0x271 SWAP1 PUSH2 0x4E40 PUSH1 0x1 PUSH2 0x3B7 JUMP JUMPDEST SWAP1 PUSH2 0x3DAD JUMP JUMPDEST PUSH2 0x271 SWAP2 POP PUSH2 0x3B7 JUMP JUMPDEST SWAP2 POP POP SWAP1 JUMP JUMPDEST SWAP1 SWAP2 PUSH1 0xA SWAP3 PUSH2 0x4E65 PUSH1 0xA PUSH2 0x3B7 JUMP JUMPDEST SWAP4 PUSH1 0x0 SWAP3 PUSH2 0x4E73 PUSH1 0x0 PUSH2 0x3B7 JUMP JUMPDEST DUP7 JUMPDEST DUP2 LT ISZERO PUSH2 0x4F43 JUMPI PUSH2 0x4EA1 PUSH2 0x1DF3 PUSH2 0x4E97 PUSH2 0x4E8F DUP5 DUP9 PUSH2 0x3D97 JUMP JUMPDEST PUSH2 0x4E0B PUSH2 0x4D62 JUMP JUMPDEST PUSH2 0xBFB DUP6 DUP8 PUSH2 0x3C4 JUMP JUMPDEST PUSH1 0x11 DUP8 ADD PUSH2 0x4EB0 PUSH2 0x271 DUP3 SLOAD SWAP1 JUMP JUMPDEST DUP3 LT PUSH2 0x4ECD JUMPI JUMPDEST POP POP PUSH2 0x4EC6 PUSH2 0x4E75 SWAP2 PUSH1 0x1 ADD SWAP1 JUMP JUMPDEST SWAP1 POP PUSH2 0x4E73 JUMP JUMPDEST PUSH2 0x4DC2 DUP3 PUSH2 0x4EDA SWAP3 PUSH2 0x2621 JUMP JUMPDEST PUSH2 0x4EF5 PUSH2 0x4EE9 PUSH1 0x1 DUP4 ADD PUSH2 0x3E3 JUMP JUMPDEST PUSH2 0x4E40 PUSH1 0x2 DUP5 ADD PUSH2 0x3E3 JUMP JUMPDEST SWAP1 PUSH2 0x4EFF DUP9 PUSH2 0x3B7 JUMP JUMPDEST DUP3 GT PUSH2 0x4F0C JUMPI JUMPDEST POP PUSH2 0x4EB7 JUMP JUMPDEST PUSH2 0x214E PUSH2 0x3D9E PUSH2 0x4F2C SWAP3 PUSH2 0x4E40 PUSH1 0x6 PUSH2 0x4F25 DUP10 DUP14 PUSH2 0x3D97 JUMP JUMPDEST SWAP3 ADD PUSH2 0x3E3 JUMP JUMPDEST LT PUSH2 0x4F38 JUMPI DUP1 DUP1 PUSH2 0x4F06 JUMP JUMPDEST SWAP7 POP POP POP POP POP POP POP SWAP1 JUMP JUMPDEST POP POP POP SWAP2 SWAP1 POP PUSH2 0x271 SWAP3 POP PUSH2 0x4FBE JUMP JUMPDEST SWAP3 SWAP4 SWAP1 SWAP4 PUSH2 0x4F63 PUSH3 0x186A0 PUSH2 0x3B7 JUMP JUMPDEST DUP2 LT ISZERO PUSH2 0x4FB7 JUMPI PUSH2 0x4F74 SWAP1 DUP4 PUSH2 0x3D97 JUMP JUMPDEST SWAP2 JUMPDEST DUP3 JUMPDEST DUP2 LT ISZERO PUSH2 0x4FB7 JUMPI PUSH2 0x4FB0 PUSH2 0x4F78 SWAP2 PUSH2 0x4F8E PUSH2 0x4D62 JUMP JUMPDEST SWAP1 PUSH2 0x5C1 DUP9 PUSH2 0x4FAB PUSH2 0x4FA0 DUP6 DUP6 PUSH2 0x4D6D JUMP JUMPDEST PUSH2 0xBFB DUP12 PUSH1 0xA PUSH2 0x3C4 JUMP JUMPDEST PUSH2 0x1AE2 JUMP JUMPDEST SWAP1 POP PUSH2 0x4F76 JUMP JUMPDEST POP SWAP3 POP POP POP JUMP JUMPDEST SWAP1 SWAP2 SWAP1 PUSH1 0x11 PUSH2 0x4FCD PUSH1 0x0 PUSH2 0x3B7 JUMP JUMPDEST SWAP2 ADD SWAP2 PUSH2 0x4FD8 DUP4 SLOAD SWAP1 JUMP JUMPDEST SWAP3 DUP3 JUMPDEST DUP5 DUP5 LT ISZERO PUSH2 0x504C JUMPI PUSH2 0x5004 PUSH2 0x4FF3 PUSH2 0x4DC2 DUP7 DUP6 PUSH2 0x2621 JUMP JUMPDEST PUSH2 0x4E40 PUSH1 0x2 PUSH2 0x4F25 PUSH1 0x1 DUP5 ADD PUSH2 0x3E3 JUMP JUMPDEST SWAP1 DUP1 DUP8 LT ISZERO DUP1 PUSH2 0x5037 JUMPI JUMPDEST PUSH2 0x502D JUMPI PUSH2 0x5027 SWAP2 PUSH2 0x5020 SWAP2 PUSH2 0x3D97 JUMP JUMPDEST SWAP4 PUSH1 0x1 ADD SWAP1 JUMP JUMPDEST SWAP3 PUSH2 0x4FDB JUMP JUMPDEST POP POP POP SWAP3 POP SWAP1 POP SWAP1 JUMP JUMPDEST POP PUSH2 0x5045 PUSH2 0x271 DUP4 DUP4 PUSH2 0x3D97 JUMP JUMPDEST DUP8 LT PUSH2 0x500F JUMP JUMPDEST POP POP SWAP3 POP POP PUSH2 0x271 SWAP1 PUSH2 0x4E40 PUSH1 0x1 PUSH2 0x3B7 JUMP INVALID LOG2 PUSH5 0x6970667358 0x22 SLT KECCAK256 SGT 0x26 0xCC 0x2F DUP12 MUL SWAP7 0x1E PUSH24 0x47BA958291E61080DF58239DD1449C282539243E03132C64 PUSH20 0x6F6C634300081C00330000000000000000000000 "},"methodIdentifiers":{"MIN_DRAW_DELAY()":"6bf611bf","MIN_RAFFLE_DURATION()":"81eff790","addAdmin(address)":"70480275","admins(address)":"429b62e5","batchDraw(uint256,uint256,uint256)":"e354c358","batchParticipateDrawAndDistribute(uint256,address[],uint256[])":"b8342793","cancelRaffle(uint256,string)":"57415423","confirmBatchDistribution(uint256[],bool[],string[])":"b094e365","createRaffle(((string,string,string,string),(uint256,uint256,bool,uint256),(bool,uint256,uint256),(string,string,int256),(uint8,address,uint256,uint256,uint256,uint256,uint256,uint256,string,string,string,string,string,uint256[])[]))":"d8a35cc2","draw(uint256,uint256)":"d2b8035a","excludedTickets(uint256,uint256)":"d47fd2c9","getLotteryResult(uint256)":"8772d2dd","getRaffle(uint256)":"e4dafec9","getRaffleParticipants(uint256)":"a6e3295b","getRaffleStatus(uint256)":"d1ce754e","getUserParticipation(uint256,address)":"176a8555","isAdmin(address)":"24d7806c","lotteryResults(uint256)":"b08b3a51","markPrizeDelivered(uint256,string,string)":"7bb60ac0","owner()":"8da5cb5b","participants(uint256)":"35c1d349","participate(uint256,address)":"13b18640","participateAndDraw(uint256,address)":"7cafa47a","paused()":"5c975abb","playerParticipationCount(uint256,address)":"fbb7c22d","processRefund(uint256,address,string)":"9d06f112","raffleParticipants(uint256,uint256)":"b1ddd82a","raffleTicketBlocks(uint256,uint256)":"73178c0d","raffles(uint256)":"5d4bc0ce","removeAdmin(address)":"1785f53c","renounceOwnership()":"715018a6","requestRefund(uint256,string)":"c5ac3d4b","setPaused(bool)":"16c38b3c","setRaffleActive(uint256,bool)":"3f35c93b","transferOwnership(address)":"f2fde38b"}},"storageLayout":{"storage":[{"astId":188,"contract":"contracts/Raffles.sol:Raffles","label":"_status","offset":0,"slot":"0","type":"t_uint256"},{"astId":8,"contract":"contracts/Raffles.sol:Raffles","label":"_owner","offset":0,"slot":"1","type":"t_address"},{"astId":397,"contract":"contracts/Raffles.sol:Raffles","label":"raffles","offset":0,"slot":"2","type":"t_mapping(t_uint256,t_struct(Raffle)332_storage)"},{"astId":400,"contract":"contracts/Raffles.sol:Raffles","label":"_raffleIdCounter","offset":0,"slot":"3","type":"t_uint256"},{"astId":405,"contract":"contracts/Raffles.sol:Raffles","label":"participants","offset":0,"slot":"4","type":"t_mapping(t_uint256,t_struct(Participant)377_storage)"},{"astId":408,"contract":"contracts/Raffles.sol:Raffles","label":"_participantIdCounter","offset":0,"slot":"5","type":"t_uint256"},{"astId":413,"contract":"contracts/Raffles.sol:Raffles","label":"raffleParticipants","offset":0,"slot":"6","type":"t_mapping(t_uint256,t_array(t_uint256)dyn_storage)"},{"astId":419,"contract":"contracts/Raffles.sol:Raffles","label":"playerParticipationCount","offset":0,"slot":"7","type":"t_mapping(t_uint256,t_mapping(t_address,t_uint256))"},{"astId":424,"contract":"contracts/Raffles.sol:Raffles","label":"lotteryResults","offset":0,"slot":"8","type":"t_mapping(t_uint256,t_struct(LotteryResult)392_storage)"},{"astId":427,"contract":"contracts/Raffles.sol:Raffles","label":"_lotteryResultIdCounter","offset":0,"slot":"9","type":"t_uint256"},{"astId":436,"contract":"contracts/Raffles.sol:Raffles","label":"raffleTicketBlocks","offset":0,"slot":"10","type":"t_mapping(t_uint256,t_mapping(t_uint256,t_uint256))"},{"astId":442,"contract":"contracts/Raffles.sol:Raffles","label":"excludedTickets","offset":0,"slot":"11","type":"t_mapping(t_uint256,t_mapping(t_uint256,t_bool))"},{"astId":444,"contract":"contracts/Raffles.sol:Raffles","label":"paused","offset":0,"slot":"12","type":"t_bool"},{"astId":448,"contract":"contracts/Raffles.sol:Raffles","label":"admins","offset":0,"slot":"13","type":"t_mapping(t_address,t_bool)"}],"types":{"t_address":{"encoding":"inplace","label":"address","numberOfBytes":"20"},"t_array(t_struct(Prize)368_storage)dyn_storage":{"base":"t_struct(Prize)368_storage","encoding":"dynamic_array","label":"struct Raffles.Prize[]","numberOfBytes":"32"},"t_array(t_uint256)dyn_storage":{"base":"t_uint256","encoding":"dynamic_array","label":"uint256[]","numberOfBytes":"32"},"t_bool":{"encoding":"inplace","label":"bool","numberOfBytes":"1"},"t_bytes32":{"encoding":"inplace","label":"bytes32","numberOfBytes":"32"},"t_enum(PrizeType)337":{"encoding":"inplace","label":"enum Raffles.PrizeType","numberOfBytes":"1"},"t_int256":{"encoding":"inplace","label":"int256","numberOfBytes":"32"},"t_mapping(t_address,t_bool)":{"encoding":"mapping","key":"t_address","label":"mapping(address => bool)","numberOfBytes":"32","value":"t_bool"},"t_mapping(t_address,t_uint256)":{"encoding":"mapping","key":"t_address","label":"mapping(address => uint256)","numberOfBytes":"32","value":"t_uint256"},"t_mapping(t_uint256,t_array(t_uint256)dyn_storage)":{"encoding":"mapping","key":"t_uint256","label":"mapping(uint256 => uint256[])","numberOfBytes":"32","value":"t_array(t_uint256)dyn_storage"},"t_mapping(t_uint256,t_bool)":{"encoding":"mapping","key":"t_uint256","label":"mapping(uint256 => bool)","numberOfBytes":"32","value":"t_bool"},"t_mapping(t_uint256,t_mapping(t_address,t_uint256))":{"encoding":"mapping","key":"t_uint256","label":"mapping(uint256 => mapping(address => uint256))","numberOfBytes":"32","value":"t_mapping(t_address,t_uint256)"},"t_mapping(t_uint256,t_mapping(t_uint256,t_bool))":{"encoding":"mapping","key":"t_uint256","label":"mapping(uint256 => mapping(uint256 => bool))","numberOfBytes":"32","value":"t_mapping(t_uint256,t_bool)"},"t_mapping(t_uint256,t_mapping(t_uint256,t_uint256))":{"encoding":"mapping","key":"t_uint256","label":"mapping(uint256 => mapping(uint256 => uint256))","numberOfBytes":"32","value":"t_mapping(t_uint256,t_uint256)"},"t_mapping(t_uint256,t_struct(LotteryResult)392_storage)":{"encoding":"mapping","key":"t_uint256","label":"mapping(uint256 => struct Raffles.LotteryResult)","numberOfBytes":"32","value":"t_struct(LotteryResult)392_storage"},"t_mapping(t_uint256,t_struct(Participant)377_storage)":{"encoding":"mapping","key":"t_uint256","label":"mapping(uint256 => struct Raffles.Participant)","numberOfBytes":"32","value":"t_struct(Participant)377_storage"},"t_mapping(t_uint256,t_struct(Raffle)332_storage)":{"encoding":"mapping","key":"t_uint256","label":"mapping(uint256 => struct Raffles.Raffle)","numberOfBytes":"32","value":"t_struct(Raffle)332_storage"},"t_mapping(t_uint256,t_uint256)":{"encoding":"mapping","key":"t_uint256","label":"mapping(uint256 => uint256)","numberOfBytes":"32","value":"t_uint256"},"t_string_storage":{"encoding":"bytes","label":"string","numberOfBytes":"32"},"t_struct(LotteryResult)392_storage":{"encoding":"inplace","label":"struct Raffles.LotteryResult","members":[{"astId":379,"contract":"contracts/Raffles.sol:Raffles","label":"player","offset":0,"slot":"0","type":"t_address"},{"astId":381,"contract":"contracts/Raffles.sol:Raffles","label":"claimed","offset":20,"slot":"0","type":"t_bool"},{"astId":383,"contract":"contracts/Raffles.sol:Raffles","label":"lotteryTicketNumber","offset":0,"slot":"1","type":"t_bytes32"},{"astId":385,"contract":"contracts/Raffles.sol:Raffles","label":"raffleId","offset":0,"slot":"2","type":"t_uint256"},{"astId":387,"contract":"contracts/Raffles.sol:Raffles","label":"prizeIndex","offset":0,"slot":"3","type":"t_uint256"},{"astId":389,"contract":"contracts/Raffles.sol:Raffles","label":"drawnAt","offset":0,"slot":"4","type":"t_uint256"},{"astId":391,"contract":"contracts/Raffles.sol:Raffles","label":"claimedAt","offset":0,"slot":"5","type":"t_uint256"}],"numberOfBytes":"192"},"t_struct(Participant)377_storage":{"encoding":"inplace","label":"struct Raffles.Participant","members":[{"astId":370,"contract":"contracts/Raffles.sol:Raffles","label":"player","offset":0,"slot":"0","type":"t_address"},{"astId":372,"contract":"contracts/Raffles.sol:Raffles","label":"raffleId","offset":0,"slot":"1","type":"t_uint256"},{"astId":374,"contract":"contracts/Raffles.sol:Raffles","label":"lotteryTicketNumber","offset":0,"slot":"2","type":"t_bytes32"},{"astId":376,"contract":"contracts/Raffles.sol:Raffles","label":"participatedAt","offset":0,"slot":"3","type":"t_uint256"}],"numberOfBytes":"128"},"t_struct(Prize)368_storage":{"encoding":"inplace","label":"struct Raffles.Prize","members":[{"astId":340,"contract":"contracts/Raffles.sol:Raffles","label":"prizeType","offset":0,"slot":"0","type":"t_enum(PrizeType)337"},{"astId":342,"contract":"contracts/Raffles.sol:Raffles","label":"collectionAddress","offset":1,"slot":"0","type":"t_address"},{"astId":344,"contract":"contracts/Raffles.sol:Raffles","label":"registeredTicketQuantity","offset":0,"slot":"1","type":"t_uint256"},{"astId":346,"contract":"contracts/Raffles.sol:Raffles","label":"pickedTicketQuantity","offset":0,"slot":"2","type":"t_uint256"},{"astId":348,"contract":"contracts/Raffles.sol:Raffles","label":"order","offset":0,"slot":"3","type":"t_uint256"},{"astId":350,"contract":"contracts/Raffles.sol:Raffles","label":"rarity","offset":0,"slot":"4","type":"t_uint256"},{"astId":352,"contract":"contracts/Raffles.sol:Raffles","label":"prizeQuantity","offset":0,"slot":"5","type":"t_uint256"},{"astId":354,"contract":"contracts/Raffles.sol:Raffles","label":"startTicketNumber","offset":0,"slot":"6","type":"t_uint256"},{"astId":356,"contract":"contracts/Raffles.sol:Raffles","label":"title","offset":0,"slot":"7","type":"t_string_storage"},{"astId":358,"contract":"contracts/Raffles.sol:Raffles","label":"description","offset":0,"slot":"8","type":"t_string_storage"},{"astId":360,"contract":"contracts/Raffles.sol:Raffles","label":"imageUrl","offset":0,"slot":"9","type":"t_string_storage"},{"astId":362,"contract":"contracts/Raffles.sol:Raffles","label":"iconUrl","offset":0,"slot":"10","type":"t_string_storage"},{"astId":364,"contract":"contracts/Raffles.sol:Raffles","label":"assetId","offset":0,"slot":"11","type":"t_string_storage"},{"astId":367,"contract":"contracts/Raffles.sol:Raffles","label":"tokenIds","offset":0,"slot":"12","type":"t_array(t_uint256)dyn_storage"}],"numberOfBytes":"416"},"t_struct(Raffle)332_storage":{"encoding":"inplace","label":"struct Raffles.Raffle","members":[{"astId":315,"contract":"contracts/Raffles.sol:Raffles","label":"basicInfo","offset":0,"slot":"0","type":"t_struct(RaffleBasicInfo)263_storage"},{"astId":318,"contract":"contracts/Raffles.sol:Raffles","label":"timing","offset":0,"slot":"4","type":"t_struct(RaffleTiming)272_storage"},{"astId":321,"contract":"contracts/Raffles.sol:Raffles","label":"settings","offset":0,"slot":"8","type":"t_struct(RaffleSettings)279_storage"},{"astId":324,"contract":"contracts/Raffles.sol:Raffles","label":"fee","offset":0,"slot":"11","type":"t_struct(RaffleFee)286_storage"},{"astId":327,"contract":"contracts/Raffles.sol:Raffles","label":"status","offset":0,"slot":"14","type":"t_struct(RaffleStatus)312_storage"},{"astId":331,"contract":"contracts/Raffles.sol:Raffles","label":"prizes","offset":0,"slot":"17","type":"t_array(t_struct(Prize)368_storage)dyn_storage"}],"numberOfBytes":"576"},"t_struct(RaffleBasicInfo)263_storage":{"encoding":"inplace","label":"struct Raffles.RaffleBasicInfo","members":[{"astId":256,"contract":"contracts/Raffles.sol:Raffles","label":"title","offset":0,"slot":"0","type":"t_string_storage"},{"astId":258,"contract":"contracts/Raffles.sol:Raffles","label":"description","offset":0,"slot":"1","type":"t_string_storage"},{"astId":260,"contract":"contracts/Raffles.sol:Raffles","label":"imageUrl","offset":0,"slot":"2","type":"t_string_storage"},{"astId":262,"contract":"contracts/Raffles.sol:Raffles","label":"iconUrl","offset":0,"slot":"3","type":"t_string_storage"}],"numberOfBytes":"128"},"t_struct(RaffleFee)286_storage":{"encoding":"inplace","label":"struct Raffles.RaffleFee","members":[{"astId":281,"contract":"contracts/Raffles.sol:Raffles","label":"participationFeeAsset","offset":0,"slot":"0","type":"t_string_storage"},{"astId":283,"contract":"contracts/Raffles.sol:Raffles","label":"participationFeeAssetId","offset":0,"slot":"1","type":"t_string_storage"},{"astId":285,"contract":"contracts/Raffles.sol:Raffles","label":"participationFeeAmount","offset":0,"slot":"2","type":"t_int256"}],"numberOfBytes":"96"},"t_struct(RaffleSettings)279_storage":{"encoding":"inplace","label":"struct Raffles.RaffleSettings","members":[{"astId":274,"contract":"contracts/Raffles.sol:Raffles","label":"dynamicWeight","offset":0,"slot":"0","type":"t_bool"},{"astId":276,"contract":"contracts/Raffles.sol:Raffles","label":"participationLimit","offset":0,"slot":"1","type":"t_uint256"},{"astId":278,"contract":"contracts/Raffles.sol:Raffles","label":"participationLimitPerPlayer","offset":0,"slot":"2","type":"t_uint256"}],"numberOfBytes":"96"},"t_struct(RaffleStatus)312_storage":{"encoding":"inplace","label":"struct Raffles.RaffleStatus","members":[{"astId":305,"contract":"contracts/Raffles.sol:Raffles","label":"isActive","offset":0,"slot":"0","type":"t_bool"},{"astId":307,"contract":"contracts/Raffles.sol:Raffles","label":"isDrawn","offset":1,"slot":"0","type":"t_bool"},{"astId":309,"contract":"contracts/Raffles.sol:Raffles","label":"totalQuantity","offset":0,"slot":"1","type":"t_uint256"},{"astId":311,"contract":"contracts/Raffles.sol:Raffles","label":"remainingQuantity","offset":0,"slot":"2","type":"t_uint256"}],"numberOfBytes":"96"},"t_struct(RaffleTiming)272_storage":{"encoding":"inplace","label":"struct Raffles.RaffleTiming","members":[{"astId":265,"contract":"contracts/Raffles.sol:Raffles","label":"startDate","offset":0,"slot":"0","type":"t_uint256"},{"astId":267,"contract":"contracts/Raffles.sol:Raffles","label":"endDate","offset":0,"slot":"1","type":"t_uint256"},{"astId":269,"contract":"contracts/Raffles.sol:Raffles","label":"instantDraw","offset":0,"slot":"2","type":"t_bool"},{"astId":271,"contract":"contracts/Raffles.sol:Raffles","label":"drawDate","offset":0,"slot":"3","type":"t_uint256"}],"numberOfBytes":"128"},"t_uint256":{"encoding":"inplace","label":"uint256","numberOfBytes":"32"}}}}}}