{"contracts/Collection.sol":{"Collection":{"abi":[{"inputs":[{"internalType":"string","name":"name","type":"string"},{"internalType":"string","name":"symbol","type":"string"},{"internalType":"address","name":"initialOwner","type":"address"},{"internalType":"uint256","name":"_maxSupply","type":"uint256"},{"internalType":"uint256","name":"initialMintPrice","type":"uint256"},{"internalType":"string","name":"baseURI","type":"string"},{"internalType":"string","name":"contractURI_","type":"string"}],"stateMutability":"nonpayable","type":"constructor"},{"inputs":[],"name":"AccessControlBadConfirmation","type":"error"},{"inputs":[{"internalType":"address","name":"account","type":"address"},{"internalType":"bytes32","name":"neededRole","type":"bytes32"}],"name":"AccessControlUnauthorizedAccount","type":"error"},{"inputs":[],"name":"ApprovalCallerNotOwnerNorApproved","type":"error"},{"inputs":[],"name":"ApprovalQueryForNonexistentToken","type":"error"},{"inputs":[],"name":"BalanceQueryForZeroAddress","type":"error"},{"inputs":[{"internalType":"uint256","name":"numerator","type":"uint256"},{"internalType":"uint256","name":"denominator","type":"uint256"}],"name":"ERC2981InvalidDefaultRoyalty","type":"error"},{"inputs":[{"internalType":"address","name":"receiver","type":"address"}],"name":"ERC2981InvalidDefaultRoyaltyReceiver","type":"error"},{"inputs":[{"internalType":"uint256","name":"tokenId","type":"uint256"},{"internalType":"uint256","name":"numerator","type":"uint256"},{"internalType":"uint256","name":"denominator","type":"uint256"}],"name":"ERC2981InvalidTokenRoyalty","type":"error"},{"inputs":[{"internalType":"uint256","name":"tokenId","type":"uint256"},{"internalType":"address","name":"receiver","type":"address"}],"name":"ERC2981InvalidTokenRoyaltyReceiver","type":"error"},{"inputs":[],"name":"EnforcedPause","type":"error"},{"inputs":[],"name":"ExpectedPause","type":"error"},{"inputs":[],"name":"MintERC2309QuantityExceedsLimit","type":"error"},{"inputs":[],"name":"MintToZeroAddress","type":"error"},{"inputs":[],"name":"MintZeroQuantity","type":"error"},{"inputs":[],"name":"NotCompatibleWithSpotMints","type":"error"},{"inputs":[{"internalType":"address","name":"owner","type":"address"}],"name":"OwnableInvalidOwner","type":"error"},{"inputs":[{"internalType":"address","name":"account","type":"address"}],"name":"OwnableUnauthorizedAccount","type":"error"},{"inputs":[],"name":"OwnerQueryForNonexistentToken","type":"error"},{"inputs":[],"name":"OwnershipNotInitializedForExtraData","type":"error"},{"inputs":[],"name":"ReentrancyGuardReentrantCall","type":"error"},{"inputs":[],"name":"SequentialMintExceedsLimit","type":"error"},{"inputs":[],"name":"SequentialUpToTooSmall","type":"error"},{"inputs":[],"name":"SpotMintTokenIdTooSmall","type":"error"},{"inputs":[],"name":"TokenAlreadyExists","type":"error"},{"inputs":[],"name":"TransferCallerNotOwnerNorApproved","type":"error"},{"inputs":[],"name":"TransferFromIncorrectOwner","type":"error"},{"inputs":[],"name":"TransferToNonERC721ReceiverImplementer","type":"error"},{"inputs":[],"name":"TransferToZeroAddress","type":"error"},{"inputs":[],"name":"URIQueryForNonexistentToken","type":"error"},{"anonymous":false,"inputs":[{"indexed":true,"internalType":"address","name":"owner","type":"address"},{"indexed":true,"internalType":"address","name":"approved","type":"address"},{"indexed":true,"internalType":"uint256","name":"tokenId","type":"uint256"}],"name":"Approval","type":"event"},{"anonymous":false,"inputs":[{"indexed":true,"internalType":"address","name":"owner","type":"address"},{"indexed":true,"internalType":"address","name":"operator","type":"address"},{"indexed":false,"internalType":"bool","name":"approved","type":"bool"}],"name":"ApprovalForAll","type":"event"},{"anonymous":false,"inputs":[{"indexed":false,"internalType":"uint256","name":"oldBlockTime","type":"uint256"},{"indexed":false,"internalType":"uint256","name":"newBlockTime","type":"uint256"}],"name":"AverageBlockTimeUpdated","type":"event"},{"anonymous":false,"inputs":[{"indexed":false,"internalType":"string","name":"baseURI","type":"string"}],"name":"BaseURIUpdated","type":"event"},{"anonymous":false,"inputs":[{"indexed":true,"internalType":"address","name":"to","type":"address"},{"indexed":false,"internalType":"uint256","name":"quantity","type":"uint256"},{"indexed":false,"internalType":"uint256","name":"gasPrice","type":"uint256"},{"indexed":false,"internalType":"uint256","name":"estimatedTime","type":"uint256"}],"name":"BatchMintGasInfo","type":"event"},{"anonymous":false,"inputs":[{"indexed":true,"internalType":"address","name":"to","type":"address"},{"indexed":false,"internalType":"uint256","name":"startTokenId","type":"uint256"},{"indexed":false,"internalType":"uint256","name":"quantity","type":"uint256"},{"indexed":false,"internalType":"uint256","name":"gasPrice","type":"uint256"}],"name":"BatchMinted","type":"event"},{"anonymous":false,"inputs":[{"indexed":true,"internalType":"uint256","name":"fromTokenId","type":"uint256"},{"indexed":false,"internalType":"uint256","name":"toTokenId","type":"uint256"},{"indexed":true,"internalType":"address","name":"from","type":"address"},{"indexed":true,"internalType":"address","name":"to","type":"address"}],"name":"ConsecutiveTransfer","type":"event"},{"anonymous":false,"inputs":[{"indexed":false,"internalType":"string","name":"contractURI","type":"string"}],"name":"ContractURIUpdated","type":"event"},{"anonymous":false,"inputs":[{"indexed":true,"internalType":"address","name":"escrow","type":"address"},{"indexed":true,"internalType":"address","name":"to","type":"address"},{"indexed":false,"internalType":"uint256","name":"fromTokenId","type":"uint256"},{"indexed":false,"internalType":"uint256","name":"quantity","type":"uint256"},{"indexed":false,"internalType":"uint256","name":"gasPrice","type":"uint256"}],"name":"EscrowBatchMinted","type":"event"},{"anonymous":false,"inputs":[{"indexed":true,"internalType":"address","name":"account","type":"address"}],"name":"EscrowRoleGranted","type":"event"},{"anonymous":false,"inputs":[{"indexed":true,"internalType":"address","name":"account","type":"address"}],"name":"EscrowRoleRevoked","type":"event"},{"anonymous":false,"inputs":[{"indexed":true,"internalType":"address","name":"from","type":"address"},{"indexed":true,"internalType":"address","name":"to","type":"address"},{"indexed":false,"internalType":"uint256","name":"tokenId","type":"uint256"},{"indexed":false,"internalType":"uint256","name":"gasPrice","type":"uint256"}],"name":"EscrowTransferred","type":"event"},{"anonymous":false,"inputs":[{"indexed":false,"internalType":"uint256","name":"period","type":"uint256"}],"name":"GlobalLockupPeriodUpdated","type":"event"},{"anonymous":false,"inputs":[{"indexed":false,"internalType":"uint256","name":"oldPrice","type":"uint256"},{"indexed":false,"internalType":"uint256","name":"newPrice","type":"uint256"}],"name":"MintPriceUpdated","type":"event"},{"anonymous":false,"inputs":[{"indexed":false,"internalType":"bool","name":"enabled","type":"bool"}],"name":"MintingStatusUpdated","type":"event"},{"anonymous":false,"inputs":[{"indexed":true,"internalType":"address","name":"previousOwner","type":"address"},{"indexed":true,"internalType":"address","name":"newOwner","type":"address"}],"name":"OwnershipTransferred","type":"event"},{"anonymous":false,"inputs":[{"indexed":false,"internalType":"address","name":"account","type":"address"}],"name":"Paused","type":"event"},{"anonymous":false,"inputs":[{"indexed":true,"internalType":"uint256","name":"rewardId","type":"uint256"}],"name":"RewardActivated","type":"event"},{"anonymous":false,"inputs":[{"indexed":true,"internalType":"uint256","name":"rewardId","type":"uint256"},{"indexed":true,"internalType":"string","name":"rewardType","type":"string"},{"indexed":false,"internalType":"uint256","name":"amount","type":"uint256"},{"indexed":false,"internalType":"string","name":"description","type":"string"},{"indexed":false,"internalType":"string","name":"metadata","type":"string"},{"indexed":false,"internalType":"string","name":"functionAbi","type":"string"},{"indexed":false,"internalType":"uint256","name":"activeAt","type":"uint256"},{"indexed":false,"internalType":"uint256","name":"deactiveAt","type":"uint256"},{"indexed":false,"internalType":"uint256","name":"claimableStakedTime","type":"uint256"}],"name":"RewardAdded","type":"event"},{"anonymous":false,"inputs":[{"indexed":true,"internalType":"uint256","name":"rewardId","type":"uint256"},{"indexed":true,"internalType":"uint256","name":"tokenId","type":"uint256"},{"indexed":true,"internalType":"address","name":"staker","type":"address"},{"indexed":false,"internalType":"uint256","name":"amount","type":"uint256"},{"indexed":false,"internalType":"uint256","name":"claimedAt","type":"uint256"}],"name":"RewardClaimed","type":"event"},{"anonymous":false,"inputs":[{"indexed":true,"internalType":"uint256","name":"rewardId","type":"uint256"}],"name":"RewardDeactivated","type":"event"},{"anonymous":false,"inputs":[{"indexed":true,"internalType":"uint256","name":"rewardId","type":"uint256"},{"indexed":true,"internalType":"uint256","name":"tokenId","type":"uint256"},{"indexed":true,"internalType":"address","name":"staker","type":"address"},{"indexed":false,"internalType":"string","name":"reason","type":"string"},{"indexed":false,"internalType":"uint256","name":"revokedAt","type":"uint256"}],"name":"RewardRevoked","type":"event"},{"anonymous":false,"inputs":[{"indexed":true,"internalType":"bytes32","name":"role","type":"bytes32"},{"indexed":true,"internalType":"bytes32","name":"previousAdminRole","type":"bytes32"},{"indexed":true,"internalType":"bytes32","name":"newAdminRole","type":"bytes32"}],"name":"RoleAdminChanged","type":"event"},{"anonymous":false,"inputs":[{"indexed":true,"internalType":"bytes32","name":"role","type":"bytes32"},{"indexed":true,"internalType":"address","name":"account","type":"address"},{"indexed":true,"internalType":"address","name":"sender","type":"address"}],"name":"RoleGranted","type":"event"},{"anonymous":false,"inputs":[{"indexed":true,"internalType":"bytes32","name":"role","type":"bytes32"},{"indexed":true,"internalType":"address","name":"account","type":"address"},{"indexed":true,"internalType":"address","name":"sender","type":"address"}],"name":"RoleRevoked","type":"event"},{"anonymous":false,"inputs":[{"indexed":true,"internalType":"address","name":"receiver","type":"address"},{"indexed":false,"internalType":"uint96","name":"basisPoints","type":"uint96"}],"name":"RoyaltyInfoUpdated","type":"event"},{"anonymous":false,"inputs":[{"indexed":true,"internalType":"address","name":"owner","type":"address"},{"indexed":false,"internalType":"uint256","name":"tokenId","type":"uint256"}],"name":"TokenBurned","type":"event"},{"anonymous":false,"inputs":[{"indexed":true,"internalType":"uint256","name":"tokenId","type":"uint256"},{"indexed":false,"internalType":"uint256","name":"lockedAt","type":"uint256"},{"indexed":false,"internalType":"uint256","name":"unlockScheduledAt","type":"uint256"}],"name":"TokenLocked","type":"event"},{"anonymous":false,"inputs":[{"indexed":true,"internalType":"uint256","name":"tokenId","type":"uint256"},{"indexed":true,"internalType":"address","name":"staker","type":"address"},{"indexed":false,"internalType":"uint256","name":"stakedAt","type":"uint256"},{"indexed":false,"internalType":"uint256","name":"unstakeScheduledAt","type":"uint256"}],"name":"TokenStaked","type":"event"},{"anonymous":false,"inputs":[{"indexed":true,"internalType":"uint256","name":"tokenId","type":"uint256"},{"indexed":false,"internalType":"uint256","name":"unlockedAt","type":"uint256"}],"name":"TokenUnlocked","type":"event"},{"anonymous":false,"inputs":[{"indexed":true,"internalType":"uint256","name":"tokenId","type":"uint256"},{"indexed":true,"internalType":"address","name":"staker","type":"address"},{"indexed":false,"internalType":"uint256","name":"unstakedAt","type":"uint256"}],"name":"TokenUnstaked","type":"event"},{"anonymous":false,"inputs":[{"indexed":true,"internalType":"address","name":"from","type":"address"},{"indexed":true,"internalType":"address","name":"to","type":"address"},{"indexed":true,"internalType":"uint256","name":"tokenId","type":"uint256"}],"name":"Transfer","type":"event"},{"anonymous":false,"inputs":[{"indexed":false,"internalType":"address","name":"account","type":"address"}],"name":"Unpaused","type":"event"},{"inputs":[],"name":"DEFAULT_ADMIN_ROLE","outputs":[{"internalType":"bytes32","name":"","type":"bytes32"}],"stateMutability":"view","type":"function"},{"inputs":[],"name":"ESCROW_ROLE","outputs":[{"internalType":"bytes32","name":"","type":"bytes32"}],"stateMutability":"view","type":"function"},{"inputs":[{"internalType":"uint256","name":"rewardId","type":"uint256"}],"name":"activateReward","outputs":[],"stateMutability":"nonpayable","type":"function"},{"inputs":[{"internalType":"string","name":"rewardType","type":"string"},{"internalType":"uint256","name":"amount","type":"uint256"},{"internalType":"string","name":"description","type":"string"},{"internalType":"string","name":"metadata","type":"string"},{"internalType":"string","name":"functionAbi","type":"string"},{"internalType":"uint256","name":"activeAt","type":"uint256"},{"internalType":"uint256","name":"deactiveAt","type":"uint256"},{"internalType":"uint256","name":"claimableStakedTime","type":"uint256"}],"name":"addReward","outputs":[],"stateMutability":"nonpayable","type":"function"},{"inputs":[{"internalType":"address","name":"to","type":"address"},{"internalType":"uint256","name":"tokenId","type":"uint256"}],"name":"approve","outputs":[],"stateMutability":"payable","type":"function"},{"inputs":[],"name":"averageBlockTime","outputs":[{"internalType":"uint256","name":"","type":"uint256"}],"stateMutability":"view","type":"function"},{"inputs":[{"internalType":"address","name":"owner","type":"address"}],"name":"balanceOf","outputs":[{"internalType":"uint256","name":"","type":"uint256"}],"stateMutability":"view","type":"function"},{"inputs":[{"internalType":"address","name":"to","type":"address"},{"internalType":"uint256","name":"quantity","type":"uint256"},{"internalType":"uint256","name":"gasFee","type":"uint256"}],"name":"batchMint","outputs":[],"stateMutability":"nonpayable","type":"function"},{"inputs":[{"internalType":"uint256","name":"tokenId","type":"uint256"}],"name":"burn","outputs":[],"stateMutability":"nonpayable","type":"function"},{"inputs":[{"internalType":"uint256","name":"rewardId","type":"uint256"},{"internalType":"uint256","name":"tokenId","type":"uint256"}],"name":"claimReward","outputs":[],"stateMutability":"nonpayable","type":"function"},{"inputs":[{"internalType":"uint256","name":"","type":"uint256"},{"internalType":"uint256","name":"","type":"uint256"}],"name":"claimedRewards","outputs":[{"internalType":"uint256","name":"rewardId","type":"uint256"},{"internalType":"uint256","name":"tokenId","type":"uint256"},{"internalType":"address","name":"staker","type":"address"},{"internalType":"uint256","name":"stakedAt","type":"uint256"},{"internalType":"uint256","name":"claimedAt","type":"uint256"},{"internalType":"bool","name":"isClaimed","type":"bool"},{"internalType":"bool","name":"isRevoked","type":"bool"},{"internalType":"uint256","name":"revokedAt","type":"uint256"},{"internalType":"string","name":"revokedReason","type":"string"},{"internalType":"uint256","name":"createdAt","type":"uint256"}],"stateMutability":"view","type":"function"},{"inputs":[{"internalType":"uint256","name":"rewardId","type":"uint256"}],"name":"deactivateReward","outputs":[],"stateMutability":"nonpayable","type":"function"},{"inputs":[],"name":"domainSeparator","outputs":[{"internalType":"bytes32","name":"","type":"bytes32"}],"stateMutability":"view","type":"function"},{"inputs":[{"internalType":"address","name":"from","type":"address"},{"internalType":"address","name":"to","type":"address"},{"internalType":"uint256","name":"tokenId","type":"uint256"},{"internalType":"bytes","name":"signature","type":"bytes"},{"internalType":"uint256","name":"gasFee","type":"uint256"}],"name":"escrowTransfer","outputs":[],"stateMutability":"nonpayable","type":"function"},{"inputs":[{"internalType":"uint256","name":"tokenId","type":"uint256"}],"name":"forceUnlockToken","outputs":[],"stateMutability":"nonpayable","type":"function"},{"inputs":[{"internalType":"uint256[]","name":"tokenIds","type":"uint256[]"}],"name":"forceUnlockTokenBatch","outputs":[],"stateMutability":"nonpayable","type":"function"},{"inputs":[{"internalType":"uint256","name":"tokenId","type":"uint256"}],"name":"forceUnstakeToken","outputs":[],"stateMutability":"nonpayable","type":"function"},{"inputs":[{"internalType":"uint256[]","name":"tokenIds","type":"uint256[]"}],"name":"forceUnstakeTokenBatch","outputs":[],"stateMutability":"nonpayable","type":"function"},{"inputs":[{"internalType":"uint256","name":"tokenId","type":"uint256"}],"name":"getApproved","outputs":[{"internalType":"address","name":"","type":"address"}],"stateMutability":"view","type":"function"},{"inputs":[{"internalType":"uint256","name":"tokenId","type":"uint256"},{"internalType":"uint256","name":"rewardId","type":"uint256"}],"name":"getClaimedReward","outputs":[{"components":[{"internalType":"uint256","name":"rewardId","type":"uint256"},{"internalType":"uint256","name":"tokenId","type":"uint256"},{"internalType":"address","name":"staker","type":"address"},{"internalType":"uint256","name":"stakedAt","type":"uint256"},{"internalType":"uint256","name":"claimedAt","type":"uint256"},{"internalType":"bool","name":"isClaimed","type":"bool"},{"internalType":"bool","name":"isRevoked","type":"bool"},{"internalType":"uint256","name":"revokedAt","type":"uint256"},{"internalType":"string","name":"revokedReason","type":"string"},{"internalType":"uint256","name":"createdAt","type":"uint256"}],"internalType":"struct Collection.ClaimedReward","name":"","type":"tuple"}],"stateMutability":"view","type":"function"},{"inputs":[{"internalType":"uint256","name":"tokenId","type":"uint256"}],"name":"getClaimedRewards","outputs":[{"components":[{"internalType":"uint256","name":"rewardId","type":"uint256"},{"internalType":"uint256","name":"tokenId","type":"uint256"},{"internalType":"address","name":"staker","type":"address"},{"internalType":"uint256","name":"stakedAt","type":"uint256"},{"internalType":"uint256","name":"claimedAt","type":"uint256"},{"internalType":"bool","name":"isClaimed","type":"bool"},{"internalType":"bool","name":"isRevoked","type":"bool"},{"internalType":"uint256","name":"revokedAt","type":"uint256"},{"internalType":"string","name":"revokedReason","type":"string"},{"internalType":"uint256","name":"createdAt","type":"uint256"}],"internalType":"struct Collection.ClaimedReward[]","name":"","type":"tuple[]"}],"stateMutability":"view","type":"function"},{"inputs":[],"name":"getDomainSeparator","outputs":[{"internalType":"bytes32","name":"","type":"bytes32"}],"stateMutability":"view","type":"function"},{"inputs":[{"internalType":"address","name":"from","type":"address"},{"internalType":"address","name":"to","type":"address"},{"internalType":"uint256","name":"tokenId","type":"uint256"}],"name":"getMessageHash","outputs":[{"internalType":"bytes32","name":"","type":"bytes32"}],"stateMutability":"view","type":"function"},{"inputs":[{"internalType":"uint256","name":"rewardId","type":"uint256"}],"name":"getReward","outputs":[{"components":[{"internalType":"uint256","name":"rewardId","type":"uint256"},{"internalType":"string","name":"rewardType","type":"string"},{"internalType":"uint256","name":"amount","type":"uint256"},{"internalType":"string","name":"description","type":"string"},{"internalType":"bool","name":"isActive","type":"bool"},{"internalType":"uint256","name":"activeAt","type":"uint256"},{"internalType":"uint256","name":"deactiveAt","type":"uint256"},{"internalType":"uint256","name":"claimableStakedTime","type":"uint256"},{"internalType":"string","name":"metadata","type":"string"},{"internalType":"string","name":"functionAbi","type":"string"},{"internalType":"uint256","name":"createdAt","type":"uint256"}],"internalType":"struct Collection.Reward","name":"","type":"tuple"}],"stateMutability":"view","type":"function"},{"inputs":[{"internalType":"bytes32","name":"role","type":"bytes32"}],"name":"getRoleAdmin","outputs":[{"internalType":"bytes32","name":"","type":"bytes32"}],"stateMutability":"view","type":"function"},{"inputs":[{"internalType":"uint256","name":"tokenId","type":"uint256"}],"name":"getStakingStatus","outputs":[{"components":[{"internalType":"uint256","name":"tokenId","type":"uint256"},{"internalType":"address","name":"staker","type":"address"},{"internalType":"uint256","name":"stakedAt","type":"uint256"},{"internalType":"uint256","name":"unstakeScheduledAt","type":"uint256"},{"internalType":"uint256","name":"unstakedAt","type":"uint256"},{"internalType":"bool","name":"isStaked","type":"bool"}],"internalType":"struct Collection.StakedToken","name":"","type":"tuple"}],"stateMutability":"view","type":"function"},{"inputs":[{"internalType":"uint256[]","name":"tokenIds","type":"uint256[]"}],"name":"getStakingStatusBatch","outputs":[{"components":[{"internalType":"uint256","name":"tokenId","type":"uint256"},{"internalType":"address","name":"staker","type":"address"},{"internalType":"uint256","name":"stakedAt","type":"uint256"},{"internalType":"uint256","name":"unstakeScheduledAt","type":"uint256"},{"internalType":"uint256","name":"unstakedAt","type":"uint256"},{"internalType":"bool","name":"isStaked","type":"bool"}],"internalType":"struct Collection.StakedToken[]","name":"","type":"tuple[]"}],"stateMutability":"view","type":"function"},{"inputs":[],"name":"globalLockupPeriod","outputs":[{"internalType":"uint256","name":"","type":"uint256"}],"stateMutability":"view","type":"function"},{"inputs":[{"internalType":"address","name":"account","type":"address"}],"name":"grantEscrowRole","outputs":[],"stateMutability":"nonpayable","type":"function"},{"inputs":[{"internalType":"bytes32","name":"role","type":"bytes32"},{"internalType":"address","name":"account","type":"address"}],"name":"grantRole","outputs":[],"stateMutability":"nonpayable","type":"function"},{"inputs":[{"internalType":"bytes32","name":"role","type":"bytes32"},{"internalType":"address","name":"account","type":"address"}],"name":"hasRole","outputs":[{"internalType":"bool","name":"","type":"bool"}],"stateMutability":"view","type":"function"},{"inputs":[{"internalType":"address","name":"owner","type":"address"},{"internalType":"address","name":"operator","type":"address"}],"name":"isApprovedForAll","outputs":[{"internalType":"bool","name":"","type":"bool"}],"stateMutability":"view","type":"function"},{"inputs":[{"internalType":"uint256","name":"tokenId","type":"uint256"}],"name":"isTokenLocked","outputs":[{"internalType":"bool","name":"","type":"bool"}],"stateMutability":"view","type":"function"},{"inputs":[{"internalType":"uint256","name":"","type":"uint256"}],"name":"lockedAt","outputs":[{"internalType":"uint256","name":"","type":"uint256"}],"stateMutability":"view","type":"function"},{"inputs":[],"name":"maxSupply","outputs":[{"internalType":"uint256","name":"","type":"uint256"}],"stateMutability":"view","type":"function"},{"inputs":[],"name":"mintPrice","outputs":[{"internalType":"uint256","name":"","type":"uint256"}],"stateMutability":"view","type":"function"},{"inputs":[],"name":"mintingEnabled","outputs":[{"internalType":"bool","name":"","type":"bool"}],"stateMutability":"view","type":"function"},{"inputs":[],"name":"name","outputs":[{"internalType":"string","name":"","type":"string"}],"stateMutability":"view","type":"function"},{"inputs":[],"name":"nextRewardId","outputs":[{"internalType":"uint256","name":"","type":"uint256"}],"stateMutability":"view","type":"function"},{"inputs":[{"internalType":"address","name":"owner","type":"address"}],"name":"nonce","outputs":[{"internalType":"uint256","name":"","type":"uint256"}],"stateMutability":"view","type":"function"},{"inputs":[],"name":"owner","outputs":[{"internalType":"address","name":"","type":"address"}],"stateMutability":"view","type":"function"},{"inputs":[{"internalType":"uint256","name":"tokenId","type":"uint256"}],"name":"ownerOf","outputs":[{"internalType":"address","name":"","type":"address"}],"stateMutability":"view","type":"function"},{"inputs":[],"name":"pause","outputs":[],"stateMutability":"nonpayable","type":"function"},{"inputs":[],"name":"paused","outputs":[{"internalType":"bool","name":"","type":"bool"}],"stateMutability":"view","type":"function"},{"inputs":[],"name":"renounceOwnership","outputs":[],"stateMutability":"nonpayable","type":"function"},{"inputs":[{"internalType":"bytes32","name":"role","type":"bytes32"},{"internalType":"address","name":"callerConfirmation","type":"address"}],"name":"renounceRole","outputs":[],"stateMutability":"nonpayable","type":"function"},{"inputs":[{"internalType":"uint256","name":"rewardId","type":"uint256"},{"internalType":"uint256","name":"tokenId","type":"uint256"},{"internalType":"string","name":"reason","type":"string"}],"name":"revokeClaimedReward","outputs":[],"stateMutability":"nonpayable","type":"function"},{"inputs":[{"internalType":"address","name":"account","type":"address"}],"name":"revokeEscrowRole","outputs":[],"stateMutability":"nonpayable","type":"function"},{"inputs":[{"internalType":"bytes32","name":"role","type":"bytes32"},{"internalType":"address","name":"account","type":"address"}],"name":"revokeRole","outputs":[],"stateMutability":"nonpayable","type":"function"},{"inputs":[{"internalType":"uint256","name":"","type":"uint256"}],"name":"rewards","outputs":[{"internalType":"uint256","name":"rewardId","type":"uint256"},{"internalType":"string","name":"rewardType","type":"string"},{"internalType":"uint256","name":"amount","type":"uint256"},{"internalType":"string","name":"description","type":"string"},{"internalType":"bool","name":"isActive","type":"bool"},{"internalType":"uint256","name":"activeAt","type":"uint256"},{"internalType":"uint256","name":"deactiveAt","type":"uint256"},{"internalType":"uint256","name":"claimableStakedTime","type":"uint256"},{"internalType":"string","name":"metadata","type":"string"},{"internalType":"string","name":"functionAbi","type":"string"},{"internalType":"uint256","name":"createdAt","type":"uint256"}],"stateMutability":"view","type":"function"},{"inputs":[{"internalType":"uint256","name":"tokenId","type":"uint256"},{"internalType":"uint256","name":"salePrice","type":"uint256"}],"name":"royaltyInfo","outputs":[{"internalType":"address","name":"receiver","type":"address"},{"internalType":"uint256","name":"amount","type":"uint256"}],"stateMutability":"view","type":"function"},{"inputs":[{"internalType":"address","name":"from","type":"address"},{"internalType":"address","name":"to","type":"address"},{"internalType":"uint256","name":"tokenId","type":"uint256"}],"name":"safeTransferFrom","outputs":[],"stateMutability":"payable","type":"function"},{"inputs":[{"internalType":"address","name":"from","type":"address"},{"internalType":"address","name":"to","type":"address"},{"internalType":"uint256","name":"tokenId","type":"uint256"},{"internalType":"bytes","name":"_data","type":"bytes"}],"name":"safeTransferFrom","outputs":[],"stateMutability":"payable","type":"function"},{"inputs":[{"internalType":"address","name":"operator","type":"address"},{"internalType":"bool","name":"approved","type":"bool"}],"name":"setApprovalForAll","outputs":[],"stateMutability":"nonpayable","type":"function"},{"inputs":[{"internalType":"uint256","name":"blockTime","type":"uint256"}],"name":"setAverageBlockTime","outputs":[],"stateMutability":"nonpayable","type":"function"},{"inputs":[{"internalType":"string","name":"baseURI_","type":"string"}],"name":"setBaseURI","outputs":[],"stateMutability":"nonpayable","type":"function"},{"inputs":[{"internalType":"string","name":"contractURI_","type":"string"}],"name":"setContractURI","outputs":[],"stateMutability":"nonpayable","type":"function"},{"inputs":[{"internalType":"address","name":"receiver","type":"address"},{"internalType":"uint96","name":"basisPoints","type":"uint96"}],"name":"setDefaultRoyalty","outputs":[],"stateMutability":"nonpayable","type":"function"},{"inputs":[{"internalType":"uint256","name":"tokenId","type":"uint256"},{"internalType":"uint256","name":"unlockScheduledTime","type":"uint256"}],"name":"setLockToken","outputs":[],"stateMutability":"nonpayable","type":"function"},{"inputs":[{"internalType":"uint256[]","name":"tokenIds","type":"uint256[]"},{"internalType":"uint256","name":"unlockScheduledTime","type":"uint256"}],"name":"setLockTokenBatch","outputs":[],"stateMutability":"nonpayable","type":"function"},{"inputs":[{"internalType":"bool","name":"enabled","type":"bool"}],"name":"setMintingEnabled","outputs":[],"stateMutability":"nonpayable","type":"function"},{"inputs":[{"internalType":"uint256","name":"tokenId","type":"uint256"},{"internalType":"address","name":"receiver","type":"address"},{"internalType":"uint96","name":"basisPoints","type":"uint96"}],"name":"setTokenRoyalty","outputs":[],"stateMutability":"nonpayable","type":"function"},{"inputs":[{"internalType":"uint256","name":"tokenId","type":"uint256"}],"name":"setUnlockToken","outputs":[],"stateMutability":"nonpayable","type":"function"},{"inputs":[{"internalType":"uint256[]","name":"tokenIds","type":"uint256[]"}],"name":"setUnlockTokenBatch","outputs":[],"stateMutability":"nonpayable","type":"function"},{"inputs":[{"internalType":"uint256","name":"tokenId","type":"uint256"},{"internalType":"uint256","name":"unstakeScheduledTime","type":"uint256"}],"name":"stakeToken","outputs":[],"stateMutability":"nonpayable","type":"function"},{"inputs":[{"internalType":"uint256[]","name":"tokenIds","type":"uint256[]"},{"internalType":"uint256","name":"unstakeScheduledTime","type":"uint256"}],"name":"stakeTokenBatch","outputs":[],"stateMutability":"nonpayable","type":"function"},{"inputs":[{"internalType":"uint256","name":"","type":"uint256"}],"name":"stakedTokens","outputs":[{"internalType":"uint256","name":"tokenId","type":"uint256"},{"internalType":"address","name":"staker","type":"address"},{"internalType":"uint256","name":"stakedAt","type":"uint256"},{"internalType":"uint256","name":"unstakeScheduledAt","type":"uint256"},{"internalType":"uint256","name":"unstakedAt","type":"uint256"},{"internalType":"bool","name":"isStaked","type":"bool"}],"stateMutability":"view","type":"function"},{"inputs":[{"internalType":"bytes4","name":"interfaceId","type":"bytes4"}],"name":"supportsInterface","outputs":[{"internalType":"bool","name":"","type":"bool"}],"stateMutability":"view","type":"function"},{"inputs":[],"name":"symbol","outputs":[{"internalType":"string","name":"","type":"string"}],"stateMutability":"view","type":"function"},{"inputs":[{"internalType":"uint256","name":"tokenId","type":"uint256"}],"name":"tokenURI","outputs":[{"internalType":"string","name":"","type":"string"}],"stateMutability":"view","type":"function"},{"inputs":[],"name":"totalSupply","outputs":[{"internalType":"uint256","name":"","type":"uint256"}],"stateMutability":"view","type":"function"},{"inputs":[{"internalType":"address","name":"from","type":"address"},{"internalType":"address","name":"to","type":"address"},{"internalType":"uint256","name":"tokenId","type":"uint256"}],"name":"transferFrom","outputs":[],"stateMutability":"payable","type":"function"},{"inputs":[{"internalType":"address","name":"newOwner","type":"address"}],"name":"transferOwnership","outputs":[],"stateMutability":"nonpayable","type":"function"},{"inputs":[{"internalType":"uint256","name":"","type":"uint256"}],"name":"unlockScheduledAt","outputs":[{"internalType":"uint256","name":"","type":"uint256"}],"stateMutability":"view","type":"function"},{"inputs":[{"internalType":"uint256","name":"","type":"uint256"}],"name":"unlockedAt","outputs":[{"internalType":"uint256","name":"","type":"uint256"}],"stateMutability":"view","type":"function"},{"inputs":[],"name":"unpause","outputs":[],"stateMutability":"nonpayable","type":"function"},{"inputs":[{"internalType":"uint256","name":"tokenId","type":"uint256"}],"name":"unstakeToken","outputs":[],"stateMutability":"nonpayable","type":"function"},{"inputs":[{"internalType":"uint256[]","name":"tokenIds","type":"uint256[]"}],"name":"unstakeTokenBatch","outputs":[],"stateMutability":"nonpayable","type":"function"}],"evm":{"bytecode":{"linkReferences":{},"object":"60806040523461003157610020610014610206565b9594909493919361051a565b604051616601610a4d823961660190f35b600080fd5b634e487b7160e01b600052604160045260246000fd5b90601f01601f191681019081106001600160401b0382111761006d57604052565b610036565b9061008661007f60405190565b928361004c565b565b6001600160401b03811161006d57602090601f01601f19160190565b60005b8381106100b75750506000910152565b81810151838201526020016100a7565b909291926100dc6100d782610088565b610072565b9381855281830111610031576100869160208501906100a4565b9080601f83011215610031578151610110926020016100c7565b90565b6001600160a01b031690565b6001600160a01b0381165b0361003157565b905051906100868261011f565b8061012a565b905051906100868261013e565b9060e0828203126100315781516001600160401b03811161003157816101789184016100f6565b60208301519093906001600160401b038111610031578261019a9185016100f6565b926101a88360408301610131565b926101b68160608401610144565b926101c48260808501610144565b60a08401519093906001600160401b03811161003157836101e69183016100f6565b60c08201519093906001600160401b0381116100315761011092016100f6565b61022461704e8038038061021981610072565b928339810190610151565b90919293949596565b90600019905b9181191691161790565b6101106101106101109290565b9061025a6101106102619261023d565b825461022d565b9055565b634e487b7160e01b600052602260045260246000fd5b906001600283049216801561029b575b602083101461029657565b610265565b91607f169161028b565b9160001960089290920291821b911b610233565b91906102ca6101106102619361023d565b9083546102a5565b610086916000916102b9565b8181106102e9575050565b806102f760006001936102d2565b016102de565b9190601f811161030c57505050565b61031e61008693600052602060002090565b906020601f840181900483019310610340575b6020601f9091010401906102de565b9091508190610331565b90610353815190565b906001600160401b03821161006d5761037682610370855461027b565b856102fd565b602090601f83116001146103b1576102619291600091836103a6575b5050600019600883021c1916906002021790565b015190503880610392565b601f198316916103c685600052602060002090565b9260005b818110610404575091600293918560019694106103eb575b50505002019055565b01516000196008601f8516021c191690553880806103e2565b919360206001819287870151815501950192016103ca565b906100869161034a565b9060ff90610233565b9061043f61011061026192151590565b8254610426565b610110600061023d565b9061045d6100d783610088565b918252565b61046c6001610450565b603160f81b602082015290565b610110610462565b61011090610113906001600160a01b031682565b61011090610481565b61011090610495565b9052565b90959492610086946104dd6104e4926104d66080966104cf60a088019c6000890152565b6020870152565b6040850152565b6060830152565b01906001600160a01b03169052565b9061025a6101106102619290565b61050e6101106101109290565b6001600160601b031690565b9194956105556100869761054e61064d976105476105bc9861054061055c988a8e61065d565b601361024a565b601461024a565b601061041c565b601161041c565b6105686000601261042f565b61057c610575600061023d565b601661024a565b61058d84610588610446565b61077a565b506105b8847f2fdac322ee704ce09f0773f7f3f92eb98d5e7c836ee9c056cccd5f61041e5e3f61077a565b5090565b6105ce6105c7825190565b9160200190565b2061063a6105da610479565b6105e56105c7825190565b20916105f03061049e565b9261062e6105fd60405190565b948593602085019346917f8b73c3c69bb8fe3d512ecc4cf759cc79239f7b179b0ffacaa9a75d522b39400f866104ab565b9081038252038261004c565b6106456105c7825190565b20600e6104f3565b6106576000610501565b906108f1565b610086928392839283928392839261067a565b610110600161023d565b906106859291610697565b610086610690610670565b600a61024a565b9061008692916106b8565b6101136101106101109290565b610110906106a2565b916106c29161070e565b60006106cd816106af565b6001600160a01b0381166001600160a01b038416146106f1575050610086906109c3565b631e4fbdf760e01b82526001600160a01b03166004820152602490fd5b610086916107289161072190600261041c565b600361041c565b610730610446565b61073b81600061024a565b61074c6107486000199290565b9190565b1061075357565b63fed8210f60e01b610a14565b905b600052602052604060002090565b906107629061049e565b61078b6107878383610a1d565b1590565b156107ff576107b160016107ac8460006107a686600b610760565b01610770565b61042f565b6107cb6107c56107bf339390565b9361049e565b9161049e565b917f2f8788117e7eff1d82e926ec794901d17c78024a50270940304540a733656f0d6107f660405190565b600090a4600190565b5050600090565b6101109081906001600160601b031681565b6104a790610806565b91602061008692949361083c60408201966000830190610818565b0152565b6101106040610072565b906001600160a01b0390610233565b906108696101106102619261049e565b825461084a565b906001600160a01b03199060a01b610233565b6101109061050e906001600160601b031682565b906108a761011061026192610883565b8254610870565b610086916108e1906020906108d36108cd82516001600160a01b031690565b85610859565b01516001600160601b031690565b90610897565b90610086916108ae565b906109026108fd610a41565b610806565b8061090c83610806565b11610991575060009161091e836106af565b6001600160a01b0381166001600160a01b038316146109745750610086929161095d61096d9261094c610840565b948501906001600160a01b03169052565b6001600160601b03166020830152565b600c6108e7565b635b6cc80560e11b84526001600160a01b03166004840152602483fd5b636f483d0960e01b6000908152916109ab91906004610821565b036000fd5b61011090610113565b61011090546109b0565b6109e36107c56109d360096109b9565b6109de846009610859565b61049e565b907f8be0079c531659141344cd1fd0a4f28419497f9722a3daafe3b4186f6b6457e0610a0e60405190565b600090a3565b60005260046000fd5b6101109160006107a6610a3a93610a32600090565b50600b610760565b5460ff1690565b61011061271061050156fe6080604052600436101561001257600080fd5b60003560e01c806301ffc9a7146104ed57806304634d8d146104e857806306fdde03146104e3578063081812fc146104de578063095ea7b3146104d957806314f93a49146104d457806317f82990146104cf57806318160ddd146104ca5780631c4b774b146104c5578063233dedf1146104c057806323b872dd146104bb5780632474e2b2146104b6578063248a9ca3146104b15780632496dd51146104ac578063276a28a3146104a75780632a55205a146104a25780632a67c1581461049d5780632a959b89146104985780632cfb6688146104935780632f2ff15d1461048e57806336568abe146104895780633736d853146104845780633f4ba83a1461047f57806342842e0e1461047a57806342966c68146104755780634ea3871a1461047057806355f804b31461046b5780635944c753146104665780635c975abb146104615780636352211e1461045c57806366cfd072146104575780636817c76c146104525780636cc232e91461044d5780636ce76f30146104485780636fc23db41461044357806370a082311461043e57806370ae92d214610439578063715018a6146104345780637c33bd701461042f57806380c474401461042a57806382666bc8146104255780638456cb591461042057806386bb8f371461041b5780638ad7d9de146104165780638da5cb5b1461041157806391d148541461040c578063938e3d7b1461040757806395d89b41146104025780639fd6db12146103fd578063a217fddf146103f8578063a22cb465146103f3578063a3e37652146103ee578063a5f10fe7146103e9578063a7b1190a146103e4578063ae594865146103df578063b5573847146103da578063b88d4fde146103d5578063bc577940146103d0578063bd39e149146103cb578063be707db1146103c6578063c0788555146103c1578063c4228aaa146103bc578063c7a5156f146103b7578063c87b56dd146103b2578063ccd40400146103ad578063d547741f146103a8578063d5abeb01146103a3578063dcae67541461039e578063dd4ba7e114610399578063e985e9c514610394578063eabdc5b41461038f578063ed24911d14610376578063f064997c1461038a578063f12e061b14610385578063f2fde38b14610380578063f301af421461037b578063f698da25146103765763ffab4bd9036104f257611b51565b611979565b611b17565b6119d3565b6119bb565b6119a0565b611961565b611945565b611901565b611875565b61184a565b611825565b61180d565b6117f2565b6117b7565b61159a565b611556565b611467565b61144f565b611433565b61141c565b6113a6565b611326565b61130d565b6112b1565b61125c565b611232565b6111f4565b6111ba565b611179565b611161565b611145565b611120565b611107565b6110ee565b6110d6565b6110ba565b611047565b611014565b610ee5565b610eca565b610eaf565b610e96565b610e7b565b610e37565b610e08565b610de4565b610dc9565b610dae565b610d95565b610d54565b610d17565b610cd6565b610cc2565b610caa565b610c92565b610c79565b610c60565b610c25565b610c0c565b610bc1565b610a18565b6109c0565b6109a7565b610956565b61093e565b61092a565b6108e6565b61089d565b6107a6565b61078d565b610774565b610708565b6106b0565b610662565b6105cd565b610534565b600080fd5b6001600160e01b031981165b036104f257565b90503590610517826104f7565b565b906020828203126104f25761052d9161050a565b90565b9052565b346104f25761056261054f61054a366004610519565b611b6a565b6040515b91829182901515815260200190565b0390f35b6001600160a01b031690565b6001600160a01b038116610503565b9050359061051782610572565b6001600160601b038116610503565b905035906105178261058e565b91906040838203126104f25761052d9060206105c68286610581565b940161059d565b346104f2576105e66105e03660046105aa565b90611c9a565b604051005b60009103126104f257565b60005b8381106106095750506000910152565b81810151838201526020016105f9565b61063a61064360209361064d9361062e815190565b80835293849260200190565b958691016105f6565b601f01601f191690565b0190565b602080825261052d92910190610619565b346104f2576106723660046105eb565b61056261067d611cad565b60405191829182610651565b80610503565b9050359061051782610689565b906020828203126104f25761052d9161068f565b346104f2576105626106cb6106c636600461069c565b611cb7565b604051918291826001600160a01b03909116815260200190565b91906040838203126104f25761052d9060206107018286610581565b940161068f565b6105e66107163660046106e5565b90611cf6565b909182601f830112156104f2578135916001600160401b0383116104f25760200192602083028401116104f257565b906020828203126104f25781356001600160401b0381116104f257610770920161071c565b9091565b346104f2576105e661078736600461074b565b90611dfa565b346104f2576105e66107a036600461074b565b90611e51565b346104f2576107b63660046105eb565b6105626107c1611e5b565b6040515b9182918290815260200190565b805182529061052d9061014080610884610870610823610802610160870160208a015188820360208a0152610619565b61081160408a01516040890152565b60608901518782036060890152610619565b60808881015115159087015261083e60a089015160a0880152565b61084d60c089015160c0880152565b61085c60e089015160e0880152565b610100880151868203610100880152610619565b610120870151858203610120870152610619565b940151910152565b602080825261052d929101906107d2565b346104f2576105626108b86108b336600461069c565b611fca565b6040519182918261088c565b61052d916008021c81565b9061052d91546108c4565b61052d6000600f6108cf565b346104f2576108f63660046105eb565b6105626107c16108da565b90916060828403126104f25761052d61091a8484610581565b9360406107018260208701610581565b6105e6610938366004610901565b91612057565b346104f2576105e661095136600461069c565b612428565b346104f2576105626107c161096c36600461069c565b612437565b916040838303126104f25782356001600160401b0381116104f2578261099e60209461052d93870161071c565b9490950161068f565b346104f2576105e66109ba366004610971565b91612533565b346104f25761056261054f6109d636600461069c565b61253e565b91906040838203126104f25761052d906020610701828661068f565b6001600160a01b0390911681526040810192916105179160200152565b0152565b346104f257610a31610a2b3660046109db565b9061266c565b90610562610a3e60405190565b928392836109f7565b634e487b7160e01b600052604160045260246000fd5b90601f01601f191681019081106001600160401b03821117610a7e57604052565b610a47565b90610517610a9060405190565b9283610a5d565b6001600160401b038111610a7e57602090601f01601f19160190565b90826000939282370152565b90929192610ad4610acf82610a97565b610a83565b93818552818301116104f257610517916020850190610ab3565b9080601f830112156104f25781602061052d93359101610abf565b9190610100838203126104f25782356001600160401b0381116104f25781610b32918501610aee565b92610b40826020830161068f565b9260408201356001600160401b0381116104f25783610b60918401610aee565b9260608301356001600160401b0381116104f25781610b80918501610aee565b9260808101356001600160401b0381116104f25782610ba0918301610aee565b9261052d610bb18460a0850161068f565b9360e06107018260c0870161068f565b346104f2576105e6610bd4366004610b09565b96959095949194939293612e3f565b90916060828403126104f25761052d610bfc8484610581565b936040610701826020870161068f565b346104f2576105e6610c1f366004610be3565b91613169565b346104f2576105e6610c3836600461069c565b613450565b91906040838203126104f25761052d906020610c59828661068f565b9401610581565b346104f2576105e6610c73366004610c3d565b90613477565b346104f2576105e6610c8c366004610c3d565b90613481565b346104f2576105e6610ca536600461069c565b61359a565b346104f257610cba3660046105eb565b6105e66135b9565b6105e6610cd0366004610901565b916135e5565b346104f2576105e6610ce936600461069c565b613649565b801515610503565b9050359061051782610cee565b906020828203126104f25761052d91610cf6565b346104f2576105e6610d2a366004610d03565b6136d5565b906020828203126104f25781356001600160401b0381116104f25761052d9201610aee565b346104f2576105e6610d67366004610d2f565b61371d565b90916060828403126104f25761052d610d85848461068f565b9360406105c68260208701610581565b346104f2576105e6610da8366004610d6c565b91613793565b346104f257610dbe3660046105eb565b61056261054f6137b4565b346104f2576105626106cb610ddf36600461069c565b6137be565b346104f2576105e6610df736600461069c565b61389d565b61052d600060146108cf565b346104f257610e183660046105eb565b6105626107c1610dfc565b906020828203126104f25761052d91610581565b346104f2576105e6610e4a366004610e23565b6138f4565b7f2fdac322ee704ce09f0773f7f3f92eb98d5e7c836ee9c056cccd5f61041e5e3f90565b61052d610e4f565b346104f257610e8b3660046105eb565b6105626107c1610e73565b346104f2576105e6610ea936600461074b565b90613961565b346104f2576105626107c1610ec5366004610e23565b61397b565b346104f2576105626107c1610ee0366004610e23565b6139be565b346104f257610ef53660046105eb565b6105e66139f2565b805182529061052d90610120806108846101408401610f2160208801516020870152565b6040878101516001600160a01b031690860152610f4360608801516060870152565b610f5260808801516080870152565b60a08781015115159086015260c087810151151590860152610f7960e088015160e0870152565b610100870151858203610100870152610619565b9061052d91610efd565b90610fad610fa3835190565b8083529160200190565b9081610fbf6020830284019460200190565b926000915b838310610fd357505050505090565b90919293946020610ff6610fef83856001950387528951610f8d565b9760200190565b9301930191939290610fc4565b602080825261052d92910190610f97565b346104f25761056261102f61102a36600461069c565b613ba2565b60405191829182611003565b61052d600060166108cf565b346104f2576110573660046105eb565b6105626107c161103b565b919060a0838203126104f2576110788184610581565b926110868260208301610581565b92611094836040840161068f565b926060830135906001600160401b0382116104f25760806107018261052d948701610aee565b346104f2576105e66110cd366004611062565b93929092613fd4565b346104f2576110e63660046105eb565b6105e6613ff7565b346104f2576105e66111013660046109db565b90614588565b346104f2576105e661111a366004610971565b916145ed565b346104f2576111303660046105eb565b6105626106cb6009546001600160a01b031690565b346104f25761056261054f61115b366004610c3d565b906145f8565b346104f2576105e6611174366004610d2f565b614657565b346104f2576111893660046105eb565b61056261067d614660565b61052d916008021c5b60ff1690565b9061052d9154611194565b61052d600060126111a3565b346104f2576111ca3660046105eb565b61056261054f6111ae565b61052d61052d61052d9290565b61052d60006111d5565b61052d6111e2565b346104f2576112043660046105eb565b6105626107c16111ec565b91906040838203126104f25761052d90602061122b8286610581565b9401610cf6565b346104f2576105e661124536600461120f565b9061466a565b602080825261052d92910190610efd565b346104f2576105626112786112723660046109db565b906146bc565b6040519182918261124b565b9061128e906111d5565b600052602052604060002090565b60006112ac61052d926018611284565b6108cf565b346104f2576105626107c16112c736600461069c565b61129c565b916060838303126104f2576112e1828461068f565b926112ef836020830161068f565b9260408201356001600160401b0381116104f25761052d9201610aee565b346104f2576105e66113203660046112cc565b91614802565b346104f2576105e661133936600461074b565b90614871565b805182526020808201516001600160a01b031690830152610517919060a090819061136f60408201516040860152565b61137e60608201516060860152565b61138d60808201516080860152565b01511515910152565b60c081019291610517919061133f565b346104f2576105626113c16113bc36600461069c565b6148af565b60405191829182611396565b906080828203126104f2576113e28183610581565b926113f08260208501610581565b926113fe836040830161068f565b9260608201356001600160401b0381116104f25761052d9201610aee565b6105e661142a3660046113cd565b929190916148c6565b346104f2576105626107c1611449366004610901565b91614917565b346104f2576105e661146236600461069c565b614a4d565b346104f2576105e661147a3660046109db565b90614bbf565b61052d9081565b61052d9054611480565b61052d9061119d565b61052d9054611491565b6114af90601a611284565b906114b982611487565b916114ce60018201546001600160a01b031690565b916114db60028301611487565b916114e860038201611487565b9161052d60056114fa60048501611487565b930161149a565b919461154761154e9298979561154060a0966115396105179a61152960c08a019e60008b0152565b6001600160a01b03166020890152565b6040870152565b6060850152565b6080830152565b019015159052565b346104f25761056261157161156c36600461069c565b6114a4565b9261158196949692919260405190565b96879687611501565b60006112ac61052d926019611284565b346104f2576105626107c16115b036600461069c565b61158a565b61052d9060081c61119d565b61052d90546115b5565b634e487b7160e01b600052602260045260246000fd5b9060016002830492168015611601575b60208310146115fc57565b6115cb565b91607f16916115f1565b8054600093929161162861161e836115e1565b8085529360200190565b916001811690811561167a575060011461164157505050565b6116549192939450600052602060002090565b916000925b8184106116665750500190565b805484840152602090930192600101611659565b92949550505060ff1916825215156020020190565b9061052d9161160b565b906105176116b3926116aa60405190565b9384809261168f565b0383610a5d565b906116c96116ce92601c611284565b611284565b906116d882611487565b916116e560018201611487565b916116fa60028301546001600160a01b031690565b9161170760038201611487565b9161171460048301611487565b916117216005820161149a565b9161172e600583016115c1565b9161173b60068201611487565b9161052d600861174d60078501611699565b9301611487565b90815260208101919091526001600160a01b0390911660408201529796959461014089019490939092909160608a01526080890152151560a0880152151560c087015260e08601528481036101008601526117ae91610619565b61012090930152565b346104f2576105626117d36117cd3660046109db565b906116ba565b966117e99a989a96919695929594939460405190565b9a8b9a8b611754565b346104f25761056261067d61180836600461069c565b614bdd565b346104f2576105e661182036600461069c565b614c66565b346104f2576105e6611838366004610c3d565b90614c8a565b61052d600060136108cf565b346104f25761185a3660046105eb565b6105626107c161183e565b60006112ac61052d926017611284565b346104f2576105626107c161188b36600461069c565b611865565b9061064d8160c09361133f565b906118bd6118b66118ac845190565b8084529260200190565b9260200190565b9060005b8181106118ce5750505090565b9091926118e86118e16001928651611890565b9460200190565b9291016118c1565b602080825261052d9291019061189d565b346104f25761056261191d61191736600461074b565b90614cd5565b604051918291826118f0565b91906040838203126104f25761052d906020610c598286610581565b346104f25761056261054f61195b366004611929565b90614d4a565b346104f2576105e661197436600461069c565b614dcc565b346104f2576119893660046105eb565b6105626107c1614dd5565b61052d6000601d6108cf565b346104f2576119b03660046105eb565b6105626107c1611994565b346104f2576105e66119ce366004610e23565b614e2d565b346104f2576105e66119e6366004610e23565b614e8e565b6119f690601b611284565b6119ff81611487565b91611a0c60018301611699565b91611a1960028201611487565b91611a2660038301611699565b91611a336004820161149a565b91611a4060058301611487565b91611a4d60068201611487565b91611a5a60078301611487565b91611a6760088201611699565b9161052d600a61174d60098501611699565b9b9a9892611b129760c08e610a146105179e9a611ae7611add6101409f9897611b039d9c611ad0611ac8611aee9b611af59e611abb6101608c019260008d0152565b8a820360208c0152610619565b926040890152565b8682036060880152610619565b9a15156080850152565b60a0830152565b60e08c0152565b8982036101008b0152610619565b90878203610120890152610619565b940152565b346104f257610562611b32611b2d36600461069c565b6119eb565b97611b489b999b97919796929695939560405190565b9b8c9b8c611a79565b346104f2576105e6611b643660046109db565b9061515b565b61052d90615165565b9061051791611b88611b83610e4f565b61518e565b611c1d565b611b9a61052d61052d9290565b6001600160601b031690565b15611bad57565b60405162461bcd60e51b815260206004820152601960248201527f526f79616c74792063616e6e6f74206578636565642031302500000000000000604482015280606481015b0390fd5b61052d90610566906001600160a01b031682565b61052d90611bf7565b61052d90611c0b565b611c95611c747fae1d656a1268648b04ffa79c1416f05879338ae295aae3234d8db217356a1c6292611c65611c536103e8611b8d565b6001600160601b0387165b1115611ba6565b611c6f858261524a565b611c14565b92611c7e60405190565b918291826001600160601b03909116815260200190565b0390a2565b9061051791611b73565b61052d90611699565b61052d6002611ca4565b611cc7611cc382615319565b1590565b611ce9576000611cdb61052d926006611284565b01546001600160a01b031690565b6333d1c03960e21b61539d565b610517916001916153a6565b9061051791611d12611b83610e4f565b611d91565b634e487b7160e01b600052603260045260246000fd5b9190811015611d3d576020020190565b611d17565b3561052d81610689565b15611d5357565b60405162461bcd60e51b8152602060048201526016602482015275546f6b656e204944206f7574206f6620626f756e647360501b6044820152606490fd5b919091611d9e60006111d5565b83811015611df45780611dd8611dc0611dbb611def948887611d2d565b611d42565b611dd2611dce61052d61544f565b9190565b10611d4c565b611de9611462611dbb838887611d2d565b60010190565b611d9e565b50509050565b9061051791611d02565b9061051791611e11615459565b919091611e1e60006111d5565b83811015611df45780611e3b611dc0611dbb611e4c948887611d2d565b611de9610c38611dbb838887611d2d565b611e1e565b9061051791611e04565b61052d615479565b61052d610160610a83565b611e76611e63565b90600082526020808080808080808080808c01606081520160008152016060815201600081520160008152016000815201600081520160605b81520160605b8152016000905250565b61052d611e6e565b90610517611fb9600a611ed8611e63565b94611ee9611ee582611487565b8752565b611eff611ef860018301611699565b6020880152565b611f15611f0e60028301611487565b6040880152565b611f2b611f2460038301611699565b6060880152565b611f43611f3a6004830161149a565b15156080880152565b611f59611f5260058301611487565b60a0880152565b611f6f611f6860068301611487565b60c0880152565b611f85611f7e60078301611487565b60e0880152565b611f9c611f9460088301611699565b610100880152565b611fb3611fab60098301611699565b610120880152565b01611487565b610140840152565b61052d90611ec7565b611fe161052d91611fd9611ebf565b50601b611284565b611fc1565b61052d9081906001600160a01b031681565b61052d6001600160a01b036111d5565b61056661052d61052d9290565b9061128e90611c14565b90600019905b9181191691161790565b9061203f61052d612046926111d5565b825461201f565b9055565b61052d600160e11b6111d5565b91909161207461206f61206984615493565b92611c0b565b611fe6565b9161209061208b612083611ff8565b809516612008565b611c0b565b9361209d61208b84612008565b6120b86001600160a01b0387165b916001600160a01b031690565b0361227e5784926120c88361555d565b9190336001600160a01b0387168114818514171561224f575b50611dce9594936121e497936121b89361206f936120ff60016111d5565b9261210c848a878d6156bd565b612245575b50612139612120896005612015565b61213361212c82611487565b6000190190565b9061202f565b612153612147846005612015565b612133611de982611487565b61217f612169828561216361204a565b9b615726565b4260a01b908a17176001600160a01b0385161790565b916121956004936121908a86611284565b61202f565b6000986121aa6121a48b6111d5565b91841690565b146121f8575b505050611c0b565b1680957fddf252ad1be2c89b69c2b068fc378daa952ba7f163c4a11628f55a4df523b3ef8480a46111d5565b146121eb57565b633a954ecd60e21b61539d565b87019161220d6122088483611284565b611487565b612219611dce8b6111d5565b036121b05761222a61052d8a611487565b83146121b05761223d9261219091611284565b3880806121b0565b6000905538612111565b611cc390612261929894969597614d4a565b61227157869492939195386120e1565b632ce44b5f60e11b61539d565b62a1148160e81b61539d565b61051790612299611b83610e4f565b61236f565b156122a557565b60405162461bcd60e51b8152602060048201526014602482015273151bdad95b88191bd95cc81b9bdd08195e1a5cdd60621b6044820152606490fd5b156122e857565b60405162461bcd60e51b8152602060048201526013602482015272151bdad95b881a5cc81b9bdd081b1bd8dad959606a1b6044820152606490fd5b1561232a57565b60405162461bcd60e51b815260206004820152601a60248201527f556e6c6f636b2074696d6520686173206e6f74207061737365640000000000006044820152606490fd5b6123d09061238461237f82615319565b61229e565b6123956123908261253e565b6122e1565b6123a3612208826018611284565b6123b0611dce60006111d5565b03612407575b6123cb6123c4826019611284565b429061202f565b6111d5565b7f5114e731f472514591aa5a2e7254174b62963e757a427cf9e9b069666478b0606123fa60405190565b4281528060208101611c95565b61242361241b61052d612208846018611284565b421015612323565b6123b6565b6105179061228a565b9061128e565b6001611fb361052d92612448600090565b50600b612431565b906105179291612461611b83610e4f565b6124b2565b1561246d57565b60405162461bcd60e51b815260206004820152601960248201527f546f6b656e20697320616c726561647920756e6c6f636b6564000000000000006044820152606490fd5b92919260006124c160006111d5565b8381101561252b57806124de611dc0611dbb612526948888611d2d565b61250f6124fd61220860196124f7611dbb868b8b611d2d565b90611284565b612509611dce866111d5565b14612466565b611de987612521611dbb848989611d2d565b614bbf565b6124c1565b505050509050565b906105179291612450565b61254a611cc382615319565b6125de5761255c612208826019611284565b9060009161256c611dce846111d5565b116125da5761257f612208826017611284565b61258b611dce846111d5565b146125da5761259e612208826018611284565b6125aa611dce846111d5565b141590816125be575b5061052d5750600190565b6125d1915061220861052d916018611284565b421015386125b3565b5090565b50600090565b61052d9060a01c611b9a565b61052d90546125e4565b61052d90612008565b61052d61052d61052d926001600160601b031690565b634e487b7160e01b600052601160045260246000fd5b8181029291811591840414171561264257565b612619565b634e487b7160e01b600052601260045260246000fd5b8115612667570490565b612647565b61268861052d600092949394612680600090565b50600d611284565b019161269b83546001600160a01b031690565b6126a581946125f0565b906126b66120ab61056660006125fa565b146126e8575b61052d916126cc6126d292612603565b9061262f565b6126e26126dd615765565b612603565b9061265d565b50600c925061052d906126d2906126cc61271261270c87546001600160a01b031690565b966125f0565b92505091506126bc565b9061051797969594939291612732611b83610e4f565b612c8e565b1561273e57565b60405162461bcd60e51b815260206004820152601b60248201527f52657761726420747970652063616e6e6f7420626520656d70747900000000006044820152606490fd5b1561278a57565b60405162461bcd60e51b815260206004820152601b60248201527f4465736372697074696f6e2063616e6e6f7420626520656d70747900000000006044820152606490fd5b156127d657565b60405162461bcd60e51b815260206004820152602c60248201527f436c61696d61626c65207374616b65642074696d65206d75737420626520677260448201526b06561746572207468616e20360a41b6064820152608490fd5b1561283757565b60405162461bcd60e51b815260206004820152602160248201527f4163746976652074696d65206d75737420626520696e207468652066757475726044820152606560f81b6064820152608490fd5b1561288d57565b60405162461bcd60e51b815260206004820152602360248201527f44656163746976652074696d65206d75737420626520696e207468652066757460448201526275726560e81b6064820152608490fd5b156128e557565b60405162461bcd60e51b815260206004820152602760248201527f44656163746976652074696d65206d757374206265206166746572206163746960448201526676652074696d6560c81b6064820152608490fd5b60001981146126425760010190565b5190565b9160001960089290920291821b911b612025565b919061297261052d612046936111d5565b90835461294d565b61051791600091612961565b818110612991575050565b8061299f600060019361297a565b01612986565b9190601f81116129b457505050565b6129c661051793600052602060002090565b906020601f8401819004830193106129e8575b6020601f909101040190612986565b90915081906129d9565b906129fb815190565b906001600160401b038211610a7e57612a1e82612a1885546115e1565b856129a5565b602090601f8311600114612a5957612046929160009183612a4e575b5050600019600883021c1916906002021790565b015190503880612a3a565b601f19831691612a6e85600052602060002090565b9260005b818110612aac57509160029391856001969410612a93575b50505002019055565b01516000196008601f8516021c19169055388080612a8a565b91936020600181928787015181550195019201612a72565b90610517916129f2565b9060ff90612025565b90612ae761052d61204692151590565b8254612ace565b600a612be661014061051794612b0e612b08600083015190565b8661202f565b612b25612b1c602083015190565b60018701612ac4565b612b3c612b33604083015190565b6002870161202f565b612b53612b4a606083015190565b60038701612ac4565b612b6c612b636080830151151590565b60048701612ad7565b612b83612b7a60a083015190565b6005870161202f565b612b9a612b9160c083015190565b6006870161202f565b612bb1612ba860e083015190565b6007870161202f565b612bc9612bc061010083015190565b60088701612ac4565b612be1612bd861012083015190565b60098701612ac4565b015190565b910161202f565b9061051791612aee565b61064d612c0f92602092612c09815190565b94859290565b938491016105f6565b61052d91612bf7565b612c3790612c2e60405190565b91829182612c18565b03902090565b92612c8660c095612c78611ae793612c6a6105179b96610a14989e9d9b9e611abb60e08c019260008d0152565b9088820360408a0152610619565b908682036060880152610619565b986080850152565b95858395612de7612de18a6123cb611dce612db98b9f999b612d897f408e1e6b24c523df52071026044644bc970ace38bba503fa10e7c6e4e9ee06619f9c6115408f612dfa9f8f8f90612d2a90612cfa612ce86129498f90565b612cf460009d8e6111d5565b11612737565b612d188b612d12611dce612d0c8b5190565b926111d5565b11612783565b612d24611dce8c6111d5565b116127cf565b612d33896111d5565b82141580612e2f575b612d458a6111d5565b8203612dff575b505050611539612d5c601d611487565b99612d70612d698c61293a565b601d61202f565b612d828b612d7c611e63565b9a8b0152565b6020890152565b60016080840152612d9b8960a0850152565b612da68a60c0850152565b612db18b60e0850152565b610100830152565b612dc586610120830152565b612dd142610140830152565b612ddc83601b611284565b612bed565b99612c21565b99612df160405190565b97889788612c3d565b0390a3565b612e0a428311612886565b612e15575b38612d4c565b612e22611dce612e289390565b116128de565b8c8e612e0f565b612e3a428411612830565b612d3c565b906105179796959493929161271c565b90612e629291612e5d61577a565b612e6a565b6105176157ba565b906105179291612e78615459565b613046565b15612e8457565b60405162461bcd60e51b815280611bf3600482016020808252818101527f43616c6c6572206973206e6f7420616e2041444d494e206f7220455343524f57604082015260600190565b15612ed457565b60405162461bcd60e51b8152602060048201526016602482015275135a5b9d1a5b99c81a5cc81b9bdd08195b98589b195960521b6044820152606490fd5b9190820180921161264257565b15612f2657565b60405162461bcd60e51b815260206004820152601260248201527113585e081cdd5c1c1b1e481c995858da195960721b6044820152606490fd5b15612f6757565b60405162461bcd60e51b815260206004820152600f60248201526e496e76616c6964206164647265737360881b6044820152606490fd5b15612fa557565b60405162461bcd60e51b815260206004820152601060248201526f496e76616c6964207175616e7469747960801b6044820152606490fd5b15612fe457565b60405162461bcd60e51b815260206004820152601e60248201527f47617320666565206d7573742062652067726561746572207468616e203000006044820152606490fd5b908152606081019392610517929091604091610a14906020830152565b91906131247f26f4c0c9dd9536441681c861e4c72684bbec9e4e6d7e4492c2a90ff07cf35c6f926130916130786111e2565b6130833380926145f8565b908115613151575b50612e7d565b6130a361309e601261149a565b612ecd565b6130ce6130b7846130b2615479565b612f12565b6130c7611dce61052d6013611487565b1115612f1f565b6130ef6130de61056660006125fa565b6001600160a01b0387161415612f60565b6131036130fc60006111d5565b8411612f9e565b61311761311060006111d5565b8211612fdd565b6126cc633b9aca006111d5565b92611c9561313e61313361544f565b92611c6f85826157d6565b9461314860405190565b93849384613029565b613163915061315e610e4f565b6145f8565b3861308b565b906105179291612e4f565b61051790613180615459565b613308565b1561318c57565b60405162461bcd60e51b8152602060048201526013602482015272151bdad95b881a5cc81b9bdd081cdd185ad959606a1b6044820152606490fd5b61052d60c0610a83565b9061051761325060056131e26131c7565b946131ef611ee582611487565b61321661320660018301546001600160a01b031690565b6001600160a01b03166020880152565b613225611f0e60028301611487565b613234611f2460038301611487565b61324a61324360048301611487565b6080880152565b0161149a565b151560a0840152565b61052d906131d1565b1561326957565b60405162461bcd60e51b815260206004820152602560248201527f4f6e6c7920746865207374616b65722063616e20756e7374616b6520746865206044820152643a37b5b2b760d91b6064820152608490fd5b156132c357565b60405162461bcd60e51b815260206004820152601b60248201527f556e7374616b652074696d6520686173206e6f742070617373656400000000006044820152606490fd5b61331461237f82615319565b6133c66133c0612d0c6020601a613338613333600561324a8985611284565b613185565b6133a9600060056133a3896133556133508288611284565b613259565b9561335e610e4f565b61336d611cc3335b80936145f8565b61341a575b50606087018051613385611dce886111d5565b036133fe575b506116c96133998383611284565b600442910161202f565b01612ad7565b6133b286614c66565b01516001600160a01b031690565b91611c14565b907f8400aad51ec7b4a6d1c58218ea03e51798a0485003beae9e5b76662e91d7058f6133f160405190565b4281528060208101612dfa565b61340c61052d613414925190565b4210156132bc565b3861338b565b61344a906134446120ab6134378c8c01516001600160a01b031690565b926001600160a01b031690565b14613262565b38613372565b61051790613174565b906105179161346a611b8382612437565b9061347491615942565b50565b9061051791613459565b9061348b33610566565b6001600160a01b038216036134a357613474916159b3565b63334bd91960e11b600090815260045b036000fd5b610517906134c7611b83610e4f565b613535565b156134d357565b60405162461bcd60e51b815260206004820152602160248201527f426c6f636b2074696d65206d7573742062652067726561746572207468616e206044820152600360fc1b6064820152608490fd5b9081526040810192916105179160200152565b7fbe1531878ca10f11c57318847b09788b90ed4e6dd52b36836be286097a74ff4f9061356b61356460006111d5565b82116134cc565b613575600f611487565b61358082600f61202f565b61359561358c60405190565b92839283613522565b0390a1565b610517906134b8565b6135ae611b83610e4f565b610517610517615a7c565b6105176135a3565b906135ce610acf83610a97565b918252565b61052d60006135c1565b61052d6135d3565b9091610517926135f36135dd565b926148c6565b1561360057565b60405162461bcd60e51b815280611bf3600482016020808252818101527f43616c6c6572206973206e6f74206f776e6572206e6f7220617070726f766564604082015260600190565b7f1af5163f80e79b5e554f61e1d052084d3a3fe1166e42a265798c4e2ddce8ffa2611c9561368c3361368361367e8287615a84565b6135f9565b611c6f85615ade565b926107c560405190565b610517906136a5611b83610e4f565b6135957ff62079051152e03bd87f33518b9ce4a5564414395b75afeef8a467e7ca4ee91b9161054f816012612ad7565b61051790613696565b610517906136ed611b83610e4f565b6135957f6741b2fc379fad678116fe3d4d4b9a1a184ab53ba36b86ad0fa66340b1ab41ad9161067d816010612ac4565b610517906136de565b906105179291613737611b83610e4f565b611c7482611c6f857fae1d656a1268648b04ffa79c1416f05879338ae295aae3234d8db217356a1c6295611c95956137826137736103e8611b8d565b6001600160601b038516611c5e565b61378e61237f82615319565b615b09565b906105179291613726565b61052d9060a01c61119d565b61052d905461379e565b61052d60096137aa565b61208b6137d661052d926137d0600090565b50615493565b612008565b610517906137ea611b83610e4f565b61383b565b156137f657565b60405162461bcd60e51b815260206004820152601860248201527f52657761726420697320616c72656164792061637469766500000000000000006044820152606490fd5b61386c9061385a613855611cc3600461324a85601b611284565b6137ef565b6123cb600160046133a384601b611284565b7f077df36c64e7c698035a47d2e97da79ab1c3bcfdf6f82430581659cc4d2a969a61389660405190565b8080611c95565b610517906137db565b610517906138b5611b83610e4f565b6138ca90611c6f816138c5610e4f565b613477565b7f31c682dcd71348807b079d0cb25bf0c85c9e75f84a8b7b31111ba081e52817f361389660405190565b610517906138a6565b906105179161390d611b83610e4f565b91909161391a60006111d5565b83811015611df45780613937611dc0611dbb61395c948887611d2d565b61394b6123906109d6611dbb848988611d2d565b611de9610951611dbb838887611d2d565b61391a565b90610517916138fd565b61052d6001600160401b036111d5565b61398861056660006125fa565b6001600160a01b038216146139b1576122086139a5916005612015565b6139ad61396b565b1690565b6323d3ad8160e21b61539d565b61220861052d916139cd600090565b506015612015565b6139dd615bcf565b6105176105176139ed60006125fa565b615c10565b6105176139d5565b6001600160401b038111610a7e5760208091020190565b906135ce610acf836139fa565b61052d610140610a83565b613a31613a1e565b906000825260208080808080808080808b016000815201600081520160008152016000815201600081520160008152016000611eaf565b61052d613a29565b60005b828110613a7f57505050565b602090613a8a613a68565b8184015201613a73565b90610517613aaa613aa484613a11565b936139fa565b601f190160208401613a70565b90613ac0825190565b811015611d3d576020809102010190565b90610517613b916008613ae2613a1e565b94613aef611ee582611487565b613afe611ef860018301611487565b613b25613b1560028301546001600160a01b031690565b6001600160a01b03166040880152565b613b34611f2460038301611487565b613b4361324360048301611487565b613b5b613b526005830161149a565b151560a0880152565b613b73613b6a600583016115c1565b151560c0880152565b613b82611f7e60068301611487565b611fb3611f9460078301611699565b610120840152565b61052d90613ad1565b90613bad60006111d5565b805b613bbc61052d601d611487565b811015613bfe57613bd7600561324a836116c988601c611284565b613be9575b600101613baf565b613baf565b90613bf6613be49161293a565b919050613bdc565b50613c0890613a94565b613c1260006111d5565b92835b613c2261052d601d611487565b811015613c9457613c5290601c8382613c44600561324a836116c98688611284565b613c57575b50505060010190565b613c15565b6116c9613c6792613c8b94611284565b96613c7a613c748261293a565b98613b99565b613c848288613ab7565b5285613ab7565b50388382613c49565b5090925050565b9061051794939291613cab615459565b9061051794939291613cbe611b83610e4f565b613dfc565b15613cca57565b60405162461bcd60e51b815260206004820152601d60248201527f46726f6d2061646472657373206973206e6f7420746865206f776e65720000006044820152606490fd5b15613d1657565b60405162461bcd60e51b815260206004820152601f60248201527f43616e6e6f74207472616e7366657220746f207a65726f2061646472657373006044820152606490fd5b15613d6257565b60405162461bcd60e51b815260206004820152600f60248201526e151bdad95b881a5cc81b1bd8dad959608a1b6044820152606490fd5b6020809392613db66135ce61064d9461190160f01b815260020190565b01918252565b15613dc357565b60405162461bcd60e51b8152602060048201526011602482015270496e76616c6964207369676e617475726560781b6044820152606490fd5b613fc1613fc791613f8b613f86613e977fe37e962447c072d61e0164c30f30d2a3f4752dea7a7224ffd42d5fc2586b02d59799989698613e3e61237f8c615319565b613e62613e4a8c6137be565b613e5c6001600160a01b0388166120ab565b14613cc3565b613e83613e7261056660006125fa565b6001600160a01b038c161415613d0f565b613103613e92611cc38d61253e565b613d5b565b95613f3a613f748b613f468c88613f3a613eb5612208836015612015565b7f5845c8b965119358c29037dc6226e8f2195e0d03c7d2055c52fb161f5792874190613ee030611c14565b60405197889660208801964695889081526001600160a01b03909116602082015260e081019695949093909290916001600160a01b0316604085015260608401526001600160a01b0316608083015260a082015260c00152565b90810382520382610a5d565b613f58613f51825190565b9160200190565b20613f63600e611487565b604051938492602084019283613d99565b613f7f613f51825190565b2084615d29565b613dbc565b613faa613f99826015612015565b612133613fa582611487565b61293a565b613fb6600088336153a6565b611c6f878783612057565b93611c14565b93612dfa61358c60405190565b9061051794939291613c9b565b613fec611b83610e4f565b610517610517615e3a565b610517613fe1565b90612e629161400c61577a565b9061051791614019615459565b61435d565b1561402557565b60405162461bcd60e51b815260206004820152601560248201527414995dd85c9908191bd95cc81b9bdd08195e1a5cdd605a1b6044820152606490fd5b1561406957565b60405162461bcd60e51b8152602060048201526014602482015273526577617264206973206e6f742061637469766560601b6044820152606490fd5b156140ac57565b60405162461bcd60e51b815260206004820152601860248201527f526577617264206973206e6f74206163746976652079657400000000000000006044820152606490fd5b156140f857565b60405162461bcd60e51b815260206004820152601c60248201527f526577617264206973206e6f742061637469766520616e796d6f7265000000006044820152606490fd5b9190820391821161264257565b1561415157565b60405162461bcd60e51b815260206004820152601f60248201527f546f6b656e206973206e6f74207374616b6564206c6f6e6720656e6f756768006044820152606490fd5b1561419d57565b60405162461bcd60e51b815260206004820152601960248201527f52657761726420697320616c726561647920636c61696d6564000000000000006044820152606490fd5b156141e957565b60405162461bcd60e51b8152602060048201526024808201527f4f6e6c7920746865207374616b65722063616e20636c61696d207468652072656044820152631dd85c9960e21b6064820152608490fd5b906001600160a01b0390612025565b9061425961052d61204692611c14565b825461423a565b9061ff009060081b612025565b9061427d61052d61204692151590565b8254614260565b6008612be66101206105179461429e612b08600083015190565b6142b56142ac602083015190565b6001870161202f565b6142d56142cc60408301516001600160a01b031690565b60028701614249565b6142ec6142e3606083015190565b6003870161202f565b6143036142fa608083015190565b6004870161202f565b61432d6005860161432061431a60a0850151151590565b82612ad7565b60c083015115159061426d565b61433b612b9160e083015190565b612be161434a61010083015190565b60078701612ac4565b9061051791614284565b9061436781615319565b6143709061229e565b61437b82601b611284565b61438490611487565b90600091614391836111d5565b141561439c9061401e565b6143a783601b611284565b6143b090611fc1565b916143bc82601a611284565b6143c590613259565b608084015115156143d590614062565b60a08401514210156143e6906140a5565b60c08401514211156143f7906140f1565b60e084015190604081019161440a835190565b614414904261413d565b101561441f9061414a565b8561442b85601c611284565b9061443591611284565b6005016144419061149a565b1561444b90614196565b60200151614508926144dd916144d6919061447b906001600160a01b031633908114908115614575575b506141e2565b6144b761448f61448a886137be565b955190565b6144b061449a613a1e565b966144a58c868a0152565b613b158a60208a0152565b6060860152565b6144c2426080860152565b600160a085015280151560c08501526111d5565b60e0830152565b6144e8612db16135dd565b6144f442610120830152565b614503856116c985601c611284565b614353565b7f7ef1954a47bcf45f29bbc3b53d86df999b6f295782796ac65ea2df034711693561457061455b61455561454f6145496040614543886137be565b98015190565b976111d5565b946111d5565b94611c14565b9461456560405190565b918291429083613522565b0390a4565b614582915061315e610e4f565b38614475565b9061051791613fff565b9061051792916145a0615459565b9291926145ad60006111d5565b828110156145e657806145ca611dc0611dbb6145e1948787611d2d565b611de9866145dc611dbb848888611d2d565b61515b565b6145ad565b5050509050565b906105179291614592565b61052d91600061460d61461393612448600090565b01612015565b61149a565b61051790614627611b83610e4f565b6135957f905d981207a7d0b6c62cc46ab0be2a076d0298e4a86d0ab79882dbd01ac373789161067d816011612ac4565b61051790614618565b61052d6003611ca4565b7f17307eab39ab6107e8899845ad3d59bd9653f200f220920489ca2b5937696c31612dfa6146b2613fc133611c6f876146ad886146a8856007612015565b612015565b612ad7565b9361055360405190565b61052d916116c96146d7926146cf613a68565b50601c611284565b613b99565b9061051792916146ed611b83610e4f565b614753565b156146f957565b60405162461bcd60e51b815260206004820152601560248201527414995dd85c99081a5cc81b9bdd0818db185a5b5959605a1b6044820152606490fd5b92916020611b126105179360408701908782036000890152610619565b9061476061237f82615319565b61477c614777600561324a856116c986601c611284565b6146f2565b7f7de9b19a9a16075e228395248ad5311ffab7748c0525bd16ab44912a968161c36145706147ed61455561454f6147e760406147c06146d78a6116c98b601c611284565b600160c08201526147d24260e0830152565b8a61010082015201516001600160a01b031690565b966111d5565b946147f760405190565b918291429083614736565b9061051792916146dc565b906105179161481d611b83610e4f565b91909161482a60006111d5565b83811015611df45780614847611dc0611dbb61486c948887611d2d565b61485b6123906109d6611dbb848988611d2d565b611de9611820611dbb838887611d2d565b61482a565b906105179161480d565b6148836131c7565b90600082526020808080808087016000815201600081520160008152016000611eb5565b61052d61487b565b61335061052d916148be6148a7565b50601a611284565b919290926148d5818585612057565b833b6148e4611dce60006111d5565b036148f0575b50505050565b6148fd93611cc393615ede565b61490a57388080806148ea565b6368d2bf6b60e11b61539d565b91613f4661493d92613f3a9461492b600090565b50613f3a613eb5612208836015612015565b614948613f51825190565b2090565b6105179061495b611b83610e4f565b6149c0565b1561496757565b60405162461bcd60e51b815260206004820152602b60248201527f4f6e6c7920746865207374616b65722063616e20666f72636520756e7374616b60448201526a32903a3432903a37b5b2b760a91b6064820152608490fd5b6149cc61237f82615319565b6133c66133c0612d0c6020601a6149eb613333600561324a8985611284565b6133a9600060056133a389614a036133508288611284565b95614a0c610e4f565b614a18611cc333613366565b614a2a57506116c96133998383611284565b61341490614a476120ab6134378c8c01516001600160a01b031690565b14614960565b6105179061494c565b9061051791614a66611b83610e4f565b614b0d565b15614a7257565b60405162461bcd60e51b815260206004820152601760248201527f546f6b656e20697320616c7265616479206c6f636b65640000000000000000006044820152606490fd5b15614abe57565b60405162461bcd60e51b815260206004820152602160248201527f556e6c6f636b2074696d65206d75737420626520696e207468652066757475726044820152606560f81b6064820152608490fd5b611c95614b9b7ff25fd82f8bf40df41b90b95a0159c55596f50b182d7b7dff1d3e04a5a16ac7c492614b4161237f82615319565b614b55614b50611cc38361253e565b614a6b565b614b5f60006111d5565b8503614baf575b614b746123c4826017611284565b614b8385612190836018611284565b6123cb614b9060006111d5565b612190836019611284565b92614ba560405190565b9182914283613522565b614bba428611614ab7565b614b66565b9061051791614a56565b614bd79061052d9392612bf7565b90612bf7565b614be961237f82615319565b614bf1615fab565b8051614c00611dce60006111d5565b1115614c315761052d613f3a91614c1961052d94615fdd565b90614c2360405190565b938492602084019283614bc9565b505061052d6135dd565b61051790614c4a611b83610e4f565b6123d090614c5a61237f82615319565b6123b66123908261253e565b61051790614c3b565b9061051791614c80611b8382612437565b90613474916159b3565b9061051791614c6f565b60005b828110614ca357505050565b602090614cae6148a7565b8184015201614c97565b90610517614cc8613aa484613a11565b601f190160208401614c94565b91908092614ce284614cb8565b92614ced60006111d5565b855b811015614d4257614d3b81614d0e611dc0611dbb614cef958989611d2d565b614d1f6113bc611dbb838989611d2d565b614d298289613ab7565b52614d348188613ab7565b5060010190565b9050614ced565b509350505090565b61052d916146a861461392614d5d600090565b506007612015565b61051790614d74611b83610e4f565b614da290614d90614d8b600461324a84601b611284565b614062565b6123cb600060046133a384601b611284565b7f385eed96ca33f0da03d900751711ff4392adf11be79222f4aa99f92e71a1da4f61389660405190565b61051790614d65565b61052d600e611487565b61051790614dee611b83610e4f565b614e0390611c6f81614dfe610e4f565b614c8a565b7f4a84a984790b90cdc99acb8cf998c3f36e0efefd6a3f5b47dcaf480f6a1862c261389660405190565b61051790614ddf565b61051790614e42615bcf565b6000614e4d816125fa565b6001600160a01b0381166001600160a01b03841614614e7157505061051790615c10565b631e4fbdf760e01b82526001600160a01b03166004820152602490fd5b61051790614e36565b9061051791614ea4615459565b61501f565b15614eb057565b60405162461bcd60e51b815260206004820152601760248201527f546f6b656e20697320616c7265616479207374616b65640000000000000000006044820152606490fd5b15614efc57565b60405162461bcd60e51b815260206004820152602360248201527f4f6e6c7920746865207374616b65722063616e207374616b652074686520746f60448201526235b2b760e91b6064820152608490fd5b15614f5457565b60405162461bcd60e51b815260206004820152602260248201527f556e7374616b652074696d65206d75737420626520696e207468652066757475604482015261726560f01b6064820152608490fd5b600561500e60a061051794614fbd612b08600083015190565b614fdd614fd460208301516001600160a01b031690565b60018701614249565b614feb612b33604083015190565b614ff96142e3606083015190565b6150076142fa608083015190565b0151151590565b9101612ad7565b9061051791614fa4565b61502b61237f82615319565b615046615041611cc3600561324a85601a611284565b614ea9565b615055613e92611cc38361253e565b61505d610e4f565b615069611cc333613366565b61513c575b507f30441850b15fd31a9413cd27711113d1430f46dd517499b60a5d8365fa375bf0612dfa615122613fc16150a2856137be565b946150ad60006111d5565b870361512c575b6123cb6150bf6131c7565b6150c7838252565b6001600160a01b03881660208201526150e1426040830152565b6150ec896060830152565b61511c6150f960006111d5565b91615105836080830152565b600160a082015261511785601a611284565b615015565b82614bbf565b93614ba560405190565b615137428811614f4d565b6150b4565b6151559061514f6120ab613437856137be565b14614ef5565b3861506e565b9061051791614e97565b63152a902d60e11b6001600160e01b0319821614908115615184575090565b61052d915061606a565b610517903390616093565b61053090612603565b916020610517929493610a1460408201966000830190615199565b61052d6040610a83565b906001600160a01b03199060a01b612025565b611b9a61052d61052d926001600160601b031690565b9061520061052d612046926151da565b82546151c7565b6105179161523a9060209061522c61522682516001600160a01b031690565b85614249565b01516001600160601b031690565b906151f0565b9061051791615207565b906152566126dd615765565b8061526083612603565b116152e55750600091615272836125fa565b6001600160a01b0381166001600160a01b038316146152c8575061051792916152b16152c1926152a06151bd565b948501906001600160a01b03169052565b6001600160601b03166020830152565b600c615240565b635b6cc80560e11b84526001600160a01b03166004840152602483fd5b636f483d0960e01b6000908152916134b3919060046151a2565b8015612642576000190190565b61052d600160e01b6111d5565b90600091826153266111e2565b821015615331575050565b61533e61052d6000611487565b8210615348575050565b509091505b61535b612208826004611284565b908161536a611dce60006111d5565b0361537e5761537991506152ff565b61534d565b5061539961538a61530c565b61539460006111d5565b921690565b1490565b60005260046000fd5b916153b0826137be565b9080615434575b615415575b6153dd613fc16153e392611c6f8660006153d7886006611284565b01614249565b916111d5565b917f8c5be1e5ebec7d5bd14f71427d1e84f3dd0314c0f7b2291e5b200ac8c7c3b92561540e60405190565b8080614570565b615422611cc33383614d4a565b156153bc576367d9dca160e11b61539d565b50336154486001600160a01b0383166120ab565b14156153b7565b61052d6000611487565b6154616137b4565b61546757565b63d93c066560e01b6000908152600490fd5b61052d6154866000611487565b61548e6111e2565b900390565b61549b6111e2565b8110156154b0575b636f96cda160e11b61539d565b6004906154c1612208826004611284565b916000916154ce836111d5565b84146154f25750506154ea6154e4612d0c61530c565b91831690565b036154a35790565b9091925061550261052d84611487565b8110156154a357909190600019015b9161551f6122088483611284565b92615529836111d5565b841461555157505061553f6154e4612d0c61530c565b1461052d57636f96cda160e11b61539d565b90925060001901615511565b61052d6155749161556c600090565b506006611284565b90815490565b90610517939291615589615459565b6155ec565b1561559557565b60405162461bcd60e51b815260206004820152602960248201527f5472616e736665722063616c6c6572206973206e6f74206f776e6572206e6f7260448201526808185c1c1c9bdd995960ba1b6064820152608490fd5b909291926155fa60006125fa565b9161560d6001600160a01b0384166120ab565b1415918261569f575b5050615620575050565b909161562c60006111d5565b825b8110156156995761566a8161564661562e9387612f12565b61564e610e4f565b9061565d611cc33380946145f8565b615671575b505060010190565b905061562c565b6156929181615688613e92611cc361568d9561253e565b615a84565b61558e565b3880615662565b50915050565b9091506156b4906001600160a01b03166120ab565b14153880615616565b9061051793929161557a565b61052d60e86111d5565b61052d906156e4611dce61052d9490565b901c90565b6156f661052d61052d9290565b62ffffff1690565b61052d61052d61052d9262ffffff1690565b61052d90615721611dce61052d9490565b901b90565b61575b6157609161052d949361573a600090565b506157556157506157496156c9565b80976156d3565b6156e9565b916160c2565b6156fe565b615710565b61052d612710611b8d565b61052d60026111d5565b615784600a611487565b61578c615770565b90811461579e5761051790600a61202f565b633ee5aeb560e01b6000908152600490fd5b61052d60016111d5565b6105176157c56157b0565b600a61202f565b61052d60406111d5565b6157e06000611487565b916000916157ed836111d5565b821461593557806158799261584f615844615807876125fa565b615813848a87846156bd565b61582f6001851460e11b916158278a6111d5565b978891615726565b4260a01b9117176001600160a01b0385161790565b612190886004611284565b61589761206f60019361208b61587f6158666157cc565b61587060016111d5565b998a9182615710565b17860290565b61213361588d846005612015565b9161064d83611487565b61589f611ff8565b16928314615929578501949285036158b8600019611dce565b1161591c576001815b6158d4575b50505050906105179161202f565b1561590a575b83908383867fddf252ad1be2c89b69c2b068fc378daa952ba7f163c4a11628f55a4df523b3ef8180a490816158c1565b91600101918483036158da57806158c6565b6340b23f1d60e11b61539d565b622e076360e81b61539d565b63b562e8dd60e01b61539d565b61594f611cc383836145f8565b156159ac5761596a60016146ad84600061460d86600b612431565b6159786133c0613fc1339390565b917f2f8788117e7eff1d82e926ec794901d17c78024a50270940304540a733656f0d6159a360405190565b600090a4600190565b5050600090565b6159bd82826145f8565b156159ac576159d760006146ad848261460d86600b612431565b6159e56133c0613fc1339390565b917ff6391f5c32d9c69d2a47ea670b442974b53935d1edc7fd64eb21e047a839171b6159a360405190565b615a186160cd565b610517615a46565b9060ff60a01b9060a01b612025565b90615a3f61052d61204692151590565b8254615a20565b615a5260006009615a2f565b7f5db9ee0a495bf2e6ff9c91a7834c1ba4fdd244a5e8aa4e537bd38aeae4b073aa613595336106cb565b610517615a10565b90615a8e826137be565b916001600160a01b0383166001600160a01b03831614928315615aca575b508215615ab857505090565b6153999192506134376120ab91611cb7565b615ad79193508290614d4a565b9138615aac565b6000610517916160fa565b908152606081019392610517929091604091610a14906020830190615199565b9091615b166126dd615765565b80615b2083612603565b11615bb55750600092615b32846125fa565b6001600160a01b0381166001600160a01b03831614615b91575091615b85615b8c92615b756105179695615b646151bd565b968701906001600160a01b03169052565b6001600160601b03166020850152565b600d611284565b615240565b634b4f842960e11b8552600485018490526001600160a01b03166024850152604484fd5b63dfd1fc1b60e01b6000908152926134b392906004615ae9565b6009546001600160a01b03163390615be6826120ab565b03615bee5750565b63118cdaa760e01b60009081526001600160a01b039091166004526024036000fd5b615c336133c0615c286009546001600160a01b031690565b611c6f846009614249565b907f8be0079c531659141344cd1fd0a4f28419497f9722a3daafe3b4186f6b6457e0615c5e60405190565b8080612dfa565b9061064d6135ce6020937f19457468657265756d205369676e6564204d6573736167653a0a3332000000008152601c0190565b61052d906111d5565b15615ca857565b60405162461bcd60e51b815260206004820152601b60248201527f496e76616c6964207369676e6174757265202773272076616c756500000000006044820152606490fd5b610a1461051794615d16606094989795615d0c608086019a6000870152565b60ff166020850152565b6040830152565b6040513d6000823e3d90fd5b91615db9600091615d6c602094615d3e600090565b50615d5a615d4b60405190565b8092613f3a8983019182615c65565b615d65613f51825190565b2091616379565b9391615dad615d7a83615c98565b615da6611dce7f7fffffffffffffffffffffffffffffff5d576e7357a4501ddfe92f46681b20a06111d5565b1115615ca1565b60405194859485615ced565b838052039060015afa15615df457600051615399906120ab9092610566615de361056660006125fa565b6001600160a01b0386161415613dbc565b615d1d565b615e01615459565b610517615e1060016009615a2f565b7f62e78cea01bee320cd4e420270b5ea74000d11b0c9f74754ebdbfc544b05a258613595336106cb565b610517615df9565b90505190610517826104f7565b906020828203126104f25761052d91615e42565b6001600160a01b0391821681529116602082015261052d926080820192909190615e8c90615d16565b6060818403910152610619565b615eb2615eac61052d9263ffffffff1690565b60e01b90565b6001600160e01b03191690565b3d15615ed957615ece3d6135c1565b903d6000602084013e565b606090565b91615ef6611c6f602093615ef0600090565b50611c14565b63150b7a0293600033615f27615f0b60405190565b98899687958694615f1c8c60e01b90565b865260048601615e63565b03925af160009281615f7a575b50615f5d57615f41615ebf565b8051615f50611dce60006111d5565b1461490a57805190602001fd5b615f6c615eb261539992615e99565b916001600160e01b03191690565b615f9d91935060203d602011615fa4575b615f958183610a5d565b810190615e4f565b9138615f34565b503d615f8b565b61052d6010611ca4565b369037565b90610517615fd0615fca846135c1565b93610a97565b601f190160208401615fb5565b615fe681616419565b90615ff760019261064d60016111d5565b918061600284615fba565b936020018401905b616015575b50505090565b8115616065576160499060001901926f181899199a1a9b1b9c1cb0b131b232b360811b600a82061a84536126e2600a6111d5565b9081616058611dce60006111d5565b146160655790918161600a565b61600f565b637965db0b60e01b6001600160e01b0319821614908115616089575090565b61052d91506165bb565b906160a1611cc382846145f8565b6160a9575050565b63e2517d3f60e01b6000908152916134b39160046109f7565b50505061052d600090565b6160d8611cc36137b4565b6160de57565b638dfc202b60e01b6000908152600490fd5b61052d60806111d5565b61610381615493565b9061611061208b83612008565b6161198261555d565b939094616286575b6153dd613fc18493610517976161f494616151989760008093616143826125fa565b9a61615a8c60019e8f6111d5565b9586918a6156bd565b61627e575b505061618b61617d826161796161736160f0565b82615710565b0390565b61213361588d876005612015565b61619361530c565b906161c261619f61204a565b8093176161ad858d89615726565b4260a01b9117176001600160a01b0387161790565b916161d36004936121908c86611284565b6161e56161df866111d5565b91851690565b1461622f575b50505050611c14565b917fddf252ad1be2c89b69c2b068fc378daa952ba7f163c4a11628f55a4df523b3ef61621f60405190565b600090a4612133611de982611487565b88019261623f6122088584611284565b61624b611dce836111d5565b036161eb5761052d61625c91611487565b8303616269575b806161eb565b6162769261219091611284565b388080616263565b55823861615f565b336001600160a01b038316811485821417156162a3575b50616121565b611cc36162b4918493969594614d4a565b612271579091923861629d565b156162c857565b60405162461bcd60e51b815260206004820152601860248201527f496e76616c6964207369676e6174757265206c656e67746800000000000000006044820152606490fd5b61119d61052d61052d9290565b60ff9081169116019060ff821161264257565b1561633457565b60405162461bcd60e51b815260206004820152601b60248201527f496e76616c6964207369676e6174757265202776272076616c756500000000006044820152606490fd5b90616398616385835190565b616392611dce60416111d5565b146162c1565b6020820151906060604084015193015160001a916163b6601b61630d565b60ff8416106163fe575b6163ca601b61630d565b60ff84161480156163e4575b6163df9061632d565b929190565b506163df6163f2601c61630d565b60ff85161490506163d6565b916164139061640d601b61630d565b9061631a565b916163c0565b61642360006111d5565b907a184f03e93ff9f4daa797ed6e38ed64bf6a1f010000000000000000616449816111d5565b821015616599575b506d04ee2d6d415b85acef810000000061646a816111d5565b821015616577575b50662386f26fc10000616484816111d5565b821015616555575b506305f5e10061649b816111d5565b821015616533575b506127106164b0816111d5565b821015616511575b506164c360646111d5565b8110156164ef575b6164d8611dce600a6111d5565b10156164e15790565b61052d9061064d60016111d5565b61650061650b916126e260646111d5565b9161064d60026111d5565b906164cb565b61652c916126e2616521926111d5565b9161064d60046111d5565b90386164b8565b61654e916126e2616543926111d5565b9161064d60086111d5565b90386164a3565b616570916126e2616565926111d5565b9161064d60106111d5565b903861648c565b616592916126e2616587926111d5565b9161064d60206111d5565b9038616472565b6165b4916126e26165a9926111d5565b9161064d60406111d5565b9038616451565b6153996301ffc9a760e01b615f6c56fea2646970667358221220302c210098a47bbf27b9194ceab9e7606ac7da4d41d66802ad6e129d7b1882f264736f6c634300081c0033","opcodes":"PUSH1 0x80 PUSH1 0x40 MSTORE CALLVALUE PUSH2 0x31 JUMPI PUSH2 0x20 PUSH2 0x14 PUSH2 0x206 JUMP JUMPDEST SWAP6 SWAP5 SWAP1 SWAP5 SWAP4 SWAP2 SWAP4 PUSH2 0x51A JUMP JUMPDEST PUSH1 0x40 MLOAD PUSH2 0x6601 PUSH2 0xA4D DUP3 CODECOPY PUSH2 0x6601 SWAP1 RETURN JUMPDEST PUSH1 0x0 DUP1 REVERT JUMPDEST PUSH4 0x4E487B71 PUSH1 0xE0 SHL PUSH1 0x0 MSTORE PUSH1 0x41 PUSH1 0x4 MSTORE PUSH1 0x24 PUSH1 0x0 REVERT JUMPDEST SWAP1 PUSH1 0x1F ADD PUSH1 0x1F NOT AND DUP2 ADD SWAP1 DUP2 LT PUSH1 0x1 PUSH1 0x1 PUSH1 0x40 SHL SUB DUP3 GT OR PUSH2 0x6D JUMPI PUSH1 0x40 MSTORE JUMP JUMPDEST PUSH2 0x36 JUMP JUMPDEST SWAP1 PUSH2 0x86 PUSH2 0x7F PUSH1 0x40 MLOAD SWAP1 JUMP JUMPDEST SWAP3 DUP4 PUSH2 0x4C JUMP JUMPDEST JUMP JUMPDEST PUSH1 0x1 PUSH1 0x1 PUSH1 0x40 SHL SUB DUP2 GT PUSH2 0x6D JUMPI PUSH1 0x20 SWAP1 PUSH1 0x1F ADD PUSH1 0x1F NOT AND ADD SWAP1 JUMP JUMPDEST PUSH1 0x0 JUMPDEST DUP4 DUP2 LT PUSH2 0xB7 JUMPI POP POP PUSH1 0x0 SWAP2 ADD MSTORE JUMP JUMPDEST DUP2 DUP2 ADD MLOAD DUP4 DUP3 ADD MSTORE PUSH1 0x20 ADD PUSH2 0xA7 JUMP JUMPDEST SWAP1 SWAP3 SWAP2 SWAP3 PUSH2 0xDC PUSH2 0xD7 DUP3 PUSH2 0x88 JUMP JUMPDEST PUSH2 0x72 JUMP JUMPDEST SWAP4 DUP2 DUP6 MSTORE DUP2 DUP4 ADD GT PUSH2 0x31 JUMPI PUSH2 0x86 SWAP2 PUSH1 0x20 DUP6 ADD SWAP1 PUSH2 0xA4 JUMP JUMPDEST SWAP1 DUP1 PUSH1 0x1F DUP4 ADD SLT ISZERO PUSH2 0x31 JUMPI DUP2 MLOAD PUSH2 0x110 SWAP3 PUSH1 0x20 ADD PUSH2 0xC7 JUMP JUMPDEST SWAP1 JUMP JUMPDEST PUSH1 0x1 PUSH1 0x1 PUSH1 0xA0 SHL SUB AND SWAP1 JUMP JUMPDEST PUSH1 0x1 PUSH1 0x1 PUSH1 0xA0 SHL SUB DUP2 AND JUMPDEST SUB PUSH2 0x31 JUMPI JUMP JUMPDEST SWAP1 POP MLOAD SWAP1 PUSH2 0x86 DUP3 PUSH2 0x11F JUMP JUMPDEST DUP1 PUSH2 0x12A JUMP JUMPDEST SWAP1 POP MLOAD SWAP1 PUSH2 0x86 DUP3 PUSH2 0x13E JUMP JUMPDEST SWAP1 PUSH1 0xE0 DUP3 DUP3 SUB SLT PUSH2 0x31 JUMPI DUP2 MLOAD PUSH1 0x1 PUSH1 0x1 PUSH1 0x40 SHL SUB DUP2 GT PUSH2 0x31 JUMPI DUP2 PUSH2 0x178 SWAP2 DUP5 ADD PUSH2 0xF6 JUMP JUMPDEST PUSH1 0x20 DUP4 ADD MLOAD SWAP1 SWAP4 SWAP1 PUSH1 0x1 PUSH1 0x1 PUSH1 0x40 SHL SUB DUP2 GT PUSH2 0x31 JUMPI DUP3 PUSH2 0x19A SWAP2 DUP6 ADD PUSH2 0xF6 JUMP JUMPDEST SWAP3 PUSH2 0x1A8 DUP4 PUSH1 0x40 DUP4 ADD PUSH2 0x131 JUMP JUMPDEST SWAP3 PUSH2 0x1B6 DUP2 PUSH1 0x60 DUP5 ADD PUSH2 0x144 JUMP JUMPDEST SWAP3 PUSH2 0x1C4 DUP3 PUSH1 0x80 DUP6 ADD PUSH2 0x144 JUMP JUMPDEST PUSH1 0xA0 DUP5 ADD MLOAD SWAP1 SWAP4 SWAP1 PUSH1 0x1 PUSH1 0x1 PUSH1 0x40 SHL SUB DUP2 GT PUSH2 0x31 JUMPI DUP4 PUSH2 0x1E6 SWAP2 DUP4 ADD PUSH2 0xF6 JUMP JUMPDEST PUSH1 0xC0 DUP3 ADD MLOAD SWAP1 SWAP4 SWAP1 PUSH1 0x1 PUSH1 0x1 PUSH1 0x40 SHL SUB DUP2 GT PUSH2 0x31 JUMPI PUSH2 0x110 SWAP3 ADD PUSH2 0xF6 JUMP JUMPDEST PUSH2 0x224 PUSH2 0x704E DUP1 CODESIZE SUB DUP1 PUSH2 0x219 DUP2 PUSH2 0x72 JUMP JUMPDEST SWAP3 DUP4 CODECOPY DUP2 ADD SWAP1 PUSH2 0x151 JUMP JUMPDEST SWAP1 SWAP2 SWAP3 SWAP4 SWAP5 SWAP6 SWAP7 JUMP JUMPDEST SWAP1 PUSH1 0x0 NOT SWAP1 JUMPDEST SWAP2 DUP2 NOT AND SWAP2 AND OR SWAP1 JUMP JUMPDEST PUSH2 0x110 PUSH2 0x110 PUSH2 0x110 SWAP3 SWAP1 JUMP JUMPDEST SWAP1 PUSH2 0x25A PUSH2 0x110 PUSH2 0x261 SWAP3 PUSH2 0x23D JUMP JUMPDEST DUP3 SLOAD PUSH2 0x22D JUMP JUMPDEST SWAP1 SSTORE JUMP JUMPDEST PUSH4 0x4E487B71 PUSH1 0xE0 SHL PUSH1 0x0 MSTORE PUSH1 0x22 PUSH1 0x4 MSTORE PUSH1 0x24 PUSH1 0x0 REVERT JUMPDEST SWAP1 PUSH1 0x1 PUSH1 0x2 DUP4 DIV SWAP3 AND DUP1 ISZERO PUSH2 0x29B JUMPI JUMPDEST PUSH1 0x20 DUP4 LT EQ PUSH2 0x296 JUMPI JUMP JUMPDEST PUSH2 0x265 JUMP JUMPDEST SWAP2 PUSH1 0x7F AND SWAP2 PUSH2 0x28B JUMP JUMPDEST SWAP2 PUSH1 0x0 NOT PUSH1 0x8 SWAP3 SWAP1 SWAP3 MUL SWAP2 DUP3 SHL SWAP2 SHL PUSH2 0x233 JUMP JUMPDEST SWAP2 SWAP1 PUSH2 0x2CA PUSH2 0x110 PUSH2 0x261 SWAP4 PUSH2 0x23D JUMP JUMPDEST SWAP1 DUP4 SLOAD PUSH2 0x2A5 JUMP JUMPDEST PUSH2 0x86 SWAP2 PUSH1 0x0 SWAP2 PUSH2 0x2B9 JUMP JUMPDEST DUP2 DUP2 LT PUSH2 0x2E9 JUMPI POP POP JUMP JUMPDEST DUP1 PUSH2 0x2F7 PUSH1 0x0 PUSH1 0x1 SWAP4 PUSH2 0x2D2 JUMP JUMPDEST ADD PUSH2 0x2DE JUMP JUMPDEST SWAP2 SWAP1 PUSH1 0x1F DUP2 GT PUSH2 0x30C JUMPI POP POP POP JUMP JUMPDEST PUSH2 0x31E PUSH2 0x86 SWAP4 PUSH1 0x0 MSTORE PUSH1 0x20 PUSH1 0x0 KECCAK256 SWAP1 JUMP JUMPDEST SWAP1 PUSH1 0x20 PUSH1 0x1F DUP5 ADD DUP2 SWAP1 DIV DUP4 ADD SWAP4 LT PUSH2 0x340 JUMPI JUMPDEST PUSH1 0x20 PUSH1 0x1F SWAP1 SWAP2 ADD DIV ADD SWAP1 PUSH2 0x2DE JUMP JUMPDEST SWAP1 SWAP2 POP DUP2 SWAP1 PUSH2 0x331 JUMP JUMPDEST SWAP1 PUSH2 0x353 DUP2 MLOAD SWAP1 JUMP JUMPDEST SWAP1 PUSH1 0x1 PUSH1 0x1 PUSH1 0x40 SHL SUB DUP3 GT PUSH2 0x6D JUMPI PUSH2 0x376 DUP3 PUSH2 0x370 DUP6 SLOAD PUSH2 0x27B JUMP JUMPDEST DUP6 PUSH2 0x2FD JUMP JUMPDEST PUSH1 0x20 SWAP1 PUSH1 0x1F DUP4 GT PUSH1 0x1 EQ PUSH2 0x3B1 JUMPI PUSH2 0x261 SWAP3 SWAP2 PUSH1 0x0 SWAP2 DUP4 PUSH2 0x3A6 JUMPI JUMPDEST POP POP PUSH1 0x0 NOT PUSH1 0x8 DUP4 MUL SHR NOT AND SWAP1 PUSH1 0x2 MUL OR SWAP1 JUMP JUMPDEST ADD MLOAD SWAP1 POP CODESIZE DUP1 PUSH2 0x392 JUMP JUMPDEST PUSH1 0x1F NOT DUP4 AND SWAP2 PUSH2 0x3C6 DUP6 PUSH1 0x0 MSTORE PUSH1 0x20 PUSH1 0x0 KECCAK256 SWAP1 JUMP JUMPDEST SWAP3 PUSH1 0x0 JUMPDEST DUP2 DUP2 LT PUSH2 0x404 JUMPI POP SWAP2 PUSH1 0x2 SWAP4 SWAP2 DUP6 PUSH1 0x1 SWAP7 SWAP5 LT PUSH2 0x3EB JUMPI JUMPDEST POP POP POP MUL ADD SWAP1 SSTORE JUMP JUMPDEST ADD MLOAD PUSH1 0x0 NOT PUSH1 0x8 PUSH1 0x1F DUP6 AND MUL SHR NOT AND SWAP1 SSTORE CODESIZE DUP1 DUP1 PUSH2 0x3E2 JUMP JUMPDEST SWAP2 SWAP4 PUSH1 0x20 PUSH1 0x1 DUP2 SWAP3 DUP8 DUP8 ADD MLOAD DUP2 SSTORE ADD SWAP6 ADD SWAP3 ADD PUSH2 0x3CA JUMP JUMPDEST SWAP1 PUSH2 0x86 SWAP2 PUSH2 0x34A JUMP JUMPDEST SWAP1 PUSH1 0xFF SWAP1 PUSH2 0x233 JUMP JUMPDEST SWAP1 PUSH2 0x43F PUSH2 0x110 PUSH2 0x261 SWAP3 ISZERO ISZERO SWAP1 JUMP JUMPDEST DUP3 SLOAD PUSH2 0x426 JUMP JUMPDEST PUSH2 0x110 PUSH1 0x0 PUSH2 0x23D JUMP JUMPDEST SWAP1 PUSH2 0x45D PUSH2 0xD7 DUP4 PUSH2 0x88 JUMP JUMPDEST SWAP2 DUP3 MSTORE JUMP JUMPDEST PUSH2 0x46C PUSH1 0x1 PUSH2 0x450 JUMP JUMPDEST PUSH1 0x31 PUSH1 0xF8 SHL PUSH1 0x20 DUP3 ADD MSTORE SWAP1 JUMP JUMPDEST PUSH2 0x110 PUSH2 0x462 JUMP JUMPDEST PUSH2 0x110 SWAP1 PUSH2 0x113 SWAP1 PUSH1 0x1 PUSH1 0x1 PUSH1 0xA0 SHL SUB AND DUP3 JUMP JUMPDEST PUSH2 0x110 SWAP1 PUSH2 0x481 JUMP JUMPDEST PUSH2 0x110 SWAP1 PUSH2 0x495 JUMP JUMPDEST SWAP1 MSTORE JUMP JUMPDEST SWAP1 SWAP6 SWAP5 SWAP3 PUSH2 0x86 SWAP5 PUSH2 0x4DD PUSH2 0x4E4 SWAP3 PUSH2 0x4D6 PUSH1 0x80 SWAP7 PUSH2 0x4CF PUSH1 0xA0 DUP9 ADD SWAP13 PUSH1 0x0 DUP10 ADD MSTORE JUMP JUMPDEST PUSH1 0x20 DUP8 ADD MSTORE JUMP JUMPDEST PUSH1 0x40 DUP6 ADD MSTORE JUMP JUMPDEST PUSH1 0x60 DUP4 ADD MSTORE JUMP JUMPDEST ADD SWAP1 PUSH1 0x1 PUSH1 0x1 PUSH1 0xA0 SHL SUB AND SWAP1 MSTORE JUMP JUMPDEST SWAP1 PUSH2 0x25A PUSH2 0x110 PUSH2 0x261 SWAP3 SWAP1 JUMP JUMPDEST PUSH2 0x50E PUSH2 0x110 PUSH2 0x110 SWAP3 SWAP1 JUMP JUMPDEST PUSH1 0x1 PUSH1 0x1 PUSH1 0x60 SHL SUB AND SWAP1 JUMP JUMPDEST SWAP2 SWAP5 SWAP6 PUSH2 0x555 PUSH2 0x86 SWAP8 PUSH2 0x54E PUSH2 0x64D SWAP8 PUSH2 0x547 PUSH2 0x5BC SWAP9 PUSH2 0x540 PUSH2 0x55C SWAP9 DUP11 DUP15 PUSH2 0x65D JUMP JUMPDEST PUSH1 0x13 PUSH2 0x24A JUMP JUMPDEST PUSH1 0x14 PUSH2 0x24A JUMP JUMPDEST PUSH1 0x10 PUSH2 0x41C JUMP JUMPDEST PUSH1 0x11 PUSH2 0x41C JUMP JUMPDEST PUSH2 0x568 PUSH1 0x0 PUSH1 0x12 PUSH2 0x42F JUMP JUMPDEST PUSH2 0x57C PUSH2 0x575 PUSH1 0x0 PUSH2 0x23D JUMP JUMPDEST PUSH1 0x16 PUSH2 0x24A JUMP JUMPDEST PUSH2 0x58D DUP5 PUSH2 0x588 PUSH2 0x446 JUMP JUMPDEST PUSH2 0x77A JUMP JUMPDEST POP PUSH2 0x5B8 DUP5 PUSH32 0x2FDAC322EE704CE09F0773F7F3F92EB98D5E7C836EE9C056CCCD5F61041E5E3F PUSH2 0x77A JUMP JUMPDEST POP SWAP1 JUMP JUMPDEST PUSH2 0x5CE PUSH2 0x5C7 DUP3 MLOAD SWAP1 JUMP JUMPDEST SWAP2 PUSH1 0x20 ADD SWAP1 JUMP JUMPDEST KECCAK256 PUSH2 0x63A PUSH2 0x5DA PUSH2 0x479 JUMP JUMPDEST PUSH2 0x5E5 PUSH2 0x5C7 DUP3 MLOAD SWAP1 JUMP JUMPDEST KECCAK256 SWAP2 PUSH2 0x5F0 ADDRESS PUSH2 0x49E JUMP JUMPDEST SWAP3 PUSH2 0x62E PUSH2 0x5FD PUSH1 0x40 MLOAD SWAP1 JUMP JUMPDEST SWAP5 DUP6 SWAP4 PUSH1 0x20 DUP6 ADD SWAP4 CHAINID SWAP2 PUSH32 0x8B73C3C69BB8FE3D512ECC4CF759CC79239F7B179B0FFACAA9A75D522B39400F DUP7 PUSH2 0x4AB JUMP JUMPDEST SWAP1 DUP2 SUB DUP3 MSTORE SUB DUP3 PUSH2 0x4C JUMP JUMPDEST PUSH2 0x645 PUSH2 0x5C7 DUP3 MLOAD SWAP1 JUMP JUMPDEST KECCAK256 PUSH1 0xE PUSH2 0x4F3 JUMP JUMPDEST PUSH2 0x657 PUSH1 0x0 PUSH2 0x501 JUMP JUMPDEST SWAP1 PUSH2 0x8F1 JUMP JUMPDEST PUSH2 0x86 SWAP3 DUP4 SWAP3 DUP4 SWAP3 DUP4 SWAP3 DUP4 SWAP3 DUP4 SWAP3 PUSH2 0x67A JUMP JUMPDEST PUSH2 0x110 PUSH1 0x1 PUSH2 0x23D JUMP JUMPDEST SWAP1 PUSH2 0x685 SWAP3 SWAP2 PUSH2 0x697 JUMP JUMPDEST PUSH2 0x86 PUSH2 0x690 PUSH2 0x670 JUMP JUMPDEST PUSH1 0xA PUSH2 0x24A JUMP JUMPDEST SWAP1 PUSH2 0x86 SWAP3 SWAP2 PUSH2 0x6B8 JUMP JUMPDEST PUSH2 0x113 PUSH2 0x110 PUSH2 0x110 SWAP3 SWAP1 JUMP JUMPDEST PUSH2 0x110 SWAP1 PUSH2 0x6A2 JUMP JUMPDEST SWAP2 PUSH2 0x6C2 SWAP2 PUSH2 0x70E JUMP JUMPDEST PUSH1 0x0 PUSH2 0x6CD DUP2 PUSH2 0x6AF JUMP JUMPDEST PUSH1 0x1 PUSH1 0x1 PUSH1 0xA0 SHL SUB DUP2 AND PUSH1 0x1 PUSH1 0x1 PUSH1 0xA0 SHL SUB DUP5 AND EQ PUSH2 0x6F1 JUMPI POP POP PUSH2 0x86 SWAP1 PUSH2 0x9C3 JUMP JUMPDEST PUSH4 0x1E4FBDF7 PUSH1 0xE0 SHL DUP3 MSTORE PUSH1 0x1 PUSH1 0x1 PUSH1 0xA0 SHL SUB AND PUSH1 0x4 DUP3 ADD MSTORE PUSH1 0x24 SWAP1 REVERT JUMPDEST PUSH2 0x86 SWAP2 PUSH2 0x728 SWAP2 PUSH2 0x721 SWAP1 PUSH1 0x2 PUSH2 0x41C JUMP JUMPDEST PUSH1 0x3 PUSH2 0x41C JUMP JUMPDEST PUSH2 0x730 PUSH2 0x446 JUMP JUMPDEST PUSH2 0x73B DUP2 PUSH1 0x0 PUSH2 0x24A JUMP JUMPDEST PUSH2 0x74C PUSH2 0x748 PUSH1 0x0 NOT SWAP3 SWAP1 JUMP JUMPDEST SWAP2 SWAP1 JUMP JUMPDEST LT PUSH2 0x753 JUMPI JUMP JUMPDEST PUSH4 0xFED8210F PUSH1 0xE0 SHL PUSH2 0xA14 JUMP JUMPDEST SWAP1 JUMPDEST PUSH1 0x0 MSTORE PUSH1 0x20 MSTORE PUSH1 0x40 PUSH1 0x0 KECCAK256 SWAP1 JUMP JUMPDEST SWAP1 PUSH2 0x762 SWAP1 PUSH2 0x49E JUMP JUMPDEST PUSH2 0x78B PUSH2 0x787 DUP4 DUP4 PUSH2 0xA1D JUMP JUMPDEST ISZERO SWAP1 JUMP JUMPDEST ISZERO PUSH2 0x7FF JUMPI PUSH2 0x7B1 PUSH1 0x1 PUSH2 0x7AC DUP5 PUSH1 0x0 PUSH2 0x7A6 DUP7 PUSH1 0xB PUSH2 0x760 JUMP JUMPDEST ADD PUSH2 0x770 JUMP JUMPDEST PUSH2 0x42F JUMP JUMPDEST PUSH2 0x7CB PUSH2 0x7C5 PUSH2 0x7BF CALLER SWAP4 SWAP1 JUMP JUMPDEST SWAP4 PUSH2 0x49E JUMP JUMPDEST SWAP2 PUSH2 0x49E JUMP JUMPDEST SWAP2 PUSH32 0x2F8788117E7EFF1D82E926EC794901D17C78024A50270940304540A733656F0D PUSH2 0x7F6 PUSH1 0x40 MLOAD SWAP1 JUMP JUMPDEST PUSH1 0x0 SWAP1 LOG4 PUSH1 0x1 SWAP1 JUMP JUMPDEST POP POP PUSH1 0x0 SWAP1 JUMP JUMPDEST PUSH2 0x110 SWAP1 DUP2 SWAP1 PUSH1 0x1 PUSH1 0x1 PUSH1 0x60 SHL SUB AND DUP2 JUMP JUMPDEST PUSH2 0x4A7 SWAP1 PUSH2 0x806 JUMP JUMPDEST SWAP2 PUSH1 0x20 PUSH2 0x86 SWAP3 SWAP5 SWAP4 PUSH2 0x83C PUSH1 0x40 DUP3 ADD SWAP7 PUSH1 0x0 DUP4 ADD SWAP1 PUSH2 0x818 JUMP JUMPDEST ADD MSTORE JUMP JUMPDEST PUSH2 0x110 PUSH1 0x40 PUSH2 0x72 JUMP JUMPDEST SWAP1 PUSH1 0x1 PUSH1 0x1 PUSH1 0xA0 SHL SUB SWAP1 PUSH2 0x233 JUMP JUMPDEST SWAP1 PUSH2 0x869 PUSH2 0x110 PUSH2 0x261 SWAP3 PUSH2 0x49E JUMP JUMPDEST DUP3 SLOAD PUSH2 0x84A JUMP JUMPDEST SWAP1 PUSH1 0x1 PUSH1 0x1 PUSH1 0xA0 SHL SUB NOT SWAP1 PUSH1 0xA0 SHL PUSH2 0x233 JUMP JUMPDEST PUSH2 0x110 SWAP1 PUSH2 0x50E SWAP1 PUSH1 0x1 PUSH1 0x1 PUSH1 0x60 SHL SUB AND DUP3 JUMP JUMPDEST SWAP1 PUSH2 0x8A7 PUSH2 0x110 PUSH2 0x261 SWAP3 PUSH2 0x883 JUMP JUMPDEST DUP3 SLOAD PUSH2 0x870 JUMP JUMPDEST PUSH2 0x86 SWAP2 PUSH2 0x8E1 SWAP1 PUSH1 0x20 SWAP1 PUSH2 0x8D3 PUSH2 0x8CD DUP3 MLOAD PUSH1 0x1 PUSH1 0x1 PUSH1 0xA0 SHL SUB AND SWAP1 JUMP JUMPDEST DUP6 PUSH2 0x859 JUMP JUMPDEST ADD MLOAD PUSH1 0x1 PUSH1 0x1 PUSH1 0x60 SHL SUB AND SWAP1 JUMP JUMPDEST SWAP1 PUSH2 0x897 JUMP JUMPDEST SWAP1 PUSH2 0x86 SWAP2 PUSH2 0x8AE JUMP JUMPDEST SWAP1 PUSH2 0x902 PUSH2 0x8FD PUSH2 0xA41 JUMP JUMPDEST PUSH2 0x806 JUMP JUMPDEST DUP1 PUSH2 0x90C DUP4 PUSH2 0x806 JUMP JUMPDEST GT PUSH2 0x991 JUMPI POP PUSH1 0x0 SWAP2 PUSH2 0x91E DUP4 PUSH2 0x6AF JUMP JUMPDEST PUSH1 0x1 PUSH1 0x1 PUSH1 0xA0 SHL SUB DUP2 AND PUSH1 0x1 PUSH1 0x1 PUSH1 0xA0 SHL SUB DUP4 AND EQ PUSH2 0x974 JUMPI POP PUSH2 0x86 SWAP3 SWAP2 PUSH2 0x95D PUSH2 0x96D SWAP3 PUSH2 0x94C PUSH2 0x840 JUMP JUMPDEST SWAP5 DUP6 ADD SWAP1 PUSH1 0x1 PUSH1 0x1 PUSH1 0xA0 SHL SUB AND SWAP1 MSTORE JUMP JUMPDEST PUSH1 0x1 PUSH1 0x1 PUSH1 0x60 SHL SUB AND PUSH1 0x20 DUP4 ADD MSTORE JUMP JUMPDEST PUSH1 0xC PUSH2 0x8E7 JUMP JUMPDEST PUSH4 0x5B6CC805 PUSH1 0xE1 SHL DUP5 MSTORE PUSH1 0x1 PUSH1 0x1 PUSH1 0xA0 SHL SUB AND PUSH1 0x4 DUP5 ADD MSTORE PUSH1 0x24 DUP4 REVERT JUMPDEST PUSH4 0x6F483D09 PUSH1 0xE0 SHL PUSH1 0x0 SWAP1 DUP2 MSTORE SWAP2 PUSH2 0x9AB SWAP2 SWAP1 PUSH1 0x4 PUSH2 0x821 JUMP JUMPDEST SUB PUSH1 0x0 REVERT JUMPDEST PUSH2 0x110 SWAP1 PUSH2 0x113 JUMP JUMPDEST PUSH2 0x110 SWAP1 SLOAD PUSH2 0x9B0 JUMP JUMPDEST PUSH2 0x9E3 PUSH2 0x7C5 PUSH2 0x9D3 PUSH1 0x9 PUSH2 0x9B9 JUMP JUMPDEST PUSH2 0x9DE DUP5 PUSH1 0x9 PUSH2 0x859 JUMP JUMPDEST PUSH2 0x49E JUMP JUMPDEST SWAP1 PUSH32 0x8BE0079C531659141344CD1FD0A4F28419497F9722A3DAAFE3B4186F6B6457E0 PUSH2 0xA0E PUSH1 0x40 MLOAD SWAP1 JUMP JUMPDEST PUSH1 0x0 SWAP1 LOG3 JUMP JUMPDEST PUSH1 0x0 MSTORE PUSH1 0x4 PUSH1 0x0 REVERT JUMPDEST PUSH2 0x110 SWAP2 PUSH1 0x0 PUSH2 0x7A6 PUSH2 0xA3A SWAP4 PUSH2 0xA32 PUSH1 0x0 SWAP1 JUMP JUMPDEST POP PUSH1 0xB PUSH2 0x760 JUMP JUMPDEST SLOAD PUSH1 0xFF AND SWAP1 JUMP JUMPDEST PUSH2 0x110 PUSH2 0x2710 PUSH2 0x501 JUMP INVALID PUSH1 0x80 PUSH1 0x40 MSTORE PUSH1 0x4 CALLDATASIZE LT ISZERO PUSH2 0x12 JUMPI PUSH1 0x0 DUP1 REVERT JUMPDEST PUSH1 0x0 CALLDATALOAD PUSH1 0xE0 SHR DUP1 PUSH4 0x1FFC9A7 EQ PUSH2 0x4ED JUMPI DUP1 PUSH4 0x4634D8D EQ PUSH2 0x4E8 JUMPI DUP1 PUSH4 0x6FDDE03 EQ PUSH2 0x4E3 JUMPI DUP1 PUSH4 0x81812FC EQ PUSH2 0x4DE JUMPI DUP1 PUSH4 0x95EA7B3 EQ PUSH2 0x4D9 JUMPI DUP1 PUSH4 0x14F93A49 EQ PUSH2 0x4D4 JUMPI DUP1 PUSH4 0x17F82990 EQ PUSH2 0x4CF JUMPI DUP1 PUSH4 0x18160DDD EQ PUSH2 0x4CA JUMPI DUP1 PUSH4 0x1C4B774B EQ PUSH2 0x4C5 JUMPI DUP1 PUSH4 0x233DEDF1 EQ PUSH2 0x4C0 JUMPI DUP1 PUSH4 0x23B872DD EQ PUSH2 0x4BB JUMPI DUP1 PUSH4 0x2474E2B2 EQ PUSH2 0x4B6 JUMPI DUP1 PUSH4 0x248A9CA3 EQ PUSH2 0x4B1 JUMPI DUP1 PUSH4 0x2496DD51 EQ PUSH2 0x4AC JUMPI DUP1 PUSH4 0x276A28A3 EQ PUSH2 0x4A7 JUMPI DUP1 PUSH4 0x2A55205A EQ PUSH2 0x4A2 JUMPI DUP1 PUSH4 0x2A67C158 EQ PUSH2 0x49D JUMPI DUP1 PUSH4 0x2A959B89 EQ PUSH2 0x498 JUMPI DUP1 PUSH4 0x2CFB6688 EQ PUSH2 0x493 JUMPI DUP1 PUSH4 0x2F2FF15D EQ PUSH2 0x48E JUMPI DUP1 PUSH4 0x36568ABE EQ PUSH2 0x489 JUMPI DUP1 PUSH4 0x3736D853 EQ PUSH2 0x484 JUMPI DUP1 PUSH4 0x3F4BA83A EQ PUSH2 0x47F JUMPI DUP1 PUSH4 0x42842E0E EQ PUSH2 0x47A JUMPI DUP1 PUSH4 0x42966C68 EQ PUSH2 0x475 JUMPI DUP1 PUSH4 0x4EA3871A EQ PUSH2 0x470 JUMPI DUP1 PUSH4 0x55F804B3 EQ PUSH2 0x46B JUMPI DUP1 PUSH4 0x5944C753 EQ PUSH2 0x466 JUMPI DUP1 PUSH4 0x5C975ABB EQ PUSH2 0x461 JUMPI DUP1 PUSH4 0x6352211E EQ PUSH2 0x45C JUMPI DUP1 PUSH4 0x66CFD072 EQ PUSH2 0x457 JUMPI DUP1 PUSH4 0x6817C76C EQ PUSH2 0x452 JUMPI DUP1 PUSH4 0x6CC232E9 EQ PUSH2 0x44D JUMPI DUP1 PUSH4 0x6CE76F30 EQ PUSH2 0x448 JUMPI DUP1 PUSH4 0x6FC23DB4 EQ PUSH2 0x443 JUMPI DUP1 PUSH4 0x70A08231 EQ PUSH2 0x43E JUMPI DUP1 PUSH4 0x70AE92D2 EQ PUSH2 0x439 JUMPI DUP1 PUSH4 0x715018A6 EQ PUSH2 0x434 JUMPI DUP1 PUSH4 0x7C33BD70 EQ PUSH2 0x42F JUMPI DUP1 PUSH4 0x80C47440 EQ PUSH2 0x42A JUMPI DUP1 PUSH4 0x82666BC8 EQ PUSH2 0x425 JUMPI DUP1 PUSH4 0x8456CB59 EQ PUSH2 0x420 JUMPI DUP1 PUSH4 0x86BB8F37 EQ PUSH2 0x41B JUMPI DUP1 PUSH4 0x8AD7D9DE EQ PUSH2 0x416 JUMPI DUP1 PUSH4 0x8DA5CB5B EQ PUSH2 0x411 JUMPI DUP1 PUSH4 0x91D14854 EQ PUSH2 0x40C JUMPI DUP1 PUSH4 0x938E3D7B EQ PUSH2 0x407 JUMPI DUP1 PUSH4 0x95D89B41 EQ PUSH2 0x402 JUMPI DUP1 PUSH4 0x9FD6DB12 EQ PUSH2 0x3FD JUMPI DUP1 PUSH4 0xA217FDDF EQ PUSH2 0x3F8 JUMPI DUP1 PUSH4 0xA22CB465 EQ PUSH2 0x3F3 JUMPI DUP1 PUSH4 0xA3E37652 EQ PUSH2 0x3EE JUMPI DUP1 PUSH4 0xA5F10FE7 EQ PUSH2 0x3E9 JUMPI DUP1 PUSH4 0xA7B1190A EQ PUSH2 0x3E4 JUMPI DUP1 PUSH4 0xAE594865 EQ PUSH2 0x3DF JUMPI DUP1 PUSH4 0xB5573847 EQ PUSH2 0x3DA JUMPI DUP1 PUSH4 0xB88D4FDE EQ PUSH2 0x3D5 JUMPI DUP1 PUSH4 0xBC577940 EQ PUSH2 0x3D0 JUMPI DUP1 PUSH4 0xBD39E149 EQ PUSH2 0x3CB JUMPI DUP1 PUSH4 0xBE707DB1 EQ PUSH2 0x3C6 JUMPI DUP1 PUSH4 0xC0788555 EQ PUSH2 0x3C1 JUMPI DUP1 PUSH4 0xC4228AAA EQ PUSH2 0x3BC JUMPI DUP1 PUSH4 0xC7A5156F EQ PUSH2 0x3B7 JUMPI DUP1 PUSH4 0xC87B56DD EQ PUSH2 0x3B2 JUMPI DUP1 PUSH4 0xCCD40400 EQ PUSH2 0x3AD JUMPI DUP1 PUSH4 0xD547741F EQ PUSH2 0x3A8 JUMPI DUP1 PUSH4 0xD5ABEB01 EQ PUSH2 0x3A3 JUMPI DUP1 PUSH4 0xDCAE6754 EQ PUSH2 0x39E JUMPI DUP1 PUSH4 0xDD4BA7E1 EQ PUSH2 0x399 JUMPI DUP1 PUSH4 0xE985E9C5 EQ PUSH2 0x394 JUMPI DUP1 PUSH4 0xEABDC5B4 EQ PUSH2 0x38F JUMPI DUP1 PUSH4 0xED24911D EQ PUSH2 0x376 JUMPI DUP1 PUSH4 0xF064997C EQ PUSH2 0x38A JUMPI DUP1 PUSH4 0xF12E061B EQ PUSH2 0x385 JUMPI DUP1 PUSH4 0xF2FDE38B EQ PUSH2 0x380 JUMPI DUP1 PUSH4 0xF301AF42 EQ PUSH2 0x37B JUMPI DUP1 PUSH4 0xF698DA25 EQ PUSH2 0x376 JUMPI PUSH4 0xFFAB4BD9 SUB PUSH2 0x4F2 JUMPI PUSH2 0x1B51 JUMP JUMPDEST PUSH2 0x1979 JUMP JUMPDEST PUSH2 0x1B17 JUMP JUMPDEST PUSH2 0x19D3 JUMP JUMPDEST PUSH2 0x19BB JUMP JUMPDEST PUSH2 0x19A0 JUMP JUMPDEST PUSH2 0x1961 JUMP JUMPDEST PUSH2 0x1945 JUMP JUMPDEST PUSH2 0x1901 JUMP JUMPDEST PUSH2 0x1875 JUMP JUMPDEST PUSH2 0x184A JUMP JUMPDEST PUSH2 0x1825 JUMP JUMPDEST PUSH2 0x180D JUMP JUMPDEST PUSH2 0x17F2 JUMP JUMPDEST PUSH2 0x17B7 JUMP JUMPDEST PUSH2 0x159A JUMP JUMPDEST PUSH2 0x1556 JUMP JUMPDEST PUSH2 0x1467 JUMP JUMPDEST PUSH2 0x144F JUMP JUMPDEST PUSH2 0x1433 JUMP JUMPDEST PUSH2 0x141C JUMP JUMPDEST PUSH2 0x13A6 JUMP JUMPDEST PUSH2 0x1326 JUMP JUMPDEST PUSH2 0x130D JUMP JUMPDEST PUSH2 0x12B1 JUMP JUMPDEST PUSH2 0x125C JUMP JUMPDEST PUSH2 0x1232 JUMP JUMPDEST PUSH2 0x11F4 JUMP JUMPDEST PUSH2 0x11BA JUMP JUMPDEST PUSH2 0x1179 JUMP JUMPDEST PUSH2 0x1161 JUMP JUMPDEST PUSH2 0x1145 JUMP JUMPDEST PUSH2 0x1120 JUMP JUMPDEST PUSH2 0x1107 JUMP JUMPDEST PUSH2 0x10EE JUMP JUMPDEST PUSH2 0x10D6 JUMP JUMPDEST PUSH2 0x10BA JUMP JUMPDEST PUSH2 0x1047 JUMP JUMPDEST PUSH2 0x1014 JUMP JUMPDEST PUSH2 0xEE5 JUMP JUMPDEST PUSH2 0xECA JUMP JUMPDEST PUSH2 0xEAF JUMP JUMPDEST PUSH2 0xE96 JUMP JUMPDEST PUSH2 0xE7B JUMP JUMPDEST PUSH2 0xE37 JUMP JUMPDEST PUSH2 0xE08 JUMP JUMPDEST PUSH2 0xDE4 JUMP JUMPDEST PUSH2 0xDC9 JUMP JUMPDEST PUSH2 0xDAE JUMP JUMPDEST PUSH2 0xD95 JUMP JUMPDEST PUSH2 0xD54 JUMP JUMPDEST PUSH2 0xD17 JUMP JUMPDEST PUSH2 0xCD6 JUMP JUMPDEST PUSH2 0xCC2 JUMP JUMPDEST PUSH2 0xCAA JUMP JUMPDEST PUSH2 0xC92 JUMP JUMPDEST PUSH2 0xC79 JUMP JUMPDEST PUSH2 0xC60 JUMP JUMPDEST PUSH2 0xC25 JUMP JUMPDEST PUSH2 0xC0C JUMP JUMPDEST PUSH2 0xBC1 JUMP JUMPDEST PUSH2 0xA18 JUMP JUMPDEST PUSH2 0x9C0 JUMP JUMPDEST PUSH2 0x9A7 JUMP JUMPDEST PUSH2 0x956 JUMP JUMPDEST PUSH2 0x93E JUMP JUMPDEST PUSH2 0x92A JUMP JUMPDEST PUSH2 0x8E6 JUMP JUMPDEST PUSH2 0x89D JUMP JUMPDEST PUSH2 0x7A6 JUMP JUMPDEST PUSH2 0x78D JUMP JUMPDEST PUSH2 0x774 JUMP JUMPDEST PUSH2 0x708 JUMP JUMPDEST PUSH2 0x6B0 JUMP JUMPDEST PUSH2 0x662 JUMP JUMPDEST PUSH2 0x5CD JUMP JUMPDEST PUSH2 0x534 JUMP JUMPDEST PUSH1 0x0 DUP1 REVERT JUMPDEST PUSH1 0x1 PUSH1 0x1 PUSH1 0xE0 SHL SUB NOT DUP2 AND JUMPDEST SUB PUSH2 0x4F2 JUMPI JUMP JUMPDEST SWAP1 POP CALLDATALOAD SWAP1 PUSH2 0x517 DUP3 PUSH2 0x4F7 JUMP JUMPDEST JUMP JUMPDEST SWAP1 PUSH1 0x20 DUP3 DUP3 SUB SLT PUSH2 0x4F2 JUMPI PUSH2 0x52D SWAP2 PUSH2 0x50A JUMP JUMPDEST SWAP1 JUMP JUMPDEST SWAP1 MSTORE JUMP JUMPDEST CALLVALUE PUSH2 0x4F2 JUMPI PUSH2 0x562 PUSH2 0x54F PUSH2 0x54A CALLDATASIZE PUSH1 0x4 PUSH2 0x519 JUMP JUMPDEST PUSH2 0x1B6A JUMP JUMPDEST PUSH1 0x40 MLOAD JUMPDEST SWAP2 DUP3 SWAP2 DUP3 SWAP1 ISZERO ISZERO DUP2 MSTORE PUSH1 0x20 ADD SWAP1 JUMP JUMPDEST SUB SWAP1 RETURN JUMPDEST PUSH1 0x1 PUSH1 0x1 PUSH1 0xA0 SHL SUB AND SWAP1 JUMP JUMPDEST PUSH1 0x1 PUSH1 0x1 PUSH1 0xA0 SHL SUB DUP2 AND PUSH2 0x503 JUMP JUMPDEST SWAP1 POP CALLDATALOAD SWAP1 PUSH2 0x517 DUP3 PUSH2 0x572 JUMP JUMPDEST PUSH1 0x1 PUSH1 0x1 PUSH1 0x60 SHL SUB DUP2 AND PUSH2 0x503 JUMP JUMPDEST SWAP1 POP CALLDATALOAD SWAP1 PUSH2 0x517 DUP3 PUSH2 0x58E JUMP JUMPDEST SWAP2 SWAP1 PUSH1 0x40 DUP4 DUP3 SUB SLT PUSH2 0x4F2 JUMPI PUSH2 0x52D SWAP1 PUSH1 0x20 PUSH2 0x5C6 DUP3 DUP7 PUSH2 0x581 JUMP JUMPDEST SWAP5 ADD PUSH2 0x59D JUMP JUMPDEST CALLVALUE PUSH2 0x4F2 JUMPI PUSH2 0x5E6 PUSH2 0x5E0 CALLDATASIZE PUSH1 0x4 PUSH2 0x5AA JUMP JUMPDEST SWAP1 PUSH2 0x1C9A JUMP JUMPDEST PUSH1 0x40 MLOAD STOP JUMPDEST PUSH1 0x0 SWAP2 SUB SLT PUSH2 0x4F2 JUMPI JUMP JUMPDEST PUSH1 0x0 JUMPDEST DUP4 DUP2 LT PUSH2 0x609 JUMPI POP POP PUSH1 0x0 SWAP2 ADD MSTORE JUMP JUMPDEST DUP2 DUP2 ADD MLOAD DUP4 DUP3 ADD MSTORE PUSH1 0x20 ADD PUSH2 0x5F9 JUMP JUMPDEST PUSH2 0x63A PUSH2 0x643 PUSH1 0x20 SWAP4 PUSH2 0x64D SWAP4 PUSH2 0x62E DUP2 MLOAD SWAP1 JUMP JUMPDEST DUP1 DUP4 MSTORE SWAP4 DUP5 SWAP3 PUSH1 0x20 ADD SWAP1 JUMP JUMPDEST SWAP6 DUP7 SWAP2 ADD PUSH2 0x5F6 JUMP JUMPDEST PUSH1 0x1F ADD PUSH1 0x1F NOT AND SWAP1 JUMP JUMPDEST ADD SWAP1 JUMP JUMPDEST PUSH1 0x20 DUP1 DUP3 MSTORE PUSH2 0x52D SWAP3 SWAP2 ADD SWAP1 PUSH2 0x619 JUMP JUMPDEST CALLVALUE PUSH2 0x4F2 JUMPI PUSH2 0x672 CALLDATASIZE PUSH1 0x4 PUSH2 0x5EB JUMP JUMPDEST PUSH2 0x562 PUSH2 0x67D PUSH2 0x1CAD JUMP JUMPDEST PUSH1 0x40 MLOAD SWAP2 DUP3 SWAP2 DUP3 PUSH2 0x651 JUMP JUMPDEST DUP1 PUSH2 0x503 JUMP JUMPDEST SWAP1 POP CALLDATALOAD SWAP1 PUSH2 0x517 DUP3 PUSH2 0x689 JUMP JUMPDEST SWAP1 PUSH1 0x20 DUP3 DUP3 SUB SLT PUSH2 0x4F2 JUMPI PUSH2 0x52D SWAP2 PUSH2 0x68F JUMP JUMPDEST CALLVALUE PUSH2 0x4F2 JUMPI PUSH2 0x562 PUSH2 0x6CB PUSH2 0x6C6 CALLDATASIZE PUSH1 0x4 PUSH2 0x69C JUMP JUMPDEST PUSH2 0x1CB7 JUMP JUMPDEST PUSH1 0x40 MLOAD SWAP2 DUP3 SWAP2 DUP3 PUSH1 0x1 PUSH1 0x1 PUSH1 0xA0 SHL SUB SWAP1 SWAP2 AND DUP2 MSTORE PUSH1 0x20 ADD SWAP1 JUMP JUMPDEST SWAP2 SWAP1 PUSH1 0x40 DUP4 DUP3 SUB SLT PUSH2 0x4F2 JUMPI PUSH2 0x52D SWAP1 PUSH1 0x20 PUSH2 0x701 DUP3 DUP7 PUSH2 0x581 JUMP JUMPDEST SWAP5 ADD PUSH2 0x68F JUMP JUMPDEST PUSH2 0x5E6 PUSH2 0x716 CALLDATASIZE PUSH1 0x4 PUSH2 0x6E5 JUMP JUMPDEST SWAP1 PUSH2 0x1CF6 JUMP JUMPDEST SWAP1 SWAP2 DUP3 PUSH1 0x1F DUP4 ADD SLT ISZERO PUSH2 0x4F2 JUMPI DUP2 CALLDATALOAD SWAP2 PUSH1 0x1 PUSH1 0x1 PUSH1 0x40 SHL SUB DUP4 GT PUSH2 0x4F2 JUMPI PUSH1 0x20 ADD SWAP3 PUSH1 0x20 DUP4 MUL DUP5 ADD GT PUSH2 0x4F2 JUMPI JUMP JUMPDEST SWAP1 PUSH1 0x20 DUP3 DUP3 SUB SLT PUSH2 0x4F2 JUMPI DUP2 CALLDATALOAD PUSH1 0x1 PUSH1 0x1 PUSH1 0x40 SHL SUB DUP2 GT PUSH2 0x4F2 JUMPI PUSH2 0x770 SWAP3 ADD PUSH2 0x71C JUMP JUMPDEST SWAP1 SWAP2 JUMP JUMPDEST CALLVALUE PUSH2 0x4F2 JUMPI PUSH2 0x5E6 PUSH2 0x787 CALLDATASIZE PUSH1 0x4 PUSH2 0x74B JUMP JUMPDEST SWAP1 PUSH2 0x1DFA JUMP JUMPDEST CALLVALUE PUSH2 0x4F2 JUMPI PUSH2 0x5E6 PUSH2 0x7A0 CALLDATASIZE PUSH1 0x4 PUSH2 0x74B JUMP JUMPDEST SWAP1 PUSH2 0x1E51 JUMP JUMPDEST CALLVALUE PUSH2 0x4F2 JUMPI PUSH2 0x7B6 CALLDATASIZE PUSH1 0x4 PUSH2 0x5EB JUMP JUMPDEST PUSH2 0x562 PUSH2 0x7C1 PUSH2 0x1E5B JUMP JUMPDEST PUSH1 0x40 MLOAD JUMPDEST SWAP2 DUP3 SWAP2 DUP3 SWAP1 DUP2 MSTORE PUSH1 0x20 ADD SWAP1 JUMP JUMPDEST DUP1 MLOAD DUP3 MSTORE SWAP1 PUSH2 0x52D SWAP1 PUSH2 0x140 DUP1 PUSH2 0x884 PUSH2 0x870 PUSH2 0x823 PUSH2 0x802 PUSH2 0x160 DUP8 ADD PUSH1 0x20 DUP11 ADD MLOAD DUP9 DUP3 SUB PUSH1 0x20 DUP11 ADD MSTORE PUSH2 0x619 JUMP JUMPDEST PUSH2 0x811 PUSH1 0x40 DUP11 ADD MLOAD PUSH1 0x40 DUP10 ADD MSTORE JUMP JUMPDEST PUSH1 0x60 DUP10 ADD MLOAD DUP8 DUP3 SUB PUSH1 0x60 DUP10 ADD MSTORE PUSH2 0x619 JUMP JUMPDEST PUSH1 0x80 DUP9 DUP2 ADD MLOAD ISZERO ISZERO SWAP1 DUP8 ADD MSTORE PUSH2 0x83E PUSH1 0xA0 DUP10 ADD MLOAD PUSH1 0xA0 DUP9 ADD MSTORE JUMP JUMPDEST PUSH2 0x84D PUSH1 0xC0 DUP10 ADD MLOAD PUSH1 0xC0 DUP9 ADD MSTORE JUMP JUMPDEST PUSH2 0x85C PUSH1 0xE0 DUP10 ADD MLOAD PUSH1 0xE0 DUP9 ADD MSTORE JUMP JUMPDEST PUSH2 0x100 DUP9 ADD MLOAD DUP7 DUP3 SUB PUSH2 0x100 DUP9 ADD MSTORE PUSH2 0x619 JUMP JUMPDEST PUSH2 0x120 DUP8 ADD MLOAD DUP6 DUP3 SUB PUSH2 0x120 DUP8 ADD MSTORE PUSH2 0x619 JUMP JUMPDEST SWAP5 ADD MLOAD SWAP2 ADD MSTORE JUMP JUMPDEST PUSH1 0x20 DUP1 DUP3 MSTORE PUSH2 0x52D SWAP3 SWAP2 ADD SWAP1 PUSH2 0x7D2 JUMP JUMPDEST CALLVALUE PUSH2 0x4F2 JUMPI PUSH2 0x562 PUSH2 0x8B8 PUSH2 0x8B3 CALLDATASIZE PUSH1 0x4 PUSH2 0x69C JUMP JUMPDEST PUSH2 0x1FCA JUMP JUMPDEST PUSH1 0x40 MLOAD SWAP2 DUP3 SWAP2 DUP3 PUSH2 0x88C JUMP JUMPDEST PUSH2 0x52D SWAP2 PUSH1 0x8 MUL SHR DUP2 JUMP JUMPDEST SWAP1 PUSH2 0x52D SWAP2 SLOAD PUSH2 0x8C4 JUMP JUMPDEST PUSH2 0x52D PUSH1 0x0 PUSH1 0xF PUSH2 0x8CF JUMP JUMPDEST CALLVALUE PUSH2 0x4F2 JUMPI PUSH2 0x8F6 CALLDATASIZE PUSH1 0x4 PUSH2 0x5EB JUMP JUMPDEST PUSH2 0x562 PUSH2 0x7C1 PUSH2 0x8DA JUMP JUMPDEST SWAP1 SWAP2 PUSH1 0x60 DUP3 DUP5 SUB SLT PUSH2 0x4F2 JUMPI PUSH2 0x52D PUSH2 0x91A DUP5 DUP5 PUSH2 0x581 JUMP JUMPDEST SWAP4 PUSH1 0x40 PUSH2 0x701 DUP3 PUSH1 0x20 DUP8 ADD PUSH2 0x581 JUMP JUMPDEST PUSH2 0x5E6 PUSH2 0x938 CALLDATASIZE PUSH1 0x4 PUSH2 0x901 JUMP JUMPDEST SWAP2 PUSH2 0x2057 JUMP JUMPDEST CALLVALUE PUSH2 0x4F2 JUMPI PUSH2 0x5E6 PUSH2 0x951 CALLDATASIZE PUSH1 0x4 PUSH2 0x69C JUMP JUMPDEST PUSH2 0x2428 JUMP JUMPDEST CALLVALUE PUSH2 0x4F2 JUMPI PUSH2 0x562 PUSH2 0x7C1 PUSH2 0x96C CALLDATASIZE PUSH1 0x4 PUSH2 0x69C JUMP JUMPDEST PUSH2 0x2437 JUMP JUMPDEST SWAP2 PUSH1 0x40 DUP4 DUP4 SUB SLT PUSH2 0x4F2 JUMPI DUP3 CALLDATALOAD PUSH1 0x1 PUSH1 0x1 PUSH1 0x40 SHL SUB DUP2 GT PUSH2 0x4F2 JUMPI DUP3 PUSH2 0x99E PUSH1 0x20 SWAP5 PUSH2 0x52D SWAP4 DUP8 ADD PUSH2 0x71C JUMP JUMPDEST SWAP5 SWAP1 SWAP6 ADD PUSH2 0x68F JUMP JUMPDEST CALLVALUE PUSH2 0x4F2 JUMPI PUSH2 0x5E6 PUSH2 0x9BA CALLDATASIZE PUSH1 0x4 PUSH2 0x971 JUMP JUMPDEST SWAP2 PUSH2 0x2533 JUMP JUMPDEST CALLVALUE PUSH2 0x4F2 JUMPI PUSH2 0x562 PUSH2 0x54F PUSH2 0x9D6 CALLDATASIZE PUSH1 0x4 PUSH2 0x69C JUMP JUMPDEST PUSH2 0x253E JUMP JUMPDEST SWAP2 SWAP1 PUSH1 0x40 DUP4 DUP3 SUB SLT PUSH2 0x4F2 JUMPI PUSH2 0x52D SWAP1 PUSH1 0x20 PUSH2 0x701 DUP3 DUP7 PUSH2 0x68F JUMP JUMPDEST PUSH1 0x1 PUSH1 0x1 PUSH1 0xA0 SHL SUB SWAP1 SWAP2 AND DUP2 MSTORE PUSH1 0x40 DUP2 ADD SWAP3 SWAP2 PUSH2 0x517 SWAP2 PUSH1 0x20 ADD MSTORE JUMP JUMPDEST ADD MSTORE JUMP JUMPDEST CALLVALUE PUSH2 0x4F2 JUMPI PUSH2 0xA31 PUSH2 0xA2B CALLDATASIZE PUSH1 0x4 PUSH2 0x9DB JUMP JUMPDEST SWAP1 PUSH2 0x266C JUMP JUMPDEST SWAP1 PUSH2 0x562 PUSH2 0xA3E PUSH1 0x40 MLOAD SWAP1 JUMP JUMPDEST SWAP3 DUP4 SWAP3 DUP4 PUSH2 0x9F7 JUMP JUMPDEST PUSH4 0x4E487B71 PUSH1 0xE0 SHL PUSH1 0x0 MSTORE PUSH1 0x41 PUSH1 0x4 MSTORE PUSH1 0x24 PUSH1 0x0 REVERT JUMPDEST SWAP1 PUSH1 0x1F ADD PUSH1 0x1F NOT AND DUP2 ADD SWAP1 DUP2 LT PUSH1 0x1 PUSH1 0x1 PUSH1 0x40 SHL SUB DUP3 GT OR PUSH2 0xA7E JUMPI PUSH1 0x40 MSTORE JUMP JUMPDEST PUSH2 0xA47 JUMP JUMPDEST SWAP1 PUSH2 0x517 PUSH2 0xA90 PUSH1 0x40 MLOAD SWAP1 JUMP JUMPDEST SWAP3 DUP4 PUSH2 0xA5D JUMP JUMPDEST PUSH1 0x1 PUSH1 0x1 PUSH1 0x40 SHL SUB DUP2 GT PUSH2 0xA7E JUMPI PUSH1 0x20 SWAP1 PUSH1 0x1F ADD PUSH1 0x1F NOT AND ADD SWAP1 JUMP JUMPDEST SWAP1 DUP3 PUSH1 0x0 SWAP4 SWAP3 DUP3 CALLDATACOPY ADD MSTORE JUMP JUMPDEST SWAP1 SWAP3 SWAP2 SWAP3 PUSH2 0xAD4 PUSH2 0xACF DUP3 PUSH2 0xA97 JUMP JUMPDEST PUSH2 0xA83 JUMP JUMPDEST SWAP4 DUP2 DUP6 MSTORE DUP2 DUP4 ADD GT PUSH2 0x4F2 JUMPI PUSH2 0x517 SWAP2 PUSH1 0x20 DUP6 ADD SWAP1 PUSH2 0xAB3 JUMP JUMPDEST SWAP1 DUP1 PUSH1 0x1F DUP4 ADD SLT ISZERO PUSH2 0x4F2 JUMPI DUP2 PUSH1 0x20 PUSH2 0x52D SWAP4 CALLDATALOAD SWAP2 ADD PUSH2 0xABF JUMP JUMPDEST SWAP2 SWAP1 PUSH2 0x100 DUP4 DUP3 SUB SLT PUSH2 0x4F2 JUMPI DUP3 CALLDATALOAD PUSH1 0x1 PUSH1 0x1 PUSH1 0x40 SHL SUB DUP2 GT PUSH2 0x4F2 JUMPI DUP2 PUSH2 0xB32 SWAP2 DUP6 ADD PUSH2 0xAEE JUMP JUMPDEST SWAP3 PUSH2 0xB40 DUP3 PUSH1 0x20 DUP4 ADD PUSH2 0x68F JUMP JUMPDEST SWAP3 PUSH1 0x40 DUP3 ADD CALLDATALOAD PUSH1 0x1 PUSH1 0x1 PUSH1 0x40 SHL SUB DUP2 GT PUSH2 0x4F2 JUMPI DUP4 PUSH2 0xB60 SWAP2 DUP5 ADD PUSH2 0xAEE JUMP JUMPDEST SWAP3 PUSH1 0x60 DUP4 ADD CALLDATALOAD PUSH1 0x1 PUSH1 0x1 PUSH1 0x40 SHL SUB DUP2 GT PUSH2 0x4F2 JUMPI DUP2 PUSH2 0xB80 SWAP2 DUP6 ADD PUSH2 0xAEE JUMP JUMPDEST SWAP3 PUSH1 0x80 DUP2 ADD CALLDATALOAD PUSH1 0x1 PUSH1 0x1 PUSH1 0x40 SHL SUB DUP2 GT PUSH2 0x4F2 JUMPI DUP3 PUSH2 0xBA0 SWAP2 DUP4 ADD PUSH2 0xAEE JUMP JUMPDEST SWAP3 PUSH2 0x52D PUSH2 0xBB1 DUP5 PUSH1 0xA0 DUP6 ADD PUSH2 0x68F JUMP JUMPDEST SWAP4 PUSH1 0xE0 PUSH2 0x701 DUP3 PUSH1 0xC0 DUP8 ADD PUSH2 0x68F JUMP JUMPDEST CALLVALUE PUSH2 0x4F2 JUMPI PUSH2 0x5E6 PUSH2 0xBD4 CALLDATASIZE PUSH1 0x4 PUSH2 0xB09 JUMP JUMPDEST SWAP7 SWAP6 SWAP1 SWAP6 SWAP5 SWAP2 SWAP5 SWAP4 SWAP3 SWAP4 PUSH2 0x2E3F JUMP JUMPDEST SWAP1 SWAP2 PUSH1 0x60 DUP3 DUP5 SUB SLT PUSH2 0x4F2 JUMPI PUSH2 0x52D PUSH2 0xBFC DUP5 DUP5 PUSH2 0x581 JUMP JUMPDEST SWAP4 PUSH1 0x40 PUSH2 0x701 DUP3 PUSH1 0x20 DUP8 ADD PUSH2 0x68F JUMP JUMPDEST CALLVALUE PUSH2 0x4F2 JUMPI PUSH2 0x5E6 PUSH2 0xC1F CALLDATASIZE PUSH1 0x4 PUSH2 0xBE3 JUMP JUMPDEST SWAP2 PUSH2 0x3169 JUMP JUMPDEST CALLVALUE PUSH2 0x4F2 JUMPI PUSH2 0x5E6 PUSH2 0xC38 CALLDATASIZE PUSH1 0x4 PUSH2 0x69C JUMP JUMPDEST PUSH2 0x3450 JUMP JUMPDEST SWAP2 SWAP1 PUSH1 0x40 DUP4 DUP3 SUB SLT PUSH2 0x4F2 JUMPI PUSH2 0x52D SWAP1 PUSH1 0x20 PUSH2 0xC59 DUP3 DUP7 PUSH2 0x68F JUMP JUMPDEST SWAP5 ADD PUSH2 0x581 JUMP JUMPDEST CALLVALUE PUSH2 0x4F2 JUMPI PUSH2 0x5E6 PUSH2 0xC73 CALLDATASIZE PUSH1 0x4 PUSH2 0xC3D JUMP JUMPDEST SWAP1 PUSH2 0x3477 JUMP JUMPDEST CALLVALUE PUSH2 0x4F2 JUMPI PUSH2 0x5E6 PUSH2 0xC8C CALLDATASIZE PUSH1 0x4 PUSH2 0xC3D JUMP JUMPDEST SWAP1 PUSH2 0x3481 JUMP JUMPDEST CALLVALUE PUSH2 0x4F2 JUMPI PUSH2 0x5E6 PUSH2 0xCA5 CALLDATASIZE PUSH1 0x4 PUSH2 0x69C JUMP JUMPDEST PUSH2 0x359A JUMP JUMPDEST CALLVALUE PUSH2 0x4F2 JUMPI PUSH2 0xCBA CALLDATASIZE PUSH1 0x4 PUSH2 0x5EB JUMP JUMPDEST PUSH2 0x5E6 PUSH2 0x35B9 JUMP JUMPDEST PUSH2 0x5E6 PUSH2 0xCD0 CALLDATASIZE PUSH1 0x4 PUSH2 0x901 JUMP JUMPDEST SWAP2 PUSH2 0x35E5 JUMP JUMPDEST CALLVALUE PUSH2 0x4F2 JUMPI PUSH2 0x5E6 PUSH2 0xCE9 CALLDATASIZE PUSH1 0x4 PUSH2 0x69C JUMP JUMPDEST PUSH2 0x3649 JUMP JUMPDEST DUP1 ISZERO ISZERO PUSH2 0x503 JUMP JUMPDEST SWAP1 POP CALLDATALOAD SWAP1 PUSH2 0x517 DUP3 PUSH2 0xCEE JUMP JUMPDEST SWAP1 PUSH1 0x20 DUP3 DUP3 SUB SLT PUSH2 0x4F2 JUMPI PUSH2 0x52D SWAP2 PUSH2 0xCF6 JUMP JUMPDEST CALLVALUE PUSH2 0x4F2 JUMPI PUSH2 0x5E6 PUSH2 0xD2A CALLDATASIZE PUSH1 0x4 PUSH2 0xD03 JUMP JUMPDEST PUSH2 0x36D5 JUMP JUMPDEST SWAP1 PUSH1 0x20 DUP3 DUP3 SUB SLT PUSH2 0x4F2 JUMPI DUP2 CALLDATALOAD PUSH1 0x1 PUSH1 0x1 PUSH1 0x40 SHL SUB DUP2 GT PUSH2 0x4F2 JUMPI PUSH2 0x52D SWAP3 ADD PUSH2 0xAEE JUMP JUMPDEST CALLVALUE PUSH2 0x4F2 JUMPI PUSH2 0x5E6 PUSH2 0xD67 CALLDATASIZE PUSH1 0x4 PUSH2 0xD2F JUMP JUMPDEST PUSH2 0x371D JUMP JUMPDEST SWAP1 SWAP2 PUSH1 0x60 DUP3 DUP5 SUB SLT PUSH2 0x4F2 JUMPI PUSH2 0x52D PUSH2 0xD85 DUP5 DUP5 PUSH2 0x68F JUMP JUMPDEST SWAP4 PUSH1 0x40 PUSH2 0x5C6 DUP3 PUSH1 0x20 DUP8 ADD PUSH2 0x581 JUMP JUMPDEST CALLVALUE PUSH2 0x4F2 JUMPI PUSH2 0x5E6 PUSH2 0xDA8 CALLDATASIZE PUSH1 0x4 PUSH2 0xD6C JUMP JUMPDEST SWAP2 PUSH2 0x3793 JUMP JUMPDEST CALLVALUE PUSH2 0x4F2 JUMPI PUSH2 0xDBE CALLDATASIZE PUSH1 0x4 PUSH2 0x5EB JUMP JUMPDEST PUSH2 0x562 PUSH2 0x54F PUSH2 0x37B4 JUMP JUMPDEST CALLVALUE PUSH2 0x4F2 JUMPI PUSH2 0x562 PUSH2 0x6CB PUSH2 0xDDF CALLDATASIZE PUSH1 0x4 PUSH2 0x69C JUMP JUMPDEST PUSH2 0x37BE JUMP JUMPDEST CALLVALUE PUSH2 0x4F2 JUMPI PUSH2 0x5E6 PUSH2 0xDF7 CALLDATASIZE PUSH1 0x4 PUSH2 0x69C JUMP JUMPDEST PUSH2 0x389D JUMP JUMPDEST PUSH2 0x52D PUSH1 0x0 PUSH1 0x14 PUSH2 0x8CF JUMP JUMPDEST CALLVALUE PUSH2 0x4F2 JUMPI PUSH2 0xE18 CALLDATASIZE PUSH1 0x4 PUSH2 0x5EB JUMP JUMPDEST PUSH2 0x562 PUSH2 0x7C1 PUSH2 0xDFC JUMP JUMPDEST SWAP1 PUSH1 0x20 DUP3 DUP3 SUB SLT PUSH2 0x4F2 JUMPI PUSH2 0x52D SWAP2 PUSH2 0x581 JUMP JUMPDEST CALLVALUE PUSH2 0x4F2 JUMPI PUSH2 0x5E6 PUSH2 0xE4A CALLDATASIZE PUSH1 0x4 PUSH2 0xE23 JUMP JUMPDEST PUSH2 0x38F4 JUMP JUMPDEST PUSH32 0x2FDAC322EE704CE09F0773F7F3F92EB98D5E7C836EE9C056CCCD5F61041E5E3F SWAP1 JUMP JUMPDEST PUSH2 0x52D PUSH2 0xE4F JUMP JUMPDEST CALLVALUE PUSH2 0x4F2 JUMPI PUSH2 0xE8B CALLDATASIZE PUSH1 0x4 PUSH2 0x5EB JUMP JUMPDEST PUSH2 0x562 PUSH2 0x7C1 PUSH2 0xE73 JUMP JUMPDEST CALLVALUE PUSH2 0x4F2 JUMPI PUSH2 0x5E6 PUSH2 0xEA9 CALLDATASIZE PUSH1 0x4 PUSH2 0x74B JUMP JUMPDEST SWAP1 PUSH2 0x3961 JUMP JUMPDEST CALLVALUE PUSH2 0x4F2 JUMPI PUSH2 0x562 PUSH2 0x7C1 PUSH2 0xEC5 CALLDATASIZE PUSH1 0x4 PUSH2 0xE23 JUMP JUMPDEST PUSH2 0x397B JUMP JUMPDEST CALLVALUE PUSH2 0x4F2 JUMPI PUSH2 0x562 PUSH2 0x7C1 PUSH2 0xEE0 CALLDATASIZE PUSH1 0x4 PUSH2 0xE23 JUMP JUMPDEST PUSH2 0x39BE JUMP JUMPDEST CALLVALUE PUSH2 0x4F2 JUMPI PUSH2 0xEF5 CALLDATASIZE PUSH1 0x4 PUSH2 0x5EB JUMP JUMPDEST PUSH2 0x5E6 PUSH2 0x39F2 JUMP JUMPDEST DUP1 MLOAD DUP3 MSTORE SWAP1 PUSH2 0x52D SWAP1 PUSH2 0x120 DUP1 PUSH2 0x884 PUSH2 0x140 DUP5 ADD PUSH2 0xF21 PUSH1 0x20 DUP9 ADD MLOAD PUSH1 0x20 DUP8 ADD MSTORE JUMP JUMPDEST PUSH1 0x40 DUP8 DUP2 ADD MLOAD PUSH1 0x1 PUSH1 0x1 PUSH1 0xA0 SHL SUB AND SWAP1 DUP7 ADD MSTORE PUSH2 0xF43 PUSH1 0x60 DUP9 ADD MLOAD PUSH1 0x60 DUP8 ADD MSTORE JUMP JUMPDEST PUSH2 0xF52 PUSH1 0x80 DUP9 ADD MLOAD PUSH1 0x80 DUP8 ADD MSTORE JUMP JUMPDEST PUSH1 0xA0 DUP8 DUP2 ADD MLOAD ISZERO ISZERO SWAP1 DUP7 ADD MSTORE PUSH1 0xC0 DUP8 DUP2 ADD MLOAD ISZERO ISZERO SWAP1 DUP7 ADD MSTORE PUSH2 0xF79 PUSH1 0xE0 DUP9 ADD MLOAD PUSH1 0xE0 DUP8 ADD MSTORE JUMP JUMPDEST PUSH2 0x100 DUP8 ADD MLOAD DUP6 DUP3 SUB PUSH2 0x100 DUP8 ADD MSTORE PUSH2 0x619 JUMP JUMPDEST SWAP1 PUSH2 0x52D SWAP2 PUSH2 0xEFD JUMP JUMPDEST SWAP1 PUSH2 0xFAD PUSH2 0xFA3 DUP4 MLOAD SWAP1 JUMP JUMPDEST DUP1 DUP4 MSTORE SWAP2 PUSH1 0x20 ADD SWAP1 JUMP JUMPDEST SWAP1 DUP2 PUSH2 0xFBF PUSH1 0x20 DUP4 MUL DUP5 ADD SWAP5 PUSH1 0x20 ADD SWAP1 JUMP JUMPDEST SWAP3 PUSH1 0x0 SWAP2 JUMPDEST DUP4 DUP4 LT PUSH2 0xFD3 JUMPI POP POP POP POP POP SWAP1 JUMP JUMPDEST SWAP1 SWAP2 SWAP3 SWAP4 SWAP5 PUSH1 0x20 PUSH2 0xFF6 PUSH2 0xFEF DUP4 DUP6 PUSH1 0x1 SWAP6 SUB DUP8 MSTORE DUP10 MLOAD PUSH2 0xF8D JUMP JUMPDEST SWAP8 PUSH1 0x20 ADD SWAP1 JUMP JUMPDEST SWAP4 ADD SWAP4 ADD SWAP2 SWAP4 SWAP3 SWAP1 PUSH2 0xFC4 JUMP JUMPDEST PUSH1 0x20 DUP1 DUP3 MSTORE PUSH2 0x52D SWAP3 SWAP2 ADD SWAP1 PUSH2 0xF97 JUMP JUMPDEST CALLVALUE PUSH2 0x4F2 JUMPI PUSH2 0x562 PUSH2 0x102F PUSH2 0x102A CALLDATASIZE PUSH1 0x4 PUSH2 0x69C JUMP JUMPDEST PUSH2 0x3BA2 JUMP JUMPDEST PUSH1 0x40 MLOAD SWAP2 DUP3 SWAP2 DUP3 PUSH2 0x1003 JUMP JUMPDEST PUSH2 0x52D PUSH1 0x0 PUSH1 0x16 PUSH2 0x8CF JUMP JUMPDEST CALLVALUE PUSH2 0x4F2 JUMPI PUSH2 0x1057 CALLDATASIZE PUSH1 0x4 PUSH2 0x5EB JUMP JUMPDEST PUSH2 0x562 PUSH2 0x7C1 PUSH2 0x103B JUMP JUMPDEST SWAP2 SWAP1 PUSH1 0xA0 DUP4 DUP3 SUB SLT PUSH2 0x4F2 JUMPI PUSH2 0x1078 DUP2 DUP5 PUSH2 0x581 JUMP JUMPDEST SWAP3 PUSH2 0x1086 DUP3 PUSH1 0x20 DUP4 ADD PUSH2 0x581 JUMP JUMPDEST SWAP3 PUSH2 0x1094 DUP4 PUSH1 0x40 DUP5 ADD PUSH2 0x68F JUMP JUMPDEST SWAP3 PUSH1 0x60 DUP4 ADD CALLDATALOAD SWAP1 PUSH1 0x1 PUSH1 0x1 PUSH1 0x40 SHL SUB DUP3 GT PUSH2 0x4F2 JUMPI PUSH1 0x80 PUSH2 0x701 DUP3 PUSH2 0x52D SWAP5 DUP8 ADD PUSH2 0xAEE JUMP JUMPDEST CALLVALUE PUSH2 0x4F2 JUMPI PUSH2 0x5E6 PUSH2 0x10CD CALLDATASIZE PUSH1 0x4 PUSH2 0x1062 JUMP JUMPDEST SWAP4 SWAP3 SWAP1 SWAP3 PUSH2 0x3FD4 JUMP JUMPDEST CALLVALUE PUSH2 0x4F2 JUMPI PUSH2 0x10E6 CALLDATASIZE PUSH1 0x4 PUSH2 0x5EB JUMP JUMPDEST PUSH2 0x5E6 PUSH2 0x3FF7 JUMP JUMPDEST CALLVALUE PUSH2 0x4F2 JUMPI PUSH2 0x5E6 PUSH2 0x1101 CALLDATASIZE PUSH1 0x4 PUSH2 0x9DB JUMP JUMPDEST SWAP1 PUSH2 0x4588 JUMP JUMPDEST CALLVALUE PUSH2 0x4F2 JUMPI PUSH2 0x5E6 PUSH2 0x111A CALLDATASIZE PUSH1 0x4 PUSH2 0x971 JUMP JUMPDEST SWAP2 PUSH2 0x45ED JUMP JUMPDEST CALLVALUE PUSH2 0x4F2 JUMPI PUSH2 0x1130 CALLDATASIZE PUSH1 0x4 PUSH2 0x5EB JUMP JUMPDEST PUSH2 0x562 PUSH2 0x6CB PUSH1 0x9 SLOAD PUSH1 0x1 PUSH1 0x1 PUSH1 0xA0 SHL SUB AND SWAP1 JUMP JUMPDEST CALLVALUE PUSH2 0x4F2 JUMPI PUSH2 0x562 PUSH2 0x54F PUSH2 0x115B CALLDATASIZE PUSH1 0x4 PUSH2 0xC3D JUMP JUMPDEST SWAP1 PUSH2 0x45F8 JUMP JUMPDEST CALLVALUE PUSH2 0x4F2 JUMPI PUSH2 0x5E6 PUSH2 0x1174 CALLDATASIZE PUSH1 0x4 PUSH2 0xD2F JUMP JUMPDEST PUSH2 0x4657 JUMP JUMPDEST CALLVALUE PUSH2 0x4F2 JUMPI PUSH2 0x1189 CALLDATASIZE PUSH1 0x4 PUSH2 0x5EB JUMP JUMPDEST PUSH2 0x562 PUSH2 0x67D PUSH2 0x4660 JUMP JUMPDEST PUSH2 0x52D SWAP2 PUSH1 0x8 MUL SHR JUMPDEST PUSH1 0xFF AND SWAP1 JUMP JUMPDEST SWAP1 PUSH2 0x52D SWAP2 SLOAD PUSH2 0x1194 JUMP JUMPDEST PUSH2 0x52D PUSH1 0x0 PUSH1 0x12 PUSH2 0x11A3 JUMP JUMPDEST CALLVALUE PUSH2 0x4F2 JUMPI PUSH2 0x11CA CALLDATASIZE PUSH1 0x4 PUSH2 0x5EB JUMP JUMPDEST PUSH2 0x562 PUSH2 0x54F PUSH2 0x11AE JUMP JUMPDEST PUSH2 0x52D PUSH2 0x52D PUSH2 0x52D SWAP3 SWAP1 JUMP JUMPDEST PUSH2 0x52D PUSH1 0x0 PUSH2 0x11D5 JUMP JUMPDEST PUSH2 0x52D PUSH2 0x11E2 JUMP JUMPDEST CALLVALUE PUSH2 0x4F2 JUMPI PUSH2 0x1204 CALLDATASIZE PUSH1 0x4 PUSH2 0x5EB JUMP JUMPDEST PUSH2 0x562 PUSH2 0x7C1 PUSH2 0x11EC JUMP JUMPDEST SWAP2 SWAP1 PUSH1 0x40 DUP4 DUP3 SUB SLT PUSH2 0x4F2 JUMPI PUSH2 0x52D SWAP1 PUSH1 0x20 PUSH2 0x122B DUP3 DUP7 PUSH2 0x581 JUMP JUMPDEST SWAP5 ADD PUSH2 0xCF6 JUMP JUMPDEST CALLVALUE PUSH2 0x4F2 JUMPI PUSH2 0x5E6 PUSH2 0x1245 CALLDATASIZE PUSH1 0x4 PUSH2 0x120F JUMP JUMPDEST SWAP1 PUSH2 0x466A JUMP JUMPDEST PUSH1 0x20 DUP1 DUP3 MSTORE PUSH2 0x52D SWAP3 SWAP2 ADD SWAP1 PUSH2 0xEFD JUMP JUMPDEST CALLVALUE PUSH2 0x4F2 JUMPI PUSH2 0x562 PUSH2 0x1278 PUSH2 0x1272 CALLDATASIZE PUSH1 0x4 PUSH2 0x9DB JUMP JUMPDEST SWAP1 PUSH2 0x46BC JUMP JUMPDEST PUSH1 0x40 MLOAD SWAP2 DUP3 SWAP2 DUP3 PUSH2 0x124B JUMP JUMPDEST SWAP1 PUSH2 0x128E SWAP1 PUSH2 0x11D5 JUMP JUMPDEST PUSH1 0x0 MSTORE PUSH1 0x20 MSTORE PUSH1 0x40 PUSH1 0x0 KECCAK256 SWAP1 JUMP JUMPDEST PUSH1 0x0 PUSH2 0x12AC PUSH2 0x52D SWAP3 PUSH1 0x18 PUSH2 0x1284 JUMP JUMPDEST PUSH2 0x8CF JUMP JUMPDEST CALLVALUE PUSH2 0x4F2 JUMPI PUSH2 0x562 PUSH2 0x7C1 PUSH2 0x12C7 CALLDATASIZE PUSH1 0x4 PUSH2 0x69C JUMP JUMPDEST PUSH2 0x129C JUMP JUMPDEST SWAP2 PUSH1 0x60 DUP4 DUP4 SUB SLT PUSH2 0x4F2 JUMPI PUSH2 0x12E1 DUP3 DUP5 PUSH2 0x68F JUMP JUMPDEST SWAP3 PUSH2 0x12EF DUP4 PUSH1 0x20 DUP4 ADD PUSH2 0x68F JUMP JUMPDEST SWAP3 PUSH1 0x40 DUP3 ADD CALLDATALOAD PUSH1 0x1 PUSH1 0x1 PUSH1 0x40 SHL SUB DUP2 GT PUSH2 0x4F2 JUMPI PUSH2 0x52D SWAP3 ADD PUSH2 0xAEE JUMP JUMPDEST CALLVALUE PUSH2 0x4F2 JUMPI PUSH2 0x5E6 PUSH2 0x1320 CALLDATASIZE PUSH1 0x4 PUSH2 0x12CC JUMP JUMPDEST SWAP2 PUSH2 0x4802 JUMP JUMPDEST CALLVALUE PUSH2 0x4F2 JUMPI PUSH2 0x5E6 PUSH2 0x1339 CALLDATASIZE PUSH1 0x4 PUSH2 0x74B JUMP JUMPDEST SWAP1 PUSH2 0x4871 JUMP JUMPDEST DUP1 MLOAD DUP3 MSTORE PUSH1 0x20 DUP1 DUP3 ADD MLOAD PUSH1 0x1 PUSH1 0x1 PUSH1 0xA0 SHL SUB AND SWAP1 DUP4 ADD MSTORE PUSH2 0x517 SWAP2 SWAP1 PUSH1 0xA0 SWAP1 DUP2 SWAP1 PUSH2 0x136F PUSH1 0x40 DUP3 ADD MLOAD PUSH1 0x40 DUP7 ADD MSTORE JUMP JUMPDEST PUSH2 0x137E PUSH1 0x60 DUP3 ADD MLOAD PUSH1 0x60 DUP7 ADD MSTORE JUMP JUMPDEST PUSH2 0x138D PUSH1 0x80 DUP3 ADD MLOAD PUSH1 0x80 DUP7 ADD MSTORE JUMP JUMPDEST ADD MLOAD ISZERO ISZERO SWAP2 ADD MSTORE JUMP JUMPDEST PUSH1 0xC0 DUP2 ADD SWAP3 SWAP2 PUSH2 0x517 SWAP2 SWAP1 PUSH2 0x133F JUMP JUMPDEST CALLVALUE PUSH2 0x4F2 JUMPI PUSH2 0x562 PUSH2 0x13C1 PUSH2 0x13BC CALLDATASIZE PUSH1 0x4 PUSH2 0x69C JUMP JUMPDEST PUSH2 0x48AF JUMP JUMPDEST PUSH1 0x40 MLOAD SWAP2 DUP3 SWAP2 DUP3 PUSH2 0x1396 JUMP JUMPDEST SWAP1 PUSH1 0x80 DUP3 DUP3 SUB SLT PUSH2 0x4F2 JUMPI PUSH2 0x13E2 DUP2 DUP4 PUSH2 0x581 JUMP JUMPDEST SWAP3 PUSH2 0x13F0 DUP3 PUSH1 0x20 DUP6 ADD PUSH2 0x581 JUMP JUMPDEST SWAP3 PUSH2 0x13FE DUP4 PUSH1 0x40 DUP4 ADD PUSH2 0x68F JUMP JUMPDEST SWAP3 PUSH1 0x60 DUP3 ADD CALLDATALOAD PUSH1 0x1 PUSH1 0x1 PUSH1 0x40 SHL SUB DUP2 GT PUSH2 0x4F2 JUMPI PUSH2 0x52D SWAP3 ADD PUSH2 0xAEE JUMP JUMPDEST PUSH2 0x5E6 PUSH2 0x142A CALLDATASIZE PUSH1 0x4 PUSH2 0x13CD JUMP JUMPDEST SWAP3 SWAP2 SWAP1 SWAP2 PUSH2 0x48C6 JUMP JUMPDEST CALLVALUE PUSH2 0x4F2 JUMPI PUSH2 0x562 PUSH2 0x7C1 PUSH2 0x1449 CALLDATASIZE PUSH1 0x4 PUSH2 0x901 JUMP JUMPDEST SWAP2 PUSH2 0x4917 JUMP JUMPDEST CALLVALUE PUSH2 0x4F2 JUMPI PUSH2 0x5E6 PUSH2 0x1462 CALLDATASIZE PUSH1 0x4 PUSH2 0x69C JUMP JUMPDEST PUSH2 0x4A4D JUMP JUMPDEST CALLVALUE PUSH2 0x4F2 JUMPI PUSH2 0x5E6 PUSH2 0x147A CALLDATASIZE PUSH1 0x4 PUSH2 0x9DB JUMP JUMPDEST SWAP1 PUSH2 0x4BBF JUMP JUMPDEST PUSH2 0x52D SWAP1 DUP2 JUMP JUMPDEST PUSH2 0x52D SWAP1 SLOAD PUSH2 0x1480 JUMP JUMPDEST PUSH2 0x52D SWAP1 PUSH2 0x119D JUMP JUMPDEST PUSH2 0x52D SWAP1 SLOAD PUSH2 0x1491 JUMP JUMPDEST PUSH2 0x14AF SWAP1 PUSH1 0x1A PUSH2 0x1284 JUMP JUMPDEST SWAP1 PUSH2 0x14B9 DUP3 PUSH2 0x1487 JUMP JUMPDEST SWAP2 PUSH2 0x14CE PUSH1 0x1 DUP3 ADD SLOAD PUSH1 0x1 PUSH1 0x1 PUSH1 0xA0 SHL SUB AND SWAP1 JUMP JUMPDEST SWAP2 PUSH2 0x14DB PUSH1 0x2 DUP4 ADD PUSH2 0x1487 JUMP JUMPDEST SWAP2 PUSH2 0x14E8 PUSH1 0x3 DUP3 ADD PUSH2 0x1487 JUMP JUMPDEST SWAP2 PUSH2 0x52D PUSH1 0x5 PUSH2 0x14FA PUSH1 0x4 DUP6 ADD PUSH2 0x1487 JUMP JUMPDEST SWAP4 ADD PUSH2 0x149A JUMP JUMPDEST SWAP2 SWAP5 PUSH2 0x1547 PUSH2 0x154E SWAP3 SWAP9 SWAP8 SWAP6 PUSH2 0x1540 PUSH1 0xA0 SWAP7 PUSH2 0x1539 PUSH2 0x517 SWAP11 PUSH2 0x1529 PUSH1 0xC0 DUP11 ADD SWAP15 PUSH1 0x0 DUP12 ADD MSTORE JUMP JUMPDEST PUSH1 0x1 PUSH1 0x1 PUSH1 0xA0 SHL SUB AND PUSH1 0x20 DUP10 ADD MSTORE JUMP JUMPDEST PUSH1 0x40 DUP8 ADD MSTORE JUMP JUMPDEST PUSH1 0x60 DUP6 ADD MSTORE JUMP JUMPDEST PUSH1 0x80 DUP4 ADD MSTORE JUMP JUMPDEST ADD SWAP1 ISZERO ISZERO SWAP1 MSTORE JUMP JUMPDEST CALLVALUE PUSH2 0x4F2 JUMPI PUSH2 0x562 PUSH2 0x1571 PUSH2 0x156C CALLDATASIZE PUSH1 0x4 PUSH2 0x69C JUMP JUMPDEST PUSH2 0x14A4 JUMP JUMPDEST SWAP3 PUSH2 0x1581 SWAP7 SWAP5 SWAP7 SWAP3 SWAP2 SWAP3 PUSH1 0x40 MLOAD SWAP1 JUMP JUMPDEST SWAP7 DUP8 SWAP7 DUP8 PUSH2 0x1501 JUMP JUMPDEST PUSH1 0x0 PUSH2 0x12AC PUSH2 0x52D SWAP3 PUSH1 0x19 PUSH2 0x1284 JUMP JUMPDEST CALLVALUE PUSH2 0x4F2 JUMPI PUSH2 0x562 PUSH2 0x7C1 PUSH2 0x15B0 CALLDATASIZE PUSH1 0x4 PUSH2 0x69C JUMP JUMPDEST PUSH2 0x158A JUMP JUMPDEST PUSH2 0x52D SWAP1 PUSH1 0x8 SHR PUSH2 0x119D JUMP JUMPDEST PUSH2 0x52D SWAP1 SLOAD PUSH2 0x15B5 JUMP JUMPDEST PUSH4 0x4E487B71 PUSH1 0xE0 SHL PUSH1 0x0 MSTORE PUSH1 0x22 PUSH1 0x4 MSTORE PUSH1 0x24 PUSH1 0x0 REVERT JUMPDEST SWAP1 PUSH1 0x1 PUSH1 0x2 DUP4 DIV SWAP3 AND DUP1 ISZERO PUSH2 0x1601 JUMPI JUMPDEST PUSH1 0x20 DUP4 LT EQ PUSH2 0x15FC JUMPI JUMP JUMPDEST PUSH2 0x15CB JUMP JUMPDEST SWAP2 PUSH1 0x7F AND SWAP2 PUSH2 0x15F1 JUMP JUMPDEST DUP1 SLOAD PUSH1 0x0 SWAP4 SWAP3 SWAP2 PUSH2 0x1628 PUSH2 0x161E DUP4 PUSH2 0x15E1 JUMP JUMPDEST DUP1 DUP6 MSTORE SWAP4 PUSH1 0x20 ADD SWAP1 JUMP JUMPDEST SWAP2 PUSH1 0x1 DUP2 AND SWAP1 DUP2 ISZERO PUSH2 0x167A JUMPI POP PUSH1 0x1 EQ PUSH2 0x1641 JUMPI POP POP POP JUMP JUMPDEST PUSH2 0x1654 SWAP2 SWAP3 SWAP4 SWAP5 POP PUSH1 0x0 MSTORE PUSH1 0x20 PUSH1 0x0 KECCAK256 SWAP1 JUMP JUMPDEST SWAP2 PUSH1 0x0 SWAP3 JUMPDEST DUP2 DUP5 LT PUSH2 0x1666 JUMPI POP POP ADD SWAP1 JUMP JUMPDEST DUP1 SLOAD DUP5 DUP5 ADD MSTORE PUSH1 0x20 SWAP1 SWAP4 ADD SWAP3 PUSH1 0x1 ADD PUSH2 0x1659 JUMP JUMPDEST SWAP3 SWAP5 SWAP6 POP POP POP PUSH1 0xFF NOT AND DUP3 MSTORE ISZERO ISZERO PUSH1 0x20 MUL ADD SWAP1 JUMP JUMPDEST SWAP1 PUSH2 0x52D SWAP2 PUSH2 0x160B JUMP JUMPDEST SWAP1 PUSH2 0x517 PUSH2 0x16B3 SWAP3 PUSH2 0x16AA PUSH1 0x40 MLOAD SWAP1 JUMP JUMPDEST SWAP4 DUP5 DUP1 SWAP3 PUSH2 0x168F JUMP JUMPDEST SUB DUP4 PUSH2 0xA5D JUMP JUMPDEST SWAP1 PUSH2 0x16C9 PUSH2 0x16CE SWAP3 PUSH1 0x1C PUSH2 0x1284 JUMP JUMPDEST PUSH2 0x1284 JUMP JUMPDEST SWAP1 PUSH2 0x16D8 DUP3 PUSH2 0x1487 JUMP JUMPDEST SWAP2 PUSH2 0x16E5 PUSH1 0x1 DUP3 ADD PUSH2 0x1487 JUMP JUMPDEST SWAP2 PUSH2 0x16FA PUSH1 0x2 DUP4 ADD SLOAD PUSH1 0x1 PUSH1 0x1 PUSH1 0xA0 SHL SUB AND SWAP1 JUMP JUMPDEST SWAP2 PUSH2 0x1707 PUSH1 0x3 DUP3 ADD PUSH2 0x1487 JUMP JUMPDEST SWAP2 PUSH2 0x1714 PUSH1 0x4 DUP4 ADD PUSH2 0x1487 JUMP JUMPDEST SWAP2 PUSH2 0x1721 PUSH1 0x5 DUP3 ADD PUSH2 0x149A JUMP JUMPDEST SWAP2 PUSH2 0x172E PUSH1 0x5 DUP4 ADD PUSH2 0x15C1 JUMP JUMPDEST SWAP2 PUSH2 0x173B PUSH1 0x6 DUP3 ADD PUSH2 0x1487 JUMP JUMPDEST SWAP2 PUSH2 0x52D PUSH1 0x8 PUSH2 0x174D PUSH1 0x7 DUP6 ADD PUSH2 0x1699 JUMP JUMPDEST SWAP4 ADD PUSH2 0x1487 JUMP JUMPDEST SWAP1 DUP2 MSTORE PUSH1 0x20 DUP2 ADD SWAP2 SWAP1 SWAP2 MSTORE PUSH1 0x1 PUSH1 0x1 PUSH1 0xA0 SHL SUB SWAP1 SWAP2 AND PUSH1 0x40 DUP3 ADD MSTORE SWAP8 SWAP7 SWAP6 SWAP5 PUSH2 0x140 DUP10 ADD SWAP5 SWAP1 SWAP4 SWAP1 SWAP3 SWAP1 SWAP2 PUSH1 0x60 DUP11 ADD MSTORE PUSH1 0x80 DUP10 ADD MSTORE ISZERO ISZERO PUSH1 0xA0 DUP9 ADD MSTORE ISZERO ISZERO PUSH1 0xC0 DUP8 ADD MSTORE PUSH1 0xE0 DUP7 ADD MSTORE DUP5 DUP2 SUB PUSH2 0x100 DUP7 ADD MSTORE PUSH2 0x17AE SWAP2 PUSH2 0x619 JUMP JUMPDEST PUSH2 0x120 SWAP1 SWAP4 ADD MSTORE JUMP JUMPDEST CALLVALUE PUSH2 0x4F2 JUMPI PUSH2 0x562 PUSH2 0x17D3 PUSH2 0x17CD CALLDATASIZE PUSH1 0x4 PUSH2 0x9DB JUMP JUMPDEST SWAP1 PUSH2 0x16BA JUMP JUMPDEST SWAP7 PUSH2 0x17E9 SWAP11 SWAP9 SWAP11 SWAP7 SWAP2 SWAP7 SWAP6 SWAP3 SWAP6 SWAP5 SWAP4 SWAP5 PUSH1 0x40 MLOAD SWAP1 JUMP JUMPDEST SWAP11 DUP12 SWAP11 DUP12 PUSH2 0x1754 JUMP JUMPDEST CALLVALUE PUSH2 0x4F2 JUMPI PUSH2 0x562 PUSH2 0x67D PUSH2 0x1808 CALLDATASIZE PUSH1 0x4 PUSH2 0x69C JUMP JUMPDEST PUSH2 0x4BDD JUMP JUMPDEST CALLVALUE PUSH2 0x4F2 JUMPI PUSH2 0x5E6 PUSH2 0x1820 CALLDATASIZE PUSH1 0x4 PUSH2 0x69C JUMP JUMPDEST PUSH2 0x4C66 JUMP JUMPDEST CALLVALUE PUSH2 0x4F2 JUMPI PUSH2 0x5E6 PUSH2 0x1838 CALLDATASIZE PUSH1 0x4 PUSH2 0xC3D JUMP JUMPDEST SWAP1 PUSH2 0x4C8A JUMP JUMPDEST PUSH2 0x52D PUSH1 0x0 PUSH1 0x13 PUSH2 0x8CF JUMP JUMPDEST CALLVALUE PUSH2 0x4F2 JUMPI PUSH2 0x185A CALLDATASIZE PUSH1 0x4 PUSH2 0x5EB JUMP JUMPDEST PUSH2 0x562 PUSH2 0x7C1 PUSH2 0x183E JUMP JUMPDEST PUSH1 0x0 PUSH2 0x12AC PUSH2 0x52D SWAP3 PUSH1 0x17 PUSH2 0x1284 JUMP JUMPDEST CALLVALUE PUSH2 0x4F2 JUMPI PUSH2 0x562 PUSH2 0x7C1 PUSH2 0x188B CALLDATASIZE PUSH1 0x4 PUSH2 0x69C JUMP JUMPDEST PUSH2 0x1865 JUMP JUMPDEST SWAP1 PUSH2 0x64D DUP2 PUSH1 0xC0 SWAP4 PUSH2 0x133F JUMP JUMPDEST SWAP1 PUSH2 0x18BD PUSH2 0x18B6 PUSH2 0x18AC DUP5 MLOAD SWAP1 JUMP JUMPDEST DUP1 DUP5 MSTORE SWAP3 PUSH1 0x20 ADD SWAP1 JUMP JUMPDEST SWAP3 PUSH1 0x20 ADD SWAP1 JUMP JUMPDEST SWAP1 PUSH1 0x0 JUMPDEST DUP2 DUP2 LT PUSH2 0x18CE JUMPI POP POP POP SWAP1 JUMP JUMPDEST SWAP1 SWAP2 SWAP3 PUSH2 0x18E8 PUSH2 0x18E1 PUSH1 0x1 SWAP3 DUP7 MLOAD PUSH2 0x1890 JUMP JUMPDEST SWAP5 PUSH1 0x20 ADD SWAP1 JUMP JUMPDEST SWAP3 SWAP2 ADD PUSH2 0x18C1 JUMP JUMPDEST PUSH1 0x20 DUP1 DUP3 MSTORE PUSH2 0x52D SWAP3 SWAP2 ADD SWAP1 PUSH2 0x189D JUMP JUMPDEST CALLVALUE PUSH2 0x4F2 JUMPI PUSH2 0x562 PUSH2 0x191D PUSH2 0x1917 CALLDATASIZE PUSH1 0x4 PUSH2 0x74B JUMP JUMPDEST SWAP1 PUSH2 0x4CD5 JUMP JUMPDEST PUSH1 0x40 MLOAD SWAP2 DUP3 SWAP2 DUP3 PUSH2 0x18F0 JUMP JUMPDEST SWAP2 SWAP1 PUSH1 0x40 DUP4 DUP3 SUB SLT PUSH2 0x4F2 JUMPI PUSH2 0x52D SWAP1 PUSH1 0x20 PUSH2 0xC59 DUP3 DUP7 PUSH2 0x581 JUMP JUMPDEST CALLVALUE PUSH2 0x4F2 JUMPI PUSH2 0x562 PUSH2 0x54F PUSH2 0x195B CALLDATASIZE PUSH1 0x4 PUSH2 0x1929 JUMP JUMPDEST SWAP1 PUSH2 0x4D4A JUMP JUMPDEST CALLVALUE PUSH2 0x4F2 JUMPI PUSH2 0x5E6 PUSH2 0x1974 CALLDATASIZE PUSH1 0x4 PUSH2 0x69C JUMP JUMPDEST PUSH2 0x4DCC JUMP JUMPDEST CALLVALUE PUSH2 0x4F2 JUMPI PUSH2 0x1989 CALLDATASIZE PUSH1 0x4 PUSH2 0x5EB JUMP JUMPDEST PUSH2 0x562 PUSH2 0x7C1 PUSH2 0x4DD5 JUMP JUMPDEST PUSH2 0x52D PUSH1 0x0 PUSH1 0x1D PUSH2 0x8CF JUMP JUMPDEST CALLVALUE PUSH2 0x4F2 JUMPI PUSH2 0x19B0 CALLDATASIZE PUSH1 0x4 PUSH2 0x5EB JUMP JUMPDEST PUSH2 0x562 PUSH2 0x7C1 PUSH2 0x1994 JUMP JUMPDEST CALLVALUE PUSH2 0x4F2 JUMPI PUSH2 0x5E6 PUSH2 0x19CE CALLDATASIZE PUSH1 0x4 PUSH2 0xE23 JUMP JUMPDEST PUSH2 0x4E2D JUMP JUMPDEST CALLVALUE PUSH2 0x4F2 JUMPI PUSH2 0x5E6 PUSH2 0x19E6 CALLDATASIZE PUSH1 0x4 PUSH2 0xE23 JUMP JUMPDEST PUSH2 0x4E8E JUMP JUMPDEST PUSH2 0x19F6 SWAP1 PUSH1 0x1B PUSH2 0x1284 JUMP JUMPDEST PUSH2 0x19FF DUP2 PUSH2 0x1487 JUMP JUMPDEST SWAP2 PUSH2 0x1A0C PUSH1 0x1 DUP4 ADD PUSH2 0x1699 JUMP JUMPDEST SWAP2 PUSH2 0x1A19 PUSH1 0x2 DUP3 ADD PUSH2 0x1487 JUMP JUMPDEST SWAP2 PUSH2 0x1A26 PUSH1 0x3 DUP4 ADD PUSH2 0x1699 JUMP JUMPDEST SWAP2 PUSH2 0x1A33 PUSH1 0x4 DUP3 ADD PUSH2 0x149A JUMP JUMPDEST SWAP2 PUSH2 0x1A40 PUSH1 0x5 DUP4 ADD PUSH2 0x1487 JUMP JUMPDEST SWAP2 PUSH2 0x1A4D PUSH1 0x6 DUP3 ADD PUSH2 0x1487 JUMP JUMPDEST SWAP2 PUSH2 0x1A5A PUSH1 0x7 DUP4 ADD PUSH2 0x1487 JUMP JUMPDEST SWAP2 PUSH2 0x1A67 PUSH1 0x8 DUP3 ADD PUSH2 0x1699 JUMP JUMPDEST SWAP2 PUSH2 0x52D PUSH1 0xA PUSH2 0x174D PUSH1 0x9 DUP6 ADD PUSH2 0x1699 JUMP JUMPDEST SWAP12 SWAP11 SWAP9 SWAP3 PUSH2 0x1B12 SWAP8 PUSH1 0xC0 DUP15 PUSH2 0xA14 PUSH2 0x517 SWAP15 SWAP11 PUSH2 0x1AE7 PUSH2 0x1ADD PUSH2 0x140 SWAP16 SWAP9 SWAP8 PUSH2 0x1B03 SWAP14 SWAP13 PUSH2 0x1AD0 PUSH2 0x1AC8 PUSH2 0x1AEE SWAP12 PUSH2 0x1AF5 SWAP15 PUSH2 0x1ABB PUSH2 0x160 DUP13 ADD SWAP3 PUSH1 0x0 DUP14 ADD MSTORE JUMP JUMPDEST DUP11 DUP3 SUB PUSH1 0x20 DUP13 ADD MSTORE PUSH2 0x619 JUMP JUMPDEST SWAP3 PUSH1 0x40 DUP10 ADD MSTORE JUMP JUMPDEST DUP7 DUP3 SUB PUSH1 0x60 DUP9 ADD MSTORE PUSH2 0x619 JUMP JUMPDEST SWAP11 ISZERO ISZERO PUSH1 0x80 DUP6 ADD MSTORE JUMP JUMPDEST PUSH1 0xA0 DUP4 ADD MSTORE JUMP JUMPDEST PUSH1 0xE0 DUP13 ADD MSTORE JUMP JUMPDEST DUP10 DUP3 SUB PUSH2 0x100 DUP12 ADD MSTORE PUSH2 0x619 JUMP JUMPDEST SWAP1 DUP8 DUP3 SUB PUSH2 0x120 DUP10 ADD MSTORE PUSH2 0x619 JUMP JUMPDEST SWAP5 ADD MSTORE JUMP JUMPDEST CALLVALUE PUSH2 0x4F2 JUMPI PUSH2 0x562 PUSH2 0x1B32 PUSH2 0x1B2D CALLDATASIZE PUSH1 0x4 PUSH2 0x69C JUMP JUMPDEST PUSH2 0x19EB JUMP JUMPDEST SWAP8 PUSH2 0x1B48 SWAP12 SWAP10 SWAP12 SWAP8 SWAP2 SWAP8 SWAP7 SWAP3 SWAP7 SWAP6 SWAP4 SWAP6 PUSH1 0x40 MLOAD SWAP1 JUMP JUMPDEST SWAP12 DUP13 SWAP12 DUP13 PUSH2 0x1A79 JUMP JUMPDEST CALLVALUE PUSH2 0x4F2 JUMPI PUSH2 0x5E6 PUSH2 0x1B64 CALLDATASIZE PUSH1 0x4 PUSH2 0x9DB JUMP JUMPDEST SWAP1 PUSH2 0x515B JUMP JUMPDEST PUSH2 0x52D SWAP1 PUSH2 0x5165 JUMP JUMPDEST SWAP1 PUSH2 0x517 SWAP2 PUSH2 0x1B88 PUSH2 0x1B83 PUSH2 0xE4F JUMP JUMPDEST PUSH2 0x518E JUMP JUMPDEST PUSH2 0x1C1D JUMP JUMPDEST PUSH2 0x1B9A PUSH2 0x52D PUSH2 0x52D SWAP3 SWAP1 JUMP JUMPDEST PUSH1 0x1 PUSH1 0x1 PUSH1 0x60 SHL SUB AND SWAP1 JUMP JUMPDEST ISZERO PUSH2 0x1BAD JUMPI JUMP JUMPDEST PUSH1 0x40 MLOAD PUSH3 0x461BCD PUSH1 0xE5 SHL DUP2 MSTORE PUSH1 0x20 PUSH1 0x4 DUP3 ADD MSTORE PUSH1 0x19 PUSH1 0x24 DUP3 ADD MSTORE PUSH32 0x526F79616C74792063616E6E6F74206578636565642031302500000000000000 PUSH1 0x44 DUP3 ADD MSTORE DUP1 PUSH1 0x64 DUP2 ADD JUMPDEST SUB SWAP1 REVERT JUMPDEST PUSH2 0x52D SWAP1 PUSH2 0x566 SWAP1 PUSH1 0x1 PUSH1 0x1 PUSH1 0xA0 SHL SUB AND DUP3 JUMP JUMPDEST PUSH2 0x52D SWAP1 PUSH2 0x1BF7 JUMP JUMPDEST PUSH2 0x52D SWAP1 PUSH2 0x1C0B JUMP JUMPDEST PUSH2 0x1C95 PUSH2 0x1C74 PUSH32 0xAE1D656A1268648B04FFA79C1416F05879338AE295AAE3234D8DB217356A1C62 SWAP3 PUSH2 0x1C65 PUSH2 0x1C53 PUSH2 0x3E8 PUSH2 0x1B8D JUMP JUMPDEST PUSH1 0x1 PUSH1 0x1 PUSH1 0x60 SHL SUB DUP8 AND JUMPDEST GT ISZERO PUSH2 0x1BA6 JUMP JUMPDEST PUSH2 0x1C6F DUP6 DUP3 PUSH2 0x524A JUMP JUMPDEST PUSH2 0x1C14 JUMP JUMPDEST SWAP3 PUSH2 0x1C7E PUSH1 0x40 MLOAD SWAP1 JUMP JUMPDEST SWAP2 DUP3 SWAP2 DUP3 PUSH1 0x1 PUSH1 0x1 PUSH1 0x60 SHL SUB SWAP1 SWAP2 AND DUP2 MSTORE PUSH1 0x20 ADD SWAP1 JUMP JUMPDEST SUB SWAP1 LOG2 JUMP JUMPDEST SWAP1 PUSH2 0x517 SWAP2 PUSH2 0x1B73 JUMP JUMPDEST PUSH2 0x52D SWAP1 PUSH2 0x1699 JUMP JUMPDEST PUSH2 0x52D PUSH1 0x2 PUSH2 0x1CA4 JUMP JUMPDEST PUSH2 0x1CC7 PUSH2 0x1CC3 DUP3 PUSH2 0x5319 JUMP JUMPDEST ISZERO SWAP1 JUMP JUMPDEST PUSH2 0x1CE9 JUMPI PUSH1 0x0 PUSH2 0x1CDB PUSH2 0x52D SWAP3 PUSH1 0x6 PUSH2 0x1284 JUMP JUMPDEST ADD SLOAD PUSH1 0x1 PUSH1 0x1 PUSH1 0xA0 SHL SUB AND SWAP1 JUMP JUMPDEST PUSH4 0x33D1C039 PUSH1 0xE2 SHL PUSH2 0x539D JUMP JUMPDEST PUSH2 0x517 SWAP2 PUSH1 0x1 SWAP2 PUSH2 0x53A6 JUMP JUMPDEST SWAP1 PUSH2 0x517 SWAP2 PUSH2 0x1D12 PUSH2 0x1B83 PUSH2 0xE4F JUMP JUMPDEST PUSH2 0x1D91 JUMP JUMPDEST PUSH4 0x4E487B71 PUSH1 0xE0 SHL PUSH1 0x0 MSTORE PUSH1 0x32 PUSH1 0x4 MSTORE PUSH1 0x24 PUSH1 0x0 REVERT JUMPDEST SWAP2 SWAP1 DUP2 LT ISZERO PUSH2 0x1D3D JUMPI PUSH1 0x20 MUL ADD SWAP1 JUMP JUMPDEST PUSH2 0x1D17 JUMP JUMPDEST CALLDATALOAD PUSH2 0x52D DUP2 PUSH2 0x689 JUMP JUMPDEST ISZERO PUSH2 0x1D53 JUMPI JUMP JUMPDEST PUSH1 0x40 MLOAD PUSH3 0x461BCD PUSH1 0xE5 SHL DUP2 MSTORE PUSH1 0x20 PUSH1 0x4 DUP3 ADD MSTORE PUSH1 0x16 PUSH1 0x24 DUP3 ADD MSTORE PUSH22 0x546F6B656E204944206F7574206F6620626F756E6473 PUSH1 0x50 SHL PUSH1 0x44 DUP3 ADD MSTORE PUSH1 0x64 SWAP1 REVERT JUMPDEST SWAP2 SWAP1 SWAP2 PUSH2 0x1D9E PUSH1 0x0 PUSH2 0x11D5 JUMP JUMPDEST DUP4 DUP2 LT ISZERO PUSH2 0x1DF4 JUMPI DUP1 PUSH2 0x1DD8 PUSH2 0x1DC0 PUSH2 0x1DBB PUSH2 0x1DEF SWAP5 DUP9 DUP8 PUSH2 0x1D2D JUMP JUMPDEST PUSH2 0x1D42 JUMP JUMPDEST PUSH2 0x1DD2 PUSH2 0x1DCE PUSH2 0x52D PUSH2 0x544F JUMP JUMPDEST SWAP2 SWAP1 JUMP JUMPDEST LT PUSH2 0x1D4C JUMP JUMPDEST PUSH2 0x1DE9 PUSH2 0x1462 PUSH2 0x1DBB DUP4 DUP9 DUP8 PUSH2 0x1D2D JUMP JUMPDEST PUSH1 0x1 ADD SWAP1 JUMP JUMPDEST PUSH2 0x1D9E JUMP JUMPDEST POP POP SWAP1 POP JUMP JUMPDEST SWAP1 PUSH2 0x517 SWAP2 PUSH2 0x1D02 JUMP JUMPDEST SWAP1 PUSH2 0x517 SWAP2 PUSH2 0x1E11 PUSH2 0x5459 JUMP JUMPDEST SWAP2 SWAP1 SWAP2 PUSH2 0x1E1E PUSH1 0x0 PUSH2 0x11D5 JUMP JUMPDEST DUP4 DUP2 LT ISZERO PUSH2 0x1DF4 JUMPI DUP1 PUSH2 0x1E3B PUSH2 0x1DC0 PUSH2 0x1DBB PUSH2 0x1E4C SWAP5 DUP9 DUP8 PUSH2 0x1D2D JUMP JUMPDEST PUSH2 0x1DE9 PUSH2 0xC38 PUSH2 0x1DBB DUP4 DUP9 DUP8 PUSH2 0x1D2D JUMP JUMPDEST PUSH2 0x1E1E JUMP JUMPDEST SWAP1 PUSH2 0x517 SWAP2 PUSH2 0x1E04 JUMP JUMPDEST PUSH2 0x52D PUSH2 0x5479 JUMP JUMPDEST PUSH2 0x52D PUSH2 0x160 PUSH2 0xA83 JUMP JUMPDEST PUSH2 0x1E76 PUSH2 0x1E63 JUMP JUMPDEST SWAP1 PUSH1 0x0 DUP3 MSTORE PUSH1 0x20 DUP1 DUP1 DUP1 DUP1 DUP1 DUP1 DUP1 DUP1 DUP1 DUP1 DUP13 ADD PUSH1 0x60 DUP2 MSTORE ADD PUSH1 0x0 DUP2 MSTORE ADD PUSH1 0x60 DUP2 MSTORE ADD PUSH1 0x0 DUP2 MSTORE ADD PUSH1 0x0 DUP2 MSTORE ADD PUSH1 0x0 DUP2 MSTORE ADD PUSH1 0x0 DUP2 MSTORE ADD PUSH1 0x60 JUMPDEST DUP2 MSTORE ADD PUSH1 0x60 JUMPDEST DUP2 MSTORE ADD PUSH1 0x0 SWAP1 MSTORE POP JUMP JUMPDEST PUSH2 0x52D PUSH2 0x1E6E JUMP JUMPDEST SWAP1 PUSH2 0x517 PUSH2 0x1FB9 PUSH1 0xA PUSH2 0x1ED8 PUSH2 0x1E63 JUMP JUMPDEST SWAP5 PUSH2 0x1EE9 PUSH2 0x1EE5 DUP3 PUSH2 0x1487 JUMP JUMPDEST DUP8 MSTORE JUMP JUMPDEST PUSH2 0x1EFF PUSH2 0x1EF8 PUSH1 0x1 DUP4 ADD PUSH2 0x1699 JUMP JUMPDEST PUSH1 0x20 DUP9 ADD MSTORE JUMP JUMPDEST PUSH2 0x1F15 PUSH2 0x1F0E PUSH1 0x2 DUP4 ADD PUSH2 0x1487 JUMP JUMPDEST PUSH1 0x40 DUP9 ADD MSTORE JUMP JUMPDEST PUSH2 0x1F2B PUSH2 0x1F24 PUSH1 0x3 DUP4 ADD PUSH2 0x1699 JUMP JUMPDEST PUSH1 0x60 DUP9 ADD MSTORE JUMP JUMPDEST PUSH2 0x1F43 PUSH2 0x1F3A PUSH1 0x4 DUP4 ADD PUSH2 0x149A JUMP JUMPDEST ISZERO ISZERO PUSH1 0x80 DUP9 ADD MSTORE JUMP JUMPDEST PUSH2 0x1F59 PUSH2 0x1F52 PUSH1 0x5 DUP4 ADD PUSH2 0x1487 JUMP JUMPDEST PUSH1 0xA0 DUP9 ADD MSTORE JUMP JUMPDEST PUSH2 0x1F6F PUSH2 0x1F68 PUSH1 0x6 DUP4 ADD PUSH2 0x1487 JUMP JUMPDEST PUSH1 0xC0 DUP9 ADD MSTORE JUMP JUMPDEST PUSH2 0x1F85 PUSH2 0x1F7E PUSH1 0x7 DUP4 ADD PUSH2 0x1487 JUMP JUMPDEST PUSH1 0xE0 DUP9 ADD MSTORE JUMP JUMPDEST PUSH2 0x1F9C PUSH2 0x1F94 PUSH1 0x8 DUP4 ADD PUSH2 0x1699 JUMP JUMPDEST PUSH2 0x100 DUP9 ADD MSTORE JUMP JUMPDEST PUSH2 0x1FB3 PUSH2 0x1FAB PUSH1 0x9 DUP4 ADD PUSH2 0x1699 JUMP JUMPDEST PUSH2 0x120 DUP9 ADD MSTORE JUMP JUMPDEST ADD PUSH2 0x1487 JUMP JUMPDEST PUSH2 0x140 DUP5 ADD MSTORE JUMP JUMPDEST PUSH2 0x52D SWAP1 PUSH2 0x1EC7 JUMP JUMPDEST PUSH2 0x1FE1 PUSH2 0x52D SWAP2 PUSH2 0x1FD9 PUSH2 0x1EBF JUMP JUMPDEST POP PUSH1 0x1B PUSH2 0x1284 JUMP JUMPDEST PUSH2 0x1FC1 JUMP JUMPDEST PUSH2 0x52D SWAP1 DUP2 SWAP1 PUSH1 0x1 PUSH1 0x1 PUSH1 0xA0 SHL SUB AND DUP2 JUMP JUMPDEST PUSH2 0x52D PUSH1 0x1 PUSH1 0x1 PUSH1 0xA0 SHL SUB PUSH2 0x11D5 JUMP JUMPDEST PUSH2 0x566 PUSH2 0x52D PUSH2 0x52D SWAP3 SWAP1 JUMP JUMPDEST SWAP1 PUSH2 0x128E SWAP1 PUSH2 0x1C14 JUMP JUMPDEST SWAP1 PUSH1 0x0 NOT SWAP1 JUMPDEST SWAP2 DUP2 NOT AND SWAP2 AND OR SWAP1 JUMP JUMPDEST SWAP1 PUSH2 0x203F PUSH2 0x52D PUSH2 0x2046 SWAP3 PUSH2 0x11D5 JUMP JUMPDEST DUP3 SLOAD PUSH2 0x201F JUMP JUMPDEST SWAP1 SSTORE JUMP JUMPDEST PUSH2 0x52D PUSH1 0x1 PUSH1 0xE1 SHL PUSH2 0x11D5 JUMP JUMPDEST SWAP2 SWAP1 SWAP2 PUSH2 0x2074 PUSH2 0x206F PUSH2 0x2069 DUP5 PUSH2 0x5493 JUMP JUMPDEST SWAP3 PUSH2 0x1C0B JUMP JUMPDEST PUSH2 0x1FE6 JUMP JUMPDEST SWAP2 PUSH2 0x2090 PUSH2 0x208B PUSH2 0x2083 PUSH2 0x1FF8 JUMP JUMPDEST DUP1 SWAP6 AND PUSH2 0x2008 JUMP JUMPDEST PUSH2 0x1C0B JUMP JUMPDEST SWAP4 PUSH2 0x209D PUSH2 0x208B DUP5 PUSH2 0x2008 JUMP JUMPDEST PUSH2 0x20B8 PUSH1 0x1 PUSH1 0x1 PUSH1 0xA0 SHL SUB DUP8 AND JUMPDEST SWAP2 PUSH1 0x1 PUSH1 0x1 PUSH1 0xA0 SHL SUB AND SWAP1 JUMP JUMPDEST SUB PUSH2 0x227E JUMPI DUP5 SWAP3 PUSH2 0x20C8 DUP4 PUSH2 0x555D JUMP JUMPDEST SWAP2 SWAP1 CALLER PUSH1 0x1 PUSH1 0x1 PUSH1 0xA0 SHL SUB DUP8 AND DUP2 EQ DUP2 DUP6 EQ OR ISZERO PUSH2 0x224F JUMPI JUMPDEST POP PUSH2 0x1DCE SWAP6 SWAP5 SWAP4 PUSH2 0x21E4 SWAP8 SWAP4 PUSH2 0x21B8 SWAP4 PUSH2 0x206F SWAP4 PUSH2 0x20FF PUSH1 0x1 PUSH2 0x11D5 JUMP JUMPDEST SWAP3 PUSH2 0x210C DUP5 DUP11 DUP8 DUP14 PUSH2 0x56BD JUMP JUMPDEST PUSH2 0x2245 JUMPI JUMPDEST POP PUSH2 0x2139 PUSH2 0x2120 DUP10 PUSH1 0x5 PUSH2 0x2015 JUMP JUMPDEST PUSH2 0x2133 PUSH2 0x212C DUP3 PUSH2 0x1487 JUMP JUMPDEST PUSH1 0x0 NOT ADD SWAP1 JUMP JUMPDEST SWAP1 PUSH2 0x202F JUMP JUMPDEST PUSH2 0x2153 PUSH2 0x2147 DUP5 PUSH1 0x5 PUSH2 0x2015 JUMP JUMPDEST PUSH2 0x2133 PUSH2 0x1DE9 DUP3 PUSH2 0x1487 JUMP JUMPDEST PUSH2 0x217F PUSH2 0x2169 DUP3 DUP6 PUSH2 0x2163 PUSH2 0x204A JUMP JUMPDEST SWAP12 PUSH2 0x5726 JUMP JUMPDEST TIMESTAMP PUSH1 0xA0 SHL SWAP1 DUP11 OR OR PUSH1 0x1 PUSH1 0x1 PUSH1 0xA0 SHL SUB DUP6 AND OR SWAP1 JUMP JUMPDEST SWAP2 PUSH2 0x2195 PUSH1 0x4 SWAP4 PUSH2 0x2190 DUP11 DUP7 PUSH2 0x1284 JUMP JUMPDEST PUSH2 0x202F JUMP JUMPDEST PUSH1 0x0 SWAP9 PUSH2 0x21AA PUSH2 0x21A4 DUP12 PUSH2 0x11D5 JUMP JUMPDEST SWAP2 DUP5 AND SWAP1 JUMP JUMPDEST EQ PUSH2 0x21F8 JUMPI JUMPDEST POP POP POP PUSH2 0x1C0B JUMP JUMPDEST AND DUP1 SWAP6 PUSH32 0xDDF252AD1BE2C89B69C2B068FC378DAA952BA7F163C4A11628F55A4DF523B3EF DUP5 DUP1 LOG4 PUSH2 0x11D5 JUMP JUMPDEST EQ PUSH2 0x21EB JUMPI JUMP JUMPDEST PUSH4 0x3A954ECD PUSH1 0xE2 SHL PUSH2 0x539D JUMP JUMPDEST DUP8 ADD SWAP2 PUSH2 0x220D PUSH2 0x2208 DUP5 DUP4 PUSH2 0x1284 JUMP JUMPDEST PUSH2 0x1487 JUMP JUMPDEST PUSH2 0x2219 PUSH2 0x1DCE DUP12 PUSH2 0x11D5 JUMP JUMPDEST SUB PUSH2 0x21B0 JUMPI PUSH2 0x222A PUSH2 0x52D DUP11 PUSH2 0x1487 JUMP JUMPDEST DUP4 EQ PUSH2 0x21B0 JUMPI PUSH2 0x223D SWAP3 PUSH2 0x2190 SWAP2 PUSH2 0x1284 JUMP JUMPDEST CODESIZE DUP1 DUP1 PUSH2 0x21B0 JUMP JUMPDEST PUSH1 0x0 SWAP1 SSTORE CODESIZE PUSH2 0x2111 JUMP JUMPDEST PUSH2 0x1CC3 SWAP1 PUSH2 0x2261 SWAP3 SWAP9 SWAP5 SWAP7 SWAP6 SWAP8 PUSH2 0x4D4A JUMP JUMPDEST PUSH2 0x2271 JUMPI DUP7 SWAP5 SWAP3 SWAP4 SWAP2 SWAP6 CODESIZE PUSH2 0x20E1 JUMP JUMPDEST PUSH4 0x2CE44B5F PUSH1 0xE1 SHL PUSH2 0x539D JUMP JUMPDEST PUSH3 0xA11481 PUSH1 0xE8 SHL PUSH2 0x539D JUMP JUMPDEST PUSH2 0x517 SWAP1 PUSH2 0x2299 PUSH2 0x1B83 PUSH2 0xE4F JUMP JUMPDEST PUSH2 0x236F JUMP JUMPDEST ISZERO PUSH2 0x22A5 JUMPI JUMP JUMPDEST PUSH1 0x40 MLOAD PUSH3 0x461BCD PUSH1 0xE5 SHL DUP2 MSTORE PUSH1 0x20 PUSH1 0x4 DUP3 ADD MSTORE PUSH1 0x14 PUSH1 0x24 DUP3 ADD MSTORE PUSH20 0x151BDAD95B88191BD95CC81B9BDD08195E1A5CDD PUSH1 0x62 SHL PUSH1 0x44 DUP3 ADD MSTORE PUSH1 0x64 SWAP1 REVERT JUMPDEST ISZERO PUSH2 0x22E8 JUMPI JUMP JUMPDEST PUSH1 0x40 MLOAD PUSH3 0x461BCD PUSH1 0xE5 SHL DUP2 MSTORE PUSH1 0x20 PUSH1 0x4 DUP3 ADD MSTORE PUSH1 0x13 PUSH1 0x24 DUP3 ADD MSTORE PUSH19 0x151BDAD95B881A5CC81B9BDD081B1BD8DAD959 PUSH1 0x6A SHL PUSH1 0x44 DUP3 ADD MSTORE PUSH1 0x64 SWAP1 REVERT JUMPDEST ISZERO PUSH2 0x232A JUMPI JUMP JUMPDEST PUSH1 0x40 MLOAD PUSH3 0x461BCD PUSH1 0xE5 SHL DUP2 MSTORE PUSH1 0x20 PUSH1 0x4 DUP3 ADD MSTORE PUSH1 0x1A PUSH1 0x24 DUP3 ADD MSTORE PUSH32 0x556E6C6F636B2074696D6520686173206E6F7420706173736564000000000000 PUSH1 0x44 DUP3 ADD MSTORE PUSH1 0x64 SWAP1 REVERT JUMPDEST PUSH2 0x23D0 SWAP1 PUSH2 0x2384 PUSH2 0x237F DUP3 PUSH2 0x5319 JUMP JUMPDEST PUSH2 0x229E JUMP JUMPDEST PUSH2 0x2395 PUSH2 0x2390 DUP3 PUSH2 0x253E JUMP JUMPDEST PUSH2 0x22E1 JUMP JUMPDEST PUSH2 0x23A3 PUSH2 0x2208 DUP3 PUSH1 0x18 PUSH2 0x1284 JUMP JUMPDEST PUSH2 0x23B0 PUSH2 0x1DCE PUSH1 0x0 PUSH2 0x11D5 JUMP JUMPDEST SUB PUSH2 0x2407 JUMPI JUMPDEST PUSH2 0x23CB PUSH2 0x23C4 DUP3 PUSH1 0x19 PUSH2 0x1284 JUMP JUMPDEST TIMESTAMP SWAP1 PUSH2 0x202F JUMP JUMPDEST PUSH2 0x11D5 JUMP JUMPDEST PUSH32 0x5114E731F472514591AA5A2E7254174B62963E757A427CF9E9B069666478B060 PUSH2 0x23FA PUSH1 0x40 MLOAD SWAP1 JUMP JUMPDEST TIMESTAMP DUP2 MSTORE DUP1 PUSH1 0x20 DUP2 ADD PUSH2 0x1C95 JUMP JUMPDEST PUSH2 0x2423 PUSH2 0x241B PUSH2 0x52D PUSH2 0x2208 DUP5 PUSH1 0x18 PUSH2 0x1284 JUMP JUMPDEST TIMESTAMP LT ISZERO PUSH2 0x2323 JUMP JUMPDEST PUSH2 0x23B6 JUMP JUMPDEST PUSH2 0x517 SWAP1 PUSH2 0x228A JUMP JUMPDEST SWAP1 PUSH2 0x128E JUMP JUMPDEST PUSH1 0x1 PUSH2 0x1FB3 PUSH2 0x52D SWAP3 PUSH2 0x2448 PUSH1 0x0 SWAP1 JUMP JUMPDEST POP PUSH1 0xB PUSH2 0x2431 JUMP JUMPDEST SWAP1 PUSH2 0x517 SWAP3 SWAP2 PUSH2 0x2461 PUSH2 0x1B83 PUSH2 0xE4F JUMP JUMPDEST PUSH2 0x24B2 JUMP JUMPDEST ISZERO PUSH2 0x246D JUMPI JUMP JUMPDEST PUSH1 0x40 MLOAD PUSH3 0x461BCD PUSH1 0xE5 SHL DUP2 MSTORE PUSH1 0x20 PUSH1 0x4 DUP3 ADD MSTORE PUSH1 0x19 PUSH1 0x24 DUP3 ADD MSTORE PUSH32 0x546F6B656E20697320616C726561647920756E6C6F636B656400000000000000 PUSH1 0x44 DUP3 ADD MSTORE PUSH1 0x64 SWAP1 REVERT JUMPDEST SWAP3 SWAP2 SWAP3 PUSH1 0x0 PUSH2 0x24C1 PUSH1 0x0 PUSH2 0x11D5 JUMP JUMPDEST DUP4 DUP2 LT ISZERO PUSH2 0x252B JUMPI DUP1 PUSH2 0x24DE PUSH2 0x1DC0 PUSH2 0x1DBB PUSH2 0x2526 SWAP5 DUP9 DUP9 PUSH2 0x1D2D JUMP JUMPDEST PUSH2 0x250F PUSH2 0x24FD PUSH2 0x2208 PUSH1 0x19 PUSH2 0x24F7 PUSH2 0x1DBB DUP7 DUP12 DUP12 PUSH2 0x1D2D JUMP JUMPDEST SWAP1 PUSH2 0x1284 JUMP JUMPDEST PUSH2 0x2509 PUSH2 0x1DCE DUP7 PUSH2 0x11D5 JUMP JUMPDEST EQ PUSH2 0x2466 JUMP JUMPDEST PUSH2 0x1DE9 DUP8 PUSH2 0x2521 PUSH2 0x1DBB DUP5 DUP10 DUP10 PUSH2 0x1D2D JUMP JUMPDEST PUSH2 0x4BBF JUMP JUMPDEST PUSH2 0x24C1 JUMP JUMPDEST POP POP POP POP SWAP1 POP JUMP JUMPDEST SWAP1 PUSH2 0x517 SWAP3 SWAP2 PUSH2 0x2450 JUMP JUMPDEST PUSH2 0x254A PUSH2 0x1CC3 DUP3 PUSH2 0x5319 JUMP JUMPDEST PUSH2 0x25DE JUMPI PUSH2 0x255C PUSH2 0x2208 DUP3 PUSH1 0x19 PUSH2 0x1284 JUMP JUMPDEST SWAP1 PUSH1 0x0 SWAP2 PUSH2 0x256C PUSH2 0x1DCE DUP5 PUSH2 0x11D5 JUMP JUMPDEST GT PUSH2 0x25DA JUMPI PUSH2 0x257F PUSH2 0x2208 DUP3 PUSH1 0x17 PUSH2 0x1284 JUMP JUMPDEST PUSH2 0x258B PUSH2 0x1DCE DUP5 PUSH2 0x11D5 JUMP JUMPDEST EQ PUSH2 0x25DA JUMPI PUSH2 0x259E PUSH2 0x2208 DUP3 PUSH1 0x18 PUSH2 0x1284 JUMP JUMPDEST PUSH2 0x25AA PUSH2 0x1DCE DUP5 PUSH2 0x11D5 JUMP JUMPDEST EQ ISZERO SWAP1 DUP2 PUSH2 0x25BE JUMPI JUMPDEST POP PUSH2 0x52D JUMPI POP PUSH1 0x1 SWAP1 JUMP JUMPDEST PUSH2 0x25D1 SWAP2 POP PUSH2 0x2208 PUSH2 0x52D SWAP2 PUSH1 0x18 PUSH2 0x1284 JUMP JUMPDEST TIMESTAMP LT ISZERO CODESIZE PUSH2 0x25B3 JUMP JUMPDEST POP SWAP1 JUMP JUMPDEST POP PUSH1 0x0 SWAP1 JUMP JUMPDEST PUSH2 0x52D SWAP1 PUSH1 0xA0 SHR PUSH2 0x1B9A JUMP JUMPDEST PUSH2 0x52D SWAP1 SLOAD PUSH2 0x25E4 JUMP JUMPDEST PUSH2 0x52D SWAP1 PUSH2 0x2008 JUMP JUMPDEST PUSH2 0x52D PUSH2 0x52D PUSH2 0x52D SWAP3 PUSH1 0x1 PUSH1 0x1 PUSH1 0x60 SHL SUB AND SWAP1 JUMP JUMPDEST PUSH4 0x4E487B71 PUSH1 0xE0 SHL PUSH1 0x0 MSTORE PUSH1 0x11 PUSH1 0x4 MSTORE PUSH1 0x24 PUSH1 0x0 REVERT JUMPDEST DUP2 DUP2 MUL SWAP3 SWAP2 DUP2 ISZERO SWAP2 DUP5 DIV EQ OR ISZERO PUSH2 0x2642 JUMPI JUMP JUMPDEST PUSH2 0x2619 JUMP JUMPDEST PUSH4 0x4E487B71 PUSH1 0xE0 SHL PUSH1 0x0 MSTORE PUSH1 0x12 PUSH1 0x4 MSTORE PUSH1 0x24 PUSH1 0x0 REVERT JUMPDEST DUP2 ISZERO PUSH2 0x2667 JUMPI DIV SWAP1 JUMP JUMPDEST PUSH2 0x2647 JUMP JUMPDEST PUSH2 0x2688 PUSH2 0x52D PUSH1 0x0 SWAP3 SWAP5 SWAP4 SWAP5 PUSH2 0x2680 PUSH1 0x0 SWAP1 JUMP JUMPDEST POP PUSH1 0xD PUSH2 0x1284 JUMP JUMPDEST ADD SWAP2 PUSH2 0x269B DUP4 SLOAD PUSH1 0x1 PUSH1 0x1 PUSH1 0xA0 SHL SUB AND SWAP1 JUMP JUMPDEST PUSH2 0x26A5 DUP2 SWAP5 PUSH2 0x25F0 JUMP JUMPDEST SWAP1 PUSH2 0x26B6 PUSH2 0x20AB PUSH2 0x566 PUSH1 0x0 PUSH2 0x25FA JUMP JUMPDEST EQ PUSH2 0x26E8 JUMPI JUMPDEST PUSH2 0x52D SWAP2 PUSH2 0x26CC PUSH2 0x26D2 SWAP3 PUSH2 0x2603 JUMP JUMPDEST SWAP1 PUSH2 0x262F JUMP JUMPDEST PUSH2 0x26E2 PUSH2 0x26DD PUSH2 0x5765 JUMP JUMPDEST PUSH2 0x2603 JUMP JUMPDEST SWAP1 PUSH2 0x265D JUMP JUMPDEST POP PUSH1 0xC SWAP3 POP PUSH2 0x52D SWAP1 PUSH2 0x26D2 SWAP1 PUSH2 0x26CC PUSH2 0x2712 PUSH2 0x270C DUP8 SLOAD PUSH1 0x1 PUSH1 0x1 PUSH1 0xA0 SHL SUB AND SWAP1 JUMP JUMPDEST SWAP7 PUSH2 0x25F0 JUMP JUMPDEST SWAP3 POP POP SWAP2 POP PUSH2 0x26BC JUMP JUMPDEST SWAP1 PUSH2 0x517 SWAP8 SWAP7 SWAP6 SWAP5 SWAP4 SWAP3 SWAP2 PUSH2 0x2732 PUSH2 0x1B83 PUSH2 0xE4F JUMP JUMPDEST PUSH2 0x2C8E JUMP JUMPDEST ISZERO PUSH2 0x273E JUMPI JUMP JUMPDEST PUSH1 0x40 MLOAD PUSH3 0x461BCD PUSH1 0xE5 SHL DUP2 MSTORE PUSH1 0x20 PUSH1 0x4 DUP3 ADD MSTORE PUSH1 0x1B PUSH1 0x24 DUP3 ADD MSTORE PUSH32 0x52657761726420747970652063616E6E6F7420626520656D7074790000000000 PUSH1 0x44 DUP3 ADD MSTORE PUSH1 0x64 SWAP1 REVERT JUMPDEST ISZERO PUSH2 0x278A JUMPI JUMP JUMPDEST PUSH1 0x40 MLOAD PUSH3 0x461BCD PUSH1 0xE5 SHL DUP2 MSTORE PUSH1 0x20 PUSH1 0x4 DUP3 ADD MSTORE PUSH1 0x1B PUSH1 0x24 DUP3 ADD MSTORE PUSH32 0x4465736372697074696F6E2063616E6E6F7420626520656D7074790000000000 PUSH1 0x44 DUP3 ADD MSTORE PUSH1 0x64 SWAP1 REVERT JUMPDEST ISZERO PUSH2 0x27D6 JUMPI JUMP JUMPDEST PUSH1 0x40 MLOAD PUSH3 0x461BCD PUSH1 0xE5 SHL DUP2 MSTORE PUSH1 0x20 PUSH1 0x4 DUP3 ADD MSTORE PUSH1 0x2C PUSH1 0x24 DUP3 ADD MSTORE PUSH32 0x436C61696D61626C65207374616B65642074696D65206D757374206265206772 PUSH1 0x44 DUP3 ADD MSTORE PUSH12 0x6561746572207468616E203 PUSH1 0xA4 SHL PUSH1 0x64 DUP3 ADD MSTORE PUSH1 0x84 SWAP1 REVERT JUMPDEST ISZERO PUSH2 0x2837 JUMPI JUMP JUMPDEST PUSH1 0x40 MLOAD PUSH3 0x461BCD PUSH1 0xE5 SHL DUP2 MSTORE PUSH1 0x20 PUSH1 0x4 DUP3 ADD MSTORE PUSH1 0x21 PUSH1 0x24 DUP3 ADD MSTORE PUSH32 0x4163746976652074696D65206D75737420626520696E20746865206675747572 PUSH1 0x44 DUP3 ADD MSTORE PUSH1 0x65 PUSH1 0xF8 SHL PUSH1 0x64 DUP3 ADD MSTORE PUSH1 0x84 SWAP1 REVERT JUMPDEST ISZERO PUSH2 0x288D JUMPI JUMP JUMPDEST PUSH1 0x40 MLOAD PUSH3 0x461BCD PUSH1 0xE5 SHL DUP2 MSTORE PUSH1 0x20 PUSH1 0x4 DUP3 ADD MSTORE PUSH1 0x23 PUSH1 0x24 DUP3 ADD MSTORE PUSH32 0x44656163746976652074696D65206D75737420626520696E2074686520667574 PUSH1 0x44 DUP3 ADD MSTORE PUSH3 0x757265 PUSH1 0xE8 SHL PUSH1 0x64 DUP3 ADD MSTORE PUSH1 0x84 SWAP1 REVERT JUMPDEST ISZERO PUSH2 0x28E5 JUMPI JUMP JUMPDEST PUSH1 0x40 MLOAD PUSH3 0x461BCD PUSH1 0xE5 SHL DUP2 MSTORE PUSH1 0x20 PUSH1 0x4 DUP3 ADD MSTORE PUSH1 0x27 PUSH1 0x24 DUP3 ADD MSTORE PUSH32 0x44656163746976652074696D65206D7573742062652061667465722061637469 PUSH1 0x44 DUP3 ADD MSTORE PUSH7 0x76652074696D65 PUSH1 0xC8 SHL PUSH1 0x64 DUP3 ADD MSTORE PUSH1 0x84 SWAP1 REVERT JUMPDEST PUSH1 0x0 NOT DUP2 EQ PUSH2 0x2642 JUMPI PUSH1 0x1 ADD SWAP1 JUMP JUMPDEST MLOAD SWAP1 JUMP JUMPDEST SWAP2 PUSH1 0x0 NOT PUSH1 0x8 SWAP3 SWAP1 SWAP3 MUL SWAP2 DUP3 SHL SWAP2 SHL PUSH2 0x2025 JUMP JUMPDEST SWAP2 SWAP1 PUSH2 0x2972 PUSH2 0x52D PUSH2 0x2046 SWAP4 PUSH2 0x11D5 JUMP JUMPDEST SWAP1 DUP4 SLOAD PUSH2 0x294D JUMP JUMPDEST PUSH2 0x517 SWAP2 PUSH1 0x0 SWAP2 PUSH2 0x2961 JUMP JUMPDEST DUP2 DUP2 LT PUSH2 0x2991 JUMPI POP POP JUMP JUMPDEST DUP1 PUSH2 0x299F PUSH1 0x0 PUSH1 0x1 SWAP4 PUSH2 0x297A JUMP JUMPDEST ADD PUSH2 0x2986 JUMP JUMPDEST SWAP2 SWAP1 PUSH1 0x1F DUP2 GT PUSH2 0x29B4 JUMPI POP POP POP JUMP JUMPDEST PUSH2 0x29C6 PUSH2 0x517 SWAP4 PUSH1 0x0 MSTORE PUSH1 0x20 PUSH1 0x0 KECCAK256 SWAP1 JUMP JUMPDEST SWAP1 PUSH1 0x20 PUSH1 0x1F DUP5 ADD DUP2 SWAP1 DIV DUP4 ADD SWAP4 LT PUSH2 0x29E8 JUMPI JUMPDEST PUSH1 0x20 PUSH1 0x1F SWAP1 SWAP2 ADD DIV ADD SWAP1 PUSH2 0x2986 JUMP JUMPDEST SWAP1 SWAP2 POP DUP2 SWAP1 PUSH2 0x29D9 JUMP JUMPDEST SWAP1 PUSH2 0x29FB DUP2 MLOAD SWAP1 JUMP JUMPDEST SWAP1 PUSH1 0x1 PUSH1 0x1 PUSH1 0x40 SHL SUB DUP3 GT PUSH2 0xA7E JUMPI PUSH2 0x2A1E DUP3 PUSH2 0x2A18 DUP6 SLOAD PUSH2 0x15E1 JUMP JUMPDEST DUP6 PUSH2 0x29A5 JUMP JUMPDEST PUSH1 0x20 SWAP1 PUSH1 0x1F DUP4 GT PUSH1 0x1 EQ PUSH2 0x2A59 JUMPI PUSH2 0x2046 SWAP3 SWAP2 PUSH1 0x0 SWAP2 DUP4 PUSH2 0x2A4E JUMPI JUMPDEST POP POP PUSH1 0x0 NOT PUSH1 0x8 DUP4 MUL SHR NOT AND SWAP1 PUSH1 0x2 MUL OR SWAP1 JUMP JUMPDEST ADD MLOAD SWAP1 POP CODESIZE DUP1 PUSH2 0x2A3A JUMP JUMPDEST PUSH1 0x1F NOT DUP4 AND SWAP2 PUSH2 0x2A6E DUP6 PUSH1 0x0 MSTORE PUSH1 0x20 PUSH1 0x0 KECCAK256 SWAP1 JUMP JUMPDEST SWAP3 PUSH1 0x0 JUMPDEST DUP2 DUP2 LT PUSH2 0x2AAC JUMPI POP SWAP2 PUSH1 0x2 SWAP4 SWAP2 DUP6 PUSH1 0x1 SWAP7 SWAP5 LT PUSH2 0x2A93 JUMPI JUMPDEST POP POP POP MUL ADD SWAP1 SSTORE JUMP JUMPDEST ADD MLOAD PUSH1 0x0 NOT PUSH1 0x8 PUSH1 0x1F DUP6 AND MUL SHR NOT AND SWAP1 SSTORE CODESIZE DUP1 DUP1 PUSH2 0x2A8A JUMP JUMPDEST SWAP2 SWAP4 PUSH1 0x20 PUSH1 0x1 DUP2 SWAP3 DUP8 DUP8 ADD MLOAD DUP2 SSTORE ADD SWAP6 ADD SWAP3 ADD PUSH2 0x2A72 JUMP JUMPDEST SWAP1 PUSH2 0x517 SWAP2 PUSH2 0x29F2 JUMP JUMPDEST SWAP1 PUSH1 0xFF SWAP1 PUSH2 0x2025 JUMP JUMPDEST SWAP1 PUSH2 0x2AE7 PUSH2 0x52D PUSH2 0x2046 SWAP3 ISZERO ISZERO SWAP1 JUMP JUMPDEST DUP3 SLOAD PUSH2 0x2ACE JUMP JUMPDEST PUSH1 0xA PUSH2 0x2BE6 PUSH2 0x140 PUSH2 0x517 SWAP5 PUSH2 0x2B0E PUSH2 0x2B08 PUSH1 0x0 DUP4 ADD MLOAD SWAP1 JUMP JUMPDEST DUP7 PUSH2 0x202F JUMP JUMPDEST PUSH2 0x2B25 PUSH2 0x2B1C PUSH1 0x20 DUP4 ADD MLOAD SWAP1 JUMP JUMPDEST PUSH1 0x1 DUP8 ADD PUSH2 0x2AC4 JUMP JUMPDEST PUSH2 0x2B3C PUSH2 0x2B33 PUSH1 0x40 DUP4 ADD MLOAD SWAP1 JUMP JUMPDEST PUSH1 0x2 DUP8 ADD PUSH2 0x202F JUMP JUMPDEST PUSH2 0x2B53 PUSH2 0x2B4A PUSH1 0x60 DUP4 ADD MLOAD SWAP1 JUMP JUMPDEST PUSH1 0x3 DUP8 ADD PUSH2 0x2AC4 JUMP JUMPDEST PUSH2 0x2B6C PUSH2 0x2B63 PUSH1 0x80 DUP4 ADD MLOAD ISZERO ISZERO SWAP1 JUMP JUMPDEST PUSH1 0x4 DUP8 ADD PUSH2 0x2AD7 JUMP JUMPDEST PUSH2 0x2B83 PUSH2 0x2B7A PUSH1 0xA0 DUP4 ADD MLOAD SWAP1 JUMP JUMPDEST PUSH1 0x5 DUP8 ADD PUSH2 0x202F JUMP JUMPDEST PUSH2 0x2B9A PUSH2 0x2B91 PUSH1 0xC0 DUP4 ADD MLOAD SWAP1 JUMP JUMPDEST PUSH1 0x6 DUP8 ADD PUSH2 0x202F JUMP JUMPDEST PUSH2 0x2BB1 PUSH2 0x2BA8 PUSH1 0xE0 DUP4 ADD MLOAD SWAP1 JUMP JUMPDEST PUSH1 0x7 DUP8 ADD PUSH2 0x202F JUMP JUMPDEST PUSH2 0x2BC9 PUSH2 0x2BC0 PUSH2 0x100 DUP4 ADD MLOAD SWAP1 JUMP JUMPDEST PUSH1 0x8 DUP8 ADD PUSH2 0x2AC4 JUMP JUMPDEST PUSH2 0x2BE1 PUSH2 0x2BD8 PUSH2 0x120 DUP4 ADD MLOAD SWAP1 JUMP JUMPDEST PUSH1 0x9 DUP8 ADD PUSH2 0x2AC4 JUMP JUMPDEST ADD MLOAD SWAP1 JUMP JUMPDEST SWAP2 ADD PUSH2 0x202F JUMP JUMPDEST SWAP1 PUSH2 0x517 SWAP2 PUSH2 0x2AEE JUMP JUMPDEST PUSH2 0x64D PUSH2 0x2C0F SWAP3 PUSH1 0x20 SWAP3 PUSH2 0x2C09 DUP2 MLOAD SWAP1 JUMP JUMPDEST SWAP5 DUP6 SWAP3 SWAP1 JUMP JUMPDEST SWAP4 DUP5 SWAP2 ADD PUSH2 0x5F6 JUMP JUMPDEST PUSH2 0x52D SWAP2 PUSH2 0x2BF7 JUMP JUMPDEST PUSH2 0x2C37 SWAP1 PUSH2 0x2C2E PUSH1 0x40 MLOAD SWAP1 JUMP JUMPDEST SWAP2 DUP3 SWAP2 DUP3 PUSH2 0x2C18 JUMP JUMPDEST SUB SWAP1 KECCAK256 SWAP1 JUMP JUMPDEST SWAP3 PUSH2 0x2C86 PUSH1 0xC0 SWAP6 PUSH2 0x2C78 PUSH2 0x1AE7 SWAP4 PUSH2 0x2C6A PUSH2 0x517 SWAP12 SWAP7 PUSH2 0xA14 SWAP9 SWAP15 SWAP14 SWAP12 SWAP15 PUSH2 0x1ABB PUSH1 0xE0 DUP13 ADD SWAP3 PUSH1 0x0 DUP14 ADD MSTORE JUMP JUMPDEST SWAP1 DUP9 DUP3 SUB PUSH1 0x40 DUP11 ADD MSTORE PUSH2 0x619 JUMP JUMPDEST SWAP1 DUP7 DUP3 SUB PUSH1 0x60 DUP9 ADD MSTORE PUSH2 0x619 JUMP JUMPDEST SWAP9 PUSH1 0x80 DUP6 ADD MSTORE JUMP JUMPDEST SWAP6 DUP6 DUP4 SWAP6 PUSH2 0x2DE7 PUSH2 0x2DE1 DUP11 PUSH2 0x23CB PUSH2 0x1DCE PUSH2 0x2DB9 DUP12 SWAP16 SWAP10 SWAP12 PUSH2 0x2D89 PUSH32 0x408E1E6B24C523DF52071026044644BC970ACE38BBA503FA10E7C6E4E9EE0661 SWAP16 SWAP13 PUSH2 0x1540 DUP16 PUSH2 0x2DFA SWAP16 DUP16 DUP16 SWAP1 PUSH2 0x2D2A SWAP1 PUSH2 0x2CFA PUSH2 0x2CE8 PUSH2 0x2949 DUP16 SWAP1 JUMP JUMPDEST PUSH2 0x2CF4 PUSH1 0x0 SWAP14 DUP15 PUSH2 0x11D5 JUMP JUMPDEST GT PUSH2 0x2737 JUMP JUMPDEST PUSH2 0x2D18 DUP12 PUSH2 0x2D12 PUSH2 0x1DCE PUSH2 0x2D0C DUP12 MLOAD SWAP1 JUMP JUMPDEST SWAP3 PUSH2 0x11D5 JUMP JUMPDEST GT PUSH2 0x2783 JUMP JUMPDEST PUSH2 0x2D24 PUSH2 0x1DCE DUP13 PUSH2 0x11D5 JUMP JUMPDEST GT PUSH2 0x27CF JUMP JUMPDEST PUSH2 0x2D33 DUP10 PUSH2 0x11D5 JUMP JUMPDEST DUP3 EQ ISZERO DUP1 PUSH2 0x2E2F JUMPI JUMPDEST PUSH2 0x2D45 DUP11 PUSH2 0x11D5 JUMP JUMPDEST DUP3 SUB PUSH2 0x2DFF JUMPI JUMPDEST POP POP POP PUSH2 0x1539 PUSH2 0x2D5C PUSH1 0x1D PUSH2 0x1487 JUMP JUMPDEST SWAP10 PUSH2 0x2D70 PUSH2 0x2D69 DUP13 PUSH2 0x293A JUMP JUMPDEST PUSH1 0x1D PUSH2 0x202F JUMP JUMPDEST PUSH2 0x2D82 DUP12 PUSH2 0x2D7C PUSH2 0x1E63 JUMP JUMPDEST SWAP11 DUP12 ADD MSTORE JUMP JUMPDEST PUSH1 0x20 DUP10 ADD MSTORE JUMP JUMPDEST PUSH1 0x1 PUSH1 0x80 DUP5 ADD MSTORE PUSH2 0x2D9B DUP10 PUSH1 0xA0 DUP6 ADD MSTORE JUMP JUMPDEST PUSH2 0x2DA6 DUP11 PUSH1 0xC0 DUP6 ADD MSTORE JUMP JUMPDEST PUSH2 0x2DB1 DUP12 PUSH1 0xE0 DUP6 ADD MSTORE JUMP JUMPDEST PUSH2 0x100 DUP4 ADD MSTORE JUMP JUMPDEST PUSH2 0x2DC5 DUP7 PUSH2 0x120 DUP4 ADD MSTORE JUMP JUMPDEST PUSH2 0x2DD1 TIMESTAMP PUSH2 0x140 DUP4 ADD MSTORE JUMP JUMPDEST PUSH2 0x2DDC DUP4 PUSH1 0x1B PUSH2 0x1284 JUMP JUMPDEST PUSH2 0x2BED JUMP JUMPDEST SWAP10 PUSH2 0x2C21 JUMP JUMPDEST SWAP10 PUSH2 0x2DF1 PUSH1 0x40 MLOAD SWAP1 JUMP JUMPDEST SWAP8 DUP9 SWAP8 DUP9 PUSH2 0x2C3D JUMP JUMPDEST SUB SWAP1 LOG3 JUMP JUMPDEST PUSH2 0x2E0A TIMESTAMP DUP4 GT PUSH2 0x2886 JUMP JUMPDEST PUSH2 0x2E15 JUMPI JUMPDEST CODESIZE PUSH2 0x2D4C JUMP JUMPDEST PUSH2 0x2E22 PUSH2 0x1DCE PUSH2 0x2E28 SWAP4 SWAP1 JUMP JUMPDEST GT PUSH2 0x28DE JUMP JUMPDEST DUP13 DUP15 PUSH2 0x2E0F JUMP JUMPDEST PUSH2 0x2E3A TIMESTAMP DUP5 GT PUSH2 0x2830 JUMP JUMPDEST PUSH2 0x2D3C JUMP JUMPDEST SWAP1 PUSH2 0x517 SWAP8 SWAP7 SWAP6 SWAP5 SWAP4 SWAP3 SWAP2 PUSH2 0x271C JUMP JUMPDEST SWAP1 PUSH2 0x2E62 SWAP3 SWAP2 PUSH2 0x2E5D PUSH2 0x577A JUMP JUMPDEST PUSH2 0x2E6A JUMP JUMPDEST PUSH2 0x517 PUSH2 0x57BA JUMP JUMPDEST SWAP1 PUSH2 0x517 SWAP3 SWAP2 PUSH2 0x2E78 PUSH2 0x5459 JUMP JUMPDEST PUSH2 0x3046 JUMP JUMPDEST ISZERO PUSH2 0x2E84 JUMPI JUMP JUMPDEST PUSH1 0x40 MLOAD PUSH3 0x461BCD PUSH1 0xE5 SHL DUP2 MSTORE DUP1 PUSH2 0x1BF3 PUSH1 0x4 DUP3 ADD PUSH1 0x20 DUP1 DUP3 MSTORE DUP2 DUP2 ADD MSTORE PUSH32 0x43616C6C6572206973206E6F7420616E2041444D494E206F7220455343524F57 PUSH1 0x40 DUP3 ADD MSTORE PUSH1 0x60 ADD SWAP1 JUMP JUMPDEST ISZERO PUSH2 0x2ED4 JUMPI JUMP JUMPDEST PUSH1 0x40 MLOAD PUSH3 0x461BCD PUSH1 0xE5 SHL DUP2 MSTORE PUSH1 0x20 PUSH1 0x4 DUP3 ADD MSTORE PUSH1 0x16 PUSH1 0x24 DUP3 ADD MSTORE PUSH22 0x135A5B9D1A5B99C81A5CC81B9BDD08195B98589B1959 PUSH1 0x52 SHL PUSH1 0x44 DUP3 ADD MSTORE PUSH1 0x64 SWAP1 REVERT JUMPDEST SWAP2 SWAP1 DUP3 ADD DUP1 SWAP3 GT PUSH2 0x2642 JUMPI JUMP JUMPDEST ISZERO PUSH2 0x2F26 JUMPI JUMP JUMPDEST PUSH1 0x40 MLOAD PUSH3 0x461BCD PUSH1 0xE5 SHL DUP2 MSTORE PUSH1 0x20 PUSH1 0x4 DUP3 ADD MSTORE PUSH1 0x12 PUSH1 0x24 DUP3 ADD MSTORE PUSH18 0x13585E081CDD5C1C1B1E481C995858DA1959 PUSH1 0x72 SHL PUSH1 0x44 DUP3 ADD MSTORE PUSH1 0x64 SWAP1 REVERT JUMPDEST ISZERO PUSH2 0x2F67 JUMPI JUMP JUMPDEST PUSH1 0x40 MLOAD PUSH3 0x461BCD PUSH1 0xE5 SHL DUP2 MSTORE PUSH1 0x20 PUSH1 0x4 DUP3 ADD MSTORE PUSH1 0xF PUSH1 0x24 DUP3 ADD MSTORE PUSH15 0x496E76616C69642061646472657373 PUSH1 0x88 SHL PUSH1 0x44 DUP3 ADD MSTORE PUSH1 0x64 SWAP1 REVERT JUMPDEST ISZERO PUSH2 0x2FA5 JUMPI JUMP JUMPDEST PUSH1 0x40 MLOAD PUSH3 0x461BCD PUSH1 0xE5 SHL DUP2 MSTORE PUSH1 0x20 PUSH1 0x4 DUP3 ADD MSTORE PUSH1 0x10 PUSH1 0x24 DUP3 ADD MSTORE PUSH16 0x496E76616C6964207175616E74697479 PUSH1 0x80 SHL PUSH1 0x44 DUP3 ADD MSTORE PUSH1 0x64 SWAP1 REVERT JUMPDEST ISZERO PUSH2 0x2FE4 JUMPI JUMP JUMPDEST PUSH1 0x40 MLOAD PUSH3 0x461BCD PUSH1 0xE5 SHL DUP2 MSTORE PUSH1 0x20 PUSH1 0x4 DUP3 ADD MSTORE PUSH1 0x1E PUSH1 0x24 DUP3 ADD MSTORE PUSH32 0x47617320666565206D7573742062652067726561746572207468616E20300000 PUSH1 0x44 DUP3 ADD MSTORE PUSH1 0x64 SWAP1 REVERT JUMPDEST SWAP1 DUP2 MSTORE PUSH1 0x60 DUP2 ADD SWAP4 SWAP3 PUSH2 0x517 SWAP3 SWAP1 SWAP2 PUSH1 0x40 SWAP2 PUSH2 0xA14 SWAP1 PUSH1 0x20 DUP4 ADD MSTORE JUMP JUMPDEST SWAP2 SWAP1 PUSH2 0x3124 PUSH32 0x26F4C0C9DD9536441681C861E4C72684BBEC9E4E6D7E4492C2A90FF07CF35C6F SWAP3 PUSH2 0x3091 PUSH2 0x3078 PUSH2 0x11E2 JUMP JUMPDEST PUSH2 0x3083 CALLER DUP1 SWAP3 PUSH2 0x45F8 JUMP JUMPDEST SWAP1 DUP2 ISZERO PUSH2 0x3151 JUMPI JUMPDEST POP PUSH2 0x2E7D JUMP JUMPDEST PUSH2 0x30A3 PUSH2 0x309E PUSH1 0x12 PUSH2 0x149A JUMP JUMPDEST PUSH2 0x2ECD JUMP JUMPDEST PUSH2 0x30CE PUSH2 0x30B7 DUP5 PUSH2 0x30B2 PUSH2 0x5479 JUMP JUMPDEST PUSH2 0x2F12 JUMP JUMPDEST PUSH2 0x30C7 PUSH2 0x1DCE PUSH2 0x52D PUSH1 0x13 PUSH2 0x1487 JUMP JUMPDEST GT ISZERO PUSH2 0x2F1F JUMP JUMPDEST PUSH2 0x30EF PUSH2 0x30DE PUSH2 0x566 PUSH1 0x0 PUSH2 0x25FA JUMP JUMPDEST PUSH1 0x1 PUSH1 0x1 PUSH1 0xA0 SHL SUB DUP8 AND EQ ISZERO PUSH2 0x2F60 JUMP JUMPDEST PUSH2 0x3103 PUSH2 0x30FC PUSH1 0x0 PUSH2 0x11D5 JUMP JUMPDEST DUP5 GT PUSH2 0x2F9E JUMP JUMPDEST PUSH2 0x3117 PUSH2 0x3110 PUSH1 0x0 PUSH2 0x11D5 JUMP JUMPDEST DUP3 GT PUSH2 0x2FDD JUMP JUMPDEST PUSH2 0x26CC PUSH4 0x3B9ACA00 PUSH2 0x11D5 JUMP JUMPDEST SWAP3 PUSH2 0x1C95 PUSH2 0x313E PUSH2 0x3133 PUSH2 0x544F JUMP JUMPDEST SWAP3 PUSH2 0x1C6F DUP6 DUP3 PUSH2 0x57D6 JUMP JUMPDEST SWAP5 PUSH2 0x3148 PUSH1 0x40 MLOAD SWAP1 JUMP JUMPDEST SWAP4 DUP5 SWAP4 DUP5 PUSH2 0x3029 JUMP JUMPDEST PUSH2 0x3163 SWAP2 POP PUSH2 0x315E PUSH2 0xE4F JUMP JUMPDEST PUSH2 0x45F8 JUMP JUMPDEST CODESIZE PUSH2 0x308B JUMP JUMPDEST SWAP1 PUSH2 0x517 SWAP3 SWAP2 PUSH2 0x2E4F JUMP JUMPDEST PUSH2 0x517 SWAP1 PUSH2 0x3180 PUSH2 0x5459 JUMP JUMPDEST PUSH2 0x3308 JUMP JUMPDEST ISZERO PUSH2 0x318C JUMPI JUMP JUMPDEST PUSH1 0x40 MLOAD PUSH3 0x461BCD PUSH1 0xE5 SHL DUP2 MSTORE PUSH1 0x20 PUSH1 0x4 DUP3 ADD MSTORE PUSH1 0x13 PUSH1 0x24 DUP3 ADD MSTORE PUSH19 0x151BDAD95B881A5CC81B9BDD081CDD185AD959 PUSH1 0x6A SHL PUSH1 0x44 DUP3 ADD MSTORE PUSH1 0x64 SWAP1 REVERT JUMPDEST PUSH2 0x52D PUSH1 0xC0 PUSH2 0xA83 JUMP JUMPDEST SWAP1 PUSH2 0x517 PUSH2 0x3250 PUSH1 0x5 PUSH2 0x31E2 PUSH2 0x31C7 JUMP JUMPDEST SWAP5 PUSH2 0x31EF PUSH2 0x1EE5 DUP3 PUSH2 0x1487 JUMP JUMPDEST PUSH2 0x3216 PUSH2 0x3206 PUSH1 0x1 DUP4 ADD SLOAD PUSH1 0x1 PUSH1 0x1 PUSH1 0xA0 SHL SUB AND SWAP1 JUMP JUMPDEST PUSH1 0x1 PUSH1 0x1 PUSH1 0xA0 SHL SUB AND PUSH1 0x20 DUP9 ADD MSTORE JUMP JUMPDEST PUSH2 0x3225 PUSH2 0x1F0E PUSH1 0x2 DUP4 ADD PUSH2 0x1487 JUMP JUMPDEST PUSH2 0x3234 PUSH2 0x1F24 PUSH1 0x3 DUP4 ADD PUSH2 0x1487 JUMP JUMPDEST PUSH2 0x324A PUSH2 0x3243 PUSH1 0x4 DUP4 ADD PUSH2 0x1487 JUMP JUMPDEST PUSH1 0x80 DUP9 ADD MSTORE JUMP JUMPDEST ADD PUSH2 0x149A JUMP JUMPDEST ISZERO ISZERO PUSH1 0xA0 DUP5 ADD MSTORE JUMP JUMPDEST PUSH2 0x52D SWAP1 PUSH2 0x31D1 JUMP JUMPDEST ISZERO PUSH2 0x3269 JUMPI JUMP JUMPDEST PUSH1 0x40 MLOAD PUSH3 0x461BCD PUSH1 0xE5 SHL DUP2 MSTORE PUSH1 0x20 PUSH1 0x4 DUP3 ADD MSTORE PUSH1 0x25 PUSH1 0x24 DUP3 ADD MSTORE PUSH32 0x4F6E6C7920746865207374616B65722063616E20756E7374616B652074686520 PUSH1 0x44 DUP3 ADD MSTORE PUSH5 0x3A37B5B2B7 PUSH1 0xD9 SHL PUSH1 0x64 DUP3 ADD MSTORE PUSH1 0x84 SWAP1 REVERT JUMPDEST ISZERO PUSH2 0x32C3 JUMPI JUMP JUMPDEST PUSH1 0x40 MLOAD PUSH3 0x461BCD PUSH1 0xE5 SHL DUP2 MSTORE PUSH1 0x20 PUSH1 0x4 DUP3 ADD MSTORE PUSH1 0x1B PUSH1 0x24 DUP3 ADD MSTORE PUSH32 0x556E7374616B652074696D6520686173206E6F74207061737365640000000000 PUSH1 0x44 DUP3 ADD MSTORE PUSH1 0x64 SWAP1 REVERT JUMPDEST PUSH2 0x3314 PUSH2 0x237F DUP3 PUSH2 0x5319 JUMP JUMPDEST PUSH2 0x33C6 PUSH2 0x33C0 PUSH2 0x2D0C PUSH1 0x20 PUSH1 0x1A PUSH2 0x3338 PUSH2 0x3333 PUSH1 0x5 PUSH2 0x324A DUP10 DUP6 PUSH2 0x1284 JUMP JUMPDEST PUSH2 0x3185 JUMP JUMPDEST PUSH2 0x33A9 PUSH1 0x0 PUSH1 0x5 PUSH2 0x33A3 DUP10 PUSH2 0x3355 PUSH2 0x3350 DUP3 DUP9 PUSH2 0x1284 JUMP JUMPDEST PUSH2 0x3259 JUMP JUMPDEST SWAP6 PUSH2 0x335E PUSH2 0xE4F JUMP JUMPDEST PUSH2 0x336D PUSH2 0x1CC3 CALLER JUMPDEST DUP1 SWAP4 PUSH2 0x45F8 JUMP JUMPDEST PUSH2 0x341A JUMPI JUMPDEST POP PUSH1 0x60 DUP8 ADD DUP1 MLOAD PUSH2 0x3385 PUSH2 0x1DCE DUP9 PUSH2 0x11D5 JUMP JUMPDEST SUB PUSH2 0x33FE JUMPI JUMPDEST POP PUSH2 0x16C9 PUSH2 0x3399 DUP4 DUP4 PUSH2 0x1284 JUMP JUMPDEST PUSH1 0x4 TIMESTAMP SWAP2 ADD PUSH2 0x202F JUMP JUMPDEST ADD PUSH2 0x2AD7 JUMP JUMPDEST PUSH2 0x33B2 DUP7 PUSH2 0x4C66 JUMP JUMPDEST ADD MLOAD PUSH1 0x1 PUSH1 0x1 PUSH1 0xA0 SHL SUB AND SWAP1 JUMP JUMPDEST SWAP2 PUSH2 0x1C14 JUMP JUMPDEST SWAP1 PUSH32 0x8400AAD51EC7B4A6D1C58218EA03E51798A0485003BEAE9E5B76662E91D7058F PUSH2 0x33F1 PUSH1 0x40 MLOAD SWAP1 JUMP JUMPDEST TIMESTAMP DUP2 MSTORE DUP1 PUSH1 0x20 DUP2 ADD PUSH2 0x2DFA JUMP JUMPDEST PUSH2 0x340C PUSH2 0x52D PUSH2 0x3414 SWAP3 MLOAD SWAP1 JUMP JUMPDEST TIMESTAMP LT ISZERO PUSH2 0x32BC JUMP JUMPDEST CODESIZE PUSH2 0x338B JUMP JUMPDEST PUSH2 0x344A SWAP1 PUSH2 0x3444 PUSH2 0x20AB PUSH2 0x3437 DUP13 DUP13 ADD MLOAD PUSH1 0x1 PUSH1 0x1 PUSH1 0xA0 SHL SUB AND SWAP1 JUMP JUMPDEST SWAP3 PUSH1 0x1 PUSH1 0x1 PUSH1 0xA0 SHL SUB AND SWAP1 JUMP JUMPDEST EQ PUSH2 0x3262 JUMP JUMPDEST CODESIZE PUSH2 0x3372 JUMP JUMPDEST PUSH2 0x517 SWAP1 PUSH2 0x3174 JUMP JUMPDEST SWAP1 PUSH2 0x517 SWAP2 PUSH2 0x346A PUSH2 0x1B83 DUP3 PUSH2 0x2437 JUMP JUMPDEST SWAP1 PUSH2 0x3474 SWAP2 PUSH2 0x5942 JUMP JUMPDEST POP JUMP JUMPDEST SWAP1 PUSH2 0x517 SWAP2 PUSH2 0x3459 JUMP JUMPDEST SWAP1 PUSH2 0x348B CALLER PUSH2 0x566 JUMP JUMPDEST PUSH1 0x1 PUSH1 0x1 PUSH1 0xA0 SHL SUB DUP3 AND SUB PUSH2 0x34A3 JUMPI PUSH2 0x3474 SWAP2 PUSH2 0x59B3 JUMP JUMPDEST PUSH4 0x334BD919 PUSH1 0xE1 SHL PUSH1 0x0 SWAP1 DUP2 MSTORE PUSH1 0x4 JUMPDEST SUB PUSH1 0x0 REVERT JUMPDEST PUSH2 0x517 SWAP1 PUSH2 0x34C7 PUSH2 0x1B83 PUSH2 0xE4F JUMP JUMPDEST PUSH2 0x3535 JUMP JUMPDEST ISZERO PUSH2 0x34D3 JUMPI JUMP JUMPDEST PUSH1 0x40 MLOAD PUSH3 0x461BCD PUSH1 0xE5 SHL DUP2 MSTORE PUSH1 0x20 PUSH1 0x4 DUP3 ADD MSTORE PUSH1 0x21 PUSH1 0x24 DUP3 ADD MSTORE PUSH32 0x426C6F636B2074696D65206D7573742062652067726561746572207468616E20 PUSH1 0x44 DUP3 ADD MSTORE PUSH1 0x3 PUSH1 0xFC SHL PUSH1 0x64 DUP3 ADD MSTORE PUSH1 0x84 SWAP1 REVERT JUMPDEST SWAP1 DUP2 MSTORE PUSH1 0x40 DUP2 ADD SWAP3 SWAP2 PUSH2 0x517 SWAP2 PUSH1 0x20 ADD MSTORE JUMP JUMPDEST PUSH32 0xBE1531878CA10F11C57318847B09788B90ED4E6DD52B36836BE286097A74FF4F SWAP1 PUSH2 0x356B PUSH2 0x3564 PUSH1 0x0 PUSH2 0x11D5 JUMP JUMPDEST DUP3 GT PUSH2 0x34CC JUMP JUMPDEST PUSH2 0x3575 PUSH1 0xF PUSH2 0x1487 JUMP JUMPDEST PUSH2 0x3580 DUP3 PUSH1 0xF PUSH2 0x202F JUMP JUMPDEST PUSH2 0x3595 PUSH2 0x358C PUSH1 0x40 MLOAD SWAP1 JUMP JUMPDEST SWAP3 DUP4 SWAP3 DUP4 PUSH2 0x3522 JUMP JUMPDEST SUB SWAP1 LOG1 JUMP JUMPDEST PUSH2 0x517 SWAP1 PUSH2 0x34B8 JUMP JUMPDEST PUSH2 0x35AE PUSH2 0x1B83 PUSH2 0xE4F JUMP JUMPDEST PUSH2 0x517 PUSH2 0x517 PUSH2 0x5A7C JUMP JUMPDEST PUSH2 0x517 PUSH2 0x35A3 JUMP JUMPDEST SWAP1 PUSH2 0x35CE PUSH2 0xACF DUP4 PUSH2 0xA97 JUMP JUMPDEST SWAP2 DUP3 MSTORE JUMP JUMPDEST PUSH2 0x52D PUSH1 0x0 PUSH2 0x35C1 JUMP JUMPDEST PUSH2 0x52D PUSH2 0x35D3 JUMP JUMPDEST SWAP1 SWAP2 PUSH2 0x517 SWAP3 PUSH2 0x35F3 PUSH2 0x35DD JUMP JUMPDEST SWAP3 PUSH2 0x48C6 JUMP JUMPDEST ISZERO PUSH2 0x3600 JUMPI JUMP JUMPDEST PUSH1 0x40 MLOAD PUSH3 0x461BCD PUSH1 0xE5 SHL DUP2 MSTORE DUP1 PUSH2 0x1BF3 PUSH1 0x4 DUP3 ADD PUSH1 0x20 DUP1 DUP3 MSTORE DUP2 DUP2 ADD MSTORE PUSH32 0x43616C6C6572206973206E6F74206F776E6572206E6F7220617070726F766564 PUSH1 0x40 DUP3 ADD MSTORE PUSH1 0x60 ADD SWAP1 JUMP JUMPDEST PUSH32 0x1AF5163F80E79B5E554F61E1D052084D3A3FE1166E42A265798C4E2DDCE8FFA2 PUSH2 0x1C95 PUSH2 0x368C CALLER PUSH2 0x3683 PUSH2 0x367E DUP3 DUP8 PUSH2 0x5A84 JUMP JUMPDEST PUSH2 0x35F9 JUMP JUMPDEST PUSH2 0x1C6F DUP6 PUSH2 0x5ADE JUMP JUMPDEST SWAP3 PUSH2 0x7C5 PUSH1 0x40 MLOAD SWAP1 JUMP JUMPDEST PUSH2 0x517 SWAP1 PUSH2 0x36A5 PUSH2 0x1B83 PUSH2 0xE4F JUMP JUMPDEST PUSH2 0x3595 PUSH32 0xF62079051152E03BD87F33518B9CE4A5564414395B75AFEEF8A467E7CA4EE91B SWAP2 PUSH2 0x54F DUP2 PUSH1 0x12 PUSH2 0x2AD7 JUMP JUMPDEST PUSH2 0x517 SWAP1 PUSH2 0x3696 JUMP JUMPDEST PUSH2 0x517 SWAP1 PUSH2 0x36ED PUSH2 0x1B83 PUSH2 0xE4F JUMP JUMPDEST PUSH2 0x3595 PUSH32 0x6741B2FC379FAD678116FE3D4D4B9A1A184AB53BA36B86AD0FA66340B1AB41AD SWAP2 PUSH2 0x67D DUP2 PUSH1 0x10 PUSH2 0x2AC4 JUMP JUMPDEST PUSH2 0x517 SWAP1 PUSH2 0x36DE JUMP JUMPDEST SWAP1 PUSH2 0x517 SWAP3 SWAP2 PUSH2 0x3737 PUSH2 0x1B83 PUSH2 0xE4F JUMP JUMPDEST PUSH2 0x1C74 DUP3 PUSH2 0x1C6F DUP6 PUSH32 0xAE1D656A1268648B04FFA79C1416F05879338AE295AAE3234D8DB217356A1C62 SWAP6 PUSH2 0x1C95 SWAP6 PUSH2 0x3782 PUSH2 0x3773 PUSH2 0x3E8 PUSH2 0x1B8D JUMP JUMPDEST PUSH1 0x1 PUSH1 0x1 PUSH1 0x60 SHL SUB DUP6 AND PUSH2 0x1C5E JUMP JUMPDEST PUSH2 0x378E PUSH2 0x237F DUP3 PUSH2 0x5319 JUMP JUMPDEST PUSH2 0x5B09 JUMP JUMPDEST SWAP1 PUSH2 0x517 SWAP3 SWAP2 PUSH2 0x3726 JUMP JUMPDEST PUSH2 0x52D SWAP1 PUSH1 0xA0 SHR PUSH2 0x119D JUMP JUMPDEST PUSH2 0x52D SWAP1 SLOAD PUSH2 0x379E JUMP JUMPDEST PUSH2 0x52D PUSH1 0x9 PUSH2 0x37AA JUMP JUMPDEST PUSH2 0x208B PUSH2 0x37D6 PUSH2 0x52D SWAP3 PUSH2 0x37D0 PUSH1 0x0 SWAP1 JUMP JUMPDEST POP PUSH2 0x5493 JUMP JUMPDEST PUSH2 0x2008 JUMP JUMPDEST PUSH2 0x517 SWAP1 PUSH2 0x37EA PUSH2 0x1B83 PUSH2 0xE4F JUMP JUMPDEST PUSH2 0x383B JUMP JUMPDEST ISZERO PUSH2 0x37F6 JUMPI JUMP JUMPDEST PUSH1 0x40 MLOAD PUSH3 0x461BCD PUSH1 0xE5 SHL DUP2 MSTORE PUSH1 0x20 PUSH1 0x4 DUP3 ADD MSTORE PUSH1 0x18 PUSH1 0x24 DUP3 ADD MSTORE PUSH32 0x52657761726420697320616C7265616479206163746976650000000000000000 PUSH1 0x44 DUP3 ADD MSTORE PUSH1 0x64 SWAP1 REVERT JUMPDEST PUSH2 0x386C SWAP1 PUSH2 0x385A PUSH2 0x3855 PUSH2 0x1CC3 PUSH1 0x4 PUSH2 0x324A DUP6 PUSH1 0x1B PUSH2 0x1284 JUMP JUMPDEST PUSH2 0x37EF JUMP JUMPDEST PUSH2 0x23CB PUSH1 0x1 PUSH1 0x4 PUSH2 0x33A3 DUP5 PUSH1 0x1B PUSH2 0x1284 JUMP JUMPDEST PUSH32 0x77DF36C64E7C698035A47D2E97DA79AB1C3BCFDF6F82430581659CC4D2A969A PUSH2 0x3896 PUSH1 0x40 MLOAD SWAP1 JUMP JUMPDEST DUP1 DUP1 PUSH2 0x1C95 JUMP JUMPDEST PUSH2 0x517 SWAP1 PUSH2 0x37DB JUMP JUMPDEST PUSH2 0x517 SWAP1 PUSH2 0x38B5 PUSH2 0x1B83 PUSH2 0xE4F JUMP JUMPDEST PUSH2 0x38CA SWAP1 PUSH2 0x1C6F DUP2 PUSH2 0x38C5 PUSH2 0xE4F JUMP JUMPDEST PUSH2 0x3477 JUMP JUMPDEST PUSH32 0x31C682DCD71348807B079D0CB25BF0C85C9E75F84A8B7B31111BA081E52817F3 PUSH2 0x3896 PUSH1 0x40 MLOAD SWAP1 JUMP JUMPDEST PUSH2 0x517 SWAP1 PUSH2 0x38A6 JUMP JUMPDEST SWAP1 PUSH2 0x517 SWAP2 PUSH2 0x390D PUSH2 0x1B83 PUSH2 0xE4F JUMP JUMPDEST SWAP2 SWAP1 SWAP2 PUSH2 0x391A PUSH1 0x0 PUSH2 0x11D5 JUMP JUMPDEST DUP4 DUP2 LT ISZERO PUSH2 0x1DF4 JUMPI DUP1 PUSH2 0x3937 PUSH2 0x1DC0 PUSH2 0x1DBB PUSH2 0x395C SWAP5 DUP9 DUP8 PUSH2 0x1D2D JUMP JUMPDEST PUSH2 0x394B PUSH2 0x2390 PUSH2 0x9D6 PUSH2 0x1DBB DUP5 DUP10 DUP9 PUSH2 0x1D2D JUMP JUMPDEST PUSH2 0x1DE9 PUSH2 0x951 PUSH2 0x1DBB DUP4 DUP9 DUP8 PUSH2 0x1D2D JUMP JUMPDEST PUSH2 0x391A JUMP JUMPDEST SWAP1 PUSH2 0x517 SWAP2 PUSH2 0x38FD JUMP JUMPDEST PUSH2 0x52D PUSH1 0x1 PUSH1 0x1 PUSH1 0x40 SHL SUB PUSH2 0x11D5 JUMP JUMPDEST PUSH2 0x3988 PUSH2 0x566 PUSH1 0x0 PUSH2 0x25FA JUMP JUMPDEST PUSH1 0x1 PUSH1 0x1 PUSH1 0xA0 SHL SUB DUP3 AND EQ PUSH2 0x39B1 JUMPI PUSH2 0x2208 PUSH2 0x39A5 SWAP2 PUSH1 0x5 PUSH2 0x2015 JUMP JUMPDEST PUSH2 0x39AD PUSH2 0x396B JUMP JUMPDEST AND SWAP1 JUMP JUMPDEST PUSH4 0x23D3AD81 PUSH1 0xE2 SHL PUSH2 0x539D JUMP JUMPDEST PUSH2 0x2208 PUSH2 0x52D SWAP2 PUSH2 0x39CD PUSH1 0x0 SWAP1 JUMP JUMPDEST POP PUSH1 0x15 PUSH2 0x2015 JUMP JUMPDEST PUSH2 0x39DD PUSH2 0x5BCF JUMP JUMPDEST PUSH2 0x517 PUSH2 0x517 PUSH2 0x39ED PUSH1 0x0 PUSH2 0x25FA JUMP JUMPDEST PUSH2 0x5C10 JUMP JUMPDEST PUSH2 0x517 PUSH2 0x39D5 JUMP JUMPDEST PUSH1 0x1 PUSH1 0x1 PUSH1 0x40 SHL SUB DUP2 GT PUSH2 0xA7E JUMPI PUSH1 0x20 DUP1 SWAP2 MUL ADD SWAP1 JUMP JUMPDEST SWAP1 PUSH2 0x35CE PUSH2 0xACF DUP4 PUSH2 0x39FA JUMP JUMPDEST PUSH2 0x52D PUSH2 0x140 PUSH2 0xA83 JUMP JUMPDEST PUSH2 0x3A31 PUSH2 0x3A1E JUMP JUMPDEST SWAP1 PUSH1 0x0 DUP3 MSTORE PUSH1 0x20 DUP1 DUP1 DUP1 DUP1 DUP1 DUP1 DUP1 DUP1 DUP1 DUP12 ADD PUSH1 0x0 DUP2 MSTORE ADD PUSH1 0x0 DUP2 MSTORE ADD PUSH1 0x0 DUP2 MSTORE ADD PUSH1 0x0 DUP2 MSTORE ADD PUSH1 0x0 DUP2 MSTORE ADD PUSH1 0x0 DUP2 MSTORE ADD PUSH1 0x0 PUSH2 0x1EAF JUMP JUMPDEST PUSH2 0x52D PUSH2 0x3A29 JUMP JUMPDEST PUSH1 0x0 JUMPDEST DUP3 DUP2 LT PUSH2 0x3A7F JUMPI POP POP POP JUMP JUMPDEST PUSH1 0x20 SWAP1 PUSH2 0x3A8A PUSH2 0x3A68 JUMP JUMPDEST DUP2 DUP5 ADD MSTORE ADD PUSH2 0x3A73 JUMP JUMPDEST SWAP1 PUSH2 0x517 PUSH2 0x3AAA PUSH2 0x3AA4 DUP5 PUSH2 0x3A11 JUMP JUMPDEST SWAP4 PUSH2 0x39FA JUMP JUMPDEST PUSH1 0x1F NOT ADD PUSH1 0x20 DUP5 ADD PUSH2 0x3A70 JUMP JUMPDEST SWAP1 PUSH2 0x3AC0 DUP3 MLOAD SWAP1 JUMP JUMPDEST DUP2 LT ISZERO PUSH2 0x1D3D JUMPI PUSH1 0x20 DUP1 SWAP2 MUL ADD ADD SWAP1 JUMP JUMPDEST SWAP1 PUSH2 0x517 PUSH2 0x3B91 PUSH1 0x8 PUSH2 0x3AE2 PUSH2 0x3A1E JUMP JUMPDEST SWAP5 PUSH2 0x3AEF PUSH2 0x1EE5 DUP3 PUSH2 0x1487 JUMP JUMPDEST PUSH2 0x3AFE PUSH2 0x1EF8 PUSH1 0x1 DUP4 ADD PUSH2 0x1487 JUMP JUMPDEST PUSH2 0x3B25 PUSH2 0x3B15 PUSH1 0x2 DUP4 ADD SLOAD PUSH1 0x1 PUSH1 0x1 PUSH1 0xA0 SHL SUB AND SWAP1 JUMP JUMPDEST PUSH1 0x1 PUSH1 0x1 PUSH1 0xA0 SHL SUB AND PUSH1 0x40 DUP9 ADD MSTORE JUMP JUMPDEST PUSH2 0x3B34 PUSH2 0x1F24 PUSH1 0x3 DUP4 ADD PUSH2 0x1487 JUMP JUMPDEST PUSH2 0x3B43 PUSH2 0x3243 PUSH1 0x4 DUP4 ADD PUSH2 0x1487 JUMP JUMPDEST PUSH2 0x3B5B PUSH2 0x3B52 PUSH1 0x5 DUP4 ADD PUSH2 0x149A JUMP JUMPDEST ISZERO ISZERO PUSH1 0xA0 DUP9 ADD MSTORE JUMP JUMPDEST PUSH2 0x3B73 PUSH2 0x3B6A PUSH1 0x5 DUP4 ADD PUSH2 0x15C1 JUMP JUMPDEST ISZERO ISZERO PUSH1 0xC0 DUP9 ADD MSTORE JUMP JUMPDEST PUSH2 0x3B82 PUSH2 0x1F7E PUSH1 0x6 DUP4 ADD PUSH2 0x1487 JUMP JUMPDEST PUSH2 0x1FB3 PUSH2 0x1F94 PUSH1 0x7 DUP4 ADD PUSH2 0x1699 JUMP JUMPDEST PUSH2 0x120 DUP5 ADD MSTORE JUMP JUMPDEST PUSH2 0x52D SWAP1 PUSH2 0x3AD1 JUMP JUMPDEST SWAP1 PUSH2 0x3BAD PUSH1 0x0 PUSH2 0x11D5 JUMP JUMPDEST DUP1 JUMPDEST PUSH2 0x3BBC PUSH2 0x52D PUSH1 0x1D PUSH2 0x1487 JUMP JUMPDEST DUP2 LT ISZERO PUSH2 0x3BFE JUMPI PUSH2 0x3BD7 PUSH1 0x5 PUSH2 0x324A DUP4 PUSH2 0x16C9 DUP9 PUSH1 0x1C PUSH2 0x1284 JUMP JUMPDEST PUSH2 0x3BE9 JUMPI JUMPDEST PUSH1 0x1 ADD PUSH2 0x3BAF JUMP JUMPDEST PUSH2 0x3BAF JUMP JUMPDEST SWAP1 PUSH2 0x3BF6 PUSH2 0x3BE4 SWAP2 PUSH2 0x293A JUMP JUMPDEST SWAP2 SWAP1 POP PUSH2 0x3BDC JUMP JUMPDEST POP PUSH2 0x3C08 SWAP1 PUSH2 0x3A94 JUMP JUMPDEST PUSH2 0x3C12 PUSH1 0x0 PUSH2 0x11D5 JUMP JUMPDEST SWAP3 DUP4 JUMPDEST PUSH2 0x3C22 PUSH2 0x52D PUSH1 0x1D PUSH2 0x1487 JUMP JUMPDEST DUP2 LT ISZERO PUSH2 0x3C94 JUMPI PUSH2 0x3C52 SWAP1 PUSH1 0x1C DUP4 DUP3 PUSH2 0x3C44 PUSH1 0x5 PUSH2 0x324A DUP4 PUSH2 0x16C9 DUP7 DUP9 PUSH2 0x1284 JUMP JUMPDEST PUSH2 0x3C57 JUMPI JUMPDEST POP POP POP PUSH1 0x1 ADD SWAP1 JUMP JUMPDEST PUSH2 0x3C15 JUMP JUMPDEST PUSH2 0x16C9 PUSH2 0x3C67 SWAP3 PUSH2 0x3C8B SWAP5 PUSH2 0x1284 JUMP JUMPDEST SWAP7 PUSH2 0x3C7A PUSH2 0x3C74 DUP3 PUSH2 0x293A JUMP JUMPDEST SWAP9 PUSH2 0x3B99 JUMP JUMPDEST PUSH2 0x3C84 DUP3 DUP9 PUSH2 0x3AB7 JUMP JUMPDEST MSTORE DUP6 PUSH2 0x3AB7 JUMP JUMPDEST POP CODESIZE DUP4 DUP3 PUSH2 0x3C49 JUMP JUMPDEST POP SWAP1 SWAP3 POP POP JUMP JUMPDEST SWAP1 PUSH2 0x517 SWAP5 SWAP4 SWAP3 SWAP2 PUSH2 0x3CAB PUSH2 0x5459 JUMP JUMPDEST SWAP1 PUSH2 0x517 SWAP5 SWAP4 SWAP3 SWAP2 PUSH2 0x3CBE PUSH2 0x1B83 PUSH2 0xE4F JUMP JUMPDEST PUSH2 0x3DFC JUMP JUMPDEST ISZERO PUSH2 0x3CCA JUMPI JUMP JUMPDEST PUSH1 0x40 MLOAD PUSH3 0x461BCD PUSH1 0xE5 SHL DUP2 MSTORE PUSH1 0x20 PUSH1 0x4 DUP3 ADD MSTORE PUSH1 0x1D PUSH1 0x24 DUP3 ADD MSTORE PUSH32 0x46726F6D2061646472657373206973206E6F7420746865206F776E6572000000 PUSH1 0x44 DUP3 ADD MSTORE PUSH1 0x64 SWAP1 REVERT JUMPDEST ISZERO PUSH2 0x3D16 JUMPI JUMP JUMPDEST PUSH1 0x40 MLOAD PUSH3 0x461BCD PUSH1 0xE5 SHL DUP2 MSTORE PUSH1 0x20 PUSH1 0x4 DUP3 ADD MSTORE PUSH1 0x1F PUSH1 0x24 DUP3 ADD MSTORE PUSH32 0x43616E6E6F74207472616E7366657220746F207A65726F206164647265737300 PUSH1 0x44 DUP3 ADD MSTORE PUSH1 0x64 SWAP1 REVERT JUMPDEST ISZERO PUSH2 0x3D62 JUMPI JUMP JUMPDEST PUSH1 0x40 MLOAD PUSH3 0x461BCD PUSH1 0xE5 SHL DUP2 MSTORE PUSH1 0x20 PUSH1 0x4 DUP3 ADD MSTORE PUSH1 0xF PUSH1 0x24 DUP3 ADD MSTORE PUSH15 0x151BDAD95B881A5CC81B1BD8DAD959 PUSH1 0x8A SHL PUSH1 0x44 DUP3 ADD MSTORE PUSH1 0x64 SWAP1 REVERT JUMPDEST PUSH1 0x20 DUP1 SWAP4 SWAP3 PUSH2 0x3DB6 PUSH2 0x35CE PUSH2 0x64D SWAP5 PUSH2 0x1901 PUSH1 0xF0 SHL DUP2 MSTORE PUSH1 0x2 ADD SWAP1 JUMP JUMPDEST ADD SWAP2 DUP3 MSTORE JUMP JUMPDEST ISZERO PUSH2 0x3DC3 JUMPI JUMP JUMPDEST PUSH1 0x40 MLOAD PUSH3 0x461BCD PUSH1 0xE5 SHL DUP2 MSTORE PUSH1 0x20 PUSH1 0x4 DUP3 ADD MSTORE PUSH1 0x11 PUSH1 0x24 DUP3 ADD MSTORE PUSH17 0x496E76616C6964207369676E6174757265 PUSH1 0x78 SHL PUSH1 0x44 DUP3 ADD MSTORE PUSH1 0x64 SWAP1 REVERT JUMPDEST PUSH2 0x3FC1 PUSH2 0x3FC7 SWAP2 PUSH2 0x3F8B PUSH2 0x3F86 PUSH2 0x3E97 PUSH32 0xE37E962447C072D61E0164C30F30D2A3F4752DEA7A7224FFD42D5FC2586B02D5 SWAP8 SWAP10 SWAP9 SWAP7 SWAP9 PUSH2 0x3E3E PUSH2 0x237F DUP13 PUSH2 0x5319 JUMP JUMPDEST PUSH2 0x3E62 PUSH2 0x3E4A DUP13 PUSH2 0x37BE JUMP JUMPDEST PUSH2 0x3E5C PUSH1 0x1 PUSH1 0x1 PUSH1 0xA0 SHL SUB DUP9 AND PUSH2 0x20AB JUMP JUMPDEST EQ PUSH2 0x3CC3 JUMP JUMPDEST PUSH2 0x3E83 PUSH2 0x3E72 PUSH2 0x566 PUSH1 0x0 PUSH2 0x25FA JUMP JUMPDEST PUSH1 0x1 PUSH1 0x1 PUSH1 0xA0 SHL SUB DUP13 AND EQ ISZERO PUSH2 0x3D0F JUMP JUMPDEST PUSH2 0x3103 PUSH2 0x3E92 PUSH2 0x1CC3 DUP14 PUSH2 0x253E JUMP JUMPDEST PUSH2 0x3D5B JUMP JUMPDEST SWAP6 PUSH2 0x3F3A PUSH2 0x3F74 DUP12 PUSH2 0x3F46 DUP13 DUP9 PUSH2 0x3F3A PUSH2 0x3EB5 PUSH2 0x2208 DUP4 PUSH1 0x15 PUSH2 0x2015 JUMP JUMPDEST PUSH32 0x5845C8B965119358C29037DC6226E8F2195E0D03C7D2055C52FB161F57928741 SWAP1 PUSH2 0x3EE0 ADDRESS PUSH2 0x1C14 JUMP JUMPDEST PUSH1 0x40 MLOAD SWAP8 DUP9 SWAP7 PUSH1 0x20 DUP9 ADD SWAP7 CHAINID SWAP6 DUP9 SWAP1 DUP2 MSTORE PUSH1 0x1 PUSH1 0x1 PUSH1 0xA0 SHL SUB SWAP1 SWAP2 AND PUSH1 0x20 DUP3 ADD MSTORE PUSH1 0xE0 DUP2 ADD SWAP7 SWAP6 SWAP5 SWAP1 SWAP4 SWAP1 SWAP3 SWAP1 SWAP2 PUSH1 0x1 PUSH1 0x1 PUSH1 0xA0 SHL SUB AND PUSH1 0x40 DUP6 ADD MSTORE PUSH1 0x60 DUP5 ADD MSTORE PUSH1 0x1 PUSH1 0x1 PUSH1 0xA0 SHL SUB AND PUSH1 0x80 DUP4 ADD MSTORE PUSH1 0xA0 DUP3 ADD MSTORE PUSH1 0xC0 ADD MSTORE JUMP JUMPDEST SWAP1 DUP2 SUB DUP3 MSTORE SUB DUP3 PUSH2 0xA5D JUMP JUMPDEST PUSH2 0x3F58 PUSH2 0x3F51 DUP3 MLOAD SWAP1 JUMP JUMPDEST SWAP2 PUSH1 0x20 ADD SWAP1 JUMP JUMPDEST KECCAK256 PUSH2 0x3F63 PUSH1 0xE PUSH2 0x1487 JUMP JUMPDEST PUSH1 0x40 MLOAD SWAP4 DUP5 SWAP3 PUSH1 0x20 DUP5 ADD SWAP3 DUP4 PUSH2 0x3D99 JUMP JUMPDEST PUSH2 0x3F7F PUSH2 0x3F51 DUP3 MLOAD SWAP1 JUMP JUMPDEST KECCAK256 DUP5 PUSH2 0x5D29 JUMP JUMPDEST PUSH2 0x3DBC JUMP JUMPDEST PUSH2 0x3FAA PUSH2 0x3F99 DUP3 PUSH1 0x15 PUSH2 0x2015 JUMP JUMPDEST PUSH2 0x2133 PUSH2 0x3FA5 DUP3 PUSH2 0x1487 JUMP JUMPDEST PUSH2 0x293A JUMP JUMPDEST PUSH2 0x3FB6 PUSH1 0x0 DUP9 CALLER PUSH2 0x53A6 JUMP JUMPDEST PUSH2 0x1C6F DUP8 DUP8 DUP4 PUSH2 0x2057 JUMP JUMPDEST SWAP4 PUSH2 0x1C14 JUMP JUMPDEST SWAP4 PUSH2 0x2DFA PUSH2 0x358C PUSH1 0x40 MLOAD SWAP1 JUMP JUMPDEST SWAP1 PUSH2 0x517 SWAP5 SWAP4 SWAP3 SWAP2 PUSH2 0x3C9B JUMP JUMPDEST PUSH2 0x3FEC PUSH2 0x1B83 PUSH2 0xE4F JUMP JUMPDEST PUSH2 0x517 PUSH2 0x517 PUSH2 0x5E3A JUMP JUMPDEST PUSH2 0x517 PUSH2 0x3FE1 JUMP JUMPDEST SWAP1 PUSH2 0x2E62 SWAP2 PUSH2 0x400C PUSH2 0x577A JUMP JUMPDEST SWAP1 PUSH2 0x517 SWAP2 PUSH2 0x4019 PUSH2 0x5459 JUMP JUMPDEST PUSH2 0x435D JUMP JUMPDEST ISZERO PUSH2 0x4025 JUMPI JUMP JUMPDEST PUSH1 0x40 MLOAD PUSH3 0x461BCD PUSH1 0xE5 SHL DUP2 MSTORE PUSH1 0x20 PUSH1 0x4 DUP3 ADD MSTORE PUSH1 0x15 PUSH1 0x24 DUP3 ADD MSTORE PUSH21 0x14995DD85C9908191BD95CC81B9BDD08195E1A5CDD PUSH1 0x5A SHL PUSH1 0x44 DUP3 ADD MSTORE PUSH1 0x64 SWAP1 REVERT JUMPDEST ISZERO PUSH2 0x4069 JUMPI JUMP JUMPDEST PUSH1 0x40 MLOAD PUSH3 0x461BCD PUSH1 0xE5 SHL DUP2 MSTORE PUSH1 0x20 PUSH1 0x4 DUP3 ADD MSTORE PUSH1 0x14 PUSH1 0x24 DUP3 ADD MSTORE PUSH20 0x526577617264206973206E6F7420616374697665 PUSH1 0x60 SHL PUSH1 0x44 DUP3 ADD MSTORE PUSH1 0x64 SWAP1 REVERT JUMPDEST ISZERO PUSH2 0x40AC JUMPI JUMP JUMPDEST PUSH1 0x40 MLOAD PUSH3 0x461BCD PUSH1 0xE5 SHL DUP2 MSTORE PUSH1 0x20 PUSH1 0x4 DUP3 ADD MSTORE PUSH1 0x18 PUSH1 0x24 DUP3 ADD MSTORE PUSH32 0x526577617264206973206E6F7420616374697665207965740000000000000000 PUSH1 0x44 DUP3 ADD MSTORE PUSH1 0x64 SWAP1 REVERT JUMPDEST ISZERO PUSH2 0x40F8 JUMPI JUMP JUMPDEST PUSH1 0x40 MLOAD PUSH3 0x461BCD PUSH1 0xE5 SHL DUP2 MSTORE PUSH1 0x20 PUSH1 0x4 DUP3 ADD MSTORE PUSH1 0x1C PUSH1 0x24 DUP3 ADD MSTORE PUSH32 0x526577617264206973206E6F742061637469766520616E796D6F726500000000 PUSH1 0x44 DUP3 ADD MSTORE PUSH1 0x64 SWAP1 REVERT JUMPDEST SWAP2 SWAP1 DUP3 SUB SWAP2 DUP3 GT PUSH2 0x2642 JUMPI JUMP JUMPDEST ISZERO PUSH2 0x4151 JUMPI JUMP JUMPDEST PUSH1 0x40 MLOAD PUSH3 0x461BCD PUSH1 0xE5 SHL DUP2 MSTORE PUSH1 0x20 PUSH1 0x4 DUP3 ADD MSTORE PUSH1 0x1F PUSH1 0x24 DUP3 ADD MSTORE PUSH32 0x546F6B656E206973206E6F74207374616B6564206C6F6E6720656E6F75676800 PUSH1 0x44 DUP3 ADD MSTORE PUSH1 0x64 SWAP1 REVERT JUMPDEST ISZERO PUSH2 0x419D JUMPI JUMP JUMPDEST PUSH1 0x40 MLOAD PUSH3 0x461BCD PUSH1 0xE5 SHL DUP2 MSTORE PUSH1 0x20 PUSH1 0x4 DUP3 ADD MSTORE PUSH1 0x19 PUSH1 0x24 DUP3 ADD MSTORE PUSH32 0x52657761726420697320616C726561647920636C61696D656400000000000000 PUSH1 0x44 DUP3 ADD MSTORE PUSH1 0x64 SWAP1 REVERT JUMPDEST ISZERO PUSH2 0x41E9 JUMPI JUMP JUMPDEST PUSH1 0x40 MLOAD PUSH3 0x461BCD PUSH1 0xE5 SHL DUP2 MSTORE PUSH1 0x20 PUSH1 0x4 DUP3 ADD MSTORE PUSH1 0x24 DUP1 DUP3 ADD MSTORE PUSH32 0x4F6E6C7920746865207374616B65722063616E20636C61696D20746865207265 PUSH1 0x44 DUP3 ADD MSTORE PUSH4 0x1DD85C99 PUSH1 0xE2 SHL PUSH1 0x64 DUP3 ADD MSTORE PUSH1 0x84 SWAP1 REVERT JUMPDEST SWAP1 PUSH1 0x1 PUSH1 0x1 PUSH1 0xA0 SHL SUB SWAP1 PUSH2 0x2025 JUMP JUMPDEST SWAP1 PUSH2 0x4259 PUSH2 0x52D PUSH2 0x2046 SWAP3 PUSH2 0x1C14 JUMP JUMPDEST DUP3 SLOAD PUSH2 0x423A JUMP JUMPDEST SWAP1 PUSH2 0xFF00 SWAP1 PUSH1 0x8 SHL PUSH2 0x2025 JUMP JUMPDEST SWAP1 PUSH2 0x427D PUSH2 0x52D PUSH2 0x2046 SWAP3 ISZERO ISZERO SWAP1 JUMP JUMPDEST DUP3 SLOAD PUSH2 0x4260 JUMP JUMPDEST PUSH1 0x8 PUSH2 0x2BE6 PUSH2 0x120 PUSH2 0x517 SWAP5 PUSH2 0x429E PUSH2 0x2B08 PUSH1 0x0 DUP4 ADD MLOAD SWAP1 JUMP JUMPDEST PUSH2 0x42B5 PUSH2 0x42AC PUSH1 0x20 DUP4 ADD MLOAD SWAP1 JUMP JUMPDEST PUSH1 0x1 DUP8 ADD PUSH2 0x202F JUMP JUMPDEST PUSH2 0x42D5 PUSH2 0x42CC PUSH1 0x40 DUP4 ADD MLOAD PUSH1 0x1 PUSH1 0x1 PUSH1 0xA0 SHL SUB AND SWAP1 JUMP JUMPDEST PUSH1 0x2 DUP8 ADD PUSH2 0x4249 JUMP JUMPDEST PUSH2 0x42EC PUSH2 0x42E3 PUSH1 0x60 DUP4 ADD MLOAD SWAP1 JUMP JUMPDEST PUSH1 0x3 DUP8 ADD PUSH2 0x202F JUMP JUMPDEST PUSH2 0x4303 PUSH2 0x42FA PUSH1 0x80 DUP4 ADD MLOAD SWAP1 JUMP JUMPDEST PUSH1 0x4 DUP8 ADD PUSH2 0x202F JUMP JUMPDEST PUSH2 0x432D PUSH1 0x5 DUP7 ADD PUSH2 0x4320 PUSH2 0x431A PUSH1 0xA0 DUP6 ADD MLOAD ISZERO ISZERO SWAP1 JUMP JUMPDEST DUP3 PUSH2 0x2AD7 JUMP JUMPDEST PUSH1 0xC0 DUP4 ADD MLOAD ISZERO ISZERO SWAP1 PUSH2 0x426D JUMP JUMPDEST PUSH2 0x433B PUSH2 0x2B91 PUSH1 0xE0 DUP4 ADD MLOAD SWAP1 JUMP JUMPDEST PUSH2 0x2BE1 PUSH2 0x434A PUSH2 0x100 DUP4 ADD MLOAD SWAP1 JUMP JUMPDEST PUSH1 0x7 DUP8 ADD PUSH2 0x2AC4 JUMP JUMPDEST SWAP1 PUSH2 0x517 SWAP2 PUSH2 0x4284 JUMP JUMPDEST SWAP1 PUSH2 0x4367 DUP2 PUSH2 0x5319 JUMP JUMPDEST PUSH2 0x4370 SWAP1 PUSH2 0x229E JUMP JUMPDEST PUSH2 0x437B DUP3 PUSH1 0x1B PUSH2 0x1284 JUMP JUMPDEST PUSH2 0x4384 SWAP1 PUSH2 0x1487 JUMP JUMPDEST SWAP1 PUSH1 0x0 SWAP2 PUSH2 0x4391 DUP4 PUSH2 0x11D5 JUMP JUMPDEST EQ ISZERO PUSH2 0x439C SWAP1 PUSH2 0x401E JUMP JUMPDEST PUSH2 0x43A7 DUP4 PUSH1 0x1B PUSH2 0x1284 JUMP JUMPDEST PUSH2 0x43B0 SWAP1 PUSH2 0x1FC1 JUMP JUMPDEST SWAP2 PUSH2 0x43BC DUP3 PUSH1 0x1A PUSH2 0x1284 JUMP JUMPDEST PUSH2 0x43C5 SWAP1 PUSH2 0x3259 JUMP JUMPDEST PUSH1 0x80 DUP5 ADD MLOAD ISZERO ISZERO PUSH2 0x43D5 SWAP1 PUSH2 0x4062 JUMP JUMPDEST PUSH1 0xA0 DUP5 ADD MLOAD TIMESTAMP LT ISZERO PUSH2 0x43E6 SWAP1 PUSH2 0x40A5 JUMP JUMPDEST PUSH1 0xC0 DUP5 ADD MLOAD TIMESTAMP GT ISZERO PUSH2 0x43F7 SWAP1 PUSH2 0x40F1 JUMP JUMPDEST PUSH1 0xE0 DUP5 ADD MLOAD SWAP1 PUSH1 0x40 DUP2 ADD SWAP2 PUSH2 0x440A DUP4 MLOAD SWAP1 JUMP JUMPDEST PUSH2 0x4414 SWAP1 TIMESTAMP PUSH2 0x413D JUMP JUMPDEST LT ISZERO PUSH2 0x441F SWAP1 PUSH2 0x414A JUMP JUMPDEST DUP6 PUSH2 0x442B DUP6 PUSH1 0x1C PUSH2 0x1284 JUMP JUMPDEST SWAP1 PUSH2 0x4435 SWAP2 PUSH2 0x1284 JUMP JUMPDEST PUSH1 0x5 ADD PUSH2 0x4441 SWAP1 PUSH2 0x149A JUMP JUMPDEST ISZERO PUSH2 0x444B SWAP1 PUSH2 0x4196 JUMP JUMPDEST PUSH1 0x20 ADD MLOAD PUSH2 0x4508 SWAP3 PUSH2 0x44DD SWAP2 PUSH2 0x44D6 SWAP2 SWAP1 PUSH2 0x447B SWAP1 PUSH1 0x1 PUSH1 0x1 PUSH1 0xA0 SHL SUB AND CALLER SWAP1 DUP2 EQ SWAP1 DUP2 ISZERO PUSH2 0x4575 JUMPI JUMPDEST POP PUSH2 0x41E2 JUMP JUMPDEST PUSH2 0x44B7 PUSH2 0x448F PUSH2 0x448A DUP9 PUSH2 0x37BE JUMP JUMPDEST SWAP6 MLOAD SWAP1 JUMP JUMPDEST PUSH2 0x44B0 PUSH2 0x449A PUSH2 0x3A1E JUMP JUMPDEST SWAP7 PUSH2 0x44A5 DUP13 DUP7 DUP11 ADD MSTORE JUMP JUMPDEST PUSH2 0x3B15 DUP11 PUSH1 0x20 DUP11 ADD MSTORE JUMP JUMPDEST PUSH1 0x60 DUP7 ADD MSTORE JUMP JUMPDEST PUSH2 0x44C2 TIMESTAMP PUSH1 0x80 DUP7 ADD MSTORE JUMP JUMPDEST PUSH1 0x1 PUSH1 0xA0 DUP6 ADD MSTORE DUP1 ISZERO ISZERO PUSH1 0xC0 DUP6 ADD MSTORE PUSH2 0x11D5 JUMP JUMPDEST PUSH1 0xE0 DUP4 ADD MSTORE JUMP JUMPDEST PUSH2 0x44E8 PUSH2 0x2DB1 PUSH2 0x35DD JUMP JUMPDEST PUSH2 0x44F4 TIMESTAMP PUSH2 0x120 DUP4 ADD MSTORE JUMP JUMPDEST PUSH2 0x4503 DUP6 PUSH2 0x16C9 DUP6 PUSH1 0x1C PUSH2 0x1284 JUMP JUMPDEST PUSH2 0x4353 JUMP JUMPDEST PUSH32 0x7EF1954A47BCF45F29BBC3B53D86DF999B6F295782796AC65EA2DF0347116935 PUSH2 0x4570 PUSH2 0x455B PUSH2 0x4555 PUSH2 0x454F PUSH2 0x4549 PUSH1 0x40 PUSH2 0x4543 DUP9 PUSH2 0x37BE JUMP JUMPDEST SWAP9 ADD MLOAD SWAP1 JUMP JUMPDEST SWAP8 PUSH2 0x11D5 JUMP JUMPDEST SWAP5 PUSH2 0x11D5 JUMP JUMPDEST SWAP5 PUSH2 0x1C14 JUMP JUMPDEST SWAP5 PUSH2 0x4565 PUSH1 0x40 MLOAD SWAP1 JUMP JUMPDEST SWAP2 DUP3 SWAP2 TIMESTAMP SWAP1 DUP4 PUSH2 0x3522 JUMP JUMPDEST SUB SWAP1 LOG4 JUMP JUMPDEST PUSH2 0x4582 SWAP2 POP PUSH2 0x315E PUSH2 0xE4F JUMP JUMPDEST CODESIZE PUSH2 0x4475 JUMP JUMPDEST SWAP1 PUSH2 0x517 SWAP2 PUSH2 0x3FFF JUMP JUMPDEST SWAP1 PUSH2 0x517 SWAP3 SWAP2 PUSH2 0x45A0 PUSH2 0x5459 JUMP JUMPDEST SWAP3 SWAP2 SWAP3 PUSH2 0x45AD PUSH1 0x0 PUSH2 0x11D5 JUMP JUMPDEST DUP3 DUP2 LT ISZERO PUSH2 0x45E6 JUMPI DUP1 PUSH2 0x45CA PUSH2 0x1DC0 PUSH2 0x1DBB PUSH2 0x45E1 SWAP5 DUP8 DUP8 PUSH2 0x1D2D JUMP JUMPDEST PUSH2 0x1DE9 DUP7 PUSH2 0x45DC PUSH2 0x1DBB DUP5 DUP9 DUP9 PUSH2 0x1D2D JUMP JUMPDEST PUSH2 0x515B JUMP JUMPDEST PUSH2 0x45AD JUMP JUMPDEST POP POP POP SWAP1 POP JUMP JUMPDEST SWAP1 PUSH2 0x517 SWAP3 SWAP2 PUSH2 0x4592 JUMP JUMPDEST PUSH2 0x52D SWAP2 PUSH1 0x0 PUSH2 0x460D PUSH2 0x4613 SWAP4 PUSH2 0x2448 PUSH1 0x0 SWAP1 JUMP JUMPDEST ADD PUSH2 0x2015 JUMP JUMPDEST PUSH2 0x149A JUMP JUMPDEST PUSH2 0x517 SWAP1 PUSH2 0x4627 PUSH2 0x1B83 PUSH2 0xE4F JUMP JUMPDEST PUSH2 0x3595 PUSH32 0x905D981207A7D0B6C62CC46AB0BE2A076D0298E4A86D0AB79882DBD01AC37378 SWAP2 PUSH2 0x67D DUP2 PUSH1 0x11 PUSH2 0x2AC4 JUMP JUMPDEST PUSH2 0x517 SWAP1 PUSH2 0x4618 JUMP JUMPDEST PUSH2 0x52D PUSH1 0x3 PUSH2 0x1CA4 JUMP JUMPDEST PUSH32 0x17307EAB39AB6107E8899845AD3D59BD9653F200F220920489CA2B5937696C31 PUSH2 0x2DFA PUSH2 0x46B2 PUSH2 0x3FC1 CALLER PUSH2 0x1C6F DUP8 PUSH2 0x46AD DUP9 PUSH2 0x46A8 DUP6 PUSH1 0x7 PUSH2 0x2015 JUMP JUMPDEST PUSH2 0x2015 JUMP JUMPDEST PUSH2 0x2AD7 JUMP JUMPDEST SWAP4 PUSH2 0x553 PUSH1 0x40 MLOAD SWAP1 JUMP JUMPDEST PUSH2 0x52D SWAP2 PUSH2 0x16C9 PUSH2 0x46D7 SWAP3 PUSH2 0x46CF PUSH2 0x3A68 JUMP JUMPDEST POP PUSH1 0x1C PUSH2 0x1284 JUMP JUMPDEST PUSH2 0x3B99 JUMP JUMPDEST SWAP1 PUSH2 0x517 SWAP3 SWAP2 PUSH2 0x46ED PUSH2 0x1B83 PUSH2 0xE4F JUMP JUMPDEST PUSH2 0x4753 JUMP JUMPDEST ISZERO PUSH2 0x46F9 JUMPI JUMP JUMPDEST PUSH1 0x40 MLOAD PUSH3 0x461BCD PUSH1 0xE5 SHL DUP2 MSTORE PUSH1 0x20 PUSH1 0x4 DUP3 ADD MSTORE PUSH1 0x15 PUSH1 0x24 DUP3 ADD MSTORE PUSH21 0x14995DD85C99081A5CC81B9BDD0818DB185A5B5959 PUSH1 0x5A SHL PUSH1 0x44 DUP3 ADD MSTORE PUSH1 0x64 SWAP1 REVERT JUMPDEST SWAP3 SWAP2 PUSH1 0x20 PUSH2 0x1B12 PUSH2 0x517 SWAP4 PUSH1 0x40 DUP8 ADD SWAP1 DUP8 DUP3 SUB PUSH1 0x0 DUP10 ADD MSTORE PUSH2 0x619 JUMP JUMPDEST SWAP1 PUSH2 0x4760 PUSH2 0x237F DUP3 PUSH2 0x5319 JUMP JUMPDEST PUSH2 0x477C PUSH2 0x4777 PUSH1 0x5 PUSH2 0x324A DUP6 PUSH2 0x16C9 DUP7 PUSH1 0x1C PUSH2 0x1284 JUMP JUMPDEST PUSH2 0x46F2 JUMP JUMPDEST PUSH32 0x7DE9B19A9A16075E228395248AD5311FFAB7748C0525BD16AB44912A968161C3 PUSH2 0x4570 PUSH2 0x47ED PUSH2 0x4555 PUSH2 0x454F PUSH2 0x47E7 PUSH1 0x40 PUSH2 0x47C0 PUSH2 0x46D7 DUP11 PUSH2 0x16C9 DUP12 PUSH1 0x1C PUSH2 0x1284 JUMP JUMPDEST PUSH1 0x1 PUSH1 0xC0 DUP3 ADD MSTORE PUSH2 0x47D2 TIMESTAMP PUSH1 0xE0 DUP4 ADD MSTORE JUMP JUMPDEST DUP11 PUSH2 0x100 DUP3 ADD MSTORE ADD MLOAD PUSH1 0x1 PUSH1 0x1 PUSH1 0xA0 SHL SUB AND SWAP1 JUMP JUMPDEST SWAP7 PUSH2 0x11D5 JUMP JUMPDEST SWAP5 PUSH2 0x47F7 PUSH1 0x40 MLOAD SWAP1 JUMP JUMPDEST SWAP2 DUP3 SWAP2 TIMESTAMP SWAP1 DUP4 PUSH2 0x4736 JUMP JUMPDEST SWAP1 PUSH2 0x517 SWAP3 SWAP2 PUSH2 0x46DC JUMP JUMPDEST SWAP1 PUSH2 0x517 SWAP2 PUSH2 0x481D PUSH2 0x1B83 PUSH2 0xE4F JUMP JUMPDEST SWAP2 SWAP1 SWAP2 PUSH2 0x482A PUSH1 0x0 PUSH2 0x11D5 JUMP JUMPDEST DUP4 DUP2 LT ISZERO PUSH2 0x1DF4 JUMPI DUP1 PUSH2 0x4847 PUSH2 0x1DC0 PUSH2 0x1DBB PUSH2 0x486C SWAP5 DUP9 DUP8 PUSH2 0x1D2D JUMP JUMPDEST PUSH2 0x485B PUSH2 0x2390 PUSH2 0x9D6 PUSH2 0x1DBB DUP5 DUP10 DUP9 PUSH2 0x1D2D JUMP JUMPDEST PUSH2 0x1DE9 PUSH2 0x1820 PUSH2 0x1DBB DUP4 DUP9 DUP8 PUSH2 0x1D2D JUMP JUMPDEST PUSH2 0x482A JUMP JUMPDEST SWAP1 PUSH2 0x517 SWAP2 PUSH2 0x480D JUMP JUMPDEST PUSH2 0x4883 PUSH2 0x31C7 JUMP JUMPDEST SWAP1 PUSH1 0x0 DUP3 MSTORE PUSH1 0x20 DUP1 DUP1 DUP1 DUP1 DUP1 DUP8 ADD PUSH1 0x0 DUP2 MSTORE ADD PUSH1 0x0 DUP2 MSTORE ADD PUSH1 0x0 DUP2 MSTORE ADD PUSH1 0x0 PUSH2 0x1EB5 JUMP JUMPDEST PUSH2 0x52D PUSH2 0x487B JUMP JUMPDEST PUSH2 0x3350 PUSH2 0x52D SWAP2 PUSH2 0x48BE PUSH2 0x48A7 JUMP JUMPDEST POP PUSH1 0x1A PUSH2 0x1284 JUMP JUMPDEST SWAP2 SWAP3 SWAP1 SWAP3 PUSH2 0x48D5 DUP2 DUP6 DUP6 PUSH2 0x2057 JUMP JUMPDEST DUP4 EXTCODESIZE PUSH2 0x48E4 PUSH2 0x1DCE PUSH1 0x0 PUSH2 0x11D5 JUMP JUMPDEST SUB PUSH2 0x48F0 JUMPI JUMPDEST POP POP POP POP JUMP JUMPDEST PUSH2 0x48FD SWAP4 PUSH2 0x1CC3 SWAP4 PUSH2 0x5EDE JUMP JUMPDEST PUSH2 0x490A JUMPI CODESIZE DUP1 DUP1 DUP1 PUSH2 0x48EA JUMP JUMPDEST PUSH4 0x68D2BF6B PUSH1 0xE1 SHL PUSH2 0x539D JUMP JUMPDEST SWAP2 PUSH2 0x3F46 PUSH2 0x493D SWAP3 PUSH2 0x3F3A SWAP5 PUSH2 0x492B PUSH1 0x0 SWAP1 JUMP JUMPDEST POP PUSH2 0x3F3A PUSH2 0x3EB5 PUSH2 0x2208 DUP4 PUSH1 0x15 PUSH2 0x2015 JUMP JUMPDEST PUSH2 0x4948 PUSH2 0x3F51 DUP3 MLOAD SWAP1 JUMP JUMPDEST KECCAK256 SWAP1 JUMP JUMPDEST PUSH2 0x517 SWAP1 PUSH2 0x495B PUSH2 0x1B83 PUSH2 0xE4F JUMP JUMPDEST PUSH2 0x49C0 JUMP JUMPDEST ISZERO PUSH2 0x4967 JUMPI JUMP JUMPDEST PUSH1 0x40 MLOAD PUSH3 0x461BCD PUSH1 0xE5 SHL DUP2 MSTORE PUSH1 0x20 PUSH1 0x4 DUP3 ADD MSTORE PUSH1 0x2B PUSH1 0x24 DUP3 ADD MSTORE PUSH32 0x4F6E6C7920746865207374616B65722063616E20666F72636520756E7374616B PUSH1 0x44 DUP3 ADD MSTORE PUSH11 0x32903A3432903A37B5B2B7 PUSH1 0xA9 SHL PUSH1 0x64 DUP3 ADD MSTORE PUSH1 0x84 SWAP1 REVERT JUMPDEST PUSH2 0x49CC PUSH2 0x237F DUP3 PUSH2 0x5319 JUMP JUMPDEST PUSH2 0x33C6 PUSH2 0x33C0 PUSH2 0x2D0C PUSH1 0x20 PUSH1 0x1A PUSH2 0x49EB PUSH2 0x3333 PUSH1 0x5 PUSH2 0x324A DUP10 DUP6 PUSH2 0x1284 JUMP JUMPDEST PUSH2 0x33A9 PUSH1 0x0 PUSH1 0x5 PUSH2 0x33A3 DUP10 PUSH2 0x4A03 PUSH2 0x3350 DUP3 DUP9 PUSH2 0x1284 JUMP JUMPDEST SWAP6 PUSH2 0x4A0C PUSH2 0xE4F JUMP JUMPDEST PUSH2 0x4A18 PUSH2 0x1CC3 CALLER PUSH2 0x3366 JUMP JUMPDEST PUSH2 0x4A2A JUMPI POP PUSH2 0x16C9 PUSH2 0x3399 DUP4 DUP4 PUSH2 0x1284 JUMP JUMPDEST PUSH2 0x3414 SWAP1 PUSH2 0x4A47 PUSH2 0x20AB PUSH2 0x3437 DUP13 DUP13 ADD MLOAD PUSH1 0x1 PUSH1 0x1 PUSH1 0xA0 SHL SUB AND SWAP1 JUMP JUMPDEST EQ PUSH2 0x4960 JUMP JUMPDEST PUSH2 0x517 SWAP1 PUSH2 0x494C JUMP JUMPDEST SWAP1 PUSH2 0x517 SWAP2 PUSH2 0x4A66 PUSH2 0x1B83 PUSH2 0xE4F JUMP JUMPDEST PUSH2 0x4B0D JUMP JUMPDEST ISZERO PUSH2 0x4A72 JUMPI JUMP JUMPDEST PUSH1 0x40 MLOAD PUSH3 0x461BCD PUSH1 0xE5 SHL DUP2 MSTORE PUSH1 0x20 PUSH1 0x4 DUP3 ADD MSTORE PUSH1 0x17 PUSH1 0x24 DUP3 ADD MSTORE PUSH32 0x546F6B656E20697320616C7265616479206C6F636B6564000000000000000000 PUSH1 0x44 DUP3 ADD MSTORE PUSH1 0x64 SWAP1 REVERT JUMPDEST ISZERO PUSH2 0x4ABE JUMPI JUMP JUMPDEST PUSH1 0x40 MLOAD PUSH3 0x461BCD PUSH1 0xE5 SHL DUP2 MSTORE PUSH1 0x20 PUSH1 0x4 DUP3 ADD MSTORE PUSH1 0x21 PUSH1 0x24 DUP3 ADD MSTORE PUSH32 0x556E6C6F636B2074696D65206D75737420626520696E20746865206675747572 PUSH1 0x44 DUP3 ADD MSTORE PUSH1 0x65 PUSH1 0xF8 SHL PUSH1 0x64 DUP3 ADD MSTORE PUSH1 0x84 SWAP1 REVERT JUMPDEST PUSH2 0x1C95 PUSH2 0x4B9B PUSH32 0xF25FD82F8BF40DF41B90B95A0159C55596F50B182D7B7DFF1D3E04A5A16AC7C4 SWAP3 PUSH2 0x4B41 PUSH2 0x237F DUP3 PUSH2 0x5319 JUMP JUMPDEST PUSH2 0x4B55 PUSH2 0x4B50 PUSH2 0x1CC3 DUP4 PUSH2 0x253E JUMP JUMPDEST PUSH2 0x4A6B JUMP JUMPDEST PUSH2 0x4B5F PUSH1 0x0 PUSH2 0x11D5 JUMP JUMPDEST DUP6 SUB PUSH2 0x4BAF JUMPI JUMPDEST PUSH2 0x4B74 PUSH2 0x23C4 DUP3 PUSH1 0x17 PUSH2 0x1284 JUMP JUMPDEST PUSH2 0x4B83 DUP6 PUSH2 0x2190 DUP4 PUSH1 0x18 PUSH2 0x1284 JUMP JUMPDEST PUSH2 0x23CB PUSH2 0x4B90 PUSH1 0x0 PUSH2 0x11D5 JUMP JUMPDEST PUSH2 0x2190 DUP4 PUSH1 0x19 PUSH2 0x1284 JUMP JUMPDEST SWAP3 PUSH2 0x4BA5 PUSH1 0x40 MLOAD SWAP1 JUMP JUMPDEST SWAP2 DUP3 SWAP2 TIMESTAMP DUP4 PUSH2 0x3522 JUMP JUMPDEST PUSH2 0x4BBA TIMESTAMP DUP7 GT PUSH2 0x4AB7 JUMP JUMPDEST PUSH2 0x4B66 JUMP JUMPDEST SWAP1 PUSH2 0x517 SWAP2 PUSH2 0x4A56 JUMP JUMPDEST PUSH2 0x4BD7 SWAP1 PUSH2 0x52D SWAP4 SWAP3 PUSH2 0x2BF7 JUMP JUMPDEST SWAP1 PUSH2 0x2BF7 JUMP JUMPDEST PUSH2 0x4BE9 PUSH2 0x237F DUP3 PUSH2 0x5319 JUMP JUMPDEST PUSH2 0x4BF1 PUSH2 0x5FAB JUMP JUMPDEST DUP1 MLOAD PUSH2 0x4C00 PUSH2 0x1DCE PUSH1 0x0 PUSH2 0x11D5 JUMP JUMPDEST GT ISZERO PUSH2 0x4C31 JUMPI PUSH2 0x52D PUSH2 0x3F3A SWAP2 PUSH2 0x4C19 PUSH2 0x52D SWAP5 PUSH2 0x5FDD JUMP JUMPDEST SWAP1 PUSH2 0x4C23 PUSH1 0x40 MLOAD SWAP1 JUMP JUMPDEST SWAP4 DUP5 SWAP3 PUSH1 0x20 DUP5 ADD SWAP3 DUP4 PUSH2 0x4BC9 JUMP JUMPDEST POP POP PUSH2 0x52D PUSH2 0x35DD JUMP JUMPDEST PUSH2 0x517 SWAP1 PUSH2 0x4C4A PUSH2 0x1B83 PUSH2 0xE4F JUMP JUMPDEST PUSH2 0x23D0 SWAP1 PUSH2 0x4C5A PUSH2 0x237F DUP3 PUSH2 0x5319 JUMP JUMPDEST PUSH2 0x23B6 PUSH2 0x2390 DUP3 PUSH2 0x253E JUMP JUMPDEST PUSH2 0x517 SWAP1 PUSH2 0x4C3B JUMP JUMPDEST SWAP1 PUSH2 0x517 SWAP2 PUSH2 0x4C80 PUSH2 0x1B83 DUP3 PUSH2 0x2437 JUMP JUMPDEST SWAP1 PUSH2 0x3474 SWAP2 PUSH2 0x59B3 JUMP JUMPDEST SWAP1 PUSH2 0x517 SWAP2 PUSH2 0x4C6F JUMP JUMPDEST PUSH1 0x0 JUMPDEST DUP3 DUP2 LT PUSH2 0x4CA3 JUMPI POP POP POP JUMP JUMPDEST PUSH1 0x20 SWAP1 PUSH2 0x4CAE PUSH2 0x48A7 JUMP JUMPDEST DUP2 DUP5 ADD MSTORE ADD PUSH2 0x4C97 JUMP JUMPDEST SWAP1 PUSH2 0x517 PUSH2 0x4CC8 PUSH2 0x3AA4 DUP5 PUSH2 0x3A11 JUMP JUMPDEST PUSH1 0x1F NOT ADD PUSH1 0x20 DUP5 ADD PUSH2 0x4C94 JUMP JUMPDEST SWAP2 SWAP1 DUP1 SWAP3 PUSH2 0x4CE2 DUP5 PUSH2 0x4CB8 JUMP JUMPDEST SWAP3 PUSH2 0x4CED PUSH1 0x0 PUSH2 0x11D5 JUMP JUMPDEST DUP6 JUMPDEST DUP2 LT ISZERO PUSH2 0x4D42 JUMPI PUSH2 0x4D3B DUP2 PUSH2 0x4D0E PUSH2 0x1DC0 PUSH2 0x1DBB PUSH2 0x4CEF SWAP6 DUP10 DUP10 PUSH2 0x1D2D JUMP JUMPDEST PUSH2 0x4D1F PUSH2 0x13BC PUSH2 0x1DBB DUP4 DUP10 DUP10 PUSH2 0x1D2D JUMP JUMPDEST PUSH2 0x4D29 DUP3 DUP10 PUSH2 0x3AB7 JUMP JUMPDEST MSTORE PUSH2 0x4D34 DUP2 DUP9 PUSH2 0x3AB7 JUMP JUMPDEST POP PUSH1 0x1 ADD SWAP1 JUMP JUMPDEST SWAP1 POP PUSH2 0x4CED JUMP JUMPDEST POP SWAP4 POP POP POP SWAP1 JUMP JUMPDEST PUSH2 0x52D SWAP2 PUSH2 0x46A8 PUSH2 0x4613 SWAP3 PUSH2 0x4D5D PUSH1 0x0 SWAP1 JUMP JUMPDEST POP PUSH1 0x7 PUSH2 0x2015 JUMP JUMPDEST PUSH2 0x517 SWAP1 PUSH2 0x4D74 PUSH2 0x1B83 PUSH2 0xE4F JUMP JUMPDEST PUSH2 0x4DA2 SWAP1 PUSH2 0x4D90 PUSH2 0x4D8B PUSH1 0x4 PUSH2 0x324A DUP5 PUSH1 0x1B PUSH2 0x1284 JUMP JUMPDEST PUSH2 0x4062 JUMP JUMPDEST PUSH2 0x23CB PUSH1 0x0 PUSH1 0x4 PUSH2 0x33A3 DUP5 PUSH1 0x1B PUSH2 0x1284 JUMP JUMPDEST PUSH32 0x385EED96CA33F0DA03D900751711FF4392ADF11BE79222F4AA99F92E71A1DA4F PUSH2 0x3896 PUSH1 0x40 MLOAD SWAP1 JUMP JUMPDEST PUSH2 0x517 SWAP1 PUSH2 0x4D65 JUMP JUMPDEST PUSH2 0x52D PUSH1 0xE PUSH2 0x1487 JUMP JUMPDEST PUSH2 0x517 SWAP1 PUSH2 0x4DEE PUSH2 0x1B83 PUSH2 0xE4F JUMP JUMPDEST PUSH2 0x4E03 SWAP1 PUSH2 0x1C6F DUP2 PUSH2 0x4DFE PUSH2 0xE4F JUMP JUMPDEST PUSH2 0x4C8A JUMP JUMPDEST PUSH32 0x4A84A984790B90CDC99ACB8CF998C3F36E0EFEFD6A3F5B47DCAF480F6A1862C2 PUSH2 0x3896 PUSH1 0x40 MLOAD SWAP1 JUMP JUMPDEST PUSH2 0x517 SWAP1 PUSH2 0x4DDF JUMP JUMPDEST PUSH2 0x517 SWAP1 PUSH2 0x4E42 PUSH2 0x5BCF JUMP JUMPDEST PUSH1 0x0 PUSH2 0x4E4D DUP2 PUSH2 0x25FA JUMP JUMPDEST PUSH1 0x1 PUSH1 0x1 PUSH1 0xA0 SHL SUB DUP2 AND PUSH1 0x1 PUSH1 0x1 PUSH1 0xA0 SHL SUB DUP5 AND EQ PUSH2 0x4E71 JUMPI POP POP PUSH2 0x517 SWAP1 PUSH2 0x5C10 JUMP JUMPDEST PUSH4 0x1E4FBDF7 PUSH1 0xE0 SHL DUP3 MSTORE PUSH1 0x1 PUSH1 0x1 PUSH1 0xA0 SHL SUB AND PUSH1 0x4 DUP3 ADD MSTORE PUSH1 0x24 SWAP1 REVERT JUMPDEST PUSH2 0x517 SWAP1 PUSH2 0x4E36 JUMP JUMPDEST SWAP1 PUSH2 0x517 SWAP2 PUSH2 0x4EA4 PUSH2 0x5459 JUMP JUMPDEST PUSH2 0x501F JUMP JUMPDEST ISZERO PUSH2 0x4EB0 JUMPI JUMP JUMPDEST PUSH1 0x40 MLOAD PUSH3 0x461BCD PUSH1 0xE5 SHL DUP2 MSTORE PUSH1 0x20 PUSH1 0x4 DUP3 ADD MSTORE PUSH1 0x17 PUSH1 0x24 DUP3 ADD MSTORE PUSH32 0x546F6B656E20697320616C7265616479207374616B6564000000000000000000 PUSH1 0x44 DUP3 ADD MSTORE PUSH1 0x64 SWAP1 REVERT JUMPDEST ISZERO PUSH2 0x4EFC JUMPI JUMP JUMPDEST PUSH1 0x40 MLOAD PUSH3 0x461BCD PUSH1 0xE5 SHL DUP2 MSTORE PUSH1 0x20 PUSH1 0x4 DUP3 ADD MSTORE PUSH1 0x23 PUSH1 0x24 DUP3 ADD MSTORE PUSH32 0x4F6E6C7920746865207374616B65722063616E207374616B652074686520746F PUSH1 0x44 DUP3 ADD MSTORE PUSH3 0x35B2B7 PUSH1 0xE9 SHL PUSH1 0x64 DUP3 ADD MSTORE PUSH1 0x84 SWAP1 REVERT JUMPDEST ISZERO PUSH2 0x4F54 JUMPI JUMP JUMPDEST PUSH1 0x40 MLOAD PUSH3 0x461BCD PUSH1 0xE5 SHL DUP2 MSTORE PUSH1 0x20 PUSH1 0x4 DUP3 ADD MSTORE PUSH1 0x22 PUSH1 0x24 DUP3 ADD MSTORE PUSH32 0x556E7374616B652074696D65206D75737420626520696E207468652066757475 PUSH1 0x44 DUP3 ADD MSTORE PUSH2 0x7265 PUSH1 0xF0 SHL PUSH1 0x64 DUP3 ADD MSTORE PUSH1 0x84 SWAP1 REVERT JUMPDEST PUSH1 0x5 PUSH2 0x500E PUSH1 0xA0 PUSH2 0x517 SWAP5 PUSH2 0x4FBD PUSH2 0x2B08 PUSH1 0x0 DUP4 ADD MLOAD SWAP1 JUMP JUMPDEST PUSH2 0x4FDD PUSH2 0x4FD4 PUSH1 0x20 DUP4 ADD MLOAD PUSH1 0x1 PUSH1 0x1 PUSH1 0xA0 SHL SUB AND SWAP1 JUMP JUMPDEST PUSH1 0x1 DUP8 ADD PUSH2 0x4249 JUMP JUMPDEST PUSH2 0x4FEB PUSH2 0x2B33 PUSH1 0x40 DUP4 ADD MLOAD SWAP1 JUMP JUMPDEST PUSH2 0x4FF9 PUSH2 0x42E3 PUSH1 0x60 DUP4 ADD MLOAD SWAP1 JUMP JUMPDEST PUSH2 0x5007 PUSH2 0x42FA PUSH1 0x80 DUP4 ADD MLOAD SWAP1 JUMP JUMPDEST ADD MLOAD ISZERO ISZERO SWAP1 JUMP JUMPDEST SWAP2 ADD PUSH2 0x2AD7 JUMP JUMPDEST SWAP1 PUSH2 0x517 SWAP2 PUSH2 0x4FA4 JUMP JUMPDEST PUSH2 0x502B PUSH2 0x237F DUP3 PUSH2 0x5319 JUMP JUMPDEST PUSH2 0x5046 PUSH2 0x5041 PUSH2 0x1CC3 PUSH1 0x5 PUSH2 0x324A DUP6 PUSH1 0x1A PUSH2 0x1284 JUMP JUMPDEST PUSH2 0x4EA9 JUMP JUMPDEST PUSH2 0x5055 PUSH2 0x3E92 PUSH2 0x1CC3 DUP4 PUSH2 0x253E JUMP JUMPDEST PUSH2 0x505D PUSH2 0xE4F JUMP JUMPDEST PUSH2 0x5069 PUSH2 0x1CC3 CALLER PUSH2 0x3366 JUMP JUMPDEST PUSH2 0x513C JUMPI JUMPDEST POP PUSH32 0x30441850B15FD31A9413CD27711113D1430F46DD517499B60A5D8365FA375BF0 PUSH2 0x2DFA PUSH2 0x5122 PUSH2 0x3FC1 PUSH2 0x50A2 DUP6 PUSH2 0x37BE JUMP JUMPDEST SWAP5 PUSH2 0x50AD PUSH1 0x0 PUSH2 0x11D5 JUMP JUMPDEST DUP8 SUB PUSH2 0x512C JUMPI JUMPDEST PUSH2 0x23CB PUSH2 0x50BF PUSH2 0x31C7 JUMP JUMPDEST PUSH2 0x50C7 DUP4 DUP3 MSTORE JUMP JUMPDEST PUSH1 0x1 PUSH1 0x1 PUSH1 0xA0 SHL SUB DUP9 AND PUSH1 0x20 DUP3 ADD MSTORE PUSH2 0x50E1 TIMESTAMP PUSH1 0x40 DUP4 ADD MSTORE JUMP JUMPDEST PUSH2 0x50EC DUP10 PUSH1 0x60 DUP4 ADD MSTORE JUMP JUMPDEST PUSH2 0x511C PUSH2 0x50F9 PUSH1 0x0 PUSH2 0x11D5 JUMP JUMPDEST SWAP2 PUSH2 0x5105 DUP4 PUSH1 0x80 DUP4 ADD MSTORE JUMP JUMPDEST PUSH1 0x1 PUSH1 0xA0 DUP3 ADD MSTORE PUSH2 0x5117 DUP6 PUSH1 0x1A PUSH2 0x1284 JUMP JUMPDEST PUSH2 0x5015 JUMP JUMPDEST DUP3 PUSH2 0x4BBF JUMP JUMPDEST SWAP4 PUSH2 0x4BA5 PUSH1 0x40 MLOAD SWAP1 JUMP JUMPDEST PUSH2 0x5137 TIMESTAMP DUP9 GT PUSH2 0x4F4D JUMP JUMPDEST PUSH2 0x50B4 JUMP JUMPDEST PUSH2 0x5155 SWAP1 PUSH2 0x514F PUSH2 0x20AB PUSH2 0x3437 DUP6 PUSH2 0x37BE JUMP JUMPDEST EQ PUSH2 0x4EF5 JUMP JUMPDEST CODESIZE PUSH2 0x506E JUMP JUMPDEST SWAP1 PUSH2 0x517 SWAP2 PUSH2 0x4E97 JUMP JUMPDEST PUSH4 0x152A902D PUSH1 0xE1 SHL PUSH1 0x1 PUSH1 0x1 PUSH1 0xE0 SHL SUB NOT DUP3 AND EQ SWAP1 DUP2 ISZERO PUSH2 0x5184 JUMPI POP SWAP1 JUMP JUMPDEST PUSH2 0x52D SWAP2 POP PUSH2 0x606A JUMP JUMPDEST PUSH2 0x517 SWAP1 CALLER SWAP1 PUSH2 0x6093 JUMP JUMPDEST PUSH2 0x530 SWAP1 PUSH2 0x2603 JUMP JUMPDEST SWAP2 PUSH1 0x20 PUSH2 0x517 SWAP3 SWAP5 SWAP4 PUSH2 0xA14 PUSH1 0x40 DUP3 ADD SWAP7 PUSH1 0x0 DUP4 ADD SWAP1 PUSH2 0x5199 JUMP JUMPDEST PUSH2 0x52D PUSH1 0x40 PUSH2 0xA83 JUMP JUMPDEST SWAP1 PUSH1 0x1 PUSH1 0x1 PUSH1 0xA0 SHL SUB NOT SWAP1 PUSH1 0xA0 SHL PUSH2 0x2025 JUMP JUMPDEST PUSH2 0x1B9A PUSH2 0x52D PUSH2 0x52D SWAP3 PUSH1 0x1 PUSH1 0x1 PUSH1 0x60 SHL SUB AND SWAP1 JUMP JUMPDEST SWAP1 PUSH2 0x5200 PUSH2 0x52D PUSH2 0x2046 SWAP3 PUSH2 0x51DA JUMP JUMPDEST DUP3 SLOAD PUSH2 0x51C7 JUMP JUMPDEST PUSH2 0x517 SWAP2 PUSH2 0x523A SWAP1 PUSH1 0x20 SWAP1 PUSH2 0x522C PUSH2 0x5226 DUP3 MLOAD PUSH1 0x1 PUSH1 0x1 PUSH1 0xA0 SHL SUB AND SWAP1 JUMP JUMPDEST DUP6 PUSH2 0x4249 JUMP JUMPDEST ADD MLOAD PUSH1 0x1 PUSH1 0x1 PUSH1 0x60 SHL SUB AND SWAP1 JUMP JUMPDEST SWAP1 PUSH2 0x51F0 JUMP JUMPDEST SWAP1 PUSH2 0x517 SWAP2 PUSH2 0x5207 JUMP JUMPDEST SWAP1 PUSH2 0x5256 PUSH2 0x26DD PUSH2 0x5765 JUMP JUMPDEST DUP1 PUSH2 0x5260 DUP4 PUSH2 0x2603 JUMP JUMPDEST GT PUSH2 0x52E5 JUMPI POP PUSH1 0x0 SWAP2 PUSH2 0x5272 DUP4 PUSH2 0x25FA JUMP JUMPDEST PUSH1 0x1 PUSH1 0x1 PUSH1 0xA0 SHL SUB DUP2 AND PUSH1 0x1 PUSH1 0x1 PUSH1 0xA0 SHL SUB DUP4 AND EQ PUSH2 0x52C8 JUMPI POP PUSH2 0x517 SWAP3 SWAP2 PUSH2 0x52B1 PUSH2 0x52C1 SWAP3 PUSH2 0x52A0 PUSH2 0x51BD JUMP JUMPDEST SWAP5 DUP6 ADD SWAP1 PUSH1 0x1 PUSH1 0x1 PUSH1 0xA0 SHL SUB AND SWAP1 MSTORE JUMP JUMPDEST PUSH1 0x1 PUSH1 0x1 PUSH1 0x60 SHL SUB AND PUSH1 0x20 DUP4 ADD MSTORE JUMP JUMPDEST PUSH1 0xC PUSH2 0x5240 JUMP JUMPDEST PUSH4 0x5B6CC805 PUSH1 0xE1 SHL DUP5 MSTORE PUSH1 0x1 PUSH1 0x1 PUSH1 0xA0 SHL SUB AND PUSH1 0x4 DUP5 ADD MSTORE PUSH1 0x24 DUP4 REVERT JUMPDEST PUSH4 0x6F483D09 PUSH1 0xE0 SHL PUSH1 0x0 SWAP1 DUP2 MSTORE SWAP2 PUSH2 0x34B3 SWAP2 SWAP1 PUSH1 0x4 PUSH2 0x51A2 JUMP JUMPDEST DUP1 ISZERO PUSH2 0x2642 JUMPI PUSH1 0x0 NOT ADD SWAP1 JUMP JUMPDEST PUSH2 0x52D PUSH1 0x1 PUSH1 0xE0 SHL PUSH2 0x11D5 JUMP JUMPDEST SWAP1 PUSH1 0x0 SWAP2 DUP3 PUSH2 0x5326 PUSH2 0x11E2 JUMP JUMPDEST DUP3 LT ISZERO PUSH2 0x5331 JUMPI POP POP JUMP JUMPDEST PUSH2 0x533E PUSH2 0x52D PUSH1 0x0 PUSH2 0x1487 JUMP JUMPDEST DUP3 LT PUSH2 0x5348 JUMPI POP POP JUMP JUMPDEST POP SWAP1 SWAP2 POP JUMPDEST PUSH2 0x535B PUSH2 0x2208 DUP3 PUSH1 0x4 PUSH2 0x1284 JUMP JUMPDEST SWAP1 DUP2 PUSH2 0x536A PUSH2 0x1DCE PUSH1 0x0 PUSH2 0x11D5 JUMP JUMPDEST SUB PUSH2 0x537E JUMPI PUSH2 0x5379 SWAP2 POP PUSH2 0x52FF JUMP JUMPDEST PUSH2 0x534D JUMP JUMPDEST POP PUSH2 0x5399 PUSH2 0x538A PUSH2 0x530C JUMP JUMPDEST PUSH2 0x5394 PUSH1 0x0 PUSH2 0x11D5 JUMP JUMPDEST SWAP3 AND SWAP1 JUMP JUMPDEST EQ SWAP1 JUMP JUMPDEST PUSH1 0x0 MSTORE PUSH1 0x4 PUSH1 0x0 REVERT JUMPDEST SWAP2 PUSH2 0x53B0 DUP3 PUSH2 0x37BE JUMP JUMPDEST SWAP1 DUP1 PUSH2 0x5434 JUMPI JUMPDEST PUSH2 0x5415 JUMPI JUMPDEST PUSH2 0x53DD PUSH2 0x3FC1 PUSH2 0x53E3 SWAP3 PUSH2 0x1C6F DUP7 PUSH1 0x0 PUSH2 0x53D7 DUP9 PUSH1 0x6 PUSH2 0x1284 JUMP JUMPDEST ADD PUSH2 0x4249 JUMP JUMPDEST SWAP2 PUSH2 0x11D5 JUMP JUMPDEST SWAP2 PUSH32 0x8C5BE1E5EBEC7D5BD14F71427D1E84F3DD0314C0F7B2291E5B200AC8C7C3B925 PUSH2 0x540E PUSH1 0x40 MLOAD SWAP1 JUMP JUMPDEST DUP1 DUP1 PUSH2 0x4570 JUMP JUMPDEST PUSH2 0x5422 PUSH2 0x1CC3 CALLER DUP4 PUSH2 0x4D4A JUMP JUMPDEST ISZERO PUSH2 0x53BC JUMPI PUSH4 0x67D9DCA1 PUSH1 0xE1 SHL PUSH2 0x539D JUMP JUMPDEST POP CALLER PUSH2 0x5448 PUSH1 0x1 PUSH1 0x1 PUSH1 0xA0 SHL SUB DUP4 AND PUSH2 0x20AB JUMP JUMPDEST EQ ISZERO PUSH2 0x53B7 JUMP JUMPDEST PUSH2 0x52D PUSH1 0x0 PUSH2 0x1487 JUMP JUMPDEST PUSH2 0x5461 PUSH2 0x37B4 JUMP JUMPDEST PUSH2 0x5467 JUMPI JUMP JUMPDEST PUSH4 0xD93C0665 PUSH1 0xE0 SHL PUSH1 0x0 SWAP1 DUP2 MSTORE PUSH1 0x4 SWAP1 REVERT JUMPDEST PUSH2 0x52D PUSH2 0x5486 PUSH1 0x0 PUSH2 0x1487 JUMP JUMPDEST PUSH2 0x548E PUSH2 0x11E2 JUMP JUMPDEST SWAP1 SUB SWAP1 JUMP JUMPDEST PUSH2 0x549B PUSH2 0x11E2 JUMP JUMPDEST DUP2 LT ISZERO PUSH2 0x54B0 JUMPI JUMPDEST PUSH4 0x6F96CDA1 PUSH1 0xE1 SHL PUSH2 0x539D JUMP JUMPDEST PUSH1 0x4 SWAP1 PUSH2 0x54C1 PUSH2 0x2208 DUP3 PUSH1 0x4 PUSH2 0x1284 JUMP JUMPDEST SWAP2 PUSH1 0x0 SWAP2 PUSH2 0x54CE DUP4 PUSH2 0x11D5 JUMP JUMPDEST DUP5 EQ PUSH2 0x54F2 JUMPI POP POP PUSH2 0x54EA PUSH2 0x54E4 PUSH2 0x2D0C PUSH2 0x530C JUMP JUMPDEST SWAP2 DUP4 AND SWAP1 JUMP JUMPDEST SUB PUSH2 0x54A3 JUMPI SWAP1 JUMP JUMPDEST SWAP1 SWAP2 SWAP3 POP PUSH2 0x5502 PUSH2 0x52D DUP5 PUSH2 0x1487 JUMP JUMPDEST DUP2 LT ISZERO PUSH2 0x54A3 JUMPI SWAP1 SWAP2 SWAP1 PUSH1 0x0 NOT ADD JUMPDEST SWAP2 PUSH2 0x551F PUSH2 0x2208 DUP5 DUP4 PUSH2 0x1284 JUMP JUMPDEST SWAP3 PUSH2 0x5529 DUP4 PUSH2 0x11D5 JUMP JUMPDEST DUP5 EQ PUSH2 0x5551 JUMPI POP POP PUSH2 0x553F PUSH2 0x54E4 PUSH2 0x2D0C PUSH2 0x530C JUMP JUMPDEST EQ PUSH2 0x52D JUMPI PUSH4 0x6F96CDA1 PUSH1 0xE1 SHL PUSH2 0x539D JUMP JUMPDEST SWAP1 SWAP3 POP PUSH1 0x0 NOT ADD PUSH2 0x5511 JUMP JUMPDEST PUSH2 0x52D PUSH2 0x5574 SWAP2 PUSH2 0x556C PUSH1 0x0 SWAP1 JUMP JUMPDEST POP PUSH1 0x6 PUSH2 0x1284 JUMP JUMPDEST SWAP1 DUP2 SLOAD SWAP1 JUMP JUMPDEST SWAP1 PUSH2 0x517 SWAP4 SWAP3 SWAP2 PUSH2 0x5589 PUSH2 0x5459 JUMP JUMPDEST PUSH2 0x55EC JUMP JUMPDEST ISZERO PUSH2 0x5595 JUMPI JUMP JUMPDEST PUSH1 0x40 MLOAD PUSH3 0x461BCD PUSH1 0xE5 SHL DUP2 MSTORE PUSH1 0x20 PUSH1 0x4 DUP3 ADD MSTORE PUSH1 0x29 PUSH1 0x24 DUP3 ADD MSTORE PUSH32 0x5472616E736665722063616C6C6572206973206E6F74206F776E6572206E6F72 PUSH1 0x44 DUP3 ADD MSTORE PUSH9 0x8185C1C1C9BDD9959 PUSH1 0xBA SHL PUSH1 0x64 DUP3 ADD MSTORE PUSH1 0x84 SWAP1 REVERT JUMPDEST SWAP1 SWAP3 SWAP2 SWAP3 PUSH2 0x55FA PUSH1 0x0 PUSH2 0x25FA JUMP JUMPDEST SWAP2 PUSH2 0x560D PUSH1 0x1 PUSH1 0x1 PUSH1 0xA0 SHL SUB DUP5 AND PUSH2 0x20AB JUMP JUMPDEST EQ ISZERO SWAP2 DUP3 PUSH2 0x569F JUMPI JUMPDEST POP POP PUSH2 0x5620 JUMPI POP POP JUMP JUMPDEST SWAP1 SWAP2 PUSH2 0x562C PUSH1 0x0 PUSH2 0x11D5 JUMP JUMPDEST DUP3 JUMPDEST DUP2 LT ISZERO PUSH2 0x5699 JUMPI PUSH2 0x566A DUP2 PUSH2 0x5646 PUSH2 0x562E SWAP4 DUP8 PUSH2 0x2F12 JUMP JUMPDEST PUSH2 0x564E PUSH2 0xE4F JUMP JUMPDEST SWAP1 PUSH2 0x565D PUSH2 0x1CC3 CALLER DUP1 SWAP5 PUSH2 0x45F8 JUMP JUMPDEST PUSH2 0x5671 JUMPI JUMPDEST POP POP PUSH1 0x1 ADD SWAP1 JUMP JUMPDEST SWAP1 POP PUSH2 0x562C JUMP JUMPDEST PUSH2 0x5692 SWAP2 DUP2 PUSH2 0x5688 PUSH2 0x3E92 PUSH2 0x1CC3 PUSH2 0x568D SWAP6 PUSH2 0x253E JUMP JUMPDEST PUSH2 0x5A84 JUMP JUMPDEST PUSH2 0x558E JUMP JUMPDEST CODESIZE DUP1 PUSH2 0x5662 JUMP JUMPDEST POP SWAP2 POP POP JUMP JUMPDEST SWAP1 SWAP2 POP PUSH2 0x56B4 SWAP1 PUSH1 0x1 PUSH1 0x1 PUSH1 0xA0 SHL SUB AND PUSH2 0x20AB JUMP JUMPDEST EQ ISZERO CODESIZE DUP1 PUSH2 0x5616 JUMP JUMPDEST SWAP1 PUSH2 0x517 SWAP4 SWAP3 SWAP2 PUSH2 0x557A JUMP JUMPDEST PUSH2 0x52D PUSH1 0xE8 PUSH2 0x11D5 JUMP JUMPDEST PUSH2 0x52D SWAP1 PUSH2 0x56E4 PUSH2 0x1DCE PUSH2 0x52D SWAP5 SWAP1 JUMP JUMPDEST SWAP1 SHR SWAP1 JUMP JUMPDEST PUSH2 0x56F6 PUSH2 0x52D PUSH2 0x52D SWAP3 SWAP1 JUMP JUMPDEST PUSH3 0xFFFFFF AND SWAP1 JUMP JUMPDEST PUSH2 0x52D PUSH2 0x52D PUSH2 0x52D SWAP3 PUSH3 0xFFFFFF AND SWAP1 JUMP JUMPDEST PUSH2 0x52D SWAP1 PUSH2 0x5721 PUSH2 0x1DCE PUSH2 0x52D SWAP5 SWAP1 JUMP JUMPDEST SWAP1 SHL SWAP1 JUMP JUMPDEST PUSH2 0x575B PUSH2 0x5760 SWAP2 PUSH2 0x52D SWAP5 SWAP4 PUSH2 0x573A PUSH1 0x0 SWAP1 JUMP JUMPDEST POP PUSH2 0x5755 PUSH2 0x5750 PUSH2 0x5749 PUSH2 0x56C9 JUMP JUMPDEST DUP1 SWAP8 PUSH2 0x56D3 JUMP JUMPDEST PUSH2 0x56E9 JUMP JUMPDEST SWAP2 PUSH2 0x60C2 JUMP JUMPDEST PUSH2 0x56FE JUMP JUMPDEST PUSH2 0x5710 JUMP JUMPDEST PUSH2 0x52D PUSH2 0x2710 PUSH2 0x1B8D JUMP JUMPDEST PUSH2 0x52D PUSH1 0x2 PUSH2 0x11D5 JUMP JUMPDEST PUSH2 0x5784 PUSH1 0xA PUSH2 0x1487 JUMP JUMPDEST PUSH2 0x578C PUSH2 0x5770 JUMP JUMPDEST SWAP1 DUP2 EQ PUSH2 0x579E JUMPI PUSH2 0x517 SWAP1 PUSH1 0xA PUSH2 0x202F JUMP JUMPDEST PUSH4 0x3EE5AEB5 PUSH1 0xE0 SHL PUSH1 0x0 SWAP1 DUP2 MSTORE PUSH1 0x4 SWAP1 REVERT JUMPDEST PUSH2 0x52D PUSH1 0x1 PUSH2 0x11D5 JUMP JUMPDEST PUSH2 0x517 PUSH2 0x57C5 PUSH2 0x57B0 JUMP JUMPDEST PUSH1 0xA PUSH2 0x202F JUMP JUMPDEST PUSH2 0x52D PUSH1 0x40 PUSH2 0x11D5 JUMP JUMPDEST PUSH2 0x57E0 PUSH1 0x0 PUSH2 0x1487 JUMP JUMPDEST SWAP2 PUSH1 0x0 SWAP2 PUSH2 0x57ED DUP4 PUSH2 0x11D5 JUMP JUMPDEST DUP3 EQ PUSH2 0x5935 JUMPI DUP1 PUSH2 0x5879 SWAP3 PUSH2 0x584F PUSH2 0x5844 PUSH2 0x5807 DUP8 PUSH2 0x25FA JUMP JUMPDEST PUSH2 0x5813 DUP5 DUP11 DUP8 DUP5 PUSH2 0x56BD JUMP JUMPDEST PUSH2 0x582F PUSH1 0x1 DUP6 EQ PUSH1 0xE1 SHL SWAP2 PUSH2 0x5827 DUP11 PUSH2 0x11D5 JUMP JUMPDEST SWAP8 DUP9 SWAP2 PUSH2 0x5726 JUMP JUMPDEST TIMESTAMP PUSH1 0xA0 SHL SWAP2 OR OR PUSH1 0x1 PUSH1 0x1 PUSH1 0xA0 SHL SUB DUP6 AND OR SWAP1 JUMP JUMPDEST PUSH2 0x2190 DUP9 PUSH1 0x4 PUSH2 0x1284 JUMP JUMPDEST PUSH2 0x5897 PUSH2 0x206F PUSH1 0x1 SWAP4 PUSH2 0x208B PUSH2 0x587F PUSH2 0x5866 PUSH2 0x57CC JUMP JUMPDEST PUSH2 0x5870 PUSH1 0x1 PUSH2 0x11D5 JUMP JUMPDEST SWAP10 DUP11 SWAP2 DUP3 PUSH2 0x5710 JUMP JUMPDEST OR DUP7 MUL SWAP1 JUMP JUMPDEST PUSH2 0x2133 PUSH2 0x588D DUP5 PUSH1 0x5 PUSH2 0x2015 JUMP JUMPDEST SWAP2 PUSH2 0x64D DUP4 PUSH2 0x1487 JUMP JUMPDEST PUSH2 0x589F PUSH2 0x1FF8 JUMP JUMPDEST AND SWAP3 DUP4 EQ PUSH2 0x5929 JUMPI DUP6 ADD SWAP5 SWAP3 DUP6 SUB PUSH2 0x58B8 PUSH1 0x0 NOT PUSH2 0x1DCE JUMP JUMPDEST GT PUSH2 0x591C JUMPI PUSH1 0x1 DUP2 JUMPDEST PUSH2 0x58D4 JUMPI JUMPDEST POP POP POP POP SWAP1 PUSH2 0x517 SWAP2 PUSH2 0x202F JUMP JUMPDEST ISZERO PUSH2 0x590A JUMPI JUMPDEST DUP4 SWAP1 DUP4 DUP4 DUP7 PUSH32 0xDDF252AD1BE2C89B69C2B068FC378DAA952BA7F163C4A11628F55A4DF523B3EF DUP2 DUP1 LOG4 SWAP1 DUP2 PUSH2 0x58C1 JUMP JUMPDEST SWAP2 PUSH1 0x1 ADD SWAP2 DUP5 DUP4 SUB PUSH2 0x58DA JUMPI DUP1 PUSH2 0x58C6 JUMP JUMPDEST PUSH4 0x40B23F1D PUSH1 0xE1 SHL PUSH2 0x539D JUMP JUMPDEST PUSH3 0x2E0763 PUSH1 0xE8 SHL PUSH2 0x539D JUMP JUMPDEST PUSH4 0xB562E8DD PUSH1 0xE0 SHL PUSH2 0x539D JUMP JUMPDEST PUSH2 0x594F PUSH2 0x1CC3 DUP4 DUP4 PUSH2 0x45F8 JUMP JUMPDEST ISZERO PUSH2 0x59AC JUMPI PUSH2 0x596A PUSH1 0x1 PUSH2 0x46AD DUP5 PUSH1 0x0 PUSH2 0x460D DUP7 PUSH1 0xB PUSH2 0x2431 JUMP JUMPDEST PUSH2 0x5978 PUSH2 0x33C0 PUSH2 0x3FC1 CALLER SWAP4 SWAP1 JUMP JUMPDEST SWAP2 PUSH32 0x2F8788117E7EFF1D82E926EC794901D17C78024A50270940304540A733656F0D PUSH2 0x59A3 PUSH1 0x40 MLOAD SWAP1 JUMP JUMPDEST PUSH1 0x0 SWAP1 LOG4 PUSH1 0x1 SWAP1 JUMP JUMPDEST POP POP PUSH1 0x0 SWAP1 JUMP JUMPDEST PUSH2 0x59BD DUP3 DUP3 PUSH2 0x45F8 JUMP JUMPDEST ISZERO PUSH2 0x59AC JUMPI PUSH2 0x59D7 PUSH1 0x0 PUSH2 0x46AD DUP5 DUP3 PUSH2 0x460D DUP7 PUSH1 0xB PUSH2 0x2431 JUMP JUMPDEST PUSH2 0x59E5 PUSH2 0x33C0 PUSH2 0x3FC1 CALLER SWAP4 SWAP1 JUMP JUMPDEST SWAP2 PUSH32 0xF6391F5C32D9C69D2A47EA670B442974B53935D1EDC7FD64EB21E047A839171B PUSH2 0x59A3 PUSH1 0x40 MLOAD SWAP1 JUMP JUMPDEST PUSH2 0x5A18 PUSH2 0x60CD JUMP JUMPDEST PUSH2 0x517 PUSH2 0x5A46 JUMP JUMPDEST SWAP1 PUSH1 0xFF PUSH1 0xA0 SHL SWAP1 PUSH1 0xA0 SHL PUSH2 0x2025 JUMP JUMPDEST SWAP1 PUSH2 0x5A3F PUSH2 0x52D PUSH2 0x2046 SWAP3 ISZERO ISZERO SWAP1 JUMP JUMPDEST DUP3 SLOAD PUSH2 0x5A20 JUMP JUMPDEST PUSH2 0x5A52 PUSH1 0x0 PUSH1 0x9 PUSH2 0x5A2F JUMP JUMPDEST PUSH32 0x5DB9EE0A495BF2E6FF9C91A7834C1BA4FDD244A5E8AA4E537BD38AEAE4B073AA PUSH2 0x3595 CALLER PUSH2 0x6CB JUMP JUMPDEST PUSH2 0x517 PUSH2 0x5A10 JUMP JUMPDEST SWAP1 PUSH2 0x5A8E DUP3 PUSH2 0x37BE JUMP JUMPDEST SWAP2 PUSH1 0x1 PUSH1 0x1 PUSH1 0xA0 SHL SUB DUP4 AND PUSH1 0x1 PUSH1 0x1 PUSH1 0xA0 SHL SUB DUP4 AND EQ SWAP3 DUP4 ISZERO PUSH2 0x5ACA JUMPI JUMPDEST POP DUP3 ISZERO PUSH2 0x5AB8 JUMPI POP POP SWAP1 JUMP JUMPDEST PUSH2 0x5399 SWAP2 SWAP3 POP PUSH2 0x3437 PUSH2 0x20AB SWAP2 PUSH2 0x1CB7 JUMP JUMPDEST PUSH2 0x5AD7 SWAP2 SWAP4 POP DUP3 SWAP1 PUSH2 0x4D4A JUMP JUMPDEST SWAP2 CODESIZE PUSH2 0x5AAC JUMP JUMPDEST PUSH1 0x0 PUSH2 0x517 SWAP2 PUSH2 0x60FA JUMP JUMPDEST SWAP1 DUP2 MSTORE PUSH1 0x60 DUP2 ADD SWAP4 SWAP3 PUSH2 0x517 SWAP3 SWAP1 SWAP2 PUSH1 0x40 SWAP2 PUSH2 0xA14 SWAP1 PUSH1 0x20 DUP4 ADD SWAP1 PUSH2 0x5199 JUMP JUMPDEST SWAP1 SWAP2 PUSH2 0x5B16 PUSH2 0x26DD PUSH2 0x5765 JUMP JUMPDEST DUP1 PUSH2 0x5B20 DUP4 PUSH2 0x2603 JUMP JUMPDEST GT PUSH2 0x5BB5 JUMPI POP PUSH1 0x0 SWAP3 PUSH2 0x5B32 DUP5 PUSH2 0x25FA JUMP JUMPDEST PUSH1 0x1 PUSH1 0x1 PUSH1 0xA0 SHL SUB DUP2 AND PUSH1 0x1 PUSH1 0x1 PUSH1 0xA0 SHL SUB DUP4 AND EQ PUSH2 0x5B91 JUMPI POP SWAP2 PUSH2 0x5B85 PUSH2 0x5B8C SWAP3 PUSH2 0x5B75 PUSH2 0x517 SWAP7 SWAP6 PUSH2 0x5B64 PUSH2 0x51BD JUMP JUMPDEST SWAP7 DUP8 ADD SWAP1 PUSH1 0x1 PUSH1 0x1 PUSH1 0xA0 SHL SUB AND SWAP1 MSTORE JUMP JUMPDEST PUSH1 0x1 PUSH1 0x1 PUSH1 0x60 SHL SUB AND PUSH1 0x20 DUP6 ADD MSTORE JUMP JUMPDEST PUSH1 0xD PUSH2 0x1284 JUMP JUMPDEST PUSH2 0x5240 JUMP JUMPDEST PUSH4 0x4B4F8429 PUSH1 0xE1 SHL DUP6 MSTORE PUSH1 0x4 DUP6 ADD DUP5 SWAP1 MSTORE PUSH1 0x1 PUSH1 0x1 PUSH1 0xA0 SHL SUB AND PUSH1 0x24 DUP6 ADD MSTORE PUSH1 0x44 DUP5 REVERT JUMPDEST PUSH4 0xDFD1FC1B PUSH1 0xE0 SHL PUSH1 0x0 SWAP1 DUP2 MSTORE SWAP3 PUSH2 0x34B3 SWAP3 SWAP1 PUSH1 0x4 PUSH2 0x5AE9 JUMP JUMPDEST PUSH1 0x9 SLOAD PUSH1 0x1 PUSH1 0x1 PUSH1 0xA0 SHL SUB AND CALLER SWAP1 PUSH2 0x5BE6 DUP3 PUSH2 0x20AB JUMP JUMPDEST SUB PUSH2 0x5BEE JUMPI POP JUMP JUMPDEST PUSH4 0x118CDAA7 PUSH1 0xE0 SHL PUSH1 0x0 SWAP1 DUP2 MSTORE PUSH1 0x1 PUSH1 0x1 PUSH1 0xA0 SHL SUB SWAP1 SWAP2 AND PUSH1 0x4 MSTORE PUSH1 0x24 SUB PUSH1 0x0 REVERT JUMPDEST PUSH2 0x5C33 PUSH2 0x33C0 PUSH2 0x5C28 PUSH1 0x9 SLOAD PUSH1 0x1 PUSH1 0x1 PUSH1 0xA0 SHL SUB AND SWAP1 JUMP JUMPDEST PUSH2 0x1C6F DUP5 PUSH1 0x9 PUSH2 0x4249 JUMP JUMPDEST SWAP1 PUSH32 0x8BE0079C531659141344CD1FD0A4F28419497F9722A3DAAFE3B4186F6B6457E0 PUSH2 0x5C5E PUSH1 0x40 MLOAD SWAP1 JUMP JUMPDEST DUP1 DUP1 PUSH2 0x2DFA JUMP JUMPDEST SWAP1 PUSH2 0x64D PUSH2 0x35CE PUSH1 0x20 SWAP4 PUSH32 0x19457468657265756D205369676E6564204D6573736167653A0A333200000000 DUP2 MSTORE PUSH1 0x1C ADD SWAP1 JUMP JUMPDEST PUSH2 0x52D SWAP1 PUSH2 0x11D5 JUMP JUMPDEST ISZERO PUSH2 0x5CA8 JUMPI JUMP JUMPDEST PUSH1 0x40 MLOAD PUSH3 0x461BCD PUSH1 0xE5 SHL DUP2 MSTORE PUSH1 0x20 PUSH1 0x4 DUP3 ADD MSTORE PUSH1 0x1B PUSH1 0x24 DUP3 ADD MSTORE PUSH32 0x496E76616C6964207369676E6174757265202773272076616C75650000000000 PUSH1 0x44 DUP3 ADD MSTORE PUSH1 0x64 SWAP1 REVERT JUMPDEST PUSH2 0xA14 PUSH2 0x517 SWAP5 PUSH2 0x5D16 PUSH1 0x60 SWAP5 SWAP9 SWAP8 SWAP6 PUSH2 0x5D0C PUSH1 0x80 DUP7 ADD SWAP11 PUSH1 0x0 DUP8 ADD MSTORE JUMP JUMPDEST PUSH1 0xFF AND PUSH1 0x20 DUP6 ADD MSTORE JUMP JUMPDEST PUSH1 0x40 DUP4 ADD MSTORE JUMP JUMPDEST PUSH1 0x40 MLOAD RETURNDATASIZE PUSH1 0x0 DUP3 RETURNDATACOPY RETURNDATASIZE SWAP1 REVERT JUMPDEST SWAP2 PUSH2 0x5DB9 PUSH1 0x0 SWAP2 PUSH2 0x5D6C PUSH1 0x20 SWAP5 PUSH2 0x5D3E PUSH1 0x0 SWAP1 JUMP JUMPDEST POP PUSH2 0x5D5A PUSH2 0x5D4B PUSH1 0x40 MLOAD SWAP1 JUMP JUMPDEST DUP1 SWAP3 PUSH2 0x3F3A DUP10 DUP4 ADD SWAP2 DUP3 PUSH2 0x5C65 JUMP JUMPDEST PUSH2 0x5D65 PUSH2 0x3F51 DUP3 MLOAD SWAP1 JUMP JUMPDEST KECCAK256 SWAP2 PUSH2 0x6379 JUMP JUMPDEST SWAP4 SWAP2 PUSH2 0x5DAD PUSH2 0x5D7A DUP4 PUSH2 0x5C98 JUMP JUMPDEST PUSH2 0x5DA6 PUSH2 0x1DCE PUSH32 0x7FFFFFFFFFFFFFFFFFFFFFFFFFFFFFFF5D576E7357A4501DDFE92F46681B20A0 PUSH2 0x11D5 JUMP JUMPDEST GT ISZERO PUSH2 0x5CA1 JUMP JUMPDEST PUSH1 0x40 MLOAD SWAP5 DUP6 SWAP5 DUP6 PUSH2 0x5CED JUMP JUMPDEST DUP4 DUP1 MSTORE SUB SWAP1 PUSH1 0x1 GAS STATICCALL ISZERO PUSH2 0x5DF4 JUMPI PUSH1 0x0 MLOAD PUSH2 0x5399 SWAP1 PUSH2 0x20AB SWAP1 SWAP3 PUSH2 0x566 PUSH2 0x5DE3 PUSH2 0x566 PUSH1 0x0 PUSH2 0x25FA JUMP JUMPDEST PUSH1 0x1 PUSH1 0x1 PUSH1 0xA0 SHL SUB DUP7 AND EQ ISZERO PUSH2 0x3DBC JUMP JUMPDEST PUSH2 0x5D1D JUMP JUMPDEST PUSH2 0x5E01 PUSH2 0x5459 JUMP JUMPDEST PUSH2 0x517 PUSH2 0x5E10 PUSH1 0x1 PUSH1 0x9 PUSH2 0x5A2F JUMP JUMPDEST PUSH32 0x62E78CEA01BEE320CD4E420270B5EA74000D11B0C9F74754EBDBFC544B05A258 PUSH2 0x3595 CALLER PUSH2 0x6CB JUMP JUMPDEST PUSH2 0x517 PUSH2 0x5DF9 JUMP JUMPDEST SWAP1 POP MLOAD SWAP1 PUSH2 0x517 DUP3 PUSH2 0x4F7 JUMP JUMPDEST SWAP1 PUSH1 0x20 DUP3 DUP3 SUB SLT PUSH2 0x4F2 JUMPI PUSH2 0x52D SWAP2 PUSH2 0x5E42 JUMP JUMPDEST PUSH1 0x1 PUSH1 0x1 PUSH1 0xA0 SHL SUB SWAP2 DUP3 AND DUP2 MSTORE SWAP2 AND PUSH1 0x20 DUP3 ADD MSTORE PUSH2 0x52D SWAP3 PUSH1 0x80 DUP3 ADD SWAP3 SWAP1 SWAP2 SWAP1 PUSH2 0x5E8C SWAP1 PUSH2 0x5D16 JUMP JUMPDEST PUSH1 0x60 DUP2 DUP5 SUB SWAP2 ADD MSTORE PUSH2 0x619 JUMP JUMPDEST PUSH2 0x5EB2 PUSH2 0x5EAC PUSH2 0x52D SWAP3 PUSH4 0xFFFFFFFF AND SWAP1 JUMP JUMPDEST PUSH1 0xE0 SHL SWAP1 JUMP JUMPDEST PUSH1 0x1 PUSH1 0x1 PUSH1 0xE0 SHL SUB NOT AND SWAP1 JUMP JUMPDEST RETURNDATASIZE ISZERO PUSH2 0x5ED9 JUMPI PUSH2 0x5ECE RETURNDATASIZE PUSH2 0x35C1 JUMP JUMPDEST SWAP1 RETURNDATASIZE PUSH1 0x0 PUSH1 0x20 DUP5 ADD RETURNDATACOPY JUMP JUMPDEST PUSH1 0x60 SWAP1 JUMP JUMPDEST SWAP2 PUSH2 0x5EF6 PUSH2 0x1C6F PUSH1 0x20 SWAP4 PUSH2 0x5EF0 PUSH1 0x0 SWAP1 JUMP JUMPDEST POP PUSH2 0x1C14 JUMP JUMPDEST PUSH4 0x150B7A02 SWAP4 PUSH1 0x0 CALLER PUSH2 0x5F27 PUSH2 0x5F0B PUSH1 0x40 MLOAD SWAP1 JUMP JUMPDEST SWAP9 DUP10 SWAP7 DUP8 SWAP6 DUP7 SWAP5 PUSH2 0x5F1C DUP13 PUSH1 0xE0 SHL SWAP1 JUMP JUMPDEST DUP7 MSTORE PUSH1 0x4 DUP7 ADD PUSH2 0x5E63 JUMP JUMPDEST SUB SWAP3 GAS CALL PUSH1 0x0 SWAP3 DUP2 PUSH2 0x5F7A JUMPI JUMPDEST POP PUSH2 0x5F5D JUMPI PUSH2 0x5F41 PUSH2 0x5EBF JUMP JUMPDEST DUP1 MLOAD PUSH2 0x5F50 PUSH2 0x1DCE PUSH1 0x0 PUSH2 0x11D5 JUMP JUMPDEST EQ PUSH2 0x490A JUMPI DUP1 MLOAD SWAP1 PUSH1 0x20 ADD REVERT JUMPDEST PUSH2 0x5F6C PUSH2 0x5EB2 PUSH2 0x5399 SWAP3 PUSH2 0x5E99 JUMP JUMPDEST SWAP2 PUSH1 0x1 PUSH1 0x1 PUSH1 0xE0 SHL SUB NOT AND SWAP1 JUMP JUMPDEST PUSH2 0x5F9D SWAP2 SWAP4 POP PUSH1 0x20 RETURNDATASIZE PUSH1 0x20 GT PUSH2 0x5FA4 JUMPI JUMPDEST PUSH2 0x5F95 DUP2 DUP4 PUSH2 0xA5D JUMP JUMPDEST DUP2 ADD SWAP1 PUSH2 0x5E4F JUMP JUMPDEST SWAP2 CODESIZE PUSH2 0x5F34 JUMP JUMPDEST POP RETURNDATASIZE PUSH2 0x5F8B JUMP JUMPDEST PUSH2 0x52D PUSH1 0x10 PUSH2 0x1CA4 JUMP JUMPDEST CALLDATASIZE SWAP1 CALLDATACOPY JUMP JUMPDEST SWAP1 PUSH2 0x517 PUSH2 0x5FD0 PUSH2 0x5FCA DUP5 PUSH2 0x35C1 JUMP JUMPDEST SWAP4 PUSH2 0xA97 JUMP JUMPDEST PUSH1 0x1F NOT ADD PUSH1 0x20 DUP5 ADD PUSH2 0x5FB5 JUMP JUMPDEST PUSH2 0x5FE6 DUP2 PUSH2 0x6419 JUMP JUMPDEST SWAP1 PUSH2 0x5FF7 PUSH1 0x1 SWAP3 PUSH2 0x64D PUSH1 0x1 PUSH2 0x11D5 JUMP JUMPDEST SWAP2 DUP1 PUSH2 0x6002 DUP5 PUSH2 0x5FBA JUMP JUMPDEST SWAP4 PUSH1 0x20 ADD DUP5 ADD SWAP1 JUMPDEST PUSH2 0x6015 JUMPI JUMPDEST POP POP POP SWAP1 JUMP JUMPDEST DUP2 ISZERO PUSH2 0x6065 JUMPI PUSH2 0x6049 SWAP1 PUSH1 0x0 NOT ADD SWAP3 PUSH16 0x181899199A1A9B1B9C1CB0B131B232B3 PUSH1 0x81 SHL PUSH1 0xA DUP3 MOD BYTE DUP5 MSTORE8 PUSH2 0x26E2 PUSH1 0xA PUSH2 0x11D5 JUMP JUMPDEST SWAP1 DUP2 PUSH2 0x6058 PUSH2 0x1DCE PUSH1 0x0 PUSH2 0x11D5 JUMP JUMPDEST EQ PUSH2 0x6065 JUMPI SWAP1 SWAP2 DUP2 PUSH2 0x600A JUMP JUMPDEST PUSH2 0x600F JUMP JUMPDEST PUSH4 0x7965DB0B PUSH1 0xE0 SHL PUSH1 0x1 PUSH1 0x1 PUSH1 0xE0 SHL SUB NOT DUP3 AND EQ SWAP1 DUP2 ISZERO PUSH2 0x6089 JUMPI POP SWAP1 JUMP JUMPDEST PUSH2 0x52D SWAP2 POP PUSH2 0x65BB JUMP JUMPDEST SWAP1 PUSH2 0x60A1 PUSH2 0x1CC3 DUP3 DUP5 PUSH2 0x45F8 JUMP JUMPDEST PUSH2 0x60A9 JUMPI POP POP JUMP JUMPDEST PUSH4 0xE2517D3F PUSH1 0xE0 SHL PUSH1 0x0 SWAP1 DUP2 MSTORE SWAP2 PUSH2 0x34B3 SWAP2 PUSH1 0x4 PUSH2 0x9F7 JUMP JUMPDEST POP POP POP PUSH2 0x52D PUSH1 0x0 SWAP1 JUMP JUMPDEST PUSH2 0x60D8 PUSH2 0x1CC3 PUSH2 0x37B4 JUMP JUMPDEST PUSH2 0x60DE JUMPI JUMP JUMPDEST PUSH4 0x8DFC202B PUSH1 0xE0 SHL PUSH1 0x0 SWAP1 DUP2 MSTORE PUSH1 0x4 SWAP1 REVERT JUMPDEST PUSH2 0x52D PUSH1 0x80 PUSH2 0x11D5 JUMP JUMPDEST PUSH2 0x6103 DUP2 PUSH2 0x5493 JUMP JUMPDEST SWAP1 PUSH2 0x6110 PUSH2 0x208B DUP4 PUSH2 0x2008 JUMP JUMPDEST PUSH2 0x6119 DUP3 PUSH2 0x555D JUMP JUMPDEST SWAP4 SWAP1 SWAP5 PUSH2 0x6286 JUMPI JUMPDEST PUSH2 0x53DD PUSH2 0x3FC1 DUP5 SWAP4 PUSH2 0x517 SWAP8 PUSH2 0x61F4 SWAP5 PUSH2 0x6151 SWAP9 SWAP8 PUSH1 0x0 DUP1 SWAP4 PUSH2 0x6143 DUP3 PUSH2 0x25FA JUMP JUMPDEST SWAP11 PUSH2 0x615A DUP13 PUSH1 0x1 SWAP15 DUP16 PUSH2 0x11D5 JUMP JUMPDEST SWAP6 DUP7 SWAP2 DUP11 PUSH2 0x56BD JUMP JUMPDEST PUSH2 0x627E JUMPI JUMPDEST POP POP PUSH2 0x618B PUSH2 0x617D DUP3 PUSH2 0x6179 PUSH2 0x6173 PUSH2 0x60F0 JUMP JUMPDEST DUP3 PUSH2 0x5710 JUMP JUMPDEST SUB SWAP1 JUMP JUMPDEST PUSH2 0x2133 PUSH2 0x588D DUP8 PUSH1 0x5 PUSH2 0x2015 JUMP JUMPDEST PUSH2 0x6193 PUSH2 0x530C JUMP JUMPDEST SWAP1 PUSH2 0x61C2 PUSH2 0x619F PUSH2 0x204A JUMP JUMPDEST DUP1 SWAP4 OR PUSH2 0x61AD DUP6 DUP14 DUP10 PUSH2 0x5726 JUMP JUMPDEST TIMESTAMP PUSH1 0xA0 SHL SWAP2 OR OR PUSH1 0x1 PUSH1 0x1 PUSH1 0xA0 SHL SUB DUP8 AND OR SWAP1 JUMP JUMPDEST SWAP2 PUSH2 0x61D3 PUSH1 0x4 SWAP4 PUSH2 0x2190 DUP13 DUP7 PUSH2 0x1284 JUMP JUMPDEST PUSH2 0x61E5 PUSH2 0x61DF DUP7 PUSH2 0x11D5 JUMP JUMPDEST SWAP2 DUP6 AND SWAP1 JUMP JUMPDEST EQ PUSH2 0x622F JUMPI JUMPDEST POP POP POP POP PUSH2 0x1C14 JUMP JUMPDEST SWAP2 PUSH32 0xDDF252AD1BE2C89B69C2B068FC378DAA952BA7F163C4A11628F55A4DF523B3EF PUSH2 0x621F PUSH1 0x40 MLOAD SWAP1 JUMP JUMPDEST PUSH1 0x0 SWAP1 LOG4 PUSH2 0x2133 PUSH2 0x1DE9 DUP3 PUSH2 0x1487 JUMP JUMPDEST DUP9 ADD SWAP3 PUSH2 0x623F PUSH2 0x2208 DUP6 DUP5 PUSH2 0x1284 JUMP JUMPDEST PUSH2 0x624B PUSH2 0x1DCE DUP4 PUSH2 0x11D5 JUMP JUMPDEST SUB PUSH2 0x61EB JUMPI PUSH2 0x52D PUSH2 0x625C SWAP2 PUSH2 0x1487 JUMP JUMPDEST DUP4 SUB PUSH2 0x6269 JUMPI JUMPDEST DUP1 PUSH2 0x61EB JUMP JUMPDEST PUSH2 0x6276 SWAP3 PUSH2 0x2190 SWAP2 PUSH2 0x1284 JUMP JUMPDEST CODESIZE DUP1 DUP1 PUSH2 0x6263 JUMP JUMPDEST SSTORE DUP3 CODESIZE PUSH2 0x615F JUMP JUMPDEST CALLER PUSH1 0x1 PUSH1 0x1 PUSH1 0xA0 SHL SUB DUP4 AND DUP2 EQ DUP6 DUP3 EQ OR ISZERO PUSH2 0x62A3 JUMPI JUMPDEST POP PUSH2 0x6121 JUMP JUMPDEST PUSH2 0x1CC3 PUSH2 0x62B4 SWAP2 DUP5 SWAP4 SWAP7 SWAP6 SWAP5 PUSH2 0x4D4A JUMP JUMPDEST PUSH2 0x2271 JUMPI SWAP1 SWAP2 SWAP3 CODESIZE PUSH2 0x629D JUMP JUMPDEST ISZERO PUSH2 0x62C8 JUMPI JUMP JUMPDEST PUSH1 0x40 MLOAD PUSH3 0x461BCD PUSH1 0xE5 SHL DUP2 MSTORE PUSH1 0x20 PUSH1 0x4 DUP3 ADD MSTORE PUSH1 0x18 PUSH1 0x24 DUP3 ADD MSTORE PUSH32 0x496E76616C6964207369676E6174757265206C656E6774680000000000000000 PUSH1 0x44 DUP3 ADD MSTORE PUSH1 0x64 SWAP1 REVERT JUMPDEST PUSH2 0x119D PUSH2 0x52D PUSH2 0x52D SWAP3 SWAP1 JUMP JUMPDEST PUSH1 0xFF SWAP1 DUP2 AND SWAP2 AND ADD SWAP1 PUSH1 0xFF DUP3 GT PUSH2 0x2642 JUMPI JUMP JUMPDEST ISZERO PUSH2 0x6334 JUMPI JUMP JUMPDEST PUSH1 0x40 MLOAD PUSH3 0x461BCD PUSH1 0xE5 SHL DUP2 MSTORE PUSH1 0x20 PUSH1 0x4 DUP3 ADD MSTORE PUSH1 0x1B PUSH1 0x24 DUP3 ADD MSTORE PUSH32 0x496E76616C6964207369676E6174757265202776272076616C75650000000000 PUSH1 0x44 DUP3 ADD MSTORE PUSH1 0x64 SWAP1 REVERT JUMPDEST SWAP1 PUSH2 0x6398 PUSH2 0x6385 DUP4 MLOAD SWAP1 JUMP JUMPDEST PUSH2 0x6392 PUSH2 0x1DCE PUSH1 0x41 PUSH2 0x11D5 JUMP JUMPDEST EQ PUSH2 0x62C1 JUMP JUMPDEST PUSH1 0x20 DUP3 ADD MLOAD SWAP1 PUSH1 0x60 PUSH1 0x40 DUP5 ADD MLOAD SWAP4 ADD MLOAD PUSH1 0x0 BYTE SWAP2 PUSH2 0x63B6 PUSH1 0x1B PUSH2 0x630D JUMP JUMPDEST PUSH1 0xFF DUP5 AND LT PUSH2 0x63FE JUMPI JUMPDEST PUSH2 0x63CA PUSH1 0x1B PUSH2 0x630D JUMP JUMPDEST PUSH1 0xFF DUP5 AND EQ DUP1 ISZERO PUSH2 0x63E4 JUMPI JUMPDEST PUSH2 0x63DF SWAP1 PUSH2 0x632D JUMP JUMPDEST SWAP3 SWAP2 SWAP1 JUMP JUMPDEST POP PUSH2 0x63DF PUSH2 0x63F2 PUSH1 0x1C PUSH2 0x630D JUMP JUMPDEST PUSH1 0xFF DUP6 AND EQ SWAP1 POP PUSH2 0x63D6 JUMP JUMPDEST SWAP2 PUSH2 0x6413 SWAP1 PUSH2 0x640D PUSH1 0x1B PUSH2 0x630D JUMP JUMPDEST SWAP1 PUSH2 0x631A JUMP JUMPDEST SWAP2 PUSH2 0x63C0 JUMP JUMPDEST PUSH2 0x6423 PUSH1 0x0 PUSH2 0x11D5 JUMP JUMPDEST SWAP1 PUSH27 0x184F03E93FF9F4DAA797ED6E38ED64BF6A1F010000000000000000 PUSH2 0x6449 DUP2 PUSH2 0x11D5 JUMP JUMPDEST DUP3 LT ISZERO PUSH2 0x6599 JUMPI JUMPDEST POP PUSH14 0x4EE2D6D415B85ACEF8100000000 PUSH2 0x646A DUP2 PUSH2 0x11D5 JUMP JUMPDEST DUP3 LT ISZERO PUSH2 0x6577 JUMPI JUMPDEST POP PUSH7 0x2386F26FC10000 PUSH2 0x6484 DUP2 PUSH2 0x11D5 JUMP JUMPDEST DUP3 LT ISZERO PUSH2 0x6555 JUMPI JUMPDEST POP PUSH4 0x5F5E100 PUSH2 0x649B DUP2 PUSH2 0x11D5 JUMP JUMPDEST DUP3 LT ISZERO PUSH2 0x6533 JUMPI JUMPDEST POP PUSH2 0x2710 PUSH2 0x64B0 DUP2 PUSH2 0x11D5 JUMP JUMPDEST DUP3 LT ISZERO PUSH2 0x6511 JUMPI JUMPDEST POP PUSH2 0x64C3 PUSH1 0x64 PUSH2 0x11D5 JUMP JUMPDEST DUP2 LT ISZERO PUSH2 0x64EF JUMPI JUMPDEST PUSH2 0x64D8 PUSH2 0x1DCE PUSH1 0xA PUSH2 0x11D5 JUMP JUMPDEST LT ISZERO PUSH2 0x64E1 JUMPI SWAP1 JUMP JUMPDEST PUSH2 0x52D SWAP1 PUSH2 0x64D PUSH1 0x1 PUSH2 0x11D5 JUMP JUMPDEST PUSH2 0x6500 PUSH2 0x650B SWAP2 PUSH2 0x26E2 PUSH1 0x64 PUSH2 0x11D5 JUMP JUMPDEST SWAP2 PUSH2 0x64D PUSH1 0x2 PUSH2 0x11D5 JUMP JUMPDEST SWAP1 PUSH2 0x64CB JUMP JUMPDEST PUSH2 0x652C SWAP2 PUSH2 0x26E2 PUSH2 0x6521 SWAP3 PUSH2 0x11D5 JUMP JUMPDEST SWAP2 PUSH2 0x64D PUSH1 0x4 PUSH2 0x11D5 JUMP JUMPDEST SWAP1 CODESIZE PUSH2 0x64B8 JUMP JUMPDEST PUSH2 0x654E SWAP2 PUSH2 0x26E2 PUSH2 0x6543 SWAP3 PUSH2 0x11D5 JUMP JUMPDEST SWAP2 PUSH2 0x64D PUSH1 0x8 PUSH2 0x11D5 JUMP JUMPDEST SWAP1 CODESIZE PUSH2 0x64A3 JUMP JUMPDEST PUSH2 0x6570 SWAP2 PUSH2 0x26E2 PUSH2 0x6565 SWAP3 PUSH2 0x11D5 JUMP JUMPDEST SWAP2 PUSH2 0x64D PUSH1 0x10 PUSH2 0x11D5 JUMP JUMPDEST SWAP1 CODESIZE PUSH2 0x648C JUMP JUMPDEST PUSH2 0x6592 SWAP2 PUSH2 0x26E2 PUSH2 0x6587 SWAP3 PUSH2 0x11D5 JUMP JUMPDEST SWAP2 PUSH2 0x64D PUSH1 0x20 PUSH2 0x11D5 JUMP JUMPDEST SWAP1 CODESIZE PUSH2 0x6472 JUMP JUMPDEST PUSH2 0x65B4 SWAP2 PUSH2 0x26E2 PUSH2 0x65A9 SWAP3 PUSH2 0x11D5 JUMP JUMPDEST SWAP2 PUSH2 0x64D PUSH1 0x40 PUSH2 0x11D5 JUMP JUMPDEST SWAP1 CODESIZE PUSH2 0x6451 JUMP JUMPDEST PUSH2 0x5399 PUSH4 0x1FFC9A7 PUSH1 0xE0 SHL PUSH2 0x5F6C JUMP INVALID LOG2 PUSH5 0x6970667358 0x22 SLT KECCAK256 ADDRESS 0x2C 0x21 STOP SWAP9 LOG4 PUSH28 0xBF27B9194CEAB9E7606AC7DA4D41D66802AD6E129D7B1882F264736F PUSH13 0x634300081C0033000000000000 "},"methodIdentifiers":{"DEFAULT_ADMIN_ROLE()":"a217fddf","ESCROW_ROLE()":"6ce76f30","activateReward(uint256)":"66cfd072","addReward(string,uint256,string,string,string,uint256,uint256,uint256)":"2a67c158","approve(address,uint256)":"095ea7b3","averageBlockTime()":"233dedf1","balanceOf(address)":"70a08231","batchMint(address,uint256,uint256)":"2a959b89","burn(uint256)":"42966c68","claimReward(uint256,uint256)":"86bb8f37","claimedRewards(uint256,uint256)":"c7a5156f","deactivateReward(uint256)":"eabdc5b4","domainSeparator()":"f698da25","escrowTransfer(address,address,uint256,bytes,uint256)":"82666bc8","forceUnlockToken(uint256)":"ccd40400","forceUnlockTokenBatch(uint256[])":"ae594865","forceUnstakeToken(uint256)":"bd39e149","forceUnstakeTokenBatch(uint256[])":"14f93a49","getApproved(uint256)":"081812fc","getClaimedReward(uint256,uint256)":"a3e37652","getClaimedRewards(uint256)":"7c33bd70","getDomainSeparator()":"ed24911d","getMessageHash(address,address,uint256)":"bc577940","getReward(uint256)":"1c4b774b","getRoleAdmin(bytes32)":"248a9ca3","getStakingStatus(uint256)":"b5573847","getStakingStatusBatch(uint256[])":"dd4ba7e1","globalLockupPeriod()":"80c47440","grantEscrowRole(address)":"6cc232e9","grantRole(bytes32,address)":"2f2ff15d","hasRole(bytes32,address)":"91d14854","isApprovedForAll(address,address)":"e985e9c5","isTokenLocked(uint256)":"276a28a3","lockedAt(uint256)":"dcae6754","maxSupply()":"d5abeb01","mintPrice()":"6817c76c","mintingEnabled()":"9fd6db12","name()":"06fdde03","nextRewardId()":"f064997c","nonce(address)":"70ae92d2","owner()":"8da5cb5b","ownerOf(uint256)":"6352211e","pause()":"8456cb59","paused()":"5c975abb","renounceOwnership()":"715018a6","renounceRole(bytes32,address)":"36568abe","revokeClaimedReward(uint256,uint256,string)":"a7b1190a","revokeEscrowRole(address)":"f12e061b","revokeRole(bytes32,address)":"d547741f","rewards(uint256)":"f301af42","royaltyInfo(uint256,uint256)":"2a55205a","safeTransferFrom(address,address,uint256)":"42842e0e","safeTransferFrom(address,address,uint256,bytes)":"b88d4fde","setApprovalForAll(address,bool)":"a22cb465","setAverageBlockTime(uint256)":"3736d853","setBaseURI(string)":"55f804b3","setContractURI(string)":"938e3d7b","setDefaultRoyalty(address,uint96)":"04634d8d","setLockToken(uint256,uint256)":"be707db1","setLockTokenBatch(uint256[],uint256)":"2496dd51","setMintingEnabled(bool)":"4ea3871a","setTokenRoyalty(uint256,address,uint96)":"5944c753","setUnlockToken(uint256)":"2474e2b2","setUnlockTokenBatch(uint256[])":"6fc23db4","stakeToken(uint256,uint256)":"ffab4bd9","stakeTokenBatch(uint256[],uint256)":"8ad7d9de","stakedTokens(uint256)":"c0788555","supportsInterface(bytes4)":"01ffc9a7","symbol()":"95d89b41","tokenURI(uint256)":"c87b56dd","totalSupply()":"18160ddd","transferFrom(address,address,uint256)":"23b872dd","transferOwnership(address)":"f2fde38b","unlockScheduledAt(uint256)":"a5f10fe7","unlockedAt(uint256)":"c4228aaa","unpause()":"3f4ba83a","unstakeToken(uint256)":"2cfb6688","unstakeTokenBatch(uint256[])":"17f82990"}},"storageLayout":{"storage":[{"astId":8941,"contract":"contracts/Collection.sol:Collection","label":"_currentIndex","offset":0,"slot":"0","type":"t_uint256"},{"astId":8943,"contract":"contracts/Collection.sol:Collection","label":"_burnCounter","offset":0,"slot":"1","type":"t_uint256"},{"astId":8945,"contract":"contracts/Collection.sol:Collection","label":"_name","offset":0,"slot":"2","type":"t_string_storage"},{"astId":8947,"contract":"contracts/Collection.sol:Collection","label":"_symbol","offset":0,"slot":"3","type":"t_string_storage"},{"astId":8951,"contract":"contracts/Collection.sol:Collection","label":"_packedOwnerships","offset":0,"slot":"4","type":"t_mapping(t_uint256,t_uint256)"},{"astId":8955,"contract":"contracts/Collection.sol:Collection","label":"_packedAddressData","offset":0,"slot":"5","type":"t_mapping(t_address,t_uint256)"},{"astId":8960,"contract":"contracts/Collection.sol:Collection","label":"_tokenApprovals","offset":0,"slot":"6","type":"t_mapping(t_uint256,t_struct(TokenApprovalRef)8873_storage)"},{"astId":8966,"contract":"contracts/Collection.sol:Collection","label":"_operatorApprovals","offset":0,"slot":"7","type":"t_mapping(t_address,t_mapping(t_address,t_bool))"},{"astId":8968,"contract":"contracts/Collection.sol:Collection","label":"_spotMinted","offset":0,"slot":"8","type":"t_uint256"},{"astId":387,"contract":"contracts/Collection.sol:Collection","label":"_owner","offset":0,"slot":"9","type":"t_address"},{"astId":904,"contract":"contracts/Collection.sol:Collection","label":"_paused","offset":20,"slot":"9","type":"t_bool"},{"astId":1014,"contract":"contracts/Collection.sol:Collection","label":"_status","offset":0,"slot":"10","type":"t_uint256"},{"astId":26,"contract":"contracts/Collection.sol:Collection","label":"_roles","offset":0,"slot":"11","type":"t_mapping(t_bytes32,t_struct(RoleData)21_storage)"},{"astId":566,"contract":"contracts/Collection.sol:Collection","label":"_defaultRoyaltyInfo","offset":0,"slot":"12","type":"t_struct(RoyaltyInfo)563_storage"},{"astId":571,"contract":"contracts/Collection.sol:Collection","label":"_tokenRoyaltyInfo","offset":0,"slot":"13","type":"t_mapping(t_uint256,t_struct(RoyaltyInfo)563_storage)"},{"astId":6077,"contract":"contracts/Collection.sol:Collection","label":"_DOMAIN_SEPARATOR","offset":0,"slot":"14","type":"t_bytes32"},{"astId":6079,"contract":"contracts/Collection.sol:Collection","label":"averageBlockTime","offset":0,"slot":"15","type":"t_uint256"},{"astId":6081,"contract":"contracts/Collection.sol:Collection","label":"_baseTokenURI","offset":0,"slot":"16","type":"t_string_storage"},{"astId":6083,"contract":"contracts/Collection.sol:Collection","label":"_contractURI","offset":0,"slot":"17","type":"t_string_storage"},{"astId":6085,"contract":"contracts/Collection.sol:Collection","label":"mintingEnabled","offset":0,"slot":"18","type":"t_bool"},{"astId":6087,"contract":"contracts/Collection.sol:Collection","label":"maxSupply","offset":0,"slot":"19","type":"t_uint256"},{"astId":6089,"contract":"contracts/Collection.sol:Collection","label":"mintPrice","offset":0,"slot":"20","type":"t_uint256"},{"astId":6093,"contract":"contracts/Collection.sol:Collection","label":"_nonces","offset":0,"slot":"21","type":"t_mapping(t_address,t_uint256)"},{"astId":6171,"contract":"contracts/Collection.sol:Collection","label":"globalLockupPeriod","offset":0,"slot":"22","type":"t_uint256"},{"astId":6175,"contract":"contracts/Collection.sol:Collection","label":"lockedAt","offset":0,"slot":"23","type":"t_mapping(t_uint256,t_uint256)"},{"astId":6179,"contract":"contracts/Collection.sol:Collection","label":"unlockScheduledAt","offset":0,"slot":"24","type":"t_mapping(t_uint256,t_uint256)"},{"astId":6183,"contract":"contracts/Collection.sol:Collection","label":"unlockedAt","offset":0,"slot":"25","type":"t_mapping(t_uint256,t_uint256)"},{"astId":7538,"contract":"contracts/Collection.sol:Collection","label":"stakedTokens","offset":0,"slot":"26","type":"t_mapping(t_uint256,t_struct(StakedToken)7533_storage)"},{"astId":8072,"contract":"contracts/Collection.sol:Collection","label":"rewards","offset":0,"slot":"27","type":"t_mapping(t_uint256,t_struct(Reward)8046_storage)"},{"astId":8079,"contract":"contracts/Collection.sol:Collection","label":"claimedRewards","offset":0,"slot":"28","type":"t_mapping(t_uint256,t_mapping(t_uint256,t_struct(ClaimedReward)8067_storage))"},{"astId":8081,"contract":"contracts/Collection.sol:Collection","label":"nextRewardId","offset":0,"slot":"29","type":"t_uint256"}],"types":{"t_address":{"encoding":"inplace","label":"address","numberOfBytes":"20"},"t_bool":{"encoding":"inplace","label":"bool","numberOfBytes":"1"},"t_bytes32":{"encoding":"inplace","label":"bytes32","numberOfBytes":"32"},"t_mapping(t_address,t_bool)":{"encoding":"mapping","key":"t_address","label":"mapping(address => bool)","numberOfBytes":"32","value":"t_bool"},"t_mapping(t_address,t_mapping(t_address,t_bool))":{"encoding":"mapping","key":"t_address","label":"mapping(address => mapping(address => bool))","numberOfBytes":"32","value":"t_mapping(t_address,t_bool)"},"t_mapping(t_address,t_uint256)":{"encoding":"mapping","key":"t_address","label":"mapping(address => uint256)","numberOfBytes":"32","value":"t_uint256"},"t_mapping(t_bytes32,t_struct(RoleData)21_storage)":{"encoding":"mapping","key":"t_bytes32","label":"mapping(bytes32 => struct AccessControl.RoleData)","numberOfBytes":"32","value":"t_struct(RoleData)21_storage"},"t_mapping(t_uint256,t_mapping(t_uint256,t_struct(ClaimedReward)8067_storage))":{"encoding":"mapping","key":"t_uint256","label":"mapping(uint256 => mapping(uint256 => struct Collection.ClaimedReward))","numberOfBytes":"32","value":"t_mapping(t_uint256,t_struct(ClaimedReward)8067_storage)"},"t_mapping(t_uint256,t_struct(ClaimedReward)8067_storage)":{"encoding":"mapping","key":"t_uint256","label":"mapping(uint256 => struct Collection.ClaimedReward)","numberOfBytes":"32","value":"t_struct(ClaimedReward)8067_storage"},"t_mapping(t_uint256,t_struct(Reward)8046_storage)":{"encoding":"mapping","key":"t_uint256","label":"mapping(uint256 => struct Collection.Reward)","numberOfBytes":"32","value":"t_struct(Reward)8046_storage"},"t_mapping(t_uint256,t_struct(RoyaltyInfo)563_storage)":{"encoding":"mapping","key":"t_uint256","label":"mapping(uint256 => struct ERC2981.RoyaltyInfo)","numberOfBytes":"32","value":"t_struct(RoyaltyInfo)563_storage"},"t_mapping(t_uint256,t_struct(StakedToken)7533_storage)":{"encoding":"mapping","key":"t_uint256","label":"mapping(uint256 => struct Collection.StakedToken)","numberOfBytes":"32","value":"t_struct(StakedToken)7533_storage"},"t_mapping(t_uint256,t_struct(TokenApprovalRef)8873_storage)":{"encoding":"mapping","key":"t_uint256","label":"mapping(uint256 => struct ERC721A.TokenApprovalRef)","numberOfBytes":"32","value":"t_struct(TokenApprovalRef)8873_storage"},"t_mapping(t_uint256,t_uint256)":{"encoding":"mapping","key":"t_uint256","label":"mapping(uint256 => uint256)","numberOfBytes":"32","value":"t_uint256"},"t_string_storage":{"encoding":"bytes","label":"string","numberOfBytes":"32"},"t_struct(ClaimedReward)8067_storage":{"encoding":"inplace","label":"struct Collection.ClaimedReward","members":[{"astId":8048,"contract":"contracts/Collection.sol:Collection","label":"rewardId","offset":0,"slot":"0","type":"t_uint256"},{"astId":8050,"contract":"contracts/Collection.sol:Collection","label":"tokenId","offset":0,"slot":"1","type":"t_uint256"},{"astId":8052,"contract":"contracts/Collection.sol:Collection","label":"staker","offset":0,"slot":"2","type":"t_address"},{"astId":8054,"contract":"contracts/Collection.sol:Collection","label":"stakedAt","offset":0,"slot":"3","type":"t_uint256"},{"astId":8056,"contract":"contracts/Collection.sol:Collection","label":"claimedAt","offset":0,"slot":"4","type":"t_uint256"},{"astId":8058,"contract":"contracts/Collection.sol:Collection","label":"isClaimed","offset":0,"slot":"5","type":"t_bool"},{"astId":8060,"contract":"contracts/Collection.sol:Collection","label":"isRevoked","offset":1,"slot":"5","type":"t_bool"},{"astId":8062,"contract":"contracts/Collection.sol:Collection","label":"revokedAt","offset":0,"slot":"6","type":"t_uint256"},{"astId":8064,"contract":"contracts/Collection.sol:Collection","label":"revokedReason","offset":0,"slot":"7","type":"t_string_storage"},{"astId":8066,"contract":"contracts/Collection.sol:Collection","label":"createdAt","offset":0,"slot":"8","type":"t_uint256"}],"numberOfBytes":"288"},"t_struct(Reward)8046_storage":{"encoding":"inplace","label":"struct Collection.Reward","members":[{"astId":8025,"contract":"contracts/Collection.sol:Collection","label":"rewardId","offset":0,"slot":"0","type":"t_uint256"},{"astId":8027,"contract":"contracts/Collection.sol:Collection","label":"rewardType","offset":0,"slot":"1","type":"t_string_storage"},{"astId":8029,"contract":"contracts/Collection.sol:Collection","label":"amount","offset":0,"slot":"2","type":"t_uint256"},{"astId":8031,"contract":"contracts/Collection.sol:Collection","label":"description","offset":0,"slot":"3","type":"t_string_storage"},{"astId":8033,"contract":"contracts/Collection.sol:Collection","label":"isActive","offset":0,"slot":"4","type":"t_bool"},{"astId":8035,"contract":"contracts/Collection.sol:Collection","label":"activeAt","offset":0,"slot":"5","type":"t_uint256"},{"astId":8037,"contract":"contracts/Collection.sol:Collection","label":"deactiveAt","offset":0,"slot":"6","type":"t_uint256"},{"astId":8039,"contract":"contracts/Collection.sol:Collection","label":"claimableStakedTime","offset":0,"slot":"7","type":"t_uint256"},{"astId":8041,"contract":"contracts/Collection.sol:Collection","label":"metadata","offset":0,"slot":"8","type":"t_string_storage"},{"astId":8043,"contract":"contracts/Collection.sol:Collection","label":"functionAbi","offset":0,"slot":"9","type":"t_string_storage"},{"astId":8045,"contract":"contracts/Collection.sol:Collection","label":"createdAt","offset":0,"slot":"10","type":"t_uint256"}],"numberOfBytes":"352"},"t_struct(RoleData)21_storage":{"encoding":"inplace","label":"struct AccessControl.RoleData","members":[{"astId":18,"contract":"contracts/Collection.sol:Collection","label":"hasRole","offset":0,"slot":"0","type":"t_mapping(t_address,t_bool)"},{"astId":20,"contract":"contracts/Collection.sol:Collection","label":"adminRole","offset":0,"slot":"1","type":"t_bytes32"}],"numberOfBytes":"64"},"t_struct(RoyaltyInfo)563_storage":{"encoding":"inplace","label":"struct ERC2981.RoyaltyInfo","members":[{"astId":560,"contract":"contracts/Collection.sol:Collection","label":"receiver","offset":0,"slot":"0","type":"t_address"},{"astId":562,"contract":"contracts/Collection.sol:Collection","label":"royaltyFraction","offset":20,"slot":"0","type":"t_uint96"}],"numberOfBytes":"32"},"t_struct(StakedToken)7533_storage":{"encoding":"inplace","label":"struct Collection.StakedToken","members":[{"astId":7522,"contract":"contracts/Collection.sol:Collection","label":"tokenId","offset":0,"slot":"0","type":"t_uint256"},{"astId":7524,"contract":"contracts/Collection.sol:Collection","label":"staker","offset":0,"slot":"1","type":"t_address"},{"astId":7526,"contract":"contracts/Collection.sol:Collection","label":"stakedAt","offset":0,"slot":"2","type":"t_uint256"},{"astId":7528,"contract":"contracts/Collection.sol:Collection","label":"unstakeScheduledAt","offset":0,"slot":"3","type":"t_uint256"},{"astId":7530,"contract":"contracts/Collection.sol:Collection","label":"unstakedAt","offset":0,"slot":"4","type":"t_uint256"},{"astId":7532,"contract":"contracts/Collection.sol:Collection","label":"isStaked","offset":0,"slot":"5","type":"t_bool"}],"numberOfBytes":"192"},"t_struct(TokenApprovalRef)8873_storage":{"encoding":"inplace","label":"struct ERC721A.TokenApprovalRef","members":[{"astId":8872,"contract":"contracts/Collection.sol:Collection","label":"value","offset":0,"slot":"0","type":"t_address"}],"numberOfBytes":"32"},"t_uint256":{"encoding":"inplace","label":"uint256","numberOfBytes":"32"},"t_uint96":{"encoding":"inplace","label":"uint96","numberOfBytes":"12"}}}}}}