{"contracts/Raffles.sol":{"Raffles":{"abi":[{"inputs":[],"stateMutability":"nonpayable","type":"constructor"},{"inputs":[{"internalType":"address","name":"owner","type":"address"}],"name":"OwnableInvalidOwner","type":"error"},{"inputs":[{"internalType":"address","name":"account","type":"address"}],"name":"OwnableUnauthorizedAccount","type":"error"},{"inputs":[],"name":"ReentrancyGuardReentrantCall","type":"error"},{"anonymous":false,"inputs":[{"indexed":true,"internalType":"address","name":"admin","type":"address"}],"name":"AdminAdded","type":"event"},{"anonymous":false,"inputs":[{"indexed":true,"internalType":"address","name":"admin","type":"address"}],"name":"AdminRemoved","type":"event"},{"anonymous":false,"inputs":[],"name":"ContractPaused","type":"event"},{"anonymous":false,"inputs":[],"name":"ContractUnpaused","type":"event"},{"anonymous":false,"inputs":[{"indexed":true,"internalType":"uint256","name":"resultId","type":"uint256"},{"indexed":true,"internalType":"uint256","name":"raffleId","type":"uint256"},{"indexed":true,"internalType":"address","name":"player","type":"address"},{"indexed":false,"internalType":"uint256","name":"participantId","type":"uint256"},{"indexed":false,"internalType":"uint256","name":"prizeIndex","type":"uint256"},{"indexed":false,"internalType":"bytes32","name":"ticketNumber","type":"bytes32"},{"indexed":false,"internalType":"uint256","name":"randomValue","type":"uint256"},{"indexed":false,"internalType":"uint256","name":"timestamp","type":"uint256"}],"name":"LotteryDrawn","type":"event"},{"anonymous":false,"inputs":[{"indexed":true,"internalType":"address","name":"previousOwner","type":"address"},{"indexed":true,"internalType":"address","name":"newOwner","type":"address"}],"name":"OwnershipTransferred","type":"event"},{"anonymous":false,"inputs":[{"indexed":true,"internalType":"uint256","name":"raffleId","type":"uint256"},{"indexed":true,"internalType":"address","name":"player","type":"address"},{"indexed":false,"internalType":"uint256","name":"participantId","type":"uint256"},{"indexed":false,"internalType":"bytes32","name":"ticketNumber","type":"bytes32"},{"indexed":false,"internalType":"uint256","name":"timestamp","type":"uint256"}],"name":"Participated","type":"event"},{"anonymous":false,"inputs":[{"indexed":true,"internalType":"uint256","name":"raffleId","type":"uint256"},{"indexed":true,"internalType":"address","name":"player","type":"address"},{"indexed":false,"internalType":"uint256","name":"participantId","type":"uint256"},{"indexed":false,"internalType":"uint256","name":"prizeIndex","type":"uint256"},{"indexed":false,"internalType":"uint256","name":"resultId","type":"uint256"},{"indexed":false,"internalType":"uint256","name":"timestamp","type":"uint256"}],"name":"ParticipatedAndDrawn","type":"event"},{"anonymous":false,"inputs":[{"indexed":true,"internalType":"uint256","name":"raffleId","type":"uint256"}],"name":"RaffleCreated","type":"event"},{"anonymous":false,"inputs":[{"indexed":true,"internalType":"uint256","name":"raffleId","type":"uint256"},{"indexed":false,"internalType":"bool","name":"isActive","type":"bool"},{"indexed":true,"internalType":"address","name":"admin","type":"address"}],"name":"RaffleStatusChanged","type":"event"},{"anonymous":false,"inputs":[{"indexed":true,"internalType":"uint256","name":"raffleId","type":"uint256"},{"indexed":true,"internalType":"address","name":"player","type":"address"},{"indexed":true,"internalType":"address","name":"processedBy","type":"address"},{"indexed":false,"internalType":"string","name":"method","type":"string"},{"indexed":false,"internalType":"uint256","name":"timestamp","type":"uint256"}],"name":"RefundProcessed","type":"event"},{"inputs":[{"internalType":"address","name":"admin","type":"address"}],"name":"addAdmin","outputs":[],"stateMutability":"nonpayable","type":"function"},{"inputs":[{"internalType":"address","name":"","type":"address"}],"name":"admins","outputs":[{"internalType":"bool","name":"","type":"bool"}],"stateMutability":"view","type":"function"},{"inputs":[{"internalType":"uint256","name":"raffleId","type":"uint256"},{"internalType":"uint256","name":"startIndex","type":"uint256"},{"internalType":"uint256","name":"maxCount","type":"uint256"}],"name":"batchDraw","outputs":[{"internalType":"uint256[]","name":"","type":"uint256[]"}],"stateMutability":"nonpayable","type":"function"},{"inputs":[{"components":[{"components":[{"internalType":"string","name":"title","type":"string"},{"internalType":"string","name":"description","type":"string"},{"internalType":"string","name":"imageUrl","type":"string"},{"internalType":"string","name":"iconUrl","type":"string"},{"components":[{"internalType":"enum Raffles.PrizeType","name":"prizeType","type":"uint8"},{"internalType":"address","name":"collectionAddress","type":"address"},{"internalType":"uint256","name":"registeredTicketQuantity","type":"uint256"},{"internalType":"uint256","name":"pickedTicketQuantity","type":"uint256"},{"internalType":"uint256","name":"order","type":"uint256"},{"internalType":"uint256","name":"rarity","type":"uint256"},{"internalType":"uint256","name":"prizeQuantity","type":"uint256"},{"internalType":"uint256","name":"startTicketNumber","type":"uint256"},{"internalType":"string","name":"title","type":"string"},{"internalType":"string","name":"description","type":"string"},{"internalType":"string","name":"imageUrl","type":"string"},{"internalType":"string","name":"iconUrl","type":"string"},{"internalType":"string","name":"assetId","type":"string"},{"internalType":"uint256[]","name":"tokenIds","type":"uint256[]"}],"internalType":"struct Raffles.Prize","name":"bestPrize","type":"tuple"}],"internalType":"struct Raffles.RaffleBasicInfo","name":"basicInfo","type":"tuple"},{"components":[{"internalType":"uint256","name":"startDate","type":"uint256"},{"internalType":"uint256","name":"endDate","type":"uint256"},{"internalType":"bool","name":"instantDraw","type":"bool"},{"internalType":"uint256","name":"drawDate","type":"uint256"}],"internalType":"struct Raffles.RaffleTiming","name":"timing","type":"tuple"},{"components":[{"internalType":"bool","name":"dynamicWeight","type":"bool"},{"internalType":"uint256","name":"participationLimit","type":"uint256"},{"internalType":"uint256","name":"participationLimitPerPlayer","type":"uint256"}],"internalType":"struct Raffles.RaffleSettings","name":"settings","type":"tuple"},{"components":[{"internalType":"string","name":"participationFeeAsset","type":"string"},{"internalType":"string","name":"participationFeeAssetId","type":"string"},{"internalType":"int256","name":"participationFeeAmount","type":"int256"}],"internalType":"struct Raffles.RaffleFee","name":"fee","type":"tuple"},{"components":[{"internalType":"enum Raffles.PrizeType","name":"prizeType","type":"uint8"},{"internalType":"address","name":"collectionAddress","type":"address"},{"internalType":"uint256","name":"registeredTicketQuantity","type":"uint256"},{"internalType":"uint256","name":"pickedTicketQuantity","type":"uint256"},{"internalType":"uint256","name":"order","type":"uint256"},{"internalType":"uint256","name":"rarity","type":"uint256"},{"internalType":"uint256","name":"prizeQuantity","type":"uint256"},{"internalType":"uint256","name":"startTicketNumber","type":"uint256"},{"internalType":"string","name":"title","type":"string"},{"internalType":"string","name":"description","type":"string"},{"internalType":"string","name":"imageUrl","type":"string"},{"internalType":"string","name":"iconUrl","type":"string"},{"internalType":"string","name":"assetId","type":"string"},{"internalType":"uint256[]","name":"tokenIds","type":"uint256[]"}],"internalType":"struct Raffles.Prize[]","name":"prizes","type":"tuple[]"}],"internalType":"struct Raffles.RaffleCreateParams","name":"params","type":"tuple"}],"name":"createRaffle","outputs":[{"internalType":"uint256","name":"","type":"uint256"}],"stateMutability":"nonpayable","type":"function"},{"inputs":[{"internalType":"uint256","name":"raffleId","type":"uint256"},{"internalType":"uint256","name":"participantId","type":"uint256"}],"name":"draw","outputs":[{"internalType":"uint256","name":"","type":"uint256"}],"stateMutability":"nonpayable","type":"function"},{"inputs":[{"internalType":"uint256","name":"resultId","type":"uint256"}],"name":"getLotteryResult","outputs":[{"components":[{"internalType":"address","name":"player","type":"address"},{"internalType":"bool","name":"claimed","type":"bool"},{"internalType":"bytes32","name":"lotteryTicketNumber","type":"bytes32"},{"internalType":"uint256","name":"raffleId","type":"uint256"},{"internalType":"uint256","name":"prizeIndex","type":"uint256"},{"internalType":"uint256","name":"drawnAt","type":"uint256"},{"internalType":"uint256","name":"claimedAt","type":"uint256"}],"internalType":"struct Raffles.LotteryResult","name":"","type":"tuple"}],"stateMutability":"view","type":"function"},{"inputs":[{"internalType":"uint256","name":"raffleId","type":"uint256"}],"name":"getRaffle","outputs":[{"components":[{"components":[{"internalType":"string","name":"title","type":"string"},{"internalType":"string","name":"description","type":"string"},{"internalType":"string","name":"imageUrl","type":"string"},{"internalType":"string","name":"iconUrl","type":"string"},{"components":[{"internalType":"enum Raffles.PrizeType","name":"prizeType","type":"uint8"},{"internalType":"address","name":"collectionAddress","type":"address"},{"internalType":"uint256","name":"registeredTicketQuantity","type":"uint256"},{"internalType":"uint256","name":"pickedTicketQuantity","type":"uint256"},{"internalType":"uint256","name":"order","type":"uint256"},{"internalType":"uint256","name":"rarity","type":"uint256"},{"internalType":"uint256","name":"prizeQuantity","type":"uint256"},{"internalType":"uint256","name":"startTicketNumber","type":"uint256"},{"internalType":"string","name":"title","type":"string"},{"internalType":"string","name":"description","type":"string"},{"internalType":"string","name":"imageUrl","type":"string"},{"internalType":"string","name":"iconUrl","type":"string"},{"internalType":"string","name":"assetId","type":"string"},{"internalType":"uint256[]","name":"tokenIds","type":"uint256[]"}],"internalType":"struct Raffles.Prize","name":"bestPrize","type":"tuple"}],"internalType":"struct Raffles.RaffleBasicInfo","name":"basicInfo","type":"tuple"},{"components":[{"internalType":"uint256","name":"startDate","type":"uint256"},{"internalType":"uint256","name":"endDate","type":"uint256"},{"internalType":"bool","name":"instantDraw","type":"bool"},{"internalType":"uint256","name":"drawDate","type":"uint256"}],"internalType":"struct Raffles.RaffleTiming","name":"timing","type":"tuple"},{"components":[{"internalType":"bool","name":"dynamicWeight","type":"bool"},{"internalType":"uint256","name":"participationLimit","type":"uint256"},{"internalType":"uint256","name":"participationLimitPerPlayer","type":"uint256"}],"internalType":"struct Raffles.RaffleSettings","name":"settings","type":"tuple"},{"components":[{"internalType":"string","name":"participationFeeAsset","type":"string"},{"internalType":"string","name":"participationFeeAssetId","type":"string"},{"internalType":"int256","name":"participationFeeAmount","type":"int256"}],"internalType":"struct Raffles.RaffleFee","name":"fee","type":"tuple"},{"components":[{"internalType":"bool","name":"isActive","type":"bool"},{"internalType":"bool","name":"isDrawn","type":"bool"},{"internalType":"uint256","name":"totalQuantity","type":"uint256"},{"internalType":"uint256","name":"drawnParticipantCount","type":"uint256"}],"internalType":"struct Raffles.RaffleStatus","name":"status","type":"tuple"},{"components":[{"internalType":"enum Raffles.PrizeType","name":"prizeType","type":"uint8"},{"internalType":"address","name":"collectionAddress","type":"address"},{"internalType":"uint256","name":"registeredTicketQuantity","type":"uint256"},{"internalType":"uint256","name":"pickedTicketQuantity","type":"uint256"},{"internalType":"uint256","name":"order","type":"uint256"},{"internalType":"uint256","name":"rarity","type":"uint256"},{"internalType":"uint256","name":"prizeQuantity","type":"uint256"},{"internalType":"uint256","name":"startTicketNumber","type":"uint256"},{"internalType":"string","name":"title","type":"string"},{"internalType":"string","name":"description","type":"string"},{"internalType":"string","name":"imageUrl","type":"string"},{"internalType":"string","name":"iconUrl","type":"string"},{"internalType":"string","name":"assetId","type":"string"},{"internalType":"uint256[]","name":"tokenIds","type":"uint256[]"}],"internalType":"struct Raffles.Prize[]","name":"prizes","type":"tuple[]"}],"internalType":"struct Raffles.Raffle","name":"","type":"tuple"}],"stateMutability":"view","type":"function"},{"inputs":[{"internalType":"uint256","name":"raffleId","type":"uint256"}],"name":"getRaffleCoreInfo","outputs":[{"components":[{"internalType":"string","name":"title","type":"string"},{"internalType":"string","name":"imageUrl","type":"string"},{"internalType":"string","name":"iconUrl","type":"string"},{"internalType":"uint256","name":"startDate","type":"uint256"},{"internalType":"uint256","name":"endDate","type":"uint256"},{"internalType":"uint256","name":"drawDate","type":"uint256"},{"internalType":"bool","name":"instantDraw","type":"bool"},{"internalType":"uint256","name":"participationLimit","type":"uint256"},{"internalType":"uint256","name":"participationLimitPerPlayer","type":"uint256"},{"internalType":"string","name":"participationFeeAssetId","type":"string"},{"internalType":"int256","name":"participationFeeAmount","type":"int256"},{"internalType":"uint256","name":"raffleId","type":"uint256"},{"internalType":"bool","name":"isActive","type":"bool"},{"internalType":"bool","name":"isDrawn","type":"bool"},{"internalType":"uint256","name":"totalQuantity","type":"uint256"},{"internalType":"uint256","name":"participationCount","type":"uint256"},{"components":[{"internalType":"enum Raffles.PrizeType","name":"prizeType","type":"uint8"},{"internalType":"address","name":"collectionAddress","type":"address"},{"internalType":"uint256","name":"registeredTicketQuantity","type":"uint256"},{"internalType":"uint256","name":"pickedTicketQuantity","type":"uint256"},{"internalType":"uint256","name":"order","type":"uint256"},{"internalType":"uint256","name":"rarity","type":"uint256"},{"internalType":"uint256","name":"prizeQuantity","type":"uint256"},{"internalType":"uint256","name":"startTicketNumber","type":"uint256"},{"internalType":"string","name":"title","type":"string"},{"internalType":"string","name":"description","type":"string"},{"internalType":"string","name":"imageUrl","type":"string"},{"internalType":"string","name":"iconUrl","type":"string"},{"internalType":"string","name":"assetId","type":"string"},{"internalType":"uint256[]","name":"tokenIds","type":"uint256[]"}],"internalType":"struct Raffles.Prize","name":"defaultBestPrize","type":"tuple"},{"components":[{"internalType":"enum Raffles.PrizeType","name":"prizeType","type":"uint8"},{"internalType":"address","name":"collectionAddress","type":"address"},{"internalType":"uint256","name":"registeredTicketQuantity","type":"uint256"},{"internalType":"uint256","name":"pickedTicketQuantity","type":"uint256"},{"internalType":"uint256","name":"order","type":"uint256"},{"internalType":"uint256","name":"rarity","type":"uint256"},{"internalType":"uint256","name":"prizeQuantity","type":"uint256"},{"internalType":"uint256","name":"startTicketNumber","type":"uint256"},{"internalType":"string","name":"title","type":"string"},{"internalType":"string","name":"description","type":"string"},{"internalType":"string","name":"imageUrl","type":"string"},{"internalType":"string","name":"iconUrl","type":"string"},{"internalType":"string","name":"assetId","type":"string"},{"internalType":"uint256[]","name":"tokenIds","type":"uint256[]"}],"internalType":"struct Raffles.Prize","name":"currentBestPrize","type":"tuple"}],"internalType":"struct Raffles.RaffleCoreInfo","name":"","type":"tuple"}],"stateMutability":"view","type":"function"},{"inputs":[{"internalType":"uint256","name":"raffleId","type":"uint256"}],"name":"getRaffleParticipants","outputs":[{"internalType":"uint256[]","name":"","type":"uint256[]"}],"stateMutability":"view","type":"function"},{"inputs":[{"internalType":"uint256","name":"raffleId","type":"uint256"},{"internalType":"address","name":"player","type":"address"}],"name":"getUserParticipationDetails","outputs":[{"components":[{"internalType":"uint256","name":"participationCount","type":"uint256"},{"components":[{"internalType":"uint256","name":"participantId","type":"uint256"},{"internalType":"bytes32","name":"ticketNumber","type":"bytes32"},{"internalType":"uint256","name":"participatedAt","type":"uint256"},{"internalType":"bool","name":"hasLotteryResult","type":"bool"},{"internalType":"uint256","name":"resultId","type":"uint256"},{"internalType":"uint256","name":"prizeIndex","type":"uint256"},{"internalType":"bool","name":"claimed","type":"bool"},{"internalType":"uint256","name":"drawnAt","type":"uint256"},{"internalType":"uint256","name":"claimedAt","type":"uint256"}],"internalType":"struct Raffles.UserParticipationDetail[]","name":"participations","type":"tuple[]"}],"internalType":"struct Raffles.UserParticipationInfo","name":"","type":"tuple"}],"stateMutability":"view","type":"function"},{"inputs":[{"internalType":"address","name":"account","type":"address"}],"name":"isAdmin","outputs":[{"internalType":"bool","name":"","type":"bool"}],"stateMutability":"view","type":"function"},{"inputs":[{"internalType":"uint256","name":"","type":"uint256"}],"name":"lotteryResults","outputs":[{"internalType":"address","name":"player","type":"address"},{"internalType":"bool","name":"claimed","type":"bool"},{"internalType":"bytes32","name":"lotteryTicketNumber","type":"bytes32"},{"internalType":"uint256","name":"raffleId","type":"uint256"},{"internalType":"uint256","name":"prizeIndex","type":"uint256"},{"internalType":"uint256","name":"drawnAt","type":"uint256"},{"internalType":"uint256","name":"claimedAt","type":"uint256"}],"stateMutability":"view","type":"function"},{"inputs":[],"name":"owner","outputs":[{"internalType":"address","name":"","type":"address"}],"stateMutability":"view","type":"function"},{"inputs":[{"internalType":"uint256","name":"","type":"uint256"}],"name":"participants","outputs":[{"internalType":"address","name":"player","type":"address"},{"internalType":"uint256","name":"raffleId","type":"uint256"},{"internalType":"bytes32","name":"lotteryTicketNumber","type":"bytes32"},{"internalType":"uint256","name":"participatedAt","type":"uint256"}],"stateMutability":"view","type":"function"},{"inputs":[{"internalType":"uint256","name":"raffleId","type":"uint256"},{"internalType":"address","name":"player","type":"address"}],"name":"participate","outputs":[{"internalType":"uint256","name":"","type":"uint256"}],"stateMutability":"nonpayable","type":"function"},{"inputs":[{"internalType":"uint256","name":"raffleId","type":"uint256"},{"internalType":"address","name":"player","type":"address"}],"name":"participateAndDraw","outputs":[{"internalType":"uint256","name":"participantId","type":"uint256"},{"internalType":"uint256","name":"prizeIndex","type":"uint256"},{"internalType":"uint256","name":"resultId","type":"uint256"}],"stateMutability":"nonpayable","type":"function"},{"inputs":[],"name":"paused","outputs":[{"internalType":"bool","name":"","type":"bool"}],"stateMutability":"view","type":"function"},{"inputs":[{"internalType":"uint256","name":"","type":"uint256"},{"internalType":"address","name":"","type":"address"},{"internalType":"uint256","name":"","type":"uint256"}],"name":"playerParticipantIds","outputs":[{"internalType":"uint256","name":"","type":"uint256"}],"stateMutability":"view","type":"function"},{"inputs":[{"internalType":"uint256","name":"","type":"uint256"},{"internalType":"address","name":"","type":"address"}],"name":"playerParticipationCount","outputs":[{"internalType":"uint256","name":"","type":"uint256"}],"stateMutability":"view","type":"function"},{"inputs":[{"internalType":"uint256","name":"raffleId","type":"uint256"},{"internalType":"address","name":"player","type":"address"},{"internalType":"string","name":"method","type":"string"}],"name":"processRefund","outputs":[],"stateMutability":"nonpayable","type":"function"},{"inputs":[{"internalType":"uint256","name":"","type":"uint256"},{"internalType":"uint256","name":"","type":"uint256"}],"name":"raffleParticipants","outputs":[{"internalType":"uint256","name":"","type":"uint256"}],"stateMutability":"view","type":"function"},{"inputs":[{"internalType":"uint256","name":"","type":"uint256"}],"name":"raffles","outputs":[{"components":[{"internalType":"string","name":"title","type":"string"},{"internalType":"string","name":"description","type":"string"},{"internalType":"string","name":"imageUrl","type":"string"},{"internalType":"string","name":"iconUrl","type":"string"},{"components":[{"internalType":"enum Raffles.PrizeType","name":"prizeType","type":"uint8"},{"internalType":"address","name":"collectionAddress","type":"address"},{"internalType":"uint256","name":"registeredTicketQuantity","type":"uint256"},{"internalType":"uint256","name":"pickedTicketQuantity","type":"uint256"},{"internalType":"uint256","name":"order","type":"uint256"},{"internalType":"uint256","name":"rarity","type":"uint256"},{"internalType":"uint256","name":"prizeQuantity","type":"uint256"},{"internalType":"uint256","name":"startTicketNumber","type":"uint256"},{"internalType":"string","name":"title","type":"string"},{"internalType":"string","name":"description","type":"string"},{"internalType":"string","name":"imageUrl","type":"string"},{"internalType":"string","name":"iconUrl","type":"string"},{"internalType":"string","name":"assetId","type":"string"},{"internalType":"uint256[]","name":"tokenIds","type":"uint256[]"}],"internalType":"struct Raffles.Prize","name":"bestPrize","type":"tuple"}],"internalType":"struct Raffles.RaffleBasicInfo","name":"basicInfo","type":"tuple"},{"components":[{"internalType":"uint256","name":"startDate","type":"uint256"},{"internalType":"uint256","name":"endDate","type":"uint256"},{"internalType":"bool","name":"instantDraw","type":"bool"},{"internalType":"uint256","name":"drawDate","type":"uint256"}],"internalType":"struct Raffles.RaffleTiming","name":"timing","type":"tuple"},{"components":[{"internalType":"bool","name":"dynamicWeight","type":"bool"},{"internalType":"uint256","name":"participationLimit","type":"uint256"},{"internalType":"uint256","name":"participationLimitPerPlayer","type":"uint256"}],"internalType":"struct Raffles.RaffleSettings","name":"settings","type":"tuple"},{"components":[{"internalType":"string","name":"participationFeeAsset","type":"string"},{"internalType":"string","name":"participationFeeAssetId","type":"string"},{"internalType":"int256","name":"participationFeeAmount","type":"int256"}],"internalType":"struct Raffles.RaffleFee","name":"fee","type":"tuple"},{"components":[{"internalType":"bool","name":"isActive","type":"bool"},{"internalType":"bool","name":"isDrawn","type":"bool"},{"internalType":"uint256","name":"totalQuantity","type":"uint256"},{"internalType":"uint256","name":"drawnParticipantCount","type":"uint256"}],"internalType":"struct Raffles.RaffleStatus","name":"status","type":"tuple"}],"stateMutability":"view","type":"function"},{"inputs":[{"internalType":"address","name":"admin","type":"address"}],"name":"removeAdmin","outputs":[],"stateMutability":"nonpayable","type":"function"},{"inputs":[],"name":"renounceOwnership","outputs":[],"stateMutability":"nonpayable","type":"function"},{"inputs":[{"internalType":"bool","name":"_paused","type":"bool"}],"name":"setPaused","outputs":[],"stateMutability":"nonpayable","type":"function"},{"inputs":[{"internalType":"uint256","name":"raffleId","type":"uint256"},{"internalType":"bool","name":"_isActive","type":"bool"}],"name":"setRaffleActive","outputs":[],"stateMutability":"nonpayable","type":"function"},{"inputs":[{"internalType":"bytes32","name":"","type":"bytes32"}],"name":"ticketToResultId","outputs":[{"internalType":"uint256","name":"","type":"uint256"}],"stateMutability":"view","type":"function"},{"inputs":[{"internalType":"address","name":"newOwner","type":"address"}],"name":"transferOwnership","outputs":[],"stateMutability":"nonpayable","type":"function"}],"evm":{"bytecode":{"linkReferences":{},"object":"608060405234610022576100116100d1565b60405161542761024c823961542790f35b600080fd5b90600019905b9181191691161790565b6100446100446100449290565b90565b9061005761004461005e92610037565b8254610027565b9055565b61004490610076906001600160a01b031682565b6001600160a01b031690565b61004490610062565b61004490610082565b9061009e9061008b565b600052602052604060002090565b9060ff9061002d565b151590565b906100ca61004461005e926100b5565b82546100ac565b6100da33610145565b61011060016100ea816003610047565b6100f5816005610047565b61010081600b610047565b61010b33600d610094565b6100ba565b565b6100766100446100449290565b61004490610112565b61013190610076565b9052565b6020810192916101109190610128565b61014d610197565b60006101588161011f565b61016181610076565b61016a84610076565b1461017a575050610110906101f4565b631e4fbdf760e01b825281906101939060048301610135565b0390fd5b6101106101a9565b6100446001610037565b6101106101b461019f565b6000610047565b61004490610076565b61004490546101bb565b906001600160a01b039061002d565b906101ed61004461005e9261008b565b82546101ce565b61021a61021461020460016101c4565b61020f8460016101dd565b61008b565b9161008b565b907f8be0079c531659141344cd1fd0a4f28419497f9722a3daafe3b4186f6b6457e061024560405190565b600090a356fe610100604052600436101561001357600080fd5b60003560e01c806309b50a07146101d357806313b18640146101ce57806316c38b3c146101c95780631785f53c146101c45780631b43d038146101bf57806324d7806c146101ba57806335c1d349146101b55780633f35c93b146101b0578063429b62e5146101ab5780635c975abb146101a65780635d4bc0ce146101a1578063704802751461019c578063715018a6146101975780637cafa47a146101925780638772d2dd1461018d5780638d5a8e70146101885780638da5cb5b1461018357806390409bd51461017e5780639d06f11214610179578063a6e3295b14610174578063b08b3a511461016f578063b1ddd82a1461016a578063cc7a2a0414610165578063d2b8035a14610160578063e354c3581461015b578063e4dafec914610156578063f2fde38b146101515763fbb7c22d036101d857611c0c565b611be0565b611bb9565b611a9b565b611a56565b611a2f565b6118c0565b611865565b61178c565b611724565b6116ba565b611590565b611574565b6114af565b611415565b6113df565b6113c7565b611396565b610b36565b610b04565b610a8a565b610a36565b610968565b61094d565b61033b565b61030a565b6102c5565b61024b565b600080fd5b805b036101d857565b905035906101f3826101dd565b565b906020828203126101d857610209916101e6565b90565b905b600052602052604060002090565b610209916008021c81565b90610209915461021c565b600061024261020992600961020c565b610227565b9052565b346101d8576102766102666102613660046101f5565b610232565b6040519182918290815260200190565b0390f35b6001600160a01b031690565b6001600160a01b0381166101df565b905035906101f382610286565b91906040838203126101d8576102099060206102be82866101e6565b9401610295565b346101d8576102766102666102db3660046102a2565b90611f4a565b8015156101df565b905035906101f3826102e1565b906020828203126101d857610209916102e9565b346101d85761032261031d3660046102f6565b611ff1565b604051005b906020828203126101d85761020991610295565b346101d85761032261034e366004610327565b6121a4565b634e487b7160e01b600052604160045260246000fd5b90601f01601f1916810190811067ffffffffffffffff82111761038b57604052565b610353565b906101f361039d60405190565b9283610369565b67ffffffffffffffff811161038b57602090601f01601f19160190565b0190565b90826000939282370152565b909291926103e66103e1826103a4565b610390565b93818552818301116101d8576101f39160208501906103c5565b9080601f830112156101d857816020610209933591016103d1565b600411156101d857565b905035906101f38261041b565b67ffffffffffffffff811161038b5760208091020190565b9092919261045a6103e182610432565b93818552602080860192028301928184116101d857915b83831061047e5750505050565b6020809161048c84866101e6565b815201920191610471565b9080601f830112156101d8578160206102099335910161044a565b9190916101c0818403126101d8576104cb6101c0610390565b926104d68183610425565b84526104e58160208401610295565b60208501526104f781604084016101e6565b604085015261050981606084016101e6565b606085015261051b81608084016101e6565b608085015261052d8160a084016101e6565b60a085015261053f8160c084016101e6565b60c08501526105518160e084016101e6565b60e085015261010082013567ffffffffffffffff81116101d85781610577918401610400565b61010085015261012082013567ffffffffffffffff81116101d8578161059e918401610400565b61012085015261014082013567ffffffffffffffff81116101d857816105c5918401610400565b61014085015261016082013567ffffffffffffffff81116101d857816105ec918401610400565b61016085015261018082013567ffffffffffffffff81116101d85781610613918401610400565b6101808501526101a082013567ffffffffffffffff81116101d8576106389201610497565b6101a0830152565b91909160a0818403126101d85761065760a0610390565b92813567ffffffffffffffff81116101d85781610675918401610400565b8452602082013567ffffffffffffffff81116101d85781610697918401610400565b6020850152604082013567ffffffffffffffff81116101d857816106bc918401610400565b6040850152606082013567ffffffffffffffff81116101d857816106e1918401610400565b6060850152608082013567ffffffffffffffff81116101d85761070492016104b2565b6080830152565b91906080838203126101d85761075e9060606107276080610390565b9461073283826101e6565b865261074183602083016101e6565b602087015261075383604083016102e9565b6040870152016101e6565b6060830152565b91906060838203126101d8576107a69060406107816060610390565b9461078c83826102e9565b865261079b83602083016101e6565b6020870152016101e6565b6040830152565b9190916060818403126101d8576107c46060610390565b92813567ffffffffffffffff81116101d857816107e2918401610400565b8452602082013567ffffffffffffffff81116101d8578261079b836040936107a69601610400565b9291906108196103e182610432565b93818552602080860192028101918383116101d85781905b83821061083f575050505050565b813567ffffffffffffffff81116101d85760209161086087849387016104b2565b815201910190610831565b9080601f830112156101d8578160206102099335910161080a565b919091610140818403126101d85761089e60a0610390565b92813567ffffffffffffffff81116101d857816108bc918401610640565b84526108cb816020840161070b565b60208501526108dd8160a08401610765565b604085015261010082013567ffffffffffffffff81116101d857816109039184016107ad565b606085015261012082013567ffffffffffffffff81116101d857610704920161086b565b906020828203126101d857813567ffffffffffffffff81116101d8576102099201610886565b346101d857610276610266610963366004610927565b612a3d565b346101d85761027661098361097e366004610327565b612a48565b6040515b91829182901515815260200190565b6102096102096102099290565b9061020e90610996565b6102099081565b61020990546109ad565b6109c99060046109a3565b906109db82546001600160a01b031690565b916109e8600182016109b4565b9161020960036109fa600285016109b4565b93016109b4565b610a326101f3946107a6606094989795610a2b608086019a60008701906001600160a01b03169052565b6020850152565b0152565b346101d857610276610a51610a4c3660046101f5565b6109be565b90610a5e94929460405190565b94859485610a01565b91906040838203126101d857610209906020610a8382866101e6565b94016102e9565b346101d857610322610a9d366004610a67565b90612c08565b61027a610209610209926001600160a01b031690565b61020990610aa3565b61020990610ab9565b9061020e90610ac2565b610209916008021c5b60ff1690565b906102099154610ad5565b6000610aff61020992600d610acb565b610ae4565b346101d857610276610983610b1a366004610327565b610aef565b60009103126101d857565b6102096000600c610ae4565b346101d857610b46366004610b1f565b610276610983610b2a565b634e487b7160e01b600052602260045260246000fd5b9060016002830492168015610b87575b6020831014610b8257565b610b51565b91607f1691610b77565b80546000939291610bae610ba483610b67565b8085529360200190565b9160018116908115610c005750600114610bc757505050565b610bda9192939450600052602060002090565b916000925b818410610bec5750500190565b805484840152602090930192600101610bdf565b92949550505060ff1916825215156020020190565b9061020991610b91565b906101f3610c3992610c3060405190565b93848092610c15565b0383610369565b61020990610ade565b6102099054610c40565b634e487b7160e01b600052602160045260246000fd5b60041115610c7357565b610c53565b906101f382610c69565b9061024790610c78565b6102099060081c61027a565b6102099054610c8c565b90610cc7610cbb610cb1845490565b8084529260200190565b92600052602060002090565b9060005b818110610cd85750505090565b909192610cfc610cf5600192610ced876109b4565b815260200190565b9460010190565b929101610ccb565b9061020991610ca2565b906101f3610c3992610d1f60405190565b93848092610d04565b6102096101c0610390565b906101f3610e70600c610d44610d28565b94610d57610d5182610c49565b87610c82565b610d73610d6382610c98565b6001600160a01b03166020880152565b610d89610d82600183016109b4565b6040880152565b610d9f610d98600283016109b4565b6060880152565b610db5610dae600383016109b4565b6080880152565b610dcb610dc4600483016109b4565b60a0880152565b610de1610dda600583016109b4565b60c0880152565b610df7610df0600683016109b4565b60e0880152565b610e0e610e0660078301610c1f565b610100880152565b610e25610e1d60088301610c1f565b610120880152565b610e3c610e3460098301610c1f565b610140880152565b610e53610e4b600a8301610c1f565b610160880152565b610e6a610e62600b8301610c1f565b610180880152565b01610d0e565b6101a0840152565b61020960a0610390565b906101f3610ede6004610e93610e78565b94610ea4610ea082610c1f565b8752565b610eba610eb360018301610c1f565b6020880152565b610ec9610d8260028301610c1f565b610ed8610d9860038301610c1f565b01610d33565b6080840152565b6102096080610390565b906101f3610f3a6003610f00610ee5565b94610f0d610ea0826109b4565b610f1c610eb3600183016109b4565b610f34610f2b60028301610c49565b15156040880152565b016109b4565b6060840152565b6102096060610390565b906101f3610f7e6002610f5c610f41565b94610f6f610f6982610c49565b15158752565b610f34610eb3600183016109b4565b6040840152565b906101f3610f7e6002610f96610f41565b94610fa3610ea082610c1f565b610f34610eb360018301610c1f565b6102099060081c610ade565b6102099054610fb2565b906101f3610f3a6002610fd9610ee5565b94610fe6610f6982610c49565b610ffb610ff282610fbe565b15156020880152565b610f34610d82600183016109b4565b6110159060026109a3565b61101e81610e82565b9161102b60118301610eef565b9161103860158201610f4b565b91610209601b61104a60188501610f85565b9301610fc8565b60005b8381106110645750506000910152565b8181015183820152602001611054565b61109561109e6020936103c193611089815190565b80835293849260200190565b95869101611051565b601f01601f191690565b61020990610c78565b610247906110a8565b906110d06110c9610cb1845190565b9260200190565b9060005b8181106110e15750505090565b9091926110fe6110f76001928651815260200190565b9460200190565b9291016110d4565b610209916101a06112046111f06111dc6111c86111b46101c0870161113360008a015160008a01906110b1565b6020898101516001600160a01b03169089015261115560408a015160408a0152565b61116460608a015160608a0152565b61117360808a015160808a0152565b61118260a08a015160a08a0152565b61119160c08a015160c08a0152565b6111a060e08a015160e08a0152565b6101008901518882036101008a0152611074565b610120880151878203610120890152611074565b610140870151868203610140880152611074565b610160860151858203610160870152611074565b610180850151848203610180860152611074565b920151906101a08184039101526110ba565b61020991608061127461126261125061123e60a0860160008801518782036000890152611074565b60208701518682036020880152611074565b60408601518582036040870152611074565b60608501518482036060860152611074565b920151906080818403910152611106565b805182526101f3919060609081906112a260208201516020860152565b6040818101511515908501525b0151910152565b8051151582526101f3919060409081906112af60208201516020860152565b906102099060408061130b6112f96060850160008801518682036000880152611074565b60208701518582036020870152611074565b940151910152565b8051151582526101f3919060609081906020818101511515908501526112af60408201516040860152565b959492916101f3946113806101209461137661136b61138e966101a08d01908d6000818403910152611216565b9460208c0190611285565b60a08a01906112b6565b8782036101008901526112d5565b940190611313565b346101d8576102766113b16113ac3660046101f5565b61100a565b916113be95939560405190565b9586958661133e565b346101d8576103226113da366004610327565b612cc6565b346101d8576113ef366004610b1f565b610322612cec565b9081526060810193926101f3929091604091610a32905b6020830152565b346101d85761027661143161142b3660046102a2565b9061321e565b604051919391938493846113f7565b80516001600160a01b031682526101f3919060c090819060208181015115159085015261147260408201516040860152565b61148160608201516060860152565b61149060808201516080860152565b6112af60a082015160a0860152565b60e0810192916101f39190611440565b346101d8576102766114ca6114c53660046101f5565b6132f1565b6040519182918261149f565b90916060828403126101d8576102096114ef84846101e6565b9360406114ff8260208701610295565b94016101e6565b634e487b7160e01b600052603260045260246000fd5b805482101561153f57611536600191600052602060002090565b91020190600090565b611506565b906115536115589260086109a3565b610acb565b80548210156101d8576102099161156e9161151c565b90610227565b346101d85761027661026661158a3660046114d6565b91611544565b346101d8576115a0366004610b1f565b6102766115b56001546001600160a01b031690565b604051918291826001600160a01b03909116815260200190565b805182526101f391906101009081906115ed60208201516020860152565b6115fc60408201516040860152565b60608181015115159085015261161760808201516080860152565b61162660a082015160a0860152565b60c0818101511515908501526112af60e082015160e0860152565b906103c181610120936115cf565b9061165e6110c9610cb1845190565b9060005b81811061166f5750505090565b9091926116826110f76001928651611641565b929101611662565b805182526102099160408101916020015190602081840391015261164f565b60208082526102099291019061168a565b346101d8576102766116d66116d03660046102a2565b906133ee565b604051918291826116a9565b916060838303126101d8576116f782846101e6565b926117058360208301610295565b92604082013567ffffffffffffffff81116101d8576102099201610400565b346101d8576103226117373660046116e2565b91613825565b9061174c6110c9610cb1845190565b9060005b81811061175d5750505090565b9091926117736110f76001928651815260200190565b929101611750565b60208082526102099291019061173d565b346101d8576102766117a76117a23660046101f5565b613830565b6040519182918261177b565b6102099060a01c610ade565b61020990546117b3565b6117d490600a6109a3565b80546001600160a01b0316916117e9826117bf565b916117f6600182016109b4565b91611803600283016109b4565b91611810600382016109b4565b9161020960056109fa600485016109b4565b949290979695939160e086019860008701611844916001600160a01b03169052565b1515602086015260408501526060840152608083015260a082015260c00152565b346101d85761027661188061187b3660046101f5565b6117c9565b9361189097959793919360405190565b97889788611822565b91906040838203126101d8576102099060206114ff82866101e6565b6115589060066109a3565b346101d8576102766102666118d6366004611899565b906118b5565b61020991610220611a0c61199a61192d61191b6119096102408701600089015188820360008a0152611074565b60208801518782036020890152611074565b60408701518682036040880152611074565b61193c60608701516060870152565b61194b60808701516080870152565b61195a60a087015160a0870152565b60c08681015115159086015261197560e087015160e0870152565b611986610100870151610100870152565b610120860151858203610120870152611074565b6119ab610140860151610140860152565b6119bc610160860151610160860152565b610180858101511515908501526101a0858101511515908501526119e76101c08601516101c0860152565b6119f86101e08601516101e0860152565b610200850151848203610200860152611106565b92015190610220818403910152611106565b6020808252610209929101906118dc565b346101d857610276611a4a611a453660046101f5565b613966565b60405191829182611a1e565b346101d857610276610266611a6c366004611899565b90613ca7565b90916060828403126101d857610209611a8b84846101e6565b9360406114ff82602087016101e6565b346101d8576102766117a7611ab1366004611a72565b91613fd6565b9061020991611106565b90611ad7611acd835190565b8083529160200190565b9081611ae96020830284019460200190565b926000915b838310611afd57505050505090565b90919293946020611b20611b1983856001950387528951611ab7565b9760200190565b9301930191939290611aee565b80516101c0808452610209939160a091611b8391611b4d91850190611216565b611b5f60208601516020860190611285565b611b706040860151848601906112b6565b60608501518482036101008601526112d5565b92611b976080820151610120850190611313565b0151906101a0818403910152611ac1565b602080825261020992910190611b2d565b346101d857610276611bd4611bcf3660046101f5565b61419a565b60405191829182611ba8565b346101d857610322611bf3366004610327565b614237565b6102426102099261155360009360076109a3565b346101d857610276610266611c223660046102a2565b90611bf8565b90611c3b9291611c3661424a565b611c90565b906101f361428a565b15611c4b57565b60405162461bcd60e51b815260206004820152601260248201527f436f6e74726163742069732070617573656400000000000000000000000000006044820152606490fd5b906102099291611caf611caa611ca6600c610c49565b1590565b611c44565b611e1a565b634e487b7160e01b600052601160045260246000fd5b6000198114611cd95760010190565b611cb4565b90600019905b9181191691161790565b90611cfe610209611d0592610996565b8254611cde565b9055565b634e487b7160e01b600052600060045260246000fd5b906001600160a01b0390611ce4565b90611d3e610209611d0592610ac2565b8254611d1f565b90611cfe610209611d059290565b6003611dae60606101f394611d7b611d7560008301516001600160a01b031690565b86611d2e565b611d92611d89602083015190565b60018701611cee565b611da9611da0604083015190565b60028701611d45565b015190565b9101611cee565b906101f391611d53565b9160001960089290920291821b911b611ce4565b9190611de4610209611d0593610996565b908354611dbf565b908154916801000000000000000083101561038b5782611e149160016101f39501815561151c565b90611dd3565b5090611e28600082846143cc565b611e3c611e3560056109b4565b8383614552565b907fc3013841eb45dbf48e54bccdbdfca27c812fe5016e531d0ff451032d38369c6f611f44611f2e611f28611e7160056109b4565b96611e85611e7e89611cca565b6005611cee565b611ecd611e90610ee5565b6001600160a01b0388168152611ea7836020830152565b611eb2896040830152565b611ebd426060830152565b611ec88a60046109a3565b611db5565b611ee488611edf6102098460066109a3565b611dec565b611f0d611ef6876115538460076109a3565b611f07611f02826109b4565b611cca565b90611cee565b611f2388611edf610209896115538660086109a3565b610996565b93610ac2565b93611f3860405190565b918291429088846113f7565b0390a390565b61020991906000611c28565b6101f390611f626145b6565b611f87565b9060ff90611ce4565b90611f80610209611d0592151590565b8254611f67565b611f9281600c611f70565b15611fc7577fab35696f06e428ebc5ceba8cd17f8fed287baf43440206d1943af1ee53e6d267611fc160405190565b600090a1565b7f0e5e3b3fb504c22cf5c42fa07d521225937514c654007e1f12646f89768d6f94611fc160405190565b6101f390611f56565b6101f3906120066145b6565b6120f1565b61027a6102096102099290565b6102099061200b565b1561202857565b60405162461bcd60e51b815260206004820152600f60248201527f494e56414c49445f4144445245535300000000000000000000000000000000006044820152606490fd5b1561207457565b60405162461bcd60e51b81526020600482015260096024820152682727aa2fa0a226a4a760b91b6044820152606490fd5b156120ac57565b60405162461bcd60e51b815260206004820152601360248201527f43414e4e4f545f52454d4f56455f4f574e4552000000000000000000000000006044820152606490fd5b6121749061211661210561027a6000612018565b6001600160a01b0383161415612021565b61213161212c61212783600d610acb565b610c49565b61206d565b61215a61214961027a6001546001600160a01b031690565b6001600160a01b03831614156120a5565b61216f600061216a83600d610acb565b611f70565b610ac2565b7fa3b62bc36326052d97ea62d63c3d60308ed4c3ea8ac079dd8499f1e9c4f80c0f61219e60405190565b600090a2565b6101f390611ffa565b156121b457565b60405162461bcd60e51b815260206004820152600e60248201527f4e6f7420417574686f72697a65640000000000000000000000000000000000006044820152606490fd5b906102099161221461220f61212733600d610acb565b6121ad565b9061020991612229611caa611ca6600c610c49565b6128a0565b1561223557565b60405162461bcd60e51b815260206004820152600e60248201527f5449544c455f52455155495245440000000000000000000000000000000000006044820152606490fd5b1561228157565b60405162461bcd60e51b815260206004820152600c60248201526b494e56414c49445f4441544560a01b6044820152606490fd5b156122bc57565b60405162461bcd60e51b815260206004820152600f60248201527f445241575f4245464f52455f454e4400000000000000000000000000000000006044820152606490fd5b919061230c565b9290565b8203918211611cd957565b1561231e57565b60405162461bcd60e51b815260206004820152600e60248201527f445241575f544f4f5f4541524c590000000000000000000000000000000000006044820152606490fd5b91908201809211611cd957565b1561237757565b60405162461bcd60e51b815260206004820152600c60248201526b222920abafaa27a7afa320a960a11b6044820152606490fd5b6101f391600091611dd3565b8181106123c2575050565b806123d060006001936123ab565b016123b7565b9190601f81116123e557505050565b6123f76101f393600052602060002090565b906020601f840181900483019310612419575b6020601f9091010401906123b7565b909150819061240a565b9061242c815190565b9067ffffffffffffffff821161038b576124508261244a8554610b67565b856123d6565b602090601f831160011461248b57611d05929160009183612480575b5050600019600883021c1916906002021790565b01519050388061246c565b601f198316916124a085600052602060002090565b9260005b8181106124de575091600293918560019694106124c5575b50505002019055565b01516000196008601f8516021c191690553880806124bc565b919360206001819287870151815501950192016124a4565b906101f391612423565b6102099051610c78565b90611f80610209611d05926110a8565b9074ffffffffffffffffffffffffffffffffffffffff009060081b611ce4565b9061254a610209611d0592610ac2565b825461251a565b91909182821061256057505050565b6101f392916125759091600052602060002090565b91820191016123b7565b9068010000000000000000811161038b578161259c6101f3935490565b90828155612551565b81519167ffffffffffffffff831161038b576125d0610cbb6001926125ca868661257f565b60200190565b92049160005b8381106125e35750505050565b60019060206125f3610209865190565b94019381840155016125d6565b906101f3916125a5565b6101f391600c9061273c906101a0906126438561262f61262984612500565b8261250a565b60208301516001600160a01b03169061253a565b612651611d89604083015190565b61266861265f606083015190565b60028701611cee565b61267f612676608083015190565b60038701611cee565b61269661268d60a083015190565b60048701611cee565b6126ad6126a460c083015190565b60058701611cee565b6126c46126bb60e083015190565b60068701611cee565b6126dc6126d361010083015190565b600787016124f6565b6126f46126eb61012083015190565b600887016124f6565b61270c61270361014083015190565b600987016124f6565b61272461271b61016083015190565b600a87016124f6565b611da961273361018083015190565b600b87016124f6565b9101612600565b906101f39161260a565b60046127b160806101f39461276c612766600083015190565b866124f6565b61278361277a602083015190565b600187016124f6565b61279a612791604083015190565b600287016124f6565b611da96127a8606083015190565b600387016124f6565b9101612743565b906101f39161274d565b6003611dae60606101f3946127e16127db600083015190565b86611cee565b6127ef611d89602083015190565b611da96127ff6040830151151590565b60028701611f70565b906101f3916127c2565b6002611dae60406101f39461283361282d6000830151151590565b86611f70565b611da9611d89602083015190565b906101f391612812565b6002611dae60406101f394612864612766600083015190565b611da961277a602083015190565b906101f39161284b565b9061ff009060081b611ce4565b90612899610209611d0592151590565b825461287c565b508051515161020991906128c66000916128c06128bc84610996565b9190565b1161222e565b602082016128f06128d960208351015190565b6128ea6128bc610209868651015190565b1161227a565b6129176128ff60608351015190565b6129116128bc61020960208651015190565b116122b5565b61294b61293661292960608451015190565b8351602001515b90612301565b6129446128bc610708610996565b1015612317565b61297d61295a60608351015190565b6129766128bc6102096129706301e13380610996565b42612363565b1115612370565b612a36608061298c60036109b4565b946129a061299987611cca565b6003611cee565b612a286129b16102098860026109a3565b956129d181840151966129c7838a0198896127b8565b5160118901612808565b6129e2604084015160158901612841565b6129f3606084015160188901612872565b6002612a14601b890192611f2381808601612a0f600182611f70565b612889565b91612a228360018301611cee565b01611cee565b019160046127b18451614638565b51916148a4565b6102099060006121f9565b61212761020991612a57600090565b50600d610acb565b906101f391612a7561220f61212733600d610acb565b906101f391612a8a611caa611ca6600c610c49565b612b61565b15612a9657565b60405162461bcd60e51b815260206004820152601160248201527f524146464c455f4e4f545f4558495354530000000000000000000000000000006044820152606490fd5b15612ae257565b60405162461bcd60e51b815260206004820152601460248201527f524146464c455f414c52454144595f445241574e0000000000000000000000006044820152606490fd5b15612b2e57565b60405162461bcd60e51b815260206004820152600b60248201526a1053149150511657d4d15560aa1b6044820152606490fd5b612bcc90611f23836000601b612b7b6102098660026109a3565b612b9e612b8c8460118401016109b4565b612b986128bc86610996565b11612a8f565b0101612bb4612baf611ca683610fbe565b612adb565b61216a612bc082610c49565b15158315151415612b27565b7f749ebdef365d5cfb45277b1b6f7fde8faa320b22253fcef31c7bdf8136164ec5612c03612bf933610ac2565b9361098760405190565b0390a3565b906101f391612a5f565b6101f390612c1e6145b6565b612c5f565b15612c2a57565b60405162461bcd60e51b815260206004820152600d60248201526c20a62922a0a22cafa0a226a4a760991b6044820152606490fd5b612c9c90612c7361210561027a6000612018565b612c8c612c87611ca661212784600d610acb565b612c23565b61216f600161216a83600d610acb565b7f44d6d25963f097ad14f29f06854a01f575648a1ef82f30e562ccd3889717e33961219e60405190565b6101f390612c12565b612cd76145b6565b6101f36101f3612ce76000612018565b6149f2565b6101f3612ccf565b90612d0994939291612d0461424a565b612d14565b9091926101f361428a565b90612d3194939291612d2c611caa611ca6600c610c49565b612f9c565b909192565b15612d3d57565b60405162461bcd60e51b815260206004820152601460248201527f4e4f5f5449434b4554535f52454d41494e494e470000000000000000000000006044820152606490fd5b15612d8957565b60405162461bcd60e51b815260206004820152601860248201527f524146464c455f5449434b4554535f45584841555354454400000000000000006044820152606490fd5b906101f3610f3a6003612ddf610ee5565b94612e01612df482546001600160a01b031690565b6001600160a01b03168752565b612e10610eb3600183016109b4565b610f34610d82600283016109b4565b61020990612dce565b61020990610996565b634e487b7160e01b600052601260045260246000fd5b8115612e51570690565b612e31565b805482101561153f57611536600d91600052602060002090565b15612e7757565b60405162461bcd60e51b815260206004820152601d60248201527f43414e4e4f545f44454352454153455f5a45524f5f5155414e544954590000006044820152606490fd5b8015611cd9576000190190565b61020960e0610390565b9060ff60a01b9060a01b611ce4565b90612ef2610209611d0592151590565b8254612ed3565b6101f391600590611dae9060c090612f3285612f25612f1f84516001600160a01b031690565b82611d2e565b6020830151151590612ee2565b612f49612f40604083015190565b60018701611d45565b612f5761265f606083015190565b612f65612676608083015190565b611da961268d60a083015190565b906101f391612ef9565b610a326101f3946107a6606094989795610a2b608086019a6000870152565b94929394505050600191612fb18385836143cc565b612fbf6102098260026109a3565b93601b85019184830190612fd2826109b4565b90612feb600092612fe56128bc85610996565b11612d36565b612ff58482614a47565b94612fff846109b4565b9761301361300c85610996565b8a11612d82565b61304b61304561302c6130278a60046109a3565b612e1f565b9a61304061303b8b888c614552565b612e28565b612e47565b8b614af3565b99846015820101908b61305d83610c49565b6131bf575b505060028301613071816109b4565b61307a90611cca565b61308391611cee565b61308d600b6109b4565b809a61309882611cca565b6130a390600b611cee565b60400180516130b0612ec9565b6001600160a01b038b168982015290851515602083015260408201526130d7876060830152565b6130e28e6080830152565b6130ed4260a0830152565b6130f84260c0830152565b61310383600a6109a3565b9061310d91612f73565b5161311990600961020c565b9061312391611cee565b61312c90610c49565b938461314f96613149966131a2575b50613190575b505050610996565b91610ac2565b907f5b6db09229f804e15657628b57342d213a730173bd981b36dbc89bc94199b8f961317a60405190565b8061318842898b8985612f7d565b0390a3929190565b61319a9201612889565b388080613141565b6131ac91506109b4565b6131b86128bc83610996565b143861313b565b6131d1600291601e6131df9401612e56565b5001611f07611f02826109b4565b6131fd6131eb876109b4565b6131f76128bc88610996565b11612e70565b61321761321161320c886109b4565b612ebc565b87611cee565b388b613062565b612d31919060008080612cf4565b613234612ec9565b90600082526020808080808080880160005b8152016000815201600081520160005b81520160005b8152016000905250565b905250565b61020961322c565b906101f36132e16005613284612ec9565b94613299612df482546001600160a01b031690565b6132a5610ff2826117bf565b6132b4610d82600183016109b4565b6132c3610d98600283016109b4565b6132d2610dae600383016109b4565b610f34610dc4600483016109b4565b60c0840152565b61020990613273565b6133086102099161330061326b565b50600a6109a3565b6132e8565b6102096040610390565b61331f61330d565b906000825260606020830152565b610209613317565b906133426103e183610432565b918252565b610209610120610390565b61335a613347565b9060008252602080808080808080808a01600081520160008152016000613246565b610209613352565b60005b82811061339357505050565b60209061339e61337c565b8184015201613387565b906101f36133be6133b884613335565b93610432565b601f190160208401613384565b61020990610d0e565b906133dd825190565b81101561153f576020809102010190565b906133f761332d565b5061340f61340a826115538560076109a3565b6109b4565b9160009161341c83610996565b841461367f576002906134336102098460026109a3565b92601184016134526134468783016109b4565b612b986128bc89610996565b8561345f60028301610c49565b958615613634575b5050506134819161155361347c9260086109a3565b6133cb565b61348a856133a8565b9561349485610996565b61349f610209845190565b8110156136185780866134bc6134b861357294876133d4565b5190565b60046135046134ce61020984846109a3565b926134fd8a8501946134f66134e760036109fa896109b4565b936134f0613347565b98890152565b6020870152565b6040850152565b89151560608401528961351681610996565b92613522846080870152565b61352d8460a0870152565b81151560c08601526135408460e0870152565b8a61354d85610100880152565b613577575b50505050613560828b6133d4565b5261356b818a6133d4565b5060010190565b613494565b61340a61358f916135896009916109b4565b9061020c565b92831161359d575b81613552565b82610f34613601613608946135fa6135f16005966135d46135c56102096136109c600a6109a3565b600160608e01529760808d0152565b6135ea6135e3600389016109b4565b60a08d0152565b86016117bf565b151560c08a0152565b83016109b4565b60e0870152565b610100830152565b388089613597565b50959250505061140e610209929361362e61330d565b94850152565b61347c9396509161365061155392601b61348197950101610fbe565b9081613665575b509592829450879150613467565b6136769150600361020991016109b4565b42101538613657565b5050905061020961368f82610996565b61140e61369b826133a8565b9161362e61330d565b906101f392916136bb61220f61212733600d610acb565b906101f392916136d1611caa611ca6600c610c49565b613790565b156136dd57565b60405162461bcd60e51b815260206004820152601760248201527f504c415945525f4e4f545f5041525449434950415445440000000000000000006044820152606490fd5b1561372957565b60405162461bcd60e51b815260206004820152600f60248201527f4d4554484f445f524551554952454400000000000000000000000000000000006044820152606490fd5b9291602061378b6101f39360408701908782036000890152611074565b940152565b6131496137dd916137bf6137ac61340a866115538560076109a3565b6137b96128bc6000610996565b116136d6565b611f236137ca865190565b6137d76128bc6000610996565b11613722565b907f259b46e60d1e2edd3ff15970de1b6023efe23ee42e5d8eb42cad548a7e19570461382061380b33610ac2565b9461381560405190565b91829142908361376e565b0390a4565b906101f392916136a4565b61347c6102099161383f606090565b5060066109a3565b610209610240610390565b6020908180808080808080808080808061386a610d28565b9e8f60008152016000815201600081520160008152016000815201600081520160008152016000815201606081520160608152016060815201606081520160605b8152016060905250565b610209613852565b6138c5613847565b90606082526020820160608152602001606081526020016000815260200160008152602001600081526020016000815260200160008152602001600081526020016060815260200160008152602001600081526020016000815260200160008152602001600081526020016000815260200161393f6138b5565b81526020016102476138b5565b6102096138bd565b61020990610c1f565b61020990610d33565b61396e61394c565b50600261397b82826109a3565b90601182019061398a826109b4565b6139946000610996565b1061399e90612a8f565b6139aa601e8401614b49565b60c052608083905280830160e05260038301936139c6836109b4565b936139d3600185016109b4565b92806139e1600387016109b4565b95016139ec90610c49565b60158301826139fd601686016109b4565b9101613a08906109b4565b9160188501938401613a19906109b4565b601b909501978897613a2a89610c49565b98613a3490610fbe565b99600101613a41906109b4565b9a613a4d8960066109a3565b549c613a57613847565b60a052608051613a6690613954565b60a0515260e051613a7690613954565b60a05160200152613a8690613954565b60a0516040015260a05160600190613a9b9152565b60a0516080015260a08051015260a05190151560c09091015260a05160e0015260a0516101000152600101613acf90613954565b60a051610120015260a0516101400190613ae69152565b60a051610160015260a0519015156101809091015260a0519015156101a09091015260a0516101c0015260a0516101e00152608051600401613b279061395d565b60a051610200015260c05160a051610220015260a05190565b90611c3b9291613b4e61424a565b906102099291613b64611caa611ca6600c610c49565b613c18565b15613b7057565b60405162461bcd60e51b815260206004820152600d60248201526c20a62922a0a22cafa22920aba760991b6044820152606490fd5b15613bac57565b60405162461bcd60e51b8152602060048201526009602482015268544f4f5f4541524c5960b81b6044820152606490fd5b15613be457565b60405162461bcd60e51b815260206004820152600c60248201526b14905191931157d15391115160a21b6044820152606490fd5b5061020991613c29838360026109a3565b613c7d613c6a6001601b8401613c49613c44611ca683610fbe565b613b69565b610f3460118601613c5c60028201610c49565b908115613c8d575b50613ba5565b613c776128bc6000610996565b11613bdd565b613c876000610996565b91614dde565b613c9e9150600361020991016109b4565b42101538613c64565b61020991906000613b40565b90610209939291613ccb61220f61212733600d610acb565b90611c3b939291613cda61424a565b90610209939291613cf1611caa611ca6600c610c49565b613e94565b15613cfd57565b60405162461bcd60e51b815260206004820152600f60248201527f4e4f5f5041525449434950414e545300000000000000000000000000000000006044820152606490fd5b15613d4957565b60405162461bcd60e51b815260206004820152601960248201527f53544152545f494e4445585f4f55545f4f465f424f554e4453000000000000006044820152606490fd5b15613d9557565b60405162461bcd60e51b815260206004820152601160248201527f494e56414c49445f4d41585f434f554e540000000000000000000000000000006044820152606490fd5b15613de157565b60405162461bcd60e51b815260206004820152601460248201527f42415443485f53495a455f544f4f5f4c415247450000000000000000000000006044820152606490fd5b15613e2d57565b60405162461bcd60e51b815260206004820152601260248201527f4e4f5448494e475f544f5f50524f4345535300000000000000000000000000006044820152606490fd5b369037565b906101f3613e876133b884613335565b601f190160208401613e72565b5090613ea46102098360026109a3565b613eb6613c44611ca6601b8401610fbe565b613ed0613ec8610209601484016109b4565b421015613ba5565b613ede61347c8460066109a3565b613f4c83613eea835190565b613f3d600098613f03613efc8b610996565b8411613cf6565b613f0e838510613d42565b613f21613f1a8b610996565b8211613d8e565b613f37613f2f6103e8610996565b821115613dda565b83612363565b90808211613fce575b50612301565b95613f60613f5987610996565b8811613e26565b613f72613f6c88613e77565b96610996565b875b811015613fc457613fbd81613fb7613faa89613f9f6134b8613f99613f74988d612363565b8a6133d4565b89613c87868d612363565b613fb4838c6133d4565b52565b60010190565b9050613f72565b5095505050505090565b905038613f46565b6102099291906060613cb3565b61020960c0610390565b613ff5610e78565b906060825260208080808086016060815201606081520160608152016132666138b5565b610209613fed565b614029610ee5565b9060008252602080808085016000613256565b610209614021565b61404c610f41565b9060008252602080808401600061325c565b610209614044565b61406e610f41565b9060608252602080808401606061325c565b610209614066565b614090613fe3565b90614099614019565b82526020808080808087016140ac61403c565b8152016140b761405e565b8152016140c2614080565b8152016138ab61403c565b610209614088565b906140de825490565b6140e781613335565b926140fb6020850191600052602060002090565b6000915b83831061410c5750505050565b600d602060019261411c8561395d565b8152019201920191906140ff565b906101f361418a601e61413b613fe3565b94614148610ea082610e82565b614157610eb360118301610eef565b614166610d8260158301610f4b565b614175610d9860188301610f85565b614184610dae601b8301610fc8565b016140d5565b60a0840152565b6102099061412a565b6141da610209916141a96140cd565b506141d36141c6600060116141bf8560026109a3565b01016109b4565b612b986128bc6000610996565b60026109a3565b614191565b6101f3906141eb6145b6565b60006141f681612018565b6001600160a01b0381166001600160a01b0384161461421a5750506101f3906149f2565b631e4fbdf760e01b82526001600160a01b03166004820152602490fd5b6101f3906141df565b6102096002610996565b61425460006109b4565b61425c614240565b90811461426e576101f3906000611cee565b633ee5aeb560e01b6000908152600490fd5b6102096001610996565b6101f3614295614280565b6000611cee565b156142a357565b60405162461bcd60e51b815260206004820152601160248201527f494e5354414e545f445241575f4f4e4c590000000000000000000000000000006044820152606490fd5b156142ef57565b60405162461bcd60e51b815260206004820152601160248201527f524146464c455f4e4f545f4143544956450000000000000000000000000000006044820152606490fd5b1561433b57565b60405162461bcd60e51b815260206004820152601260248201527f524146464c455f4e4f545f5354415254454400000000000000000000000000006044820152606490fd5b1561438757565b60405162461bcd60e51b815260206004820152601b60248201527f50415254494349504154494f4e5f4c494d49545f5245414348454400000000006044820152606490fd5b91906143d98360026109a3565b601181016143e6816109b4565b60009485916143f483610996565b106143fe90612a8f565b6144a49361447a614472610209600161449e97610f3461446a61020960029a60159a6144f2575b61446361445787601b8d01610f34614452611ca687840161444d61444882610c49565b6142e8565b610fbe565b613bdd565b613c776128bc84610996565b84016109b4565b421015614334565b421115613bdd565b01614487600182016109b4565b61449087610996565b81116144d0575b50016109b4565b92610996565b82116144af57505050565b6128bc61230861340a6144ca936115536101f39760076109a3565b10614380565b6144ec906144ca6128bc6123086144e88c60066109a3565b5490565b38614497565b6145056145008d8701610c49565b61429c565b614425565b9194610704610a329298979561454b60a0966145446101f39a61453d60c08a019e60008b01906001600160a01b03169052565b6020890152565b6040870152565b6060850152565b6145a0919261455f600090565b506145946145766145706001610996565b43612301565b9161458060405190565b95869460208601944092449242928761450a565b90810382520382610369565b6145b26145ab825190565b9160200190565b2090565b6001546001600160a01b031633906145d6825b916001600160a01b031690565b036145de5750565b63118cdaa760e01b60009081526001600160a01b039091166004526024036000fd5b1561460757565b60405162461bcd60e51b81526020600482015260096024820152684e4f5f5052495a455360b81b6044820152606490fd5b6146406138b5565b5061465f61464c825190565b6146596128bc6000610996565b11614600565b61467261466c6000610996565b826133d4565b51906001806146816001610996565b905b61468e575b50505090565b614699610209845190565b81101561472d576146aa81846133d4565b5160a08101805160a08701906146c46128bc610209845190565b119182156146e9575b50506146df575b506001015b81614683565b93506146d96146d4565b6147029192506102096146fd6128bc925190565b935190565b1480614710575b38806146cd565b5060808101516147276128bc610209608089015190565b11614709565b614688565b1561473957565b60405162461bcd60e51b815260206004820152601260248201527f4e4f5f5052495a45535f50524f564944454400000000000000000000000000006044820152606490fd5b1561478557565b60405162461bcd60e51b815260206004820152601260248201527f5052495a455f5a45524f5f5449434b45545300000000000000000000000000006044820152606490fd5b91906147d9576101f39161260a565b611d09565b908154916801000000000000000083101561038b57826148069160016101f395018155612e56565b906147ca565b1561481357565b60405162461bcd60e51b815260206004820152601260248201527f544f54414c5f5449434b4554535f5a45524f00000000000000000000000000006044820152606490fd5b1561485f57565b60405162461bcd60e51b815260206004820152601160248201527f5155414e544954595f4d49534d415443480000000000000000000000000000006044820152606490fd5b9192918351916148c26000936148bc6128bc86610996565b11614732565b6148cb83610996565b946148d4815190565b948693875b87891015614976576148eb89856133d4565b519560408701966148fa885190565b6149038a610996565b1061490d9061477e565b61491689610996565b60608201526149268360e0830152565b61493390601e88016147de565b8651601c870190614943826109b4565b9061494d91612363565b61495691611cee565b865161496191612363565b955161496c91612363565b97600101976148d9565b509550955050611dae6149b893611f23601b60029461499e61499785610996565b881161480c565b01946149b26128bc612308600189016109b4565b14614858565b6149c181610996565b7f0b5745354685a046e72f24602bcf00fa0ee07f0bf511afb5f2d3ab636241e41b6149eb60405190565b600090a290565b614a15613149614a0a6001546001600160a01b031690565b61216f846001611d2e565b907f8be0079c531659141344cd1fd0a4f28419497f9722a3daafe3b4186f6b6457e0614a4060405190565b8080612c03565b61020990611edf610209614ac894614a5d600090565b50611553614a75614a6e60056109b4565b8684614552565b94614a8060056109b4565b978896614a8f611e7e89611cca565b614ab2614a9a610ee5565b6001600160a01b0387168152916107a6856020850152565b614abd426060830152565b611ec88860046109a3565b614ada86611edf6102098460066109a3565b614aec611ef6846115538460076109a3565b60086109a3565b61020991906150b5565b15614b0457565b60405162461bcd60e51b815260206004820152601360248201527f4e4f5f415641494c41424c455f5052495a4553000000000000000000000000006044820152606490fd5b90614b526138b5565b508154614b676000916146596128bc84610996565b614b6f6138b5565b81614b7983610996565b614b84610209875490565b811015614cc757614b9c614b988288612e56565b5090565b614ba585610996565b60018201614bb2816109b4565b906002840191614bc76128bc610209856109b4565b11614ca9575b5050614bdb6128bc87610996565b11614bef575b50600101614b79565b614b79565b909180614c105750614c0291925061395d565b90614bea6001915b90614be1565b919060048101614c1f816109b4565b60a0860190614c326128bc610209845190565b11918215614c62575b5050614c4c575b50614bea90614c0a565b614bea919350614c5b9061395d565b9290614c42565b614c779192506102096146fd6128bc926109b4565b1480614c85575b3880614c3b565b50614c92600382016109b4565b614ca36128bc610209608088015190565b11614c7e565b614cc09250614cba612930916109b4565b916109b4565b3880614bcd565b50909293506102099150614afd565b15614cdd57565b60405162461bcd60e51b815260206004820152601360248201527f494e56414c49445f5041525449434950414e54000000000000000000000000006044820152606490fd5b15614d2957565b60405162461bcd60e51b815260206004820152601460248201527f4e4f5f5449434b4554535f415641494c41424c450000000000000000000000006044820152606490fd5b15614d7557565b60405162461bcd60e51b815260206004820152601360248201527f494e56414c49445f5052495a455f494e444558000000000000000000000000006044820152606490fd5b909594926101f39461075e610a32926134fd6080966134f660a088019c6000890152565b916102099193614dec600090565b50614dfb6130278560046109a3565b90614e0d82516001600160a01b031690565b614e29600091614e226145c961027a85612018565b1415614cd6565b601c870190601b8801614e50614e3e846109b4565b614e4a6128bc85610996565b11614d22565b614e8e614e7f61303b8a87614e79878b019b614e738d516001600160a01b031690565b93612363565b91614552565b614e88856109b4565b90612e47565b93826015614e9c878d614af3565b9b614eb78d614eb16128bc601e85019e8f5490565b10614d6e565b0101978a614ec48a610c49565b615072575b5050614ed5600b6109b4565b93614edf85611cca565b614eea90600b611cee565b6040870198614ef78a5190565b92614f098a516001600160a01b031690565b93614f12612ec9565b6001600160a01b0390951687860152861515602086015260408501526060840152614f3e8c6080850152565b614f494260a0850152565b614f5285610996565b92614f5e8460c0830152565b614f6987600a6109a3565b90614f7391612f73565b85614f7c8b5190565b614f8790600961020c565b90614f9191611cee565b60028401614f9e816109b4565b614fa790611cca565b614fb091611cee565b614fb990610c49565b8061500c60207f2120864ccf2c79a4cad1014109df7e170cf9e4c2664ab542e5493b272ab685909a6150419861502b9861501a9561502599613f6c9961501f9961505b575b5050615047575b5050015190565b99516001600160a01b031690565b995190565b94610996565b96610ac2565b9661503560405190565b9384938a429386614dba565b0390a490565b6150549160019101612889565b3880615005565b61506a919250610209906109b4565b143880614ffe565b6131d160029161508193612e56565b61509961508d856109b4565b6131f76128bc86610996565b6150ae6150a861320c866109b4565b85611cee565b388a614ec9565b906150c260158301610c49565b156150d05761020991615254565b61020991615125565b156150e057565b60405162461bcd60e51b815260206004820152601360248201527f4e4f5f5052495a45535f415641494c41424c45000000000000000000000000006044820152606490fd5b601e0180549161514360009361513d6128bc86610996565b116150d9565b61514c83610996565b91615155815490565b835b818510156151a0576151776128bc613f376001610f34614b988a89612e56565b84101580615197575b61518e579360010193615157565b50505050905090565b50808410615180565b50939150506151af9150610996565b81116151fa5760405162461bcd60e51b815260206004820152601460248201527f4e4f5f56414c49445f5052495a455f464f554e440000000000000000000000006044820152606490fd5b610209906129306001610996565b1561520f57565b60405162461bcd60e51b815260206004820152601460248201527f4e4f5f52454d41494e494e475f5449434b4554530000000000000000000000006044820152606490fd5b90919061527c615266601c83016109b4565b60009461304061527587610996565b8311615208565b91601e61528885610996565b920192615293845490565b93835b85811015615358576152ab614b988284612e56565b6152b488610996565b906001810160026152c4826109b4565b9201916152d66128bc610209856109b4565b11615340575b50506152e788610996565b81116152fc575b50600101615296565b615296565b9094808410158061532b575b615320576152f79161531991612363565b94906152ee565b505050509250905090565b506153396102098383612363565b8410615308565b6153519250614cba612930916109b4565b38806152dc565b509250509261536690610996565b828110156153ac5761537b614b988284612e56565b6153996128bc6102096002615392600186016109b4565b94016109b4565b116153a657600101615366565b91505090565b60405162461bcd60e51b815260206004820152601b60248201527f4e4f5f415641494c41424c455f5052495a45535f44594e414d494300000000006044820152606490fdfea2646970667358221220c33a15124597c3e7c99206958669348f00d381021c95fb25cd0aada332a7515364736f6c634300081c0033","opcodes":"PUSH1 0x80 PUSH1 0x40 MSTORE CALLVALUE PUSH2 0x22 JUMPI PUSH2 0x11 PUSH2 0xD1 JUMP JUMPDEST PUSH1 0x40 MLOAD PUSH2 0x5427 PUSH2 0x24C DUP3 CODECOPY PUSH2 0x5427 SWAP1 RETURN JUMPDEST PUSH1 0x0 DUP1 REVERT JUMPDEST SWAP1 PUSH1 0x0 NOT SWAP1 JUMPDEST SWAP2 DUP2 NOT AND SWAP2 AND OR SWAP1 JUMP JUMPDEST PUSH2 0x44 PUSH2 0x44 PUSH2 0x44 SWAP3 SWAP1 JUMP JUMPDEST SWAP1 JUMP JUMPDEST SWAP1 PUSH2 0x57 PUSH2 0x44 PUSH2 0x5E SWAP3 PUSH2 0x37 JUMP JUMPDEST DUP3 SLOAD PUSH2 0x27 JUMP JUMPDEST SWAP1 SSTORE JUMP JUMPDEST PUSH2 0x44 SWAP1 PUSH2 0x76 SWAP1 PUSH1 0x1 PUSH1 0x1 PUSH1 0xA0 SHL SUB AND DUP3 JUMP JUMPDEST PUSH1 0x1 PUSH1 0x1 PUSH1 0xA0 SHL SUB AND SWAP1 JUMP JUMPDEST PUSH2 0x44 SWAP1 PUSH2 0x62 JUMP JUMPDEST PUSH2 0x44 SWAP1 PUSH2 0x82 JUMP JUMPDEST SWAP1 PUSH2 0x9E SWAP1 PUSH2 0x8B JUMP JUMPDEST PUSH1 0x0 MSTORE PUSH1 0x20 MSTORE PUSH1 0x40 PUSH1 0x0 KECCAK256 SWAP1 JUMP JUMPDEST SWAP1 PUSH1 0xFF SWAP1 PUSH2 0x2D JUMP JUMPDEST ISZERO ISZERO SWAP1 JUMP JUMPDEST SWAP1 PUSH2 0xCA PUSH2 0x44 PUSH2 0x5E SWAP3 PUSH2 0xB5 JUMP JUMPDEST DUP3 SLOAD PUSH2 0xAC JUMP JUMPDEST PUSH2 0xDA CALLER PUSH2 0x145 JUMP JUMPDEST PUSH2 0x110 PUSH1 0x1 PUSH2 0xEA DUP2 PUSH1 0x3 PUSH2 0x47 JUMP JUMPDEST PUSH2 0xF5 DUP2 PUSH1 0x5 PUSH2 0x47 JUMP JUMPDEST PUSH2 0x100 DUP2 PUSH1 0xB PUSH2 0x47 JUMP JUMPDEST PUSH2 0x10B CALLER PUSH1 0xD PUSH2 0x94 JUMP JUMPDEST PUSH2 0xBA JUMP JUMPDEST JUMP JUMPDEST PUSH2 0x76 PUSH2 0x44 PUSH2 0x44 SWAP3 SWAP1 JUMP JUMPDEST PUSH2 0x44 SWAP1 PUSH2 0x112 JUMP JUMPDEST PUSH2 0x131 SWAP1 PUSH2 0x76 JUMP JUMPDEST SWAP1 MSTORE JUMP JUMPDEST PUSH1 0x20 DUP2 ADD SWAP3 SWAP2 PUSH2 0x110 SWAP2 SWAP1 PUSH2 0x128 JUMP JUMPDEST PUSH2 0x14D PUSH2 0x197 JUMP JUMPDEST PUSH1 0x0 PUSH2 0x158 DUP2 PUSH2 0x11F JUMP JUMPDEST PUSH2 0x161 DUP2 PUSH2 0x76 JUMP JUMPDEST PUSH2 0x16A DUP5 PUSH2 0x76 JUMP JUMPDEST EQ PUSH2 0x17A JUMPI POP POP PUSH2 0x110 SWAP1 PUSH2 0x1F4 JUMP JUMPDEST PUSH4 0x1E4FBDF7 PUSH1 0xE0 SHL DUP3 MSTORE DUP2 SWAP1 PUSH2 0x193 SWAP1 PUSH1 0x4 DUP4 ADD PUSH2 0x135 JUMP JUMPDEST SUB SWAP1 REVERT JUMPDEST PUSH2 0x110 PUSH2 0x1A9 JUMP JUMPDEST PUSH2 0x44 PUSH1 0x1 PUSH2 0x37 JUMP JUMPDEST PUSH2 0x110 PUSH2 0x1B4 PUSH2 0x19F JUMP JUMPDEST PUSH1 0x0 PUSH2 0x47 JUMP JUMPDEST PUSH2 0x44 SWAP1 PUSH2 0x76 JUMP JUMPDEST PUSH2 0x44 SWAP1 SLOAD PUSH2 0x1BB JUMP JUMPDEST SWAP1 PUSH1 0x1 PUSH1 0x1 PUSH1 0xA0 SHL SUB SWAP1 PUSH2 0x2D JUMP JUMPDEST SWAP1 PUSH2 0x1ED PUSH2 0x44 PUSH2 0x5E SWAP3 PUSH2 0x8B JUMP JUMPDEST DUP3 SLOAD PUSH2 0x1CE JUMP JUMPDEST PUSH2 0x21A PUSH2 0x214 PUSH2 0x204 PUSH1 0x1 PUSH2 0x1C4 JUMP JUMPDEST PUSH2 0x20F DUP5 PUSH1 0x1 PUSH2 0x1DD JUMP JUMPDEST PUSH2 0x8B JUMP JUMPDEST SWAP2 PUSH2 0x8B JUMP JUMPDEST SWAP1 PUSH32 0x8BE0079C531659141344CD1FD0A4F28419497F9722A3DAAFE3B4186F6B6457E0 PUSH2 0x245 PUSH1 0x40 MLOAD SWAP1 JUMP JUMPDEST PUSH1 0x0 SWAP1 LOG3 JUMP INVALID PUSH2 0x100 PUSH1 0x40 MSTORE PUSH1 0x4 CALLDATASIZE LT ISZERO PUSH2 0x13 JUMPI PUSH1 0x0 DUP1 REVERT JUMPDEST PUSH1 0x0 CALLDATALOAD PUSH1 0xE0 SHR DUP1 PUSH4 0x9B50A07 EQ PUSH2 0x1D3 JUMPI DUP1 PUSH4 0x13B18640 EQ PUSH2 0x1CE JUMPI DUP1 PUSH4 0x16C38B3C EQ PUSH2 0x1C9 JUMPI DUP1 PUSH4 0x1785F53C EQ PUSH2 0x1C4 JUMPI DUP1 PUSH4 0x1B43D038 EQ PUSH2 0x1BF JUMPI DUP1 PUSH4 0x24D7806C EQ PUSH2 0x1BA JUMPI DUP1 PUSH4 0x35C1D349 EQ PUSH2 0x1B5 JUMPI DUP1 PUSH4 0x3F35C93B EQ PUSH2 0x1B0 JUMPI DUP1 PUSH4 0x429B62E5 EQ PUSH2 0x1AB JUMPI DUP1 PUSH4 0x5C975ABB EQ PUSH2 0x1A6 JUMPI DUP1 PUSH4 0x5D4BC0CE EQ PUSH2 0x1A1 JUMPI DUP1 PUSH4 0x70480275 EQ PUSH2 0x19C JUMPI DUP1 PUSH4 0x715018A6 EQ PUSH2 0x197 JUMPI DUP1 PUSH4 0x7CAFA47A EQ PUSH2 0x192 JUMPI DUP1 PUSH4 0x8772D2DD EQ PUSH2 0x18D JUMPI DUP1 PUSH4 0x8D5A8E70 EQ PUSH2 0x188 JUMPI DUP1 PUSH4 0x8DA5CB5B EQ PUSH2 0x183 JUMPI DUP1 PUSH4 0x90409BD5 EQ PUSH2 0x17E JUMPI DUP1 PUSH4 0x9D06F112 EQ PUSH2 0x179 JUMPI DUP1 PUSH4 0xA6E3295B EQ PUSH2 0x174 JUMPI DUP1 PUSH4 0xB08B3A51 EQ PUSH2 0x16F JUMPI DUP1 PUSH4 0xB1DDD82A EQ PUSH2 0x16A JUMPI DUP1 PUSH4 0xCC7A2A04 EQ PUSH2 0x165 JUMPI DUP1 PUSH4 0xD2B8035A EQ PUSH2 0x160 JUMPI DUP1 PUSH4 0xE354C358 EQ PUSH2 0x15B JUMPI DUP1 PUSH4 0xE4DAFEC9 EQ PUSH2 0x156 JUMPI DUP1 PUSH4 0xF2FDE38B EQ PUSH2 0x151 JUMPI PUSH4 0xFBB7C22D SUB PUSH2 0x1D8 JUMPI PUSH2 0x1C0C JUMP JUMPDEST PUSH2 0x1BE0 JUMP JUMPDEST PUSH2 0x1BB9 JUMP JUMPDEST PUSH2 0x1A9B JUMP JUMPDEST PUSH2 0x1A56 JUMP JUMPDEST PUSH2 0x1A2F JUMP JUMPDEST PUSH2 0x18C0 JUMP JUMPDEST PUSH2 0x1865 JUMP JUMPDEST PUSH2 0x178C JUMP JUMPDEST PUSH2 0x1724 JUMP JUMPDEST PUSH2 0x16BA JUMP JUMPDEST PUSH2 0x1590 JUMP JUMPDEST PUSH2 0x1574 JUMP JUMPDEST PUSH2 0x14AF JUMP JUMPDEST PUSH2 0x1415 JUMP JUMPDEST PUSH2 0x13DF JUMP JUMPDEST PUSH2 0x13C7 JUMP JUMPDEST PUSH2 0x1396 JUMP JUMPDEST PUSH2 0xB36 JUMP JUMPDEST PUSH2 0xB04 JUMP JUMPDEST PUSH2 0xA8A JUMP JUMPDEST PUSH2 0xA36 JUMP JUMPDEST PUSH2 0x968 JUMP JUMPDEST PUSH2 0x94D JUMP JUMPDEST PUSH2 0x33B JUMP JUMPDEST PUSH2 0x30A JUMP JUMPDEST PUSH2 0x2C5 JUMP JUMPDEST PUSH2 0x24B JUMP JUMPDEST PUSH1 0x0 DUP1 REVERT JUMPDEST DUP1 JUMPDEST SUB PUSH2 0x1D8 JUMPI JUMP JUMPDEST SWAP1 POP CALLDATALOAD SWAP1 PUSH2 0x1F3 DUP3 PUSH2 0x1DD JUMP JUMPDEST JUMP JUMPDEST SWAP1 PUSH1 0x20 DUP3 DUP3 SUB SLT PUSH2 0x1D8 JUMPI PUSH2 0x209 SWAP2 PUSH2 0x1E6 JUMP JUMPDEST SWAP1 JUMP JUMPDEST SWAP1 JUMPDEST PUSH1 0x0 MSTORE PUSH1 0x20 MSTORE PUSH1 0x40 PUSH1 0x0 KECCAK256 SWAP1 JUMP JUMPDEST PUSH2 0x209 SWAP2 PUSH1 0x8 MUL SHR DUP2 JUMP JUMPDEST SWAP1 PUSH2 0x209 SWAP2 SLOAD PUSH2 0x21C JUMP JUMPDEST PUSH1 0x0 PUSH2 0x242 PUSH2 0x209 SWAP3 PUSH1 0x9 PUSH2 0x20C JUMP JUMPDEST PUSH2 0x227 JUMP JUMPDEST SWAP1 MSTORE JUMP JUMPDEST CALLVALUE PUSH2 0x1D8 JUMPI PUSH2 0x276 PUSH2 0x266 PUSH2 0x261 CALLDATASIZE PUSH1 0x4 PUSH2 0x1F5 JUMP JUMPDEST PUSH2 0x232 JUMP JUMPDEST PUSH1 0x40 MLOAD SWAP2 DUP3 SWAP2 DUP3 SWAP1 DUP2 MSTORE PUSH1 0x20 ADD SWAP1 JUMP JUMPDEST SUB SWAP1 RETURN JUMPDEST PUSH1 0x1 PUSH1 0x1 PUSH1 0xA0 SHL SUB AND SWAP1 JUMP JUMPDEST PUSH1 0x1 PUSH1 0x1 PUSH1 0xA0 SHL SUB DUP2 AND PUSH2 0x1DF JUMP JUMPDEST SWAP1 POP CALLDATALOAD SWAP1 PUSH2 0x1F3 DUP3 PUSH2 0x286 JUMP JUMPDEST SWAP2 SWAP1 PUSH1 0x40 DUP4 DUP3 SUB SLT PUSH2 0x1D8 JUMPI PUSH2 0x209 SWAP1 PUSH1 0x20 PUSH2 0x2BE DUP3 DUP7 PUSH2 0x1E6 JUMP JUMPDEST SWAP5 ADD PUSH2 0x295 JUMP JUMPDEST CALLVALUE PUSH2 0x1D8 JUMPI PUSH2 0x276 PUSH2 0x266 PUSH2 0x2DB CALLDATASIZE PUSH1 0x4 PUSH2 0x2A2 JUMP JUMPDEST SWAP1 PUSH2 0x1F4A JUMP JUMPDEST DUP1 ISZERO ISZERO PUSH2 0x1DF JUMP JUMPDEST SWAP1 POP CALLDATALOAD SWAP1 PUSH2 0x1F3 DUP3 PUSH2 0x2E1 JUMP JUMPDEST SWAP1 PUSH1 0x20 DUP3 DUP3 SUB SLT PUSH2 0x1D8 JUMPI PUSH2 0x209 SWAP2 PUSH2 0x2E9 JUMP JUMPDEST CALLVALUE PUSH2 0x1D8 JUMPI PUSH2 0x322 PUSH2 0x31D CALLDATASIZE PUSH1 0x4 PUSH2 0x2F6 JUMP JUMPDEST PUSH2 0x1FF1 JUMP JUMPDEST PUSH1 0x40 MLOAD STOP JUMPDEST SWAP1 PUSH1 0x20 DUP3 DUP3 SUB SLT PUSH2 0x1D8 JUMPI PUSH2 0x209 SWAP2 PUSH2 0x295 JUMP JUMPDEST CALLVALUE PUSH2 0x1D8 JUMPI PUSH2 0x322 PUSH2 0x34E CALLDATASIZE PUSH1 0x4 PUSH2 0x327 JUMP JUMPDEST PUSH2 0x21A4 JUMP JUMPDEST PUSH4 0x4E487B71 PUSH1 0xE0 SHL PUSH1 0x0 MSTORE PUSH1 0x41 PUSH1 0x4 MSTORE PUSH1 0x24 PUSH1 0x0 REVERT JUMPDEST SWAP1 PUSH1 0x1F ADD PUSH1 0x1F NOT AND DUP2 ADD SWAP1 DUP2 LT PUSH8 0xFFFFFFFFFFFFFFFF DUP3 GT OR PUSH2 0x38B JUMPI PUSH1 0x40 MSTORE JUMP JUMPDEST PUSH2 0x353 JUMP JUMPDEST SWAP1 PUSH2 0x1F3 PUSH2 0x39D PUSH1 0x40 MLOAD SWAP1 JUMP JUMPDEST SWAP3 DUP4 PUSH2 0x369 JUMP JUMPDEST PUSH8 0xFFFFFFFFFFFFFFFF DUP2 GT PUSH2 0x38B JUMPI PUSH1 0x20 SWAP1 PUSH1 0x1F ADD PUSH1 0x1F NOT AND ADD SWAP1 JUMP JUMPDEST ADD SWAP1 JUMP JUMPDEST SWAP1 DUP3 PUSH1 0x0 SWAP4 SWAP3 DUP3 CALLDATACOPY ADD MSTORE JUMP JUMPDEST SWAP1 SWAP3 SWAP2 SWAP3 PUSH2 0x3E6 PUSH2 0x3E1 DUP3 PUSH2 0x3A4 JUMP JUMPDEST PUSH2 0x390 JUMP JUMPDEST SWAP4 DUP2 DUP6 MSTORE DUP2 DUP4 ADD GT PUSH2 0x1D8 JUMPI PUSH2 0x1F3 SWAP2 PUSH1 0x20 DUP6 ADD SWAP1 PUSH2 0x3C5 JUMP JUMPDEST SWAP1 DUP1 PUSH1 0x1F DUP4 ADD SLT ISZERO PUSH2 0x1D8 JUMPI DUP2 PUSH1 0x20 PUSH2 0x209 SWAP4 CALLDATALOAD SWAP2 ADD PUSH2 0x3D1 JUMP JUMPDEST PUSH1 0x4 GT ISZERO PUSH2 0x1D8 JUMPI JUMP JUMPDEST SWAP1 POP CALLDATALOAD SWAP1 PUSH2 0x1F3 DUP3 PUSH2 0x41B JUMP JUMPDEST PUSH8 0xFFFFFFFFFFFFFFFF DUP2 GT PUSH2 0x38B JUMPI PUSH1 0x20 DUP1 SWAP2 MUL ADD SWAP1 JUMP JUMPDEST SWAP1 SWAP3 SWAP2 SWAP3 PUSH2 0x45A PUSH2 0x3E1 DUP3 PUSH2 0x432 JUMP JUMPDEST SWAP4 DUP2 DUP6 MSTORE PUSH1 0x20 DUP1 DUP7 ADD SWAP3 MUL DUP4 ADD SWAP3 DUP2 DUP5 GT PUSH2 0x1D8 JUMPI SWAP2 JUMPDEST DUP4 DUP4 LT PUSH2 0x47E JUMPI POP POP POP POP JUMP JUMPDEST PUSH1 0x20 DUP1 SWAP2 PUSH2 0x48C DUP5 DUP7 PUSH2 0x1E6 JUMP JUMPDEST DUP2 MSTORE ADD SWAP3 ADD SWAP2 PUSH2 0x471 JUMP JUMPDEST SWAP1 DUP1 PUSH1 0x1F DUP4 ADD SLT ISZERO PUSH2 0x1D8 JUMPI DUP2 PUSH1 0x20 PUSH2 0x209 SWAP4 CALLDATALOAD SWAP2 ADD PUSH2 0x44A JUMP JUMPDEST SWAP2 SWAP1 SWAP2 PUSH2 0x1C0 DUP2 DUP5 SUB SLT PUSH2 0x1D8 JUMPI PUSH2 0x4CB PUSH2 0x1C0 PUSH2 0x390 JUMP JUMPDEST SWAP3 PUSH2 0x4D6 DUP2 DUP4 PUSH2 0x425 JUMP JUMPDEST DUP5 MSTORE PUSH2 0x4E5 DUP2 PUSH1 0x20 DUP5 ADD PUSH2 0x295 JUMP JUMPDEST PUSH1 0x20 DUP6 ADD MSTORE PUSH2 0x4F7 DUP2 PUSH1 0x40 DUP5 ADD PUSH2 0x1E6 JUMP JUMPDEST PUSH1 0x40 DUP6 ADD MSTORE PUSH2 0x509 DUP2 PUSH1 0x60 DUP5 ADD PUSH2 0x1E6 JUMP JUMPDEST PUSH1 0x60 DUP6 ADD MSTORE PUSH2 0x51B DUP2 PUSH1 0x80 DUP5 ADD PUSH2 0x1E6 JUMP JUMPDEST PUSH1 0x80 DUP6 ADD MSTORE PUSH2 0x52D DUP2 PUSH1 0xA0 DUP5 ADD PUSH2 0x1E6 JUMP JUMPDEST PUSH1 0xA0 DUP6 ADD MSTORE PUSH2 0x53F DUP2 PUSH1 0xC0 DUP5 ADD PUSH2 0x1E6 JUMP JUMPDEST PUSH1 0xC0 DUP6 ADD MSTORE PUSH2 0x551 DUP2 PUSH1 0xE0 DUP5 ADD PUSH2 0x1E6 JUMP JUMPDEST PUSH1 0xE0 DUP6 ADD MSTORE PUSH2 0x100 DUP3 ADD CALLDATALOAD PUSH8 0xFFFFFFFFFFFFFFFF DUP2 GT PUSH2 0x1D8 JUMPI DUP2 PUSH2 0x577 SWAP2 DUP5 ADD PUSH2 0x400 JUMP JUMPDEST PUSH2 0x100 DUP6 ADD MSTORE PUSH2 0x120 DUP3 ADD CALLDATALOAD PUSH8 0xFFFFFFFFFFFFFFFF DUP2 GT PUSH2 0x1D8 JUMPI DUP2 PUSH2 0x59E SWAP2 DUP5 ADD PUSH2 0x400 JUMP JUMPDEST PUSH2 0x120 DUP6 ADD MSTORE PUSH2 0x140 DUP3 ADD CALLDATALOAD PUSH8 0xFFFFFFFFFFFFFFFF DUP2 GT PUSH2 0x1D8 JUMPI DUP2 PUSH2 0x5C5 SWAP2 DUP5 ADD PUSH2 0x400 JUMP JUMPDEST PUSH2 0x140 DUP6 ADD MSTORE PUSH2 0x160 DUP3 ADD CALLDATALOAD PUSH8 0xFFFFFFFFFFFFFFFF DUP2 GT PUSH2 0x1D8 JUMPI DUP2 PUSH2 0x5EC SWAP2 DUP5 ADD PUSH2 0x400 JUMP JUMPDEST PUSH2 0x160 DUP6 ADD MSTORE PUSH2 0x180 DUP3 ADD CALLDATALOAD PUSH8 0xFFFFFFFFFFFFFFFF DUP2 GT PUSH2 0x1D8 JUMPI DUP2 PUSH2 0x613 SWAP2 DUP5 ADD PUSH2 0x400 JUMP JUMPDEST PUSH2 0x180 DUP6 ADD MSTORE PUSH2 0x1A0 DUP3 ADD CALLDATALOAD PUSH8 0xFFFFFFFFFFFFFFFF DUP2 GT PUSH2 0x1D8 JUMPI PUSH2 0x638 SWAP3 ADD PUSH2 0x497 JUMP JUMPDEST PUSH2 0x1A0 DUP4 ADD MSTORE JUMP JUMPDEST SWAP2 SWAP1 SWAP2 PUSH1 0xA0 DUP2 DUP5 SUB SLT PUSH2 0x1D8 JUMPI PUSH2 0x657 PUSH1 0xA0 PUSH2 0x390 JUMP JUMPDEST SWAP3 DUP2 CALLDATALOAD PUSH8 0xFFFFFFFFFFFFFFFF DUP2 GT PUSH2 0x1D8 JUMPI DUP2 PUSH2 0x675 SWAP2 DUP5 ADD PUSH2 0x400 JUMP JUMPDEST DUP5 MSTORE PUSH1 0x20 DUP3 ADD CALLDATALOAD PUSH8 0xFFFFFFFFFFFFFFFF DUP2 GT PUSH2 0x1D8 JUMPI DUP2 PUSH2 0x697 SWAP2 DUP5 ADD PUSH2 0x400 JUMP JUMPDEST PUSH1 0x20 DUP6 ADD MSTORE PUSH1 0x40 DUP3 ADD CALLDATALOAD PUSH8 0xFFFFFFFFFFFFFFFF DUP2 GT PUSH2 0x1D8 JUMPI DUP2 PUSH2 0x6BC SWAP2 DUP5 ADD PUSH2 0x400 JUMP JUMPDEST PUSH1 0x40 DUP6 ADD MSTORE PUSH1 0x60 DUP3 ADD CALLDATALOAD PUSH8 0xFFFFFFFFFFFFFFFF DUP2 GT PUSH2 0x1D8 JUMPI DUP2 PUSH2 0x6E1 SWAP2 DUP5 ADD PUSH2 0x400 JUMP JUMPDEST PUSH1 0x60 DUP6 ADD MSTORE PUSH1 0x80 DUP3 ADD CALLDATALOAD PUSH8 0xFFFFFFFFFFFFFFFF DUP2 GT PUSH2 0x1D8 JUMPI PUSH2 0x704 SWAP3 ADD PUSH2 0x4B2 JUMP JUMPDEST PUSH1 0x80 DUP4 ADD MSTORE JUMP JUMPDEST SWAP2 SWAP1 PUSH1 0x80 DUP4 DUP3 SUB SLT PUSH2 0x1D8 JUMPI PUSH2 0x75E SWAP1 PUSH1 0x60 PUSH2 0x727 PUSH1 0x80 PUSH2 0x390 JUMP JUMPDEST SWAP5 PUSH2 0x732 DUP4 DUP3 PUSH2 0x1E6 JUMP JUMPDEST DUP7 MSTORE PUSH2 0x741 DUP4 PUSH1 0x20 DUP4 ADD PUSH2 0x1E6 JUMP JUMPDEST PUSH1 0x20 DUP8 ADD MSTORE PUSH2 0x753 DUP4 PUSH1 0x40 DUP4 ADD PUSH2 0x2E9 JUMP JUMPDEST PUSH1 0x40 DUP8 ADD MSTORE ADD PUSH2 0x1E6 JUMP JUMPDEST PUSH1 0x60 DUP4 ADD MSTORE JUMP JUMPDEST SWAP2 SWAP1 PUSH1 0x60 DUP4 DUP3 SUB SLT PUSH2 0x1D8 JUMPI PUSH2 0x7A6 SWAP1 PUSH1 0x40 PUSH2 0x781 PUSH1 0x60 PUSH2 0x390 JUMP JUMPDEST SWAP5 PUSH2 0x78C DUP4 DUP3 PUSH2 0x2E9 JUMP JUMPDEST DUP7 MSTORE PUSH2 0x79B DUP4 PUSH1 0x20 DUP4 ADD PUSH2 0x1E6 JUMP JUMPDEST PUSH1 0x20 DUP8 ADD MSTORE ADD PUSH2 0x1E6 JUMP JUMPDEST PUSH1 0x40 DUP4 ADD MSTORE JUMP JUMPDEST SWAP2 SWAP1 SWAP2 PUSH1 0x60 DUP2 DUP5 SUB SLT PUSH2 0x1D8 JUMPI PUSH2 0x7C4 PUSH1 0x60 PUSH2 0x390 JUMP JUMPDEST SWAP3 DUP2 CALLDATALOAD PUSH8 0xFFFFFFFFFFFFFFFF DUP2 GT PUSH2 0x1D8 JUMPI DUP2 PUSH2 0x7E2 SWAP2 DUP5 ADD PUSH2 0x400 JUMP JUMPDEST DUP5 MSTORE PUSH1 0x20 DUP3 ADD CALLDATALOAD PUSH8 0xFFFFFFFFFFFFFFFF DUP2 GT PUSH2 0x1D8 JUMPI DUP3 PUSH2 0x79B DUP4 PUSH1 0x40 SWAP4 PUSH2 0x7A6 SWAP7 ADD PUSH2 0x400 JUMP JUMPDEST SWAP3 SWAP2 SWAP1 PUSH2 0x819 PUSH2 0x3E1 DUP3 PUSH2 0x432 JUMP JUMPDEST SWAP4 DUP2 DUP6 MSTORE PUSH1 0x20 DUP1 DUP7 ADD SWAP3 MUL DUP2 ADD SWAP2 DUP4 DUP4 GT PUSH2 0x1D8 JUMPI DUP2 SWAP1 JUMPDEST DUP4 DUP3 LT PUSH2 0x83F JUMPI POP POP POP POP POP JUMP JUMPDEST DUP2 CALLDATALOAD PUSH8 0xFFFFFFFFFFFFFFFF DUP2 GT PUSH2 0x1D8 JUMPI PUSH1 0x20 SWAP2 PUSH2 0x860 DUP8 DUP5 SWAP4 DUP8 ADD PUSH2 0x4B2 JUMP JUMPDEST DUP2 MSTORE ADD SWAP2 ADD SWAP1 PUSH2 0x831 JUMP JUMPDEST SWAP1 DUP1 PUSH1 0x1F DUP4 ADD SLT ISZERO PUSH2 0x1D8 JUMPI DUP2 PUSH1 0x20 PUSH2 0x209 SWAP4 CALLDATALOAD SWAP2 ADD PUSH2 0x80A JUMP JUMPDEST SWAP2 SWAP1 SWAP2 PUSH2 0x140 DUP2 DUP5 SUB SLT PUSH2 0x1D8 JUMPI PUSH2 0x89E PUSH1 0xA0 PUSH2 0x390 JUMP JUMPDEST SWAP3 DUP2 CALLDATALOAD PUSH8 0xFFFFFFFFFFFFFFFF DUP2 GT PUSH2 0x1D8 JUMPI DUP2 PUSH2 0x8BC SWAP2 DUP5 ADD PUSH2 0x640 JUMP JUMPDEST DUP5 MSTORE PUSH2 0x8CB DUP2 PUSH1 0x20 DUP5 ADD PUSH2 0x70B JUMP JUMPDEST PUSH1 0x20 DUP6 ADD MSTORE PUSH2 0x8DD DUP2 PUSH1 0xA0 DUP5 ADD PUSH2 0x765 JUMP JUMPDEST PUSH1 0x40 DUP6 ADD MSTORE PUSH2 0x100 DUP3 ADD CALLDATALOAD PUSH8 0xFFFFFFFFFFFFFFFF DUP2 GT PUSH2 0x1D8 JUMPI DUP2 PUSH2 0x903 SWAP2 DUP5 ADD PUSH2 0x7AD JUMP JUMPDEST PUSH1 0x60 DUP6 ADD MSTORE PUSH2 0x120 DUP3 ADD CALLDATALOAD PUSH8 0xFFFFFFFFFFFFFFFF DUP2 GT PUSH2 0x1D8 JUMPI PUSH2 0x704 SWAP3 ADD PUSH2 0x86B JUMP JUMPDEST SWAP1 PUSH1 0x20 DUP3 DUP3 SUB SLT PUSH2 0x1D8 JUMPI DUP2 CALLDATALOAD PUSH8 0xFFFFFFFFFFFFFFFF DUP2 GT PUSH2 0x1D8 JUMPI PUSH2 0x209 SWAP3 ADD PUSH2 0x886 JUMP JUMPDEST CALLVALUE PUSH2 0x1D8 JUMPI PUSH2 0x276 PUSH2 0x266 PUSH2 0x963 CALLDATASIZE PUSH1 0x4 PUSH2 0x927 JUMP JUMPDEST PUSH2 0x2A3D JUMP JUMPDEST CALLVALUE PUSH2 0x1D8 JUMPI PUSH2 0x276 PUSH2 0x983 PUSH2 0x97E CALLDATASIZE PUSH1 0x4 PUSH2 0x327 JUMP JUMPDEST PUSH2 0x2A48 JUMP JUMPDEST PUSH1 0x40 MLOAD JUMPDEST SWAP2 DUP3 SWAP2 DUP3 SWAP1 ISZERO ISZERO DUP2 MSTORE PUSH1 0x20 ADD SWAP1 JUMP JUMPDEST PUSH2 0x209 PUSH2 0x209 PUSH2 0x209 SWAP3 SWAP1 JUMP JUMPDEST SWAP1 PUSH2 0x20E SWAP1 PUSH2 0x996 JUMP JUMPDEST PUSH2 0x209 SWAP1 DUP2 JUMP JUMPDEST PUSH2 0x209 SWAP1 SLOAD PUSH2 0x9AD JUMP JUMPDEST PUSH2 0x9C9 SWAP1 PUSH1 0x4 PUSH2 0x9A3 JUMP JUMPDEST SWAP1 PUSH2 0x9DB DUP3 SLOAD PUSH1 0x1 PUSH1 0x1 PUSH1 0xA0 SHL SUB AND SWAP1 JUMP JUMPDEST SWAP2 PUSH2 0x9E8 PUSH1 0x1 DUP3 ADD PUSH2 0x9B4 JUMP JUMPDEST SWAP2 PUSH2 0x209 PUSH1 0x3 PUSH2 0x9FA PUSH1 0x2 DUP6 ADD PUSH2 0x9B4 JUMP JUMPDEST SWAP4 ADD PUSH2 0x9B4 JUMP JUMPDEST PUSH2 0xA32 PUSH2 0x1F3 SWAP5 PUSH2 0x7A6 PUSH1 0x60 SWAP5 SWAP9 SWAP8 SWAP6 PUSH2 0xA2B PUSH1 0x80 DUP7 ADD SWAP11 PUSH1 0x0 DUP8 ADD SWAP1 PUSH1 0x1 PUSH1 0x1 PUSH1 0xA0 SHL SUB AND SWAP1 MSTORE JUMP JUMPDEST PUSH1 0x20 DUP6 ADD MSTORE JUMP JUMPDEST ADD MSTORE JUMP JUMPDEST CALLVALUE PUSH2 0x1D8 JUMPI PUSH2 0x276 PUSH2 0xA51 PUSH2 0xA4C CALLDATASIZE PUSH1 0x4 PUSH2 0x1F5 JUMP JUMPDEST PUSH2 0x9BE JUMP JUMPDEST SWAP1 PUSH2 0xA5E SWAP5 SWAP3 SWAP5 PUSH1 0x40 MLOAD SWAP1 JUMP JUMPDEST SWAP5 DUP6 SWAP5 DUP6 PUSH2 0xA01 JUMP JUMPDEST SWAP2 SWAP1 PUSH1 0x40 DUP4 DUP3 SUB SLT PUSH2 0x1D8 JUMPI PUSH2 0x209 SWAP1 PUSH1 0x20 PUSH2 0xA83 DUP3 DUP7 PUSH2 0x1E6 JUMP JUMPDEST SWAP5 ADD PUSH2 0x2E9 JUMP JUMPDEST CALLVALUE PUSH2 0x1D8 JUMPI PUSH2 0x322 PUSH2 0xA9D CALLDATASIZE PUSH1 0x4 PUSH2 0xA67 JUMP JUMPDEST SWAP1 PUSH2 0x2C08 JUMP JUMPDEST PUSH2 0x27A PUSH2 0x209 PUSH2 0x209 SWAP3 PUSH1 0x1 PUSH1 0x1 PUSH1 0xA0 SHL SUB AND SWAP1 JUMP JUMPDEST PUSH2 0x209 SWAP1 PUSH2 0xAA3 JUMP JUMPDEST PUSH2 0x209 SWAP1 PUSH2 0xAB9 JUMP JUMPDEST SWAP1 PUSH2 0x20E SWAP1 PUSH2 0xAC2 JUMP JUMPDEST PUSH2 0x209 SWAP2 PUSH1 0x8 MUL SHR JUMPDEST PUSH1 0xFF AND SWAP1 JUMP JUMPDEST SWAP1 PUSH2 0x209 SWAP2 SLOAD PUSH2 0xAD5 JUMP JUMPDEST PUSH1 0x0 PUSH2 0xAFF PUSH2 0x209 SWAP3 PUSH1 0xD PUSH2 0xACB JUMP JUMPDEST PUSH2 0xAE4 JUMP JUMPDEST CALLVALUE PUSH2 0x1D8 JUMPI PUSH2 0x276 PUSH2 0x983 PUSH2 0xB1A CALLDATASIZE PUSH1 0x4 PUSH2 0x327 JUMP JUMPDEST PUSH2 0xAEF JUMP JUMPDEST PUSH1 0x0 SWAP2 SUB SLT PUSH2 0x1D8 JUMPI JUMP JUMPDEST PUSH2 0x209 PUSH1 0x0 PUSH1 0xC PUSH2 0xAE4 JUMP JUMPDEST CALLVALUE PUSH2 0x1D8 JUMPI PUSH2 0xB46 CALLDATASIZE PUSH1 0x4 PUSH2 0xB1F JUMP JUMPDEST PUSH2 0x276 PUSH2 0x983 PUSH2 0xB2A JUMP JUMPDEST PUSH4 0x4E487B71 PUSH1 0xE0 SHL PUSH1 0x0 MSTORE PUSH1 0x22 PUSH1 0x4 MSTORE PUSH1 0x24 PUSH1 0x0 REVERT JUMPDEST SWAP1 PUSH1 0x1 PUSH1 0x2 DUP4 DIV SWAP3 AND DUP1 ISZERO PUSH2 0xB87 JUMPI JUMPDEST PUSH1 0x20 DUP4 LT EQ PUSH2 0xB82 JUMPI JUMP JUMPDEST PUSH2 0xB51 JUMP JUMPDEST SWAP2 PUSH1 0x7F AND SWAP2 PUSH2 0xB77 JUMP JUMPDEST DUP1 SLOAD PUSH1 0x0 SWAP4 SWAP3 SWAP2 PUSH2 0xBAE PUSH2 0xBA4 DUP4 PUSH2 0xB67 JUMP JUMPDEST DUP1 DUP6 MSTORE SWAP4 PUSH1 0x20 ADD SWAP1 JUMP JUMPDEST SWAP2 PUSH1 0x1 DUP2 AND SWAP1 DUP2 ISZERO PUSH2 0xC00 JUMPI POP PUSH1 0x1 EQ PUSH2 0xBC7 JUMPI POP POP POP JUMP JUMPDEST PUSH2 0xBDA SWAP2 SWAP3 SWAP4 SWAP5 POP PUSH1 0x0 MSTORE PUSH1 0x20 PUSH1 0x0 KECCAK256 SWAP1 JUMP JUMPDEST SWAP2 PUSH1 0x0 SWAP3 JUMPDEST DUP2 DUP5 LT PUSH2 0xBEC JUMPI POP POP ADD SWAP1 JUMP JUMPDEST DUP1 SLOAD DUP5 DUP5 ADD MSTORE PUSH1 0x20 SWAP1 SWAP4 ADD SWAP3 PUSH1 0x1 ADD PUSH2 0xBDF JUMP JUMPDEST SWAP3 SWAP5 SWAP6 POP POP POP PUSH1 0xFF NOT AND DUP3 MSTORE ISZERO ISZERO PUSH1 0x20 MUL ADD SWAP1 JUMP JUMPDEST SWAP1 PUSH2 0x209 SWAP2 PUSH2 0xB91 JUMP JUMPDEST SWAP1 PUSH2 0x1F3 PUSH2 0xC39 SWAP3 PUSH2 0xC30 PUSH1 0x40 MLOAD SWAP1 JUMP JUMPDEST SWAP4 DUP5 DUP1 SWAP3 PUSH2 0xC15 JUMP JUMPDEST SUB DUP4 PUSH2 0x369 JUMP JUMPDEST PUSH2 0x209 SWAP1 PUSH2 0xADE JUMP JUMPDEST PUSH2 0x209 SWAP1 SLOAD PUSH2 0xC40 JUMP JUMPDEST PUSH4 0x4E487B71 PUSH1 0xE0 SHL PUSH1 0x0 MSTORE PUSH1 0x21 PUSH1 0x4 MSTORE PUSH1 0x24 PUSH1 0x0 REVERT JUMPDEST PUSH1 0x4 GT ISZERO PUSH2 0xC73 JUMPI JUMP JUMPDEST PUSH2 0xC53 JUMP JUMPDEST SWAP1 PUSH2 0x1F3 DUP3 PUSH2 0xC69 JUMP JUMPDEST SWAP1 PUSH2 0x247 SWAP1 PUSH2 0xC78 JUMP JUMPDEST PUSH2 0x209 SWAP1 PUSH1 0x8 SHR PUSH2 0x27A JUMP JUMPDEST PUSH2 0x209 SWAP1 SLOAD PUSH2 0xC8C JUMP JUMPDEST SWAP1 PUSH2 0xCC7 PUSH2 0xCBB PUSH2 0xCB1 DUP5 SLOAD SWAP1 JUMP JUMPDEST DUP1 DUP5 MSTORE SWAP3 PUSH1 0x20 ADD SWAP1 JUMP JUMPDEST SWAP3 PUSH1 0x0 MSTORE PUSH1 0x20 PUSH1 0x0 KECCAK256 SWAP1 JUMP JUMPDEST SWAP1 PUSH1 0x0 JUMPDEST DUP2 DUP2 LT PUSH2 0xCD8 JUMPI POP POP POP SWAP1 JUMP JUMPDEST SWAP1 SWAP2 SWAP3 PUSH2 0xCFC PUSH2 0xCF5 PUSH1 0x1 SWAP3 PUSH2 0xCED DUP8 PUSH2 0x9B4 JUMP JUMPDEST DUP2 MSTORE PUSH1 0x20 ADD SWAP1 JUMP JUMPDEST SWAP5 PUSH1 0x1 ADD SWAP1 JUMP JUMPDEST SWAP3 SWAP2 ADD PUSH2 0xCCB JUMP JUMPDEST SWAP1 PUSH2 0x209 SWAP2 PUSH2 0xCA2 JUMP JUMPDEST SWAP1 PUSH2 0x1F3 PUSH2 0xC39 SWAP3 PUSH2 0xD1F PUSH1 0x40 MLOAD SWAP1 JUMP JUMPDEST SWAP4 DUP5 DUP1 SWAP3 PUSH2 0xD04 JUMP JUMPDEST PUSH2 0x209 PUSH2 0x1C0 PUSH2 0x390 JUMP JUMPDEST SWAP1 PUSH2 0x1F3 PUSH2 0xE70 PUSH1 0xC PUSH2 0xD44 PUSH2 0xD28 JUMP JUMPDEST SWAP5 PUSH2 0xD57 PUSH2 0xD51 DUP3 PUSH2 0xC49 JUMP JUMPDEST DUP8 PUSH2 0xC82 JUMP JUMPDEST PUSH2 0xD73 PUSH2 0xD63 DUP3 PUSH2 0xC98 JUMP JUMPDEST PUSH1 0x1 PUSH1 0x1 PUSH1 0xA0 SHL SUB AND PUSH1 0x20 DUP9 ADD MSTORE JUMP JUMPDEST PUSH2 0xD89 PUSH2 0xD82 PUSH1 0x1 DUP4 ADD PUSH2 0x9B4 JUMP JUMPDEST PUSH1 0x40 DUP9 ADD MSTORE JUMP JUMPDEST PUSH2 0xD9F PUSH2 0xD98 PUSH1 0x2 DUP4 ADD PUSH2 0x9B4 JUMP JUMPDEST PUSH1 0x60 DUP9 ADD MSTORE JUMP JUMPDEST PUSH2 0xDB5 PUSH2 0xDAE PUSH1 0x3 DUP4 ADD PUSH2 0x9B4 JUMP JUMPDEST PUSH1 0x80 DUP9 ADD MSTORE JUMP JUMPDEST PUSH2 0xDCB PUSH2 0xDC4 PUSH1 0x4 DUP4 ADD PUSH2 0x9B4 JUMP JUMPDEST PUSH1 0xA0 DUP9 ADD MSTORE JUMP JUMPDEST PUSH2 0xDE1 PUSH2 0xDDA PUSH1 0x5 DUP4 ADD PUSH2 0x9B4 JUMP JUMPDEST PUSH1 0xC0 DUP9 ADD MSTORE JUMP JUMPDEST PUSH2 0xDF7 PUSH2 0xDF0 PUSH1 0x6 DUP4 ADD PUSH2 0x9B4 JUMP JUMPDEST PUSH1 0xE0 DUP9 ADD MSTORE JUMP JUMPDEST PUSH2 0xE0E PUSH2 0xE06 PUSH1 0x7 DUP4 ADD PUSH2 0xC1F JUMP JUMPDEST PUSH2 0x100 DUP9 ADD MSTORE JUMP JUMPDEST PUSH2 0xE25 PUSH2 0xE1D PUSH1 0x8 DUP4 ADD PUSH2 0xC1F JUMP JUMPDEST PUSH2 0x120 DUP9 ADD MSTORE JUMP JUMPDEST PUSH2 0xE3C PUSH2 0xE34 PUSH1 0x9 DUP4 ADD PUSH2 0xC1F JUMP JUMPDEST PUSH2 0x140 DUP9 ADD MSTORE JUMP JUMPDEST PUSH2 0xE53 PUSH2 0xE4B PUSH1 0xA DUP4 ADD PUSH2 0xC1F JUMP JUMPDEST PUSH2 0x160 DUP9 ADD MSTORE JUMP JUMPDEST PUSH2 0xE6A PUSH2 0xE62 PUSH1 0xB DUP4 ADD PUSH2 0xC1F JUMP JUMPDEST PUSH2 0x180 DUP9 ADD MSTORE JUMP JUMPDEST ADD PUSH2 0xD0E JUMP JUMPDEST PUSH2 0x1A0 DUP5 ADD MSTORE JUMP JUMPDEST PUSH2 0x209 PUSH1 0xA0 PUSH2 0x390 JUMP JUMPDEST SWAP1 PUSH2 0x1F3 PUSH2 0xEDE PUSH1 0x4 PUSH2 0xE93 PUSH2 0xE78 JUMP JUMPDEST SWAP5 PUSH2 0xEA4 PUSH2 0xEA0 DUP3 PUSH2 0xC1F JUMP JUMPDEST DUP8 MSTORE JUMP JUMPDEST PUSH2 0xEBA PUSH2 0xEB3 PUSH1 0x1 DUP4 ADD PUSH2 0xC1F JUMP JUMPDEST PUSH1 0x20 DUP9 ADD MSTORE JUMP JUMPDEST PUSH2 0xEC9 PUSH2 0xD82 PUSH1 0x2 DUP4 ADD PUSH2 0xC1F JUMP JUMPDEST PUSH2 0xED8 PUSH2 0xD98 PUSH1 0x3 DUP4 ADD PUSH2 0xC1F JUMP JUMPDEST ADD PUSH2 0xD33 JUMP JUMPDEST PUSH1 0x80 DUP5 ADD MSTORE JUMP JUMPDEST PUSH2 0x209 PUSH1 0x80 PUSH2 0x390 JUMP JUMPDEST SWAP1 PUSH2 0x1F3 PUSH2 0xF3A PUSH1 0x3 PUSH2 0xF00 PUSH2 0xEE5 JUMP JUMPDEST SWAP5 PUSH2 0xF0D PUSH2 0xEA0 DUP3 PUSH2 0x9B4 JUMP JUMPDEST PUSH2 0xF1C PUSH2 0xEB3 PUSH1 0x1 DUP4 ADD PUSH2 0x9B4 JUMP JUMPDEST PUSH2 0xF34 PUSH2 0xF2B PUSH1 0x2 DUP4 ADD PUSH2 0xC49 JUMP JUMPDEST ISZERO ISZERO PUSH1 0x40 DUP9 ADD MSTORE JUMP JUMPDEST ADD PUSH2 0x9B4 JUMP JUMPDEST PUSH1 0x60 DUP5 ADD MSTORE JUMP JUMPDEST PUSH2 0x209 PUSH1 0x60 PUSH2 0x390 JUMP JUMPDEST SWAP1 PUSH2 0x1F3 PUSH2 0xF7E PUSH1 0x2 PUSH2 0xF5C PUSH2 0xF41 JUMP JUMPDEST SWAP5 PUSH2 0xF6F PUSH2 0xF69 DUP3 PUSH2 0xC49 JUMP JUMPDEST ISZERO ISZERO DUP8 MSTORE JUMP JUMPDEST PUSH2 0xF34 PUSH2 0xEB3 PUSH1 0x1 DUP4 ADD PUSH2 0x9B4 JUMP JUMPDEST PUSH1 0x40 DUP5 ADD MSTORE JUMP JUMPDEST SWAP1 PUSH2 0x1F3 PUSH2 0xF7E PUSH1 0x2 PUSH2 0xF96 PUSH2 0xF41 JUMP JUMPDEST SWAP5 PUSH2 0xFA3 PUSH2 0xEA0 DUP3 PUSH2 0xC1F JUMP JUMPDEST PUSH2 0xF34 PUSH2 0xEB3 PUSH1 0x1 DUP4 ADD PUSH2 0xC1F JUMP JUMPDEST PUSH2 0x209 SWAP1 PUSH1 0x8 SHR PUSH2 0xADE JUMP JUMPDEST PUSH2 0x209 SWAP1 SLOAD PUSH2 0xFB2 JUMP JUMPDEST SWAP1 PUSH2 0x1F3 PUSH2 0xF3A PUSH1 0x2 PUSH2 0xFD9 PUSH2 0xEE5 JUMP JUMPDEST SWAP5 PUSH2 0xFE6 PUSH2 0xF69 DUP3 PUSH2 0xC49 JUMP JUMPDEST PUSH2 0xFFB PUSH2 0xFF2 DUP3 PUSH2 0xFBE JUMP JUMPDEST ISZERO ISZERO PUSH1 0x20 DUP9 ADD MSTORE JUMP JUMPDEST PUSH2 0xF34 PUSH2 0xD82 PUSH1 0x1 DUP4 ADD PUSH2 0x9B4 JUMP JUMPDEST PUSH2 0x1015 SWAP1 PUSH1 0x2 PUSH2 0x9A3 JUMP JUMPDEST PUSH2 0x101E DUP2 PUSH2 0xE82 JUMP JUMPDEST SWAP2 PUSH2 0x102B PUSH1 0x11 DUP4 ADD PUSH2 0xEEF JUMP JUMPDEST SWAP2 PUSH2 0x1038 PUSH1 0x15 DUP3 ADD PUSH2 0xF4B JUMP JUMPDEST SWAP2 PUSH2 0x209 PUSH1 0x1B PUSH2 0x104A PUSH1 0x18 DUP6 ADD PUSH2 0xF85 JUMP JUMPDEST SWAP4 ADD PUSH2 0xFC8 JUMP JUMPDEST PUSH1 0x0 JUMPDEST DUP4 DUP2 LT PUSH2 0x1064 JUMPI POP POP PUSH1 0x0 SWAP2 ADD MSTORE JUMP JUMPDEST DUP2 DUP2 ADD MLOAD DUP4 DUP3 ADD MSTORE PUSH1 0x20 ADD PUSH2 0x1054 JUMP JUMPDEST PUSH2 0x1095 PUSH2 0x109E PUSH1 0x20 SWAP4 PUSH2 0x3C1 SWAP4 PUSH2 0x1089 DUP2 MLOAD SWAP1 JUMP JUMPDEST DUP1 DUP4 MSTORE SWAP4 DUP5 SWAP3 PUSH1 0x20 ADD SWAP1 JUMP JUMPDEST SWAP6 DUP7 SWAP2 ADD PUSH2 0x1051 JUMP JUMPDEST PUSH1 0x1F ADD PUSH1 0x1F NOT AND SWAP1 JUMP JUMPDEST PUSH2 0x209 SWAP1 PUSH2 0xC78 JUMP JUMPDEST PUSH2 0x247 SWAP1 PUSH2 0x10A8 JUMP JUMPDEST SWAP1 PUSH2 0x10D0 PUSH2 0x10C9 PUSH2 0xCB1 DUP5 MLOAD SWAP1 JUMP JUMPDEST SWAP3 PUSH1 0x20 ADD SWAP1 JUMP JUMPDEST SWAP1 PUSH1 0x0 JUMPDEST DUP2 DUP2 LT PUSH2 0x10E1 JUMPI POP POP POP SWAP1 JUMP JUMPDEST SWAP1 SWAP2 SWAP3 PUSH2 0x10FE PUSH2 0x10F7 PUSH1 0x1 SWAP3 DUP7 MLOAD DUP2 MSTORE PUSH1 0x20 ADD SWAP1 JUMP JUMPDEST SWAP5 PUSH1 0x20 ADD SWAP1 JUMP JUMPDEST SWAP3 SWAP2 ADD PUSH2 0x10D4 JUMP JUMPDEST PUSH2 0x209 SWAP2 PUSH2 0x1A0 PUSH2 0x1204 PUSH2 0x11F0 PUSH2 0x11DC PUSH2 0x11C8 PUSH2 0x11B4 PUSH2 0x1C0 DUP8 ADD PUSH2 0x1133 PUSH1 0x0 DUP11 ADD MLOAD PUSH1 0x0 DUP11 ADD SWAP1 PUSH2 0x10B1 JUMP JUMPDEST PUSH1 0x20 DUP10 DUP2 ADD MLOAD PUSH1 0x1 PUSH1 0x1 PUSH1 0xA0 SHL SUB AND SWAP1 DUP10 ADD MSTORE PUSH2 0x1155 PUSH1 0x40 DUP11 ADD MLOAD PUSH1 0x40 DUP11 ADD MSTORE JUMP JUMPDEST PUSH2 0x1164 PUSH1 0x60 DUP11 ADD MLOAD PUSH1 0x60 DUP11 ADD MSTORE JUMP JUMPDEST PUSH2 0x1173 PUSH1 0x80 DUP11 ADD MLOAD PUSH1 0x80 DUP11 ADD MSTORE JUMP JUMPDEST PUSH2 0x1182 PUSH1 0xA0 DUP11 ADD MLOAD PUSH1 0xA0 DUP11 ADD MSTORE JUMP JUMPDEST PUSH2 0x1191 PUSH1 0xC0 DUP11 ADD MLOAD PUSH1 0xC0 DUP11 ADD MSTORE JUMP JUMPDEST PUSH2 0x11A0 PUSH1 0xE0 DUP11 ADD MLOAD PUSH1 0xE0 DUP11 ADD MSTORE JUMP JUMPDEST PUSH2 0x100 DUP10 ADD MLOAD DUP9 DUP3 SUB PUSH2 0x100 DUP11 ADD MSTORE PUSH2 0x1074 JUMP JUMPDEST PUSH2 0x120 DUP9 ADD MLOAD DUP8 DUP3 SUB PUSH2 0x120 DUP10 ADD MSTORE PUSH2 0x1074 JUMP JUMPDEST PUSH2 0x140 DUP8 ADD MLOAD DUP7 DUP3 SUB PUSH2 0x140 DUP9 ADD MSTORE PUSH2 0x1074 JUMP JUMPDEST PUSH2 0x160 DUP7 ADD MLOAD DUP6 DUP3 SUB PUSH2 0x160 DUP8 ADD MSTORE PUSH2 0x1074 JUMP JUMPDEST PUSH2 0x180 DUP6 ADD MLOAD DUP5 DUP3 SUB PUSH2 0x180 DUP7 ADD MSTORE PUSH2 0x1074 JUMP JUMPDEST SWAP3 ADD MLOAD SWAP1 PUSH2 0x1A0 DUP2 DUP5 SUB SWAP2 ADD MSTORE PUSH2 0x10BA JUMP JUMPDEST PUSH2 0x209 SWAP2 PUSH1 0x80 PUSH2 0x1274 PUSH2 0x1262 PUSH2 0x1250 PUSH2 0x123E PUSH1 0xA0 DUP7 ADD PUSH1 0x0 DUP9 ADD MLOAD DUP8 DUP3 SUB PUSH1 0x0 DUP10 ADD MSTORE PUSH2 0x1074 JUMP JUMPDEST PUSH1 0x20 DUP8 ADD MLOAD DUP7 DUP3 SUB PUSH1 0x20 DUP9 ADD MSTORE PUSH2 0x1074 JUMP JUMPDEST PUSH1 0x40 DUP7 ADD MLOAD DUP6 DUP3 SUB PUSH1 0x40 DUP8 ADD MSTORE PUSH2 0x1074 JUMP JUMPDEST PUSH1 0x60 DUP6 ADD MLOAD DUP5 DUP3 SUB PUSH1 0x60 DUP7 ADD MSTORE PUSH2 0x1074 JUMP JUMPDEST SWAP3 ADD MLOAD SWAP1 PUSH1 0x80 DUP2 DUP5 SUB SWAP2 ADD MSTORE PUSH2 0x1106 JUMP JUMPDEST DUP1 MLOAD DUP3 MSTORE PUSH2 0x1F3 SWAP2 SWAP1 PUSH1 0x60 SWAP1 DUP2 SWAP1 PUSH2 0x12A2 PUSH1 0x20 DUP3 ADD MLOAD PUSH1 0x20 DUP7 ADD MSTORE JUMP JUMPDEST PUSH1 0x40 DUP2 DUP2 ADD MLOAD ISZERO ISZERO SWAP1 DUP6 ADD MSTORE JUMPDEST ADD MLOAD SWAP2 ADD MSTORE JUMP JUMPDEST DUP1 MLOAD ISZERO ISZERO DUP3 MSTORE PUSH2 0x1F3 SWAP2 SWAP1 PUSH1 0x40 SWAP1 DUP2 SWAP1 PUSH2 0x12AF PUSH1 0x20 DUP3 ADD MLOAD PUSH1 0x20 DUP7 ADD MSTORE JUMP JUMPDEST SWAP1 PUSH2 0x209 SWAP1 PUSH1 0x40 DUP1 PUSH2 0x130B PUSH2 0x12F9 PUSH1 0x60 DUP6 ADD PUSH1 0x0 DUP9 ADD MLOAD DUP7 DUP3 SUB PUSH1 0x0 DUP9 ADD MSTORE PUSH2 0x1074 JUMP JUMPDEST PUSH1 0x20 DUP8 ADD MLOAD DUP6 DUP3 SUB PUSH1 0x20 DUP8 ADD MSTORE PUSH2 0x1074 JUMP JUMPDEST SWAP5 ADD MLOAD SWAP2 ADD MSTORE JUMP JUMPDEST DUP1 MLOAD ISZERO ISZERO DUP3 MSTORE PUSH2 0x1F3 SWAP2 SWAP1 PUSH1 0x60 SWAP1 DUP2 SWAP1 PUSH1 0x20 DUP2 DUP2 ADD MLOAD ISZERO ISZERO SWAP1 DUP6 ADD MSTORE PUSH2 0x12AF PUSH1 0x40 DUP3 ADD MLOAD PUSH1 0x40 DUP7 ADD MSTORE JUMP JUMPDEST SWAP6 SWAP5 SWAP3 SWAP2 PUSH2 0x1F3 SWAP5 PUSH2 0x1380 PUSH2 0x120 SWAP5 PUSH2 0x1376 PUSH2 0x136B PUSH2 0x138E SWAP7 PUSH2 0x1A0 DUP14 ADD SWAP1 DUP14 PUSH1 0x0 DUP2 DUP5 SUB SWAP2 ADD MSTORE PUSH2 0x1216 JUMP JUMPDEST SWAP5 PUSH1 0x20 DUP13 ADD SWAP1 PUSH2 0x1285 JUMP JUMPDEST PUSH1 0xA0 DUP11 ADD SWAP1 PUSH2 0x12B6 JUMP JUMPDEST DUP8 DUP3 SUB PUSH2 0x100 DUP10 ADD MSTORE PUSH2 0x12D5 JUMP JUMPDEST SWAP5 ADD SWAP1 PUSH2 0x1313 JUMP JUMPDEST CALLVALUE PUSH2 0x1D8 JUMPI PUSH2 0x276 PUSH2 0x13B1 PUSH2 0x13AC CALLDATASIZE PUSH1 0x4 PUSH2 0x1F5 JUMP JUMPDEST PUSH2 0x100A JUMP JUMPDEST SWAP2 PUSH2 0x13BE SWAP6 SWAP4 SWAP6 PUSH1 0x40 MLOAD SWAP1 JUMP JUMPDEST SWAP6 DUP7 SWAP6 DUP7 PUSH2 0x133E JUMP JUMPDEST CALLVALUE PUSH2 0x1D8 JUMPI PUSH2 0x322 PUSH2 0x13DA CALLDATASIZE PUSH1 0x4 PUSH2 0x327 JUMP JUMPDEST PUSH2 0x2CC6 JUMP JUMPDEST CALLVALUE PUSH2 0x1D8 JUMPI PUSH2 0x13EF CALLDATASIZE PUSH1 0x4 PUSH2 0xB1F JUMP JUMPDEST PUSH2 0x322 PUSH2 0x2CEC JUMP JUMPDEST SWAP1 DUP2 MSTORE PUSH1 0x60 DUP2 ADD SWAP4 SWAP3 PUSH2 0x1F3 SWAP3 SWAP1 SWAP2 PUSH1 0x40 SWAP2 PUSH2 0xA32 SWAP1 JUMPDEST PUSH1 0x20 DUP4 ADD MSTORE JUMP JUMPDEST CALLVALUE PUSH2 0x1D8 JUMPI PUSH2 0x276 PUSH2 0x1431 PUSH2 0x142B CALLDATASIZE PUSH1 0x4 PUSH2 0x2A2 JUMP JUMPDEST SWAP1 PUSH2 0x321E JUMP JUMPDEST PUSH1 0x40 MLOAD SWAP2 SWAP4 SWAP2 SWAP4 DUP5 SWAP4 DUP5 PUSH2 0x13F7 JUMP JUMPDEST DUP1 MLOAD PUSH1 0x1 PUSH1 0x1 PUSH1 0xA0 SHL SUB AND DUP3 MSTORE PUSH2 0x1F3 SWAP2 SWAP1 PUSH1 0xC0 SWAP1 DUP2 SWAP1 PUSH1 0x20 DUP2 DUP2 ADD MLOAD ISZERO ISZERO SWAP1 DUP6 ADD MSTORE PUSH2 0x1472 PUSH1 0x40 DUP3 ADD MLOAD PUSH1 0x40 DUP7 ADD MSTORE JUMP JUMPDEST PUSH2 0x1481 PUSH1 0x60 DUP3 ADD MLOAD PUSH1 0x60 DUP7 ADD MSTORE JUMP JUMPDEST PUSH2 0x1490 PUSH1 0x80 DUP3 ADD MLOAD PUSH1 0x80 DUP7 ADD MSTORE JUMP JUMPDEST PUSH2 0x12AF PUSH1 0xA0 DUP3 ADD MLOAD PUSH1 0xA0 DUP7 ADD MSTORE JUMP JUMPDEST PUSH1 0xE0 DUP2 ADD SWAP3 SWAP2 PUSH2 0x1F3 SWAP2 SWAP1 PUSH2 0x1440 JUMP JUMPDEST CALLVALUE PUSH2 0x1D8 JUMPI PUSH2 0x276 PUSH2 0x14CA PUSH2 0x14C5 CALLDATASIZE PUSH1 0x4 PUSH2 0x1F5 JUMP JUMPDEST PUSH2 0x32F1 JUMP JUMPDEST PUSH1 0x40 MLOAD SWAP2 DUP3 SWAP2 DUP3 PUSH2 0x149F JUMP JUMPDEST SWAP1 SWAP2 PUSH1 0x60 DUP3 DUP5 SUB SLT PUSH2 0x1D8 JUMPI PUSH2 0x209 PUSH2 0x14EF DUP5 DUP5 PUSH2 0x1E6 JUMP JUMPDEST SWAP4 PUSH1 0x40 PUSH2 0x14FF DUP3 PUSH1 0x20 DUP8 ADD PUSH2 0x295 JUMP JUMPDEST SWAP5 ADD PUSH2 0x1E6 JUMP JUMPDEST PUSH4 0x4E487B71 PUSH1 0xE0 SHL PUSH1 0x0 MSTORE PUSH1 0x32 PUSH1 0x4 MSTORE PUSH1 0x24 PUSH1 0x0 REVERT JUMPDEST DUP1 SLOAD DUP3 LT ISZERO PUSH2 0x153F JUMPI PUSH2 0x1536 PUSH1 0x1 SWAP2 PUSH1 0x0 MSTORE PUSH1 0x20 PUSH1 0x0 KECCAK256 SWAP1 JUMP JUMPDEST SWAP2 MUL ADD SWAP1 PUSH1 0x0 SWAP1 JUMP JUMPDEST PUSH2 0x1506 JUMP JUMPDEST SWAP1 PUSH2 0x1553 PUSH2 0x1558 SWAP3 PUSH1 0x8 PUSH2 0x9A3 JUMP JUMPDEST PUSH2 0xACB JUMP JUMPDEST DUP1 SLOAD DUP3 LT ISZERO PUSH2 0x1D8 JUMPI PUSH2 0x209 SWAP2 PUSH2 0x156E SWAP2 PUSH2 0x151C JUMP JUMPDEST SWAP1 PUSH2 0x227 JUMP JUMPDEST CALLVALUE PUSH2 0x1D8 JUMPI PUSH2 0x276 PUSH2 0x266 PUSH2 0x158A CALLDATASIZE PUSH1 0x4 PUSH2 0x14D6 JUMP JUMPDEST SWAP2 PUSH2 0x1544 JUMP JUMPDEST CALLVALUE PUSH2 0x1D8 JUMPI PUSH2 0x15A0 CALLDATASIZE PUSH1 0x4 PUSH2 0xB1F JUMP JUMPDEST PUSH2 0x276 PUSH2 0x15B5 PUSH1 0x1 SLOAD PUSH1 0x1 PUSH1 0x1 PUSH1 0xA0 SHL SUB AND SWAP1 JUMP JUMPDEST PUSH1 0x40 MLOAD SWAP2 DUP3 SWAP2 DUP3 PUSH1 0x1 PUSH1 0x1 PUSH1 0xA0 SHL SUB SWAP1 SWAP2 AND DUP2 MSTORE PUSH1 0x20 ADD SWAP1 JUMP JUMPDEST DUP1 MLOAD DUP3 MSTORE PUSH2 0x1F3 SWAP2 SWAP1 PUSH2 0x100 SWAP1 DUP2 SWAP1 PUSH2 0x15ED PUSH1 0x20 DUP3 ADD MLOAD PUSH1 0x20 DUP7 ADD MSTORE JUMP JUMPDEST PUSH2 0x15FC PUSH1 0x40 DUP3 ADD MLOAD PUSH1 0x40 DUP7 ADD MSTORE JUMP JUMPDEST PUSH1 0x60 DUP2 DUP2 ADD MLOAD ISZERO ISZERO SWAP1 DUP6 ADD MSTORE PUSH2 0x1617 PUSH1 0x80 DUP3 ADD MLOAD PUSH1 0x80 DUP7 ADD MSTORE JUMP JUMPDEST PUSH2 0x1626 PUSH1 0xA0 DUP3 ADD MLOAD PUSH1 0xA0 DUP7 ADD MSTORE JUMP JUMPDEST PUSH1 0xC0 DUP2 DUP2 ADD MLOAD ISZERO ISZERO SWAP1 DUP6 ADD MSTORE PUSH2 0x12AF PUSH1 0xE0 DUP3 ADD MLOAD PUSH1 0xE0 DUP7 ADD MSTORE JUMP JUMPDEST SWAP1 PUSH2 0x3C1 DUP2 PUSH2 0x120 SWAP4 PUSH2 0x15CF JUMP JUMPDEST SWAP1 PUSH2 0x165E PUSH2 0x10C9 PUSH2 0xCB1 DUP5 MLOAD SWAP1 JUMP JUMPDEST SWAP1 PUSH1 0x0 JUMPDEST DUP2 DUP2 LT PUSH2 0x166F JUMPI POP POP POP SWAP1 JUMP JUMPDEST SWAP1 SWAP2 SWAP3 PUSH2 0x1682 PUSH2 0x10F7 PUSH1 0x1 SWAP3 DUP7 MLOAD PUSH2 0x1641 JUMP JUMPDEST SWAP3 SWAP2 ADD PUSH2 0x1662 JUMP JUMPDEST DUP1 MLOAD DUP3 MSTORE PUSH2 0x209 SWAP2 PUSH1 0x40 DUP2 ADD SWAP2 PUSH1 0x20 ADD MLOAD SWAP1 PUSH1 0x20 DUP2 DUP5 SUB SWAP2 ADD MSTORE PUSH2 0x164F JUMP JUMPDEST PUSH1 0x20 DUP1 DUP3 MSTORE PUSH2 0x209 SWAP3 SWAP2 ADD SWAP1 PUSH2 0x168A JUMP JUMPDEST CALLVALUE PUSH2 0x1D8 JUMPI PUSH2 0x276 PUSH2 0x16D6 PUSH2 0x16D0 CALLDATASIZE PUSH1 0x4 PUSH2 0x2A2 JUMP JUMPDEST SWAP1 PUSH2 0x33EE JUMP JUMPDEST PUSH1 0x40 MLOAD SWAP2 DUP3 SWAP2 DUP3 PUSH2 0x16A9 JUMP JUMPDEST SWAP2 PUSH1 0x60 DUP4 DUP4 SUB SLT PUSH2 0x1D8 JUMPI PUSH2 0x16F7 DUP3 DUP5 PUSH2 0x1E6 JUMP JUMPDEST SWAP3 PUSH2 0x1705 DUP4 PUSH1 0x20 DUP4 ADD PUSH2 0x295 JUMP JUMPDEST SWAP3 PUSH1 0x40 DUP3 ADD CALLDATALOAD PUSH8 0xFFFFFFFFFFFFFFFF DUP2 GT PUSH2 0x1D8 JUMPI PUSH2 0x209 SWAP3 ADD PUSH2 0x400 JUMP JUMPDEST CALLVALUE PUSH2 0x1D8 JUMPI PUSH2 0x322 PUSH2 0x1737 CALLDATASIZE PUSH1 0x4 PUSH2 0x16E2 JUMP JUMPDEST SWAP2 PUSH2 0x3825 JUMP JUMPDEST SWAP1 PUSH2 0x174C PUSH2 0x10C9 PUSH2 0xCB1 DUP5 MLOAD SWAP1 JUMP JUMPDEST SWAP1 PUSH1 0x0 JUMPDEST DUP2 DUP2 LT PUSH2 0x175D JUMPI POP POP POP SWAP1 JUMP JUMPDEST SWAP1 SWAP2 SWAP3 PUSH2 0x1773 PUSH2 0x10F7 PUSH1 0x1 SWAP3 DUP7 MLOAD DUP2 MSTORE PUSH1 0x20 ADD SWAP1 JUMP JUMPDEST SWAP3 SWAP2 ADD PUSH2 0x1750 JUMP JUMPDEST PUSH1 0x20 DUP1 DUP3 MSTORE PUSH2 0x209 SWAP3 SWAP2 ADD SWAP1 PUSH2 0x173D JUMP JUMPDEST CALLVALUE PUSH2 0x1D8 JUMPI PUSH2 0x276 PUSH2 0x17A7 PUSH2 0x17A2 CALLDATASIZE PUSH1 0x4 PUSH2 0x1F5 JUMP JUMPDEST PUSH2 0x3830 JUMP JUMPDEST PUSH1 0x40 MLOAD SWAP2 DUP3 SWAP2 DUP3 PUSH2 0x177B JUMP JUMPDEST PUSH2 0x209 SWAP1 PUSH1 0xA0 SHR PUSH2 0xADE JUMP JUMPDEST PUSH2 0x209 SWAP1 SLOAD PUSH2 0x17B3 JUMP JUMPDEST PUSH2 0x17D4 SWAP1 PUSH1 0xA PUSH2 0x9A3 JUMP JUMPDEST DUP1 SLOAD PUSH1 0x1 PUSH1 0x1 PUSH1 0xA0 SHL SUB AND SWAP2 PUSH2 0x17E9 DUP3 PUSH2 0x17BF JUMP JUMPDEST SWAP2 PUSH2 0x17F6 PUSH1 0x1 DUP3 ADD PUSH2 0x9B4 JUMP JUMPDEST SWAP2 PUSH2 0x1803 PUSH1 0x2 DUP4 ADD PUSH2 0x9B4 JUMP JUMPDEST SWAP2 PUSH2 0x1810 PUSH1 0x3 DUP3 ADD PUSH2 0x9B4 JUMP JUMPDEST SWAP2 PUSH2 0x209 PUSH1 0x5 PUSH2 0x9FA PUSH1 0x4 DUP6 ADD PUSH2 0x9B4 JUMP JUMPDEST SWAP5 SWAP3 SWAP1 SWAP8 SWAP7 SWAP6 SWAP4 SWAP2 PUSH1 0xE0 DUP7 ADD SWAP9 PUSH1 0x0 DUP8 ADD PUSH2 0x1844 SWAP2 PUSH1 0x1 PUSH1 0x1 PUSH1 0xA0 SHL SUB AND SWAP1 MSTORE JUMP JUMPDEST ISZERO ISZERO PUSH1 0x20 DUP7 ADD MSTORE PUSH1 0x40 DUP6 ADD MSTORE PUSH1 0x60 DUP5 ADD MSTORE PUSH1 0x80 DUP4 ADD MSTORE PUSH1 0xA0 DUP3 ADD MSTORE PUSH1 0xC0 ADD MSTORE JUMP JUMPDEST CALLVALUE PUSH2 0x1D8 JUMPI PUSH2 0x276 PUSH2 0x1880 PUSH2 0x187B CALLDATASIZE PUSH1 0x4 PUSH2 0x1F5 JUMP JUMPDEST PUSH2 0x17C9 JUMP JUMPDEST SWAP4 PUSH2 0x1890 SWAP8 SWAP6 SWAP8 SWAP4 SWAP2 SWAP4 PUSH1 0x40 MLOAD SWAP1 JUMP JUMPDEST SWAP8 DUP9 SWAP8 DUP9 PUSH2 0x1822 JUMP JUMPDEST SWAP2 SWAP1 PUSH1 0x40 DUP4 DUP3 SUB SLT PUSH2 0x1D8 JUMPI PUSH2 0x209 SWAP1 PUSH1 0x20 PUSH2 0x14FF DUP3 DUP7 PUSH2 0x1E6 JUMP JUMPDEST PUSH2 0x1558 SWAP1 PUSH1 0x6 PUSH2 0x9A3 JUMP JUMPDEST CALLVALUE PUSH2 0x1D8 JUMPI PUSH2 0x276 PUSH2 0x266 PUSH2 0x18D6 CALLDATASIZE PUSH1 0x4 PUSH2 0x1899 JUMP JUMPDEST SWAP1 PUSH2 0x18B5 JUMP JUMPDEST PUSH2 0x209 SWAP2 PUSH2 0x220 PUSH2 0x1A0C PUSH2 0x199A PUSH2 0x192D PUSH2 0x191B PUSH2 0x1909 PUSH2 0x240 DUP8 ADD PUSH1 0x0 DUP10 ADD MLOAD DUP9 DUP3 SUB PUSH1 0x0 DUP11 ADD MSTORE PUSH2 0x1074 JUMP JUMPDEST PUSH1 0x20 DUP9 ADD MLOAD DUP8 DUP3 SUB PUSH1 0x20 DUP10 ADD MSTORE PUSH2 0x1074 JUMP JUMPDEST PUSH1 0x40 DUP8 ADD MLOAD DUP7 DUP3 SUB PUSH1 0x40 DUP9 ADD MSTORE PUSH2 0x1074 JUMP JUMPDEST PUSH2 0x193C PUSH1 0x60 DUP8 ADD MLOAD PUSH1 0x60 DUP8 ADD MSTORE JUMP JUMPDEST PUSH2 0x194B PUSH1 0x80 DUP8 ADD MLOAD PUSH1 0x80 DUP8 ADD MSTORE JUMP JUMPDEST PUSH2 0x195A PUSH1 0xA0 DUP8 ADD MLOAD PUSH1 0xA0 DUP8 ADD MSTORE JUMP JUMPDEST PUSH1 0xC0 DUP7 DUP2 ADD MLOAD ISZERO ISZERO SWAP1 DUP7 ADD MSTORE PUSH2 0x1975 PUSH1 0xE0 DUP8 ADD MLOAD PUSH1 0xE0 DUP8 ADD MSTORE JUMP JUMPDEST PUSH2 0x1986 PUSH2 0x100 DUP8 ADD MLOAD PUSH2 0x100 DUP8 ADD MSTORE JUMP JUMPDEST PUSH2 0x120 DUP7 ADD MLOAD DUP6 DUP3 SUB PUSH2 0x120 DUP8 ADD MSTORE PUSH2 0x1074 JUMP JUMPDEST PUSH2 0x19AB PUSH2 0x140 DUP7 ADD MLOAD PUSH2 0x140 DUP7 ADD MSTORE JUMP JUMPDEST PUSH2 0x19BC PUSH2 0x160 DUP7 ADD MLOAD PUSH2 0x160 DUP7 ADD MSTORE JUMP JUMPDEST PUSH2 0x180 DUP6 DUP2 ADD MLOAD ISZERO ISZERO SWAP1 DUP6 ADD MSTORE PUSH2 0x1A0 DUP6 DUP2 ADD MLOAD ISZERO ISZERO SWAP1 DUP6 ADD MSTORE PUSH2 0x19E7 PUSH2 0x1C0 DUP7 ADD MLOAD PUSH2 0x1C0 DUP7 ADD MSTORE JUMP JUMPDEST PUSH2 0x19F8 PUSH2 0x1E0 DUP7 ADD MLOAD PUSH2 0x1E0 DUP7 ADD MSTORE JUMP JUMPDEST PUSH2 0x200 DUP6 ADD MLOAD DUP5 DUP3 SUB PUSH2 0x200 DUP7 ADD MSTORE PUSH2 0x1106 JUMP JUMPDEST SWAP3 ADD MLOAD SWAP1 PUSH2 0x220 DUP2 DUP5 SUB SWAP2 ADD MSTORE PUSH2 0x1106 JUMP JUMPDEST PUSH1 0x20 DUP1 DUP3 MSTORE PUSH2 0x209 SWAP3 SWAP2 ADD SWAP1 PUSH2 0x18DC JUMP JUMPDEST CALLVALUE PUSH2 0x1D8 JUMPI PUSH2 0x276 PUSH2 0x1A4A PUSH2 0x1A45 CALLDATASIZE PUSH1 0x4 PUSH2 0x1F5 JUMP JUMPDEST PUSH2 0x3966 JUMP JUMPDEST PUSH1 0x40 MLOAD SWAP2 DUP3 SWAP2 DUP3 PUSH2 0x1A1E JUMP JUMPDEST CALLVALUE PUSH2 0x1D8 JUMPI PUSH2 0x276 PUSH2 0x266 PUSH2 0x1A6C CALLDATASIZE PUSH1 0x4 PUSH2 0x1899 JUMP JUMPDEST SWAP1 PUSH2 0x3CA7 JUMP JUMPDEST SWAP1 SWAP2 PUSH1 0x60 DUP3 DUP5 SUB SLT PUSH2 0x1D8 JUMPI PUSH2 0x209 PUSH2 0x1A8B DUP5 DUP5 PUSH2 0x1E6 JUMP JUMPDEST SWAP4 PUSH1 0x40 PUSH2 0x14FF DUP3 PUSH1 0x20 DUP8 ADD PUSH2 0x1E6 JUMP JUMPDEST CALLVALUE PUSH2 0x1D8 JUMPI PUSH2 0x276 PUSH2 0x17A7 PUSH2 0x1AB1 CALLDATASIZE PUSH1 0x4 PUSH2 0x1A72 JUMP JUMPDEST SWAP2 PUSH2 0x3FD6 JUMP JUMPDEST SWAP1 PUSH2 0x209 SWAP2 PUSH2 0x1106 JUMP JUMPDEST SWAP1 PUSH2 0x1AD7 PUSH2 0x1ACD DUP4 MLOAD SWAP1 JUMP JUMPDEST DUP1 DUP4 MSTORE SWAP2 PUSH1 0x20 ADD SWAP1 JUMP JUMPDEST SWAP1 DUP2 PUSH2 0x1AE9 PUSH1 0x20 DUP4 MUL DUP5 ADD SWAP5 PUSH1 0x20 ADD SWAP1 JUMP JUMPDEST SWAP3 PUSH1 0x0 SWAP2 JUMPDEST DUP4 DUP4 LT PUSH2 0x1AFD JUMPI POP POP POP POP POP SWAP1 JUMP JUMPDEST SWAP1 SWAP2 SWAP3 SWAP4 SWAP5 PUSH1 0x20 PUSH2 0x1B20 PUSH2 0x1B19 DUP4 DUP6 PUSH1 0x1 SWAP6 SUB DUP8 MSTORE DUP10 MLOAD PUSH2 0x1AB7 JUMP JUMPDEST SWAP8 PUSH1 0x20 ADD SWAP1 JUMP JUMPDEST SWAP4 ADD SWAP4 ADD SWAP2 SWAP4 SWAP3 SWAP1 PUSH2 0x1AEE JUMP JUMPDEST DUP1 MLOAD PUSH2 0x1C0 DUP1 DUP5 MSTORE PUSH2 0x209 SWAP4 SWAP2 PUSH1 0xA0 SWAP2 PUSH2 0x1B83 SWAP2 PUSH2 0x1B4D SWAP2 DUP6 ADD SWAP1 PUSH2 0x1216 JUMP JUMPDEST PUSH2 0x1B5F PUSH1 0x20 DUP7 ADD MLOAD PUSH1 0x20 DUP7 ADD SWAP1 PUSH2 0x1285 JUMP JUMPDEST PUSH2 0x1B70 PUSH1 0x40 DUP7 ADD MLOAD DUP5 DUP7 ADD SWAP1 PUSH2 0x12B6 JUMP JUMPDEST PUSH1 0x60 DUP6 ADD MLOAD DUP5 DUP3 SUB PUSH2 0x100 DUP7 ADD MSTORE PUSH2 0x12D5 JUMP JUMPDEST SWAP3 PUSH2 0x1B97 PUSH1 0x80 DUP3 ADD MLOAD PUSH2 0x120 DUP6 ADD SWAP1 PUSH2 0x1313 JUMP JUMPDEST ADD MLOAD SWAP1 PUSH2 0x1A0 DUP2 DUP5 SUB SWAP2 ADD MSTORE PUSH2 0x1AC1 JUMP JUMPDEST PUSH1 0x20 DUP1 DUP3 MSTORE PUSH2 0x209 SWAP3 SWAP2 ADD SWAP1 PUSH2 0x1B2D JUMP JUMPDEST CALLVALUE PUSH2 0x1D8 JUMPI PUSH2 0x276 PUSH2 0x1BD4 PUSH2 0x1BCF CALLDATASIZE PUSH1 0x4 PUSH2 0x1F5 JUMP JUMPDEST PUSH2 0x419A JUMP JUMPDEST PUSH1 0x40 MLOAD SWAP2 DUP3 SWAP2 DUP3 PUSH2 0x1BA8 JUMP JUMPDEST CALLVALUE PUSH2 0x1D8 JUMPI PUSH2 0x322 PUSH2 0x1BF3 CALLDATASIZE PUSH1 0x4 PUSH2 0x327 JUMP JUMPDEST PUSH2 0x4237 JUMP JUMPDEST PUSH2 0x242 PUSH2 0x209 SWAP3 PUSH2 0x1553 PUSH1 0x0 SWAP4 PUSH1 0x7 PUSH2 0x9A3 JUMP JUMPDEST CALLVALUE PUSH2 0x1D8 JUMPI PUSH2 0x276 PUSH2 0x266 PUSH2 0x1C22 CALLDATASIZE PUSH1 0x4 PUSH2 0x2A2 JUMP JUMPDEST SWAP1 PUSH2 0x1BF8 JUMP JUMPDEST SWAP1 PUSH2 0x1C3B SWAP3 SWAP2 PUSH2 0x1C36 PUSH2 0x424A JUMP JUMPDEST PUSH2 0x1C90 JUMP JUMPDEST SWAP1 PUSH2 0x1F3 PUSH2 0x428A JUMP JUMPDEST ISZERO PUSH2 0x1C4B JUMPI JUMP JUMPDEST PUSH1 0x40 MLOAD PUSH3 0x461BCD PUSH1 0xE5 SHL DUP2 MSTORE PUSH1 0x20 PUSH1 0x4 DUP3 ADD MSTORE PUSH1 0x12 PUSH1 0x24 DUP3 ADD MSTORE PUSH32 0x436F6E7472616374206973207061757365640000000000000000000000000000 PUSH1 0x44 DUP3 ADD MSTORE PUSH1 0x64 SWAP1 REVERT JUMPDEST SWAP1 PUSH2 0x209 SWAP3 SWAP2 PUSH2 0x1CAF PUSH2 0x1CAA PUSH2 0x1CA6 PUSH1 0xC PUSH2 0xC49 JUMP JUMPDEST ISZERO SWAP1 JUMP JUMPDEST PUSH2 0x1C44 JUMP JUMPDEST PUSH2 0x1E1A JUMP JUMPDEST PUSH4 0x4E487B71 PUSH1 0xE0 SHL PUSH1 0x0 MSTORE PUSH1 0x11 PUSH1 0x4 MSTORE PUSH1 0x24 PUSH1 0x0 REVERT JUMPDEST PUSH1 0x0 NOT DUP2 EQ PUSH2 0x1CD9 JUMPI PUSH1 0x1 ADD SWAP1 JUMP JUMPDEST PUSH2 0x1CB4 JUMP JUMPDEST SWAP1 PUSH1 0x0 NOT SWAP1 JUMPDEST SWAP2 DUP2 NOT AND SWAP2 AND OR SWAP1 JUMP JUMPDEST SWAP1 PUSH2 0x1CFE PUSH2 0x209 PUSH2 0x1D05 SWAP3 PUSH2 0x996 JUMP JUMPDEST DUP3 SLOAD PUSH2 0x1CDE JUMP JUMPDEST SWAP1 SSTORE JUMP JUMPDEST PUSH4 0x4E487B71 PUSH1 0xE0 SHL PUSH1 0x0 MSTORE PUSH1 0x0 PUSH1 0x4 MSTORE PUSH1 0x24 PUSH1 0x0 REVERT JUMPDEST SWAP1 PUSH1 0x1 PUSH1 0x1 PUSH1 0xA0 SHL SUB SWAP1 PUSH2 0x1CE4 JUMP JUMPDEST SWAP1 PUSH2 0x1D3E PUSH2 0x209 PUSH2 0x1D05 SWAP3 PUSH2 0xAC2 JUMP JUMPDEST DUP3 SLOAD PUSH2 0x1D1F JUMP JUMPDEST SWAP1 PUSH2 0x1CFE PUSH2 0x209 PUSH2 0x1D05 SWAP3 SWAP1 JUMP JUMPDEST PUSH1 0x3 PUSH2 0x1DAE PUSH1 0x60 PUSH2 0x1F3 SWAP5 PUSH2 0x1D7B PUSH2 0x1D75 PUSH1 0x0 DUP4 ADD MLOAD PUSH1 0x1 PUSH1 0x1 PUSH1 0xA0 SHL SUB AND SWAP1 JUMP JUMPDEST DUP7 PUSH2 0x1D2E JUMP JUMPDEST PUSH2 0x1D92 PUSH2 0x1D89 PUSH1 0x20 DUP4 ADD MLOAD SWAP1 JUMP JUMPDEST PUSH1 0x1 DUP8 ADD PUSH2 0x1CEE JUMP JUMPDEST PUSH2 0x1DA9 PUSH2 0x1DA0 PUSH1 0x40 DUP4 ADD MLOAD SWAP1 JUMP JUMPDEST PUSH1 0x2 DUP8 ADD PUSH2 0x1D45 JUMP JUMPDEST ADD MLOAD SWAP1 JUMP JUMPDEST SWAP2 ADD PUSH2 0x1CEE JUMP JUMPDEST SWAP1 PUSH2 0x1F3 SWAP2 PUSH2 0x1D53 JUMP JUMPDEST SWAP2 PUSH1 0x0 NOT PUSH1 0x8 SWAP3 SWAP1 SWAP3 MUL SWAP2 DUP3 SHL SWAP2 SHL PUSH2 0x1CE4 JUMP JUMPDEST SWAP2 SWAP1 PUSH2 0x1DE4 PUSH2 0x209 PUSH2 0x1D05 SWAP4 PUSH2 0x996 JUMP JUMPDEST SWAP1 DUP4 SLOAD PUSH2 0x1DBF JUMP JUMPDEST SWAP1 DUP2 SLOAD SWAP2 PUSH9 0x10000000000000000 DUP4 LT ISZERO PUSH2 0x38B JUMPI DUP3 PUSH2 0x1E14 SWAP2 PUSH1 0x1 PUSH2 0x1F3 SWAP6 ADD DUP2 SSTORE PUSH2 0x151C JUMP JUMPDEST SWAP1 PUSH2 0x1DD3 JUMP JUMPDEST POP SWAP1 PUSH2 0x1E28 PUSH1 0x0 DUP3 DUP5 PUSH2 0x43CC JUMP JUMPDEST PUSH2 0x1E3C PUSH2 0x1E35 PUSH1 0x5 PUSH2 0x9B4 JUMP JUMPDEST DUP4 DUP4 PUSH2 0x4552 JUMP JUMPDEST SWAP1 PUSH32 0xC3013841EB45DBF48E54BCCDBDFCA27C812FE5016E531D0FF451032D38369C6F PUSH2 0x1F44 PUSH2 0x1F2E PUSH2 0x1F28 PUSH2 0x1E71 PUSH1 0x5 PUSH2 0x9B4 JUMP JUMPDEST SWAP7 PUSH2 0x1E85 PUSH2 0x1E7E DUP10 PUSH2 0x1CCA JUMP JUMPDEST PUSH1 0x5 PUSH2 0x1CEE JUMP JUMPDEST PUSH2 0x1ECD PUSH2 0x1E90 PUSH2 0xEE5 JUMP JUMPDEST PUSH1 0x1 PUSH1 0x1 PUSH1 0xA0 SHL SUB DUP9 AND DUP2 MSTORE PUSH2 0x1EA7 DUP4 PUSH1 0x20 DUP4 ADD MSTORE JUMP JUMPDEST PUSH2 0x1EB2 DUP10 PUSH1 0x40 DUP4 ADD MSTORE JUMP JUMPDEST PUSH2 0x1EBD TIMESTAMP PUSH1 0x60 DUP4 ADD MSTORE JUMP JUMPDEST PUSH2 0x1EC8 DUP11 PUSH1 0x4 PUSH2 0x9A3 JUMP JUMPDEST PUSH2 0x1DB5 JUMP JUMPDEST PUSH2 0x1EE4 DUP9 PUSH2 0x1EDF PUSH2 0x209 DUP5 PUSH1 0x6 PUSH2 0x9A3 JUMP JUMPDEST PUSH2 0x1DEC JUMP JUMPDEST PUSH2 0x1F0D PUSH2 0x1EF6 DUP8 PUSH2 0x1553 DUP5 PUSH1 0x7 PUSH2 0x9A3 JUMP JUMPDEST PUSH2 0x1F07 PUSH2 0x1F02 DUP3 PUSH2 0x9B4 JUMP JUMPDEST PUSH2 0x1CCA JUMP JUMPDEST SWAP1 PUSH2 0x1CEE JUMP JUMPDEST PUSH2 0x1F23 DUP9 PUSH2 0x1EDF PUSH2 0x209 DUP10 PUSH2 0x1553 DUP7 PUSH1 0x8 PUSH2 0x9A3 JUMP JUMPDEST PUSH2 0x996 JUMP JUMPDEST SWAP4 PUSH2 0xAC2 JUMP JUMPDEST SWAP4 PUSH2 0x1F38 PUSH1 0x40 MLOAD SWAP1 JUMP JUMPDEST SWAP2 DUP3 SWAP2 TIMESTAMP SWAP1 DUP9 DUP5 PUSH2 0x13F7 JUMP JUMPDEST SUB SWAP1 LOG3 SWAP1 JUMP JUMPDEST PUSH2 0x209 SWAP2 SWAP1 PUSH1 0x0 PUSH2 0x1C28 JUMP JUMPDEST PUSH2 0x1F3 SWAP1 PUSH2 0x1F62 PUSH2 0x45B6 JUMP JUMPDEST PUSH2 0x1F87 JUMP JUMPDEST SWAP1 PUSH1 0xFF SWAP1 PUSH2 0x1CE4 JUMP JUMPDEST SWAP1 PUSH2 0x1F80 PUSH2 0x209 PUSH2 0x1D05 SWAP3 ISZERO ISZERO SWAP1 JUMP JUMPDEST DUP3 SLOAD PUSH2 0x1F67 JUMP JUMPDEST PUSH2 0x1F92 DUP2 PUSH1 0xC PUSH2 0x1F70 JUMP JUMPDEST ISZERO PUSH2 0x1FC7 JUMPI PUSH32 0xAB35696F06E428EBC5CEBA8CD17F8FED287BAF43440206D1943AF1EE53E6D267 PUSH2 0x1FC1 PUSH1 0x40 MLOAD SWAP1 JUMP JUMPDEST PUSH1 0x0 SWAP1 LOG1 JUMP JUMPDEST PUSH32 0xE5E3B3FB504C22CF5C42FA07D521225937514C654007E1F12646F89768D6F94 PUSH2 0x1FC1 PUSH1 0x40 MLOAD SWAP1 JUMP JUMPDEST PUSH2 0x1F3 SWAP1 PUSH2 0x1F56 JUMP JUMPDEST PUSH2 0x1F3 SWAP1 PUSH2 0x2006 PUSH2 0x45B6 JUMP JUMPDEST PUSH2 0x20F1 JUMP JUMPDEST PUSH2 0x27A PUSH2 0x209 PUSH2 0x209 SWAP3 SWAP1 JUMP JUMPDEST PUSH2 0x209 SWAP1 PUSH2 0x200B JUMP JUMPDEST ISZERO PUSH2 0x2028 JUMPI JUMP JUMPDEST PUSH1 0x40 MLOAD PUSH3 0x461BCD PUSH1 0xE5 SHL DUP2 MSTORE PUSH1 0x20 PUSH1 0x4 DUP3 ADD MSTORE PUSH1 0xF PUSH1 0x24 DUP3 ADD MSTORE PUSH32 0x494E56414C49445F414444524553530000000000000000000000000000000000 PUSH1 0x44 DUP3 ADD MSTORE PUSH1 0x64 SWAP1 REVERT JUMPDEST ISZERO PUSH2 0x2074 JUMPI JUMP JUMPDEST PUSH1 0x40 MLOAD PUSH3 0x461BCD PUSH1 0xE5 SHL DUP2 MSTORE PUSH1 0x20 PUSH1 0x4 DUP3 ADD MSTORE PUSH1 0x9 PUSH1 0x24 DUP3 ADD MSTORE PUSH9 0x2727AA2FA0A226A4A7 PUSH1 0xB9 SHL PUSH1 0x44 DUP3 ADD MSTORE PUSH1 0x64 SWAP1 REVERT JUMPDEST ISZERO PUSH2 0x20AC JUMPI JUMP JUMPDEST PUSH1 0x40 MLOAD PUSH3 0x461BCD PUSH1 0xE5 SHL DUP2 MSTORE PUSH1 0x20 PUSH1 0x4 DUP3 ADD MSTORE PUSH1 0x13 PUSH1 0x24 DUP3 ADD MSTORE PUSH32 0x43414E4E4F545F52454D4F56455F4F574E455200000000000000000000000000 PUSH1 0x44 DUP3 ADD MSTORE PUSH1 0x64 SWAP1 REVERT JUMPDEST PUSH2 0x2174 SWAP1 PUSH2 0x2116 PUSH2 0x2105 PUSH2 0x27A PUSH1 0x0 PUSH2 0x2018 JUMP JUMPDEST PUSH1 0x1 PUSH1 0x1 PUSH1 0xA0 SHL SUB DUP4 AND EQ ISZERO PUSH2 0x2021 JUMP JUMPDEST PUSH2 0x2131 PUSH2 0x212C PUSH2 0x2127 DUP4 PUSH1 0xD PUSH2 0xACB JUMP JUMPDEST PUSH2 0xC49 JUMP JUMPDEST PUSH2 0x206D JUMP JUMPDEST PUSH2 0x215A PUSH2 0x2149 PUSH2 0x27A PUSH1 0x1 SLOAD PUSH1 0x1 PUSH1 0x1 PUSH1 0xA0 SHL SUB AND SWAP1 JUMP JUMPDEST PUSH1 0x1 PUSH1 0x1 PUSH1 0xA0 SHL SUB DUP4 AND EQ ISZERO PUSH2 0x20A5 JUMP JUMPDEST PUSH2 0x216F PUSH1 0x0 PUSH2 0x216A DUP4 PUSH1 0xD PUSH2 0xACB JUMP JUMPDEST PUSH2 0x1F70 JUMP JUMPDEST PUSH2 0xAC2 JUMP JUMPDEST PUSH32 0xA3B62BC36326052D97EA62D63C3D60308ED4C3EA8AC079DD8499F1E9C4F80C0F PUSH2 0x219E PUSH1 0x40 MLOAD SWAP1 JUMP JUMPDEST PUSH1 0x0 SWAP1 LOG2 JUMP JUMPDEST PUSH2 0x1F3 SWAP1 PUSH2 0x1FFA JUMP JUMPDEST ISZERO PUSH2 0x21B4 JUMPI JUMP JUMPDEST PUSH1 0x40 MLOAD PUSH3 0x461BCD PUSH1 0xE5 SHL DUP2 MSTORE PUSH1 0x20 PUSH1 0x4 DUP3 ADD MSTORE PUSH1 0xE PUSH1 0x24 DUP3 ADD MSTORE PUSH32 0x4E6F7420417574686F72697A6564000000000000000000000000000000000000 PUSH1 0x44 DUP3 ADD MSTORE PUSH1 0x64 SWAP1 REVERT JUMPDEST SWAP1 PUSH2 0x209 SWAP2 PUSH2 0x2214 PUSH2 0x220F PUSH2 0x2127 CALLER PUSH1 0xD PUSH2 0xACB JUMP JUMPDEST PUSH2 0x21AD JUMP JUMPDEST SWAP1 PUSH2 0x209 SWAP2 PUSH2 0x2229 PUSH2 0x1CAA PUSH2 0x1CA6 PUSH1 0xC PUSH2 0xC49 JUMP JUMPDEST PUSH2 0x28A0 JUMP JUMPDEST ISZERO PUSH2 0x2235 JUMPI JUMP JUMPDEST PUSH1 0x40 MLOAD PUSH3 0x461BCD PUSH1 0xE5 SHL DUP2 MSTORE PUSH1 0x20 PUSH1 0x4 DUP3 ADD MSTORE PUSH1 0xE PUSH1 0x24 DUP3 ADD MSTORE PUSH32 0x5449544C455F5245515549524544000000000000000000000000000000000000 PUSH1 0x44 DUP3 ADD MSTORE PUSH1 0x64 SWAP1 REVERT JUMPDEST ISZERO PUSH2 0x2281 JUMPI JUMP JUMPDEST PUSH1 0x40 MLOAD PUSH3 0x461BCD PUSH1 0xE5 SHL DUP2 MSTORE PUSH1 0x20 PUSH1 0x4 DUP3 ADD MSTORE PUSH1 0xC PUSH1 0x24 DUP3 ADD MSTORE PUSH12 0x494E56414C49445F44415445 PUSH1 0xA0 SHL PUSH1 0x44 DUP3 ADD MSTORE PUSH1 0x64 SWAP1 REVERT JUMPDEST ISZERO PUSH2 0x22BC JUMPI JUMP JUMPDEST PUSH1 0x40 MLOAD PUSH3 0x461BCD PUSH1 0xE5 SHL DUP2 MSTORE PUSH1 0x20 PUSH1 0x4 DUP3 ADD MSTORE PUSH1 0xF PUSH1 0x24 DUP3 ADD MSTORE PUSH32 0x445241575F4245464F52455F454E440000000000000000000000000000000000 PUSH1 0x44 DUP3 ADD MSTORE PUSH1 0x64 SWAP1 REVERT JUMPDEST SWAP2 SWAP1 PUSH2 0x230C JUMP JUMPDEST SWAP3 SWAP1 JUMP JUMPDEST DUP3 SUB SWAP2 DUP3 GT PUSH2 0x1CD9 JUMPI JUMP JUMPDEST ISZERO PUSH2 0x231E JUMPI JUMP JUMPDEST PUSH1 0x40 MLOAD PUSH3 0x461BCD PUSH1 0xE5 SHL DUP2 MSTORE PUSH1 0x20 PUSH1 0x4 DUP3 ADD MSTORE PUSH1 0xE PUSH1 0x24 DUP3 ADD MSTORE PUSH32 0x445241575F544F4F5F4541524C59000000000000000000000000000000000000 PUSH1 0x44 DUP3 ADD MSTORE PUSH1 0x64 SWAP1 REVERT JUMPDEST SWAP2 SWAP1 DUP3 ADD DUP1 SWAP3 GT PUSH2 0x1CD9 JUMPI JUMP JUMPDEST ISZERO PUSH2 0x2377 JUMPI JUMP JUMPDEST PUSH1 0x40 MLOAD PUSH3 0x461BCD PUSH1 0xE5 SHL DUP2 MSTORE PUSH1 0x20 PUSH1 0x4 DUP3 ADD MSTORE PUSH1 0xC PUSH1 0x24 DUP3 ADD MSTORE PUSH12 0x222920ABAFAA27A7AFA320A9 PUSH1 0xA1 SHL PUSH1 0x44 DUP3 ADD MSTORE PUSH1 0x64 SWAP1 REVERT JUMPDEST PUSH2 0x1F3 SWAP2 PUSH1 0x0 SWAP2 PUSH2 0x1DD3 JUMP JUMPDEST DUP2 DUP2 LT PUSH2 0x23C2 JUMPI POP POP JUMP JUMPDEST DUP1 PUSH2 0x23D0 PUSH1 0x0 PUSH1 0x1 SWAP4 PUSH2 0x23AB JUMP JUMPDEST ADD PUSH2 0x23B7 JUMP JUMPDEST SWAP2 SWAP1 PUSH1 0x1F DUP2 GT PUSH2 0x23E5 JUMPI POP POP POP JUMP JUMPDEST PUSH2 0x23F7 PUSH2 0x1F3 SWAP4 PUSH1 0x0 MSTORE PUSH1 0x20 PUSH1 0x0 KECCAK256 SWAP1 JUMP JUMPDEST SWAP1 PUSH1 0x20 PUSH1 0x1F DUP5 ADD DUP2 SWAP1 DIV DUP4 ADD SWAP4 LT PUSH2 0x2419 JUMPI JUMPDEST PUSH1 0x20 PUSH1 0x1F SWAP1 SWAP2 ADD DIV ADD SWAP1 PUSH2 0x23B7 JUMP JUMPDEST SWAP1 SWAP2 POP DUP2 SWAP1 PUSH2 0x240A JUMP JUMPDEST SWAP1 PUSH2 0x242C DUP2 MLOAD SWAP1 JUMP JUMPDEST SWAP1 PUSH8 0xFFFFFFFFFFFFFFFF DUP3 GT PUSH2 0x38B JUMPI PUSH2 0x2450 DUP3 PUSH2 0x244A DUP6 SLOAD PUSH2 0xB67 JUMP JUMPDEST DUP6 PUSH2 0x23D6 JUMP JUMPDEST PUSH1 0x20 SWAP1 PUSH1 0x1F DUP4 GT PUSH1 0x1 EQ PUSH2 0x248B JUMPI PUSH2 0x1D05 SWAP3 SWAP2 PUSH1 0x0 SWAP2 DUP4 PUSH2 0x2480 JUMPI JUMPDEST POP POP PUSH1 0x0 NOT PUSH1 0x8 DUP4 MUL SHR NOT AND SWAP1 PUSH1 0x2 MUL OR SWAP1 JUMP JUMPDEST ADD MLOAD SWAP1 POP CODESIZE DUP1 PUSH2 0x246C JUMP JUMPDEST PUSH1 0x1F NOT DUP4 AND SWAP2 PUSH2 0x24A0 DUP6 PUSH1 0x0 MSTORE PUSH1 0x20 PUSH1 0x0 KECCAK256 SWAP1 JUMP JUMPDEST SWAP3 PUSH1 0x0 JUMPDEST DUP2 DUP2 LT PUSH2 0x24DE JUMPI POP SWAP2 PUSH1 0x2 SWAP4 SWAP2 DUP6 PUSH1 0x1 SWAP7 SWAP5 LT PUSH2 0x24C5 JUMPI JUMPDEST POP POP POP MUL ADD SWAP1 SSTORE JUMP JUMPDEST ADD MLOAD PUSH1 0x0 NOT PUSH1 0x8 PUSH1 0x1F DUP6 AND MUL SHR NOT AND SWAP1 SSTORE CODESIZE DUP1 DUP1 PUSH2 0x24BC JUMP JUMPDEST SWAP2 SWAP4 PUSH1 0x20 PUSH1 0x1 DUP2 SWAP3 DUP8 DUP8 ADD MLOAD DUP2 SSTORE ADD SWAP6 ADD SWAP3 ADD PUSH2 0x24A4 JUMP JUMPDEST SWAP1 PUSH2 0x1F3 SWAP2 PUSH2 0x2423 JUMP JUMPDEST PUSH2 0x209 SWAP1 MLOAD PUSH2 0xC78 JUMP JUMPDEST SWAP1 PUSH2 0x1F80 PUSH2 0x209 PUSH2 0x1D05 SWAP3 PUSH2 0x10A8 JUMP JUMPDEST SWAP1 PUSH21 0xFFFFFFFFFFFFFFFFFFFFFFFFFFFFFFFFFFFFFFFF00 SWAP1 PUSH1 0x8 SHL PUSH2 0x1CE4 JUMP JUMPDEST SWAP1 PUSH2 0x254A PUSH2 0x209 PUSH2 0x1D05 SWAP3 PUSH2 0xAC2 JUMP JUMPDEST DUP3 SLOAD PUSH2 0x251A JUMP JUMPDEST SWAP2 SWAP1 SWAP2 DUP3 DUP3 LT PUSH2 0x2560 JUMPI POP POP POP JUMP JUMPDEST PUSH2 0x1F3 SWAP3 SWAP2 PUSH2 0x2575 SWAP1 SWAP2 PUSH1 0x0 MSTORE PUSH1 0x20 PUSH1 0x0 KECCAK256 SWAP1 JUMP JUMPDEST SWAP2 DUP3 ADD SWAP2 ADD PUSH2 0x23B7 JUMP JUMPDEST SWAP1 PUSH9 0x10000000000000000 DUP2 GT PUSH2 0x38B JUMPI DUP2 PUSH2 0x259C PUSH2 0x1F3 SWAP4 SLOAD SWAP1 JUMP JUMPDEST SWAP1 DUP3 DUP2 SSTORE PUSH2 0x2551 JUMP JUMPDEST DUP2 MLOAD SWAP2 PUSH8 0xFFFFFFFFFFFFFFFF DUP4 GT PUSH2 0x38B JUMPI PUSH2 0x25D0 PUSH2 0xCBB PUSH1 0x1 SWAP3 PUSH2 0x25CA DUP7 DUP7 PUSH2 0x257F JUMP JUMPDEST PUSH1 0x20 ADD SWAP1 JUMP JUMPDEST SWAP3 DIV SWAP2 PUSH1 0x0 JUMPDEST DUP4 DUP2 LT PUSH2 0x25E3 JUMPI POP POP POP POP JUMP JUMPDEST PUSH1 0x1 SWAP1 PUSH1 0x20 PUSH2 0x25F3 PUSH2 0x209 DUP7 MLOAD SWAP1 JUMP JUMPDEST SWAP5 ADD SWAP4 DUP2 DUP5 ADD SSTORE ADD PUSH2 0x25D6 JUMP JUMPDEST SWAP1 PUSH2 0x1F3 SWAP2 PUSH2 0x25A5 JUMP JUMPDEST PUSH2 0x1F3 SWAP2 PUSH1 0xC SWAP1 PUSH2 0x273C SWAP1 PUSH2 0x1A0 SWAP1 PUSH2 0x2643 DUP6 PUSH2 0x262F PUSH2 0x2629 DUP5 PUSH2 0x2500 JUMP JUMPDEST DUP3 PUSH2 0x250A JUMP JUMPDEST PUSH1 0x20 DUP4 ADD MLOAD PUSH1 0x1 PUSH1 0x1 PUSH1 0xA0 SHL SUB AND SWAP1 PUSH2 0x253A JUMP JUMPDEST PUSH2 0x2651 PUSH2 0x1D89 PUSH1 0x40 DUP4 ADD MLOAD SWAP1 JUMP JUMPDEST PUSH2 0x2668 PUSH2 0x265F PUSH1 0x60 DUP4 ADD MLOAD SWAP1 JUMP JUMPDEST PUSH1 0x2 DUP8 ADD PUSH2 0x1CEE JUMP JUMPDEST PUSH2 0x267F PUSH2 0x2676 PUSH1 0x80 DUP4 ADD MLOAD SWAP1 JUMP JUMPDEST PUSH1 0x3 DUP8 ADD PUSH2 0x1CEE JUMP JUMPDEST PUSH2 0x2696 PUSH2 0x268D PUSH1 0xA0 DUP4 ADD MLOAD SWAP1 JUMP JUMPDEST PUSH1 0x4 DUP8 ADD PUSH2 0x1CEE JUMP JUMPDEST PUSH2 0x26AD PUSH2 0x26A4 PUSH1 0xC0 DUP4 ADD MLOAD SWAP1 JUMP JUMPDEST PUSH1 0x5 DUP8 ADD PUSH2 0x1CEE JUMP JUMPDEST PUSH2 0x26C4 PUSH2 0x26BB PUSH1 0xE0 DUP4 ADD MLOAD SWAP1 JUMP JUMPDEST PUSH1 0x6 DUP8 ADD PUSH2 0x1CEE JUMP JUMPDEST PUSH2 0x26DC PUSH2 0x26D3 PUSH2 0x100 DUP4 ADD MLOAD SWAP1 JUMP JUMPDEST PUSH1 0x7 DUP8 ADD PUSH2 0x24F6 JUMP JUMPDEST PUSH2 0x26F4 PUSH2 0x26EB PUSH2 0x120 DUP4 ADD MLOAD SWAP1 JUMP JUMPDEST PUSH1 0x8 DUP8 ADD PUSH2 0x24F6 JUMP JUMPDEST PUSH2 0x270C PUSH2 0x2703 PUSH2 0x140 DUP4 ADD MLOAD SWAP1 JUMP JUMPDEST PUSH1 0x9 DUP8 ADD PUSH2 0x24F6 JUMP JUMPDEST PUSH2 0x2724 PUSH2 0x271B PUSH2 0x160 DUP4 ADD MLOAD SWAP1 JUMP JUMPDEST PUSH1 0xA DUP8 ADD PUSH2 0x24F6 JUMP JUMPDEST PUSH2 0x1DA9 PUSH2 0x2733 PUSH2 0x180 DUP4 ADD MLOAD SWAP1 JUMP JUMPDEST PUSH1 0xB DUP8 ADD PUSH2 0x24F6 JUMP JUMPDEST SWAP2 ADD PUSH2 0x2600 JUMP JUMPDEST SWAP1 PUSH2 0x1F3 SWAP2 PUSH2 0x260A JUMP JUMPDEST PUSH1 0x4 PUSH2 0x27B1 PUSH1 0x80 PUSH2 0x1F3 SWAP5 PUSH2 0x276C PUSH2 0x2766 PUSH1 0x0 DUP4 ADD MLOAD SWAP1 JUMP JUMPDEST DUP7 PUSH2 0x24F6 JUMP JUMPDEST PUSH2 0x2783 PUSH2 0x277A PUSH1 0x20 DUP4 ADD MLOAD SWAP1 JUMP JUMPDEST PUSH1 0x1 DUP8 ADD PUSH2 0x24F6 JUMP JUMPDEST PUSH2 0x279A PUSH2 0x2791 PUSH1 0x40 DUP4 ADD MLOAD SWAP1 JUMP JUMPDEST PUSH1 0x2 DUP8 ADD PUSH2 0x24F6 JUMP JUMPDEST PUSH2 0x1DA9 PUSH2 0x27A8 PUSH1 0x60 DUP4 ADD MLOAD SWAP1 JUMP JUMPDEST PUSH1 0x3 DUP8 ADD PUSH2 0x24F6 JUMP JUMPDEST SWAP2 ADD PUSH2 0x2743 JUMP JUMPDEST SWAP1 PUSH2 0x1F3 SWAP2 PUSH2 0x274D JUMP JUMPDEST PUSH1 0x3 PUSH2 0x1DAE PUSH1 0x60 PUSH2 0x1F3 SWAP5 PUSH2 0x27E1 PUSH2 0x27DB PUSH1 0x0 DUP4 ADD MLOAD SWAP1 JUMP JUMPDEST DUP7 PUSH2 0x1CEE JUMP JUMPDEST PUSH2 0x27EF PUSH2 0x1D89 PUSH1 0x20 DUP4 ADD MLOAD SWAP1 JUMP JUMPDEST PUSH2 0x1DA9 PUSH2 0x27FF PUSH1 0x40 DUP4 ADD MLOAD ISZERO ISZERO SWAP1 JUMP JUMPDEST PUSH1 0x2 DUP8 ADD PUSH2 0x1F70 JUMP JUMPDEST SWAP1 PUSH2 0x1F3 SWAP2 PUSH2 0x27C2 JUMP JUMPDEST PUSH1 0x2 PUSH2 0x1DAE PUSH1 0x40 PUSH2 0x1F3 SWAP5 PUSH2 0x2833 PUSH2 0x282D PUSH1 0x0 DUP4 ADD MLOAD ISZERO ISZERO SWAP1 JUMP JUMPDEST DUP7 PUSH2 0x1F70 JUMP JUMPDEST PUSH2 0x1DA9 PUSH2 0x1D89 PUSH1 0x20 DUP4 ADD MLOAD SWAP1 JUMP JUMPDEST SWAP1 PUSH2 0x1F3 SWAP2 PUSH2 0x2812 JUMP JUMPDEST PUSH1 0x2 PUSH2 0x1DAE PUSH1 0x40 PUSH2 0x1F3 SWAP5 PUSH2 0x2864 PUSH2 0x2766 PUSH1 0x0 DUP4 ADD MLOAD SWAP1 JUMP JUMPDEST PUSH2 0x1DA9 PUSH2 0x277A PUSH1 0x20 DUP4 ADD MLOAD SWAP1 JUMP JUMPDEST SWAP1 PUSH2 0x1F3 SWAP2 PUSH2 0x284B JUMP JUMPDEST SWAP1 PUSH2 0xFF00 SWAP1 PUSH1 0x8 SHL PUSH2 0x1CE4 JUMP JUMPDEST SWAP1 PUSH2 0x2899 PUSH2 0x209 PUSH2 0x1D05 SWAP3 ISZERO ISZERO SWAP1 JUMP JUMPDEST DUP3 SLOAD PUSH2 0x287C JUMP JUMPDEST POP DUP1 MLOAD MLOAD MLOAD PUSH2 0x209 SWAP2 SWAP1 PUSH2 0x28C6 PUSH1 0x0 SWAP2 PUSH2 0x28C0 PUSH2 0x28BC DUP5 PUSH2 0x996 JUMP JUMPDEST SWAP2 SWAP1 JUMP JUMPDEST GT PUSH2 0x222E JUMP JUMPDEST PUSH1 0x20 DUP3 ADD PUSH2 0x28F0 PUSH2 0x28D9 PUSH1 0x20 DUP4 MLOAD ADD MLOAD SWAP1 JUMP JUMPDEST PUSH2 0x28EA PUSH2 0x28BC PUSH2 0x209 DUP7 DUP7 MLOAD ADD MLOAD SWAP1 JUMP JUMPDEST GT PUSH2 0x227A JUMP JUMPDEST PUSH2 0x2917 PUSH2 0x28FF PUSH1 0x60 DUP4 MLOAD ADD MLOAD SWAP1 JUMP JUMPDEST PUSH2 0x2911 PUSH2 0x28BC PUSH2 0x209 PUSH1 0x20 DUP7 MLOAD ADD MLOAD SWAP1 JUMP JUMPDEST GT PUSH2 0x22B5 JUMP JUMPDEST PUSH2 0x294B PUSH2 0x2936 PUSH2 0x2929 PUSH1 0x60 DUP5 MLOAD ADD MLOAD SWAP1 JUMP JUMPDEST DUP4 MLOAD PUSH1 0x20 ADD MLOAD JUMPDEST SWAP1 PUSH2 0x2301 JUMP JUMPDEST PUSH2 0x2944 PUSH2 0x28BC PUSH2 0x708 PUSH2 0x996 JUMP JUMPDEST LT ISZERO PUSH2 0x2317 JUMP JUMPDEST PUSH2 0x297D PUSH2 0x295A PUSH1 0x60 DUP4 MLOAD ADD MLOAD SWAP1 JUMP JUMPDEST PUSH2 0x2976 PUSH2 0x28BC PUSH2 0x209 PUSH2 0x2970 PUSH4 0x1E13380 PUSH2 0x996 JUMP JUMPDEST TIMESTAMP PUSH2 0x2363 JUMP JUMPDEST GT ISZERO PUSH2 0x2370 JUMP JUMPDEST PUSH2 0x2A36 PUSH1 0x80 PUSH2 0x298C PUSH1 0x3 PUSH2 0x9B4 JUMP JUMPDEST SWAP5 PUSH2 0x29A0 PUSH2 0x2999 DUP8 PUSH2 0x1CCA JUMP JUMPDEST PUSH1 0x3 PUSH2 0x1CEE JUMP JUMPDEST PUSH2 0x2A28 PUSH2 0x29B1 PUSH2 0x209 DUP9 PUSH1 0x2 PUSH2 0x9A3 JUMP JUMPDEST SWAP6 PUSH2 0x29D1 DUP2 DUP5 ADD MLOAD SWAP7 PUSH2 0x29C7 DUP4 DUP11 ADD SWAP9 DUP10 PUSH2 0x27B8 JUMP JUMPDEST MLOAD PUSH1 0x11 DUP10 ADD PUSH2 0x2808 JUMP JUMPDEST PUSH2 0x29E2 PUSH1 0x40 DUP5 ADD MLOAD PUSH1 0x15 DUP10 ADD PUSH2 0x2841 JUMP JUMPDEST PUSH2 0x29F3 PUSH1 0x60 DUP5 ADD MLOAD PUSH1 0x18 DUP10 ADD PUSH2 0x2872 JUMP JUMPDEST PUSH1 0x2 PUSH2 0x2A14 PUSH1 0x1B DUP10 ADD SWAP3 PUSH2 0x1F23 DUP2 DUP1 DUP7 ADD PUSH2 0x2A0F PUSH1 0x1 DUP3 PUSH2 0x1F70 JUMP JUMPDEST PUSH2 0x2889 JUMP JUMPDEST SWAP2 PUSH2 0x2A22 DUP4 PUSH1 0x1 DUP4 ADD PUSH2 0x1CEE JUMP JUMPDEST ADD PUSH2 0x1CEE JUMP JUMPDEST ADD SWAP2 PUSH1 0x4 PUSH2 0x27B1 DUP5 MLOAD PUSH2 0x4638 JUMP JUMPDEST MLOAD SWAP2 PUSH2 0x48A4 JUMP JUMPDEST PUSH2 0x209 SWAP1 PUSH1 0x0 PUSH2 0x21F9 JUMP JUMPDEST PUSH2 0x2127 PUSH2 0x209 SWAP2 PUSH2 0x2A57 PUSH1 0x0 SWAP1 JUMP JUMPDEST POP PUSH1 0xD PUSH2 0xACB JUMP JUMPDEST SWAP1 PUSH2 0x1F3 SWAP2 PUSH2 0x2A75 PUSH2 0x220F PUSH2 0x2127 CALLER PUSH1 0xD PUSH2 0xACB JUMP JUMPDEST SWAP1 PUSH2 0x1F3 SWAP2 PUSH2 0x2A8A PUSH2 0x1CAA PUSH2 0x1CA6 PUSH1 0xC PUSH2 0xC49 JUMP JUMPDEST PUSH2 0x2B61 JUMP JUMPDEST ISZERO PUSH2 0x2A96 JUMPI JUMP JUMPDEST PUSH1 0x40 MLOAD PUSH3 0x461BCD PUSH1 0xE5 SHL DUP2 MSTORE PUSH1 0x20 PUSH1 0x4 DUP3 ADD MSTORE PUSH1 0x11 PUSH1 0x24 DUP3 ADD MSTORE PUSH32 0x524146464C455F4E4F545F455849535453000000000000000000000000000000 PUSH1 0x44 DUP3 ADD MSTORE PUSH1 0x64 SWAP1 REVERT JUMPDEST ISZERO PUSH2 0x2AE2 JUMPI JUMP JUMPDEST PUSH1 0x40 MLOAD PUSH3 0x461BCD PUSH1 0xE5 SHL DUP2 MSTORE PUSH1 0x20 PUSH1 0x4 DUP3 ADD MSTORE PUSH1 0x14 PUSH1 0x24 DUP3 ADD MSTORE PUSH32 0x524146464C455F414C52454144595F445241574E000000000000000000000000 PUSH1 0x44 DUP3 ADD MSTORE PUSH1 0x64 SWAP1 REVERT JUMPDEST ISZERO PUSH2 0x2B2E JUMPI JUMP JUMPDEST PUSH1 0x40 MLOAD PUSH3 0x461BCD PUSH1 0xE5 SHL DUP2 MSTORE PUSH1 0x20 PUSH1 0x4 DUP3 ADD MSTORE PUSH1 0xB PUSH1 0x24 DUP3 ADD MSTORE PUSH11 0x1053149150511657D4D155 PUSH1 0xAA SHL PUSH1 0x44 DUP3 ADD MSTORE PUSH1 0x64 SWAP1 REVERT JUMPDEST PUSH2 0x2BCC SWAP1 PUSH2 0x1F23 DUP4 PUSH1 0x0 PUSH1 0x1B PUSH2 0x2B7B PUSH2 0x209 DUP7 PUSH1 0x2 PUSH2 0x9A3 JUMP JUMPDEST PUSH2 0x2B9E PUSH2 0x2B8C DUP5 PUSH1 0x11 DUP5 ADD ADD PUSH2 0x9B4 JUMP JUMPDEST PUSH2 0x2B98 PUSH2 0x28BC DUP7 PUSH2 0x996 JUMP JUMPDEST GT PUSH2 0x2A8F JUMP JUMPDEST ADD ADD PUSH2 0x2BB4 PUSH2 0x2BAF PUSH2 0x1CA6 DUP4 PUSH2 0xFBE JUMP JUMPDEST PUSH2 0x2ADB JUMP JUMPDEST PUSH2 0x216A PUSH2 0x2BC0 DUP3 PUSH2 0xC49 JUMP JUMPDEST ISZERO ISZERO DUP4 ISZERO ISZERO EQ ISZERO PUSH2 0x2B27 JUMP JUMPDEST PUSH32 0x749EBDEF365D5CFB45277B1B6F7FDE8FAA320B22253FCEF31C7BDF8136164EC5 PUSH2 0x2C03 PUSH2 0x2BF9 CALLER PUSH2 0xAC2 JUMP JUMPDEST SWAP4 PUSH2 0x987 PUSH1 0x40 MLOAD SWAP1 JUMP JUMPDEST SUB SWAP1 LOG3 JUMP JUMPDEST SWAP1 PUSH2 0x1F3 SWAP2 PUSH2 0x2A5F JUMP JUMPDEST PUSH2 0x1F3 SWAP1 PUSH2 0x2C1E PUSH2 0x45B6 JUMP JUMPDEST PUSH2 0x2C5F JUMP JUMPDEST ISZERO PUSH2 0x2C2A JUMPI JUMP JUMPDEST PUSH1 0x40 MLOAD PUSH3 0x461BCD PUSH1 0xE5 SHL DUP2 MSTORE PUSH1 0x20 PUSH1 0x4 DUP3 ADD MSTORE PUSH1 0xD PUSH1 0x24 DUP3 ADD MSTORE PUSH13 0x20A62922A0A22CAFA0A226A4A7 PUSH1 0x99 SHL PUSH1 0x44 DUP3 ADD MSTORE PUSH1 0x64 SWAP1 REVERT JUMPDEST PUSH2 0x2C9C SWAP1 PUSH2 0x2C73 PUSH2 0x2105 PUSH2 0x27A PUSH1 0x0 PUSH2 0x2018 JUMP JUMPDEST PUSH2 0x2C8C PUSH2 0x2C87 PUSH2 0x1CA6 PUSH2 0x2127 DUP5 PUSH1 0xD PUSH2 0xACB JUMP JUMPDEST PUSH2 0x2C23 JUMP JUMPDEST PUSH2 0x216F PUSH1 0x1 PUSH2 0x216A DUP4 PUSH1 0xD PUSH2 0xACB JUMP JUMPDEST PUSH32 0x44D6D25963F097AD14F29F06854A01F575648A1EF82F30E562CCD3889717E339 PUSH2 0x219E PUSH1 0x40 MLOAD SWAP1 JUMP JUMPDEST PUSH2 0x1F3 SWAP1 PUSH2 0x2C12 JUMP JUMPDEST PUSH2 0x2CD7 PUSH2 0x45B6 JUMP JUMPDEST PUSH2 0x1F3 PUSH2 0x1F3 PUSH2 0x2CE7 PUSH1 0x0 PUSH2 0x2018 JUMP JUMPDEST PUSH2 0x49F2 JUMP JUMPDEST PUSH2 0x1F3 PUSH2 0x2CCF JUMP JUMPDEST SWAP1 PUSH2 0x2D09 SWAP5 SWAP4 SWAP3 SWAP2 PUSH2 0x2D04 PUSH2 0x424A JUMP JUMPDEST PUSH2 0x2D14 JUMP JUMPDEST SWAP1 SWAP2 SWAP3 PUSH2 0x1F3 PUSH2 0x428A JUMP JUMPDEST SWAP1 PUSH2 0x2D31 SWAP5 SWAP4 SWAP3 SWAP2 PUSH2 0x2D2C PUSH2 0x1CAA PUSH2 0x1CA6 PUSH1 0xC PUSH2 0xC49 JUMP JUMPDEST PUSH2 0x2F9C JUMP JUMPDEST SWAP1 SWAP2 SWAP3 JUMP JUMPDEST ISZERO PUSH2 0x2D3D JUMPI JUMP JUMPDEST PUSH1 0x40 MLOAD PUSH3 0x461BCD PUSH1 0xE5 SHL DUP2 MSTORE PUSH1 0x20 PUSH1 0x4 DUP3 ADD MSTORE PUSH1 0x14 PUSH1 0x24 DUP3 ADD MSTORE PUSH32 0x4E4F5F5449434B4554535F52454D41494E494E47000000000000000000000000 PUSH1 0x44 DUP3 ADD MSTORE PUSH1 0x64 SWAP1 REVERT JUMPDEST ISZERO PUSH2 0x2D89 JUMPI JUMP JUMPDEST PUSH1 0x40 MLOAD PUSH3 0x461BCD PUSH1 0xE5 SHL DUP2 MSTORE PUSH1 0x20 PUSH1 0x4 DUP3 ADD MSTORE PUSH1 0x18 PUSH1 0x24 DUP3 ADD MSTORE PUSH32 0x524146464C455F5449434B4554535F4558484155535445440000000000000000 PUSH1 0x44 DUP3 ADD MSTORE PUSH1 0x64 SWAP1 REVERT JUMPDEST SWAP1 PUSH2 0x1F3 PUSH2 0xF3A PUSH1 0x3 PUSH2 0x2DDF PUSH2 0xEE5 JUMP JUMPDEST SWAP5 PUSH2 0x2E01 PUSH2 0x2DF4 DUP3 SLOAD PUSH1 0x1 PUSH1 0x1 PUSH1 0xA0 SHL SUB AND SWAP1 JUMP JUMPDEST PUSH1 0x1 PUSH1 0x1 PUSH1 0xA0 SHL SUB AND DUP8 MSTORE JUMP JUMPDEST PUSH2 0x2E10 PUSH2 0xEB3 PUSH1 0x1 DUP4 ADD PUSH2 0x9B4 JUMP JUMPDEST PUSH2 0xF34 PUSH2 0xD82 PUSH1 0x2 DUP4 ADD PUSH2 0x9B4 JUMP JUMPDEST PUSH2 0x209 SWAP1 PUSH2 0x2DCE JUMP JUMPDEST PUSH2 0x209 SWAP1 PUSH2 0x996 JUMP JUMPDEST PUSH4 0x4E487B71 PUSH1 0xE0 SHL PUSH1 0x0 MSTORE PUSH1 0x12 PUSH1 0x4 MSTORE PUSH1 0x24 PUSH1 0x0 REVERT JUMPDEST DUP2 ISZERO PUSH2 0x2E51 JUMPI MOD SWAP1 JUMP JUMPDEST PUSH2 0x2E31 JUMP JUMPDEST DUP1 SLOAD DUP3 LT ISZERO PUSH2 0x153F JUMPI PUSH2 0x1536 PUSH1 0xD SWAP2 PUSH1 0x0 MSTORE PUSH1 0x20 PUSH1 0x0 KECCAK256 SWAP1 JUMP JUMPDEST ISZERO PUSH2 0x2E77 JUMPI JUMP JUMPDEST PUSH1 0x40 MLOAD PUSH3 0x461BCD PUSH1 0xE5 SHL DUP2 MSTORE PUSH1 0x20 PUSH1 0x4 DUP3 ADD MSTORE PUSH1 0x1D PUSH1 0x24 DUP3 ADD MSTORE PUSH32 0x43414E4E4F545F44454352454153455F5A45524F5F5155414E54495459000000 PUSH1 0x44 DUP3 ADD MSTORE PUSH1 0x64 SWAP1 REVERT JUMPDEST DUP1 ISZERO PUSH2 0x1CD9 JUMPI PUSH1 0x0 NOT ADD SWAP1 JUMP JUMPDEST PUSH2 0x209 PUSH1 0xE0 PUSH2 0x390 JUMP JUMPDEST SWAP1 PUSH1 0xFF PUSH1 0xA0 SHL SWAP1 PUSH1 0xA0 SHL PUSH2 0x1CE4 JUMP JUMPDEST SWAP1 PUSH2 0x2EF2 PUSH2 0x209 PUSH2 0x1D05 SWAP3 ISZERO ISZERO SWAP1 JUMP JUMPDEST DUP3 SLOAD PUSH2 0x2ED3 JUMP JUMPDEST PUSH2 0x1F3 SWAP2 PUSH1 0x5 SWAP1 PUSH2 0x1DAE SWAP1 PUSH1 0xC0 SWAP1 PUSH2 0x2F32 DUP6 PUSH2 0x2F25 PUSH2 0x2F1F DUP5 MLOAD PUSH1 0x1 PUSH1 0x1 PUSH1 0xA0 SHL SUB AND SWAP1 JUMP JUMPDEST DUP3 PUSH2 0x1D2E JUMP JUMPDEST PUSH1 0x20 DUP4 ADD MLOAD ISZERO ISZERO SWAP1 PUSH2 0x2EE2 JUMP JUMPDEST PUSH2 0x2F49 PUSH2 0x2F40 PUSH1 0x40 DUP4 ADD MLOAD SWAP1 JUMP JUMPDEST PUSH1 0x1 DUP8 ADD PUSH2 0x1D45 JUMP JUMPDEST PUSH2 0x2F57 PUSH2 0x265F PUSH1 0x60 DUP4 ADD MLOAD SWAP1 JUMP JUMPDEST PUSH2 0x2F65 PUSH2 0x2676 PUSH1 0x80 DUP4 ADD MLOAD SWAP1 JUMP JUMPDEST PUSH2 0x1DA9 PUSH2 0x268D PUSH1 0xA0 DUP4 ADD MLOAD SWAP1 JUMP JUMPDEST SWAP1 PUSH2 0x1F3 SWAP2 PUSH2 0x2EF9 JUMP JUMPDEST PUSH2 0xA32 PUSH2 0x1F3 SWAP5 PUSH2 0x7A6 PUSH1 0x60 SWAP5 SWAP9 SWAP8 SWAP6 PUSH2 0xA2B PUSH1 0x80 DUP7 ADD SWAP11 PUSH1 0x0 DUP8 ADD MSTORE JUMP JUMPDEST SWAP5 SWAP3 SWAP4 SWAP5 POP POP POP PUSH1 0x1 SWAP2 PUSH2 0x2FB1 DUP4 DUP6 DUP4 PUSH2 0x43CC JUMP JUMPDEST PUSH2 0x2FBF PUSH2 0x209 DUP3 PUSH1 0x2 PUSH2 0x9A3 JUMP JUMPDEST SWAP4 PUSH1 0x1B DUP6 ADD SWAP2 DUP5 DUP4 ADD SWAP1 PUSH2 0x2FD2 DUP3 PUSH2 0x9B4 JUMP JUMPDEST SWAP1 PUSH2 0x2FEB PUSH1 0x0 SWAP3 PUSH2 0x2FE5 PUSH2 0x28BC DUP6 PUSH2 0x996 JUMP JUMPDEST GT PUSH2 0x2D36 JUMP JUMPDEST PUSH2 0x2FF5 DUP5 DUP3 PUSH2 0x4A47 JUMP JUMPDEST SWAP5 PUSH2 0x2FFF DUP5 PUSH2 0x9B4 JUMP JUMPDEST SWAP8 PUSH2 0x3013 PUSH2 0x300C DUP6 PUSH2 0x996 JUMP JUMPDEST DUP11 GT PUSH2 0x2D82 JUMP JUMPDEST PUSH2 0x304B PUSH2 0x3045 PUSH2 0x302C PUSH2 0x3027 DUP11 PUSH1 0x4 PUSH2 0x9A3 JUMP JUMPDEST PUSH2 0x2E1F JUMP JUMPDEST SWAP11 PUSH2 0x3040 PUSH2 0x303B DUP12 DUP9 DUP13 PUSH2 0x4552 JUMP JUMPDEST PUSH2 0x2E28 JUMP JUMPDEST PUSH2 0x2E47 JUMP JUMPDEST DUP12 PUSH2 0x4AF3 JUMP JUMPDEST SWAP10 DUP5 PUSH1 0x15 DUP3 ADD ADD SWAP1 DUP12 PUSH2 0x305D DUP4 PUSH2 0xC49 JUMP JUMPDEST PUSH2 0x31BF JUMPI JUMPDEST POP POP PUSH1 0x2 DUP4 ADD PUSH2 0x3071 DUP2 PUSH2 0x9B4 JUMP JUMPDEST PUSH2 0x307A SWAP1 PUSH2 0x1CCA JUMP JUMPDEST PUSH2 0x3083 SWAP2 PUSH2 0x1CEE JUMP JUMPDEST PUSH2 0x308D PUSH1 0xB PUSH2 0x9B4 JUMP JUMPDEST DUP1 SWAP11 PUSH2 0x3098 DUP3 PUSH2 0x1CCA JUMP JUMPDEST PUSH2 0x30A3 SWAP1 PUSH1 0xB PUSH2 0x1CEE JUMP JUMPDEST PUSH1 0x40 ADD DUP1 MLOAD PUSH2 0x30B0 PUSH2 0x2EC9 JUMP JUMPDEST PUSH1 0x1 PUSH1 0x1 PUSH1 0xA0 SHL SUB DUP12 AND DUP10 DUP3 ADD MSTORE SWAP1 DUP6 ISZERO ISZERO PUSH1 0x20 DUP4 ADD MSTORE PUSH1 0x40 DUP3 ADD MSTORE PUSH2 0x30D7 DUP8 PUSH1 0x60 DUP4 ADD MSTORE JUMP JUMPDEST PUSH2 0x30E2 DUP15 PUSH1 0x80 DUP4 ADD MSTORE JUMP JUMPDEST PUSH2 0x30ED TIMESTAMP PUSH1 0xA0 DUP4 ADD MSTORE JUMP JUMPDEST PUSH2 0x30F8 TIMESTAMP PUSH1 0xC0 DUP4 ADD MSTORE JUMP JUMPDEST PUSH2 0x3103 DUP4 PUSH1 0xA PUSH2 0x9A3 JUMP JUMPDEST SWAP1 PUSH2 0x310D SWAP2 PUSH2 0x2F73 JUMP JUMPDEST MLOAD PUSH2 0x3119 SWAP1 PUSH1 0x9 PUSH2 0x20C JUMP JUMPDEST SWAP1 PUSH2 0x3123 SWAP2 PUSH2 0x1CEE JUMP JUMPDEST PUSH2 0x312C SWAP1 PUSH2 0xC49 JUMP JUMPDEST SWAP4 DUP5 PUSH2 0x314F SWAP7 PUSH2 0x3149 SWAP7 PUSH2 0x31A2 JUMPI JUMPDEST POP PUSH2 0x3190 JUMPI JUMPDEST POP POP POP PUSH2 0x996 JUMP JUMPDEST SWAP2 PUSH2 0xAC2 JUMP JUMPDEST SWAP1 PUSH32 0x5B6DB09229F804E15657628B57342D213A730173BD981B36DBC89BC94199B8F9 PUSH2 0x317A PUSH1 0x40 MLOAD SWAP1 JUMP JUMPDEST DUP1 PUSH2 0x3188 TIMESTAMP DUP10 DUP12 DUP10 DUP6 PUSH2 0x2F7D JUMP JUMPDEST SUB SWAP1 LOG3 SWAP3 SWAP2 SWAP1 JUMP JUMPDEST PUSH2 0x319A SWAP3 ADD PUSH2 0x2889 JUMP JUMPDEST CODESIZE DUP1 DUP1 PUSH2 0x3141 JUMP JUMPDEST PUSH2 0x31AC SWAP2 POP PUSH2 0x9B4 JUMP JUMPDEST PUSH2 0x31B8 PUSH2 0x28BC DUP4 PUSH2 0x996 JUMP JUMPDEST EQ CODESIZE PUSH2 0x313B JUMP JUMPDEST PUSH2 0x31D1 PUSH1 0x2 SWAP2 PUSH1 0x1E PUSH2 0x31DF SWAP5 ADD PUSH2 0x2E56 JUMP JUMPDEST POP ADD PUSH2 0x1F07 PUSH2 0x1F02 DUP3 PUSH2 0x9B4 JUMP JUMPDEST PUSH2 0x31FD PUSH2 0x31EB DUP8 PUSH2 0x9B4 JUMP JUMPDEST PUSH2 0x31F7 PUSH2 0x28BC DUP9 PUSH2 0x996 JUMP JUMPDEST GT PUSH2 0x2E70 JUMP JUMPDEST PUSH2 0x3217 PUSH2 0x3211 PUSH2 0x320C DUP9 PUSH2 0x9B4 JUMP JUMPDEST PUSH2 0x2EBC JUMP JUMPDEST DUP8 PUSH2 0x1CEE JUMP JUMPDEST CODESIZE DUP12 PUSH2 0x3062 JUMP JUMPDEST PUSH2 0x2D31 SWAP2 SWAP1 PUSH1 0x0 DUP1 DUP1 PUSH2 0x2CF4 JUMP JUMPDEST PUSH2 0x3234 PUSH2 0x2EC9 JUMP JUMPDEST SWAP1 PUSH1 0x0 DUP3 MSTORE PUSH1 0x20 DUP1 DUP1 DUP1 DUP1 DUP1 DUP1 DUP9 ADD PUSH1 0x0 JUMPDEST DUP2 MSTORE ADD PUSH1 0x0 DUP2 MSTORE ADD PUSH1 0x0 DUP2 MSTORE ADD PUSH1 0x0 JUMPDEST DUP2 MSTORE ADD PUSH1 0x0 JUMPDEST DUP2 MSTORE ADD PUSH1 0x0 SWAP1 MSTORE POP JUMP JUMPDEST SWAP1 MSTORE POP JUMP JUMPDEST PUSH2 0x209 PUSH2 0x322C JUMP JUMPDEST SWAP1 PUSH2 0x1F3 PUSH2 0x32E1 PUSH1 0x5 PUSH2 0x3284 PUSH2 0x2EC9 JUMP JUMPDEST SWAP5 PUSH2 0x3299 PUSH2 0x2DF4 DUP3 SLOAD PUSH1 0x1 PUSH1 0x1 PUSH1 0xA0 SHL SUB AND SWAP1 JUMP JUMPDEST PUSH2 0x32A5 PUSH2 0xFF2 DUP3 PUSH2 0x17BF JUMP JUMPDEST PUSH2 0x32B4 PUSH2 0xD82 PUSH1 0x1 DUP4 ADD PUSH2 0x9B4 JUMP JUMPDEST PUSH2 0x32C3 PUSH2 0xD98 PUSH1 0x2 DUP4 ADD PUSH2 0x9B4 JUMP JUMPDEST PUSH2 0x32D2 PUSH2 0xDAE PUSH1 0x3 DUP4 ADD PUSH2 0x9B4 JUMP JUMPDEST PUSH2 0xF34 PUSH2 0xDC4 PUSH1 0x4 DUP4 ADD PUSH2 0x9B4 JUMP JUMPDEST PUSH1 0xC0 DUP5 ADD MSTORE JUMP JUMPDEST PUSH2 0x209 SWAP1 PUSH2 0x3273 JUMP JUMPDEST PUSH2 0x3308 PUSH2 0x209 SWAP2 PUSH2 0x3300 PUSH2 0x326B JUMP JUMPDEST POP PUSH1 0xA PUSH2 0x9A3 JUMP JUMPDEST PUSH2 0x32E8 JUMP JUMPDEST PUSH2 0x209 PUSH1 0x40 PUSH2 0x390 JUMP JUMPDEST PUSH2 0x331F PUSH2 0x330D JUMP JUMPDEST SWAP1 PUSH1 0x0 DUP3 MSTORE PUSH1 0x60 PUSH1 0x20 DUP4 ADD MSTORE JUMP JUMPDEST PUSH2 0x209 PUSH2 0x3317 JUMP JUMPDEST SWAP1 PUSH2 0x3342 PUSH2 0x3E1 DUP4 PUSH2 0x432 JUMP JUMPDEST SWAP2 DUP3 MSTORE JUMP JUMPDEST PUSH2 0x209 PUSH2 0x120 PUSH2 0x390 JUMP JUMPDEST PUSH2 0x335A PUSH2 0x3347 JUMP JUMPDEST SWAP1 PUSH1 0x0 DUP3 MSTORE PUSH1 0x20 DUP1 DUP1 DUP1 DUP1 DUP1 DUP1 DUP1 DUP1 DUP11 ADD PUSH1 0x0 DUP2 MSTORE ADD PUSH1 0x0 DUP2 MSTORE ADD PUSH1 0x0 PUSH2 0x3246 JUMP JUMPDEST PUSH2 0x209 PUSH2 0x3352 JUMP JUMPDEST PUSH1 0x0 JUMPDEST DUP3 DUP2 LT PUSH2 0x3393 JUMPI POP POP POP JUMP JUMPDEST PUSH1 0x20 SWAP1 PUSH2 0x339E PUSH2 0x337C JUMP JUMPDEST DUP2 DUP5 ADD MSTORE ADD PUSH2 0x3387 JUMP JUMPDEST SWAP1 PUSH2 0x1F3 PUSH2 0x33BE PUSH2 0x33B8 DUP5 PUSH2 0x3335 JUMP JUMPDEST SWAP4 PUSH2 0x432 JUMP JUMPDEST PUSH1 0x1F NOT ADD PUSH1 0x20 DUP5 ADD PUSH2 0x3384 JUMP JUMPDEST PUSH2 0x209 SWAP1 PUSH2 0xD0E JUMP JUMPDEST SWAP1 PUSH2 0x33DD DUP3 MLOAD SWAP1 JUMP JUMPDEST DUP2 LT ISZERO PUSH2 0x153F JUMPI PUSH1 0x20 DUP1 SWAP2 MUL ADD ADD SWAP1 JUMP JUMPDEST SWAP1 PUSH2 0x33F7 PUSH2 0x332D JUMP JUMPDEST POP PUSH2 0x340F PUSH2 0x340A DUP3 PUSH2 0x1553 DUP6 PUSH1 0x7 PUSH2 0x9A3 JUMP JUMPDEST PUSH2 0x9B4 JUMP JUMPDEST SWAP2 PUSH1 0x0 SWAP2 PUSH2 0x341C DUP4 PUSH2 0x996 JUMP JUMPDEST DUP5 EQ PUSH2 0x367F JUMPI PUSH1 0x2 SWAP1 PUSH2 0x3433 PUSH2 0x209 DUP5 PUSH1 0x2 PUSH2 0x9A3 JUMP JUMPDEST SWAP3 PUSH1 0x11 DUP5 ADD PUSH2 0x3452 PUSH2 0x3446 DUP8 DUP4 ADD PUSH2 0x9B4 JUMP JUMPDEST PUSH2 0x2B98 PUSH2 0x28BC DUP10 PUSH2 0x996 JUMP JUMPDEST DUP6 PUSH2 0x345F PUSH1 0x2 DUP4 ADD PUSH2 0xC49 JUMP JUMPDEST SWAP6 DUP7 ISZERO PUSH2 0x3634 JUMPI JUMPDEST POP POP POP PUSH2 0x3481 SWAP2 PUSH2 0x1553 PUSH2 0x347C SWAP3 PUSH1 0x8 PUSH2 0x9A3 JUMP JUMPDEST PUSH2 0x33CB JUMP JUMPDEST PUSH2 0x348A DUP6 PUSH2 0x33A8 JUMP JUMPDEST SWAP6 PUSH2 0x3494 DUP6 PUSH2 0x996 JUMP JUMPDEST PUSH2 0x349F PUSH2 0x209 DUP5 MLOAD SWAP1 JUMP JUMPDEST DUP2 LT ISZERO PUSH2 0x3618 JUMPI DUP1 DUP7 PUSH2 0x34BC PUSH2 0x34B8 PUSH2 0x3572 SWAP5 DUP8 PUSH2 0x33D4 JUMP JUMPDEST MLOAD SWAP1 JUMP JUMPDEST PUSH1 0x4 PUSH2 0x3504 PUSH2 0x34CE PUSH2 0x209 DUP5 DUP5 PUSH2 0x9A3 JUMP JUMPDEST SWAP3 PUSH2 0x34FD DUP11 DUP6 ADD SWAP5 PUSH2 0x34F6 PUSH2 0x34E7 PUSH1 0x3 PUSH2 0x9FA DUP10 PUSH2 0x9B4 JUMP JUMPDEST SWAP4 PUSH2 0x34F0 PUSH2 0x3347 JUMP JUMPDEST SWAP9 DUP10 ADD MSTORE JUMP JUMPDEST PUSH1 0x20 DUP8 ADD MSTORE JUMP JUMPDEST PUSH1 0x40 DUP6 ADD MSTORE JUMP JUMPDEST DUP10 ISZERO ISZERO PUSH1 0x60 DUP5 ADD MSTORE DUP10 PUSH2 0x3516 DUP2 PUSH2 0x996 JUMP JUMPDEST SWAP3 PUSH2 0x3522 DUP5 PUSH1 0x80 DUP8 ADD MSTORE JUMP JUMPDEST PUSH2 0x352D DUP5 PUSH1 0xA0 DUP8 ADD MSTORE JUMP JUMPDEST DUP2 ISZERO ISZERO PUSH1 0xC0 DUP7 ADD MSTORE PUSH2 0x3540 DUP5 PUSH1 0xE0 DUP8 ADD MSTORE JUMP JUMPDEST DUP11 PUSH2 0x354D DUP6 PUSH2 0x100 DUP9 ADD MSTORE JUMP JUMPDEST PUSH2 0x3577 JUMPI JUMPDEST POP POP POP POP PUSH2 0x3560 DUP3 DUP12 PUSH2 0x33D4 JUMP JUMPDEST MSTORE PUSH2 0x356B DUP2 DUP11 PUSH2 0x33D4 JUMP JUMPDEST POP PUSH1 0x1 ADD SWAP1 JUMP JUMPDEST PUSH2 0x3494 JUMP JUMPDEST PUSH2 0x340A PUSH2 0x358F SWAP2 PUSH2 0x3589 PUSH1 0x9 SWAP2 PUSH2 0x9B4 JUMP JUMPDEST SWAP1 PUSH2 0x20C JUMP JUMPDEST SWAP3 DUP4 GT PUSH2 0x359D JUMPI JUMPDEST DUP2 PUSH2 0x3552 JUMP JUMPDEST DUP3 PUSH2 0xF34 PUSH2 0x3601 PUSH2 0x3608 SWAP5 PUSH2 0x35FA PUSH2 0x35F1 PUSH1 0x5 SWAP7 PUSH2 0x35D4 PUSH2 0x35C5 PUSH2 0x209 PUSH2 0x3610 SWAP13 PUSH1 0xA PUSH2 0x9A3 JUMP JUMPDEST PUSH1 0x1 PUSH1 0x60 DUP15 ADD MSTORE SWAP8 PUSH1 0x80 DUP14 ADD MSTORE JUMP JUMPDEST PUSH2 0x35EA PUSH2 0x35E3 PUSH1 0x3 DUP10 ADD PUSH2 0x9B4 JUMP JUMPDEST PUSH1 0xA0 DUP14 ADD MSTORE JUMP JUMPDEST DUP7 ADD PUSH2 0x17BF JUMP JUMPDEST ISZERO ISZERO PUSH1 0xC0 DUP11 ADD MSTORE JUMP JUMPDEST DUP4 ADD PUSH2 0x9B4 JUMP JUMPDEST PUSH1 0xE0 DUP8 ADD MSTORE JUMP JUMPDEST PUSH2 0x100 DUP4 ADD MSTORE JUMP JUMPDEST CODESIZE DUP1 DUP10 PUSH2 0x3597 JUMP JUMPDEST POP SWAP6 SWAP3 POP POP POP PUSH2 0x140E PUSH2 0x209 SWAP3 SWAP4 PUSH2 0x362E PUSH2 0x330D JUMP JUMPDEST SWAP5 DUP6 ADD MSTORE JUMP JUMPDEST PUSH2 0x347C SWAP4 SWAP7 POP SWAP2 PUSH2 0x3650 PUSH2 0x1553 SWAP3 PUSH1 0x1B PUSH2 0x3481 SWAP8 SWAP6 ADD ADD PUSH2 0xFBE JUMP JUMPDEST SWAP1 DUP2 PUSH2 0x3665 JUMPI JUMPDEST POP SWAP6 SWAP3 DUP3 SWAP5 POP DUP8 SWAP2 POP PUSH2 0x3467 JUMP JUMPDEST PUSH2 0x3676 SWAP2 POP PUSH1 0x3 PUSH2 0x209 SWAP2 ADD PUSH2 0x9B4 JUMP JUMPDEST TIMESTAMP LT ISZERO CODESIZE PUSH2 0x3657 JUMP JUMPDEST POP POP SWAP1 POP PUSH2 0x209 PUSH2 0x368F DUP3 PUSH2 0x996 JUMP JUMPDEST PUSH2 0x140E PUSH2 0x369B DUP3 PUSH2 0x33A8 JUMP JUMPDEST SWAP2 PUSH2 0x362E PUSH2 0x330D JUMP JUMPDEST SWAP1 PUSH2 0x1F3 SWAP3 SWAP2 PUSH2 0x36BB PUSH2 0x220F PUSH2 0x2127 CALLER PUSH1 0xD PUSH2 0xACB JUMP JUMPDEST SWAP1 PUSH2 0x1F3 SWAP3 SWAP2 PUSH2 0x36D1 PUSH2 0x1CAA PUSH2 0x1CA6 PUSH1 0xC PUSH2 0xC49 JUMP JUMPDEST PUSH2 0x3790 JUMP JUMPDEST ISZERO PUSH2 0x36DD JUMPI JUMP JUMPDEST PUSH1 0x40 MLOAD PUSH3 0x461BCD PUSH1 0xE5 SHL DUP2 MSTORE PUSH1 0x20 PUSH1 0x4 DUP3 ADD MSTORE PUSH1 0x17 PUSH1 0x24 DUP3 ADD MSTORE PUSH32 0x504C415945525F4E4F545F504152544943495041544544000000000000000000 PUSH1 0x44 DUP3 ADD MSTORE PUSH1 0x64 SWAP1 REVERT JUMPDEST ISZERO PUSH2 0x3729 JUMPI JUMP JUMPDEST PUSH1 0x40 MLOAD PUSH3 0x461BCD PUSH1 0xE5 SHL DUP2 MSTORE PUSH1 0x20 PUSH1 0x4 DUP3 ADD MSTORE PUSH1 0xF PUSH1 0x24 DUP3 ADD MSTORE PUSH32 0x4D4554484F445F52455155495245440000000000000000000000000000000000 PUSH1 0x44 DUP3 ADD MSTORE PUSH1 0x64 SWAP1 REVERT JUMPDEST SWAP3 SWAP2 PUSH1 0x20 PUSH2 0x378B PUSH2 0x1F3 SWAP4 PUSH1 0x40 DUP8 ADD SWAP1 DUP8 DUP3 SUB PUSH1 0x0 DUP10 ADD MSTORE PUSH2 0x1074 JUMP JUMPDEST SWAP5 ADD MSTORE JUMP JUMPDEST PUSH2 0x3149 PUSH2 0x37DD SWAP2 PUSH2 0x37BF PUSH2 0x37AC PUSH2 0x340A DUP7 PUSH2 0x1553 DUP6 PUSH1 0x7 PUSH2 0x9A3 JUMP JUMPDEST PUSH2 0x37B9 PUSH2 0x28BC PUSH1 0x0 PUSH2 0x996 JUMP JUMPDEST GT PUSH2 0x36D6 JUMP JUMPDEST PUSH2 0x1F23 PUSH2 0x37CA DUP7 MLOAD SWAP1 JUMP JUMPDEST PUSH2 0x37D7 PUSH2 0x28BC PUSH1 0x0 PUSH2 0x996 JUMP JUMPDEST GT PUSH2 0x3722 JUMP JUMPDEST SWAP1 PUSH32 0x259B46E60D1E2EDD3FF15970DE1B6023EFE23EE42E5D8EB42CAD548A7E195704 PUSH2 0x3820 PUSH2 0x380B CALLER PUSH2 0xAC2 JUMP JUMPDEST SWAP5 PUSH2 0x3815 PUSH1 0x40 MLOAD SWAP1 JUMP JUMPDEST SWAP2 DUP3 SWAP2 TIMESTAMP SWAP1 DUP4 PUSH2 0x376E JUMP JUMPDEST SUB SWAP1 LOG4 JUMP JUMPDEST SWAP1 PUSH2 0x1F3 SWAP3 SWAP2 PUSH2 0x36A4 JUMP JUMPDEST PUSH2 0x347C PUSH2 0x209 SWAP2 PUSH2 0x383F PUSH1 0x60 SWAP1 JUMP JUMPDEST POP PUSH1 0x6 PUSH2 0x9A3 JUMP JUMPDEST PUSH2 0x209 PUSH2 0x240 PUSH2 0x390 JUMP JUMPDEST PUSH1 0x20 SWAP1 DUP2 DUP1 DUP1 DUP1 DUP1 DUP1 DUP1 DUP1 DUP1 DUP1 DUP1 DUP1 DUP1 PUSH2 0x386A PUSH2 0xD28 JUMP JUMPDEST SWAP15 DUP16 PUSH1 0x0 DUP2 MSTORE ADD PUSH1 0x0 DUP2 MSTORE ADD PUSH1 0x0 DUP2 MSTORE ADD PUSH1 0x0 DUP2 MSTORE ADD PUSH1 0x0 DUP2 MSTORE ADD PUSH1 0x0 DUP2 MSTORE ADD PUSH1 0x0 DUP2 MSTORE ADD PUSH1 0x0 DUP2 MSTORE ADD PUSH1 0x60 DUP2 MSTORE ADD PUSH1 0x60 DUP2 MSTORE ADD PUSH1 0x60 DUP2 MSTORE ADD PUSH1 0x60 DUP2 MSTORE ADD PUSH1 0x60 JUMPDEST DUP2 MSTORE ADD PUSH1 0x60 SWAP1 MSTORE POP JUMP JUMPDEST PUSH2 0x209 PUSH2 0x3852 JUMP JUMPDEST PUSH2 0x38C5 PUSH2 0x3847 JUMP JUMPDEST SWAP1 PUSH1 0x60 DUP3 MSTORE PUSH1 0x20 DUP3 ADD PUSH1 0x60 DUP2 MSTORE PUSH1 0x20 ADD PUSH1 0x60 DUP2 MSTORE PUSH1 0x20 ADD PUSH1 0x0 DUP2 MSTORE PUSH1 0x20 ADD PUSH1 0x0 DUP2 MSTORE PUSH1 0x20 ADD PUSH1 0x0 DUP2 MSTORE PUSH1 0x20 ADD PUSH1 0x0 DUP2 MSTORE PUSH1 0x20 ADD PUSH1 0x0 DUP2 MSTORE PUSH1 0x20 ADD PUSH1 0x0 DUP2 MSTORE PUSH1 0x20 ADD PUSH1 0x60 DUP2 MSTORE PUSH1 0x20 ADD PUSH1 0x0 DUP2 MSTORE PUSH1 0x20 ADD PUSH1 0x0 DUP2 MSTORE PUSH1 0x20 ADD PUSH1 0x0 DUP2 MSTORE PUSH1 0x20 ADD PUSH1 0x0 DUP2 MSTORE PUSH1 0x20 ADD PUSH1 0x0 DUP2 MSTORE PUSH1 0x20 ADD PUSH1 0x0 DUP2 MSTORE PUSH1 0x20 ADD PUSH2 0x393F PUSH2 0x38B5 JUMP JUMPDEST DUP2 MSTORE PUSH1 0x20 ADD PUSH2 0x247 PUSH2 0x38B5 JUMP JUMPDEST PUSH2 0x209 PUSH2 0x38BD JUMP JUMPDEST PUSH2 0x209 SWAP1 PUSH2 0xC1F JUMP JUMPDEST PUSH2 0x209 SWAP1 PUSH2 0xD33 JUMP JUMPDEST PUSH2 0x396E PUSH2 0x394C JUMP JUMPDEST POP PUSH1 0x2 PUSH2 0x397B DUP3 DUP3 PUSH2 0x9A3 JUMP JUMPDEST SWAP1 PUSH1 0x11 DUP3 ADD SWAP1 PUSH2 0x398A DUP3 PUSH2 0x9B4 JUMP JUMPDEST PUSH2 0x3994 PUSH1 0x0 PUSH2 0x996 JUMP JUMPDEST LT PUSH2 0x399E SWAP1 PUSH2 0x2A8F JUMP JUMPDEST PUSH2 0x39AA PUSH1 0x1E DUP5 ADD PUSH2 0x4B49 JUMP JUMPDEST PUSH1 0xC0 MSTORE PUSH1 0x80 DUP4 SWAP1 MSTORE DUP1 DUP4 ADD PUSH1 0xE0 MSTORE PUSH1 0x3 DUP4 ADD SWAP4 PUSH2 0x39C6 DUP4 PUSH2 0x9B4 JUMP JUMPDEST SWAP4 PUSH2 0x39D3 PUSH1 0x1 DUP6 ADD PUSH2 0x9B4 JUMP JUMPDEST SWAP3 DUP1 PUSH2 0x39E1 PUSH1 0x3 DUP8 ADD PUSH2 0x9B4 JUMP JUMPDEST SWAP6 ADD PUSH2 0x39EC SWAP1 PUSH2 0xC49 JUMP JUMPDEST PUSH1 0x15 DUP4 ADD DUP3 PUSH2 0x39FD PUSH1 0x16 DUP7 ADD PUSH2 0x9B4 JUMP JUMPDEST SWAP2 ADD PUSH2 0x3A08 SWAP1 PUSH2 0x9B4 JUMP JUMPDEST SWAP2 PUSH1 0x18 DUP6 ADD SWAP4 DUP5 ADD PUSH2 0x3A19 SWAP1 PUSH2 0x9B4 JUMP JUMPDEST PUSH1 0x1B SWAP1 SWAP6 ADD SWAP8 DUP9 SWAP8 PUSH2 0x3A2A DUP10 PUSH2 0xC49 JUMP JUMPDEST SWAP9 PUSH2 0x3A34 SWAP1 PUSH2 0xFBE JUMP JUMPDEST SWAP10 PUSH1 0x1 ADD PUSH2 0x3A41 SWAP1 PUSH2 0x9B4 JUMP JUMPDEST SWAP11 PUSH2 0x3A4D DUP10 PUSH1 0x6 PUSH2 0x9A3 JUMP JUMPDEST SLOAD SWAP13 PUSH2 0x3A57 PUSH2 0x3847 JUMP JUMPDEST PUSH1 0xA0 MSTORE PUSH1 0x80 MLOAD PUSH2 0x3A66 SWAP1 PUSH2 0x3954 JUMP JUMPDEST PUSH1 0xA0 MLOAD MSTORE PUSH1 0xE0 MLOAD PUSH2 0x3A76 SWAP1 PUSH2 0x3954 JUMP JUMPDEST PUSH1 0xA0 MLOAD PUSH1 0x20 ADD MSTORE PUSH2 0x3A86 SWAP1 PUSH2 0x3954 JUMP JUMPDEST PUSH1 0xA0 MLOAD PUSH1 0x40 ADD MSTORE PUSH1 0xA0 MLOAD PUSH1 0x60 ADD SWAP1 PUSH2 0x3A9B SWAP2 MSTORE JUMP JUMPDEST PUSH1 0xA0 MLOAD PUSH1 0x80 ADD MSTORE PUSH1 0xA0 DUP1 MLOAD ADD MSTORE PUSH1 0xA0 MLOAD SWAP1 ISZERO ISZERO PUSH1 0xC0 SWAP1 SWAP2 ADD MSTORE PUSH1 0xA0 MLOAD PUSH1 0xE0 ADD MSTORE PUSH1 0xA0 MLOAD PUSH2 0x100 ADD MSTORE PUSH1 0x1 ADD PUSH2 0x3ACF SWAP1 PUSH2 0x3954 JUMP JUMPDEST PUSH1 0xA0 MLOAD PUSH2 0x120 ADD MSTORE PUSH1 0xA0 MLOAD PUSH2 0x140 ADD SWAP1 PUSH2 0x3AE6 SWAP2 MSTORE JUMP JUMPDEST PUSH1 0xA0 MLOAD PUSH2 0x160 ADD MSTORE PUSH1 0xA0 MLOAD SWAP1 ISZERO ISZERO PUSH2 0x180 SWAP1 SWAP2 ADD MSTORE PUSH1 0xA0 MLOAD SWAP1 ISZERO ISZERO PUSH2 0x1A0 SWAP1 SWAP2 ADD MSTORE PUSH1 0xA0 MLOAD PUSH2 0x1C0 ADD MSTORE PUSH1 0xA0 MLOAD PUSH2 0x1E0 ADD MSTORE PUSH1 0x80 MLOAD PUSH1 0x4 ADD PUSH2 0x3B27 SWAP1 PUSH2 0x395D JUMP JUMPDEST PUSH1 0xA0 MLOAD PUSH2 0x200 ADD MSTORE PUSH1 0xC0 MLOAD PUSH1 0xA0 MLOAD PUSH2 0x220 ADD MSTORE PUSH1 0xA0 MLOAD SWAP1 JUMP JUMPDEST SWAP1 PUSH2 0x1C3B SWAP3 SWAP2 PUSH2 0x3B4E PUSH2 0x424A JUMP JUMPDEST SWAP1 PUSH2 0x209 SWAP3 SWAP2 PUSH2 0x3B64 PUSH2 0x1CAA PUSH2 0x1CA6 PUSH1 0xC PUSH2 0xC49 JUMP JUMPDEST PUSH2 0x3C18 JUMP JUMPDEST ISZERO PUSH2 0x3B70 JUMPI JUMP JUMPDEST PUSH1 0x40 MLOAD PUSH3 0x461BCD PUSH1 0xE5 SHL DUP2 MSTORE PUSH1 0x20 PUSH1 0x4 DUP3 ADD MSTORE PUSH1 0xD PUSH1 0x24 DUP3 ADD MSTORE PUSH13 0x20A62922A0A22CAFA22920ABA7 PUSH1 0x99 SHL PUSH1 0x44 DUP3 ADD MSTORE PUSH1 0x64 SWAP1 REVERT JUMPDEST ISZERO PUSH2 0x3BAC JUMPI JUMP JUMPDEST PUSH1 0x40 MLOAD PUSH3 0x461BCD PUSH1 0xE5 SHL DUP2 MSTORE PUSH1 0x20 PUSH1 0x4 DUP3 ADD MSTORE PUSH1 0x9 PUSH1 0x24 DUP3 ADD MSTORE PUSH9 0x544F4F5F4541524C59 PUSH1 0xB8 SHL PUSH1 0x44 DUP3 ADD MSTORE PUSH1 0x64 SWAP1 REVERT JUMPDEST ISZERO PUSH2 0x3BE4 JUMPI JUMP JUMPDEST PUSH1 0x40 MLOAD PUSH3 0x461BCD PUSH1 0xE5 SHL DUP2 MSTORE PUSH1 0x20 PUSH1 0x4 DUP3 ADD MSTORE PUSH1 0xC PUSH1 0x24 DUP3 ADD MSTORE PUSH12 0x14905191931157D153911151 PUSH1 0xA2 SHL PUSH1 0x44 DUP3 ADD MSTORE PUSH1 0x64 SWAP1 REVERT JUMPDEST POP PUSH2 0x209 SWAP2 PUSH2 0x3C29 DUP4 DUP4 PUSH1 0x2 PUSH2 0x9A3 JUMP JUMPDEST PUSH2 0x3C7D PUSH2 0x3C6A PUSH1 0x1 PUSH1 0x1B DUP5 ADD PUSH2 0x3C49 PUSH2 0x3C44 PUSH2 0x1CA6 DUP4 PUSH2 0xFBE JUMP JUMPDEST PUSH2 0x3B69 JUMP JUMPDEST PUSH2 0xF34 PUSH1 0x11 DUP7 ADD PUSH2 0x3C5C PUSH1 0x2 DUP3 ADD PUSH2 0xC49 JUMP JUMPDEST SWAP1 DUP2 ISZERO PUSH2 0x3C8D JUMPI JUMPDEST POP PUSH2 0x3BA5 JUMP JUMPDEST PUSH2 0x3C77 PUSH2 0x28BC PUSH1 0x0 PUSH2 0x996 JUMP JUMPDEST GT PUSH2 0x3BDD JUMP JUMPDEST PUSH2 0x3C87 PUSH1 0x0 PUSH2 0x996 JUMP JUMPDEST SWAP2 PUSH2 0x4DDE JUMP JUMPDEST PUSH2 0x3C9E SWAP2 POP PUSH1 0x3 PUSH2 0x209 SWAP2 ADD PUSH2 0x9B4 JUMP JUMPDEST TIMESTAMP LT ISZERO CODESIZE PUSH2 0x3C64 JUMP JUMPDEST PUSH2 0x209 SWAP2 SWAP1 PUSH1 0x0 PUSH2 0x3B40 JUMP JUMPDEST SWAP1 PUSH2 0x209 SWAP4 SWAP3 SWAP2 PUSH2 0x3CCB PUSH2 0x220F PUSH2 0x2127 CALLER PUSH1 0xD PUSH2 0xACB JUMP JUMPDEST SWAP1 PUSH2 0x1C3B SWAP4 SWAP3 SWAP2 PUSH2 0x3CDA PUSH2 0x424A JUMP JUMPDEST SWAP1 PUSH2 0x209 SWAP4 SWAP3 SWAP2 PUSH2 0x3CF1 PUSH2 0x1CAA PUSH2 0x1CA6 PUSH1 0xC PUSH2 0xC49 JUMP JUMPDEST PUSH2 0x3E94 JUMP JUMPDEST ISZERO PUSH2 0x3CFD JUMPI JUMP JUMPDEST PUSH1 0x40 MLOAD PUSH3 0x461BCD PUSH1 0xE5 SHL DUP2 MSTORE PUSH1 0x20 PUSH1 0x4 DUP3 ADD MSTORE PUSH1 0xF PUSH1 0x24 DUP3 ADD MSTORE PUSH32 0x4E4F5F5041525449434950414E54530000000000000000000000000000000000 PUSH1 0x44 DUP3 ADD MSTORE PUSH1 0x64 SWAP1 REVERT JUMPDEST ISZERO PUSH2 0x3D49 JUMPI JUMP JUMPDEST PUSH1 0x40 MLOAD PUSH3 0x461BCD PUSH1 0xE5 SHL DUP2 MSTORE PUSH1 0x20 PUSH1 0x4 DUP3 ADD MSTORE PUSH1 0x19 PUSH1 0x24 DUP3 ADD MSTORE PUSH32 0x53544152545F494E4445585F4F55545F4F465F424F554E445300000000000000 PUSH1 0x44 DUP3 ADD MSTORE PUSH1 0x64 SWAP1 REVERT JUMPDEST ISZERO PUSH2 0x3D95 JUMPI JUMP JUMPDEST PUSH1 0x40 MLOAD PUSH3 0x461BCD PUSH1 0xE5 SHL DUP2 MSTORE PUSH1 0x20 PUSH1 0x4 DUP3 ADD MSTORE PUSH1 0x11 PUSH1 0x24 DUP3 ADD MSTORE PUSH32 0x494E56414C49445F4D41585F434F554E54000000000000000000000000000000 PUSH1 0x44 DUP3 ADD MSTORE PUSH1 0x64 SWAP1 REVERT JUMPDEST ISZERO PUSH2 0x3DE1 JUMPI JUMP JUMPDEST PUSH1 0x40 MLOAD PUSH3 0x461BCD PUSH1 0xE5 SHL DUP2 MSTORE PUSH1 0x20 PUSH1 0x4 DUP3 ADD MSTORE PUSH1 0x14 PUSH1 0x24 DUP3 ADD MSTORE PUSH32 0x42415443485F53495A455F544F4F5F4C41524745000000000000000000000000 PUSH1 0x44 DUP3 ADD MSTORE PUSH1 0x64 SWAP1 REVERT JUMPDEST ISZERO PUSH2 0x3E2D JUMPI JUMP JUMPDEST PUSH1 0x40 MLOAD PUSH3 0x461BCD PUSH1 0xE5 SHL DUP2 MSTORE PUSH1 0x20 PUSH1 0x4 DUP3 ADD MSTORE PUSH1 0x12 PUSH1 0x24 DUP3 ADD MSTORE PUSH32 0x4E4F5448494E475F544F5F50524F434553530000000000000000000000000000 PUSH1 0x44 DUP3 ADD MSTORE PUSH1 0x64 SWAP1 REVERT JUMPDEST CALLDATASIZE SWAP1 CALLDATACOPY JUMP JUMPDEST SWAP1 PUSH2 0x1F3 PUSH2 0x3E87 PUSH2 0x33B8 DUP5 PUSH2 0x3335 JUMP JUMPDEST PUSH1 0x1F NOT ADD PUSH1 0x20 DUP5 ADD PUSH2 0x3E72 JUMP JUMPDEST POP SWAP1 PUSH2 0x3EA4 PUSH2 0x209 DUP4 PUSH1 0x2 PUSH2 0x9A3 JUMP JUMPDEST PUSH2 0x3EB6 PUSH2 0x3C44 PUSH2 0x1CA6 PUSH1 0x1B DUP5 ADD PUSH2 0xFBE JUMP JUMPDEST PUSH2 0x3ED0 PUSH2 0x3EC8 PUSH2 0x209 PUSH1 0x14 DUP5 ADD PUSH2 0x9B4 JUMP JUMPDEST TIMESTAMP LT ISZERO PUSH2 0x3BA5 JUMP JUMPDEST PUSH2 0x3EDE PUSH2 0x347C DUP5 PUSH1 0x6 PUSH2 0x9A3 JUMP JUMPDEST PUSH2 0x3F4C DUP4 PUSH2 0x3EEA DUP4 MLOAD SWAP1 JUMP JUMPDEST PUSH2 0x3F3D PUSH1 0x0 SWAP9 PUSH2 0x3F03 PUSH2 0x3EFC DUP12 PUSH2 0x996 JUMP JUMPDEST DUP5 GT PUSH2 0x3CF6 JUMP JUMPDEST PUSH2 0x3F0E DUP4 DUP6 LT PUSH2 0x3D42 JUMP JUMPDEST PUSH2 0x3F21 PUSH2 0x3F1A DUP12 PUSH2 0x996 JUMP JUMPDEST DUP3 GT PUSH2 0x3D8E JUMP JUMPDEST PUSH2 0x3F37 PUSH2 0x3F2F PUSH2 0x3E8 PUSH2 0x996 JUMP JUMPDEST DUP3 GT ISZERO PUSH2 0x3DDA JUMP JUMPDEST DUP4 PUSH2 0x2363 JUMP JUMPDEST SWAP1 DUP1 DUP3 GT PUSH2 0x3FCE JUMPI JUMPDEST POP PUSH2 0x2301 JUMP JUMPDEST SWAP6 PUSH2 0x3F60 PUSH2 0x3F59 DUP8 PUSH2 0x996 JUMP JUMPDEST DUP9 GT PUSH2 0x3E26 JUMP JUMPDEST PUSH2 0x3F72 PUSH2 0x3F6C DUP9 PUSH2 0x3E77 JUMP JUMPDEST SWAP7 PUSH2 0x996 JUMP JUMPDEST DUP8 JUMPDEST DUP2 LT ISZERO PUSH2 0x3FC4 JUMPI PUSH2 0x3FBD DUP2 PUSH2 0x3FB7 PUSH2 0x3FAA DUP10 PUSH2 0x3F9F PUSH2 0x34B8 PUSH2 0x3F99 PUSH2 0x3F74 SWAP9 DUP14 PUSH2 0x2363 JUMP JUMPDEST DUP11 PUSH2 0x33D4 JUMP JUMPDEST DUP10 PUSH2 0x3C87 DUP7 DUP14 PUSH2 0x2363 JUMP JUMPDEST PUSH2 0x3FB4 DUP4 DUP13 PUSH2 0x33D4 JUMP JUMPDEST MSTORE JUMP JUMPDEST PUSH1 0x1 ADD SWAP1 JUMP JUMPDEST SWAP1 POP PUSH2 0x3F72 JUMP JUMPDEST POP SWAP6 POP POP POP POP POP SWAP1 JUMP JUMPDEST SWAP1 POP CODESIZE PUSH2 0x3F46 JUMP JUMPDEST PUSH2 0x209 SWAP3 SWAP2 SWAP1 PUSH1 0x60 PUSH2 0x3CB3 JUMP JUMPDEST PUSH2 0x209 PUSH1 0xC0 PUSH2 0x390 JUMP JUMPDEST PUSH2 0x3FF5 PUSH2 0xE78 JUMP JUMPDEST SWAP1 PUSH1 0x60 DUP3 MSTORE PUSH1 0x20 DUP1 DUP1 DUP1 DUP1 DUP7 ADD PUSH1 0x60 DUP2 MSTORE ADD PUSH1 0x60 DUP2 MSTORE ADD PUSH1 0x60 DUP2 MSTORE ADD PUSH2 0x3266 PUSH2 0x38B5 JUMP JUMPDEST PUSH2 0x209 PUSH2 0x3FED JUMP JUMPDEST PUSH2 0x4029 PUSH2 0xEE5 JUMP JUMPDEST SWAP1 PUSH1 0x0 DUP3 MSTORE PUSH1 0x20 DUP1 DUP1 DUP1 DUP6 ADD PUSH1 0x0 PUSH2 0x3256 JUMP JUMPDEST PUSH2 0x209 PUSH2 0x4021 JUMP JUMPDEST PUSH2 0x404C PUSH2 0xF41 JUMP JUMPDEST SWAP1 PUSH1 0x0 DUP3 MSTORE PUSH1 0x20 DUP1 DUP1 DUP5 ADD PUSH1 0x0 PUSH2 0x325C JUMP JUMPDEST PUSH2 0x209 PUSH2 0x4044 JUMP JUMPDEST PUSH2 0x406E PUSH2 0xF41 JUMP JUMPDEST SWAP1 PUSH1 0x60 DUP3 MSTORE PUSH1 0x20 DUP1 DUP1 DUP5 ADD PUSH1 0x60 PUSH2 0x325C JUMP JUMPDEST PUSH2 0x209 PUSH2 0x4066 JUMP JUMPDEST PUSH2 0x4090 PUSH2 0x3FE3 JUMP JUMPDEST SWAP1 PUSH2 0x4099 PUSH2 0x4019 JUMP JUMPDEST DUP3 MSTORE PUSH1 0x20 DUP1 DUP1 DUP1 DUP1 DUP1 DUP8 ADD PUSH2 0x40AC PUSH2 0x403C JUMP JUMPDEST DUP2 MSTORE ADD PUSH2 0x40B7 PUSH2 0x405E JUMP JUMPDEST DUP2 MSTORE ADD PUSH2 0x40C2 PUSH2 0x4080 JUMP JUMPDEST DUP2 MSTORE ADD PUSH2 0x38AB PUSH2 0x403C JUMP JUMPDEST PUSH2 0x209 PUSH2 0x4088 JUMP JUMPDEST SWAP1 PUSH2 0x40DE DUP3 SLOAD SWAP1 JUMP JUMPDEST PUSH2 0x40E7 DUP2 PUSH2 0x3335 JUMP JUMPDEST SWAP3 PUSH2 0x40FB PUSH1 0x20 DUP6 ADD SWAP2 PUSH1 0x0 MSTORE PUSH1 0x20 PUSH1 0x0 KECCAK256 SWAP1 JUMP JUMPDEST PUSH1 0x0 SWAP2 JUMPDEST DUP4 DUP4 LT PUSH2 0x410C JUMPI POP POP POP POP JUMP JUMPDEST PUSH1 0xD PUSH1 0x20 PUSH1 0x1 SWAP3 PUSH2 0x411C DUP6 PUSH2 0x395D JUMP JUMPDEST DUP2 MSTORE ADD SWAP3 ADD SWAP3 ADD SWAP2 SWAP1 PUSH2 0x40FF JUMP JUMPDEST SWAP1 PUSH2 0x1F3 PUSH2 0x418A PUSH1 0x1E PUSH2 0x413B PUSH2 0x3FE3 JUMP JUMPDEST SWAP5 PUSH2 0x4148 PUSH2 0xEA0 DUP3 PUSH2 0xE82 JUMP JUMPDEST PUSH2 0x4157 PUSH2 0xEB3 PUSH1 0x11 DUP4 ADD PUSH2 0xEEF JUMP JUMPDEST PUSH2 0x4166 PUSH2 0xD82 PUSH1 0x15 DUP4 ADD PUSH2 0xF4B JUMP JUMPDEST PUSH2 0x4175 PUSH2 0xD98 PUSH1 0x18 DUP4 ADD PUSH2 0xF85 JUMP JUMPDEST PUSH2 0x4184 PUSH2 0xDAE PUSH1 0x1B DUP4 ADD PUSH2 0xFC8 JUMP JUMPDEST ADD PUSH2 0x40D5 JUMP JUMPDEST PUSH1 0xA0 DUP5 ADD MSTORE JUMP JUMPDEST PUSH2 0x209 SWAP1 PUSH2 0x412A JUMP JUMPDEST PUSH2 0x41DA PUSH2 0x209 SWAP2 PUSH2 0x41A9 PUSH2 0x40CD JUMP JUMPDEST POP PUSH2 0x41D3 PUSH2 0x41C6 PUSH1 0x0 PUSH1 0x11 PUSH2 0x41BF DUP6 PUSH1 0x2 PUSH2 0x9A3 JUMP JUMPDEST ADD ADD PUSH2 0x9B4 JUMP JUMPDEST PUSH2 0x2B98 PUSH2 0x28BC PUSH1 0x0 PUSH2 0x996 JUMP JUMPDEST PUSH1 0x2 PUSH2 0x9A3 JUMP JUMPDEST PUSH2 0x4191 JUMP JUMPDEST PUSH2 0x1F3 SWAP1 PUSH2 0x41EB PUSH2 0x45B6 JUMP JUMPDEST PUSH1 0x0 PUSH2 0x41F6 DUP2 PUSH2 0x2018 JUMP JUMPDEST PUSH1 0x1 PUSH1 0x1 PUSH1 0xA0 SHL SUB DUP2 AND PUSH1 0x1 PUSH1 0x1 PUSH1 0xA0 SHL SUB DUP5 AND EQ PUSH2 0x421A JUMPI POP POP PUSH2 0x1F3 SWAP1 PUSH2 0x49F2 JUMP JUMPDEST PUSH4 0x1E4FBDF7 PUSH1 0xE0 SHL DUP3 MSTORE PUSH1 0x1 PUSH1 0x1 PUSH1 0xA0 SHL SUB AND PUSH1 0x4 DUP3 ADD MSTORE PUSH1 0x24 SWAP1 REVERT JUMPDEST PUSH2 0x1F3 SWAP1 PUSH2 0x41DF JUMP JUMPDEST PUSH2 0x209 PUSH1 0x2 PUSH2 0x996 JUMP JUMPDEST PUSH2 0x4254 PUSH1 0x0 PUSH2 0x9B4 JUMP JUMPDEST PUSH2 0x425C PUSH2 0x4240 JUMP JUMPDEST SWAP1 DUP2 EQ PUSH2 0x426E JUMPI PUSH2 0x1F3 SWAP1 PUSH1 0x0 PUSH2 0x1CEE JUMP JUMPDEST PUSH4 0x3EE5AEB5 PUSH1 0xE0 SHL PUSH1 0x0 SWAP1 DUP2 MSTORE PUSH1 0x4 SWAP1 REVERT JUMPDEST PUSH2 0x209 PUSH1 0x1 PUSH2 0x996 JUMP JUMPDEST PUSH2 0x1F3 PUSH2 0x4295 PUSH2 0x4280 JUMP JUMPDEST PUSH1 0x0 PUSH2 0x1CEE JUMP JUMPDEST ISZERO PUSH2 0x42A3 JUMPI JUMP JUMPDEST PUSH1 0x40 MLOAD PUSH3 0x461BCD PUSH1 0xE5 SHL DUP2 MSTORE PUSH1 0x20 PUSH1 0x4 DUP3 ADD MSTORE PUSH1 0x11 PUSH1 0x24 DUP3 ADD MSTORE PUSH32 0x494E5354414E545F445241575F4F4E4C59000000000000000000000000000000 PUSH1 0x44 DUP3 ADD MSTORE PUSH1 0x64 SWAP1 REVERT JUMPDEST ISZERO PUSH2 0x42EF JUMPI JUMP JUMPDEST PUSH1 0x40 MLOAD PUSH3 0x461BCD PUSH1 0xE5 SHL DUP2 MSTORE PUSH1 0x20 PUSH1 0x4 DUP3 ADD MSTORE PUSH1 0x11 PUSH1 0x24 DUP3 ADD MSTORE PUSH32 0x524146464C455F4E4F545F414354495645000000000000000000000000000000 PUSH1 0x44 DUP3 ADD MSTORE PUSH1 0x64 SWAP1 REVERT JUMPDEST ISZERO PUSH2 0x433B JUMPI JUMP JUMPDEST PUSH1 0x40 MLOAD PUSH3 0x461BCD PUSH1 0xE5 SHL DUP2 MSTORE PUSH1 0x20 PUSH1 0x4 DUP3 ADD MSTORE PUSH1 0x12 PUSH1 0x24 DUP3 ADD MSTORE PUSH32 0x524146464C455F4E4F545F535441525445440000000000000000000000000000 PUSH1 0x44 DUP3 ADD MSTORE PUSH1 0x64 SWAP1 REVERT JUMPDEST ISZERO PUSH2 0x4387 JUMPI JUMP JUMPDEST PUSH1 0x40 MLOAD PUSH3 0x461BCD PUSH1 0xE5 SHL DUP2 MSTORE PUSH1 0x20 PUSH1 0x4 DUP3 ADD MSTORE PUSH1 0x1B PUSH1 0x24 DUP3 ADD MSTORE PUSH32 0x50415254494349504154494F4E5F4C494D49545F524541434845440000000000 PUSH1 0x44 DUP3 ADD MSTORE PUSH1 0x64 SWAP1 REVERT JUMPDEST SWAP2 SWAP1 PUSH2 0x43D9 DUP4 PUSH1 0x2 PUSH2 0x9A3 JUMP JUMPDEST PUSH1 0x11 DUP2 ADD PUSH2 0x43E6 DUP2 PUSH2 0x9B4 JUMP JUMPDEST PUSH1 0x0 SWAP5 DUP6 SWAP2 PUSH2 0x43F4 DUP4 PUSH2 0x996 JUMP JUMPDEST LT PUSH2 0x43FE SWAP1 PUSH2 0x2A8F JUMP JUMPDEST PUSH2 0x44A4 SWAP4 PUSH2 0x447A PUSH2 0x4472 PUSH2 0x209 PUSH1 0x1 PUSH2 0x449E SWAP8 PUSH2 0xF34 PUSH2 0x446A PUSH2 0x209 PUSH1 0x2 SWAP11 PUSH1 0x15 SWAP11 PUSH2 0x44F2 JUMPI JUMPDEST PUSH2 0x4463 PUSH2 0x4457 DUP8 PUSH1 0x1B DUP14 ADD PUSH2 0xF34 PUSH2 0x4452 PUSH2 0x1CA6 DUP8 DUP5 ADD PUSH2 0x444D PUSH2 0x4448 DUP3 PUSH2 0xC49 JUMP JUMPDEST PUSH2 0x42E8 JUMP JUMPDEST PUSH2 0xFBE JUMP JUMPDEST PUSH2 0x3BDD JUMP JUMPDEST PUSH2 0x3C77 PUSH2 0x28BC DUP5 PUSH2 0x996 JUMP JUMPDEST DUP5 ADD PUSH2 0x9B4 JUMP JUMPDEST TIMESTAMP LT ISZERO PUSH2 0x4334 JUMP JUMPDEST TIMESTAMP GT ISZERO PUSH2 0x3BDD JUMP JUMPDEST ADD PUSH2 0x4487 PUSH1 0x1 DUP3 ADD PUSH2 0x9B4 JUMP JUMPDEST PUSH2 0x4490 DUP8 PUSH2 0x996 JUMP JUMPDEST DUP2 GT PUSH2 0x44D0 JUMPI JUMPDEST POP ADD PUSH2 0x9B4 JUMP JUMPDEST SWAP3 PUSH2 0x996 JUMP JUMPDEST DUP3 GT PUSH2 0x44AF JUMPI POP POP POP JUMP JUMPDEST PUSH2 0x28BC PUSH2 0x2308 PUSH2 0x340A PUSH2 0x44CA SWAP4 PUSH2 0x1553 PUSH2 0x1F3 SWAP8 PUSH1 0x7 PUSH2 0x9A3 JUMP JUMPDEST LT PUSH2 0x4380 JUMP JUMPDEST PUSH2 0x44EC SWAP1 PUSH2 0x44CA PUSH2 0x28BC PUSH2 0x2308 PUSH2 0x44E8 DUP13 PUSH1 0x6 PUSH2 0x9A3 JUMP JUMPDEST SLOAD SWAP1 JUMP JUMPDEST CODESIZE PUSH2 0x4497 JUMP JUMPDEST PUSH2 0x4505 PUSH2 0x4500 DUP14 DUP8 ADD PUSH2 0xC49 JUMP JUMPDEST PUSH2 0x429C JUMP JUMPDEST PUSH2 0x4425 JUMP JUMPDEST SWAP2 SWAP5 PUSH2 0x704 PUSH2 0xA32 SWAP3 SWAP9 SWAP8 SWAP6 PUSH2 0x454B PUSH1 0xA0 SWAP7 PUSH2 0x4544 PUSH2 0x1F3 SWAP11 PUSH2 0x453D PUSH1 0xC0 DUP11 ADD SWAP15 PUSH1 0x0 DUP12 ADD SWAP1 PUSH1 0x1 PUSH1 0x1 PUSH1 0xA0 SHL SUB AND SWAP1 MSTORE JUMP JUMPDEST PUSH1 0x20 DUP10 ADD MSTORE JUMP JUMPDEST PUSH1 0x40 DUP8 ADD MSTORE JUMP JUMPDEST PUSH1 0x60 DUP6 ADD MSTORE JUMP JUMPDEST PUSH2 0x45A0 SWAP2 SWAP3 PUSH2 0x455F PUSH1 0x0 SWAP1 JUMP JUMPDEST POP PUSH2 0x4594 PUSH2 0x4576 PUSH2 0x4570 PUSH1 0x1 PUSH2 0x996 JUMP JUMPDEST NUMBER PUSH2 0x2301 JUMP JUMPDEST SWAP2 PUSH2 0x4580 PUSH1 0x40 MLOAD SWAP1 JUMP JUMPDEST SWAP6 DUP7 SWAP5 PUSH1 0x20 DUP7 ADD SWAP5 BLOCKHASH SWAP3 PREVRANDAO SWAP3 TIMESTAMP SWAP3 DUP8 PUSH2 0x450A JUMP JUMPDEST SWAP1 DUP2 SUB DUP3 MSTORE SUB DUP3 PUSH2 0x369 JUMP JUMPDEST PUSH2 0x45B2 PUSH2 0x45AB DUP3 MLOAD SWAP1 JUMP JUMPDEST SWAP2 PUSH1 0x20 ADD SWAP1 JUMP JUMPDEST KECCAK256 SWAP1 JUMP JUMPDEST PUSH1 0x1 SLOAD PUSH1 0x1 PUSH1 0x1 PUSH1 0xA0 SHL SUB AND CALLER SWAP1 PUSH2 0x45D6 DUP3 JUMPDEST SWAP2 PUSH1 0x1 PUSH1 0x1 PUSH1 0xA0 SHL SUB AND SWAP1 JUMP JUMPDEST SUB PUSH2 0x45DE JUMPI POP JUMP JUMPDEST PUSH4 0x118CDAA7 PUSH1 0xE0 SHL PUSH1 0x0 SWAP1 DUP2 MSTORE PUSH1 0x1 PUSH1 0x1 PUSH1 0xA0 SHL SUB SWAP1 SWAP2 AND PUSH1 0x4 MSTORE PUSH1 0x24 SUB PUSH1 0x0 REVERT JUMPDEST ISZERO PUSH2 0x4607 JUMPI JUMP JUMPDEST PUSH1 0x40 MLOAD PUSH3 0x461BCD PUSH1 0xE5 SHL DUP2 MSTORE PUSH1 0x20 PUSH1 0x4 DUP3 ADD MSTORE PUSH1 0x9 PUSH1 0x24 DUP3 ADD MSTORE PUSH9 0x4E4F5F5052495A4553 PUSH1 0xB8 SHL PUSH1 0x44 DUP3 ADD MSTORE PUSH1 0x64 SWAP1 REVERT JUMPDEST PUSH2 0x4640 PUSH2 0x38B5 JUMP JUMPDEST POP PUSH2 0x465F PUSH2 0x464C DUP3 MLOAD SWAP1 JUMP JUMPDEST PUSH2 0x4659 PUSH2 0x28BC PUSH1 0x0 PUSH2 0x996 JUMP JUMPDEST GT PUSH2 0x4600 JUMP JUMPDEST PUSH2 0x4672 PUSH2 0x466C PUSH1 0x0 PUSH2 0x996 JUMP JUMPDEST DUP3 PUSH2 0x33D4 JUMP JUMPDEST MLOAD SWAP1 PUSH1 0x1 DUP1 PUSH2 0x4681 PUSH1 0x1 PUSH2 0x996 JUMP JUMPDEST SWAP1 JUMPDEST PUSH2 0x468E JUMPI JUMPDEST POP POP POP SWAP1 JUMP JUMPDEST PUSH2 0x4699 PUSH2 0x209 DUP5 MLOAD SWAP1 JUMP JUMPDEST DUP2 LT ISZERO PUSH2 0x472D JUMPI PUSH2 0x46AA DUP2 DUP5 PUSH2 0x33D4 JUMP JUMPDEST MLOAD PUSH1 0xA0 DUP2 ADD DUP1 MLOAD PUSH1 0xA0 DUP8 ADD SWAP1 PUSH2 0x46C4 PUSH2 0x28BC PUSH2 0x209 DUP5 MLOAD SWAP1 JUMP JUMPDEST GT SWAP2 DUP3 ISZERO PUSH2 0x46E9 JUMPI JUMPDEST POP POP PUSH2 0x46DF JUMPI JUMPDEST POP PUSH1 0x1 ADD JUMPDEST DUP2 PUSH2 0x4683 JUMP JUMPDEST SWAP4 POP PUSH2 0x46D9 PUSH2 0x46D4 JUMP JUMPDEST PUSH2 0x4702 SWAP2 SWAP3 POP PUSH2 0x209 PUSH2 0x46FD PUSH2 0x28BC SWAP3 MLOAD SWAP1 JUMP JUMPDEST SWAP4 MLOAD SWAP1 JUMP JUMPDEST EQ DUP1 PUSH2 0x4710 JUMPI JUMPDEST CODESIZE DUP1 PUSH2 0x46CD JUMP JUMPDEST POP PUSH1 0x80 DUP2 ADD MLOAD PUSH2 0x4727 PUSH2 0x28BC PUSH2 0x209 PUSH1 0x80 DUP10 ADD MLOAD SWAP1 JUMP JUMPDEST GT PUSH2 0x4709 JUMP JUMPDEST PUSH2 0x4688 JUMP JUMPDEST ISZERO PUSH2 0x4739 JUMPI JUMP JUMPDEST PUSH1 0x40 MLOAD PUSH3 0x461BCD PUSH1 0xE5 SHL DUP2 MSTORE PUSH1 0x20 PUSH1 0x4 DUP3 ADD MSTORE PUSH1 0x12 PUSH1 0x24 DUP3 ADD MSTORE PUSH32 0x4E4F5F5052495A45535F50524F56494445440000000000000000000000000000 PUSH1 0x44 DUP3 ADD MSTORE PUSH1 0x64 SWAP1 REVERT JUMPDEST ISZERO PUSH2 0x4785 JUMPI JUMP JUMPDEST PUSH1 0x40 MLOAD PUSH3 0x461BCD PUSH1 0xE5 SHL DUP2 MSTORE PUSH1 0x20 PUSH1 0x4 DUP3 ADD MSTORE PUSH1 0x12 PUSH1 0x24 DUP3 ADD MSTORE PUSH32 0x5052495A455F5A45524F5F5449434B4554530000000000000000000000000000 PUSH1 0x44 DUP3 ADD MSTORE PUSH1 0x64 SWAP1 REVERT JUMPDEST SWAP2 SWAP1 PUSH2 0x47D9 JUMPI PUSH2 0x1F3 SWAP2 PUSH2 0x260A JUMP JUMPDEST PUSH2 0x1D09 JUMP JUMPDEST SWAP1 DUP2 SLOAD SWAP2 PUSH9 0x10000000000000000 DUP4 LT ISZERO PUSH2 0x38B JUMPI DUP3 PUSH2 0x4806 SWAP2 PUSH1 0x1 PUSH2 0x1F3 SWAP6 ADD DUP2 SSTORE PUSH2 0x2E56 JUMP JUMPDEST SWAP1 PUSH2 0x47CA JUMP JUMPDEST ISZERO PUSH2 0x4813 JUMPI JUMP JUMPDEST PUSH1 0x40 MLOAD PUSH3 0x461BCD PUSH1 0xE5 SHL DUP2 MSTORE PUSH1 0x20 PUSH1 0x4 DUP3 ADD MSTORE PUSH1 0x12 PUSH1 0x24 DUP3 ADD MSTORE PUSH32 0x544F54414C5F5449434B4554535F5A45524F0000000000000000000000000000 PUSH1 0x44 DUP3 ADD MSTORE PUSH1 0x64 SWAP1 REVERT JUMPDEST ISZERO PUSH2 0x485F JUMPI JUMP JUMPDEST PUSH1 0x40 MLOAD PUSH3 0x461BCD PUSH1 0xE5 SHL DUP2 MSTORE PUSH1 0x20 PUSH1 0x4 DUP3 ADD MSTORE PUSH1 0x11 PUSH1 0x24 DUP3 ADD MSTORE PUSH32 0x5155414E544954595F4D49534D41544348000000000000000000000000000000 PUSH1 0x44 DUP3 ADD MSTORE PUSH1 0x64 SWAP1 REVERT JUMPDEST SWAP2 SWAP3 SWAP2 DUP4 MLOAD SWAP2 PUSH2 0x48C2 PUSH1 0x0 SWAP4 PUSH2 0x48BC PUSH2 0x28BC DUP7 PUSH2 0x996 JUMP JUMPDEST GT PUSH2 0x4732 JUMP JUMPDEST PUSH2 0x48CB DUP4 PUSH2 0x996 JUMP JUMPDEST SWAP5 PUSH2 0x48D4 DUP2 MLOAD SWAP1 JUMP JUMPDEST SWAP5 DUP7 SWAP4 DUP8 JUMPDEST DUP8 DUP10 LT ISZERO PUSH2 0x4976 JUMPI PUSH2 0x48EB DUP10 DUP6 PUSH2 0x33D4 JUMP JUMPDEST MLOAD SWAP6 PUSH1 0x40 DUP8 ADD SWAP7 PUSH2 0x48FA DUP9 MLOAD SWAP1 JUMP JUMPDEST PUSH2 0x4903 DUP11 PUSH2 0x996 JUMP JUMPDEST LT PUSH2 0x490D SWAP1 PUSH2 0x477E JUMP JUMPDEST PUSH2 0x4916 DUP10 PUSH2 0x996 JUMP JUMPDEST PUSH1 0x60 DUP3 ADD MSTORE PUSH2 0x4926 DUP4 PUSH1 0xE0 DUP4 ADD MSTORE JUMP JUMPDEST PUSH2 0x4933 SWAP1 PUSH1 0x1E DUP9 ADD PUSH2 0x47DE JUMP JUMPDEST DUP7 MLOAD PUSH1 0x1C DUP8 ADD SWAP1 PUSH2 0x4943 DUP3 PUSH2 0x9B4 JUMP JUMPDEST SWAP1 PUSH2 0x494D SWAP2 PUSH2 0x2363 JUMP JUMPDEST PUSH2 0x4956 SWAP2 PUSH2 0x1CEE JUMP JUMPDEST DUP7 MLOAD PUSH2 0x4961 SWAP2 PUSH2 0x2363 JUMP JUMPDEST SWAP6 MLOAD PUSH2 0x496C SWAP2 PUSH2 0x2363 JUMP JUMPDEST SWAP8 PUSH1 0x1 ADD SWAP8 PUSH2 0x48D9 JUMP JUMPDEST POP SWAP6 POP SWAP6 POP POP PUSH2 0x1DAE PUSH2 0x49B8 SWAP4 PUSH2 0x1F23 PUSH1 0x1B PUSH1 0x2 SWAP5 PUSH2 0x499E PUSH2 0x4997 DUP6 PUSH2 0x996 JUMP JUMPDEST DUP9 GT PUSH2 0x480C JUMP JUMPDEST ADD SWAP5 PUSH2 0x49B2 PUSH2 0x28BC PUSH2 0x2308 PUSH1 0x1 DUP10 ADD PUSH2 0x9B4 JUMP JUMPDEST EQ PUSH2 0x4858 JUMP JUMPDEST PUSH2 0x49C1 DUP2 PUSH2 0x996 JUMP JUMPDEST PUSH32 0xB5745354685A046E72F24602BCF00FA0EE07F0BF511AFB5F2D3AB636241E41B PUSH2 0x49EB PUSH1 0x40 MLOAD SWAP1 JUMP JUMPDEST PUSH1 0x0 SWAP1 LOG2 SWAP1 JUMP JUMPDEST PUSH2 0x4A15 PUSH2 0x3149 PUSH2 0x4A0A PUSH1 0x1 SLOAD PUSH1 0x1 PUSH1 0x1 PUSH1 0xA0 SHL SUB AND SWAP1 JUMP JUMPDEST PUSH2 0x216F DUP5 PUSH1 0x1 PUSH2 0x1D2E JUMP JUMPDEST SWAP1 PUSH32 0x8BE0079C531659141344CD1FD0A4F28419497F9722A3DAAFE3B4186F6B6457E0 PUSH2 0x4A40 PUSH1 0x40 MLOAD SWAP1 JUMP JUMPDEST DUP1 DUP1 PUSH2 0x2C03 JUMP JUMPDEST PUSH2 0x209 SWAP1 PUSH2 0x1EDF PUSH2 0x209 PUSH2 0x4AC8 SWAP5 PUSH2 0x4A5D PUSH1 0x0 SWAP1 JUMP JUMPDEST POP PUSH2 0x1553 PUSH2 0x4A75 PUSH2 0x4A6E PUSH1 0x5 PUSH2 0x9B4 JUMP JUMPDEST DUP7 DUP5 PUSH2 0x4552 JUMP JUMPDEST SWAP5 PUSH2 0x4A80 PUSH1 0x5 PUSH2 0x9B4 JUMP JUMPDEST SWAP8 DUP9 SWAP7 PUSH2 0x4A8F PUSH2 0x1E7E DUP10 PUSH2 0x1CCA JUMP JUMPDEST PUSH2 0x4AB2 PUSH2 0x4A9A PUSH2 0xEE5 JUMP JUMPDEST PUSH1 0x1 PUSH1 0x1 PUSH1 0xA0 SHL SUB DUP8 AND DUP2 MSTORE SWAP2 PUSH2 0x7A6 DUP6 PUSH1 0x20 DUP6 ADD MSTORE JUMP JUMPDEST PUSH2 0x4ABD TIMESTAMP PUSH1 0x60 DUP4 ADD MSTORE JUMP JUMPDEST PUSH2 0x1EC8 DUP9 PUSH1 0x4 PUSH2 0x9A3 JUMP JUMPDEST PUSH2 0x4ADA DUP7 PUSH2 0x1EDF PUSH2 0x209 DUP5 PUSH1 0x6 PUSH2 0x9A3 JUMP JUMPDEST PUSH2 0x4AEC PUSH2 0x1EF6 DUP5 PUSH2 0x1553 DUP5 PUSH1 0x7 PUSH2 0x9A3 JUMP JUMPDEST PUSH1 0x8 PUSH2 0x9A3 JUMP JUMPDEST PUSH2 0x209 SWAP2 SWAP1 PUSH2 0x50B5 JUMP JUMPDEST ISZERO PUSH2 0x4B04 JUMPI JUMP JUMPDEST PUSH1 0x40 MLOAD PUSH3 0x461BCD PUSH1 0xE5 SHL DUP2 MSTORE PUSH1 0x20 PUSH1 0x4 DUP3 ADD MSTORE PUSH1 0x13 PUSH1 0x24 DUP3 ADD MSTORE PUSH32 0x4E4F5F415641494C41424C455F5052495A455300000000000000000000000000 PUSH1 0x44 DUP3 ADD MSTORE PUSH1 0x64 SWAP1 REVERT JUMPDEST SWAP1 PUSH2 0x4B52 PUSH2 0x38B5 JUMP JUMPDEST POP DUP2 SLOAD PUSH2 0x4B67 PUSH1 0x0 SWAP2 PUSH2 0x4659 PUSH2 0x28BC DUP5 PUSH2 0x996 JUMP JUMPDEST PUSH2 0x4B6F PUSH2 0x38B5 JUMP JUMPDEST DUP2 PUSH2 0x4B79 DUP4 PUSH2 0x996 JUMP JUMPDEST PUSH2 0x4B84 PUSH2 0x209 DUP8 SLOAD SWAP1 JUMP JUMPDEST DUP2 LT ISZERO PUSH2 0x4CC7 JUMPI PUSH2 0x4B9C PUSH2 0x4B98 DUP3 DUP9 PUSH2 0x2E56 JUMP JUMPDEST POP SWAP1 JUMP JUMPDEST PUSH2 0x4BA5 DUP6 PUSH2 0x996 JUMP JUMPDEST PUSH1 0x1 DUP3 ADD PUSH2 0x4BB2 DUP2 PUSH2 0x9B4 JUMP JUMPDEST SWAP1 PUSH1 0x2 DUP5 ADD SWAP2 PUSH2 0x4BC7 PUSH2 0x28BC PUSH2 0x209 DUP6 PUSH2 0x9B4 JUMP JUMPDEST GT PUSH2 0x4CA9 JUMPI JUMPDEST POP POP PUSH2 0x4BDB PUSH2 0x28BC DUP8 PUSH2 0x996 JUMP JUMPDEST GT PUSH2 0x4BEF JUMPI JUMPDEST POP PUSH1 0x1 ADD PUSH2 0x4B79 JUMP JUMPDEST PUSH2 0x4B79 JUMP JUMPDEST SWAP1 SWAP2 DUP1 PUSH2 0x4C10 JUMPI POP PUSH2 0x4C02 SWAP2 SWAP3 POP PUSH2 0x395D JUMP JUMPDEST SWAP1 PUSH2 0x4BEA PUSH1 0x1 SWAP2 JUMPDEST SWAP1 PUSH2 0x4BE1 JUMP JUMPDEST SWAP2 SWAP1 PUSH1 0x4 DUP2 ADD PUSH2 0x4C1F DUP2 PUSH2 0x9B4 JUMP JUMPDEST PUSH1 0xA0 DUP7 ADD SWAP1 PUSH2 0x4C32 PUSH2 0x28BC PUSH2 0x209 DUP5 MLOAD SWAP1 JUMP JUMPDEST GT SWAP2 DUP3 ISZERO PUSH2 0x4C62 JUMPI JUMPDEST POP POP PUSH2 0x4C4C JUMPI JUMPDEST POP PUSH2 0x4BEA SWAP1 PUSH2 0x4C0A JUMP JUMPDEST PUSH2 0x4BEA SWAP2 SWAP4 POP PUSH2 0x4C5B SWAP1 PUSH2 0x395D JUMP JUMPDEST SWAP3 SWAP1 PUSH2 0x4C42 JUMP JUMPDEST PUSH2 0x4C77 SWAP2 SWAP3 POP PUSH2 0x209 PUSH2 0x46FD PUSH2 0x28BC SWAP3 PUSH2 0x9B4 JUMP JUMPDEST EQ DUP1 PUSH2 0x4C85 JUMPI JUMPDEST CODESIZE DUP1 PUSH2 0x4C3B JUMP JUMPDEST POP PUSH2 0x4C92 PUSH1 0x3 DUP3 ADD PUSH2 0x9B4 JUMP JUMPDEST PUSH2 0x4CA3 PUSH2 0x28BC PUSH2 0x209 PUSH1 0x80 DUP9 ADD MLOAD SWAP1 JUMP JUMPDEST GT PUSH2 0x4C7E JUMP JUMPDEST PUSH2 0x4CC0 SWAP3 POP PUSH2 0x4CBA PUSH2 0x2930 SWAP2 PUSH2 0x9B4 JUMP JUMPDEST SWAP2 PUSH2 0x9B4 JUMP JUMPDEST CODESIZE DUP1 PUSH2 0x4BCD JUMP JUMPDEST POP SWAP1 SWAP3 SWAP4 POP PUSH2 0x209 SWAP2 POP PUSH2 0x4AFD JUMP JUMPDEST ISZERO PUSH2 0x4CDD JUMPI JUMP JUMPDEST PUSH1 0x40 MLOAD PUSH3 0x461BCD PUSH1 0xE5 SHL DUP2 MSTORE PUSH1 0x20 PUSH1 0x4 DUP3 ADD MSTORE PUSH1 0x13 PUSH1 0x24 DUP3 ADD MSTORE PUSH32 0x494E56414C49445F5041525449434950414E5400000000000000000000000000 PUSH1 0x44 DUP3 ADD MSTORE PUSH1 0x64 SWAP1 REVERT JUMPDEST ISZERO PUSH2 0x4D29 JUMPI JUMP JUMPDEST PUSH1 0x40 MLOAD PUSH3 0x461BCD PUSH1 0xE5 SHL DUP2 MSTORE PUSH1 0x20 PUSH1 0x4 DUP3 ADD MSTORE PUSH1 0x14 PUSH1 0x24 DUP3 ADD MSTORE PUSH32 0x4E4F5F5449434B4554535F415641494C41424C45000000000000000000000000 PUSH1 0x44 DUP3 ADD MSTORE PUSH1 0x64 SWAP1 REVERT JUMPDEST ISZERO PUSH2 0x4D75 JUMPI JUMP JUMPDEST PUSH1 0x40 MLOAD PUSH3 0x461BCD PUSH1 0xE5 SHL DUP2 MSTORE PUSH1 0x20 PUSH1 0x4 DUP3 ADD MSTORE PUSH1 0x13 PUSH1 0x24 DUP3 ADD MSTORE PUSH32 0x494E56414C49445F5052495A455F494E44455800000000000000000000000000 PUSH1 0x44 DUP3 ADD MSTORE PUSH1 0x64 SWAP1 REVERT JUMPDEST SWAP1 SWAP6 SWAP5 SWAP3 PUSH2 0x1F3 SWAP5 PUSH2 0x75E PUSH2 0xA32 SWAP3 PUSH2 0x34FD PUSH1 0x80 SWAP7 PUSH2 0x34F6 PUSH1 0xA0 DUP9 ADD SWAP13 PUSH1 0x0 DUP10 ADD MSTORE JUMP JUMPDEST SWAP2 PUSH2 0x209 SWAP2 SWAP4 PUSH2 0x4DEC PUSH1 0x0 SWAP1 JUMP JUMPDEST POP PUSH2 0x4DFB PUSH2 0x3027 DUP6 PUSH1 0x4 PUSH2 0x9A3 JUMP JUMPDEST SWAP1 PUSH2 0x4E0D DUP3 MLOAD PUSH1 0x1 PUSH1 0x1 PUSH1 0xA0 SHL SUB AND SWAP1 JUMP JUMPDEST PUSH2 0x4E29 PUSH1 0x0 SWAP2 PUSH2 0x4E22 PUSH2 0x45C9 PUSH2 0x27A DUP6 PUSH2 0x2018 JUMP JUMPDEST EQ ISZERO PUSH2 0x4CD6 JUMP JUMPDEST PUSH1 0x1C DUP8 ADD SWAP1 PUSH1 0x1B DUP9 ADD PUSH2 0x4E50 PUSH2 0x4E3E DUP5 PUSH2 0x9B4 JUMP JUMPDEST PUSH2 0x4E4A PUSH2 0x28BC DUP6 PUSH2 0x996 JUMP JUMPDEST GT PUSH2 0x4D22 JUMP JUMPDEST PUSH2 0x4E8E PUSH2 0x4E7F PUSH2 0x303B DUP11 DUP8 PUSH2 0x4E79 DUP8 DUP12 ADD SWAP12 PUSH2 0x4E73 DUP14 MLOAD PUSH1 0x1 PUSH1 0x1 PUSH1 0xA0 SHL SUB AND SWAP1 JUMP JUMPDEST SWAP4 PUSH2 0x2363 JUMP JUMPDEST SWAP2 PUSH2 0x4552 JUMP JUMPDEST PUSH2 0x4E88 DUP6 PUSH2 0x9B4 JUMP JUMPDEST SWAP1 PUSH2 0x2E47 JUMP JUMPDEST SWAP4 DUP3 PUSH1 0x15 PUSH2 0x4E9C DUP8 DUP14 PUSH2 0x4AF3 JUMP JUMPDEST SWAP12 PUSH2 0x4EB7 DUP14 PUSH2 0x4EB1 PUSH2 0x28BC PUSH1 0x1E DUP6 ADD SWAP15 DUP16 SLOAD SWAP1 JUMP JUMPDEST LT PUSH2 0x4D6E JUMP JUMPDEST ADD ADD SWAP8 DUP11 PUSH2 0x4EC4 DUP11 PUSH2 0xC49 JUMP JUMPDEST PUSH2 0x5072 JUMPI JUMPDEST POP POP PUSH2 0x4ED5 PUSH1 0xB PUSH2 0x9B4 JUMP JUMPDEST SWAP4 PUSH2 0x4EDF DUP6 PUSH2 0x1CCA JUMP JUMPDEST PUSH2 0x4EEA SWAP1 PUSH1 0xB PUSH2 0x1CEE JUMP JUMPDEST PUSH1 0x40 DUP8 ADD SWAP9 PUSH2 0x4EF7 DUP11 MLOAD SWAP1 JUMP JUMPDEST SWAP3 PUSH2 0x4F09 DUP11 MLOAD PUSH1 0x1 PUSH1 0x1 PUSH1 0xA0 SHL SUB AND SWAP1 JUMP JUMPDEST SWAP4 PUSH2 0x4F12 PUSH2 0x2EC9 JUMP JUMPDEST PUSH1 0x1 PUSH1 0x1 PUSH1 0xA0 SHL SUB SWAP1 SWAP6 AND DUP8 DUP7 ADD MSTORE DUP7 ISZERO ISZERO PUSH1 0x20 DUP7 ADD MSTORE PUSH1 0x40 DUP6 ADD MSTORE PUSH1 0x60 DUP5 ADD MSTORE PUSH2 0x4F3E DUP13 PUSH1 0x80 DUP6 ADD MSTORE JUMP JUMPDEST PUSH2 0x4F49 TIMESTAMP PUSH1 0xA0 DUP6 ADD MSTORE JUMP JUMPDEST PUSH2 0x4F52 DUP6 PUSH2 0x996 JUMP JUMPDEST SWAP3 PUSH2 0x4F5E DUP5 PUSH1 0xC0 DUP4 ADD MSTORE JUMP JUMPDEST PUSH2 0x4F69 DUP8 PUSH1 0xA PUSH2 0x9A3 JUMP JUMPDEST SWAP1 PUSH2 0x4F73 SWAP2 PUSH2 0x2F73 JUMP JUMPDEST DUP6 PUSH2 0x4F7C DUP12 MLOAD SWAP1 JUMP JUMPDEST PUSH2 0x4F87 SWAP1 PUSH1 0x9 PUSH2 0x20C JUMP JUMPDEST SWAP1 PUSH2 0x4F91 SWAP2 PUSH2 0x1CEE JUMP JUMPDEST PUSH1 0x2 DUP5 ADD PUSH2 0x4F9E DUP2 PUSH2 0x9B4 JUMP JUMPDEST PUSH2 0x4FA7 SWAP1 PUSH2 0x1CCA JUMP JUMPDEST PUSH2 0x4FB0 SWAP2 PUSH2 0x1CEE JUMP JUMPDEST PUSH2 0x4FB9 SWAP1 PUSH2 0xC49 JUMP JUMPDEST DUP1 PUSH2 0x500C PUSH1 0x20 PUSH32 0x2120864CCF2C79A4CAD1014109DF7E170CF9E4C2664AB542E5493B272AB68590 SWAP11 PUSH2 0x5041 SWAP9 PUSH2 0x502B SWAP9 PUSH2 0x501A SWAP6 PUSH2 0x5025 SWAP10 PUSH2 0x3F6C SWAP10 PUSH2 0x501F SWAP10 PUSH2 0x505B JUMPI JUMPDEST POP POP PUSH2 0x5047 JUMPI JUMPDEST POP POP ADD MLOAD SWAP1 JUMP JUMPDEST SWAP10 MLOAD PUSH1 0x1 PUSH1 0x1 PUSH1 0xA0 SHL SUB AND SWAP1 JUMP JUMPDEST SWAP10 MLOAD SWAP1 JUMP JUMPDEST SWAP5 PUSH2 0x996 JUMP JUMPDEST SWAP7 PUSH2 0xAC2 JUMP JUMPDEST SWAP7 PUSH2 0x5035 PUSH1 0x40 MLOAD SWAP1 JUMP JUMPDEST SWAP4 DUP5 SWAP4 DUP11 TIMESTAMP SWAP4 DUP7 PUSH2 0x4DBA JUMP JUMPDEST SUB SWAP1 LOG4 SWAP1 JUMP JUMPDEST PUSH2 0x5054 SWAP2 PUSH1 0x1 SWAP2 ADD PUSH2 0x2889 JUMP JUMPDEST CODESIZE DUP1 PUSH2 0x5005 JUMP JUMPDEST PUSH2 0x506A SWAP2 SWAP3 POP PUSH2 0x209 SWAP1 PUSH2 0x9B4 JUMP JUMPDEST EQ CODESIZE DUP1 PUSH2 0x4FFE JUMP JUMPDEST PUSH2 0x31D1 PUSH1 0x2 SWAP2 PUSH2 0x5081 SWAP4 PUSH2 0x2E56 JUMP JUMPDEST PUSH2 0x5099 PUSH2 0x508D DUP6 PUSH2 0x9B4 JUMP JUMPDEST PUSH2 0x31F7 PUSH2 0x28BC DUP7 PUSH2 0x996 JUMP JUMPDEST PUSH2 0x50AE PUSH2 0x50A8 PUSH2 0x320C DUP7 PUSH2 0x9B4 JUMP JUMPDEST DUP6 PUSH2 0x1CEE JUMP JUMPDEST CODESIZE DUP11 PUSH2 0x4EC9 JUMP JUMPDEST SWAP1 PUSH2 0x50C2 PUSH1 0x15 DUP4 ADD PUSH2 0xC49 JUMP JUMPDEST ISZERO PUSH2 0x50D0 JUMPI PUSH2 0x209 SWAP2 PUSH2 0x5254 JUMP JUMPDEST PUSH2 0x209 SWAP2 PUSH2 0x5125 JUMP JUMPDEST ISZERO PUSH2 0x50E0 JUMPI JUMP JUMPDEST PUSH1 0x40 MLOAD PUSH3 0x461BCD PUSH1 0xE5 SHL DUP2 MSTORE PUSH1 0x20 PUSH1 0x4 DUP3 ADD MSTORE PUSH1 0x13 PUSH1 0x24 DUP3 ADD MSTORE PUSH32 0x4E4F5F5052495A45535F415641494C41424C4500000000000000000000000000 PUSH1 0x44 DUP3 ADD MSTORE PUSH1 0x64 SWAP1 REVERT JUMPDEST PUSH1 0x1E ADD DUP1 SLOAD SWAP2 PUSH2 0x5143 PUSH1 0x0 SWAP4 PUSH2 0x513D PUSH2 0x28BC DUP7 PUSH2 0x996 JUMP JUMPDEST GT PUSH2 0x50D9 JUMP JUMPDEST PUSH2 0x514C DUP4 PUSH2 0x996 JUMP JUMPDEST SWAP2 PUSH2 0x5155 DUP2 SLOAD SWAP1 JUMP JUMPDEST DUP4 JUMPDEST DUP2 DUP6 LT ISZERO PUSH2 0x51A0 JUMPI PUSH2 0x5177 PUSH2 0x28BC PUSH2 0x3F37 PUSH1 0x1 PUSH2 0xF34 PUSH2 0x4B98 DUP11 DUP10 PUSH2 0x2E56 JUMP JUMPDEST DUP5 LT ISZERO DUP1 PUSH2 0x5197 JUMPI JUMPDEST PUSH2 0x518E JUMPI SWAP4 PUSH1 0x1 ADD SWAP4 PUSH2 0x5157 JUMP JUMPDEST POP POP POP POP SWAP1 POP SWAP1 JUMP JUMPDEST POP DUP1 DUP5 LT PUSH2 0x5180 JUMP JUMPDEST POP SWAP4 SWAP2 POP POP PUSH2 0x51AF SWAP2 POP PUSH2 0x996 JUMP JUMPDEST DUP2 GT PUSH2 0x51FA JUMPI PUSH1 0x40 MLOAD PUSH3 0x461BCD PUSH1 0xE5 SHL DUP2 MSTORE PUSH1 0x20 PUSH1 0x4 DUP3 ADD MSTORE PUSH1 0x14 PUSH1 0x24 DUP3 ADD MSTORE PUSH32 0x4E4F5F56414C49445F5052495A455F464F554E44000000000000000000000000 PUSH1 0x44 DUP3 ADD MSTORE PUSH1 0x64 SWAP1 REVERT JUMPDEST PUSH2 0x209 SWAP1 PUSH2 0x2930 PUSH1 0x1 PUSH2 0x996 JUMP JUMPDEST ISZERO PUSH2 0x520F JUMPI JUMP JUMPDEST PUSH1 0x40 MLOAD PUSH3 0x461BCD PUSH1 0xE5 SHL DUP2 MSTORE PUSH1 0x20 PUSH1 0x4 DUP3 ADD MSTORE PUSH1 0x14 PUSH1 0x24 DUP3 ADD MSTORE PUSH32 0x4E4F5F52454D41494E494E475F5449434B455453000000000000000000000000 PUSH1 0x44 DUP3 ADD MSTORE PUSH1 0x64 SWAP1 REVERT JUMPDEST SWAP1 SWAP2 SWAP1 PUSH2 0x527C PUSH2 0x5266 PUSH1 0x1C DUP4 ADD PUSH2 0x9B4 JUMP JUMPDEST PUSH1 0x0 SWAP5 PUSH2 0x3040 PUSH2 0x5275 DUP8 PUSH2 0x996 JUMP JUMPDEST DUP4 GT PUSH2 0x5208 JUMP JUMPDEST SWAP2 PUSH1 0x1E PUSH2 0x5288 DUP6 PUSH2 0x996 JUMP JUMPDEST SWAP3 ADD SWAP3 PUSH2 0x5293 DUP5 SLOAD SWAP1 JUMP JUMPDEST SWAP4 DUP4 JUMPDEST DUP6 DUP2 LT ISZERO PUSH2 0x5358 JUMPI PUSH2 0x52AB PUSH2 0x4B98 DUP3 DUP5 PUSH2 0x2E56 JUMP JUMPDEST PUSH2 0x52B4 DUP9 PUSH2 0x996 JUMP JUMPDEST SWAP1 PUSH1 0x1 DUP2 ADD PUSH1 0x2 PUSH2 0x52C4 DUP3 PUSH2 0x9B4 JUMP JUMPDEST SWAP3 ADD SWAP2 PUSH2 0x52D6 PUSH2 0x28BC PUSH2 0x209 DUP6 PUSH2 0x9B4 JUMP JUMPDEST GT PUSH2 0x5340 JUMPI JUMPDEST POP POP PUSH2 0x52E7 DUP9 PUSH2 0x996 JUMP JUMPDEST DUP2 GT PUSH2 0x52FC JUMPI JUMPDEST POP PUSH1 0x1 ADD PUSH2 0x5296 JUMP JUMPDEST PUSH2 0x5296 JUMP JUMPDEST SWAP1 SWAP5 DUP1 DUP5 LT ISZERO DUP1 PUSH2 0x532B JUMPI JUMPDEST PUSH2 0x5320 JUMPI PUSH2 0x52F7 SWAP2 PUSH2 0x5319 SWAP2 PUSH2 0x2363 JUMP JUMPDEST SWAP5 SWAP1 PUSH2 0x52EE JUMP JUMPDEST POP POP POP POP SWAP3 POP SWAP1 POP SWAP1 JUMP JUMPDEST POP PUSH2 0x5339 PUSH2 0x209 DUP4 DUP4 PUSH2 0x2363 JUMP JUMPDEST DUP5 LT PUSH2 0x5308 JUMP JUMPDEST PUSH2 0x5351 SWAP3 POP PUSH2 0x4CBA PUSH2 0x2930 SWAP2 PUSH2 0x9B4 JUMP JUMPDEST CODESIZE DUP1 PUSH2 0x52DC JUMP JUMPDEST POP SWAP3 POP POP SWAP3 PUSH2 0x5366 SWAP1 PUSH2 0x996 JUMP JUMPDEST DUP3 DUP2 LT ISZERO PUSH2 0x53AC JUMPI PUSH2 0x537B PUSH2 0x4B98 DUP3 DUP5 PUSH2 0x2E56 JUMP JUMPDEST PUSH2 0x5399 PUSH2 0x28BC PUSH2 0x209 PUSH1 0x2 PUSH2 0x5392 PUSH1 0x1 DUP7 ADD PUSH2 0x9B4 JUMP JUMPDEST SWAP5 ADD PUSH2 0x9B4 JUMP JUMPDEST GT PUSH2 0x53A6 JUMPI PUSH1 0x1 ADD PUSH2 0x5366 JUMP JUMPDEST SWAP2 POP POP SWAP1 JUMP JUMPDEST PUSH1 0x40 MLOAD PUSH3 0x461BCD PUSH1 0xE5 SHL DUP2 MSTORE PUSH1 0x20 PUSH1 0x4 DUP3 ADD MSTORE PUSH1 0x1B PUSH1 0x24 DUP3 ADD MSTORE PUSH32 0x4E4F5F415641494C41424C455F5052495A45535F44594E414D49430000000000 PUSH1 0x44 DUP3 ADD MSTORE PUSH1 0x64 SWAP1 REVERT INVALID LOG2 PUSH5 0x6970667358 0x22 SLT KECCAK256 0xC3 GASPRICE ISZERO SLT GASLIMIT SWAP8 0xC3 0xE7 0xC9 SWAP3 MOD SWAP6 DUP7 PUSH10 0x348F00D381021C95FB25 0xCD EXP 0xAD LOG3 ORIGIN 0xA7 MLOAD MSTORE8 PUSH5 0x736F6C6343 STOP ADDMOD SHR STOP CALLER "},"methodIdentifiers":{"addAdmin(address)":"70480275","admins(address)":"429b62e5","batchDraw(uint256,uint256,uint256)":"e354c358","createRaffle(((string,string,string,string,(uint8,address,uint256,uint256,uint256,uint256,uint256,uint256,string,string,string,string,string,uint256[])),(uint256,uint256,bool,uint256),(bool,uint256,uint256),(string,string,int256),(uint8,address,uint256,uint256,uint256,uint256,uint256,uint256,string,string,string,string,string,uint256[])[]))":"1b43d038","draw(uint256,uint256)":"d2b8035a","getLotteryResult(uint256)":"8772d2dd","getRaffle(uint256)":"e4dafec9","getRaffleCoreInfo(uint256)":"cc7a2a04","getRaffleParticipants(uint256)":"a6e3295b","getUserParticipationDetails(uint256,address)":"90409bd5","isAdmin(address)":"24d7806c","lotteryResults(uint256)":"b08b3a51","owner()":"8da5cb5b","participants(uint256)":"35c1d349","participate(uint256,address)":"13b18640","participateAndDraw(uint256,address)":"7cafa47a","paused()":"5c975abb","playerParticipantIds(uint256,address,uint256)":"8d5a8e70","playerParticipationCount(uint256,address)":"fbb7c22d","processRefund(uint256,address,string)":"9d06f112","raffleParticipants(uint256,uint256)":"b1ddd82a","raffles(uint256)":"5d4bc0ce","removeAdmin(address)":"1785f53c","renounceOwnership()":"715018a6","setPaused(bool)":"16c38b3c","setRaffleActive(uint256,bool)":"3f35c93b","ticketToResultId(bytes32)":"09b50a07","transferOwnership(address)":"f2fde38b"}},"storageLayout":{"storage":[{"astId":188,"contract":"contracts/Raffles.sol:Raffles","label":"_status","offset":0,"slot":"0","type":"t_uint256"},{"astId":8,"contract":"contracts/Raffles.sol:Raffles","label":"_owner","offset":0,"slot":"1","type":"t_address"},{"astId":439,"contract":"contracts/Raffles.sol:Raffles","label":"raffles","offset":0,"slot":"2","type":"t_mapping(t_uint256,t_struct(Raffle)374_storage)"},{"astId":442,"contract":"contracts/Raffles.sol:Raffles","label":"_raffleIdCounter","offset":0,"slot":"3","type":"t_uint256"},{"astId":447,"contract":"contracts/Raffles.sol:Raffles","label":"participants","offset":0,"slot":"4","type":"t_mapping(t_uint256,t_struct(Participant)419_storage)"},{"astId":450,"contract":"contracts/Raffles.sol:Raffles","label":"_participantIdCounter","offset":0,"slot":"5","type":"t_uint256"},{"astId":455,"contract":"contracts/Raffles.sol:Raffles","label":"raffleParticipants","offset":0,"slot":"6","type":"t_mapping(t_uint256,t_array(t_uint256)dyn_storage)"},{"astId":461,"contract":"contracts/Raffles.sol:Raffles","label":"playerParticipationCount","offset":0,"slot":"7","type":"t_mapping(t_uint256,t_mapping(t_address,t_uint256))"},{"astId":468,"contract":"contracts/Raffles.sol:Raffles","label":"playerParticipantIds","offset":0,"slot":"8","type":"t_mapping(t_uint256,t_mapping(t_address,t_array(t_uint256)dyn_storage))"},{"astId":472,"contract":"contracts/Raffles.sol:Raffles","label":"ticketToResultId","offset":0,"slot":"9","type":"t_mapping(t_bytes32,t_uint256)"},{"astId":477,"contract":"contracts/Raffles.sol:Raffles","label":"lotteryResults","offset":0,"slot":"10","type":"t_mapping(t_uint256,t_struct(LotteryResult)434_storage)"},{"astId":480,"contract":"contracts/Raffles.sol:Raffles","label":"_lotteryResultIdCounter","offset":0,"slot":"11","type":"t_uint256"},{"astId":482,"contract":"contracts/Raffles.sol:Raffles","label":"paused","offset":0,"slot":"12","type":"t_bool"},{"astId":486,"contract":"contracts/Raffles.sol:Raffles","label":"admins","offset":0,"slot":"13","type":"t_mapping(t_address,t_bool)"}],"types":{"t_address":{"encoding":"inplace","label":"address","numberOfBytes":"20"},"t_array(t_struct(Prize)410_storage)dyn_storage":{"base":"t_struct(Prize)410_storage","encoding":"dynamic_array","label":"struct Raffles.Prize[]","numberOfBytes":"32"},"t_array(t_uint256)dyn_storage":{"base":"t_uint256","encoding":"dynamic_array","label":"uint256[]","numberOfBytes":"32"},"t_bool":{"encoding":"inplace","label":"bool","numberOfBytes":"1"},"t_bytes32":{"encoding":"inplace","label":"bytes32","numberOfBytes":"32"},"t_enum(PrizeType)379":{"encoding":"inplace","label":"enum Raffles.PrizeType","numberOfBytes":"1"},"t_int256":{"encoding":"inplace","label":"int256","numberOfBytes":"32"},"t_mapping(t_address,t_array(t_uint256)dyn_storage)":{"encoding":"mapping","key":"t_address","label":"mapping(address => uint256[])","numberOfBytes":"32","value":"t_array(t_uint256)dyn_storage"},"t_mapping(t_address,t_bool)":{"encoding":"mapping","key":"t_address","label":"mapping(address => bool)","numberOfBytes":"32","value":"t_bool"},"t_mapping(t_address,t_uint256)":{"encoding":"mapping","key":"t_address","label":"mapping(address => uint256)","numberOfBytes":"32","value":"t_uint256"},"t_mapping(t_bytes32,t_uint256)":{"encoding":"mapping","key":"t_bytes32","label":"mapping(bytes32 => uint256)","numberOfBytes":"32","value":"t_uint256"},"t_mapping(t_uint256,t_array(t_uint256)dyn_storage)":{"encoding":"mapping","key":"t_uint256","label":"mapping(uint256 => uint256[])","numberOfBytes":"32","value":"t_array(t_uint256)dyn_storage"},"t_mapping(t_uint256,t_mapping(t_address,t_array(t_uint256)dyn_storage))":{"encoding":"mapping","key":"t_uint256","label":"mapping(uint256 => mapping(address => uint256[]))","numberOfBytes":"32","value":"t_mapping(t_address,t_array(t_uint256)dyn_storage)"},"t_mapping(t_uint256,t_mapping(t_address,t_uint256))":{"encoding":"mapping","key":"t_uint256","label":"mapping(uint256 => mapping(address => uint256))","numberOfBytes":"32","value":"t_mapping(t_address,t_uint256)"},"t_mapping(t_uint256,t_struct(LotteryResult)434_storage)":{"encoding":"mapping","key":"t_uint256","label":"mapping(uint256 => struct Raffles.LotteryResult)","numberOfBytes":"32","value":"t_struct(LotteryResult)434_storage"},"t_mapping(t_uint256,t_struct(Participant)419_storage)":{"encoding":"mapping","key":"t_uint256","label":"mapping(uint256 => struct Raffles.Participant)","numberOfBytes":"32","value":"t_struct(Participant)419_storage"},"t_mapping(t_uint256,t_struct(Raffle)374_storage)":{"encoding":"mapping","key":"t_uint256","label":"mapping(uint256 => struct Raffles.Raffle)","numberOfBytes":"32","value":"t_struct(Raffle)374_storage"},"t_string_storage":{"encoding":"bytes","label":"string","numberOfBytes":"32"},"t_struct(LotteryResult)434_storage":{"encoding":"inplace","label":"struct Raffles.LotteryResult","members":[{"astId":421,"contract":"contracts/Raffles.sol:Raffles","label":"player","offset":0,"slot":"0","type":"t_address"},{"astId":423,"contract":"contracts/Raffles.sol:Raffles","label":"claimed","offset":20,"slot":"0","type":"t_bool"},{"astId":425,"contract":"contracts/Raffles.sol:Raffles","label":"lotteryTicketNumber","offset":0,"slot":"1","type":"t_bytes32"},{"astId":427,"contract":"contracts/Raffles.sol:Raffles","label":"raffleId","offset":0,"slot":"2","type":"t_uint256"},{"astId":429,"contract":"contracts/Raffles.sol:Raffles","label":"prizeIndex","offset":0,"slot":"3","type":"t_uint256"},{"astId":431,"contract":"contracts/Raffles.sol:Raffles","label":"drawnAt","offset":0,"slot":"4","type":"t_uint256"},{"astId":433,"contract":"contracts/Raffles.sol:Raffles","label":"claimedAt","offset":0,"slot":"5","type":"t_uint256"}],"numberOfBytes":"192"},"t_struct(Participant)419_storage":{"encoding":"inplace","label":"struct Raffles.Participant","members":[{"astId":412,"contract":"contracts/Raffles.sol:Raffles","label":"player","offset":0,"slot":"0","type":"t_address"},{"astId":414,"contract":"contracts/Raffles.sol:Raffles","label":"raffleId","offset":0,"slot":"1","type":"t_uint256"},{"astId":416,"contract":"contracts/Raffles.sol:Raffles","label":"lotteryTicketNumber","offset":0,"slot":"2","type":"t_bytes32"},{"astId":418,"contract":"contracts/Raffles.sol:Raffles","label":"participatedAt","offset":0,"slot":"3","type":"t_uint256"}],"numberOfBytes":"128"},"t_struct(Prize)410_storage":{"encoding":"inplace","label":"struct Raffles.Prize","members":[{"astId":382,"contract":"contracts/Raffles.sol:Raffles","label":"prizeType","offset":0,"slot":"0","type":"t_enum(PrizeType)379"},{"astId":384,"contract":"contracts/Raffles.sol:Raffles","label":"collectionAddress","offset":1,"slot":"0","type":"t_address"},{"astId":386,"contract":"contracts/Raffles.sol:Raffles","label":"registeredTicketQuantity","offset":0,"slot":"1","type":"t_uint256"},{"astId":388,"contract":"contracts/Raffles.sol:Raffles","label":"pickedTicketQuantity","offset":0,"slot":"2","type":"t_uint256"},{"astId":390,"contract":"contracts/Raffles.sol:Raffles","label":"order","offset":0,"slot":"3","type":"t_uint256"},{"astId":392,"contract":"contracts/Raffles.sol:Raffles","label":"rarity","offset":0,"slot":"4","type":"t_uint256"},{"astId":394,"contract":"contracts/Raffles.sol:Raffles","label":"prizeQuantity","offset":0,"slot":"5","type":"t_uint256"},{"astId":396,"contract":"contracts/Raffles.sol:Raffles","label":"startTicketNumber","offset":0,"slot":"6","type":"t_uint256"},{"astId":398,"contract":"contracts/Raffles.sol:Raffles","label":"title","offset":0,"slot":"7","type":"t_string_storage"},{"astId":400,"contract":"contracts/Raffles.sol:Raffles","label":"description","offset":0,"slot":"8","type":"t_string_storage"},{"astId":402,"contract":"contracts/Raffles.sol:Raffles","label":"imageUrl","offset":0,"slot":"9","type":"t_string_storage"},{"astId":404,"contract":"contracts/Raffles.sol:Raffles","label":"iconUrl","offset":0,"slot":"10","type":"t_string_storage"},{"astId":406,"contract":"contracts/Raffles.sol:Raffles","label":"assetId","offset":0,"slot":"11","type":"t_string_storage"},{"astId":409,"contract":"contracts/Raffles.sol:Raffles","label":"tokenIds","offset":0,"slot":"12","type":"t_array(t_uint256)dyn_storage"}],"numberOfBytes":"416"},"t_struct(Raffle)374_storage":{"encoding":"inplace","label":"struct Raffles.Raffle","members":[{"astId":357,"contract":"contracts/Raffles.sol:Raffles","label":"basicInfo","offset":0,"slot":"0","type":"t_struct(RaffleBasicInfo)266_storage"},{"astId":360,"contract":"contracts/Raffles.sol:Raffles","label":"timing","offset":0,"slot":"17","type":"t_struct(RaffleTiming)275_storage"},{"astId":363,"contract":"contracts/Raffles.sol:Raffles","label":"settings","offset":0,"slot":"21","type":"t_struct(RaffleSettings)282_storage"},{"astId":366,"contract":"contracts/Raffles.sol:Raffles","label":"fee","offset":0,"slot":"24","type":"t_struct(RaffleFee)289_storage"},{"astId":369,"contract":"contracts/Raffles.sol:Raffles","label":"status","offset":0,"slot":"27","type":"t_struct(RaffleStatus)315_storage"},{"astId":373,"contract":"contracts/Raffles.sol:Raffles","label":"prizes","offset":0,"slot":"30","type":"t_array(t_struct(Prize)410_storage)dyn_storage"}],"numberOfBytes":"992"},"t_struct(RaffleBasicInfo)266_storage":{"encoding":"inplace","label":"struct Raffles.RaffleBasicInfo","members":[{"astId":256,"contract":"contracts/Raffles.sol:Raffles","label":"title","offset":0,"slot":"0","type":"t_string_storage"},{"astId":258,"contract":"contracts/Raffles.sol:Raffles","label":"description","offset":0,"slot":"1","type":"t_string_storage"},{"astId":260,"contract":"contracts/Raffles.sol:Raffles","label":"imageUrl","offset":0,"slot":"2","type":"t_string_storage"},{"astId":262,"contract":"contracts/Raffles.sol:Raffles","label":"iconUrl","offset":0,"slot":"3","type":"t_string_storage"},{"astId":265,"contract":"contracts/Raffles.sol:Raffles","label":"bestPrize","offset":0,"slot":"4","type":"t_struct(Prize)410_storage"}],"numberOfBytes":"544"},"t_struct(RaffleFee)289_storage":{"encoding":"inplace","label":"struct Raffles.RaffleFee","members":[{"astId":284,"contract":"contracts/Raffles.sol:Raffles","label":"participationFeeAsset","offset":0,"slot":"0","type":"t_string_storage"},{"astId":286,"contract":"contracts/Raffles.sol:Raffles","label":"participationFeeAssetId","offset":0,"slot":"1","type":"t_string_storage"},{"astId":288,"contract":"contracts/Raffles.sol:Raffles","label":"participationFeeAmount","offset":0,"slot":"2","type":"t_int256"}],"numberOfBytes":"96"},"t_struct(RaffleSettings)282_storage":{"encoding":"inplace","label":"struct Raffles.RaffleSettings","members":[{"astId":277,"contract":"contracts/Raffles.sol:Raffles","label":"dynamicWeight","offset":0,"slot":"0","type":"t_bool"},{"astId":279,"contract":"contracts/Raffles.sol:Raffles","label":"participationLimit","offset":0,"slot":"1","type":"t_uint256"},{"astId":281,"contract":"contracts/Raffles.sol:Raffles","label":"participationLimitPerPlayer","offset":0,"slot":"2","type":"t_uint256"}],"numberOfBytes":"96"},"t_struct(RaffleStatus)315_storage":{"encoding":"inplace","label":"struct Raffles.RaffleStatus","members":[{"astId":308,"contract":"contracts/Raffles.sol:Raffles","label":"isActive","offset":0,"slot":"0","type":"t_bool"},{"astId":310,"contract":"contracts/Raffles.sol:Raffles","label":"isDrawn","offset":1,"slot":"0","type":"t_bool"},{"astId":312,"contract":"contracts/Raffles.sol:Raffles","label":"totalQuantity","offset":0,"slot":"1","type":"t_uint256"},{"astId":314,"contract":"contracts/Raffles.sol:Raffles","label":"drawnParticipantCount","offset":0,"slot":"2","type":"t_uint256"}],"numberOfBytes":"96"},"t_struct(RaffleTiming)275_storage":{"encoding":"inplace","label":"struct Raffles.RaffleTiming","members":[{"astId":268,"contract":"contracts/Raffles.sol:Raffles","label":"startDate","offset":0,"slot":"0","type":"t_uint256"},{"astId":270,"contract":"contracts/Raffles.sol:Raffles","label":"endDate","offset":0,"slot":"1","type":"t_uint256"},{"astId":272,"contract":"contracts/Raffles.sol:Raffles","label":"instantDraw","offset":0,"slot":"2","type":"t_bool"},{"astId":274,"contract":"contracts/Raffles.sol:Raffles","label":"drawDate","offset":0,"slot":"3","type":"t_uint256"}],"numberOfBytes":"128"},"t_uint256":{"encoding":"inplace","label":"uint256","numberOfBytes":"32"}}}}}}