{"contracts/Factory.sol":{"CollectionFactory":{"abi":[{"inputs":[],"name":"InvalidInitialization","type":"error"},{"inputs":[],"name":"NotInitializing","type":"error"},{"inputs":[{"internalType":"address","name":"owner","type":"address"}],"name":"OwnableInvalidOwner","type":"error"},{"inputs":[{"internalType":"address","name":"account","type":"address"}],"name":"OwnableUnauthorizedAccount","type":"error"},{"anonymous":false,"inputs":[{"indexed":true,"internalType":"address","name":"collectionAddress","type":"address"}],"name":"CollectionCreated","type":"event"},{"anonymous":false,"inputs":[{"indexed":true,"internalType":"address","name":"collectionAddress","type":"address"}],"name":"CollectionDeleted","type":"event"},{"anonymous":false,"inputs":[{"indexed":false,"internalType":"uint64","name":"version","type":"uint64"}],"name":"Initialized","type":"event"},{"anonymous":false,"inputs":[{"indexed":true,"internalType":"address","name":"previousOwner","type":"address"},{"indexed":true,"internalType":"address","name":"newOwner","type":"address"}],"name":"OwnershipTransferred","type":"event"},{"inputs":[{"internalType":"uint256","name":"","type":"uint256"}],"name":"collections","outputs":[{"internalType":"address","name":"","type":"address"}],"stateMutability":"view","type":"function"},{"inputs":[{"internalType":"string","name":"name","type":"string"},{"internalType":"string","name":"symbol","type":"string"},{"internalType":"uint256","name":"maxSupply","type":"uint256"},{"internalType":"uint256","name":"mintPrice","type":"uint256"},{"internalType":"string","name":"baseURI","type":"string"},{"internalType":"string","name":"contractURI_","type":"string"}],"name":"createCollection","outputs":[{"internalType":"address","name":"","type":"address"}],"stateMutability":"nonpayable","type":"function"},{"inputs":[{"internalType":"address","name":"collectionAddress","type":"address"}],"name":"deleteCollection","outputs":[],"stateMutability":"nonpayable","type":"function"},{"inputs":[],"name":"getCollections","outputs":[{"internalType":"address[]","name":"","type":"address[]"}],"stateMutability":"view","type":"function"},{"inputs":[{"internalType":"address","name":"initialOwner","type":"address"}],"name":"initialize","outputs":[],"stateMutability":"nonpayable","type":"function"},{"inputs":[],"name":"owner","outputs":[{"internalType":"address","name":"","type":"address"}],"stateMutability":"view","type":"function"},{"inputs":[],"name":"renounceOwnership","outputs":[],"stateMutability":"nonpayable","type":"function"},{"inputs":[{"internalType":"address","name":"newOwner","type":"address"}],"name":"transferOwnership","outputs":[],"stateMutability":"nonpayable","type":"function"}],"evm":{"bytecode":{"linkReferences":{},"object":"608060405234601957604051613bf761001f8239613bf790f35b600080fdfe6080604052600436101561001257600080fd5b60003560e01c806346e6358614610092578063715018a61461008d5780638da5cb5b14610088578063a6bb6cac14610083578063c4d66de81461007e578063d6a4448b14610079578063f2fde38b146100745763fdbda0ec0361009757610452565b6103a8565b610386565b6101f8565b6101e0565b610178565b610159565b61012e565b600080fd5b600091031261009757565b6001600160a01b031690565b90565b9052565b0190565b906100de6100d76100cd845190565b8084529260200190565b9260200190565b9060005b8181106100ef5750505090565b90919261011561010e60019286516001600160a01b0316815260200190565b9460200190565b9291016100e2565b60208082526100b3929101906100be565b346100975761013e36600461009c565b610155610149610515565b6040519182918261011d565b0390f35b346100975761016936600461009c565b610171610557565b604051005b565b346100975761018836600461009c565b61015561019361055f565b604051918291826001600160a01b03909116815260200190565b6001600160a01b0381165b0361009757565b90503590610176826101ad565b90602082820312610097576100b3916101bf565b34610097576101716101f33660046101cc565b6109e0565b346100975761017161020b3660046101cc565b610beb565b634e487b7160e01b600052604160045260246000fd5b90601f01601f191681019081106001600160401b0382111761024757604052565b610210565b9061017661025960405190565b9283610226565b6001600160401b03811161024757602090601f01601f19160190565b90826000939282370152565b9092919261029d61029882610260565b61024c565b93818552818301116100975761017691602085019061027c565b9080601f83011215610097578160206100b393359101610288565b806101b8565b90503590610176826102d2565b9160c0838303126100975782356001600160401b038111610097578261030c9185016102b7565b9260208101356001600160401b038111610097578361032c9183016102b7565b9261033a81604084016102d8565b9261034882606085016102d8565b9260808101356001600160401b03811161009757836103689183016102b7565b9260a08201356001600160401b038111610097576100b392016102b7565b346100975761015561019361039c3660046102e5565b94939093929192610e92565b34610097576101716103bb3660046101cc565b610efa565b90602082820312610097576100b3916102d8565b634e487b7160e01b600052603260045260246000fd5b805482101561040d57610404600191600052602060002090565b91020190600090565b6103d4565b6100b3916008021c6001600160a01b031690565b906100b39154610412565b6000805482101561044f576100b391610449916103ea565b90610426565b80fd5b34610097576101556101936104683660046103c0565b610431565b6100b3906100a7565b6100b3905461046d565b9061049b61048f6100cd845490565b92600052602060002090565b9060005b8181106104ac5750505090565b9091926104d96104d26001926104c187610476565b6001600160a01b0316815260200190565b9460010190565b92910161049f565b906100b391610480565b90610176610505926104fc60405190565b938480926104e1565b0383610226565b6100b3906104eb565b6100b3600061050c565b610527610f03565b610176610545565b6100a76100b36100b39290565b6100b39061052f565b610176610552600061053c565b610f66565b61017661051f565b6100b37f9016d09d72d40fdae2fd8ceac6b6234c7706214fd39c1cd1e609a0528c199300610476565b61017690610594610f03565b610869565b6100b3906100a7906001600160a01b031682565b6100b390610599565b6100b3906105ad565b906105c9906105b6565b600052602052604060002090565b6100b39081565b6100b390546105d7565b156105ef57565b60405162461bcd60e51b81526020600482015260096024820152681393d517d193d5539160ba1b6044820152606490fd5b6100b36100b36100b39290565b634e487b7160e01b600052601160045260246000fd5b9190820391821161065057565b61062d565b916001600160a01b0360089290920291821b911b610673565b921b90565b9181191691161790565b919061068e6100b3610696936105b6565b908354610655565b9055565b9060001990610673565b906106b46100b361069692610620565b825461069a565b634e487b7160e01b600052603160045260246000fd5b6101769160009161067d565b805480156107005760001901906106fd6106f783836103ea565b906106d1565b55565b6106bb565b9160001960089290920291821b911b610673565b919061072a6100b361069693610620565b908354610705565b61017691600091610719565b60005b8381106107515750506000910152565b8181015183820152602001610741565b9092919261077161029882610260565b93818552818301116100975761017691602085019061073e565b9080601f830112156100975781516100b392602001610761565b906020828203126100975781516001600160401b038111610097576100b3920161078b565b6040513d6000823e3d90fd5b6100ba6107ee926020926107e8815190565b94859290565b9384910161073e565b6108076100ba91602094936107d6565b918252565b61082161081860405190565b928392836107f7565b03902090565b6100b39161080c565b9190600861067391029161066e60ff841b90565b91906108556100b361069693151590565b908354610830565b61017691600091610844565b6002906108fa61088161087c83856105bf565b6105de565b6108f583600095836108bb61089a6104498a97886103ea565b6108b56001600160a01b0386165b916001600160a01b031690565b146105e8565b6108d66108c6865490565b6108d06001610620565b90610643565b908181036109a7575b50506108f06108eb8590565b6106dd565b6105bf565b610732565b61090b610906826105b6565b6105b6565b918061091660405190565b6306fdde0360e01b815293849060049082905afa9081156109a25761094b61090692610950958391610980575b506001610827565b61085d565b7f15db1813f994e3207e1b7cd688154dca03609984e865399cd2163d9eb3b0a63c61097a60405190565b600090a2565b61099c91503d8085833e6109948183610226565b8101906107a5565b38610943565b6107ca565b6109d46109ba6104496109d994896103ea565b6109ce816109c8858b6103ea565b9061067d565b846105bf565b6106a4565b38806108df565b61017690610588565b6100b39060401c5b60ff1690565b6100b390546109e9565b6100b3905b6001600160401b031690565b6100b39054610a01565b610a066100b36100b39290565b906001600160401b0390610673565b610a066100b36100b3926001600160401b031690565b90610a5e6100b361069692610a38565b8254610a29565b9068ff00000000000000009060401b610673565b90610a896100b361069692151590565b8254610a65565b6100b690610a1c565b6020810192916101769190610a90565b610ab1610fd7565b9081610acc610ac6610ac2836109f7565b1590565b91610a12565b90600092610ad984610a1c565b6001600160401b0384161480610bd7575b600193610b06610af986610a1c565b916001600160401b031690565b149081610baf575b155b9081610ba6575b50610b9757610b409082610b3786610b2e87610a1c565b98019788610a4e565b610b8857610bde565b610b4957505050565b610b77610b83927fc7f505b2f371ae2175ee4913f4499e1f2633a7b5936321eed1cdaeb6115181d294610a79565b60405191829182610a99565b0390a1565b610b928487610a79565b610bde565b63f92ee8a960e01b8452600484fd5b15905038610b17565b9050610b10610bbd306105b6565b3b610bce610bca88610620565b9190565b14919050610b0e565b5081610aea565b6101769061055281610ff4565b61017690610aa9565b906100b3969594939291610c06610f03565b610d4b565b6100b3906109f1565b6100b39054610c0b565b15610c2557565b60405162461bcd60e51b815260206004820152600a6024820152692720a6a2afaa20a5a2a760b11b6044820152606490fd5b610c78610c816020936100ba93610c6c815190565b80835293849260200190565b9586910161073e565b601f01601f191690565b959194610ce1610cf595610cda610cc86100b39b99610cba8c610ce89860e08201916000818403910152610c57565b8c810360208e015290610c57565b6001600160a01b0390971660408b0152565b6060890152565b6080870152565b84820360a0860152610c57565b9160c0818403910152610c57565b908154916801000000000000000083101561024757826109c8916001610176950181556103ea565b9060ff90610673565b90610d446100b361069692151590565b8254610d2b565b9591929093949550600192610d73610d6e610ac2610d698888610827565b610c14565b610c1e565b604051612b4881018181106001600160401b0382111761024757610d9d8291612b4861107a843990565b03906000f080156109a257610db1906105b6565b96873b1561009757600093610de491610dc960405190565b98899586956302ded6ed60e31b875233908b60048901610c8b565b038183885af19182156109a25781610e18610e1d92610e3a96610e2f96610e74575b50610e12886000610d03565b82610827565b610d34565b6108d0610e2960005490565b91610620565b6109d48360026105bf565b610e43816105b6565b7f75432e2e509efcaf947efcc7a5a6b6b3562425b29e9725c7a4a5c652291ac35d610e6d60405190565b600090a290565b610e8c906000610e848183610226565b81019061009c565b38610e06565b6100b39594939291906000610bf4565b61017690610eae610f03565b6000610eb98161053c565b6001600160a01b0381166001600160a01b03841614610edd57505061017690610f66565b631e4fbdf760e01b82526001600160a01b03166004820152602490fd5b61017690610ea2565b610f0b61055f565b3390610f16826108a8565b03610f1e5750565b63118cdaa760e01b60009081526001600160a01b039091166004526024036000fd5b906001600160a01b0390610673565b90610f5f6100b3610696926105b6565b8254610f40565b610fa6610fa07f9016d09d72d40fdae2fd8ceac6b6234c7706214fd39c1cd1e609a0528c19930061090684610f9a83610476565b92610f4f565b916105b6565b907f8be0079c531659141344cd1fd0a4f28419497f9722a3daafe3b4186f6b6457e0610fd160405190565b600090a3565b6100b3611026565b61017690610feb61102e565b6101769061105d565b61017690610fdf565b6100b37ff0c57e16840df040f15088dc2f81fe391c3923bec73e23a9662efc9c229c6a00610620565b6100b3610ffd565b611039610ac2611066565b61103f57565b631afcd79f60e31b6000908152600490fd5b61017690610eae61102e565b61017690611051565b6100b36000611073610fd7565b016109f756fe608060405234601957604051612b2961001f8239612b2990f35b600080fdfe6080604052600436101561001257600080fd5b60003560e01c806301ffc9a71461020257806306fdde03146101fd578063081812fc146101f8578063095ea7b3146101f357806316f6b768146101ee57806318160ddd146101e95780631b2ef1ca146101e457806323b872dd146101df5780633f4ba83a146101da57806342842e0e146101d55780634ea3871a146101d057806355f804b3146101cb5780635c975abb146101c65780636352211e146101c15780636817c76c146101bc57806370a08231146101b7578063715018a6146101b25780638456cb59146101ad5780638da5cb5b146101a8578063938e3d7b146101a357806395d89b411461019e5780639fd6db1214610199578063a22cb46514610194578063b80f55c91461018f578063b88d4fde1461018a578063c87b56dd14610185578063d5abeb0114610180578063e8a3d4851461017b578063e985e9c514610176578063f2fde38b146101715763f4a0a5280361020757610a23565b610a0b565b6109ef565b6109b1565b610996565b61096f565b610958565b6108f1565b610834565b6107f6565b6107b5565b61079d565b610782565b61076a565b610752565b610737565b610708565b6106cb565b6106b0565b610698565b61065b565b61061e565b610606565b6105f2565b6105b0565b610569565b61054a565b6103c0565b61034c565b6102f2565b610249565b600080fd5b6001600160e01b031981165b0361020757565b9050359061022c8261020c565b565b90602082820312610207576102429161021f565b90565b9052565b346102075761027761026461025f36600461022e565b610a5b565b6040515b91829182901515815260200190565b0390f35b600091031261020757565b60005b8381106102995750506000910152565b8181015183820152602001610289565b6102ca6102d36020936102dd936102be815190565b80835293849260200190565b95869101610286565b601f01601f191690565b0190565b6020808252610242929101906102a9565b346102075761030236600461027b565b61027761030d610bc3565b604051918291826102e1565b80610218565b9050359061022c82610319565b90602082820312610207576102429161031f565b6001600160a01b031690565b346102075761027761036761036236600461032c565b610c03565b604051918291826001600160a01b03909116815260200190565b6001600160a01b038116610218565b9050359061022c82610381565b9190604083820312610207576102429060206103b98286610390565b940161031f565b6103d46103ce36600461039d565b90610c58565b604051005b634e487b7160e01b600052604160045260246000fd5b90601f01601f191681019081106001600160401b0382111761041057604052565b6103d9565b9061022c61042260405190565b92836103ef565b6001600160401b03811161041057602090601f01601f19160190565b90826000939282370152565b9092919261046661046182610429565b610415565b93818552818301116102075761022c916020850190610445565b9080601f830112156102075781602061024293359101610451565b9060e0828203126102075781356001600160401b03811161020757816104c2918401610480565b9260208301356001600160401b03811161020757826104e2918501610480565b926104f08360408301610390565b926104fe816060840161031f565b9261050c826080850161031f565b9260a08101356001600160401b038111610207578361052c918301610480565b9260c08201356001600160401b038111610207576102429201610480565b34610207576103d461055d36600461049b565b959490949391936110b7565b346102075761057936600461027b565b6102776105846110d7565b6040519182918290815260200190565b9190604083820312610207576102429060206103b9828661031f565b34610207576103d46105c3366004610594565b90611401565b9091606082840312610207576102426105e28484610390565b9360406103b98260208701610390565b6103d46106003660046105c9565b91611451565b346102075761061636600461027b565b6103d46116d6565b6103d461062c3660046105c9565b91611702565b801515610218565b9050359061022c82610632565b90602082820312610207576102429161063a565b34610207576103d461066e366004610647565b611752565b906020828203126102075781356001600160401b038111610207576102429201610480565b34610207576103d46106ab366004610673565b6117f7565b34610207576106c036600461027b565b610277610264611800565b34610207576102776103676106e136600461032c565b611829565b610242916008021c81565b9061024291546106e6565b610242600060036106f1565b346102075761071836600461027b565b6102776105846106fc565b906020828203126102075761024291610390565b346102075761027761058461074d366004610723565b61185f565b346102075761076236600461027b565b6103d46118d0565b346102075761077a36600461027b565b6103d46118eb565b346102075761079236600461027b565b6102776103676118f3565b34610207576103d46107b0366004610673565b611963565b34610207576107c536600461027b565b61027761030d61196c565b610242916008021c5b60ff1690565b9061024291546107d0565b610242600060046107df565b346102075761080636600461027b565b6102776102646107ea565b91906040838203126102075761024290602061082d8286610390565b940161063a565b34610207576103d4610847366004610811565b90611985565b6001600160401b0381116104105760208091020190565b909291926108746104618261084d565b938185526020808601920283019281841161020757915b8383106108985750505050565b602080916108a6848661031f565b81520192019161088b565b9080601f830112156102075781602061024293359101610864565b906020828203126102075781356001600160401b0381116102075761024292016108b1565b34610207576103d46109043660046108cc565b611b97565b906080828203126102075761091e8183610390565b9261092c8260208501610390565b9261093a836040830161031f565b9260608201356001600160401b038111610207576102429201610480565b6103d4610966366004610909565b92919091611ba0565b346102075761027761030d61098536600461032c565b611c05565b610242600060026106f1565b34610207576109a636600461027b565b61027761058461098a565b34610207576109c136600461027b565b61027761030d611c7f565b9190604083820312610207576102429060206109e88286610390565b9401610390565b3461020757610277610264610a053660046109cc565b90611c89565b34610207576103d4610a1e366004610723565b611d10565b34610207576103d4610a3636600461032c565b611d55565b610a4e610a486102429290565b60e01b90565b6001600160e01b03191690565b610a686301ffc9a7610a3b565b6001600160e01b0319821614908115610aaa575b8115610a86575090565b9050610aa6610a98635b5e139f610a3b565b916001600160e01b03191690565b1490565b9050610ab96380ac58cd610a3b565b6001600160e01b031982161490610a7c565b634e487b7160e01b600052602260045260246000fd5b9060016002830492168015610b01575b6020831014610afc57565b610acb565b91607f1691610af1565b80546000939291610b28610b1e83610ae1565b8085529360200190565b9160018116908115610b7a5750600114610b4157505050565b610b549192939450600052602060002090565b916000925b818410610b665750500190565b805484840152602090930192600101610b59565b92949550505060ff1916825215156020020190565b9061024291610b0b565b9061022c610bb392610baa60405190565b93848092610b8f565b03836103ef565b61024290610b99565b6102426002600080516020612ad48339815191525b01610bba565b6102426102426102429290565b90610bf590610bde565b600052602052604060002090565b610c13610c0f82611d5e565b1590565b610c4b576000610c3d610242926006610c37600080516020612ad483398151915290565b01610beb565b01546001600160a01b031690565b6333d1c03960e21b611d87565b61022c91600191611db6565b6102429060401c6107d9565b6102429054610c64565b610242905b6001600160401b031690565b6102429054610c7a565b610c7f6102426102429290565b61024290610340906001600160a01b031682565b61024290610ca2565b61024290610cb6565b906001600160401b03905b9181191691161790565b610c7f610242610242926001600160401b031690565b90610d03610242610d0a92610cdd565b8254610cc8565b9055565b9068ff00000000000000009060401b610cd3565b90610d32610242610d0a92151590565b8254610d0e565b61024590610c95565b60208101929161022c9190610d39565b9695909394929192610d62611e6e565b958693610d7a610d74610c0f87610c70565b95610c8b565b95600097610d8789610c95565b6001600160401b0389161480610e8a575b600198610db4610da78b610c95565b916001600160401b031690565b149081610e62575b155b9081610e59575b50610e4a5788999a9b87610dea8a9b610de1610df39b9c610c95565b9e019d8e610cf3565b610e3b57611053565b610dfc57505050565b610e2a610e36927fc7f505b2f371ae2175ee4913f4499e1f2633a7b5936321eed1cdaeb6115181d294610d22565b60405191829182610d42565b0390a1565b610e458a8d610d22565b611053565b63f92ee8a960e01b8952600489fd5b15905038610dc5565b9050610dbe610e7030610cbf565b3b610e81610e7d8d610bde565b9190565b14919050610dbc565b5086610d98565b9060001990610cd3565b90610eab610242610d0a92610bde565b8254610e91565b9160001960089290920291821b911b610cd3565b9190610ed7610242610d0a93610bde565b908354610eb2565b61022c91600091610ec6565b818110610ef6575050565b80610f046000600193610edf565b01610eeb565b9190601f8111610f1957505050565b610f2b61022c93600052602060002090565b906020601f840181900483019310610f4d575b6020601f909101040190610eeb565b9091508190610f3e565b90610f60815190565b906001600160401b03821161041057610f8382610f7d8554610ae1565b85610f0a565b602090601f8311600114610fbe57610d0a929160009183610fb3575b5050600019600883021c1916906002021790565b015190503880610f9f565b601f19831691610fd385600052602060002090565b9260005b81811061101157509160029391856001969410610ff8575b50505002019055565b01516000196008601f8516021c19169055388080610fef565b91936020600181928787015181550195019201610fd7565b9061022c91610f57565b9060ff90610cd3565b9061104c610242610d0a92151590565b8254611033565b6110ab96959361108f61109d946110716110a4989561109695611f39565b61107a81611f58565b611082611f69565b61108a611f84565b611f8c565b6002610e9b565b6003610e9b565b6000611029565b6001611029565b61022c6001600461103c565b9061022c969594939291610d52565b6102429081565b61024290546110c6565b600080516020612ad48339815191529061110f6111076110f6846110cd565b611102600186016110cd565b900390565b611102612006565b809261111a60001990565b600101611125575050565b61024292935060086102dd91016110cd565b9061022c91611144612010565b9061022c9161115161204d565b906111639161115e612077565b6112c3565b61022c6120d5565b610242906107d9565b610242905461116b565b1561118557565b60405162461bcd60e51b815260206004820152601060248201526f1352539517d393d517d153905093115160821b6044820152606490fd5b634e487b7160e01b600052601160045260246000fd5b919082018092116111e057565b6111bd565b156111ec57565b60405162461bcd60e51b815260206004820152600c60248201526b13505617d15610d15151115160a21b6044820152606490fd5b1561122757565b60405162461bcd60e51b815260206004820152601060248201526f494e56414c49445f5155414e5449545960801b6044820152606490fd5b1561126657565b60405162461bcd60e51b815260206004820152600f60248201526e494e56414c49445f4741535f46454560881b6044820152606490fd5b818102929181159184041417156111e057565b90815260408101929161022c9160200152565b9190611342906112db6112d66004611174565b61117e565b6113066112ef856112ea61210a565b6111d3565b6112ff610e7d61024260026110cd565b11156111e5565b61131a6113136000610bde565b8511611220565b61132f6113276000610bde565b82101561125f565b61133c633b9aca00610bde565b9061129d565b9061134b612126565b92611356813361215d565b6113606000610bde565b818110156113b7578061137e6113796113b293886111d3565b610bde565b7ff00d28232b285f24f2e38415deb2ceb31069e70d4505838b3911b4f02058502e6113a860405190565b600090a260010190565b611360565b50917f59f9fb6d992d2aee0ed338bb4c504a17fd3f67ae91a3135bc2ef947e308c41b29193506113e633610cbf565b926113fc6113f360405190565b928392836112b0565b0390a2565b9061022c91611137565b6102429081906001600160a01b031681565b6102426001600160a01b03610bde565b6103406102426102429290565b90610bf590610cbf565b610242600160e11b610bde565b91909161146e611469611463846122ed565b92610cb6565b61140b565b9161148a61148561147d61141d565b80951661142d565b610cb6565b936114976114858461142d565b6114b26001600160a01b0387165b916001600160a01b031690565b036116b75784926114c2836123ed565b336001600160a01b03871681148282141715611688575b50610e7d9594936115fa97936115ce936114699361167e575b50600080516020612ad483398151915290611568611556847f2569078dfb4b0305704d3008e7403993ae9601b85f7ae5e742de3de8f8011c456115516115388d8361143a565b61154b611544826110cd565b6000190190565b90610e9b565b61143a565b61154b611562826110cd565b60010190565b61159461157e8285611578611444565b9b612460565b4260a01b908a17176001600160a01b0385161790565b6115ab60048401916115a68a84610beb565b610e9b565b6000986115c06115ba8b610bde565b91841690565b1461160e575b505050610cb6565b1680957fddf252ad1be2c89b69c2b068fc378daa952ba7f163c4a11628f55a4df523b3ef8480a4610bde565b1461160157565b633a954ecd60e21b611d87565b8861162161161c6001610bde565b8a0190565b9361163461162f8685610beb565b6110cd565b611640610e7d84610bde565b1461164d575b50506115c6565b61165b9161024291016110cd565b8303611669575b8881611646565b611676926115a691610beb565b388080611662565b60009055386114f2565b610c0f9061169a929894969597611c89565b6116aa57869492939195386114d9565b632ce44b5f60e11b611d87565b62a1148160e81b611d87565b6116cb612010565b61022c61022c612502565b61022c6116c3565b906116eb61046183610429565b918252565b61024260006116de565b6102426116f0565b909161022c926117106116fa565b92611ba0565b61022c90611722612010565b610e367fb6c727d83bace6eef762275cc927295dcd906c8041f03f05cf07685323bfb6da9161026481600461103c565b61022c90611716565b61022c90611767612010565b6117b2565b6102dd6117849260209261177e815190565b94859290565b93849101610286565b6102429161176c565b6117ac906117a360405190565b9182918261178d565b03902090565b6117c6906117c1816000611029565b611796565b7f6741b2fc379fad678116fe3d4d4b9a1a184ab53ba36b86ad0fa66340b1ab41ad6117f060405190565b80806113fc565b61022c9061175b565b6102427fcd5ed15c6e187e77e9aee88184c21f4f2182ab5827cb3b7e07fbedcd63f03300611174565b6114856118416102429261183b600090565b506122ed565b61142d565b6102429061142d565b6102426001600160401b03610bde565b61186c6103406000611846565b6001600160a01b038216146118ab5761162f61189f916005611899600080516020612ad483398151915290565b0161143a565b6118a761184f565b1690565b6323d3ad8160e21b611d87565b6118c0612010565b61022c61022c61108a6000611846565b61022c6118b8565b6118e0612010565b61022c61022c61256c565b61022c6118d8565b61024260007f9016d09d72d40fdae2fd8ceac6b6234c7706214fd39c1cd1e609a0528c199300610c3d565b61022c9061192a612010565b611939906117c1816001611029565b7f905d981207a7d0b6c62cc46ab0be2a076d0298e4a86d0ab79882dbd01ac373786117f060405190565b61022c9061191e565b6102426003600080516020612ad4833981519152610bd8565b7f17307eab39ab6107e8899845ad3d59bd9653f200f220920489ca2b5937696c316119fc6119f26119ec336119e7876119e288611551857f2569078dfb4b0305704d3008e7403993ae9601b85f7ae5e742de3de8f8011c4761143a565b61103c565b610cbf565b93610cbf565b9361026860405190565b0390a3565b61022c90611a0d612010565b61022c90611a1961204d565b61116390611a25612077565b611add565b634e487b7160e01b600052603260045260246000fd5b90611a49825190565b811015611a5a576020809102010190565b611a2a565b15611a6657565b60405162461bcd60e51b81526020600482015260146024820152731513d2d15397d113d154d7d393d517d1561254d560621b6044820152606490fd5b15611aa957565b60405162461bcd60e51b815260206004820152600c60248201526b1393d517d054141493d5915160a21b6044820152606490fd5b90611ae86000610bde565b611af3610242845190565b811015611b925780611b1f611b1a611b15611b11611b8d9588611a40565b5190565b611d5e565b611a5f565b611b3e611b39611b32611b118488611a40565b3390612574565b611aa2565b611b53611b4e611b118387611a40565b6125db565b611b63611379611b118387611a40565b7f0c526103b8f47af5516191d0c89a598755bd00faa211a3cb52e4c2cc782f7fe26113a860405190565b611ae8565b509050565b61022c90611a01565b91929092611baf818585611451565b833b611bbe610e7d6000610bde565b03611bca575b50505050565b611bd793610c0f9361266a565b611be45738808080611bc4565b6368d2bf6b60e11b611d87565b611bff90610242939261176c565b9061176c565b611c11610c0f82611d5e565b611c7257611c1d612729565b8051611c2c610e7d6000610bde565b14611c6857610242611c5c91611c4461024294612733565b90611c4e60405190565b938492602084019283611bf1565b908103825203826103ef565b50506102426116fa565b630a14c4b560e41b611d87565b6102426001610bba565b61024291611551611cb392611c9c600090565b506007600080516020612ad4833981519152611899565b611174565b61022c90611cc4612010565b6000611ccf81611846565b6001600160a01b0381166001600160a01b03841614611cf357505061022c90611f8c565b631e4fbdf760e01b82526001600160a01b03166004820152602490fd5b61022c90611cb8565b61022c90611d25612010565b610e367f525b762709cc2a983aec5ccdfd807a061f993c91090b5bcd7da92ca254976aaa91610584816003610e9b565b61022c90611d19565b611d66612006565b8110159081611d73575090565b9050611d83610e7d610242612126565b1090565b60005260046000fd5b906001600160a01b0390610cd3565b90611daf610242610d0a92610cbf565b8254611d90565b91611dc082611829565b9080611e53575b611e34575b611dfd6119ec611e03926119e7866000611df7886006610c37600080516020612ad483398151915290565b01611d9f565b91610bde565b917f8c5be1e5ebec7d5bd14f71427d1e84f3dd0314c0f7b2291e5b200ac8c7c3b925611e2e60405190565b600090a4565b611e41610c0f3383611c89565b15611dcc576367d9dca160e11b611d87565b5033611e676001600160a01b0383166114a5565b1415611dc7565b6102426127a1565b6102429060081c6107d9565b6102429054611e76565b15611e9357565b60405162461bcd60e51b815260206004820152603460248201527f455243373231415f5f496e697469616c697a61626c653a20636f6e7472616374604482015273206973206e6f7420696e697469616c697a696e6760601b6064820152608490fd5b61022c9190611f2f611f2a60007fee151c8401928dc223602bb187aff91b9a56c7cae5476ef1b3287b085a16c85f5b01611e82565b611e8c565b9061022c91612843565b9061022c91611ef5565b61022c90611f4f61284d565b61022c9061287c565b61022c90611f43565b61022c61284d565b61022c611f61565b611f7961284d565b61022c61022c61288d565b61022c611f71565b611fd4611fce7f9016d09d72d40fdae2fd8ceac6b6234c7706214fd39c1cd1e609a0528c1993006119e784611fc883546001600160a01b031690565b92611d9f565b91610cbf565b907f8be0079c531659141344cd1fd0a4f28419497f9722a3daafe3b4186f6b6457e0611fff60405190565b80806119fc565b6102426000610bde565b6120186118f3565b3390612023826114a5565b0361202b5750565b63118cdaa760e01b60009081526001600160a01b039091166004526024036000fd5b612055611800565b61205b57565b63d93c066560e01b6000908152600490fd5b6102426002610bde565b7f9b779b17422d0df92223018b32b4d1fa46e071723d6817e2486d003becc55f006120a1816110cd565b6120a961206d565b9081146120b95761022c91610e9b565b633ee5aeb560e01b6000908152600490fd5b6102426001610bde565b61022c7f9b779b17422d0df92223018b32b4d1fa46e071723d6817e2486d003becc55f0060006121036120cb565b9101610e9b565b600080516020612ad48339815191529061110f611107836110cd565b610242600080516020612ad48339815191526110cd565b6102426040610bde565b61024290612158610e7d6102429490565b901b90565b909190600080516020612ad483398151915290612179826110cd565b9160009161218683610bde565b86146122d35780866121e36121d66121a461220d9a60011460e11b90565b6121c16121b089611846565b6121b98a610bde565b978891612460565b4260a01b9117176001600160a01b0385161790565b6115a68860048801610beb565b61222d6114696001936114856122136121fa61213d565b6122046001610bde565b9d8e9182612147565b17860290565b61154b6122238460058c0161143a565b916102dd836110cd565b61223561141d565b169283146122c75761224a9086019597860390565b612255600019610e7d565b116122ba576001815b612272575b50505061022c93945001610e9b565b156122a8575b83908783867fddf252ad1be2c89b69c2b068fc378daa952ba7f163c4a11628f55a4df523b3ef8180a4908161225e565b95600101958487036122785780612263565b6340b23f1d60e11b611d87565b622e076360e81b611d87565b63b562e8dd60e01b611d87565b610242600160e01b610bde565b6122f5612006565b81101561230a575b636f96cda160e11b611d87565b600080516020612ad48339815191527f2569078dfb4b0305704d3008e7403993ae9601b85f7ae5e742de3de8f8011c4461234761162f8483610beb565b9260009261235484610bde565b851461237f5750505061237761237161236b6122e0565b92610bde565b91831690565b036122fd5790565b83612392929394955061024291016110cd565b8110156122fd57909190600019015b916123af61162f8483610beb565b926123b983610bde565b84146123e15750506123cf61237161236b6122e0565b1461024257636f96cda160e11b611d87565b909250600019016123a1565b610242612413916123fc600090565b506006600080516020612ad4833981519152610c37565b90815490565b61024260e8610bde565b61024290612434610e7d6102429490565b901c90565b6124466102426102429290565b62ffffff1690565b6102426102426102429262ffffff1690565b61249561249a916102429493612474600090565b5061248f61248a612483612419565b8097612423565b612439565b91612895565b61244e565b612147565b6124a76128a0565b61022c6124d86000807fcd5ed15c6e187e77e9aee88184c21f4f2182ab5827cb3b7e07fbedcd63f033005b0161103c565b7f5db9ee0a495bf2e6ff9c91a7834c1ba4fdd244a5e8aa4e537bd38aeae4b073aa610e3633610367565b61022c61249f565b61251261204d565b61022c612542600160007fcd5ed15c6e187e77e9aee88184c21f4f2182ab5827cb3b7e07fbedcd63f033006124d2565b7f62e78cea01bee320cd4e420270b5ea74000d11b0c9f74754ebdbfc544b05a258610e3633610367565b61022c61250a565b9061257e82611829565b916001600160a01b0382166001600160a01b038416149283156125c7575b5082156125a857505090565b610aa69192506125ba6114a591610c03565b926001600160a01b031690565b6125d49193508290611c89565b913861259c565b600061022c916128cd565b9050519061022c8261020c565b9060208282031261020757610242916125e6565b6001600160a01b039182168152911660208201526040810191909152608060608201819052610242929101906102a9565b610a4e610a486102429263ffffffff1690565b3d156126655761265a3d6116de565b903d6000602084013e565b606090565b916126826119e760209361267c600090565b50610cbf565b63150b7a02936000336126b361269760405190565b988996879586946126a88c60e01b90565b865260048601612607565b03925af1600092816126f8575b506126e9576126cd61264b565b80516126dc610e7d6000610bde565b14611be457805190602001fd5b610a98610a4e610aa692612638565b61271b91935060203d602011612722575b61271381836103ef565b8101906125f3565b91386126c0565b503d612709565b6102426000610bba565b90602060a06040510180604052039160008352600a60018492945b039381810660300185530492831561276a576001600a9161274e565b809350602091039203918252565b6102427ff0c57e16840df040f15088dc2f81fe391c3923bec73e23a9662efc9c229c6a00610bde565b610242612778565b61022c91906127dc611f2a60007fee151c8401928dc223602bb187aff91b9a56c7cae5476ef1b3287b085a16c85f611f24565b612822906128116000936128086127fe600080516020612ad483398151915290565b9360028501611029565b60038301611029565b612819612006565b92839101610e9b565b61282f610e7d6000199290565b1061283657565b63fed8210f60e01b611d87565b9061022c916127a9565b612858610c0f612ac0565b61285e57565b631afcd79f60e31b6000908152600490fd5b61022c90611cc461284d565b61022c90612870565b61116361284d565b61022c612885565b505050610242600090565b6128ab610c0f611800565b6128b157565b638dfc202b60e01b6000908152600490fd5b6102426080610bde565b6128d6816122ed565b916128e36114858461142d565b906128ed836123ed565b9091612a83575b926129ec611dfd6119ec61292d9561022c9895600198612a79575b5061293161291b6128c3565b6129248a610bde565b98899182612147565b0390565b600080516020612ad483398151915297906129739061154b612223857f2569078dfb4b0305704d3008e7403993ae9601b85f7ae5e742de3de8f8011c4561143a565b61297b6122e0565b96612984611444565b809817976000926129b861299785611846565b9a6129a3858d89612460565b4260a01b9117176001600160a01b0387161790565b916129cb60048d01936115a68c86610beb565b6129dd6129d786610bde565b91851690565b14612a28575b50505050610cbf565b917fddf252ad1be2c89b69c2b068fc378daa952ba7f163c4a11628f55a4df523b3ef612a1760405190565b600090a40161154b611562826110cd565b880192612a3861162f8584610beb565b612a44610e7d83610bde565b036129e357610242612a57918c016110cd565b8303612a64575b806129e3565b612a71926115a691610beb565b388080612a5e565b600090553861290f565b336001600160a01b03841681148282141715612aa0575b506128f4565b610c0f612ab291859794969395611c89565b6116aa579290939138612a9a565b6102426000612acd611e6e565b01610c7056fe2569078dfb4b0305704d3008e7403993ae9601b85f7ae5e742de3de8f8011c40a264697066735822122037f0b54008428a0b70a3614a083fa708e9b64735a8d49dfcc89aec146a35418f64736f6c634300081c0033a26469706673582212206a0408f7ac9abdfc55c35fd02c24c30c54a5fd29c602f3c0dbd0a169359fd16964736f6c634300081c0033","opcodes":"PUSH1 0x80 PUSH1 0x40 MSTORE CALLVALUE PUSH1 0x19 JUMPI PUSH1 0x40 MLOAD PUSH2 0x3BF7 PUSH2 0x1F DUP3 CODECOPY PUSH2 0x3BF7 SWAP1 RETURN JUMPDEST PUSH1 0x0 DUP1 REVERT INVALID PUSH1 0x80 PUSH1 0x40 MSTORE PUSH1 0x4 CALLDATASIZE LT ISZERO PUSH2 0x12 JUMPI PUSH1 0x0 DUP1 REVERT JUMPDEST PUSH1 0x0 CALLDATALOAD PUSH1 0xE0 SHR DUP1 PUSH4 0x46E63586 EQ PUSH2 0x92 JUMPI DUP1 PUSH4 0x715018A6 EQ PUSH2 0x8D JUMPI DUP1 PUSH4 0x8DA5CB5B EQ PUSH2 0x88 JUMPI DUP1 PUSH4 0xA6BB6CAC EQ PUSH2 0x83 JUMPI DUP1 PUSH4 0xC4D66DE8 EQ PUSH2 0x7E JUMPI DUP1 PUSH4 0xD6A4448B EQ PUSH2 0x79 JUMPI DUP1 PUSH4 0xF2FDE38B EQ PUSH2 0x74 JUMPI PUSH4 0xFDBDA0EC SUB PUSH2 0x97 JUMPI PUSH2 0x452 JUMP JUMPDEST PUSH2 0x3A8 JUMP JUMPDEST PUSH2 0x386 JUMP JUMPDEST PUSH2 0x1F8 JUMP JUMPDEST PUSH2 0x1E0 JUMP JUMPDEST PUSH2 0x178 JUMP JUMPDEST PUSH2 0x159 JUMP JUMPDEST PUSH2 0x12E JUMP JUMPDEST PUSH1 0x0 DUP1 REVERT JUMPDEST PUSH1 0x0 SWAP2 SUB SLT PUSH2 0x97 JUMPI JUMP JUMPDEST PUSH1 0x1 PUSH1 0x1 PUSH1 0xA0 SHL SUB AND SWAP1 JUMP JUMPDEST SWAP1 JUMP JUMPDEST SWAP1 MSTORE JUMP JUMPDEST ADD SWAP1 JUMP JUMPDEST SWAP1 PUSH2 0xDE PUSH2 0xD7 PUSH2 0xCD DUP5 MLOAD SWAP1 JUMP JUMPDEST DUP1 DUP5 MSTORE SWAP3 PUSH1 0x20 ADD SWAP1 JUMP JUMPDEST SWAP3 PUSH1 0x20 ADD SWAP1 JUMP JUMPDEST SWAP1 PUSH1 0x0 JUMPDEST DUP2 DUP2 LT PUSH2 0xEF JUMPI POP POP POP SWAP1 JUMP JUMPDEST SWAP1 SWAP2 SWAP3 PUSH2 0x115 PUSH2 0x10E PUSH1 0x1 SWAP3 DUP7 MLOAD PUSH1 0x1 PUSH1 0x1 PUSH1 0xA0 SHL SUB AND DUP2 MSTORE PUSH1 0x20 ADD SWAP1 JUMP JUMPDEST SWAP5 PUSH1 0x20 ADD SWAP1 JUMP JUMPDEST SWAP3 SWAP2 ADD PUSH2 0xE2 JUMP JUMPDEST PUSH1 0x20 DUP1 DUP3 MSTORE PUSH2 0xB3 SWAP3 SWAP2 ADD SWAP1 PUSH2 0xBE JUMP JUMPDEST CALLVALUE PUSH2 0x97 JUMPI PUSH2 0x13E CALLDATASIZE PUSH1 0x4 PUSH2 0x9C JUMP JUMPDEST PUSH2 0x155 PUSH2 0x149 PUSH2 0x515 JUMP JUMPDEST PUSH1 0x40 MLOAD SWAP2 DUP3 SWAP2 DUP3 PUSH2 0x11D JUMP JUMPDEST SUB SWAP1 RETURN JUMPDEST CALLVALUE PUSH2 0x97 JUMPI PUSH2 0x169 CALLDATASIZE PUSH1 0x4 PUSH2 0x9C JUMP JUMPDEST PUSH2 0x171 PUSH2 0x557 JUMP JUMPDEST PUSH1 0x40 MLOAD STOP JUMPDEST JUMP JUMPDEST CALLVALUE PUSH2 0x97 JUMPI PUSH2 0x188 CALLDATASIZE PUSH1 0x4 PUSH2 0x9C JUMP JUMPDEST PUSH2 0x155 PUSH2 0x193 PUSH2 0x55F JUMP JUMPDEST PUSH1 0x40 MLOAD SWAP2 DUP3 SWAP2 DUP3 PUSH1 0x1 PUSH1 0x1 PUSH1 0xA0 SHL SUB SWAP1 SWAP2 AND DUP2 MSTORE PUSH1 0x20 ADD SWAP1 JUMP JUMPDEST PUSH1 0x1 PUSH1 0x1 PUSH1 0xA0 SHL SUB DUP2 AND JUMPDEST SUB PUSH2 0x97 JUMPI JUMP JUMPDEST SWAP1 POP CALLDATALOAD SWAP1 PUSH2 0x176 DUP3 PUSH2 0x1AD JUMP JUMPDEST SWAP1 PUSH1 0x20 DUP3 DUP3 SUB SLT PUSH2 0x97 JUMPI PUSH2 0xB3 SWAP2 PUSH2 0x1BF JUMP JUMPDEST CALLVALUE PUSH2 0x97 JUMPI PUSH2 0x171 PUSH2 0x1F3 CALLDATASIZE PUSH1 0x4 PUSH2 0x1CC JUMP JUMPDEST PUSH2 0x9E0 JUMP JUMPDEST CALLVALUE PUSH2 0x97 JUMPI PUSH2 0x171 PUSH2 0x20B CALLDATASIZE PUSH1 0x4 PUSH2 0x1CC JUMP JUMPDEST PUSH2 0xBEB JUMP JUMPDEST PUSH4 0x4E487B71 PUSH1 0xE0 SHL PUSH1 0x0 MSTORE PUSH1 0x41 PUSH1 0x4 MSTORE PUSH1 0x24 PUSH1 0x0 REVERT JUMPDEST SWAP1 PUSH1 0x1F ADD PUSH1 0x1F NOT AND DUP2 ADD SWAP1 DUP2 LT PUSH1 0x1 PUSH1 0x1 PUSH1 0x40 SHL SUB DUP3 GT OR PUSH2 0x247 JUMPI PUSH1 0x40 MSTORE JUMP JUMPDEST PUSH2 0x210 JUMP JUMPDEST SWAP1 PUSH2 0x176 PUSH2 0x259 PUSH1 0x40 MLOAD SWAP1 JUMP JUMPDEST SWAP3 DUP4 PUSH2 0x226 JUMP JUMPDEST PUSH1 0x1 PUSH1 0x1 PUSH1 0x40 SHL SUB DUP2 GT PUSH2 0x247 JUMPI PUSH1 0x20 SWAP1 PUSH1 0x1F ADD PUSH1 0x1F NOT AND ADD SWAP1 JUMP JUMPDEST SWAP1 DUP3 PUSH1 0x0 SWAP4 SWAP3 DUP3 CALLDATACOPY ADD MSTORE JUMP JUMPDEST SWAP1 SWAP3 SWAP2 SWAP3 PUSH2 0x29D PUSH2 0x298 DUP3 PUSH2 0x260 JUMP JUMPDEST PUSH2 0x24C JUMP JUMPDEST SWAP4 DUP2 DUP6 MSTORE DUP2 DUP4 ADD GT PUSH2 0x97 JUMPI PUSH2 0x176 SWAP2 PUSH1 0x20 DUP6 ADD SWAP1 PUSH2 0x27C JUMP JUMPDEST SWAP1 DUP1 PUSH1 0x1F DUP4 ADD SLT ISZERO PUSH2 0x97 JUMPI DUP2 PUSH1 0x20 PUSH2 0xB3 SWAP4 CALLDATALOAD SWAP2 ADD PUSH2 0x288 JUMP JUMPDEST DUP1 PUSH2 0x1B8 JUMP JUMPDEST SWAP1 POP CALLDATALOAD SWAP1 PUSH2 0x176 DUP3 PUSH2 0x2D2 JUMP JUMPDEST SWAP2 PUSH1 0xC0 DUP4 DUP4 SUB SLT PUSH2 0x97 JUMPI DUP3 CALLDATALOAD PUSH1 0x1 PUSH1 0x1 PUSH1 0x40 SHL SUB DUP2 GT PUSH2 0x97 JUMPI DUP3 PUSH2 0x30C SWAP2 DUP6 ADD PUSH2 0x2B7 JUMP JUMPDEST SWAP3 PUSH1 0x20 DUP2 ADD CALLDATALOAD PUSH1 0x1 PUSH1 0x1 PUSH1 0x40 SHL SUB DUP2 GT PUSH2 0x97 JUMPI DUP4 PUSH2 0x32C SWAP2 DUP4 ADD PUSH2 0x2B7 JUMP JUMPDEST SWAP3 PUSH2 0x33A DUP2 PUSH1 0x40 DUP5 ADD PUSH2 0x2D8 JUMP JUMPDEST SWAP3 PUSH2 0x348 DUP3 PUSH1 0x60 DUP6 ADD PUSH2 0x2D8 JUMP JUMPDEST SWAP3 PUSH1 0x80 DUP2 ADD CALLDATALOAD PUSH1 0x1 PUSH1 0x1 PUSH1 0x40 SHL SUB DUP2 GT PUSH2 0x97 JUMPI DUP4 PUSH2 0x368 SWAP2 DUP4 ADD PUSH2 0x2B7 JUMP JUMPDEST SWAP3 PUSH1 0xA0 DUP3 ADD CALLDATALOAD PUSH1 0x1 PUSH1 0x1 PUSH1 0x40 SHL SUB DUP2 GT PUSH2 0x97 JUMPI PUSH2 0xB3 SWAP3 ADD PUSH2 0x2B7 JUMP JUMPDEST CALLVALUE PUSH2 0x97 JUMPI PUSH2 0x155 PUSH2 0x193 PUSH2 0x39C CALLDATASIZE PUSH1 0x4 PUSH2 0x2E5 JUMP JUMPDEST SWAP5 SWAP4 SWAP1 SWAP4 SWAP3 SWAP2 SWAP3 PUSH2 0xE92 JUMP JUMPDEST CALLVALUE PUSH2 0x97 JUMPI PUSH2 0x171 PUSH2 0x3BB CALLDATASIZE PUSH1 0x4 PUSH2 0x1CC JUMP JUMPDEST PUSH2 0xEFA JUMP JUMPDEST SWAP1 PUSH1 0x20 DUP3 DUP3 SUB SLT PUSH2 0x97 JUMPI PUSH2 0xB3 SWAP2 PUSH2 0x2D8 JUMP JUMPDEST PUSH4 0x4E487B71 PUSH1 0xE0 SHL PUSH1 0x0 MSTORE PUSH1 0x32 PUSH1 0x4 MSTORE PUSH1 0x24 PUSH1 0x0 REVERT JUMPDEST DUP1 SLOAD DUP3 LT ISZERO PUSH2 0x40D JUMPI PUSH2 0x404 PUSH1 0x1 SWAP2 PUSH1 0x0 MSTORE PUSH1 0x20 PUSH1 0x0 KECCAK256 SWAP1 JUMP JUMPDEST SWAP2 MUL ADD SWAP1 PUSH1 0x0 SWAP1 JUMP JUMPDEST PUSH2 0x3D4 JUMP JUMPDEST PUSH2 0xB3 SWAP2 PUSH1 0x8 MUL SHR PUSH1 0x1 PUSH1 0x1 PUSH1 0xA0 SHL SUB AND SWAP1 JUMP JUMPDEST SWAP1 PUSH2 0xB3 SWAP2 SLOAD PUSH2 0x412 JUMP JUMPDEST PUSH1 0x0 DUP1 SLOAD DUP3 LT ISZERO PUSH2 0x44F JUMPI PUSH2 0xB3 SWAP2 PUSH2 0x449 SWAP2 PUSH2 0x3EA JUMP JUMPDEST SWAP1 PUSH2 0x426 JUMP JUMPDEST DUP1 REVERT JUMPDEST CALLVALUE PUSH2 0x97 JUMPI PUSH2 0x155 PUSH2 0x193 PUSH2 0x468 CALLDATASIZE PUSH1 0x4 PUSH2 0x3C0 JUMP JUMPDEST PUSH2 0x431 JUMP JUMPDEST PUSH2 0xB3 SWAP1 PUSH2 0xA7 JUMP JUMPDEST PUSH2 0xB3 SWAP1 SLOAD PUSH2 0x46D JUMP JUMPDEST SWAP1 PUSH2 0x49B PUSH2 0x48F PUSH2 0xCD DUP5 SLOAD SWAP1 JUMP JUMPDEST SWAP3 PUSH1 0x0 MSTORE PUSH1 0x20 PUSH1 0x0 KECCAK256 SWAP1 JUMP JUMPDEST SWAP1 PUSH1 0x0 JUMPDEST DUP2 DUP2 LT PUSH2 0x4AC JUMPI POP POP POP SWAP1 JUMP JUMPDEST SWAP1 SWAP2 SWAP3 PUSH2 0x4D9 PUSH2 0x4D2 PUSH1 0x1 SWAP3 PUSH2 0x4C1 DUP8 PUSH2 0x476 JUMP JUMPDEST PUSH1 0x1 PUSH1 0x1 PUSH1 0xA0 SHL SUB AND DUP2 MSTORE PUSH1 0x20 ADD SWAP1 JUMP JUMPDEST SWAP5 PUSH1 0x1 ADD SWAP1 JUMP JUMPDEST SWAP3 SWAP2 ADD PUSH2 0x49F JUMP JUMPDEST SWAP1 PUSH2 0xB3 SWAP2 PUSH2 0x480 JUMP JUMPDEST SWAP1 PUSH2 0x176 PUSH2 0x505 SWAP3 PUSH2 0x4FC PUSH1 0x40 MLOAD SWAP1 JUMP JUMPDEST SWAP4 DUP5 DUP1 SWAP3 PUSH2 0x4E1 JUMP JUMPDEST SUB DUP4 PUSH2 0x226 JUMP JUMPDEST PUSH2 0xB3 SWAP1 PUSH2 0x4EB JUMP JUMPDEST PUSH2 0xB3 PUSH1 0x0 PUSH2 0x50C JUMP JUMPDEST PUSH2 0x527 PUSH2 0xF03 JUMP JUMPDEST PUSH2 0x176 PUSH2 0x545 JUMP JUMPDEST PUSH2 0xA7 PUSH2 0xB3 PUSH2 0xB3 SWAP3 SWAP1 JUMP JUMPDEST PUSH2 0xB3 SWAP1 PUSH2 0x52F JUMP JUMPDEST PUSH2 0x176 PUSH2 0x552 PUSH1 0x0 PUSH2 0x53C JUMP JUMPDEST PUSH2 0xF66 JUMP JUMPDEST PUSH2 0x176 PUSH2 0x51F JUMP JUMPDEST PUSH2 0xB3 PUSH32 0x9016D09D72D40FDAE2FD8CEAC6B6234C7706214FD39C1CD1E609A0528C199300 PUSH2 0x476 JUMP JUMPDEST PUSH2 0x176 SWAP1 PUSH2 0x594 PUSH2 0xF03 JUMP JUMPDEST PUSH2 0x869 JUMP JUMPDEST PUSH2 0xB3 SWAP1 PUSH2 0xA7 SWAP1 PUSH1 0x1 PUSH1 0x1 PUSH1 0xA0 SHL SUB AND DUP3 JUMP JUMPDEST PUSH2 0xB3 SWAP1 PUSH2 0x599 JUMP JUMPDEST PUSH2 0xB3 SWAP1 PUSH2 0x5AD JUMP JUMPDEST SWAP1 PUSH2 0x5C9 SWAP1 PUSH2 0x5B6 JUMP JUMPDEST PUSH1 0x0 MSTORE PUSH1 0x20 MSTORE PUSH1 0x40 PUSH1 0x0 KECCAK256 SWAP1 JUMP JUMPDEST PUSH2 0xB3 SWAP1 DUP2 JUMP JUMPDEST PUSH2 0xB3 SWAP1 SLOAD PUSH2 0x5D7 JUMP JUMPDEST ISZERO PUSH2 0x5EF JUMPI JUMP JUMPDEST PUSH1 0x40 MLOAD PUSH3 0x461BCD PUSH1 0xE5 SHL DUP2 MSTORE PUSH1 0x20 PUSH1 0x4 DUP3 ADD MSTORE PUSH1 0x9 PUSH1 0x24 DUP3 ADD MSTORE PUSH9 0x1393D517D193D55391 PUSH1 0xBA SHL PUSH1 0x44 DUP3 ADD MSTORE PUSH1 0x64 SWAP1 REVERT JUMPDEST PUSH2 0xB3 PUSH2 0xB3 PUSH2 0xB3 SWAP3 SWAP1 JUMP JUMPDEST PUSH4 0x4E487B71 PUSH1 0xE0 SHL PUSH1 0x0 MSTORE PUSH1 0x11 PUSH1 0x4 MSTORE PUSH1 0x24 PUSH1 0x0 REVERT JUMPDEST SWAP2 SWAP1 DUP3 SUB SWAP2 DUP3 GT PUSH2 0x650 JUMPI JUMP JUMPDEST PUSH2 0x62D JUMP JUMPDEST SWAP2 PUSH1 0x1 PUSH1 0x1 PUSH1 0xA0 SHL SUB PUSH1 0x8 SWAP3 SWAP1 SWAP3 MUL SWAP2 DUP3 SHL SWAP2 SHL PUSH2 0x673 JUMP JUMPDEST SWAP3 SHL SWAP1 JUMP JUMPDEST SWAP2 DUP2 NOT AND SWAP2 AND OR SWAP1 JUMP JUMPDEST SWAP2 SWAP1 PUSH2 0x68E PUSH2 0xB3 PUSH2 0x696 SWAP4 PUSH2 0x5B6 JUMP JUMPDEST SWAP1 DUP4 SLOAD PUSH2 0x655 JUMP JUMPDEST SWAP1 SSTORE JUMP JUMPDEST SWAP1 PUSH1 0x0 NOT SWAP1 PUSH2 0x673 JUMP JUMPDEST SWAP1 PUSH2 0x6B4 PUSH2 0xB3 PUSH2 0x696 SWAP3 PUSH2 0x620 JUMP JUMPDEST DUP3 SLOAD PUSH2 0x69A JUMP JUMPDEST PUSH4 0x4E487B71 PUSH1 0xE0 SHL PUSH1 0x0 MSTORE PUSH1 0x31 PUSH1 0x4 MSTORE PUSH1 0x24 PUSH1 0x0 REVERT JUMPDEST PUSH2 0x176 SWAP2 PUSH1 0x0 SWAP2 PUSH2 0x67D JUMP JUMPDEST DUP1 SLOAD DUP1 ISZERO PUSH2 0x700 JUMPI PUSH1 0x0 NOT ADD SWAP1 PUSH2 0x6FD PUSH2 0x6F7 DUP4 DUP4 PUSH2 0x3EA JUMP JUMPDEST SWAP1 PUSH2 0x6D1 JUMP JUMPDEST SSTORE JUMP JUMPDEST PUSH2 0x6BB JUMP JUMPDEST SWAP2 PUSH1 0x0 NOT PUSH1 0x8 SWAP3 SWAP1 SWAP3 MUL SWAP2 DUP3 SHL SWAP2 SHL PUSH2 0x673 JUMP JUMPDEST SWAP2 SWAP1 PUSH2 0x72A PUSH2 0xB3 PUSH2 0x696 SWAP4 PUSH2 0x620 JUMP JUMPDEST SWAP1 DUP4 SLOAD PUSH2 0x705 JUMP JUMPDEST PUSH2 0x176 SWAP2 PUSH1 0x0 SWAP2 PUSH2 0x719 JUMP JUMPDEST PUSH1 0x0 JUMPDEST DUP4 DUP2 LT PUSH2 0x751 JUMPI POP POP PUSH1 0x0 SWAP2 ADD MSTORE JUMP JUMPDEST DUP2 DUP2 ADD MLOAD DUP4 DUP3 ADD MSTORE PUSH1 0x20 ADD PUSH2 0x741 JUMP JUMPDEST SWAP1 SWAP3 SWAP2 SWAP3 PUSH2 0x771 PUSH2 0x298 DUP3 PUSH2 0x260 JUMP JUMPDEST SWAP4 DUP2 DUP6 MSTORE DUP2 DUP4 ADD GT PUSH2 0x97 JUMPI PUSH2 0x176 SWAP2 PUSH1 0x20 DUP6 ADD SWAP1 PUSH2 0x73E JUMP JUMPDEST SWAP1 DUP1 PUSH1 0x1F DUP4 ADD SLT ISZERO PUSH2 0x97 JUMPI DUP2 MLOAD PUSH2 0xB3 SWAP3 PUSH1 0x20 ADD PUSH2 0x761 JUMP JUMPDEST SWAP1 PUSH1 0x20 DUP3 DUP3 SUB SLT PUSH2 0x97 JUMPI DUP2 MLOAD PUSH1 0x1 PUSH1 0x1 PUSH1 0x40 SHL SUB DUP2 GT PUSH2 0x97 JUMPI PUSH2 0xB3 SWAP3 ADD PUSH2 0x78B JUMP JUMPDEST PUSH1 0x40 MLOAD RETURNDATASIZE PUSH1 0x0 DUP3 RETURNDATACOPY RETURNDATASIZE SWAP1 REVERT JUMPDEST PUSH2 0xBA PUSH2 0x7EE SWAP3 PUSH1 0x20 SWAP3 PUSH2 0x7E8 DUP2 MLOAD SWAP1 JUMP JUMPDEST SWAP5 DUP6 SWAP3 SWAP1 JUMP JUMPDEST SWAP4 DUP5 SWAP2 ADD PUSH2 0x73E JUMP JUMPDEST PUSH2 0x807 PUSH2 0xBA SWAP2 PUSH1 0x20 SWAP5 SWAP4 PUSH2 0x7D6 JUMP JUMPDEST SWAP2 DUP3 MSTORE JUMP JUMPDEST PUSH2 0x821 PUSH2 0x818 PUSH1 0x40 MLOAD SWAP1 JUMP JUMPDEST SWAP3 DUP4 SWAP3 DUP4 PUSH2 0x7F7 JUMP JUMPDEST SUB SWAP1 KECCAK256 SWAP1 JUMP JUMPDEST PUSH2 0xB3 SWAP2 PUSH2 0x80C JUMP JUMPDEST SWAP2 SWAP1 PUSH1 0x8 PUSH2 0x673 SWAP2 MUL SWAP2 PUSH2 0x66E PUSH1 0xFF DUP5 SHL SWAP1 JUMP JUMPDEST SWAP2 SWAP1 PUSH2 0x855 PUSH2 0xB3 PUSH2 0x696 SWAP4 ISZERO ISZERO SWAP1 JUMP JUMPDEST SWAP1 DUP4 SLOAD PUSH2 0x830 JUMP JUMPDEST PUSH2 0x176 SWAP2 PUSH1 0x0 SWAP2 PUSH2 0x844 JUMP JUMPDEST PUSH1 0x2 SWAP1 PUSH2 0x8FA PUSH2 0x881 PUSH2 0x87C DUP4 DUP6 PUSH2 0x5BF JUMP JUMPDEST PUSH2 0x5DE JUMP JUMPDEST PUSH2 0x8F5 DUP4 PUSH1 0x0 SWAP6 DUP4 PUSH2 0x8BB PUSH2 0x89A PUSH2 0x449 DUP11 SWAP8 DUP9 PUSH2 0x3EA JUMP JUMPDEST PUSH2 0x8B5 PUSH1 0x1 PUSH1 0x1 PUSH1 0xA0 SHL SUB DUP7 AND JUMPDEST SWAP2 PUSH1 0x1 PUSH1 0x1 PUSH1 0xA0 SHL SUB AND SWAP1 JUMP JUMPDEST EQ PUSH2 0x5E8 JUMP JUMPDEST PUSH2 0x8D6 PUSH2 0x8C6 DUP7 SLOAD SWAP1 JUMP JUMPDEST PUSH2 0x8D0 PUSH1 0x1 PUSH2 0x620 JUMP JUMPDEST SWAP1 PUSH2 0x643 JUMP JUMPDEST SWAP1 DUP2 DUP2 SUB PUSH2 0x9A7 JUMPI JUMPDEST POP POP PUSH2 0x8F0 PUSH2 0x8EB DUP6 SWAP1 JUMP JUMPDEST PUSH2 0x6DD JUMP JUMPDEST PUSH2 0x5BF JUMP JUMPDEST PUSH2 0x732 JUMP JUMPDEST PUSH2 0x90B PUSH2 0x906 DUP3 PUSH2 0x5B6 JUMP JUMPDEST PUSH2 0x5B6 JUMP JUMPDEST SWAP2 DUP1 PUSH2 0x916 PUSH1 0x40 MLOAD SWAP1 JUMP JUMPDEST PUSH4 0x6FDDE03 PUSH1 0xE0 SHL DUP2 MSTORE SWAP4 DUP5 SWAP1 PUSH1 0x4 SWAP1 DUP3 SWAP1 GAS STATICCALL SWAP1 DUP2 ISZERO PUSH2 0x9A2 JUMPI PUSH2 0x94B PUSH2 0x906 SWAP3 PUSH2 0x950 SWAP6 DUP4 SWAP2 PUSH2 0x980 JUMPI JUMPDEST POP PUSH1 0x1 PUSH2 0x827 JUMP JUMPDEST PUSH2 0x85D JUMP JUMPDEST PUSH32 0x15DB1813F994E3207E1B7CD688154DCA03609984E865399CD2163D9EB3B0A63C PUSH2 0x97A PUSH1 0x40 MLOAD SWAP1 JUMP JUMPDEST PUSH1 0x0 SWAP1 LOG2 JUMP JUMPDEST PUSH2 0x99C SWAP2 POP RETURNDATASIZE DUP1 DUP6 DUP4 RETURNDATACOPY PUSH2 0x994 DUP2 DUP4 PUSH2 0x226 JUMP JUMPDEST DUP2 ADD SWAP1 PUSH2 0x7A5 JUMP JUMPDEST CODESIZE PUSH2 0x943 JUMP JUMPDEST PUSH2 0x7CA JUMP JUMPDEST PUSH2 0x9D4 PUSH2 0x9BA PUSH2 0x449 PUSH2 0x9D9 SWAP5 DUP10 PUSH2 0x3EA JUMP JUMPDEST PUSH2 0x9CE DUP2 PUSH2 0x9C8 DUP6 DUP12 PUSH2 0x3EA JUMP JUMPDEST SWAP1 PUSH2 0x67D JUMP JUMPDEST DUP5 PUSH2 0x5BF JUMP JUMPDEST PUSH2 0x6A4 JUMP JUMPDEST CODESIZE DUP1 PUSH2 0x8DF JUMP JUMPDEST PUSH2 0x176 SWAP1 PUSH2 0x588 JUMP JUMPDEST PUSH2 0xB3 SWAP1 PUSH1 0x40 SHR JUMPDEST PUSH1 0xFF AND SWAP1 JUMP JUMPDEST PUSH2 0xB3 SWAP1 SLOAD PUSH2 0x9E9 JUMP JUMPDEST PUSH2 0xB3 SWAP1 JUMPDEST PUSH1 0x1 PUSH1 0x1 PUSH1 0x40 SHL SUB AND SWAP1 JUMP JUMPDEST PUSH2 0xB3 SWAP1 SLOAD PUSH2 0xA01 JUMP JUMPDEST PUSH2 0xA06 PUSH2 0xB3 PUSH2 0xB3 SWAP3 SWAP1 JUMP JUMPDEST SWAP1 PUSH1 0x1 PUSH1 0x1 PUSH1 0x40 SHL SUB SWAP1 PUSH2 0x673 JUMP JUMPDEST PUSH2 0xA06 PUSH2 0xB3 PUSH2 0xB3 SWAP3 PUSH1 0x1 PUSH1 0x1 PUSH1 0x40 SHL SUB AND SWAP1 JUMP JUMPDEST SWAP1 PUSH2 0xA5E PUSH2 0xB3 PUSH2 0x696 SWAP3 PUSH2 0xA38 JUMP JUMPDEST DUP3 SLOAD PUSH2 0xA29 JUMP JUMPDEST SWAP1 PUSH9 0xFF0000000000000000 SWAP1 PUSH1 0x40 SHL PUSH2 0x673 JUMP JUMPDEST SWAP1 PUSH2 0xA89 PUSH2 0xB3 PUSH2 0x696 SWAP3 ISZERO ISZERO SWAP1 JUMP JUMPDEST DUP3 SLOAD PUSH2 0xA65 JUMP JUMPDEST PUSH2 0xB6 SWAP1 PUSH2 0xA1C JUMP JUMPDEST PUSH1 0x20 DUP2 ADD SWAP3 SWAP2 PUSH2 0x176 SWAP2 SWAP1 PUSH2 0xA90 JUMP JUMPDEST PUSH2 0xAB1 PUSH2 0xFD7 JUMP JUMPDEST SWAP1 DUP2 PUSH2 0xACC PUSH2 0xAC6 PUSH2 0xAC2 DUP4 PUSH2 0x9F7 JUMP JUMPDEST ISZERO SWAP1 JUMP JUMPDEST SWAP2 PUSH2 0xA12 JUMP JUMPDEST SWAP1 PUSH1 0x0 SWAP3 PUSH2 0xAD9 DUP5 PUSH2 0xA1C JUMP JUMPDEST PUSH1 0x1 PUSH1 0x1 PUSH1 0x40 SHL SUB DUP5 AND EQ DUP1 PUSH2 0xBD7 JUMPI JUMPDEST PUSH1 0x1 SWAP4 PUSH2 0xB06 PUSH2 0xAF9 DUP7 PUSH2 0xA1C JUMP JUMPDEST SWAP2 PUSH1 0x1 PUSH1 0x1 PUSH1 0x40 SHL SUB AND SWAP1 JUMP JUMPDEST EQ SWAP1 DUP2 PUSH2 0xBAF JUMPI JUMPDEST ISZERO JUMPDEST SWAP1 DUP2 PUSH2 0xBA6 JUMPI JUMPDEST POP PUSH2 0xB97 JUMPI PUSH2 0xB40 SWAP1 DUP3 PUSH2 0xB37 DUP7 PUSH2 0xB2E DUP8 PUSH2 0xA1C JUMP JUMPDEST SWAP9 ADD SWAP8 DUP9 PUSH2 0xA4E JUMP JUMPDEST PUSH2 0xB88 JUMPI PUSH2 0xBDE JUMP JUMPDEST PUSH2 0xB49 JUMPI POP POP POP JUMP JUMPDEST PUSH2 0xB77 PUSH2 0xB83 SWAP3 PUSH32 0xC7F505B2F371AE2175EE4913F4499E1F2633A7B5936321EED1CDAEB6115181D2 SWAP5 PUSH2 0xA79 JUMP JUMPDEST PUSH1 0x40 MLOAD SWAP2 DUP3 SWAP2 DUP3 PUSH2 0xA99 JUMP JUMPDEST SUB SWAP1 LOG1 JUMP JUMPDEST PUSH2 0xB92 DUP5 DUP8 PUSH2 0xA79 JUMP JUMPDEST PUSH2 0xBDE JUMP JUMPDEST PUSH4 0xF92EE8A9 PUSH1 0xE0 SHL DUP5 MSTORE PUSH1 0x4 DUP5 REVERT JUMPDEST ISZERO SWAP1 POP CODESIZE PUSH2 0xB17 JUMP JUMPDEST SWAP1 POP PUSH2 0xB10 PUSH2 0xBBD ADDRESS PUSH2 0x5B6 JUMP JUMPDEST EXTCODESIZE PUSH2 0xBCE PUSH2 0xBCA DUP9 PUSH2 0x620 JUMP JUMPDEST SWAP2 SWAP1 JUMP JUMPDEST EQ SWAP2 SWAP1 POP PUSH2 0xB0E JUMP JUMPDEST POP DUP2 PUSH2 0xAEA JUMP JUMPDEST PUSH2 0x176 SWAP1 PUSH2 0x552 DUP2 PUSH2 0xFF4 JUMP JUMPDEST PUSH2 0x176 SWAP1 PUSH2 0xAA9 JUMP JUMPDEST SWAP1 PUSH2 0xB3 SWAP7 SWAP6 SWAP5 SWAP4 SWAP3 SWAP2 PUSH2 0xC06 PUSH2 0xF03 JUMP JUMPDEST PUSH2 0xD4B JUMP JUMPDEST PUSH2 0xB3 SWAP1 PUSH2 0x9F1 JUMP JUMPDEST PUSH2 0xB3 SWAP1 SLOAD PUSH2 0xC0B JUMP JUMPDEST ISZERO PUSH2 0xC25 JUMPI JUMP JUMPDEST PUSH1 0x40 MLOAD PUSH3 0x461BCD PUSH1 0xE5 SHL DUP2 MSTORE PUSH1 0x20 PUSH1 0x4 DUP3 ADD MSTORE PUSH1 0xA PUSH1 0x24 DUP3 ADD MSTORE PUSH10 0x2720A6A2AFAA20A5A2A7 PUSH1 0xB1 SHL PUSH1 0x44 DUP3 ADD MSTORE PUSH1 0x64 SWAP1 REVERT JUMPDEST PUSH2 0xC78 PUSH2 0xC81 PUSH1 0x20 SWAP4 PUSH2 0xBA SWAP4 PUSH2 0xC6C DUP2 MLOAD SWAP1 JUMP JUMPDEST DUP1 DUP4 MSTORE SWAP4 DUP5 SWAP3 PUSH1 0x20 ADD SWAP1 JUMP JUMPDEST SWAP6 DUP7 SWAP2 ADD PUSH2 0x73E JUMP JUMPDEST PUSH1 0x1F ADD PUSH1 0x1F NOT AND SWAP1 JUMP JUMPDEST SWAP6 SWAP2 SWAP5 PUSH2 0xCE1 PUSH2 0xCF5 SWAP6 PUSH2 0xCDA PUSH2 0xCC8 PUSH2 0xB3 SWAP12 SWAP10 PUSH2 0xCBA DUP13 PUSH2 0xCE8 SWAP9 PUSH1 0xE0 DUP3 ADD SWAP2 PUSH1 0x0 DUP2 DUP5 SUB SWAP2 ADD MSTORE PUSH2 0xC57 JUMP JUMPDEST DUP13 DUP2 SUB PUSH1 0x20 DUP15 ADD MSTORE SWAP1 PUSH2 0xC57 JUMP JUMPDEST PUSH1 0x1 PUSH1 0x1 PUSH1 0xA0 SHL SUB SWAP1 SWAP8 AND PUSH1 0x40 DUP12 ADD MSTORE JUMP JUMPDEST PUSH1 0x60 DUP10 ADD MSTORE JUMP JUMPDEST PUSH1 0x80 DUP8 ADD MSTORE JUMP JUMPDEST DUP5 DUP3 SUB PUSH1 0xA0 DUP7 ADD MSTORE PUSH2 0xC57 JUMP JUMPDEST SWAP2 PUSH1 0xC0 DUP2 DUP5 SUB SWAP2 ADD MSTORE PUSH2 0xC57 JUMP JUMPDEST SWAP1 DUP2 SLOAD SWAP2 PUSH9 0x10000000000000000 DUP4 LT ISZERO PUSH2 0x247 JUMPI DUP3 PUSH2 0x9C8 SWAP2 PUSH1 0x1 PUSH2 0x176 SWAP6 ADD DUP2 SSTORE PUSH2 0x3EA JUMP JUMPDEST SWAP1 PUSH1 0xFF SWAP1 PUSH2 0x673 JUMP JUMPDEST SWAP1 PUSH2 0xD44 PUSH2 0xB3 PUSH2 0x696 SWAP3 ISZERO ISZERO SWAP1 JUMP JUMPDEST DUP3 SLOAD PUSH2 0xD2B JUMP JUMPDEST SWAP6 SWAP2 SWAP3 SWAP1 SWAP4 SWAP5 SWAP6 POP PUSH1 0x1 SWAP3 PUSH2 0xD73 PUSH2 0xD6E PUSH2 0xAC2 PUSH2 0xD69 DUP9 DUP9 PUSH2 0x827 JUMP JUMPDEST PUSH2 0xC14 JUMP JUMPDEST PUSH2 0xC1E JUMP JUMPDEST PUSH1 0x40 MLOAD PUSH2 0x2B48 DUP2 ADD DUP2 DUP2 LT PUSH1 0x1 PUSH1 0x1 PUSH1 0x40 SHL SUB DUP3 GT OR PUSH2 0x247 JUMPI PUSH2 0xD9D DUP3 SWAP2 PUSH2 0x2B48 PUSH2 0x107A DUP5 CODECOPY SWAP1 JUMP JUMPDEST SUB SWAP1 PUSH1 0x0 CREATE DUP1 ISZERO PUSH2 0x9A2 JUMPI PUSH2 0xDB1 SWAP1 PUSH2 0x5B6 JUMP JUMPDEST SWAP7 DUP8 EXTCODESIZE ISZERO PUSH2 0x97 JUMPI PUSH1 0x0 SWAP4 PUSH2 0xDE4 SWAP2 PUSH2 0xDC9 PUSH1 0x40 MLOAD SWAP1 JUMP JUMPDEST SWAP9 DUP10 SWAP6 DUP7 SWAP6 PUSH4 0x2DED6ED PUSH1 0xE3 SHL DUP8 MSTORE CALLER SWAP1 DUP12 PUSH1 0x4 DUP10 ADD PUSH2 0xC8B JUMP JUMPDEST SUB DUP2 DUP4 DUP9 GAS CALL SWAP2 DUP3 ISZERO PUSH2 0x9A2 JUMPI DUP2 PUSH2 0xE18 PUSH2 0xE1D SWAP3 PUSH2 0xE3A SWAP7 PUSH2 0xE2F SWAP7 PUSH2 0xE74 JUMPI JUMPDEST POP PUSH2 0xE12 DUP9 PUSH1 0x0 PUSH2 0xD03 JUMP JUMPDEST DUP3 PUSH2 0x827 JUMP JUMPDEST PUSH2 0xD34 JUMP JUMPDEST PUSH2 0x8D0 PUSH2 0xE29 PUSH1 0x0 SLOAD SWAP1 JUMP JUMPDEST SWAP2 PUSH2 0x620 JUMP JUMPDEST PUSH2 0x9D4 DUP4 PUSH1 0x2 PUSH2 0x5BF JUMP JUMPDEST PUSH2 0xE43 DUP2 PUSH2 0x5B6 JUMP JUMPDEST PUSH32 0x75432E2E509EFCAF947EFCC7A5A6B6B3562425B29E9725C7A4A5C652291AC35D PUSH2 0xE6D PUSH1 0x40 MLOAD SWAP1 JUMP JUMPDEST PUSH1 0x0 SWAP1 LOG2 SWAP1 JUMP JUMPDEST PUSH2 0xE8C SWAP1 PUSH1 0x0 PUSH2 0xE84 DUP2 DUP4 PUSH2 0x226 JUMP JUMPDEST DUP2 ADD SWAP1 PUSH2 0x9C JUMP JUMPDEST CODESIZE PUSH2 0xE06 JUMP JUMPDEST PUSH2 0xB3 SWAP6 SWAP5 SWAP4 SWAP3 SWAP2 SWAP1 PUSH1 0x0 PUSH2 0xBF4 JUMP JUMPDEST PUSH2 0x176 SWAP1 PUSH2 0xEAE PUSH2 0xF03 JUMP JUMPDEST PUSH1 0x0 PUSH2 0xEB9 DUP2 PUSH2 0x53C JUMP JUMPDEST PUSH1 0x1 PUSH1 0x1 PUSH1 0xA0 SHL SUB DUP2 AND PUSH1 0x1 PUSH1 0x1 PUSH1 0xA0 SHL SUB DUP5 AND EQ PUSH2 0xEDD JUMPI POP POP PUSH2 0x176 SWAP1 PUSH2 0xF66 JUMP JUMPDEST PUSH4 0x1E4FBDF7 PUSH1 0xE0 SHL DUP3 MSTORE PUSH1 0x1 PUSH1 0x1 PUSH1 0xA0 SHL SUB AND PUSH1 0x4 DUP3 ADD MSTORE PUSH1 0x24 SWAP1 REVERT JUMPDEST PUSH2 0x176 SWAP1 PUSH2 0xEA2 JUMP JUMPDEST PUSH2 0xF0B PUSH2 0x55F JUMP JUMPDEST CALLER SWAP1 PUSH2 0xF16 DUP3 PUSH2 0x8A8 JUMP JUMPDEST SUB PUSH2 0xF1E JUMPI POP JUMP JUMPDEST PUSH4 0x118CDAA7 PUSH1 0xE0 SHL PUSH1 0x0 SWAP1 DUP2 MSTORE PUSH1 0x1 PUSH1 0x1 PUSH1 0xA0 SHL SUB SWAP1 SWAP2 AND PUSH1 0x4 MSTORE PUSH1 0x24 SUB PUSH1 0x0 REVERT JUMPDEST SWAP1 PUSH1 0x1 PUSH1 0x1 PUSH1 0xA0 SHL SUB SWAP1 PUSH2 0x673 JUMP JUMPDEST SWAP1 PUSH2 0xF5F PUSH2 0xB3 PUSH2 0x696 SWAP3 PUSH2 0x5B6 JUMP JUMPDEST DUP3 SLOAD PUSH2 0xF40 JUMP JUMPDEST PUSH2 0xFA6 PUSH2 0xFA0 PUSH32 0x9016D09D72D40FDAE2FD8CEAC6B6234C7706214FD39C1CD1E609A0528C199300 PUSH2 0x906 DUP5 PUSH2 0xF9A DUP4 PUSH2 0x476 JUMP JUMPDEST SWAP3 PUSH2 0xF4F JUMP JUMPDEST SWAP2 PUSH2 0x5B6 JUMP JUMPDEST SWAP1 PUSH32 0x8BE0079C531659141344CD1FD0A4F28419497F9722A3DAAFE3B4186F6B6457E0 PUSH2 0xFD1 PUSH1 0x40 MLOAD SWAP1 JUMP JUMPDEST PUSH1 0x0 SWAP1 LOG3 JUMP JUMPDEST PUSH2 0xB3 PUSH2 0x1026 JUMP JUMPDEST PUSH2 0x176 SWAP1 PUSH2 0xFEB PUSH2 0x102E JUMP JUMPDEST PUSH2 0x176 SWAP1 PUSH2 0x105D JUMP JUMPDEST PUSH2 0x176 SWAP1 PUSH2 0xFDF JUMP JUMPDEST PUSH2 0xB3 PUSH32 0xF0C57E16840DF040F15088DC2F81FE391C3923BEC73E23A9662EFC9C229C6A00 PUSH2 0x620 JUMP JUMPDEST PUSH2 0xB3 PUSH2 0xFFD JUMP JUMPDEST PUSH2 0x1039 PUSH2 0xAC2 PUSH2 0x1066 JUMP JUMPDEST PUSH2 0x103F JUMPI JUMP JUMPDEST PUSH4 0x1AFCD79F PUSH1 0xE3 SHL PUSH1 0x0 SWAP1 DUP2 MSTORE PUSH1 0x4 SWAP1 REVERT JUMPDEST PUSH2 0x176 SWAP1 PUSH2 0xEAE PUSH2 0x102E JUMP JUMPDEST PUSH2 0x176 SWAP1 PUSH2 0x1051 JUMP JUMPDEST PUSH2 0xB3 PUSH1 0x0 PUSH2 0x1073 PUSH2 0xFD7 JUMP JUMPDEST ADD PUSH2 0x9F7 JUMP INVALID PUSH1 0x80 PUSH1 0x40 MSTORE CALLVALUE PUSH1 0x19 JUMPI PUSH1 0x40 MLOAD PUSH2 0x2B29 PUSH2 0x1F DUP3 CODECOPY PUSH2 0x2B29 SWAP1 RETURN JUMPDEST PUSH1 0x0 DUP1 REVERT INVALID PUSH1 0x80 PUSH1 0x40 MSTORE PUSH1 0x4 CALLDATASIZE LT ISZERO PUSH2 0x12 JUMPI PUSH1 0x0 DUP1 REVERT JUMPDEST PUSH1 0x0 CALLDATALOAD PUSH1 0xE0 SHR DUP1 PUSH4 0x1FFC9A7 EQ PUSH2 0x202 JUMPI DUP1 PUSH4 0x6FDDE03 EQ PUSH2 0x1FD JUMPI DUP1 PUSH4 0x81812FC EQ PUSH2 0x1F8 JUMPI DUP1 PUSH4 0x95EA7B3 EQ PUSH2 0x1F3 JUMPI DUP1 PUSH4 0x16F6B768 EQ PUSH2 0x1EE JUMPI DUP1 PUSH4 0x18160DDD EQ PUSH2 0x1E9 JUMPI DUP1 PUSH4 0x1B2EF1CA EQ PUSH2 0x1E4 JUMPI DUP1 PUSH4 0x23B872DD EQ PUSH2 0x1DF JUMPI DUP1 PUSH4 0x3F4BA83A EQ PUSH2 0x1DA JUMPI DUP1 PUSH4 0x42842E0E EQ PUSH2 0x1D5 JUMPI DUP1 PUSH4 0x4EA3871A EQ PUSH2 0x1D0 JUMPI DUP1 PUSH4 0x55F804B3 EQ PUSH2 0x1CB JUMPI DUP1 PUSH4 0x5C975ABB EQ PUSH2 0x1C6 JUMPI DUP1 PUSH4 0x6352211E EQ PUSH2 0x1C1 JUMPI DUP1 PUSH4 0x6817C76C EQ PUSH2 0x1BC JUMPI DUP1 PUSH4 0x70A08231 EQ PUSH2 0x1B7 JUMPI DUP1 PUSH4 0x715018A6 EQ PUSH2 0x1B2 JUMPI DUP1 PUSH4 0x8456CB59 EQ PUSH2 0x1AD JUMPI DUP1 PUSH4 0x8DA5CB5B EQ PUSH2 0x1A8 JUMPI DUP1 PUSH4 0x938E3D7B EQ PUSH2 0x1A3 JUMPI DUP1 PUSH4 0x95D89B41 EQ PUSH2 0x19E JUMPI DUP1 PUSH4 0x9FD6DB12 EQ PUSH2 0x199 JUMPI DUP1 PUSH4 0xA22CB465 EQ PUSH2 0x194 JUMPI DUP1 PUSH4 0xB80F55C9 EQ PUSH2 0x18F JUMPI DUP1 PUSH4 0xB88D4FDE EQ PUSH2 0x18A JUMPI DUP1 PUSH4 0xC87B56DD EQ PUSH2 0x185 JUMPI DUP1 PUSH4 0xD5ABEB01 EQ PUSH2 0x180 JUMPI DUP1 PUSH4 0xE8A3D485 EQ PUSH2 0x17B JUMPI DUP1 PUSH4 0xE985E9C5 EQ PUSH2 0x176 JUMPI DUP1 PUSH4 0xF2FDE38B EQ PUSH2 0x171 JUMPI PUSH4 0xF4A0A528 SUB PUSH2 0x207 JUMPI PUSH2 0xA23 JUMP JUMPDEST PUSH2 0xA0B JUMP JUMPDEST PUSH2 0x9EF JUMP JUMPDEST PUSH2 0x9B1 JUMP JUMPDEST PUSH2 0x996 JUMP JUMPDEST PUSH2 0x96F JUMP JUMPDEST PUSH2 0x958 JUMP JUMPDEST PUSH2 0x8F1 JUMP JUMPDEST PUSH2 0x834 JUMP JUMPDEST PUSH2 0x7F6 JUMP JUMPDEST PUSH2 0x7B5 JUMP JUMPDEST PUSH2 0x79D JUMP JUMPDEST PUSH2 0x782 JUMP JUMPDEST PUSH2 0x76A JUMP JUMPDEST PUSH2 0x752 JUMP JUMPDEST PUSH2 0x737 JUMP JUMPDEST PUSH2 0x708 JUMP JUMPDEST PUSH2 0x6CB JUMP JUMPDEST PUSH2 0x6B0 JUMP JUMPDEST PUSH2 0x698 JUMP JUMPDEST PUSH2 0x65B JUMP JUMPDEST PUSH2 0x61E JUMP JUMPDEST PUSH2 0x606 JUMP JUMPDEST PUSH2 0x5F2 JUMP JUMPDEST PUSH2 0x5B0 JUMP JUMPDEST PUSH2 0x569 JUMP JUMPDEST PUSH2 0x54A JUMP JUMPDEST PUSH2 0x3C0 JUMP JUMPDEST PUSH2 0x34C JUMP JUMPDEST PUSH2 0x2F2 JUMP JUMPDEST PUSH2 0x249 JUMP JUMPDEST PUSH1 0x0 DUP1 REVERT JUMPDEST PUSH1 0x1 PUSH1 0x1 PUSH1 0xE0 SHL SUB NOT DUP2 AND JUMPDEST SUB PUSH2 0x207 JUMPI JUMP JUMPDEST SWAP1 POP CALLDATALOAD SWAP1 PUSH2 0x22C DUP3 PUSH2 0x20C JUMP JUMPDEST JUMP JUMPDEST SWAP1 PUSH1 0x20 DUP3 DUP3 SUB SLT PUSH2 0x207 JUMPI PUSH2 0x242 SWAP2 PUSH2 0x21F JUMP JUMPDEST SWAP1 JUMP JUMPDEST SWAP1 MSTORE JUMP JUMPDEST CALLVALUE PUSH2 0x207 JUMPI PUSH2 0x277 PUSH2 0x264 PUSH2 0x25F CALLDATASIZE PUSH1 0x4 PUSH2 0x22E JUMP JUMPDEST PUSH2 0xA5B JUMP JUMPDEST PUSH1 0x40 MLOAD JUMPDEST SWAP2 DUP3 SWAP2 DUP3 SWAP1 ISZERO ISZERO DUP2 MSTORE PUSH1 0x20 ADD SWAP1 JUMP JUMPDEST SUB SWAP1 RETURN JUMPDEST PUSH1 0x0 SWAP2 SUB SLT PUSH2 0x207 JUMPI JUMP JUMPDEST PUSH1 0x0 JUMPDEST DUP4 DUP2 LT PUSH2 0x299 JUMPI POP POP PUSH1 0x0 SWAP2 ADD MSTORE JUMP JUMPDEST DUP2 DUP2 ADD MLOAD DUP4 DUP3 ADD MSTORE PUSH1 0x20 ADD PUSH2 0x289 JUMP JUMPDEST PUSH2 0x2CA PUSH2 0x2D3 PUSH1 0x20 SWAP4 PUSH2 0x2DD SWAP4 PUSH2 0x2BE DUP2 MLOAD SWAP1 JUMP JUMPDEST DUP1 DUP4 MSTORE SWAP4 DUP5 SWAP3 PUSH1 0x20 ADD SWAP1 JUMP JUMPDEST SWAP6 DUP7 SWAP2 ADD PUSH2 0x286 JUMP JUMPDEST PUSH1 0x1F ADD PUSH1 0x1F NOT AND SWAP1 JUMP JUMPDEST ADD SWAP1 JUMP JUMPDEST PUSH1 0x20 DUP1 DUP3 MSTORE PUSH2 0x242 SWAP3 SWAP2 ADD SWAP1 PUSH2 0x2A9 JUMP JUMPDEST CALLVALUE PUSH2 0x207 JUMPI PUSH2 0x302 CALLDATASIZE PUSH1 0x4 PUSH2 0x27B JUMP JUMPDEST PUSH2 0x277 PUSH2 0x30D PUSH2 0xBC3 JUMP JUMPDEST PUSH1 0x40 MLOAD SWAP2 DUP3 SWAP2 DUP3 PUSH2 0x2E1 JUMP JUMPDEST DUP1 PUSH2 0x218 JUMP JUMPDEST SWAP1 POP CALLDATALOAD SWAP1 PUSH2 0x22C DUP3 PUSH2 0x319 JUMP JUMPDEST SWAP1 PUSH1 0x20 DUP3 DUP3 SUB SLT PUSH2 0x207 JUMPI PUSH2 0x242 SWAP2 PUSH2 0x31F JUMP JUMPDEST PUSH1 0x1 PUSH1 0x1 PUSH1 0xA0 SHL SUB AND SWAP1 JUMP JUMPDEST CALLVALUE PUSH2 0x207 JUMPI PUSH2 0x277 PUSH2 0x367 PUSH2 0x362 CALLDATASIZE PUSH1 0x4 PUSH2 0x32C JUMP JUMPDEST PUSH2 0xC03 JUMP JUMPDEST PUSH1 0x40 MLOAD SWAP2 DUP3 SWAP2 DUP3 PUSH1 0x1 PUSH1 0x1 PUSH1 0xA0 SHL SUB SWAP1 SWAP2 AND DUP2 MSTORE PUSH1 0x20 ADD SWAP1 JUMP JUMPDEST PUSH1 0x1 PUSH1 0x1 PUSH1 0xA0 SHL SUB DUP2 AND PUSH2 0x218 JUMP JUMPDEST SWAP1 POP CALLDATALOAD SWAP1 PUSH2 0x22C DUP3 PUSH2 0x381 JUMP JUMPDEST SWAP2 SWAP1 PUSH1 0x40 DUP4 DUP3 SUB SLT PUSH2 0x207 JUMPI PUSH2 0x242 SWAP1 PUSH1 0x20 PUSH2 0x3B9 DUP3 DUP7 PUSH2 0x390 JUMP JUMPDEST SWAP5 ADD PUSH2 0x31F JUMP JUMPDEST PUSH2 0x3D4 PUSH2 0x3CE CALLDATASIZE PUSH1 0x4 PUSH2 0x39D JUMP JUMPDEST SWAP1 PUSH2 0xC58 JUMP JUMPDEST PUSH1 0x40 MLOAD STOP JUMPDEST PUSH4 0x4E487B71 PUSH1 0xE0 SHL PUSH1 0x0 MSTORE PUSH1 0x41 PUSH1 0x4 MSTORE PUSH1 0x24 PUSH1 0x0 REVERT JUMPDEST SWAP1 PUSH1 0x1F ADD PUSH1 0x1F NOT AND DUP2 ADD SWAP1 DUP2 LT PUSH1 0x1 PUSH1 0x1 PUSH1 0x40 SHL SUB DUP3 GT OR PUSH2 0x410 JUMPI PUSH1 0x40 MSTORE JUMP JUMPDEST PUSH2 0x3D9 JUMP JUMPDEST SWAP1 PUSH2 0x22C PUSH2 0x422 PUSH1 0x40 MLOAD SWAP1 JUMP JUMPDEST SWAP3 DUP4 PUSH2 0x3EF JUMP JUMPDEST PUSH1 0x1 PUSH1 0x1 PUSH1 0x40 SHL SUB DUP2 GT PUSH2 0x410 JUMPI PUSH1 0x20 SWAP1 PUSH1 0x1F ADD PUSH1 0x1F NOT AND ADD SWAP1 JUMP JUMPDEST SWAP1 DUP3 PUSH1 0x0 SWAP4 SWAP3 DUP3 CALLDATACOPY ADD MSTORE JUMP JUMPDEST SWAP1 SWAP3 SWAP2 SWAP3 PUSH2 0x466 PUSH2 0x461 DUP3 PUSH2 0x429 JUMP JUMPDEST PUSH2 0x415 JUMP JUMPDEST SWAP4 DUP2 DUP6 MSTORE DUP2 DUP4 ADD GT PUSH2 0x207 JUMPI PUSH2 0x22C SWAP2 PUSH1 0x20 DUP6 ADD SWAP1 PUSH2 0x445 JUMP JUMPDEST SWAP1 DUP1 PUSH1 0x1F DUP4 ADD SLT ISZERO PUSH2 0x207 JUMPI DUP2 PUSH1 0x20 PUSH2 0x242 SWAP4 CALLDATALOAD SWAP2 ADD PUSH2 0x451 JUMP JUMPDEST SWAP1 PUSH1 0xE0 DUP3 DUP3 SUB SLT PUSH2 0x207 JUMPI DUP2 CALLDATALOAD PUSH1 0x1 PUSH1 0x1 PUSH1 0x40 SHL SUB DUP2 GT PUSH2 0x207 JUMPI DUP2 PUSH2 0x4C2 SWAP2 DUP5 ADD PUSH2 0x480 JUMP JUMPDEST SWAP3 PUSH1 0x20 DUP4 ADD CALLDATALOAD PUSH1 0x1 PUSH1 0x1 PUSH1 0x40 SHL SUB DUP2 GT PUSH2 0x207 JUMPI DUP3 PUSH2 0x4E2 SWAP2 DUP6 ADD PUSH2 0x480 JUMP JUMPDEST SWAP3 PUSH2 0x4F0 DUP4 PUSH1 0x40 DUP4 ADD PUSH2 0x390 JUMP JUMPDEST SWAP3 PUSH2 0x4FE DUP2 PUSH1 0x60 DUP5 ADD PUSH2 0x31F JUMP JUMPDEST SWAP3 PUSH2 0x50C DUP3 PUSH1 0x80 DUP6 ADD PUSH2 0x31F JUMP JUMPDEST SWAP3 PUSH1 0xA0 DUP2 ADD CALLDATALOAD PUSH1 0x1 PUSH1 0x1 PUSH1 0x40 SHL SUB DUP2 GT PUSH2 0x207 JUMPI DUP4 PUSH2 0x52C SWAP2 DUP4 ADD PUSH2 0x480 JUMP JUMPDEST SWAP3 PUSH1 0xC0 DUP3 ADD CALLDATALOAD PUSH1 0x1 PUSH1 0x1 PUSH1 0x40 SHL SUB DUP2 GT PUSH2 0x207 JUMPI PUSH2 0x242 SWAP3 ADD PUSH2 0x480 JUMP JUMPDEST CALLVALUE PUSH2 0x207 JUMPI PUSH2 0x3D4 PUSH2 0x55D CALLDATASIZE PUSH1 0x4 PUSH2 0x49B JUMP JUMPDEST SWAP6 SWAP5 SWAP1 SWAP5 SWAP4 SWAP2 SWAP4 PUSH2 0x10B7 JUMP JUMPDEST CALLVALUE PUSH2 0x207 JUMPI PUSH2 0x579 CALLDATASIZE PUSH1 0x4 PUSH2 0x27B JUMP JUMPDEST PUSH2 0x277 PUSH2 0x584 PUSH2 0x10D7 JUMP JUMPDEST PUSH1 0x40 MLOAD SWAP2 DUP3 SWAP2 DUP3 SWAP1 DUP2 MSTORE PUSH1 0x20 ADD SWAP1 JUMP JUMPDEST SWAP2 SWAP1 PUSH1 0x40 DUP4 DUP3 SUB SLT PUSH2 0x207 JUMPI PUSH2 0x242 SWAP1 PUSH1 0x20 PUSH2 0x3B9 DUP3 DUP7 PUSH2 0x31F JUMP JUMPDEST CALLVALUE PUSH2 0x207 JUMPI PUSH2 0x3D4 PUSH2 0x5C3 CALLDATASIZE PUSH1 0x4 PUSH2 0x594 JUMP JUMPDEST SWAP1 PUSH2 0x1401 JUMP JUMPDEST SWAP1 SWAP2 PUSH1 0x60 DUP3 DUP5 SUB SLT PUSH2 0x207 JUMPI PUSH2 0x242 PUSH2 0x5E2 DUP5 DUP5 PUSH2 0x390 JUMP JUMPDEST SWAP4 PUSH1 0x40 PUSH2 0x3B9 DUP3 PUSH1 0x20 DUP8 ADD PUSH2 0x390 JUMP JUMPDEST PUSH2 0x3D4 PUSH2 0x600 CALLDATASIZE PUSH1 0x4 PUSH2 0x5C9 JUMP JUMPDEST SWAP2 PUSH2 0x1451 JUMP JUMPDEST CALLVALUE PUSH2 0x207 JUMPI PUSH2 0x616 CALLDATASIZE PUSH1 0x4 PUSH2 0x27B JUMP JUMPDEST PUSH2 0x3D4 PUSH2 0x16D6 JUMP JUMPDEST PUSH2 0x3D4 PUSH2 0x62C CALLDATASIZE PUSH1 0x4 PUSH2 0x5C9 JUMP JUMPDEST SWAP2 PUSH2 0x1702 JUMP JUMPDEST DUP1 ISZERO ISZERO PUSH2 0x218 JUMP JUMPDEST SWAP1 POP CALLDATALOAD SWAP1 PUSH2 0x22C DUP3 PUSH2 0x632 JUMP JUMPDEST SWAP1 PUSH1 0x20 DUP3 DUP3 SUB SLT PUSH2 0x207 JUMPI PUSH2 0x242 SWAP2 PUSH2 0x63A JUMP JUMPDEST CALLVALUE PUSH2 0x207 JUMPI PUSH2 0x3D4 PUSH2 0x66E CALLDATASIZE PUSH1 0x4 PUSH2 0x647 JUMP JUMPDEST PUSH2 0x1752 JUMP JUMPDEST SWAP1 PUSH1 0x20 DUP3 DUP3 SUB SLT PUSH2 0x207 JUMPI DUP2 CALLDATALOAD PUSH1 0x1 PUSH1 0x1 PUSH1 0x40 SHL SUB DUP2 GT PUSH2 0x207 JUMPI PUSH2 0x242 SWAP3 ADD PUSH2 0x480 JUMP JUMPDEST CALLVALUE PUSH2 0x207 JUMPI PUSH2 0x3D4 PUSH2 0x6AB CALLDATASIZE PUSH1 0x4 PUSH2 0x673 JUMP JUMPDEST PUSH2 0x17F7 JUMP JUMPDEST CALLVALUE PUSH2 0x207 JUMPI PUSH2 0x6C0 CALLDATASIZE PUSH1 0x4 PUSH2 0x27B JUMP JUMPDEST PUSH2 0x277 PUSH2 0x264 PUSH2 0x1800 JUMP JUMPDEST CALLVALUE PUSH2 0x207 JUMPI PUSH2 0x277 PUSH2 0x367 PUSH2 0x6E1 CALLDATASIZE PUSH1 0x4 PUSH2 0x32C JUMP JUMPDEST PUSH2 0x1829 JUMP JUMPDEST PUSH2 0x242 SWAP2 PUSH1 0x8 MUL SHR DUP2 JUMP JUMPDEST SWAP1 PUSH2 0x242 SWAP2 SLOAD PUSH2 0x6E6 JUMP JUMPDEST PUSH2 0x242 PUSH1 0x0 PUSH1 0x3 PUSH2 0x6F1 JUMP JUMPDEST CALLVALUE PUSH2 0x207 JUMPI PUSH2 0x718 CALLDATASIZE PUSH1 0x4 PUSH2 0x27B JUMP JUMPDEST PUSH2 0x277 PUSH2 0x584 PUSH2 0x6FC JUMP JUMPDEST SWAP1 PUSH1 0x20 DUP3 DUP3 SUB SLT PUSH2 0x207 JUMPI PUSH2 0x242 SWAP2 PUSH2 0x390 JUMP JUMPDEST CALLVALUE PUSH2 0x207 JUMPI PUSH2 0x277 PUSH2 0x584 PUSH2 0x74D CALLDATASIZE PUSH1 0x4 PUSH2 0x723 JUMP JUMPDEST PUSH2 0x185F JUMP JUMPDEST CALLVALUE PUSH2 0x207 JUMPI PUSH2 0x762 CALLDATASIZE PUSH1 0x4 PUSH2 0x27B JUMP JUMPDEST PUSH2 0x3D4 PUSH2 0x18D0 JUMP JUMPDEST CALLVALUE PUSH2 0x207 JUMPI PUSH2 0x77A CALLDATASIZE PUSH1 0x4 PUSH2 0x27B JUMP JUMPDEST PUSH2 0x3D4 PUSH2 0x18EB JUMP JUMPDEST CALLVALUE PUSH2 0x207 JUMPI PUSH2 0x792 CALLDATASIZE PUSH1 0x4 PUSH2 0x27B JUMP JUMPDEST PUSH2 0x277 PUSH2 0x367 PUSH2 0x18F3 JUMP JUMPDEST CALLVALUE PUSH2 0x207 JUMPI PUSH2 0x3D4 PUSH2 0x7B0 CALLDATASIZE PUSH1 0x4 PUSH2 0x673 JUMP JUMPDEST PUSH2 0x1963 JUMP JUMPDEST CALLVALUE PUSH2 0x207 JUMPI PUSH2 0x7C5 CALLDATASIZE PUSH1 0x4 PUSH2 0x27B JUMP JUMPDEST PUSH2 0x277 PUSH2 0x30D PUSH2 0x196C JUMP JUMPDEST PUSH2 0x242 SWAP2 PUSH1 0x8 MUL SHR JUMPDEST PUSH1 0xFF AND SWAP1 JUMP JUMPDEST SWAP1 PUSH2 0x242 SWAP2 SLOAD PUSH2 0x7D0 JUMP JUMPDEST PUSH2 0x242 PUSH1 0x0 PUSH1 0x4 PUSH2 0x7DF JUMP JUMPDEST CALLVALUE PUSH2 0x207 JUMPI PUSH2 0x806 CALLDATASIZE PUSH1 0x4 PUSH2 0x27B JUMP JUMPDEST PUSH2 0x277 PUSH2 0x264 PUSH2 0x7EA JUMP JUMPDEST SWAP2 SWAP1 PUSH1 0x40 DUP4 DUP3 SUB SLT PUSH2 0x207 JUMPI PUSH2 0x242 SWAP1 PUSH1 0x20 PUSH2 0x82D DUP3 DUP7 PUSH2 0x390 JUMP JUMPDEST SWAP5 ADD PUSH2 0x63A JUMP JUMPDEST CALLVALUE PUSH2 0x207 JUMPI PUSH2 0x3D4 PUSH2 0x847 CALLDATASIZE PUSH1 0x4 PUSH2 0x811 JUMP JUMPDEST SWAP1 PUSH2 0x1985 JUMP JUMPDEST PUSH1 0x1 PUSH1 0x1 PUSH1 0x40 SHL SUB DUP2 GT PUSH2 0x410 JUMPI PUSH1 0x20 DUP1 SWAP2 MUL ADD SWAP1 JUMP JUMPDEST SWAP1 SWAP3 SWAP2 SWAP3 PUSH2 0x874 PUSH2 0x461 DUP3 PUSH2 0x84D JUMP JUMPDEST SWAP4 DUP2 DUP6 MSTORE PUSH1 0x20 DUP1 DUP7 ADD SWAP3 MUL DUP4 ADD SWAP3 DUP2 DUP5 GT PUSH2 0x207 JUMPI SWAP2 JUMPDEST DUP4 DUP4 LT PUSH2 0x898 JUMPI POP POP POP POP JUMP JUMPDEST PUSH1 0x20 DUP1 SWAP2 PUSH2 0x8A6 DUP5 DUP7 PUSH2 0x31F JUMP JUMPDEST DUP2 MSTORE ADD SWAP3 ADD SWAP2 PUSH2 0x88B JUMP JUMPDEST SWAP1 DUP1 PUSH1 0x1F DUP4 ADD SLT ISZERO PUSH2 0x207 JUMPI DUP2 PUSH1 0x20 PUSH2 0x242 SWAP4 CALLDATALOAD SWAP2 ADD PUSH2 0x864 JUMP JUMPDEST SWAP1 PUSH1 0x20 DUP3 DUP3 SUB SLT PUSH2 0x207 JUMPI DUP2 CALLDATALOAD PUSH1 0x1 PUSH1 0x1 PUSH1 0x40 SHL SUB DUP2 GT PUSH2 0x207 JUMPI PUSH2 0x242 SWAP3 ADD PUSH2 0x8B1 JUMP JUMPDEST CALLVALUE PUSH2 0x207 JUMPI PUSH2 0x3D4 PUSH2 0x904 CALLDATASIZE PUSH1 0x4 PUSH2 0x8CC JUMP JUMPDEST PUSH2 0x1B97 JUMP JUMPDEST SWAP1 PUSH1 0x80 DUP3 DUP3 SUB SLT PUSH2 0x207 JUMPI PUSH2 0x91E DUP2 DUP4 PUSH2 0x390 JUMP JUMPDEST SWAP3 PUSH2 0x92C DUP3 PUSH1 0x20 DUP6 ADD PUSH2 0x390 JUMP JUMPDEST SWAP3 PUSH2 0x93A DUP4 PUSH1 0x40 DUP4 ADD PUSH2 0x31F JUMP JUMPDEST SWAP3 PUSH1 0x60 DUP3 ADD CALLDATALOAD PUSH1 0x1 PUSH1 0x1 PUSH1 0x40 SHL SUB DUP2 GT PUSH2 0x207 JUMPI PUSH2 0x242 SWAP3 ADD PUSH2 0x480 JUMP JUMPDEST PUSH2 0x3D4 PUSH2 0x966 CALLDATASIZE PUSH1 0x4 PUSH2 0x909 JUMP JUMPDEST SWAP3 SWAP2 SWAP1 SWAP2 PUSH2 0x1BA0 JUMP JUMPDEST CALLVALUE PUSH2 0x207 JUMPI PUSH2 0x277 PUSH2 0x30D PUSH2 0x985 CALLDATASIZE PUSH1 0x4 PUSH2 0x32C JUMP JUMPDEST PUSH2 0x1C05 JUMP JUMPDEST PUSH2 0x242 PUSH1 0x0 PUSH1 0x2 PUSH2 0x6F1 JUMP JUMPDEST CALLVALUE PUSH2 0x207 JUMPI PUSH2 0x9A6 CALLDATASIZE PUSH1 0x4 PUSH2 0x27B JUMP JUMPDEST PUSH2 0x277 PUSH2 0x584 PUSH2 0x98A JUMP JUMPDEST CALLVALUE PUSH2 0x207 JUMPI PUSH2 0x9C1 CALLDATASIZE PUSH1 0x4 PUSH2 0x27B JUMP JUMPDEST PUSH2 0x277 PUSH2 0x30D PUSH2 0x1C7F JUMP JUMPDEST SWAP2 SWAP1 PUSH1 0x40 DUP4 DUP3 SUB SLT PUSH2 0x207 JUMPI PUSH2 0x242 SWAP1 PUSH1 0x20 PUSH2 0x9E8 DUP3 DUP7 PUSH2 0x390 JUMP JUMPDEST SWAP5 ADD PUSH2 0x390 JUMP JUMPDEST CALLVALUE PUSH2 0x207 JUMPI PUSH2 0x277 PUSH2 0x264 PUSH2 0xA05 CALLDATASIZE PUSH1 0x4 PUSH2 0x9CC JUMP JUMPDEST SWAP1 PUSH2 0x1C89 JUMP JUMPDEST CALLVALUE PUSH2 0x207 JUMPI PUSH2 0x3D4 PUSH2 0xA1E CALLDATASIZE PUSH1 0x4 PUSH2 0x723 JUMP JUMPDEST PUSH2 0x1D10 JUMP JUMPDEST CALLVALUE PUSH2 0x207 JUMPI PUSH2 0x3D4 PUSH2 0xA36 CALLDATASIZE PUSH1 0x4 PUSH2 0x32C JUMP JUMPDEST PUSH2 0x1D55 JUMP JUMPDEST PUSH2 0xA4E PUSH2 0xA48 PUSH2 0x242 SWAP3 SWAP1 JUMP JUMPDEST PUSH1 0xE0 SHL SWAP1 JUMP JUMPDEST PUSH1 0x1 PUSH1 0x1 PUSH1 0xE0 SHL SUB NOT AND SWAP1 JUMP JUMPDEST PUSH2 0xA68 PUSH4 0x1FFC9A7 PUSH2 0xA3B JUMP JUMPDEST PUSH1 0x1 PUSH1 0x1 PUSH1 0xE0 SHL SUB NOT DUP3 AND EQ SWAP1 DUP2 ISZERO PUSH2 0xAAA JUMPI JUMPDEST DUP2 ISZERO PUSH2 0xA86 JUMPI POP SWAP1 JUMP JUMPDEST SWAP1 POP PUSH2 0xAA6 PUSH2 0xA98 PUSH4 0x5B5E139F PUSH2 0xA3B JUMP JUMPDEST SWAP2 PUSH1 0x1 PUSH1 0x1 PUSH1 0xE0 SHL SUB NOT AND SWAP1 JUMP JUMPDEST EQ SWAP1 JUMP JUMPDEST SWAP1 POP PUSH2 0xAB9 PUSH4 0x80AC58CD PUSH2 0xA3B JUMP JUMPDEST PUSH1 0x1 PUSH1 0x1 PUSH1 0xE0 SHL SUB NOT DUP3 AND EQ SWAP1 PUSH2 0xA7C JUMP JUMPDEST PUSH4 0x4E487B71 PUSH1 0xE0 SHL PUSH1 0x0 MSTORE PUSH1 0x22 PUSH1 0x4 MSTORE PUSH1 0x24 PUSH1 0x0 REVERT JUMPDEST SWAP1 PUSH1 0x1 PUSH1 0x2 DUP4 DIV SWAP3 AND DUP1 ISZERO PUSH2 0xB01 JUMPI JUMPDEST PUSH1 0x20 DUP4 LT EQ PUSH2 0xAFC JUMPI JUMP JUMPDEST PUSH2 0xACB JUMP JUMPDEST SWAP2 PUSH1 0x7F AND SWAP2 PUSH2 0xAF1 JUMP JUMPDEST DUP1 SLOAD PUSH1 0x0 SWAP4 SWAP3 SWAP2 PUSH2 0xB28 PUSH2 0xB1E DUP4 PUSH2 0xAE1 JUMP JUMPDEST DUP1 DUP6 MSTORE SWAP4 PUSH1 0x20 ADD SWAP1 JUMP JUMPDEST SWAP2 PUSH1 0x1 DUP2 AND SWAP1 DUP2 ISZERO PUSH2 0xB7A JUMPI POP PUSH1 0x1 EQ PUSH2 0xB41 JUMPI POP POP POP JUMP JUMPDEST PUSH2 0xB54 SWAP2 SWAP3 SWAP4 SWAP5 POP PUSH1 0x0 MSTORE PUSH1 0x20 PUSH1 0x0 KECCAK256 SWAP1 JUMP JUMPDEST SWAP2 PUSH1 0x0 SWAP3 JUMPDEST DUP2 DUP5 LT PUSH2 0xB66 JUMPI POP POP ADD SWAP1 JUMP JUMPDEST DUP1 SLOAD DUP5 DUP5 ADD MSTORE PUSH1 0x20 SWAP1 SWAP4 ADD SWAP3 PUSH1 0x1 ADD PUSH2 0xB59 JUMP JUMPDEST SWAP3 SWAP5 SWAP6 POP POP POP PUSH1 0xFF NOT AND DUP3 MSTORE ISZERO ISZERO PUSH1 0x20 MUL ADD SWAP1 JUMP JUMPDEST SWAP1 PUSH2 0x242 SWAP2 PUSH2 0xB0B JUMP JUMPDEST SWAP1 PUSH2 0x22C PUSH2 0xBB3 SWAP3 PUSH2 0xBAA PUSH1 0x40 MLOAD SWAP1 JUMP JUMPDEST SWAP4 DUP5 DUP1 SWAP3 PUSH2 0xB8F JUMP JUMPDEST SUB DUP4 PUSH2 0x3EF JUMP JUMPDEST PUSH2 0x242 SWAP1 PUSH2 0xB99 JUMP JUMPDEST PUSH2 0x242 PUSH1 0x2 PUSH1 0x0 DUP1 MLOAD PUSH1 0x20 PUSH2 0x2AD4 DUP4 CODECOPY DUP2 MLOAD SWAP2 MSTORE JUMPDEST ADD PUSH2 0xBBA JUMP JUMPDEST PUSH2 0x242 PUSH2 0x242 PUSH2 0x242 SWAP3 SWAP1 JUMP JUMPDEST SWAP1 PUSH2 0xBF5 SWAP1 PUSH2 0xBDE JUMP JUMPDEST PUSH1 0x0 MSTORE PUSH1 0x20 MSTORE PUSH1 0x40 PUSH1 0x0 KECCAK256 SWAP1 JUMP JUMPDEST PUSH2 0xC13 PUSH2 0xC0F DUP3 PUSH2 0x1D5E JUMP JUMPDEST ISZERO SWAP1 JUMP JUMPDEST PUSH2 0xC4B JUMPI PUSH1 0x0 PUSH2 0xC3D PUSH2 0x242 SWAP3 PUSH1 0x6 PUSH2 0xC37 PUSH1 0x0 DUP1 MLOAD PUSH1 0x20 PUSH2 0x2AD4 DUP4 CODECOPY DUP2 MLOAD SWAP2 MSTORE SWAP1 JUMP JUMPDEST ADD PUSH2 0xBEB JUMP JUMPDEST ADD SLOAD PUSH1 0x1 PUSH1 0x1 PUSH1 0xA0 SHL SUB AND SWAP1 JUMP JUMPDEST PUSH4 0x33D1C039 PUSH1 0xE2 SHL PUSH2 0x1D87 JUMP JUMPDEST PUSH2 0x22C SWAP2 PUSH1 0x1 SWAP2 PUSH2 0x1DB6 JUMP JUMPDEST PUSH2 0x242 SWAP1 PUSH1 0x40 SHR PUSH2 0x7D9 JUMP JUMPDEST PUSH2 0x242 SWAP1 SLOAD PUSH2 0xC64 JUMP JUMPDEST PUSH2 0x242 SWAP1 JUMPDEST PUSH1 0x1 PUSH1 0x1 PUSH1 0x40 SHL SUB AND SWAP1 JUMP JUMPDEST PUSH2 0x242 SWAP1 SLOAD PUSH2 0xC7A JUMP JUMPDEST PUSH2 0xC7F PUSH2 0x242 PUSH2 0x242 SWAP3 SWAP1 JUMP JUMPDEST PUSH2 0x242 SWAP1 PUSH2 0x340 SWAP1 PUSH1 0x1 PUSH1 0x1 PUSH1 0xA0 SHL SUB AND DUP3 JUMP JUMPDEST PUSH2 0x242 SWAP1 PUSH2 0xCA2 JUMP JUMPDEST PUSH2 0x242 SWAP1 PUSH2 0xCB6 JUMP JUMPDEST SWAP1 PUSH1 0x1 PUSH1 0x1 PUSH1 0x40 SHL SUB SWAP1 JUMPDEST SWAP2 DUP2 NOT AND SWAP2 AND OR SWAP1 JUMP JUMPDEST PUSH2 0xC7F PUSH2 0x242 PUSH2 0x242 SWAP3 PUSH1 0x1 PUSH1 0x1 PUSH1 0x40 SHL SUB AND SWAP1 JUMP JUMPDEST SWAP1 PUSH2 0xD03 PUSH2 0x242 PUSH2 0xD0A SWAP3 PUSH2 0xCDD JUMP JUMPDEST DUP3 SLOAD PUSH2 0xCC8 JUMP JUMPDEST SWAP1 SSTORE JUMP JUMPDEST SWAP1 PUSH9 0xFF0000000000000000 SWAP1 PUSH1 0x40 SHL PUSH2 0xCD3 JUMP JUMPDEST SWAP1 PUSH2 0xD32 PUSH2 0x242 PUSH2 0xD0A SWAP3 ISZERO ISZERO SWAP1 JUMP JUMPDEST DUP3 SLOAD PUSH2 0xD0E JUMP JUMPDEST PUSH2 0x245 SWAP1 PUSH2 0xC95 JUMP JUMPDEST PUSH1 0x20 DUP2 ADD SWAP3 SWAP2 PUSH2 0x22C SWAP2 SWAP1 PUSH2 0xD39 JUMP JUMPDEST SWAP7 SWAP6 SWAP1 SWAP4 SWAP5 SWAP3 SWAP2 SWAP3 PUSH2 0xD62 PUSH2 0x1E6E JUMP JUMPDEST SWAP6 DUP7 SWAP4 PUSH2 0xD7A PUSH2 0xD74 PUSH2 0xC0F DUP8 PUSH2 0xC70 JUMP JUMPDEST SWAP6 PUSH2 0xC8B JUMP JUMPDEST SWAP6 PUSH1 0x0 SWAP8 PUSH2 0xD87 DUP10 PUSH2 0xC95 JUMP JUMPDEST PUSH1 0x1 PUSH1 0x1 PUSH1 0x40 SHL SUB DUP10 AND EQ DUP1 PUSH2 0xE8A JUMPI JUMPDEST PUSH1 0x1 SWAP9 PUSH2 0xDB4 PUSH2 0xDA7 DUP12 PUSH2 0xC95 JUMP JUMPDEST SWAP2 PUSH1 0x1 PUSH1 0x1 PUSH1 0x40 SHL SUB AND SWAP1 JUMP JUMPDEST EQ SWAP1 DUP2 PUSH2 0xE62 JUMPI JUMPDEST ISZERO JUMPDEST SWAP1 DUP2 PUSH2 0xE59 JUMPI JUMPDEST POP PUSH2 0xE4A JUMPI DUP9 SWAP10 SWAP11 SWAP12 DUP8 PUSH2 0xDEA DUP11 SWAP12 PUSH2 0xDE1 PUSH2 0xDF3 SWAP12 SWAP13 PUSH2 0xC95 JUMP JUMPDEST SWAP15 ADD SWAP14 DUP15 PUSH2 0xCF3 JUMP JUMPDEST PUSH2 0xE3B JUMPI PUSH2 0x1053 JUMP JUMPDEST PUSH2 0xDFC JUMPI POP POP POP JUMP JUMPDEST PUSH2 0xE2A PUSH2 0xE36 SWAP3 PUSH32 0xC7F505B2F371AE2175EE4913F4499E1F2633A7B5936321EED1CDAEB6115181D2 SWAP5 PUSH2 0xD22 JUMP JUMPDEST PUSH1 0x40 MLOAD SWAP2 DUP3 SWAP2 DUP3 PUSH2 0xD42 JUMP JUMPDEST SUB SWAP1 LOG1 JUMP JUMPDEST PUSH2 0xE45 DUP11 DUP14 PUSH2 0xD22 JUMP JUMPDEST PUSH2 0x1053 JUMP JUMPDEST PUSH4 0xF92EE8A9 PUSH1 0xE0 SHL DUP10 MSTORE PUSH1 0x4 DUP10 REVERT JUMPDEST ISZERO SWAP1 POP CODESIZE PUSH2 0xDC5 JUMP JUMPDEST SWAP1 POP PUSH2 0xDBE PUSH2 0xE70 ADDRESS PUSH2 0xCBF JUMP JUMPDEST EXTCODESIZE PUSH2 0xE81 PUSH2 0xE7D DUP14 PUSH2 0xBDE JUMP JUMPDEST SWAP2 SWAP1 JUMP JUMPDEST EQ SWAP2 SWAP1 POP PUSH2 0xDBC JUMP JUMPDEST POP DUP7 PUSH2 0xD98 JUMP JUMPDEST SWAP1 PUSH1 0x0 NOT SWAP1 PUSH2 0xCD3 JUMP JUMPDEST SWAP1 PUSH2 0xEAB PUSH2 0x242 PUSH2 0xD0A SWAP3 PUSH2 0xBDE JUMP JUMPDEST DUP3 SLOAD PUSH2 0xE91 JUMP JUMPDEST SWAP2 PUSH1 0x0 NOT PUSH1 0x8 SWAP3 SWAP1 SWAP3 MUL SWAP2 DUP3 SHL SWAP2 SHL PUSH2 0xCD3 JUMP JUMPDEST SWAP2 SWAP1 PUSH2 0xED7 PUSH2 0x242 PUSH2 0xD0A SWAP4 PUSH2 0xBDE JUMP JUMPDEST SWAP1 DUP4 SLOAD PUSH2 0xEB2 JUMP JUMPDEST PUSH2 0x22C SWAP2 PUSH1 0x0 SWAP2 PUSH2 0xEC6 JUMP JUMPDEST DUP2 DUP2 LT PUSH2 0xEF6 JUMPI POP POP JUMP JUMPDEST DUP1 PUSH2 0xF04 PUSH1 0x0 PUSH1 0x1 SWAP4 PUSH2 0xEDF JUMP JUMPDEST ADD PUSH2 0xEEB JUMP JUMPDEST SWAP2 SWAP1 PUSH1 0x1F DUP2 GT PUSH2 0xF19 JUMPI POP POP POP JUMP JUMPDEST PUSH2 0xF2B PUSH2 0x22C SWAP4 PUSH1 0x0 MSTORE PUSH1 0x20 PUSH1 0x0 KECCAK256 SWAP1 JUMP JUMPDEST SWAP1 PUSH1 0x20 PUSH1 0x1F DUP5 ADD DUP2 SWAP1 DIV DUP4 ADD SWAP4 LT PUSH2 0xF4D JUMPI JUMPDEST PUSH1 0x20 PUSH1 0x1F SWAP1 SWAP2 ADD DIV ADD SWAP1 PUSH2 0xEEB JUMP JUMPDEST SWAP1 SWAP2 POP DUP2 SWAP1 PUSH2 0xF3E JUMP JUMPDEST SWAP1 PUSH2 0xF60 DUP2 MLOAD SWAP1 JUMP JUMPDEST SWAP1 PUSH1 0x1 PUSH1 0x1 PUSH1 0x40 SHL SUB DUP3 GT PUSH2 0x410 JUMPI PUSH2 0xF83 DUP3 PUSH2 0xF7D DUP6 SLOAD PUSH2 0xAE1 JUMP JUMPDEST DUP6 PUSH2 0xF0A JUMP JUMPDEST PUSH1 0x20 SWAP1 PUSH1 0x1F DUP4 GT PUSH1 0x1 EQ PUSH2 0xFBE JUMPI PUSH2 0xD0A SWAP3 SWAP2 PUSH1 0x0 SWAP2 DUP4 PUSH2 0xFB3 JUMPI JUMPDEST POP POP PUSH1 0x0 NOT PUSH1 0x8 DUP4 MUL SHR NOT AND SWAP1 PUSH1 0x2 MUL OR SWAP1 JUMP JUMPDEST ADD MLOAD SWAP1 POP CODESIZE DUP1 PUSH2 0xF9F JUMP JUMPDEST PUSH1 0x1F NOT DUP4 AND SWAP2 PUSH2 0xFD3 DUP6 PUSH1 0x0 MSTORE PUSH1 0x20 PUSH1 0x0 KECCAK256 SWAP1 JUMP JUMPDEST SWAP3 PUSH1 0x0 JUMPDEST DUP2 DUP2 LT PUSH2 0x1011 JUMPI POP SWAP2 PUSH1 0x2 SWAP4 SWAP2 DUP6 PUSH1 0x1 SWAP7 SWAP5 LT PUSH2 0xFF8 JUMPI JUMPDEST POP POP POP MUL ADD SWAP1 SSTORE JUMP JUMPDEST ADD MLOAD PUSH1 0x0 NOT PUSH1 0x8 PUSH1 0x1F DUP6 AND MUL SHR NOT AND SWAP1 SSTORE CODESIZE DUP1 DUP1 PUSH2 0xFEF JUMP JUMPDEST SWAP2 SWAP4 PUSH1 0x20 PUSH1 0x1 DUP2 SWAP3 DUP8 DUP8 ADD MLOAD DUP2 SSTORE ADD SWAP6 ADD SWAP3 ADD PUSH2 0xFD7 JUMP JUMPDEST SWAP1 PUSH2 0x22C SWAP2 PUSH2 0xF57 JUMP JUMPDEST SWAP1 PUSH1 0xFF SWAP1 PUSH2 0xCD3 JUMP JUMPDEST SWAP1 PUSH2 0x104C PUSH2 0x242 PUSH2 0xD0A SWAP3 ISZERO ISZERO SWAP1 JUMP JUMPDEST DUP3 SLOAD PUSH2 0x1033 JUMP JUMPDEST PUSH2 0x10AB SWAP7 SWAP6 SWAP4 PUSH2 0x108F PUSH2 0x109D SWAP5 PUSH2 0x1071 PUSH2 0x10A4 SWAP9 SWAP6 PUSH2 0x1096 SWAP6 PUSH2 0x1F39 JUMP JUMPDEST PUSH2 0x107A DUP2 PUSH2 0x1F58 JUMP JUMPDEST PUSH2 0x1082 PUSH2 0x1F69 JUMP JUMPDEST PUSH2 0x108A PUSH2 0x1F84 JUMP JUMPDEST PUSH2 0x1F8C JUMP JUMPDEST PUSH1 0x2 PUSH2 0xE9B JUMP JUMPDEST PUSH1 0x3 PUSH2 0xE9B JUMP JUMPDEST PUSH1 0x0 PUSH2 0x1029 JUMP JUMPDEST PUSH1 0x1 PUSH2 0x1029 JUMP JUMPDEST PUSH2 0x22C PUSH1 0x1 PUSH1 0x4 PUSH2 0x103C JUMP JUMPDEST SWAP1 PUSH2 0x22C SWAP7 SWAP6 SWAP5 SWAP4 SWAP3 SWAP2 PUSH2 0xD52 JUMP JUMPDEST PUSH2 0x242 SWAP1 DUP2 JUMP JUMPDEST PUSH2 0x242 SWAP1 SLOAD PUSH2 0x10C6 JUMP JUMPDEST PUSH1 0x0 DUP1 MLOAD PUSH1 0x20 PUSH2 0x2AD4 DUP4 CODECOPY DUP2 MLOAD SWAP2 MSTORE SWAP1 PUSH2 0x110F PUSH2 0x1107 PUSH2 0x10F6 DUP5 PUSH2 0x10CD JUMP JUMPDEST PUSH2 0x1102 PUSH1 0x1 DUP7 ADD PUSH2 0x10CD JUMP JUMPDEST SWAP1 SUB SWAP1 JUMP JUMPDEST PUSH2 0x1102 PUSH2 0x2006 JUMP JUMPDEST DUP1 SWAP3 PUSH2 0x111A PUSH1 0x0 NOT SWAP1 JUMP JUMPDEST PUSH1 0x1 ADD PUSH2 0x1125 JUMPI POP POP JUMP JUMPDEST PUSH2 0x242 SWAP3 SWAP4 POP PUSH1 0x8 PUSH2 0x2DD SWAP2 ADD PUSH2 0x10CD JUMP JUMPDEST SWAP1 PUSH2 0x22C SWAP2 PUSH2 0x1144 PUSH2 0x2010 JUMP JUMPDEST SWAP1 PUSH2 0x22C SWAP2 PUSH2 0x1151 PUSH2 0x204D JUMP JUMPDEST SWAP1 PUSH2 0x1163 SWAP2 PUSH2 0x115E PUSH2 0x2077 JUMP JUMPDEST PUSH2 0x12C3 JUMP JUMPDEST PUSH2 0x22C PUSH2 0x20D5 JUMP JUMPDEST PUSH2 0x242 SWAP1 PUSH2 0x7D9 JUMP JUMPDEST PUSH2 0x242 SWAP1 SLOAD PUSH2 0x116B JUMP JUMPDEST ISZERO PUSH2 0x1185 JUMPI JUMP JUMPDEST PUSH1 0x40 MLOAD PUSH3 0x461BCD PUSH1 0xE5 SHL DUP2 MSTORE PUSH1 0x20 PUSH1 0x4 DUP3 ADD MSTORE PUSH1 0x10 PUSH1 0x24 DUP3 ADD MSTORE PUSH16 0x1352539517D393D517D1539050931151 PUSH1 0x82 SHL PUSH1 0x44 DUP3 ADD MSTORE PUSH1 0x64 SWAP1 REVERT JUMPDEST PUSH4 0x4E487B71 PUSH1 0xE0 SHL PUSH1 0x0 MSTORE PUSH1 0x11 PUSH1 0x4 MSTORE PUSH1 0x24 PUSH1 0x0 REVERT JUMPDEST SWAP2 SWAP1 DUP3 ADD DUP1 SWAP3 GT PUSH2 0x11E0 JUMPI JUMP JUMPDEST PUSH2 0x11BD JUMP JUMPDEST ISZERO PUSH2 0x11EC JUMPI JUMP JUMPDEST PUSH1 0x40 MLOAD PUSH3 0x461BCD PUSH1 0xE5 SHL DUP2 MSTORE PUSH1 0x20 PUSH1 0x4 DUP3 ADD MSTORE PUSH1 0xC PUSH1 0x24 DUP3 ADD MSTORE PUSH12 0x13505617D15610D151511151 PUSH1 0xA2 SHL PUSH1 0x44 DUP3 ADD MSTORE PUSH1 0x64 SWAP1 REVERT JUMPDEST ISZERO PUSH2 0x1227 JUMPI JUMP JUMPDEST PUSH1 0x40 MLOAD PUSH3 0x461BCD PUSH1 0xE5 SHL DUP2 MSTORE PUSH1 0x20 PUSH1 0x4 DUP3 ADD MSTORE PUSH1 0x10 PUSH1 0x24 DUP3 ADD MSTORE PUSH16 0x494E56414C49445F5155414E54495459 PUSH1 0x80 SHL PUSH1 0x44 DUP3 ADD MSTORE PUSH1 0x64 SWAP1 REVERT JUMPDEST ISZERO PUSH2 0x1266 JUMPI JUMP JUMPDEST PUSH1 0x40 MLOAD PUSH3 0x461BCD PUSH1 0xE5 SHL DUP2 MSTORE PUSH1 0x20 PUSH1 0x4 DUP3 ADD MSTORE PUSH1 0xF PUSH1 0x24 DUP3 ADD MSTORE PUSH15 0x494E56414C49445F4741535F464545 PUSH1 0x88 SHL PUSH1 0x44 DUP3 ADD MSTORE PUSH1 0x64 SWAP1 REVERT JUMPDEST DUP2 DUP2 MUL SWAP3 SWAP2 DUP2 ISZERO SWAP2 DUP5 DIV EQ OR ISZERO PUSH2 0x11E0 JUMPI JUMP JUMPDEST SWAP1 DUP2 MSTORE PUSH1 0x40 DUP2 ADD SWAP3 SWAP2 PUSH2 0x22C SWAP2 PUSH1 0x20 ADD MSTORE JUMP JUMPDEST SWAP2 SWAP1 PUSH2 0x1342 SWAP1 PUSH2 0x12DB PUSH2 0x12D6 PUSH1 0x4 PUSH2 0x1174 JUMP JUMPDEST PUSH2 0x117E JUMP JUMPDEST PUSH2 0x1306 PUSH2 0x12EF DUP6 PUSH2 0x12EA PUSH2 0x210A JUMP JUMPDEST PUSH2 0x11D3 JUMP JUMPDEST PUSH2 0x12FF PUSH2 0xE7D PUSH2 0x242 PUSH1 0x2 PUSH2 0x10CD JUMP JUMPDEST GT ISZERO PUSH2 0x11E5 JUMP JUMPDEST PUSH2 0x131A PUSH2 0x1313 PUSH1 0x0 PUSH2 0xBDE JUMP JUMPDEST DUP6 GT PUSH2 0x1220 JUMP JUMPDEST PUSH2 0x132F PUSH2 0x1327 PUSH1 0x0 PUSH2 0xBDE JUMP JUMPDEST DUP3 LT ISZERO PUSH2 0x125F JUMP JUMPDEST PUSH2 0x133C PUSH4 0x3B9ACA00 PUSH2 0xBDE JUMP JUMPDEST SWAP1 PUSH2 0x129D JUMP JUMPDEST SWAP1 PUSH2 0x134B PUSH2 0x2126 JUMP JUMPDEST SWAP3 PUSH2 0x1356 DUP2 CALLER PUSH2 0x215D JUMP JUMPDEST PUSH2 0x1360 PUSH1 0x0 PUSH2 0xBDE JUMP JUMPDEST DUP2 DUP2 LT ISZERO PUSH2 0x13B7 JUMPI DUP1 PUSH2 0x137E PUSH2 0x1379 PUSH2 0x13B2 SWAP4 DUP9 PUSH2 0x11D3 JUMP JUMPDEST PUSH2 0xBDE JUMP JUMPDEST PUSH32 0xF00D28232B285F24F2E38415DEB2CEB31069E70D4505838B3911B4F02058502E PUSH2 0x13A8 PUSH1 0x40 MLOAD SWAP1 JUMP JUMPDEST PUSH1 0x0 SWAP1 LOG2 PUSH1 0x1 ADD SWAP1 JUMP JUMPDEST PUSH2 0x1360 JUMP JUMPDEST POP SWAP2 PUSH32 0x59F9FB6D992D2AEE0ED338BB4C504A17FD3F67AE91A3135BC2EF947E308C41B2 SWAP2 SWAP4 POP PUSH2 0x13E6 CALLER PUSH2 0xCBF JUMP JUMPDEST SWAP3 PUSH2 0x13FC PUSH2 0x13F3 PUSH1 0x40 MLOAD SWAP1 JUMP JUMPDEST SWAP3 DUP4 SWAP3 DUP4 PUSH2 0x12B0 JUMP JUMPDEST SUB SWAP1 LOG2 JUMP JUMPDEST SWAP1 PUSH2 0x22C SWAP2 PUSH2 0x1137 JUMP JUMPDEST PUSH2 0x242 SWAP1 DUP2 SWAP1 PUSH1 0x1 PUSH1 0x1 PUSH1 0xA0 SHL SUB AND DUP2 JUMP JUMPDEST PUSH2 0x242 PUSH1 0x1 PUSH1 0x1 PUSH1 0xA0 SHL SUB PUSH2 0xBDE JUMP JUMPDEST PUSH2 0x340 PUSH2 0x242 PUSH2 0x242 SWAP3 SWAP1 JUMP JUMPDEST SWAP1 PUSH2 0xBF5 SWAP1 PUSH2 0xCBF JUMP JUMPDEST PUSH2 0x242 PUSH1 0x1 PUSH1 0xE1 SHL PUSH2 0xBDE JUMP JUMPDEST SWAP2 SWAP1 SWAP2 PUSH2 0x146E PUSH2 0x1469 PUSH2 0x1463 DUP5 PUSH2 0x22ED JUMP JUMPDEST SWAP3 PUSH2 0xCB6 JUMP JUMPDEST PUSH2 0x140B JUMP JUMPDEST SWAP2 PUSH2 0x148A PUSH2 0x1485 PUSH2 0x147D PUSH2 0x141D JUMP JUMPDEST DUP1 SWAP6 AND PUSH2 0x142D JUMP JUMPDEST PUSH2 0xCB6 JUMP JUMPDEST SWAP4 PUSH2 0x1497 PUSH2 0x1485 DUP5 PUSH2 0x142D JUMP JUMPDEST PUSH2 0x14B2 PUSH1 0x1 PUSH1 0x1 PUSH1 0xA0 SHL SUB DUP8 AND JUMPDEST SWAP2 PUSH1 0x1 PUSH1 0x1 PUSH1 0xA0 SHL SUB AND SWAP1 JUMP JUMPDEST SUB PUSH2 0x16B7 JUMPI DUP5 SWAP3 PUSH2 0x14C2 DUP4 PUSH2 0x23ED JUMP JUMPDEST CALLER PUSH1 0x1 PUSH1 0x1 PUSH1 0xA0 SHL SUB DUP8 AND DUP2 EQ DUP3 DUP3 EQ OR ISZERO PUSH2 0x1688 JUMPI JUMPDEST POP PUSH2 0xE7D SWAP6 SWAP5 SWAP4 PUSH2 0x15FA SWAP8 SWAP4 PUSH2 0x15CE SWAP4 PUSH2 0x1469 SWAP4 PUSH2 0x167E JUMPI JUMPDEST POP PUSH1 0x0 DUP1 MLOAD PUSH1 0x20 PUSH2 0x2AD4 DUP4 CODECOPY DUP2 MLOAD SWAP2 MSTORE SWAP1 PUSH2 0x1568 PUSH2 0x1556 DUP5 PUSH32 0x2569078DFB4B0305704D3008E7403993AE9601B85F7AE5E742DE3DE8F8011C45 PUSH2 0x1551 PUSH2 0x1538 DUP14 DUP4 PUSH2 0x143A JUMP JUMPDEST PUSH2 0x154B PUSH2 0x1544 DUP3 PUSH2 0x10CD JUMP JUMPDEST PUSH1 0x0 NOT ADD SWAP1 JUMP JUMPDEST SWAP1 PUSH2 0xE9B JUMP JUMPDEST PUSH2 0x143A JUMP JUMPDEST PUSH2 0x154B PUSH2 0x1562 DUP3 PUSH2 0x10CD JUMP JUMPDEST PUSH1 0x1 ADD SWAP1 JUMP JUMPDEST PUSH2 0x1594 PUSH2 0x157E DUP3 DUP6 PUSH2 0x1578 PUSH2 0x1444 JUMP JUMPDEST SWAP12 PUSH2 0x2460 JUMP JUMPDEST TIMESTAMP PUSH1 0xA0 SHL SWAP1 DUP11 OR OR PUSH1 0x1 PUSH1 0x1 PUSH1 0xA0 SHL SUB DUP6 AND OR SWAP1 JUMP JUMPDEST PUSH2 0x15AB PUSH1 0x4 DUP5 ADD SWAP2 PUSH2 0x15A6 DUP11 DUP5 PUSH2 0xBEB JUMP JUMPDEST PUSH2 0xE9B JUMP JUMPDEST PUSH1 0x0 SWAP9 PUSH2 0x15C0 PUSH2 0x15BA DUP12 PUSH2 0xBDE JUMP JUMPDEST SWAP2 DUP5 AND SWAP1 JUMP JUMPDEST EQ PUSH2 0x160E JUMPI JUMPDEST POP POP POP PUSH2 0xCB6 JUMP JUMPDEST AND DUP1 SWAP6 PUSH32 0xDDF252AD1BE2C89B69C2B068FC378DAA952BA7F163C4A11628F55A4DF523B3EF DUP5 DUP1 LOG4 PUSH2 0xBDE JUMP JUMPDEST EQ PUSH2 0x1601 JUMPI JUMP JUMPDEST PUSH4 0x3A954ECD PUSH1 0xE2 SHL PUSH2 0x1D87 JUMP JUMPDEST DUP9 PUSH2 0x1621 PUSH2 0x161C PUSH1 0x1 PUSH2 0xBDE JUMP JUMPDEST DUP11 ADD SWAP1 JUMP JUMPDEST SWAP4 PUSH2 0x1634 PUSH2 0x162F DUP7 DUP6 PUSH2 0xBEB JUMP JUMPDEST PUSH2 0x10CD JUMP JUMPDEST PUSH2 0x1640 PUSH2 0xE7D DUP5 PUSH2 0xBDE JUMP JUMPDEST EQ PUSH2 0x164D JUMPI JUMPDEST POP POP PUSH2 0x15C6 JUMP JUMPDEST PUSH2 0x165B SWAP2 PUSH2 0x242 SWAP2 ADD PUSH2 0x10CD JUMP JUMPDEST DUP4 SUB PUSH2 0x1669 JUMPI JUMPDEST DUP9 DUP2 PUSH2 0x1646 JUMP JUMPDEST PUSH2 0x1676 SWAP3 PUSH2 0x15A6 SWAP2 PUSH2 0xBEB JUMP JUMPDEST CODESIZE DUP1 DUP1 PUSH2 0x1662 JUMP JUMPDEST PUSH1 0x0 SWAP1 SSTORE CODESIZE PUSH2 0x14F2 JUMP JUMPDEST PUSH2 0xC0F SWAP1 PUSH2 0x169A SWAP3 SWAP9 SWAP5 SWAP7 SWAP6 SWAP8 PUSH2 0x1C89 JUMP JUMPDEST PUSH2 0x16AA JUMPI DUP7 SWAP5 SWAP3 SWAP4 SWAP2 SWAP6 CODESIZE PUSH2 0x14D9 JUMP JUMPDEST PUSH4 0x2CE44B5F PUSH1 0xE1 SHL PUSH2 0x1D87 JUMP JUMPDEST PUSH3 0xA11481 PUSH1 0xE8 SHL PUSH2 0x1D87 JUMP JUMPDEST PUSH2 0x16CB PUSH2 0x2010 JUMP JUMPDEST PUSH2 0x22C PUSH2 0x22C PUSH2 0x2502 JUMP JUMPDEST PUSH2 0x22C PUSH2 0x16C3 JUMP JUMPDEST SWAP1 PUSH2 0x16EB PUSH2 0x461 DUP4 PUSH2 0x429 JUMP JUMPDEST SWAP2 DUP3 MSTORE JUMP JUMPDEST PUSH2 0x242 PUSH1 0x0 PUSH2 0x16DE JUMP JUMPDEST PUSH2 0x242 PUSH2 0x16F0 JUMP JUMPDEST SWAP1 SWAP2 PUSH2 0x22C SWAP3 PUSH2 0x1710 PUSH2 0x16FA JUMP JUMPDEST SWAP3 PUSH2 0x1BA0 JUMP JUMPDEST PUSH2 0x22C SWAP1 PUSH2 0x1722 PUSH2 0x2010 JUMP JUMPDEST PUSH2 0xE36 PUSH32 0xB6C727D83BACE6EEF762275CC927295DCD906C8041F03F05CF07685323BFB6DA SWAP2 PUSH2 0x264 DUP2 PUSH1 0x4 PUSH2 0x103C JUMP JUMPDEST PUSH2 0x22C SWAP1 PUSH2 0x1716 JUMP JUMPDEST PUSH2 0x22C SWAP1 PUSH2 0x1767 PUSH2 0x2010 JUMP JUMPDEST PUSH2 0x17B2 JUMP JUMPDEST PUSH2 0x2DD PUSH2 0x1784 SWAP3 PUSH1 0x20 SWAP3 PUSH2 0x177E DUP2 MLOAD SWAP1 JUMP JUMPDEST SWAP5 DUP6 SWAP3 SWAP1 JUMP JUMPDEST SWAP4 DUP5 SWAP2 ADD PUSH2 0x286 JUMP JUMPDEST PUSH2 0x242 SWAP2 PUSH2 0x176C JUMP JUMPDEST PUSH2 0x17AC SWAP1 PUSH2 0x17A3 PUSH1 0x40 MLOAD SWAP1 JUMP JUMPDEST SWAP2 DUP3 SWAP2 DUP3 PUSH2 0x178D JUMP JUMPDEST SUB SWAP1 KECCAK256 SWAP1 JUMP JUMPDEST PUSH2 0x17C6 SWAP1 PUSH2 0x17C1 DUP2 PUSH1 0x0 PUSH2 0x1029 JUMP JUMPDEST PUSH2 0x1796 JUMP JUMPDEST PUSH32 0x6741B2FC379FAD678116FE3D4D4B9A1A184AB53BA36B86AD0FA66340B1AB41AD PUSH2 0x17F0 PUSH1 0x40 MLOAD SWAP1 JUMP JUMPDEST DUP1 DUP1 PUSH2 0x13FC JUMP JUMPDEST PUSH2 0x22C SWAP1 PUSH2 0x175B JUMP JUMPDEST PUSH2 0x242 PUSH32 0xCD5ED15C6E187E77E9AEE88184C21F4F2182AB5827CB3B7E07FBEDCD63F03300 PUSH2 0x1174 JUMP JUMPDEST PUSH2 0x1485 PUSH2 0x1841 PUSH2 0x242 SWAP3 PUSH2 0x183B PUSH1 0x0 SWAP1 JUMP JUMPDEST POP PUSH2 0x22ED JUMP JUMPDEST PUSH2 0x142D JUMP JUMPDEST PUSH2 0x242 SWAP1 PUSH2 0x142D JUMP JUMPDEST PUSH2 0x242 PUSH1 0x1 PUSH1 0x1 PUSH1 0x40 SHL SUB PUSH2 0xBDE JUMP JUMPDEST PUSH2 0x186C PUSH2 0x340 PUSH1 0x0 PUSH2 0x1846 JUMP JUMPDEST PUSH1 0x1 PUSH1 0x1 PUSH1 0xA0 SHL SUB DUP3 AND EQ PUSH2 0x18AB JUMPI PUSH2 0x162F PUSH2 0x189F SWAP2 PUSH1 0x5 PUSH2 0x1899 PUSH1 0x0 DUP1 MLOAD PUSH1 0x20 PUSH2 0x2AD4 DUP4 CODECOPY DUP2 MLOAD SWAP2 MSTORE SWAP1 JUMP JUMPDEST ADD PUSH2 0x143A JUMP JUMPDEST PUSH2 0x18A7 PUSH2 0x184F JUMP JUMPDEST AND SWAP1 JUMP JUMPDEST PUSH4 0x23D3AD81 PUSH1 0xE2 SHL PUSH2 0x1D87 JUMP JUMPDEST PUSH2 0x18C0 PUSH2 0x2010 JUMP JUMPDEST PUSH2 0x22C PUSH2 0x22C PUSH2 0x108A PUSH1 0x0 PUSH2 0x1846 JUMP JUMPDEST PUSH2 0x22C PUSH2 0x18B8 JUMP JUMPDEST PUSH2 0x18E0 PUSH2 0x2010 JUMP JUMPDEST PUSH2 0x22C PUSH2 0x22C PUSH2 0x256C JUMP JUMPDEST PUSH2 0x22C PUSH2 0x18D8 JUMP JUMPDEST PUSH2 0x242 PUSH1 0x0 PUSH32 0x9016D09D72D40FDAE2FD8CEAC6B6234C7706214FD39C1CD1E609A0528C199300 PUSH2 0xC3D JUMP JUMPDEST PUSH2 0x22C SWAP1 PUSH2 0x192A PUSH2 0x2010 JUMP JUMPDEST PUSH2 0x1939 SWAP1 PUSH2 0x17C1 DUP2 PUSH1 0x1 PUSH2 0x1029 JUMP JUMPDEST PUSH32 0x905D981207A7D0B6C62CC46AB0BE2A076D0298E4A86D0AB79882DBD01AC37378 PUSH2 0x17F0 PUSH1 0x40 MLOAD SWAP1 JUMP JUMPDEST PUSH2 0x22C SWAP1 PUSH2 0x191E JUMP JUMPDEST PUSH2 0x242 PUSH1 0x3 PUSH1 0x0 DUP1 MLOAD PUSH1 0x20 PUSH2 0x2AD4 DUP4 CODECOPY DUP2 MLOAD SWAP2 MSTORE PUSH2 0xBD8 JUMP JUMPDEST PUSH32 0x17307EAB39AB6107E8899845AD3D59BD9653F200F220920489CA2B5937696C31 PUSH2 0x19FC PUSH2 0x19F2 PUSH2 0x19EC CALLER PUSH2 0x19E7 DUP8 PUSH2 0x19E2 DUP9 PUSH2 0x1551 DUP6 PUSH32 0x2569078DFB4B0305704D3008E7403993AE9601B85F7AE5E742DE3DE8F8011C47 PUSH2 0x143A JUMP JUMPDEST PUSH2 0x103C JUMP JUMPDEST PUSH2 0xCBF JUMP JUMPDEST SWAP4 PUSH2 0xCBF JUMP JUMPDEST SWAP4 PUSH2 0x268 PUSH1 0x40 MLOAD SWAP1 JUMP JUMPDEST SUB SWAP1 LOG3 JUMP JUMPDEST PUSH2 0x22C SWAP1 PUSH2 0x1A0D PUSH2 0x2010 JUMP JUMPDEST PUSH2 0x22C SWAP1 PUSH2 0x1A19 PUSH2 0x204D JUMP JUMPDEST PUSH2 0x1163 SWAP1 PUSH2 0x1A25 PUSH2 0x2077 JUMP JUMPDEST PUSH2 0x1ADD JUMP JUMPDEST PUSH4 0x4E487B71 PUSH1 0xE0 SHL PUSH1 0x0 MSTORE PUSH1 0x32 PUSH1 0x4 MSTORE PUSH1 0x24 PUSH1 0x0 REVERT JUMPDEST SWAP1 PUSH2 0x1A49 DUP3 MLOAD SWAP1 JUMP JUMPDEST DUP2 LT ISZERO PUSH2 0x1A5A JUMPI PUSH1 0x20 DUP1 SWAP2 MUL ADD ADD SWAP1 JUMP JUMPDEST PUSH2 0x1A2A JUMP JUMPDEST ISZERO PUSH2 0x1A66 JUMPI JUMP JUMPDEST PUSH1 0x40 MLOAD PUSH3 0x461BCD PUSH1 0xE5 SHL DUP2 MSTORE PUSH1 0x20 PUSH1 0x4 DUP3 ADD MSTORE PUSH1 0x14 PUSH1 0x24 DUP3 ADD MSTORE PUSH20 0x1513D2D15397D113D154D7D393D517D1561254D5 PUSH1 0x62 SHL PUSH1 0x44 DUP3 ADD MSTORE PUSH1 0x64 SWAP1 REVERT JUMPDEST ISZERO PUSH2 0x1AA9 JUMPI JUMP JUMPDEST PUSH1 0x40 MLOAD PUSH3 0x461BCD PUSH1 0xE5 SHL DUP2 MSTORE PUSH1 0x20 PUSH1 0x4 DUP3 ADD MSTORE PUSH1 0xC PUSH1 0x24 DUP3 ADD MSTORE PUSH12 0x1393D517D054141493D59151 PUSH1 0xA2 SHL PUSH1 0x44 DUP3 ADD MSTORE PUSH1 0x64 SWAP1 REVERT JUMPDEST SWAP1 PUSH2 0x1AE8 PUSH1 0x0 PUSH2 0xBDE JUMP JUMPDEST PUSH2 0x1AF3 PUSH2 0x242 DUP5 MLOAD SWAP1 JUMP JUMPDEST DUP2 LT ISZERO PUSH2 0x1B92 JUMPI DUP1 PUSH2 0x1B1F PUSH2 0x1B1A PUSH2 0x1B15 PUSH2 0x1B11 PUSH2 0x1B8D SWAP6 DUP9 PUSH2 0x1A40 JUMP JUMPDEST MLOAD SWAP1 JUMP JUMPDEST PUSH2 0x1D5E JUMP JUMPDEST PUSH2 0x1A5F JUMP JUMPDEST PUSH2 0x1B3E PUSH2 0x1B39 PUSH2 0x1B32 PUSH2 0x1B11 DUP5 DUP9 PUSH2 0x1A40 JUMP JUMPDEST CALLER SWAP1 PUSH2 0x2574 JUMP JUMPDEST PUSH2 0x1AA2 JUMP JUMPDEST PUSH2 0x1B53 PUSH2 0x1B4E PUSH2 0x1B11 DUP4 DUP8 PUSH2 0x1A40 JUMP JUMPDEST PUSH2 0x25DB JUMP JUMPDEST PUSH2 0x1B63 PUSH2 0x1379 PUSH2 0x1B11 DUP4 DUP8 PUSH2 0x1A40 JUMP JUMPDEST PUSH32 0xC526103B8F47AF5516191D0C89A598755BD00FAA211A3CB52E4C2CC782F7FE2 PUSH2 0x13A8 PUSH1 0x40 MLOAD SWAP1 JUMP JUMPDEST PUSH2 0x1AE8 JUMP JUMPDEST POP SWAP1 POP JUMP JUMPDEST PUSH2 0x22C SWAP1 PUSH2 0x1A01 JUMP JUMPDEST SWAP2 SWAP3 SWAP1 SWAP3 PUSH2 0x1BAF DUP2 DUP6 DUP6 PUSH2 0x1451 JUMP JUMPDEST DUP4 EXTCODESIZE PUSH2 0x1BBE PUSH2 0xE7D PUSH1 0x0 PUSH2 0xBDE JUMP JUMPDEST SUB PUSH2 0x1BCA JUMPI JUMPDEST POP POP POP POP JUMP JUMPDEST PUSH2 0x1BD7 SWAP4 PUSH2 0xC0F SWAP4 PUSH2 0x266A JUMP JUMPDEST PUSH2 0x1BE4 JUMPI CODESIZE DUP1 DUP1 DUP1 PUSH2 0x1BC4 JUMP JUMPDEST PUSH4 0x68D2BF6B PUSH1 0xE1 SHL PUSH2 0x1D87 JUMP JUMPDEST PUSH2 0x1BFF SWAP1 PUSH2 0x242 SWAP4 SWAP3 PUSH2 0x176C JUMP JUMPDEST SWAP1 PUSH2 0x176C JUMP JUMPDEST PUSH2 0x1C11 PUSH2 0xC0F DUP3 PUSH2 0x1D5E JUMP JUMPDEST PUSH2 0x1C72 JUMPI PUSH2 0x1C1D PUSH2 0x2729 JUMP JUMPDEST DUP1 MLOAD PUSH2 0x1C2C PUSH2 0xE7D PUSH1 0x0 PUSH2 0xBDE JUMP JUMPDEST EQ PUSH2 0x1C68 JUMPI PUSH2 0x242 PUSH2 0x1C5C SWAP2 PUSH2 0x1C44 PUSH2 0x242 SWAP5 PUSH2 0x2733 JUMP JUMPDEST SWAP1 PUSH2 0x1C4E PUSH1 0x40 MLOAD SWAP1 JUMP JUMPDEST SWAP4 DUP5 SWAP3 PUSH1 0x20 DUP5 ADD SWAP3 DUP4 PUSH2 0x1BF1 JUMP JUMPDEST SWAP1 DUP2 SUB DUP3 MSTORE SUB DUP3 PUSH2 0x3EF JUMP JUMPDEST POP POP PUSH2 0x242 PUSH2 0x16FA JUMP JUMPDEST PUSH4 0xA14C4B5 PUSH1 0xE4 SHL PUSH2 0x1D87 JUMP JUMPDEST PUSH2 0x242 PUSH1 0x1 PUSH2 0xBBA JUMP JUMPDEST PUSH2 0x242 SWAP2 PUSH2 0x1551 PUSH2 0x1CB3 SWAP3 PUSH2 0x1C9C PUSH1 0x0 SWAP1 JUMP JUMPDEST POP PUSH1 0x7 PUSH1 0x0 DUP1 MLOAD PUSH1 0x20 PUSH2 0x2AD4 DUP4 CODECOPY DUP2 MLOAD SWAP2 MSTORE PUSH2 0x1899 JUMP JUMPDEST PUSH2 0x1174 JUMP JUMPDEST PUSH2 0x22C SWAP1 PUSH2 0x1CC4 PUSH2 0x2010 JUMP JUMPDEST PUSH1 0x0 PUSH2 0x1CCF DUP2 PUSH2 0x1846 JUMP JUMPDEST PUSH1 0x1 PUSH1 0x1 PUSH1 0xA0 SHL SUB DUP2 AND PUSH1 0x1 PUSH1 0x1 PUSH1 0xA0 SHL SUB DUP5 AND EQ PUSH2 0x1CF3 JUMPI POP POP PUSH2 0x22C SWAP1 PUSH2 0x1F8C JUMP JUMPDEST PUSH4 0x1E4FBDF7 PUSH1 0xE0 SHL DUP3 MSTORE PUSH1 0x1 PUSH1 0x1 PUSH1 0xA0 SHL SUB AND PUSH1 0x4 DUP3 ADD MSTORE PUSH1 0x24 SWAP1 REVERT JUMPDEST PUSH2 0x22C SWAP1 PUSH2 0x1CB8 JUMP JUMPDEST PUSH2 0x22C SWAP1 PUSH2 0x1D25 PUSH2 0x2010 JUMP JUMPDEST PUSH2 0xE36 PUSH32 0x525B762709CC2A983AEC5CCDFD807A061F993C91090B5BCD7DA92CA254976AAA SWAP2 PUSH2 0x584 DUP2 PUSH1 0x3 PUSH2 0xE9B JUMP JUMPDEST PUSH2 0x22C SWAP1 PUSH2 0x1D19 JUMP JUMPDEST PUSH2 0x1D66 PUSH2 0x2006 JUMP JUMPDEST DUP2 LT ISZERO SWAP1 DUP2 PUSH2 0x1D73 JUMPI POP SWAP1 JUMP JUMPDEST SWAP1 POP PUSH2 0x1D83 PUSH2 0xE7D PUSH2 0x242 PUSH2 0x2126 JUMP JUMPDEST LT SWAP1 JUMP JUMPDEST PUSH1 0x0 MSTORE PUSH1 0x4 PUSH1 0x0 REVERT JUMPDEST SWAP1 PUSH1 0x1 PUSH1 0x1 PUSH1 0xA0 SHL SUB SWAP1 PUSH2 0xCD3 JUMP JUMPDEST SWAP1 PUSH2 0x1DAF PUSH2 0x242 PUSH2 0xD0A SWAP3 PUSH2 0xCBF JUMP JUMPDEST DUP3 SLOAD PUSH2 0x1D90 JUMP JUMPDEST SWAP2 PUSH2 0x1DC0 DUP3 PUSH2 0x1829 JUMP JUMPDEST SWAP1 DUP1 PUSH2 0x1E53 JUMPI JUMPDEST PUSH2 0x1E34 JUMPI JUMPDEST PUSH2 0x1DFD PUSH2 0x19EC PUSH2 0x1E03 SWAP3 PUSH2 0x19E7 DUP7 PUSH1 0x0 PUSH2 0x1DF7 DUP9 PUSH1 0x6 PUSH2 0xC37 PUSH1 0x0 DUP1 MLOAD PUSH1 0x20 PUSH2 0x2AD4 DUP4 CODECOPY DUP2 MLOAD SWAP2 MSTORE SWAP1 JUMP JUMPDEST ADD PUSH2 0x1D9F JUMP JUMPDEST SWAP2 PUSH2 0xBDE JUMP JUMPDEST SWAP2 PUSH32 0x8C5BE1E5EBEC7D5BD14F71427D1E84F3DD0314C0F7B2291E5B200AC8C7C3B925 PUSH2 0x1E2E PUSH1 0x40 MLOAD SWAP1 JUMP JUMPDEST PUSH1 0x0 SWAP1 LOG4 JUMP JUMPDEST PUSH2 0x1E41 PUSH2 0xC0F CALLER DUP4 PUSH2 0x1C89 JUMP JUMPDEST ISZERO PUSH2 0x1DCC JUMPI PUSH4 0x67D9DCA1 PUSH1 0xE1 SHL PUSH2 0x1D87 JUMP JUMPDEST POP CALLER PUSH2 0x1E67 PUSH1 0x1 PUSH1 0x1 PUSH1 0xA0 SHL SUB DUP4 AND PUSH2 0x14A5 JUMP JUMPDEST EQ ISZERO PUSH2 0x1DC7 JUMP JUMPDEST PUSH2 0x242 PUSH2 0x27A1 JUMP JUMPDEST PUSH2 0x242 SWAP1 PUSH1 0x8 SHR PUSH2 0x7D9 JUMP JUMPDEST PUSH2 0x242 SWAP1 SLOAD PUSH2 0x1E76 JUMP JUMPDEST ISZERO PUSH2 0x1E93 JUMPI JUMP JUMPDEST PUSH1 0x40 MLOAD PUSH3 0x461BCD PUSH1 0xE5 SHL DUP2 MSTORE PUSH1 0x20 PUSH1 0x4 DUP3 ADD MSTORE PUSH1 0x34 PUSH1 0x24 DUP3 ADD MSTORE PUSH32 0x455243373231415F5F496E697469616C697A61626C653A20636F6E7472616374 PUSH1 0x44 DUP3 ADD MSTORE PUSH20 0x206973206E6F7420696E697469616C697A696E67 PUSH1 0x60 SHL PUSH1 0x64 DUP3 ADD MSTORE PUSH1 0x84 SWAP1 REVERT JUMPDEST PUSH2 0x22C SWAP2 SWAP1 PUSH2 0x1F2F PUSH2 0x1F2A PUSH1 0x0 PUSH32 0xEE151C8401928DC223602BB187AFF91B9A56C7CAE5476EF1B3287B085A16C85F JUMPDEST ADD PUSH2 0x1E82 JUMP JUMPDEST PUSH2 0x1E8C JUMP JUMPDEST SWAP1 PUSH2 0x22C SWAP2 PUSH2 0x2843 JUMP JUMPDEST SWAP1 PUSH2 0x22C SWAP2 PUSH2 0x1EF5 JUMP JUMPDEST PUSH2 0x22C SWAP1 PUSH2 0x1F4F PUSH2 0x284D JUMP JUMPDEST PUSH2 0x22C SWAP1 PUSH2 0x287C JUMP JUMPDEST PUSH2 0x22C SWAP1 PUSH2 0x1F43 JUMP JUMPDEST PUSH2 0x22C PUSH2 0x284D JUMP JUMPDEST PUSH2 0x22C PUSH2 0x1F61 JUMP JUMPDEST PUSH2 0x1F79 PUSH2 0x284D JUMP JUMPDEST PUSH2 0x22C PUSH2 0x22C PUSH2 0x288D JUMP JUMPDEST PUSH2 0x22C PUSH2 0x1F71 JUMP JUMPDEST PUSH2 0x1FD4 PUSH2 0x1FCE PUSH32 0x9016D09D72D40FDAE2FD8CEAC6B6234C7706214FD39C1CD1E609A0528C199300 PUSH2 0x19E7 DUP5 PUSH2 0x1FC8 DUP4 SLOAD PUSH1 0x1 PUSH1 0x1 PUSH1 0xA0 SHL SUB AND SWAP1 JUMP JUMPDEST SWAP3 PUSH2 0x1D9F JUMP JUMPDEST SWAP2 PUSH2 0xCBF JUMP JUMPDEST SWAP1 PUSH32 0x8BE0079C531659141344CD1FD0A4F28419497F9722A3DAAFE3B4186F6B6457E0 PUSH2 0x1FFF PUSH1 0x40 MLOAD SWAP1 JUMP JUMPDEST DUP1 DUP1 PUSH2 0x19FC JUMP JUMPDEST PUSH2 0x242 PUSH1 0x0 PUSH2 0xBDE JUMP JUMPDEST PUSH2 0x2018 PUSH2 0x18F3 JUMP JUMPDEST CALLER SWAP1 PUSH2 0x2023 DUP3 PUSH2 0x14A5 JUMP JUMPDEST SUB PUSH2 0x202B JUMPI POP JUMP JUMPDEST PUSH4 0x118CDAA7 PUSH1 0xE0 SHL PUSH1 0x0 SWAP1 DUP2 MSTORE PUSH1 0x1 PUSH1 0x1 PUSH1 0xA0 SHL SUB SWAP1 SWAP2 AND PUSH1 0x4 MSTORE PUSH1 0x24 SUB PUSH1 0x0 REVERT JUMPDEST PUSH2 0x2055 PUSH2 0x1800 JUMP JUMPDEST PUSH2 0x205B JUMPI JUMP JUMPDEST PUSH4 0xD93C0665 PUSH1 0xE0 SHL PUSH1 0x0 SWAP1 DUP2 MSTORE PUSH1 0x4 SWAP1 REVERT JUMPDEST PUSH2 0x242 PUSH1 0x2 PUSH2 0xBDE JUMP JUMPDEST PUSH32 0x9B779B17422D0DF92223018B32B4D1FA46E071723D6817E2486D003BECC55F00 PUSH2 0x20A1 DUP2 PUSH2 0x10CD JUMP JUMPDEST PUSH2 0x20A9 PUSH2 0x206D JUMP JUMPDEST SWAP1 DUP2 EQ PUSH2 0x20B9 JUMPI PUSH2 0x22C SWAP2 PUSH2 0xE9B JUMP JUMPDEST PUSH4 0x3EE5AEB5 PUSH1 0xE0 SHL PUSH1 0x0 SWAP1 DUP2 MSTORE PUSH1 0x4 SWAP1 REVERT JUMPDEST PUSH2 0x242 PUSH1 0x1 PUSH2 0xBDE JUMP JUMPDEST PUSH2 0x22C PUSH32 0x9B779B17422D0DF92223018B32B4D1FA46E071723D6817E2486D003BECC55F00 PUSH1 0x0 PUSH2 0x2103 PUSH2 0x20CB JUMP JUMPDEST SWAP2 ADD PUSH2 0xE9B JUMP JUMPDEST PUSH1 0x0 DUP1 MLOAD PUSH1 0x20 PUSH2 0x2AD4 DUP4 CODECOPY DUP2 MLOAD SWAP2 MSTORE SWAP1 PUSH2 0x110F PUSH2 0x1107 DUP4 PUSH2 0x10CD JUMP JUMPDEST PUSH2 0x242 PUSH1 0x0 DUP1 MLOAD PUSH1 0x20 PUSH2 0x2AD4 DUP4 CODECOPY DUP2 MLOAD SWAP2 MSTORE PUSH2 0x10CD JUMP JUMPDEST PUSH2 0x242 PUSH1 0x40 PUSH2 0xBDE JUMP JUMPDEST PUSH2 0x242 SWAP1 PUSH2 0x2158 PUSH2 0xE7D PUSH2 0x242 SWAP5 SWAP1 JUMP JUMPDEST SWAP1 SHL SWAP1 JUMP JUMPDEST SWAP1 SWAP2 SWAP1 PUSH1 0x0 DUP1 MLOAD PUSH1 0x20 PUSH2 0x2AD4 DUP4 CODECOPY DUP2 MLOAD SWAP2 MSTORE SWAP1 PUSH2 0x2179 DUP3 PUSH2 0x10CD JUMP JUMPDEST SWAP2 PUSH1 0x0 SWAP2 PUSH2 0x2186 DUP4 PUSH2 0xBDE JUMP JUMPDEST DUP7 EQ PUSH2 0x22D3 JUMPI DUP1 DUP7 PUSH2 0x21E3 PUSH2 0x21D6 PUSH2 0x21A4 PUSH2 0x220D SWAP11 PUSH1 0x1 EQ PUSH1 0xE1 SHL SWAP1 JUMP JUMPDEST PUSH2 0x21C1 PUSH2 0x21B0 DUP10 PUSH2 0x1846 JUMP JUMPDEST PUSH2 0x21B9 DUP11 PUSH2 0xBDE JUMP JUMPDEST SWAP8 DUP9 SWAP2 PUSH2 0x2460 JUMP JUMPDEST TIMESTAMP PUSH1 0xA0 SHL SWAP2 OR OR PUSH1 0x1 PUSH1 0x1 PUSH1 0xA0 SHL SUB DUP6 AND OR SWAP1 JUMP JUMPDEST PUSH2 0x15A6 DUP9 PUSH1 0x4 DUP9 ADD PUSH2 0xBEB JUMP JUMPDEST PUSH2 0x222D PUSH2 0x1469 PUSH1 0x1 SWAP4 PUSH2 0x1485 PUSH2 0x2213 PUSH2 0x21FA PUSH2 0x213D JUMP JUMPDEST PUSH2 0x2204 PUSH1 0x1 PUSH2 0xBDE JUMP JUMPDEST SWAP14 DUP15 SWAP2 DUP3 PUSH2 0x2147 JUMP JUMPDEST OR DUP7 MUL SWAP1 JUMP JUMPDEST PUSH2 0x154B PUSH2 0x2223 DUP5 PUSH1 0x5 DUP13 ADD PUSH2 0x143A JUMP JUMPDEST SWAP2 PUSH2 0x2DD DUP4 PUSH2 0x10CD JUMP JUMPDEST PUSH2 0x2235 PUSH2 0x141D JUMP JUMPDEST AND SWAP3 DUP4 EQ PUSH2 0x22C7 JUMPI PUSH2 0x224A SWAP1 DUP7 ADD SWAP6 SWAP8 DUP7 SUB SWAP1 JUMP JUMPDEST PUSH2 0x2255 PUSH1 0x0 NOT PUSH2 0xE7D JUMP JUMPDEST GT PUSH2 0x22BA JUMPI PUSH1 0x1 DUP2 JUMPDEST PUSH2 0x2272 JUMPI JUMPDEST POP POP POP PUSH2 0x22C SWAP4 SWAP5 POP ADD PUSH2 0xE9B JUMP JUMPDEST ISZERO PUSH2 0x22A8 JUMPI JUMPDEST DUP4 SWAP1 DUP8 DUP4 DUP7 PUSH32 0xDDF252AD1BE2C89B69C2B068FC378DAA952BA7F163C4A11628F55A4DF523B3EF DUP2 DUP1 LOG4 SWAP1 DUP2 PUSH2 0x225E JUMP JUMPDEST SWAP6 PUSH1 0x1 ADD SWAP6 DUP5 DUP8 SUB PUSH2 0x2278 JUMPI DUP1 PUSH2 0x2263 JUMP JUMPDEST PUSH4 0x40B23F1D PUSH1 0xE1 SHL PUSH2 0x1D87 JUMP JUMPDEST PUSH3 0x2E0763 PUSH1 0xE8 SHL PUSH2 0x1D87 JUMP JUMPDEST PUSH4 0xB562E8DD PUSH1 0xE0 SHL PUSH2 0x1D87 JUMP JUMPDEST PUSH2 0x242 PUSH1 0x1 PUSH1 0xE0 SHL PUSH2 0xBDE JUMP JUMPDEST PUSH2 0x22F5 PUSH2 0x2006 JUMP JUMPDEST DUP2 LT ISZERO PUSH2 0x230A JUMPI JUMPDEST PUSH4 0x6F96CDA1 PUSH1 0xE1 SHL PUSH2 0x1D87 JUMP JUMPDEST PUSH1 0x0 DUP1 MLOAD PUSH1 0x20 PUSH2 0x2AD4 DUP4 CODECOPY DUP2 MLOAD SWAP2 MSTORE PUSH32 0x2569078DFB4B0305704D3008E7403993AE9601B85F7AE5E742DE3DE8F8011C44 PUSH2 0x2347 PUSH2 0x162F DUP5 DUP4 PUSH2 0xBEB JUMP JUMPDEST SWAP3 PUSH1 0x0 SWAP3 PUSH2 0x2354 DUP5 PUSH2 0xBDE JUMP JUMPDEST DUP6 EQ PUSH2 0x237F JUMPI POP POP POP PUSH2 0x2377 PUSH2 0x2371 PUSH2 0x236B PUSH2 0x22E0 JUMP JUMPDEST SWAP3 PUSH2 0xBDE JUMP JUMPDEST SWAP2 DUP4 AND SWAP1 JUMP JUMPDEST SUB PUSH2 0x22FD JUMPI SWAP1 JUMP JUMPDEST DUP4 PUSH2 0x2392 SWAP3 SWAP4 SWAP5 SWAP6 POP PUSH2 0x242 SWAP2 ADD PUSH2 0x10CD JUMP JUMPDEST DUP2 LT ISZERO PUSH2 0x22FD JUMPI SWAP1 SWAP2 SWAP1 PUSH1 0x0 NOT ADD JUMPDEST SWAP2 PUSH2 0x23AF PUSH2 0x162F DUP5 DUP4 PUSH2 0xBEB JUMP JUMPDEST SWAP3 PUSH2 0x23B9 DUP4 PUSH2 0xBDE JUMP JUMPDEST DUP5 EQ PUSH2 0x23E1 JUMPI POP POP PUSH2 0x23CF PUSH2 0x2371 PUSH2 0x236B PUSH2 0x22E0 JUMP JUMPDEST EQ PUSH2 0x242 JUMPI PUSH4 0x6F96CDA1 PUSH1 0xE1 SHL PUSH2 0x1D87 JUMP JUMPDEST SWAP1 SWAP3 POP PUSH1 0x0 NOT ADD PUSH2 0x23A1 JUMP JUMPDEST PUSH2 0x242 PUSH2 0x2413 SWAP2 PUSH2 0x23FC PUSH1 0x0 SWAP1 JUMP JUMPDEST POP PUSH1 0x6 PUSH1 0x0 DUP1 MLOAD PUSH1 0x20 PUSH2 0x2AD4 DUP4 CODECOPY DUP2 MLOAD SWAP2 MSTORE PUSH2 0xC37 JUMP JUMPDEST SWAP1 DUP2 SLOAD SWAP1 JUMP JUMPDEST PUSH2 0x242 PUSH1 0xE8 PUSH2 0xBDE JUMP JUMPDEST PUSH2 0x242 SWAP1 PUSH2 0x2434 PUSH2 0xE7D PUSH2 0x242 SWAP5 SWAP1 JUMP JUMPDEST SWAP1 SHR SWAP1 JUMP JUMPDEST PUSH2 0x2446 PUSH2 0x242 PUSH2 0x242 SWAP3 SWAP1 JUMP JUMPDEST PUSH3 0xFFFFFF AND SWAP1 JUMP JUMPDEST PUSH2 0x242 PUSH2 0x242 PUSH2 0x242 SWAP3 PUSH3 0xFFFFFF AND SWAP1 JUMP JUMPDEST PUSH2 0x2495 PUSH2 0x249A SWAP2 PUSH2 0x242 SWAP5 SWAP4 PUSH2 0x2474 PUSH1 0x0 SWAP1 JUMP JUMPDEST POP PUSH2 0x248F PUSH2 0x248A PUSH2 0x2483 PUSH2 0x2419 JUMP JUMPDEST DUP1 SWAP8 PUSH2 0x2423 JUMP JUMPDEST PUSH2 0x2439 JUMP JUMPDEST SWAP2 PUSH2 0x2895 JUMP JUMPDEST PUSH2 0x244E JUMP JUMPDEST PUSH2 0x2147 JUMP JUMPDEST PUSH2 0x24A7 PUSH2 0x28A0 JUMP JUMPDEST PUSH2 0x22C PUSH2 0x24D8 PUSH1 0x0 DUP1 PUSH32 0xCD5ED15C6E187E77E9AEE88184C21F4F2182AB5827CB3B7E07FBEDCD63F03300 JUMPDEST ADD PUSH2 0x103C JUMP JUMPDEST PUSH32 0x5DB9EE0A495BF2E6FF9C91A7834C1BA4FDD244A5E8AA4E537BD38AEAE4B073AA PUSH2 0xE36 CALLER PUSH2 0x367 JUMP JUMPDEST PUSH2 0x22C PUSH2 0x249F JUMP JUMPDEST PUSH2 0x2512 PUSH2 0x204D JUMP JUMPDEST PUSH2 0x22C PUSH2 0x2542 PUSH1 0x1 PUSH1 0x0 PUSH32 0xCD5ED15C6E187E77E9AEE88184C21F4F2182AB5827CB3B7E07FBEDCD63F03300 PUSH2 0x24D2 JUMP JUMPDEST PUSH32 0x62E78CEA01BEE320CD4E420270B5EA74000D11B0C9F74754EBDBFC544B05A258 PUSH2 0xE36 CALLER PUSH2 0x367 JUMP JUMPDEST PUSH2 0x22C PUSH2 0x250A JUMP JUMPDEST SWAP1 PUSH2 0x257E DUP3 PUSH2 0x1829 JUMP JUMPDEST SWAP2 PUSH1 0x1 PUSH1 0x1 PUSH1 0xA0 SHL SUB DUP3 AND PUSH1 0x1 PUSH1 0x1 PUSH1 0xA0 SHL SUB DUP5 AND EQ SWAP3 DUP4 ISZERO PUSH2 0x25C7 JUMPI JUMPDEST POP DUP3 ISZERO PUSH2 0x25A8 JUMPI POP POP SWAP1 JUMP JUMPDEST PUSH2 0xAA6 SWAP2 SWAP3 POP PUSH2 0x25BA PUSH2 0x14A5 SWAP2 PUSH2 0xC03 JUMP JUMPDEST SWAP3 PUSH1 0x1 PUSH1 0x1 PUSH1 0xA0 SHL SUB AND SWAP1 JUMP JUMPDEST PUSH2 0x25D4 SWAP2 SWAP4 POP DUP3 SWAP1 PUSH2 0x1C89 JUMP JUMPDEST SWAP2 CODESIZE PUSH2 0x259C JUMP JUMPDEST PUSH1 0x0 PUSH2 0x22C SWAP2 PUSH2 0x28CD JUMP JUMPDEST SWAP1 POP MLOAD SWAP1 PUSH2 0x22C DUP3 PUSH2 0x20C JUMP JUMPDEST SWAP1 PUSH1 0x20 DUP3 DUP3 SUB SLT PUSH2 0x207 JUMPI PUSH2 0x242 SWAP2 PUSH2 0x25E6 JUMP JUMPDEST PUSH1 0x1 PUSH1 0x1 PUSH1 0xA0 SHL SUB SWAP2 DUP3 AND DUP2 MSTORE SWAP2 AND PUSH1 0x20 DUP3 ADD MSTORE PUSH1 0x40 DUP2 ADD SWAP2 SWAP1 SWAP2 MSTORE PUSH1 0x80 PUSH1 0x60 DUP3 ADD DUP2 SWAP1 MSTORE PUSH2 0x242 SWAP3 SWAP2 ADD SWAP1 PUSH2 0x2A9 JUMP JUMPDEST PUSH2 0xA4E PUSH2 0xA48 PUSH2 0x242 SWAP3 PUSH4 0xFFFFFFFF AND SWAP1 JUMP JUMPDEST RETURNDATASIZE ISZERO PUSH2 0x2665 JUMPI PUSH2 0x265A RETURNDATASIZE PUSH2 0x16DE JUMP JUMPDEST SWAP1 RETURNDATASIZE PUSH1 0x0 PUSH1 0x20 DUP5 ADD RETURNDATACOPY JUMP JUMPDEST PUSH1 0x60 SWAP1 JUMP JUMPDEST SWAP2 PUSH2 0x2682 PUSH2 0x19E7 PUSH1 0x20 SWAP4 PUSH2 0x267C PUSH1 0x0 SWAP1 JUMP JUMPDEST POP PUSH2 0xCBF JUMP JUMPDEST PUSH4 0x150B7A02 SWAP4 PUSH1 0x0 CALLER PUSH2 0x26B3 PUSH2 0x2697 PUSH1 0x40 MLOAD SWAP1 JUMP JUMPDEST SWAP9 DUP10 SWAP7 DUP8 SWAP6 DUP7 SWAP5 PUSH2 0x26A8 DUP13 PUSH1 0xE0 SHL SWAP1 JUMP JUMPDEST DUP7 MSTORE PUSH1 0x4 DUP7 ADD PUSH2 0x2607 JUMP JUMPDEST SUB SWAP3 GAS CALL PUSH1 0x0 SWAP3 DUP2 PUSH2 0x26F8 JUMPI JUMPDEST POP PUSH2 0x26E9 JUMPI PUSH2 0x26CD PUSH2 0x264B JUMP JUMPDEST DUP1 MLOAD PUSH2 0x26DC PUSH2 0xE7D PUSH1 0x0 PUSH2 0xBDE JUMP JUMPDEST EQ PUSH2 0x1BE4 JUMPI DUP1 MLOAD SWAP1 PUSH1 0x20 ADD REVERT JUMPDEST PUSH2 0xA98 PUSH2 0xA4E PUSH2 0xAA6 SWAP3 PUSH2 0x2638 JUMP JUMPDEST PUSH2 0x271B SWAP2 SWAP4 POP PUSH1 0x20 RETURNDATASIZE PUSH1 0x20 GT PUSH2 0x2722 JUMPI JUMPDEST PUSH2 0x2713 DUP2 DUP4 PUSH2 0x3EF JUMP JUMPDEST DUP2 ADD SWAP1 PUSH2 0x25F3 JUMP JUMPDEST SWAP2 CODESIZE PUSH2 0x26C0 JUMP JUMPDEST POP RETURNDATASIZE PUSH2 0x2709 JUMP JUMPDEST PUSH2 0x242 PUSH1 0x0 PUSH2 0xBBA JUMP JUMPDEST SWAP1 PUSH1 0x20 PUSH1 0xA0 PUSH1 0x40 MLOAD ADD DUP1 PUSH1 0x40 MSTORE SUB SWAP2 PUSH1 0x0 DUP4 MSTORE PUSH1 0xA PUSH1 0x1 DUP5 SWAP3 SWAP5 JUMPDEST SUB SWAP4 DUP2 DUP2 MOD PUSH1 0x30 ADD DUP6 MSTORE8 DIV SWAP3 DUP4 ISZERO PUSH2 0x276A JUMPI PUSH1 0x1 PUSH1 0xA SWAP2 PUSH2 0x274E JUMP JUMPDEST DUP1 SWAP4 POP PUSH1 0x20 SWAP2 SUB SWAP3 SUB SWAP2 DUP3 MSTORE JUMP JUMPDEST PUSH2 0x242 PUSH32 0xF0C57E16840DF040F15088DC2F81FE391C3923BEC73E23A9662EFC9C229C6A00 PUSH2 0xBDE JUMP JUMPDEST PUSH2 0x242 PUSH2 0x2778 JUMP JUMPDEST PUSH2 0x22C SWAP2 SWAP1 PUSH2 0x27DC PUSH2 0x1F2A PUSH1 0x0 PUSH32 0xEE151C8401928DC223602BB187AFF91B9A56C7CAE5476EF1B3287B085A16C85F PUSH2 0x1F24 JUMP JUMPDEST PUSH2 0x2822 SWAP1 PUSH2 0x2811 PUSH1 0x0 SWAP4 PUSH2 0x2808 PUSH2 0x27FE PUSH1 0x0 DUP1 MLOAD PUSH1 0x20 PUSH2 0x2AD4 DUP4 CODECOPY DUP2 MLOAD SWAP2 MSTORE SWAP1 JUMP JUMPDEST SWAP4 PUSH1 0x2 DUP6 ADD PUSH2 0x1029 JUMP JUMPDEST PUSH1 0x3 DUP4 ADD PUSH2 0x1029 JUMP JUMPDEST PUSH2 0x2819 PUSH2 0x2006 JUMP JUMPDEST SWAP3 DUP4 SWAP2 ADD PUSH2 0xE9B JUMP JUMPDEST PUSH2 0x282F PUSH2 0xE7D PUSH1 0x0 NOT SWAP3 SWAP1 JUMP JUMPDEST LT PUSH2 0x2836 JUMPI JUMP JUMPDEST PUSH4 0xFED8210F PUSH1 0xE0 SHL PUSH2 0x1D87 JUMP JUMPDEST SWAP1 PUSH2 0x22C SWAP2 PUSH2 0x27A9 JUMP JUMPDEST PUSH2 0x2858 PUSH2 0xC0F PUSH2 0x2AC0 JUMP JUMPDEST PUSH2 0x285E JUMPI JUMP JUMPDEST PUSH4 0x1AFCD79F PUSH1 0xE3 SHL PUSH1 0x0 SWAP1 DUP2 MSTORE PUSH1 0x4 SWAP1 REVERT JUMPDEST PUSH2 0x22C SWAP1 PUSH2 0x1CC4 PUSH2 0x284D JUMP JUMPDEST PUSH2 0x22C SWAP1 PUSH2 0x2870 JUMP JUMPDEST PUSH2 0x1163 PUSH2 0x284D JUMP JUMPDEST PUSH2 0x22C PUSH2 0x2885 JUMP JUMPDEST POP POP POP PUSH2 0x242 PUSH1 0x0 SWAP1 JUMP JUMPDEST PUSH2 0x28AB PUSH2 0xC0F PUSH2 0x1800 JUMP JUMPDEST PUSH2 0x28B1 JUMPI JUMP JUMPDEST PUSH4 0x8DFC202B PUSH1 0xE0 SHL PUSH1 0x0 SWAP1 DUP2 MSTORE PUSH1 0x4 SWAP1 REVERT JUMPDEST PUSH2 0x242 PUSH1 0x80 PUSH2 0xBDE JUMP JUMPDEST PUSH2 0x28D6 DUP2 PUSH2 0x22ED JUMP JUMPDEST SWAP2 PUSH2 0x28E3 PUSH2 0x1485 DUP5 PUSH2 0x142D JUMP JUMPDEST SWAP1 PUSH2 0x28ED DUP4 PUSH2 0x23ED JUMP JUMPDEST SWAP1 SWAP2 PUSH2 0x2A83 JUMPI JUMPDEST SWAP3 PUSH2 0x29EC PUSH2 0x1DFD PUSH2 0x19EC PUSH2 0x292D SWAP6 PUSH2 0x22C SWAP9 SWAP6 PUSH1 0x1 SWAP9 PUSH2 0x2A79 JUMPI JUMPDEST POP PUSH2 0x2931 PUSH2 0x291B PUSH2 0x28C3 JUMP JUMPDEST PUSH2 0x2924 DUP11 PUSH2 0xBDE JUMP JUMPDEST SWAP9 DUP10 SWAP2 DUP3 PUSH2 0x2147 JUMP JUMPDEST SUB SWAP1 JUMP JUMPDEST PUSH1 0x0 DUP1 MLOAD PUSH1 0x20 PUSH2 0x2AD4 DUP4 CODECOPY DUP2 MLOAD SWAP2 MSTORE SWAP8 SWAP1 PUSH2 0x2973 SWAP1 PUSH2 0x154B PUSH2 0x2223 DUP6 PUSH32 0x2569078DFB4B0305704D3008E7403993AE9601B85F7AE5E742DE3DE8F8011C45 PUSH2 0x143A JUMP JUMPDEST PUSH2 0x297B PUSH2 0x22E0 JUMP JUMPDEST SWAP7 PUSH2 0x2984 PUSH2 0x1444 JUMP JUMPDEST DUP1 SWAP9 OR SWAP8 PUSH1 0x0 SWAP3 PUSH2 0x29B8 PUSH2 0x2997 DUP6 PUSH2 0x1846 JUMP JUMPDEST SWAP11 PUSH2 0x29A3 DUP6 DUP14 DUP10 PUSH2 0x2460 JUMP JUMPDEST TIMESTAMP PUSH1 0xA0 SHL SWAP2 OR OR PUSH1 0x1 PUSH1 0x1 PUSH1 0xA0 SHL SUB DUP8 AND OR SWAP1 JUMP JUMPDEST SWAP2 PUSH2 0x29CB PUSH1 0x4 DUP14 ADD SWAP4 PUSH2 0x15A6 DUP13 DUP7 PUSH2 0xBEB JUMP JUMPDEST PUSH2 0x29DD PUSH2 0x29D7 DUP7 PUSH2 0xBDE JUMP JUMPDEST SWAP2 DUP6 AND SWAP1 JUMP JUMPDEST EQ PUSH2 0x2A28 JUMPI JUMPDEST POP POP POP POP PUSH2 0xCBF JUMP JUMPDEST SWAP2 PUSH32 0xDDF252AD1BE2C89B69C2B068FC378DAA952BA7F163C4A11628F55A4DF523B3EF PUSH2 0x2A17 PUSH1 0x40 MLOAD SWAP1 JUMP JUMPDEST PUSH1 0x0 SWAP1 LOG4 ADD PUSH2 0x154B PUSH2 0x1562 DUP3 PUSH2 0x10CD JUMP JUMPDEST DUP9 ADD SWAP3 PUSH2 0x2A38 PUSH2 0x162F DUP6 DUP5 PUSH2 0xBEB JUMP JUMPDEST PUSH2 0x2A44 PUSH2 0xE7D DUP4 PUSH2 0xBDE JUMP JUMPDEST SUB PUSH2 0x29E3 JUMPI PUSH2 0x242 PUSH2 0x2A57 SWAP2 DUP13 ADD PUSH2 0x10CD JUMP JUMPDEST DUP4 SUB PUSH2 0x2A64 JUMPI JUMPDEST DUP1 PUSH2 0x29E3 JUMP JUMPDEST PUSH2 0x2A71 SWAP3 PUSH2 0x15A6 SWAP2 PUSH2 0xBEB JUMP JUMPDEST CODESIZE DUP1 DUP1 PUSH2 0x2A5E JUMP JUMPDEST PUSH1 0x0 SWAP1 SSTORE CODESIZE PUSH2 0x290F JUMP JUMPDEST CALLER PUSH1 0x1 PUSH1 0x1 PUSH1 0xA0 SHL SUB DUP5 AND DUP2 EQ DUP3 DUP3 EQ OR ISZERO PUSH2 0x2AA0 JUMPI JUMPDEST POP PUSH2 0x28F4 JUMP JUMPDEST PUSH2 0xC0F PUSH2 0x2AB2 SWAP2 DUP6 SWAP8 SWAP5 SWAP7 SWAP4 SWAP6 PUSH2 0x1C89 JUMP JUMPDEST PUSH2 0x16AA JUMPI SWAP3 SWAP1 SWAP4 SWAP2 CODESIZE PUSH2 0x2A9A JUMP JUMPDEST PUSH2 0x242 PUSH1 0x0 PUSH2 0x2ACD PUSH2 0x1E6E JUMP JUMPDEST ADD PUSH2 0xC70 JUMP INVALID 0x25 PUSH10 0x78DFB4B0305704D3008 0xE7 BLOCKHASH CODECOPY SWAP4 0xAE SWAP7 ADD 0xB8 PUSH0 PUSH27 0xE5E742DE3DE8F8011C40A264697066735822122037F0B54008428A SIGNEXTEND PUSH17 0xA3614A083FA708E9B64735A8D49DFCC89A 0xEC EQ PUSH11 0x35418F64736F6C63430008 SHR STOP CALLER LOG2 PUSH5 0x6970667358 0x22 SLT KECCAK256 PUSH11 0x408F7AC9ABDFC55C35FD0 0x2C 0x24 0xC3 0xC SLOAD 0xA5 REVERT 0x29 0xC6 MUL RETURN 0xC0 0xDB 0xD0 LOG1 PUSH10 0x359FD16964736F6C6343 STOP ADDMOD SHR STOP CALLER "},"methodIdentifiers":{"collections(uint256)":"fdbda0ec","createCollection(string,string,uint256,uint256,string,string)":"d6a4448b","deleteCollection(address)":"a6bb6cac","getCollections()":"46e63586","initialize(address)":"c4d66de8","owner()":"8da5cb5b","renounceOwnership()":"715018a6","transferOwnership(address)":"f2fde38b"}},"storageLayout":{"storage":[{"astId":1215,"contract":"contracts/Factory.sol:CollectionFactory","label":"collections","offset":0,"slot":"0","type":"t_array(t_address)dyn_storage"},{"astId":1219,"contract":"contracts/Factory.sol:CollectionFactory","label":"_usedNames","offset":0,"slot":"1","type":"t_mapping(t_string_memory_ptr,t_bool)"},{"astId":1223,"contract":"contracts/Factory.sol:CollectionFactory","label":"_collectionIndex","offset":0,"slot":"2","type":"t_mapping(t_address,t_uint256)"}],"types":{"t_address":{"encoding":"inplace","label":"address","numberOfBytes":"20"},"t_array(t_address)dyn_storage":{"base":"t_address","encoding":"dynamic_array","label":"address[]","numberOfBytes":"32"},"t_bool":{"encoding":"inplace","label":"bool","numberOfBytes":"1"},"t_mapping(t_address,t_uint256)":{"encoding":"mapping","key":"t_address","label":"mapping(address => uint256)","numberOfBytes":"32","value":"t_uint256"},"t_mapping(t_string_memory_ptr,t_bool)":{"encoding":"mapping","key":"t_string_memory_ptr","label":"mapping(string => bool)","numberOfBytes":"32","value":"t_bool"},"t_string_memory_ptr":{"encoding":"bytes","label":"string","numberOfBytes":"32"},"t_uint256":{"encoding":"inplace","label":"uint256","numberOfBytes":"32"}}}}}}