{"contracts/Polls.sol":{"Polls":{"abi":[{"inputs":[],"stateMutability":"nonpayable","type":"constructor"},{"inputs":[{"internalType":"address","name":"owner","type":"address"}],"name":"OwnableInvalidOwner","type":"error"},{"inputs":[{"internalType":"address","name":"account","type":"address"}],"name":"OwnableUnauthorizedAccount","type":"error"},{"inputs":[],"name":"ReentrancyGuardReentrantCall","type":"error"},{"anonymous":false,"inputs":[{"indexed":true,"internalType":"address","name":"caller","type":"address"},{"indexed":false,"internalType":"bool","name":"authorized","type":"bool"}],"name":"AuthorizedCallerUpdated","type":"event"},{"anonymous":false,"inputs":[{"indexed":true,"internalType":"address","name":"previousOwner","type":"address"},{"indexed":true,"internalType":"address","name":"newOwner","type":"address"}],"name":"OwnershipTransferred","type":"event"},{"anonymous":false,"inputs":[{"indexed":true,"internalType":"uint256","name":"pollId","type":"uint256"},{"indexed":false,"internalType":"bool","name":"isActive","type":"bool"},{"indexed":true,"internalType":"address","name":"admin","type":"address"}],"name":"PollActiveChanged","type":"event"},{"anonymous":false,"inputs":[{"indexed":true,"internalType":"uint256","name":"pollId","type":"uint256"},{"indexed":false,"internalType":"string","name":"title","type":"string"},{"indexed":false,"internalType":"enum Polls.PollCategory","name":"category","type":"uint8"},{"indexed":true,"internalType":"address","name":"creator","type":"address"},{"indexed":false,"internalType":"uint256","name":"startDate","type":"uint256"},{"indexed":false,"internalType":"uint256","name":"endDate","type":"uint256"}],"name":"PollCreated","type":"event"},{"anonymous":false,"inputs":[{"indexed":true,"internalType":"uint256","name":"participationId","type":"uint256"},{"indexed":true,"internalType":"uint256","name":"pollId","type":"uint256"},{"indexed":true,"internalType":"address","name":"participant","type":"address"},{"indexed":false,"internalType":"string","name":"optionId","type":"string"},{"indexed":false,"internalType":"bool","name":"isBetting","type":"bool"},{"indexed":false,"internalType":"string","name":"bettingAssetId","type":"string"},{"indexed":false,"internalType":"uint256","name":"bettingAmount","type":"uint256"},{"indexed":false,"internalType":"uint256","name":"timestamp","type":"uint256"}],"name":"PollParticipated","type":"event"},{"inputs":[{"internalType":"address","name":"","type":"address"}],"name":"authorizedCallers","outputs":[{"internalType":"bool","name":"","type":"bool"}],"stateMutability":"view","type":"function"},{"inputs":[{"components":[{"components":[{"internalType":"string","name":"title","type":"string"},{"internalType":"string","name":"titleShorten","type":"string"},{"internalType":"string","name":"description","type":"string"},{"internalType":"enum Polls.PollCategory","name":"category","type":"uint8"},{"internalType":"string","name":"imgUrl","type":"string"},{"internalType":"string","name":"youtubeUrl","type":"string"},{"internalType":"string","name":"artistId","type":"string"}],"internalType":"struct Polls.BasicInfo","name":"basic","type":"tuple"},{"components":[{"internalType":"uint256","name":"startDate","type":"uint256"},{"internalType":"uint256","name":"endDate","type":"uint256"},{"internalType":"uint256","name":"answerAnnouncementDate","type":"uint256"}],"internalType":"struct Polls.TimeInfo","name":"time","type":"tuple"},{"components":[{"internalType":"bool","name":"exposeInScheduleTab","type":"bool"},{"internalType":"bool","name":"showOnPollPage","type":"bool"},{"internalType":"bool","name":"showOnStarPage","type":"bool"}],"internalType":"struct Polls.VisibilityInfo","name":"visibility","type":"tuple"},{"components":[{"internalType":"bool","name":"needToken","type":"bool"},{"internalType":"string","name":"needTokenAddress","type":"string"}],"internalType":"struct Polls.TokenGatingInfo","name":"tokenGating","type":"tuple"},{"components":[{"internalType":"bool","name":"bettingMode","type":"bool"},{"internalType":"string","name":"bettingAssetId","type":"string"},{"internalType":"uint256","name":"minimumBet","type":"uint256"},{"internalType":"uint256","name":"maximumBet","type":"uint256"},{"internalType":"uint256","name":"houseCommissionRate","type":"uint256"},{"internalType":"uint256","name":"totalCommissionAmount","type":"uint256"},{"internalType":"uint256","name":"totalBettingAmount","type":"uint256"}],"internalType":"struct Polls.BettingInfo","name":"betting","type":"tuple"},{"components":[{"internalType":"bool","name":"allowMultipleVote","type":"bool"},{"internalType":"string","name":"participationRewardAssetId","type":"string"},{"internalType":"uint256","name":"participationRewardAmount","type":"uint256"},{"internalType":"string","name":"participationConsumeAssetId","type":"string"},{"internalType":"uint256","name":"participationConsumeAmount","type":"uint256"}],"internalType":"struct Polls.ParticipationInfo","name":"participation","type":"tuple"},{"components":[{"internalType":"bool","name":"hasAnswer","type":"bool"},{"internalType":"bool","name":"hasAnswerAnnouncement","type":"bool"}],"internalType":"struct Polls.AnswerInfo","name":"answer","type":"tuple"},{"components":[{"internalType":"string","name":"optionId","type":"string"},{"internalType":"string","name":"name","type":"string"},{"internalType":"string","name":"shorten","type":"string"},{"internalType":"string","name":"description","type":"string"},{"internalType":"string","name":"imgUrl","type":"string"},{"internalType":"string","name":"youtubeUrl","type":"string"}],"internalType":"struct Polls.PollOption[]","name":"options","type":"tuple[]"},{"internalType":"string[]","name":"requiredQuests","type":"string[]"},{"internalType":"string[]","name":"answerOptionIds","type":"string[]"},{"internalType":"bool","name":"test","type":"bool"}],"internalType":"struct Polls.CreatePollParams","name":"params","type":"tuple"}],"name":"createPoll","outputs":[{"internalType":"uint256","name":"","type":"uint256"}],"stateMutability":"nonpayable","type":"function"},{"inputs":[],"name":"getCurrentPollId","outputs":[{"internalType":"uint256","name":"","type":"uint256"}],"stateMutability":"view","type":"function"},{"inputs":[{"internalType":"uint256","name":"participationId","type":"uint256"}],"name":"getParticipationById","outputs":[{"components":[{"internalType":"uint256","name":"pollId","type":"uint256"},{"internalType":"address","name":"participant","type":"address"},{"internalType":"string","name":"optionId","type":"string"},{"internalType":"uint256","name":"participatedAt","type":"uint256"},{"internalType":"bool","name":"isBetting","type":"bool"},{"internalType":"string","name":"bettingAssetId","type":"string"},{"internalType":"uint256","name":"bettingAmount","type":"uint256"}],"internalType":"struct Polls.PollParticipation","name":"","type":"tuple"}],"stateMutability":"view","type":"function"},{"inputs":[{"internalType":"uint256","name":"pollId","type":"uint256"}],"name":"getPoll","outputs":[{"components":[{"internalType":"uint256","name":"pollId","type":"uint256"},{"components":[{"internalType":"string","name":"title","type":"string"},{"internalType":"string","name":"titleShorten","type":"string"},{"internalType":"string","name":"description","type":"string"},{"internalType":"enum Polls.PollCategory","name":"category","type":"uint8"},{"internalType":"string","name":"imgUrl","type":"string"},{"internalType":"string","name":"youtubeUrl","type":"string"},{"internalType":"string","name":"artistId","type":"string"}],"internalType":"struct Polls.BasicInfo","name":"basic","type":"tuple"},{"components":[{"internalType":"uint256","name":"startDate","type":"uint256"},{"internalType":"uint256","name":"endDate","type":"uint256"},{"internalType":"uint256","name":"answerAnnouncementDate","type":"uint256"}],"internalType":"struct Polls.TimeInfo","name":"time","type":"tuple"},{"components":[{"internalType":"bool","name":"exposeInScheduleTab","type":"bool"},{"internalType":"bool","name":"showOnPollPage","type":"bool"},{"internalType":"bool","name":"showOnStarPage","type":"bool"}],"internalType":"struct Polls.VisibilityInfo","name":"visibility","type":"tuple"},{"components":[{"internalType":"bool","name":"needToken","type":"bool"},{"internalType":"string","name":"needTokenAddress","type":"string"}],"internalType":"struct Polls.TokenGatingInfo","name":"tokenGating","type":"tuple"},{"components":[{"internalType":"bool","name":"bettingMode","type":"bool"},{"internalType":"string","name":"bettingAssetId","type":"string"},{"internalType":"uint256","name":"minimumBet","type":"uint256"},{"internalType":"uint256","name":"maximumBet","type":"uint256"},{"internalType":"uint256","name":"houseCommissionRate","type":"uint256"},{"internalType":"uint256","name":"totalCommissionAmount","type":"uint256"},{"internalType":"uint256","name":"totalBettingAmount","type":"uint256"}],"internalType":"struct Polls.BettingInfo","name":"betting","type":"tuple"},{"components":[{"internalType":"bool","name":"allowMultipleVote","type":"bool"},{"internalType":"string","name":"participationRewardAssetId","type":"string"},{"internalType":"uint256","name":"participationRewardAmount","type":"uint256"},{"internalType":"string","name":"participationConsumeAssetId","type":"string"},{"internalType":"uint256","name":"participationConsumeAmount","type":"uint256"}],"internalType":"struct Polls.ParticipationInfo","name":"participation","type":"tuple"},{"components":[{"internalType":"bool","name":"hasAnswer","type":"bool"},{"internalType":"bool","name":"hasAnswerAnnouncement","type":"bool"}],"internalType":"struct Polls.AnswerInfo","name":"answer","type":"tuple"},{"components":[{"internalType":"bool","name":"isActive","type":"bool"},{"internalType":"bool","name":"test","type":"bool"},{"internalType":"address","name":"creator","type":"address"},{"internalType":"uint256","name":"createdAt","type":"uint256"},{"internalType":"uint256","name":"uniqueVoters","type":"uint256"},{"internalType":"uint256","name":"totalVotes","type":"uint256"}],"internalType":"struct Polls.StatusInfo","name":"status","type":"tuple"}],"internalType":"struct Polls.Poll","name":"poll","type":"tuple"},{"components":[{"internalType":"string","name":"optionId","type":"string"},{"internalType":"string","name":"name","type":"string"},{"internalType":"string","name":"shorten","type":"string"},{"internalType":"string","name":"description","type":"string"},{"internalType":"string","name":"imgUrl","type":"string"},{"internalType":"string","name":"youtubeUrl","type":"string"}],"internalType":"struct Polls.PollOption[]","name":"options","type":"tuple[]"},{"internalType":"string[]","name":"requiredQuests","type":"string[]"},{"internalType":"string[]","name":"answerOptionIds","type":"string[]"}],"stateMutability":"view","type":"function"},{"inputs":[{"internalType":"uint256","name":"pollId","type":"uint256"}],"name":"getPollDetailResult","outputs":[{"components":[{"internalType":"uint256","name":"pollId","type":"uint256"},{"internalType":"uint256","name":"totalVotes","type":"uint256"},{"internalType":"uint256","name":"uniqueVoters","type":"uint256"},{"internalType":"uint256","name":"totalBettingAmount","type":"uint256"},{"components":[{"internalType":"string","name":"optionId","type":"string"},{"internalType":"string","name":"name","type":"string"},{"internalType":"string","name":"shorten","type":"string"},{"internalType":"string","name":"description","type":"string"},{"internalType":"string","name":"imgUrl","type":"string"},{"internalType":"string","name":"youtubeUrl","type":"string"},{"internalType":"uint256","name":"voteCount","type":"uint256"},{"internalType":"uint256","name":"voteRate","type":"uint256"},{"internalType":"uint256","name":"actualVoteCount","type":"uint256"},{"internalType":"uint256","name":"bettingAmount","type":"uint256"},{"internalType":"uint256","name":"bettingRate","type":"uint256"}],"internalType":"struct Polls.PollOptionDetailResult[]","name":"results","type":"tuple[]"}],"internalType":"struct Polls.PollDetailResult","name":"","type":"tuple"}],"stateMutability":"view","type":"function"},{"inputs":[{"internalType":"uint256","name":"pollId","type":"uint256"}],"name":"getPollOptions","outputs":[{"components":[{"internalType":"string","name":"optionId","type":"string"},{"internalType":"string","name":"name","type":"string"},{"internalType":"string","name":"shorten","type":"string"},{"internalType":"string","name":"description","type":"string"},{"internalType":"string","name":"imgUrl","type":"string"},{"internalType":"string","name":"youtubeUrl","type":"string"}],"internalType":"struct Polls.PollOption[]","name":"","type":"tuple[]"}],"stateMutability":"view","type":"function"},{"inputs":[{"internalType":"uint256","name":"pollId","type":"uint256"}],"name":"getPollResult","outputs":[{"components":[{"internalType":"uint256","name":"pollId","type":"uint256"},{"internalType":"uint256","name":"totalVotes","type":"uint256"},{"internalType":"uint256","name":"uniqueVoters","type":"uint256"},{"internalType":"uint256","name":"totalBettingAmount","type":"uint256"},{"components":[{"internalType":"string","name":"optionId","type":"string"},{"internalType":"string","name":"name","type":"string"},{"internalType":"uint256","name":"voteCount","type":"uint256"},{"internalType":"uint256","name":"voteRate","type":"uint256"},{"internalType":"uint256","name":"actualVoteCount","type":"uint256"},{"internalType":"uint256","name":"bettingAmount","type":"uint256"},{"internalType":"uint256","name":"bettingRate","type":"uint256"}],"internalType":"struct Polls.PollOptionResult[]","name":"results","type":"tuple[]"}],"internalType":"struct Polls.PollResult","name":"","type":"tuple"}],"stateMutability":"view","type":"function"},{"inputs":[{"internalType":"uint256","name":"pollId","type":"uint256"},{"internalType":"address","name":"user","type":"address"}],"name":"getUserParticipationIds","outputs":[{"internalType":"uint256[]","name":"","type":"uint256[]"}],"stateMutability":"view","type":"function"},{"inputs":[{"internalType":"uint256","name":"pollId","type":"uint256"},{"internalType":"address","name":"user","type":"address"}],"name":"getUserParticipations","outputs":[{"components":[{"internalType":"uint256","name":"pollId","type":"uint256"},{"internalType":"address","name":"participant","type":"address"},{"internalType":"string","name":"optionId","type":"string"},{"internalType":"uint256","name":"participatedAt","type":"uint256"},{"internalType":"bool","name":"isBetting","type":"bool"},{"internalType":"string","name":"bettingAssetId","type":"string"},{"internalType":"uint256","name":"bettingAmount","type":"uint256"}],"internalType":"struct Polls.PollParticipation[]","name":"","type":"tuple[]"}],"stateMutability":"view","type":"function"},{"inputs":[{"internalType":"uint256","name":"pollId","type":"uint256"}],"name":"isPollActive","outputs":[{"internalType":"bool","name":"","type":"bool"}],"stateMutability":"view","type":"function"},{"inputs":[{"internalType":"uint256","name":"","type":"uint256"},{"internalType":"string","name":"","type":"string"}],"name":"optionActualVoteCounts","outputs":[{"internalType":"uint256","name":"","type":"uint256"}],"stateMutability":"view","type":"function"},{"inputs":[{"internalType":"uint256","name":"","type":"uint256"},{"internalType":"string","name":"","type":"string"}],"name":"optionBetAmounts","outputs":[{"internalType":"uint256","name":"","type":"uint256"}],"stateMutability":"view","type":"function"},{"inputs":[{"internalType":"uint256","name":"","type":"uint256"},{"internalType":"string","name":"","type":"string"}],"name":"optionVoteCounts","outputs":[{"internalType":"uint256","name":"","type":"uint256"}],"stateMutability":"view","type":"function"},{"inputs":[],"name":"owner","outputs":[{"internalType":"address","name":"","type":"address"}],"stateMutability":"view","type":"function"},{"inputs":[{"internalType":"uint256","name":"pollId","type":"uint256"},{"internalType":"string","name":"optionId","type":"string"},{"internalType":"address","name":"participant","type":"address"},{"internalType":"bool","name":"isBetting","type":"bool"},{"internalType":"string","name":"bettingAssetId","type":"string"},{"internalType":"uint256","name":"bettingAmount","type":"uint256"}],"name":"participatePoll","outputs":[{"internalType":"uint256","name":"","type":"uint256"}],"stateMutability":"nonpayable","type":"function"},{"inputs":[{"internalType":"uint256","name":"","type":"uint256"},{"internalType":"uint256","name":"","type":"uint256"}],"name":"pollAnswerOptionIds","outputs":[{"internalType":"string","name":"","type":"string"}],"stateMutability":"view","type":"function"},{"inputs":[{"internalType":"uint256","name":"","type":"uint256"},{"internalType":"uint256","name":"","type":"uint256"}],"name":"pollOptions","outputs":[{"internalType":"string","name":"optionId","type":"string"},{"internalType":"string","name":"name","type":"string"},{"internalType":"string","name":"shorten","type":"string"},{"internalType":"string","name":"description","type":"string"},{"internalType":"string","name":"imgUrl","type":"string"},{"internalType":"string","name":"youtubeUrl","type":"string"}],"stateMutability":"view","type":"function"},{"inputs":[{"internalType":"uint256","name":"","type":"uint256"}],"name":"pollParticipations","outputs":[{"internalType":"uint256","name":"pollId","type":"uint256"},{"internalType":"address","name":"participant","type":"address"},{"internalType":"string","name":"optionId","type":"string"},{"internalType":"uint256","name":"participatedAt","type":"uint256"},{"internalType":"bool","name":"isBetting","type":"bool"},{"internalType":"string","name":"bettingAssetId","type":"string"},{"internalType":"uint256","name":"bettingAmount","type":"uint256"}],"stateMutability":"view","type":"function"},{"inputs":[{"internalType":"uint256","name":"","type":"uint256"},{"internalType":"uint256","name":"","type":"uint256"}],"name":"pollRequiredQuests","outputs":[{"internalType":"string","name":"","type":"string"}],"stateMutability":"view","type":"function"},{"inputs":[{"internalType":"uint256","name":"","type":"uint256"},{"internalType":"string","name":"","type":"string"}],"name":"pollValidOptions","outputs":[{"internalType":"bool","name":"","type":"bool"}],"stateMutability":"view","type":"function"},{"inputs":[{"internalType":"uint256","name":"","type":"uint256"}],"name":"polls","outputs":[{"internalType":"uint256","name":"pollId","type":"uint256"},{"components":[{"internalType":"string","name":"title","type":"string"},{"internalType":"string","name":"titleShorten","type":"string"},{"internalType":"string","name":"description","type":"string"},{"internalType":"enum Polls.PollCategory","name":"category","type":"uint8"},{"internalType":"string","name":"imgUrl","type":"string"},{"internalType":"string","name":"youtubeUrl","type":"string"},{"internalType":"string","name":"artistId","type":"string"}],"internalType":"struct Polls.BasicInfo","name":"basic","type":"tuple"},{"components":[{"internalType":"uint256","name":"startDate","type":"uint256"},{"internalType":"uint256","name":"endDate","type":"uint256"},{"internalType":"uint256","name":"answerAnnouncementDate","type":"uint256"}],"internalType":"struct Polls.TimeInfo","name":"time","type":"tuple"},{"components":[{"internalType":"bool","name":"exposeInScheduleTab","type":"bool"},{"internalType":"bool","name":"showOnPollPage","type":"bool"},{"internalType":"bool","name":"showOnStarPage","type":"bool"}],"internalType":"struct Polls.VisibilityInfo","name":"visibility","type":"tuple"},{"components":[{"internalType":"bool","name":"needToken","type":"bool"},{"internalType":"string","name":"needTokenAddress","type":"string"}],"internalType":"struct Polls.TokenGatingInfo","name":"tokenGating","type":"tuple"},{"components":[{"internalType":"bool","name":"bettingMode","type":"bool"},{"internalType":"string","name":"bettingAssetId","type":"string"},{"internalType":"uint256","name":"minimumBet","type":"uint256"},{"internalType":"uint256","name":"maximumBet","type":"uint256"},{"internalType":"uint256","name":"houseCommissionRate","type":"uint256"},{"internalType":"uint256","name":"totalCommissionAmount","type":"uint256"},{"internalType":"uint256","name":"totalBettingAmount","type":"uint256"}],"internalType":"struct Polls.BettingInfo","name":"betting","type":"tuple"},{"components":[{"internalType":"bool","name":"allowMultipleVote","type":"bool"},{"internalType":"string","name":"participationRewardAssetId","type":"string"},{"internalType":"uint256","name":"participationRewardAmount","type":"uint256"},{"internalType":"string","name":"participationConsumeAssetId","type":"string"},{"internalType":"uint256","name":"participationConsumeAmount","type":"uint256"}],"internalType":"struct Polls.ParticipationInfo","name":"participation","type":"tuple"},{"components":[{"internalType":"bool","name":"hasAnswer","type":"bool"},{"internalType":"bool","name":"hasAnswerAnnouncement","type":"bool"}],"internalType":"struct Polls.AnswerInfo","name":"answer","type":"tuple"},{"components":[{"internalType":"bool","name":"isActive","type":"bool"},{"internalType":"bool","name":"test","type":"bool"},{"internalType":"address","name":"creator","type":"address"},{"internalType":"uint256","name":"createdAt","type":"uint256"},{"internalType":"uint256","name":"uniqueVoters","type":"uint256"},{"internalType":"uint256","name":"totalVotes","type":"uint256"}],"internalType":"struct Polls.StatusInfo","name":"status","type":"tuple"}],"stateMutability":"view","type":"function"},{"inputs":[],"name":"renounceOwnership","outputs":[],"stateMutability":"nonpayable","type":"function"},{"inputs":[{"internalType":"address","name":"caller","type":"address"},{"internalType":"bool","name":"authorized","type":"bool"}],"name":"setAuthorizedCaller","outputs":[],"stateMutability":"nonpayable","type":"function"},{"inputs":[{"internalType":"uint256","name":"pollId","type":"uint256"},{"internalType":"bool","name":"_isActive","type":"bool"}],"name":"setPollActive","outputs":[],"stateMutability":"nonpayable","type":"function"},{"inputs":[{"internalType":"address","name":"newOwner","type":"address"}],"name":"transferOwnership","outputs":[],"stateMutability":"nonpayable","type":"function"},{"inputs":[{"internalType":"uint256","name":"","type":"uint256"},{"internalType":"address","name":"","type":"address"},{"internalType":"uint256","name":"","type":"uint256"}],"name":"userParticipations","outputs":[{"internalType":"uint256","name":"","type":"uint256"}],"stateMutability":"view","type":"function"}],"evm":{"bytecode":{"linkReferences":{},"object":"60806040523461002257610011610027565b60405161473d6101d2823961473d90f35b600080fd5b61003033610077565b565b61003f61003f61003f9290565b90565b61003f6001610032565b90600019905b9181191691161790565b9061006c61003f61007392610032565b825461004c565b9055565b610080906100d1565b61003061008b610042565b600161005c565b61009f61003f61003f9290565b6001600160a01b031690565b61003f90610092565b6100bd9061009f565b9052565b60208101929161003091906100b4565b60006100dc816100ab565b6100e58161009f565b6100ee8461009f565b146100fe5750506100309061017a565b631e4fbdf760e01b8252819061011790600483016100c1565b0390fd5b61003f9061009f565b61003f905461011b565b906001600160a01b0390610052565b61003f9061009f906001600160a01b031682565b61003f9061013d565b61003f90610151565b9061017361003f6100739261015a565b825461012e565b6101a061019a61018a6000610124565b610195846000610163565b61015a565b9161015a565b907f8be0079c531659141344cd1fd0a4f28419497f9722a3daafe3b4186f6b6457e06101cb60405190565b600090a356fe6080604052600436101561001257600080fd5b60003560e01c806304d596ad146101c25780631a8cbcaa146101bd57806320e25fcc146101b85780632ccaf15b146101b35780632ec15480146101ae57806344d1cede146101a9578063454bbd29146101a4578063536fff6c1461019f5780635fa3cf861461019a578063675f91941461019557806371064b6f14610190578063715018a61461018b5780638a979993146101865780638da5cb5b14610181578063ac2f00741461017c578063ae12e00614610177578063b48e2c6214610172578063c034c0f11461016d578063c730110b14610168578063c888fcc314610163578063cace2c631461015e578063d292ce0e14610159578063e1b1edd614610154578063e7c2216b1461014f578063f0114ad11461014a578063f2fde38b146101455763f7562765036101c757612141565b612118565b6120e3565b611fcc565b611f57565b611f31565b611f0a565b611ed2565b611dd0565b6116f9565b6116c1565b611685565b61157d565b6110fe565b6110d6565b610ff9565b610fc7565b610e0f565b610d69565b610d3a565b610cc6565b610c6f565b610a69565b610a44565b610935565b6108d5565b6103c0565b600080fd5b805b036101c757565b905035906101e2826101cc565b565b634e487b7160e01b600052604160045260246000fd5b90601f01601f191681019081106001600160401b0382111761021b57604052565b6101e4565b906101e261022d60405190565b92836101fa565b6001600160401b03811161021b57602090601f01601f19160190565b0190565b90826000939282370152565b9092919261027561027082610234565b610220565b93818552818301116101c7576101e2916020850190610254565b9080601f830112156101c7578160206102aa93359101610260565b90565b9190916040818403126101c7576102c483826101d5565b9260208201356001600160401b0381116101c7576102aa920161028f565b6102aa6102aa6102aa9290565b906102f9906102e2565b600052602052604060002090565b60005b83811061031a5750506000910152565b818101518382015260200161030a565b6102506103429260209261033c815190565b94859290565b93849101610307565b9052565b61035f610250916020949361032a565b918252565b61037961037060405190565b9283928361034f565b03902090565b6102aa91610364565b6102aa916008021c5b60ff1690565b906102aa9154610388565b6103bb6102aa926103b660009360086102ef565b61037f565b610397565b346101c7576103ef6103dc6103d63660046102ad565b906103a2565b6040515b91829182901515815260200190565b0390f35b906020828203126101c7576102aa916101d5565b6104286104316020936102509361041c815190565b80835293849260200190565b95869101610307565b601f01601f191690565b634e487b7160e01b600052602160045260246000fd5b6002111561045b57565b61043b565b906101e282610451565b6102aa90610460565b61034b9061046a565b6102aa9160c06105016104ef6104cb6104b96104a760e08701600089015188820360008a0152610407565b60208801518782036020890152610407565b60408701518682036040880152610407565b6104dd60608701516060870190610473565b60808601518582036080870152610407565b60a085015184820360a0860152610407565b9201519060c0818403910152610407565b805182526101e29190604090819061052f60208201516020860152565b0151910152565b8051151582526101e2919060409081906020818101511515908501525b01511515910152565b8051151582526102aa91604081019160200151906020818403910152610407565b805115158252906102aa9060c0806105a560e084015b60208701518582036020870152610407565b946105b560408201516040860152565b6105c460608201516060860152565b6105d360808201516080860152565b61052f60a082015160a0860152565b805115158252906102aa9060808061062d61060c60a0850160208801518682036020880152610407565b61061b60408801516040870152565b60608701518582036060870152610407565b940151910152565b8051151582526101e291906020908190610553565b6001600160a01b031690565b8051151582526020808201511515908301526040808201516001600160a01b0316908301526101e2919060a090819061069460608201516060860152565b61052f60808201516080860152565b80518252906102aa906101a061010061073061071d61070a6106d5610260870160208a015188820360208a015261047c565b6106e760408a01516040890190610512565b6106f960608a015160a0890190610536565b60808901518782038689015261055c565b60a088015186820361012088015261057d565b60c08701518582036101408701526105e2565b9461074460e0820151610160860190610635565b0151910190610656565b6102aa9160a061079d61078b6107796104b96104a760c08701600089015188820360008a0152610407565b60608601518582036060870152610407565b60808501518482036080860152610407565b9201519060a0818403910152610407565b906102aa9161074e565b906107ce6107c4835190565b8083529160200190565b90816107e06020830284019460200190565b926000915b8383106107f457505050505090565b90919293946020610817610810838560019503875289516107ae565b9760200190565b93019301919392906107e5565b906102aa91610407565b9061083a6107c4835190565b908161084c6020830284019460200190565b926000915b83831061086057505050505090565b9091929394602061087c61081083856001950387528951610824565b9301930191939290610851565b926108b96102aa95936108ab6108c794608088019088820360008a01526106a3565b9086820360208801526107b8565b90848203604086015261082e565b91606081840391015261082e565b346101c7576103ef6108f06108eb3660046103f3565b61260d565b906108fd94929460405190565b94859485610889565b6102aa916008021c81565b906102aa9154610906565b6109306102aa926103b660009360076102ef565b610911565b346101c7576103ef61095161094b3660046102ad565b9061091c565b6040519182918290815260200190565b909182601f830112156101c7578135916001600160401b0383116101c75760200192600183028401116101c757565b6001600160a01b0381166101ce565b905035906101e282610990565b8015156101ce565b905035906101e2826109ac565b909160c0828403126101c7576109d783836101d5565b9260208301356001600160401b0381116101c757816109f7918501610961565b929093610a07836040830161099f565b92610a1581606084016109b4565b9260808301356001600160401b0381116101c75782610a3b60a0946102aa938701610961565b949095016101d5565b346101c7576103ef610951610a5a3660046109c1565b96959095949194939293612ea7565b346101c7576103ef6103dc610a7f3660046103f3565b612f21565b6102aa9081565b6102aa9054610a84565b634e487b7160e01b600052602260045260246000fd5b9060016002830492168015610acb575b6020831014610ac657565b610a95565b91607f1691610abb565b80546000939291610af2610ae883610aab565b8085529360200190565b9160018116908115610b445750600114610b0b57505050565b610b1e9192939450600052602060002090565b916000925b818410610b305750500190565b805484840152602090930192600101610b23565b92949550505060ff1916825215156020020190565b906102aa91610ad5565b906101e2610b7d92610b7460405190565b93848092610b59565b03836101fa565b6102aa90610391565b6102aa9054610b84565b610ba290600c6102ef565b610bab81610a8b565b91610bc060018301546001600160a01b031690565b91610bcd60028201610b63565b91610bda60038301610a8b565b91610be760048201610b8d565b916102aa6006610bf960058501610b63565b9301610a8b565b979694610c5d90610c54610c4c6101e29994610c6a97610c3f60c09a988f602090610c3060e08201966000830152565b01906001600160a01b03169052565b8d820360408f0152610407565b9460608c0152565b151560808a0152565b87820360a0890152610407565b940152565b346101c7576103ef610c8a610c853660046103f3565b610b97565b93610c9a97959793919360405190565b97889788610c00565b91906040838203126101c7576102aa906020610cbf828661099f565b94016109b4565b346101c757610cdf610cd9366004610ca3565b90612f89565b604051005b906020828203126101c7576102aa9161099f565b61064a6102aa6102aa926001600160a01b031690565b6102aa90610cf8565b6102aa90610d0e565b906102f990610d17565b60006103bb6102aa92600f610d20565b346101c7576103ef6103dc610d50366004610ce4565b610d2a565b6109306102aa926103b6600093600a6102ef565b346101c7576103ef610951610d7f3660046102ad565b90610d55565b91906040838203126101c7576102aa906020610da182866101d5565b940161099f565b90610dc8610dc1610db7845190565b8084529260200190565b9260200190565b9060005b818110610dd95750505090565b909192610df6610def6001928651815260200190565b9460200190565b929101610dcc565b60208082526102aa92910190610da8565b346101c7576103ef610e2b610e25366004610d85565b90613051565b60405191829182610dfe565b906102aa9061014080610ec3610eb1610e9f610e8d610e7b610e69610160890160008c01518a820360008c0152610407565b60208b015189820360208b0152610407565b60408a015188820360408a0152610407565b60608901518782036060890152610407565b60808801518682036080880152610407565b60a087015185820360a0870152610407565b94610ed360c082015160c0860152565b610ee260e082015160e0860152565b610ef3610100820151610100860152565b61052f610120820151610120860152565b906102aa91610e37565b90610f1a6107c4835190565b9081610f2c6020830284019460200190565b926000915b838310610f4057505050505090565b90919293946020610f5c61081083856001950387528951610f04565b9301930191939290610f31565b805182526102aa9160a0810191608090610f8860208201516020850152565b610f9760408201516040850152565b610fa660608201516060850152565b0151906080818403910152610f0e565b60208082526102aa92910190610f69565b346101c7576103ef610fe2610fdd3660046103f3565b6133d0565b60405191829182610fb6565b60009103126101c757565b346101c757611009366004610fee565b610cdf6133fe565b91906040838203126101c7576102aa90602061102d82866101d5565b94016101d5565b634e487b7160e01b600052603260045260246000fd5b805482101561106d57611064600191600052602060002090565b91020190600090565b611034565b634e487b7160e01b600052600060045260246000fd5b90600010611099576102aa90610b63565b611072565b6110a99060066102ef565b80548210156101c7576102aa916110bf9161104a565b90611088565b60208082526102aa92910190610407565b346101c7576103ef6110f26110ec366004611011565b9061109e565b604051918291826110c5565b346101c75761110e366004610fee565b6103ef6111236000546001600160a01b031690565b604051918291826001600160a01b03909116815260200190565b9061034b90610460565b6102aa60e0610220565b906101e26111e96006611162611147565b9461117361116f82610b63565b8752565b61118961118260018301610b63565b6020880152565b61119f61119860028301610b63565b6040880152565b6111b76111ae60038301610b8d565b6060880161113d565b6111cd6111c660048301610b63565b6080880152565b6111e36111dc60058301610b63565b60a0880152565b01610b63565b60c0840152565b6102aa6060610220565b906101e261122d600261120b6111f0565b9461121861116f82610a8b565b61122761118260018301610a8b565b01610a8b565b6040840152565b6102aa9060081c610391565b6102aa9054611234565b6102aa9060101c610391565b6102aa905461124a565b906101e26112a560006112716111f0565b94611288611280838301610b8d565b151587840152565b61129f611296838301611240565b15156020880152565b01611256565b15156040840152565b6102aa6040610220565b906101e26112dc60016112c96112ae565b946111e36112d682610b8d565b15158752565b6020840152565b906101e26111e960066112f4611147565b946113016112d682610b8d565b61131061118260018301610b63565b61131f61119860028301610a8b565b61133561132e60038301610a8b565b6060880152565b6113446111c660048301610a8b565b6112276111dc60058301610a8b565b6102aa60a0610220565b906101e26113a8600461136e611353565b9461137b6112d682610b8d565b61138a61118260018301610b63565b61139961119860028301610a8b565b61122761132e60038301610b63565b6080840152565b906101e26113d560006113c06112ae565b946113cf611280838301610b8d565b01611240565b15156020840152565b6102aa9060101c61064a565b6102aa90546113de565b6102aa60c0610220565b906101e2611462600361140f6113f4565b9461141c6112d682610b8d565b61142861129682611240565b611444611434826113ea565b6001600160a01b03166040880152565b61145361132e60018301610a8b565b6112276111c660028301610a8b565b60a0840152565b6114749060036102ef565b61147d81610a8b565b9161148a60018301611151565b91611497600882016111fa565b916114a4600b8301611260565b916114b1600c82016112b8565b916114be600e83016112e3565b916114cb6015820161135d565b916102aa601b6114dd601a85016113af565b93016113fe565b949561154c61156a946101a09861153e611576986101e29d9f9e9c9761152961155b98611534928e61151c6102608201936000830152565b602081840391015261047c565b9460408d0190610512565b60a08b0190610536565b8882036101008a015261055c565b9086820361012088015261057d565b908482036101408601526105e2565b96610160830190610635565b0190610656565b346101c7576103ef6115986115933660046103f3565b611469565b956115ab99979995919594929460405190565b998a998a6114e4565b805182526020808201516001600160a01b031690830152906102aa9060c08061062d6115ef60e0850160408801518682036040880152610407565b6115fe60608801516060870152565b608087810151151590860152610eb1565b906102aa916115b4565b906116256107c4835190565b90816116376020830284019460200190565b926000915b83831061164b57505050505090565b909192939460206116676108108385600195038752895161160f565b930193019193929061163c565b60208082526102aa92910190611619565b346101c7576103ef6116a161169b366004610d85565b906135b5565b60405191829182611674565b6109306102aa926103b660009360096102ef565b346101c7576103ef6109516116d73660046102ad565b906116ad565b91906040838203126101c7576102aa906020610cbf82866101d5565b346101c757610cdf61170c3660046116dd565b906136c4565b600211156101c757565b905035906101e282611712565b91909160e0818403126101c75761174060e0610220565b9281356001600160401b0381116101c7578161175d91840161028f565b845260208201356001600160401b0381116101c7578161177e91840161028f565b602085015260408201356001600160401b0381116101c757816117a291840161028f565b60408501526117b4816060840161171c565b606085015260808201356001600160401b0381116101c757816117d891840161028f565b608085015260a08201356001600160401b0381116101c757816117fc91840161028f565b60a085015260c08201356001600160401b0381116101c75761181e920161028f565b60c0830152565b91906060838203126101c7576118669060406118416060610220565b9461184c83826101d5565b865261185b83602083016101d5565b6020870152016101d5565b6040830152565b91906060838203126101c7576118669060406118896060610220565b9461189483826109b4565b86526118a383602083016109b4565b6020870152016109b4565b9190916040818403126101c7576118c56040610220565b926118d081836109b4565b845260208201356001600160401b0381116101c7576118ef920161028f565b6020830152565b91909160e0818403126101c75761190d60e0610220565b9261191881836109b4565b845260208201356001600160401b0381116101c7578261193f8360c09361181e960161028f565b602087015261195183604083016101d5565b604087015261196383606083016101d5565b606087015261197583608083016101d5565b60808701526119878360a083016101d5565b60a0870152016101d5565b91909160a0818403126101c7576119a960a0610220565b926119b481836109b4565b845260208201356001600160401b0381116101c757816119d591840161028f565b60208501526119e781604084016101d5565b604085015260608201356001600160401b0381116101c75782611a1183608093611a1c960161028f565b6060870152016101d5565b6080830152565b91906040838203126101c7576118ef906020611a3f6040610220565b94611a4a83826109b4565b8652016109b4565b6001600160401b03811161021b5760208091020190565b91909160c0818403126101c757611a8060c0610220565b9281356001600160401b0381116101c75781611a9d91840161028f565b845260208201356001600160401b0381116101c75781611abe91840161028f565b602085015260408201356001600160401b0381116101c75781611ae291840161028f565b604085015260608201356001600160401b0381116101c75781611b0691840161028f565b606085015260808201356001600160401b0381116101c75781611b2a91840161028f565b608085015260a08201356001600160401b0381116101c757611b4c920161028f565b60a0830152565b929190611b6261027082611a52565b93818552602080860192028101918383116101c75781905b838210611b88575050505050565b81356001600160401b0381116101c757602091611ba88784938701611a69565b815201910190611b7a565b9080601f830112156101c7578160206102aa93359101611b53565b929190611bdd61027082611a52565b93818552602080860192028101918383116101c75781905b838210611c03575050505050565b81356001600160401b0381116101c757602091611c23878493870161028f565b815201910190611bf5565b9080601f830112156101c7578160206102aa93359101611bce565b9190610200838203126101c757611c61610160610220565b9280356001600160401b0381116101c75782611c7e918301611729565b8452611c8d8260208301611825565b6020850152611c9f826080830161186d565b604085015260e08101356001600160401b0381116101c75782611cc39183016118ae565b60608501526101008101356001600160401b0381116101c75782611ce89183016118f6565b60808501526101208101356001600160401b0381116101c75782611d0d918301611992565b60a085015261014091611d2281848401611a23565b60c08601526101808201356001600160401b0381116101c75781611d47918401611bb3565b60e08601526101a08201356001600160401b0381116101c75781611d6c918401611c2e565b6101008601526101c08201356001600160401b0381116101c75782611d99836101e093611da59601611c2e565b610120880152016109b4565b90830152565b906020828203126101c75781356001600160401b0381116101c7576102aa9201611c49565b346101c7576103ef610951611de6366004611dab565b6141b3565b906102aa9060c0806105a561059360e0850160008801518682036000880152610407565b906102aa91611deb565b90611e256107c4835190565b9081611e376020830284019460200190565b926000915b838310611e4b57505050505090565b90919293946020611e6761081083856001950387528951611e0f565b9301930191939290611e3c565b805182526102aa9160a0810191608090611e9360208201516020850152565b611ea260408201516040850152565b611eb160608201516060850152565b0151906080818403910152611e19565b60208082526102aa92910190611e74565b346101c7576103ef611eed611ee83660046103f3565b614450565b60405191829182611ec1565b60208082526102aa929101906115b4565b346101c7576103ef611f25611f203660046103f3565b614461565b60405191829182611ef9565b346101c757611f41366004610fee565b6103ef610951614478565b6110a99060056102ef565b346101c7576103ef6110f2611f6d366004611011565b90611f4c565b90916060828403126101c7576102aa611f8c84846101d5565b93604061102d826020870161099f565b90611fab611fb092600d6102ef565b610d20565b80548210156101c7576102aa91611fc69161104a565b90610911565b346101c7576103ef610951611fe2366004611f73565b91611f9c565b805482101561106d57611064600691600052602060002090565b61200d9060046102ef565b90612016825490565b8110156101c75761202691611fe8565b509061203182610b63565b9161203e60018201610b63565b9161204b60028301610b63565b9161205860038201610b63565b916102aa600561206a60048501610b63565b9301610b63565b9491936120b96120d5946120ab6102aa999761209d6120c79660c08c01908c6000818403910152610407565b908a820360208c0152610407565b9088820360408a0152610407565b908682036060880152610407565b908482036080860152610407565b9160a0818403910152610407565b346101c7576103ef6120ff6120f9366004611011565b90612002565b9261210f96949692919260405190565b96879687612071565b346101c757610cdf61212b366004610ce4565b6144da565b60208082526102aa929101906107b8565b346101c7576103ef61215c6121573660046103f3565b61450d565b60405191829182612130565b6102aa610120610220565b61217b611147565b906060825260208080808080808801606081520160608152016000815201606081520160605b8152016060905250565b905250565b6102aa612173565b6121c06111f0565b906000825260208080840160005b8152016000905250565b6102aa6121b8565b6121e86112ae565b906000825260606020830152565b6102aa6121e0565b612206611147565b9060005b82526020808080808080880160605b81520160005b8152016000815201600081520160006121ce565b6102aa6121fe565b612243611353565b9060008252602080808080860160605b815201600081520160606121ce565b6102aa61223b565b6122726112ae565b906000825260006020830152565b6102aa61226a565b6122906113f4565b9060008252602080808080808701600061221f565b6102aa612288565b6122b5612168565b9060008252602080808080808080808a016122ce6121b0565b8152016122d96121d8565b8152016122e46121d8565b8152016122ef6121f6565b8152016122fa612233565b815201612305612262565b815201612310612280565b8152016121ab6122a5565b6102aa6122ad565b61064a6102aa6102aa9290565b6102aa90612323565b1561234057565b60405162461bcd60e51b815260206004820152601360248201527f506f6c6c20646f6573206e6f74206578697374000000000000000000000000006044820152606490fd5b906123d2949392916123cd6123a96000601b6123a28960036102ef565b01016113ea565b6123c66123b961064a6000612330565b916001600160a01b031690565b1415612339565b6125b8565b90919293565b906101e2612473601b6123e9612168565b946123f661116f82610a8b565b61240561118260018301611151565b612414611198600883016111fa565b61242361132e600b8301611260565b6124326111c6600c83016112b8565b6124416111dc600e83016112e3565b6124576124506015830161135d565b60c0880152565b61246d612466601a83016113af565b60e0880152565b016113fe565b610100840152565b6102aa906123d8565b9061035f61027083611a52565b906101e261146260056124a26113f4565b946124af61116f82610b63565b6124be61118260018301610b63565b6124cd61119860028301610b63565b6124dc61132e60038301610b63565b6111e36111c660048301610b63565b6102aa90612491565b906124fd825490565b61250681612484565b9261251a6020850191600052602060002090565b6000915b83831061252b5750505050565b6006602060019261253b856124eb565b81520192019201919061251e565b6102aa906124f4565b6102aa90610b63565b90612564825490565b61256d81612484565b926125816020850191600052602060002090565b6000915b8383106125925750505050565b6001602081926125a185612552565b815201920192019190612585565b6102aa9061255b565b505050506125c78160036102ef565b6125d28260046102ef565b926102aa6126076126016125fb6125f56125ed8860066102ef565b9760056102ef565b9561247b565b96612549565b946125af565b926125af565b6123d29061261961231b565b6060808092612385565b9061263c9897969594939291612637614522565b612b84565b906101e2614562565b1561264c57565b60405162461bcd60e51b81526020600482015260096024820152681393d517d1561254d560ba1b6044820152606490fd5b1561268457565b60405162461bcd60e51b815260206004820152600a6024820152694e4f545f41435449564560b01b6044820152606490fd5b156126bd57565b60405162461bcd60e51b815260206004820152600b60248201526a1393d517d4d5105495115160aa1b6044820152606490fd5b156126f757565b60405162461bcd60e51b8152602060048201526005602482015264115391115160da1b6044820152606490fd5b90916102509083908093610254565b61035f906020949361025093612724565b90916103799061275360405190565b93849384612733565b90916102aa92612744565b1561276e57565b60405162461bcd60e51b815260206004820152600e60248201527f494e56414c49445f4f5054494f4e0000000000000000000000000000000000006044820152606490fd5b156127ba57565b60405162461bcd60e51b815260206004820152601460248201527f414c52454144595f5041525449434950415445440000000000000000000000006044820152606490fd5b634e487b7160e01b600052601160045260246000fd5b60001981146128245760010190565b6127ff565b90600019905b9181191691161790565b906128496102aa612850926102e2565b8254612829565b9055565b6102aa913691610260565b5190565b906001600160a01b039061282f565b906128826102aa61285092610d17565b8254612863565b9160001960089290920291821b911b61282f565b91906128ae6102aa612850936102e2565b908354612889565b6101e29160009161289d565b8181106128cd575050565b806128db60006001936128b6565b016128c2565b9190601f81116128f057505050565b6129026101e293600052602060002090565b906020601f840181900483019310612924575b6020601f9091010401906128c2565b9091508190612915565b90612937815190565b906001600160401b03821161021b5761295a826129548554610aab565b856128e1565b602090601f83116001146129955761285092916000918361298a575b5050600019600883021c1916906002021790565b015190503880612976565b601f198316916129aa85600052602060002090565b9260005b8181106129e8575091600293918560019694106129cf575b50505002019055565b01516000196008601f8516021c191690553880806129c6565b919360206001819287870151815501950192016129ae565b906101e29161292e565b9060ff9061282f565b90612a236102aa61285092151590565b8254612a0a565b6006612acc60c06101e294612a49612a43600083015190565b86612839565b612a69612a6060208301516001600160a01b031690565b60018701612872565b612a80612a77604083015190565b60028701612a00565b612a97612a8e606083015190565b60038701612839565b612ab0612aa76080830151151590565b60048701612a13565b612ac7612abe60a083015190565b60058701612a00565b015190565b9101612839565b906101e291612a2a565b908154916801000000000000000083101561021b5782612b059160016101e29501815561104a565b9061289d565b9190820180921161282457565b919061043181612b2f816102509560209181520190565b8095610254565b926101e296989795608095612b6b612b61612b7895612b809760a08a01918a830360008c0152612b18565b9315156020880152565b8583036040870152612b18565b966060830152565b0152565b91849697988296949350612b998360036102ef565b99601b8b01612ba7816113ea565b60009c8d91612bb583612330565b6001600160a01b0316906001600160a01b03161415612bd390612645565b612bde838301610b8d565b612be79061267d565b60088101828101612bf790610a8b565b421015612c03906126b6565b600101612c0f90610a8b565b421115612c1b906126f0565b8588612c288960086102ef565b91612c329261275c565b612c3b90610b8d565b612c4490612767565b60150101612c5190610b8d565b15612e76575b612c61600e610a8b565b612c6a90612815565b612c7590600e612839565b612c7f600e610a8b565b9b85612c89611147565b918201526001600160a01b0389166020820152612ca68786612854565b6040820152612cb6426060830152565b8715156080820152612cc8838d612854565b60a0820152612cd88460c0830152565b612ce38d600c6102ef565b90612ced91612ad3565b8b88612cfa87600d6102ef565b90612d0491610d20565b90612d0e91612add565b612d1860016102e2565b8487612d258860096102ef565b91612d2f9261275c565b81612d3982610a8b565b90612d4391612b0b565b612d4c91612839565b86888682612d5b8a600a6102ef565b91612d659261275c565b83612d6f82610a8b565b90612d7991612b0b565b612d8291612839565b612de27faa3435579412516a140cb2bd81efe3afad1cefc49a646e891b5fd1c6d371ef7e9b611fab612e1d9a612de6956102aa95612e41575b50612ddb60038901612dd589612dd083610a8b565b612b0b565b90612839565b600d6102ef565b5490565b14612e23575b50612e08612e02612dfc8d6102e2565b996102e2565b99610d17565b99612e1260405190565b968796429588612b36565b0390a490565b6002612e3b9101612dd5612e3682610a8b565b612815565b38612dec565b612e59612e66918d612e548560076102ef565b61275c565b612dd58c612dd083610a8b565b612e708a82614574565b8c612dbb565b612ea28c612e9c612e98612e92612de28d611fab8c600d6102ef565b926102e2565b9190565b146127b3565b612c57565b6102aa97969594939291906000612623565b906102aa91612ed36123a96000601b6123a28660036102ef565b612ee891612ee3915060036102ef565b61247b565b6101008101515115159081612f11575b81612f01575090565b6040015160200151905042111590565b6040810151514210159150612ef8565b6102aa906000612eb9565b906101e291612f396145ab565b612f84612f7a7fad857fa38c9319cb80848f1ef2f924383b90297eb5d71755738ff037d100faa192612f7585612f7083600f610d20565b612a13565b610d17565b926103e060405190565b0390a2565b906101e291612f2c565b906102aa9291612fae6123a96000601b6123a28660036102ef565b613038565b90612fce612fc2610db7845490565b92600052602060002090565b9060005b818110612fdf5750505090565b909192613003612ffc600192612ff487610a8b565b815260200190565b9460010190565b929101612fd2565b906102aa91612fb3565b906101e2610b7d9261302660405190565b9384809261300b565b6102aa90613015565b91611fab61304c926102aa9450600d6102ef565b61302f565b6102aa91906060612f93565b613065611353565b906000825260208080808086016000815201600081520160006121a1565b6102aa61305d565b906102aa916130a56123a96000601b6123a28660036102ef565b61318c565b6102aa610160610220565b6130bd6130aa565b90606082526020808080808080808080808c0160608152016060815201606081520160608152016060612219565b6102aa6130b5565b60005b82811061310257505050565b60209061310d6130eb565b81840152016130f6565b906101e261312d61312784612484565b93611a52565b601f1901602084016130f3565b90613143825190565b81101561106d576020809102010190565b8181029291811591840414171561282457565b634e487b7160e01b600052601260045260246000fd5b8115613187570490565b613167565b5061319b612ee38260036102ef565b906131af6131aa8260046102ef565b612549565b916101006131bc83614603565b9101926131cb60a08551015190565b6131db6131d6835190565b613117565b936000936131e8856102e2565b6131f36102aa865190565b811015613389578561322561322061320c8660096102ef565b83613217868b61313a565b5101519061037f565b610a8b565b61324161322061323687600a6102ef565b84613217878c61313a565b61325d6132206132528860076102ef565b85613217888d61313a565b90613267846102e2565b88111561337b5761328b886132866132806127106102e2565b86613154565b61317d565b613294856102e2565b87111561336c576132ad876132866132806127106102e2565b935b856132ba888d61313a565b510151878c6132c9828261313a565b51602001516132d8838361313a565b5160400151906132e8848461313a565b5160600151926132f8858261313a565b5160800151946133079161313a565b5160a00151946133156130aa565b9b8c015260208b015260408a01526060890152608088015260a087015260c086015260e0850152610100840152610120830152610140820152613358828961313a565b52613363818861313a565b506001016131e8565b613375856102e2565b936132af565b613384846102e2565b61328b565b5091611a1c9350906133c26133c9926133bb6133ac60806102aa9a999b51015190565b936133b5611353565b9a8b0152565b6020890152565b6040870152565b6060850152565b6102aa906133dc613083565b61308b565b6133e96145ab565b6101e26101e26133f96000612330565b6146ac565b6101e26133e1565b906102aa92916134216123a96000601b6123a28660036102ef565b61352a565b61342e611147565b906000825260208080808080808801600081520160608152016000612253565b6102aa613426565b60005b82811061346557505050565b60209061347061344e565b8184015201613459565b906101e261348a61312784612484565b601f190160208401613456565b906101e26111e960066134a8611147565b946134b561116f82610a8b565b6134dc6134cc60018301546001600160a01b031690565b6001600160a01b03166020880152565b6134eb61119860028301610b63565b6134fa61132e60038301610a8b565b61351261350960048301610b8d565b15156080880152565b6112276111dc60058301610b63565b6102aa90613497565b91611fab61304c9261353e9450600d6102ef565b61354e613549825190565b61347a565b9061355960006102e2565b6135646102aa835190565b8110156135b0576135ab9061358f61358a600c61358461285f858861313a565b906102ef565b613521565b613599828661313a565b526135a4818561313a565b5060010190565b613559565b505090565b6102aa91906060613406565b906101e2916135ce6145ab565b61361f565b156135da57565b60405162461bcd60e51b815260206004820152601a60248201527f416c72656164792073657420746f2074686973207374617475730000000000006044820152606490fd5b61368890613683836000601b61367c85600361365261364386866123a286866102ef565b6123c66123b961064a89612330565b61367761366b868661366486866102ef565b0101610b8d565b151587151514156135d3565b6102ef565b0101612a13565b6102e2565b7f808eec1e87b4f6ad5caa96449ecbfc6a0cccfa9c343730af222195930c9c29f86136bf6136b533610d17565b936103e060405190565b0390a3565b906101e2916135c1565b906102aa916136db6145ab565b613d8e565b156136e757565b60405162461bcd60e51b815260206004820152601560248201527f5469746c652063616e6e6f7420626520656d70747900000000000000000000006044820152606490fd5b1561373357565b60405162461bcd60e51b815260206004820152601c60248201527f4174206c65617374206f6e65206f7074696f6e207265717569726564000000006044820152606490fd5b1561377f57565b60405162461bcd60e51b815260206004820152602260248201527f53746172742064617465206d757374206265206265666f726520656e64206461604482015261746560f01b6064820152608490fd5b156137d657565b60405162461bcd60e51b815260206004820152601e60248201527f456e642064617465206d75737420626520696e207468652066757475726500006044820152606490fd5b1561382257565b60405162461bcd60e51b815260206004820152602760248201527f42657474696e6720617373657420726571756972656420666f722062657474696044820152666e67206d6f646560c81b6064820152608490fd5b1561387e57565b60405162461bcd60e51b815260206004820152602260248201527f4d696e696d756d20626574206d7573742062652067726561746572207468616e604482015261020360f41b6064820152608490fd5b156138d557565b60405162461bcd60e51b815260206004820152602260248201527f4d6178696d756d20626574206d757374206265203e3d206d696e696d756d2062604482015261195d60f21b6064820152608490fd5b6102aa9051610460565b90612a236102aa6128509261046a565b60066139b260c06101e29461395e613958600083015190565b86612a00565b61397561396c602083015190565b60018701612a00565b613983612a77604083015190565b61399b61399260608301613925565b6003870161392f565b612ab06139a9608083015190565b60048701612a00565b9101612a00565b906101e29161393f565b6002612acc60406101e2946139dc612a43600083015190565b612ac76139ea602083015190565b60018701612839565b906101e2916139c3565b9061ff009060081b61282f565b90613a1a6102aa61285092151590565b82546139fd565b9062ff00009060101b61282f565b90613a3f6102aa61285092151590565b8254613a21565b6101e291613a8190604090613a64613a5e8251151590565b85612a13565b613a7a613a746020830151151590565b85613a0a565b0151151590565b90613a2f565b906101e291613a46565b60016139b260206101e294612ac7613aac6000830151151590565b86612a13565b906101e291613a91565b6006612acc60c06101e294613ad7613aac6000830151151590565b613ae561396c602083015190565b613afc613af3604083015190565b60028701612839565b613b0a612a8e606083015190565b613b21613b18608083015190565b60048701612839565b612ac7613b2f60a083015190565b60058701612839565b906101e291613abc565b6004612acc60806101e294613b5d613aac6000830151151590565b613b6b61396c602083015190565b613b79613af3604083015190565b612ac7613b87606083015190565b60038701612a00565b906101e291613b42565b6101e291613bb290602090613a7a613a5e8251151590565b90613a0a565b906101e291613b9a565b9075ffffffffffffffffffffffffffffffffffffffff00009060101b61282f565b90613bf36102aa61285092610d17565b8254613bc2565b15613c0157565b60405162461bcd60e51b815260206004820152601960248201527f4f7074696f6e2049442063616e6e6f7420626520656d707479000000000000006044820152606490fd5b15613c4d57565b60405162461bcd60e51b815260206004820152601b60248201527f4f7074696f6e206e616d652063616e6e6f7420626520656d70747900000000006044820152606490fd5b60056139b260a06101e294613cab613958600083015190565b613cb961396c602083015190565b613cc7612a77604083015190565b613cd5613b87606083015190565b612ac76139a9608083015190565b9190611099576101e291613c92565b908154916801000000000000000083101561021b5782613d1a9160016101e295018155611fe8565b90613ce3565b9190611099576101e29161292e565b908154916801000000000000000083101561021b5782613d579160016101e29501815561104a565b90613d20565b612b806101e294611866613d836060959998969960808601908682036000880152610407565b986020850190610473565b5080515151613dab600091613da5612e98846102e2565b116136e0565b60e0820191613dce613dbc84515190565b613dc8612e98856102e2565b1161372c565b6020810191613df9613de1828551015190565b613df3612e986102aa60208851015190565b10613778565b613e0f613e0860208551015190565b42106137cf565b6006601b6080840193613e258486510151151590565b614141575b613e41613e3a612e366002610a8b565b6002612839565b613e4b6002610a8b565b96613e5a6102aa8960036102ef565b90613e6789878401612839565b613eda86840197613e7c8951600186016139b9565b613e8a8a51600886016139f3565b613e9b6040860151600b8601613a87565b613eac6060860151600c8601613ab2565b51613ebb600e85019182613b38565b613ec4886102e2565b9681613ed4896005819501612839565b01612839565b613eeb60a084015160158401613b90565b613efc60c0840151601a8401613bb8565b613f4f856003600196879501613f368a8201613f188882612a13565b613f2f613f296101408b0151151590565b82613a0a565b3390613be3565b613f4242878301612839565b613ed48360028301612839565b8585835b614093575b5050508084905b614053575b5083905b613fff575b50505090613fa67fffec07b2a88595de82dc6477f46e34a5e7fa613aaf308b5a6e6a2c7cc6c43c6c92613fa187600b6102ef565b612839565b613fcf6020613fc8613fc060608588510151975101613925565b938751015190565b9551015190565b92613ff9613fdc876102e2565b94613fe633610d17565b96613ff060405190565b94859485613d5d565b0390a390565b6101208201886140116102aa83515190565b83101561404c578291614039614046946140326102aa6140409560056102ef565b925161313a565b5190613d2f565b60010190565b82613f68565b5050613f6d565b610100830190896140666102aa84515190565b82101561408c5761408692614039836140326102aa6140409560066102ef565b81613f5f565b5050613f64565b868b6140a16102aa86515190565b83101561413a57612f7061412687926140fc856140f66102aa61285f60206140e48c8f6141329f6140409e6140ea6102aa61285f6140f0946140e488885161313a565b51015190565b11613bfa565b5161313a565b11613c46565b61411f61410d6102aa8360046102ef565b614118888b5161313a565b5190613cf2565b60086102ef565b8b61321786895161313a565b869083613f53565b5050613f58565b61416561415361285f60208851015190565b61415f612e98876102e2565b1161381b565b61418661417460408751015190565b614180612e98876102e2565b11613877565b6141ae61419560608751015190565b6141a7612e986102aa60408a51015190565b10156138ce565b613e2a565b6102aa9060006136ce565b906102aa916141d86123a96000601b6123a28660036102ef565b614236565b6141e5611147565b90606061220a565b6102aa6141dd565b60005b82811061420457505050565b60209061420f6141ed565b81840152016141f8565b906101e261422961312784612484565b601f1901602084016141f5565b5090614246612ee38360036102ef565b916142556131aa8260046102ef565b9061010061426282614603565b94019261427160a08551015190565b9161428261427d855190565b614219565b9260009261428f846102e2565b61429a6102aa885190565b81101561442e576142ac8460096102ef565b856142b7838a61313a565b5101516142c39161037f565b6142cc90610a8b565b90858881838d6142dd8a600a6102ef565b836142e8848761313a565b5101516142f49161037f565b6142fd90610a8b565b906143098b60076102ef565b84614314858861313a565b5101516143209161037f565b61432990610a8b565b918291858c614337826102e2565b81116000149b6143d66143f29a6143cf6144079f6143bd61181e9c6143eb9b6143e49a6143dd9960209561441e5761437d906132866143776127106102e2565b8c613154565b9a5b614388816102e2565b82111561440c57506132866143a8926143a26127106102e2565b90613154565b9e5b6143b4828761313a565b5101519461313a565b510151916143c9611147565b9e8f0152565b60208d0152565b60408b0152565b6060890152565b6080870152565b60a0850152565b6143fc828961313a565b526135a4818861313a565b61428f565b905061441891506102e2565b9e6143aa565b506144288b6102e2565b9a61437f565b5096916102aa95506133c26133c9926133bb6133ac6080611a1c989b51015190565b6102aa9061445c613083565b6141be565b61358a6102aa9161447061344e565b50600c6102ef565b6102aa6002610a8b565b6101e29061448e6145ab565b600061449981612330565b6001600160a01b0381166001600160a01b038416146144bd5750506101e2906146ac565b631e4fbdf760e01b82526001600160a01b03166004820152602490fd5b6101e290614482565b906102aa916144fd6123a96000601b6123a28660036102ef565b6102aa916131aa915060046102ef565b6102aa9060606144e3565b6102aa60026102e2565b61452c6001610a8b565b614534614518565b908114614546576101e2906001612839565b633ee5aeb560e01b6000908152600490fd5b6102aa60016102e2565b6101e261456d614558565b6001612839565b6145a49061459d6101e293612dd56006600e6145918660036102ef565b010191612dd083610a8b565b600b6102ef565b4290612839565b6000546001600160a01b031633906145c2826123b9565b036145ca5750565b63118cdaa760e01b60009081526001600160a01b039091166004526024036000fd5b9190820391821161282457565b6102aa601e6102e2565b61461a61461461322083600b6102ef565b426145ec565b614628612e986102aa6145f9565b106146935761463b6131aa8260046102ef565b600061464760006102e2565b92835b6146556102aa855190565b85101561468b57612ffc6146859161467f6132206146748660076102ef565b876132178b8b61313a565b90612b0b565b9361464a565b935050505090565b6006600e6146a56102aa9360036102ef565b0101610a8b565b6146d56146cf6146c46000546001600160a01b031690565b612f75846000612872565b91610d17565b907f8be0079c531659141344cd1fd0a4f28419497f9722a3daafe3b4186f6b6457e061470060405190565b80806136bf56fea2646970667358221220190017effa2bf18d154d0e238a347d46ef63e5f86078e0283b6bdc6aada03ec164736f6c634300081c0033","opcodes":"PUSH1 0x80 PUSH1 0x40 MSTORE CALLVALUE PUSH2 0x22 JUMPI PUSH2 0x11 PUSH2 0x27 JUMP JUMPDEST PUSH1 0x40 MLOAD PUSH2 0x473D PUSH2 0x1D2 DUP3 CODECOPY PUSH2 0x473D SWAP1 RETURN JUMPDEST PUSH1 0x0 DUP1 REVERT JUMPDEST PUSH2 0x30 CALLER PUSH2 0x77 JUMP JUMPDEST JUMP JUMPDEST PUSH2 0x3F PUSH2 0x3F PUSH2 0x3F SWAP3 SWAP1 JUMP JUMPDEST SWAP1 JUMP JUMPDEST PUSH2 0x3F PUSH1 0x1 PUSH2 0x32 JUMP JUMPDEST SWAP1 PUSH1 0x0 NOT SWAP1 JUMPDEST SWAP2 DUP2 NOT AND SWAP2 AND OR SWAP1 JUMP JUMPDEST SWAP1 PUSH2 0x6C PUSH2 0x3F PUSH2 0x73 SWAP3 PUSH2 0x32 JUMP JUMPDEST DUP3 SLOAD PUSH2 0x4C JUMP JUMPDEST SWAP1 SSTORE JUMP JUMPDEST PUSH2 0x80 SWAP1 PUSH2 0xD1 JUMP JUMPDEST PUSH2 0x30 PUSH2 0x8B PUSH2 0x42 JUMP JUMPDEST PUSH1 0x1 PUSH2 0x5C JUMP JUMPDEST PUSH2 0x9F PUSH2 0x3F PUSH2 0x3F SWAP3 SWAP1 JUMP JUMPDEST PUSH1 0x1 PUSH1 0x1 PUSH1 0xA0 SHL SUB AND SWAP1 JUMP JUMPDEST PUSH2 0x3F SWAP1 PUSH2 0x92 JUMP JUMPDEST PUSH2 0xBD SWAP1 PUSH2 0x9F JUMP JUMPDEST SWAP1 MSTORE JUMP JUMPDEST PUSH1 0x20 DUP2 ADD SWAP3 SWAP2 PUSH2 0x30 SWAP2 SWAP1 PUSH2 0xB4 JUMP JUMPDEST PUSH1 0x0 PUSH2 0xDC DUP2 PUSH2 0xAB JUMP JUMPDEST PUSH2 0xE5 DUP2 PUSH2 0x9F JUMP JUMPDEST PUSH2 0xEE DUP5 PUSH2 0x9F JUMP JUMPDEST EQ PUSH2 0xFE JUMPI POP POP PUSH2 0x30 SWAP1 PUSH2 0x17A JUMP JUMPDEST PUSH4 0x1E4FBDF7 PUSH1 0xE0 SHL DUP3 MSTORE DUP2 SWAP1 PUSH2 0x117 SWAP1 PUSH1 0x4 DUP4 ADD PUSH2 0xC1 JUMP JUMPDEST SUB SWAP1 REVERT JUMPDEST PUSH2 0x3F SWAP1 PUSH2 0x9F JUMP JUMPDEST PUSH2 0x3F SWAP1 SLOAD PUSH2 0x11B JUMP JUMPDEST SWAP1 PUSH1 0x1 PUSH1 0x1 PUSH1 0xA0 SHL SUB SWAP1 PUSH2 0x52 JUMP JUMPDEST PUSH2 0x3F SWAP1 PUSH2 0x9F SWAP1 PUSH1 0x1 PUSH1 0x1 PUSH1 0xA0 SHL SUB AND DUP3 JUMP JUMPDEST PUSH2 0x3F SWAP1 PUSH2 0x13D JUMP JUMPDEST PUSH2 0x3F SWAP1 PUSH2 0x151 JUMP JUMPDEST SWAP1 PUSH2 0x173 PUSH2 0x3F PUSH2 0x73 SWAP3 PUSH2 0x15A JUMP JUMPDEST DUP3 SLOAD PUSH2 0x12E JUMP JUMPDEST PUSH2 0x1A0 PUSH2 0x19A PUSH2 0x18A PUSH1 0x0 PUSH2 0x124 JUMP JUMPDEST PUSH2 0x195 DUP5 PUSH1 0x0 PUSH2 0x163 JUMP JUMPDEST PUSH2 0x15A JUMP JUMPDEST SWAP2 PUSH2 0x15A JUMP JUMPDEST SWAP1 PUSH32 0x8BE0079C531659141344CD1FD0A4F28419497F9722A3DAAFE3B4186F6B6457E0 PUSH2 0x1CB PUSH1 0x40 MLOAD SWAP1 JUMP JUMPDEST PUSH1 0x0 SWAP1 LOG3 JUMP INVALID PUSH1 0x80 PUSH1 0x40 MSTORE PUSH1 0x4 CALLDATASIZE LT ISZERO PUSH2 0x12 JUMPI PUSH1 0x0 DUP1 REVERT JUMPDEST PUSH1 0x0 CALLDATALOAD PUSH1 0xE0 SHR DUP1 PUSH4 0x4D596AD EQ PUSH2 0x1C2 JUMPI DUP1 PUSH4 0x1A8CBCAA EQ PUSH2 0x1BD JUMPI DUP1 PUSH4 0x20E25FCC EQ PUSH2 0x1B8 JUMPI DUP1 PUSH4 0x2CCAF15B EQ PUSH2 0x1B3 JUMPI DUP1 PUSH4 0x2EC15480 EQ PUSH2 0x1AE JUMPI DUP1 PUSH4 0x44D1CEDE EQ PUSH2 0x1A9 JUMPI DUP1 PUSH4 0x454BBD29 EQ PUSH2 0x1A4 JUMPI DUP1 PUSH4 0x536FFF6C EQ PUSH2 0x19F JUMPI DUP1 PUSH4 0x5FA3CF86 EQ PUSH2 0x19A JUMPI DUP1 PUSH4 0x675F9194 EQ PUSH2 0x195 JUMPI DUP1 PUSH4 0x71064B6F EQ PUSH2 0x190 JUMPI DUP1 PUSH4 0x715018A6 EQ PUSH2 0x18B JUMPI DUP1 PUSH4 0x8A979993 EQ PUSH2 0x186 JUMPI DUP1 PUSH4 0x8DA5CB5B EQ PUSH2 0x181 JUMPI DUP1 PUSH4 0xAC2F0074 EQ PUSH2 0x17C JUMPI DUP1 PUSH4 0xAE12E006 EQ PUSH2 0x177 JUMPI DUP1 PUSH4 0xB48E2C62 EQ PUSH2 0x172 JUMPI DUP1 PUSH4 0xC034C0F1 EQ PUSH2 0x16D JUMPI DUP1 PUSH4 0xC730110B EQ PUSH2 0x168 JUMPI DUP1 PUSH4 0xC888FCC3 EQ PUSH2 0x163 JUMPI DUP1 PUSH4 0xCACE2C63 EQ PUSH2 0x15E JUMPI DUP1 PUSH4 0xD292CE0E EQ PUSH2 0x159 JUMPI DUP1 PUSH4 0xE1B1EDD6 EQ PUSH2 0x154 JUMPI DUP1 PUSH4 0xE7C2216B EQ PUSH2 0x14F JUMPI DUP1 PUSH4 0xF0114AD1 EQ PUSH2 0x14A JUMPI DUP1 PUSH4 0xF2FDE38B EQ PUSH2 0x145 JUMPI PUSH4 0xF7562765 SUB PUSH2 0x1C7 JUMPI PUSH2 0x2141 JUMP JUMPDEST PUSH2 0x2118 JUMP JUMPDEST PUSH2 0x20E3 JUMP JUMPDEST PUSH2 0x1FCC JUMP JUMPDEST PUSH2 0x1F57 JUMP JUMPDEST PUSH2 0x1F31 JUMP JUMPDEST PUSH2 0x1F0A JUMP JUMPDEST PUSH2 0x1ED2 JUMP JUMPDEST PUSH2 0x1DD0 JUMP JUMPDEST PUSH2 0x16F9 JUMP JUMPDEST PUSH2 0x16C1 JUMP JUMPDEST PUSH2 0x1685 JUMP JUMPDEST PUSH2 0x157D JUMP JUMPDEST PUSH2 0x10FE JUMP JUMPDEST PUSH2 0x10D6 JUMP JUMPDEST PUSH2 0xFF9 JUMP JUMPDEST PUSH2 0xFC7 JUMP JUMPDEST PUSH2 0xE0F JUMP JUMPDEST PUSH2 0xD69 JUMP JUMPDEST PUSH2 0xD3A JUMP JUMPDEST PUSH2 0xCC6 JUMP JUMPDEST PUSH2 0xC6F JUMP JUMPDEST PUSH2 0xA69 JUMP JUMPDEST PUSH2 0xA44 JUMP JUMPDEST PUSH2 0x935 JUMP JUMPDEST PUSH2 0x8D5 JUMP JUMPDEST PUSH2 0x3C0 JUMP JUMPDEST PUSH1 0x0 DUP1 REVERT JUMPDEST DUP1 JUMPDEST SUB PUSH2 0x1C7 JUMPI JUMP JUMPDEST SWAP1 POP CALLDATALOAD SWAP1 PUSH2 0x1E2 DUP3 PUSH2 0x1CC JUMP JUMPDEST JUMP JUMPDEST PUSH4 0x4E487B71 PUSH1 0xE0 SHL PUSH1 0x0 MSTORE PUSH1 0x41 PUSH1 0x4 MSTORE PUSH1 0x24 PUSH1 0x0 REVERT JUMPDEST SWAP1 PUSH1 0x1F ADD PUSH1 0x1F NOT AND DUP2 ADD SWAP1 DUP2 LT PUSH1 0x1 PUSH1 0x1 PUSH1 0x40 SHL SUB DUP3 GT OR PUSH2 0x21B JUMPI PUSH1 0x40 MSTORE JUMP JUMPDEST PUSH2 0x1E4 JUMP JUMPDEST SWAP1 PUSH2 0x1E2 PUSH2 0x22D PUSH1 0x40 MLOAD SWAP1 JUMP JUMPDEST SWAP3 DUP4 PUSH2 0x1FA JUMP JUMPDEST PUSH1 0x1 PUSH1 0x1 PUSH1 0x40 SHL SUB DUP2 GT PUSH2 0x21B JUMPI PUSH1 0x20 SWAP1 PUSH1 0x1F ADD PUSH1 0x1F NOT AND ADD SWAP1 JUMP JUMPDEST ADD SWAP1 JUMP JUMPDEST SWAP1 DUP3 PUSH1 0x0 SWAP4 SWAP3 DUP3 CALLDATACOPY ADD MSTORE JUMP JUMPDEST SWAP1 SWAP3 SWAP2 SWAP3 PUSH2 0x275 PUSH2 0x270 DUP3 PUSH2 0x234 JUMP JUMPDEST PUSH2 0x220 JUMP JUMPDEST SWAP4 DUP2 DUP6 MSTORE DUP2 DUP4 ADD GT PUSH2 0x1C7 JUMPI PUSH2 0x1E2 SWAP2 PUSH1 0x20 DUP6 ADD SWAP1 PUSH2 0x254 JUMP JUMPDEST SWAP1 DUP1 PUSH1 0x1F DUP4 ADD SLT ISZERO PUSH2 0x1C7 JUMPI DUP2 PUSH1 0x20 PUSH2 0x2AA SWAP4 CALLDATALOAD SWAP2 ADD PUSH2 0x260 JUMP JUMPDEST SWAP1 JUMP JUMPDEST SWAP2 SWAP1 SWAP2 PUSH1 0x40 DUP2 DUP5 SUB SLT PUSH2 0x1C7 JUMPI PUSH2 0x2C4 DUP4 DUP3 PUSH2 0x1D5 JUMP JUMPDEST SWAP3 PUSH1 0x20 DUP3 ADD CALLDATALOAD PUSH1 0x1 PUSH1 0x1 PUSH1 0x40 SHL SUB DUP2 GT PUSH2 0x1C7 JUMPI PUSH2 0x2AA SWAP3 ADD PUSH2 0x28F JUMP JUMPDEST PUSH2 0x2AA PUSH2 0x2AA PUSH2 0x2AA SWAP3 SWAP1 JUMP JUMPDEST SWAP1 PUSH2 0x2F9 SWAP1 PUSH2 0x2E2 JUMP JUMPDEST PUSH1 0x0 MSTORE PUSH1 0x20 MSTORE PUSH1 0x40 PUSH1 0x0 KECCAK256 SWAP1 JUMP JUMPDEST PUSH1 0x0 JUMPDEST DUP4 DUP2 LT PUSH2 0x31A JUMPI POP POP PUSH1 0x0 SWAP2 ADD MSTORE JUMP JUMPDEST DUP2 DUP2 ADD MLOAD DUP4 DUP3 ADD MSTORE PUSH1 0x20 ADD PUSH2 0x30A JUMP JUMPDEST PUSH2 0x250 PUSH2 0x342 SWAP3 PUSH1 0x20 SWAP3 PUSH2 0x33C DUP2 MLOAD SWAP1 JUMP JUMPDEST SWAP5 DUP6 SWAP3 SWAP1 JUMP JUMPDEST SWAP4 DUP5 SWAP2 ADD PUSH2 0x307 JUMP JUMPDEST SWAP1 MSTORE JUMP JUMPDEST PUSH2 0x35F PUSH2 0x250 SWAP2 PUSH1 0x20 SWAP5 SWAP4 PUSH2 0x32A JUMP JUMPDEST SWAP2 DUP3 MSTORE JUMP JUMPDEST PUSH2 0x379 PUSH2 0x370 PUSH1 0x40 MLOAD SWAP1 JUMP JUMPDEST SWAP3 DUP4 SWAP3 DUP4 PUSH2 0x34F JUMP JUMPDEST SUB SWAP1 KECCAK256 SWAP1 JUMP JUMPDEST PUSH2 0x2AA SWAP2 PUSH2 0x364 JUMP JUMPDEST PUSH2 0x2AA SWAP2 PUSH1 0x8 MUL SHR JUMPDEST PUSH1 0xFF AND SWAP1 JUMP JUMPDEST SWAP1 PUSH2 0x2AA SWAP2 SLOAD PUSH2 0x388 JUMP JUMPDEST PUSH2 0x3BB PUSH2 0x2AA SWAP3 PUSH2 0x3B6 PUSH1 0x0 SWAP4 PUSH1 0x8 PUSH2 0x2EF JUMP JUMPDEST PUSH2 0x37F JUMP JUMPDEST PUSH2 0x397 JUMP JUMPDEST CALLVALUE PUSH2 0x1C7 JUMPI PUSH2 0x3EF PUSH2 0x3DC PUSH2 0x3D6 CALLDATASIZE PUSH1 0x4 PUSH2 0x2AD JUMP JUMPDEST SWAP1 PUSH2 0x3A2 JUMP JUMPDEST PUSH1 0x40 MLOAD JUMPDEST SWAP2 DUP3 SWAP2 DUP3 SWAP1 ISZERO ISZERO DUP2 MSTORE PUSH1 0x20 ADD SWAP1 JUMP JUMPDEST SUB SWAP1 RETURN JUMPDEST SWAP1 PUSH1 0x20 DUP3 DUP3 SUB SLT PUSH2 0x1C7 JUMPI PUSH2 0x2AA SWAP2 PUSH2 0x1D5 JUMP JUMPDEST PUSH2 0x428 PUSH2 0x431 PUSH1 0x20 SWAP4 PUSH2 0x250 SWAP4 PUSH2 0x41C DUP2 MLOAD SWAP1 JUMP JUMPDEST DUP1 DUP4 MSTORE SWAP4 DUP5 SWAP3 PUSH1 0x20 ADD SWAP1 JUMP JUMPDEST SWAP6 DUP7 SWAP2 ADD PUSH2 0x307 JUMP JUMPDEST PUSH1 0x1F ADD PUSH1 0x1F NOT AND SWAP1 JUMP JUMPDEST PUSH4 0x4E487B71 PUSH1 0xE0 SHL PUSH1 0x0 MSTORE PUSH1 0x21 PUSH1 0x4 MSTORE PUSH1 0x24 PUSH1 0x0 REVERT JUMPDEST PUSH1 0x2 GT ISZERO PUSH2 0x45B JUMPI JUMP JUMPDEST PUSH2 0x43B JUMP JUMPDEST SWAP1 PUSH2 0x1E2 DUP3 PUSH2 0x451 JUMP JUMPDEST PUSH2 0x2AA SWAP1 PUSH2 0x460 JUMP JUMPDEST PUSH2 0x34B SWAP1 PUSH2 0x46A JUMP JUMPDEST PUSH2 0x2AA SWAP2 PUSH1 0xC0 PUSH2 0x501 PUSH2 0x4EF PUSH2 0x4CB PUSH2 0x4B9 PUSH2 0x4A7 PUSH1 0xE0 DUP8 ADD PUSH1 0x0 DUP10 ADD MLOAD DUP9 DUP3 SUB PUSH1 0x0 DUP11 ADD MSTORE PUSH2 0x407 JUMP JUMPDEST PUSH1 0x20 DUP9 ADD MLOAD DUP8 DUP3 SUB PUSH1 0x20 DUP10 ADD MSTORE PUSH2 0x407 JUMP JUMPDEST PUSH1 0x40 DUP8 ADD MLOAD DUP7 DUP3 SUB PUSH1 0x40 DUP9 ADD MSTORE PUSH2 0x407 JUMP JUMPDEST PUSH2 0x4DD PUSH1 0x60 DUP8 ADD MLOAD PUSH1 0x60 DUP8 ADD SWAP1 PUSH2 0x473 JUMP JUMPDEST PUSH1 0x80 DUP7 ADD MLOAD DUP6 DUP3 SUB PUSH1 0x80 DUP8 ADD MSTORE PUSH2 0x407 JUMP JUMPDEST PUSH1 0xA0 DUP6 ADD MLOAD DUP5 DUP3 SUB PUSH1 0xA0 DUP7 ADD MSTORE PUSH2 0x407 JUMP JUMPDEST SWAP3 ADD MLOAD SWAP1 PUSH1 0xC0 DUP2 DUP5 SUB SWAP2 ADD MSTORE PUSH2 0x407 JUMP JUMPDEST DUP1 MLOAD DUP3 MSTORE PUSH2 0x1E2 SWAP2 SWAP1 PUSH1 0x40 SWAP1 DUP2 SWAP1 PUSH2 0x52F PUSH1 0x20 DUP3 ADD MLOAD PUSH1 0x20 DUP7 ADD MSTORE JUMP JUMPDEST ADD MLOAD SWAP2 ADD MSTORE JUMP JUMPDEST DUP1 MLOAD ISZERO ISZERO DUP3 MSTORE PUSH2 0x1E2 SWAP2 SWAP1 PUSH1 0x40 SWAP1 DUP2 SWAP1 PUSH1 0x20 DUP2 DUP2 ADD MLOAD ISZERO ISZERO SWAP1 DUP6 ADD MSTORE JUMPDEST ADD MLOAD ISZERO ISZERO SWAP2 ADD MSTORE JUMP JUMPDEST DUP1 MLOAD ISZERO ISZERO DUP3 MSTORE PUSH2 0x2AA SWAP2 PUSH1 0x40 DUP2 ADD SWAP2 PUSH1 0x20 ADD MLOAD SWAP1 PUSH1 0x20 DUP2 DUP5 SUB SWAP2 ADD MSTORE PUSH2 0x407 JUMP JUMPDEST DUP1 MLOAD ISZERO ISZERO DUP3 MSTORE SWAP1 PUSH2 0x2AA SWAP1 PUSH1 0xC0 DUP1 PUSH2 0x5A5 PUSH1 0xE0 DUP5 ADD JUMPDEST PUSH1 0x20 DUP8 ADD MLOAD DUP6 DUP3 SUB PUSH1 0x20 DUP8 ADD MSTORE PUSH2 0x407 JUMP JUMPDEST SWAP5 PUSH2 0x5B5 PUSH1 0x40 DUP3 ADD MLOAD PUSH1 0x40 DUP7 ADD MSTORE JUMP JUMPDEST PUSH2 0x5C4 PUSH1 0x60 DUP3 ADD MLOAD PUSH1 0x60 DUP7 ADD MSTORE JUMP JUMPDEST PUSH2 0x5D3 PUSH1 0x80 DUP3 ADD MLOAD PUSH1 0x80 DUP7 ADD MSTORE JUMP JUMPDEST PUSH2 0x52F PUSH1 0xA0 DUP3 ADD MLOAD PUSH1 0xA0 DUP7 ADD MSTORE JUMP JUMPDEST DUP1 MLOAD ISZERO ISZERO DUP3 MSTORE SWAP1 PUSH2 0x2AA SWAP1 PUSH1 0x80 DUP1 PUSH2 0x62D PUSH2 0x60C PUSH1 0xA0 DUP6 ADD PUSH1 0x20 DUP9 ADD MLOAD DUP7 DUP3 SUB PUSH1 0x20 DUP9 ADD MSTORE PUSH2 0x407 JUMP JUMPDEST PUSH2 0x61B PUSH1 0x40 DUP9 ADD MLOAD PUSH1 0x40 DUP8 ADD MSTORE JUMP JUMPDEST PUSH1 0x60 DUP8 ADD MLOAD DUP6 DUP3 SUB PUSH1 0x60 DUP8 ADD MSTORE PUSH2 0x407 JUMP JUMPDEST SWAP5 ADD MLOAD SWAP2 ADD MSTORE JUMP JUMPDEST DUP1 MLOAD ISZERO ISZERO DUP3 MSTORE PUSH2 0x1E2 SWAP2 SWAP1 PUSH1 0x20 SWAP1 DUP2 SWAP1 PUSH2 0x553 JUMP JUMPDEST PUSH1 0x1 PUSH1 0x1 PUSH1 0xA0 SHL SUB AND SWAP1 JUMP JUMPDEST DUP1 MLOAD ISZERO ISZERO DUP3 MSTORE PUSH1 0x20 DUP1 DUP3 ADD MLOAD ISZERO ISZERO SWAP1 DUP4 ADD MSTORE PUSH1 0x40 DUP1 DUP3 ADD MLOAD PUSH1 0x1 PUSH1 0x1 PUSH1 0xA0 SHL SUB AND SWAP1 DUP4 ADD MSTORE PUSH2 0x1E2 SWAP2 SWAP1 PUSH1 0xA0 SWAP1 DUP2 SWAP1 PUSH2 0x694 PUSH1 0x60 DUP3 ADD MLOAD PUSH1 0x60 DUP7 ADD MSTORE JUMP JUMPDEST PUSH2 0x52F PUSH1 0x80 DUP3 ADD MLOAD PUSH1 0x80 DUP7 ADD MSTORE JUMP JUMPDEST DUP1 MLOAD DUP3 MSTORE SWAP1 PUSH2 0x2AA SWAP1 PUSH2 0x1A0 PUSH2 0x100 PUSH2 0x730 PUSH2 0x71D PUSH2 0x70A PUSH2 0x6D5 PUSH2 0x260 DUP8 ADD PUSH1 0x20 DUP11 ADD MLOAD DUP9 DUP3 SUB PUSH1 0x20 DUP11 ADD MSTORE PUSH2 0x47C JUMP JUMPDEST PUSH2 0x6E7 PUSH1 0x40 DUP11 ADD MLOAD PUSH1 0x40 DUP10 ADD SWAP1 PUSH2 0x512 JUMP JUMPDEST PUSH2 0x6F9 PUSH1 0x60 DUP11 ADD MLOAD PUSH1 0xA0 DUP10 ADD SWAP1 PUSH2 0x536 JUMP JUMPDEST PUSH1 0x80 DUP10 ADD MLOAD DUP8 DUP3 SUB DUP7 DUP10 ADD MSTORE PUSH2 0x55C JUMP JUMPDEST PUSH1 0xA0 DUP9 ADD MLOAD DUP7 DUP3 SUB PUSH2 0x120 DUP9 ADD MSTORE PUSH2 0x57D JUMP JUMPDEST PUSH1 0xC0 DUP8 ADD MLOAD DUP6 DUP3 SUB PUSH2 0x140 DUP8 ADD MSTORE PUSH2 0x5E2 JUMP JUMPDEST SWAP5 PUSH2 0x744 PUSH1 0xE0 DUP3 ADD MLOAD PUSH2 0x160 DUP7 ADD SWAP1 PUSH2 0x635 JUMP JUMPDEST ADD MLOAD SWAP2 ADD SWAP1 PUSH2 0x656 JUMP JUMPDEST PUSH2 0x2AA SWAP2 PUSH1 0xA0 PUSH2 0x79D PUSH2 0x78B PUSH2 0x779 PUSH2 0x4B9 PUSH2 0x4A7 PUSH1 0xC0 DUP8 ADD PUSH1 0x0 DUP10 ADD MLOAD DUP9 DUP3 SUB PUSH1 0x0 DUP11 ADD MSTORE PUSH2 0x407 JUMP JUMPDEST PUSH1 0x60 DUP7 ADD MLOAD DUP6 DUP3 SUB PUSH1 0x60 DUP8 ADD MSTORE PUSH2 0x407 JUMP JUMPDEST PUSH1 0x80 DUP6 ADD MLOAD DUP5 DUP3 SUB PUSH1 0x80 DUP7 ADD MSTORE PUSH2 0x407 JUMP JUMPDEST SWAP3 ADD MLOAD SWAP1 PUSH1 0xA0 DUP2 DUP5 SUB SWAP2 ADD MSTORE PUSH2 0x407 JUMP JUMPDEST SWAP1 PUSH2 0x2AA SWAP2 PUSH2 0x74E JUMP JUMPDEST SWAP1 PUSH2 0x7CE PUSH2 0x7C4 DUP4 MLOAD SWAP1 JUMP JUMPDEST DUP1 DUP4 MSTORE SWAP2 PUSH1 0x20 ADD SWAP1 JUMP JUMPDEST SWAP1 DUP2 PUSH2 0x7E0 PUSH1 0x20 DUP4 MUL DUP5 ADD SWAP5 PUSH1 0x20 ADD SWAP1 JUMP JUMPDEST SWAP3 PUSH1 0x0 SWAP2 JUMPDEST DUP4 DUP4 LT PUSH2 0x7F4 JUMPI POP POP POP POP POP SWAP1 JUMP JUMPDEST SWAP1 SWAP2 SWAP3 SWAP4 SWAP5 PUSH1 0x20 PUSH2 0x817 PUSH2 0x810 DUP4 DUP6 PUSH1 0x1 SWAP6 SUB DUP8 MSTORE DUP10 MLOAD PUSH2 0x7AE JUMP JUMPDEST SWAP8 PUSH1 0x20 ADD SWAP1 JUMP JUMPDEST SWAP4 ADD SWAP4 ADD SWAP2 SWAP4 SWAP3 SWAP1 PUSH2 0x7E5 JUMP JUMPDEST SWAP1 PUSH2 0x2AA SWAP2 PUSH2 0x407 JUMP JUMPDEST SWAP1 PUSH2 0x83A PUSH2 0x7C4 DUP4 MLOAD SWAP1 JUMP JUMPDEST SWAP1 DUP2 PUSH2 0x84C PUSH1 0x20 DUP4 MUL DUP5 ADD SWAP5 PUSH1 0x20 ADD SWAP1 JUMP JUMPDEST SWAP3 PUSH1 0x0 SWAP2 JUMPDEST DUP4 DUP4 LT PUSH2 0x860 JUMPI POP POP POP POP POP SWAP1 JUMP JUMPDEST SWAP1 SWAP2 SWAP3 SWAP4 SWAP5 PUSH1 0x20 PUSH2 0x87C PUSH2 0x810 DUP4 DUP6 PUSH1 0x1 SWAP6 SUB DUP8 MSTORE DUP10 MLOAD PUSH2 0x824 JUMP JUMPDEST SWAP4 ADD SWAP4 ADD SWAP2 SWAP4 SWAP3 SWAP1 PUSH2 0x851 JUMP JUMPDEST SWAP3 PUSH2 0x8B9 PUSH2 0x2AA SWAP6 SWAP4 PUSH2 0x8AB PUSH2 0x8C7 SWAP5 PUSH1 0x80 DUP9 ADD SWAP1 DUP9 DUP3 SUB PUSH1 0x0 DUP11 ADD MSTORE PUSH2 0x6A3 JUMP JUMPDEST SWAP1 DUP7 DUP3 SUB PUSH1 0x20 DUP9 ADD MSTORE PUSH2 0x7B8 JUMP JUMPDEST SWAP1 DUP5 DUP3 SUB PUSH1 0x40 DUP7 ADD MSTORE PUSH2 0x82E JUMP JUMPDEST SWAP2 PUSH1 0x60 DUP2 DUP5 SUB SWAP2 ADD MSTORE PUSH2 0x82E JUMP JUMPDEST CALLVALUE PUSH2 0x1C7 JUMPI PUSH2 0x3EF PUSH2 0x8F0 PUSH2 0x8EB CALLDATASIZE PUSH1 0x4 PUSH2 0x3F3 JUMP JUMPDEST PUSH2 0x260D JUMP JUMPDEST SWAP1 PUSH2 0x8FD SWAP5 SWAP3 SWAP5 PUSH1 0x40 MLOAD SWAP1 JUMP JUMPDEST SWAP5 DUP6 SWAP5 DUP6 PUSH2 0x889 JUMP JUMPDEST PUSH2 0x2AA SWAP2 PUSH1 0x8 MUL SHR DUP2 JUMP JUMPDEST SWAP1 PUSH2 0x2AA SWAP2 SLOAD PUSH2 0x906 JUMP JUMPDEST PUSH2 0x930 PUSH2 0x2AA SWAP3 PUSH2 0x3B6 PUSH1 0x0 SWAP4 PUSH1 0x7 PUSH2 0x2EF JUMP JUMPDEST PUSH2 0x911 JUMP JUMPDEST CALLVALUE PUSH2 0x1C7 JUMPI PUSH2 0x3EF PUSH2 0x951 PUSH2 0x94B CALLDATASIZE PUSH1 0x4 PUSH2 0x2AD JUMP JUMPDEST SWAP1 PUSH2 0x91C JUMP JUMPDEST PUSH1 0x40 MLOAD SWAP2 DUP3 SWAP2 DUP3 SWAP1 DUP2 MSTORE PUSH1 0x20 ADD SWAP1 JUMP JUMPDEST SWAP1 SWAP2 DUP3 PUSH1 0x1F DUP4 ADD SLT ISZERO PUSH2 0x1C7 JUMPI DUP2 CALLDATALOAD SWAP2 PUSH1 0x1 PUSH1 0x1 PUSH1 0x40 SHL SUB DUP4 GT PUSH2 0x1C7 JUMPI PUSH1 0x20 ADD SWAP3 PUSH1 0x1 DUP4 MUL DUP5 ADD GT PUSH2 0x1C7 JUMPI JUMP JUMPDEST PUSH1 0x1 PUSH1 0x1 PUSH1 0xA0 SHL SUB DUP2 AND PUSH2 0x1CE JUMP JUMPDEST SWAP1 POP CALLDATALOAD SWAP1 PUSH2 0x1E2 DUP3 PUSH2 0x990 JUMP JUMPDEST DUP1 ISZERO ISZERO PUSH2 0x1CE JUMP JUMPDEST SWAP1 POP CALLDATALOAD SWAP1 PUSH2 0x1E2 DUP3 PUSH2 0x9AC JUMP JUMPDEST SWAP1 SWAP2 PUSH1 0xC0 DUP3 DUP5 SUB SLT PUSH2 0x1C7 JUMPI PUSH2 0x9D7 DUP4 DUP4 PUSH2 0x1D5 JUMP JUMPDEST SWAP3 PUSH1 0x20 DUP4 ADD CALLDATALOAD PUSH1 0x1 PUSH1 0x1 PUSH1 0x40 SHL SUB DUP2 GT PUSH2 0x1C7 JUMPI DUP2 PUSH2 0x9F7 SWAP2 DUP6 ADD PUSH2 0x961 JUMP JUMPDEST SWAP3 SWAP1 SWAP4 PUSH2 0xA07 DUP4 PUSH1 0x40 DUP4 ADD PUSH2 0x99F JUMP JUMPDEST SWAP3 PUSH2 0xA15 DUP2 PUSH1 0x60 DUP5 ADD PUSH2 0x9B4 JUMP JUMPDEST SWAP3 PUSH1 0x80 DUP4 ADD CALLDATALOAD PUSH1 0x1 PUSH1 0x1 PUSH1 0x40 SHL SUB DUP2 GT PUSH2 0x1C7 JUMPI DUP3 PUSH2 0xA3B PUSH1 0xA0 SWAP5 PUSH2 0x2AA SWAP4 DUP8 ADD PUSH2 0x961 JUMP JUMPDEST SWAP5 SWAP1 SWAP6 ADD PUSH2 0x1D5 JUMP JUMPDEST CALLVALUE PUSH2 0x1C7 JUMPI PUSH2 0x3EF PUSH2 0x951 PUSH2 0xA5A CALLDATASIZE PUSH1 0x4 PUSH2 0x9C1 JUMP JUMPDEST SWAP7 SWAP6 SWAP1 SWAP6 SWAP5 SWAP2 SWAP5 SWAP4 SWAP3 SWAP4 PUSH2 0x2EA7 JUMP JUMPDEST CALLVALUE PUSH2 0x1C7 JUMPI PUSH2 0x3EF PUSH2 0x3DC PUSH2 0xA7F CALLDATASIZE PUSH1 0x4 PUSH2 0x3F3 JUMP JUMPDEST PUSH2 0x2F21 JUMP JUMPDEST PUSH2 0x2AA SWAP1 DUP2 JUMP JUMPDEST PUSH2 0x2AA SWAP1 SLOAD PUSH2 0xA84 JUMP JUMPDEST PUSH4 0x4E487B71 PUSH1 0xE0 SHL PUSH1 0x0 MSTORE PUSH1 0x22 PUSH1 0x4 MSTORE PUSH1 0x24 PUSH1 0x0 REVERT JUMPDEST SWAP1 PUSH1 0x1 PUSH1 0x2 DUP4 DIV SWAP3 AND DUP1 ISZERO PUSH2 0xACB JUMPI JUMPDEST PUSH1 0x20 DUP4 LT EQ PUSH2 0xAC6 JUMPI JUMP JUMPDEST PUSH2 0xA95 JUMP JUMPDEST SWAP2 PUSH1 0x7F AND SWAP2 PUSH2 0xABB JUMP JUMPDEST DUP1 SLOAD PUSH1 0x0 SWAP4 SWAP3 SWAP2 PUSH2 0xAF2 PUSH2 0xAE8 DUP4 PUSH2 0xAAB JUMP JUMPDEST DUP1 DUP6 MSTORE SWAP4 PUSH1 0x20 ADD SWAP1 JUMP JUMPDEST SWAP2 PUSH1 0x1 DUP2 AND SWAP1 DUP2 ISZERO PUSH2 0xB44 JUMPI POP PUSH1 0x1 EQ PUSH2 0xB0B JUMPI POP POP POP JUMP JUMPDEST PUSH2 0xB1E SWAP2 SWAP3 SWAP4 SWAP5 POP PUSH1 0x0 MSTORE PUSH1 0x20 PUSH1 0x0 KECCAK256 SWAP1 JUMP JUMPDEST SWAP2 PUSH1 0x0 SWAP3 JUMPDEST DUP2 DUP5 LT PUSH2 0xB30 JUMPI POP POP ADD SWAP1 JUMP JUMPDEST DUP1 SLOAD DUP5 DUP5 ADD MSTORE PUSH1 0x20 SWAP1 SWAP4 ADD SWAP3 PUSH1 0x1 ADD PUSH2 0xB23 JUMP JUMPDEST SWAP3 SWAP5 SWAP6 POP POP POP PUSH1 0xFF NOT AND DUP3 MSTORE ISZERO ISZERO PUSH1 0x20 MUL ADD SWAP1 JUMP JUMPDEST SWAP1 PUSH2 0x2AA SWAP2 PUSH2 0xAD5 JUMP JUMPDEST SWAP1 PUSH2 0x1E2 PUSH2 0xB7D SWAP3 PUSH2 0xB74 PUSH1 0x40 MLOAD SWAP1 JUMP JUMPDEST SWAP4 DUP5 DUP1 SWAP3 PUSH2 0xB59 JUMP JUMPDEST SUB DUP4 PUSH2 0x1FA JUMP JUMPDEST PUSH2 0x2AA SWAP1 PUSH2 0x391 JUMP JUMPDEST PUSH2 0x2AA SWAP1 SLOAD PUSH2 0xB84 JUMP JUMPDEST PUSH2 0xBA2 SWAP1 PUSH1 0xC PUSH2 0x2EF JUMP JUMPDEST PUSH2 0xBAB DUP2 PUSH2 0xA8B JUMP JUMPDEST SWAP2 PUSH2 0xBC0 PUSH1 0x1 DUP4 ADD SLOAD PUSH1 0x1 PUSH1 0x1 PUSH1 0xA0 SHL SUB AND SWAP1 JUMP JUMPDEST SWAP2 PUSH2 0xBCD PUSH1 0x2 DUP3 ADD PUSH2 0xB63 JUMP JUMPDEST SWAP2 PUSH2 0xBDA PUSH1 0x3 DUP4 ADD PUSH2 0xA8B JUMP JUMPDEST SWAP2 PUSH2 0xBE7 PUSH1 0x4 DUP3 ADD PUSH2 0xB8D JUMP JUMPDEST SWAP2 PUSH2 0x2AA PUSH1 0x6 PUSH2 0xBF9 PUSH1 0x5 DUP6 ADD PUSH2 0xB63 JUMP JUMPDEST SWAP4 ADD PUSH2 0xA8B JUMP JUMPDEST SWAP8 SWAP7 SWAP5 PUSH2 0xC5D SWAP1 PUSH2 0xC54 PUSH2 0xC4C PUSH2 0x1E2 SWAP10 SWAP5 PUSH2 0xC6A SWAP8 PUSH2 0xC3F PUSH1 0xC0 SWAP11 SWAP9 DUP16 PUSH1 0x20 SWAP1 PUSH2 0xC30 PUSH1 0xE0 DUP3 ADD SWAP7 PUSH1 0x0 DUP4 ADD MSTORE JUMP JUMPDEST ADD SWAP1 PUSH1 0x1 PUSH1 0x1 PUSH1 0xA0 SHL SUB AND SWAP1 MSTORE JUMP JUMPDEST DUP14 DUP3 SUB PUSH1 0x40 DUP16 ADD MSTORE PUSH2 0x407 JUMP JUMPDEST SWAP5 PUSH1 0x60 DUP13 ADD MSTORE JUMP JUMPDEST ISZERO ISZERO PUSH1 0x80 DUP11 ADD MSTORE JUMP JUMPDEST DUP8 DUP3 SUB PUSH1 0xA0 DUP10 ADD MSTORE PUSH2 0x407 JUMP JUMPDEST SWAP5 ADD MSTORE JUMP JUMPDEST CALLVALUE PUSH2 0x1C7 JUMPI PUSH2 0x3EF PUSH2 0xC8A PUSH2 0xC85 CALLDATASIZE PUSH1 0x4 PUSH2 0x3F3 JUMP JUMPDEST PUSH2 0xB97 JUMP JUMPDEST SWAP4 PUSH2 0xC9A SWAP8 SWAP6 SWAP8 SWAP4 SWAP2 SWAP4 PUSH1 0x40 MLOAD SWAP1 JUMP JUMPDEST SWAP8 DUP9 SWAP8 DUP9 PUSH2 0xC00 JUMP JUMPDEST SWAP2 SWAP1 PUSH1 0x40 DUP4 DUP3 SUB SLT PUSH2 0x1C7 JUMPI PUSH2 0x2AA SWAP1 PUSH1 0x20 PUSH2 0xCBF DUP3 DUP7 PUSH2 0x99F JUMP JUMPDEST SWAP5 ADD PUSH2 0x9B4 JUMP JUMPDEST CALLVALUE PUSH2 0x1C7 JUMPI PUSH2 0xCDF PUSH2 0xCD9 CALLDATASIZE PUSH1 0x4 PUSH2 0xCA3 JUMP JUMPDEST SWAP1 PUSH2 0x2F89 JUMP JUMPDEST PUSH1 0x40 MLOAD STOP JUMPDEST SWAP1 PUSH1 0x20 DUP3 DUP3 SUB SLT PUSH2 0x1C7 JUMPI PUSH2 0x2AA SWAP2 PUSH2 0x99F JUMP JUMPDEST PUSH2 0x64A PUSH2 0x2AA PUSH2 0x2AA SWAP3 PUSH1 0x1 PUSH1 0x1 PUSH1 0xA0 SHL SUB AND SWAP1 JUMP JUMPDEST PUSH2 0x2AA SWAP1 PUSH2 0xCF8 JUMP JUMPDEST PUSH2 0x2AA SWAP1 PUSH2 0xD0E JUMP JUMPDEST SWAP1 PUSH2 0x2F9 SWAP1 PUSH2 0xD17 JUMP JUMPDEST PUSH1 0x0 PUSH2 0x3BB PUSH2 0x2AA SWAP3 PUSH1 0xF PUSH2 0xD20 JUMP JUMPDEST CALLVALUE PUSH2 0x1C7 JUMPI PUSH2 0x3EF PUSH2 0x3DC PUSH2 0xD50 CALLDATASIZE PUSH1 0x4 PUSH2 0xCE4 JUMP JUMPDEST PUSH2 0xD2A JUMP JUMPDEST PUSH2 0x930 PUSH2 0x2AA SWAP3 PUSH2 0x3B6 PUSH1 0x0 SWAP4 PUSH1 0xA PUSH2 0x2EF JUMP JUMPDEST CALLVALUE PUSH2 0x1C7 JUMPI PUSH2 0x3EF PUSH2 0x951 PUSH2 0xD7F CALLDATASIZE PUSH1 0x4 PUSH2 0x2AD JUMP JUMPDEST SWAP1 PUSH2 0xD55 JUMP JUMPDEST SWAP2 SWAP1 PUSH1 0x40 DUP4 DUP3 SUB SLT PUSH2 0x1C7 JUMPI PUSH2 0x2AA SWAP1 PUSH1 0x20 PUSH2 0xDA1 DUP3 DUP7 PUSH2 0x1D5 JUMP JUMPDEST SWAP5 ADD PUSH2 0x99F JUMP JUMPDEST SWAP1 PUSH2 0xDC8 PUSH2 0xDC1 PUSH2 0xDB7 DUP5 MLOAD SWAP1 JUMP JUMPDEST DUP1 DUP5 MSTORE SWAP3 PUSH1 0x20 ADD SWAP1 JUMP JUMPDEST SWAP3 PUSH1 0x20 ADD SWAP1 JUMP JUMPDEST SWAP1 PUSH1 0x0 JUMPDEST DUP2 DUP2 LT PUSH2 0xDD9 JUMPI POP POP POP SWAP1 JUMP JUMPDEST SWAP1 SWAP2 SWAP3 PUSH2 0xDF6 PUSH2 0xDEF PUSH1 0x1 SWAP3 DUP7 MLOAD DUP2 MSTORE PUSH1 0x20 ADD SWAP1 JUMP JUMPDEST SWAP5 PUSH1 0x20 ADD SWAP1 JUMP JUMPDEST SWAP3 SWAP2 ADD PUSH2 0xDCC JUMP JUMPDEST PUSH1 0x20 DUP1 DUP3 MSTORE PUSH2 0x2AA SWAP3 SWAP2 ADD SWAP1 PUSH2 0xDA8 JUMP JUMPDEST CALLVALUE PUSH2 0x1C7 JUMPI PUSH2 0x3EF PUSH2 0xE2B PUSH2 0xE25 CALLDATASIZE PUSH1 0x4 PUSH2 0xD85 JUMP JUMPDEST SWAP1 PUSH2 0x3051 JUMP JUMPDEST PUSH1 0x40 MLOAD SWAP2 DUP3 SWAP2 DUP3 PUSH2 0xDFE JUMP JUMPDEST SWAP1 PUSH2 0x2AA SWAP1 PUSH2 0x140 DUP1 PUSH2 0xEC3 PUSH2 0xEB1 PUSH2 0xE9F PUSH2 0xE8D PUSH2 0xE7B PUSH2 0xE69 PUSH2 0x160 DUP10 ADD PUSH1 0x0 DUP13 ADD MLOAD DUP11 DUP3 SUB PUSH1 0x0 DUP13 ADD MSTORE PUSH2 0x407 JUMP JUMPDEST PUSH1 0x20 DUP12 ADD MLOAD DUP10 DUP3 SUB PUSH1 0x20 DUP12 ADD MSTORE PUSH2 0x407 JUMP JUMPDEST PUSH1 0x40 DUP11 ADD MLOAD DUP9 DUP3 SUB PUSH1 0x40 DUP11 ADD MSTORE PUSH2 0x407 JUMP JUMPDEST PUSH1 0x60 DUP10 ADD MLOAD DUP8 DUP3 SUB PUSH1 0x60 DUP10 ADD MSTORE PUSH2 0x407 JUMP JUMPDEST PUSH1 0x80 DUP9 ADD MLOAD DUP7 DUP3 SUB PUSH1 0x80 DUP9 ADD MSTORE PUSH2 0x407 JUMP JUMPDEST PUSH1 0xA0 DUP8 ADD MLOAD DUP6 DUP3 SUB PUSH1 0xA0 DUP8 ADD MSTORE PUSH2 0x407 JUMP JUMPDEST SWAP5 PUSH2 0xED3 PUSH1 0xC0 DUP3 ADD MLOAD PUSH1 0xC0 DUP7 ADD MSTORE JUMP JUMPDEST PUSH2 0xEE2 PUSH1 0xE0 DUP3 ADD MLOAD PUSH1 0xE0 DUP7 ADD MSTORE JUMP JUMPDEST PUSH2 0xEF3 PUSH2 0x100 DUP3 ADD MLOAD PUSH2 0x100 DUP7 ADD MSTORE JUMP JUMPDEST PUSH2 0x52F PUSH2 0x120 DUP3 ADD MLOAD PUSH2 0x120 DUP7 ADD MSTORE JUMP JUMPDEST SWAP1 PUSH2 0x2AA SWAP2 PUSH2 0xE37 JUMP JUMPDEST SWAP1 PUSH2 0xF1A PUSH2 0x7C4 DUP4 MLOAD SWAP1 JUMP JUMPDEST SWAP1 DUP2 PUSH2 0xF2C PUSH1 0x20 DUP4 MUL DUP5 ADD SWAP5 PUSH1 0x20 ADD SWAP1 JUMP JUMPDEST SWAP3 PUSH1 0x0 SWAP2 JUMPDEST DUP4 DUP4 LT PUSH2 0xF40 JUMPI POP POP POP POP POP SWAP1 JUMP JUMPDEST SWAP1 SWAP2 SWAP3 SWAP4 SWAP5 PUSH1 0x20 PUSH2 0xF5C PUSH2 0x810 DUP4 DUP6 PUSH1 0x1 SWAP6 SUB DUP8 MSTORE DUP10 MLOAD PUSH2 0xF04 JUMP JUMPDEST SWAP4 ADD SWAP4 ADD SWAP2 SWAP4 SWAP3 SWAP1 PUSH2 0xF31 JUMP JUMPDEST DUP1 MLOAD DUP3 MSTORE PUSH2 0x2AA SWAP2 PUSH1 0xA0 DUP2 ADD SWAP2 PUSH1 0x80 SWAP1 PUSH2 0xF88 PUSH1 0x20 DUP3 ADD MLOAD PUSH1 0x20 DUP6 ADD MSTORE JUMP JUMPDEST PUSH2 0xF97 PUSH1 0x40 DUP3 ADD MLOAD PUSH1 0x40 DUP6 ADD MSTORE JUMP JUMPDEST PUSH2 0xFA6 PUSH1 0x60 DUP3 ADD MLOAD PUSH1 0x60 DUP6 ADD MSTORE JUMP JUMPDEST ADD MLOAD SWAP1 PUSH1 0x80 DUP2 DUP5 SUB SWAP2 ADD MSTORE PUSH2 0xF0E JUMP JUMPDEST PUSH1 0x20 DUP1 DUP3 MSTORE PUSH2 0x2AA SWAP3 SWAP2 ADD SWAP1 PUSH2 0xF69 JUMP JUMPDEST CALLVALUE PUSH2 0x1C7 JUMPI PUSH2 0x3EF PUSH2 0xFE2 PUSH2 0xFDD CALLDATASIZE PUSH1 0x4 PUSH2 0x3F3 JUMP JUMPDEST PUSH2 0x33D0 JUMP JUMPDEST PUSH1 0x40 MLOAD SWAP2 DUP3 SWAP2 DUP3 PUSH2 0xFB6 JUMP JUMPDEST PUSH1 0x0 SWAP2 SUB SLT PUSH2 0x1C7 JUMPI JUMP JUMPDEST CALLVALUE PUSH2 0x1C7 JUMPI PUSH2 0x1009 CALLDATASIZE PUSH1 0x4 PUSH2 0xFEE JUMP JUMPDEST PUSH2 0xCDF PUSH2 0x33FE JUMP JUMPDEST SWAP2 SWAP1 PUSH1 0x40 DUP4 DUP3 SUB SLT PUSH2 0x1C7 JUMPI PUSH2 0x2AA SWAP1 PUSH1 0x20 PUSH2 0x102D DUP3 DUP7 PUSH2 0x1D5 JUMP JUMPDEST SWAP5 ADD PUSH2 0x1D5 JUMP JUMPDEST PUSH4 0x4E487B71 PUSH1 0xE0 SHL PUSH1 0x0 MSTORE PUSH1 0x32 PUSH1 0x4 MSTORE PUSH1 0x24 PUSH1 0x0 REVERT JUMPDEST DUP1 SLOAD DUP3 LT ISZERO PUSH2 0x106D JUMPI PUSH2 0x1064 PUSH1 0x1 SWAP2 PUSH1 0x0 MSTORE PUSH1 0x20 PUSH1 0x0 KECCAK256 SWAP1 JUMP JUMPDEST SWAP2 MUL ADD SWAP1 PUSH1 0x0 SWAP1 JUMP JUMPDEST PUSH2 0x1034 JUMP JUMPDEST PUSH4 0x4E487B71 PUSH1 0xE0 SHL PUSH1 0x0 MSTORE PUSH1 0x0 PUSH1 0x4 MSTORE PUSH1 0x24 PUSH1 0x0 REVERT JUMPDEST SWAP1 PUSH1 0x0 LT PUSH2 0x1099 JUMPI PUSH2 0x2AA SWAP1 PUSH2 0xB63 JUMP JUMPDEST PUSH2 0x1072 JUMP JUMPDEST PUSH2 0x10A9 SWAP1 PUSH1 0x6 PUSH2 0x2EF JUMP JUMPDEST DUP1 SLOAD DUP3 LT ISZERO PUSH2 0x1C7 JUMPI PUSH2 0x2AA SWAP2 PUSH2 0x10BF SWAP2 PUSH2 0x104A JUMP JUMPDEST SWAP1 PUSH2 0x1088 JUMP JUMPDEST PUSH1 0x20 DUP1 DUP3 MSTORE PUSH2 0x2AA SWAP3 SWAP2 ADD SWAP1 PUSH2 0x407 JUMP JUMPDEST CALLVALUE PUSH2 0x1C7 JUMPI PUSH2 0x3EF PUSH2 0x10F2 PUSH2 0x10EC CALLDATASIZE PUSH1 0x4 PUSH2 0x1011 JUMP JUMPDEST SWAP1 PUSH2 0x109E JUMP JUMPDEST PUSH1 0x40 MLOAD SWAP2 DUP3 SWAP2 DUP3 PUSH2 0x10C5 JUMP JUMPDEST CALLVALUE PUSH2 0x1C7 JUMPI PUSH2 0x110E CALLDATASIZE PUSH1 0x4 PUSH2 0xFEE JUMP JUMPDEST PUSH2 0x3EF PUSH2 0x1123 PUSH1 0x0 SLOAD PUSH1 0x1 PUSH1 0x1 PUSH1 0xA0 SHL SUB AND SWAP1 JUMP JUMPDEST PUSH1 0x40 MLOAD SWAP2 DUP3 SWAP2 DUP3 PUSH1 0x1 PUSH1 0x1 PUSH1 0xA0 SHL SUB SWAP1 SWAP2 AND DUP2 MSTORE PUSH1 0x20 ADD SWAP1 JUMP JUMPDEST SWAP1 PUSH2 0x34B SWAP1 PUSH2 0x460 JUMP JUMPDEST PUSH2 0x2AA PUSH1 0xE0 PUSH2 0x220 JUMP JUMPDEST SWAP1 PUSH2 0x1E2 PUSH2 0x11E9 PUSH1 0x6 PUSH2 0x1162 PUSH2 0x1147 JUMP JUMPDEST SWAP5 PUSH2 0x1173 PUSH2 0x116F DUP3 PUSH2 0xB63 JUMP JUMPDEST DUP8 MSTORE JUMP JUMPDEST PUSH2 0x1189 PUSH2 0x1182 PUSH1 0x1 DUP4 ADD PUSH2 0xB63 JUMP JUMPDEST PUSH1 0x20 DUP9 ADD MSTORE JUMP JUMPDEST PUSH2 0x119F PUSH2 0x1198 PUSH1 0x2 DUP4 ADD PUSH2 0xB63 JUMP JUMPDEST PUSH1 0x40 DUP9 ADD MSTORE JUMP JUMPDEST PUSH2 0x11B7 PUSH2 0x11AE PUSH1 0x3 DUP4 ADD PUSH2 0xB8D JUMP JUMPDEST PUSH1 0x60 DUP9 ADD PUSH2 0x113D JUMP JUMPDEST PUSH2 0x11CD PUSH2 0x11C6 PUSH1 0x4 DUP4 ADD PUSH2 0xB63 JUMP JUMPDEST PUSH1 0x80 DUP9 ADD MSTORE JUMP JUMPDEST PUSH2 0x11E3 PUSH2 0x11DC PUSH1 0x5 DUP4 ADD PUSH2 0xB63 JUMP JUMPDEST PUSH1 0xA0 DUP9 ADD MSTORE JUMP JUMPDEST ADD PUSH2 0xB63 JUMP JUMPDEST PUSH1 0xC0 DUP5 ADD MSTORE JUMP JUMPDEST PUSH2 0x2AA PUSH1 0x60 PUSH2 0x220 JUMP JUMPDEST SWAP1 PUSH2 0x1E2 PUSH2 0x122D PUSH1 0x2 PUSH2 0x120B PUSH2 0x11F0 JUMP JUMPDEST SWAP5 PUSH2 0x1218 PUSH2 0x116F DUP3 PUSH2 0xA8B JUMP JUMPDEST PUSH2 0x1227 PUSH2 0x1182 PUSH1 0x1 DUP4 ADD PUSH2 0xA8B JUMP JUMPDEST ADD PUSH2 0xA8B JUMP JUMPDEST PUSH1 0x40 DUP5 ADD MSTORE JUMP JUMPDEST PUSH2 0x2AA SWAP1 PUSH1 0x8 SHR PUSH2 0x391 JUMP JUMPDEST PUSH2 0x2AA SWAP1 SLOAD PUSH2 0x1234 JUMP JUMPDEST PUSH2 0x2AA SWAP1 PUSH1 0x10 SHR PUSH2 0x391 JUMP JUMPDEST PUSH2 0x2AA SWAP1 SLOAD PUSH2 0x124A JUMP JUMPDEST SWAP1 PUSH2 0x1E2 PUSH2 0x12A5 PUSH1 0x0 PUSH2 0x1271 PUSH2 0x11F0 JUMP JUMPDEST SWAP5 PUSH2 0x1288 PUSH2 0x1280 DUP4 DUP4 ADD PUSH2 0xB8D JUMP JUMPDEST ISZERO ISZERO DUP8 DUP5 ADD MSTORE JUMP JUMPDEST PUSH2 0x129F PUSH2 0x1296 DUP4 DUP4 ADD PUSH2 0x1240 JUMP JUMPDEST ISZERO ISZERO PUSH1 0x20 DUP9 ADD MSTORE JUMP JUMPDEST ADD PUSH2 0x1256 JUMP JUMPDEST ISZERO ISZERO PUSH1 0x40 DUP5 ADD MSTORE JUMP JUMPDEST PUSH2 0x2AA PUSH1 0x40 PUSH2 0x220 JUMP JUMPDEST SWAP1 PUSH2 0x1E2 PUSH2 0x12DC PUSH1 0x1 PUSH2 0x12C9 PUSH2 0x12AE JUMP JUMPDEST SWAP5 PUSH2 0x11E3 PUSH2 0x12D6 DUP3 PUSH2 0xB8D JUMP JUMPDEST ISZERO ISZERO DUP8 MSTORE JUMP JUMPDEST PUSH1 0x20 DUP5 ADD MSTORE JUMP JUMPDEST SWAP1 PUSH2 0x1E2 PUSH2 0x11E9 PUSH1 0x6 PUSH2 0x12F4 PUSH2 0x1147 JUMP JUMPDEST SWAP5 PUSH2 0x1301 PUSH2 0x12D6 DUP3 PUSH2 0xB8D JUMP JUMPDEST PUSH2 0x1310 PUSH2 0x1182 PUSH1 0x1 DUP4 ADD PUSH2 0xB63 JUMP JUMPDEST PUSH2 0x131F PUSH2 0x1198 PUSH1 0x2 DUP4 ADD PUSH2 0xA8B JUMP JUMPDEST PUSH2 0x1335 PUSH2 0x132E PUSH1 0x3 DUP4 ADD PUSH2 0xA8B JUMP JUMPDEST PUSH1 0x60 DUP9 ADD MSTORE JUMP JUMPDEST PUSH2 0x1344 PUSH2 0x11C6 PUSH1 0x4 DUP4 ADD PUSH2 0xA8B JUMP JUMPDEST PUSH2 0x1227 PUSH2 0x11DC PUSH1 0x5 DUP4 ADD PUSH2 0xA8B JUMP JUMPDEST PUSH2 0x2AA PUSH1 0xA0 PUSH2 0x220 JUMP JUMPDEST SWAP1 PUSH2 0x1E2 PUSH2 0x13A8 PUSH1 0x4 PUSH2 0x136E PUSH2 0x1353 JUMP JUMPDEST SWAP5 PUSH2 0x137B PUSH2 0x12D6 DUP3 PUSH2 0xB8D JUMP JUMPDEST PUSH2 0x138A PUSH2 0x1182 PUSH1 0x1 DUP4 ADD PUSH2 0xB63 JUMP JUMPDEST PUSH2 0x1399 PUSH2 0x1198 PUSH1 0x2 DUP4 ADD PUSH2 0xA8B JUMP JUMPDEST PUSH2 0x1227 PUSH2 0x132E PUSH1 0x3 DUP4 ADD PUSH2 0xB63 JUMP JUMPDEST PUSH1 0x80 DUP5 ADD MSTORE JUMP JUMPDEST SWAP1 PUSH2 0x1E2 PUSH2 0x13D5 PUSH1 0x0 PUSH2 0x13C0 PUSH2 0x12AE JUMP JUMPDEST SWAP5 PUSH2 0x13CF PUSH2 0x1280 DUP4 DUP4 ADD PUSH2 0xB8D JUMP JUMPDEST ADD PUSH2 0x1240 JUMP JUMPDEST ISZERO ISZERO PUSH1 0x20 DUP5 ADD MSTORE JUMP JUMPDEST PUSH2 0x2AA SWAP1 PUSH1 0x10 SHR PUSH2 0x64A JUMP JUMPDEST PUSH2 0x2AA SWAP1 SLOAD PUSH2 0x13DE JUMP JUMPDEST PUSH2 0x2AA PUSH1 0xC0 PUSH2 0x220 JUMP JUMPDEST SWAP1 PUSH2 0x1E2 PUSH2 0x1462 PUSH1 0x3 PUSH2 0x140F PUSH2 0x13F4 JUMP JUMPDEST SWAP5 PUSH2 0x141C PUSH2 0x12D6 DUP3 PUSH2 0xB8D JUMP JUMPDEST PUSH2 0x1428 PUSH2 0x1296 DUP3 PUSH2 0x1240 JUMP JUMPDEST PUSH2 0x1444 PUSH2 0x1434 DUP3 PUSH2 0x13EA JUMP JUMPDEST PUSH1 0x1 PUSH1 0x1 PUSH1 0xA0 SHL SUB AND PUSH1 0x40 DUP9 ADD MSTORE JUMP JUMPDEST PUSH2 0x1453 PUSH2 0x132E PUSH1 0x1 DUP4 ADD PUSH2 0xA8B JUMP JUMPDEST PUSH2 0x1227 PUSH2 0x11C6 PUSH1 0x2 DUP4 ADD PUSH2 0xA8B JUMP JUMPDEST PUSH1 0xA0 DUP5 ADD MSTORE JUMP JUMPDEST PUSH2 0x1474 SWAP1 PUSH1 0x3 PUSH2 0x2EF JUMP JUMPDEST PUSH2 0x147D DUP2 PUSH2 0xA8B JUMP JUMPDEST SWAP2 PUSH2 0x148A PUSH1 0x1 DUP4 ADD PUSH2 0x1151 JUMP JUMPDEST SWAP2 PUSH2 0x1497 PUSH1 0x8 DUP3 ADD PUSH2 0x11FA JUMP JUMPDEST SWAP2 PUSH2 0x14A4 PUSH1 0xB DUP4 ADD PUSH2 0x1260 JUMP JUMPDEST SWAP2 PUSH2 0x14B1 PUSH1 0xC DUP3 ADD PUSH2 0x12B8 JUMP JUMPDEST SWAP2 PUSH2 0x14BE PUSH1 0xE DUP4 ADD PUSH2 0x12E3 JUMP JUMPDEST SWAP2 PUSH2 0x14CB PUSH1 0x15 DUP3 ADD PUSH2 0x135D JUMP JUMPDEST SWAP2 PUSH2 0x2AA PUSH1 0x1B PUSH2 0x14DD PUSH1 0x1A DUP6 ADD PUSH2 0x13AF JUMP JUMPDEST SWAP4 ADD PUSH2 0x13FE JUMP JUMPDEST SWAP5 SWAP6 PUSH2 0x154C PUSH2 0x156A SWAP5 PUSH2 0x1A0 SWAP9 PUSH2 0x153E PUSH2 0x1576 SWAP9 PUSH2 0x1E2 SWAP14 SWAP16 SWAP15 SWAP13 SWAP8 PUSH2 0x1529 PUSH2 0x155B SWAP9 PUSH2 0x1534 SWAP3 DUP15 PUSH2 0x151C PUSH2 0x260 DUP3 ADD SWAP4 PUSH1 0x0 DUP4 ADD MSTORE JUMP JUMPDEST PUSH1 0x20 DUP2 DUP5 SUB SWAP2 ADD MSTORE PUSH2 0x47C JUMP JUMPDEST SWAP5 PUSH1 0x40 DUP14 ADD SWAP1 PUSH2 0x512 JUMP JUMPDEST PUSH1 0xA0 DUP12 ADD SWAP1 PUSH2 0x536 JUMP JUMPDEST DUP9 DUP3 SUB PUSH2 0x100 DUP11 ADD MSTORE PUSH2 0x55C JUMP JUMPDEST SWAP1 DUP7 DUP3 SUB PUSH2 0x120 DUP9 ADD MSTORE PUSH2 0x57D JUMP JUMPDEST SWAP1 DUP5 DUP3 SUB PUSH2 0x140 DUP7 ADD MSTORE PUSH2 0x5E2 JUMP JUMPDEST SWAP7 PUSH2 0x160 DUP4 ADD SWAP1 PUSH2 0x635 JUMP JUMPDEST ADD SWAP1 PUSH2 0x656 JUMP JUMPDEST CALLVALUE PUSH2 0x1C7 JUMPI PUSH2 0x3EF PUSH2 0x1598 PUSH2 0x1593 CALLDATASIZE PUSH1 0x4 PUSH2 0x3F3 JUMP JUMPDEST PUSH2 0x1469 JUMP JUMPDEST SWAP6 PUSH2 0x15AB SWAP10 SWAP8 SWAP10 SWAP6 SWAP2 SWAP6 SWAP5 SWAP3 SWAP5 PUSH1 0x40 MLOAD SWAP1 JUMP JUMPDEST SWAP10 DUP11 SWAP10 DUP11 PUSH2 0x14E4 JUMP JUMPDEST DUP1 MLOAD DUP3 MSTORE PUSH1 0x20 DUP1 DUP3 ADD MLOAD PUSH1 0x1 PUSH1 0x1 PUSH1 0xA0 SHL SUB AND SWAP1 DUP4 ADD MSTORE SWAP1 PUSH2 0x2AA SWAP1 PUSH1 0xC0 DUP1 PUSH2 0x62D PUSH2 0x15EF PUSH1 0xE0 DUP6 ADD PUSH1 0x40 DUP9 ADD MLOAD DUP7 DUP3 SUB PUSH1 0x40 DUP9 ADD MSTORE PUSH2 0x407 JUMP JUMPDEST PUSH2 0x15FE PUSH1 0x60 DUP9 ADD MLOAD PUSH1 0x60 DUP8 ADD MSTORE JUMP JUMPDEST PUSH1 0x80 DUP8 DUP2 ADD MLOAD ISZERO ISZERO SWAP1 DUP7 ADD MSTORE PUSH2 0xEB1 JUMP JUMPDEST SWAP1 PUSH2 0x2AA SWAP2 PUSH2 0x15B4 JUMP JUMPDEST SWAP1 PUSH2 0x1625 PUSH2 0x7C4 DUP4 MLOAD SWAP1 JUMP JUMPDEST SWAP1 DUP2 PUSH2 0x1637 PUSH1 0x20 DUP4 MUL DUP5 ADD SWAP5 PUSH1 0x20 ADD SWAP1 JUMP JUMPDEST SWAP3 PUSH1 0x0 SWAP2 JUMPDEST DUP4 DUP4 LT PUSH2 0x164B JUMPI POP POP POP POP POP SWAP1 JUMP JUMPDEST SWAP1 SWAP2 SWAP3 SWAP4 SWAP5 PUSH1 0x20 PUSH2 0x1667 PUSH2 0x810 DUP4 DUP6 PUSH1 0x1 SWAP6 SUB DUP8 MSTORE DUP10 MLOAD PUSH2 0x160F JUMP JUMPDEST SWAP4 ADD SWAP4 ADD SWAP2 SWAP4 SWAP3 SWAP1 PUSH2 0x163C JUMP JUMPDEST PUSH1 0x20 DUP1 DUP3 MSTORE PUSH2 0x2AA SWAP3 SWAP2 ADD SWAP1 PUSH2 0x1619 JUMP JUMPDEST CALLVALUE PUSH2 0x1C7 JUMPI PUSH2 0x3EF PUSH2 0x16A1 PUSH2 0x169B CALLDATASIZE PUSH1 0x4 PUSH2 0xD85 JUMP JUMPDEST SWAP1 PUSH2 0x35B5 JUMP JUMPDEST PUSH1 0x40 MLOAD SWAP2 DUP3 SWAP2 DUP3 PUSH2 0x1674 JUMP JUMPDEST PUSH2 0x930 PUSH2 0x2AA SWAP3 PUSH2 0x3B6 PUSH1 0x0 SWAP4 PUSH1 0x9 PUSH2 0x2EF JUMP JUMPDEST CALLVALUE PUSH2 0x1C7 JUMPI PUSH2 0x3EF PUSH2 0x951 PUSH2 0x16D7 CALLDATASIZE PUSH1 0x4 PUSH2 0x2AD JUMP JUMPDEST SWAP1 PUSH2 0x16AD JUMP JUMPDEST SWAP2 SWAP1 PUSH1 0x40 DUP4 DUP3 SUB SLT PUSH2 0x1C7 JUMPI PUSH2 0x2AA SWAP1 PUSH1 0x20 PUSH2 0xCBF DUP3 DUP7 PUSH2 0x1D5 JUMP JUMPDEST CALLVALUE PUSH2 0x1C7 JUMPI PUSH2 0xCDF PUSH2 0x170C CALLDATASIZE PUSH1 0x4 PUSH2 0x16DD JUMP JUMPDEST SWAP1 PUSH2 0x36C4 JUMP JUMPDEST PUSH1 0x2 GT ISZERO PUSH2 0x1C7 JUMPI JUMP JUMPDEST SWAP1 POP CALLDATALOAD SWAP1 PUSH2 0x1E2 DUP3 PUSH2 0x1712 JUMP JUMPDEST SWAP2 SWAP1 SWAP2 PUSH1 0xE0 DUP2 DUP5 SUB SLT PUSH2 0x1C7 JUMPI PUSH2 0x1740 PUSH1 0xE0 PUSH2 0x220 JUMP JUMPDEST SWAP3 DUP2 CALLDATALOAD PUSH1 0x1 PUSH1 0x1 PUSH1 0x40 SHL SUB DUP2 GT PUSH2 0x1C7 JUMPI DUP2 PUSH2 0x175D SWAP2 DUP5 ADD PUSH2 0x28F JUMP JUMPDEST DUP5 MSTORE PUSH1 0x20 DUP3 ADD CALLDATALOAD PUSH1 0x1 PUSH1 0x1 PUSH1 0x40 SHL SUB DUP2 GT PUSH2 0x1C7 JUMPI DUP2 PUSH2 0x177E SWAP2 DUP5 ADD PUSH2 0x28F JUMP JUMPDEST PUSH1 0x20 DUP6 ADD MSTORE PUSH1 0x40 DUP3 ADD CALLDATALOAD PUSH1 0x1 PUSH1 0x1 PUSH1 0x40 SHL SUB DUP2 GT PUSH2 0x1C7 JUMPI DUP2 PUSH2 0x17A2 SWAP2 DUP5 ADD PUSH2 0x28F JUMP JUMPDEST PUSH1 0x40 DUP6 ADD MSTORE PUSH2 0x17B4 DUP2 PUSH1 0x60 DUP5 ADD PUSH2 0x171C JUMP JUMPDEST PUSH1 0x60 DUP6 ADD MSTORE PUSH1 0x80 DUP3 ADD CALLDATALOAD PUSH1 0x1 PUSH1 0x1 PUSH1 0x40 SHL SUB DUP2 GT PUSH2 0x1C7 JUMPI DUP2 PUSH2 0x17D8 SWAP2 DUP5 ADD PUSH2 0x28F JUMP JUMPDEST PUSH1 0x80 DUP6 ADD MSTORE PUSH1 0xA0 DUP3 ADD CALLDATALOAD PUSH1 0x1 PUSH1 0x1 PUSH1 0x40 SHL SUB DUP2 GT PUSH2 0x1C7 JUMPI DUP2 PUSH2 0x17FC SWAP2 DUP5 ADD PUSH2 0x28F JUMP JUMPDEST PUSH1 0xA0 DUP6 ADD MSTORE PUSH1 0xC0 DUP3 ADD CALLDATALOAD PUSH1 0x1 PUSH1 0x1 PUSH1 0x40 SHL SUB DUP2 GT PUSH2 0x1C7 JUMPI PUSH2 0x181E SWAP3 ADD PUSH2 0x28F JUMP JUMPDEST PUSH1 0xC0 DUP4 ADD MSTORE JUMP JUMPDEST SWAP2 SWAP1 PUSH1 0x60 DUP4 DUP3 SUB SLT PUSH2 0x1C7 JUMPI PUSH2 0x1866 SWAP1 PUSH1 0x40 PUSH2 0x1841 PUSH1 0x60 PUSH2 0x220 JUMP JUMPDEST SWAP5 PUSH2 0x184C DUP4 DUP3 PUSH2 0x1D5 JUMP JUMPDEST DUP7 MSTORE PUSH2 0x185B DUP4 PUSH1 0x20 DUP4 ADD PUSH2 0x1D5 JUMP JUMPDEST PUSH1 0x20 DUP8 ADD MSTORE ADD PUSH2 0x1D5 JUMP JUMPDEST PUSH1 0x40 DUP4 ADD MSTORE JUMP JUMPDEST SWAP2 SWAP1 PUSH1 0x60 DUP4 DUP3 SUB SLT PUSH2 0x1C7 JUMPI PUSH2 0x1866 SWAP1 PUSH1 0x40 PUSH2 0x1889 PUSH1 0x60 PUSH2 0x220 JUMP JUMPDEST SWAP5 PUSH2 0x1894 DUP4 DUP3 PUSH2 0x9B4 JUMP JUMPDEST DUP7 MSTORE PUSH2 0x18A3 DUP4 PUSH1 0x20 DUP4 ADD PUSH2 0x9B4 JUMP JUMPDEST PUSH1 0x20 DUP8 ADD MSTORE ADD PUSH2 0x9B4 JUMP JUMPDEST SWAP2 SWAP1 SWAP2 PUSH1 0x40 DUP2 DUP5 SUB SLT PUSH2 0x1C7 JUMPI PUSH2 0x18C5 PUSH1 0x40 PUSH2 0x220 JUMP JUMPDEST SWAP3 PUSH2 0x18D0 DUP2 DUP4 PUSH2 0x9B4 JUMP JUMPDEST DUP5 MSTORE PUSH1 0x20 DUP3 ADD CALLDATALOAD PUSH1 0x1 PUSH1 0x1 PUSH1 0x40 SHL SUB DUP2 GT PUSH2 0x1C7 JUMPI PUSH2 0x18EF SWAP3 ADD PUSH2 0x28F JUMP JUMPDEST PUSH1 0x20 DUP4 ADD MSTORE JUMP JUMPDEST SWAP2 SWAP1 SWAP2 PUSH1 0xE0 DUP2 DUP5 SUB SLT PUSH2 0x1C7 JUMPI PUSH2 0x190D PUSH1 0xE0 PUSH2 0x220 JUMP JUMPDEST SWAP3 PUSH2 0x1918 DUP2 DUP4 PUSH2 0x9B4 JUMP JUMPDEST DUP5 MSTORE PUSH1 0x20 DUP3 ADD CALLDATALOAD PUSH1 0x1 PUSH1 0x1 PUSH1 0x40 SHL SUB DUP2 GT PUSH2 0x1C7 JUMPI DUP3 PUSH2 0x193F DUP4 PUSH1 0xC0 SWAP4 PUSH2 0x181E SWAP7 ADD PUSH2 0x28F JUMP JUMPDEST PUSH1 0x20 DUP8 ADD MSTORE PUSH2 0x1951 DUP4 PUSH1 0x40 DUP4 ADD PUSH2 0x1D5 JUMP JUMPDEST PUSH1 0x40 DUP8 ADD MSTORE PUSH2 0x1963 DUP4 PUSH1 0x60 DUP4 ADD PUSH2 0x1D5 JUMP JUMPDEST PUSH1 0x60 DUP8 ADD MSTORE PUSH2 0x1975 DUP4 PUSH1 0x80 DUP4 ADD PUSH2 0x1D5 JUMP JUMPDEST PUSH1 0x80 DUP8 ADD MSTORE PUSH2 0x1987 DUP4 PUSH1 0xA0 DUP4 ADD PUSH2 0x1D5 JUMP JUMPDEST PUSH1 0xA0 DUP8 ADD MSTORE ADD PUSH2 0x1D5 JUMP JUMPDEST SWAP2 SWAP1 SWAP2 PUSH1 0xA0 DUP2 DUP5 SUB SLT PUSH2 0x1C7 JUMPI PUSH2 0x19A9 PUSH1 0xA0 PUSH2 0x220 JUMP JUMPDEST SWAP3 PUSH2 0x19B4 DUP2 DUP4 PUSH2 0x9B4 JUMP JUMPDEST DUP5 MSTORE PUSH1 0x20 DUP3 ADD CALLDATALOAD PUSH1 0x1 PUSH1 0x1 PUSH1 0x40 SHL SUB DUP2 GT PUSH2 0x1C7 JUMPI DUP2 PUSH2 0x19D5 SWAP2 DUP5 ADD PUSH2 0x28F JUMP JUMPDEST PUSH1 0x20 DUP6 ADD MSTORE PUSH2 0x19E7 DUP2 PUSH1 0x40 DUP5 ADD PUSH2 0x1D5 JUMP JUMPDEST PUSH1 0x40 DUP6 ADD MSTORE PUSH1 0x60 DUP3 ADD CALLDATALOAD PUSH1 0x1 PUSH1 0x1 PUSH1 0x40 SHL SUB DUP2 GT PUSH2 0x1C7 JUMPI DUP3 PUSH2 0x1A11 DUP4 PUSH1 0x80 SWAP4 PUSH2 0x1A1C SWAP7 ADD PUSH2 0x28F JUMP JUMPDEST PUSH1 0x60 DUP8 ADD MSTORE ADD PUSH2 0x1D5 JUMP JUMPDEST PUSH1 0x80 DUP4 ADD MSTORE JUMP JUMPDEST SWAP2 SWAP1 PUSH1 0x40 DUP4 DUP3 SUB SLT PUSH2 0x1C7 JUMPI PUSH2 0x18EF SWAP1 PUSH1 0x20 PUSH2 0x1A3F PUSH1 0x40 PUSH2 0x220 JUMP JUMPDEST SWAP5 PUSH2 0x1A4A DUP4 DUP3 PUSH2 0x9B4 JUMP JUMPDEST DUP7 MSTORE ADD PUSH2 0x9B4 JUMP JUMPDEST PUSH1 0x1 PUSH1 0x1 PUSH1 0x40 SHL SUB DUP2 GT PUSH2 0x21B JUMPI PUSH1 0x20 DUP1 SWAP2 MUL ADD SWAP1 JUMP JUMPDEST SWAP2 SWAP1 SWAP2 PUSH1 0xC0 DUP2 DUP5 SUB SLT PUSH2 0x1C7 JUMPI PUSH2 0x1A80 PUSH1 0xC0 PUSH2 0x220 JUMP JUMPDEST SWAP3 DUP2 CALLDATALOAD PUSH1 0x1 PUSH1 0x1 PUSH1 0x40 SHL SUB DUP2 GT PUSH2 0x1C7 JUMPI DUP2 PUSH2 0x1A9D SWAP2 DUP5 ADD PUSH2 0x28F JUMP JUMPDEST DUP5 MSTORE PUSH1 0x20 DUP3 ADD CALLDATALOAD PUSH1 0x1 PUSH1 0x1 PUSH1 0x40 SHL SUB DUP2 GT PUSH2 0x1C7 JUMPI DUP2 PUSH2 0x1ABE SWAP2 DUP5 ADD PUSH2 0x28F JUMP JUMPDEST PUSH1 0x20 DUP6 ADD MSTORE PUSH1 0x40 DUP3 ADD CALLDATALOAD PUSH1 0x1 PUSH1 0x1 PUSH1 0x40 SHL SUB DUP2 GT PUSH2 0x1C7 JUMPI DUP2 PUSH2 0x1AE2 SWAP2 DUP5 ADD PUSH2 0x28F JUMP JUMPDEST PUSH1 0x40 DUP6 ADD MSTORE PUSH1 0x60 DUP3 ADD CALLDATALOAD PUSH1 0x1 PUSH1 0x1 PUSH1 0x40 SHL SUB DUP2 GT PUSH2 0x1C7 JUMPI DUP2 PUSH2 0x1B06 SWAP2 DUP5 ADD PUSH2 0x28F JUMP JUMPDEST PUSH1 0x60 DUP6 ADD MSTORE PUSH1 0x80 DUP3 ADD CALLDATALOAD PUSH1 0x1 PUSH1 0x1 PUSH1 0x40 SHL SUB DUP2 GT PUSH2 0x1C7 JUMPI DUP2 PUSH2 0x1B2A SWAP2 DUP5 ADD PUSH2 0x28F JUMP JUMPDEST PUSH1 0x80 DUP6 ADD MSTORE PUSH1 0xA0 DUP3 ADD CALLDATALOAD PUSH1 0x1 PUSH1 0x1 PUSH1 0x40 SHL SUB DUP2 GT PUSH2 0x1C7 JUMPI PUSH2 0x1B4C SWAP3 ADD PUSH2 0x28F JUMP JUMPDEST PUSH1 0xA0 DUP4 ADD MSTORE JUMP JUMPDEST SWAP3 SWAP2 SWAP1 PUSH2 0x1B62 PUSH2 0x270 DUP3 PUSH2 0x1A52 JUMP JUMPDEST SWAP4 DUP2 DUP6 MSTORE PUSH1 0x20 DUP1 DUP7 ADD SWAP3 MUL DUP2 ADD SWAP2 DUP4 DUP4 GT PUSH2 0x1C7 JUMPI DUP2 SWAP1 JUMPDEST DUP4 DUP3 LT PUSH2 0x1B88 JUMPI POP POP POP POP POP JUMP JUMPDEST DUP2 CALLDATALOAD PUSH1 0x1 PUSH1 0x1 PUSH1 0x40 SHL SUB DUP2 GT PUSH2 0x1C7 JUMPI PUSH1 0x20 SWAP2 PUSH2 0x1BA8 DUP8 DUP5 SWAP4 DUP8 ADD PUSH2 0x1A69 JUMP JUMPDEST DUP2 MSTORE ADD SWAP2 ADD SWAP1 PUSH2 0x1B7A JUMP JUMPDEST SWAP1 DUP1 PUSH1 0x1F DUP4 ADD SLT ISZERO PUSH2 0x1C7 JUMPI DUP2 PUSH1 0x20 PUSH2 0x2AA SWAP4 CALLDATALOAD SWAP2 ADD PUSH2 0x1B53 JUMP JUMPDEST SWAP3 SWAP2 SWAP1 PUSH2 0x1BDD PUSH2 0x270 DUP3 PUSH2 0x1A52 JUMP JUMPDEST SWAP4 DUP2 DUP6 MSTORE PUSH1 0x20 DUP1 DUP7 ADD SWAP3 MUL DUP2 ADD SWAP2 DUP4 DUP4 GT PUSH2 0x1C7 JUMPI DUP2 SWAP1 JUMPDEST DUP4 DUP3 LT PUSH2 0x1C03 JUMPI POP POP POP POP POP JUMP JUMPDEST DUP2 CALLDATALOAD PUSH1 0x1 PUSH1 0x1 PUSH1 0x40 SHL SUB DUP2 GT PUSH2 0x1C7 JUMPI PUSH1 0x20 SWAP2 PUSH2 0x1C23 DUP8 DUP5 SWAP4 DUP8 ADD PUSH2 0x28F JUMP JUMPDEST DUP2 MSTORE ADD SWAP2 ADD SWAP1 PUSH2 0x1BF5 JUMP JUMPDEST SWAP1 DUP1 PUSH1 0x1F DUP4 ADD SLT ISZERO PUSH2 0x1C7 JUMPI DUP2 PUSH1 0x20 PUSH2 0x2AA SWAP4 CALLDATALOAD SWAP2 ADD PUSH2 0x1BCE JUMP JUMPDEST SWAP2 SWAP1 PUSH2 0x200 DUP4 DUP3 SUB SLT PUSH2 0x1C7 JUMPI PUSH2 0x1C61 PUSH2 0x160 PUSH2 0x220 JUMP JUMPDEST SWAP3 DUP1 CALLDATALOAD PUSH1 0x1 PUSH1 0x1 PUSH1 0x40 SHL SUB DUP2 GT PUSH2 0x1C7 JUMPI DUP3 PUSH2 0x1C7E SWAP2 DUP4 ADD PUSH2 0x1729 JUMP JUMPDEST DUP5 MSTORE PUSH2 0x1C8D DUP3 PUSH1 0x20 DUP4 ADD PUSH2 0x1825 JUMP JUMPDEST PUSH1 0x20 DUP6 ADD MSTORE PUSH2 0x1C9F DUP3 PUSH1 0x80 DUP4 ADD PUSH2 0x186D JUMP JUMPDEST PUSH1 0x40 DUP6 ADD MSTORE PUSH1 0xE0 DUP2 ADD CALLDATALOAD PUSH1 0x1 PUSH1 0x1 PUSH1 0x40 SHL SUB DUP2 GT PUSH2 0x1C7 JUMPI DUP3 PUSH2 0x1CC3 SWAP2 DUP4 ADD PUSH2 0x18AE JUMP JUMPDEST PUSH1 0x60 DUP6 ADD MSTORE PUSH2 0x100 DUP2 ADD CALLDATALOAD PUSH1 0x1 PUSH1 0x1 PUSH1 0x40 SHL SUB DUP2 GT PUSH2 0x1C7 JUMPI DUP3 PUSH2 0x1CE8 SWAP2 DUP4 ADD PUSH2 0x18F6 JUMP JUMPDEST PUSH1 0x80 DUP6 ADD MSTORE PUSH2 0x120 DUP2 ADD CALLDATALOAD PUSH1 0x1 PUSH1 0x1 PUSH1 0x40 SHL SUB DUP2 GT PUSH2 0x1C7 JUMPI DUP3 PUSH2 0x1D0D SWAP2 DUP4 ADD PUSH2 0x1992 JUMP JUMPDEST PUSH1 0xA0 DUP6 ADD MSTORE PUSH2 0x140 SWAP2 PUSH2 0x1D22 DUP2 DUP5 DUP5 ADD PUSH2 0x1A23 JUMP JUMPDEST PUSH1 0xC0 DUP7 ADD MSTORE PUSH2 0x180 DUP3 ADD CALLDATALOAD PUSH1 0x1 PUSH1 0x1 PUSH1 0x40 SHL SUB DUP2 GT PUSH2 0x1C7 JUMPI DUP2 PUSH2 0x1D47 SWAP2 DUP5 ADD PUSH2 0x1BB3 JUMP JUMPDEST PUSH1 0xE0 DUP7 ADD MSTORE PUSH2 0x1A0 DUP3 ADD CALLDATALOAD PUSH1 0x1 PUSH1 0x1 PUSH1 0x40 SHL SUB DUP2 GT PUSH2 0x1C7 JUMPI DUP2 PUSH2 0x1D6C SWAP2 DUP5 ADD PUSH2 0x1C2E JUMP JUMPDEST PUSH2 0x100 DUP7 ADD MSTORE PUSH2 0x1C0 DUP3 ADD CALLDATALOAD PUSH1 0x1 PUSH1 0x1 PUSH1 0x40 SHL SUB DUP2 GT PUSH2 0x1C7 JUMPI DUP3 PUSH2 0x1D99 DUP4 PUSH2 0x1E0 SWAP4 PUSH2 0x1DA5 SWAP7 ADD PUSH2 0x1C2E JUMP JUMPDEST PUSH2 0x120 DUP9 ADD MSTORE ADD PUSH2 0x9B4 JUMP JUMPDEST SWAP1 DUP4 ADD MSTORE JUMP JUMPDEST SWAP1 PUSH1 0x20 DUP3 DUP3 SUB SLT PUSH2 0x1C7 JUMPI DUP2 CALLDATALOAD PUSH1 0x1 PUSH1 0x1 PUSH1 0x40 SHL SUB DUP2 GT PUSH2 0x1C7 JUMPI PUSH2 0x2AA SWAP3 ADD PUSH2 0x1C49 JUMP JUMPDEST CALLVALUE PUSH2 0x1C7 JUMPI PUSH2 0x3EF PUSH2 0x951 PUSH2 0x1DE6 CALLDATASIZE PUSH1 0x4 PUSH2 0x1DAB JUMP JUMPDEST PUSH2 0x41B3 JUMP JUMPDEST SWAP1 PUSH2 0x2AA SWAP1 PUSH1 0xC0 DUP1 PUSH2 0x5A5 PUSH2 0x593 PUSH1 0xE0 DUP6 ADD PUSH1 0x0 DUP9 ADD MLOAD DUP7 DUP3 SUB PUSH1 0x0 DUP9 ADD MSTORE PUSH2 0x407 JUMP JUMPDEST SWAP1 PUSH2 0x2AA SWAP2 PUSH2 0x1DEB JUMP JUMPDEST SWAP1 PUSH2 0x1E25 PUSH2 0x7C4 DUP4 MLOAD SWAP1 JUMP JUMPDEST SWAP1 DUP2 PUSH2 0x1E37 PUSH1 0x20 DUP4 MUL DUP5 ADD SWAP5 PUSH1 0x20 ADD SWAP1 JUMP JUMPDEST SWAP3 PUSH1 0x0 SWAP2 JUMPDEST DUP4 DUP4 LT PUSH2 0x1E4B JUMPI POP POP POP POP POP SWAP1 JUMP JUMPDEST SWAP1 SWAP2 SWAP3 SWAP4 SWAP5 PUSH1 0x20 PUSH2 0x1E67 PUSH2 0x810 DUP4 DUP6 PUSH1 0x1 SWAP6 SUB DUP8 MSTORE DUP10 MLOAD PUSH2 0x1E0F JUMP JUMPDEST SWAP4 ADD SWAP4 ADD SWAP2 SWAP4 SWAP3 SWAP1 PUSH2 0x1E3C JUMP JUMPDEST DUP1 MLOAD DUP3 MSTORE PUSH2 0x2AA SWAP2 PUSH1 0xA0 DUP2 ADD SWAP2 PUSH1 0x80 SWAP1 PUSH2 0x1E93 PUSH1 0x20 DUP3 ADD MLOAD PUSH1 0x20 DUP6 ADD MSTORE JUMP JUMPDEST PUSH2 0x1EA2 PUSH1 0x40 DUP3 ADD MLOAD PUSH1 0x40 DUP6 ADD MSTORE JUMP JUMPDEST PUSH2 0x1EB1 PUSH1 0x60 DUP3 ADD MLOAD PUSH1 0x60 DUP6 ADD MSTORE JUMP JUMPDEST ADD MLOAD SWAP1 PUSH1 0x80 DUP2 DUP5 SUB SWAP2 ADD MSTORE PUSH2 0x1E19 JUMP JUMPDEST PUSH1 0x20 DUP1 DUP3 MSTORE PUSH2 0x2AA SWAP3 SWAP2 ADD SWAP1 PUSH2 0x1E74 JUMP JUMPDEST CALLVALUE PUSH2 0x1C7 JUMPI PUSH2 0x3EF PUSH2 0x1EED PUSH2 0x1EE8 CALLDATASIZE PUSH1 0x4 PUSH2 0x3F3 JUMP JUMPDEST PUSH2 0x4450 JUMP JUMPDEST PUSH1 0x40 MLOAD SWAP2 DUP3 SWAP2 DUP3 PUSH2 0x1EC1 JUMP JUMPDEST PUSH1 0x20 DUP1 DUP3 MSTORE PUSH2 0x2AA SWAP3 SWAP2 ADD SWAP1 PUSH2 0x15B4 JUMP JUMPDEST CALLVALUE PUSH2 0x1C7 JUMPI PUSH2 0x3EF PUSH2 0x1F25 PUSH2 0x1F20 CALLDATASIZE PUSH1 0x4 PUSH2 0x3F3 JUMP JUMPDEST PUSH2 0x4461 JUMP JUMPDEST PUSH1 0x40 MLOAD SWAP2 DUP3 SWAP2 DUP3 PUSH2 0x1EF9 JUMP JUMPDEST CALLVALUE PUSH2 0x1C7 JUMPI PUSH2 0x1F41 CALLDATASIZE PUSH1 0x4 PUSH2 0xFEE JUMP JUMPDEST PUSH2 0x3EF PUSH2 0x951 PUSH2 0x4478 JUMP JUMPDEST PUSH2 0x10A9 SWAP1 PUSH1 0x5 PUSH2 0x2EF JUMP JUMPDEST CALLVALUE PUSH2 0x1C7 JUMPI PUSH2 0x3EF PUSH2 0x10F2 PUSH2 0x1F6D CALLDATASIZE PUSH1 0x4 PUSH2 0x1011 JUMP JUMPDEST SWAP1 PUSH2 0x1F4C JUMP JUMPDEST SWAP1 SWAP2 PUSH1 0x60 DUP3 DUP5 SUB SLT PUSH2 0x1C7 JUMPI PUSH2 0x2AA PUSH2 0x1F8C DUP5 DUP5 PUSH2 0x1D5 JUMP JUMPDEST SWAP4 PUSH1 0x40 PUSH2 0x102D DUP3 PUSH1 0x20 DUP8 ADD PUSH2 0x99F JUMP JUMPDEST SWAP1 PUSH2 0x1FAB PUSH2 0x1FB0 SWAP3 PUSH1 0xD PUSH2 0x2EF JUMP JUMPDEST PUSH2 0xD20 JUMP JUMPDEST DUP1 SLOAD DUP3 LT ISZERO PUSH2 0x1C7 JUMPI PUSH2 0x2AA SWAP2 PUSH2 0x1FC6 SWAP2 PUSH2 0x104A JUMP JUMPDEST SWAP1 PUSH2 0x911 JUMP JUMPDEST CALLVALUE PUSH2 0x1C7 JUMPI PUSH2 0x3EF PUSH2 0x951 PUSH2 0x1FE2 CALLDATASIZE PUSH1 0x4 PUSH2 0x1F73 JUMP JUMPDEST SWAP2 PUSH2 0x1F9C JUMP JUMPDEST DUP1 SLOAD DUP3 LT ISZERO PUSH2 0x106D JUMPI PUSH2 0x1064 PUSH1 0x6 SWAP2 PUSH1 0x0 MSTORE PUSH1 0x20 PUSH1 0x0 KECCAK256 SWAP1 JUMP JUMPDEST PUSH2 0x200D SWAP1 PUSH1 0x4 PUSH2 0x2EF JUMP JUMPDEST SWAP1 PUSH2 0x2016 DUP3 SLOAD SWAP1 JUMP JUMPDEST DUP2 LT ISZERO PUSH2 0x1C7 JUMPI PUSH2 0x2026 SWAP2 PUSH2 0x1FE8 JUMP JUMPDEST POP SWAP1 PUSH2 0x2031 DUP3 PUSH2 0xB63 JUMP JUMPDEST SWAP2 PUSH2 0x203E PUSH1 0x1 DUP3 ADD PUSH2 0xB63 JUMP JUMPDEST SWAP2 PUSH2 0x204B PUSH1 0x2 DUP4 ADD PUSH2 0xB63 JUMP JUMPDEST SWAP2 PUSH2 0x2058 PUSH1 0x3 DUP3 ADD PUSH2 0xB63 JUMP JUMPDEST SWAP2 PUSH2 0x2AA PUSH1 0x5 PUSH2 0x206A PUSH1 0x4 DUP6 ADD PUSH2 0xB63 JUMP JUMPDEST SWAP4 ADD PUSH2 0xB63 JUMP JUMPDEST SWAP5 SWAP2 SWAP4 PUSH2 0x20B9 PUSH2 0x20D5 SWAP5 PUSH2 0x20AB PUSH2 0x2AA SWAP10 SWAP8 PUSH2 0x209D PUSH2 0x20C7 SWAP7 PUSH1 0xC0 DUP13 ADD SWAP1 DUP13 PUSH1 0x0 DUP2 DUP5 SUB SWAP2 ADD MSTORE PUSH2 0x407 JUMP JUMPDEST SWAP1 DUP11 DUP3 SUB PUSH1 0x20 DUP13 ADD MSTORE PUSH2 0x407 JUMP JUMPDEST SWAP1 DUP9 DUP3 SUB PUSH1 0x40 DUP11 ADD MSTORE PUSH2 0x407 JUMP JUMPDEST SWAP1 DUP7 DUP3 SUB PUSH1 0x60 DUP9 ADD MSTORE PUSH2 0x407 JUMP JUMPDEST SWAP1 DUP5 DUP3 SUB PUSH1 0x80 DUP7 ADD MSTORE PUSH2 0x407 JUMP JUMPDEST SWAP2 PUSH1 0xA0 DUP2 DUP5 SUB SWAP2 ADD MSTORE PUSH2 0x407 JUMP JUMPDEST CALLVALUE PUSH2 0x1C7 JUMPI PUSH2 0x3EF PUSH2 0x20FF PUSH2 0x20F9 CALLDATASIZE PUSH1 0x4 PUSH2 0x1011 JUMP JUMPDEST SWAP1 PUSH2 0x2002 JUMP JUMPDEST SWAP3 PUSH2 0x210F SWAP7 SWAP5 SWAP7 SWAP3 SWAP2 SWAP3 PUSH1 0x40 MLOAD SWAP1 JUMP JUMPDEST SWAP7 DUP8 SWAP7 DUP8 PUSH2 0x2071 JUMP JUMPDEST CALLVALUE PUSH2 0x1C7 JUMPI PUSH2 0xCDF PUSH2 0x212B CALLDATASIZE PUSH1 0x4 PUSH2 0xCE4 JUMP JUMPDEST PUSH2 0x44DA JUMP JUMPDEST PUSH1 0x20 DUP1 DUP3 MSTORE PUSH2 0x2AA SWAP3 SWAP2 ADD SWAP1 PUSH2 0x7B8 JUMP JUMPDEST CALLVALUE PUSH2 0x1C7 JUMPI PUSH2 0x3EF PUSH2 0x215C PUSH2 0x2157 CALLDATASIZE PUSH1 0x4 PUSH2 0x3F3 JUMP JUMPDEST PUSH2 0x450D JUMP JUMPDEST PUSH1 0x40 MLOAD SWAP2 DUP3 SWAP2 DUP3 PUSH2 0x2130 JUMP JUMPDEST PUSH2 0x2AA PUSH2 0x120 PUSH2 0x220 JUMP JUMPDEST PUSH2 0x217B PUSH2 0x1147 JUMP JUMPDEST SWAP1 PUSH1 0x60 DUP3 MSTORE PUSH1 0x20 DUP1 DUP1 DUP1 DUP1 DUP1 DUP1 DUP9 ADD PUSH1 0x60 DUP2 MSTORE ADD PUSH1 0x60 DUP2 MSTORE ADD PUSH1 0x0 DUP2 MSTORE ADD PUSH1 0x60 DUP2 MSTORE ADD PUSH1 0x60 JUMPDEST DUP2 MSTORE ADD PUSH1 0x60 SWAP1 MSTORE POP JUMP JUMPDEST SWAP1 MSTORE POP JUMP JUMPDEST PUSH2 0x2AA PUSH2 0x2173 JUMP JUMPDEST PUSH2 0x21C0 PUSH2 0x11F0 JUMP JUMPDEST SWAP1 PUSH1 0x0 DUP3 MSTORE PUSH1 0x20 DUP1 DUP1 DUP5 ADD PUSH1 0x0 JUMPDEST DUP2 MSTORE ADD PUSH1 0x0 SWAP1 MSTORE POP JUMP JUMPDEST PUSH2 0x2AA PUSH2 0x21B8 JUMP JUMPDEST PUSH2 0x21E8 PUSH2 0x12AE JUMP JUMPDEST SWAP1 PUSH1 0x0 DUP3 MSTORE PUSH1 0x60 PUSH1 0x20 DUP4 ADD MSTORE JUMP JUMPDEST PUSH2 0x2AA PUSH2 0x21E0 JUMP JUMPDEST PUSH2 0x2206 PUSH2 0x1147 JUMP JUMPDEST SWAP1 PUSH1 0x0 JUMPDEST DUP3 MSTORE PUSH1 0x20 DUP1 DUP1 DUP1 DUP1 DUP1 DUP1 DUP9 ADD PUSH1 0x60 JUMPDEST DUP2 MSTORE ADD PUSH1 0x0 JUMPDEST DUP2 MSTORE ADD PUSH1 0x0 DUP2 MSTORE ADD PUSH1 0x0 DUP2 MSTORE ADD PUSH1 0x0 PUSH2 0x21CE JUMP JUMPDEST PUSH2 0x2AA PUSH2 0x21FE JUMP JUMPDEST PUSH2 0x2243 PUSH2 0x1353 JUMP JUMPDEST SWAP1 PUSH1 0x0 DUP3 MSTORE PUSH1 0x20 DUP1 DUP1 DUP1 DUP1 DUP7 ADD PUSH1 0x60 JUMPDEST DUP2 MSTORE ADD PUSH1 0x0 DUP2 MSTORE ADD PUSH1 0x60 PUSH2 0x21CE JUMP JUMPDEST PUSH2 0x2AA PUSH2 0x223B JUMP JUMPDEST PUSH2 0x2272 PUSH2 0x12AE JUMP JUMPDEST SWAP1 PUSH1 0x0 DUP3 MSTORE PUSH1 0x0 PUSH1 0x20 DUP4 ADD MSTORE JUMP JUMPDEST PUSH2 0x2AA PUSH2 0x226A JUMP JUMPDEST PUSH2 0x2290 PUSH2 0x13F4 JUMP JUMPDEST SWAP1 PUSH1 0x0 DUP3 MSTORE PUSH1 0x20 DUP1 DUP1 DUP1 DUP1 DUP1 DUP8 ADD PUSH1 0x0 PUSH2 0x221F JUMP JUMPDEST PUSH2 0x2AA PUSH2 0x2288 JUMP JUMPDEST PUSH2 0x22B5 PUSH2 0x2168 JUMP JUMPDEST SWAP1 PUSH1 0x0 DUP3 MSTORE PUSH1 0x20 DUP1 DUP1 DUP1 DUP1 DUP1 DUP1 DUP1 DUP1 DUP11 ADD PUSH2 0x22CE PUSH2 0x21B0 JUMP JUMPDEST DUP2 MSTORE ADD PUSH2 0x22D9 PUSH2 0x21D8 JUMP JUMPDEST DUP2 MSTORE ADD PUSH2 0x22E4 PUSH2 0x21D8 JUMP JUMPDEST DUP2 MSTORE ADD PUSH2 0x22EF PUSH2 0x21F6 JUMP JUMPDEST DUP2 MSTORE ADD PUSH2 0x22FA PUSH2 0x2233 JUMP JUMPDEST DUP2 MSTORE ADD PUSH2 0x2305 PUSH2 0x2262 JUMP JUMPDEST DUP2 MSTORE ADD PUSH2 0x2310 PUSH2 0x2280 JUMP JUMPDEST DUP2 MSTORE ADD PUSH2 0x21AB PUSH2 0x22A5 JUMP JUMPDEST PUSH2 0x2AA PUSH2 0x22AD JUMP JUMPDEST PUSH2 0x64A PUSH2 0x2AA PUSH2 0x2AA SWAP3 SWAP1 JUMP JUMPDEST PUSH2 0x2AA SWAP1 PUSH2 0x2323 JUMP JUMPDEST ISZERO PUSH2 0x2340 JUMPI JUMP JUMPDEST PUSH1 0x40 MLOAD PUSH3 0x461BCD PUSH1 0xE5 SHL DUP2 MSTORE PUSH1 0x20 PUSH1 0x4 DUP3 ADD MSTORE PUSH1 0x13 PUSH1 0x24 DUP3 ADD MSTORE PUSH32 0x506F6C6C20646F6573206E6F7420657869737400000000000000000000000000 PUSH1 0x44 DUP3 ADD MSTORE PUSH1 0x64 SWAP1 REVERT JUMPDEST SWAP1 PUSH2 0x23D2 SWAP5 SWAP4 SWAP3 SWAP2 PUSH2 0x23CD PUSH2 0x23A9 PUSH1 0x0 PUSH1 0x1B PUSH2 0x23A2 DUP10 PUSH1 0x3 PUSH2 0x2EF JUMP JUMPDEST ADD ADD PUSH2 0x13EA JUMP JUMPDEST PUSH2 0x23C6 PUSH2 0x23B9 PUSH2 0x64A PUSH1 0x0 PUSH2 0x2330 JUMP JUMPDEST SWAP2 PUSH1 0x1 PUSH1 0x1 PUSH1 0xA0 SHL SUB AND SWAP1 JUMP JUMPDEST EQ ISZERO PUSH2 0x2339 JUMP JUMPDEST PUSH2 0x25B8 JUMP JUMPDEST SWAP1 SWAP2 SWAP3 SWAP4 JUMP JUMPDEST SWAP1 PUSH2 0x1E2 PUSH2 0x2473 PUSH1 0x1B PUSH2 0x23E9 PUSH2 0x2168 JUMP JUMPDEST SWAP5 PUSH2 0x23F6 PUSH2 0x116F DUP3 PUSH2 0xA8B JUMP JUMPDEST PUSH2 0x2405 PUSH2 0x1182 PUSH1 0x1 DUP4 ADD PUSH2 0x1151 JUMP JUMPDEST PUSH2 0x2414 PUSH2 0x1198 PUSH1 0x8 DUP4 ADD PUSH2 0x11FA JUMP JUMPDEST PUSH2 0x2423 PUSH2 0x132E PUSH1 0xB DUP4 ADD PUSH2 0x1260 JUMP JUMPDEST PUSH2 0x2432 PUSH2 0x11C6 PUSH1 0xC DUP4 ADD PUSH2 0x12B8 JUMP JUMPDEST PUSH2 0x2441 PUSH2 0x11DC PUSH1 0xE DUP4 ADD PUSH2 0x12E3 JUMP JUMPDEST PUSH2 0x2457 PUSH2 0x2450 PUSH1 0x15 DUP4 ADD PUSH2 0x135D JUMP JUMPDEST PUSH1 0xC0 DUP9 ADD MSTORE JUMP JUMPDEST PUSH2 0x246D PUSH2 0x2466 PUSH1 0x1A DUP4 ADD PUSH2 0x13AF JUMP JUMPDEST PUSH1 0xE0 DUP9 ADD MSTORE JUMP JUMPDEST ADD PUSH2 0x13FE JUMP JUMPDEST PUSH2 0x100 DUP5 ADD MSTORE JUMP JUMPDEST PUSH2 0x2AA SWAP1 PUSH2 0x23D8 JUMP JUMPDEST SWAP1 PUSH2 0x35F PUSH2 0x270 DUP4 PUSH2 0x1A52 JUMP JUMPDEST SWAP1 PUSH2 0x1E2 PUSH2 0x1462 PUSH1 0x5 PUSH2 0x24A2 PUSH2 0x13F4 JUMP JUMPDEST SWAP5 PUSH2 0x24AF PUSH2 0x116F DUP3 PUSH2 0xB63 JUMP JUMPDEST PUSH2 0x24BE PUSH2 0x1182 PUSH1 0x1 DUP4 ADD PUSH2 0xB63 JUMP JUMPDEST PUSH2 0x24CD PUSH2 0x1198 PUSH1 0x2 DUP4 ADD PUSH2 0xB63 JUMP JUMPDEST PUSH2 0x24DC PUSH2 0x132E PUSH1 0x3 DUP4 ADD PUSH2 0xB63 JUMP JUMPDEST PUSH2 0x11E3 PUSH2 0x11C6 PUSH1 0x4 DUP4 ADD PUSH2 0xB63 JUMP JUMPDEST PUSH2 0x2AA SWAP1 PUSH2 0x2491 JUMP JUMPDEST SWAP1 PUSH2 0x24FD DUP3 SLOAD SWAP1 JUMP JUMPDEST PUSH2 0x2506 DUP2 PUSH2 0x2484 JUMP JUMPDEST SWAP3 PUSH2 0x251A PUSH1 0x20 DUP6 ADD SWAP2 PUSH1 0x0 MSTORE PUSH1 0x20 PUSH1 0x0 KECCAK256 SWAP1 JUMP JUMPDEST PUSH1 0x0 SWAP2 JUMPDEST DUP4 DUP4 LT PUSH2 0x252B JUMPI POP POP POP POP JUMP JUMPDEST PUSH1 0x6 PUSH1 0x20 PUSH1 0x1 SWAP3 PUSH2 0x253B DUP6 PUSH2 0x24EB JUMP JUMPDEST DUP2 MSTORE ADD SWAP3 ADD SWAP3 ADD SWAP2 SWAP1 PUSH2 0x251E JUMP JUMPDEST PUSH2 0x2AA SWAP1 PUSH2 0x24F4 JUMP JUMPDEST PUSH2 0x2AA SWAP1 PUSH2 0xB63 JUMP JUMPDEST SWAP1 PUSH2 0x2564 DUP3 SLOAD SWAP1 JUMP JUMPDEST PUSH2 0x256D DUP2 PUSH2 0x2484 JUMP JUMPDEST SWAP3 PUSH2 0x2581 PUSH1 0x20 DUP6 ADD SWAP2 PUSH1 0x0 MSTORE PUSH1 0x20 PUSH1 0x0 KECCAK256 SWAP1 JUMP JUMPDEST PUSH1 0x0 SWAP2 JUMPDEST DUP4 DUP4 LT PUSH2 0x2592 JUMPI POP POP POP POP JUMP JUMPDEST PUSH1 0x1 PUSH1 0x20 DUP2 SWAP3 PUSH2 0x25A1 DUP6 PUSH2 0x2552 JUMP JUMPDEST DUP2 MSTORE ADD SWAP3 ADD SWAP3 ADD SWAP2 SWAP1 PUSH2 0x2585 JUMP JUMPDEST PUSH2 0x2AA SWAP1 PUSH2 0x255B JUMP JUMPDEST POP POP POP POP PUSH2 0x25C7 DUP2 PUSH1 0x3 PUSH2 0x2EF JUMP JUMPDEST PUSH2 0x25D2 DUP3 PUSH1 0x4 PUSH2 0x2EF JUMP JUMPDEST SWAP3 PUSH2 0x2AA PUSH2 0x2607 PUSH2 0x2601 PUSH2 0x25FB PUSH2 0x25F5 PUSH2 0x25ED DUP9 PUSH1 0x6 PUSH2 0x2EF JUMP JUMPDEST SWAP8 PUSH1 0x5 PUSH2 0x2EF JUMP JUMPDEST SWAP6 PUSH2 0x247B JUMP JUMPDEST SWAP7 PUSH2 0x2549 JUMP JUMPDEST SWAP5 PUSH2 0x25AF JUMP JUMPDEST SWAP3 PUSH2 0x25AF JUMP JUMPDEST PUSH2 0x23D2 SWAP1 PUSH2 0x2619 PUSH2 0x231B JUMP JUMPDEST PUSH1 0x60 DUP1 DUP1 SWAP3 PUSH2 0x2385 JUMP JUMPDEST SWAP1 PUSH2 0x263C SWAP9 SWAP8 SWAP7 SWAP6 SWAP5 SWAP4 SWAP3 SWAP2 PUSH2 0x2637 PUSH2 0x4522 JUMP JUMPDEST PUSH2 0x2B84 JUMP JUMPDEST SWAP1 PUSH2 0x1E2 PUSH2 0x4562 JUMP JUMPDEST ISZERO PUSH2 0x264C JUMPI JUMP JUMPDEST PUSH1 0x40 MLOAD PUSH3 0x461BCD PUSH1 0xE5 SHL DUP2 MSTORE PUSH1 0x20 PUSH1 0x4 DUP3 ADD MSTORE PUSH1 0x9 PUSH1 0x24 DUP3 ADD MSTORE PUSH9 0x1393D517D1561254D5 PUSH1 0xBA SHL PUSH1 0x44 DUP3 ADD MSTORE PUSH1 0x64 SWAP1 REVERT JUMPDEST ISZERO PUSH2 0x2684 JUMPI JUMP JUMPDEST PUSH1 0x40 MLOAD PUSH3 0x461BCD PUSH1 0xE5 SHL DUP2 MSTORE PUSH1 0x20 PUSH1 0x4 DUP3 ADD MSTORE PUSH1 0xA PUSH1 0x24 DUP3 ADD MSTORE PUSH10 0x4E4F545F414354495645 PUSH1 0xB0 SHL PUSH1 0x44 DUP3 ADD MSTORE PUSH1 0x64 SWAP1 REVERT JUMPDEST ISZERO PUSH2 0x26BD JUMPI JUMP JUMPDEST PUSH1 0x40 MLOAD PUSH3 0x461BCD PUSH1 0xE5 SHL DUP2 MSTORE PUSH1 0x20 PUSH1 0x4 DUP3 ADD MSTORE PUSH1 0xB PUSH1 0x24 DUP3 ADD MSTORE PUSH11 0x1393D517D4D51054951151 PUSH1 0xAA SHL PUSH1 0x44 DUP3 ADD MSTORE PUSH1 0x64 SWAP1 REVERT JUMPDEST ISZERO PUSH2 0x26F7 JUMPI JUMP JUMPDEST PUSH1 0x40 MLOAD PUSH3 0x461BCD PUSH1 0xE5 SHL DUP2 MSTORE PUSH1 0x20 PUSH1 0x4 DUP3 ADD MSTORE PUSH1 0x5 PUSH1 0x24 DUP3 ADD MSTORE PUSH5 0x1153911151 PUSH1 0xDA SHL PUSH1 0x44 DUP3 ADD MSTORE PUSH1 0x64 SWAP1 REVERT JUMPDEST SWAP1 SWAP2 PUSH2 0x250 SWAP1 DUP4 SWAP1 DUP1 SWAP4 PUSH2 0x254 JUMP JUMPDEST PUSH2 0x35F SWAP1 PUSH1 0x20 SWAP5 SWAP4 PUSH2 0x250 SWAP4 PUSH2 0x2724 JUMP JUMPDEST SWAP1 SWAP2 PUSH2 0x379 SWAP1 PUSH2 0x2753 PUSH1 0x40 MLOAD SWAP1 JUMP JUMPDEST SWAP4 DUP5 SWAP4 DUP5 PUSH2 0x2733 JUMP JUMPDEST SWAP1 SWAP2 PUSH2 0x2AA SWAP3 PUSH2 0x2744 JUMP JUMPDEST ISZERO PUSH2 0x276E JUMPI JUMP JUMPDEST PUSH1 0x40 MLOAD PUSH3 0x461BCD PUSH1 0xE5 SHL DUP2 MSTORE PUSH1 0x20 PUSH1 0x4 DUP3 ADD MSTORE PUSH1 0xE PUSH1 0x24 DUP3 ADD MSTORE PUSH32 0x494E56414C49445F4F5054494F4E000000000000000000000000000000000000 PUSH1 0x44 DUP3 ADD MSTORE PUSH1 0x64 SWAP1 REVERT JUMPDEST ISZERO PUSH2 0x27BA JUMPI JUMP JUMPDEST PUSH1 0x40 MLOAD PUSH3 0x461BCD PUSH1 0xE5 SHL DUP2 MSTORE PUSH1 0x20 PUSH1 0x4 DUP3 ADD MSTORE PUSH1 0x14 PUSH1 0x24 DUP3 ADD MSTORE PUSH32 0x414C52454144595F504152544943495041544544000000000000000000000000 PUSH1 0x44 DUP3 ADD MSTORE PUSH1 0x64 SWAP1 REVERT JUMPDEST PUSH4 0x4E487B71 PUSH1 0xE0 SHL PUSH1 0x0 MSTORE PUSH1 0x11 PUSH1 0x4 MSTORE PUSH1 0x24 PUSH1 0x0 REVERT JUMPDEST PUSH1 0x0 NOT DUP2 EQ PUSH2 0x2824 JUMPI PUSH1 0x1 ADD SWAP1 JUMP JUMPDEST PUSH2 0x27FF JUMP JUMPDEST SWAP1 PUSH1 0x0 NOT SWAP1 JUMPDEST SWAP2 DUP2 NOT AND SWAP2 AND OR SWAP1 JUMP JUMPDEST SWAP1 PUSH2 0x2849 PUSH2 0x2AA PUSH2 0x2850 SWAP3 PUSH2 0x2E2 JUMP JUMPDEST DUP3 SLOAD PUSH2 0x2829 JUMP JUMPDEST SWAP1 SSTORE JUMP JUMPDEST PUSH2 0x2AA SWAP2 CALLDATASIZE SWAP2 PUSH2 0x260 JUMP JUMPDEST MLOAD SWAP1 JUMP JUMPDEST SWAP1 PUSH1 0x1 PUSH1 0x1 PUSH1 0xA0 SHL SUB SWAP1 PUSH2 0x282F JUMP JUMPDEST SWAP1 PUSH2 0x2882 PUSH2 0x2AA PUSH2 0x2850 SWAP3 PUSH2 0xD17 JUMP JUMPDEST DUP3 SLOAD PUSH2 0x2863 JUMP JUMPDEST SWAP2 PUSH1 0x0 NOT PUSH1 0x8 SWAP3 SWAP1 SWAP3 MUL SWAP2 DUP3 SHL SWAP2 SHL PUSH2 0x282F JUMP JUMPDEST SWAP2 SWAP1 PUSH2 0x28AE PUSH2 0x2AA PUSH2 0x2850 SWAP4 PUSH2 0x2E2 JUMP JUMPDEST SWAP1 DUP4 SLOAD PUSH2 0x2889 JUMP JUMPDEST PUSH2 0x1E2 SWAP2 PUSH1 0x0 SWAP2 PUSH2 0x289D JUMP JUMPDEST DUP2 DUP2 LT PUSH2 0x28CD JUMPI POP POP JUMP JUMPDEST DUP1 PUSH2 0x28DB PUSH1 0x0 PUSH1 0x1 SWAP4 PUSH2 0x28B6 JUMP JUMPDEST ADD PUSH2 0x28C2 JUMP JUMPDEST SWAP2 SWAP1 PUSH1 0x1F DUP2 GT PUSH2 0x28F0 JUMPI POP POP POP JUMP JUMPDEST PUSH2 0x2902 PUSH2 0x1E2 SWAP4 PUSH1 0x0 MSTORE PUSH1 0x20 PUSH1 0x0 KECCAK256 SWAP1 JUMP JUMPDEST SWAP1 PUSH1 0x20 PUSH1 0x1F DUP5 ADD DUP2 SWAP1 DIV DUP4 ADD SWAP4 LT PUSH2 0x2924 JUMPI JUMPDEST PUSH1 0x20 PUSH1 0x1F SWAP1 SWAP2 ADD DIV ADD SWAP1 PUSH2 0x28C2 JUMP JUMPDEST SWAP1 SWAP2 POP DUP2 SWAP1 PUSH2 0x2915 JUMP JUMPDEST SWAP1 PUSH2 0x2937 DUP2 MLOAD SWAP1 JUMP JUMPDEST SWAP1 PUSH1 0x1 PUSH1 0x1 PUSH1 0x40 SHL SUB DUP3 GT PUSH2 0x21B JUMPI PUSH2 0x295A DUP3 PUSH2 0x2954 DUP6 SLOAD PUSH2 0xAAB JUMP JUMPDEST DUP6 PUSH2 0x28E1 JUMP JUMPDEST PUSH1 0x20 SWAP1 PUSH1 0x1F DUP4 GT PUSH1 0x1 EQ PUSH2 0x2995 JUMPI PUSH2 0x2850 SWAP3 SWAP2 PUSH1 0x0 SWAP2 DUP4 PUSH2 0x298A JUMPI JUMPDEST POP POP PUSH1 0x0 NOT PUSH1 0x8 DUP4 MUL SHR NOT AND SWAP1 PUSH1 0x2 MUL OR SWAP1 JUMP JUMPDEST ADD MLOAD SWAP1 POP CODESIZE DUP1 PUSH2 0x2976 JUMP JUMPDEST PUSH1 0x1F NOT DUP4 AND SWAP2 PUSH2 0x29AA DUP6 PUSH1 0x0 MSTORE PUSH1 0x20 PUSH1 0x0 KECCAK256 SWAP1 JUMP JUMPDEST SWAP3 PUSH1 0x0 JUMPDEST DUP2 DUP2 LT PUSH2 0x29E8 JUMPI POP SWAP2 PUSH1 0x2 SWAP4 SWAP2 DUP6 PUSH1 0x1 SWAP7 SWAP5 LT PUSH2 0x29CF JUMPI JUMPDEST POP POP POP MUL ADD SWAP1 SSTORE JUMP JUMPDEST ADD MLOAD PUSH1 0x0 NOT PUSH1 0x8 PUSH1 0x1F DUP6 AND MUL SHR NOT AND SWAP1 SSTORE CODESIZE DUP1 DUP1 PUSH2 0x29C6 JUMP JUMPDEST SWAP2 SWAP4 PUSH1 0x20 PUSH1 0x1 DUP2 SWAP3 DUP8 DUP8 ADD MLOAD DUP2 SSTORE ADD SWAP6 ADD SWAP3 ADD PUSH2 0x29AE JUMP JUMPDEST SWAP1 PUSH2 0x1E2 SWAP2 PUSH2 0x292E JUMP JUMPDEST SWAP1 PUSH1 0xFF SWAP1 PUSH2 0x282F JUMP JUMPDEST SWAP1 PUSH2 0x2A23 PUSH2 0x2AA PUSH2 0x2850 SWAP3 ISZERO ISZERO SWAP1 JUMP JUMPDEST DUP3 SLOAD PUSH2 0x2A0A JUMP JUMPDEST PUSH1 0x6 PUSH2 0x2ACC PUSH1 0xC0 PUSH2 0x1E2 SWAP5 PUSH2 0x2A49 PUSH2 0x2A43 PUSH1 0x0 DUP4 ADD MLOAD SWAP1 JUMP JUMPDEST DUP7 PUSH2 0x2839 JUMP JUMPDEST PUSH2 0x2A69 PUSH2 0x2A60 PUSH1 0x20 DUP4 ADD MLOAD PUSH1 0x1 PUSH1 0x1 PUSH1 0xA0 SHL SUB AND SWAP1 JUMP JUMPDEST PUSH1 0x1 DUP8 ADD PUSH2 0x2872 JUMP JUMPDEST PUSH2 0x2A80 PUSH2 0x2A77 PUSH1 0x40 DUP4 ADD MLOAD SWAP1 JUMP JUMPDEST PUSH1 0x2 DUP8 ADD PUSH2 0x2A00 JUMP JUMPDEST PUSH2 0x2A97 PUSH2 0x2A8E PUSH1 0x60 DUP4 ADD MLOAD SWAP1 JUMP JUMPDEST PUSH1 0x3 DUP8 ADD PUSH2 0x2839 JUMP JUMPDEST PUSH2 0x2AB0 PUSH2 0x2AA7 PUSH1 0x80 DUP4 ADD MLOAD ISZERO ISZERO SWAP1 JUMP JUMPDEST PUSH1 0x4 DUP8 ADD PUSH2 0x2A13 JUMP JUMPDEST PUSH2 0x2AC7 PUSH2 0x2ABE PUSH1 0xA0 DUP4 ADD MLOAD SWAP1 JUMP JUMPDEST PUSH1 0x5 DUP8 ADD PUSH2 0x2A00 JUMP JUMPDEST ADD MLOAD SWAP1 JUMP JUMPDEST SWAP2 ADD PUSH2 0x2839 JUMP JUMPDEST SWAP1 PUSH2 0x1E2 SWAP2 PUSH2 0x2A2A JUMP JUMPDEST SWAP1 DUP2 SLOAD SWAP2 PUSH9 0x10000000000000000 DUP4 LT ISZERO PUSH2 0x21B JUMPI DUP3 PUSH2 0x2B05 SWAP2 PUSH1 0x1 PUSH2 0x1E2 SWAP6 ADD DUP2 SSTORE PUSH2 0x104A JUMP JUMPDEST SWAP1 PUSH2 0x289D JUMP JUMPDEST SWAP2 SWAP1 DUP3 ADD DUP1 SWAP3 GT PUSH2 0x2824 JUMPI JUMP JUMPDEST SWAP2 SWAP1 PUSH2 0x431 DUP2 PUSH2 0x2B2F DUP2 PUSH2 0x250 SWAP6 PUSH1 0x20 SWAP2 DUP2 MSTORE ADD SWAP1 JUMP JUMPDEST DUP1 SWAP6 PUSH2 0x254 JUMP JUMPDEST SWAP3 PUSH2 0x1E2 SWAP7 SWAP9 SWAP8 SWAP6 PUSH1 0x80 SWAP6 PUSH2 0x2B6B PUSH2 0x2B61 PUSH2 0x2B78 SWAP6 PUSH2 0x2B80 SWAP8 PUSH1 0xA0 DUP11 ADD SWAP2 DUP11 DUP4 SUB PUSH1 0x0 DUP13 ADD MSTORE PUSH2 0x2B18 JUMP JUMPDEST SWAP4 ISZERO ISZERO PUSH1 0x20 DUP9 ADD MSTORE JUMP JUMPDEST DUP6 DUP4 SUB PUSH1 0x40 DUP8 ADD MSTORE PUSH2 0x2B18 JUMP JUMPDEST SWAP7 PUSH1 0x60 DUP4 ADD MSTORE JUMP JUMPDEST ADD MSTORE JUMP JUMPDEST SWAP2 DUP5 SWAP7 SWAP8 SWAP9 DUP3 SWAP7 SWAP5 SWAP4 POP PUSH2 0x2B99 DUP4 PUSH1 0x3 PUSH2 0x2EF JUMP JUMPDEST SWAP10 PUSH1 0x1B DUP12 ADD PUSH2 0x2BA7 DUP2 PUSH2 0x13EA JUMP JUMPDEST PUSH1 0x0 SWAP13 DUP14 SWAP2 PUSH2 0x2BB5 DUP4 PUSH2 0x2330 JUMP JUMPDEST PUSH1 0x1 PUSH1 0x1 PUSH1 0xA0 SHL SUB AND SWAP1 PUSH1 0x1 PUSH1 0x1 PUSH1 0xA0 SHL SUB AND EQ ISZERO PUSH2 0x2BD3 SWAP1 PUSH2 0x2645 JUMP JUMPDEST PUSH2 0x2BDE DUP4 DUP4 ADD PUSH2 0xB8D JUMP JUMPDEST PUSH2 0x2BE7 SWAP1 PUSH2 0x267D JUMP JUMPDEST PUSH1 0x8 DUP2 ADD DUP3 DUP2 ADD PUSH2 0x2BF7 SWAP1 PUSH2 0xA8B JUMP JUMPDEST TIMESTAMP LT ISZERO PUSH2 0x2C03 SWAP1 PUSH2 0x26B6 JUMP JUMPDEST PUSH1 0x1 ADD PUSH2 0x2C0F SWAP1 PUSH2 0xA8B JUMP JUMPDEST TIMESTAMP GT ISZERO PUSH2 0x2C1B SWAP1 PUSH2 0x26F0 JUMP JUMPDEST DUP6 DUP9 PUSH2 0x2C28 DUP10 PUSH1 0x8 PUSH2 0x2EF JUMP JUMPDEST SWAP2 PUSH2 0x2C32 SWAP3 PUSH2 0x275C JUMP JUMPDEST PUSH2 0x2C3B SWAP1 PUSH2 0xB8D JUMP JUMPDEST PUSH2 0x2C44 SWAP1 PUSH2 0x2767 JUMP JUMPDEST PUSH1 0x15 ADD ADD PUSH2 0x2C51 SWAP1 PUSH2 0xB8D JUMP JUMPDEST ISZERO PUSH2 0x2E76 JUMPI JUMPDEST PUSH2 0x2C61 PUSH1 0xE PUSH2 0xA8B JUMP JUMPDEST PUSH2 0x2C6A SWAP1 PUSH2 0x2815 JUMP JUMPDEST PUSH2 0x2C75 SWAP1 PUSH1 0xE PUSH2 0x2839 JUMP JUMPDEST PUSH2 0x2C7F PUSH1 0xE PUSH2 0xA8B JUMP JUMPDEST SWAP12 DUP6 PUSH2 0x2C89 PUSH2 0x1147 JUMP JUMPDEST SWAP2 DUP3 ADD MSTORE PUSH1 0x1 PUSH1 0x1 PUSH1 0xA0 SHL SUB DUP10 AND PUSH1 0x20 DUP3 ADD MSTORE PUSH2 0x2CA6 DUP8 DUP7 PUSH2 0x2854 JUMP JUMPDEST PUSH1 0x40 DUP3 ADD MSTORE PUSH2 0x2CB6 TIMESTAMP PUSH1 0x60 DUP4 ADD MSTORE JUMP JUMPDEST DUP8 ISZERO ISZERO PUSH1 0x80 DUP3 ADD MSTORE PUSH2 0x2CC8 DUP4 DUP14 PUSH2 0x2854 JUMP JUMPDEST PUSH1 0xA0 DUP3 ADD MSTORE PUSH2 0x2CD8 DUP5 PUSH1 0xC0 DUP4 ADD MSTORE JUMP JUMPDEST PUSH2 0x2CE3 DUP14 PUSH1 0xC PUSH2 0x2EF JUMP JUMPDEST SWAP1 PUSH2 0x2CED SWAP2 PUSH2 0x2AD3 JUMP JUMPDEST DUP12 DUP9 PUSH2 0x2CFA DUP8 PUSH1 0xD PUSH2 0x2EF JUMP JUMPDEST SWAP1 PUSH2 0x2D04 SWAP2 PUSH2 0xD20 JUMP JUMPDEST SWAP1 PUSH2 0x2D0E SWAP2 PUSH2 0x2ADD JUMP JUMPDEST PUSH2 0x2D18 PUSH1 0x1 PUSH2 0x2E2 JUMP JUMPDEST DUP5 DUP8 PUSH2 0x2D25 DUP9 PUSH1 0x9 PUSH2 0x2EF JUMP JUMPDEST SWAP2 PUSH2 0x2D2F SWAP3 PUSH2 0x275C JUMP JUMPDEST DUP2 PUSH2 0x2D39 DUP3 PUSH2 0xA8B JUMP JUMPDEST SWAP1 PUSH2 0x2D43 SWAP2 PUSH2 0x2B0B JUMP JUMPDEST PUSH2 0x2D4C SWAP2 PUSH2 0x2839 JUMP JUMPDEST DUP7 DUP9 DUP7 DUP3 PUSH2 0x2D5B DUP11 PUSH1 0xA PUSH2 0x2EF JUMP JUMPDEST SWAP2 PUSH2 0x2D65 SWAP3 PUSH2 0x275C JUMP JUMPDEST DUP4 PUSH2 0x2D6F DUP3 PUSH2 0xA8B JUMP JUMPDEST SWAP1 PUSH2 0x2D79 SWAP2 PUSH2 0x2B0B JUMP JUMPDEST PUSH2 0x2D82 SWAP2 PUSH2 0x2839 JUMP JUMPDEST PUSH2 0x2DE2 PUSH32 0xAA3435579412516A140CB2BD81EFE3AFAD1CEFC49A646E891B5FD1C6D371EF7E SWAP12 PUSH2 0x1FAB PUSH2 0x2E1D SWAP11 PUSH2 0x2DE6 SWAP6 PUSH2 0x2AA SWAP6 PUSH2 0x2E41 JUMPI JUMPDEST POP PUSH2 0x2DDB PUSH1 0x3 DUP10 ADD PUSH2 0x2DD5 DUP10 PUSH2 0x2DD0 DUP4 PUSH2 0xA8B JUMP JUMPDEST PUSH2 0x2B0B JUMP JUMPDEST SWAP1 PUSH2 0x2839 JUMP JUMPDEST PUSH1 0xD PUSH2 0x2EF JUMP JUMPDEST SLOAD SWAP1 JUMP JUMPDEST EQ PUSH2 0x2E23 JUMPI JUMPDEST POP PUSH2 0x2E08 PUSH2 0x2E02 PUSH2 0x2DFC DUP14 PUSH2 0x2E2 JUMP JUMPDEST SWAP10 PUSH2 0x2E2 JUMP JUMPDEST SWAP10 PUSH2 0xD17 JUMP JUMPDEST SWAP10 PUSH2 0x2E12 PUSH1 0x40 MLOAD SWAP1 JUMP JUMPDEST SWAP7 DUP8 SWAP7 TIMESTAMP SWAP6 DUP9 PUSH2 0x2B36 JUMP JUMPDEST SUB SWAP1 LOG4 SWAP1 JUMP JUMPDEST PUSH1 0x2 PUSH2 0x2E3B SWAP2 ADD PUSH2 0x2DD5 PUSH2 0x2E36 DUP3 PUSH2 0xA8B JUMP JUMPDEST PUSH2 0x2815 JUMP JUMPDEST CODESIZE PUSH2 0x2DEC JUMP JUMPDEST PUSH2 0x2E59 PUSH2 0x2E66 SWAP2 DUP14 PUSH2 0x2E54 DUP6 PUSH1 0x7 PUSH2 0x2EF JUMP JUMPDEST PUSH2 0x275C JUMP JUMPDEST PUSH2 0x2DD5 DUP13 PUSH2 0x2DD0 DUP4 PUSH2 0xA8B JUMP JUMPDEST PUSH2 0x2E70 DUP11 DUP3 PUSH2 0x4574 JUMP JUMPDEST DUP13 PUSH2 0x2DBB JUMP JUMPDEST PUSH2 0x2EA2 DUP13 PUSH2 0x2E9C PUSH2 0x2E98 PUSH2 0x2E92 PUSH2 0x2DE2 DUP14 PUSH2 0x1FAB DUP13 PUSH1 0xD PUSH2 0x2EF JUMP JUMPDEST SWAP3 PUSH2 0x2E2 JUMP JUMPDEST SWAP2 SWAP1 JUMP JUMPDEST EQ PUSH2 0x27B3 JUMP JUMPDEST PUSH2 0x2C57 JUMP JUMPDEST PUSH2 0x2AA SWAP8 SWAP7 SWAP6 SWAP5 SWAP4 SWAP3 SWAP2 SWAP1 PUSH1 0x0 PUSH2 0x2623 JUMP JUMPDEST SWAP1 PUSH2 0x2AA SWAP2 PUSH2 0x2ED3 PUSH2 0x23A9 PUSH1 0x0 PUSH1 0x1B PUSH2 0x23A2 DUP7 PUSH1 0x3 PUSH2 0x2EF JUMP JUMPDEST PUSH2 0x2EE8 SWAP2 PUSH2 0x2EE3 SWAP2 POP PUSH1 0x3 PUSH2 0x2EF JUMP JUMPDEST PUSH2 0x247B JUMP JUMPDEST PUSH2 0x100 DUP2 ADD MLOAD MLOAD ISZERO ISZERO SWAP1 DUP2 PUSH2 0x2F11 JUMPI JUMPDEST DUP2 PUSH2 0x2F01 JUMPI POP SWAP1 JUMP JUMPDEST PUSH1 0x40 ADD MLOAD PUSH1 0x20 ADD MLOAD SWAP1 POP TIMESTAMP GT ISZERO SWAP1 JUMP JUMPDEST PUSH1 0x40 DUP2 ADD MLOAD MLOAD TIMESTAMP LT ISZERO SWAP2 POP PUSH2 0x2EF8 JUMP JUMPDEST PUSH2 0x2AA SWAP1 PUSH1 0x0 PUSH2 0x2EB9 JUMP JUMPDEST SWAP1 PUSH2 0x1E2 SWAP2 PUSH2 0x2F39 PUSH2 0x45AB JUMP JUMPDEST PUSH2 0x2F84 PUSH2 0x2F7A PUSH32 0xAD857FA38C9319CB80848F1EF2F924383B90297EB5D71755738FF037D100FAA1 SWAP3 PUSH2 0x2F75 DUP6 PUSH2 0x2F70 DUP4 PUSH1 0xF PUSH2 0xD20 JUMP JUMPDEST PUSH2 0x2A13 JUMP JUMPDEST PUSH2 0xD17 JUMP JUMPDEST SWAP3 PUSH2 0x3E0 PUSH1 0x40 MLOAD SWAP1 JUMP JUMPDEST SUB SWAP1 LOG2 JUMP JUMPDEST SWAP1 PUSH2 0x1E2 SWAP2 PUSH2 0x2F2C JUMP JUMPDEST SWAP1 PUSH2 0x2AA SWAP3 SWAP2 PUSH2 0x2FAE PUSH2 0x23A9 PUSH1 0x0 PUSH1 0x1B PUSH2 0x23A2 DUP7 PUSH1 0x3 PUSH2 0x2EF JUMP JUMPDEST PUSH2 0x3038 JUMP JUMPDEST SWAP1 PUSH2 0x2FCE PUSH2 0x2FC2 PUSH2 0xDB7 DUP5 SLOAD SWAP1 JUMP JUMPDEST SWAP3 PUSH1 0x0 MSTORE PUSH1 0x20 PUSH1 0x0 KECCAK256 SWAP1 JUMP JUMPDEST SWAP1 PUSH1 0x0 JUMPDEST DUP2 DUP2 LT PUSH2 0x2FDF JUMPI POP POP POP SWAP1 JUMP JUMPDEST SWAP1 SWAP2 SWAP3 PUSH2 0x3003 PUSH2 0x2FFC PUSH1 0x1 SWAP3 PUSH2 0x2FF4 DUP8 PUSH2 0xA8B JUMP JUMPDEST DUP2 MSTORE PUSH1 0x20 ADD SWAP1 JUMP JUMPDEST SWAP5 PUSH1 0x1 ADD SWAP1 JUMP JUMPDEST SWAP3 SWAP2 ADD PUSH2 0x2FD2 JUMP JUMPDEST SWAP1 PUSH2 0x2AA SWAP2 PUSH2 0x2FB3 JUMP JUMPDEST SWAP1 PUSH2 0x1E2 PUSH2 0xB7D SWAP3 PUSH2 0x3026 PUSH1 0x40 MLOAD SWAP1 JUMP JUMPDEST SWAP4 DUP5 DUP1 SWAP3 PUSH2 0x300B JUMP JUMPDEST PUSH2 0x2AA SWAP1 PUSH2 0x3015 JUMP JUMPDEST SWAP2 PUSH2 0x1FAB PUSH2 0x304C SWAP3 PUSH2 0x2AA SWAP5 POP PUSH1 0xD PUSH2 0x2EF JUMP JUMPDEST PUSH2 0x302F JUMP JUMPDEST PUSH2 0x2AA SWAP2 SWAP1 PUSH1 0x60 PUSH2 0x2F93 JUMP JUMPDEST PUSH2 0x3065 PUSH2 0x1353 JUMP JUMPDEST SWAP1 PUSH1 0x0 DUP3 MSTORE PUSH1 0x20 DUP1 DUP1 DUP1 DUP1 DUP7 ADD PUSH1 0x0 DUP2 MSTORE ADD PUSH1 0x0 DUP2 MSTORE ADD PUSH1 0x0 PUSH2 0x21A1 JUMP JUMPDEST PUSH2 0x2AA PUSH2 0x305D JUMP JUMPDEST SWAP1 PUSH2 0x2AA SWAP2 PUSH2 0x30A5 PUSH2 0x23A9 PUSH1 0x0 PUSH1 0x1B PUSH2 0x23A2 DUP7 PUSH1 0x3 PUSH2 0x2EF JUMP JUMPDEST PUSH2 0x318C JUMP JUMPDEST PUSH2 0x2AA PUSH2 0x160 PUSH2 0x220 JUMP JUMPDEST PUSH2 0x30BD PUSH2 0x30AA JUMP JUMPDEST SWAP1 PUSH1 0x60 DUP3 MSTORE PUSH1 0x20 DUP1 DUP1 DUP1 DUP1 DUP1 DUP1 DUP1 DUP1 DUP1 DUP1 DUP13 ADD PUSH1 0x60 DUP2 MSTORE ADD PUSH1 0x60 DUP2 MSTORE ADD PUSH1 0x60 DUP2 MSTORE ADD PUSH1 0x60 DUP2 MSTORE ADD PUSH1 0x60 PUSH2 0x2219 JUMP JUMPDEST PUSH2 0x2AA PUSH2 0x30B5 JUMP JUMPDEST PUSH1 0x0 JUMPDEST DUP3 DUP2 LT PUSH2 0x3102 JUMPI POP POP POP JUMP JUMPDEST PUSH1 0x20 SWAP1 PUSH2 0x310D PUSH2 0x30EB JUMP JUMPDEST DUP2 DUP5 ADD MSTORE ADD PUSH2 0x30F6 JUMP JUMPDEST SWAP1 PUSH2 0x1E2 PUSH2 0x312D PUSH2 0x3127 DUP5 PUSH2 0x2484 JUMP JUMPDEST SWAP4 PUSH2 0x1A52 JUMP JUMPDEST PUSH1 0x1F NOT ADD PUSH1 0x20 DUP5 ADD PUSH2 0x30F3 JUMP JUMPDEST SWAP1 PUSH2 0x3143 DUP3 MLOAD SWAP1 JUMP JUMPDEST DUP2 LT ISZERO PUSH2 0x106D JUMPI PUSH1 0x20 DUP1 SWAP2 MUL ADD ADD SWAP1 JUMP JUMPDEST DUP2 DUP2 MUL SWAP3 SWAP2 DUP2 ISZERO SWAP2 DUP5 DIV EQ OR ISZERO PUSH2 0x2824 JUMPI JUMP JUMPDEST PUSH4 0x4E487B71 PUSH1 0xE0 SHL PUSH1 0x0 MSTORE PUSH1 0x12 PUSH1 0x4 MSTORE PUSH1 0x24 PUSH1 0x0 REVERT JUMPDEST DUP2 ISZERO PUSH2 0x3187 JUMPI DIV SWAP1 JUMP JUMPDEST PUSH2 0x3167 JUMP JUMPDEST POP PUSH2 0x319B PUSH2 0x2EE3 DUP3 PUSH1 0x3 PUSH2 0x2EF JUMP JUMPDEST SWAP1 PUSH2 0x31AF PUSH2 0x31AA DUP3 PUSH1 0x4 PUSH2 0x2EF JUMP JUMPDEST PUSH2 0x2549 JUMP JUMPDEST SWAP2 PUSH2 0x100 PUSH2 0x31BC DUP4 PUSH2 0x4603 JUMP JUMPDEST SWAP2 ADD SWAP3 PUSH2 0x31CB PUSH1 0xA0 DUP6 MLOAD ADD MLOAD SWAP1 JUMP JUMPDEST PUSH2 0x31DB PUSH2 0x31D6 DUP4 MLOAD SWAP1 JUMP JUMPDEST PUSH2 0x3117 JUMP JUMPDEST SWAP4 PUSH1 0x0 SWAP4 PUSH2 0x31E8 DUP6 PUSH2 0x2E2 JUMP JUMPDEST PUSH2 0x31F3 PUSH2 0x2AA DUP7 MLOAD SWAP1 JUMP JUMPDEST DUP2 LT ISZERO PUSH2 0x3389 JUMPI DUP6 PUSH2 0x3225 PUSH2 0x3220 PUSH2 0x320C DUP7 PUSH1 0x9 PUSH2 0x2EF JUMP JUMPDEST DUP4 PUSH2 0x3217 DUP7 DUP12 PUSH2 0x313A JUMP JUMPDEST MLOAD ADD MLOAD SWAP1 PUSH2 0x37F JUMP JUMPDEST PUSH2 0xA8B JUMP JUMPDEST PUSH2 0x3241 PUSH2 0x3220 PUSH2 0x3236 DUP8 PUSH1 0xA PUSH2 0x2EF JUMP JUMPDEST DUP5 PUSH2 0x3217 DUP8 DUP13 PUSH2 0x313A JUMP JUMPDEST PUSH2 0x325D PUSH2 0x3220 PUSH2 0x3252 DUP9 PUSH1 0x7 PUSH2 0x2EF JUMP JUMPDEST DUP6 PUSH2 0x3217 DUP9 DUP14 PUSH2 0x313A JUMP JUMPDEST SWAP1 PUSH2 0x3267 DUP5 PUSH2 0x2E2 JUMP JUMPDEST DUP9 GT ISZERO PUSH2 0x337B JUMPI PUSH2 0x328B DUP9 PUSH2 0x3286 PUSH2 0x3280 PUSH2 0x2710 PUSH2 0x2E2 JUMP JUMPDEST DUP7 PUSH2 0x3154 JUMP JUMPDEST PUSH2 0x317D JUMP JUMPDEST PUSH2 0x3294 DUP6 PUSH2 0x2E2 JUMP JUMPDEST DUP8 GT ISZERO PUSH2 0x336C JUMPI PUSH2 0x32AD DUP8 PUSH2 0x3286 PUSH2 0x3280 PUSH2 0x2710 PUSH2 0x2E2 JUMP JUMPDEST SWAP4 JUMPDEST DUP6 PUSH2 0x32BA DUP9 DUP14 PUSH2 0x313A JUMP JUMPDEST MLOAD ADD MLOAD DUP8 DUP13 PUSH2 0x32C9 DUP3 DUP3 PUSH2 0x313A JUMP JUMPDEST MLOAD PUSH1 0x20 ADD MLOAD PUSH2 0x32D8 DUP4 DUP4 PUSH2 0x313A JUMP JUMPDEST MLOAD PUSH1 0x40 ADD MLOAD SWAP1 PUSH2 0x32E8 DUP5 DUP5 PUSH2 0x313A JUMP JUMPDEST MLOAD PUSH1 0x60 ADD MLOAD SWAP3 PUSH2 0x32F8 DUP6 DUP3 PUSH2 0x313A JUMP JUMPDEST MLOAD PUSH1 0x80 ADD MLOAD SWAP5 PUSH2 0x3307 SWAP2 PUSH2 0x313A JUMP JUMPDEST MLOAD PUSH1 0xA0 ADD MLOAD SWAP5 PUSH2 0x3315 PUSH2 0x30AA JUMP JUMPDEST SWAP12 DUP13 ADD MSTORE PUSH1 0x20 DUP12 ADD MSTORE PUSH1 0x40 DUP11 ADD MSTORE PUSH1 0x60 DUP10 ADD MSTORE PUSH1 0x80 DUP9 ADD MSTORE PUSH1 0xA0 DUP8 ADD MSTORE PUSH1 0xC0 DUP7 ADD MSTORE PUSH1 0xE0 DUP6 ADD MSTORE PUSH2 0x100 DUP5 ADD MSTORE PUSH2 0x120 DUP4 ADD MSTORE PUSH2 0x140 DUP3 ADD MSTORE PUSH2 0x3358 DUP3 DUP10 PUSH2 0x313A JUMP JUMPDEST MSTORE PUSH2 0x3363 DUP2 DUP9 PUSH2 0x313A JUMP JUMPDEST POP PUSH1 0x1 ADD PUSH2 0x31E8 JUMP JUMPDEST PUSH2 0x3375 DUP6 PUSH2 0x2E2 JUMP JUMPDEST SWAP4 PUSH2 0x32AF JUMP JUMPDEST PUSH2 0x3384 DUP5 PUSH2 0x2E2 JUMP JUMPDEST PUSH2 0x328B JUMP JUMPDEST POP SWAP2 PUSH2 0x1A1C SWAP4 POP SWAP1 PUSH2 0x33C2 PUSH2 0x33C9 SWAP3 PUSH2 0x33BB PUSH2 0x33AC PUSH1 0x80 PUSH2 0x2AA SWAP11 SWAP10 SWAP12 MLOAD ADD MLOAD SWAP1 JUMP JUMPDEST SWAP4 PUSH2 0x33B5 PUSH2 0x1353 JUMP JUMPDEST SWAP11 DUP12 ADD MSTORE JUMP JUMPDEST PUSH1 0x20 DUP10 ADD MSTORE JUMP JUMPDEST PUSH1 0x40 DUP8 ADD MSTORE JUMP JUMPDEST PUSH1 0x60 DUP6 ADD MSTORE JUMP JUMPDEST PUSH2 0x2AA SWAP1 PUSH2 0x33DC PUSH2 0x3083 JUMP JUMPDEST PUSH2 0x308B JUMP JUMPDEST PUSH2 0x33E9 PUSH2 0x45AB JUMP JUMPDEST PUSH2 0x1E2 PUSH2 0x1E2 PUSH2 0x33F9 PUSH1 0x0 PUSH2 0x2330 JUMP JUMPDEST PUSH2 0x46AC JUMP JUMPDEST PUSH2 0x1E2 PUSH2 0x33E1 JUMP JUMPDEST SWAP1 PUSH2 0x2AA SWAP3 SWAP2 PUSH2 0x3421 PUSH2 0x23A9 PUSH1 0x0 PUSH1 0x1B PUSH2 0x23A2 DUP7 PUSH1 0x3 PUSH2 0x2EF JUMP JUMPDEST PUSH2 0x352A JUMP JUMPDEST PUSH2 0x342E PUSH2 0x1147 JUMP JUMPDEST SWAP1 PUSH1 0x0 DUP3 MSTORE PUSH1 0x20 DUP1 DUP1 DUP1 DUP1 DUP1 DUP1 DUP9 ADD PUSH1 0x0 DUP2 MSTORE ADD PUSH1 0x60 DUP2 MSTORE ADD PUSH1 0x0 PUSH2 0x2253 JUMP JUMPDEST PUSH2 0x2AA PUSH2 0x3426 JUMP JUMPDEST PUSH1 0x0 JUMPDEST DUP3 DUP2 LT PUSH2 0x3465 JUMPI POP POP POP JUMP JUMPDEST PUSH1 0x20 SWAP1 PUSH2 0x3470 PUSH2 0x344E JUMP JUMPDEST DUP2 DUP5 ADD MSTORE ADD PUSH2 0x3459 JUMP JUMPDEST SWAP1 PUSH2 0x1E2 PUSH2 0x348A PUSH2 0x3127 DUP5 PUSH2 0x2484 JUMP JUMPDEST PUSH1 0x1F NOT ADD PUSH1 0x20 DUP5 ADD PUSH2 0x3456 JUMP JUMPDEST SWAP1 PUSH2 0x1E2 PUSH2 0x11E9 PUSH1 0x6 PUSH2 0x34A8 PUSH2 0x1147 JUMP JUMPDEST SWAP5 PUSH2 0x34B5 PUSH2 0x116F DUP3 PUSH2 0xA8B JUMP JUMPDEST PUSH2 0x34DC PUSH2 0x34CC PUSH1 0x1 DUP4 ADD SLOAD PUSH1 0x1 PUSH1 0x1 PUSH1 0xA0 SHL SUB AND SWAP1 JUMP JUMPDEST PUSH1 0x1 PUSH1 0x1 PUSH1 0xA0 SHL SUB AND PUSH1 0x20 DUP9 ADD MSTORE JUMP JUMPDEST PUSH2 0x34EB PUSH2 0x1198 PUSH1 0x2 DUP4 ADD PUSH2 0xB63 JUMP JUMPDEST PUSH2 0x34FA PUSH2 0x132E PUSH1 0x3 DUP4 ADD PUSH2 0xA8B JUMP JUMPDEST PUSH2 0x3512 PUSH2 0x3509 PUSH1 0x4 DUP4 ADD PUSH2 0xB8D JUMP JUMPDEST ISZERO ISZERO PUSH1 0x80 DUP9 ADD MSTORE JUMP JUMPDEST PUSH2 0x1227 PUSH2 0x11DC PUSH1 0x5 DUP4 ADD PUSH2 0xB63 JUMP JUMPDEST PUSH2 0x2AA SWAP1 PUSH2 0x3497 JUMP JUMPDEST SWAP2 PUSH2 0x1FAB PUSH2 0x304C SWAP3 PUSH2 0x353E SWAP5 POP PUSH1 0xD PUSH2 0x2EF JUMP JUMPDEST PUSH2 0x354E PUSH2 0x3549 DUP3 MLOAD SWAP1 JUMP JUMPDEST PUSH2 0x347A JUMP JUMPDEST SWAP1 PUSH2 0x3559 PUSH1 0x0 PUSH2 0x2E2 JUMP JUMPDEST PUSH2 0x3564 PUSH2 0x2AA DUP4 MLOAD SWAP1 JUMP JUMPDEST DUP2 LT ISZERO PUSH2 0x35B0 JUMPI PUSH2 0x35AB SWAP1 PUSH2 0x358F PUSH2 0x358A PUSH1 0xC PUSH2 0x3584 PUSH2 0x285F DUP6 DUP9 PUSH2 0x313A JUMP JUMPDEST SWAP1 PUSH2 0x2EF JUMP JUMPDEST PUSH2 0x3521 JUMP JUMPDEST PUSH2 0x3599 DUP3 DUP7 PUSH2 0x313A JUMP JUMPDEST MSTORE PUSH2 0x35A4 DUP2 DUP6 PUSH2 0x313A JUMP JUMPDEST POP PUSH1 0x1 ADD SWAP1 JUMP JUMPDEST PUSH2 0x3559 JUMP JUMPDEST POP POP SWAP1 JUMP JUMPDEST PUSH2 0x2AA SWAP2 SWAP1 PUSH1 0x60 PUSH2 0x3406 JUMP JUMPDEST SWAP1 PUSH2 0x1E2 SWAP2 PUSH2 0x35CE PUSH2 0x45AB JUMP JUMPDEST PUSH2 0x361F JUMP JUMPDEST ISZERO PUSH2 0x35DA JUMPI JUMP JUMPDEST PUSH1 0x40 MLOAD PUSH3 0x461BCD PUSH1 0xE5 SHL DUP2 MSTORE PUSH1 0x20 PUSH1 0x4 DUP3 ADD MSTORE PUSH1 0x1A PUSH1 0x24 DUP3 ADD MSTORE PUSH32 0x416C72656164792073657420746F207468697320737461747573000000000000 PUSH1 0x44 DUP3 ADD MSTORE PUSH1 0x64 SWAP1 REVERT JUMPDEST PUSH2 0x3688 SWAP1 PUSH2 0x3683 DUP4 PUSH1 0x0 PUSH1 0x1B PUSH2 0x367C DUP6 PUSH1 0x3 PUSH2 0x3652 PUSH2 0x3643 DUP7 DUP7 PUSH2 0x23A2 DUP7 DUP7 PUSH2 0x2EF JUMP JUMPDEST PUSH2 0x23C6 PUSH2 0x23B9 PUSH2 0x64A DUP10 PUSH2 0x2330 JUMP JUMPDEST PUSH2 0x3677 PUSH2 0x366B DUP7 DUP7 PUSH2 0x3664 DUP7 DUP7 PUSH2 0x2EF JUMP JUMPDEST ADD ADD PUSH2 0xB8D JUMP JUMPDEST ISZERO ISZERO DUP8 ISZERO ISZERO EQ ISZERO PUSH2 0x35D3 JUMP JUMPDEST PUSH2 0x2EF JUMP JUMPDEST ADD ADD PUSH2 0x2A13 JUMP JUMPDEST PUSH2 0x2E2 JUMP JUMPDEST PUSH32 0x808EEC1E87B4F6AD5CAA96449ECBFC6A0CCCFA9C343730AF222195930C9C29F8 PUSH2 0x36BF PUSH2 0x36B5 CALLER PUSH2 0xD17 JUMP JUMPDEST SWAP4 PUSH2 0x3E0 PUSH1 0x40 MLOAD SWAP1 JUMP JUMPDEST SUB SWAP1 LOG3 JUMP JUMPDEST SWAP1 PUSH2 0x1E2 SWAP2 PUSH2 0x35C1 JUMP JUMPDEST SWAP1 PUSH2 0x2AA SWAP2 PUSH2 0x36DB PUSH2 0x45AB JUMP JUMPDEST PUSH2 0x3D8E JUMP JUMPDEST ISZERO PUSH2 0x36E7 JUMPI JUMP JUMPDEST PUSH1 0x40 MLOAD PUSH3 0x461BCD PUSH1 0xE5 SHL DUP2 MSTORE PUSH1 0x20 PUSH1 0x4 DUP3 ADD MSTORE PUSH1 0x15 PUSH1 0x24 DUP3 ADD MSTORE PUSH32 0x5469746C652063616E6E6F7420626520656D7074790000000000000000000000 PUSH1 0x44 DUP3 ADD MSTORE PUSH1 0x64 SWAP1 REVERT JUMPDEST ISZERO PUSH2 0x3733 JUMPI JUMP JUMPDEST PUSH1 0x40 MLOAD PUSH3 0x461BCD PUSH1 0xE5 SHL DUP2 MSTORE PUSH1 0x20 PUSH1 0x4 DUP3 ADD MSTORE PUSH1 0x1C PUSH1 0x24 DUP3 ADD MSTORE PUSH32 0x4174206C65617374206F6E65206F7074696F6E20726571756972656400000000 PUSH1 0x44 DUP3 ADD MSTORE PUSH1 0x64 SWAP1 REVERT JUMPDEST ISZERO PUSH2 0x377F JUMPI JUMP JUMPDEST PUSH1 0x40 MLOAD PUSH3 0x461BCD PUSH1 0xE5 SHL DUP2 MSTORE PUSH1 0x20 PUSH1 0x4 DUP3 ADD MSTORE PUSH1 0x22 PUSH1 0x24 DUP3 ADD MSTORE PUSH32 0x53746172742064617465206D757374206265206265666F726520656E64206461 PUSH1 0x44 DUP3 ADD MSTORE PUSH2 0x7465 PUSH1 0xF0 SHL PUSH1 0x64 DUP3 ADD MSTORE PUSH1 0x84 SWAP1 REVERT JUMPDEST ISZERO PUSH2 0x37D6 JUMPI JUMP JUMPDEST PUSH1 0x40 MLOAD PUSH3 0x461BCD PUSH1 0xE5 SHL DUP2 MSTORE PUSH1 0x20 PUSH1 0x4 DUP3 ADD MSTORE PUSH1 0x1E PUSH1 0x24 DUP3 ADD MSTORE PUSH32 0x456E642064617465206D75737420626520696E20746865206675747572650000 PUSH1 0x44 DUP3 ADD MSTORE PUSH1 0x64 SWAP1 REVERT JUMPDEST ISZERO PUSH2 0x3822 JUMPI JUMP JUMPDEST PUSH1 0x40 MLOAD PUSH3 0x461BCD PUSH1 0xE5 SHL DUP2 MSTORE PUSH1 0x20 PUSH1 0x4 DUP3 ADD MSTORE PUSH1 0x27 PUSH1 0x24 DUP3 ADD MSTORE PUSH32 0x42657474696E6720617373657420726571756972656420666F72206265747469 PUSH1 0x44 DUP3 ADD MSTORE PUSH7 0x6E67206D6F6465 PUSH1 0xC8 SHL PUSH1 0x64 DUP3 ADD MSTORE PUSH1 0x84 SWAP1 REVERT JUMPDEST ISZERO PUSH2 0x387E JUMPI JUMP JUMPDEST PUSH1 0x40 MLOAD PUSH3 0x461BCD PUSH1 0xE5 SHL DUP2 MSTORE PUSH1 0x20 PUSH1 0x4 DUP3 ADD MSTORE PUSH1 0x22 PUSH1 0x24 DUP3 ADD MSTORE PUSH32 0x4D696E696D756D20626574206D7573742062652067726561746572207468616E PUSH1 0x44 DUP3 ADD MSTORE PUSH2 0x203 PUSH1 0xF4 SHL PUSH1 0x64 DUP3 ADD MSTORE PUSH1 0x84 SWAP1 REVERT JUMPDEST ISZERO PUSH2 0x38D5 JUMPI JUMP JUMPDEST PUSH1 0x40 MLOAD PUSH3 0x461BCD PUSH1 0xE5 SHL DUP2 MSTORE PUSH1 0x20 PUSH1 0x4 DUP3 ADD MSTORE PUSH1 0x22 PUSH1 0x24 DUP3 ADD MSTORE PUSH32 0x4D6178696D756D20626574206D757374206265203E3D206D696E696D756D2062 PUSH1 0x44 DUP3 ADD MSTORE PUSH2 0x195D PUSH1 0xF2 SHL PUSH1 0x64 DUP3 ADD MSTORE PUSH1 0x84 SWAP1 REVERT JUMPDEST PUSH2 0x2AA SWAP1 MLOAD PUSH2 0x460 JUMP JUMPDEST SWAP1 PUSH2 0x2A23 PUSH2 0x2AA PUSH2 0x2850 SWAP3 PUSH2 0x46A JUMP JUMPDEST PUSH1 0x6 PUSH2 0x39B2 PUSH1 0xC0 PUSH2 0x1E2 SWAP5 PUSH2 0x395E PUSH2 0x3958 PUSH1 0x0 DUP4 ADD MLOAD SWAP1 JUMP JUMPDEST DUP7 PUSH2 0x2A00 JUMP JUMPDEST PUSH2 0x3975 PUSH2 0x396C PUSH1 0x20 DUP4 ADD MLOAD SWAP1 JUMP JUMPDEST PUSH1 0x1 DUP8 ADD PUSH2 0x2A00 JUMP JUMPDEST PUSH2 0x3983 PUSH2 0x2A77 PUSH1 0x40 DUP4 ADD MLOAD SWAP1 JUMP JUMPDEST PUSH2 0x399B PUSH2 0x3992 PUSH1 0x60 DUP4 ADD PUSH2 0x3925 JUMP JUMPDEST PUSH1 0x3 DUP8 ADD PUSH2 0x392F JUMP JUMPDEST PUSH2 0x2AB0 PUSH2 0x39A9 PUSH1 0x80 DUP4 ADD MLOAD SWAP1 JUMP JUMPDEST PUSH1 0x4 DUP8 ADD PUSH2 0x2A00 JUMP JUMPDEST SWAP2 ADD PUSH2 0x2A00 JUMP JUMPDEST SWAP1 PUSH2 0x1E2 SWAP2 PUSH2 0x393F JUMP JUMPDEST PUSH1 0x2 PUSH2 0x2ACC PUSH1 0x40 PUSH2 0x1E2 SWAP5 PUSH2 0x39DC PUSH2 0x2A43 PUSH1 0x0 DUP4 ADD MLOAD SWAP1 JUMP JUMPDEST PUSH2 0x2AC7 PUSH2 0x39EA PUSH1 0x20 DUP4 ADD MLOAD SWAP1 JUMP JUMPDEST PUSH1 0x1 DUP8 ADD PUSH2 0x2839 JUMP JUMPDEST SWAP1 PUSH2 0x1E2 SWAP2 PUSH2 0x39C3 JUMP JUMPDEST SWAP1 PUSH2 0xFF00 SWAP1 PUSH1 0x8 SHL PUSH2 0x282F JUMP JUMPDEST SWAP1 PUSH2 0x3A1A PUSH2 0x2AA PUSH2 0x2850 SWAP3 ISZERO ISZERO SWAP1 JUMP JUMPDEST DUP3 SLOAD PUSH2 0x39FD JUMP JUMPDEST SWAP1 PUSH3 0xFF0000 SWAP1 PUSH1 0x10 SHL PUSH2 0x282F JUMP JUMPDEST SWAP1 PUSH2 0x3A3F PUSH2 0x2AA PUSH2 0x2850 SWAP3 ISZERO ISZERO SWAP1 JUMP JUMPDEST DUP3 SLOAD PUSH2 0x3A21 JUMP JUMPDEST PUSH2 0x1E2 SWAP2 PUSH2 0x3A81 SWAP1 PUSH1 0x40 SWAP1 PUSH2 0x3A64 PUSH2 0x3A5E DUP3 MLOAD ISZERO ISZERO SWAP1 JUMP JUMPDEST DUP6 PUSH2 0x2A13 JUMP JUMPDEST PUSH2 0x3A7A PUSH2 0x3A74 PUSH1 0x20 DUP4 ADD MLOAD ISZERO ISZERO SWAP1 JUMP JUMPDEST DUP6 PUSH2 0x3A0A JUMP JUMPDEST ADD MLOAD ISZERO ISZERO SWAP1 JUMP JUMPDEST SWAP1 PUSH2 0x3A2F JUMP JUMPDEST SWAP1 PUSH2 0x1E2 SWAP2 PUSH2 0x3A46 JUMP JUMPDEST PUSH1 0x1 PUSH2 0x39B2 PUSH1 0x20 PUSH2 0x1E2 SWAP5 PUSH2 0x2AC7 PUSH2 0x3AAC PUSH1 0x0 DUP4 ADD MLOAD ISZERO ISZERO SWAP1 JUMP JUMPDEST DUP7 PUSH2 0x2A13 JUMP JUMPDEST SWAP1 PUSH2 0x1E2 SWAP2 PUSH2 0x3A91 JUMP JUMPDEST PUSH1 0x6 PUSH2 0x2ACC PUSH1 0xC0 PUSH2 0x1E2 SWAP5 PUSH2 0x3AD7 PUSH2 0x3AAC PUSH1 0x0 DUP4 ADD MLOAD ISZERO ISZERO SWAP1 JUMP JUMPDEST PUSH2 0x3AE5 PUSH2 0x396C PUSH1 0x20 DUP4 ADD MLOAD SWAP1 JUMP JUMPDEST PUSH2 0x3AFC PUSH2 0x3AF3 PUSH1 0x40 DUP4 ADD MLOAD SWAP1 JUMP JUMPDEST PUSH1 0x2 DUP8 ADD PUSH2 0x2839 JUMP JUMPDEST PUSH2 0x3B0A PUSH2 0x2A8E PUSH1 0x60 DUP4 ADD MLOAD SWAP1 JUMP JUMPDEST PUSH2 0x3B21 PUSH2 0x3B18 PUSH1 0x80 DUP4 ADD MLOAD SWAP1 JUMP JUMPDEST PUSH1 0x4 DUP8 ADD PUSH2 0x2839 JUMP JUMPDEST PUSH2 0x2AC7 PUSH2 0x3B2F PUSH1 0xA0 DUP4 ADD MLOAD SWAP1 JUMP JUMPDEST PUSH1 0x5 DUP8 ADD PUSH2 0x2839 JUMP JUMPDEST SWAP1 PUSH2 0x1E2 SWAP2 PUSH2 0x3ABC JUMP JUMPDEST PUSH1 0x4 PUSH2 0x2ACC PUSH1 0x80 PUSH2 0x1E2 SWAP5 PUSH2 0x3B5D PUSH2 0x3AAC PUSH1 0x0 DUP4 ADD MLOAD ISZERO ISZERO SWAP1 JUMP JUMPDEST PUSH2 0x3B6B PUSH2 0x396C PUSH1 0x20 DUP4 ADD MLOAD SWAP1 JUMP JUMPDEST PUSH2 0x3B79 PUSH2 0x3AF3 PUSH1 0x40 DUP4 ADD MLOAD SWAP1 JUMP JUMPDEST PUSH2 0x2AC7 PUSH2 0x3B87 PUSH1 0x60 DUP4 ADD MLOAD SWAP1 JUMP JUMPDEST PUSH1 0x3 DUP8 ADD PUSH2 0x2A00 JUMP JUMPDEST SWAP1 PUSH2 0x1E2 SWAP2 PUSH2 0x3B42 JUMP JUMPDEST PUSH2 0x1E2 SWAP2 PUSH2 0x3BB2 SWAP1 PUSH1 0x20 SWAP1 PUSH2 0x3A7A PUSH2 0x3A5E DUP3 MLOAD ISZERO ISZERO SWAP1 JUMP JUMPDEST SWAP1 PUSH2 0x3A0A JUMP JUMPDEST SWAP1 PUSH2 0x1E2 SWAP2 PUSH2 0x3B9A JUMP JUMPDEST SWAP1 PUSH22 0xFFFFFFFFFFFFFFFFFFFFFFFFFFFFFFFFFFFFFFFF0000 SWAP1 PUSH1 0x10 SHL PUSH2 0x282F JUMP JUMPDEST SWAP1 PUSH2 0x3BF3 PUSH2 0x2AA PUSH2 0x2850 SWAP3 PUSH2 0xD17 JUMP JUMPDEST DUP3 SLOAD PUSH2 0x3BC2 JUMP JUMPDEST ISZERO PUSH2 0x3C01 JUMPI JUMP JUMPDEST PUSH1 0x40 MLOAD PUSH3 0x461BCD PUSH1 0xE5 SHL DUP2 MSTORE PUSH1 0x20 PUSH1 0x4 DUP3 ADD MSTORE PUSH1 0x19 PUSH1 0x24 DUP3 ADD MSTORE PUSH32 0x4F7074696F6E2049442063616E6E6F7420626520656D70747900000000000000 PUSH1 0x44 DUP3 ADD MSTORE PUSH1 0x64 SWAP1 REVERT JUMPDEST ISZERO PUSH2 0x3C4D JUMPI JUMP JUMPDEST PUSH1 0x40 MLOAD PUSH3 0x461BCD PUSH1 0xE5 SHL DUP2 MSTORE PUSH1 0x20 PUSH1 0x4 DUP3 ADD MSTORE PUSH1 0x1B PUSH1 0x24 DUP3 ADD MSTORE PUSH32 0x4F7074696F6E206E616D652063616E6E6F7420626520656D7074790000000000 PUSH1 0x44 DUP3 ADD MSTORE PUSH1 0x64 SWAP1 REVERT JUMPDEST PUSH1 0x5 PUSH2 0x39B2 PUSH1 0xA0 PUSH2 0x1E2 SWAP5 PUSH2 0x3CAB PUSH2 0x3958 PUSH1 0x0 DUP4 ADD MLOAD SWAP1 JUMP JUMPDEST PUSH2 0x3CB9 PUSH2 0x396C PUSH1 0x20 DUP4 ADD MLOAD SWAP1 JUMP JUMPDEST PUSH2 0x3CC7 PUSH2 0x2A77 PUSH1 0x40 DUP4 ADD MLOAD SWAP1 JUMP JUMPDEST PUSH2 0x3CD5 PUSH2 0x3B87 PUSH1 0x60 DUP4 ADD MLOAD SWAP1 JUMP JUMPDEST PUSH2 0x2AC7 PUSH2 0x39A9 PUSH1 0x80 DUP4 ADD MLOAD SWAP1 JUMP JUMPDEST SWAP2 SWAP1 PUSH2 0x1099 JUMPI PUSH2 0x1E2 SWAP2 PUSH2 0x3C92 JUMP JUMPDEST SWAP1 DUP2 SLOAD SWAP2 PUSH9 0x10000000000000000 DUP4 LT ISZERO PUSH2 0x21B JUMPI DUP3 PUSH2 0x3D1A SWAP2 PUSH1 0x1 PUSH2 0x1E2 SWAP6 ADD DUP2 SSTORE PUSH2 0x1FE8 JUMP JUMPDEST SWAP1 PUSH2 0x3CE3 JUMP JUMPDEST SWAP2 SWAP1 PUSH2 0x1099 JUMPI PUSH2 0x1E2 SWAP2 PUSH2 0x292E JUMP JUMPDEST SWAP1 DUP2 SLOAD SWAP2 PUSH9 0x10000000000000000 DUP4 LT ISZERO PUSH2 0x21B JUMPI DUP3 PUSH2 0x3D57 SWAP2 PUSH1 0x1 PUSH2 0x1E2 SWAP6 ADD DUP2 SSTORE PUSH2 0x104A JUMP JUMPDEST SWAP1 PUSH2 0x3D20 JUMP JUMPDEST PUSH2 0x2B80 PUSH2 0x1E2 SWAP5 PUSH2 0x1866 PUSH2 0x3D83 PUSH1 0x60 SWAP6 SWAP10 SWAP9 SWAP7 SWAP10 PUSH1 0x80 DUP7 ADD SWAP1 DUP7 DUP3 SUB PUSH1 0x0 DUP9 ADD MSTORE PUSH2 0x407 JUMP JUMPDEST SWAP9 PUSH1 0x20 DUP6 ADD SWAP1 PUSH2 0x473 JUMP JUMPDEST POP DUP1 MLOAD MLOAD MLOAD PUSH2 0x3DAB PUSH1 0x0 SWAP2 PUSH2 0x3DA5 PUSH2 0x2E98 DUP5 PUSH2 0x2E2 JUMP JUMPDEST GT PUSH2 0x36E0 JUMP JUMPDEST PUSH1 0xE0 DUP3 ADD SWAP2 PUSH2 0x3DCE PUSH2 0x3DBC DUP5 MLOAD MLOAD SWAP1 JUMP JUMPDEST PUSH2 0x3DC8 PUSH2 0x2E98 DUP6 PUSH2 0x2E2 JUMP JUMPDEST GT PUSH2 0x372C JUMP JUMPDEST PUSH1 0x20 DUP2 ADD SWAP2 PUSH2 0x3DF9 PUSH2 0x3DE1 DUP3 DUP6 MLOAD ADD MLOAD SWAP1 JUMP JUMPDEST PUSH2 0x3DF3 PUSH2 0x2E98 PUSH2 0x2AA PUSH1 0x20 DUP9 MLOAD ADD MLOAD SWAP1 JUMP JUMPDEST LT PUSH2 0x3778 JUMP JUMPDEST PUSH2 0x3E0F PUSH2 0x3E08 PUSH1 0x20 DUP6 MLOAD ADD MLOAD SWAP1 JUMP JUMPDEST TIMESTAMP LT PUSH2 0x37CF JUMP JUMPDEST PUSH1 0x6 PUSH1 0x1B PUSH1 0x80 DUP5 ADD SWAP4 PUSH2 0x3E25 DUP5 DUP7 MLOAD ADD MLOAD ISZERO ISZERO SWAP1 JUMP JUMPDEST PUSH2 0x4141 JUMPI JUMPDEST PUSH2 0x3E41 PUSH2 0x3E3A PUSH2 0x2E36 PUSH1 0x2 PUSH2 0xA8B JUMP JUMPDEST PUSH1 0x2 PUSH2 0x2839 JUMP JUMPDEST PUSH2 0x3E4B PUSH1 0x2 PUSH2 0xA8B JUMP JUMPDEST SWAP7 PUSH2 0x3E5A PUSH2 0x2AA DUP10 PUSH1 0x3 PUSH2 0x2EF JUMP JUMPDEST SWAP1 PUSH2 0x3E67 DUP10 DUP8 DUP5 ADD PUSH2 0x2839 JUMP JUMPDEST PUSH2 0x3EDA DUP7 DUP5 ADD SWAP8 PUSH2 0x3E7C DUP10 MLOAD PUSH1 0x1 DUP7 ADD PUSH2 0x39B9 JUMP JUMPDEST PUSH2 0x3E8A DUP11 MLOAD PUSH1 0x8 DUP7 ADD PUSH2 0x39F3 JUMP JUMPDEST PUSH2 0x3E9B PUSH1 0x40 DUP7 ADD MLOAD PUSH1 0xB DUP7 ADD PUSH2 0x3A87 JUMP JUMPDEST PUSH2 0x3EAC PUSH1 0x60 DUP7 ADD MLOAD PUSH1 0xC DUP7 ADD PUSH2 0x3AB2 JUMP JUMPDEST MLOAD PUSH2 0x3EBB PUSH1 0xE DUP6 ADD SWAP2 DUP3 PUSH2 0x3B38 JUMP JUMPDEST PUSH2 0x3EC4 DUP9 PUSH2 0x2E2 JUMP JUMPDEST SWAP7 DUP2 PUSH2 0x3ED4 DUP10 PUSH1 0x5 DUP2 SWAP6 ADD PUSH2 0x2839 JUMP JUMPDEST ADD PUSH2 0x2839 JUMP JUMPDEST PUSH2 0x3EEB PUSH1 0xA0 DUP5 ADD MLOAD PUSH1 0x15 DUP5 ADD PUSH2 0x3B90 JUMP JUMPDEST PUSH2 0x3EFC PUSH1 0xC0 DUP5 ADD MLOAD PUSH1 0x1A DUP5 ADD PUSH2 0x3BB8 JUMP JUMPDEST PUSH2 0x3F4F DUP6 PUSH1 0x3 PUSH1 0x1 SWAP7 DUP8 SWAP6 ADD PUSH2 0x3F36 DUP11 DUP3 ADD PUSH2 0x3F18 DUP9 DUP3 PUSH2 0x2A13 JUMP JUMPDEST PUSH2 0x3F2F PUSH2 0x3F29 PUSH2 0x140 DUP12 ADD MLOAD ISZERO ISZERO SWAP1 JUMP JUMPDEST DUP3 PUSH2 0x3A0A JUMP JUMPDEST CALLER SWAP1 PUSH2 0x3BE3 JUMP JUMPDEST PUSH2 0x3F42 TIMESTAMP DUP8 DUP4 ADD PUSH2 0x2839 JUMP JUMPDEST PUSH2 0x3ED4 DUP4 PUSH1 0x2 DUP4 ADD PUSH2 0x2839 JUMP JUMPDEST DUP6 DUP6 DUP4 JUMPDEST PUSH2 0x4093 JUMPI JUMPDEST POP POP POP DUP1 DUP5 SWAP1 JUMPDEST PUSH2 0x4053 JUMPI JUMPDEST POP DUP4 SWAP1 JUMPDEST PUSH2 0x3FFF JUMPI JUMPDEST POP POP POP SWAP1 PUSH2 0x3FA6 PUSH32 0xFFEC07B2A88595DE82DC6477F46E34A5E7FA613AAF308B5A6E6A2C7CC6C43C6C SWAP3 PUSH2 0x3FA1 DUP8 PUSH1 0xB PUSH2 0x2EF JUMP JUMPDEST PUSH2 0x2839 JUMP JUMPDEST PUSH2 0x3FCF PUSH1 0x20 PUSH2 0x3FC8 PUSH2 0x3FC0 PUSH1 0x60 DUP6 DUP9 MLOAD ADD MLOAD SWAP8 MLOAD ADD PUSH2 0x3925 JUMP JUMPDEST SWAP4 DUP8 MLOAD ADD MLOAD SWAP1 JUMP JUMPDEST SWAP6 MLOAD ADD MLOAD SWAP1 JUMP JUMPDEST SWAP3 PUSH2 0x3FF9 PUSH2 0x3FDC DUP8 PUSH2 0x2E2 JUMP JUMPDEST SWAP5 PUSH2 0x3FE6 CALLER PUSH2 0xD17 JUMP JUMPDEST SWAP7 PUSH2 0x3FF0 PUSH1 0x40 MLOAD SWAP1 JUMP JUMPDEST SWAP5 DUP6 SWAP5 DUP6 PUSH2 0x3D5D JUMP JUMPDEST SUB SWAP1 LOG3 SWAP1 JUMP JUMPDEST PUSH2 0x120 DUP3 ADD DUP9 PUSH2 0x4011 PUSH2 0x2AA DUP4 MLOAD MLOAD SWAP1 JUMP JUMPDEST DUP4 LT ISZERO PUSH2 0x404C JUMPI DUP3 SWAP2 PUSH2 0x4039 PUSH2 0x4046 SWAP5 PUSH2 0x4032 PUSH2 0x2AA PUSH2 0x4040 SWAP6 PUSH1 0x5 PUSH2 0x2EF JUMP JUMPDEST SWAP3 MLOAD PUSH2 0x313A JUMP JUMPDEST MLOAD SWAP1 PUSH2 0x3D2F JUMP JUMPDEST PUSH1 0x1 ADD SWAP1 JUMP JUMPDEST DUP3 PUSH2 0x3F68 JUMP JUMPDEST POP POP PUSH2 0x3F6D JUMP JUMPDEST PUSH2 0x100 DUP4 ADD SWAP1 DUP10 PUSH2 0x4066 PUSH2 0x2AA DUP5 MLOAD MLOAD SWAP1 JUMP JUMPDEST DUP3 LT ISZERO PUSH2 0x408C JUMPI PUSH2 0x4086 SWAP3 PUSH2 0x4039 DUP4 PUSH2 0x4032 PUSH2 0x2AA PUSH2 0x4040 SWAP6 PUSH1 0x6 PUSH2 0x2EF JUMP JUMPDEST DUP2 PUSH2 0x3F5F JUMP JUMPDEST POP POP PUSH2 0x3F64 JUMP JUMPDEST DUP7 DUP12 PUSH2 0x40A1 PUSH2 0x2AA DUP7 MLOAD MLOAD SWAP1 JUMP JUMPDEST DUP4 LT ISZERO PUSH2 0x413A JUMPI PUSH2 0x2F70 PUSH2 0x4126 DUP8 SWAP3 PUSH2 0x40FC DUP6 PUSH2 0x40F6 PUSH2 0x2AA PUSH2 0x285F PUSH1 0x20 PUSH2 0x40E4 DUP13 DUP16 PUSH2 0x4132 SWAP16 PUSH2 0x4040 SWAP15 PUSH2 0x40EA PUSH2 0x2AA PUSH2 0x285F PUSH2 0x40F0 SWAP5 PUSH2 0x40E4 DUP9 DUP9 MLOAD PUSH2 0x313A JUMP JUMPDEST MLOAD ADD MLOAD SWAP1 JUMP JUMPDEST GT PUSH2 0x3BFA JUMP JUMPDEST MLOAD PUSH2 0x313A JUMP JUMPDEST GT PUSH2 0x3C46 JUMP JUMPDEST PUSH2 0x411F PUSH2 0x410D PUSH2 0x2AA DUP4 PUSH1 0x4 PUSH2 0x2EF JUMP JUMPDEST PUSH2 0x4118 DUP9 DUP12 MLOAD PUSH2 0x313A JUMP JUMPDEST MLOAD SWAP1 PUSH2 0x3CF2 JUMP JUMPDEST PUSH1 0x8 PUSH2 0x2EF JUMP JUMPDEST DUP12 PUSH2 0x3217 DUP7 DUP10 MLOAD PUSH2 0x313A JUMP JUMPDEST DUP7 SWAP1 DUP4 PUSH2 0x3F53 JUMP JUMPDEST POP POP PUSH2 0x3F58 JUMP JUMPDEST PUSH2 0x4165 PUSH2 0x4153 PUSH2 0x285F PUSH1 0x20 DUP9 MLOAD ADD MLOAD SWAP1 JUMP JUMPDEST PUSH2 0x415F PUSH2 0x2E98 DUP8 PUSH2 0x2E2 JUMP JUMPDEST GT PUSH2 0x381B JUMP JUMPDEST PUSH2 0x4186 PUSH2 0x4174 PUSH1 0x40 DUP8 MLOAD ADD MLOAD SWAP1 JUMP JUMPDEST PUSH2 0x4180 PUSH2 0x2E98 DUP8 PUSH2 0x2E2 JUMP JUMPDEST GT PUSH2 0x3877 JUMP JUMPDEST PUSH2 0x41AE PUSH2 0x4195 PUSH1 0x60 DUP8 MLOAD ADD MLOAD SWAP1 JUMP JUMPDEST PUSH2 0x41A7 PUSH2 0x2E98 PUSH2 0x2AA PUSH1 0x40 DUP11 MLOAD ADD MLOAD SWAP1 JUMP JUMPDEST LT ISZERO PUSH2 0x38CE JUMP JUMPDEST PUSH2 0x3E2A JUMP JUMPDEST PUSH2 0x2AA SWAP1 PUSH1 0x0 PUSH2 0x36CE JUMP JUMPDEST SWAP1 PUSH2 0x2AA SWAP2 PUSH2 0x41D8 PUSH2 0x23A9 PUSH1 0x0 PUSH1 0x1B PUSH2 0x23A2 DUP7 PUSH1 0x3 PUSH2 0x2EF JUMP JUMPDEST PUSH2 0x4236 JUMP JUMPDEST PUSH2 0x41E5 PUSH2 0x1147 JUMP JUMPDEST SWAP1 PUSH1 0x60 PUSH2 0x220A JUMP JUMPDEST PUSH2 0x2AA PUSH2 0x41DD JUMP JUMPDEST PUSH1 0x0 JUMPDEST DUP3 DUP2 LT PUSH2 0x4204 JUMPI POP POP POP JUMP JUMPDEST PUSH1 0x20 SWAP1 PUSH2 0x420F PUSH2 0x41ED JUMP JUMPDEST DUP2 DUP5 ADD MSTORE ADD PUSH2 0x41F8 JUMP JUMPDEST SWAP1 PUSH2 0x1E2 PUSH2 0x4229 PUSH2 0x3127 DUP5 PUSH2 0x2484 JUMP JUMPDEST PUSH1 0x1F NOT ADD PUSH1 0x20 DUP5 ADD PUSH2 0x41F5 JUMP JUMPDEST POP SWAP1 PUSH2 0x4246 PUSH2 0x2EE3 DUP4 PUSH1 0x3 PUSH2 0x2EF JUMP JUMPDEST SWAP2 PUSH2 0x4255 PUSH2 0x31AA DUP3 PUSH1 0x4 PUSH2 0x2EF JUMP JUMPDEST SWAP1 PUSH2 0x100 PUSH2 0x4262 DUP3 PUSH2 0x4603 JUMP JUMPDEST SWAP5 ADD SWAP3 PUSH2 0x4271 PUSH1 0xA0 DUP6 MLOAD ADD MLOAD SWAP1 JUMP JUMPDEST SWAP2 PUSH2 0x4282 PUSH2 0x427D DUP6 MLOAD SWAP1 JUMP JUMPDEST PUSH2 0x4219 JUMP JUMPDEST SWAP3 PUSH1 0x0 SWAP3 PUSH2 0x428F DUP5 PUSH2 0x2E2 JUMP JUMPDEST PUSH2 0x429A PUSH2 0x2AA DUP9 MLOAD SWAP1 JUMP JUMPDEST DUP2 LT ISZERO PUSH2 0x442E JUMPI PUSH2 0x42AC DUP5 PUSH1 0x9 PUSH2 0x2EF JUMP JUMPDEST DUP6 PUSH2 0x42B7 DUP4 DUP11 PUSH2 0x313A JUMP JUMPDEST MLOAD ADD MLOAD PUSH2 0x42C3 SWAP2 PUSH2 0x37F JUMP JUMPDEST PUSH2 0x42CC SWAP1 PUSH2 0xA8B JUMP JUMPDEST SWAP1 DUP6 DUP9 DUP2 DUP4 DUP14 PUSH2 0x42DD DUP11 PUSH1 0xA PUSH2 0x2EF JUMP JUMPDEST DUP4 PUSH2 0x42E8 DUP5 DUP8 PUSH2 0x313A JUMP JUMPDEST MLOAD ADD MLOAD PUSH2 0x42F4 SWAP2 PUSH2 0x37F JUMP JUMPDEST PUSH2 0x42FD SWAP1 PUSH2 0xA8B JUMP JUMPDEST SWAP1 PUSH2 0x4309 DUP12 PUSH1 0x7 PUSH2 0x2EF JUMP JUMPDEST DUP5 PUSH2 0x4314 DUP6 DUP9 PUSH2 0x313A JUMP JUMPDEST MLOAD ADD MLOAD PUSH2 0x4320 SWAP2 PUSH2 0x37F JUMP JUMPDEST PUSH2 0x4329 SWAP1 PUSH2 0xA8B JUMP JUMPDEST SWAP2 DUP3 SWAP2 DUP6 DUP13 PUSH2 0x4337 DUP3 PUSH2 0x2E2 JUMP JUMPDEST DUP2 GT PUSH1 0x0 EQ SWAP12 PUSH2 0x43D6 PUSH2 0x43F2 SWAP11 PUSH2 0x43CF PUSH2 0x4407 SWAP16 PUSH2 0x43BD PUSH2 0x181E SWAP13 PUSH2 0x43EB SWAP12 PUSH2 0x43E4 SWAP11 PUSH2 0x43DD SWAP10 PUSH1 0x20 SWAP6 PUSH2 0x441E JUMPI PUSH2 0x437D SWAP1 PUSH2 0x3286 PUSH2 0x4377 PUSH2 0x2710 PUSH2 0x2E2 JUMP JUMPDEST DUP13 PUSH2 0x3154 JUMP JUMPDEST SWAP11 JUMPDEST PUSH2 0x4388 DUP2 PUSH2 0x2E2 JUMP JUMPDEST DUP3 GT ISZERO PUSH2 0x440C JUMPI POP PUSH2 0x3286 PUSH2 0x43A8 SWAP3 PUSH2 0x43A2 PUSH2 0x2710 PUSH2 0x2E2 JUMP JUMPDEST SWAP1 PUSH2 0x3154 JUMP JUMPDEST SWAP15 JUMPDEST PUSH2 0x43B4 DUP3 DUP8 PUSH2 0x313A JUMP JUMPDEST MLOAD ADD MLOAD SWAP5 PUSH2 0x313A JUMP JUMPDEST MLOAD ADD MLOAD SWAP2 PUSH2 0x43C9 PUSH2 0x1147 JUMP JUMPDEST SWAP15 DUP16 ADD MSTORE JUMP JUMPDEST PUSH1 0x20 DUP14 ADD MSTORE JUMP JUMPDEST PUSH1 0x40 DUP12 ADD MSTORE JUMP JUMPDEST PUSH1 0x60 DUP10 ADD MSTORE JUMP JUMPDEST PUSH1 0x80 DUP8 ADD MSTORE JUMP JUMPDEST PUSH1 0xA0 DUP6 ADD MSTORE JUMP JUMPDEST PUSH2 0x43FC DUP3 DUP10 PUSH2 0x313A JUMP JUMPDEST MSTORE PUSH2 0x35A4 DUP2 DUP9 PUSH2 0x313A JUMP JUMPDEST PUSH2 0x428F JUMP JUMPDEST SWAP1 POP PUSH2 0x4418 SWAP2 POP PUSH2 0x2E2 JUMP JUMPDEST SWAP15 PUSH2 0x43AA JUMP JUMPDEST POP PUSH2 0x4428 DUP12 PUSH2 0x2E2 JUMP JUMPDEST SWAP11 PUSH2 0x437F JUMP JUMPDEST POP SWAP7 SWAP2 PUSH2 0x2AA SWAP6 POP PUSH2 0x33C2 PUSH2 0x33C9 SWAP3 PUSH2 0x33BB PUSH2 0x33AC PUSH1 0x80 PUSH2 0x1A1C SWAP9 SWAP12 MLOAD ADD MLOAD SWAP1 JUMP JUMPDEST PUSH2 0x2AA SWAP1 PUSH2 0x445C PUSH2 0x3083 JUMP JUMPDEST PUSH2 0x41BE JUMP JUMPDEST PUSH2 0x358A PUSH2 0x2AA SWAP2 PUSH2 0x4470 PUSH2 0x344E JUMP JUMPDEST POP PUSH1 0xC PUSH2 0x2EF JUMP JUMPDEST PUSH2 0x2AA PUSH1 0x2 PUSH2 0xA8B JUMP JUMPDEST PUSH2 0x1E2 SWAP1 PUSH2 0x448E PUSH2 0x45AB JUMP JUMPDEST PUSH1 0x0 PUSH2 0x4499 DUP2 PUSH2 0x2330 JUMP JUMPDEST PUSH1 0x1 PUSH1 0x1 PUSH1 0xA0 SHL SUB DUP2 AND PUSH1 0x1 PUSH1 0x1 PUSH1 0xA0 SHL SUB DUP5 AND EQ PUSH2 0x44BD JUMPI POP POP PUSH2 0x1E2 SWAP1 PUSH2 0x46AC JUMP JUMPDEST PUSH4 0x1E4FBDF7 PUSH1 0xE0 SHL DUP3 MSTORE PUSH1 0x1 PUSH1 0x1 PUSH1 0xA0 SHL SUB AND PUSH1 0x4 DUP3 ADD MSTORE PUSH1 0x24 SWAP1 REVERT JUMPDEST PUSH2 0x1E2 SWAP1 PUSH2 0x4482 JUMP JUMPDEST SWAP1 PUSH2 0x2AA SWAP2 PUSH2 0x44FD PUSH2 0x23A9 PUSH1 0x0 PUSH1 0x1B PUSH2 0x23A2 DUP7 PUSH1 0x3 PUSH2 0x2EF JUMP JUMPDEST PUSH2 0x2AA SWAP2 PUSH2 0x31AA SWAP2 POP PUSH1 0x4 PUSH2 0x2EF JUMP JUMPDEST PUSH2 0x2AA SWAP1 PUSH1 0x60 PUSH2 0x44E3 JUMP JUMPDEST PUSH2 0x2AA PUSH1 0x2 PUSH2 0x2E2 JUMP JUMPDEST PUSH2 0x452C PUSH1 0x1 PUSH2 0xA8B JUMP JUMPDEST PUSH2 0x4534 PUSH2 0x4518 JUMP JUMPDEST SWAP1 DUP2 EQ PUSH2 0x4546 JUMPI PUSH2 0x1E2 SWAP1 PUSH1 0x1 PUSH2 0x2839 JUMP JUMPDEST PUSH4 0x3EE5AEB5 PUSH1 0xE0 SHL PUSH1 0x0 SWAP1 DUP2 MSTORE PUSH1 0x4 SWAP1 REVERT JUMPDEST PUSH2 0x2AA PUSH1 0x1 PUSH2 0x2E2 JUMP JUMPDEST PUSH2 0x1E2 PUSH2 0x456D PUSH2 0x4558 JUMP JUMPDEST PUSH1 0x1 PUSH2 0x2839 JUMP JUMPDEST PUSH2 0x45A4 SWAP1 PUSH2 0x459D PUSH2 0x1E2 SWAP4 PUSH2 0x2DD5 PUSH1 0x6 PUSH1 0xE PUSH2 0x4591 DUP7 PUSH1 0x3 PUSH2 0x2EF JUMP JUMPDEST ADD ADD SWAP2 PUSH2 0x2DD0 DUP4 PUSH2 0xA8B JUMP JUMPDEST PUSH1 0xB PUSH2 0x2EF JUMP JUMPDEST TIMESTAMP SWAP1 PUSH2 0x2839 JUMP JUMPDEST PUSH1 0x0 SLOAD PUSH1 0x1 PUSH1 0x1 PUSH1 0xA0 SHL SUB AND CALLER SWAP1 PUSH2 0x45C2 DUP3 PUSH2 0x23B9 JUMP JUMPDEST SUB PUSH2 0x45CA JUMPI POP JUMP JUMPDEST PUSH4 0x118CDAA7 PUSH1 0xE0 SHL PUSH1 0x0 SWAP1 DUP2 MSTORE PUSH1 0x1 PUSH1 0x1 PUSH1 0xA0 SHL SUB SWAP1 SWAP2 AND PUSH1 0x4 MSTORE PUSH1 0x24 SUB PUSH1 0x0 REVERT JUMPDEST SWAP2 SWAP1 DUP3 SUB SWAP2 DUP3 GT PUSH2 0x2824 JUMPI JUMP JUMPDEST PUSH2 0x2AA PUSH1 0x1E PUSH2 0x2E2 JUMP JUMPDEST PUSH2 0x461A PUSH2 0x4614 PUSH2 0x3220 DUP4 PUSH1 0xB PUSH2 0x2EF JUMP JUMPDEST TIMESTAMP PUSH2 0x45EC JUMP JUMPDEST PUSH2 0x4628 PUSH2 0x2E98 PUSH2 0x2AA PUSH2 0x45F9 JUMP JUMPDEST LT PUSH2 0x4693 JUMPI PUSH2 0x463B PUSH2 0x31AA DUP3 PUSH1 0x4 PUSH2 0x2EF JUMP JUMPDEST PUSH1 0x0 PUSH2 0x4647 PUSH1 0x0 PUSH2 0x2E2 JUMP JUMPDEST SWAP3 DUP4 JUMPDEST PUSH2 0x4655 PUSH2 0x2AA DUP6 MLOAD SWAP1 JUMP JUMPDEST DUP6 LT ISZERO PUSH2 0x468B JUMPI PUSH2 0x2FFC PUSH2 0x4685 SWAP2 PUSH2 0x467F PUSH2 0x3220 PUSH2 0x4674 DUP7 PUSH1 0x7 PUSH2 0x2EF JUMP JUMPDEST DUP8 PUSH2 0x3217 DUP12 DUP12 PUSH2 0x313A JUMP JUMPDEST SWAP1 PUSH2 0x2B0B JUMP JUMPDEST SWAP4 PUSH2 0x464A JUMP JUMPDEST SWAP4 POP POP POP POP SWAP1 JUMP JUMPDEST PUSH1 0x6 PUSH1 0xE PUSH2 0x46A5 PUSH2 0x2AA SWAP4 PUSH1 0x3 PUSH2 0x2EF JUMP JUMPDEST ADD ADD PUSH2 0xA8B JUMP JUMPDEST PUSH2 0x46D5 PUSH2 0x46CF PUSH2 0x46C4 PUSH1 0x0 SLOAD PUSH1 0x1 PUSH1 0x1 PUSH1 0xA0 SHL SUB AND SWAP1 JUMP JUMPDEST PUSH2 0x2F75 DUP5 PUSH1 0x0 PUSH2 0x2872 JUMP JUMPDEST SWAP2 PUSH2 0xD17 JUMP JUMPDEST SWAP1 PUSH32 0x8BE0079C531659141344CD1FD0A4F28419497F9722A3DAAFE3B4186F6B6457E0 PUSH2 0x4700 PUSH1 0x40 MLOAD SWAP1 JUMP JUMPDEST DUP1 DUP1 PUSH2 0x36BF JUMP INVALID LOG2 PUSH5 0x6970667358 0x22 SLT KECCAK256 NOT STOP OR 0xEF STATICCALL 0x2B CALL DUP14 ISZERO 0x4D 0xE 0x23 DUP11 CALLVALUE PUSH30 0x46EF63E5F86078E0283B6BDC6AADA03EC164736F6C634300081C00330000 "},"methodIdentifiers":{"authorizedCallers(address)":"536fff6c","createPoll(((string,string,string,uint8,string,string,string),(uint256,uint256,uint256),(bool,bool,bool),(bool,string),(bool,string,uint256,uint256,uint256,uint256,uint256),(bool,string,uint256,string,uint256),(bool,bool),(string,string,string,string,string,string)[],string[],string[],bool))":"c730110b","getCurrentPollId()":"d292ce0e","getParticipationById(uint256)":"cace2c63","getPoll(uint256)":"1a8cbcaa","getPollDetailResult(uint256)":"71064b6f","getPollOptions(uint256)":"f7562765","getPollResult(uint256)":"c888fcc3","getUserParticipationIds(uint256,address)":"675f9194","getUserParticipations(uint256,address)":"ae12e006","isPollActive(uint256)":"2ec15480","optionActualVoteCounts(uint256,string)":"5fa3cf86","optionBetAmounts(uint256,string)":"20e25fcc","optionVoteCounts(uint256,string)":"b48e2c62","owner()":"8da5cb5b","participatePoll(uint256,string,address,bool,string,uint256)":"2ccaf15b","pollAnswerOptionIds(uint256,uint256)":"e1b1edd6","pollOptions(uint256,uint256)":"f0114ad1","pollParticipations(uint256)":"44d1cede","pollRequiredQuests(uint256,uint256)":"8a979993","pollValidOptions(uint256,string)":"04d596ad","polls(uint256)":"ac2f0074","renounceOwnership()":"715018a6","setAuthorizedCaller(address,bool)":"454bbd29","setPollActive(uint256,bool)":"c034c0f1","transferOwnership(address)":"f2fde38b","userParticipations(uint256,address,uint256)":"e7c2216b"}},"storageLayout":{"storage":[{"astId":8,"contract":"contracts/Polls.sol:Polls","label":"_owner","offset":0,"slot":"0","type":"t_address"},{"astId":188,"contract":"contracts/Polls.sol:Polls","label":"_status","offset":0,"slot":"1","type":"t_uint256"},{"astId":412,"contract":"contracts/Polls.sol:Polls","label":"_pollIdCounter","offset":0,"slot":"2","type":"t_uint256"},{"astId":417,"contract":"contracts/Polls.sol:Polls","label":"polls","offset":0,"slot":"3","type":"t_mapping(t_uint256,t_struct(Poll)376_storage)"},{"astId":423,"contract":"contracts/Polls.sol:Polls","label":"pollOptions","offset":0,"slot":"4","type":"t_mapping(t_uint256,t_array(t_struct(PollOption)270_storage)dyn_storage)"},{"astId":428,"contract":"contracts/Polls.sol:Polls","label":"pollAnswerOptionIds","offset":0,"slot":"5","type":"t_mapping(t_uint256,t_array(t_string_storage)dyn_storage)"},{"astId":433,"contract":"contracts/Polls.sol:Polls","label":"pollRequiredQuests","offset":0,"slot":"6","type":"t_mapping(t_uint256,t_array(t_string_storage)dyn_storage)"},{"astId":439,"contract":"contracts/Polls.sol:Polls","label":"optionBetAmounts","offset":0,"slot":"7","type":"t_mapping(t_uint256,t_mapping(t_string_memory_ptr,t_uint256))"},{"astId":445,"contract":"contracts/Polls.sol:Polls","label":"pollValidOptions","offset":0,"slot":"8","type":"t_mapping(t_uint256,t_mapping(t_string_memory_ptr,t_bool))"},{"astId":451,"contract":"contracts/Polls.sol:Polls","label":"optionVoteCounts","offset":0,"slot":"9","type":"t_mapping(t_uint256,t_mapping(t_string_memory_ptr,t_uint256))"},{"astId":457,"contract":"contracts/Polls.sol:Polls","label":"optionActualVoteCounts","offset":0,"slot":"10","type":"t_mapping(t_uint256,t_mapping(t_string_memory_ptr,t_uint256))"},{"astId":461,"contract":"contracts/Polls.sol:Polls","label":"_resultCacheTimestamp","offset":0,"slot":"11","type":"t_mapping(t_uint256,t_uint256)"},{"astId":484,"contract":"contracts/Polls.sol:Polls","label":"pollParticipations","offset":0,"slot":"12","type":"t_mapping(t_uint256,t_struct(PollParticipation)479_storage)"},{"astId":491,"contract":"contracts/Polls.sol:Polls","label":"userParticipations","offset":0,"slot":"13","type":"t_mapping(t_uint256,t_mapping(t_address,t_array(t_uint256)dyn_storage))"},{"astId":493,"contract":"contracts/Polls.sol:Polls","label":"_participationIdCounter","offset":0,"slot":"14","type":"t_uint256"},{"astId":497,"contract":"contracts/Polls.sol:Polls","label":"authorizedCallers","offset":0,"slot":"15","type":"t_mapping(t_address,t_bool)"}],"types":{"t_address":{"encoding":"inplace","label":"address","numberOfBytes":"20"},"t_array(t_string_storage)dyn_storage":{"base":"t_string_storage","encoding":"dynamic_array","label":"string[]","numberOfBytes":"32"},"t_array(t_struct(PollOption)270_storage)dyn_storage":{"base":"t_struct(PollOption)270_storage","encoding":"dynamic_array","label":"struct Polls.PollOption[]","numberOfBytes":"32"},"t_array(t_uint256)dyn_storage":{"base":"t_uint256","encoding":"dynamic_array","label":"uint256[]","numberOfBytes":"32"},"t_bool":{"encoding":"inplace","label":"bool","numberOfBytes":"1"},"t_enum(PollCategory)257":{"encoding":"inplace","label":"enum Polls.PollCategory","numberOfBytes":"1"},"t_mapping(t_address,t_array(t_uint256)dyn_storage)":{"encoding":"mapping","key":"t_address","label":"mapping(address => uint256[])","numberOfBytes":"32","value":"t_array(t_uint256)dyn_storage"},"t_mapping(t_address,t_bool)":{"encoding":"mapping","key":"t_address","label":"mapping(address => bool)","numberOfBytes":"32","value":"t_bool"},"t_mapping(t_string_memory_ptr,t_bool)":{"encoding":"mapping","key":"t_string_memory_ptr","label":"mapping(string => bool)","numberOfBytes":"32","value":"t_bool"},"t_mapping(t_string_memory_ptr,t_uint256)":{"encoding":"mapping","key":"t_string_memory_ptr","label":"mapping(string => uint256)","numberOfBytes":"32","value":"t_uint256"},"t_mapping(t_uint256,t_array(t_string_storage)dyn_storage)":{"encoding":"mapping","key":"t_uint256","label":"mapping(uint256 => string[])","numberOfBytes":"32","value":"t_array(t_string_storage)dyn_storage"},"t_mapping(t_uint256,t_array(t_struct(PollOption)270_storage)dyn_storage)":{"encoding":"mapping","key":"t_uint256","label":"mapping(uint256 => struct Polls.PollOption[])","numberOfBytes":"32","value":"t_array(t_struct(PollOption)270_storage)dyn_storage"},"t_mapping(t_uint256,t_mapping(t_address,t_array(t_uint256)dyn_storage))":{"encoding":"mapping","key":"t_uint256","label":"mapping(uint256 => mapping(address => uint256[]))","numberOfBytes":"32","value":"t_mapping(t_address,t_array(t_uint256)dyn_storage)"},"t_mapping(t_uint256,t_mapping(t_string_memory_ptr,t_bool))":{"encoding":"mapping","key":"t_uint256","label":"mapping(uint256 => mapping(string => bool))","numberOfBytes":"32","value":"t_mapping(t_string_memory_ptr,t_bool)"},"t_mapping(t_uint256,t_mapping(t_string_memory_ptr,t_uint256))":{"encoding":"mapping","key":"t_uint256","label":"mapping(uint256 => mapping(string => uint256))","numberOfBytes":"32","value":"t_mapping(t_string_memory_ptr,t_uint256)"},"t_mapping(t_uint256,t_struct(Poll)376_storage)":{"encoding":"mapping","key":"t_uint256","label":"mapping(uint256 => struct Polls.Poll)","numberOfBytes":"32","value":"t_struct(Poll)376_storage"},"t_mapping(t_uint256,t_struct(PollParticipation)479_storage)":{"encoding":"mapping","key":"t_uint256","label":"mapping(uint256 => struct Polls.PollParticipation)","numberOfBytes":"32","value":"t_struct(PollParticipation)479_storage"},"t_mapping(t_uint256,t_uint256)":{"encoding":"mapping","key":"t_uint256","label":"mapping(uint256 => uint256)","numberOfBytes":"32","value":"t_uint256"},"t_string_memory_ptr":{"encoding":"bytes","label":"string","numberOfBytes":"32"},"t_string_storage":{"encoding":"bytes","label":"string","numberOfBytes":"32"},"t_struct(AnswerInfo)336_storage":{"encoding":"inplace","label":"struct Polls.AnswerInfo","members":[{"astId":333,"contract":"contracts/Polls.sol:Polls","label":"hasAnswer","offset":0,"slot":"0","type":"t_bool"},{"astId":335,"contract":"contracts/Polls.sol:Polls","label":"hasAnswerAnnouncement","offset":1,"slot":"0","type":"t_bool"}],"numberOfBytes":"32"},"t_struct(BasicInfo)286_storage":{"encoding":"inplace","label":"struct Polls.BasicInfo","members":[{"astId":272,"contract":"contracts/Polls.sol:Polls","label":"title","offset":0,"slot":"0","type":"t_string_storage"},{"astId":274,"contract":"contracts/Polls.sol:Polls","label":"titleShorten","offset":0,"slot":"1","type":"t_string_storage"},{"astId":276,"contract":"contracts/Polls.sol:Polls","label":"description","offset":0,"slot":"2","type":"t_string_storage"},{"astId":279,"contract":"contracts/Polls.sol:Polls","label":"category","offset":0,"slot":"3","type":"t_enum(PollCategory)257"},{"astId":281,"contract":"contracts/Polls.sol:Polls","label":"imgUrl","offset":0,"slot":"4","type":"t_string_storage"},{"astId":283,"contract":"contracts/Polls.sol:Polls","label":"youtubeUrl","offset":0,"slot":"5","type":"t_string_storage"},{"astId":285,"contract":"contracts/Polls.sol:Polls","label":"artistId","offset":0,"slot":"6","type":"t_string_storage"}],"numberOfBytes":"224"},"t_struct(BettingInfo)320_storage":{"encoding":"inplace","label":"struct Polls.BettingInfo","members":[{"astId":307,"contract":"contracts/Polls.sol:Polls","label":"bettingMode","offset":0,"slot":"0","type":"t_bool"},{"astId":309,"contract":"contracts/Polls.sol:Polls","label":"bettingAssetId","offset":0,"slot":"1","type":"t_string_storage"},{"astId":311,"contract":"contracts/Polls.sol:Polls","label":"minimumBet","offset":0,"slot":"2","type":"t_uint256"},{"astId":313,"contract":"contracts/Polls.sol:Polls","label":"maximumBet","offset":0,"slot":"3","type":"t_uint256"},{"astId":315,"contract":"contracts/Polls.sol:Polls","label":"houseCommissionRate","offset":0,"slot":"4","type":"t_uint256"},{"astId":317,"contract":"contracts/Polls.sol:Polls","label":"totalCommissionAmount","offset":0,"slot":"5","type":"t_uint256"},{"astId":319,"contract":"contracts/Polls.sol:Polls","label":"totalBettingAmount","offset":0,"slot":"6","type":"t_uint256"}],"numberOfBytes":"224"},"t_struct(ParticipationInfo)331_storage":{"encoding":"inplace","label":"struct Polls.ParticipationInfo","members":[{"astId":322,"contract":"contracts/Polls.sol:Polls","label":"allowMultipleVote","offset":0,"slot":"0","type":"t_bool"},{"astId":324,"contract":"contracts/Polls.sol:Polls","label":"participationRewardAssetId","offset":0,"slot":"1","type":"t_string_storage"},{"astId":326,"contract":"contracts/Polls.sol:Polls","label":"participationRewardAmount","offset":0,"slot":"2","type":"t_uint256"},{"astId":328,"contract":"contracts/Polls.sol:Polls","label":"participationConsumeAssetId","offset":0,"slot":"3","type":"t_string_storage"},{"astId":330,"contract":"contracts/Polls.sol:Polls","label":"participationConsumeAmount","offset":0,"slot":"4","type":"t_uint256"}],"numberOfBytes":"160"},"t_struct(Poll)376_storage":{"encoding":"inplace","label":"struct Polls.Poll","members":[{"astId":351,"contract":"contracts/Polls.sol:Polls","label":"pollId","offset":0,"slot":"0","type":"t_uint256"},{"astId":354,"contract":"contracts/Polls.sol:Polls","label":"basic","offset":0,"slot":"1","type":"t_struct(BasicInfo)286_storage"},{"astId":357,"contract":"contracts/Polls.sol:Polls","label":"time","offset":0,"slot":"8","type":"t_struct(TimeInfo)293_storage"},{"astId":360,"contract":"contracts/Polls.sol:Polls","label":"visibility","offset":0,"slot":"11","type":"t_struct(VisibilityInfo)300_storage"},{"astId":363,"contract":"contracts/Polls.sol:Polls","label":"tokenGating","offset":0,"slot":"12","type":"t_struct(TokenGatingInfo)305_storage"},{"astId":366,"contract":"contracts/Polls.sol:Polls","label":"betting","offset":0,"slot":"14","type":"t_struct(BettingInfo)320_storage"},{"astId":369,"contract":"contracts/Polls.sol:Polls","label":"participation","offset":0,"slot":"21","type":"t_struct(ParticipationInfo)331_storage"},{"astId":372,"contract":"contracts/Polls.sol:Polls","label":"answer","offset":0,"slot":"26","type":"t_struct(AnswerInfo)336_storage"},{"astId":375,"contract":"contracts/Polls.sol:Polls","label":"status","offset":0,"slot":"27","type":"t_struct(StatusInfo)349_storage"}],"numberOfBytes":"992"},"t_struct(PollOption)270_storage":{"encoding":"inplace","label":"struct Polls.PollOption","members":[{"astId":259,"contract":"contracts/Polls.sol:Polls","label":"optionId","offset":0,"slot":"0","type":"t_string_storage"},{"astId":261,"contract":"contracts/Polls.sol:Polls","label":"name","offset":0,"slot":"1","type":"t_string_storage"},{"astId":263,"contract":"contracts/Polls.sol:Polls","label":"shorten","offset":0,"slot":"2","type":"t_string_storage"},{"astId":265,"contract":"contracts/Polls.sol:Polls","label":"description","offset":0,"slot":"3","type":"t_string_storage"},{"astId":267,"contract":"contracts/Polls.sol:Polls","label":"imgUrl","offset":0,"slot":"4","type":"t_string_storage"},{"astId":269,"contract":"contracts/Polls.sol:Polls","label":"youtubeUrl","offset":0,"slot":"5","type":"t_string_storage"}],"numberOfBytes":"192"},"t_struct(PollParticipation)479_storage":{"encoding":"inplace","label":"struct Polls.PollParticipation","members":[{"astId":466,"contract":"contracts/Polls.sol:Polls","label":"pollId","offset":0,"slot":"0","type":"t_uint256"},{"astId":468,"contract":"contracts/Polls.sol:Polls","label":"participant","offset":0,"slot":"1","type":"t_address"},{"astId":470,"contract":"contracts/Polls.sol:Polls","label":"optionId","offset":0,"slot":"2","type":"t_string_storage"},{"astId":472,"contract":"contracts/Polls.sol:Polls","label":"participatedAt","offset":0,"slot":"3","type":"t_uint256"},{"astId":474,"contract":"contracts/Polls.sol:Polls","label":"isBetting","offset":0,"slot":"4","type":"t_bool"},{"astId":476,"contract":"contracts/Polls.sol:Polls","label":"bettingAssetId","offset":0,"slot":"5","type":"t_string_storage"},{"astId":478,"contract":"contracts/Polls.sol:Polls","label":"bettingAmount","offset":0,"slot":"6","type":"t_uint256"}],"numberOfBytes":"224"},"t_struct(StatusInfo)349_storage":{"encoding":"inplace","label":"struct Polls.StatusInfo","members":[{"astId":338,"contract":"contracts/Polls.sol:Polls","label":"isActive","offset":0,"slot":"0","type":"t_bool"},{"astId":340,"contract":"contracts/Polls.sol:Polls","label":"test","offset":1,"slot":"0","type":"t_bool"},{"astId":342,"contract":"contracts/Polls.sol:Polls","label":"creator","offset":2,"slot":"0","type":"t_address"},{"astId":344,"contract":"contracts/Polls.sol:Polls","label":"createdAt","offset":0,"slot":"1","type":"t_uint256"},{"astId":346,"contract":"contracts/Polls.sol:Polls","label":"uniqueVoters","offset":0,"slot":"2","type":"t_uint256"},{"astId":348,"contract":"contracts/Polls.sol:Polls","label":"totalVotes","offset":0,"slot":"3","type":"t_uint256"}],"numberOfBytes":"128"},"t_struct(TimeInfo)293_storage":{"encoding":"inplace","label":"struct Polls.TimeInfo","members":[{"astId":288,"contract":"contracts/Polls.sol:Polls","label":"startDate","offset":0,"slot":"0","type":"t_uint256"},{"astId":290,"contract":"contracts/Polls.sol:Polls","label":"endDate","offset":0,"slot":"1","type":"t_uint256"},{"astId":292,"contract":"contracts/Polls.sol:Polls","label":"answerAnnouncementDate","offset":0,"slot":"2","type":"t_uint256"}],"numberOfBytes":"96"},"t_struct(TokenGatingInfo)305_storage":{"encoding":"inplace","label":"struct Polls.TokenGatingInfo","members":[{"astId":302,"contract":"contracts/Polls.sol:Polls","label":"needToken","offset":0,"slot":"0","type":"t_bool"},{"astId":304,"contract":"contracts/Polls.sol:Polls","label":"needTokenAddress","offset":0,"slot":"1","type":"t_string_storage"}],"numberOfBytes":"64"},"t_struct(VisibilityInfo)300_storage":{"encoding":"inplace","label":"struct Polls.VisibilityInfo","members":[{"astId":295,"contract":"contracts/Polls.sol:Polls","label":"exposeInScheduleTab","offset":0,"slot":"0","type":"t_bool"},{"astId":297,"contract":"contracts/Polls.sol:Polls","label":"showOnPollPage","offset":1,"slot":"0","type":"t_bool"},{"astId":299,"contract":"contracts/Polls.sol:Polls","label":"showOnStarPage","offset":2,"slot":"0","type":"t_bool"}],"numberOfBytes":"32"},"t_uint256":{"encoding":"inplace","label":"uint256","numberOfBytes":"32"}}}}}}