{
  "_format": "hh-sol-artifact-1",
  "contractName": "Assets",
  "sourceName": "contracts/Assets.sol",
  "abi": [
    {
      "inputs": [],
      "name": "EnforcedPause",
      "type": "error"
    },
    {
      "inputs": [],
      "name": "ExpectedPause",
      "type": "error"
    },
    {
      "inputs": [],
      "name": "InvalidInitialization",
      "type": "error"
    },
    {
      "inputs": [],
      "name": "NotInitializing",
      "type": "error"
    },
    {
      "inputs": [
        {
          "internalType": "address",
          "name": "owner",
          "type": "address"
        }
      ],
      "name": "OwnableInvalidOwner",
      "type": "error"
    },
    {
      "inputs": [
        {
          "internalType": "address",
          "name": "account",
          "type": "address"
        }
      ],
      "name": "OwnableUnauthorizedAccount",
      "type": "error"
    },
    {
      "inputs": [],
      "name": "ReentrancyGuardReentrantCall",
      "type": "error"
    },
    {
      "anonymous": false,
      "inputs": [
        {
          "indexed": true,
          "internalType": "string",
          "name": "id",
          "type": "string"
        },
        {
          "indexed": true,
          "internalType": "bytes4",
          "name": "selector",
          "type": "bytes4"
        },
        {
          "indexed": false,
          "internalType": "bytes",
          "name": "executedFunction",
          "type": "bytes"
        },
        {
          "indexed": false,
          "internalType": "address[]",
          "name": "receivers",
          "type": "address[]"
        },
        {
          "indexed": false,
          "internalType": "uint256[]",
          "name": "amounts",
          "type": "uint256[]"
        }
      ],
      "name": "AirdropExecuted",
      "type": "event"
    },
    {
      "anonymous": false,
      "inputs": [
        {
          "indexed": true,
          "internalType": "string",
          "name": "id",
          "type": "string"
        },
        {
          "indexed": false,
          "internalType": "string",
          "name": "name",
          "type": "string"
        },
        {
          "indexed": false,
          "internalType": "string",
          "name": "symbol",
          "type": "string"
        },
        {
          "indexed": false,
          "internalType": "string",
          "name": "metadata",
          "type": "string"
        },
        {
          "indexed": false,
          "internalType": "enum Assets.AssetType",
          "name": "assetType",
          "type": "uint8"
        },
        {
          "indexed": false,
          "internalType": "address",
          "name": "contractAddress",
          "type": "address"
        },
        {
          "indexed": false,
          "internalType": "address",
          "name": "creator",
          "type": "address"
        }
      ],
      "name": "AssetCreated",
      "type": "event"
    },
    {
      "anonymous": false,
      "inputs": [
        {
          "indexed": true,
          "internalType": "string",
          "name": "id",
          "type": "string"
        },
        {
          "indexed": false,
          "internalType": "address",
          "name": "deletedBy",
          "type": "address"
        }
      ],
      "name": "AssetDeleted",
      "type": "event"
    },
    {
      "anonymous": false,
      "inputs": [
        {
          "indexed": true,
          "internalType": "string",
          "name": "id",
          "type": "string"
        },
        {
          "indexed": false,
          "internalType": "bytes4",
          "name": "selector",
          "type": "bytes4"
        }
      ],
      "name": "AssetFunctionAdded",
      "type": "event"
    },
    {
      "anonymous": false,
      "inputs": [
        {
          "indexed": true,
          "internalType": "address",
          "name": "manager",
          "type": "address"
        }
      ],
      "name": "AssetManagerAdded",
      "type": "event"
    },
    {
      "anonymous": false,
      "inputs": [
        {
          "indexed": true,
          "internalType": "address",
          "name": "manager",
          "type": "address"
        }
      ],
      "name": "AssetManagerRemoved",
      "type": "event"
    },
    {
      "anonymous": false,
      "inputs": [
        {
          "indexed": true,
          "internalType": "string",
          "name": "id",
          "type": "string"
        },
        {
          "indexed": false,
          "internalType": "bool",
          "name": "isActive",
          "type": "bool"
        }
      ],
      "name": "AssetStatusChanged",
      "type": "event"
    },
    {
      "anonymous": false,
      "inputs": [
        {
          "indexed": true,
          "internalType": "string",
          "name": "assetId",
          "type": "string"
        },
        {
          "indexed": true,
          "internalType": "string",
          "name": "assetName",
          "type": "string"
        },
        {
          "indexed": false,
          "internalType": "enum Assets.AssetType",
          "name": "assetType",
          "type": "uint8"
        },
        {
          "indexed": true,
          "internalType": "bytes4",
          "name": "selector",
          "type": "bytes4"
        },
        {
          "indexed": false,
          "internalType": "bytes",
          "name": "executedFunction",
          "type": "bytes"
        },
        {
          "indexed": false,
          "internalType": "bytes",
          "name": "data",
          "type": "bytes"
        },
        {
          "indexed": false,
          "internalType": "bool",
          "name": "success",
          "type": "bool"
        },
        {
          "indexed": false,
          "internalType": "bytes",
          "name": "result",
          "type": "bytes"
        }
      ],
      "name": "AssetTransactionExecuted",
      "type": "event"
    },
    {
      "anonymous": false,
      "inputs": [
        {
          "indexed": true,
          "internalType": "string",
          "name": "id",
          "type": "string"
        },
        {
          "indexed": false,
          "internalType": "address",
          "name": "updatedBy",
          "type": "address"
        }
      ],
      "name": "AssetUpdated",
      "type": "event"
    },
    {
      "anonymous": false,
      "inputs": [
        {
          "indexed": false,
          "internalType": "uint64",
          "name": "version",
          "type": "uint64"
        }
      ],
      "name": "Initialized",
      "type": "event"
    },
    {
      "anonymous": false,
      "inputs": [
        {
          "indexed": true,
          "internalType": "address",
          "name": "previousOwner",
          "type": "address"
        },
        {
          "indexed": true,
          "internalType": "address",
          "name": "newOwner",
          "type": "address"
        }
      ],
      "name": "OwnershipTransferred",
      "type": "event"
    },
    {
      "anonymous": false,
      "inputs": [
        {
          "indexed": false,
          "internalType": "address",
          "name": "account",
          "type": "address"
        }
      ],
      "name": "Paused",
      "type": "event"
    },
    {
      "anonymous": false,
      "inputs": [
        {
          "indexed": false,
          "internalType": "address",
          "name": "account",
          "type": "address"
        }
      ],
      "name": "Unpaused",
      "type": "event"
    },
    {
      "inputs": [
        {
          "internalType": "enum Assets.AssetType",
          "name": "assetType",
          "type": "uint8"
        },
        {
          "internalType": "string",
          "name": "id",
          "type": "string"
        },
        {
          "internalType": "bytes4",
          "name": "selector",
          "type": "bytes4"
        },
        {
          "internalType": "bytes",
          "name": "functionAbi",
          "type": "bytes"
        },
        {
          "internalType": "string",
          "name": "api",
          "type": "string"
        }
      ],
      "name": "addAssetFunction",
      "outputs": [],
      "stateMutability": "nonpayable",
      "type": "function"
    },
    {
      "inputs": [
        {
          "internalType": "string",
          "name": "id",
          "type": "string"
        },
        {
          "internalType": "bytes4",
          "name": "airdropSelector",
          "type": "bytes4"
        },
        {
          "internalType": "address[]",
          "name": "receivers",
          "type": "address[]"
        },
        {
          "internalType": "uint256[]",
          "name": "amounts",
          "type": "uint256[]"
        },
        {
          "internalType": "uint256",
          "name": "gasLimitPerTransfer",
          "type": "uint256"
        }
      ],
      "name": "airdrop",
      "outputs": [],
      "stateMutability": "nonpayable",
      "type": "function"
    },
    {
      "inputs": [
        {
          "internalType": "uint256",
          "name": "",
          "type": "uint256"
        }
      ],
      "name": "assetIds",
      "outputs": [
        {
          "internalType": "string",
          "name": "",
          "type": "string"
        }
      ],
      "stateMutability": "view",
      "type": "function"
    },
    {
      "inputs": [
        {
          "internalType": "address",
          "name": "",
          "type": "address"
        }
      ],
      "name": "assetManagers",
      "outputs": [
        {
          "internalType": "bool",
          "name": "",
          "type": "bool"
        }
      ],
      "stateMutability": "view",
      "type": "function"
    },
    {
      "inputs": [
        {
          "internalType": "string",
          "name": "",
          "type": "string"
        }
      ],
      "name": "assets",
      "outputs": [
        {
          "internalType": "string",
          "name": "id",
          "type": "string"
        },
        {
          "internalType": "string",
          "name": "name",
          "type": "string"
        },
        {
          "internalType": "string",
          "name": "symbol",
          "type": "string"
        },
        {
          "internalType": "string",
          "name": "metadata",
          "type": "string"
        },
        {
          "internalType": "enum Assets.AssetType",
          "name": "assetType",
          "type": "uint8"
        },
        {
          "internalType": "address",
          "name": "contractAddress",
          "type": "address"
        },
        {
          "internalType": "bool",
          "name": "isActive",
          "type": "bool"
        },
        {
          "internalType": "address",
          "name": "creator",
          "type": "address"
        }
      ],
      "stateMutability": "view",
      "type": "function"
    },
    {
      "inputs": [
        {
          "internalType": "string",
          "name": "id",
          "type": "string"
        },
        {
          "internalType": "string",
          "name": "name",
          "type": "string"
        },
        {
          "internalType": "string",
          "name": "symbol",
          "type": "string"
        },
        {
          "internalType": "string",
          "name": "metadata",
          "type": "string"
        },
        {
          "internalType": "enum Assets.AssetType",
          "name": "assetType",
          "type": "uint8"
        },
        {
          "internalType": "address",
          "name": "contractAddress",
          "type": "address"
        }
      ],
      "name": "createAsset",
      "outputs": [
        {
          "internalType": "string",
          "name": "",
          "type": "string"
        }
      ],
      "stateMutability": "nonpayable",
      "type": "function"
    },
    {
      "inputs": [
        {
          "internalType": "string",
          "name": "id",
          "type": "string"
        }
      ],
      "name": "deleteAsset",
      "outputs": [],
      "stateMutability": "nonpayable",
      "type": "function"
    },
    {
      "inputs": [
        {
          "internalType": "string",
          "name": "assetId",
          "type": "string"
        },
        {
          "internalType": "bytes4",
          "name": "selector",
          "type": "bytes4"
        },
        {
          "internalType": "bytes",
          "name": "data",
          "type": "bytes"
        },
        {
          "internalType": "uint256",
          "name": "gasLimit",
          "type": "uint256"
        }
      ],
      "name": "executeAssetFunction",
      "outputs": [
        {
          "internalType": "bool",
          "name": "",
          "type": "bool"
        },
        {
          "internalType": "bytes",
          "name": "",
          "type": "bytes"
        }
      ],
      "stateMutability": "nonpayable",
      "type": "function"
    },
    {
      "inputs": [
        {
          "internalType": "string",
          "name": "id",
          "type": "string"
        }
      ],
      "name": "getAsset",
      "outputs": [
        {
          "internalType": "string",
          "name": "name",
          "type": "string"
        },
        {
          "internalType": "string",
          "name": "symbol",
          "type": "string"
        },
        {
          "internalType": "string",
          "name": "metadata",
          "type": "string"
        },
        {
          "internalType": "enum Assets.AssetType",
          "name": "assetType",
          "type": "uint8"
        },
        {
          "internalType": "address",
          "name": "contractAddress",
          "type": "address"
        },
        {
          "internalType": "bool",
          "name": "isActive",
          "type": "bool"
        },
        {
          "internalType": "address",
          "name": "creator",
          "type": "address"
        },
        {
          "internalType": "bytes4[]",
          "name": "selectors",
          "type": "bytes4[]"
        }
      ],
      "stateMutability": "view",
      "type": "function"
    },
    {
      "inputs": [
        {
          "internalType": "string",
          "name": "id",
          "type": "string"
        },
        {
          "internalType": "bytes4",
          "name": "selector",
          "type": "bytes4"
        }
      ],
      "name": "getAssetAbi",
      "outputs": [
        {
          "internalType": "bytes",
          "name": "",
          "type": "bytes"
        }
      ],
      "stateMutability": "view",
      "type": "function"
    },
    {
      "inputs": [
        {
          "internalType": "string",
          "name": "id",
          "type": "string"
        },
        {
          "internalType": "bytes4",
          "name": "selector",
          "type": "bytes4"
        }
      ],
      "name": "getAssetApi",
      "outputs": [
        {
          "internalType": "string",
          "name": "",
          "type": "string"
        }
      ],
      "stateMutability": "view",
      "type": "function"
    },
    {
      "inputs": [
        {
          "internalType": "string",
          "name": "id",
          "type": "string"
        },
        {
          "internalType": "bytes4",
          "name": "selector",
          "type": "bytes4"
        }
      ],
      "name": "getAssetFunction",
      "outputs": [
        {
          "internalType": "bytes",
          "name": "",
          "type": "bytes"
        }
      ],
      "stateMutability": "view",
      "type": "function"
    },
    {
      "inputs": [],
      "name": "getAssetIds",
      "outputs": [
        {
          "internalType": "string[]",
          "name": "",
          "type": "string[]"
        }
      ],
      "stateMutability": "view",
      "type": "function"
    },
    {
      "inputs": [],
      "name": "initialize",
      "outputs": [],
      "stateMutability": "nonpayable",
      "type": "function"
    },
    {
      "inputs": [],
      "name": "owner",
      "outputs": [
        {
          "internalType": "address",
          "name": "",
          "type": "address"
        }
      ],
      "stateMutability": "view",
      "type": "function"
    },
    {
      "inputs": [],
      "name": "paused",
      "outputs": [
        {
          "internalType": "bool",
          "name": "",
          "type": "bool"
        }
      ],
      "stateMutability": "view",
      "type": "function"
    },
    {
      "inputs": [],
      "name": "renounceOwnership",
      "outputs": [],
      "stateMutability": "nonpayable",
      "type": "function"
    },
    {
      "inputs": [
        {
          "internalType": "address",
          "name": "manager",
          "type": "address"
        },
        {
          "internalType": "bool",
          "name": "isActive",
          "type": "bool"
        }
      ],
      "name": "setAssetManager",
      "outputs": [],
      "stateMutability": "nonpayable",
      "type": "function"
    },
    {
      "inputs": [
        {
          "internalType": "string",
          "name": "id",
          "type": "string"
        },
        {
          "internalType": "bool",
          "name": "isActive",
          "type": "bool"
        }
      ],
      "name": "setAssetStatus",
      "outputs": [],
      "stateMutability": "nonpayable",
      "type": "function"
    },
    {
      "inputs": [
        {
          "internalType": "address",
          "name": "newOwner",
          "type": "address"
        }
      ],
      "name": "transferOwnership",
      "outputs": [],
      "stateMutability": "nonpayable",
      "type": "function"
    },
    {
      "inputs": [
        {
          "internalType": "string",
          "name": "id",
          "type": "string"
        },
        {
          "internalType": "string",
          "name": "name",
          "type": "string"
        },
        {
          "internalType": "string",
          "name": "symbol",
          "type": "string"
        },
        {
          "internalType": "string",
          "name": "metadata",
          "type": "string"
        }
      ],
      "name": "updateAsset",
      "outputs": [],
      "stateMutability": "nonpayable",
      "type": "function"
    }
  ],
  "bytecode": "0x6080604052346019576040516136fa61001f82396136fa90f35b600080fdfe6080604052600436101561001257600080fd5b60003560e01c80631fda6d8e1461016257806334d3fa4d1461015d5780633b5751ef146101585780635c975abb146101535780637121852a1461014e578063715018a6146101495780638129fc1c14610144578063859362281461013f57806387541ed61461013a5780638da5cb5b14610135578063a6e65ca614610130578063c7fb38c31461012b578063cd5286d014610126578063cd7b887e14610121578063d80359f11461011c578063e24aa37c14610117578063e47e1c0b14610112578063e4d3cae51461010d578063f2fde38b14610108578063fa0a7433146101035763fcdeddba0361016757610ee4565b610e15565b610d5b565b610d3c565b610c7a565b610bdb565b610bc2565b610b8a565b610b53565b610a6c565b610a51565b610993565b610968565b610895565b610573565b61055b565b610533565b6104bf565b610482565b61032f565b6102bc565b600080fd5b634e487b7160e01b600052604160045260246000fd5b90601f01601f191681019081106001600160401b038211176101a357604052565b61016c565b906101bc6101b560405190565b9283610182565b565b6001600160401b0381116101a357602090601f01601f19160190565b0190565b90826000939282370152565b909291926101ff6101fa826101be565b6101a8565b9381855281830111610167576101bc9160208501906101de565b9080601f8301121561016757816020610234933591016101ea565b90565b906080828203126101675781356001600160401b038111610167578161025e918401610219565b9260208301356001600160401b038111610167578261027e918501610219565b9260408101356001600160401b038111610167578361029e918301610219565b9260608201356001600160401b038111610167576102349201610219565b34610167576102d86102cf366004610237565b9291909161120f565b60405180805b0390f35b8015155b0361016757565b905035906101bc826102e2565b9190604083820312610167578235906001600160401b03821161016757602061032882610234948701610219565b94016102ed565b34610167576102d86103423660046102fa565b906112be565b6001600160e01b031981166102e6565b905035906101bc82610348565b909182601f83011215610167578135916001600160401b03831161016757602001926001830284011161016757565b806102e6565b905035906101bc82610394565b9190916080818403126101675780356001600160401b03811161016757836103d0918301610219565b926103de8160208401610358565b9260408301356001600160401b0381116101675782610404606094610234938701610365565b9490950161039a565b9052565b60005b8381106104245750506000910152565b8181015183820152602001610414565b61045561045e6020936101da93610449815190565b80835293849260200190565b95869101610411565b601f01601f191690565b901515815260406020820181905261023492910190610434565b346101675761049e6104953660046103a7565b93929092611bba565b906102de6104ab60405190565b92839283610468565b600091031261016757565b34610167576104cf3660046104b4565b6102de6104da611bcb565b6040515b91829182901515815260200190565b9190604083820312610167578235906001600160401b03821161016757602061051b82610234948701610219565b9401610358565b602080825261023492910190610434565b34610167576102de61054f6105493660046104ed565b90611c86565b60405191829182610522565b346101675761056b3660046104b4565b6102d8611cf2565b34610167576105833660046104b4565b6102d8611f6e565b906020828203126101675781356001600160401b038111610167576102349201610219565b6101da6105c8926020926105c2815190565b94859290565b93849101610411565b6105e16101da91602094936105b0565b918252565b6105fb6105f260405190565b928392836105d1565b03902090565b610234916105e6565b634e487b7160e01b600052602260045260246000fd5b9060016002830492168015610640575b602083101461063b57565b61060a565b91607f1691610630565b8054600093929161066761065d83610620565b8085529360200190565b91600181169081156106b9575060011461068057505050565b6106939192939450600052602060002090565b916000925b8184106106a55750500190565b805484840152602090930192600101610698565b92949550505060ff1916825215156020020190565b906102349161064a565b906101bc6106f2926106e960405190565b938480926106ce565b0383610182565b610234905b60ff1690565b61023490546106f9565b6102349060081c5b6001600160a01b031690565b610234905461070e565b6102349060a81c6106fe565b610234905461072c565b61023490610716565b6102349054610742565b610760906000610601565b9061076a826106d8565b91610777600182016106d8565b91610784600283016106d8565b91610791600382016106d8565b9161079e60048301610704565b916107ab60048201610722565b9161023460086107bd60048501610738565b930161074b565b634e487b7160e01b600052602160045260246000fd5b600211156107e457565b6107c4565b906101bc826107da565b610234906107e9565b61040d906107f3565b61040d90610716565b939561087b61087060e0979b9a9861086261088e976108546101bc9d986108468c6108859a6101008201916000818403910152610434565b8c810360208e015290610434565b908a820360408c0152610434565b9088820360608a0152610434565b9a60808701906107fc565b60a0850190610805565b151560c0830152565b0190610805565b34610167576102de6108b06108ab36600461058b565b610755565b946108c398969894919493929360405190565b9889988961080e565b90602082820312610167576102349161039a565b634e487b7160e01b600052603260045260246000fd5b805482101561091957610910600191600052602060002090565b91020190600090565b6108e0565b634e487b7160e01b600052600060045260246000fd5b9060001061094557610234906106d8565b61091e565b600254811015610167576109626102349160026108f6565b90610934565b34610167576102de61054f61097e3660046108cc565b61094a565b6020810192916101bc9190610805565b34610167576109a33660046104b4565b6102de6109ae611f76565b60405191829182610983565b6102e681610716565b905035906101bc826109ba565b9060208282031261016757610234916109c3565b610716610234610234926001600160a01b031690565b610234906109e4565b610234906109fa565b90610a1690610a03565b600052602052604060002090565b610234916008021c6106fe565b906102349154610a24565b6000610a4c610234926001610a0c565b610a31565b34610167576102de6104da610a673660046109d0565b610a3c565b34610167576102de61054f610a823660046104ed565b90611fa8565b90610aa8610aa1610a97845190565b8084529260200190565b9260200190565b9060005b818110610ab95750505090565b909192610ae0610ad960019286516001600160e01b031916815260200190565b9460200190565b929101610aac565b94610b3390610b29610b1e610b46979a96610854610b3c976108466102349f9d988d906101008201916000818403910152610434565b9960608901906107fc565b6080870190610805565b151560a0850152565b60c0830190610805565b60e0818403910152610a88565b34610167576102de610b6e610b6936600461058b565b611fc2565b94610b8198969894919493929360405190565b98899889610ae8565b34610167576102de61054f610ba03660046104ed565b9061203a565b91906040838203126101675761023490602061032882866109c3565b34610167576102d8610bd5366004610ba6565b9061214d565b34610167576102d8610bee36600461058b565b6127a9565b9061023491610434565b90610c13610c09835190565b8083529160200190565b9081610c256020830284019460200190565b926000915b838310610c3957505050505090565b90919293946020610c5c610c5583856001950387528951610bf3565b9760200190565b9301930191939290610c2a565b602080825261023492910190610bfd565b3461016757610c8a3660046104b4565b6102de610c95612833565b60405191829182610c69565b6002111561016757565b905035906101bc82610ca1565b909160a08284031261016757610cce8383610cab565b9260208301356001600160401b0381116101675781610cee918501610219565b92610cfc8260408301610358565b9260608201356001600160401b0381116101675783610d1c918401610365565b92909360808201356001600160401b038111610167576102349201610219565b34610167576102d8610d4f366004610cb8565b94939093929192612b0c565b34610167576102d8610d6e3660046109d0565b612b6c565b909160c0828403126101675781356001600160401b0381116101675783610d9b918401610219565b9260208301356001600160401b0381116101675781610dbb918501610219565b9260408101356001600160401b0381116101675782610ddb918301610219565b9260608201356001600160401b03811161016757610dfe84610234928501610219565b9360a0610e0e8260808701610cab565b94016109c3565b34610167576102de61054f610e2b366004610d73565b94939093929192612e73565b909182601f83011215610167578135916001600160401b03831161016757602001926020830284011161016757565b909160a0828403126101675781356001600160401b0381116101675783610e8e918401610219565b92610e9c8160208501610358565b9260408101356001600160401b0381116101675782610ebc918301610e37565b92909360608301356001600160401b0381116101675782610404608094610234938701610e37565b34610167576102d8610ef7366004610e66565b9594909493919361338a565b15610f0a57565b60405162461bcd60e51b815260206004820152600b60248201526a2727aa2fa6a0a720a3a2a960a91b604482015280606481015b0390fd5b906101bc939291610f64610f5f610f5a336001610a0c565b610704565b610f03565b906101bc939291610f73613399565b611186565b15610f7f57565b60405162461bcd60e51b815260206004820152600f60248201527f41535345545f4e4f545f464f554e4400000000000000000000000000000000006044820152606490fd5b9160001960089290920291821b911b610fdd565b921b90565b9181191691161790565b6102346102346102349290565b919061100561023461100d93610fe7565b908354610fc4565b9055565b6101bc91600091610ff4565b818110611028575050565b806110366000600193611011565b0161101d565b9190601f811161104b57505050565b61105d6101bc93600052602060002090565b906020601f840181900483019310611080575b6020601f909101045b019061101d565b9091508190611070565b90611093815190565b906001600160401b0382116101a3576110b6826110b08554610620565b8561103c565b602090601f83116001146110f15761100d9291600091836110e6575b5050600019600883021c1916906002021790565b0151905038806110d2565b601f1983169161110685600052602060002090565b9260005b8181106111455750916002939185600196941061112b575b50505002019055565b01516000196008601f8516021c19165b9055388080611122565b9193602060018192878701518155019501920161110a565b906101bc9161108a565b610234916105b0565b6105fb9061117d60405190565b91829182611167565b919260036111d0926111ca6111d5966111a66111a1886133bc565b610f78565b6111c16111b7610234896000610601565b936001850161115d565b6002830161115d565b0161115d565b611170565b7f7e3b7d8589f7c2b1710fdd4aec0a5f7d5bcc13ab5818baafb3bbeaa6e4918cee6111ff60405190565b8061120a3382610983565b0390a2565b906101bc939291610f42565b906101bc91611231610f5f610f5a336001610a0c565b906101bc9161123e613399565b611269565b9060ff60a81b9060a81b610fdd565b9061126261023461100d92151590565b8254611243565b61120a6112b47f0642783bfbb19b254876037b309e581422be8e1f8aed054fca1532da547fabc39261129d6111a1826133bc565b6111d08560046112ae846000610601565b01611252565b926104de60405190565b906101bc9161121b565b906112e89695949392916112e3610f5f610f5a336001610a0c565b6112ec565b9091565b906112e89695949392916112fe613399565b90611315969594939291611310613429565b611936565b90916101bc613487565b1561132657565b60405162461bcd60e51b815260206004820152601060248201527f41535345545f4e4f545f414354495645000000000000000000000000000000006044820152606490fd5b1561137257565b60405162461bcd60e51b815260206004820152601260248201527f494e56414c49445f41535345545f5459504500000000000000000000000000006044820152606490fd5b6102349060201c60e01b90565b6102349060401c60e01b90565b6102349060601c60e01b90565b6102349060801c60e01b90565b6102349060a01c60e01b90565b6102349060c01c60e01b90565b90611420611414610a97845490565b92600052602060002090565b906000915b600783018211611570575490808310611552575b808310611535575b808310611518575b8083106114fb575b8083106114de575b8083106114c1575b8083106114a4575b821061147457505090565b8261149d6001939461148f6020946001600160e01b03191690565b6001600160e01b0319169052565b0191505090565b91926020816114b860019361148f866113f8565b01930191611469565b91926020816114d560019361148f866113eb565b01930191611461565b91926020816114f260019361148f866113de565b01930191611459565b919260208161150f60019361148f866113d1565b01930191611451565b919260208161152c60019361148f866113c4565b01930191611449565b919260208161154960019361148f866113b7565b01930191611441565b919260208161156760019361148f8660e01b90565b01930191611439565b926001602061148f6115fb600894838080808080808f54976115968161148f8b60e01b90565b016115a48161148f8a6113b7565b016115b28161148f896113c4565b016115c08161148f886113d1565b016115ce8161148f876113de565b016115dc8161148f866113eb565b016115ea8161148f856113f8565b019283916001600160e01b03191690565b019401920191611425565b9061023491611405565b906101bc6106f29261162160405190565b93848092611606565b61023490611610565b1561163a57565b60405162461bcd60e51b815260206004820152601060248201527f494e56414c49445f53454c4543544f52000000000000000000000000000000006044820152606490fd5b1561168657565b60405162461bcd60e51b815260206004820152601160248201527f494e56414c49445f4741535f4c494d49540000000000000000000000000000006044820152606490fd5b906001600160e01b031916610a16565b906105e16101fa836101be565b61023460006116db565b6102346116e8565b8054600093929161171161170d83610620565b9390565b9160018116908115611762575060011461172a57505050565b61173d9192939450600052602060002090565b6000905b83821061174e5750500190565b600181602092548486015201910190611741565b60ff191683525050811515909102019150565b610234916116fa565b6105fb9061178b60405190565b91829182611775565b805460009392916117a761065d83610620565b91600181169081156106b957506001146117c057505050565b6117d39192939450600052602060002090565b916000925b8184106117e55750500190565b8054848401526020909301926001016117d8565b919061045e81611810816101da9560209181520190565b80956101de565b9261023496946118476118559361185f9561183a60a089019260008a01906107fc565b8782036020890152611794565b9185830360408701526117f9565b9315156060830152565b6080818403910152610434565b90916101da90839080936101de565b019161186c565b3d1561189c576118913d6116db565b903d6000602084013e565b606090565b805460009392916118b461065d83610620565b91600181169081156106b957506001146118cd57505050565b6118e09192939450600052602060002090565b916000925b8184106118f25750500190565b8054848401526020909301926001016118e5565b9261023496946118476118559361185f9561192960a089019260008a01906107fc565b87820360208901526118a1565b969596505060009061194b6102348284610601565b600481019261195984610704565b61196b611965836107e9565b916107e9565b03611abc5790817ff3c7b1b2816979188343de70499d5c5efc9282ee8e8704436096ed2fc71ed3b79392611aab9a6119aa6119a588610738565b61131f565b6119c86119b688610704565b6119c2611965856107e9565b1461136b565b6119e56119e0896119db6005880161162a565b6134d6565b611633565b6119ee82610fe7565b811180611ab2575b6119ff9061167f565b8782611a0a89610722565b8c611a4a8d611a3e611a1b60405190565b9384926020840198898061187b60049261023496946001600160e01b0319169052565b86810382520382610182565b5193f1988997611a58611882565b9a8b91611a98611a8a611a84611a7e8c6006611a7760018c019e610704565b9a016116cb565b98611170565b9961177e565b996001600160e01b03191690565b99611aa260405190565b96879687611906565b0390a49190565b50458111156119f6565b929394959197611acb85610704565b98600199611adb6119658c6107e9565b0361137257611b53611b9b92611b447ff3c7b1b2816979188343de70499d5c5efc9282ee8e8704436096ed2fc71ed3b797611b2c8e6119c2611965611b268e610f5a6119a582610738565b926107e9565b611b3f6119e08c6119db60058b0161162a565b610fe7565b81119081611ba6575b5061167f565b89611b70610234896007611b698589019b610704565b97016116cb565b94611b88611a8a611a84611b826116f2565b95611170565b99611b9260405190565b96879687611817565b0390a46102346116f2565b459150611bb2565b9190565b111538611b4d565b6112e89493929190606060006112c8565b6102347fcd5ed15c6e187e77e9aee88184c21f4f2182ab5827cb3b7e07fbedcd63f03300610704565b80546000939291611c0761065d83610620565b91600181169081156106b95750600114611c2057505050565b611c339192939450600052602060002090565b916000925b818410611c455750500190565b805484840152602090930192600101611c38565b9061023491611bf4565b906101bc6106f292611c7460405190565b93848092611c59565b61023490611c63565b610234916006611caf611cb593611c9b606090565b50611ca86111a1826133bc565b6000610601565b016116cb565b611c7d565b611cc2613539565b6101bc611ce0565b6107166102346102349290565b61023490611cca565b6101bc611ced6000611cd7565b613570565b6101bc611cba565b6102349060401c6106fe565b6102349054611cfa565b610234905b6001600160401b031690565b6102349054611d10565b611d156102346102349290565b906001600160401b0390610fdd565b611d15610234610234926001600160401b031690565b90611d6d61023461100d92611d47565b8254611d38565b9068ff00000000000000009060401b610fdd565b90611d9861023461100d92151590565b8254611d74565b61040d90611d2b565b6020810192916101bc9190611d9f565b611dc06135e7565b80611dda611dd4611dd083611d06565b1590565b91611d21565b600091611de683611d2b565b6001600160401b0383161480611ee0575b600192611e13611e0685611d2b565b916001600160401b031690565b149081611ebc575b155b9081611eb3575b50611ea45780611e4084611e3785611d2b565b96019586611d5d565b611e95575b611e4d611f07565b611e5657505050565b611e84611e90927fc7f505b2f371ae2175ee4913f4499e1f2633a7b5936321eed1cdaeb6115181d294611d88565b60405191829182611da8565b0390a1565b611e9f8285611d88565b611e45565b63f92ee8a960e01b8352600483fd5b15905038611e24565b9050611e1d611eca30610a03565b3b611ed7611bae87610fe7565b14919050611e1b565b5080611df7565b9060ff90610fdd565b90611f0061023461100d92151590565b8254611ee7565b611f1033613604565b611f18613615565b611f20613630565b611f346001611f2f3382610a0c565b611ef0565b611f3d33610a03565b7f8cf4dd2d46ca2e74b9cc238f9e9c907b5a6a50e2f652162a062d5e8129f35d7a611f6760405190565b808061120a565b6101bc611db8565b6102347f9016d09d72d40fdae2fd8ceac6b6234c7706214fd39c1cd1e609a0528c19930061074b565b610234906106d8565b610234916007611caf611fbd93611c9b606090565b611f9f565b610234611fd191611c9b606090565b9060018201600283019260038101926004820191611fee83610704565b93612001611ffb85610722565b94610738565b9261023461203061202a612024600561201c6008890161074b565b970195611f9f565b9a611f9f565b98611f9f565b969594939261162a565b610234916006611caf611cb59361204f606090565b5061205c6111a1826133bc565b611ca86119e0856119db6005612073866000610601565b0161162a565b906101bc91612086613539565b6120d7565b1561209257565b60405162461bcd60e51b815260206004820152600f60248201527f494e56414c49445f4144445245535300000000000000000000000000000000006044820152606490fd5b906120fd6120ed6120e86000611cd7565b610716565b6120f684610716565b141561208b565b61210c81611f2f846001610a0c565b1561211a57611f3d90610a03565b61212390610a03565b7f1a3f6d43a85364a6a2d8297f0cd634e060a6ef9bc11b3a0c89e47d40b89c2f7e611f6760405190565b906101bc91612079565b6101bc9061216c610f5f610f5a336001610a0c565b6101bc90612178613399565b61267a565b1561218457565b60405162461bcd60e51b815260206004820152601660248201527f41535345545f4d5553545f42455f494e414354495645000000000000000000006044820152606490fd5b805460009392916121dc61065d83610620565b91600181169081156106b957506001146121f557505050565b6122089192939450600052602060002090565b916000925b81841061221a5750500190565b80548484015260209093019260010161220d565b90610234916121c9565b906101bc6106f29261224960405190565b9384809261222e565b61023490612238565b634e487b7160e01b600052601160045260246000fd5b9190820391821161227e57565b61225b565b6102349054610620565b908082146123695761229e81612283565b906001600160401b0382116101a3576122bb826110b08554610620565b600090601f83116001146122f55761100d9291600091836122ea575050600019600883021c1916906002021790565b0154905038806110d2565b9061230a601f19841692600052602060002090565b9061231a85600052602060002090565b92815b8181106123515750916002939185600196941061233d5750505002019055565b01546000196008601f8516021c191661113b565b9193600180602092878701548155019501920161231d565b5050565b9190610945576101bc9161228d565b634e487b7160e01b600052603160045260246000fd5b906123a590600019906020036008021c90565b8154169055565b906000916123d76123c282600052602060002090565b928354600019600883021c1916906002021790565b905555565b919290602082101561244157601f841160011461240b5761100d929350600019600883021c1916906002021790565b509061243c6101bc93600161243361242885600052602060002090565b92601f602091010490565b8201910161101d565b6123ac565b5061247a8293612458600194600052602060002090565b6110796020601f860104820192601f861680612482575b50601f602091010490565b600202179055565b61248e90888603612392565b3861246f565b929091600160401b82116101a357602011156124e85760208110156124c95761100d91600019600883021c1916906002021790565b60019160ff19166124df84600052602060002090565b55600202019055565b60019150600202019055565b90815461250081610620565b90818311612529575b818310612517575b50505050565b612520936123dc565b38808080612511565b61253583838387612494565b612509565b60006101bc916124f4565b90600003610945576101bc9061253a565b8054801561257957600019019061257661257083836108f6565b90612545565b55565b61237c565b91909182821061258d57505050565b6101bc92600860079091010490600460086125b46007860182900493600052602060002090565b928301940602600081116125cb575b50019061101d565b6125d89060018503612392565b386125c3565b90600160401b81116101a357816125f66101bc935490565b9082815561257e565b60006101bc916125de565b90600003610945576101bc906125ff565b60009060089061262b8382612545565b6126388360018301612545565b6126458360028301612545565b6126528360038301612545565b826004820155612665836005830161260a565b0155565b90600003610945576101bc9061261b565b6126866111a1826133bc565b6000906126a96126a4611dd0600461269e8587610601565b01610738565b61217d565b6126b282610fe7565b60026126bf610234825490565b82101561279b576126df6126da6126d684846108f6565b5090565b612252565b6126f16126ea825190565b9160200190565b20612708611bae856127046126ea825190565b2090565b1461271657506001016126b2565b9261276261275d856102346111d09561275761274f6127496127396127719c5490565b6127436001610fe7565b90612271565b856108f6565b5091846108f6565b9061236d565b612556565b61276c8382610601565b612669565b7fb50a82962555cb439c53739ec19c159c2039e25705651a754caa0857168116e56111ff60405190565b50506111d061277192612762565b6101bc90612157565b6001600160401b0381116101a35760208091020190565b906105e16101fa836127b2565b906127df825490565b6127e8816127c9565b926127fc6020850191600052602060002090565b6000915b83831061280d5750505050565b60016020819261281c85611f9f565b815201920192019190612800565b610234906127d6565b610234600261282a565b906101bc9594939291612857610f5f610f5a336001610a0c565b906101bc9594939291612868613399565b6129c5565b805491929183101561091957600861288c600492600052602060002090565b8185040193060290565b91906008610fdd910291610fd863ffffffff841b90565b91906128cc6128c661100d936001600160e01b03191690565b60e01c90565b908354612896565b90815491600160401b8310156101a357826128f79160016101bc9501815561286d565b906128ad565b91906001600160401b0382116101a35761291b826110b08554610620565b600090601f83116001146129555761100d92916000918361294a575050600019600883021c1916906002021790565b0135905038806110d2565b90601f1983169161296b85600052602060002090565b92825b8181106129a25750916002939185600196941061298e5750505002019055565b0135600019601f84166008021c191661113b565b9293602060018192878601358155019501930161296e565b906101bc92916128fd565b829594939291946129d86111a1876133bc565b6000906129e86102348884610601565b9260058401856129fe611dd0826119db8561162a565b612afc575b5050612a0e836107e9565b612a17826107e9565b03612a8f57505093612a6d93612a687ff5d0066fc10aca9994ca80c2ce478ddaf78ad0b9025c30753efc56b88dcb60cc9794600685611caf61120a9a6119c2611965611b2660046111d09c01610704565b6129ba565b92612a7760405190565b918291826001600160e01b0319909116815260200190565b93509350509250612aa361196560016107e9565b03611372577ff5d0066fc10aca9994ca80c2ce478ddaf78ad0b9025c30753efc56b88dcb60cc926111d0612a6d92612af787600787611caf612aea600461120a9b01610704565b6119c261196560016107e9565b61115d565b612b05916128d4565b3885612a03565b906101bc959493929161283d565b6101bc90612b26613539565b6000612b3181611cd7565b612b3a81610716565b612b4384610716565b14612b535750506101bc90613570565b631e4fbdf760e01b82528190610f3e9060048301610983565b6101bc90612b1a565b90610234969594939291612b90610f5f610f5a336001610a0c565b90610234969594939291612ba2613399565b612d31565b15612bae57565b60405162461bcd60e51b815260206004820152600a6024820152691253959053125117d25160b21b6044820152606490fd5b15612be757565b60405162461bcd60e51b815260206004820152601460248201527f41535345545f414c52454144595f4558495354530000000000000000000000006044820152606490fd5b90611f0061023461100d926107f3565b9074ffffffffffffffffffffffffffffffffffffffff009060081b610fdd565b90612c6c61023461100d92610a03565b8254612c3c565b906001600160a01b0390610fdd565b90612c9261023461100d92610a03565b8254612c73565b9190610945576101bc9161108a565b90815491600160401b8310156101a35782612ccb9160016101bc950181556108f6565b90612c99565b9194612d27612d1c60a095612d0e6101bc99612d0061088e979d9c9a9d60c08a01908a820360008c0152610434565b9088820360208a0152610434565b908682036040880152610434565b9860608501906107fc565b6080830190610805565b50947f5e131e067ae7da89afc007883c2359f6bec6e999314cff5288ccbf5563c4cec9939291612e4b91612e22612d66895190565b612d7e600091612d78611bae84610fe7565b11612ba7565b612d92612d8d611dd08c6133bc565b612be0565b612d9c60016107e9565b612da58a6107e9565b148015612e51575b612db69061136b565b612dcf8a612dc76102348285610601565b92830161115d565b612ddc846001830161115d565b612de9866002830161115d565b612df6876003830161115d565b612e18600160048301612e098c82612c2c565b612e138682612c5c565b611252565b6008339101612c82565b612e2d886002612ca8565b612e3688611170565b96612e4060405190565b958695339487612cd1565b0390a290565b50612db6612e616120e883611cd7565b612e6a85610716565b14159050612dad565b6102349594939291906060612b75565b906101bc969594939291612e9e610f5f610f5a336001610a0c565b906101bc969594939291612eb0613399565b90612ec7969594939291612ec2613429565b613102565b6101bc613487565b15612ed657565b60405162461bcd60e51b815260206004820152601460248201527f494e56414c49445f41525241595f4c454e4754480000000000000000000000006044820152606490fd5b906101da81602093610805565b506102349060208101906109c3565b818352602090920191906000825b828210612f53575050505090565b90919293612f76612f6f600192612f6a8886612f28565b612f1b565b9560200190565b93920190612f45565b9037565b8183529091602001917f07ffffffffffffffffffffffffffffffffffffffffffffffffffffffffffffff811161016757829160206101da9202938491612f7f565b93916102349593612fe4612ff293606088019088820360008a0152611794565b918683036020880152612f37565b926040818503910152612f83565b9190811015610919576020020190565b35610234816109ba565b1561302157565b60405162461bcd60e51b815260206004820152601060248201527f494e56414c49445f5245434549564552000000000000000000000000000000006044820152606490fd5b3561023481610394565b9160206101bc92949361308b60408201966000830190610805565b0152565b01906105b0565b1561309d57565b60405162461bcd60e51b815260206004820152600f60248201527f5452414e534645525f4641494c454400000000000000000000000000000000006044820152606490fd5b93916102349593612fe4612ff293606088019088820360008a01526118a1565b959694909391926131156111a1886133bc565b809660009661312388610fe7565b891180613381575b61313490612ecf565b613141610234838a610601565b9160048301926131536119a585610738565b6131666119e08a6119db6005850161162a565b61316f84610704565b61317b6119658c6107e9565b0361330e576131898a610fe7565b8c1180613304575b61319a9061167f565b6131a38a610fe7565b8b5b811015613298576132918161328b8f8e80918f8f8f908f8f8f61325488956132306131a59f80611a3e97613225613202838a61321f8f9b8f6132489d61327a9f61320d6120e861320761320261322b9f6132139561321a98613000565b613010565b93611cd7565b91610716565b141561301a565b610722565b9d613000565b94613000565b613066565b9061323a60405190565b938492602084019283613070565b90810382520382610182565b6040519283916020830197888061308f60049261023495946001600160e01b0319169052565b5193f1613285611882565b50613096565b60010190565b90506131a3565b506132ec929b506132ff95949a50887f8a1b8e6bd9f4fd9d4e3c7e6680614394348430ec7c893219603fb2a738c1223f999a506132de929794506006611b8292016116cb565b976001600160e01b03191690565b976132f660405190565b958695866130e2565b0390a3565b50458c1115613191565b9493995094969750985061332190610704565b61332e61196560016107e9565b03611372577f8a1b8e6bd9f4fd9d4e3c7e6680614394348430ec7c893219603fb2a738c1223f9461336e6132de611b826102348a60076132ff98016116cb565b9761337860405190565b95869586612fc4565b5088841461312b565b906101bc969594939291612e83565b6133a1611bcb565b6133a757565b63d93c066560e01b600090815260045b036000fd5b6133d760006101da6133dc936133d0600090565b5082610601565b612283565b6133e9611bae6000610fe7565b1190565b6102349081565b61023490546133ed565b6102346002610fe7565b9060001990610fdd565b9061342261023461100d92610fe7565b8254613408565b7f9b779b17422d0df92223018b32b4d1fa46e071723d6817e2486d003becc55f00613453816133f4565b61345b6133fe565b90811461346b576101bc91613412565b633ee5aeb560e01b6000908152600490fd5b6102346001610fe7565b6101bc7f9b779b17422d0df92223018b32b4d1fa46e071723d6817e2486d003becc55f0060006134b561347d565b9101613412565b906134c5825190565b811015610919576020809102010190565b906134e16000610fe7565b6134ec610234845190565b8110156135315761350e61350082856134bc565b516001600160e01b03191690565b6001600160e01b0319838116911614613529576001016134e1565b505050600190565b505050600090565b613541611f76565b339061354f61320d83610716565b036135575750565b63118cdaa760e01b6000908152906133b7906004610983565b6135b56135af7f9016d09d72d40fdae2fd8ceac6b6234c7706214fd39c1cd1e609a0528c1993006135aa846135a48361074b565b92612c82565b610a03565b91610a03565b907f8be0079c531659141344cd1fd0a4f28419497f9722a3daafe3b4186f6b6457e06135e060405190565b80806132ff565b610234613661565b6101bc906135fb613669565b6101bc90613698565b6101bc906135ef565b6101bc613669565b6101bc61360d565b613625613669565b6101bc6101bc6136a9565b6101bc61361d565b6102347ff0c57e16840df040f15088dc2f81fe391c3923bec73e23a9662efc9c229c6a00610fe7565b610234613638565b613674611dd06136b1565b61367a57565b631afcd79f60e31b6000908152600490fd5b6101bc90612b26613669565b6101bc9061368c565b612ec7613669565b6101bc6136a1565b61023460006136be6135e7565b01611d0656fea2646970667358221220e8a6db9e7bef4d0e7bb66041e997cb778deef12c8793b538fc4761a7265c80d164736f6c634300081c0033",
  "linkReferences": {},
  "deployedLinkReferences": {}
}