{
  "_format": "hh-sol-artifact-1",
  "contractName": "CollectionFactory",
  "sourceName": "contracts/Factory.sol",
  "abi": [
    {
      "inputs": [],
      "name": "InvalidInitialization",
      "type": "error"
    },
    {
      "inputs": [],
      "name": "NotInitializing",
      "type": "error"
    },
    {
      "inputs": [
        {
          "internalType": "address",
          "name": "owner",
          "type": "address"
        }
      ],
      "name": "OwnableInvalidOwner",
      "type": "error"
    },
    {
      "inputs": [
        {
          "internalType": "address",
          "name": "account",
          "type": "address"
        }
      ],
      "name": "OwnableUnauthorizedAccount",
      "type": "error"
    },
    {
      "anonymous": false,
      "inputs": [
        {
          "indexed": true,
          "internalType": "address",
          "name": "collectionAddress",
          "type": "address"
        }
      ],
      "name": "CollectionCreated",
      "type": "event"
    },
    {
      "anonymous": false,
      "inputs": [
        {
          "indexed": true,
          "internalType": "address",
          "name": "collectionAddress",
          "type": "address"
        }
      ],
      "name": "CollectionDeleted",
      "type": "event"
    },
    {
      "anonymous": false,
      "inputs": [
        {
          "indexed": false,
          "internalType": "uint64",
          "name": "version",
          "type": "uint64"
        }
      ],
      "name": "Initialized",
      "type": "event"
    },
    {
      "anonymous": false,
      "inputs": [
        {
          "indexed": true,
          "internalType": "address",
          "name": "previousOwner",
          "type": "address"
        },
        {
          "indexed": true,
          "internalType": "address",
          "name": "newOwner",
          "type": "address"
        }
      ],
      "name": "OwnershipTransferred",
      "type": "event"
    },
    {
      "inputs": [
        {
          "internalType": "uint256",
          "name": "",
          "type": "uint256"
        }
      ],
      "name": "collections",
      "outputs": [
        {
          "internalType": "address",
          "name": "",
          "type": "address"
        }
      ],
      "stateMutability": "view",
      "type": "function"
    },
    {
      "inputs": [
        {
          "internalType": "string",
          "name": "name",
          "type": "string"
        },
        {
          "internalType": "string",
          "name": "symbol",
          "type": "string"
        },
        {
          "internalType": "uint256",
          "name": "maxSupply",
          "type": "uint256"
        },
        {
          "internalType": "uint256",
          "name": "mintPrice",
          "type": "uint256"
        },
        {
          "internalType": "string",
          "name": "baseURI",
          "type": "string"
        },
        {
          "internalType": "string",
          "name": "contractURI_",
          "type": "string"
        }
      ],
      "name": "createCollection",
      "outputs": [
        {
          "internalType": "address",
          "name": "",
          "type": "address"
        }
      ],
      "stateMutability": "nonpayable",
      "type": "function"
    },
    {
      "inputs": [
        {
          "internalType": "address",
          "name": "collectionAddress",
          "type": "address"
        }
      ],
      "name": "deleteCollection",
      "outputs": [],
      "stateMutability": "nonpayable",
      "type": "function"
    },
    {
      "inputs": [],
      "name": "getCollections",
      "outputs": [
        {
          "internalType": "address[]",
          "name": "",
          "type": "address[]"
        }
      ],
      "stateMutability": "view",
      "type": "function"
    },
    {
      "inputs": [
        {
          "internalType": "address",
          "name": "initialOwner",
          "type": "address"
        }
      ],
      "name": "initialize",
      "outputs": [],
      "stateMutability": "nonpayable",
      "type": "function"
    },
    {
      "inputs": [],
      "name": "owner",
      "outputs": [
        {
          "internalType": "address",
          "name": "",
          "type": "address"
        }
      ],
      "stateMutability": "view",
      "type": "function"
    },
    {
      "inputs": [],
      "name": "renounceOwnership",
      "outputs": [],
      "stateMutability": "nonpayable",
      "type": "function"
    },
    {
      "inputs": [
        {
          "internalType": "address",
          "name": "newOwner",
          "type": "address"
        }
      ],
      "name": "transferOwnership",
      "outputs": [],
      "stateMutability": "nonpayable",
      "type": "function"
    }
  ],
  "bytecode": "0x60806040523460195760405161534961001f823961534990f35b600080fdfe6080604052600436101561001257600080fd5b60003560e01c806346e6358614610092578063715018a61461008d5780638da5cb5b14610088578063a6bb6cac14610083578063c4d66de81461007e578063d6a4448b14610079578063f2fde38b146100745763fdbda0ec0361009757610452565b6103a8565b610386565b6101f8565b6101e0565b610178565b610159565b61012e565b600080fd5b600091031261009757565b6001600160a01b031690565b90565b9052565b0190565b906100de6100d76100cd845190565b8084529260200190565b9260200190565b9060005b8181106100ef5750505090565b90919261011561010e60019286516001600160a01b0316815260200190565b9460200190565b9291016100e2565b60208082526100b3929101906100be565b346100975761013e36600461009c565b610155610149610515565b6040519182918261011d565b0390f35b346100975761016936600461009c565b610171610557565b604051005b565b346100975761018836600461009c565b61015561019361055f565b604051918291826001600160a01b03909116815260200190565b6001600160a01b0381165b0361009757565b90503590610176826101ad565b90602082820312610097576100b3916101bf565b34610097576101716101f33660046101cc565b6109e0565b346100975761017161020b3660046101cc565b610beb565b634e487b7160e01b600052604160045260246000fd5b90601f01601f191681019081106001600160401b0382111761024757604052565b610210565b9061017661025960405190565b9283610226565b6001600160401b03811161024757602090601f01601f19160190565b90826000939282370152565b9092919261029d61029882610260565b61024c565b93818552818301116100975761017691602085019061027c565b9080601f83011215610097578160206100b393359101610288565b806101b8565b90503590610176826102d2565b9160c0838303126100975782356001600160401b038111610097578261030c9185016102b7565b9260208101356001600160401b038111610097578361032c9183016102b7565b9261033a81604084016102d8565b9261034882606085016102d8565b9260808101356001600160401b03811161009757836103689183016102b7565b9260a08201356001600160401b038111610097576100b392016102b7565b346100975761015561019361039c3660046102e5565b94939093929192610e2f565b34610097576101716103bb3660046101cc565b610e97565b90602082820312610097576100b3916102d8565b634e487b7160e01b600052603260045260246000fd5b805482101561040d57610404600191600052602060002090565b91020190600090565b6103d4565b6100b3916008021c6001600160a01b031690565b906100b39154610412565b6000805482101561044f576100b391610449916103ea565b90610426565b80fd5b34610097576101556101936104683660046103c0565b610431565b6100b3906100a7565b6100b3905461046d565b9061049b61048f6100cd845490565b92600052602060002090565b9060005b8181106104ac5750505090565b9091926104d96104d26001926104c187610476565b6001600160a01b0316815260200190565b9460010190565b92910161049f565b906100b391610480565b90610176610505926104fc60405190565b938480926104e1565b0383610226565b6100b3906104eb565b6100b3600061050c565b610527610ea0565b610176610545565b6100a76100b36100b39290565b6100b39061052f565b610176610552600061053c565b610f03565b61017661051f565b6100b37f9016d09d72d40fdae2fd8ceac6b6234c7706214fd39c1cd1e609a0528c199300610476565b61017690610594610ea0565b610869565b6100b3906100a7906001600160a01b031682565b6100b390610599565b6100b3906105ad565b906105c9906105b6565b600052602052604060002090565b6100b39081565b6100b390546105d7565b156105ef57565b60405162461bcd60e51b81526020600482015260096024820152681393d517d193d5539160ba1b6044820152606490fd5b6100b36100b36100b39290565b634e487b7160e01b600052601160045260246000fd5b9190820391821161065057565b61062d565b916001600160a01b0360089290920291821b911b610673565b921b90565b9181191691161790565b919061068e6100b3610696936105b6565b908354610655565b9055565b9060001990610673565b906106b46100b361069692610620565b825461069a565b634e487b7160e01b600052603160045260246000fd5b6101769160009161067d565b805480156107005760001901906106fd6106f783836103ea565b906106d1565b55565b6106bb565b9160001960089290920291821b911b610673565b919061072a6100b361069693610620565b908354610705565b61017691600091610719565b60005b8381106107515750506000910152565b8181015183820152602001610741565b9092919261077161029882610260565b93818552818301116100975761017691602085019061073e565b9080601f830112156100975781516100b392602001610761565b906020828203126100975781516001600160401b038111610097576100b3920161078b565b6040513d6000823e3d90fd5b6100ba6107ee926020926107e8815190565b94859290565b9384910161073e565b6108076100ba91602094936107d6565b918252565b61082161081860405190565b928392836107f7565b03902090565b6100b39161080c565b9190600861067391029161066e60ff841b90565b91906108556100b361069693151590565b908354610830565b61017691600091610844565b6002906108fa61088161087c83856105bf565b6105de565b6108f583600095836108bb61089a6104498a97886103ea565b6108b56001600160a01b0386165b916001600160a01b031690565b146105e8565b6108d66108c6865490565b6108d06001610620565b90610643565b908181036109a7575b50506108f06108eb8590565b6106dd565b6105bf565b610732565b61090b610906826105b6565b6105b6565b918061091660405190565b6306fdde0360e01b815293849060049082905afa9081156109a25761094b61090692610950958391610980575b506001610827565b61085d565b7f15db1813f994e3207e1b7cd688154dca03609984e865399cd2163d9eb3b0a63c61097a60405190565b600090a2565b61099c91503d8085833e6109948183610226565b8101906107a5565b38610943565b6107ca565b6109d46109ba6104496109d994896103ea565b6109ce816109c8858b6103ea565b9061067d565b846105bf565b6106a4565b38806108df565b61017690610588565b6100b39060401c5b60ff1690565b6100b390546109e9565b6100b3905b6001600160401b031690565b6100b39054610a01565b610a066100b36100b39290565b906001600160401b0390610673565b610a066100b36100b3926001600160401b031690565b90610a5e6100b361069692610a38565b8254610a29565b9068ff00000000000000009060401b610673565b90610a896100b361069692151590565b8254610a65565b6100b690610a1c565b6020810192916101769190610a90565b610ab1610f74565b9081610acc610ac6610ac2836109f7565b1590565b91610a12565b90600092610ad984610a1c565b6001600160401b0384161480610bd7575b600193610b06610af986610a1c565b916001600160401b031690565b149081610baf575b155b9081610ba6575b50610b9757610b409082610b3786610b2e87610a1c565b98019788610a4e565b610b8857610bde565b610b4957505050565b610b77610b83927fc7f505b2f371ae2175ee4913f4499e1f2633a7b5936321eed1cdaeb6115181d294610a79565b60405191829182610a99565b0390a1565b610b928487610a79565b610bde565b63f92ee8a960e01b8452600484fd5b15905038610b17565b9050610b10610bbd306105b6565b3b610bce610bca88610620565b9190565b14919050610b0e565b5081610aea565b6101769061055281610f91565b61017690610aa9565b906100b3969594939291610c06610ea0565b610d4b565b6100b3906109f1565b6100b39054610c0b565b15610c2557565b60405162461bcd60e51b815260206004820152600a6024820152692720a6a2afaa20a5a2a760b11b6044820152606490fd5b610c78610c816020936100ba93610c6c815190565b80835293849260200190565b9586910161073e565b601f01601f191690565b959194610ce1610cf595610cda610cc86100b39b99610cba8c610ce89860e08201916000818403910152610c57565b8c810360208e015290610c57565b6001600160a01b0390971660408b0152565b6060890152565b6080870152565b84820360a0860152610c57565b9160c0818403910152610c57565b908154916801000000000000000083101561024757826109c8916001610176950181556103ea565b9060ff90610673565b90610d446100b361069692151590565b8254610d2b565b5094600194610d6d610d68610ac2610d638a8a610827565b610c14565b610c1e565b604051946142fd8601948686106001600160401b03871117610247578695610d9f956142fd61101789398a3392610c8b565b03906000f080156109a25781610dd8610df593610dd3610dc1610dea956105b6565b96610dcd886000610d03565b82610827565b610d34565b6108d0610de460005490565b91610620565b6109d48360026105bf565b610dfe816105b6565b7f75432e2e509efcaf947efcc7a5a6b6b3562425b29e9725c7a4a5c652291ac35d610e2860405190565b600090a290565b6100b39594939291906000610bf4565b61017690610e4b610ea0565b6000610e568161053c565b6001600160a01b0381166001600160a01b03841614610e7a57505061017690610f03565b631e4fbdf760e01b82526001600160a01b03166004820152602490fd5b61017690610e3f565b610ea861055f565b3390610eb3826108a8565b03610ebb5750565b63118cdaa760e01b60009081526001600160a01b039091166004526024036000fd5b906001600160a01b0390610673565b90610efc6100b3610696926105b6565b8254610edd565b610f43610f3d7f9016d09d72d40fdae2fd8ceac6b6234c7706214fd39c1cd1e609a0528c19930061090684610f3783610476565b92610eec565b916105b6565b907f8be0079c531659141344cd1fd0a4f28419497f9722a3daafe3b4186f6b6457e0610f6e60405190565b600090a3565b6100b3610fc3565b61017690610f88610fcb565b61017690610ffa565b61017690610f7c565b6100b37ff0c57e16840df040f15088dc2f81fe391c3923bec73e23a9662efc9c229c6a00610620565b6100b3610f9a565b610fd6610ac2611003565b610fdc57565b631afcd79f60e31b6000908152600490fd5b61017690610e4b610fcb565b61017690610fee565b6100b36000611010610f74565b016109f756fe610160604052346100745761002161001561024d565b959490949391936104fc565b6040516139106109ed82396080518161354d015260a0518161357a015260c0518161351a015260e051816138450152610100518161382401526101205181612e0101526101405181612e2e015261391090f35b600080fd5b634e487b7160e01b600052604160045260246000fd5b90601f01601f191681019081106001600160401b038211176100b057604052565b610079565b906100c96100c260405190565b928361008f565b565b6001600160401b0381116100b057602090601f01601f19160190565b0190565b60005b8381106100fe5750506000910152565b81810151838201526020016100ee565b9092919261012361011e826100cb565b6100b5565b9381855281830111610074576100c99160208501906100eb565b9080601f830112156100745781516101579260200161010e565b90565b6001600160a01b031690565b6001600160a01b0381165b0361007457565b905051906100c982610166565b80610171565b905051906100c982610185565b9060e0828203126100745781516001600160401b03811161007457816101bf91840161013d565b60208301519093906001600160401b03811161007457826101e191850161013d565b926101ef8360408301610178565b926101fd816060840161018b565b9261020b826080850161018b565b60a08401519093906001600160401b038111610074578361022d91830161013d565b60c08201519093906001600160401b03811161007457610157920161013d565b61026b6142fd80380380610260816100b5565b928339810190610198565b90919293949596565b9061028161011e836100cb565b918252565b6102906001610274565b603160f81b602082015290565b610157610286565b90600019905b9181191691161790565b6101576101576101579290565b906102d26101576102d9926102b5565b82546102a5565b9055565b634e487b7160e01b600052602260045260246000fd5b9060016002830492168015610313575b602083101461030e57565b6102dd565b91607f1691610303565b9160001960089290920291821b911b6102ab565b91906103426101576102d9936102b5565b90835461031d565b6100c991600091610331565b818110610361575050565b8061036f600060019361034a565b01610356565b9190601f811161038457505050565b6103966100c993600052602060002090565b906020601f8401819004830193106103b8575b6020601f909101040190610356565b90915081906103a9565b906103cb815190565b906001600160401b0382116100b0576103ee826103e885546102f3565b85610375565b602090601f8311600114610429576102d992916000918361041e575b5050600019600883021c1916906002021790565b01519050388061040a565b601f1983169161043e85600052602060002090565b9260005b81811061047c57509160029391856001969410610463575b50505002019055565b01516000196008601f8516021c1916905538808061045a565b91936020600181928787015181550195019201610442565b906100c9916103c2565b6101579061015a906001600160a01b031682565b6101579061049e565b610157906104b2565b906104ce906104bb565b600052602052604060002090565b9060ff906102ab565b906104f56101576102d992151590565b82546104dc565b6105409461052b6105649895610524610539969995610532958b61051e61029d565b82610594565b600f6102c2565b60106102c2565b600d610494565b600e610494565b61054a600161071f565b61055f600161055a8360126104c4565b6104e5565b6104bb565b7ff37f0cb2b2cc8066b1fa4738122412661ce5405cd9278f327d6905bb6d0e973f61058e60405190565b600090a2565b90926105e1946105a7916105c89461060e565b6105b2600b8261076f565b610120526105c1600c8461076f565b6101405290565b6105da6105d3825190565b9160200190565b2060e05290565b6105ec6105d3825190565b20610100524660a0526105fd6107f3565b608052610609306104bb565b60c052565b906100c99291610623565b61015760016102b5565b9061062e9291610640565b6100c9610639610619565b600a6102c2565b906100c99291610661565b61015a6101576101579290565b6101579061064b565b9161066b916106bc565b600061067681610658565b6001600160a01b0381166001600160a01b0384161461069a5750506100c990610898565b631e4fbdf760e01b82526001600160a01b0316600482015280602481015b0390fd5b6100c9916106d6916106cf906002610494565b6003610494565b6106de6108ea565b6106e98160006102c2565b6106fa6106f66000199290565b9190565b1061070157565b63fed8210f60e01b6108f4565b6101579081565b610157905461070e565b15610741576100c961072f610619565b6107396011610715565b1760116102c2565b6100c961075361074f610619565b1990565b61075d6011610715565b1660116102c2565b61015760ff6102b5565b805161077e6106f660206102b5565b101561078e576101579150610987565b600061079a6107a09390565b01610494565b610157610157610765565b909594926100c9946107dd6107e4926107d66080966107cf60a088019c6000890152565b6020870152565b6040850152565b6060830152565b01906001600160a01b03169052565b7f8b73c3c69bb8fe3d512ecc4cf759cc79239f7b179b0ffacaa9a75d522b39400f61085061082060e05190565b6101005190610844610831306104bb565b60405195869460208601944692866107ab565b9081038252038261008f565b61085b6105d3825190565b2090565b6101579061015a565b610157905461085f565b906001600160a01b03906102ab565b906108916101576102d9926104bb565b8254610872565b6108b96108b36108a86009610868565b61055f846009610881565b916104bb565b907f8be0079c531659141344cd1fd0a4f28419497f9722a3daafe3b4186f6b6457e06108e460405190565b600090a3565b61015760006102b5565b60005260046000fd5b61091e6109276020936100e793610912815190565b80835293849260200190565b958691016100eb565b601f01601f191690565b6020808252610157929101906108fd565b61095b610957610950835190565b9260200190565b5190565b9060208110610968575090565b61097a90600019906020036008021b90565b1690565b610157906102b5565b80610990825190565b61099d6106f6601f6102b5565b116109c95750610157816109c36109be6109b961015795610942565b61097e565b915190565b176102b5565b6106b8906109d660405190565b63305a27a960e01b81529182916004830161093156fe6080604052600436101561001257600080fd5b60003560e01c806301ffc9a71461029257806306fdde031461028d578063081812fc14610288578063095ea7b31461028357806318160ddd1461027e57806323b872dd14610279578063276a28a314610274578063280007bb1461026f57806330adf81f1461026a5780633f4ba83a1461026557806342842e0e146102605780634d761d251461025b57806355f804b3146102565780635c975abb146102515780636352211e1461024c5780636817c76c1461024757806370a0823114610242578063715018a61461023d5780637ecebe00146102385780638456cb591461023357806384b0196e1461022e5780638da5cb5b146102295780638e6f4fb714610224578063938e3d7b1461021f57806395d89b411461021a5780639fd6db1214610215578063a0712d6814610210578063a22cb4651461020b578063afc0381d14610206578063b80f55c914610201578063b88d4fde146101fc578063b8de5a79146101f7578063bdf9ad3b146101f2578063c87b56dd146101ed578063d5abeb01146101e8578063e31c6732146101e3578063e8a3d485146101de578063e985e9c5146101d9578063f2fde38b146101d45763f4a0a5280361029757610eb9565b610ea1565b610e85565b610e47565b610e2f565b610e14565b610ded565b610dd4565b610d84565b610bc7565b610b60565b610b20565b610b07565b610ab7565b610a9c565b610a81565b610a69565b610a38565b610970565b61093c565b610852565b610837565b6107cc565b6107b1565b610796565b610759565b61073e565b610726565b61067b565b610565565b61054d565b610514565b6104fc565b6104cd565b6104b9565b610465565b61044c565b6103d8565b61037e565b6102d5565b600080fd5b6001600160e01b031981165b0361029757565b905035906102bc8261029c565b565b90602082820312610297576102d2916102af565b90565b34610297576103036102f06102eb3660046102be565b610ef1565b6040515b91829182901515815260200190565b0390f35b600091031261029757565b60005b8381106103255750506000910152565b8181015183820152602001610315565b61035661035f6020936103699361034a815190565b80835293849260200190565b95869101610312565b601f01601f191690565b0190565b60208082526102d292910190610335565b346102975761038e366004610307565b610303610399611059565b6040519182918261036d565b806102a8565b905035906102bc826103a5565b90602082820312610297576102d2916103ab565b6001600160a01b031690565b34610297576103036103f36103ee3660046103b8565b611076565b604051918291826001600160a01b03909116815260200190565b6001600160a01b0381166102a8565b905035906102bc8261040d565b9190604083820312610297576102d2906020610445828661041c565b94016103ab565b61046061045a366004610429565b906110ad565b604051005b3461029757610475366004610307565b6103036104806110b9565b6040519182918290815260200190565b9091606082840312610297576102d26104a9848461041c565b936040610445826020870161041c565b6104606104c7366004610490565b9161116e565b34610297576103036102f06104e33660046103b8565b6113a7565b90602082820312610297576102d29161041c565b346102975761046061050f3660046104e8565b61145d565b3461029757610524366004610307565b6103037fa2b3717997cc9836a1d298a330df07a724d4decfea125bd87ff70e3c83e0fde8610480565b346102975761055d366004610307565b6104606114fe565b610460610573366004610490565b91611560565b634e487b7160e01b600052604160045260246000fd5b90601f01601f191681019081106001600160401b038211176105b057604052565b610579565b906102bc6105c260405190565b928361058f565b6001600160401b0381116105b05760208091020190565b909291926105f56105f0826105c9565b6105b5565b938185526020808601920283019281841161029757915b8383106106195750505050565b6020809161062784866103ab565b81520192019161060c565b9080601f83011215610297578160206102d2933591016105e0565b9190604083820312610297578235906001600160401b038211610297576020610445826102d2948701610632565b346102975761046061068e36600461064d565b9061185b565b6001600160401b0381116105b057602090601f01601f19160190565b90826000939282370152565b909291926106cc6105f082610694565b9381855281830111610297576102bc9160208501906106b0565b9080601f83011215610297578160206102d2933591016106bc565b906020828203126102975781356001600160401b038111610297576102d292016106e6565b3461029757610460610739366004610701565b611a2c565b346102975761074e366004610307565b6103036102f0611ab6565b34610297576103036103f361076f3660046103b8565b611ac0565b6102d2916008021c81565b906102d29154610774565b6102d26000601061077f565b34610297576107a6366004610307565b61030361048061078a565b34610297576103036104806107c73660046104e8565b611af6565b34610297576107dc366004610307565b610460611b56565b6102d2906103cc906001600160a01b031682565b6102d2906107e4565b6102d2906107f8565b9061081490610801565b600052602052604060002090565b60006108326102d292601461080a565b61077f565b346102975761030361048061084d3660046104e8565b610822565b3461029757610862366004610307565b610460611b5e565b9061088a610883610879845190565b8084529260200190565b9260200190565b9060005b81811061089b5750505090565b9091926108b86108b16001928651815260200190565b9460200190565b92910161088e565b9395919461091861091061092f95610902610928956102d29c9a6108f560e08c019260008d01906001600160f81b0319169052565b8a820360208c0152610335565b9088820360408a0152610335565b976060870152565b6001600160a01b03166080850152565b60a0830152565b60c081840391015261086a565b346102975761094c366004610307565b610303610957611bd1565b9361096797959793919360405190565b978897886108c0565b3461029757610980366004610307565b6103036103f3611c17565b6102d26102d26102d29290565b906108149061098b565b6102d29081565b6102d290546109a2565b6102d2905b60ff1690565b6102d290546109b3565b6109d3906013610998565b906109dd826109a9565b916109ea600182016109a9565b916102d260036109fc600285016109a9565b93016109be565b610a306102bc94610a29606094989795610a22608086019a6000870152565b6020850152565b6040830152565b019015159052565b3461029757610303610a53610a4e3660046103b8565b6109c8565b90610a6094929460405190565b94859485610a03565b3461029757610460610a7c366004610701565b611c21565b3461029757610a91366004610307565b610303610399611c90565b3461029757610aac366004610307565b6103036102f0611ca4565b3461029757610460610aca3660046103b8565b611e9e565b8015156102a8565b905035906102bc82610acf565b9190604083820312610297576102d2906020610b00828661041c565b9401610ad7565b3461029757610460610b1a366004610ae4565b90611ea7565b34610297576103036102f0610b363660046104e8565b611eff565b906020828203126102975781356001600160401b038111610297576102d29201610632565b3461029757610460610b73366004610b3b565b6120a5565b9060808282031261029757610b8d818361041c565b92610b9b826020850161041c565b92610ba983604083016103ab565b9260608201356001600160401b038111610297576102d292016106e6565b610460610bd5366004610b78565b929190916120ae565b60ff81166102a8565b905035906102bc82610bde565b90929192610c046105f0826105c9565b938185526020808601920283019281841161029757915b838310610c285750505050565b60208091610c368486610be7565b815201920191610c1b565b9080601f83011215610297578160206102d293359101610bf4565b90929192610c6c6105f0826105c9565b938185526020808601920283019281841161029757915b838310610c905750505050565b60208091610c9e84866103ab565b815201920191610c83565b9080601f83011215610297578160206102d293359101610c5c565b9190916101008184031261029757610cdc838261041c565b92610cea816020840161041c565b92610cf8826040850161041c565b9260608101356001600160401b0381116102975783610d18918301610632565b92610d2681608084016103ab565b9260a08301356001600160401b0381116102975782610d46918501610c41565b9260c08101356001600160401b0381116102975783610d66918301610ca9565b9260e08201356001600160401b038111610297576102d29201610ca9565b3461029757610460610d97366004610cc4565b9695909594919493929361247f565b9190604083820312610297578235906001600160401b038211610297576020610b00826102d2948701610632565b3461029757610460610de7366004610da6565b90612704565b3461029757610303610399610e033660046103b8565b612722565b6102d26000600f61077f565b3461029757610e24366004610307565b610303610480610e08565b3461029757610460610e423660046104e8565b6127cc565b3461029757610e57366004610307565b610303610399612859565b9190604083820312610297576102d2906020610e7e828661041c565b940161041c565b34610297576103036102f0610e9b366004610e62565b90612863565b3461029757610460610eb43660046104e8565b6128d6565b3461029757610460610ecc3660046103b8565b6128df565b610ee4610ede6102d29290565b60e01b90565b6001600160e01b03191690565b610efe6301ffc9a7610ed1565b6001600160e01b0319821614908115610f40575b8115610f1c575090565b9050610f3c610f2e635b5e139f610ed1565b916001600160e01b03191690565b1490565b9050610f4f6380ac58cd610ed1565b6001600160e01b031982161490610f12565b634e487b7160e01b600052602260045260246000fd5b9060016002830492168015610f97575b6020831014610f9257565b610f61565b91607f1691610f87565b80546000939291610fbe610fb483610f77565b8085529360200190565b91600181169081156110105750600114610fd757505050565b610fea9192939450600052602060002090565b916000925b818410610ffc5750500190565b805484840152602090930192600101610fef565b92949550505060ff1916825215156020020190565b906102d291610fa1565b906102bc6110499261104060405190565b93848092611025565b038361058f565b6102d29061102f565b6102d26002611050565b6102d2906103cc565b6102d29054611063565b6110866110828261294a565b1590565b6110a057600061109a6102d2926006610998565b0161106c565b6333d1c03960e21b612973565b6102bc916001916129a2565b6110e06110d86110c960006109a9565b6110d360016109a9565b900390565b6110d3612a4a565b9081600019806110ef565b9190565b036110f75750565b6102d291925061036960086109a9565b6102d29081906001600160a01b031681565b6102d26001600160a01b0361098b565b6103cc6102d26102d29290565b90600019905b9181191691161790565b906111566102d261115d9261098b565b8254611136565b9055565b6102d2600160e11b61098b565b91909161118b61118661118084612a61565b926107f8565b611107565b916111a76111a261119a611119565b809516611129565b6107f8565b936111b46111a284611129565b6111cf6001600160a01b0387165b916001600160a01b031690565b0361139b5784926111df83612b31565b9190336001600160a01b0387168114818514171561136c575b506110eb95949361130197936112d59361118693611216600161098b565b92611223848a878d612b89565b611362575b5061125061123789600561080a565b61124a611243826109a9565b6000190190565b90611146565b61127061125e84600561080a565b61124a61126a826109a9565b60010190565b61129c6112868285611280611161565b9b612bfe565b4260a01b908a17176001600160a01b0385161790565b916112b26004936112ad8a86610998565b611146565b6000986112c76112c18b61098b565b91841690565b14611315575b5050506107f8565b1680957fddf252ad1be2c89b69c2b068fc378daa952ba7f163c4a11628f55a4df523b3ef8480a461098b565b1461130857565b633a954ecd60e21b612973565b87019161132a6113258483610998565b6109a9565b6113366110eb8b61098b565b036112cd576113476102d28a6109a9565b83146112cd5761135a926112ad91610998565b3880806112cd565b6000905538611228565b6110829061137e929894969597612863565b61138e57869492939195386111f8565b632ce44b5f60e11b612973565b62a1148160e81b612973565b60036113c06102d2926113b8600090565b506013610998565b016109be565b156113cd57565b60405162461bcd60e51b815260206004820152600b60248201526a1393d517d0531313d5d15160aa1b604482015280606481015b0390fd5b1561140c57565b60405162461bcd60e51b81526020600482015260096024820152681393d517d193d5539160ba1b6044820152606490fd5b9060ff9061113c565b906114566102d261115d92151590565b825461143d565b6114b39061146c6103cc611c17565b331480156114e5575b61147e906113c6565b61149961149461148f83601261080a565b6109be565b611405565b6114ae60006114a983601261080a565b611446565b610801565b7f566163b435df210872aafff6e352033418c951e1538d138dfbccd622c4b022d06114dd60405190565b80805b0390a2565b5061147e6114f761148f33601261080a565b9050611475565b6115096103cc611c17565b33148015611523575b61151b906113c6565b6102bc612ca9565b5061151b61153561148f33601261080a565b9050611512565b906115496105f083610694565b918252565b6102d2600061153c565b6102d261154e565b90916102bc9261156e611558565b926120ae565b906102bc91611581612cb1565b906115939161158e612cdb565b6116d1565b6102bc612d11565b634e487b7160e01b600052603260045260246000fd5b906115ba825190565b8110156115cb576020809102010190565b61159b565b156115d757565b60405162461bcd60e51b815260206004820152600f60248201526e1513d2d15397d393d517d1561254d5608a1b6044820152606490fd5b1561161557565b60405162461bcd60e51b815260206004820152600e60248201526d1053149150511657d313d0d2d15160921b6044820152606490fd5b6102d260806105b5565b60036116a960606102bc9461167461166e600083015190565b86611146565b61168b611682602083015190565b60018701611146565b6116a2611699604083015190565b60028701611146565b0151151590565b9101611446565b906102bc91611655565b9081526040810192916102bc9160200152565b0152565b91906116e161148f33601261080a565b8015611848575b801561181a575b6116f8906113c6565b600092611705600061098b565b6117106102d2835190565b811015611813578061173c61173761173261172e61180e95876115b1565b5190565b61294a565b6115d0565b6117ba601361176761176261108260036113c061175c61172e898c6115b1565b86610998565b61160e565b6117b561177261164b565b9161177d428b850152565b611788886020850152565b61179b6117948b61098b565b6040850152565b600160608401526117af61172e86896115b1565b90610998565b6116b0565b6117cf6117ca61172e83866115b1565b61098b565b7ff25fd82f8bf40df41b90b95a0159c55596f50b182d7b7dff1d3e04a5a16ac7c46117f960405190565b806118058842836116ba565b0390a260010190565b611705565b5050509050565b506116f861183761076f61172e611831600061098b565b876115b1565b611840336111c2565b1490506116ef565b506118546103cc611c17565b33146116e8565b906102bc91611574565b9160001960089290920291821b911b61113c565b919061188a6102d261115d9361098b565b908354611865565b6102bc91600091611879565b8181106118a9575050565b806118b76000600193611892565b0161189e565b9190601f81116118cc57505050565b6118de6102bc93600052602060002090565b906020601f840181900483019310611900575b6020601f90910104019061189e565b90915081906118f1565b90611913815190565b906001600160401b0382116105b057611936826119308554610f77565b856118bd565b602090601f83116001146119715761115d929160009183611966575b5050600019600883021c1916906002021790565b015190503880611952565b601f1983169161198685600052602060002090565b9260005b8181106119c4575091600293918560019694106119ab575b50505002019055565b01516000196008601f8516021c191690553880806119a2565b9193602060018192878701518155019501920161198a565b906102bc9161190a565b6103696119fe926020926119f8815190565b94859290565b93849101610312565b6102d2916119e6565b611a2690611a1d60405190565b91829182611a07565b03902090565b611a5d90611a3b6103cc611c17565b33148015611a87575b611a4d906113c6565b611a5881600d6119dc565b611a10565b7f6741b2fc379fad678116fe3d4d4b9a1a184ab53ba36b86ad0fa66340b1ab41ad6114dd60405190565b50611a4d611a9961148f33601261080a565b9050611a44565b6102d29060a01c6109b8565b6102d29054611aa0565b6102d26009611aac565b6111a2611ad86102d292611ad2600090565b50612a61565b611129565b6102d290611129565b6102d26001600160401b0361098b565b611b036103cc6000611add565b6001600160a01b03821614611b2c57611325611b2091600561080a565b611b28611ae6565b1690565b6323d3ad8160e21b612973565b611b41612d23565b6102bc6102bc611b516000611add565b612d60565b6102bc611b39565b611b696103cc611c17565b33148015611b83575b611b7b906113c6565b6102bc612df4565b50611b7b611b9561148f33601261080a565b9050611b72565b906115496105f0836105c9565b369037565b906102bc611bc4611bbe84611b9c565b936105c9565b601f190160208401611ba9565b611bd9612dfc565b90611be2612e29565b90611bec30610801565b611bf6600061098b565b611c08611c03600061098b565b611bae565b600f60f81b9594934693929190565b6102d2600961106c565b611c4d90611c306103cc611c17565b33148015611c77575b611c42906113c6565b611a5881600e6119dc565b7f905d981207a7d0b6c62cc46ab0be2a076d0298e4a86d0ab79882dbd01ac373786114dd60405190565b50611c42611c8961148f33601261080a565b9050611c39565b6102d26003611050565b6102d2600161098b565b611cae60116109a9565b611cc8611cb9611c9a565b611cc3600061098b565b921690565b141590565b6102bc90611cd9612cb1565b61159390611ce5612cdb565b611dcb565b15611cf157565b60405162461bcd60e51b815260206004820152601060248201526f1352539517d393d517d153905093115160821b6044820152606490fd5b634e487b7160e01b600052601160045260246000fd5b91908201809211611d4c57565b611d29565b15611d5857565b60405162461bcd60e51b815260206004820152600c60248201526b13505617d15610d15151115160a21b6044820152606490fd5b15611d9357565b60405162461bcd60e51b815260206004820152601060248201526f494e56414c49445f5155414e5449545960801b6044820152606490fd5b611dd961148f33601261080a565b8015611e86575b611de9906113c6565b611df9611df4611ca4565b611cea565b611e24611e0d82611e08612e54565b611d3f565b611e1d6110eb6102d2600f6109a9565b1115611d51565b611e38611e31600061098b565b8211611d8c565b7fc0268504b7f19691951d6e4e0f6a77c6d432f0276be23b1250142315f1429a606114e0611e71611e67612e61565b6117ca8533612e75565b92611e7b60405190565b9182914290836116ba565b50611de9611e956103cc611c17565b33149050611de0565b6102bc90611ccd565b7f17307eab39ab6107e8899845ad3d59bd9653f200f220920489ca2b5937696c31611efa611ef0611eea336114ae876114a988611ee585600761080a565b61080a565b93610801565b936102f460405190565b0390a3565b61148f6102d291611f0e600090565b50601261080a565b6102bc90611f22612cb1565b61159390611f2e612cdb565b611fb1565b15611f3a57565b60405162461bcd60e51b81526020600482015260146024820152731513d2d15397d113d154d7d393d517d1561254d560621b6044820152606490fd5b15611f7d57565b60405162461bcd60e51b815260206004820152600c60248201526b1393d517d054141493d5915160a21b6044820152606490fd5b90611fc061148f33601261080a565b801561208d575b611fd0906113c6565b611fda600061098b565b611fe56102d2845190565b811015612088578061200861200361173261172e61208395886115b1565b611f33565b61202761202261201b61172e84886115b1565b3390612fe1565b611f76565b61203c61203761172e83876115b1565b613048565b61204c6117ca61172e83876115b1565b7f43ce8febc9822756d8f34b35cd628db23dc57fe810cb077080d7c740fcc6988f61207660405190565b4281528060208101611805565b611fda565b509050565b50611fd061209c6103cc611c17565b33149050611fc7565b6102bc90611f16565b919290926120bd81858561116e565b833b6120cc6110eb600061098b565b036120d8575b50505050565b6120e593611082936130e8565b6120f257388080806120d2565b6368d2bf6b60e11b612973565b906102bc97969594939291612112612cb1565b9061159397969594939291612125612cdb565b612224565b1561213157565b60405162461bcd60e51b81526020600482015260076024820152661156141254915160ca1b6044820152606490fd5b1561216757565b60405162461bcd60e51b815260206004820152600e60248201526d494e56414c49445f504152414d5360901b6044820152606490fd5b156121a457565b60405162461bcd60e51b81526020600482015260096024820152682727aa2fa7aba722a960b91b6044820152606490fd5b6000198114611d4c5760010190565b156121eb57565b60405162461bcd60e51b8152602060048201526011602482015270494e56414c49445f5349474e415455524560781b6044820152606490fd5b9591949796929361223961148f83601261080a565b801561246d575b612249906113c6565b61225481421061212a565b84516122646110eb6102d28c5190565b1480612456575b80612434575b61227a90612160565b612284600061098b565b61228f6102d2875190565b811015612428578061240c6123f48c6123d36123cc856123c68f8f8f91826123a28f948f90946124239f61173761173261172e6122cf936123ae9a6115b1565b6122fa6122e261076f61172e8c886115b1565b6122f46001600160a01b0388166111c2565b1461219d565b61232861172e8a7fa2b3717997cc9836a1d298a330df07a724d4decfea125bd87ff70e3c83e0fde8966115b1565b61233386601461080a565b9161234a612340846109a9565b9361124a856121d5565b6040519889976020890197889081526001600160a01b03909116602082015260e081019695949093909290916001600160a01b031660408501526001600160a01b03166060840152608083015260a082015260c00152565b9081038252038261058f565b6123c06123b9825190565b9160200190565b206131a7565b936115b1565b5160ff1690565b6123e061172e868b6115b1565b906123ee61172e878d6115b1565b926131d0565b6124066001600160a01b038c166111c2565b146121e4565b61126a61241c61172e838a6115b1565b898b61116e565b612284565b50505050505050509050565b5061227a612440865190565b61244e6110eb6102d2885190565b149050612271565b5084516124676110eb6102d2865190565b1461226b565b50336001600160a01b03831614612240565b906102bc979695949392916120ff565b906102bc9161249c612cb1565b90611593916124a9612cdb565b612543565b156124b557565b60405162461bcd60e51b815260206004820152600a6024820152691393d517d313d0d2d15160b21b6044820152606490fd5b156124ee57565b60405162461bcd60e51b815260206004820152601060248201526f05343484544554c45445f4c4f434b55560841b6044820152606490fd5b9081526060810193926102bc9290916040916116cd906020830152565b9061255261148f33601261080a565b80156126f1575b80156126c3575b612569906113c6565b600091612576600061098b565b6125816102d2835190565b8110156120d25780828592601361259882846115b1565b516125a39082610998565b6003016125af906109be565b6125b8906124ae565b818386838a8b159961266661266061172e7fe025713e18ecccc3359f8ab544eb3a821f0ca3c629eb835f0fc29f37995390729a61265a6126989f6126809b61267a9b61265560019c600361264f6126669e61266c9e61172e9861269d575b61261f906124e7565b61264261263861263261172e8a8a6115b1565b83610998565b6002429101611146565b6117af61172e88886115b1565b01611446565b6115b1565b9c6115b1565b88610998565b016109a9565b946117af61172e8a8d6115b1565b9361098b565b9261180561268d60405190565b928392429184612526565b612576565b5061261f6126b96102d2600161266661175c61172e8d8d6115b1565b4210159050612616565b506125696126e061076f61172e6126da600061098b565b866115b1565b6126e9336111c2565b149050612560565b506126fd6103cc611c17565b3314612559565b906102bc9161248f565b61271c906102d293926119e6565b906119e6565b61272e6110828261294a565b6127835761273a6131f1565b80516127496110eb600061098b565b14612779576102d26123a2916127616102d2946131fb565b9061276b60405190565b93849260208401928361270e565b50506102d2611558565b630a14c4b560e41b612973565b1561279757565b60405162461bcd60e51b815260206004820152600d60248201526c1053149150511657d051111151609a1b6044820152606490fd5b612816906127db6103cc611c17565b33148015612840575b6127ed906113c6565b61280661280161108261148f84601261080a565b612790565b6114ae60016114a983601261080a565b7ff37f0cb2b2cc8066b1fa4738122412661ce5405cd9278f327d6905bb6d0e973f6114dd60405190565b506127ed61285261148f33601261080a565b90506127e4565b6102d2600e611050565b6102d291611ee561148f92612876600090565b50600761080a565b6102bc9061288a612d23565b600061289581611add565b6001600160a01b0381166001600160a01b038416146128b95750506102bc90612d60565b631e4fbdf760e01b82526001600160a01b03166004820152602490fd5b6102bc9061287e565b61292c7f525b762709cc2a983aec5ccdfd807a061f993c91090b5bcd7da92ca254976aaa9161290f6103cc611c17565b33148015612931575b612921906113c6565b610480816010611146565b0390a1565b5061292161294361148f33601261080a565b9050612918565b612952612a4a565b811015908161295f575090565b905061296f6110eb6102d2612e61565b1090565b60005260046000fd5b906001600160a01b039061113c565b9061299b6102d261115d92610801565b825461297c565b916129ac82611ac0565b9080612a2f575b612a10575b6129d9611eea6129df926114ae8660006129d3886006610998565b0161298b565b9161098b565b917f8c5be1e5ebec7d5bd14f71427d1e84f3dd0314c0f7b2291e5b200ac8c7c3b925612a0a60405190565b600090a4565b612a1d6110823383612863565b156129b8576367d9dca160e11b612973565b5033612a436001600160a01b0383166111c2565b14156129b3565b6102d2600061098b565b6102d2600160e01b61098b565b612a69612a4a565b811015612a7e575b636f96cda160e11b612973565b600490612a8f611325826004610998565b91600091612a9c8361098b565b8414612ac6575050612abe612ab8612ab2612a54565b9261098b565b91831690565b03612a715790565b90919250612ad66102d2846109a9565b811015612a7157909190600019015b91612af36113258483610998565b92612afd8361098b565b8414612b25575050612b13612ab8612ab2612a54565b146102d257636f96cda160e11b612973565b90925060001901612ae5565b6102d2612b4891612b40600090565b506006610998565b90815490565b15612b5557565b60405162461bcd60e51b815260206004820152600c60248201526b1513d2d15397d313d0d2d15160a21b6044820152606490fd5b50506102bc9150611082612b9c916113a7565b612b4e565b6102d260e861098b565b6102d290612bbc6110eb6102d29490565b901c90565b612bce6102d26102d29290565b62ffffff1690565b6102d26102d26102d29262ffffff1690565b6102d290612bf96110eb6102d29490565b901b90565b612c33612c38916102d29493612c12600090565b50612c2d612c28612c21612ba1565b8097612bab565b612bc1565b91613240565b612bd6565b612be8565b612c4561324b565b6102bc612c73565b9060ff60a01b9060a01b61113c565b90612c6c6102d261115d92151590565b8254612c4d565b612c7f60006009612c5c565b7f5db9ee0a495bf2e6ff9c91a7834c1ba4fdd244a5e8aa4e537bd38aeae4b073aa61292c336103f3565b6102bc612c3d565b612cb9611ab6565b612cbf57565b63d93c066560e01b6000908152600490fd5b6102d2600261098b565b612ce5600a6109a9565b612ced612cd1565b908114612cff576102bc90600a611146565b633ee5aeb560e01b6000908152600490fd5b6102bc612d1c611c9a565b600a611146565b612d2b611c17565b3390612d36826111c2565b03612d3e5750565b63118cdaa760e01b60009081526001600160a01b039091166004526024036000fd5b612d81612d7b612d70600961106c565b6114ae84600961298b565b91610801565b907f8be0079c531659141344cd1fd0a4f28419497f9722a3daafe3b4186f6b6457e0612dac60405190565b8080611efa565b612dbb612cb1565b6102bc612dca60016009612c5c565b7f62e78cea01bee320cd4e420270b5ea74000d11b0c9f74754ebdbfc544b05a25861292c336103f3565b6102bc612db3565b6102d27f0000000000000000000000000000000000000000000000000000000000000000600b5b9061330a565b6102d27f0000000000000000000000000000000000000000000000000000000000000000600c612e23565b6110e06110d860006109a9565b6102d260006109a9565b6102d2604061098b565b612e7f60006109a9565b91600091612e8c8361098b565b8214612fd45780612f1892612eee612ee3612ea687611add565b612eb2848a8784612b89565b612ece6001851460e11b91612ec68a61098b565b978891612bfe565b4260a01b9117176001600160a01b0385161790565b6112ad886004610998565b612f366111866001936111a2612f1e612f05612e6b565b612f0f600161098b565b998a9182612be8565b17860290565b61124a612f2c84600561080a565b91610369836109a9565b612f3e611119565b16928314612fc857850194928503612f576000196110eb565b11612fbb576001815b612f73575b50505050906102bc91611146565b15612fa9575b83908383867fddf252ad1be2c89b69c2b068fc378daa952ba7f163c4a11628f55a4df523b3ef8180a49081612f60565b9160010191848303612f795780612f65565b6340b23f1d60e11b612973565b622e076360e81b612973565b63b562e8dd60e01b612973565b90612feb82611ac0565b916001600160a01b0382166001600160a01b03841614928315613034575b50821561301557505090565b610f3c9192506130276111c291611076565b926001600160a01b031690565b6130419193508290612863565b9138613009565b60006102bc9161333d565b905051906102bc8261029c565b90602082820312610297576102d291613053565b6001600160a01b039182168152911660208201526102d292608082019290919061309d90610a29565b6060818403910152610335565b6040513d6000823e3d90fd5b610ee4610ede6102d29263ffffffff1690565b3d156130e3576130d83d61153c565b903d6000602084013e565b606090565b916131006114ae6020936130fa600090565b50610801565b63150b7a029360003361313161311560405190565b988996879586946131268c60e01b90565b865260048601613074565b03925af160009281613176575b506131675761314b6130c9565b805161315a6110eb600061098b565b146120f257805190602001fd5b610f2e610ee4610f3c926130b6565b61319991935060203d6020116131a0575b613191818361058f565b810190613060565b913861313e565b503d613187565b6102d2906131b3613504565b6042916040519161190160f01b8352600283015260228201522090565b916102d293916131e8936131e2600090565b506135d2565b909291926136cd565b6102d2600d611050565b90602060a06040510180604052039160008352600a60018492945b0393818106603001855304928315613232576001600a91613216565b809350602091039203918252565b5050506102d2600090565b613256611082611ab6565b61325c57565b638dfc202b60e01b6000908152600490fd5b6102d260ff61098b565b8054600093929161328b610fb483610f77565b916001811690811561101057506001146132a457505050565b6132b79192939450600052602060002090565b916000925b8184106132c95750500190565b8054848401526020909301926001016132bc565b906102d291613278565b906102bc611049926132f860405190565b938480926132dd565b6102d2906132e7565b908161331a6110eb6102d261326e565b1461332957506102d290613796565b6102d29150613301565b6102d2608061098b565b61334681612a61565b906133536111a283611129565b61335c82612b31565b9390946134c9575b6129d9611eea84936102bc976134379461339498976000809361338682611add565b9a61339d8c60019e8f61098b565b9586918a612b89565b6134c1575b50506133ce6133c0826133bc6133b6613333565b82612be8565b0390565b61124a612f2c87600561080a565b6133d6612a54565b906134056133e2611161565b8093176133f0858d89612bfe565b4260a01b9117176001600160a01b0387161790565b916134166004936112ad8c86610998565b6134286134228661098b565b91851690565b14613472575b50505050610801565b917fddf252ad1be2c89b69c2b068fc378daa952ba7f163c4a11628f55a4df523b3ef61346260405190565b600090a461124a61126a826109a9565b8801926134826113258584610998565b61348e6110eb8361098b565b0361342e576102d261349f916109a9565b83036134ac575b8061342e565b6134b9926112ad91610998565b3880806134a6565b5582386133a2565b336001600160a01b038316811485821417156134e6575b50613364565b6110826134f7918493969594612863565b61138e57909192386134e0565b61350d30610801565b61353f6001600160a01b037f0000000000000000000000000000000000000000000000000000000000000000166111c2565b1480613577575b1561356f577f000000000000000000000000000000000000000000000000000000000000000090565b6102d26137fe565b507f00000000000000000000000000000000000000000000000000000000000000004614613546565b6102d29061098b565b6116cd6102bc94610a296060949897956135c8608086019a6000870152565b60ff166020850152565b90916135dd846135a0565b6136096110eb7f7fffffffffffffffffffffffffffffff5d576e7357a4501ddfe92f46681b20a061098b565b1161368a579061362b6020946000949361362260405190565b948594856135a9565b838052039060015afa156136855760005160009161364883611add565b6001600160a01b0381166001600160a01b03841614613671575061366b8361098b565b91929190565b91509161367d9061098b565b909160019190565b6130aa565b5050506136976000611add565b9160039190565b634e487b7160e01b600052602160045260246000fd5b600411156136be57565b61369e565b906102bc826136b4565b906000916136da836136c3565b6136e3826136c3565b036136ed57505050565b6136f760016136c3565b613700826136c3565b036137145763f645eedf60e01b8352600483fd5b61371e60026136c3565b613727826136c3565b03613750575061140161373a83926135a0565b63fce698f760e01b835260048301526024820190565b61376361375d60036136c3565b916136c3565b1461376c575050565b6335e2f38360e21b82526004820152602490fd5b906102bc611bc46137908461153c565b93610694565b61379f81613892565b906137b26137ad602061098b565b613780565b918252602082015290565b909594926102bc946137e86137ef926117946080966137e160a088019c6000890152565b6020870152565b6060830152565b01906001600160a01b03169052565b7f8b73c3c69bb8fe3d512ecc4cf759cc79239f7b179b0ffacaa9a75d522b39400f6138837f00000000000000000000000000000000000000000000000000000000000000007f00000000000000000000000000000000000000000000000000000000000000006123a261387030610801565b60405195869460208601944692866137bd565b61388e6123b9825190565b2090565b6138a56138aa916138a1600090565b5090565b6135a0565b6138b460ff61098b565b166138bf601f61098b565b81116138c85790565b632cd44ac360e21b6000908152600490fdfea26469706673582212207e100c0f0373ab69b92c6ca9e40e603f11dd80bf807e35bc955eb2de3cd6683064736f6c634300081c0033a2646970667358221220412501ae5f59256050e01a6282e4fd529da49ba5e8b2accb83981ac1408246c364736f6c634300081c0033",
  "linkReferences": {},
  "deployedLinkReferences": {}
}