{
  "_format": "hh-sol-artifact-1",
  "contractName": "CollectionFactory",
  "sourceName": "contracts/Factory.sol",
  "abi": [
    {
      "inputs": [
        {
          "internalType": "address",
          "name": "initialOwner",
          "type": "address"
        }
      ],
      "stateMutability": "nonpayable",
      "type": "constructor"
    },
    {
      "inputs": [
        {
          "internalType": "address",
          "name": "owner",
          "type": "address"
        }
      ],
      "name": "OwnableInvalidOwner",
      "type": "error"
    },
    {
      "inputs": [
        {
          "internalType": "address",
          "name": "account",
          "type": "address"
        }
      ],
      "name": "OwnableUnauthorizedAccount",
      "type": "error"
    },
    {
      "anonymous": false,
      "inputs": [
        {
          "indexed": true,
          "internalType": "address",
          "name": "collectionAddress",
          "type": "address"
        },
        {
          "indexed": false,
          "internalType": "string",
          "name": "name",
          "type": "string"
        },
        {
          "indexed": false,
          "internalType": "string",
          "name": "symbol",
          "type": "string"
        },
        {
          "indexed": true,
          "internalType": "address",
          "name": "owner",
          "type": "address"
        }
      ],
      "name": "CollectionCreated",
      "type": "event"
    },
    {
      "anonymous": false,
      "inputs": [
        {
          "indexed": true,
          "internalType": "address",
          "name": "previousOwner",
          "type": "address"
        },
        {
          "indexed": true,
          "internalType": "address",
          "name": "newOwner",
          "type": "address"
        }
      ],
      "name": "OwnershipTransferred",
      "type": "event"
    },
    {
      "inputs": [
        {
          "internalType": "uint256",
          "name": "",
          "type": "uint256"
        }
      ],
      "name": "collections",
      "outputs": [
        {
          "internalType": "address",
          "name": "",
          "type": "address"
        }
      ],
      "stateMutability": "view",
      "type": "function"
    },
    {
      "inputs": [
        {
          "internalType": "string",
          "name": "",
          "type": "string"
        }
      ],
      "name": "collectionsByName",
      "outputs": [
        {
          "internalType": "address",
          "name": "",
          "type": "address"
        }
      ],
      "stateMutability": "view",
      "type": "function"
    },
    {
      "inputs": [
        {
          "internalType": "string",
          "name": "name",
          "type": "string"
        },
        {
          "internalType": "string",
          "name": "symbol",
          "type": "string"
        },
        {
          "internalType": "uint256",
          "name": "maxSupply",
          "type": "uint256"
        },
        {
          "internalType": "uint256",
          "name": "mintPrice",
          "type": "uint256"
        },
        {
          "internalType": "string",
          "name": "baseURI",
          "type": "string"
        },
        {
          "internalType": "string",
          "name": "contractURI_",
          "type": "string"
        }
      ],
      "name": "createCollection",
      "outputs": [
        {
          "internalType": "address",
          "name": "",
          "type": "address"
        }
      ],
      "stateMutability": "nonpayable",
      "type": "function"
    },
    {
      "inputs": [],
      "name": "getCollections",
      "outputs": [
        {
          "internalType": "address[]",
          "name": "",
          "type": "address[]"
        }
      ],
      "stateMutability": "view",
      "type": "function"
    },
    {
      "inputs": [],
      "name": "owner",
      "outputs": [
        {
          "internalType": "address",
          "name": "",
          "type": "address"
        }
      ],
      "stateMutability": "view",
      "type": "function"
    },
    {
      "inputs": [],
      "name": "renounceOwnership",
      "outputs": [],
      "stateMutability": "nonpayable",
      "type": "function"
    },
    {
      "inputs": [
        {
          "internalType": "address",
          "name": "newOwner",
          "type": "address"
        }
      ],
      "name": "transferOwnership",
      "outputs": [],
      "stateMutability": "nonpayable",
      "type": "function"
    }
  ],
  "bytecode": "0x608060405234801561001057600080fd5b5060405161457038038061457083398101604081905261002f916100be565b806001600160a01b03811661005e57604051631e4fbdf760e01b81526000600482015260240160405180910390fd5b6100678161006e565b50506100ee565b600080546001600160a01b038381166001600160a01b0319831681178455604051919092169283917f8be0079c531659141344cd1fd0a4f28419497f9722a3daafe3b4186f6b6457e09190a35050565b6000602082840312156100d057600080fd5b81516001600160a01b03811681146100e757600080fd5b9392505050565b614473806100fd6000396000f3fe608060405234801561001057600080fd5b506004361061007d5760003560e01c80638da5cb5b1161005b5780638da5cb5b146100f6578063d6a4448b14610107578063f2fde38b1461011a578063fdbda0ec1461012d57600080fd5b806346e63586146100825780634d504e88146100a0578063715018a6146100ec575b600080fd5b61008a610140565b604051610097919061044f565b60405180910390f35b6100d46100ae366004610540565b80516020818301810180516002825292820191909301209152546001600160a01b031681565b6040516001600160a01b039091168152602001610097565b6100f46101a2565b005b6000546001600160a01b03166100d4565b6100d461011536600461057d565b6101b6565b6100f461012836600461064f565b61035d565b6100d461013b36600461067f565b61039b565b6060600180548060200260200160405190810160405280929190818152602001828054801561019857602002820191906000526020600020905b81546001600160a01b0316815260019091019060200180831161017a575b5050505050905090565b6101aa6103c5565b6101b460006103f2565b565b60006101c06103c5565b60006001600160a01b03166002886040516101db91906106bc565b908152604051908190036020019020546001600160a01b0316146102465760405162461bcd60e51b815260206004820152601960248201527f436f6c6c656374696f6e20616c7265616479206578697374730000000000000060448201526064015b60405180910390fd5b60008787338888888860405161025b90610442565b61026b9796959493929190610704565b604051809103906000f080158015610287573d6000803e3d6000fd5b506001805480820182556000919091527fb10e2d527612073b26eecdfd717e6a320cf44b4afac2b0732d9fcbe2b7fa0cf60180546001600160a01b0319166001600160a01b038316179055604051909150819081906002906102ea908c906106bc565b90815260405190819003602001812080546001600160a01b039384166001600160a01b031990911617905533918316907f6974864ab24c795f57c207a650ae6763287c14a1c55fedc8506acb02796eb1a590610349908d908d9061077c565b60405180910390a398975050505050505050565b6103656103c5565b6001600160a01b03811661038f57604051631e4fbdf760e01b81526000600482015260240161023d565b610398816103f2565b50565b600181815481106103ab57600080fd5b6000918252602090912001546001600160a01b0316905081565b6000546001600160a01b031633146101b45760405163118cdaa760e01b815233600482015260240161023d565b600080546001600160a01b038381166001600160a01b0319831681178455604051919092169283917f8be0079c531659141344cd1fd0a4f28419497f9722a3daafe3b4186f6b6457e09190a35050565b613c93806107ab83390190565b602080825282518282018190526000918401906040840190835b818110156104905783516001600160a01b0316835260209384019390920191600101610469565b509095945050505050565b634e487b7160e01b600052604160045260246000fd5b600082601f8301126104c257600080fd5b813567ffffffffffffffff8111156104dc576104dc61049b565b604051601f8201601f19908116603f0116810167ffffffffffffffff8111828210171561050b5761050b61049b565b60405281815283820160200185101561052357600080fd5b816020850160208301376000918101602001919091529392505050565b60006020828403121561055257600080fd5b813567ffffffffffffffff81111561056957600080fd5b610575848285016104b1565b949350505050565b60008060008060008060c0878903121561059657600080fd5b863567ffffffffffffffff8111156105ad57600080fd5b6105b989828a016104b1565b965050602087013567ffffffffffffffff8111156105d657600080fd5b6105e289828a016104b1565b9550506040870135935060608701359250608087013567ffffffffffffffff81111561060d57600080fd5b61061989828a016104b1565b92505060a087013567ffffffffffffffff81111561063657600080fd5b61064289828a016104b1565b9150509295509295509295565b60006020828403121561066157600080fd5b81356001600160a01b038116811461067857600080fd5b9392505050565b60006020828403121561069157600080fd5b5035919050565b60005b838110156106b357818101518382015260200161069b565b50506000910152565b600082516106ce818460208701610698565b9190910192915050565b600081518084526106f0816020860160208601610698565b601f01601f19169290920160200192915050565b60e08152600061071760e083018a6106d8565b8281036020840152610729818a6106d8565b6001600160a01b0389166040850152606084018890526080840187905283810360a0850152905061075a81866106d8565b905082810360c084015261076e81856106d8565b9a9950505050505050505050565b60408152600061078f60408301856106d8565b82810360208401526107a181856106d8565b9594505050505056fe608060405234801561001057600080fd5b50604051613c93380380613c9383398101604081905261002f91610437565b848787600261003e83826105a6565b50600361004b82826105a6565b505060008055506001600160a01b03811661008157604051631e4fbdf760e01b8152600060048201526024015b60405180910390fd5b61008a816101bd565b506009805460ff60a01b191690556001600a556013849055601483905560106100b383826105a6565b5060116100c082826105a6565b506012805460ff19169055600060168190556100dc908661020f565b506101077f2fdac322ee704ce09f0773f7f3f92eb98d5e7c836ee9c056cccd5f61041e5e3f8661020f565b50865160208089019190912060408051808201825260018152603160f81b9084015280517f8b73c3c69bb8fe3d512ecc4cf759cc79239f7b179b0ffacaa9a75d522b39400f938101939093528201527fc89efdaa54c0f20c7adf612882df0950f5a951637e0307cdcb4c672f298b8bc660608201524660808201523060a082015260c00160408051601f198184030181529190528051602090910120600e556101b18560006102bf565b50505050505050610664565b600980546001600160a01b038381166001600160a01b0319831681179093556040519116919082907f8be0079c531659141344cd1fd0a4f28419497f9722a3daafe3b4186f6b6457e090600090a35050565b6000828152600b602090815260408083206001600160a01b038516845290915281205460ff166102b5576000838152600b602090815260408083206001600160a01b03861684529091529020805460ff1916600117905561026d3390565b6001600160a01b0316826001600160a01b0316847f2f8788117e7eff1d82e926ec794901d17c78024a50270940304540a733656f0d60405160405180910390a45060016102b9565b5060005b92915050565b6127106001600160601b0382168110156102fe57604051636f483d0960e01b81526001600160601b038316600482015260248101829052604401610078565b6001600160a01b03831661032857604051635b6cc80560e11b815260006004820152602401610078565b50604080518082019091526001600160a01b039092168083526001600160601b039091166020909201829052600160a01b90910217600c55565b634e487b7160e01b600052604160045260246000fd5b600082601f83011261038957600080fd5b81516001600160401b038111156103a2576103a2610362565b604051601f8201601f19908116603f011681016001600160401b03811182821017156103d0576103d0610362565b6040528181528382016020018510156103e857600080fd5b60005b82811015610407576020818601810151838301820152016103eb565b506000918101602001919091529392505050565b80516001600160a01b038116811461043257600080fd5b919050565b600080600080600080600060e0888a03121561045257600080fd5b87516001600160401b0381111561046857600080fd5b6104748a828b01610378565b60208a015190985090506001600160401b0381111561049257600080fd5b61049e8a828b01610378565b9650506104ad6040890161041b565b606089015160808a015160a08b015192975090955093506001600160401b038111156104d857600080fd5b6104e48a828b01610378565b60c08a015190935090506001600160401b0381111561050257600080fd5b61050e8a828b01610378565b91505092959891949750929550565b600181811c9082168061053157607f821691505b60208210810361055157634e487b7160e01b600052602260045260246000fd5b50919050565b601f8211156105a157806000526020600020601f840160051c8101602085101561057e5750805b601f840160051c820191505b8181101561059e576000815560010161058a565b50505b505050565b81516001600160401b038111156105bf576105bf610362565b6105d3816105cd845461051d565b84610557565b6020601f82116001811461060757600083156105ef5750848201515b600019600385901b1c1916600184901b17845561059e565b600084815260208120601f198516915b828110156106375787850151825560209485019460019092019101610617565b50848210156106555786840151600019600387901b60f8161c191681555b50505050600190811b01905550565b613620806106736000396000f3fe6080604052600436106103505760003560e01c80636817c76c116101c6578063a217fddf116100f7578063d547741f11610095578063ed24911d1161006f578063ed24911d146109ca578063f12e061b146109df578063f2fde38b146109ff578063f698da25146109ca57600080fd5b8063d547741f1461094b578063d5abeb011461096b578063e985e9c51461098157600080fd5b8063b88d4fde116100d1578063b88d4fde146108d8578063b8adbb62146108eb578063bc5779401461090b578063c87b56dd1461092b57600080fd5b8063a217fddf14610883578063a22cb46514610898578063a31ff450146108b857600080fd5b806382666bc81161016457806391d148541161013e57806391d1485414610814578063938e3d7b1461083457806395d89b41146108545780639fd6db121461086957600080fd5b806382666bc8146107c15780638456cb59146107e15780638da5cb5b146107f657600080fd5b806370a08231116101a057806370a082311461074057806370ae92d214610760578063715018a61461079657806380c47440146107ab57600080fd5b80636817c76c146106e85780636cc232e9146106fe5780636ce76f301461071e57600080fd5b80632a959b89116102a05780634b14b50e1161023e5780635944c753116102185780635944c753146106695780635c975abb14610689578063633d9488146106a85780636352211e146106c857600080fd5b80634b14b50e146106095780634ea3871a1461062957806355f804b31461064957600080fd5b80633736d8531161027a5780633736d853146105a15780633f4ba83a146105c157806342842e0e146105d657806342966c68146105e957600080fd5b80632a959b89146105415780632f2ff15d1461056157806336568abe1461058157600080fd5b80630cdafea61161030d57806323b872dd116102e757806323b872dd1461049f578063248a9ca3146104b2578063276a28a3146104e25780632a55205a1461050257600080fd5b80630cdafea61461043957806318160ddd14610474578063233dedf11461048957600080fd5b806301ffc9a71461035557806304634d8d1461038a578063046978dd146103ac57806306fdde03146103cc578063081812fc146103ee578063095ea7b314610426575b600080fd5b34801561036157600080fd5b50610375610370366004612d61565b610a1f565b60405190151581526020015b60405180910390f35b34801561039657600080fd5b506103aa6103a5366004612dac565b610a30565b005b3480156103b857600080fd5b506103aa6103c7366004612ddf565b610afb565b3480156103d857600080fd5b506103e1610b50565b6040516103819190612e48565b3480156103fa57600080fd5b5061040e610409366004612ddf565b610be2565b6040516001600160a01b039091168152602001610381565b6103aa610434366004612e5b565b610c1d565b34801561044557600080fd5b50610466610454366004612ddf565b60176020526000908152604090205481565b604051908152602001610381565b34801561048057600080fd5b50600054610466565b34801561049557600080fd5b50610466600f5481565b6103aa6104ad366004612e85565b610c2d565b3480156104be57600080fd5b506104666104cd366004612ddf565b6000908152600b602052604090206001015490565b3480156104ee57600080fd5b506103756104fd366004612ddf565b610da9565b34801561050e57600080fd5b5061052261051d366004612ec2565b610df3565b604080516001600160a01b039093168352602083019190915201610381565b34801561054d57600080fd5b506103aa61055c366004612ee4565b610e7a565b34801561056d57600080fd5b506103aa61057c366004612f17565b611105565b34801561058d57600080fd5b506103aa61059c366004612f17565b611130565b3480156105ad57600080fd5b506103aa6105bc366004612ddf565b611163565b3480156105cd57600080fd5b506103aa61121b565b6103aa6105e4366004612e85565b61123e565b3480156105f557600080fd5b506103aa610604366004612ddf565b611259565b34801561061557600080fd5b506103aa610624366004612f7f565b6112f0565b34801561063557600080fd5b506103aa610644366004612fdb565b6113cf565b34801561065557600080fd5b506103aa610664366004613086565b611428565b34801561067557600080fd5b506103aa6106843660046130cf565b61147c565b34801561069557600080fd5b50600954600160a01b900460ff16610375565b3480156106b457600080fd5b506103aa6106c3366004612ddf565b611568565b3480156106d457600080fd5b5061040e6106e3366004612ddf565b6115e2565b3480156106f457600080fd5b5061046660145481565b34801561070a57600080fd5b506103aa61071936600461310b565b6115ed565b34801561072a57600080fd5b506104666000805160206135cb83398151915281565b34801561074c57600080fd5b5061046661075b36600461310b565b611655565b34801561076c57600080fd5b5061046661077b36600461310b565b6001600160a01b031660009081526015602052604090205490565b3480156107a257600080fd5b506103aa61169b565b3480156107b757600080fd5b5061046660165481565b3480156107cd57600080fd5b506103aa6107dc366004613146565b6116af565b3480156107ed57600080fd5b506103aa611a05565b34801561080257600080fd5b506009546001600160a01b031661040e565b34801561082057600080fd5b5061037561082f366004612f17565b611a25565b34801561084057600080fd5b506103aa61084f366004613086565b611a50565b34801561086057600080fd5b506103e1611aa4565b34801561087557600080fd5b506012546103759060ff1681565b34801561088f57600080fd5b50610466600081565b3480156108a457600080fd5b506103aa6108b33660046131b6565b611ab3565b3480156108c457600080fd5b506103aa6108d33660046131e0565b611b1f565b6103aa6108e6366004613222565b611bed565b3480156108f757600080fd5b506103aa610906366004612ec2565b611c28565b34801561091757600080fd5b50610466610926366004612e85565b611c98565b34801561093757600080fd5b506103e1610946366004612ddf565b611d56565b34801561095757600080fd5b506103aa610966366004612f17565b611dd9565b34801561097757600080fd5b5061046660135481565b34801561098d57600080fd5b5061037561099c36600461328a565b6001600160a01b03918216600090815260076020908152604080832093909416825291909152205460ff1690565b3480156109d657600080fd5b50600e54610466565b3480156109eb57600080fd5b506103aa6109fa36600461310b565b611dfe565b348015610a0b57600080fd5b506103aa610a1a36600461310b565b611e66565b6000610a2a82611ea1565b92915050565b6000805160206135cb833981519152610a4881611ec6565b6103e8826001600160601b03161115610aa45760405162461bcd60e51b8152602060048201526019602482015278526f79616c74792063616e6e6f74206578636565642031302560381b60448201526064015b60405180910390fd5b610aae8383611ed0565b6040516001600160601b03831681526001600160a01b038416907fae1d656a1268648b04ffa79c1416f05879338ae295aae3234d8db217356a1c62906020015b60405180910390a2505050565b6000805160206135cb833981519152610b1381611ec6565b60168290556040518281527f24859c978b6d14d129380f4145e897fce2d691a5f6cf3983b43ce79cd6ba75a9906020015b60405180910390a15050565b606060028054610b5f906132b4565b80601f0160208091040260200160405190810160405280929190818152602001828054610b8b906132b4565b8015610bd85780601f10610bad57610100808354040283529160200191610bd8565b820191906000526020600020905b815481529060010190602001808311610bbb57829003601f168201915b5050505050905090565b6000610bed82611f73565b610c0157610c016333d1c03960e21b611fb8565b506000908152600660205260409020546001600160a01b031690565b610c2982826001611fc2565b5050565b6000610c3882612065565b6001600160a01b039485169490915081168414610c5e57610c5e62a1148160e81b611fb8565b60008281526006602052604090208054610c8a8187335b6001600160a01b039081169116811491141790565b610cac57610c98863361099c565b610cac57610cac632ce44b5f60e11b611fb8565b610cb986868660016120fb565b8015610cc457600082555b6001600160a01b038681166000908152600560205260408082208054600019019055918716808252919020805460010190554260a01b17600160e11b17600085815260046020526040812091909155600160e11b84169003610d5657600184016000818152600460205260408120549003610d54576000548114610d545760008181526004602052604090208490555b505b6001600160a01b0385168481887fddf252ad1be2c89b69c2b068fc378daa952ba7f163c4a11628f55a4df523b3ef600080a480600003610da057610da0633a954ecd60e21b611fb8565b50505050505050565b6000610db482611f73565b610dc057506000919050565b6000828152601760205260408120549081610de757601654610de29042613304565b610de9565b815b4210949350505050565b6000828152600d6020526040812080548291906001600160a01b03811690600160a01b90046001600160601b031681610e47575050600c546001600160a01b03811690600160a01b90046001600160601b03165b6000612710610e5f6001600160601b03841689613317565b610e69919061332e565b9295509193505050505b9250929050565b610e82612216565b610e8a612240565b610e95600033611a25565b80610eb35750610eb36000805160206135cb83398151915233611a25565b610eff5760405162461bcd60e51b815260206004820181905260248201527f43616c6c6572206973206e6f7420616e2041444d494e206f7220455343524f576044820152606401610a9b565b60125460ff16610f4a5760405162461bcd60e51b8152602060048201526016602482015275135a5b9d1a5b99c81a5cc81b9bdd08195b98589b195960521b6044820152606401610a9b565b60135482610f5760005490565b610f619190613304565b1115610fa45760405162461bcd60e51b815260206004820152601260248201527113585e081cdd5c1c1b1e481c995858da195960721b6044820152606401610a9b565b6001600160a01b038316610fec5760405162461bcd60e51b815260206004820152600f60248201526e496e76616c6964206164647265737360881b6044820152606401610a9b565b6000821161102f5760405162461bcd60e51b815260206004820152601060248201526f496e76616c6964207175616e7469747960801b6044820152606401610a9b565b6000811161107f5760405162461bcd60e51b815260206004820152601e60248201527f47617320666565206d7573742062652067726561746572207468616e203000006044820152606401610a9b565b600061108f82633b9aca00613317565b9050600061109c60005490565b90506110a8858561226b565b60408051828152602081018690529081018390526001600160a01b038616907f26f4c0c9dd9536441681c861e4c72684bbec9e4e6d7e4492c2a90ff07cf35c6f9060600160405180910390a250506111006001600a55565b505050565b6000828152600b602052604090206001015461112081611ec6565b61112a8383612337565b50505050565b6001600160a01b03811633146111595760405163334bd91960e11b815260040160405180910390fd5b61110082826123cb565b6000805160206135cb83398151915261117b81611ec6565b600082116111d55760405162461bcd60e51b815260206004820152602160248201527f426c6f636b2074696d65206d7573742062652067726561746572207468616e206044820152600360fc1b6064820152608401610a9b565b600f80549083905560408051828152602081018590527fbe1531878ca10f11c57318847b09788b90ed4e6dd52b36836be286097a74ff4f910160405180910390a1505050565b6000805160206135cb83398151915261123381611ec6565b61123b612438565b50565b61110083838360405180602001604052806000815250611bed565b611263813361248d565b6112af5760405162461bcd60e51b815260206004820181905260248201527f43616c6c6572206973206e6f74206f776e6572206e6f7220617070726f7665646044820152606401610a9b565b6112b8816124ec565b60405181815233907f1af5163f80e79b5e554f61e1d052084d3a3fe1166e42a265798c4e2ddce8ffa29060200160405180910390a250565b6000805160206135cb83398151915261130881611ec6565b60005b838110156113c85761133485858381811061132857611328613350565b90506020020135611f73565b6113505760405162461bcd60e51b8152600401610a9b90613366565b826017600087878581811061136757611367613350565b9050602002013581526020019081526020016000208190555084848281811061139257611392613350565b905060200201356000805160206135ab833981519152846040516113b891815260200190565b60405180910390a260010161130b565b5050505050565b6000805160206135cb8339815191526113e781611ec6565b6012805460ff19168315159081179091556040519081527ff62079051152e03bd87f33518b9ce4a5564414395b75afeef8a467e7ca4ee91b90602001610b44565b6000805160206135cb83398151915261144081611ec6565b601061144c83826133db565b507f6741b2fc379fad678116fe3d4d4b9a1a184ab53ba36b86ad0fa66340b1ab41ad82604051610b449190612e48565b6000805160206135cb83398151915261149481611ec6565b6103e8826001600160601b031611156114eb5760405162461bcd60e51b8152602060048201526019602482015278526f79616c74792063616e6e6f74206578636565642031302560381b6044820152606401610a9b565b6114f484611f73565b6115105760405162461bcd60e51b8152600401610a9b90613366565b61151b8484846124f7565b6040516001600160601b03831681526001600160a01b038416907fae1d656a1268648b04ffa79c1416f05879338ae295aae3234d8db217356a1c629060200160405180910390a250505050565b6000805160206135cb83398151915261158081611ec6565b61158982611f73565b6115a55760405162461bcd60e51b8152600401610a9b90613366565b6000828152601760205260408082208290555183916000805160206135ab833981519152916115d691815260200190565b60405180910390a25050565b6000610a2a82612065565b6000805160206135cb83398151915261160581611ec6565b61161d6000805160206135cb83398151915283611105565b6040516001600160a01b038316907f31c682dcd71348807b079d0cb25bf0c85c9e75f84a8b7b31111ba081e52817f390600090a25050565b60006001600160a01b038216611675576116756323d3ad8160e21b611fb8565b506001600160a01b031660009081526005602052604090205467ffffffffffffffff1690565b6116a36125b9565b6116ad60006125e6565b565b6116b7612240565b6000805160206135cb8339815191526116cf81611ec6565b6116d884611f73565b6116f45760405162461bcd60e51b8152600401610a9b90613366565b856001600160a01b0316611707856115e2565b6001600160a01b03161461175d5760405162461bcd60e51b815260206004820152601d60248201527f46726f6d2061646472657373206973206e6f7420746865206f776e65720000006044820152606401610a9b565b6001600160a01b0385166117b35760405162461bcd60e51b815260206004820152601f60248201527f43616e6e6f74207472616e7366657220746f207a65726f2061646472657373006044820152606401610a9b565b6117bc84610da9565b156117fb5760405162461bcd60e51b815260206004820152600f60248201526e151bdad95b881a5cc81b1bd8dad959608a1b6044820152606401610a9b565b6000821161184b5760405162461bcd60e51b815260206004820152601e60248201527f47617320666565206d7573742062652067726561746572207468616e203000006044820152606401610a9b565b600061185b83633b9aca00613317565b6001600160a01b0388166000908152601560209081526040808320549051939450926118b5917f5845c8b965119358c29037dc6226e8f2195e0d03c7d2055c52fb161f57928741918c918c918c913091899146910161349a565b6040516020818303038152906040528051906020012090506000600e54826040516020016118fa92919061190160f01b81526002810192909252602282015260420190565b60405160208183030381529060405280519060200120905061191d8a8289612638565b61195d5760405162461bcd60e51b8152602060048201526011602482015270496e76616c6964207369676e617475726560781b6044820152606401610a9b565b6001600160a01b038a166000908152601560205260408120805491611981836134d8565b91905055506119986119903390565b896000611fc2565b6119a38a8a8a610c2d565b886001600160a01b03168a6001600160a01b03167fe37e962447c072d61e0164c30f30d2a3f4752dea7a7224ffd42d5fc2586b02d58a876040516119f1929190918252602082015260400190565b60405180910390a350505050505050505050565b6000805160206135cb833981519152611a1d81611ec6565b61123b6127db565b6000918252600b602090815260408084206001600160a01b0393909316845291905290205460ff1690565b6000805160206135cb833981519152611a6881611ec6565b6011611a7483826133db565b507f905d981207a7d0b6c62cc46ab0be2a076d0298e4a86d0ab79882dbd01ac3737882604051610b449190612e48565b606060038054610b5f906132b4565b3360008181526007602090815260408083206001600160a01b03871680855290835292819020805460ff191686151590811790915590519081529192917f17307eab39ab6107e8899845ad3d59bd9653f200f220920489ca2b5937696c31910160405180910390a35050565b6000805160206135cb833981519152611b3781611ec6565b60005b8281101561112a57611b5784848381811061132857611328613350565b611b735760405162461bcd60e51b8152600401610a9b90613366565b600060176000868685818110611b8b57611b8b613350565b90506020020135815260200190815260200160002081905550838382818110611bb657611bb6613350565b905060200201356000805160206135ab8339815191526000604051611bdd91815260200190565b60405180910390a2600101611b3a565b611bf8848484610c2d565b6001600160a01b0383163b1561112a57611c148484848461281e565b61112a5761112a6368d2bf6b60e11b611fb8565b6000805160206135cb833981519152611c4081611ec6565b611c4983611f73565b611c655760405162461bcd60e51b8152600401610a9b90613366565b600083815260176020526040908190208390555183906000805160206135ab83398151915290610aee9085815260200190565b6001600160a01b038316600090815260156020908152604080832054905190918391611cf2917f5845c8b965119358c29037dc6226e8f2195e0d03c7d2055c52fb161f57928741918991899189913091899146910161349a565b604051602081830303815290604052805190602001209050600e5481604051602001611d3592919061190160f01b81526002810192909252602282015260420190565b60405160208183030381529060405280519060200120925050509392505050565b6060611d6182611f73565b611d7d5760405162461bcd60e51b8152600401610a9b90613366565b6000611d87612900565b90506000815111611da75760405180602001604052806000815250611dd2565b80611db18461290f565b604051602001611dc29291906134f1565b6040516020818303038152906040525b9392505050565b6000828152600b6020526040902060010154611df481611ec6565b61112a83836123cb565b6000805160206135cb833981519152611e1681611ec6565b611e2e6000805160206135cb83398151915283611dd9565b6040516001600160a01b038316907f4a84a984790b90cdc99acb8cf998c3f36e0efefd6a3f5b47dcaf480f6a1862c290600090a25050565b611e6e6125b9565b6001600160a01b038116611e9857604051631e4fbdf760e01b815260006004820152602401610a9b565b61123b816125e6565b60006001600160e01b0319821663152a902d60e11b1480610a2a5750610a2a826129a2565b61123b81336129d7565b6127106001600160601b038216811015611f0f57604051636f483d0960e01b81526001600160601b038316600482015260248101829052604401610a9b565b6001600160a01b038316611f3957604051635b6cc80560e11b815260006004820152602401610a9b565b50604080518082019091526001600160a01b039092168083526001600160601b039091166020909201829052600160a01b90910217600c55565b60008054821015611fb35760005b5060008281526004602052604081205490819003611fa957611fa283613520565b9250611f81565b600160e01b161590505b919050565b8060005260046000fd5b6000611fcd836115e2565b9050818015611fe55750336001600160a01b03821614155b1561200857611ff4813361099c565b612008576120086367d9dca160e11b611fb8565b60008381526006602052604080822080546001600160a01b0319166001600160a01b0388811691821790925591518693918516917f8c5be1e5ebec7d5bd14f71427d1e84f3dd0314c0f7b2291e5b200ac8c7c3b92591a450505050565b600081815260046020526040902054806000036120d857600054821061209557612095636f96cda160e11b611fb8565b5b5060001901600081815260046020526040902054801561209657600160e01b81166000036120c357919050565b6120d3636f96cda160e11b611fb8565b612096565b600160e01b81166000036120eb57919050565b611fb3636f96cda160e11b611fb8565b612103612240565b6001600160a01b0384161580159061212357506001600160a01b03831615155b1561112a5760005b818110156113c857600061213f8285613304565b90506121596000805160206135cb83398151915233611a25565b61220d5761216681610da9565b156121a55760405162461bcd60e51b815260206004820152600f60248201526e151bdad95b881a5cc81b1bd8dad959608a1b6044820152606401610a9b565b6121af813361248d565b61220d5760405162461bcd60e51b815260206004820152602960248201527f5472616e736665722063616c6c6572206973206e6f74206f776e6572206e6f7260448201526808185c1c1c9bdd995960ba1b6064820152608401610a9b565b5060010161212b565b6002600a540361223957604051633ee5aeb560e01b815260040160405180910390fd5b6002600a55565b600954600160a01b900460ff16156116ad5760405163d93c066560e01b815260040160405180910390fd5b60008054908290036122875761228763b562e8dd60e01b611fb8565b61229460008483856120fb565b60008181526004602090815260408083206001600160a01b0387164260a01b6001881460e11b178117909155808452600590925282208054680100000000000000018602019055908190036122f2576122f2622e076360e81b611fb8565b818301825b808360007fddf252ad1be2c89b69c2b068fc378daa952ba7f163c4a11628f55a4df523b3ef600080a48181600101915081036122f7575060005550505050565b60006123438383611a25565b6123c3576000838152600b602090815260408083206001600160a01b03861684529091529020805460ff1916600117905561237b3390565b6001600160a01b0316826001600160a01b0316847f2f8788117e7eff1d82e926ec794901d17c78024a50270940304540a733656f0d60405160405180910390a4506001610a2a565b506000610a2a565b60006123d78383611a25565b156123c3576000838152600b602090815260408083206001600160a01b0386168085529252808320805460ff1916905551339286917ff6391f5c32d9c69d2a47ea670b442974b53935d1edc7fd64eb21e047a839171b9190a4506001610a2a565b612440612a10565b6009805460ff60a01b191690557f5db9ee0a495bf2e6ff9c91a7834c1ba4fdd244a5e8aa4e537bd38aeae4b073aa335b6040516001600160a01b03909116815260200160405180910390a1565b600080612499846115e2565b9050806001600160a01b0316836001600160a01b031614806124c057506124c0818461099c565b806124e45750826001600160a01b03166124d985610be2565b6001600160a01b0316145b949350505050565b61123b816000612a3a565b6127106001600160601b03821681101561253d5760405163dfd1fc1b60e01b8152600481018590526001600160601b038316602482015260448101829052606401610a9b565b6001600160a01b03831661256e57604051634b4f842960e11b81526004810185905260006024820152604401610a9b565b506040805180820182526001600160a01b0393841681526001600160601b0392831660208083019182526000968752600d90529190942093519051909116600160a01b029116179055565b6009546001600160a01b031633146116ad5760405163118cdaa760e01b8152336004820152602401610a9b565b600980546001600160a01b038381166001600160a01b0319831681179093556040519116919082907f8be0079c531659141344cd1fd0a4f28419497f9722a3daafe3b4186f6b6457e090600090a35050565b6040517f19457468657265756d205369676e6564204d6573736167653a0a3332000000006020820152603c81018390526000908190605c01604051602081830303815290604052805190602001209050600080600061269686612b89565b919450925090507f7fffffffffffffffffffffffffffffff5d576e7357a4501ddfe92f46681b20a082111561270d5760405162461bcd60e51b815260206004820152601b60248201527f496e76616c6964207369676e6174757265202773272076616c756500000000006044820152606401610a9b565b6040805160008082526020820180845287905260ff841692820192909252606081018590526080810184905260019060a0016020604051602081039080840390855afa158015612761573d6000803e3d6000fd5b5050604051601f1901519150506001600160a01b0381166127b85760405162461bcd60e51b8152602060048201526011602482015270496e76616c6964207369676e617475726560781b6044820152606401610a9b565b886001600160a01b0316816001600160a01b031614955050505050509392505050565b6127e3612240565b6009805460ff60a01b1916600160a01b1790557f62e78cea01bee320cd4e420270b5ea74000d11b0c9f74754ebdbfc544b05a2586124703390565b604051630a85bd0160e11b81526000906001600160a01b0385169063150b7a0290612853903390899088908890600401613537565b6020604051808303816000875af192505050801561288e575060408051601f3d908101601f1916820190925261288b91810190613574565b60015b6128e3573d8080156128bc576040519150601f19603f3d011682016040523d82523d6000602084013e6128c1565b606091505b5080516000036128db576128db6368d2bf6b60e11b611fb8565b805181602001fd5b6001600160e01b031916630a85bd0160e11b149050949350505050565b606060108054610b5f906132b4565b6060600061291c83612c73565b600101905060008167ffffffffffffffff81111561293c5761293c612ff6565b6040519080825280601f01601f191660200182016040528015612966576020820181803683370190505b5090508181016020015b600019016f181899199a1a9b1b9c1cb0b131b232b360811b600a86061a8153600a850494508461297057509392505050565b60006001600160e01b03198216637965db0b60e01b1480610a2a57506301ffc9a760e01b6001600160e01b0319831614610a2a565b6129e18282611a25565b610c295760405163e2517d3f60e01b81526001600160a01b038216600482015260248101839052604401610a9b565b600954600160a01b900460ff166116ad57604051638dfc202b60e01b815260040160405180910390fd5b6000612a4583612065565b905080600080612a6386600090815260066020526040902080549091565b915091508415612a9a57612a78818433610c75565b612a9a57612a86833361099c565b612a9a57612a9a632ce44b5f60e11b611fb8565b612aa88360008860016120fb565b8015612ab357600082555b6001600160a01b038316600081815260056020526040902080546fffffffffffffffffffffffffffffffff0190554260a01b17600360e01b17600087815260046020526040812091909155600160e11b85169003612b4157600186016000818152600460205260408120549003612b3f576000548114612b3f5760008181526004602052604090208590555b505b60405186906000906001600160a01b038616907fddf252ad1be2c89b69c2b068fc378daa952ba7f163c4a11628f55a4df523b3ef908390a45050600180548101905550505050565b60008060008351604114612bdf5760405162461bcd60e51b815260206004820152601860248201527f496e76616c6964207369676e6174757265206c656e67746800000000000000006044820152606401610a9b565b50505060208101516040820151606083015160001a601b811015612c0b57612c08601b82613591565b90505b8060ff16601b1480612c2057508060ff16601c145b612c6c5760405162461bcd60e51b815260206004820152601b60248201527f496e76616c6964207369676e6174757265202776272076616c756500000000006044820152606401610a9b565b9193909250565b60008072184f03e93ff9f4daa797ed6e38ed64bf6a1f0160401b8310612cb25772184f03e93ff9f4daa797ed6e38ed64bf6a1f0160401b830492506040015b6d04ee2d6d415b85acef81000000008310612cde576d04ee2d6d415b85acef8100000000830492506020015b662386f26fc100008310612cfc57662386f26fc10000830492506010015b6305f5e1008310612d14576305f5e100830492506008015b6127108310612d2857612710830492506004015b60648310612d3a576064830492506002015b600a8310610a2a5760010192915050565b6001600160e01b03198116811461123b57600080fd5b600060208284031215612d7357600080fd5b8135611dd281612d4b565b80356001600160a01b0381168114611fb357600080fd5b80356001600160601b0381168114611fb357600080fd5b60008060408385031215612dbf57600080fd5b612dc883612d7e565b9150612dd660208401612d95565b90509250929050565b600060208284031215612df157600080fd5b5035919050565b60005b83811015612e13578181015183820152602001612dfb565b50506000910152565b60008151808452612e34816020860160208601612df8565b601f01601f19169290920160200192915050565b602081526000611dd26020830184612e1c565b60008060408385031215612e6e57600080fd5b612e7783612d7e565b946020939093013593505050565b600080600060608486031215612e9a57600080fd5b612ea384612d7e565b9250612eb160208501612d7e565b929592945050506040919091013590565b60008060408385031215612ed557600080fd5b50508035926020909101359150565b600080600060608486031215612ef957600080fd5b612f0284612d7e565b95602085013595506040909401359392505050565b60008060408385031215612f2a57600080fd5b82359150612dd660208401612d7e565b60008083601f840112612f4c57600080fd5b50813567ffffffffffffffff811115612f6457600080fd5b6020830191508360208260051b8501011115610e7357600080fd5b600080600060408486031215612f9457600080fd5b833567ffffffffffffffff811115612fab57600080fd5b612fb786828701612f3a565b909790965060209590950135949350505050565b80358015158114611fb357600080fd5b600060208284031215612fed57600080fd5b611dd282612fcb565b634e487b7160e01b600052604160045260246000fd5b60008067ffffffffffffffff84111561302757613027612ff6565b50604051601f19601f85018116603f0116810181811067ffffffffffffffff8211171561305657613056612ff6565b60405283815290508082840185101561306e57600080fd5b83836020830137600060208583010152509392505050565b60006020828403121561309857600080fd5b813567ffffffffffffffff8111156130af57600080fd5b8201601f810184136130c057600080fd5b6124e48482356020840161300c565b6000806000606084860312156130e457600080fd5b833592506130f460208501612d7e565b915061310260408501612d95565b90509250925092565b60006020828403121561311d57600080fd5b611dd282612d7e565b600082601f83011261313757600080fd5b611dd28383356020850161300c565b600080600080600060a0868803121561315e57600080fd5b61316786612d7e565b945061317560208701612d7e565b935060408601359250606086013567ffffffffffffffff81111561319857600080fd5b6131a488828901613126565b95989497509295608001359392505050565b600080604083850312156131c957600080fd5b6131d283612d7e565b9150612dd660208401612fcb565b600080602083850312156131f357600080fd5b823567ffffffffffffffff81111561320a57600080fd5b61321685828601612f3a565b90969095509350505050565b6000806000806080858703121561323857600080fd5b61324185612d7e565b935061324f60208601612d7e565b925060408501359150606085013567ffffffffffffffff81111561327257600080fd5b61327e87828801613126565b91505092959194509250565b6000806040838503121561329d57600080fd5b6132a683612d7e565b9150612dd660208401612d7e565b600181811c908216806132c857607f821691505b6020821081036132e857634e487b7160e01b600052602260045260246000fd5b50919050565b634e487b7160e01b600052601160045260246000fd5b80820180821115610a2a57610a2a6132ee565b8082028115828204841417610a2a57610a2a6132ee565b60008261334b57634e487b7160e01b600052601260045260246000fd5b500490565b634e487b7160e01b600052603260045260246000fd5b602080825260149082015273151bdad95b88191bd95cc81b9bdd08195e1a5cdd60621b604082015260600190565b601f82111561110057806000526020600020601f840160051c810160208510156133bb5750805b601f840160051c820191505b818110156113c857600081556001016133c7565b815167ffffffffffffffff8111156133f5576133f5612ff6565b6134098161340384546132b4565b84613394565b6020601f82116001811461343d57600083156134255750848201515b600019600385901b1c1916600184901b1784556113c8565b600084815260208120601f198516915b8281101561346d578785015182556020948501946001909201910161344d565b508482101561348b5786840151600019600387901b60f8161c191681555b50505050600190811b01905550565b9687526001600160a01b03958616602088015293851660408701526060860192909252909216608084015260a083019190915260c082015260e00190565b6000600182016134ea576134ea6132ee565b5060010190565b60008351613503818460208801612df8565b835190830190613517818360208801612df8565b01949350505050565b60008161352f5761352f6132ee565b506000190190565b6001600160a01b038581168252841660208201526040810183905260806060820181905260009061356a90830184612e1c565b9695505050505050565b60006020828403121561358657600080fd5b8151611dd281612d4b565b60ff8181168382160190811115610a2a57610a2a6132ee56fe69282f40965223959b26ab76d9e00d4c314a3e6719bb14c8fe6bb6852e7c77812fdac322ee704ce09f0773f7f3f92eb98d5e7c836ee9c056cccd5f61041e5e3fa264697066735822122036b1f29f55c46aa93e850f314354593aa9aa7b452b26115203c6abdc2c8c2c2a64736f6c634300081c0033a2646970667358221220d847e151b215e13bd876aaf4cdd400c3d853c4b8d73db1af0118a051ef894f6b64736f6c634300081c0033",
  "linkReferences": {},
  "deployedLinkReferences": {}
}